{
	"contracts/lazyclaim/ERC721LazyClaim.sol": {
		"ERC721LazyClaim": {
			"abi": [
				{
					"anonymous": false,
					"inputs": [
						{
							"indexed": true,
							"internalType": "address",
							"name": "creatorContract",
							"type": "address"
						},
						{
							"indexed": true,
							"internalType": "uint256",
							"name": "index",
							"type": "uint256"
						},
						{
							"indexed": false,
							"internalType": "address",
							"name": "initializer",
							"type": "address"
						}
					],
					"name": "ClaimInitialized",
					"type": "event"
				},
				{
					"inputs": [
						{
							"internalType": "address",
							"name": "",
							"type": "address"
						}
					],
					"name": "claimCounts",
					"outputs": [
						{
							"internalType": "uint256",
							"name": "",
							"type": "uint256"
						}
					],
					"stateMutability": "view",
					"type": "function"
				},
				{
					"inputs": [
						{
							"internalType": "address",
							"name": "",
							"type": "address"
						},
						{
							"internalType": "uint256",
							"name": "",
							"type": "uint256"
						}
					],
					"name": "claims",
					"outputs": [
						{
							"internalType": "uint32",
							"name": "total",
							"type": "uint32"
						},
						{
							"internalType": "uint32",
							"name": "totalMax",
							"type": "uint32"
						},
						{
							"internalType": "uint32",
							"name": "walletMax",
							"type": "uint32"
						},
						{
							"internalType": "uint48",
							"name": "startDate",
							"type": "uint48"
						},
						{
							"internalType": "uint48",
							"name": "endDate",
							"type": "uint48"
						},
						{
							"internalType": "enum IERC721LazyClaim.StorageProtocol",
							"name": "storageProtocol",
							"type": "uint8"
						},
						{
							"internalType": "bool",
							"name": "identical",
							"type": "bool"
						},
						{
							"internalType": "bytes32",
							"name": "merkleRoot",
							"type": "bytes32"
						},
						{
							"internalType": "string",
							"name": "location",
							"type": "string"
						}
					],
					"stateMutability": "view",
					"type": "function"
				},
				{
					"inputs": [
						{
							"internalType": "address",
							"name": "creatorContractAddress",
							"type": "address"
						},
						{
							"internalType": "uint256",
							"name": "claimIndex",
							"type": "uint256"
						}
					],
					"name": "getClaim",
					"outputs": [
						{
							"components": [
								{
									"internalType": "uint32",
									"name": "total",
									"type": "uint32"
								},
								{
									"internalType": "uint32",
									"name": "totalMax",
									"type": "uint32"
								},
								{
									"internalType": "uint32",
									"name": "walletMax",
									"type": "uint32"
								},
								{
									"internalType": "uint48",
									"name": "startDate",
									"type": "uint48"
								},
								{
									"internalType": "uint48",
									"name": "endDate",
									"type": "uint48"
								},
								{
									"internalType": "enum IERC721LazyClaim.StorageProtocol",
									"name": "storageProtocol",
									"type": "uint8"
								},
								{
									"internalType": "bool",
									"name": "identical",
									"type": "bool"
								},
								{
									"internalType": "bytes32",
									"name": "merkleRoot",
									"type": "bytes32"
								},
								{
									"internalType": "string",
									"name": "location",
									"type": "string"
								}
							],
							"internalType": "struct IERC721LazyClaim.Claim",
							"name": "",
							"type": "tuple"
						}
					],
					"stateMutability": "view",
					"type": "function"
				},
				{
					"inputs": [
						{
							"internalType": "address",
							"name": "creatorContractAddress",
							"type": "address"
						}
					],
					"name": "getClaimCount",
					"outputs": [
						{
							"internalType": "uint256",
							"name": "",
							"type": "uint256"
						}
					],
					"stateMutability": "view",
					"type": "function"
				},
				{
					"inputs": [
						{
							"internalType": "address",
							"name": "creatorContractAddress",
							"type": "address"
						},
						{
							"internalType": "uint256",
							"name": "tokenId",
							"type": "uint256"
						}
					],
					"name": "getTokenClaim",
					"outputs": [
						{
							"internalType": "uint256",
							"name": "",
							"type": "uint256"
						}
					],
					"stateMutability": "view",
					"type": "function"
				},
				{
					"inputs": [
						{
							"internalType": "address",
							"name": "creatorContractAddress",
							"type": "address"
						},
						{
							"internalType": "uint256",
							"name": "claimIndex",
							"type": "uint256"
						}
					],
					"name": "getWalletMinted",
					"outputs": [
						{
							"internalType": "uint32",
							"name": "",
							"type": "uint32"
						}
					],
					"stateMutability": "view",
					"type": "function"
				},
				{
					"inputs": [
						{
							"internalType": "address",
							"name": "creatorContractAddress",
							"type": "address"
						},
						{
							"components": [
								{
									"internalType": "uint32",
									"name": "total",
									"type": "uint32"
								},
								{
									"internalType": "uint32",
									"name": "totalMax",
									"type": "uint32"
								},
								{
									"internalType": "uint32",
									"name": "walletMax",
									"type": "uint32"
								},
								{
									"internalType": "uint48",
									"name": "startDate",
									"type": "uint48"
								},
								{
									"internalType": "uint48",
									"name": "endDate",
									"type": "uint48"
								},
								{
									"internalType": "enum IERC721LazyClaim.StorageProtocol",
									"name": "storageProtocol",
									"type": "uint8"
								},
								{
									"internalType": "bool",
									"name": "identical",
									"type": "bool"
								},
								{
									"internalType": "bytes32",
									"name": "merkleRoot",
									"type": "bytes32"
								},
								{
									"internalType": "string",
									"name": "location",
									"type": "string"
								}
							],
							"internalType": "struct IERC721LazyClaim.ClaimParameters",
							"name": "claimParameters",
							"type": "tuple"
						}
					],
					"name": "initializeClaim",
					"outputs": [
						{
							"internalType": "uint256",
							"name": "",
							"type": "uint256"
						}
					],
					"stateMutability": "nonpayable",
					"type": "function"
				},
				{
					"inputs": [
						{
							"internalType": "address",
							"name": "creatorContractAddress",
							"type": "address"
						},
						{
							"internalType": "uint256",
							"name": "index",
							"type": "uint256"
						},
						{
							"internalType": "bytes32[]",
							"name": "merkleProof",
							"type": "bytes32[]"
						},
						{
							"internalType": "uint32",
							"name": "minterValue",
							"type": "uint32"
						}
					],
					"name": "mint",
					"outputs": [],
					"stateMutability": "nonpayable",
					"type": "function"
				},
				{
					"inputs": [
						{
							"internalType": "address",
							"name": "",
							"type": "address"
						},
						{
							"internalType": "uint256",
							"name": "",
							"type": "uint256"
						},
						{
							"internalType": "address",
							"name": "",
							"type": "address"
						}
					],
					"name": "mintsPerWallet",
					"outputs": [
						{
							"internalType": "uint32",
							"name": "",
							"type": "uint32"
						}
					],
					"stateMutability": "view",
					"type": "function"
				},
				{
					"inputs": [
						{
							"internalType": "address",
							"name": "creatorContractAddress",
							"type": "address"
						},
						{
							"internalType": "uint256",
							"name": "claimIndex",
							"type": "uint256"
						},
						{
							"components": [
								{
									"internalType": "uint32",
									"name": "total",
									"type": "uint32"
								},
								{
									"internalType": "uint32",
									"name": "totalMax",
									"type": "uint32"
								},
								{
									"internalType": "uint32",
									"name": "walletMax",
									"type": "uint32"
								},
								{
									"internalType": "uint48",
									"name": "startDate",
									"type": "uint48"
								},
								{
									"internalType": "uint48",
									"name": "endDate",
									"type": "uint48"
								},
								{
									"internalType": "enum IERC721LazyClaim.StorageProtocol",
									"name": "storageProtocol",
									"type": "uint8"
								},
								{
									"internalType": "bool",
									"name": "identical",
									"type": "bool"
								},
								{
									"internalType": "bytes32",
									"name": "merkleRoot",
									"type": "bytes32"
								},
								{
									"internalType": "string",
									"name": "location",
									"type": "string"
								}
							],
							"internalType": "struct IERC721LazyClaim.ClaimParameters",
							"name": "claimParameters",
							"type": "tuple"
						}
					],
					"name": "overwriteClaim",
					"outputs": [],
					"stateMutability": "nonpayable",
					"type": "function"
				},
				{
					"inputs": [
						{
							"internalType": "bytes4",
							"name": "interfaceId",
							"type": "bytes4"
						}
					],
					"name": "supportsInterface",
					"outputs": [
						{
							"internalType": "bool",
							"name": "",
							"type": "bool"
						}
					],
					"stateMutability": "view",
					"type": "function"
				},
				{
					"inputs": [
						{
							"internalType": "address",
							"name": "",
							"type": "address"
						},
						{
							"internalType": "uint256",
							"name": "",
							"type": "uint256"
						},
						{
							"internalType": "uint256",
							"name": "",
							"type": "uint256"
						}
					],
					"name": "tokenClaims",
					"outputs": [
						{
							"internalType": "uint256",
							"name": "start",
							"type": "uint256"
						},
						{
							"internalType": "uint256",
							"name": "count",
							"type": "uint256"
						}
					],
					"stateMutability": "view",
					"type": "function"
				},
				{
					"inputs": [
						{
							"internalType": "address",
							"name": "creatorContractAddress",
							"type": "address"
						},
						{
							"internalType": "uint256",
							"name": "tokenId",
							"type": "uint256"
						}
					],
					"name": "tokenURI",
					"outputs": [
						{
							"internalType": "string",
							"name": "",
							"type": "string"
						}
					],
					"stateMutability": "view",
					"type": "function"
				}
			],
			"devdoc": {
				"kind": "dev",
				"methods": {
					"getClaim(address,uint256)": {
						"params": {
							"claimIndex": "the index of the claim",
							"creatorContractAddress": "the address of the creator contract"
						},
						"returns": {
							"_0": "the claim object"
						}
					},
					"getClaimCount(address)": {
						"params": {
							"creatorContractAddress": "the address of the creator contract"
						},
						"returns": {
							"_0": "the number of claims initialized for this creator contract"
						}
					},
					"getTokenClaim(address,uint256)": {
						"params": {
							"creatorContractAddress": "the address of the creator contract",
							"tokenId": "the token id"
						},
						"returns": {
							"_0": "the index of the claim"
						}
					},
					"getWalletMinted(address,uint256)": {
						"params": {
							"claimIndex": "the index of the claim",
							"creatorContractAddress": "the address of the creator contract for the claim"
						},
						"returns": {
							"_0": "the number of tokens minted for the current wallet"
						}
					},
					"initializeClaim(address,(uint32,uint32,uint32,uint48,uint48,uint8,bool,bytes32,string))": {
						"params": {
							"claimParameters": "the parameters which will affect the minting behavior of the claim",
							"creatorContractAddress": "the creator contract the claim will mint tokens for"
						},
						"returns": {
							"_0": "the index of the newly created claim"
						}
					},
					"overwriteClaim(address,uint256,(uint32,uint32,uint32,uint48,uint48,uint8,bool,bytes32,string))": {
						"params": {
							"claimIndex": "the index of the claim in the list of creatorContractAddress' claims",
							"claimParameters": "the parameters which will affect the minting behavior of the claim",
							"creatorContractAddress": "the creator contract corresponding to the claim"
						}
					},
					"supportsInterface(bytes4)": {
						"details": "Returns true if this contract implements the interface defined by `interfaceId`. See the corresponding https://eips.ethereum.org/EIPS/eip-165#how-interfaces-are-identified[EIP section] to learn more about how these ids are created. This function call must use less than 30 000 gas."
					}
				},
				"version": 1
			},
			"evm": {
				"assembly": "    /* \"contracts/lazyclaim/ERC721LazyClaim.sol\":625:12198  contract ERC721LazyClaim is IERC165, IERC721LazyClaim, ICreatorExtensionTokenURI, ReentrancyGuard {... */\n  mstore(0x40, 0x80)\n  callvalue\n  dup1\n  iszero\n  tag_1\n  jumpi\n  0x00\n  dup1\n  revert\ntag_1:\n  pop\n    /* \"@openzeppelin/contracts/security/ReentrancyGuard.sol\":1701:1702  1 */\n  0x01\n    /* \"@openzeppelin/contracts/security/ReentrancyGuard.sol\":1806:1813  _status */\n  0x00\n    /* \"@openzeppelin/contracts/security/ReentrancyGuard.sol\":1806:1828  _status = _NOT_ENTERED */\n  dup2\n  swap1\n  sstore\n  pop\n    /* \"contracts/lazyclaim/ERC721LazyClaim.sol\":625:12198  contract ERC721LazyClaim is IERC165, IERC721LazyClaim, ICreatorExtensionTokenURI, ReentrancyGuard {... */\n  dataSize(sub_0)\n  dup1\n  dataOffset(sub_0)\n  0x00\n  codecopy\n  0x00\n  return\nstop\n\nsub_0: assembly {\n        /* \"contracts/lazyclaim/ERC721LazyClaim.sol\":625:12198  contract ERC721LazyClaim is IERC165, IERC721LazyClaim, ICreatorExtensionTokenURI, ReentrancyGuard {... */\n      mstore(0x40, 0x80)\n      callvalue\n      dup1\n      iszero\n      tag_1\n      jumpi\n      0x00\n      dup1\n      revert\n    tag_1:\n      pop\n      jumpi(tag_2, lt(calldatasize, 0x04))\n      shr(0xe0, calldataload(0x00))\n      dup1\n      0x69c5ecb0\n      gt\n      tag_16\n      jumpi\n      dup1\n      0xd19f60c8\n      gt\n      tag_17\n      jumpi\n      dup1\n      0xd19f60c8\n      eq\n      tag_12\n      jumpi\n      dup1\n      0xd5fdfe87\n      eq\n      tag_13\n      jumpi\n      dup1\n      0xe9dc6375\n      eq\n      tag_14\n      jumpi\n      dup1\n      0xf0f330f0\n      eq\n      tag_15\n      jumpi\n      jump(tag_2)\n    tag_17:\n      dup1\n      0x69c5ecb0\n      eq\n      tag_9\n      jumpi\n      dup1\n      0xab541a85\n      eq\n      tag_10\n      jumpi\n      dup1\n      0xcc2d31ed\n      eq\n      tag_11\n      jumpi\n      jump(tag_2)\n    tag_16:\n      dup1\n      0x01ffc9a7\n      eq\n      tag_3\n      jumpi\n      dup1\n      0x02349713\n      eq\n      tag_4\n      jumpi\n      dup1\n      0x0c134959\n      eq\n      tag_5\n      jumpi\n      dup1\n      0x0f79ab39\n      eq\n      tag_6\n      jumpi\n      dup1\n      0x31dd2a20\n      eq\n      tag_7\n      jumpi\n      dup1\n      0x45e9c1f4\n      eq\n      tag_8\n      jumpi\n    tag_2:\n      0x00\n      dup1\n      revert\n        /* \"contracts/lazyclaim/ERC721LazyClaim.sol\":1837:2122  function supportsInterface(bytes4 interfaceId) public view virtual override(IERC165) returns (bool) {... */\n    tag_3:\n      tag_18\n      0x04\n      dup1\n      calldatasize\n      sub\n      dup2\n      add\n      swap1\n      tag_19\n      swap2\n      swap1\n      tag_20\n      jump\t// in\n    tag_19:\n      tag_21\n      jump\t// in\n    tag_18:\n      mload(0x40)\n      tag_22\n      swap2\n      swap1\n      tag_23\n      jump\t// in\n    tag_22:\n      mload(0x40)\n      dup1\n      swap2\n      sub\n      swap1\n      return\n        /* \"contracts/lazyclaim/ERC721LazyClaim.sol\":7251:7422  function getTokenClaim(address creatorContractAddress, uint tokenId) external override view returns(uint) {... */\n    tag_4:\n      tag_24\n      0x04\n      dup1\n      calldatasize\n      sub\n      dup2\n      add\n      swap1\n      tag_25\n      swap2\n      swap1\n      tag_26\n      jump\t// in\n    tag_25:\n      tag_27\n      jump\t// in\n    tag_24:\n      mload(0x40)\n      tag_28\n      swap2\n      swap1\n      tag_29\n      jump\t// in\n    tag_28:\n      mload(0x40)\n      dup1\n      swap2\n      sub\n      swap1\n      return\n        /* \"contracts/lazyclaim/ERC721LazyClaim.sol\":9034:11013  function mint(address creatorContractAddress, uint index, bytes32[] calldata merkleProof, uint32 minterValue) external override {... */\n    tag_5:\n      tag_30\n      0x04\n      dup1\n      calldatasize\n      sub\n      dup2\n      add\n      swap1\n      tag_31\n      swap2\n      swap1\n      tag_32\n      jump\t// in\n    tag_31:\n      tag_33\n      jump\t// in\n    tag_30:\n      stop\n        /* \"contracts/lazyclaim/ERC721LazyClaim.sol\":6194:6453  function getClaim(address creatorContractAddress, uint claimIndex) external override view returns(Claim memory) {... */\n    tag_6:\n      tag_34\n      0x04\n      dup1\n      calldatasize\n      sub\n      dup2\n      add\n      swap1\n      tag_35\n      swap2\n      swap1\n      tag_26\n      jump\t// in\n    tag_35:\n      tag_36\n      jump\t// in\n    tag_34:\n      mload(0x40)\n      tag_37\n      swap2\n      swap1\n      tag_38\n      jump\t// in\n    tag_37:\n      mload(0x40)\n      dup1\n      swap2\n      sub\n      swap1\n      return\n        /* \"contracts/lazyclaim/ERC721LazyClaim.sol\":1764:1832  mapping(address => mapping(uint => IndexRange[])) public tokenClaims */\n    tag_7:\n      tag_39\n      0x04\n      dup1\n      calldatasize\n      sub\n      dup2\n      add\n      swap1\n      tag_40\n      swap2\n      swap1\n      tag_41\n      jump\t// in\n    tag_40:\n      tag_42\n      jump\t// in\n    tag_39:\n      mload(0x40)\n      tag_43\n      swap3\n      swap2\n      swap1\n      tag_44\n      jump\t// in\n    tag_43:\n      mload(0x40)\n      dup1\n      swap2\n      sub\n      swap1\n      return\n        /* \"contracts/lazyclaim/ERC721LazyClaim.sol\":6742:7022  function getWalletMinted(address creatorContractAddress, uint claimIndex) external override view returns(uint32) {... */\n    tag_8:\n      tag_45\n      0x04\n      dup1\n      calldatasize\n      sub\n      dup2\n      add\n      swap1\n      tag_46\n      swap2\n      swap1\n      tag_26\n      jump\t// in\n    tag_46:\n      tag_47\n      jump\t// in\n    tag_45:\n      mload(0x40)\n      tag_48\n      swap2\n      swap1\n      tag_49\n      jump\t// in\n    tag_48:\n      mload(0x40)\n      dup1\n      swap2\n      sub\n      swap1\n      return\n        /* \"contracts/lazyclaim/ERC721LazyClaim.sol\":4451:5594  function overwriteClaim(... */\n    tag_9:\n      tag_50\n      0x04\n      dup1\n      calldatasize\n      sub\n      dup2\n      add\n      swap1\n      tag_51\n      swap2\n      swap1\n      tag_52\n      jump\t// in\n    tag_51:\n      tag_53\n      jump\t// in\n    tag_50:\n      stop\n        /* \"contracts/lazyclaim/ERC721LazyClaim.sol\":1309:1365  mapping(address => mapping(uint => Claim)) public claims */\n    tag_10:\n      tag_54\n      0x04\n      dup1\n      calldatasize\n      sub\n      dup2\n      add\n      swap1\n      tag_55\n      swap2\n      swap1\n      tag_26\n      jump\t// in\n    tag_55:\n      tag_56\n      jump\t// in\n    tag_54:\n      mload(0x40)\n      tag_57\n      swap10\n      swap9\n      swap8\n      swap7\n      swap6\n      swap5\n      swap4\n      swap3\n      swap2\n      swap1\n      tag_58\n      jump\t// in\n    tag_57:\n      mload(0x40)\n      dup1\n      swap2\n      sub\n      swap1\n      return\n        /* \"contracts/lazyclaim/ERC721LazyClaim.sol\":1137:1180  mapping(address => uint) public claimCounts */\n    tag_11:\n      tag_59\n      0x04\n      dup1\n      calldatasize\n      sub\n      dup2\n      add\n      swap1\n      tag_60\n      swap2\n      swap1\n      tag_61\n      jump\t// in\n    tag_60:\n      tag_62\n      jump\t// in\n    tag_59:\n      mload(0x40)\n      tag_63\n      swap2\n      swap1\n      tag_29\n      jump\t// in\n    tag_63:\n      mload(0x40)\n      dup1\n      swap2\n      sub\n      swap1\n      return\n        /* \"contracts/lazyclaim/ERC721LazyClaim.sol\":2962:4121  function initializeClaim(... */\n    tag_12:\n      tag_64\n      0x04\n      dup1\n      calldatasize\n      sub\n      dup2\n      add\n      swap1\n      tag_65\n      swap2\n      swap1\n      tag_66\n      jump\t// in\n    tag_65:\n      tag_67\n      jump\t// in\n    tag_64:\n      mload(0x40)\n      tag_68\n      swap2\n      swap1\n      tag_29\n      jump\t// in\n    tag_68:\n      mload(0x40)\n      dup1\n      swap2\n      sub\n      swap1\n      return\n        /* \"contracts/lazyclaim/ERC721LazyClaim.sol\":5823:5968  function getClaimCount(address creatorContractAddress) external override view returns(uint) {... */\n    tag_13:\n      tag_69\n      0x04\n      dup1\n      calldatasize\n      sub\n      dup2\n      add\n      swap1\n      tag_70\n      swap2\n      swap1\n      tag_61\n      jump\t// in\n    tag_70:\n      tag_71\n      jump\t// in\n    tag_69:\n      mload(0x40)\n      tag_72\n      swap2\n      swap1\n      tag_29\n      jump\t// in\n    tag_72:\n      mload(0x40)\n      dup1\n      swap2\n      sub\n      swap1\n      return\n        /* \"contracts/lazyclaim/ERC721LazyClaim.sol\":11017:12196  function tokenURI(address creatorContractAddress, uint tokenId) external override view returns(string memory) {... */\n    tag_14:\n      tag_73\n      0x04\n      dup1\n      calldatasize\n      sub\n      dup2\n      add\n      swap1\n      tag_74\n      swap2\n      swap1\n      tag_26\n      jump\t// in\n    tag_74:\n      tag_75\n      jump\t// in\n    tag_73:\n      mload(0x40)\n      tag_76\n      swap2\n      swap1\n      tag_77\n      jump\t// in\n    tag_76:\n      mload(0x40)\n      dup1\n      swap2\n      sub\n      swap1\n      return\n        /* \"contracts/lazyclaim/ERC721LazyClaim.sol\":1537:1622  mapping(address => mapping(uint => mapping(address => uint32))) public mintsPerWallet */\n    tag_15:\n      tag_78\n      0x04\n      dup1\n      calldatasize\n      sub\n      dup2\n      add\n      swap1\n      tag_79\n      swap2\n      swap1\n      tag_80\n      jump\t// in\n    tag_79:\n      tag_81\n      jump\t// in\n    tag_78:\n      mload(0x40)\n      tag_82\n      swap2\n      swap1\n      tag_49\n      jump\t// in\n    tag_82:\n      mload(0x40)\n      dup1\n      swap2\n      sub\n      swap1\n      return\n        /* \"contracts/lazyclaim/ERC721LazyClaim.sol\":1837:2122  function supportsInterface(bytes4 interfaceId) public view virtual override(IERC165) returns (bool) {... */\n    tag_21:\n        /* \"contracts/lazyclaim/ERC721LazyClaim.sol\":1931:1935  bool */\n      0x00\n        /* \"contracts/lazyclaim/ERC721LazyClaim.sol\":1965:1999  type(IERC721LazyClaim).interfaceId */\n      0x2910c67800000000000000000000000000000000000000000000000000000000\n        /* \"contracts/lazyclaim/ERC721LazyClaim.sol\":1950:1999  interfaceId == type(IERC721LazyClaim).interfaceId */\n      not(0xffffffffffffffffffffffffffffffffffffffffffffffffffffffff)\n      and\n        /* \"contracts/lazyclaim/ERC721LazyClaim.sol\":1950:1961  interfaceId */\n      dup3\n        /* \"contracts/lazyclaim/ERC721LazyClaim.sol\":1950:1999  interfaceId == type(IERC721LazyClaim).interfaceId */\n      not(0xffffffffffffffffffffffffffffffffffffffffffffffffffffffff)\n      and\n      eq\n        /* \"contracts/lazyclaim/ERC721LazyClaim.sol\":1950:2067  interfaceId == type(IERC721LazyClaim).interfaceId ||... */\n      dup1\n      tag_84\n      jumpi\n      pop\n        /* \"contracts/lazyclaim/ERC721LazyClaim.sol\":2024:2067  type(ICreatorExtensionTokenURI).interfaceId */\n      0xe9dc637500000000000000000000000000000000000000000000000000000000\n        /* \"contracts/lazyclaim/ERC721LazyClaim.sol\":2009:2067  interfaceId == type(ICreatorExtensionTokenURI).interfaceId */\n      not(0xffffffffffffffffffffffffffffffffffffffffffffffffffffffff)\n      and\n        /* \"contracts/lazyclaim/ERC721LazyClaim.sol\":2009:2020  interfaceId */\n      dup3\n        /* \"contracts/lazyclaim/ERC721LazyClaim.sol\":2009:2067  interfaceId == type(ICreatorExtensionTokenURI).interfaceId */\n      not(0xffffffffffffffffffffffffffffffffffffffffffffffffffffffff)\n      and\n      eq\n        /* \"contracts/lazyclaim/ERC721LazyClaim.sol\":1950:2067  interfaceId == type(IERC721LazyClaim).interfaceId ||... */\n    tag_84:\n        /* \"contracts/lazyclaim/ERC721LazyClaim.sol\":1950:2117  interfaceId == type(IERC721LazyClaim).interfaceId ||... */\n      dup1\n      tag_85\n      jumpi\n      pop\n        /* \"contracts/lazyclaim/ERC721LazyClaim.sol\":2092:2117  type(IERC165).interfaceId */\n      0x01ffc9a700000000000000000000000000000000000000000000000000000000\n        /* \"contracts/lazyclaim/ERC721LazyClaim.sol\":2077:2117  interfaceId == type(IERC165).interfaceId */\n      not(0xffffffffffffffffffffffffffffffffffffffffffffffffffffffff)\n      and\n        /* \"contracts/lazyclaim/ERC721LazyClaim.sol\":2077:2088  interfaceId */\n      dup3\n        /* \"contracts/lazyclaim/ERC721LazyClaim.sol\":2077:2117  interfaceId == type(IERC165).interfaceId */\n      not(0xffffffffffffffffffffffffffffffffffffffffffffffffffffffff)\n      and\n      eq\n        /* \"contracts/lazyclaim/ERC721LazyClaim.sol\":1950:2117  interfaceId == type(IERC721LazyClaim).interfaceId ||... */\n    tag_85:\n        /* \"contracts/lazyclaim/ERC721LazyClaim.sol\":1943:2117  return interfaceId == type(IERC721LazyClaim).interfaceId ||... */\n      swap1\n      pop\n        /* \"contracts/lazyclaim/ERC721LazyClaim.sol\":1837:2122  function supportsInterface(bytes4 interfaceId) public view virtual override(IERC165) returns (bool) {... */\n      swap2\n      swap1\n      pop\n      jump\t// out\n        /* \"contracts/lazyclaim/ERC721LazyClaim.sol\":7251:7422  function getTokenClaim(address creatorContractAddress, uint tokenId) external override view returns(uint) {... */\n    tag_27:\n        /* \"contracts/lazyclaim/ERC721LazyClaim.sol\":7351:7355  uint */\n      0x00\n        /* \"contracts/lazyclaim/ERC721LazyClaim.sol\":7370:7417  _getTokenClaim(creatorContractAddress, tokenId) */\n      tag_87\n        /* \"contracts/lazyclaim/ERC721LazyClaim.sol\":7385:7407  creatorContractAddress */\n      dup4\n        /* \"contracts/lazyclaim/ERC721LazyClaim.sol\":7409:7416  tokenId */\n      dup4\n        /* \"contracts/lazyclaim/ERC721LazyClaim.sol\":7370:7384  _getTokenClaim */\n      tag_88\n        /* \"contracts/lazyclaim/ERC721LazyClaim.sol\":7370:7417  _getTokenClaim(creatorContractAddress, tokenId) */\n      jump\t// in\n    tag_87:\n        /* \"contracts/lazyclaim/ERC721LazyClaim.sol\":7363:7417  return _getTokenClaim(creatorContractAddress, tokenId) */\n      swap1\n      pop\n        /* \"contracts/lazyclaim/ERC721LazyClaim.sol\":7251:7422  function getTokenClaim(address creatorContractAddress, uint tokenId) external override view returns(uint) {... */\n      swap3\n      swap2\n      pop\n      pop\n      jump\t// out\n        /* \"contracts/lazyclaim/ERC721LazyClaim.sol\":9034:11013  function mint(address creatorContractAddress, uint index, bytes32[] calldata merkleProof, uint32 minterValue) external override {... */\n    tag_33:\n        /* \"contracts/lazyclaim/ERC721LazyClaim.sol\":9221:9232  claimCounts */\n      0x01\n        /* \"contracts/lazyclaim/ERC721LazyClaim.sol\":9221:9256  claimCounts[creatorContractAddress] */\n      0x00\n        /* \"contracts/lazyclaim/ERC721LazyClaim.sol\":9233:9255  creatorContractAddress */\n      dup7\n        /* \"contracts/lazyclaim/ERC721LazyClaim.sol\":9221:9256  claimCounts[creatorContractAddress] */\n      0xffffffffffffffffffffffffffffffffffffffff\n      and\n      0xffffffffffffffffffffffffffffffffffffffff\n      and\n      dup2\n      mstore\n      0x20\n      add\n      swap1\n      dup2\n      mstore\n      0x20\n      add\n      0x00\n      keccak256\n      sload\n        /* \"contracts/lazyclaim/ERC721LazyClaim.sol\":9213:9218  index */\n      dup5\n        /* \"contracts/lazyclaim/ERC721LazyClaim.sol\":9213:9256  index < claimCounts[creatorContractAddress] */\n      lt\n        /* \"contracts/lazyclaim/ERC721LazyClaim.sol\":9205:9281  require(index < claimCounts[creatorContractAddress], \"Claim does not exist\") */\n      tag_90\n      jumpi\n      mload(0x40)\n      0x08c379a000000000000000000000000000000000000000000000000000000000\n      dup2\n      mstore\n      0x04\n      add\n      tag_91\n      swap1\n      tag_92\n      jump\t// in\n    tag_91:\n      mload(0x40)\n      dup1\n      swap2\n      sub\n      swap1\n      revert\n    tag_90:\n        /* \"contracts/lazyclaim/ERC721LazyClaim.sol\":9289:9308  Claim storage claim */\n      0x00\n        /* \"contracts/lazyclaim/ERC721LazyClaim.sol\":9311:9317  claims */\n      0x02\n        /* \"contracts/lazyclaim/ERC721LazyClaim.sol\":9311:9341  claims[creatorContractAddress] */\n      0x00\n        /* \"contracts/lazyclaim/ERC721LazyClaim.sol\":9318:9340  creatorContractAddress */\n      dup8\n        /* \"contracts/lazyclaim/ERC721LazyClaim.sol\":9311:9341  claims[creatorContractAddress] */\n      0xffffffffffffffffffffffffffffffffffffffff\n      and\n      0xffffffffffffffffffffffffffffffffffffffff\n      and\n      dup2\n      mstore\n      0x20\n      add\n      swap1\n      dup2\n      mstore\n      0x20\n      add\n      0x00\n      keccak256\n        /* \"contracts/lazyclaim/ERC721LazyClaim.sol\":9311:9348  claims[creatorContractAddress][index] */\n      0x00\n        /* \"contracts/lazyclaim/ERC721LazyClaim.sol\":9342:9347  index */\n      dup7\n        /* \"contracts/lazyclaim/ERC721LazyClaim.sol\":9311:9348  claims[creatorContractAddress][index] */\n      dup2\n      mstore\n      0x20\n      add\n      swap1\n      dup2\n      mstore\n      0x20\n      add\n      0x00\n      keccak256\n        /* \"contracts/lazyclaim/ERC721LazyClaim.sol\":9289:9348  Claim storage claim = claims[creatorContractAddress][index] */\n      swap1\n      pop\n        /* \"contracts/lazyclaim/ERC721LazyClaim.sol\":9406:9407  0 */\n      0x00\n        /* \"contracts/lazyclaim/ERC721LazyClaim.sol\":9387:9392  claim */\n      dup2\n        /* \"contracts/lazyclaim/ERC721LazyClaim.sol\":9387:9402  claim.startDate */\n      0x00\n      add\n      0x0c\n      swap1\n      sload\n      swap1\n      0x0100\n      exp\n      swap1\n      div\n      0xffffffffffff\n      and\n        /* \"contracts/lazyclaim/ERC721LazyClaim.sol\":9387:9407  claim.startDate != 0 */\n      0xffffffffffff\n      and\n      eq\n        /* \"contracts/lazyclaim/ERC721LazyClaim.sol\":9383:9484  if (claim.startDate != 0) require(claim.startDate < block.timestamp, \"Transaction before start date\") */\n      tag_93\n      jumpi\n        /* \"contracts/lazyclaim/ERC721LazyClaim.sol\":9435:9450  block.timestamp */\n      timestamp\n        /* \"contracts/lazyclaim/ERC721LazyClaim.sol\":9417:9422  claim */\n      dup2\n        /* \"contracts/lazyclaim/ERC721LazyClaim.sol\":9417:9432  claim.startDate */\n      0x00\n      add\n      0x0c\n      swap1\n      sload\n      swap1\n      0x0100\n      exp\n      swap1\n      div\n      0xffffffffffff\n      and\n        /* \"contracts/lazyclaim/ERC721LazyClaim.sol\":9417:9450  claim.startDate < block.timestamp */\n      0xffffffffffff\n      and\n      lt\n        /* \"contracts/lazyclaim/ERC721LazyClaim.sol\":9409:9484  require(claim.startDate < block.timestamp, \"Transaction before start date\") */\n      tag_94\n      jumpi\n      mload(0x40)\n      0x08c379a000000000000000000000000000000000000000000000000000000000\n      dup2\n      mstore\n      0x04\n      add\n      tag_95\n      swap1\n      tag_96\n      jump\t// in\n    tag_95:\n      mload(0x40)\n      dup1\n      swap2\n      sub\n      swap1\n      revert\n    tag_94:\n        /* \"contracts/lazyclaim/ERC721LazyClaim.sol\":9383:9484  if (claim.startDate != 0) require(claim.startDate < block.timestamp, \"Transaction before start date\") */\n    tag_93:\n        /* \"contracts/lazyclaim/ERC721LazyClaim.sol\":9513:9514  0 */\n      0x00\n        /* \"contracts/lazyclaim/ERC721LazyClaim.sol\":9496:9501  claim */\n      dup2\n        /* \"contracts/lazyclaim/ERC721LazyClaim.sol\":9496:9509  claim.endDate */\n      0x00\n      add\n      0x12\n      swap1\n      sload\n      swap1\n      0x0100\n      exp\n      swap1\n      div\n      0xffffffffffff\n      and\n        /* \"contracts/lazyclaim/ERC721LazyClaim.sol\":9496:9514  claim.endDate != 0 */\n      0xffffffffffff\n      and\n      eq\n        /* \"contracts/lazyclaim/ERC721LazyClaim.sol\":9492:9587  if (claim.endDate != 0) require(claim.endDate >= block.timestamp, \"Transaction after end date\") */\n      tag_97\n      jumpi\n        /* \"contracts/lazyclaim/ERC721LazyClaim.sol\":9541:9556  block.timestamp */\n      timestamp\n        /* \"contracts/lazyclaim/ERC721LazyClaim.sol\":9524:9529  claim */\n      dup2\n        /* \"contracts/lazyclaim/ERC721LazyClaim.sol\":9524:9537  claim.endDate */\n      0x00\n      add\n      0x12\n      swap1\n      sload\n      swap1\n      0x0100\n      exp\n      swap1\n      div\n      0xffffffffffff\n      and\n        /* \"contracts/lazyclaim/ERC721LazyClaim.sol\":9524:9556  claim.endDate >= block.timestamp */\n      0xffffffffffff\n      and\n      lt\n      iszero\n        /* \"contracts/lazyclaim/ERC721LazyClaim.sol\":9516:9587  require(claim.endDate >= block.timestamp, \"Transaction after end date\") */\n      tag_98\n      jumpi\n      mload(0x40)\n      0x08c379a000000000000000000000000000000000000000000000000000000000\n      dup2\n      mstore\n      0x04\n      add\n      tag_99\n      swap1\n      tag_100\n      jump\t// in\n    tag_99:\n      mload(0x40)\n      dup1\n      swap2\n      sub\n      swap1\n      revert\n    tag_98:\n        /* \"contracts/lazyclaim/ERC721LazyClaim.sol\":9492:9587  if (claim.endDate != 0) require(claim.endDate >= block.timestamp, \"Transaction after end date\") */\n    tag_97:\n        /* \"contracts/lazyclaim/ERC721LazyClaim.sol\":9668:9669  0 */\n      0x00\n        /* \"contracts/lazyclaim/ERC721LazyClaim.sol\":9649:9654  claim */\n      dup2\n        /* \"contracts/lazyclaim/ERC721LazyClaim.sol\":9649:9664  claim.walletMax */\n      0x00\n      add\n      0x08\n      swap1\n      sload\n      swap1\n      0x0100\n      exp\n      swap1\n      div\n      0xffffffff\n      and\n        /* \"contracts/lazyclaim/ERC721LazyClaim.sol\":9649:9669  claim.walletMax != 0 */\n      0xffffffff\n      and\n      eq\n        /* \"contracts/lazyclaim/ERC721LazyClaim.sol\":9645:9823  if (claim.walletMax != 0) {... */\n      tag_101\n      jumpi\n        /* \"contracts/lazyclaim/ERC721LazyClaim.sol\":9749:9754  claim */\n      dup1\n        /* \"contracts/lazyclaim/ERC721LazyClaim.sol\":9749:9764  claim.walletMax */\n      0x00\n      add\n      0x08\n      swap1\n      sload\n      swap1\n      0x0100\n      exp\n      swap1\n      div\n      0xffffffff\n      and\n        /* \"contracts/lazyclaim/ERC721LazyClaim.sol\":9689:9764  mintsPerWallet[creatorContractAddress][index][msg.sender] < claim.walletMax */\n      0xffffffff\n      and\n        /* \"contracts/lazyclaim/ERC721LazyClaim.sol\":9689:9703  mintsPerWallet */\n      0x03\n        /* \"contracts/lazyclaim/ERC721LazyClaim.sol\":9689:9727  mintsPerWallet[creatorContractAddress] */\n      0x00\n        /* \"contracts/lazyclaim/ERC721LazyClaim.sol\":9704:9726  creatorContractAddress */\n      dup9\n        /* \"contracts/lazyclaim/ERC721LazyClaim.sol\":9689:9727  mintsPerWallet[creatorContractAddress] */\n      0xffffffffffffffffffffffffffffffffffffffff\n      and\n      0xffffffffffffffffffffffffffffffffffffffff\n      and\n      dup2\n      mstore\n      0x20\n      add\n      swap1\n      dup2\n      mstore\n      0x20\n      add\n      0x00\n      keccak256\n        /* \"contracts/lazyclaim/ERC721LazyClaim.sol\":9689:9734  mintsPerWallet[creatorContractAddress][index] */\n      0x00\n        /* \"contracts/lazyclaim/ERC721LazyClaim.sol\":9728:9733  index */\n      dup8\n        /* \"contracts/lazyclaim/ERC721LazyClaim.sol\":9689:9734  mintsPerWallet[creatorContractAddress][index] */\n      dup2\n      mstore\n      0x20\n      add\n      swap1\n      dup2\n      mstore\n      0x20\n      add\n      0x00\n      keccak256\n        /* \"contracts/lazyclaim/ERC721LazyClaim.sol\":9689:9746  mintsPerWallet[creatorContractAddress][index][msg.sender] */\n      0x00\n        /* \"contracts/lazyclaim/ERC721LazyClaim.sol\":9735:9745  msg.sender */\n      caller\n        /* \"contracts/lazyclaim/ERC721LazyClaim.sol\":9689:9746  mintsPerWallet[creatorContractAddress][index][msg.sender] */\n      0xffffffffffffffffffffffffffffffffffffffff\n      and\n      0xffffffffffffffffffffffffffffffffffffffff\n      and\n      dup2\n      mstore\n      0x20\n      add\n      swap1\n      dup2\n      mstore\n      0x20\n      add\n      0x00\n      keccak256\n      0x00\n      swap1\n      sload\n      swap1\n      0x0100\n      exp\n      swap1\n      div\n      0xffffffff\n      and\n        /* \"contracts/lazyclaim/ERC721LazyClaim.sol\":9689:9764  mintsPerWallet[creatorContractAddress][index][msg.sender] < claim.walletMax */\n      0xffffffff\n      and\n      lt\n        /* \"contracts/lazyclaim/ERC721LazyClaim.sol\":9681:9814  require(mintsPerWallet[creatorContractAddress][index][msg.sender] < claim.walletMax, \"Maximum tokens already minted for this wallet\") */\n      tag_102\n      jumpi\n      mload(0x40)\n      0x08c379a000000000000000000000000000000000000000000000000000000000\n      dup2\n      mstore\n      0x04\n      add\n      tag_103\n      swap1\n      tag_104\n      jump\t// in\n    tag_103:\n      mload(0x40)\n      dup1\n      swap2\n      sub\n      swap1\n      revert\n    tag_102:\n        /* \"contracts/lazyclaim/ERC721LazyClaim.sol\":9645:9823  if (claim.walletMax != 0) {... */\n    tag_101:\n        /* \"contracts/lazyclaim/ERC721LazyClaim.sol\":9877:9878  0 */\n      0x00\n        /* \"contracts/lazyclaim/ERC721LazyClaim.sol\":9859:9864  claim */\n      dup2\n        /* \"contracts/lazyclaim/ERC721LazyClaim.sol\":9859:9873  claim.totalMax */\n      0x00\n      add\n      0x04\n      swap1\n      sload\n      swap1\n      0x0100\n      exp\n      swap1\n      div\n      0xffffffff\n      and\n        /* \"contracts/lazyclaim/ERC721LazyClaim.sol\":9859:9878  claim.totalMax != 0 */\n      0xffffffff\n      and\n      eq\n        /* \"contracts/lazyclaim/ERC721LazyClaim.sol\":9855:9984  if (claim.totalMax != 0) {... */\n      tag_105\n      jumpi\n        /* \"contracts/lazyclaim/ERC721LazyClaim.sol\":9912:9917  claim */\n      dup1\n        /* \"contracts/lazyclaim/ERC721LazyClaim.sol\":9912:9926  claim.totalMax */\n      0x00\n      add\n      0x04\n      swap1\n      sload\n      swap1\n      0x0100\n      exp\n      swap1\n      div\n      0xffffffff\n      and\n        /* \"contracts/lazyclaim/ERC721LazyClaim.sol\":9898:9926  claim.total < claim.totalMax */\n      0xffffffff\n      and\n        /* \"contracts/lazyclaim/ERC721LazyClaim.sol\":9898:9903  claim */\n      dup2\n        /* \"contracts/lazyclaim/ERC721LazyClaim.sol\":9898:9909  claim.total */\n      0x00\n      add\n      0x00\n      swap1\n      sload\n      swap1\n      0x0100\n      exp\n      swap1\n      div\n      0xffffffff\n      and\n        /* \"contracts/lazyclaim/ERC721LazyClaim.sol\":9898:9926  claim.total < claim.totalMax */\n      0xffffffff\n      and\n      lt\n        /* \"contracts/lazyclaim/ERC721LazyClaim.sol\":9890:9975  require(claim.total < claim.totalMax, \"Maximum tokens already minted for this claim\") */\n      tag_106\n      jumpi\n      mload(0x40)\n      0x08c379a000000000000000000000000000000000000000000000000000000000\n      dup2\n      mstore\n      0x04\n      add\n      tag_107\n      swap1\n      tag_108\n      jump\t// in\n    tag_107:\n      mload(0x40)\n      dup1\n      swap2\n      sub\n      swap1\n      revert\n    tag_106:\n        /* \"contracts/lazyclaim/ERC721LazyClaim.sol\":9855:9984  if (claim.totalMax != 0) {... */\n    tag_105:\n        /* \"contracts/lazyclaim/ERC721LazyClaim.sol\":10025:10047  claim.merkleRoot != \"\" */\n      0x00\n        /* \"contracts/lazyclaim/ERC721LazyClaim.sol\":10025:10030  claim */\n      dup2\n        /* \"contracts/lazyclaim/ERC721LazyClaim.sol\":10025:10041  claim.merkleRoot */\n      0x01\n      add\n      sload\n        /* \"contracts/lazyclaim/ERC721LazyClaim.sol\":10025:10047  claim.merkleRoot != \"\" */\n      eq\n        /* \"contracts/lazyclaim/ERC721LazyClaim.sol\":10021:10546  if (claim.merkleRoot != \"\") {... */\n      tag_109\n      jumpi\n        /* \"contracts/lazyclaim/ERC721LazyClaim.sol\":10059:10071  bytes32 leaf */\n      0x00\n        /* \"contracts/lazyclaim/ERC721LazyClaim.sol\":10101:10111  msg.sender */\n      caller\n        /* \"contracts/lazyclaim/ERC721LazyClaim.sol\":10113:10124  minterValue */\n      dup4\n        /* \"contracts/lazyclaim/ERC721LazyClaim.sol\":10084:10125  abi.encodePacked(msg.sender, minterValue) */\n      add(0x20, mload(0x40))\n      tag_110\n      swap3\n      swap2\n      swap1\n      tag_111\n      jump\t// in\n    tag_110:\n      mload(0x40)\n      0x20\n      dup2\n      dup4\n      sub\n      sub\n      dup2\n      mstore\n      swap1\n      0x40\n      mstore\n        /* \"contracts/lazyclaim/ERC721LazyClaim.sol\":10074:10126  keccak256(abi.encodePacked(msg.sender, minterValue)) */\n      dup1\n      mload\n      swap1\n      0x20\n      add\n      keccak256\n        /* \"contracts/lazyclaim/ERC721LazyClaim.sol\":10059:10126  bytes32 leaf = keccak256(abi.encodePacked(msg.sender, minterValue)) */\n      swap1\n      pop\n        /* \"contracts/lazyclaim/ERC721LazyClaim.sol\":10144:10199  MerkleProof.verify(merkleProof, claim.merkleRoot, leaf) */\n      tag_112\n        /* \"contracts/lazyclaim/ERC721LazyClaim.sol\":10163:10174  merkleProof */\n      dup6\n      dup6\n        /* \"contracts/lazyclaim/ERC721LazyClaim.sol\":10144:10199  MerkleProof.verify(merkleProof, claim.merkleRoot, leaf) */\n      dup1\n      dup1\n      0x20\n      mul\n      0x20\n      add\n      mload(0x40)\n      swap1\n      dup2\n      add\n      0x40\n      mstore\n      dup1\n      swap4\n      swap3\n      swap2\n      swap1\n      dup2\n      dup2\n      mstore\n      0x20\n      add\n      dup4\n      dup4\n      0x20\n      mul\n      dup1\n      dup3\n      dup5\n      calldatacopy\n      0x00\n      dup2\n      dup5\n      add\n      mstore\n      not(0x1f)\n      0x1f\n      dup3\n      add\n      and\n      swap1\n      pop\n      dup1\n      dup4\n      add\n      swap3\n      pop\n      pop\n      pop\n      pop\n      pop\n      pop\n      pop\n        /* \"contracts/lazyclaim/ERC721LazyClaim.sol\":10176:10181  claim */\n      dup4\n        /* \"contracts/lazyclaim/ERC721LazyClaim.sol\":10176:10192  claim.merkleRoot */\n      0x01\n      add\n      sload\n        /* \"contracts/lazyclaim/ERC721LazyClaim.sol\":10194:10198  leaf */\n      dup4\n        /* \"contracts/lazyclaim/ERC721LazyClaim.sol\":10144:10162  MerkleProof.verify */\n      tag_113\n        /* \"contracts/lazyclaim/ERC721LazyClaim.sol\":10144:10199  MerkleProof.verify(merkleProof, claim.merkleRoot, leaf) */\n      jump\t// in\n    tag_112:\n        /* \"contracts/lazyclaim/ERC721LazyClaim.sol\":10136:10233  require(MerkleProof.verify(merkleProof, claim.merkleRoot, leaf), \"Could not verify merkle proof\") */\n      tag_114\n      jumpi\n      mload(0x40)\n      0x08c379a000000000000000000000000000000000000000000000000000000000\n      dup2\n      mstore\n      0x04\n      add\n      tag_115\n      swap1\n      tag_116\n      jump\t// in\n    tag_115:\n      mload(0x40)\n      dup1\n      swap2\n      sub\n      swap1\n      revert\n    tag_114:\n        /* \"contracts/lazyclaim/ERC721LazyClaim.sol\":10316:10317  0 */\n      0x00\n        /* \"contracts/lazyclaim/ERC721LazyClaim.sol\":10301:10312  minterValue */\n      dup4\n        /* \"contracts/lazyclaim/ERC721LazyClaim.sol\":10301:10317  minterValue != 0 */\n      0xffffffff\n      and\n      eq\n        /* \"contracts/lazyclaim/ERC721LazyClaim.sol\":10297:10538  if (minterValue != 0) {... */\n      tag_117\n      jumpi\n        /* \"contracts/lazyclaim/ERC721LazyClaim.sol\":10331:10352  uint allocationMinted */\n      0x00\n        /* \"contracts/lazyclaim/ERC721LazyClaim.sol\":10355:10369  mintsPerWallet */\n      0x03\n        /* \"contracts/lazyclaim/ERC721LazyClaim.sol\":10355:10393  mintsPerWallet[creatorContractAddress] */\n      0x00\n        /* \"contracts/lazyclaim/ERC721LazyClaim.sol\":10370:10392  creatorContractAddress */\n      dup10\n        /* \"contracts/lazyclaim/ERC721LazyClaim.sol\":10355:10393  mintsPerWallet[creatorContractAddress] */\n      0xffffffffffffffffffffffffffffffffffffffff\n      and\n      0xffffffffffffffffffffffffffffffffffffffff\n      and\n      dup2\n      mstore\n      0x20\n      add\n      swap1\n      dup2\n      mstore\n      0x20\n      add\n      0x00\n      keccak256\n        /* \"contracts/lazyclaim/ERC721LazyClaim.sol\":10355:10400  mintsPerWallet[creatorContractAddress][index] */\n      0x00\n        /* \"contracts/lazyclaim/ERC721LazyClaim.sol\":10394:10399  index */\n      dup9\n        /* \"contracts/lazyclaim/ERC721LazyClaim.sol\":10355:10400  mintsPerWallet[creatorContractAddress][index] */\n      dup2\n      mstore\n      0x20\n      add\n      swap1\n      dup2\n      mstore\n      0x20\n      add\n      0x00\n      keccak256\n        /* \"contracts/lazyclaim/ERC721LazyClaim.sol\":10355:10412  mintsPerWallet[creatorContractAddress][index][msg.sender] */\n      0x00\n        /* \"contracts/lazyclaim/ERC721LazyClaim.sol\":10401:10411  msg.sender */\n      caller\n        /* \"contracts/lazyclaim/ERC721LazyClaim.sol\":10355:10412  mintsPerWallet[creatorContractAddress][index][msg.sender] */\n      0xffffffffffffffffffffffffffffffffffffffff\n      and\n      0xffffffffffffffffffffffffffffffffffffffff\n      and\n      dup2\n      mstore\n      0x20\n      add\n      swap1\n      dup2\n      mstore\n      0x20\n      add\n      0x00\n      keccak256\n      0x00\n      swap1\n      sload\n      swap1\n      0x0100\n      exp\n      swap1\n      div\n      0xffffffff\n      and\n        /* \"contracts/lazyclaim/ERC721LazyClaim.sol\":10331:10412  uint allocationMinted = mintsPerWallet[creatorContractAddress][index][msg.sender] */\n      0xffffffff\n      and\n      swap1\n      pop\n        /* \"contracts/lazyclaim/ERC721LazyClaim.sol\":10451:10462  minterValue */\n      dup4\n        /* \"contracts/lazyclaim/ERC721LazyClaim.sol\":10432:10462  allocationMinted < minterValue */\n      0xffffffff\n      and\n        /* \"contracts/lazyclaim/ERC721LazyClaim.sol\":10432:10448  allocationMinted */\n      dup2\n        /* \"contracts/lazyclaim/ERC721LazyClaim.sol\":10432:10462  allocationMinted < minterValue */\n      lt\n        /* \"contracts/lazyclaim/ERC721LazyClaim.sol\":10424:10527  require(allocationMinted < minterValue, \"Maximum tokens already minted for this wallet per allocation\") */\n      tag_118\n      jumpi\n      mload(0x40)\n      0x08c379a000000000000000000000000000000000000000000000000000000000\n      dup2\n      mstore\n      0x04\n      add\n      tag_119\n      swap1\n      tag_120\n      jump\t// in\n    tag_119:\n      mload(0x40)\n      dup1\n      swap2\n      sub\n      swap1\n      revert\n    tag_118:\n        /* \"contracts/lazyclaim/ERC721LazyClaim.sol\":10297:10538  if (minterValue != 0) {... */\n      pop\n    tag_117:\n        /* \"contracts/lazyclaim/ERC721LazyClaim.sol\":10021:10546  if (claim.merkleRoot != \"\") {... */\n      pop\n    tag_109:\n        /* \"contracts/lazyclaim/ERC721LazyClaim.sol\":10571:10586  uint newTokenId */\n      0x00\n        /* \"contracts/lazyclaim/ERC721LazyClaim.sol\":10608:10630  creatorContractAddress */\n      dup7\n        /* \"contracts/lazyclaim/ERC721LazyClaim.sol\":10589:10645  IERC721CreatorCore(creatorContractAddress).mintExtension */\n      0xffffffffffffffffffffffffffffffffffffffff\n      and\n      0x2928ca58\n        /* \"contracts/lazyclaim/ERC721LazyClaim.sol\":10646:10656  msg.sender */\n      caller\n        /* \"contracts/lazyclaim/ERC721LazyClaim.sol\":10589:10657  IERC721CreatorCore(creatorContractAddress).mintExtension(msg.sender) */\n      mload(0x40)\n      dup3\n      0xffffffff\n      and\n      0xe0\n      shl\n      dup2\n      mstore\n      0x04\n      add\n      tag_121\n      swap2\n      swap1\n      tag_122\n      jump\t// in\n    tag_121:\n      0x20\n      mload(0x40)\n      dup1\n      dup4\n      sub\n      dup2\n      0x00\n      dup8\n      dup1\n      extcodesize\n      iszero\n      dup1\n      iszero\n      tag_123\n      jumpi\n      0x00\n      dup1\n      revert\n    tag_123:\n      pop\n      gas\n      call\n      iszero\n      dup1\n      iszero\n      tag_125\n      jumpi\n      returndatasize\n      0x00\n      dup1\n      returndatacopy\n      revert(0x00, returndatasize)\n    tag_125:\n      pop\n      pop\n      pop\n      pop\n      mload(0x40)\n      returndatasize\n      not(0x1f)\n      0x1f\n      dup3\n      add\n      and\n      dup3\n      add\n      dup1\n      0x40\n      mstore\n      pop\n      dup2\n      add\n      swap1\n      tag_126\n      swap2\n      swap1\n      tag_127\n      jump\t// in\n    tag_126:\n        /* \"contracts/lazyclaim/ERC721LazyClaim.sol\":10571:10657  uint newTokenId = IERC721CreatorCore(creatorContractAddress).mintExtension(msg.sender) */\n      swap1\n      pop\n        /* \"contracts/lazyclaim/ERC721LazyClaim.sol\":10753:10814  _updateIndexRanges(creatorContractAddress, index, newTokenId) */\n      tag_128\n        /* \"contracts/lazyclaim/ERC721LazyClaim.sol\":10772:10794  creatorContractAddress */\n      dup8\n        /* \"contracts/lazyclaim/ERC721LazyClaim.sol\":10796:10801  index */\n      dup8\n        /* \"contracts/lazyclaim/ERC721LazyClaim.sol\":10803:10813  newTokenId */\n      dup4\n        /* \"contracts/lazyclaim/ERC721LazyClaim.sol\":10753:10771  _updateIndexRanges */\n      tag_129\n        /* \"contracts/lazyclaim/ERC721LazyClaim.sol\":10753:10814  _updateIndexRanges(creatorContractAddress, index, newTokenId) */\n      jump\t// in\n    tag_128:\n        /* \"contracts/lazyclaim/ERC721LazyClaim.sol\":10913:10927  mintsPerWallet */\n      0x03\n        /* \"contracts/lazyclaim/ERC721LazyClaim.sol\":10913:10951  mintsPerWallet[creatorContractAddress] */\n      0x00\n        /* \"contracts/lazyclaim/ERC721LazyClaim.sol\":10928:10950  creatorContractAddress */\n      dup9\n        /* \"contracts/lazyclaim/ERC721LazyClaim.sol\":10913:10951  mintsPerWallet[creatorContractAddress] */\n      0xffffffffffffffffffffffffffffffffffffffff\n      and\n      0xffffffffffffffffffffffffffffffffffffffff\n      and\n      dup2\n      mstore\n      0x20\n      add\n      swap1\n      dup2\n      mstore\n      0x20\n      add\n      0x00\n      keccak256\n        /* \"contracts/lazyclaim/ERC721LazyClaim.sol\":10913:10958  mintsPerWallet[creatorContractAddress][index] */\n      0x00\n        /* \"contracts/lazyclaim/ERC721LazyClaim.sol\":10952:10957  index */\n      dup8\n        /* \"contracts/lazyclaim/ERC721LazyClaim.sol\":10913:10958  mintsPerWallet[creatorContractAddress][index] */\n      dup2\n      mstore\n      0x20\n      add\n      swap1\n      dup2\n      mstore\n      0x20\n      add\n      0x00\n      keccak256\n        /* \"contracts/lazyclaim/ERC721LazyClaim.sol\":10913:10970  mintsPerWallet[creatorContractAddress][index][msg.sender] */\n      0x00\n        /* \"contracts/lazyclaim/ERC721LazyClaim.sol\":10959:10969  msg.sender */\n      caller\n        /* \"contracts/lazyclaim/ERC721LazyClaim.sol\":10913:10970  mintsPerWallet[creatorContractAddress][index][msg.sender] */\n      0xffffffffffffffffffffffffffffffffffffffff\n      and\n      0xffffffffffffffffffffffffffffffffffffffff\n      and\n      dup2\n      mstore\n      0x20\n      add\n      swap1\n      dup2\n      mstore\n      0x20\n      add\n      0x00\n      keccak256\n      0x00\n        /* \"contracts/lazyclaim/ERC721LazyClaim.sol\":10913:10972  mintsPerWallet[creatorContractAddress][index][msg.sender]++ */\n      dup2\n      dup2\n      swap1\n      sload\n      swap1\n      0x0100\n      exp\n      swap1\n      div\n      0xffffffff\n      and\n      dup1\n      swap3\n      swap2\n      swap1\n      0x01\n      add\n      swap2\n      swap1\n      0x0100\n      exp\n      dup2\n      sload\n      dup2\n      0xffffffff\n      mul\n      not\n      and\n      swap1\n      dup4\n      0xffffffff\n      and\n      mul\n      or\n      swap1\n      sstore\n      pop\n      pop\n        /* \"contracts/lazyclaim/ERC721LazyClaim.sol\":10993:10998  claim */\n      dup2\n        /* \"contracts/lazyclaim/ERC721LazyClaim.sol\":10993:11004  claim.total */\n      0x00\n      add\n      0x00\n        /* \"contracts/lazyclaim/ERC721LazyClaim.sol\":10993:11006  claim.total++ */\n      dup2\n      dup2\n      swap1\n      sload\n      swap1\n      0x0100\n      exp\n      swap1\n      div\n      0xffffffff\n      and\n      dup1\n      swap3\n      swap2\n      swap1\n      0x01\n      add\n      swap2\n      swap1\n      0x0100\n      exp\n      dup2\n      sload\n      dup2\n      0xffffffff\n      mul\n      not\n      and\n      swap1\n      dup4\n      0xffffffff\n      and\n      mul\n      or\n      swap1\n      sstore\n      pop\n      pop\n        /* \"contracts/lazyclaim/ERC721LazyClaim.sol\":9034:11013  function mint(address creatorContractAddress, uint index, bytes32[] calldata merkleProof, uint32 minterValue) external override {... */\n      pop\n      pop\n      pop\n      pop\n      pop\n      pop\n      pop\n      jump\t// out\n        /* \"contracts/lazyclaim/ERC721LazyClaim.sol\":6194:6453  function getClaim(address creatorContractAddress, uint claimIndex) external override view returns(Claim memory) {... */\n    tag_36:\n        /* \"contracts/lazyclaim/ERC721LazyClaim.sol\":6292:6304  Claim memory */\n      tag_130\n      tag_131\n      jump\t// in\n    tag_130:\n        /* \"contracts/lazyclaim/ERC721LazyClaim.sol\":6333:6344  claimCounts */\n      0x01\n        /* \"contracts/lazyclaim/ERC721LazyClaim.sol\":6333:6368  claimCounts[creatorContractAddress] */\n      0x00\n        /* \"contracts/lazyclaim/ERC721LazyClaim.sol\":6345:6367  creatorContractAddress */\n      dup5\n        /* \"contracts/lazyclaim/ERC721LazyClaim.sol\":6333:6368  claimCounts[creatorContractAddress] */\n      0xffffffffffffffffffffffffffffffffffffffff\n      and\n      0xffffffffffffffffffffffffffffffffffffffff\n      and\n      dup2\n      mstore\n      0x20\n      add\n      swap1\n      dup2\n      mstore\n      0x20\n      add\n      0x00\n      keccak256\n      sload\n        /* \"contracts/lazyclaim/ERC721LazyClaim.sol\":6320:6330  claimIndex */\n      dup3\n        /* \"contracts/lazyclaim/ERC721LazyClaim.sol\":6320:6368  claimIndex < claimCounts[creatorContractAddress] */\n      lt\n        /* \"contracts/lazyclaim/ERC721LazyClaim.sol\":6312:6393  require(claimIndex < claimCounts[creatorContractAddress], \"Claim does not exist\") */\n      tag_133\n      jumpi\n      mload(0x40)\n      0x08c379a000000000000000000000000000000000000000000000000000000000\n      dup2\n      mstore\n      0x04\n      add\n      tag_134\n      swap1\n      tag_92\n      jump\t// in\n    tag_134:\n      mload(0x40)\n      dup1\n      swap2\n      sub\n      swap1\n      revert\n    tag_133:\n        /* \"contracts/lazyclaim/ERC721LazyClaim.sol\":6406:6412  claims */\n      0x02\n        /* \"contracts/lazyclaim/ERC721LazyClaim.sol\":6406:6436  claims[creatorContractAddress] */\n      0x00\n        /* \"contracts/lazyclaim/ERC721LazyClaim.sol\":6413:6435  creatorContractAddress */\n      dup5\n        /* \"contracts/lazyclaim/ERC721LazyClaim.sol\":6406:6436  claims[creatorContractAddress] */\n      0xffffffffffffffffffffffffffffffffffffffff\n      and\n      0xffffffffffffffffffffffffffffffffffffffff\n      and\n      dup2\n      mstore\n      0x20\n      add\n      swap1\n      dup2\n      mstore\n      0x20\n      add\n      0x00\n      keccak256\n        /* \"contracts/lazyclaim/ERC721LazyClaim.sol\":6406:6448  claims[creatorContractAddress][claimIndex] */\n      0x00\n        /* \"contracts/lazyclaim/ERC721LazyClaim.sol\":6437:6447  claimIndex */\n      dup4\n        /* \"contracts/lazyclaim/ERC721LazyClaim.sol\":6406:6448  claims[creatorContractAddress][claimIndex] */\n      dup2\n      mstore\n      0x20\n      add\n      swap1\n      dup2\n      mstore\n      0x20\n      add\n      0x00\n      keccak256\n        /* \"contracts/lazyclaim/ERC721LazyClaim.sol\":6399:6448  return claims[creatorContractAddress][claimIndex] */\n      mload(0x40)\n      dup1\n      0x0120\n      add\n      0x40\n      mstore\n      swap1\n      dup2\n      0x00\n      dup3\n      add\n      0x00\n      swap1\n      sload\n      swap1\n      0x0100\n      exp\n      swap1\n      div\n      0xffffffff\n      and\n      0xffffffff\n      and\n      0xffffffff\n      and\n      dup2\n      mstore\n      0x20\n      add\n      0x00\n      dup3\n      add\n      0x04\n      swap1\n      sload\n      swap1\n      0x0100\n      exp\n      swap1\n      div\n      0xffffffff\n      and\n      0xffffffff\n      and\n      0xffffffff\n      and\n      dup2\n      mstore\n      0x20\n      add\n      0x00\n      dup3\n      add\n      0x08\n      swap1\n      sload\n      swap1\n      0x0100\n      exp\n      swap1\n      div\n      0xffffffff\n      and\n      0xffffffff\n      and\n      0xffffffff\n      and\n      dup2\n      mstore\n      0x20\n      add\n      0x00\n      dup3\n      add\n      0x0c\n      swap1\n      sload\n      swap1\n      0x0100\n      exp\n      swap1\n      div\n      0xffffffffffff\n      and\n      0xffffffffffff\n      and\n      0xffffffffffff\n      and\n      dup2\n      mstore\n      0x20\n      add\n      0x00\n      dup3\n      add\n      0x12\n      swap1\n      sload\n      swap1\n      0x0100\n      exp\n      swap1\n      div\n      0xffffffffffff\n      and\n      0xffffffffffff\n      and\n      0xffffffffffff\n      and\n      dup2\n      mstore\n      0x20\n      add\n      0x00\n      dup3\n      add\n      0x18\n      swap1\n      sload\n      swap1\n      0x0100\n      exp\n      swap1\n      div\n      0xff\n      and\n      0x02\n      dup2\n      gt\n      iszero\n      tag_135\n      jumpi\n      mstore(0x00, 0x4e487b7100000000000000000000000000000000000000000000000000000000)\n      mstore(0x04, 0x21)\n      revert(0x00, 0x24)\n    tag_135:\n      0x02\n      dup2\n      gt\n      iszero\n      tag_136\n      jumpi\n      mstore(0x00, 0x4e487b7100000000000000000000000000000000000000000000000000000000)\n      mstore(0x04, 0x21)\n      revert(0x00, 0x24)\n    tag_136:\n      dup2\n      mstore\n      0x20\n      add\n      0x00\n      dup3\n      add\n      0x19\n      swap1\n      sload\n      swap1\n      0x0100\n      exp\n      swap1\n      div\n      0xff\n      and\n      iszero\n      iszero\n      iszero\n      iszero\n      dup2\n      mstore\n      0x20\n      add\n      0x01\n      dup3\n      add\n      sload\n      dup2\n      mstore\n      0x20\n      add\n      0x02\n      dup3\n      add\n      dup1\n      sload\n      tag_137\n      swap1\n      tag_138\n      jump\t// in\n    tag_137:\n      dup1\n      0x1f\n      add\n      0x20\n      dup1\n      swap2\n      div\n      mul\n      0x20\n      add\n      mload(0x40)\n      swap1\n      dup2\n      add\n      0x40\n      mstore\n      dup1\n      swap3\n      swap2\n      swap1\n      dup2\n      dup2\n      mstore\n      0x20\n      add\n      dup3\n      dup1\n      sload\n      tag_139\n      swap1\n      tag_138\n      jump\t// in\n    tag_139:\n      dup1\n      iszero\n      tag_140\n      jumpi\n      dup1\n      0x1f\n      lt\n      tag_141\n      jumpi\n      0x0100\n      dup1\n      dup4\n      sload\n      div\n      mul\n      dup4\n      mstore\n      swap2\n      0x20\n      add\n      swap2\n      jump(tag_140)\n    tag_141:\n      dup3\n      add\n      swap2\n      swap1\n      0x00\n      mstore\n      keccak256(0x00, 0x20)\n      swap1\n    tag_142:\n      dup2\n      sload\n      dup2\n      mstore\n      swap1\n      0x01\n      add\n      swap1\n      0x20\n      add\n      dup1\n      dup4\n      gt\n      tag_142\n      jumpi\n      dup3\n      swap1\n      sub\n      0x1f\n      and\n      dup3\n      add\n      swap2\n    tag_140:\n      pop\n      pop\n      pop\n      pop\n      pop\n      dup2\n      mstore\n      pop\n      pop\n      swap1\n      pop\n        /* \"contracts/lazyclaim/ERC721LazyClaim.sol\":6194:6453  function getClaim(address creatorContractAddress, uint claimIndex) external override view returns(Claim memory) {... */\n      swap3\n      swap2\n      pop\n      pop\n      jump\t// out\n        /* \"contracts/lazyclaim/ERC721LazyClaim.sol\":1764:1832  mapping(address => mapping(uint => IndexRange[])) public tokenClaims */\n    tag_42:\n      mstore(0x20, 0x04)\n      dup3\n      0x00\n      mstore\n      mstore(0x20, keccak256(0x00, 0x40))\n      dup2\n      0x00\n      mstore\n      keccak256(0x00, 0x40)\n      dup2\n      dup2\n      sload\n      dup2\n      lt\n      tag_143\n      jumpi\n      0x00\n      dup1\n      revert\n    tag_143:\n      swap1\n      0x00\n      mstore\n      keccak256(0x00, 0x20)\n      swap1\n      0x02\n      mul\n      add\n      0x00\n      swap3\n      pop\n      swap3\n      pop\n      pop\n      pop\n      dup1\n      0x00\n      add\n      sload\n      swap1\n      dup1\n      0x01\n      add\n      sload\n      swap1\n      pop\n      dup3\n      jump\t// out\n        /* \"contracts/lazyclaim/ERC721LazyClaim.sol\":6742:7022  function getWalletMinted(address creatorContractAddress, uint claimIndex) external override view returns(uint32) {... */\n    tag_47:\n        /* \"contracts/lazyclaim/ERC721LazyClaim.sol\":6847:6853  uint32 */\n      0x00\n        /* \"contracts/lazyclaim/ERC721LazyClaim.sol\":6882:6893  claimCounts */\n      0x01\n        /* \"contracts/lazyclaim/ERC721LazyClaim.sol\":6882:6917  claimCounts[creatorContractAddress] */\n      0x00\n        /* \"contracts/lazyclaim/ERC721LazyClaim.sol\":6894:6916  creatorContractAddress */\n      dup5\n        /* \"contracts/lazyclaim/ERC721LazyClaim.sol\":6882:6917  claimCounts[creatorContractAddress] */\n      0xffffffffffffffffffffffffffffffffffffffff\n      and\n      0xffffffffffffffffffffffffffffffffffffffff\n      and\n      dup2\n      mstore\n      0x20\n      add\n      swap1\n      dup2\n      mstore\n      0x20\n      add\n      0x00\n      keccak256\n      sload\n        /* \"contracts/lazyclaim/ERC721LazyClaim.sol\":6869:6879  claimIndex */\n      dup3\n        /* \"contracts/lazyclaim/ERC721LazyClaim.sol\":6869:6917  claimIndex < claimCounts[creatorContractAddress] */\n      lt\n        /* \"contracts/lazyclaim/ERC721LazyClaim.sol\":6861:6942  require(claimIndex < claimCounts[creatorContractAddress], \"Claim does not exist\") */\n      tag_146\n      jumpi\n      mload(0x40)\n      0x08c379a000000000000000000000000000000000000000000000000000000000\n      dup2\n      mstore\n      0x04\n      add\n      tag_147\n      swap1\n      tag_92\n      jump\t// in\n    tag_147:\n      mload(0x40)\n      dup1\n      swap2\n      sub\n      swap1\n      revert\n    tag_146:\n        /* \"contracts/lazyclaim/ERC721LazyClaim.sol\":6955:6969  mintsPerWallet */\n      0x03\n        /* \"contracts/lazyclaim/ERC721LazyClaim.sol\":6955:6993  mintsPerWallet[creatorContractAddress] */\n      0x00\n        /* \"contracts/lazyclaim/ERC721LazyClaim.sol\":6970:6992  creatorContractAddress */\n      dup5\n        /* \"contracts/lazyclaim/ERC721LazyClaim.sol\":6955:6993  mintsPerWallet[creatorContractAddress] */\n      0xffffffffffffffffffffffffffffffffffffffff\n      and\n      0xffffffffffffffffffffffffffffffffffffffff\n      and\n      dup2\n      mstore\n      0x20\n      add\n      swap1\n      dup2\n      mstore\n      0x20\n      add\n      0x00\n      keccak256\n        /* \"contracts/lazyclaim/ERC721LazyClaim.sol\":6955:7005  mintsPerWallet[creatorContractAddress][claimIndex] */\n      0x00\n        /* \"contracts/lazyclaim/ERC721LazyClaim.sol\":6994:7004  claimIndex */\n      dup4\n        /* \"contracts/lazyclaim/ERC721LazyClaim.sol\":6955:7005  mintsPerWallet[creatorContractAddress][claimIndex] */\n      dup2\n      mstore\n      0x20\n      add\n      swap1\n      dup2\n      mstore\n      0x20\n      add\n      0x00\n      keccak256\n        /* \"contracts/lazyclaim/ERC721LazyClaim.sol\":6955:7017  mintsPerWallet[creatorContractAddress][claimIndex][msg.sender] */\n      0x00\n        /* \"contracts/lazyclaim/ERC721LazyClaim.sol\":7006:7016  msg.sender */\n      caller\n        /* \"contracts/lazyclaim/ERC721LazyClaim.sol\":6955:7017  mintsPerWallet[creatorContractAddress][claimIndex][msg.sender] */\n      0xffffffffffffffffffffffffffffffffffffffff\n      and\n      0xffffffffffffffffffffffffffffffffffffffff\n      and\n      dup2\n      mstore\n      0x20\n      add\n      swap1\n      dup2\n      mstore\n      0x20\n      add\n      0x00\n      keccak256\n      0x00\n      swap1\n      sload\n      swap1\n      0x0100\n      exp\n      swap1\n      div\n      0xffffffff\n      and\n        /* \"contracts/lazyclaim/ERC721LazyClaim.sol\":6948:7017  return mintsPerWallet[creatorContractAddress][claimIndex][msg.sender] */\n      swap1\n      pop\n        /* \"contracts/lazyclaim/ERC721LazyClaim.sol\":6742:7022  function getWalletMinted(address creatorContractAddress, uint claimIndex) external override view returns(uint32) {... */\n      swap3\n      swap2\n      pop\n      pop\n      jump\t// out\n        /* \"contracts/lazyclaim/ERC721LazyClaim.sol\":4451:5594  function overwriteClaim(... */\n    tag_53:\n        /* \"contracts/lazyclaim/ERC721LazyClaim.sol\":4621:4643  creatorContractAddress */\n      dup3\n        /* \"contracts/lazyclaim/ERC721LazyClaim.sol\":2443:2475  AdminControl creatorCoreContract */\n      0x00\n        /* \"contracts/lazyclaim/ERC721LazyClaim.sol\":2491:2513  creatorContractAddress */\n      dup2\n        /* \"contracts/lazyclaim/ERC721LazyClaim.sol\":2443:2514  AdminControl creatorCoreContract = AdminControl(creatorContractAddress) */\n      swap1\n      pop\n        /* \"contracts/lazyclaim/ERC721LazyClaim.sol\":2528:2547  creatorCoreContract */\n      dup1\n        /* \"contracts/lazyclaim/ERC721LazyClaim.sol\":2528:2555  creatorCoreContract.isAdmin */\n      0xffffffffffffffffffffffffffffffffffffffff\n      and\n      0x24d7806c\n        /* \"contracts/lazyclaim/ERC721LazyClaim.sol\":2556:2566  msg.sender */\n      caller\n        /* \"contracts/lazyclaim/ERC721LazyClaim.sol\":2528:2567  creatorCoreContract.isAdmin(msg.sender) */\n      mload(0x40)\n      dup3\n      0xffffffff\n      and\n      0xe0\n      shl\n      dup2\n      mstore\n      0x04\n      add\n      tag_149\n      swap2\n      swap1\n      tag_122\n      jump\t// in\n    tag_149:\n      0x20\n      mload(0x40)\n      dup1\n      dup4\n      sub\n      dup2\n      dup7\n      dup1\n      extcodesize\n      iszero\n      dup1\n      iszero\n      tag_150\n      jumpi\n      0x00\n      dup1\n      revert\n    tag_150:\n      pop\n      gas\n      staticcall\n      iszero\n      dup1\n      iszero\n      tag_152\n      jumpi\n      returndatasize\n      0x00\n      dup1\n      returndatacopy\n      revert(0x00, returndatasize)\n    tag_152:\n      pop\n      pop\n      pop\n      pop\n      mload(0x40)\n      returndatasize\n      not(0x1f)\n      0x1f\n      dup3\n      add\n      and\n      dup3\n      add\n      dup1\n      0x40\n      mstore\n      pop\n      dup2\n      add\n      swap1\n      tag_153\n      swap2\n      swap1\n      tag_154\n      jump\t// in\n    tag_153:\n        /* \"contracts/lazyclaim/ERC721LazyClaim.sol\":2520:2615  require(creatorCoreContract.isAdmin(msg.sender), \"Wallet is not an administrator for contract\") */\n      tag_155\n      jumpi\n      mload(0x40)\n      0x08c379a000000000000000000000000000000000000000000000000000000000\n      dup2\n      mstore\n      0x04\n      add\n      tag_156\n      swap1\n      tag_157\n      jump\t// in\n    tag_156:\n      mload(0x40)\n      dup1\n      swap2\n      sub\n      swap1\n      revert\n    tag_155:\n        /* \"contracts/lazyclaim/ERC721LazyClaim.sol\":4735:4750  claimParameters */\n      dup3\n        /* \"contracts/lazyclaim/ERC721LazyClaim.sol\":4735:4759  claimParameters.totalMax */\n      0x20\n      add\n      0x20\n      dup2\n      add\n      swap1\n      tag_159\n      swap2\n      swap1\n      tag_160\n      jump\t// in\n    tag_159:\n        /* \"contracts/lazyclaim/ERC721LazyClaim.sol\":4680:4759  claims[creatorContractAddress][claimIndex].totalMax == claimParameters.totalMax */\n      0xffffffff\n      and\n        /* \"contracts/lazyclaim/ERC721LazyClaim.sol\":4680:4686  claims */\n      0x02\n        /* \"contracts/lazyclaim/ERC721LazyClaim.sol\":4680:4710  claims[creatorContractAddress] */\n      0x00\n        /* \"contracts/lazyclaim/ERC721LazyClaim.sol\":4687:4709  creatorContractAddress */\n      dup8\n        /* \"contracts/lazyclaim/ERC721LazyClaim.sol\":4680:4710  claims[creatorContractAddress] */\n      0xffffffffffffffffffffffffffffffffffffffff\n      and\n      0xffffffffffffffffffffffffffffffffffffffff\n      and\n      dup2\n      mstore\n      0x20\n      add\n      swap1\n      dup2\n      mstore\n      0x20\n      add\n      0x00\n      keccak256\n        /* \"contracts/lazyclaim/ERC721LazyClaim.sol\":4680:4722  claims[creatorContractAddress][claimIndex] */\n      0x00\n        /* \"contracts/lazyclaim/ERC721LazyClaim.sol\":4711:4721  claimIndex */\n      dup7\n        /* \"contracts/lazyclaim/ERC721LazyClaim.sol\":4680:4722  claims[creatorContractAddress][claimIndex] */\n      dup2\n      mstore\n      0x20\n      add\n      swap1\n      dup2\n      mstore\n      0x20\n      add\n      0x00\n      keccak256\n        /* \"contracts/lazyclaim/ERC721LazyClaim.sol\":4680:4731  claims[creatorContractAddress][claimIndex].totalMax */\n      0x00\n      add\n      0x04\n      swap1\n      sload\n      swap1\n      0x0100\n      exp\n      swap1\n      div\n      0xffffffff\n      and\n        /* \"contracts/lazyclaim/ERC721LazyClaim.sol\":4680:4759  claims[creatorContractAddress][claimIndex].totalMax == claimParameters.totalMax */\n      0xffffffff\n      and\n      eq\n        /* \"contracts/lazyclaim/ERC721LazyClaim.sol\":4672:4786  require(claims[creatorContractAddress][claimIndex].totalMax == claimParameters.totalMax, \"Cannot modify totalMax\") */\n      tag_161\n      jumpi\n      mload(0x40)\n      0x08c379a000000000000000000000000000000000000000000000000000000000\n      dup2\n      mstore\n      0x04\n      add\n      tag_162\n      swap1\n      tag_163\n      jump\t// in\n    tag_162:\n      mload(0x40)\n      dup1\n      swap2\n      sub\n      swap1\n      revert\n    tag_161:\n        /* \"contracts/lazyclaim/ERC721LazyClaim.sol\":4856:4871  claimParameters */\n      dup3\n        /* \"contracts/lazyclaim/ERC721LazyClaim.sol\":4856:4881  claimParameters.walletMax */\n      0x40\n      add\n      0x20\n      dup2\n      add\n      swap1\n      tag_164\n      swap2\n      swap1\n      tag_160\n      jump\t// in\n    tag_164:\n        /* \"contracts/lazyclaim/ERC721LazyClaim.sol\":4800:4881  claims[creatorContractAddress][claimIndex].walletMax <= claimParameters.walletMax */\n      0xffffffff\n      and\n        /* \"contracts/lazyclaim/ERC721LazyClaim.sol\":4800:4806  claims */\n      0x02\n        /* \"contracts/lazyclaim/ERC721LazyClaim.sol\":4800:4830  claims[creatorContractAddress] */\n      0x00\n        /* \"contracts/lazyclaim/ERC721LazyClaim.sol\":4807:4829  creatorContractAddress */\n      dup8\n        /* \"contracts/lazyclaim/ERC721LazyClaim.sol\":4800:4830  claims[creatorContractAddress] */\n      0xffffffffffffffffffffffffffffffffffffffff\n      and\n      0xffffffffffffffffffffffffffffffffffffffff\n      and\n      dup2\n      mstore\n      0x20\n      add\n      swap1\n      dup2\n      mstore\n      0x20\n      add\n      0x00\n      keccak256\n        /* \"contracts/lazyclaim/ERC721LazyClaim.sol\":4800:4842  claims[creatorContractAddress][claimIndex] */\n      0x00\n        /* \"contracts/lazyclaim/ERC721LazyClaim.sol\":4831:4841  claimIndex */\n      dup7\n        /* \"contracts/lazyclaim/ERC721LazyClaim.sol\":4800:4842  claims[creatorContractAddress][claimIndex] */\n      dup2\n      mstore\n      0x20\n      add\n      swap1\n      dup2\n      mstore\n      0x20\n      add\n      0x00\n      keccak256\n        /* \"contracts/lazyclaim/ERC721LazyClaim.sol\":4800:4852  claims[creatorContractAddress][claimIndex].walletMax */\n      0x00\n      add\n      0x08\n      swap1\n      sload\n      swap1\n      0x0100\n      exp\n      swap1\n      div\n      0xffffffff\n      and\n        /* \"contracts/lazyclaim/ERC721LazyClaim.sol\":4800:4881  claims[creatorContractAddress][claimIndex].walletMax <= claimParameters.walletMax */\n      0xffffffff\n      and\n      gt\n      iszero\n        /* \"contracts/lazyclaim/ERC721LazyClaim.sol\":4792:4911  require(claims[creatorContractAddress][claimIndex].walletMax <= claimParameters.walletMax, \"Cannot decrease walletMax\") */\n      tag_165\n      jumpi\n      mload(0x40)\n      0x08c379a000000000000000000000000000000000000000000000000000000000\n      dup2\n      mstore\n      0x04\n      add\n      tag_166\n      swap1\n      tag_167\n      jump\t// in\n    tag_166:\n      mload(0x40)\n      dup1\n      swap2\n      sub\n      swap1\n      revert\n    tag_165:\n        /* \"contracts/lazyclaim/ERC721LazyClaim.sol\":4952:4953  0 */\n      0x00\n        /* \"contracts/lazyclaim/ERC721LazyClaim.sol\":4925:4940  claimParameters */\n      dup4\n        /* \"contracts/lazyclaim/ERC721LazyClaim.sol\":4925:4948  claimParameters.endDate */\n      0x80\n      add\n      0x20\n      dup2\n      add\n      swap1\n      tag_168\n      swap2\n      swap1\n      tag_169\n      jump\t// in\n    tag_168:\n        /* \"contracts/lazyclaim/ERC721LazyClaim.sol\":4925:4953  claimParameters.endDate == 0 */\n      0xffffffffffff\n      and\n      eq\n        /* \"contracts/lazyclaim/ERC721LazyClaim.sol\":4925:5008  claimParameters.endDate == 0 || claimParameters.startDate < claimParameters.endDate */\n      dup1\n      tag_170\n      jumpi\n      pop\n        /* \"contracts/lazyclaim/ERC721LazyClaim.sol\":4985:5000  claimParameters */\n      dup3\n        /* \"contracts/lazyclaim/ERC721LazyClaim.sol\":4985:5008  claimParameters.endDate */\n      0x80\n      add\n      0x20\n      dup2\n      add\n      swap1\n      tag_171\n      swap2\n      swap1\n      tag_169\n      jump\t// in\n    tag_171:\n        /* \"contracts/lazyclaim/ERC721LazyClaim.sol\":4957:5008  claimParameters.startDate < claimParameters.endDate */\n      0xffffffffffff\n      and\n        /* \"contracts/lazyclaim/ERC721LazyClaim.sol\":4957:4972  claimParameters */\n      dup4\n        /* \"contracts/lazyclaim/ERC721LazyClaim.sol\":4957:4982  claimParameters.startDate */\n      0x60\n      add\n      0x20\n      dup2\n      add\n      swap1\n      tag_172\n      swap2\n      swap1\n      tag_169\n      jump\t// in\n    tag_172:\n        /* \"contracts/lazyclaim/ERC721LazyClaim.sol\":4957:5008  claimParameters.startDate < claimParameters.endDate */\n      0xffffffffffff\n      and\n      lt\n        /* \"contracts/lazyclaim/ERC721LazyClaim.sol\":4925:5008  claimParameters.endDate == 0 || claimParameters.startDate < claimParameters.endDate */\n    tag_170:\n        /* \"contracts/lazyclaim/ERC721LazyClaim.sol\":4917:5067  require(claimParameters.endDate == 0 || claimParameters.startDate < claimParameters.endDate, \"Cannot have startDate greater than or equal to endDate\") */\n      tag_173\n      jumpi\n      mload(0x40)\n      0x08c379a000000000000000000000000000000000000000000000000000000000\n      dup2\n      mstore\n      0x04\n      add\n      tag_174\n      swap1\n      tag_175\n      jump\t// in\n    tag_174:\n      mload(0x40)\n      dup1\n      swap2\n      sub\n      swap1\n      revert\n    tag_173:\n        /* \"contracts/lazyclaim/ERC721LazyClaim.sol\":5155:5589  Claim({... */\n      mload(0x40)\n      dup1\n      0x0120\n      add\n      0x40\n      mstore\n      dup1\n        /* \"contracts/lazyclaim/ERC721LazyClaim.sol\":5176:5182  claims */\n      0x02\n        /* \"contracts/lazyclaim/ERC721LazyClaim.sol\":5176:5206  claims[creatorContractAddress] */\n      0x00\n        /* \"contracts/lazyclaim/ERC721LazyClaim.sol\":5183:5205  creatorContractAddress */\n      dup9\n        /* \"contracts/lazyclaim/ERC721LazyClaim.sol\":5176:5206  claims[creatorContractAddress] */\n      0xffffffffffffffffffffffffffffffffffffffff\n      and\n      0xffffffffffffffffffffffffffffffffffffffff\n      and\n      dup2\n      mstore\n      0x20\n      add\n      swap1\n      dup2\n      mstore\n      0x20\n      add\n      0x00\n      keccak256\n        /* \"contracts/lazyclaim/ERC721LazyClaim.sol\":5176:5218  claims[creatorContractAddress][claimIndex] */\n      0x00\n        /* \"contracts/lazyclaim/ERC721LazyClaim.sol\":5207:5217  claimIndex */\n      dup8\n        /* \"contracts/lazyclaim/ERC721LazyClaim.sol\":5176:5218  claims[creatorContractAddress][claimIndex] */\n      dup2\n      mstore\n      0x20\n      add\n      swap1\n      dup2\n      mstore\n      0x20\n      add\n      0x00\n      keccak256\n        /* \"contracts/lazyclaim/ERC721LazyClaim.sol\":5176:5224  claims[creatorContractAddress][claimIndex].total */\n      0x00\n      add\n      0x00\n      swap1\n      sload\n      swap1\n      0x0100\n      exp\n      swap1\n      div\n      0xffffffff\n      and\n        /* \"contracts/lazyclaim/ERC721LazyClaim.sol\":5155:5589  Claim({... */\n      0xffffffff\n      and\n      dup2\n      mstore\n      0x20\n      add\n        /* \"contracts/lazyclaim/ERC721LazyClaim.sol\":5242:5257  claimParameters */\n      dup5\n        /* \"contracts/lazyclaim/ERC721LazyClaim.sol\":5242:5266  claimParameters.totalMax */\n      0x20\n      add\n      0x20\n      dup2\n      add\n      swap1\n      tag_176\n      swap2\n      swap1\n      tag_160\n      jump\t// in\n    tag_176:\n        /* \"contracts/lazyclaim/ERC721LazyClaim.sol\":5155:5589  Claim({... */\n      0xffffffff\n      and\n      dup2\n      mstore\n      0x20\n      add\n        /* \"contracts/lazyclaim/ERC721LazyClaim.sol\":5285:5300  claimParameters */\n      dup5\n        /* \"contracts/lazyclaim/ERC721LazyClaim.sol\":5285:5310  claimParameters.walletMax */\n      0x40\n      add\n      0x20\n      dup2\n      add\n      swap1\n      tag_177\n      swap2\n      swap1\n      tag_160\n      jump\t// in\n    tag_177:\n        /* \"contracts/lazyclaim/ERC721LazyClaim.sol\":5155:5589  Claim({... */\n      0xffffffff\n      and\n      dup2\n      mstore\n      0x20\n      add\n        /* \"contracts/lazyclaim/ERC721LazyClaim.sol\":5329:5344  claimParameters */\n      dup5\n        /* \"contracts/lazyclaim/ERC721LazyClaim.sol\":5329:5354  claimParameters.startDate */\n      0x60\n      add\n      0x20\n      dup2\n      add\n      swap1\n      tag_178\n      swap2\n      swap1\n      tag_169\n      jump\t// in\n    tag_178:\n        /* \"contracts/lazyclaim/ERC721LazyClaim.sol\":5155:5589  Claim({... */\n      0xffffffffffff\n      and\n      dup2\n      mstore\n      0x20\n      add\n        /* \"contracts/lazyclaim/ERC721LazyClaim.sol\":5371:5386  claimParameters */\n      dup5\n        /* \"contracts/lazyclaim/ERC721LazyClaim.sol\":5371:5394  claimParameters.endDate */\n      0x80\n      add\n      0x20\n      dup2\n      add\n      swap1\n      tag_179\n      swap2\n      swap1\n      tag_169\n      jump\t// in\n    tag_179:\n        /* \"contracts/lazyclaim/ERC721LazyClaim.sol\":5155:5589  Claim({... */\n      0xffffffffffff\n      and\n      dup2\n      mstore\n      0x20\n      add\n        /* \"contracts/lazyclaim/ERC721LazyClaim.sol\":5419:5434  claimParameters */\n      dup5\n        /* \"contracts/lazyclaim/ERC721LazyClaim.sol\":5419:5450  claimParameters.storageProtocol */\n      0xa0\n      add\n      0x20\n      dup2\n      add\n      swap1\n      tag_180\n      swap2\n      swap1\n      tag_181\n      jump\t// in\n    tag_180:\n        /* \"contracts/lazyclaim/ERC721LazyClaim.sol\":5155:5589  Claim({... */\n      0x02\n      dup2\n      gt\n      iszero\n      tag_182\n      jumpi\n      mstore(0x00, 0x4e487b7100000000000000000000000000000000000000000000000000000000)\n      mstore(0x04, 0x21)\n      revert(0x00, 0x24)\n    tag_182:\n      dup2\n      mstore\n      0x20\n      add\n        /* \"contracts/lazyclaim/ERC721LazyClaim.sol\":5469:5484  claimParameters */\n      dup5\n        /* \"contracts/lazyclaim/ERC721LazyClaim.sol\":5469:5494  claimParameters.identical */\n      0xc0\n      add\n      0x20\n      dup2\n      add\n      swap1\n      tag_183\n      swap2\n      swap1\n      tag_184\n      jump\t// in\n    tag_183:\n        /* \"contracts/lazyclaim/ERC721LazyClaim.sol\":5155:5589  Claim({... */\n      iszero\n      iszero\n      dup2\n      mstore\n      0x20\n      add\n        /* \"contracts/lazyclaim/ERC721LazyClaim.sol\":5514:5529  claimParameters */\n      dup5\n        /* \"contracts/lazyclaim/ERC721LazyClaim.sol\":5514:5540  claimParameters.merkleRoot */\n      0xe0\n      add\n      calldataload\n        /* \"contracts/lazyclaim/ERC721LazyClaim.sol\":5155:5589  Claim({... */\n      dup2\n      mstore\n      0x20\n      add\n        /* \"contracts/lazyclaim/ERC721LazyClaim.sol\":5558:5573  claimParameters */\n      dup5\n        /* \"contracts/lazyclaim/ERC721LazyClaim.sol\":5558:5582  claimParameters.location */\n      dup1\n      0x0100\n      add\n      swap1\n      tag_185\n      swap2\n      swap1\n      tag_186\n      jump\t// in\n    tag_185:\n        /* \"contracts/lazyclaim/ERC721LazyClaim.sol\":5155:5589  Claim({... */\n      dup1\n      dup1\n      0x1f\n      add\n      0x20\n      dup1\n      swap2\n      div\n      mul\n      0x20\n      add\n      mload(0x40)\n      swap1\n      dup2\n      add\n      0x40\n      mstore\n      dup1\n      swap4\n      swap3\n      swap2\n      swap1\n      dup2\n      dup2\n      mstore\n      0x20\n      add\n      dup4\n      dup4\n      dup1\n      dup3\n      dup5\n      calldatacopy\n      0x00\n      dup2\n      dup5\n      add\n      mstore\n      not(0x1f)\n      0x1f\n      dup3\n      add\n      and\n      swap1\n      pop\n      dup1\n      dup4\n      add\n      swap3\n      pop\n      pop\n      pop\n      pop\n      pop\n      pop\n      pop\n      dup2\n      mstore\n      pop\n        /* \"contracts/lazyclaim/ERC721LazyClaim.sol\":5110:5116  claims */\n      0x02\n        /* \"contracts/lazyclaim/ERC721LazyClaim.sol\":5110:5140  claims[creatorContractAddress] */\n      0x00\n        /* \"contracts/lazyclaim/ERC721LazyClaim.sol\":5117:5139  creatorContractAddress */\n      dup8\n        /* \"contracts/lazyclaim/ERC721LazyClaim.sol\":5110:5140  claims[creatorContractAddress] */\n      0xffffffffffffffffffffffffffffffffffffffff\n      and\n      0xffffffffffffffffffffffffffffffffffffffff\n      and\n      dup2\n      mstore\n      0x20\n      add\n      swap1\n      dup2\n      mstore\n      0x20\n      add\n      0x00\n      keccak256\n        /* \"contracts/lazyclaim/ERC721LazyClaim.sol\":5110:5152  claims[creatorContractAddress][claimIndex] */\n      0x00\n        /* \"contracts/lazyclaim/ERC721LazyClaim.sol\":5141:5151  claimIndex */\n      dup7\n        /* \"contracts/lazyclaim/ERC721LazyClaim.sol\":5110:5152  claims[creatorContractAddress][claimIndex] */\n      dup2\n      mstore\n      0x20\n      add\n      swap1\n      dup2\n      mstore\n      0x20\n      add\n      0x00\n      keccak256\n        /* \"contracts/lazyclaim/ERC721LazyClaim.sol\":5110:5589  claims[creatorContractAddress][claimIndex] = Claim({... */\n      0x00\n      dup3\n      add\n      mload\n      dup2\n      0x00\n      add\n      exp(0x0100, 0x00)\n      dup2\n      sload\n      dup2\n      0xffffffff\n      mul\n      not\n      and\n      swap1\n      dup4\n      0xffffffff\n      and\n      mul\n      or\n      swap1\n      sstore\n      pop\n      0x20\n      dup3\n      add\n      mload\n      dup2\n      0x00\n      add\n      exp(0x0100, 0x04)\n      dup2\n      sload\n      dup2\n      0xffffffff\n      mul\n      not\n      and\n      swap1\n      dup4\n      0xffffffff\n      and\n      mul\n      or\n      swap1\n      sstore\n      pop\n      0x40\n      dup3\n      add\n      mload\n      dup2\n      0x00\n      add\n      exp(0x0100, 0x08)\n      dup2\n      sload\n      dup2\n      0xffffffff\n      mul\n      not\n      and\n      swap1\n      dup4\n      0xffffffff\n      and\n      mul\n      or\n      swap1\n      sstore\n      pop\n      0x60\n      dup3\n      add\n      mload\n      dup2\n      0x00\n      add\n      exp(0x0100, 0x0c)\n      dup2\n      sload\n      dup2\n      0xffffffffffff\n      mul\n      not\n      and\n      swap1\n      dup4\n      0xffffffffffff\n      and\n      mul\n      or\n      swap1\n      sstore\n      pop\n      0x80\n      dup3\n      add\n      mload\n      dup2\n      0x00\n      add\n      exp(0x0100, 0x12)\n      dup2\n      sload\n      dup2\n      0xffffffffffff\n      mul\n      not\n      and\n      swap1\n      dup4\n      0xffffffffffff\n      and\n      mul\n      or\n      swap1\n      sstore\n      pop\n      0xa0\n      dup3\n      add\n      mload\n      dup2\n      0x00\n      add\n      exp(0x0100, 0x18)\n      dup2\n      sload\n      dup2\n      0xff\n      mul\n      not\n      and\n      swap1\n      dup4\n      0x02\n      dup2\n      gt\n      iszero\n      tag_187\n      jumpi\n      mstore(0x00, 0x4e487b7100000000000000000000000000000000000000000000000000000000)\n      mstore(0x04, 0x21)\n      revert(0x00, 0x24)\n    tag_187:\n      mul\n      or\n      swap1\n      sstore\n      pop\n      0xc0\n      dup3\n      add\n      mload\n      dup2\n      0x00\n      add\n      exp(0x0100, 0x19)\n      dup2\n      sload\n      dup2\n      0xff\n      mul\n      not\n      and\n      swap1\n      dup4\n      iszero\n      iszero\n      mul\n      or\n      swap1\n      sstore\n      pop\n      0xe0\n      dup3\n      add\n      mload\n      dup2\n      0x01\n      add\n      sstore\n      0x0100\n      dup3\n      add\n      mload\n      dup2\n      0x02\n      add\n      swap1\n      dup1\n      mload\n      swap1\n      0x20\n      add\n      swap1\n      tag_188\n      swap3\n      swap2\n      swap1\n      tag_189\n      jump\t// in\n    tag_188:\n      pop\n      swap1\n      pop\n      pop\n        /* \"contracts/lazyclaim/ERC721LazyClaim.sol\":4451:5594  function overwriteClaim(... */\n      pop\n      pop\n      pop\n      pop\n      pop\n      jump\t// out\n        /* \"contracts/lazyclaim/ERC721LazyClaim.sol\":1309:1365  mapping(address => mapping(uint => Claim)) public claims */\n    tag_56:\n      mstore(0x20, 0x02)\n      dup2\n      0x00\n      mstore\n      mstore(0x20, keccak256(0x00, 0x40))\n      dup1\n      0x00\n      mstore\n      keccak256(0x00, 0x40)\n      0x00\n      swap2\n      pop\n      swap2\n      pop\n      pop\n      dup1\n      0x00\n      add\n      0x00\n      swap1\n      sload\n      swap1\n      0x0100\n      exp\n      swap1\n      div\n      0xffffffff\n      and\n      swap1\n      dup1\n      0x00\n      add\n      0x04\n      swap1\n      sload\n      swap1\n      0x0100\n      exp\n      swap1\n      div\n      0xffffffff\n      and\n      swap1\n      dup1\n      0x00\n      add\n      0x08\n      swap1\n      sload\n      swap1\n      0x0100\n      exp\n      swap1\n      div\n      0xffffffff\n      and\n      swap1\n      dup1\n      0x00\n      add\n      0x0c\n      swap1\n      sload\n      swap1\n      0x0100\n      exp\n      swap1\n      div\n      0xffffffffffff\n      and\n      swap1\n      dup1\n      0x00\n      add\n      0x12\n      swap1\n      sload\n      swap1\n      0x0100\n      exp\n      swap1\n      div\n      0xffffffffffff\n      and\n      swap1\n      dup1\n      0x00\n      add\n      0x18\n      swap1\n      sload\n      swap1\n      0x0100\n      exp\n      swap1\n      div\n      0xff\n      and\n      swap1\n      dup1\n      0x00\n      add\n      0x19\n      swap1\n      sload\n      swap1\n      0x0100\n      exp\n      swap1\n      div\n      0xff\n      and\n      swap1\n      dup1\n      0x01\n      add\n      sload\n      swap1\n      dup1\n      0x02\n      add\n      dup1\n      sload\n      tag_190\n      swap1\n      tag_138\n      jump\t// in\n    tag_190:\n      dup1\n      0x1f\n      add\n      0x20\n      dup1\n      swap2\n      div\n      mul\n      0x20\n      add\n      mload(0x40)\n      swap1\n      dup2\n      add\n      0x40\n      mstore\n      dup1\n      swap3\n      swap2\n      swap1\n      dup2\n      dup2\n      mstore\n      0x20\n      add\n      dup3\n      dup1\n      sload\n      tag_191\n      swap1\n      tag_138\n      jump\t// in\n    tag_191:\n      dup1\n      iszero\n      tag_192\n      jumpi\n      dup1\n      0x1f\n      lt\n      tag_193\n      jumpi\n      0x0100\n      dup1\n      dup4\n      sload\n      div\n      mul\n      dup4\n      mstore\n      swap2\n      0x20\n      add\n      swap2\n      jump(tag_192)\n    tag_193:\n      dup3\n      add\n      swap2\n      swap1\n      0x00\n      mstore\n      keccak256(0x00, 0x20)\n      swap1\n    tag_194:\n      dup2\n      sload\n      dup2\n      mstore\n      swap1\n      0x01\n      add\n      swap1\n      0x20\n      add\n      dup1\n      dup4\n      gt\n      tag_194\n      jumpi\n      dup3\n      swap1\n      sub\n      0x1f\n      and\n      dup3\n      add\n      swap2\n    tag_192:\n      pop\n      pop\n      pop\n      pop\n      pop\n      swap1\n      pop\n      dup10\n      jump\t// out\n        /* \"contracts/lazyclaim/ERC721LazyClaim.sol\":1137:1180  mapping(address => uint) public claimCounts */\n    tag_62:\n      mstore(0x20, 0x01)\n      dup1\n      0x00\n      mstore\n      keccak256(0x00, 0x40)\n      0x00\n      swap2\n      pop\n      swap1\n      pop\n      sload\n      dup2\n      jump\t// out\n        /* \"contracts/lazyclaim/ERC721LazyClaim.sol\":2962:4121  function initializeClaim(... */\n    tag_67:\n        /* \"contracts/lazyclaim/ERC721LazyClaim.sol\":3145:3149  uint */\n      0x00\n        /* \"contracts/lazyclaim/ERC721LazyClaim.sol\":3112:3134  creatorContractAddress */\n      dup3\n        /* \"contracts/lazyclaim/ERC721LazyClaim.sol\":2443:2475  AdminControl creatorCoreContract */\n      0x00\n        /* \"contracts/lazyclaim/ERC721LazyClaim.sol\":2491:2513  creatorContractAddress */\n      dup2\n        /* \"contracts/lazyclaim/ERC721LazyClaim.sol\":2443:2514  AdminControl creatorCoreContract = AdminControl(creatorContractAddress) */\n      swap1\n      pop\n        /* \"contracts/lazyclaim/ERC721LazyClaim.sol\":2528:2547  creatorCoreContract */\n      dup1\n        /* \"contracts/lazyclaim/ERC721LazyClaim.sol\":2528:2555  creatorCoreContract.isAdmin */\n      0xffffffffffffffffffffffffffffffffffffffff\n      and\n      0x24d7806c\n        /* \"contracts/lazyclaim/ERC721LazyClaim.sol\":2556:2566  msg.sender */\n      caller\n        /* \"contracts/lazyclaim/ERC721LazyClaim.sol\":2528:2567  creatorCoreContract.isAdmin(msg.sender) */\n      mload(0x40)\n      dup3\n      0xffffffff\n      and\n      0xe0\n      shl\n      dup2\n      mstore\n      0x04\n      add\n      tag_196\n      swap2\n      swap1\n      tag_122\n      jump\t// in\n    tag_196:\n      0x20\n      mload(0x40)\n      dup1\n      dup4\n      sub\n      dup2\n      dup7\n      dup1\n      extcodesize\n      iszero\n      dup1\n      iszero\n      tag_197\n      jumpi\n      0x00\n      dup1\n      revert\n    tag_197:\n      pop\n      gas\n      staticcall\n      iszero\n      dup1\n      iszero\n      tag_199\n      jumpi\n      returndatasize\n      0x00\n      dup1\n      returndatacopy\n      revert(0x00, returndatasize)\n    tag_199:\n      pop\n      pop\n      pop\n      pop\n      mload(0x40)\n      returndatasize\n      not(0x1f)\n      0x1f\n      dup3\n      add\n      and\n      dup3\n      add\n      dup1\n      0x40\n      mstore\n      pop\n      dup2\n      add\n      swap1\n      tag_200\n      swap2\n      swap1\n      tag_154\n      jump\t// in\n    tag_200:\n        /* \"contracts/lazyclaim/ERC721LazyClaim.sol\":2520:2615  require(creatorCoreContract.isAdmin(msg.sender), \"Wallet is not an administrator for contract\") */\n      tag_201\n      jumpi\n      mload(0x40)\n      0x08c379a000000000000000000000000000000000000000000000000000000000\n      dup2\n      mstore\n      0x04\n      add\n      tag_202\n      swap1\n      tag_157\n      jump\t// in\n    tag_202:\n      mload(0x40)\n      dup1\n      swap2\n      sub\n      swap1\n      revert\n    tag_201:\n        /* \"contracts/lazyclaim/ERC721LazyClaim.sol\":3213:3214  0 */\n      0x00\n        /* \"contracts/lazyclaim/ERC721LazyClaim.sol\":3186:3201  claimParameters */\n      dup5\n        /* \"contracts/lazyclaim/ERC721LazyClaim.sol\":3186:3209  claimParameters.endDate */\n      0x80\n      add\n      0x20\n      dup2\n      add\n      swap1\n      tag_204\n      swap2\n      swap1\n      tag_169\n      jump\t// in\n    tag_204:\n        /* \"contracts/lazyclaim/ERC721LazyClaim.sol\":3186:3214  claimParameters.endDate == 0 */\n      0xffffffffffff\n      and\n      eq\n        /* \"contracts/lazyclaim/ERC721LazyClaim.sol\":3186:3269  claimParameters.endDate == 0 || claimParameters.startDate < claimParameters.endDate */\n      dup1\n      tag_205\n      jumpi\n      pop\n        /* \"contracts/lazyclaim/ERC721LazyClaim.sol\":3246:3261  claimParameters */\n      dup4\n        /* \"contracts/lazyclaim/ERC721LazyClaim.sol\":3246:3269  claimParameters.endDate */\n      0x80\n      add\n      0x20\n      dup2\n      add\n      swap1\n      tag_206\n      swap2\n      swap1\n      tag_169\n      jump\t// in\n    tag_206:\n        /* \"contracts/lazyclaim/ERC721LazyClaim.sol\":3218:3269  claimParameters.startDate < claimParameters.endDate */\n      0xffffffffffff\n      and\n        /* \"contracts/lazyclaim/ERC721LazyClaim.sol\":3218:3233  claimParameters */\n      dup5\n        /* \"contracts/lazyclaim/ERC721LazyClaim.sol\":3218:3243  claimParameters.startDate */\n      0x60\n      add\n      0x20\n      dup2\n      add\n      swap1\n      tag_207\n      swap2\n      swap1\n      tag_169\n      jump\t// in\n    tag_207:\n        /* \"contracts/lazyclaim/ERC721LazyClaim.sol\":3218:3269  claimParameters.startDate < claimParameters.endDate */\n      0xffffffffffff\n      and\n      lt\n        /* \"contracts/lazyclaim/ERC721LazyClaim.sol\":3186:3269  claimParameters.endDate == 0 || claimParameters.startDate < claimParameters.endDate */\n    tag_205:\n        /* \"contracts/lazyclaim/ERC721LazyClaim.sol\":3178:3328  require(claimParameters.endDate == 0 || claimParameters.startDate < claimParameters.endDate, \"Cannot have startDate greater than or equal to endDate\") */\n      tag_208\n      jumpi\n      mload(0x40)\n      0x08c379a000000000000000000000000000000000000000000000000000000000\n      dup2\n      mstore\n      0x04\n      add\n      tag_209\n      swap1\n      tag_175\n      jump\t// in\n    tag_209:\n      mload(0x40)\n      dup1\n      swap2\n      sub\n      swap1\n      revert\n    tag_208:\n        /* \"contracts/lazyclaim/ERC721LazyClaim.sol\":3369:3374  10000 */\n      0x2710\n        /* \"contracts/lazyclaim/ERC721LazyClaim.sol\":3342:3357  claimParameters */\n      dup5\n        /* \"contracts/lazyclaim/ERC721LazyClaim.sol\":3342:3366  claimParameters.totalMax */\n      0x20\n      add\n      0x20\n      dup2\n      add\n      swap1\n      tag_210\n      swap2\n      swap1\n      tag_160\n      jump\t// in\n    tag_210:\n        /* \"contracts/lazyclaim/ERC721LazyClaim.sol\":3342:3374  claimParameters.totalMax < 10000 */\n      0xffffffff\n      and\n      lt\n        /* \"contracts/lazyclaim/ERC721LazyClaim.sol\":3334:3418  require(claimParameters.totalMax < 10000, \"Cannot have totalMax greater than 10000\") */\n      tag_211\n      jumpi\n      mload(0x40)\n      0x08c379a000000000000000000000000000000000000000000000000000000000\n      dup2\n      mstore\n      0x04\n      add\n      tag_212\n      swap1\n      tag_213\n      jump\t// in\n    tag_212:\n      mload(0x40)\n      dup1\n      swap2\n      sub\n      swap1\n      revert\n    tag_211:\n        /* \"contracts/lazyclaim/ERC721LazyClaim.sol\":3466:3479  uint newIndex */\n      0x00\n        /* \"contracts/lazyclaim/ERC721LazyClaim.sol\":3482:3493  claimCounts */\n      0x01\n        /* \"contracts/lazyclaim/ERC721LazyClaim.sol\":3482:3517  claimCounts[creatorContractAddress] */\n      0x00\n        /* \"contracts/lazyclaim/ERC721LazyClaim.sol\":3494:3516  creatorContractAddress */\n      dup8\n        /* \"contracts/lazyclaim/ERC721LazyClaim.sol\":3482:3517  claimCounts[creatorContractAddress] */\n      0xffffffffffffffffffffffffffffffffffffffff\n      and\n      0xffffffffffffffffffffffffffffffffffffffff\n      and\n      dup2\n      mstore\n      0x20\n      add\n      swap1\n      dup2\n      mstore\n      0x20\n      add\n      0x00\n      keccak256\n      sload\n        /* \"contracts/lazyclaim/ERC721LazyClaim.sol\":3466:3517  uint newIndex = claimCounts[creatorContractAddress] */\n      swap1\n      pop\n        /* \"contracts/lazyclaim/ERC721LazyClaim.sol\":3523:3534  claimCounts */\n      0x01\n        /* \"contracts/lazyclaim/ERC721LazyClaim.sol\":3523:3558  claimCounts[creatorContractAddress] */\n      0x00\n        /* \"contracts/lazyclaim/ERC721LazyClaim.sol\":3535:3557  creatorContractAddress */\n      dup8\n        /* \"contracts/lazyclaim/ERC721LazyClaim.sol\":3523:3558  claimCounts[creatorContractAddress] */\n      0xffffffffffffffffffffffffffffffffffffffff\n      and\n      0xffffffffffffffffffffffffffffffffffffffff\n      and\n      dup2\n      mstore\n      0x20\n      add\n      swap1\n      dup2\n      mstore\n      0x20\n      add\n      0x00\n      keccak256\n      0x00\n        /* \"contracts/lazyclaim/ERC721LazyClaim.sol\":3523:3560  claimCounts[creatorContractAddress]++ */\n      dup2\n      sload\n      dup1\n      swap3\n      swap2\n      swap1\n      tag_214\n      swap1\n      tag_215\n      jump\t// in\n    tag_214:\n      swap2\n      swap1\n      pop\n      sstore\n      pop\n        /* \"contracts/lazyclaim/ERC721LazyClaim.sol\":3634:4021  Claim({... */\n      mload(0x40)\n      dup1\n      0x0120\n      add\n      0x40\n      mstore\n      dup1\n        /* \"contracts/lazyclaim/ERC721LazyClaim.sol\":3655:3656  0 */\n      0x00\n        /* \"contracts/lazyclaim/ERC721LazyClaim.sol\":3634:4021  Claim({... */\n      0xffffffff\n      and\n      dup2\n      mstore\n      0x20\n      add\n        /* \"contracts/lazyclaim/ERC721LazyClaim.sol\":3674:3689  claimParameters */\n      dup7\n        /* \"contracts/lazyclaim/ERC721LazyClaim.sol\":3674:3698  claimParameters.totalMax */\n      0x20\n      add\n      0x20\n      dup2\n      add\n      swap1\n      tag_216\n      swap2\n      swap1\n      tag_160\n      jump\t// in\n    tag_216:\n        /* \"contracts/lazyclaim/ERC721LazyClaim.sol\":3634:4021  Claim({... */\n      0xffffffff\n      and\n      dup2\n      mstore\n      0x20\n      add\n        /* \"contracts/lazyclaim/ERC721LazyClaim.sol\":3717:3732  claimParameters */\n      dup7\n        /* \"contracts/lazyclaim/ERC721LazyClaim.sol\":3717:3742  claimParameters.walletMax */\n      0x40\n      add\n      0x20\n      dup2\n      add\n      swap1\n      tag_217\n      swap2\n      swap1\n      tag_160\n      jump\t// in\n    tag_217:\n        /* \"contracts/lazyclaim/ERC721LazyClaim.sol\":3634:4021  Claim({... */\n      0xffffffff\n      and\n      dup2\n      mstore\n      0x20\n      add\n        /* \"contracts/lazyclaim/ERC721LazyClaim.sol\":3761:3776  claimParameters */\n      dup7\n        /* \"contracts/lazyclaim/ERC721LazyClaim.sol\":3761:3786  claimParameters.startDate */\n      0x60\n      add\n      0x20\n      dup2\n      add\n      swap1\n      tag_218\n      swap2\n      swap1\n      tag_169\n      jump\t// in\n    tag_218:\n        /* \"contracts/lazyclaim/ERC721LazyClaim.sol\":3634:4021  Claim({... */\n      0xffffffffffff\n      and\n      dup2\n      mstore\n      0x20\n      add\n        /* \"contracts/lazyclaim/ERC721LazyClaim.sol\":3803:3818  claimParameters */\n      dup7\n        /* \"contracts/lazyclaim/ERC721LazyClaim.sol\":3803:3826  claimParameters.endDate */\n      0x80\n      add\n      0x20\n      dup2\n      add\n      swap1\n      tag_219\n      swap2\n      swap1\n      tag_169\n      jump\t// in\n    tag_219:\n        /* \"contracts/lazyclaim/ERC721LazyClaim.sol\":3634:4021  Claim({... */\n      0xffffffffffff\n      and\n      dup2\n      mstore\n      0x20\n      add\n        /* \"contracts/lazyclaim/ERC721LazyClaim.sol\":3851:3866  claimParameters */\n      dup7\n        /* \"contracts/lazyclaim/ERC721LazyClaim.sol\":3851:3882  claimParameters.storageProtocol */\n      0xa0\n      add\n      0x20\n      dup2\n      add\n      swap1\n      tag_220\n      swap2\n      swap1\n      tag_181\n      jump\t// in\n    tag_220:\n        /* \"contracts/lazyclaim/ERC721LazyClaim.sol\":3634:4021  Claim({... */\n      0x02\n      dup2\n      gt\n      iszero\n      tag_221\n      jumpi\n      mstore(0x00, 0x4e487b7100000000000000000000000000000000000000000000000000000000)\n      mstore(0x04, 0x21)\n      revert(0x00, 0x24)\n    tag_221:\n      dup2\n      mstore\n      0x20\n      add\n        /* \"contracts/lazyclaim/ERC721LazyClaim.sol\":3901:3916  claimParameters */\n      dup7\n        /* \"contracts/lazyclaim/ERC721LazyClaim.sol\":3901:3926  claimParameters.identical */\n      0xc0\n      add\n      0x20\n      dup2\n      add\n      swap1\n      tag_222\n      swap2\n      swap1\n      tag_184\n      jump\t// in\n    tag_222:\n        /* \"contracts/lazyclaim/ERC721LazyClaim.sol\":3634:4021  Claim({... */\n      iszero\n      iszero\n      dup2\n      mstore\n      0x20\n      add\n        /* \"contracts/lazyclaim/ERC721LazyClaim.sol\":3946:3961  claimParameters */\n      dup7\n        /* \"contracts/lazyclaim/ERC721LazyClaim.sol\":3946:3972  claimParameters.merkleRoot */\n      0xe0\n      add\n      calldataload\n        /* \"contracts/lazyclaim/ERC721LazyClaim.sol\":3634:4021  Claim({... */\n      dup2\n      mstore\n      0x20\n      add\n        /* \"contracts/lazyclaim/ERC721LazyClaim.sol\":3990:4005  claimParameters */\n      dup7\n        /* \"contracts/lazyclaim/ERC721LazyClaim.sol\":3990:4014  claimParameters.location */\n      dup1\n      0x0100\n      add\n      swap1\n      tag_223\n      swap2\n      swap1\n      tag_186\n      jump\t// in\n    tag_223:\n        /* \"contracts/lazyclaim/ERC721LazyClaim.sol\":3634:4021  Claim({... */\n      dup1\n      dup1\n      0x1f\n      add\n      0x20\n      dup1\n      swap2\n      div\n      mul\n      0x20\n      add\n      mload(0x40)\n      swap1\n      dup2\n      add\n      0x40\n      mstore\n      dup1\n      swap4\n      swap3\n      swap2\n      swap1\n      dup2\n      dup2\n      mstore\n      0x20\n      add\n      dup4\n      dup4\n      dup1\n      dup3\n      dup5\n      calldatacopy\n      0x00\n      dup2\n      dup5\n      add\n      mstore\n      not(0x1f)\n      0x1f\n      dup3\n      add\n      and\n      swap1\n      pop\n      dup1\n      dup4\n      add\n      swap3\n      pop\n      pop\n      pop\n      pop\n      pop\n      pop\n      pop\n      dup2\n      mstore\n      pop\n        /* \"contracts/lazyclaim/ERC721LazyClaim.sol\":3591:3597  claims */\n      0x02\n        /* \"contracts/lazyclaim/ERC721LazyClaim.sol\":3591:3621  claims[creatorContractAddress] */\n      0x00\n        /* \"contracts/lazyclaim/ERC721LazyClaim.sol\":3598:3620  creatorContractAddress */\n      dup9\n        /* \"contracts/lazyclaim/ERC721LazyClaim.sol\":3591:3621  claims[creatorContractAddress] */\n      0xffffffffffffffffffffffffffffffffffffffff\n      and\n      0xffffffffffffffffffffffffffffffffffffffff\n      and\n      dup2\n      mstore\n      0x20\n      add\n      swap1\n      dup2\n      mstore\n      0x20\n      add\n      0x00\n      keccak256\n        /* \"contracts/lazyclaim/ERC721LazyClaim.sol\":3591:3631  claims[creatorContractAddress][newIndex] */\n      0x00\n        /* \"contracts/lazyclaim/ERC721LazyClaim.sol\":3622:3630  newIndex */\n      dup4\n        /* \"contracts/lazyclaim/ERC721LazyClaim.sol\":3591:3631  claims[creatorContractAddress][newIndex] */\n      dup2\n      mstore\n      0x20\n      add\n      swap1\n      dup2\n      mstore\n      0x20\n      add\n      0x00\n      keccak256\n        /* \"contracts/lazyclaim/ERC721LazyClaim.sol\":3591:4021  claims[creatorContractAddress][newIndex] = Claim({... */\n      0x00\n      dup3\n      add\n      mload\n      dup2\n      0x00\n      add\n      exp(0x0100, 0x00)\n      dup2\n      sload\n      dup2\n      0xffffffff\n      mul\n      not\n      and\n      swap1\n      dup4\n      0xffffffff\n      and\n      mul\n      or\n      swap1\n      sstore\n      pop\n      0x20\n      dup3\n      add\n      mload\n      dup2\n      0x00\n      add\n      exp(0x0100, 0x04)\n      dup2\n      sload\n      dup2\n      0xffffffff\n      mul\n      not\n      and\n      swap1\n      dup4\n      0xffffffff\n      and\n      mul\n      or\n      swap1\n      sstore\n      pop\n      0x40\n      dup3\n      add\n      mload\n      dup2\n      0x00\n      add\n      exp(0x0100, 0x08)\n      dup2\n      sload\n      dup2\n      0xffffffff\n      mul\n      not\n      and\n      swap1\n      dup4\n      0xffffffff\n      and\n      mul\n      or\n      swap1\n      sstore\n      pop\n      0x60\n      dup3\n      add\n      mload\n      dup2\n      0x00\n      add\n      exp(0x0100, 0x0c)\n      dup2\n      sload\n      dup2\n      0xffffffffffff\n      mul\n      not\n      and\n      swap1\n      dup4\n      0xffffffffffff\n      and\n      mul\n      or\n      swap1\n      sstore\n      pop\n      0x80\n      dup3\n      add\n      mload\n      dup2\n      0x00\n      add\n      exp(0x0100, 0x12)\n      dup2\n      sload\n      dup2\n      0xffffffffffff\n      mul\n      not\n      and\n      swap1\n      dup4\n      0xffffffffffff\n      and\n      mul\n      or\n      swap1\n      sstore\n      pop\n      0xa0\n      dup3\n      add\n      mload\n      dup2\n      0x00\n      add\n      exp(0x0100, 0x18)\n      dup2\n      sload\n      dup2\n      0xff\n      mul\n      not\n      and\n      swap1\n      dup4\n      0x02\n      dup2\n      gt\n      iszero\n      tag_224\n      jumpi\n      mstore(0x00, 0x4e487b7100000000000000000000000000000000000000000000000000000000)\n      mstore(0x04, 0x21)\n      revert(0x00, 0x24)\n    tag_224:\n      mul\n      or\n      swap1\n      sstore\n      pop\n      0xc0\n      dup3\n      add\n      mload\n      dup2\n      0x00\n      add\n      exp(0x0100, 0x19)\n      dup2\n      sload\n      dup2\n      0xff\n      mul\n      not\n      and\n      swap1\n      dup4\n      iszero\n      iszero\n      mul\n      or\n      swap1\n      sstore\n      pop\n      0xe0\n      dup3\n      add\n      mload\n      dup2\n      0x01\n      add\n      sstore\n      0x0100\n      dup3\n      add\n      mload\n      dup2\n      0x02\n      add\n      swap1\n      dup1\n      mload\n      swap1\n      0x20\n      add\n      swap1\n      tag_225\n      swap3\n      swap2\n      swap1\n      tag_189\n      jump\t// in\n    tag_225:\n      pop\n      swap1\n      pop\n      pop\n        /* \"contracts/lazyclaim/ERC721LazyClaim.sol\":4074:4082  newIndex */\n      dup1\n        /* \"contracts/lazyclaim/ERC721LazyClaim.sol\":4050:4072  creatorContractAddress */\n      dup7\n        /* \"contracts/lazyclaim/ERC721LazyClaim.sol\":4033:4095  ClaimInitialized(creatorContractAddress, newIndex, msg.sender) */\n      0xffffffffffffffffffffffffffffffffffffffff\n      and\n      0xd02727da4c6c6c111e00310108209a4de39f6817414df43ca1a10730d47c6a34\n        /* \"contracts/lazyclaim/ERC721LazyClaim.sol\":4084:4094  msg.sender */\n      caller\n        /* \"contracts/lazyclaim/ERC721LazyClaim.sol\":4033:4095  ClaimInitialized(creatorContractAddress, newIndex, msg.sender) */\n      mload(0x40)\n      tag_226\n      swap2\n      swap1\n      tag_122\n      jump\t// in\n    tag_226:\n      mload(0x40)\n      dup1\n      swap2\n      sub\n      swap1\n      log3\n        /* \"contracts/lazyclaim/ERC721LazyClaim.sol\":4108:4116  newIndex */\n      dup1\n        /* \"contracts/lazyclaim/ERC721LazyClaim.sol\":4101:4116  return newIndex */\n      swap4\n      pop\n      pop\n        /* \"contracts/lazyclaim/ERC721LazyClaim.sol\":2962:4121  function initializeClaim(... */\n      pop\n      pop\n      swap3\n      swap2\n      pop\n      pop\n      jump\t// out\n        /* \"contracts/lazyclaim/ERC721LazyClaim.sol\":5823:5968  function getClaimCount(address creatorContractAddress) external override view returns(uint) {... */\n    tag_71:\n        /* \"contracts/lazyclaim/ERC721LazyClaim.sol\":5909:5913  uint */\n      0x00\n        /* \"contracts/lazyclaim/ERC721LazyClaim.sol\":5928:5939  claimCounts */\n      0x01\n        /* \"contracts/lazyclaim/ERC721LazyClaim.sol\":5928:5963  claimCounts[creatorContractAddress] */\n      0x00\n        /* \"contracts/lazyclaim/ERC721LazyClaim.sol\":5940:5962  creatorContractAddress */\n      dup4\n        /* \"contracts/lazyclaim/ERC721LazyClaim.sol\":5928:5963  claimCounts[creatorContractAddress] */\n      0xffffffffffffffffffffffffffffffffffffffff\n      and\n      0xffffffffffffffffffffffffffffffffffffffff\n      and\n      dup2\n      mstore\n      0x20\n      add\n      swap1\n      dup2\n      mstore\n      0x20\n      add\n      0x00\n      keccak256\n      sload\n        /* \"contracts/lazyclaim/ERC721LazyClaim.sol\":5921:5963  return claimCounts[creatorContractAddress] */\n      swap1\n      pop\n        /* \"contracts/lazyclaim/ERC721LazyClaim.sol\":5823:5968  function getClaimCount(address creatorContractAddress) external override view returns(uint) {... */\n      swap2\n      swap1\n      pop\n      jump\t// out\n        /* \"contracts/lazyclaim/ERC721LazyClaim.sol\":11017:12196  function tokenURI(address creatorContractAddress, uint tokenId) external override view returns(string memory) {... */\n    tag_75:\n        /* \"contracts/lazyclaim/ERC721LazyClaim.sol\":11112:11125  string memory */\n      0x60\n        /* \"contracts/lazyclaim/ERC721LazyClaim.sol\":11193:11208  uint claimIndex */\n      0x00\n        /* \"contracts/lazyclaim/ERC721LazyClaim.sol\":11211:11258  _getTokenClaim(creatorContractAddress, tokenId) */\n      tag_229\n        /* \"contracts/lazyclaim/ERC721LazyClaim.sol\":11226:11248  creatorContractAddress */\n      dup5\n        /* \"contracts/lazyclaim/ERC721LazyClaim.sol\":11250:11257  tokenId */\n      dup5\n        /* \"contracts/lazyclaim/ERC721LazyClaim.sol\":11211:11225  _getTokenClaim */\n      tag_88\n        /* \"contracts/lazyclaim/ERC721LazyClaim.sol\":11211:11258  _getTokenClaim(creatorContractAddress, tokenId) */\n      jump\t// in\n    tag_229:\n        /* \"contracts/lazyclaim/ERC721LazyClaim.sol\":11193:11258  uint claimIndex = _getTokenClaim(creatorContractAddress, tokenId) */\n      swap1\n      pop\n        /* \"contracts/lazyclaim/ERC721LazyClaim.sol\":11336:11356  string memory suffix */\n      0x00\n        /* \"contracts/lazyclaim/ERC721LazyClaim.sol\":11336:11361  string memory suffix = \"\" */\n      mload(0x40)\n      dup1\n      0x20\n      add\n      0x40\n      mstore\n      dup1\n      0x00\n      dup2\n      mstore\n      pop\n      swap1\n      pop\n        /* \"contracts/lazyclaim/ERC721LazyClaim.sol\":11372:11378  claims */\n      0x02\n        /* \"contracts/lazyclaim/ERC721LazyClaim.sol\":11372:11402  claims[creatorContractAddress] */\n      0x00\n        /* \"contracts/lazyclaim/ERC721LazyClaim.sol\":11379:11401  creatorContractAddress */\n      dup7\n        /* \"contracts/lazyclaim/ERC721LazyClaim.sol\":11372:11402  claims[creatorContractAddress] */\n      0xffffffffffffffffffffffffffffffffffffffff\n      and\n      0xffffffffffffffffffffffffffffffffffffffff\n      and\n      dup2\n      mstore\n      0x20\n      add\n      swap1\n      dup2\n      mstore\n      0x20\n      add\n      0x00\n      keccak256\n        /* \"contracts/lazyclaim/ERC721LazyClaim.sol\":11372:11414  claims[creatorContractAddress][claimIndex] */\n      0x00\n        /* \"contracts/lazyclaim/ERC721LazyClaim.sol\":11403:11413  claimIndex */\n      dup4\n        /* \"contracts/lazyclaim/ERC721LazyClaim.sol\":11372:11414  claims[creatorContractAddress][claimIndex] */\n      dup2\n      mstore\n      0x20\n      add\n      swap1\n      dup2\n      mstore\n      0x20\n      add\n      0x00\n      keccak256\n        /* \"contracts/lazyclaim/ERC721LazyClaim.sol\":11372:11424  claims[creatorContractAddress][claimIndex].identical */\n      0x00\n      add\n      0x19\n      swap1\n      sload\n      swap1\n      0x0100\n      exp\n      swap1\n      div\n      0xff\n      and\n        /* \"contracts/lazyclaim/ERC721LazyClaim.sol\":11367:11695  if (!claims[creatorContractAddress][claimIndex].identical) {... */\n      tag_230\n      jumpi\n        /* \"contracts/lazyclaim/ERC721LazyClaim.sol\":11472:11479  tokenId */\n      dup4\n        /* \"contracts/lazyclaim/ERC721LazyClaim.sol\":11450:11480  abi.encodePacked(\"/\", tokenId) */\n      add(0x20, mload(0x40))\n      tag_231\n      swap2\n      swap1\n      tag_232\n      jump\t// in\n    tag_231:\n      mload(0x40)\n      0x20\n      dup2\n      dup4\n      sub\n      sub\n      dup2\n      mstore\n      swap1\n      0x40\n      mstore\n        /* \"contracts/lazyclaim/ERC721LazyClaim.sol\":11434:11481  suffix = string(abi.encodePacked(\"/\", tokenId)) */\n      swap1\n      pop\n        /* \"contracts/lazyclaim/ERC721LazyClaim.sol\":11598:11618  StorageProtocol.IPFS */\n      0x02\n        /* \"contracts/lazyclaim/ERC721LazyClaim.sol\":11536:11618  claims[creatorContractAddress][claimIndex].storageProtocol == StorageProtocol.IPFS */\n      dup1\n      dup2\n      gt\n      iszero\n      tag_233\n      jumpi\n      mstore(0x00, 0x4e487b7100000000000000000000000000000000000000000000000000000000)\n      mstore(0x04, 0x21)\n      revert(0x00, 0x24)\n    tag_233:\n        /* \"contracts/lazyclaim/ERC721LazyClaim.sol\":11536:11542  claims */\n      0x02\n        /* \"contracts/lazyclaim/ERC721LazyClaim.sol\":11536:11566  claims[creatorContractAddress] */\n      0x00\n        /* \"contracts/lazyclaim/ERC721LazyClaim.sol\":11543:11565  creatorContractAddress */\n      dup8\n        /* \"contracts/lazyclaim/ERC721LazyClaim.sol\":11536:11566  claims[creatorContractAddress] */\n      0xffffffffffffffffffffffffffffffffffffffff\n      and\n      0xffffffffffffffffffffffffffffffffffffffff\n      and\n      dup2\n      mstore\n      0x20\n      add\n      swap1\n      dup2\n      mstore\n      0x20\n      add\n      0x00\n      keccak256\n        /* \"contracts/lazyclaim/ERC721LazyClaim.sol\":11536:11578  claims[creatorContractAddress][claimIndex] */\n      0x00\n        /* \"contracts/lazyclaim/ERC721LazyClaim.sol\":11567:11577  claimIndex */\n      dup5\n        /* \"contracts/lazyclaim/ERC721LazyClaim.sol\":11536:11578  claims[creatorContractAddress][claimIndex] */\n      dup2\n      mstore\n      0x20\n      add\n      swap1\n      dup2\n      mstore\n      0x20\n      add\n      0x00\n      keccak256\n        /* \"contracts/lazyclaim/ERC721LazyClaim.sol\":11536:11594  claims[creatorContractAddress][claimIndex].storageProtocol */\n      0x00\n      add\n      0x18\n      swap1\n      sload\n      swap1\n      0x0100\n      exp\n      swap1\n      div\n      0xff\n      and\n        /* \"contracts/lazyclaim/ERC721LazyClaim.sol\":11536:11618  claims[creatorContractAddress][claimIndex].storageProtocol == StorageProtocol.IPFS */\n      0x02\n      dup2\n      gt\n      iszero\n      tag_234\n      jumpi\n      mstore(0x00, 0x4e487b7100000000000000000000000000000000000000000000000000000000)\n      mstore(0x04, 0x21)\n      revert(0x00, 0x24)\n    tag_234:\n      eq\n        /* \"contracts/lazyclaim/ERC721LazyClaim.sol\":11532:11689  if (claims[creatorContractAddress][claimIndex].storageProtocol == StorageProtocol.IPFS) {... */\n      iszero\n      tag_235\n      jumpi\n        /* \"contracts/lazyclaim/ERC721LazyClaim.sol\":11663:11669  suffix */\n      dup1\n        /* \"contracts/lazyclaim/ERC721LazyClaim.sol\":11646:11679  abi.encodePacked(suffix, \".json\") */\n      add(0x20, mload(0x40))\n      tag_236\n      swap2\n      swap1\n      tag_237\n      jump\t// in\n    tag_236:\n      mload(0x40)\n      0x20\n      dup2\n      dup4\n      sub\n      sub\n      dup2\n      mstore\n      swap1\n      0x40\n      mstore\n        /* \"contracts/lazyclaim/ERC721LazyClaim.sol\":11630:11680  suffix = string(abi.encodePacked(suffix, \".json\")) */\n      swap1\n      pop\n        /* \"contracts/lazyclaim/ERC721LazyClaim.sol\":11532:11689  if (claims[creatorContractAddress][claimIndex].storageProtocol == StorageProtocol.IPFS) {... */\n    tag_235:\n        /* \"contracts/lazyclaim/ERC721LazyClaim.sol\":11367:11695  if (!claims[creatorContractAddress][claimIndex].identical) {... */\n    tag_230:\n        /* \"contracts/lazyclaim/ERC721LazyClaim.sol\":11760:11780  string memory prefix */\n      0x00\n        /* \"contracts/lazyclaim/ERC721LazyClaim.sol\":11760:11785  string memory prefix = \"\" */\n      mload(0x40)\n      dup1\n      0x20\n      add\n      0x40\n      mstore\n      dup1\n      0x00\n      dup2\n      mstore\n      pop\n      swap1\n      pop\n        /* \"contracts/lazyclaim/ERC721LazyClaim.sol\":11857:11877  StorageProtocol.IPFS */\n      0x02\n        /* \"contracts/lazyclaim/ERC721LazyClaim.sol\":11795:11877  claims[creatorContractAddress][claimIndex].storageProtocol == StorageProtocol.IPFS */\n      dup1\n      dup2\n      gt\n      iszero\n      tag_238\n      jumpi\n      mstore(0x00, 0x4e487b7100000000000000000000000000000000000000000000000000000000)\n      mstore(0x04, 0x21)\n      revert(0x00, 0x24)\n    tag_238:\n        /* \"contracts/lazyclaim/ERC721LazyClaim.sol\":11795:11801  claims */\n      0x02\n        /* \"contracts/lazyclaim/ERC721LazyClaim.sol\":11795:11825  claims[creatorContractAddress] */\n      0x00\n        /* \"contracts/lazyclaim/ERC721LazyClaim.sol\":11802:11824  creatorContractAddress */\n      dup9\n        /* \"contracts/lazyclaim/ERC721LazyClaim.sol\":11795:11825  claims[creatorContractAddress] */\n      0xffffffffffffffffffffffffffffffffffffffff\n      and\n      0xffffffffffffffffffffffffffffffffffffffff\n      and\n      dup2\n      mstore\n      0x20\n      add\n      swap1\n      dup2\n      mstore\n      0x20\n      add\n      0x00\n      keccak256\n        /* \"contracts/lazyclaim/ERC721LazyClaim.sol\":11795:11837  claims[creatorContractAddress][claimIndex] */\n      0x00\n        /* \"contracts/lazyclaim/ERC721LazyClaim.sol\":11826:11836  claimIndex */\n      dup6\n        /* \"contracts/lazyclaim/ERC721LazyClaim.sol\":11795:11837  claims[creatorContractAddress][claimIndex] */\n      dup2\n      mstore\n      0x20\n      add\n      swap1\n      dup2\n      mstore\n      0x20\n      add\n      0x00\n      keccak256\n        /* \"contracts/lazyclaim/ERC721LazyClaim.sol\":11795:11853  claims[creatorContractAddress][claimIndex].storageProtocol */\n      0x00\n      add\n      0x18\n      swap1\n      sload\n      swap1\n      0x0100\n      exp\n      swap1\n      div\n      0xff\n      and\n        /* \"contracts/lazyclaim/ERC721LazyClaim.sol\":11795:11877  claims[creatorContractAddress][claimIndex].storageProtocol == StorageProtocol.IPFS */\n      0x02\n      dup2\n      gt\n      iszero\n      tag_239\n      jumpi\n      mstore(0x00, 0x4e487b7100000000000000000000000000000000000000000000000000000000)\n      mstore(0x04, 0x21)\n      revert(0x00, 0x24)\n    tag_239:\n      eq\n        /* \"contracts/lazyclaim/ERC721LazyClaim.sol\":11791:12049  if (claims[creatorContractAddress][claimIndex].storageProtocol == StorageProtocol.IPFS) {... */\n      iszero\n      tag_240\n      jumpi\n        /* \"contracts/lazyclaim/ERC721LazyClaim.sol\":11896:11907  IPFS_PREFIX */\n      mload(0x40)\n      dup1\n      0x40\n      add\n      0x40\n      mstore\n      dup1\n      0x07\n      dup2\n      mstore\n      0x20\n      add\n      0x697066733a2f2f00000000000000000000000000000000000000000000000000\n      dup2\n      mstore\n      pop\n        /* \"contracts/lazyclaim/ERC721LazyClaim.sol\":11887:11907  prefix = IPFS_PREFIX */\n      swap1\n      pop\n        /* \"contracts/lazyclaim/ERC721LazyClaim.sol\":11791:12049  if (claims[creatorContractAddress][claimIndex].storageProtocol == StorageProtocol.IPFS) {... */\n      jump(tag_241)\n    tag_240:\n        /* \"contracts/lazyclaim/ERC721LazyClaim.sol\":11986:12009  StorageProtocol.ARWEAVE */\n      0x01\n        /* \"contracts/lazyclaim/ERC721LazyClaim.sol\":11924:12009  claims[creatorContractAddress][claimIndex].storageProtocol == StorageProtocol.ARWEAVE */\n      0x02\n      dup2\n      gt\n      iszero\n      tag_242\n      jumpi\n      mstore(0x00, 0x4e487b7100000000000000000000000000000000000000000000000000000000)\n      mstore(0x04, 0x21)\n      revert(0x00, 0x24)\n    tag_242:\n        /* \"contracts/lazyclaim/ERC721LazyClaim.sol\":11924:11930  claims */\n      0x02\n        /* \"contracts/lazyclaim/ERC721LazyClaim.sol\":11924:11954  claims[creatorContractAddress] */\n      0x00\n        /* \"contracts/lazyclaim/ERC721LazyClaim.sol\":11931:11953  creatorContractAddress */\n      dup9\n        /* \"contracts/lazyclaim/ERC721LazyClaim.sol\":11924:11954  claims[creatorContractAddress] */\n      0xffffffffffffffffffffffffffffffffffffffff\n      and\n      0xffffffffffffffffffffffffffffffffffffffff\n      and\n      dup2\n      mstore\n      0x20\n      add\n      swap1\n      dup2\n      mstore\n      0x20\n      add\n      0x00\n      keccak256\n        /* \"contracts/lazyclaim/ERC721LazyClaim.sol\":11924:11966  claims[creatorContractAddress][claimIndex] */\n      0x00\n        /* \"contracts/lazyclaim/ERC721LazyClaim.sol\":11955:11965  claimIndex */\n      dup6\n        /* \"contracts/lazyclaim/ERC721LazyClaim.sol\":11924:11966  claims[creatorContractAddress][claimIndex] */\n      dup2\n      mstore\n      0x20\n      add\n      swap1\n      dup2\n      mstore\n      0x20\n      add\n      0x00\n      keccak256\n        /* \"contracts/lazyclaim/ERC721LazyClaim.sol\":11924:11982  claims[creatorContractAddress][claimIndex].storageProtocol */\n      0x00\n      add\n      0x18\n      swap1\n      sload\n      swap1\n      0x0100\n      exp\n      swap1\n      div\n      0xff\n      and\n        /* \"contracts/lazyclaim/ERC721LazyClaim.sol\":11924:12009  claims[creatorContractAddress][claimIndex].storageProtocol == StorageProtocol.ARWEAVE */\n      0x02\n      dup2\n      gt\n      iszero\n      tag_243\n      jumpi\n      mstore(0x00, 0x4e487b7100000000000000000000000000000000000000000000000000000000)\n      mstore(0x04, 0x21)\n      revert(0x00, 0x24)\n    tag_243:\n      eq\n        /* \"contracts/lazyclaim/ERC721LazyClaim.sol\":11920:12049  if (claims[creatorContractAddress][claimIndex].storageProtocol == StorageProtocol.ARWEAVE) {... */\n      iszero\n      tag_244\n      jumpi\n        /* \"contracts/lazyclaim/ERC721LazyClaim.sol\":12028:12042  ARWEAVE_PREFIX */\n      mload(0x40)\n      dup1\n      0x40\n      add\n      0x40\n      mstore\n      dup1\n      0x14\n      dup2\n      mstore\n      0x20\n      add\n      0x68747470733a2f2f617277656176652e6e65742f000000000000000000000000\n      dup2\n      mstore\n      pop\n        /* \"contracts/lazyclaim/ERC721LazyClaim.sol\":12019:12042  prefix = ARWEAVE_PREFIX */\n      swap1\n      pop\n        /* \"contracts/lazyclaim/ERC721LazyClaim.sol\":11920:12049  if (claims[creatorContractAddress][claimIndex].storageProtocol == StorageProtocol.ARWEAVE) {... */\n    tag_244:\n        /* \"contracts/lazyclaim/ERC721LazyClaim.sol\":11791:12049  if (claims[creatorContractAddress][claimIndex].storageProtocol == StorageProtocol.IPFS) {... */\n    tag_241:\n        /* \"contracts/lazyclaim/ERC721LazyClaim.sol\":12122:12128  prefix */\n      dup1\n        /* \"contracts/lazyclaim/ERC721LazyClaim.sol\":12130:12136  claims */\n      0x02\n        /* \"contracts/lazyclaim/ERC721LazyClaim.sol\":12130:12160  claims[creatorContractAddress] */\n      0x00\n        /* \"contracts/lazyclaim/ERC721LazyClaim.sol\":12137:12159  creatorContractAddress */\n      dup9\n        /* \"contracts/lazyclaim/ERC721LazyClaim.sol\":12130:12160  claims[creatorContractAddress] */\n      0xffffffffffffffffffffffffffffffffffffffff\n      and\n      0xffffffffffffffffffffffffffffffffffffffff\n      and\n      dup2\n      mstore\n      0x20\n      add\n      swap1\n      dup2\n      mstore\n      0x20\n      add\n      0x00\n      keccak256\n        /* \"contracts/lazyclaim/ERC721LazyClaim.sol\":12130:12172  claims[creatorContractAddress][claimIndex] */\n      0x00\n        /* \"contracts/lazyclaim/ERC721LazyClaim.sol\":12161:12171  claimIndex */\n      dup6\n        /* \"contracts/lazyclaim/ERC721LazyClaim.sol\":12130:12172  claims[creatorContractAddress][claimIndex] */\n      dup2\n      mstore\n      0x20\n      add\n      swap1\n      dup2\n      mstore\n      0x20\n      add\n      0x00\n      keccak256\n        /* \"contracts/lazyclaim/ERC721LazyClaim.sol\":12130:12181  claims[creatorContractAddress][claimIndex].location */\n      0x02\n      add\n        /* \"contracts/lazyclaim/ERC721LazyClaim.sol\":12183:12189  suffix */\n      dup4\n        /* \"contracts/lazyclaim/ERC721LazyClaim.sol\":12105:12190  abi.encodePacked(prefix, claims[creatorContractAddress][claimIndex].location, suffix) */\n      add(0x20, mload(0x40))\n      tag_245\n      swap4\n      swap3\n      swap2\n      swap1\n      tag_246\n      jump\t// in\n    tag_245:\n      mload(0x40)\n      0x20\n      dup2\n      dup4\n      sub\n      sub\n      dup2\n      mstore\n      swap1\n      0x40\n      mstore\n        /* \"contracts/lazyclaim/ERC721LazyClaim.sol\":12091:12191  return string(abi.encodePacked(prefix, claims[creatorContractAddress][claimIndex].location, suffix)) */\n      swap4\n      pop\n      pop\n      pop\n      pop\n        /* \"contracts/lazyclaim/ERC721LazyClaim.sol\":11017:12196  function tokenURI(address creatorContractAddress, uint tokenId) external override view returns(string memory) {... */\n      swap3\n      swap2\n      pop\n      pop\n      jump\t// out\n        /* \"contracts/lazyclaim/ERC721LazyClaim.sol\":1537:1622  mapping(address => mapping(uint => mapping(address => uint32))) public mintsPerWallet */\n    tag_81:\n      mstore(0x20, 0x03)\n      dup3\n      0x00\n      mstore\n      mstore(0x20, keccak256(0x00, 0x40))\n      dup2\n      0x00\n      mstore\n      mstore(0x20, keccak256(0x00, 0x40))\n      dup1\n      0x00\n      mstore\n      keccak256(0x00, 0x40)\n      0x00\n      swap3\n      pop\n      swap3\n      pop\n      pop\n      swap1\n      sload\n      swap1\n      0x0100\n      exp\n      swap1\n      div\n      0xffffffff\n      and\n      dup2\n      jump\t// out\n        /* \"contracts/lazyclaim/ERC721LazyClaim.sol\":8255:9011  function _getTokenClaim(address creatorContractAddress, uint256 tokenId) internal view returns(uint256) {... */\n    tag_88:\n        /* \"contracts/lazyclaim/ERC721LazyClaim.sol\":8350:8357  uint256 */\n      0x00\n        /* \"contracts/lazyclaim/ERC721LazyClaim.sol\":8411:8412  0 */\n      dup1\n        /* \"contracts/lazyclaim/ERC721LazyClaim.sol\":8373:8384  claimCounts */\n      0x01\n        /* \"contracts/lazyclaim/ERC721LazyClaim.sol\":8373:8408  claimCounts[creatorContractAddress] */\n      0x00\n        /* \"contracts/lazyclaim/ERC721LazyClaim.sol\":8385:8407  creatorContractAddress */\n      dup6\n        /* \"contracts/lazyclaim/ERC721LazyClaim.sol\":8373:8408  claimCounts[creatorContractAddress] */\n      0xffffffffffffffffffffffffffffffffffffffff\n      and\n      0xffffffffffffffffffffffffffffffffffffffff\n      and\n      dup2\n      mstore\n      0x20\n      add\n      swap1\n      dup2\n      mstore\n      0x20\n      add\n      0x00\n      keccak256\n      sload\n        /* \"contracts/lazyclaim/ERC721LazyClaim.sol\":8373:8412  claimCounts[creatorContractAddress] > 0 */\n      gt\n        /* \"contracts/lazyclaim/ERC721LazyClaim.sol\":8365:8447  require(claimCounts[creatorContractAddress] > 0, \"No claims for creator contract\") */\n      tag_248\n      jumpi\n      mload(0x40)\n      0x08c379a000000000000000000000000000000000000000000000000000000000\n      dup2\n      mstore\n      0x04\n      add\n      tag_249\n      swap1\n      tag_250\n      jump\t// in\n    tag_249:\n      mload(0x40)\n      dup1\n      swap2\n      sub\n      swap1\n      revert\n    tag_248:\n        /* \"contracts/lazyclaim/ERC721LazyClaim.sol\":8458:8468  uint index */\n      0x00\n        /* \"contracts/lazyclaim/ERC721LazyClaim.sol\":8469:8470  1 */\n      0x01\n        /* \"contracts/lazyclaim/ERC721LazyClaim.sol\":8458:8470  uint index=1 */\n      swap1\n      pop\n        /* \"contracts/lazyclaim/ERC721LazyClaim.sol\":8453:8978  for (uint index=1; index <= claimCounts[creatorContractAddress]; index++) {... */\n    tag_251:\n        /* \"contracts/lazyclaim/ERC721LazyClaim.sol\":8481:8492  claimCounts */\n      0x01\n        /* \"contracts/lazyclaim/ERC721LazyClaim.sol\":8481:8516  claimCounts[creatorContractAddress] */\n      0x00\n        /* \"contracts/lazyclaim/ERC721LazyClaim.sol\":8493:8515  creatorContractAddress */\n      dup6\n        /* \"contracts/lazyclaim/ERC721LazyClaim.sol\":8481:8516  claimCounts[creatorContractAddress] */\n      0xffffffffffffffffffffffffffffffffffffffff\n      and\n      0xffffffffffffffffffffffffffffffffffffffff\n      and\n      dup2\n      mstore\n      0x20\n      add\n      swap1\n      dup2\n      mstore\n      0x20\n      add\n      0x00\n      keccak256\n      sload\n        /* \"contracts/lazyclaim/ERC721LazyClaim.sol\":8472:8477  index */\n      dup2\n        /* \"contracts/lazyclaim/ERC721LazyClaim.sol\":8472:8516  index <= claimCounts[creatorContractAddress] */\n      gt\n        /* \"contracts/lazyclaim/ERC721LazyClaim.sol\":8453:8978  for (uint index=1; index <= claimCounts[creatorContractAddress]; index++) {... */\n      tag_252\n      jumpi\n        /* \"contracts/lazyclaim/ERC721LazyClaim.sol\":8535:8566  IndexRange[] memory indexRanges */\n      0x00\n        /* \"contracts/lazyclaim/ERC721LazyClaim.sol\":8569:8580  tokenClaims */\n      0x04\n        /* \"contracts/lazyclaim/ERC721LazyClaim.sol\":8569:8604  tokenClaims[creatorContractAddress] */\n      0x00\n        /* \"contracts/lazyclaim/ERC721LazyClaim.sol\":8581:8603  creatorContractAddress */\n      dup7\n        /* \"contracts/lazyclaim/ERC721LazyClaim.sol\":8569:8604  tokenClaims[creatorContractAddress] */\n      0xffffffffffffffffffffffffffffffffffffffff\n      and\n      0xffffffffffffffffffffffffffffffffffffffff\n      and\n      dup2\n      mstore\n      0x20\n      add\n      swap1\n      dup2\n      mstore\n      0x20\n      add\n      0x00\n      keccak256\n        /* \"contracts/lazyclaim/ERC721LazyClaim.sol\":8569:8611  tokenClaims[creatorContractAddress][index] */\n      0x00\n        /* \"contracts/lazyclaim/ERC721LazyClaim.sol\":8605:8610  index */\n      dup4\n        /* \"contracts/lazyclaim/ERC721LazyClaim.sol\":8569:8611  tokenClaims[creatorContractAddress][index] */\n      dup2\n      mstore\n      0x20\n      add\n      swap1\n      dup2\n      mstore\n      0x20\n      add\n      0x00\n      keccak256\n        /* \"contracts/lazyclaim/ERC721LazyClaim.sol\":8535:8611  IndexRange[] memory indexRanges = tokenClaims[creatorContractAddress][index] */\n      dup1\n      sload\n      dup1\n      0x20\n      mul\n      0x20\n      add\n      mload(0x40)\n      swap1\n      dup2\n      add\n      0x40\n      mstore\n      dup1\n      swap3\n      swap2\n      swap1\n      dup2\n      dup2\n      mstore\n      0x20\n      add\n      0x00\n      swap1\n    tag_254:\n      dup3\n      dup3\n      lt\n      iszero\n      tag_255\n      jumpi\n      dup4\n      dup3\n      swap1\n      0x00\n      mstore\n      keccak256(0x00, 0x20)\n      swap1\n      0x02\n      mul\n      add\n      mload(0x40)\n      dup1\n      0x40\n      add\n      0x40\n      mstore\n      swap1\n      dup2\n      0x00\n      dup3\n      add\n      sload\n      dup2\n      mstore\n      0x20\n      add\n      0x01\n      dup3\n      add\n      sload\n      dup2\n      mstore\n      pop\n      pop\n      dup2\n      mstore\n      0x20\n      add\n      swap1\n      0x01\n      add\n      swap1\n      jump(tag_254)\n    tag_255:\n      pop\n      pop\n      pop\n      pop\n      swap1\n      pop\n        /* \"contracts/lazyclaim/ERC721LazyClaim.sol\":8619:8633  uint256 offset */\n      0x00\n        /* \"contracts/lazyclaim/ERC721LazyClaim.sol\":8646:8652  uint i */\n      dup1\n        /* \"contracts/lazyclaim/ERC721LazyClaim.sol\":8655:8656  0 */\n      0x00\n        /* \"contracts/lazyclaim/ERC721LazyClaim.sol\":8646:8656  uint i = 0 */\n      swap1\n      pop\n        /* \"contracts/lazyclaim/ERC721LazyClaim.sol\":8641:8972  for (uint i = 0; i < indexRanges.length; i++) {... */\n    tag_257:\n        /* \"contracts/lazyclaim/ERC721LazyClaim.sol\":8662:8673  indexRanges */\n      dup3\n        /* \"contracts/lazyclaim/ERC721LazyClaim.sol\":8662:8680  indexRanges.length */\n      mload\n        /* \"contracts/lazyclaim/ERC721LazyClaim.sol\":8658:8659  i */\n      dup2\n        /* \"contracts/lazyclaim/ERC721LazyClaim.sol\":8658:8680  i < indexRanges.length */\n      lt\n        /* \"contracts/lazyclaim/ERC721LazyClaim.sol\":8641:8972  for (uint i = 0; i < indexRanges.length; i++) {... */\n      iszero\n      tag_258\n      jumpi\n        /* \"contracts/lazyclaim/ERC721LazyClaim.sol\":8697:8727  IndexRange memory currentIndex */\n      0x00\n        /* \"contracts/lazyclaim/ERC721LazyClaim.sol\":8730:8741  indexRanges */\n      dup4\n        /* \"contracts/lazyclaim/ERC721LazyClaim.sol\":8742:8743  i */\n      dup3\n        /* \"contracts/lazyclaim/ERC721LazyClaim.sol\":8730:8744  indexRanges[i] */\n      dup2\n      mload\n      dup2\n      lt\n      tag_260\n      jumpi\n      mstore(0x00, 0x4e487b7100000000000000000000000000000000000000000000000000000000)\n      mstore(0x04, 0x32)\n      revert(0x00, 0x24)\n    tag_260:\n      0x20\n      mul\n      0x20\n      add\n      add\n      mload\n        /* \"contracts/lazyclaim/ERC721LazyClaim.sol\":8697:8744  IndexRange memory currentIndex = indexRanges[i] */\n      swap1\n      pop\n        /* \"contracts/lazyclaim/ERC721LazyClaim.sol\":8768:8780  currentIndex */\n      dup1\n        /* \"contracts/lazyclaim/ERC721LazyClaim.sol\":8768:8786  currentIndex.start */\n      0x00\n      add\n      mload\n        /* \"contracts/lazyclaim/ERC721LazyClaim.sol\":8758:8765  tokenId */\n      dup8\n        /* \"contracts/lazyclaim/ERC721LazyClaim.sol\":8758:8786  tokenId < currentIndex.start */\n      lt\n        /* \"contracts/lazyclaim/ERC721LazyClaim.sol\":8754:8793  if (tokenId < currentIndex.start) break */\n      iszero\n      tag_261\n      jumpi\n        /* \"contracts/lazyclaim/ERC721LazyClaim.sol\":8788:8793  break */\n      pop\n      jump(tag_258)\n        /* \"contracts/lazyclaim/ERC721LazyClaim.sol\":8754:8793  if (tokenId < currentIndex.start) break */\n    tag_261:\n        /* \"contracts/lazyclaim/ERC721LazyClaim.sol\":8818:8830  currentIndex */\n      dup1\n        /* \"contracts/lazyclaim/ERC721LazyClaim.sol\":8818:8836  currentIndex.start */\n      0x00\n      add\n      mload\n        /* \"contracts/lazyclaim/ERC721LazyClaim.sol\":8807:8814  tokenId */\n      dup8\n        /* \"contracts/lazyclaim/ERC721LazyClaim.sol\":8807:8836  tokenId >= currentIndex.start */\n      lt\n      iszero\n        /* \"contracts/lazyclaim/ERC721LazyClaim.sol\":8807:8889  tokenId >= currentIndex.start && tokenId < currentIndex.start + currentIndex.count */\n      dup1\n      iszero\n      tag_262\n      jumpi\n      pop\n        /* \"contracts/lazyclaim/ERC721LazyClaim.sol\":8871:8883  currentIndex */\n      dup1\n        /* \"contracts/lazyclaim/ERC721LazyClaim.sol\":8871:8889  currentIndex.count */\n      0x20\n      add\n      mload\n        /* \"contracts/lazyclaim/ERC721LazyClaim.sol\":8850:8862  currentIndex */\n      dup2\n        /* \"contracts/lazyclaim/ERC721LazyClaim.sol\":8850:8868  currentIndex.start */\n      0x00\n      add\n      mload\n        /* \"contracts/lazyclaim/ERC721LazyClaim.sol\":8850:8889  currentIndex.start + currentIndex.count */\n      tag_263\n      swap2\n      swap1\n      tag_264\n      jump\t// in\n    tag_263:\n        /* \"contracts/lazyclaim/ERC721LazyClaim.sol\":8840:8847  tokenId */\n      dup8\n        /* \"contracts/lazyclaim/ERC721LazyClaim.sol\":8840:8889  tokenId < currentIndex.start + currentIndex.count */\n      lt\n        /* \"contracts/lazyclaim/ERC721LazyClaim.sol\":8807:8889  tokenId >= currentIndex.start && tokenId < currentIndex.start + currentIndex.count */\n    tag_262:\n        /* \"contracts/lazyclaim/ERC721LazyClaim.sol\":8803:8926  if (tokenId >= currentIndex.start && tokenId < currentIndex.start + currentIndex.count) {... */\n      iszero\n      tag_265\n      jumpi\n        /* \"contracts/lazyclaim/ERC721LazyClaim.sol\":8910:8915  index */\n      dup5\n        /* \"contracts/lazyclaim/ERC721LazyClaim.sol\":8903:8915  return index */\n      swap6\n      pop\n      pop\n      pop\n      pop\n      pop\n      pop\n      jump(tag_247)\n        /* \"contracts/lazyclaim/ERC721LazyClaim.sol\":8803:8926  if (tokenId >= currentIndex.start && tokenId < currentIndex.start + currentIndex.count) {... */\n    tag_265:\n        /* \"contracts/lazyclaim/ERC721LazyClaim.sol\":8945:8957  currentIndex */\n      dup1\n        /* \"contracts/lazyclaim/ERC721LazyClaim.sol\":8945:8963  currentIndex.count */\n      0x20\n      add\n      mload\n        /* \"contracts/lazyclaim/ERC721LazyClaim.sol\":8935:8963  offset += currentIndex.count */\n      dup4\n      tag_266\n      swap2\n      swap1\n      tag_264\n      jump\t// in\n    tag_266:\n      swap3\n      pop\n        /* \"contracts/lazyclaim/ERC721LazyClaim.sol\":8641:8972  for (uint i = 0; i < indexRanges.length; i++) {... */\n      pop\n        /* \"contracts/lazyclaim/ERC721LazyClaim.sol\":8682:8685  i++ */\n      dup1\n      dup1\n      tag_267\n      swap1\n      tag_215\n      jump\t// in\n    tag_267:\n      swap2\n      pop\n      pop\n        /* \"contracts/lazyclaim/ERC721LazyClaim.sol\":8641:8972  for (uint i = 0; i < indexRanges.length; i++) {... */\n      jump(tag_257)\n    tag_258:\n      pop\n        /* \"contracts/lazyclaim/ERC721LazyClaim.sol\":8453:8978  for (uint index=1; index <= claimCounts[creatorContractAddress]; index++) {... */\n      pop\n      pop\n        /* \"contracts/lazyclaim/ERC721LazyClaim.sol\":8518:8525  index++ */\n      dup1\n      dup1\n      tag_268\n      swap1\n      tag_215\n      jump\t// in\n    tag_268:\n      swap2\n      pop\n      pop\n        /* \"contracts/lazyclaim/ERC721LazyClaim.sol\":8453:8978  for (uint index=1; index <= claimCounts[creatorContractAddress]; index++) {... */\n      jump(tag_251)\n    tag_252:\n      pop\n        /* \"contracts/lazyclaim/ERC721LazyClaim.sol\":8983:9006  revert(\"Invalid token\") */\n      mload(0x40)\n      0x08c379a000000000000000000000000000000000000000000000000000000000\n      dup2\n      mstore\n      0x04\n      add\n      tag_269\n      swap1\n      tag_270\n      jump\t// in\n    tag_269:\n      mload(0x40)\n      dup1\n      swap2\n      sub\n      swap1\n      revert\n        /* \"contracts/lazyclaim/ERC721LazyClaim.sol\":8255:9011  function _getTokenClaim(address creatorContractAddress, uint256 tokenId) internal view returns(uint256) {... */\n    tag_247:\n      swap3\n      swap2\n      pop\n      pop\n      jump\t// out\n        /* \"@openzeppelin/contracts/utils/cryptography/MerkleProof.sol\":847:1031  function verify(... */\n    tag_113:\n        /* \"@openzeppelin/contracts/utils/cryptography/MerkleProof.sol\":968:972  bool */\n      0x00\n        /* \"@openzeppelin/contracts/utils/cryptography/MerkleProof.sol\":1020:1024  root */\n      dup3\n        /* \"@openzeppelin/contracts/utils/cryptography/MerkleProof.sol\":991:1016  processProof(proof, leaf) */\n      tag_272\n        /* \"@openzeppelin/contracts/utils/cryptography/MerkleProof.sol\":1004:1009  proof */\n      dup6\n        /* \"@openzeppelin/contracts/utils/cryptography/MerkleProof.sol\":1011:1015  leaf */\n      dup5\n        /* \"@openzeppelin/contracts/utils/cryptography/MerkleProof.sol\":991:1003  processProof */\n      tag_273\n        /* \"@openzeppelin/contracts/utils/cryptography/MerkleProof.sol\":991:1016  processProof(proof, leaf) */\n      jump\t// in\n    tag_272:\n        /* \"@openzeppelin/contracts/utils/cryptography/MerkleProof.sol\":991:1024  processProof(proof, leaf) == root */\n      eq\n        /* \"@openzeppelin/contracts/utils/cryptography/MerkleProof.sol\":984:1024  return processProof(proof, leaf) == root */\n      swap1\n      pop\n        /* \"@openzeppelin/contracts/utils/cryptography/MerkleProof.sol\":847:1031  function verify(... */\n      swap4\n      swap3\n      pop\n      pop\n      pop\n      jump\t// out\n        /* \"contracts/lazyclaim/ERC721LazyClaim.sol\":7610:8145  function _updateIndexRanges(address creatorContractAddress, uint256 index, uint256 start) internal {... */\n    tag_129:\n        /* \"contracts/lazyclaim/ERC721LazyClaim.sol\":7715:7747  IndexRange[] storage indexRanges */\n      0x00\n        /* \"contracts/lazyclaim/ERC721LazyClaim.sol\":7750:7761  tokenClaims */\n      0x04\n        /* \"contracts/lazyclaim/ERC721LazyClaim.sol\":7750:7785  tokenClaims[creatorContractAddress] */\n      0x00\n        /* \"contracts/lazyclaim/ERC721LazyClaim.sol\":7762:7784  creatorContractAddress */\n      dup6\n        /* \"contracts/lazyclaim/ERC721LazyClaim.sol\":7750:7785  tokenClaims[creatorContractAddress] */\n      0xffffffffffffffffffffffffffffffffffffffff\n      and\n      0xffffffffffffffffffffffffffffffffffffffff\n      and\n      dup2\n      mstore\n      0x20\n      add\n      swap1\n      dup2\n      mstore\n      0x20\n      add\n      0x00\n      keccak256\n        /* \"contracts/lazyclaim/ERC721LazyClaim.sol\":7750:7792  tokenClaims[creatorContractAddress][index] */\n      0x00\n        /* \"contracts/lazyclaim/ERC721LazyClaim.sol\":7786:7791  index */\n      dup5\n        /* \"contracts/lazyclaim/ERC721LazyClaim.sol\":7750:7792  tokenClaims[creatorContractAddress][index] */\n      dup2\n      mstore\n      0x20\n      add\n      swap1\n      dup2\n      mstore\n      0x20\n      add\n      0x00\n      keccak256\n        /* \"contracts/lazyclaim/ERC721LazyClaim.sol\":7715:7792  IndexRange[] storage indexRanges = tokenClaims[creatorContractAddress][index] */\n      swap1\n      pop\n        /* \"contracts/lazyclaim/ERC721LazyClaim.sol\":7824:7825  0 */\n      0x00\n        /* \"contracts/lazyclaim/ERC721LazyClaim.sol\":7802:7813  indexRanges */\n      dup2\n        /* \"contracts/lazyclaim/ERC721LazyClaim.sol\":7802:7820  indexRanges.length */\n      dup1\n      sload\n      swap1\n      pop\n        /* \"contracts/lazyclaim/ERC721LazyClaim.sol\":7802:7825  indexRanges.length == 0 */\n      eq\n        /* \"contracts/lazyclaim/ERC721LazyClaim.sol\":7798:8141  if (indexRanges.length == 0) {... */\n      iszero\n      tag_275\n      jumpi\n        /* \"contracts/lazyclaim/ERC721LazyClaim.sol\":7835:7846  indexRanges */\n      dup1\n        /* \"contracts/lazyclaim/ERC721LazyClaim.sol\":7852:7872  IndexRange(start, 1) */\n      mload(0x40)\n      dup1\n      0x40\n      add\n      0x40\n      mstore\n      dup1\n        /* \"contracts/lazyclaim/ERC721LazyClaim.sol\":7863:7868  start */\n      dup5\n        /* \"contracts/lazyclaim/ERC721LazyClaim.sol\":7852:7872  IndexRange(start, 1) */\n      dup2\n      mstore\n      0x20\n      add\n        /* \"contracts/lazyclaim/ERC721LazyClaim.sol\":7870:7871  1 */\n      0x01\n        /* \"contracts/lazyclaim/ERC721LazyClaim.sol\":7852:7872  IndexRange(start, 1) */\n      dup2\n      mstore\n      pop\n        /* \"contracts/lazyclaim/ERC721LazyClaim.sol\":7835:7873  indexRanges.push(IndexRange(start, 1)) */\n      swap1\n      dup1\n      0x01\n      dup2\n      sload\n      add\n      dup1\n      dup3\n      sstore\n      dup1\n      swap2\n      pop\n      pop\n      0x01\n      swap1\n      sub\n      swap1\n      0x00\n      mstore\n      keccak256(0x00, 0x20)\n      swap1\n      0x02\n      mul\n      add\n      0x00\n      swap1\n      swap2\n      swap1\n      swap2\n      swap1\n      swap2\n      pop\n      0x00\n      dup3\n      add\n      mload\n      dup2\n      0x00\n      add\n      sstore\n      0x20\n      dup3\n      add\n      mload\n      dup2\n      0x01\n      add\n      sstore\n      pop\n      pop\n        /* \"contracts/lazyclaim/ERC721LazyClaim.sol\":7798:8141  if (indexRanges.length == 0) {... */\n      jump(tag_277)\n    tag_275:\n        /* \"contracts/lazyclaim/ERC721LazyClaim.sol\":7894:7927  IndexRange storage lastIndexRange */\n      0x00\n        /* \"contracts/lazyclaim/ERC721LazyClaim.sol\":7930:7941  indexRanges */\n      dup2\n        /* \"contracts/lazyclaim/ERC721LazyClaim.sol\":7961:7962  1 */\n      0x01\n        /* \"contracts/lazyclaim/ERC721LazyClaim.sol\":7942:7953  indexRanges */\n      dup4\n        /* \"contracts/lazyclaim/ERC721LazyClaim.sol\":7942:7960  indexRanges.length */\n      dup1\n      sload\n      swap1\n      pop\n        /* \"contracts/lazyclaim/ERC721LazyClaim.sol\":7942:7962  indexRanges.length-1 */\n      tag_278\n      swap2\n      swap1\n      tag_279\n      jump\t// in\n    tag_278:\n        /* \"contracts/lazyclaim/ERC721LazyClaim.sol\":7930:7963  indexRanges[indexRanges.length-1] */\n      dup2\n      sload\n      dup2\n      lt\n      tag_280\n      jumpi\n      mstore(0x00, 0x4e487b7100000000000000000000000000000000000000000000000000000000)\n      mstore(0x04, 0x32)\n      revert(0x00, 0x24)\n    tag_280:\n      swap1\n      0x00\n      mstore\n      keccak256(0x00, 0x20)\n      swap1\n      0x02\n      mul\n      add\n        /* \"contracts/lazyclaim/ERC721LazyClaim.sol\":7894:7963  IndexRange storage lastIndexRange = indexRanges[indexRanges.length-1] */\n      swap1\n      pop\n        /* \"contracts/lazyclaim/ERC721LazyClaim.sol\":8024:8029  start */\n      dup3\n        /* \"contracts/lazyclaim/ERC721LazyClaim.sol\":7999:8013  lastIndexRange */\n      dup2\n        /* \"contracts/lazyclaim/ERC721LazyClaim.sol\":7999:8019  lastIndexRange.count */\n      0x01\n      add\n      sload\n        /* \"contracts/lazyclaim/ERC721LazyClaim.sol\":7976:7990  lastIndexRange */\n      dup3\n        /* \"contracts/lazyclaim/ERC721LazyClaim.sol\":7976:7996  lastIndexRange.start */\n      0x00\n      add\n      sload\n        /* \"contracts/lazyclaim/ERC721LazyClaim.sol\":7976:8019  lastIndexRange.start + lastIndexRange.count */\n      tag_282\n      swap2\n      swap1\n      tag_264\n      jump\t// in\n    tag_282:\n        /* \"contracts/lazyclaim/ERC721LazyClaim.sol\":7975:8029  (lastIndexRange.start + lastIndexRange.count) == start */\n      eq\n        /* \"contracts/lazyclaim/ERC721LazyClaim.sol\":7971:8135  if ((lastIndexRange.start + lastIndexRange.count) == start) {... */\n      iszero\n      tag_283\n      jumpi\n        /* \"contracts/lazyclaim/ERC721LazyClaim.sol\":8041:8055  lastIndexRange */\n      dup1\n        /* \"contracts/lazyclaim/ERC721LazyClaim.sol\":8041:8061  lastIndexRange.count */\n      0x01\n      add\n      0x00\n        /* \"contracts/lazyclaim/ERC721LazyClaim.sol\":8041:8063  lastIndexRange.count++ */\n      dup2\n      sload\n      dup1\n      swap3\n      swap2\n      swap1\n      tag_284\n      swap1\n      tag_215\n      jump\t// in\n    tag_284:\n      swap2\n      swap1\n      pop\n      sstore\n      pop\n        /* \"contracts/lazyclaim/ERC721LazyClaim.sol\":7971:8135  if ((lastIndexRange.start + lastIndexRange.count) == start) {... */\n      jump(tag_285)\n    tag_283:\n        /* \"contracts/lazyclaim/ERC721LazyClaim.sol\":8088:8099  indexRanges */\n      dup2\n        /* \"contracts/lazyclaim/ERC721LazyClaim.sol\":8105:8125  IndexRange(start, 1) */\n      mload(0x40)\n      dup1\n      0x40\n      add\n      0x40\n      mstore\n      dup1\n        /* \"contracts/lazyclaim/ERC721LazyClaim.sol\":8116:8121  start */\n      dup6\n        /* \"contracts/lazyclaim/ERC721LazyClaim.sol\":8105:8125  IndexRange(start, 1) */\n      dup2\n      mstore\n      0x20\n      add\n        /* \"contracts/lazyclaim/ERC721LazyClaim.sol\":8123:8124  1 */\n      0x01\n        /* \"contracts/lazyclaim/ERC721LazyClaim.sol\":8105:8125  IndexRange(start, 1) */\n      dup2\n      mstore\n      pop\n        /* \"contracts/lazyclaim/ERC721LazyClaim.sol\":8088:8126  indexRanges.push(IndexRange(start, 1)) */\n      swap1\n      dup1\n      0x01\n      dup2\n      sload\n      add\n      dup1\n      dup3\n      sstore\n      dup1\n      swap2\n      pop\n      pop\n      0x01\n      swap1\n      sub\n      swap1\n      0x00\n      mstore\n      keccak256(0x00, 0x20)\n      swap1\n      0x02\n      mul\n      add\n      0x00\n      swap1\n      swap2\n      swap1\n      swap2\n      swap1\n      swap2\n      pop\n      0x00\n      dup3\n      add\n      mload\n      dup2\n      0x00\n      add\n      sstore\n      0x20\n      dup3\n      add\n      mload\n      dup2\n      0x01\n      add\n      sstore\n      pop\n      pop\n        /* \"contracts/lazyclaim/ERC721LazyClaim.sol\":7971:8135  if ((lastIndexRange.start + lastIndexRange.count) == start) {... */\n    tag_285:\n        /* \"contracts/lazyclaim/ERC721LazyClaim.sol\":7798:8141  if (indexRanges.length == 0) {... */\n      pop\n    tag_277:\n        /* \"contracts/lazyclaim/ERC721LazyClaim.sol\":7610:8145  function _updateIndexRanges(address creatorContractAddress, uint256 index, uint256 start) internal {... */\n      pop\n      pop\n      pop\n      pop\n      jump\t// out\n        /* \"@openzeppelin/contracts/utils/cryptography/MerkleProof.sol\":1383:2071  function processProof(bytes32[] memory proof, bytes32 leaf) internal pure returns (bytes32) {... */\n    tag_273:\n        /* \"@openzeppelin/contracts/utils/cryptography/MerkleProof.sol\":1466:1473  bytes32 */\n      0x00\n        /* \"@openzeppelin/contracts/utils/cryptography/MerkleProof.sol\":1485:1505  bytes32 computedHash */\n      dup1\n        /* \"@openzeppelin/contracts/utils/cryptography/MerkleProof.sol\":1508:1512  leaf */\n      dup3\n        /* \"@openzeppelin/contracts/utils/cryptography/MerkleProof.sol\":1485:1512  bytes32 computedHash = leaf */\n      swap1\n      pop\n        /* \"@openzeppelin/contracts/utils/cryptography/MerkleProof.sol\":1527:1536  uint256 i */\n      0x00\n        /* \"@openzeppelin/contracts/utils/cryptography/MerkleProof.sol\":1522:2036  for (uint256 i = 0; i < proof.length; i++) {... */\n    tag_288:\n        /* \"@openzeppelin/contracts/utils/cryptography/MerkleProof.sol\":1546:1551  proof */\n      dup5\n        /* \"@openzeppelin/contracts/utils/cryptography/MerkleProof.sol\":1546:1558  proof.length */\n      mload\n        /* \"@openzeppelin/contracts/utils/cryptography/MerkleProof.sol\":1542:1543  i */\n      dup2\n        /* \"@openzeppelin/contracts/utils/cryptography/MerkleProof.sol\":1542:1558  i < proof.length */\n      lt\n        /* \"@openzeppelin/contracts/utils/cryptography/MerkleProof.sol\":1522:2036  for (uint256 i = 0; i < proof.length; i++) {... */\n      iszero\n      tag_289\n      jumpi\n        /* \"@openzeppelin/contracts/utils/cryptography/MerkleProof.sol\":1579:1599  bytes32 proofElement */\n      0x00\n        /* \"@openzeppelin/contracts/utils/cryptography/MerkleProof.sol\":1602:1607  proof */\n      dup6\n        /* \"@openzeppelin/contracts/utils/cryptography/MerkleProof.sol\":1608:1609  i */\n      dup3\n        /* \"@openzeppelin/contracts/utils/cryptography/MerkleProof.sol\":1602:1610  proof[i] */\n      dup2\n      mload\n      dup2\n      lt\n      tag_291\n      jumpi\n      mstore(0x00, 0x4e487b7100000000000000000000000000000000000000000000000000000000)\n      mstore(0x04, 0x32)\n      revert(0x00, 0x24)\n    tag_291:\n      0x20\n      mul\n      0x20\n      add\n      add\n      mload\n        /* \"@openzeppelin/contracts/utils/cryptography/MerkleProof.sol\":1579:1610  bytes32 proofElement = proof[i] */\n      swap1\n      pop\n        /* \"@openzeppelin/contracts/utils/cryptography/MerkleProof.sol\":1644:1656  proofElement */\n      dup1\n        /* \"@openzeppelin/contracts/utils/cryptography/MerkleProof.sol\":1628:1640  computedHash */\n      dup4\n        /* \"@openzeppelin/contracts/utils/cryptography/MerkleProof.sol\":1628:1656  computedHash <= proofElement */\n      gt\n        /* \"@openzeppelin/contracts/utils/cryptography/MerkleProof.sol\":1624:2026  if (computedHash <= proofElement) {... */\n      tag_292\n      jumpi\n        /* \"@openzeppelin/contracts/utils/cryptography/MerkleProof.sol\":1796:1808  computedHash */\n      dup3\n        /* \"@openzeppelin/contracts/utils/cryptography/MerkleProof.sol\":1810:1822  proofElement */\n      dup2\n        /* \"@openzeppelin/contracts/utils/cryptography/MerkleProof.sol\":1779:1823  abi.encodePacked(computedHash, proofElement) */\n      add(0x20, mload(0x40))\n      tag_293\n      swap3\n      swap2\n      swap1\n      tag_294\n      jump\t// in\n    tag_293:\n      mload(0x40)\n      0x20\n      dup2\n      dup4\n      sub\n      sub\n      dup2\n      mstore\n      swap1\n      0x40\n      mstore\n        /* \"@openzeppelin/contracts/utils/cryptography/MerkleProof.sol\":1769:1824  keccak256(abi.encodePacked(computedHash, proofElement)) */\n      dup1\n      mload\n      swap1\n      0x20\n      add\n      keccak256\n        /* \"@openzeppelin/contracts/utils/cryptography/MerkleProof.sol\":1754:1824  computedHash = keccak256(abi.encodePacked(computedHash, proofElement)) */\n      swap3\n      pop\n        /* \"@openzeppelin/contracts/utils/cryptography/MerkleProof.sol\":1624:2026  if (computedHash <= proofElement) {... */\n      jump(tag_295)\n    tag_292:\n        /* \"@openzeppelin/contracts/utils/cryptography/MerkleProof.sol\":1983:1995  proofElement */\n      dup1\n        /* \"@openzeppelin/contracts/utils/cryptography/MerkleProof.sol\":1997:2009  computedHash */\n      dup4\n        /* \"@openzeppelin/contracts/utils/cryptography/MerkleProof.sol\":1966:2010  abi.encodePacked(proofElement, computedHash) */\n      add(0x20, mload(0x40))\n      tag_296\n      swap3\n      swap2\n      swap1\n      tag_294\n      jump\t// in\n    tag_296:\n      mload(0x40)\n      0x20\n      dup2\n      dup4\n      sub\n      sub\n      dup2\n      mstore\n      swap1\n      0x40\n      mstore\n        /* \"@openzeppelin/contracts/utils/cryptography/MerkleProof.sol\":1956:2011  keccak256(abi.encodePacked(proofElement, computedHash)) */\n      dup1\n      mload\n      swap1\n      0x20\n      add\n      keccak256\n        /* \"@openzeppelin/contracts/utils/cryptography/MerkleProof.sol\":1941:2011  computedHash = keccak256(abi.encodePacked(proofElement, computedHash)) */\n      swap3\n      pop\n        /* \"@openzeppelin/contracts/utils/cryptography/MerkleProof.sol\":1624:2026  if (computedHash <= proofElement) {... */\n    tag_295:\n        /* \"@openzeppelin/contracts/utils/cryptography/MerkleProof.sol\":1522:2036  for (uint256 i = 0; i < proof.length; i++) {... */\n      pop\n        /* \"@openzeppelin/contracts/utils/cryptography/MerkleProof.sol\":1560:1563  i++ */\n      dup1\n      dup1\n      tag_297\n      swap1\n      tag_215\n      jump\t// in\n    tag_297:\n      swap2\n      pop\n      pop\n        /* \"@openzeppelin/contracts/utils/cryptography/MerkleProof.sol\":1522:2036  for (uint256 i = 0; i < proof.length; i++) {... */\n      jump(tag_288)\n    tag_289:\n      pop\n        /* \"@openzeppelin/contracts/utils/cryptography/MerkleProof.sol\":2052:2064  computedHash */\n      dup1\n        /* \"@openzeppelin/contracts/utils/cryptography/MerkleProof.sol\":2045:2064  return computedHash */\n      swap2\n      pop\n      pop\n        /* \"@openzeppelin/contracts/utils/cryptography/MerkleProof.sol\":1383:2071  function processProof(bytes32[] memory proof, bytes32 leaf) internal pure returns (bytes32) {... */\n      swap3\n      swap2\n      pop\n      pop\n      jump\t// out\n    tag_131:\n      mload(0x40)\n      dup1\n      0x0120\n      add\n      0x40\n      mstore\n      dup1\n      and(0xffffffff, 0x00)\n      dup2\n      mstore\n      0x20\n      add\n      and(0xffffffff, 0x00)\n      dup2\n      mstore\n      0x20\n      add\n      and(0xffffffff, 0x00)\n      dup2\n      mstore\n      0x20\n      add\n      and(0xffffffffffff, 0x00)\n      dup2\n      mstore\n      0x20\n      add\n      and(0xffffffffffff, 0x00)\n      dup2\n      mstore\n      0x20\n      add\n      0x00\n      0x02\n      dup2\n      gt\n      iszero\n      tag_298\n      jumpi\n      mstore(0x00, 0x4e487b7100000000000000000000000000000000000000000000000000000000)\n      mstore(0x04, 0x21)\n      revert(0x00, 0x24)\n    tag_298:\n      dup2\n      mstore\n      0x20\n      add\n      iszero(iszero(0x00))\n      dup2\n      mstore\n      0x20\n      add\n      0x00\n      dup1\n      not\n      and\n      dup2\n      mstore\n      0x20\n      add\n      0x60\n      dup2\n      mstore\n      pop\n      swap1\n      jump\t// out\n    tag_189:\n      dup3\n      dup1\n      sload\n      tag_299\n      swap1\n      tag_138\n      jump\t// in\n    tag_299:\n      swap1\n      0x00\n      mstore\n      keccak256(0x00, 0x20)\n      swap1\n      0x1f\n      add\n      0x20\n      swap1\n      div\n      dup2\n      add\n      swap3\n      dup3\n      tag_301\n      jumpi\n      0x00\n      dup6\n      sstore\n      jump(tag_300)\n    tag_301:\n      dup3\n      0x1f\n      lt\n      tag_302\n      jumpi\n      dup1\n      mload\n      not(0xff)\n      and\n      dup4\n      dup1\n      add\n      or\n      dup6\n      sstore\n      jump(tag_300)\n    tag_302:\n      dup3\n      dup1\n      add\n      0x01\n      add\n      dup6\n      sstore\n      dup3\n      iszero\n      tag_300\n      jumpi\n      swap2\n      dup3\n      add\n    tag_303:\n      dup3\n      dup2\n      gt\n      iszero\n      tag_304\n      jumpi\n      dup3\n      mload\n      dup3\n      sstore\n      swap2\n      0x20\n      add\n      swap2\n      swap1\n      0x01\n      add\n      swap1\n      jump(tag_303)\n    tag_304:\n    tag_300:\n      pop\n      swap1\n      pop\n      tag_305\n      swap2\n      swap1\n      tag_306\n      jump\t// in\n    tag_305:\n      pop\n      swap1\n      jump\t// out\n    tag_306:\n    tag_307:\n      dup1\n      dup3\n      gt\n      iszero\n      tag_308\n      jumpi\n      0x00\n      dup2\n      0x00\n      swap1\n      sstore\n      pop\n      0x01\n      add\n      jump(tag_307)\n    tag_308:\n      pop\n      swap1\n      jump\t// out\n        /* \"#utility.yul\":7:146   */\n    tag_310:\n      0x00\n        /* \"#utility.yul\":91:97   */\n      dup2\n        /* \"#utility.yul\":78:98   */\n      calldataload\n        /* \"#utility.yul\":69:98   */\n      swap1\n      pop\n        /* \"#utility.yul\":107:140   */\n      tag_312\n        /* \"#utility.yul\":134:139   */\n      dup2\n        /* \"#utility.yul\":107:140   */\n      tag_313\n      jump\t// in\n    tag_312:\n        /* \"#utility.yul\":59:146   */\n      swap3\n      swap2\n      pop\n      pop\n      jump\t// out\n        /* \"#utility.yul\":169:536   */\n    tag_314:\n      0x00\n      dup1\n        /* \"#utility.yul\":302:305   */\n      dup4\n        /* \"#utility.yul\":295:299   */\n      0x1f\n        /* \"#utility.yul\":287:293   */\n      dup5\n        /* \"#utility.yul\":283:300   */\n      add\n        /* \"#utility.yul\":279:306   */\n      slt\n        /* \"#utility.yul\":269:271   */\n      tag_316\n      jumpi\n        /* \"#utility.yul\":320:321   */\n      0x00\n        /* \"#utility.yul\":317:318   */\n      dup1\n        /* \"#utility.yul\":310:322   */\n      revert\n        /* \"#utility.yul\":269:271   */\n    tag_316:\n        /* \"#utility.yul\":356:362   */\n      dup3\n        /* \"#utility.yul\":343:363   */\n      calldataload\n        /* \"#utility.yul\":333:363   */\n      swap1\n      pop\n        /* \"#utility.yul\":386:404   */\n      0xffffffffffffffff\n        /* \"#utility.yul\":378:384   */\n      dup2\n        /* \"#utility.yul\":375:405   */\n      gt\n        /* \"#utility.yul\":372:374   */\n      iszero\n      tag_317\n      jumpi\n        /* \"#utility.yul\":418:419   */\n      0x00\n        /* \"#utility.yul\":415:416   */\n      dup1\n        /* \"#utility.yul\":408:420   */\n      revert\n        /* \"#utility.yul\":372:374   */\n    tag_317:\n        /* \"#utility.yul\":455:459   */\n      0x20\n        /* \"#utility.yul\":447:453   */\n      dup4\n        /* \"#utility.yul\":443:460   */\n      add\n        /* \"#utility.yul\":431:460   */\n      swap2\n      pop\n        /* \"#utility.yul\":509:512   */\n      dup4\n        /* \"#utility.yul\":501:505   */\n      0x20\n        /* \"#utility.yul\":493:499   */\n      dup3\n        /* \"#utility.yul\":489:506   */\n      mul\n        /* \"#utility.yul\":479:487   */\n      dup4\n        /* \"#utility.yul\":475:507   */\n      add\n        /* \"#utility.yul\":472:513   */\n      gt\n        /* \"#utility.yul\":469:471   */\n      iszero\n      tag_318\n      jumpi\n        /* \"#utility.yul\":526:527   */\n      0x00\n        /* \"#utility.yul\":523:524   */\n      dup1\n        /* \"#utility.yul\":516:528   */\n      revert\n        /* \"#utility.yul\":469:471   */\n    tag_318:\n        /* \"#utility.yul\":259:536   */\n      swap3\n      pop\n      swap3\n      swap1\n      pop\n      jump\t// out\n        /* \"#utility.yul\":542:675   */\n    tag_319:\n      0x00\n        /* \"#utility.yul\":623:629   */\n      dup2\n        /* \"#utility.yul\":610:630   */\n      calldataload\n        /* \"#utility.yul\":601:630   */\n      swap1\n      pop\n        /* \"#utility.yul\":639:669   */\n      tag_321\n        /* \"#utility.yul\":663:668   */\n      dup2\n        /* \"#utility.yul\":639:669   */\n      tag_322\n      jump\t// in\n    tag_321:\n        /* \"#utility.yul\":591:675   */\n      swap3\n      swap2\n      pop\n      pop\n      jump\t// out\n        /* \"#utility.yul\":681:818   */\n    tag_323:\n      0x00\n        /* \"#utility.yul\":766:772   */\n      dup2\n        /* \"#utility.yul\":760:773   */\n      mload\n        /* \"#utility.yul\":751:773   */\n      swap1\n      pop\n        /* \"#utility.yul\":782:812   */\n      tag_325\n        /* \"#utility.yul\":806:811   */\n      dup2\n        /* \"#utility.yul\":782:812   */\n      tag_322\n      jump\t// in\n    tag_325:\n        /* \"#utility.yul\":741:818   */\n      swap3\n      swap2\n      pop\n      pop\n      jump\t// out\n        /* \"#utility.yul\":824:961   */\n    tag_326:\n      0x00\n        /* \"#utility.yul\":907:913   */\n      dup2\n        /* \"#utility.yul\":894:914   */\n      calldataload\n        /* \"#utility.yul\":885:914   */\n      swap1\n      pop\n        /* \"#utility.yul\":923:955   */\n      tag_328\n        /* \"#utility.yul\":949:954   */\n      dup2\n        /* \"#utility.yul\":923:955   */\n      tag_329\n      jump\t// in\n    tag_328:\n        /* \"#utility.yul\":875:961   */\n      swap3\n      swap2\n      pop\n      pop\n      jump\t// out\n        /* \"#utility.yul\":967:1146   */\n    tag_330:\n      0x00\n        /* \"#utility.yul\":1071:1077   */\n      dup2\n        /* \"#utility.yul\":1058:1078   */\n      calldataload\n        /* \"#utility.yul\":1049:1078   */\n      swap1\n      pop\n        /* \"#utility.yul\":1087:1140   */\n      tag_332\n        /* \"#utility.yul\":1134:1139   */\n      dup2\n        /* \"#utility.yul\":1087:1140   */\n      tag_333\n      jump\t// in\n    tag_332:\n        /* \"#utility.yul\":1039:1146   */\n      swap3\n      swap2\n      pop\n      pop\n      jump\t// out\n        /* \"#utility.yul\":1199:1372   */\n    tag_334:\n      0x00\n        /* \"#utility.yul\":1321:1324   */\n      0x0120\n        /* \"#utility.yul\":1312:1318   */\n      dup3\n        /* \"#utility.yul\":1307:1310   */\n      dup5\n        /* \"#utility.yul\":1303:1319   */\n      sub\n        /* \"#utility.yul\":1299:1325   */\n      slt\n        /* \"#utility.yul\":1296:1298   */\n      iszero\n      tag_336\n      jumpi\n        /* \"#utility.yul\":1338:1339   */\n      0x00\n        /* \"#utility.yul\":1335:1336   */\n      dup1\n        /* \"#utility.yul\":1328:1340   */\n      revert\n        /* \"#utility.yul\":1296:1298   */\n    tag_336:\n        /* \"#utility.yul\":1360:1366   */\n      dup2\n        /* \"#utility.yul\":1351:1366   */\n      swap1\n      pop\n        /* \"#utility.yul\":1286:1372   */\n      swap3\n      swap2\n      pop\n      pop\n      jump\t// out\n        /* \"#utility.yul\":1378:1517   */\n    tag_337:\n      0x00\n        /* \"#utility.yul\":1462:1468   */\n      dup2\n        /* \"#utility.yul\":1449:1469   */\n      calldataload\n        /* \"#utility.yul\":1440:1469   */\n      swap1\n      pop\n        /* \"#utility.yul\":1478:1511   */\n      tag_339\n        /* \"#utility.yul\":1505:1510   */\n      dup2\n        /* \"#utility.yul\":1478:1511   */\n      tag_340\n      jump\t// in\n    tag_339:\n        /* \"#utility.yul\":1430:1517   */\n      swap3\n      swap2\n      pop\n      pop\n      jump\t// out\n        /* \"#utility.yul\":1523:1666   */\n    tag_341:\n      0x00\n        /* \"#utility.yul\":1611:1617   */\n      dup2\n        /* \"#utility.yul\":1605:1618   */\n      mload\n        /* \"#utility.yul\":1596:1618   */\n      swap1\n      pop\n        /* \"#utility.yul\":1627:1660   */\n      tag_343\n        /* \"#utility.yul\":1654:1659   */\n      dup2\n        /* \"#utility.yul\":1627:1660   */\n      tag_340\n      jump\t// in\n    tag_343:\n        /* \"#utility.yul\":1586:1666   */\n      swap3\n      swap2\n      pop\n      pop\n      jump\t// out\n        /* \"#utility.yul\":1672:1809   */\n    tag_344:\n      0x00\n        /* \"#utility.yul\":1755:1761   */\n      dup2\n        /* \"#utility.yul\":1742:1762   */\n      calldataload\n        /* \"#utility.yul\":1733:1762   */\n      swap1\n      pop\n        /* \"#utility.yul\":1771:1803   */\n      tag_346\n        /* \"#utility.yul\":1797:1802   */\n      dup2\n        /* \"#utility.yul\":1771:1803   */\n      tag_347\n      jump\t// in\n    tag_346:\n        /* \"#utility.yul\":1723:1809   */\n      swap3\n      swap2\n      pop\n      pop\n      jump\t// out\n        /* \"#utility.yul\":1815:1952   */\n    tag_348:\n      0x00\n        /* \"#utility.yul\":1898:1904   */\n      dup2\n        /* \"#utility.yul\":1885:1905   */\n      calldataload\n        /* \"#utility.yul\":1876:1905   */\n      swap1\n      pop\n        /* \"#utility.yul\":1914:1946   */\n      tag_350\n        /* \"#utility.yul\":1940:1945   */\n      dup2\n        /* \"#utility.yul\":1914:1946   */\n      tag_351\n      jump\t// in\n    tag_350:\n        /* \"#utility.yul\":1866:1952   */\n      swap3\n      swap2\n      pop\n      pop\n      jump\t// out\n        /* \"#utility.yul\":1958:2220   */\n    tag_61:\n      0x00\n        /* \"#utility.yul\":2066:2068   */\n      0x20\n        /* \"#utility.yul\":2054:2063   */\n      dup3\n        /* \"#utility.yul\":2045:2052   */\n      dup5\n        /* \"#utility.yul\":2041:2064   */\n      sub\n        /* \"#utility.yul\":2037:2069   */\n      slt\n        /* \"#utility.yul\":2034:2036   */\n      iszero\n      tag_353\n      jumpi\n        /* \"#utility.yul\":2082:2083   */\n      0x00\n        /* \"#utility.yul\":2079:2080   */\n      dup1\n        /* \"#utility.yul\":2072:2084   */\n      revert\n        /* \"#utility.yul\":2034:2036   */\n    tag_353:\n        /* \"#utility.yul\":2125:2126   */\n      0x00\n        /* \"#utility.yul\":2150:2203   */\n      tag_354\n        /* \"#utility.yul\":2195:2202   */\n      dup5\n        /* \"#utility.yul\":2186:2192   */\n      dup3\n        /* \"#utility.yul\":2175:2184   */\n      dup6\n        /* \"#utility.yul\":2171:2193   */\n      add\n        /* \"#utility.yul\":2150:2203   */\n      tag_310\n      jump\t// in\n    tag_354:\n        /* \"#utility.yul\":2140:2203   */\n      swap2\n      pop\n        /* \"#utility.yul\":2096:2213   */\n      pop\n        /* \"#utility.yul\":2024:2220   */\n      swap3\n      swap2\n      pop\n      pop\n      jump\t// out\n        /* \"#utility.yul\":2226:2796   */\n    tag_66:\n      0x00\n      dup1\n        /* \"#utility.yul\":2386:2388   */\n      0x40\n        /* \"#utility.yul\":2374:2383   */\n      dup4\n        /* \"#utility.yul\":2365:2372   */\n      dup6\n        /* \"#utility.yul\":2361:2384   */\n      sub\n        /* \"#utility.yul\":2357:2389   */\n      slt\n        /* \"#utility.yul\":2354:2356   */\n      iszero\n      tag_356\n      jumpi\n        /* \"#utility.yul\":2402:2403   */\n      0x00\n        /* \"#utility.yul\":2399:2400   */\n      dup1\n        /* \"#utility.yul\":2392:2404   */\n      revert\n        /* \"#utility.yul\":2354:2356   */\n    tag_356:\n        /* \"#utility.yul\":2445:2446   */\n      0x00\n        /* \"#utility.yul\":2470:2523   */\n      tag_357\n        /* \"#utility.yul\":2515:2522   */\n      dup6\n        /* \"#utility.yul\":2506:2512   */\n      dup3\n        /* \"#utility.yul\":2495:2504   */\n      dup7\n        /* \"#utility.yul\":2491:2513   */\n      add\n        /* \"#utility.yul\":2470:2523   */\n      tag_310\n      jump\t// in\n    tag_357:\n        /* \"#utility.yul\":2460:2523   */\n      swap3\n      pop\n        /* \"#utility.yul\":2416:2533   */\n      pop\n        /* \"#utility.yul\":2600:2602   */\n      0x20\n        /* \"#utility.yul\":2589:2598   */\n      dup4\n        /* \"#utility.yul\":2585:2603   */\n      add\n        /* \"#utility.yul\":2572:2604   */\n      calldataload\n        /* \"#utility.yul\":2631:2649   */\n      0xffffffffffffffff\n        /* \"#utility.yul\":2623:2629   */\n      dup2\n        /* \"#utility.yul\":2620:2650   */\n      gt\n        /* \"#utility.yul\":2617:2619   */\n      iszero\n      tag_358\n      jumpi\n        /* \"#utility.yul\":2663:2664   */\n      0x00\n        /* \"#utility.yul\":2660:2661   */\n      dup1\n        /* \"#utility.yul\":2653:2665   */\n      revert\n        /* \"#utility.yul\":2617:2619   */\n    tag_358:\n        /* \"#utility.yul\":2691:2779   */\n      tag_359\n        /* \"#utility.yul\":2771:2778   */\n      dup6\n        /* \"#utility.yul\":2762:2768   */\n      dup3\n        /* \"#utility.yul\":2751:2760   */\n      dup7\n        /* \"#utility.yul\":2747:2769   */\n      add\n        /* \"#utility.yul\":2691:2779   */\n      tag_334\n      jump\t// in\n    tag_359:\n        /* \"#utility.yul\":2681:2779   */\n      swap2\n      pop\n        /* \"#utility.yul\":2543:2789   */\n      pop\n        /* \"#utility.yul\":2344:2796   */\n      swap3\n      pop\n      swap3\n      swap1\n      pop\n      jump\t// out\n        /* \"#utility.yul\":2802:3209   */\n    tag_26:\n      0x00\n      dup1\n        /* \"#utility.yul\":2927:2929   */\n      0x40\n        /* \"#utility.yul\":2915:2924   */\n      dup4\n        /* \"#utility.yul\":2906:2913   */\n      dup6\n        /* \"#utility.yul\":2902:2925   */\n      sub\n        /* \"#utility.yul\":2898:2930   */\n      slt\n        /* \"#utility.yul\":2895:2897   */\n      iszero\n      tag_361\n      jumpi\n        /* \"#utility.yul\":2943:2944   */\n      0x00\n        /* \"#utility.yul\":2940:2941   */\n      dup1\n        /* \"#utility.yul\":2933:2945   */\n      revert\n        /* \"#utility.yul\":2895:2897   */\n    tag_361:\n        /* \"#utility.yul\":2986:2987   */\n      0x00\n        /* \"#utility.yul\":3011:3064   */\n      tag_362\n        /* \"#utility.yul\":3056:3063   */\n      dup6\n        /* \"#utility.yul\":3047:3053   */\n      dup3\n        /* \"#utility.yul\":3036:3045   */\n      dup7\n        /* \"#utility.yul\":3032:3054   */\n      add\n        /* \"#utility.yul\":3011:3064   */\n      tag_310\n      jump\t// in\n    tag_362:\n        /* \"#utility.yul\":3001:3064   */\n      swap3\n      pop\n        /* \"#utility.yul\":2957:3074   */\n      pop\n        /* \"#utility.yul\":3113:3115   */\n      0x20\n        /* \"#utility.yul\":3139:3192   */\n      tag_363\n        /* \"#utility.yul\":3184:3191   */\n      dup6\n        /* \"#utility.yul\":3175:3181   */\n      dup3\n        /* \"#utility.yul\":3164:3173   */\n      dup7\n        /* \"#utility.yul\":3160:3182   */\n      add\n        /* \"#utility.yul\":3139:3192   */\n      tag_337\n      jump\t// in\n    tag_363:\n        /* \"#utility.yul\":3129:3192   */\n      swap2\n      pop\n        /* \"#utility.yul\":3084:3202   */\n      pop\n        /* \"#utility.yul\":2885:3209   */\n      swap3\n      pop\n      swap3\n      swap1\n      pop\n      jump\t// out\n        /* \"#utility.yul\":3215:3767   */\n    tag_80:\n      0x00\n      dup1\n      0x00\n        /* \"#utility.yul\":3357:3359   */\n      0x60\n        /* \"#utility.yul\":3345:3354   */\n      dup5\n        /* \"#utility.yul\":3336:3343   */\n      dup7\n        /* \"#utility.yul\":3332:3355   */\n      sub\n        /* \"#utility.yul\":3328:3360   */\n      slt\n        /* \"#utility.yul\":3325:3327   */\n      iszero\n      tag_365\n      jumpi\n        /* \"#utility.yul\":3373:3374   */\n      0x00\n        /* \"#utility.yul\":3370:3371   */\n      dup1\n        /* \"#utility.yul\":3363:3375   */\n      revert\n        /* \"#utility.yul\":3325:3327   */\n    tag_365:\n        /* \"#utility.yul\":3416:3417   */\n      0x00\n        /* \"#utility.yul\":3441:3494   */\n      tag_366\n        /* \"#utility.yul\":3486:3493   */\n      dup7\n        /* \"#utility.yul\":3477:3483   */\n      dup3\n        /* \"#utility.yul\":3466:3475   */\n      dup8\n        /* \"#utility.yul\":3462:3484   */\n      add\n        /* \"#utility.yul\":3441:3494   */\n      tag_310\n      jump\t// in\n    tag_366:\n        /* \"#utility.yul\":3431:3494   */\n      swap4\n      pop\n        /* \"#utility.yul\":3387:3504   */\n      pop\n        /* \"#utility.yul\":3543:3545   */\n      0x20\n        /* \"#utility.yul\":3569:3622   */\n      tag_367\n        /* \"#utility.yul\":3614:3621   */\n      dup7\n        /* \"#utility.yul\":3605:3611   */\n      dup3\n        /* \"#utility.yul\":3594:3603   */\n      dup8\n        /* \"#utility.yul\":3590:3612   */\n      add\n        /* \"#utility.yul\":3569:3622   */\n      tag_337\n      jump\t// in\n    tag_367:\n        /* \"#utility.yul\":3559:3622   */\n      swap3\n      pop\n        /* \"#utility.yul\":3514:3632   */\n      pop\n        /* \"#utility.yul\":3671:3673   */\n      0x40\n        /* \"#utility.yul\":3697:3750   */\n      tag_368\n        /* \"#utility.yul\":3742:3749   */\n      dup7\n        /* \"#utility.yul\":3733:3739   */\n      dup3\n        /* \"#utility.yul\":3722:3731   */\n      dup8\n        /* \"#utility.yul\":3718:3740   */\n      add\n        /* \"#utility.yul\":3697:3750   */\n      tag_310\n      jump\t// in\n    tag_368:\n        /* \"#utility.yul\":3687:3750   */\n      swap2\n      pop\n        /* \"#utility.yul\":3642:3760   */\n      pop\n        /* \"#utility.yul\":3315:3767   */\n      swap3\n      pop\n      swap3\n      pop\n      swap3\n      jump\t// out\n        /* \"#utility.yul\":3773:4632   */\n    tag_32:\n      0x00\n      dup1\n      0x00\n      dup1\n      0x00\n        /* \"#utility.yul\":3966:3969   */\n      0x80\n        /* \"#utility.yul\":3954:3963   */\n      dup7\n        /* \"#utility.yul\":3945:3952   */\n      dup9\n        /* \"#utility.yul\":3941:3964   */\n      sub\n        /* \"#utility.yul\":3937:3970   */\n      slt\n        /* \"#utility.yul\":3934:3936   */\n      iszero\n      tag_370\n      jumpi\n        /* \"#utility.yul\":3983:3984   */\n      0x00\n        /* \"#utility.yul\":3980:3981   */\n      dup1\n        /* \"#utility.yul\":3973:3985   */\n      revert\n        /* \"#utility.yul\":3934:3936   */\n    tag_370:\n        /* \"#utility.yul\":4026:4027   */\n      0x00\n        /* \"#utility.yul\":4051:4104   */\n      tag_371\n        /* \"#utility.yul\":4096:4103   */\n      dup9\n        /* \"#utility.yul\":4087:4093   */\n      dup3\n        /* \"#utility.yul\":4076:4085   */\n      dup10\n        /* \"#utility.yul\":4072:4094   */\n      add\n        /* \"#utility.yul\":4051:4104   */\n      tag_310\n      jump\t// in\n    tag_371:\n        /* \"#utility.yul\":4041:4104   */\n      swap6\n      pop\n        /* \"#utility.yul\":3997:4114   */\n      pop\n        /* \"#utility.yul\":4153:4155   */\n      0x20\n        /* \"#utility.yul\":4179:4232   */\n      tag_372\n        /* \"#utility.yul\":4224:4231   */\n      dup9\n        /* \"#utility.yul\":4215:4221   */\n      dup3\n        /* \"#utility.yul\":4204:4213   */\n      dup10\n        /* \"#utility.yul\":4200:4222   */\n      add\n        /* \"#utility.yul\":4179:4232   */\n      tag_337\n      jump\t// in\n    tag_372:\n        /* \"#utility.yul\":4169:4232   */\n      swap5\n      pop\n        /* \"#utility.yul\":4124:4242   */\n      pop\n        /* \"#utility.yul\":4309:4311   */\n      0x40\n        /* \"#utility.yul\":4298:4307   */\n      dup7\n        /* \"#utility.yul\":4294:4312   */\n      add\n        /* \"#utility.yul\":4281:4313   */\n      calldataload\n        /* \"#utility.yul\":4340:4358   */\n      0xffffffffffffffff\n        /* \"#utility.yul\":4332:4338   */\n      dup2\n        /* \"#utility.yul\":4329:4359   */\n      gt\n        /* \"#utility.yul\":4326:4328   */\n      iszero\n      tag_373\n      jumpi\n        /* \"#utility.yul\":4372:4373   */\n      0x00\n        /* \"#utility.yul\":4369:4370   */\n      dup1\n        /* \"#utility.yul\":4362:4374   */\n      revert\n        /* \"#utility.yul\":4326:4328   */\n    tag_373:\n        /* \"#utility.yul\":4408:4488   */\n      tag_374\n        /* \"#utility.yul\":4480:4487   */\n      dup9\n        /* \"#utility.yul\":4471:4477   */\n      dup3\n        /* \"#utility.yul\":4460:4469   */\n      dup10\n        /* \"#utility.yul\":4456:4478   */\n      add\n        /* \"#utility.yul\":4408:4488   */\n      tag_314\n      jump\t// in\n    tag_374:\n        /* \"#utility.yul\":4390:4488   */\n      swap4\n      pop\n      swap4\n      pop\n        /* \"#utility.yul\":4252:4498   */\n      pop\n        /* \"#utility.yul\":4537:4539   */\n      0x60\n        /* \"#utility.yul\":4563:4615   */\n      tag_375\n        /* \"#utility.yul\":4607:4614   */\n      dup9\n        /* \"#utility.yul\":4598:4604   */\n      dup3\n        /* \"#utility.yul\":4587:4596   */\n      dup10\n        /* \"#utility.yul\":4583:4605   */\n      add\n        /* \"#utility.yul\":4563:4615   */\n      tag_344\n      jump\t// in\n    tag_375:\n        /* \"#utility.yul\":4553:4615   */\n      swap2\n      pop\n        /* \"#utility.yul\":4508:4625   */\n      pop\n        /* \"#utility.yul\":3924:4632   */\n      swap3\n      swap6\n      pop\n      swap3\n      swap6\n      swap1\n      swap4\n      pop\n      jump\t// out\n        /* \"#utility.yul\":4638:5353   */\n    tag_52:\n      0x00\n      dup1\n      0x00\n        /* \"#utility.yul\":4815:4817   */\n      0x60\n        /* \"#utility.yul\":4803:4812   */\n      dup5\n        /* \"#utility.yul\":4794:4801   */\n      dup7\n        /* \"#utility.yul\":4790:4813   */\n      sub\n        /* \"#utility.yul\":4786:4818   */\n      slt\n        /* \"#utility.yul\":4783:4785   */\n      iszero\n      tag_377\n      jumpi\n        /* \"#utility.yul\":4831:4832   */\n      0x00\n        /* \"#utility.yul\":4828:4829   */\n      dup1\n        /* \"#utility.yul\":4821:4833   */\n      revert\n        /* \"#utility.yul\":4783:4785   */\n    tag_377:\n        /* \"#utility.yul\":4874:4875   */\n      0x00\n        /* \"#utility.yul\":4899:4952   */\n      tag_378\n        /* \"#utility.yul\":4944:4951   */\n      dup7\n        /* \"#utility.yul\":4935:4941   */\n      dup3\n        /* \"#utility.yul\":4924:4933   */\n      dup8\n        /* \"#utility.yul\":4920:4942   */\n      add\n        /* \"#utility.yul\":4899:4952   */\n      tag_310\n      jump\t// in\n    tag_378:\n        /* \"#utility.yul\":4889:4952   */\n      swap4\n      pop\n        /* \"#utility.yul\":4845:4962   */\n      pop\n        /* \"#utility.yul\":5001:5003   */\n      0x20\n        /* \"#utility.yul\":5027:5080   */\n      tag_379\n        /* \"#utility.yul\":5072:5079   */\n      dup7\n        /* \"#utility.yul\":5063:5069   */\n      dup3\n        /* \"#utility.yul\":5052:5061   */\n      dup8\n        /* \"#utility.yul\":5048:5070   */\n      add\n        /* \"#utility.yul\":5027:5080   */\n      tag_337\n      jump\t// in\n    tag_379:\n        /* \"#utility.yul\":5017:5080   */\n      swap3\n      pop\n        /* \"#utility.yul\":4972:5090   */\n      pop\n        /* \"#utility.yul\":5157:5159   */\n      0x40\n        /* \"#utility.yul\":5146:5155   */\n      dup5\n        /* \"#utility.yul\":5142:5160   */\n      add\n        /* \"#utility.yul\":5129:5161   */\n      calldataload\n        /* \"#utility.yul\":5188:5206   */\n      0xffffffffffffffff\n        /* \"#utility.yul\":5180:5186   */\n      dup2\n        /* \"#utility.yul\":5177:5207   */\n      gt\n        /* \"#utility.yul\":5174:5176   */\n      iszero\n      tag_380\n      jumpi\n        /* \"#utility.yul\":5220:5221   */\n      0x00\n        /* \"#utility.yul\":5217:5218   */\n      dup1\n        /* \"#utility.yul\":5210:5222   */\n      revert\n        /* \"#utility.yul\":5174:5176   */\n    tag_380:\n        /* \"#utility.yul\":5248:5336   */\n      tag_381\n        /* \"#utility.yul\":5328:5335   */\n      dup7\n        /* \"#utility.yul\":5319:5325   */\n      dup3\n        /* \"#utility.yul\":5308:5317   */\n      dup8\n        /* \"#utility.yul\":5304:5326   */\n      add\n        /* \"#utility.yul\":5248:5336   */\n      tag_334\n      jump\t// in\n    tag_381:\n        /* \"#utility.yul\":5238:5336   */\n      swap2\n      pop\n        /* \"#utility.yul\":5100:5346   */\n      pop\n        /* \"#utility.yul\":4773:5353   */\n      swap3\n      pop\n      swap3\n      pop\n      swap3\n      jump\t// out\n        /* \"#utility.yul\":5359:5911   */\n    tag_41:\n      0x00\n      dup1\n      0x00\n        /* \"#utility.yul\":5501:5503   */\n      0x60\n        /* \"#utility.yul\":5489:5498   */\n      dup5\n        /* \"#utility.yul\":5480:5487   */\n      dup7\n        /* \"#utility.yul\":5476:5499   */\n      sub\n        /* \"#utility.yul\":5472:5504   */\n      slt\n        /* \"#utility.yul\":5469:5471   */\n      iszero\n      tag_383\n      jumpi\n        /* \"#utility.yul\":5517:5518   */\n      0x00\n        /* \"#utility.yul\":5514:5515   */\n      dup1\n        /* \"#utility.yul\":5507:5519   */\n      revert\n        /* \"#utility.yul\":5469:5471   */\n    tag_383:\n        /* \"#utility.yul\":5560:5561   */\n      0x00\n        /* \"#utility.yul\":5585:5638   */\n      tag_384\n        /* \"#utility.yul\":5630:5637   */\n      dup7\n        /* \"#utility.yul\":5621:5627   */\n      dup3\n        /* \"#utility.yul\":5610:5619   */\n      dup8\n        /* \"#utility.yul\":5606:5628   */\n      add\n        /* \"#utility.yul\":5585:5638   */\n      tag_310\n      jump\t// in\n    tag_384:\n        /* \"#utility.yul\":5575:5638   */\n      swap4\n      pop\n        /* \"#utility.yul\":5531:5648   */\n      pop\n        /* \"#utility.yul\":5687:5689   */\n      0x20\n        /* \"#utility.yul\":5713:5766   */\n      tag_385\n        /* \"#utility.yul\":5758:5765   */\n      dup7\n        /* \"#utility.yul\":5749:5755   */\n      dup3\n        /* \"#utility.yul\":5738:5747   */\n      dup8\n        /* \"#utility.yul\":5734:5756   */\n      add\n        /* \"#utility.yul\":5713:5766   */\n      tag_337\n      jump\t// in\n    tag_385:\n        /* \"#utility.yul\":5703:5766   */\n      swap3\n      pop\n        /* \"#utility.yul\":5658:5776   */\n      pop\n        /* \"#utility.yul\":5815:5817   */\n      0x40\n        /* \"#utility.yul\":5841:5894   */\n      tag_386\n        /* \"#utility.yul\":5886:5893   */\n      dup7\n        /* \"#utility.yul\":5877:5883   */\n      dup3\n        /* \"#utility.yul\":5866:5875   */\n      dup8\n        /* \"#utility.yul\":5862:5884   */\n      add\n        /* \"#utility.yul\":5841:5894   */\n      tag_337\n      jump\t// in\n    tag_386:\n        /* \"#utility.yul\":5831:5894   */\n      swap2\n      pop\n        /* \"#utility.yul\":5786:5904   */\n      pop\n        /* \"#utility.yul\":5459:5911   */\n      swap3\n      pop\n      swap3\n      pop\n      swap3\n      jump\t// out\n        /* \"#utility.yul\":5917:6173   */\n    tag_184:\n      0x00\n        /* \"#utility.yul\":6022:6024   */\n      0x20\n        /* \"#utility.yul\":6010:6019   */\n      dup3\n        /* \"#utility.yul\":6001:6008   */\n      dup5\n        /* \"#utility.yul\":5997:6020   */\n      sub\n        /* \"#utility.yul\":5993:6025   */\n      slt\n        /* \"#utility.yul\":5990:5992   */\n      iszero\n      tag_388\n      jumpi\n        /* \"#utility.yul\":6038:6039   */\n      0x00\n        /* \"#utility.yul\":6035:6036   */\n      dup1\n        /* \"#utility.yul\":6028:6040   */\n      revert\n        /* \"#utility.yul\":5990:5992   */\n    tag_388:\n        /* \"#utility.yul\":6081:6082   */\n      0x00\n        /* \"#utility.yul\":6106:6156   */\n      tag_389\n        /* \"#utility.yul\":6148:6155   */\n      dup5\n        /* \"#utility.yul\":6139:6145   */\n      dup3\n        /* \"#utility.yul\":6128:6137   */\n      dup6\n        /* \"#utility.yul\":6124:6146   */\n      add\n        /* \"#utility.yul\":6106:6156   */\n      tag_319\n      jump\t// in\n    tag_389:\n        /* \"#utility.yul\":6096:6156   */\n      swap2\n      pop\n        /* \"#utility.yul\":6052:6166   */\n      pop\n        /* \"#utility.yul\":5980:6173   */\n      swap3\n      swap2\n      pop\n      pop\n      jump\t// out\n        /* \"#utility.yul\":6179:6457   */\n    tag_154:\n      0x00\n        /* \"#utility.yul\":6295:6297   */\n      0x20\n        /* \"#utility.yul\":6283:6292   */\n      dup3\n        /* \"#utility.yul\":6274:6281   */\n      dup5\n        /* \"#utility.yul\":6270:6293   */\n      sub\n        /* \"#utility.yul\":6266:6298   */\n      slt\n        /* \"#utility.yul\":6263:6265   */\n      iszero\n      tag_391\n      jumpi\n        /* \"#utility.yul\":6311:6312   */\n      0x00\n        /* \"#utility.yul\":6308:6309   */\n      dup1\n        /* \"#utility.yul\":6301:6313   */\n      revert\n        /* \"#utility.yul\":6263:6265   */\n    tag_391:\n        /* \"#utility.yul\":6354:6355   */\n      0x00\n        /* \"#utility.yul\":6379:6440   */\n      tag_392\n        /* \"#utility.yul\":6432:6439   */\n      dup5\n        /* \"#utility.yul\":6423:6429   */\n      dup3\n        /* \"#utility.yul\":6412:6421   */\n      dup6\n        /* \"#utility.yul\":6408:6430   */\n      add\n        /* \"#utility.yul\":6379:6440   */\n      tag_323\n      jump\t// in\n    tag_392:\n        /* \"#utility.yul\":6369:6440   */\n      swap2\n      pop\n        /* \"#utility.yul\":6325:6450   */\n      pop\n        /* \"#utility.yul\":6253:6457   */\n      swap3\n      swap2\n      pop\n      pop\n      jump\t// out\n        /* \"#utility.yul\":6463:6723   */\n    tag_20:\n      0x00\n        /* \"#utility.yul\":6570:6572   */\n      0x20\n        /* \"#utility.yul\":6558:6567   */\n      dup3\n        /* \"#utility.yul\":6549:6556   */\n      dup5\n        /* \"#utility.yul\":6545:6568   */\n      sub\n        /* \"#utility.yul\":6541:6573   */\n      slt\n        /* \"#utility.yul\":6538:6540   */\n      iszero\n      tag_394\n      jumpi\n        /* \"#utility.yul\":6586:6587   */\n      0x00\n        /* \"#utility.yul\":6583:6584   */\n      dup1\n        /* \"#utility.yul\":6576:6588   */\n      revert\n        /* \"#utility.yul\":6538:6540   */\n    tag_394:\n        /* \"#utility.yul\":6629:6630   */\n      0x00\n        /* \"#utility.yul\":6654:6706   */\n      tag_395\n        /* \"#utility.yul\":6698:6705   */\n      dup5\n        /* \"#utility.yul\":6689:6695   */\n      dup3\n        /* \"#utility.yul\":6678:6687   */\n      dup6\n        /* \"#utility.yul\":6674:6696   */\n      add\n        /* \"#utility.yul\":6654:6706   */\n      tag_326\n      jump\t// in\n    tag_395:\n        /* \"#utility.yul\":6644:6706   */\n      swap2\n      pop\n        /* \"#utility.yul\":6600:6716   */\n      pop\n        /* \"#utility.yul\":6528:6723   */\n      swap3\n      swap2\n      pop\n      pop\n      jump\t// out\n        /* \"#utility.yul\":6729:7031   */\n    tag_181:\n      0x00\n        /* \"#utility.yul\":6857:6859   */\n      0x20\n        /* \"#utility.yul\":6845:6854   */\n      dup3\n        /* \"#utility.yul\":6836:6843   */\n      dup5\n        /* \"#utility.yul\":6832:6855   */\n      sub\n        /* \"#utility.yul\":6828:6860   */\n      slt\n        /* \"#utility.yul\":6825:6827   */\n      iszero\n      tag_397\n      jumpi\n        /* \"#utility.yul\":6873:6874   */\n      0x00\n        /* \"#utility.yul\":6870:6871   */\n      dup1\n        /* \"#utility.yul\":6863:6875   */\n      revert\n        /* \"#utility.yul\":6825:6827   */\n    tag_397:\n        /* \"#utility.yul\":6916:6917   */\n      0x00\n        /* \"#utility.yul\":6941:7014   */\n      tag_398\n        /* \"#utility.yul\":7006:7013   */\n      dup5\n        /* \"#utility.yul\":6997:7003   */\n      dup3\n        /* \"#utility.yul\":6986:6995   */\n      dup6\n        /* \"#utility.yul\":6982:7004   */\n      add\n        /* \"#utility.yul\":6941:7014   */\n      tag_330\n      jump\t// in\n    tag_398:\n        /* \"#utility.yul\":6931:7014   */\n      swap2\n      pop\n        /* \"#utility.yul\":6887:7024   */\n      pop\n        /* \"#utility.yul\":6815:7031   */\n      swap3\n      swap2\n      pop\n      pop\n      jump\t// out\n        /* \"#utility.yul\":7037:7321   */\n    tag_127:\n      0x00\n        /* \"#utility.yul\":7156:7158   */\n      0x20\n        /* \"#utility.yul\":7144:7153   */\n      dup3\n        /* \"#utility.yul\":7135:7142   */\n      dup5\n        /* \"#utility.yul\":7131:7154   */\n      sub\n        /* \"#utility.yul\":7127:7159   */\n      slt\n        /* \"#utility.yul\":7124:7126   */\n      iszero\n      tag_400\n      jumpi\n        /* \"#utility.yul\":7172:7173   */\n      0x00\n        /* \"#utility.yul\":7169:7170   */\n      dup1\n        /* \"#utility.yul\":7162:7174   */\n      revert\n        /* \"#utility.yul\":7124:7126   */\n    tag_400:\n        /* \"#utility.yul\":7215:7216   */\n      0x00\n        /* \"#utility.yul\":7240:7304   */\n      tag_401\n        /* \"#utility.yul\":7296:7303   */\n      dup5\n        /* \"#utility.yul\":7287:7293   */\n      dup3\n        /* \"#utility.yul\":7276:7285   */\n      dup6\n        /* \"#utility.yul\":7272:7294   */\n      add\n        /* \"#utility.yul\":7240:7304   */\n      tag_341\n      jump\t// in\n    tag_401:\n        /* \"#utility.yul\":7230:7304   */\n      swap2\n      pop\n        /* \"#utility.yul\":7186:7314   */\n      pop\n        /* \"#utility.yul\":7114:7321   */\n      swap3\n      swap2\n      pop\n      pop\n      jump\t// out\n        /* \"#utility.yul\":7327:7587   */\n    tag_160:\n      0x00\n        /* \"#utility.yul\":7434:7436   */\n      0x20\n        /* \"#utility.yul\":7422:7431   */\n      dup3\n        /* \"#utility.yul\":7413:7420   */\n      dup5\n        /* \"#utility.yul\":7409:7432   */\n      sub\n        /* \"#utility.yul\":7405:7437   */\n      slt\n        /* \"#utility.yul\":7402:7404   */\n      iszero\n      tag_403\n      jumpi\n        /* \"#utility.yul\":7450:7451   */\n      0x00\n        /* \"#utility.yul\":7447:7448   */\n      dup1\n        /* \"#utility.yul\":7440:7452   */\n      revert\n        /* \"#utility.yul\":7402:7404   */\n    tag_403:\n        /* \"#utility.yul\":7493:7494   */\n      0x00\n        /* \"#utility.yul\":7518:7570   */\n      tag_404\n        /* \"#utility.yul\":7562:7569   */\n      dup5\n        /* \"#utility.yul\":7553:7559   */\n      dup3\n        /* \"#utility.yul\":7542:7551   */\n      dup6\n        /* \"#utility.yul\":7538:7560   */\n      add\n        /* \"#utility.yul\":7518:7570   */\n      tag_344\n      jump\t// in\n    tag_404:\n        /* \"#utility.yul\":7508:7570   */\n      swap2\n      pop\n        /* \"#utility.yul\":7464:7580   */\n      pop\n        /* \"#utility.yul\":7392:7587   */\n      swap3\n      swap2\n      pop\n      pop\n      jump\t// out\n        /* \"#utility.yul\":7593:7853   */\n    tag_169:\n      0x00\n        /* \"#utility.yul\":7700:7702   */\n      0x20\n        /* \"#utility.yul\":7688:7697   */\n      dup3\n        /* \"#utility.yul\":7679:7686   */\n      dup5\n        /* \"#utility.yul\":7675:7698   */\n      sub\n        /* \"#utility.yul\":7671:7703   */\n      slt\n        /* \"#utility.yul\":7668:7670   */\n      iszero\n      tag_406\n      jumpi\n        /* \"#utility.yul\":7716:7717   */\n      0x00\n        /* \"#utility.yul\":7713:7714   */\n      dup1\n        /* \"#utility.yul\":7706:7718   */\n      revert\n        /* \"#utility.yul\":7668:7670   */\n    tag_406:\n        /* \"#utility.yul\":7759:7760   */\n      0x00\n        /* \"#utility.yul\":7784:7836   */\n      tag_407\n        /* \"#utility.yul\":7828:7835   */\n      dup5\n        /* \"#utility.yul\":7819:7825   */\n      dup3\n        /* \"#utility.yul\":7808:7817   */\n      dup6\n        /* \"#utility.yul\":7804:7826   */\n      add\n        /* \"#utility.yul\":7784:7836   */\n      tag_348\n      jump\t// in\n    tag_407:\n        /* \"#utility.yul\":7774:7836   */\n      swap2\n      pop\n        /* \"#utility.yul\":7730:7846   */\n      pop\n        /* \"#utility.yul\":7658:7853   */\n      swap3\n      swap2\n      pop\n      pop\n      jump\t// out\n        /* \"#utility.yul\":7859:7977   */\n    tag_408:\n        /* \"#utility.yul\":7946:7970   */\n      tag_410\n        /* \"#utility.yul\":7964:7969   */\n      dup2\n        /* \"#utility.yul\":7946:7970   */\n      tag_411\n      jump\t// in\n    tag_410:\n        /* \"#utility.yul\":7941:7944   */\n      dup3\n        /* \"#utility.yul\":7934:7971   */\n      mstore\n        /* \"#utility.yul\":7924:7977   */\n      pop\n      pop\n      jump\t// out\n        /* \"#utility.yul\":7983:8140   */\n    tag_412:\n        /* \"#utility.yul\":8088:8133   */\n      tag_414\n        /* \"#utility.yul\":8108:8132   */\n      tag_415\n        /* \"#utility.yul\":8126:8131   */\n      dup3\n        /* \"#utility.yul\":8108:8132   */\n      tag_411\n      jump\t// in\n    tag_415:\n        /* \"#utility.yul\":8088:8133   */\n      tag_416\n      jump\t// in\n    tag_414:\n        /* \"#utility.yul\":8083:8086   */\n      dup3\n        /* \"#utility.yul\":8076:8134   */\n      mstore\n        /* \"#utility.yul\":8066:8140   */\n      pop\n      pop\n      jump\t// out\n        /* \"#utility.yul\":8146:8245   */\n    tag_417:\n        /* \"#utility.yul\":8217:8238   */\n      tag_419\n        /* \"#utility.yul\":8232:8237   */\n      dup2\n        /* \"#utility.yul\":8217:8238   */\n      tag_420\n      jump\t// in\n    tag_419:\n        /* \"#utility.yul\":8212:8215   */\n      dup3\n        /* \"#utility.yul\":8205:8239   */\n      mstore\n        /* \"#utility.yul\":8195:8245   */\n      pop\n      pop\n      jump\t// out\n        /* \"#utility.yul\":8251:8360   */\n    tag_421:\n        /* \"#utility.yul\":8332:8353   */\n      tag_423\n        /* \"#utility.yul\":8347:8352   */\n      dup2\n        /* \"#utility.yul\":8332:8353   */\n      tag_420\n      jump\t// in\n    tag_423:\n        /* \"#utility.yul\":8327:8330   */\n      dup3\n        /* \"#utility.yul\":8320:8354   */\n      mstore\n        /* \"#utility.yul\":8310:8360   */\n      pop\n      pop\n      jump\t// out\n        /* \"#utility.yul\":8366:8474   */\n    tag_424:\n        /* \"#utility.yul\":8443:8467   */\n      tag_426\n        /* \"#utility.yul\":8461:8466   */\n      dup2\n        /* \"#utility.yul\":8443:8467   */\n      tag_427\n      jump\t// in\n    tag_426:\n        /* \"#utility.yul\":8438:8441   */\n      dup3\n        /* \"#utility.yul\":8431:8468   */\n      mstore\n        /* \"#utility.yul\":8421:8474   */\n      pop\n      pop\n      jump\t// out\n        /* \"#utility.yul\":8480:8598   */\n    tag_428:\n        /* \"#utility.yul\":8567:8591   */\n      tag_430\n        /* \"#utility.yul\":8585:8590   */\n      dup2\n        /* \"#utility.yul\":8567:8591   */\n      tag_427\n      jump\t// in\n    tag_430:\n        /* \"#utility.yul\":8562:8565   */\n      dup3\n        /* \"#utility.yul\":8555:8592   */\n      mstore\n        /* \"#utility.yul\":8545:8598   */\n      pop\n      pop\n      jump\t// out\n        /* \"#utility.yul\":8604:8761   */\n    tag_431:\n        /* \"#utility.yul\":8709:8754   */\n      tag_433\n        /* \"#utility.yul\":8729:8753   */\n      tag_434\n        /* \"#utility.yul\":8747:8752   */\n      dup3\n        /* \"#utility.yul\":8729:8753   */\n      tag_427\n      jump\t// in\n    tag_434:\n        /* \"#utility.yul\":8709:8754   */\n      tag_435\n      jump\t// in\n    tag_433:\n        /* \"#utility.yul\":8704:8707   */\n      dup3\n        /* \"#utility.yul\":8697:8755   */\n      mstore\n        /* \"#utility.yul\":8687:8761   */\n      pop\n      pop\n      jump\t// out\n        /* \"#utility.yul\":8767:8924   */\n    tag_436:\n        /* \"#utility.yul\":8862:8917   */\n      tag_438\n        /* \"#utility.yul\":8911:8916   */\n      dup2\n        /* \"#utility.yul\":8862:8917   */\n      tag_439\n      jump\t// in\n    tag_438:\n        /* \"#utility.yul\":8857:8860   */\n      dup3\n        /* \"#utility.yul\":8850:8918   */\n      mstore\n        /* \"#utility.yul\":8840:8924   */\n      pop\n      pop\n      jump\t// out\n        /* \"#utility.yul\":8930:9097   */\n    tag_440:\n        /* \"#utility.yul\":9035:9090   */\n      tag_442\n        /* \"#utility.yul\":9084:9089   */\n      dup2\n        /* \"#utility.yul\":9035:9090   */\n      tag_439\n      jump\t// in\n    tag_442:\n        /* \"#utility.yul\":9030:9033   */\n      dup3\n        /* \"#utility.yul\":9023:9091   */\n      mstore\n        /* \"#utility.yul\":9013:9097   */\n      pop\n      pop\n      jump\t// out\n        /* \"#utility.yul\":9103:9447   */\n    tag_443:\n      0x00\n        /* \"#utility.yul\":9209:9248   */\n      tag_445\n        /* \"#utility.yul\":9242:9247   */\n      dup3\n        /* \"#utility.yul\":9209:9248   */\n      tag_446\n      jump\t// in\n    tag_445:\n        /* \"#utility.yul\":9264:9325   */\n      tag_447\n        /* \"#utility.yul\":9318:9324   */\n      dup2\n        /* \"#utility.yul\":9313:9316   */\n      dup6\n        /* \"#utility.yul\":9264:9325   */\n      tag_448\n      jump\t// in\n    tag_447:\n        /* \"#utility.yul\":9257:9325   */\n      swap4\n      pop\n        /* \"#utility.yul\":9334:9386   */\n      tag_449\n        /* \"#utility.yul\":9379:9385   */\n      dup2\n        /* \"#utility.yul\":9374:9377   */\n      dup6\n        /* \"#utility.yul\":9367:9371   */\n      0x20\n        /* \"#utility.yul\":9360:9365   */\n      dup7\n        /* \"#utility.yul\":9356:9372   */\n      add\n        /* \"#utility.yul\":9334:9386   */\n      tag_450\n      jump\t// in\n    tag_449:\n        /* \"#utility.yul\":9411:9440   */\n      tag_451\n        /* \"#utility.yul\":9433:9439   */\n      dup2\n        /* \"#utility.yul\":9411:9440   */\n      tag_452\n      jump\t// in\n    tag_451:\n        /* \"#utility.yul\":9406:9409   */\n      dup5\n        /* \"#utility.yul\":9402:9441   */\n      add\n        /* \"#utility.yul\":9395:9441   */\n      swap2\n      pop\n        /* \"#utility.yul\":9185:9447   */\n      pop\n      swap3\n      swap2\n      pop\n      pop\n      jump\t// out\n        /* \"#utility.yul\":9453:9817   */\n    tag_453:\n      0x00\n        /* \"#utility.yul\":9569:9608   */\n      tag_455\n        /* \"#utility.yul\":9602:9607   */\n      dup3\n        /* \"#utility.yul\":9569:9608   */\n      tag_446\n      jump\t// in\n    tag_455:\n        /* \"#utility.yul\":9624:9695   */\n      tag_456\n        /* \"#utility.yul\":9688:9694   */\n      dup2\n        /* \"#utility.yul\":9683:9686   */\n      dup6\n        /* \"#utility.yul\":9624:9695   */\n      tag_457\n      jump\t// in\n    tag_456:\n        /* \"#utility.yul\":9617:9695   */\n      swap4\n      pop\n        /* \"#utility.yul\":9704:9756   */\n      tag_458\n        /* \"#utility.yul\":9749:9755   */\n      dup2\n        /* \"#utility.yul\":9744:9747   */\n      dup6\n        /* \"#utility.yul\":9737:9741   */\n      0x20\n        /* \"#utility.yul\":9730:9735   */\n      dup7\n        /* \"#utility.yul\":9726:9742   */\n      add\n        /* \"#utility.yul\":9704:9756   */\n      tag_450\n      jump\t// in\n    tag_458:\n        /* \"#utility.yul\":9781:9810   */\n      tag_459\n        /* \"#utility.yul\":9803:9809   */\n      dup2\n        /* \"#utility.yul\":9781:9810   */\n      tag_452\n      jump\t// in\n    tag_459:\n        /* \"#utility.yul\":9776:9779   */\n      dup5\n        /* \"#utility.yul\":9772:9811   */\n      add\n        /* \"#utility.yul\":9765:9811   */\n      swap2\n      pop\n        /* \"#utility.yul\":9545:9817   */\n      pop\n      swap3\n      swap2\n      pop\n      pop\n      jump\t// out\n        /* \"#utility.yul\":9823:10200   */\n    tag_460:\n      0x00\n        /* \"#utility.yul\":9957:9996   */\n      tag_462\n        /* \"#utility.yul\":9990:9995   */\n      dup3\n        /* \"#utility.yul\":9957:9996   */\n      tag_446\n      jump\t// in\n    tag_462:\n        /* \"#utility.yul\":10012:10101   */\n      tag_463\n        /* \"#utility.yul\":10094:10100   */\n      dup2\n        /* \"#utility.yul\":10089:10092   */\n      dup6\n        /* \"#utility.yul\":10012:10101   */\n      tag_464\n      jump\t// in\n    tag_463:\n        /* \"#utility.yul\":10005:10101   */\n      swap4\n      pop\n        /* \"#utility.yul\":10110:10162   */\n      tag_465\n        /* \"#utility.yul\":10155:10161   */\n      dup2\n        /* \"#utility.yul\":10150:10153   */\n      dup6\n        /* \"#utility.yul\":10143:10147   */\n      0x20\n        /* \"#utility.yul\":10136:10141   */\n      dup7\n        /* \"#utility.yul\":10132:10148   */\n      add\n        /* \"#utility.yul\":10110:10162   */\n      tag_450\n      jump\t// in\n    tag_465:\n        /* \"#utility.yul\":10187:10193   */\n      dup1\n        /* \"#utility.yul\":10182:10185   */\n      dup5\n        /* \"#utility.yul\":10178:10194   */\n      add\n        /* \"#utility.yul\":10171:10194   */\n      swap2\n      pop\n        /* \"#utility.yul\":9933:10200   */\n      pop\n      swap3\n      swap2\n      pop\n      pop\n      jump\t// out\n        /* \"#utility.yul\":10230:11075   */\n    tag_466:\n      0x00\n        /* \"#utility.yul\":10370:10375   */\n      dup2\n        /* \"#utility.yul\":10364:10376   */\n      sload\n        /* \"#utility.yul\":10399:10435   */\n      tag_468\n        /* \"#utility.yul\":10425:10434   */\n      dup2\n        /* \"#utility.yul\":10399:10435   */\n      tag_138\n      jump\t// in\n    tag_468:\n        /* \"#utility.yul\":10451:10540   */\n      tag_469\n        /* \"#utility.yul\":10533:10539   */\n      dup2\n        /* \"#utility.yul\":10528:10531   */\n      dup7\n        /* \"#utility.yul\":10451:10540   */\n      tag_464\n      jump\t// in\n    tag_469:\n        /* \"#utility.yul\":10444:10540   */\n      swap5\n      pop\n        /* \"#utility.yul\":10571:10572   */\n      0x01\n        /* \"#utility.yul\":10560:10569   */\n      dup3\n        /* \"#utility.yul\":10556:10573   */\n      and\n        /* \"#utility.yul\":10587:10588   */\n      0x00\n        /* \"#utility.yul\":10582:10719   */\n      dup2\n      eq\n      tag_471\n      jumpi\n        /* \"#utility.yul\":10733:10734   */\n      0x01\n        /* \"#utility.yul\":10728:11069   */\n      dup2\n      eq\n      tag_472\n      jumpi\n        /* \"#utility.yul\":10549:11069   */\n      jump(tag_470)\n        /* \"#utility.yul\":10582:10719   */\n    tag_471:\n        /* \"#utility.yul\":10666:10670   */\n      0xff\n        /* \"#utility.yul\":10662:10671   */\n      not\n        /* \"#utility.yul\":10651:10660   */\n      dup4\n        /* \"#utility.yul\":10647:10672   */\n      and\n        /* \"#utility.yul\":10642:10645   */\n      dup7\n        /* \"#utility.yul\":10635:10673   */\n      mstore\n        /* \"#utility.yul\":10702:10708   */\n      dup2\n        /* \"#utility.yul\":10697:10700   */\n      dup7\n        /* \"#utility.yul\":10693:10709   */\n      add\n        /* \"#utility.yul\":10686:10709   */\n      swap4\n      pop\n        /* \"#utility.yul\":10582:10719   */\n      jump(tag_470)\n        /* \"#utility.yul\":10728:11069   */\n    tag_472:\n        /* \"#utility.yul\":10795:10833   */\n      tag_473\n        /* \"#utility.yul\":10827:10832   */\n      dup6\n        /* \"#utility.yul\":10795:10833   */\n      tag_474\n      jump\t// in\n    tag_473:\n        /* \"#utility.yul\":10855:10856   */\n      0x00\n        /* \"#utility.yul\":10869:11023   */\n    tag_475:\n        /* \"#utility.yul\":10883:10889   */\n      dup4\n        /* \"#utility.yul\":10880:10881   */\n      dup2\n        /* \"#utility.yul\":10877:10890   */\n      lt\n        /* \"#utility.yul\":10869:11023   */\n      iszero\n      tag_477\n      jumpi\n        /* \"#utility.yul\":10957:10964   */\n      dup2\n        /* \"#utility.yul\":10951:10965   */\n      sload\n        /* \"#utility.yul\":10947:10948   */\n      dup2\n        /* \"#utility.yul\":10942:10945   */\n      dup10\n        /* \"#utility.yul\":10938:10949   */\n      add\n        /* \"#utility.yul\":10931:10966   */\n      mstore\n        /* \"#utility.yul\":11007:11008   */\n      0x01\n        /* \"#utility.yul\":10998:11005   */\n      dup3\n        /* \"#utility.yul\":10994:11009   */\n      add\n        /* \"#utility.yul\":10983:11009   */\n      swap2\n      pop\n        /* \"#utility.yul\":10905:10909   */\n      0x20\n        /* \"#utility.yul\":10902:10903   */\n      dup2\n        /* \"#utility.yul\":10898:10910   */\n      add\n        /* \"#utility.yul\":10893:10910   */\n      swap1\n      pop\n        /* \"#utility.yul\":10869:11023   */\n      jump(tag_475)\n    tag_477:\n        /* \"#utility.yul\":11052:11058   */\n      dup4\n        /* \"#utility.yul\":11047:11050   */\n      dup9\n        /* \"#utility.yul\":11043:11059   */\n      add\n        /* \"#utility.yul\":11036:11059   */\n      swap6\n      pop\n        /* \"#utility.yul\":10735:11069   */\n      pop\n      pop\n        /* \"#utility.yul\":10549:11069   */\n    tag_470:\n      pop\n        /* \"#utility.yul\":10337:11075   */\n      pop\n      pop\n      swap3\n      swap2\n      pop\n      pop\n      jump\t// out\n        /* \"#utility.yul\":11081:11467   */\n    tag_478:\n      0x00\n        /* \"#utility.yul\":11244:11311   */\n      tag_480\n        /* \"#utility.yul\":11308:11310   */\n      0x36\n        /* \"#utility.yul\":11303:11306   */\n      dup4\n        /* \"#utility.yul\":11244:11311   */\n      tag_457\n      jump\t// in\n    tag_480:\n        /* \"#utility.yul\":11237:11311   */\n      swap2\n      pop\n        /* \"#utility.yul\":11341:11375   */\n      0x43616e6e6f742068617665207374617274446174652067726561746572207468\n        /* \"#utility.yul\":11337:11338   */\n      0x00\n        /* \"#utility.yul\":11332:11335   */\n      dup4\n        /* \"#utility.yul\":11328:11339   */\n      add\n        /* \"#utility.yul\":11321:11376   */\n      mstore\n        /* \"#utility.yul\":11407:11431   */\n      0x616e206f7220657175616c20746f20656e644461746500000000000000000000\n        /* \"#utility.yul\":11402:11404   */\n      0x20\n        /* \"#utility.yul\":11397:11400   */\n      dup4\n        /* \"#utility.yul\":11393:11405   */\n      add\n        /* \"#utility.yul\":11386:11432   */\n      mstore\n        /* \"#utility.yul\":11458:11460   */\n      0x40\n        /* \"#utility.yul\":11453:11456   */\n      dup3\n        /* \"#utility.yul\":11449:11461   */\n      add\n        /* \"#utility.yul\":11442:11461   */\n      swap1\n      pop\n        /* \"#utility.yul\":11227:11467   */\n      swap2\n      swap1\n      pop\n      jump\t// out\n        /* \"#utility.yul\":11473:11793   */\n    tag_481:\n      0x00\n        /* \"#utility.yul\":11636:11703   */\n      tag_483\n        /* \"#utility.yul\":11700:11702   */\n      0x16\n        /* \"#utility.yul\":11695:11698   */\n      dup4\n        /* \"#utility.yul\":11636:11703   */\n      tag_457\n      jump\t// in\n    tag_483:\n        /* \"#utility.yul\":11629:11703   */\n      swap2\n      pop\n        /* \"#utility.yul\":11733:11757   */\n      0x43616e6e6f74206d6f6469667920746f74616c4d617800000000000000000000\n        /* \"#utility.yul\":11729:11730   */\n      0x00\n        /* \"#utility.yul\":11724:11727   */\n      dup4\n        /* \"#utility.yul\":11720:11731   */\n      add\n        /* \"#utility.yul\":11713:11758   */\n      mstore\n        /* \"#utility.yul\":11784:11786   */\n      0x20\n        /* \"#utility.yul\":11779:11782   */\n      dup3\n        /* \"#utility.yul\":11775:11787   */\n      add\n        /* \"#utility.yul\":11768:11787   */\n      swap1\n      pop\n        /* \"#utility.yul\":11619:11793   */\n      swap2\n      swap1\n      pop\n      jump\t// out\n        /* \"#utility.yul\":11799:12170   */\n    tag_484:\n      0x00\n        /* \"#utility.yul\":11962:12029   */\n      tag_486\n        /* \"#utility.yul\":12026:12028   */\n      0x27\n        /* \"#utility.yul\":12021:12024   */\n      dup4\n        /* \"#utility.yul\":11962:12029   */\n      tag_457\n      jump\t// in\n    tag_486:\n        /* \"#utility.yul\":11955:12029   */\n      swap2\n      pop\n        /* \"#utility.yul\":12059:12093   */\n      0x43616e6e6f74206861766520746f74616c4d6178206772656174657220746861\n        /* \"#utility.yul\":12055:12056   */\n      0x00\n        /* \"#utility.yul\":12050:12053   */\n      dup4\n        /* \"#utility.yul\":12046:12057   */\n      add\n        /* \"#utility.yul\":12039:12094   */\n      mstore\n        /* \"#utility.yul\":12125:12134   */\n      0x6e20313030303000000000000000000000000000000000000000000000000000\n        /* \"#utility.yul\":12120:12122   */\n      0x20\n        /* \"#utility.yul\":12115:12118   */\n      dup4\n        /* \"#utility.yul\":12111:12123   */\n      add\n        /* \"#utility.yul\":12104:12135   */\n      mstore\n        /* \"#utility.yul\":12161:12163   */\n      0x40\n        /* \"#utility.yul\":12156:12159   */\n      dup3\n        /* \"#utility.yul\":12152:12164   */\n      add\n        /* \"#utility.yul\":12145:12164   */\n      swap1\n      pop\n        /* \"#utility.yul\":11945:12170   */\n      swap2\n      swap1\n      pop\n      jump\t// out\n        /* \"#utility.yul\":12176:12551   */\n    tag_487:\n      0x00\n        /* \"#utility.yul\":12339:12406   */\n      tag_489\n        /* \"#utility.yul\":12403:12405   */\n      0x2b\n        /* \"#utility.yul\":12398:12401   */\n      dup4\n        /* \"#utility.yul\":12339:12406   */\n      tag_457\n      jump\t// in\n    tag_489:\n        /* \"#utility.yul\":12332:12406   */\n      swap2\n      pop\n        /* \"#utility.yul\":12436:12470   */\n      0x57616c6c6574206973206e6f7420616e2061646d696e6973747261746f722066\n        /* \"#utility.yul\":12432:12433   */\n      0x00\n        /* \"#utility.yul\":12427:12430   */\n      dup4\n        /* \"#utility.yul\":12423:12434   */\n      add\n        /* \"#utility.yul\":12416:12471   */\n      mstore\n        /* \"#utility.yul\":12502:12515   */\n      0x6f7220636f6e7472616374000000000000000000000000000000000000000000\n        /* \"#utility.yul\":12497:12499   */\n      0x20\n        /* \"#utility.yul\":12492:12495   */\n      dup4\n        /* \"#utility.yul\":12488:12500   */\n      add\n        /* \"#utility.yul\":12481:12516   */\n      mstore\n        /* \"#utility.yul\":12542:12544   */\n      0x40\n        /* \"#utility.yul\":12537:12540   */\n      dup3\n        /* \"#utility.yul\":12533:12545   */\n      add\n        /* \"#utility.yul\":12526:12545   */\n      swap1\n      pop\n        /* \"#utility.yul\":12322:12551   */\n      swap2\n      swap1\n      pop\n      jump\t// out\n        /* \"#utility.yul\":12557:12868   */\n    tag_490:\n      0x00\n        /* \"#utility.yul\":12720:12787   */\n      tag_492\n        /* \"#utility.yul\":12784:12786   */\n      0x0d\n        /* \"#utility.yul\":12779:12782   */\n      dup4\n        /* \"#utility.yul\":12720:12787   */\n      tag_457\n      jump\t// in\n    tag_492:\n        /* \"#utility.yul\":12713:12787   */\n      swap2\n      pop\n        /* \"#utility.yul\":12817:12832   */\n      0x496e76616c696420746f6b656e00000000000000000000000000000000000000\n        /* \"#utility.yul\":12813:12814   */\n      0x00\n        /* \"#utility.yul\":12808:12811   */\n      dup4\n        /* \"#utility.yul\":12804:12815   */\n      add\n        /* \"#utility.yul\":12797:12833   */\n      mstore\n        /* \"#utility.yul\":12859:12861   */\n      0x20\n        /* \"#utility.yul\":12854:12857   */\n      dup3\n        /* \"#utility.yul\":12850:12862   */\n      add\n        /* \"#utility.yul\":12843:12862   */\n      swap1\n      pop\n        /* \"#utility.yul\":12703:12868   */\n      swap2\n      swap1\n      pop\n      jump\t// out\n        /* \"#utility.yul\":12874:13201   */\n    tag_493:\n      0x00\n        /* \"#utility.yul\":13037:13104   */\n      tag_495\n        /* \"#utility.yul\":13101:13103   */\n      0x1d\n        /* \"#utility.yul\":13096:13099   */\n      dup4\n        /* \"#utility.yul\":13037:13104   */\n      tag_457\n      jump\t// in\n    tag_495:\n        /* \"#utility.yul\":13030:13104   */\n      swap2\n      pop\n        /* \"#utility.yul\":13134:13165   */\n      0x5472616e73616374696f6e206265666f72652073746172742064617465000000\n        /* \"#utility.yul\":13130:13131   */\n      0x00\n        /* \"#utility.yul\":13125:13128   */\n      dup4\n        /* \"#utility.yul\":13121:13132   */\n      add\n        /* \"#utility.yul\":13114:13166   */\n      mstore\n        /* \"#utility.yul\":13192:13194   */\n      0x20\n        /* \"#utility.yul\":13187:13190   */\n      dup3\n        /* \"#utility.yul\":13183:13195   */\n      add\n        /* \"#utility.yul\":13176:13195   */\n      swap1\n      pop\n        /* \"#utility.yul\":13020:13201   */\n      swap2\n      swap1\n      pop\n      jump\t// out\n        /* \"#utility.yul\":13207:13535   */\n    tag_496:\n      0x00\n        /* \"#utility.yul\":13370:13437   */\n      tag_498\n        /* \"#utility.yul\":13434:13436   */\n      0x1e\n        /* \"#utility.yul\":13429:13432   */\n      dup4\n        /* \"#utility.yul\":13370:13437   */\n      tag_457\n      jump\t// in\n    tag_498:\n        /* \"#utility.yul\":13363:13437   */\n      swap2\n      pop\n        /* \"#utility.yul\":13467:13499   */\n      0x4e6f20636c61696d7320666f722063726561746f7220636f6e74726163740000\n        /* \"#utility.yul\":13463:13464   */\n      0x00\n        /* \"#utility.yul\":13458:13461   */\n      dup4\n        /* \"#utility.yul\":13454:13465   */\n      add\n        /* \"#utility.yul\":13447:13500   */\n      mstore\n        /* \"#utility.yul\":13526:13528   */\n      0x20\n        /* \"#utility.yul\":13521:13524   */\n      dup3\n        /* \"#utility.yul\":13517:13529   */\n      add\n        /* \"#utility.yul\":13510:13529   */\n      swap1\n      pop\n        /* \"#utility.yul\":13353:13535   */\n      swap2\n      swap1\n      pop\n      jump\t// out\n        /* \"#utility.yul\":13541:13878   */\n    tag_499:\n      0x00\n        /* \"#utility.yul\":13722:13806   */\n      tag_501\n        /* \"#utility.yul\":13804:13805   */\n      0x05\n        /* \"#utility.yul\":13799:13802   */\n      dup4\n        /* \"#utility.yul\":13722:13806   */\n      tag_464\n      jump\t// in\n    tag_501:\n        /* \"#utility.yul\":13715:13806   */\n      swap2\n      pop\n        /* \"#utility.yul\":13836:13843   */\n      0x2e6a736f6e000000000000000000000000000000000000000000000000000000\n        /* \"#utility.yul\":13832:13833   */\n      0x00\n        /* \"#utility.yul\":13827:13830   */\n      dup4\n        /* \"#utility.yul\":13823:13834   */\n      add\n        /* \"#utility.yul\":13816:13844   */\n      mstore\n        /* \"#utility.yul\":13870:13871   */\n      0x05\n        /* \"#utility.yul\":13865:13868   */\n      dup3\n        /* \"#utility.yul\":13861:13872   */\n      add\n        /* \"#utility.yul\":13854:13872   */\n      swap1\n      pop\n        /* \"#utility.yul\":13705:13878   */\n      swap2\n      swap1\n      pop\n      jump\t// out\n        /* \"#utility.yul\":13884:14207   */\n    tag_502:\n      0x00\n        /* \"#utility.yul\":14047:14114   */\n      tag_504\n        /* \"#utility.yul\":14111:14113   */\n      0x19\n        /* \"#utility.yul\":14106:14109   */\n      dup4\n        /* \"#utility.yul\":14047:14114   */\n      tag_457\n      jump\t// in\n    tag_504:\n        /* \"#utility.yul\":14040:14114   */\n      swap2\n      pop\n        /* \"#utility.yul\":14144:14171   */\n      0x43616e6e6f742064656372656173652077616c6c65744d617800000000000000\n        /* \"#utility.yul\":14140:14141   */\n      0x00\n        /* \"#utility.yul\":14135:14138   */\n      dup4\n        /* \"#utility.yul\":14131:14142   */\n      add\n        /* \"#utility.yul\":14124:14172   */\n      mstore\n        /* \"#utility.yul\":14198:14200   */\n      0x20\n        /* \"#utility.yul\":14193:14196   */\n      dup3\n        /* \"#utility.yul\":14189:14201   */\n      add\n        /* \"#utility.yul\":14182:14201   */\n      swap1\n      pop\n        /* \"#utility.yul\":14030:14207   */\n      swap2\n      swap1\n      pop\n      jump\t// out\n        /* \"#utility.yul\":14213:14589   */\n    tag_505:\n      0x00\n        /* \"#utility.yul\":14376:14443   */\n      tag_507\n        /* \"#utility.yul\":14440:14442   */\n      0x2c\n        /* \"#utility.yul\":14435:14438   */\n      dup4\n        /* \"#utility.yul\":14376:14443   */\n      tag_457\n      jump\t// in\n    tag_507:\n        /* \"#utility.yul\":14369:14443   */\n      swap2\n      pop\n        /* \"#utility.yul\":14473:14507   */\n      0x4d6178696d756d20746f6b656e7320616c7265616479206d696e74656420666f\n        /* \"#utility.yul\":14469:14470   */\n      0x00\n        /* \"#utility.yul\":14464:14467   */\n      dup4\n        /* \"#utility.yul\":14460:14471   */\n      add\n        /* \"#utility.yul\":14453:14508   */\n      mstore\n        /* \"#utility.yul\":14539:14553   */\n      0x72207468697320636c61696d0000000000000000000000000000000000000000\n        /* \"#utility.yul\":14534:14536   */\n      0x20\n        /* \"#utility.yul\":14529:14532   */\n      dup4\n        /* \"#utility.yul\":14525:14537   */\n      add\n        /* \"#utility.yul\":14518:14554   */\n      mstore\n        /* \"#utility.yul\":14580:14582   */\n      0x40\n        /* \"#utility.yul\":14575:14578   */\n      dup3\n        /* \"#utility.yul\":14571:14583   */\n      add\n        /* \"#utility.yul\":14564:14583   */\n      swap1\n      pop\n        /* \"#utility.yul\":14359:14589   */\n      swap2\n      swap1\n      pop\n      jump\t// out\n        /* \"#utility.yul\":14595:14922   */\n    tag_508:\n      0x00\n        /* \"#utility.yul\":14758:14825   */\n      tag_510\n        /* \"#utility.yul\":14822:14824   */\n      0x1d\n        /* \"#utility.yul\":14817:14820   */\n      dup4\n        /* \"#utility.yul\":14758:14825   */\n      tag_457\n      jump\t// in\n    tag_510:\n        /* \"#utility.yul\":14751:14825   */\n      swap2\n      pop\n        /* \"#utility.yul\":14855:14886   */\n      0x436f756c64206e6f7420766572696679206d65726b6c652070726f6f66000000\n        /* \"#utility.yul\":14851:14852   */\n      0x00\n        /* \"#utility.yul\":14846:14849   */\n      dup4\n        /* \"#utility.yul\":14842:14853   */\n      add\n        /* \"#utility.yul\":14835:14887   */\n      mstore\n        /* \"#utility.yul\":14913:14915   */\n      0x20\n        /* \"#utility.yul\":14908:14911   */\n      dup3\n        /* \"#utility.yul\":14904:14916   */\n      add\n        /* \"#utility.yul\":14897:14916   */\n      swap1\n      pop\n        /* \"#utility.yul\":14741:14922   */\n      swap2\n      swap1\n      pop\n      jump\t// out\n        /* \"#utility.yul\":14928:15305   */\n    tag_511:\n      0x00\n        /* \"#utility.yul\":15091:15158   */\n      tag_513\n        /* \"#utility.yul\":15155:15157   */\n      0x2d\n        /* \"#utility.yul\":15150:15153   */\n      dup4\n        /* \"#utility.yul\":15091:15158   */\n      tag_457\n      jump\t// in\n    tag_513:\n        /* \"#utility.yul\":15084:15158   */\n      swap2\n      pop\n        /* \"#utility.yul\":15188:15222   */\n      0x4d6178696d756d20746f6b656e7320616c7265616479206d696e74656420666f\n        /* \"#utility.yul\":15184:15185   */\n      0x00\n        /* \"#utility.yul\":15179:15182   */\n      dup4\n        /* \"#utility.yul\":15175:15186   */\n      add\n        /* \"#utility.yul\":15168:15223   */\n      mstore\n        /* \"#utility.yul\":15254:15269   */\n      0x7220746869732077616c6c657400000000000000000000000000000000000000\n        /* \"#utility.yul\":15249:15251   */\n      0x20\n        /* \"#utility.yul\":15244:15247   */\n      dup4\n        /* \"#utility.yul\":15240:15252   */\n      add\n        /* \"#utility.yul\":15233:15270   */\n      mstore\n        /* \"#utility.yul\":15296:15298   */\n      0x40\n        /* \"#utility.yul\":15291:15294   */\n      dup3\n        /* \"#utility.yul\":15287:15299   */\n      add\n        /* \"#utility.yul\":15280:15299   */\n      swap1\n      pop\n        /* \"#utility.yul\":15074:15305   */\n      swap2\n      swap1\n      pop\n      jump\t// out\n        /* \"#utility.yul\":15311:15629   */\n    tag_514:\n      0x00\n        /* \"#utility.yul\":15474:15541   */\n      tag_516\n        /* \"#utility.yul\":15538:15540   */\n      0x14\n        /* \"#utility.yul\":15533:15536   */\n      dup4\n        /* \"#utility.yul\":15474:15541   */\n      tag_457\n      jump\t// in\n    tag_516:\n        /* \"#utility.yul\":15467:15541   */\n      swap2\n      pop\n        /* \"#utility.yul\":15571:15593   */\n      0x436c61696d20646f6573206e6f74206578697374000000000000000000000000\n        /* \"#utility.yul\":15567:15568   */\n      0x00\n        /* \"#utility.yul\":15562:15565   */\n      dup4\n        /* \"#utility.yul\":15558:15569   */\n      add\n        /* \"#utility.yul\":15551:15594   */\n      mstore\n        /* \"#utility.yul\":15620:15622   */\n      0x20\n        /* \"#utility.yul\":15615:15618   */\n      dup3\n        /* \"#utility.yul\":15611:15623   */\n      add\n        /* \"#utility.yul\":15604:15623   */\n      swap1\n      pop\n        /* \"#utility.yul\":15457:15629   */\n      swap2\n      swap1\n      pop\n      jump\t// out\n        /* \"#utility.yul\":15635:15959   */\n    tag_517:\n      0x00\n        /* \"#utility.yul\":15798:15865   */\n      tag_519\n        /* \"#utility.yul\":15862:15864   */\n      0x1a\n        /* \"#utility.yul\":15857:15860   */\n      dup4\n        /* \"#utility.yul\":15798:15865   */\n      tag_457\n      jump\t// in\n    tag_519:\n        /* \"#utility.yul\":15791:15865   */\n      swap2\n      pop\n        /* \"#utility.yul\":15895:15923   */\n      0x5472616e73616374696f6e20616674657220656e642064617465000000000000\n        /* \"#utility.yul\":15891:15892   */\n      0x00\n        /* \"#utility.yul\":15886:15889   */\n      dup4\n        /* \"#utility.yul\":15882:15893   */\n      add\n        /* \"#utility.yul\":15875:15924   */\n      mstore\n        /* \"#utility.yul\":15950:15952   */\n      0x20\n        /* \"#utility.yul\":15945:15948   */\n      dup3\n        /* \"#utility.yul\":15941:15953   */\n      add\n        /* \"#utility.yul\":15934:15953   */\n      swap1\n      pop\n        /* \"#utility.yul\":15781:15959   */\n      swap2\n      swap1\n      pop\n      jump\t// out\n        /* \"#utility.yul\":15965:16357   */\n    tag_520:\n      0x00\n        /* \"#utility.yul\":16128:16195   */\n      tag_522\n        /* \"#utility.yul\":16192:16194   */\n      0x3c\n        /* \"#utility.yul\":16187:16190   */\n      dup4\n        /* \"#utility.yul\":16128:16195   */\n      tag_457\n      jump\t// in\n    tag_522:\n        /* \"#utility.yul\":16121:16195   */\n      swap2\n      pop\n        /* \"#utility.yul\":16225:16259   */\n      0x4d6178696d756d20746f6b656e7320616c7265616479206d696e74656420666f\n        /* \"#utility.yul\":16221:16222   */\n      0x00\n        /* \"#utility.yul\":16216:16219   */\n      dup4\n        /* \"#utility.yul\":16212:16223   */\n      add\n        /* \"#utility.yul\":16205:16260   */\n      mstore\n        /* \"#utility.yul\":16291:16321   */\n      0x7220746869732077616c6c65742070657220616c6c6f636174696f6e00000000\n        /* \"#utility.yul\":16286:16288   */\n      0x20\n        /* \"#utility.yul\":16281:16284   */\n      dup4\n        /* \"#utility.yul\":16277:16289   */\n      add\n        /* \"#utility.yul\":16270:16322   */\n      mstore\n        /* \"#utility.yul\":16348:16350   */\n      0x40\n        /* \"#utility.yul\":16343:16346   */\n      dup3\n        /* \"#utility.yul\":16339:16351   */\n      add\n        /* \"#utility.yul\":16332:16351   */\n      swap1\n      pop\n        /* \"#utility.yul\":16111:16357   */\n      swap2\n      swap1\n      pop\n      jump\t// out\n        /* \"#utility.yul\":16363:16696   */\n    tag_523:\n      0x00\n        /* \"#utility.yul\":16544:16628   */\n      tag_525\n        /* \"#utility.yul\":16626:16627   */\n      0x01\n        /* \"#utility.yul\":16621:16624   */\n      dup4\n        /* \"#utility.yul\":16544:16628   */\n      tag_464\n      jump\t// in\n    tag_525:\n        /* \"#utility.yul\":16537:16628   */\n      swap2\n      pop\n        /* \"#utility.yul\":16658:16661   */\n      0x2f00000000000000000000000000000000000000000000000000000000000000\n        /* \"#utility.yul\":16654:16655   */\n      0x00\n        /* \"#utility.yul\":16649:16652   */\n      dup4\n        /* \"#utility.yul\":16645:16656   */\n      add\n        /* \"#utility.yul\":16638:16662   */\n      mstore\n        /* \"#utility.yul\":16688:16689   */\n      0x01\n        /* \"#utility.yul\":16683:16686   */\n      dup3\n        /* \"#utility.yul\":16679:16690   */\n      add\n        /* \"#utility.yul\":16672:16690   */\n      swap1\n      pop\n        /* \"#utility.yul\":16527:16696   */\n      swap2\n      swap1\n      pop\n      jump\t// out\n        /* \"#utility.yul\":16772:18644   */\n    tag_526:\n      0x00\n        /* \"#utility.yul\":16923:16929   */\n      0x0120\n        /* \"#utility.yul\":16918:16921   */\n      dup4\n        /* \"#utility.yul\":16914:16930   */\n      add\n        /* \"#utility.yul\":17013:17017   */\n      0x00\n        /* \"#utility.yul\":17006:17011   */\n      dup4\n        /* \"#utility.yul\":17002:17018   */\n      add\n        /* \"#utility.yul\":16996:17019   */\n      mload\n        /* \"#utility.yul\":17032:17093   */\n      tag_528\n        /* \"#utility.yul\":17087:17091   */\n      0x00\n        /* \"#utility.yul\":17082:17085   */\n      dup7\n        /* \"#utility.yul\":17078:17092   */\n      add\n        /* \"#utility.yul\":17064:17076   */\n      dup3\n        /* \"#utility.yul\":17032:17093   */\n      tag_529\n      jump\t// in\n    tag_528:\n        /* \"#utility.yul\":16940:17103   */\n      pop\n        /* \"#utility.yul\":17189:17193   */\n      0x20\n        /* \"#utility.yul\":17182:17187   */\n      dup4\n        /* \"#utility.yul\":17178:17194   */\n      add\n        /* \"#utility.yul\":17172:17195   */\n      mload\n        /* \"#utility.yul\":17208:17269   */\n      tag_530\n        /* \"#utility.yul\":17263:17267   */\n      0x20\n        /* \"#utility.yul\":17258:17261   */\n      dup7\n        /* \"#utility.yul\":17254:17268   */\n      add\n        /* \"#utility.yul\":17240:17252   */\n      dup3\n        /* \"#utility.yul\":17208:17269   */\n      tag_529\n      jump\t// in\n    tag_530:\n        /* \"#utility.yul\":17113:17279   */\n      pop\n        /* \"#utility.yul\":17366:17370   */\n      0x40\n        /* \"#utility.yul\":17359:17364   */\n      dup4\n        /* \"#utility.yul\":17355:17371   */\n      add\n        /* \"#utility.yul\":17349:17372   */\n      mload\n        /* \"#utility.yul\":17385:17446   */\n      tag_531\n        /* \"#utility.yul\":17440:17444   */\n      0x40\n        /* \"#utility.yul\":17435:17438   */\n      dup7\n        /* \"#utility.yul\":17431:17445   */\n      add\n        /* \"#utility.yul\":17417:17429   */\n      dup3\n        /* \"#utility.yul\":17385:17446   */\n      tag_529\n      jump\t// in\n    tag_531:\n        /* \"#utility.yul\":17289:17456   */\n      pop\n        /* \"#utility.yul\":17543:17547   */\n      0x60\n        /* \"#utility.yul\":17536:17541   */\n      dup4\n        /* \"#utility.yul\":17532:17548   */\n      add\n        /* \"#utility.yul\":17526:17549   */\n      mload\n        /* \"#utility.yul\":17562:17623   */\n      tag_532\n        /* \"#utility.yul\":17617:17621   */\n      0x60\n        /* \"#utility.yul\":17612:17615   */\n      dup7\n        /* \"#utility.yul\":17608:17622   */\n      add\n        /* \"#utility.yul\":17594:17606   */\n      dup3\n        /* \"#utility.yul\":17562:17623   */\n      tag_533\n      jump\t// in\n    tag_532:\n        /* \"#utility.yul\":17466:17633   */\n      pop\n        /* \"#utility.yul\":17718:17722   */\n      0x80\n        /* \"#utility.yul\":17711:17716   */\n      dup4\n        /* \"#utility.yul\":17707:17723   */\n      add\n        /* \"#utility.yul\":17701:17724   */\n      mload\n        /* \"#utility.yul\":17737:17798   */\n      tag_534\n        /* \"#utility.yul\":17792:17796   */\n      0x80\n        /* \"#utility.yul\":17787:17790   */\n      dup7\n        /* \"#utility.yul\":17783:17797   */\n      add\n        /* \"#utility.yul\":17769:17781   */\n      dup3\n        /* \"#utility.yul\":17737:17798   */\n      tag_533\n      jump\t// in\n    tag_534:\n        /* \"#utility.yul\":17643:17808   */\n      pop\n        /* \"#utility.yul\":17901:17905   */\n      0xa0\n        /* \"#utility.yul\":17894:17899   */\n      dup4\n        /* \"#utility.yul\":17890:17906   */\n      add\n        /* \"#utility.yul\":17884:17907   */\n      mload\n        /* \"#utility.yul\":17920:18001   */\n      tag_535\n        /* \"#utility.yul\":17995:17999   */\n      0xa0\n        /* \"#utility.yul\":17990:17993   */\n      dup7\n        /* \"#utility.yul\":17986:18000   */\n      add\n        /* \"#utility.yul\":17972:17984   */\n      dup3\n        /* \"#utility.yul\":17920:18001   */\n      tag_436\n      jump\t// in\n    tag_535:\n        /* \"#utility.yul\":17818:18011   */\n      pop\n        /* \"#utility.yul\":18098:18102   */\n      0xc0\n        /* \"#utility.yul\":18091:18096   */\n      dup4\n        /* \"#utility.yul\":18087:18103   */\n      add\n        /* \"#utility.yul\":18081:18104   */\n      mload\n        /* \"#utility.yul\":18117:18174   */\n      tag_536\n        /* \"#utility.yul\":18168:18172   */\n      0xc0\n        /* \"#utility.yul\":18163:18166   */\n      dup7\n        /* \"#utility.yul\":18159:18173   */\n      add\n        /* \"#utility.yul\":18145:18157   */\n      dup3\n        /* \"#utility.yul\":18117:18174   */\n      tag_417\n      jump\t// in\n    tag_536:\n        /* \"#utility.yul\":18021:18184   */\n      pop\n        /* \"#utility.yul\":18272:18276   */\n      0xe0\n        /* \"#utility.yul\":18265:18270   */\n      dup4\n        /* \"#utility.yul\":18261:18277   */\n      add\n        /* \"#utility.yul\":18255:18278   */\n      mload\n        /* \"#utility.yul\":18291:18354   */\n      tag_537\n        /* \"#utility.yul\":18348:18352   */\n      0xe0\n        /* \"#utility.yul\":18343:18346   */\n      dup7\n        /* \"#utility.yul\":18339:18353   */\n      add\n        /* \"#utility.yul\":18325:18337   */\n      dup3\n        /* \"#utility.yul\":18291:18354   */\n      tag_424\n      jump\t// in\n    tag_537:\n        /* \"#utility.yul\":18194:18364   */\n      pop\n        /* \"#utility.yul\":18450:18456   */\n      0x0100\n        /* \"#utility.yul\":18443:18448   */\n      dup4\n        /* \"#utility.yul\":18439:18457   */\n      add\n        /* \"#utility.yul\":18433:18458   */\n      mload\n        /* \"#utility.yul\":18507:18510   */\n      dup5\n        /* \"#utility.yul\":18501:18505   */\n      dup3\n        /* \"#utility.yul\":18497:18511   */\n      sub\n        /* \"#utility.yul\":18488:18494   */\n      0x0100\n        /* \"#utility.yul\":18483:18486   */\n      dup7\n        /* \"#utility.yul\":18479:18495   */\n      add\n        /* \"#utility.yul\":18472:18512   */\n      mstore\n        /* \"#utility.yul\":18533:18606   */\n      tag_538\n        /* \"#utility.yul\":18601:18605   */\n      dup3\n        /* \"#utility.yul\":18587:18599   */\n      dup3\n        /* \"#utility.yul\":18533:18606   */\n      tag_443\n      jump\t// in\n    tag_538:\n        /* \"#utility.yul\":18525:18606   */\n      swap2\n      pop\n        /* \"#utility.yul\":18374:18617   */\n      pop\n        /* \"#utility.yul\":18634:18638   */\n      dup1\n        /* \"#utility.yul\":18627:18638   */\n      swap2\n      pop\n        /* \"#utility.yul\":16892:18644   */\n      pop\n      swap3\n      swap2\n      pop\n      pop\n      jump\t// out\n        /* \"#utility.yul\":18650:18768   */\n    tag_539:\n        /* \"#utility.yul\":18737:18761   */\n      tag_541\n        /* \"#utility.yul\":18755:18760   */\n      dup2\n        /* \"#utility.yul\":18737:18761   */\n      tag_542\n      jump\t// in\n    tag_541:\n        /* \"#utility.yul\":18732:18735   */\n      dup3\n        /* \"#utility.yul\":18725:18762   */\n      mstore\n        /* \"#utility.yul\":18715:18768   */\n      pop\n      pop\n      jump\t// out\n        /* \"#utility.yul\":18774:18931   */\n    tag_543:\n        /* \"#utility.yul\":18879:18924   */\n      tag_545\n        /* \"#utility.yul\":18899:18923   */\n      tag_546\n        /* \"#utility.yul\":18917:18922   */\n      dup3\n        /* \"#utility.yul\":18899:18923   */\n      tag_542\n      jump\t// in\n    tag_546:\n        /* \"#utility.yul\":18879:18924   */\n      tag_547\n      jump\t// in\n    tag_545:\n        /* \"#utility.yul\":18874:18877   */\n      dup3\n        /* \"#utility.yul\":18867:18925   */\n      mstore\n        /* \"#utility.yul\":18857:18931   */\n      pop\n      pop\n      jump\t// out\n        /* \"#utility.yul\":18937:19042   */\n    tag_529:\n        /* \"#utility.yul\":19012:19035   */\n      tag_549\n        /* \"#utility.yul\":19029:19034   */\n      dup2\n        /* \"#utility.yul\":19012:19035   */\n      tag_550\n      jump\t// in\n    tag_549:\n        /* \"#utility.yul\":19007:19010   */\n      dup3\n        /* \"#utility.yul\":19000:19036   */\n      mstore\n        /* \"#utility.yul\":18990:19042   */\n      pop\n      pop\n      jump\t// out\n        /* \"#utility.yul\":19048:19163   */\n    tag_551:\n        /* \"#utility.yul\":19133:19156   */\n      tag_553\n        /* \"#utility.yul\":19150:19155   */\n      dup2\n        /* \"#utility.yul\":19133:19156   */\n      tag_550\n      jump\t// in\n    tag_553:\n        /* \"#utility.yul\":19128:19131   */\n      dup3\n        /* \"#utility.yul\":19121:19157   */\n      mstore\n        /* \"#utility.yul\":19111:19163   */\n      pop\n      pop\n      jump\t// out\n        /* \"#utility.yul\":19169:19322   */\n    tag_554:\n        /* \"#utility.yul\":19272:19315   */\n      tag_556\n        /* \"#utility.yul\":19291:19314   */\n      tag_557\n        /* \"#utility.yul\":19308:19313   */\n      dup3\n        /* \"#utility.yul\":19291:19314   */\n      tag_550\n      jump\t// in\n    tag_557:\n        /* \"#utility.yul\":19272:19315   */\n      tag_558\n      jump\t// in\n    tag_556:\n        /* \"#utility.yul\":19267:19270   */\n      dup3\n        /* \"#utility.yul\":19260:19316   */\n      mstore\n        /* \"#utility.yul\":19250:19322   */\n      pop\n      pop\n      jump\t// out\n        /* \"#utility.yul\":19328:19433   */\n    tag_533:\n        /* \"#utility.yul\":19403:19426   */\n      tag_560\n        /* \"#utility.yul\":19420:19425   */\n      dup2\n        /* \"#utility.yul\":19403:19426   */\n      tag_561\n      jump\t// in\n    tag_560:\n        /* \"#utility.yul\":19398:19401   */\n      dup3\n        /* \"#utility.yul\":19391:19427   */\n      mstore\n        /* \"#utility.yul\":19381:19433   */\n      pop\n      pop\n      jump\t// out\n        /* \"#utility.yul\":19439:19554   */\n    tag_562:\n        /* \"#utility.yul\":19524:19547   */\n      tag_564\n        /* \"#utility.yul\":19541:19546   */\n      dup2\n        /* \"#utility.yul\":19524:19547   */\n      tag_561\n      jump\t// in\n    tag_564:\n        /* \"#utility.yul\":19519:19522   */\n      dup3\n        /* \"#utility.yul\":19512:19548   */\n      mstore\n        /* \"#utility.yul\":19502:19554   */\n      pop\n      pop\n      jump\t// out\n        /* \"#utility.yul\":19560:19952   */\n    tag_111:\n      0x00\n        /* \"#utility.yul\":19713:19788   */\n      tag_566\n        /* \"#utility.yul\":19784:19787   */\n      dup3\n        /* \"#utility.yul\":19775:19781   */\n      dup6\n        /* \"#utility.yul\":19713:19788   */\n      tag_412\n      jump\t// in\n    tag_566:\n        /* \"#utility.yul\":19813:19815   */\n      0x14\n        /* \"#utility.yul\":19808:19811   */\n      dup3\n        /* \"#utility.yul\":19804:19816   */\n      add\n        /* \"#utility.yul\":19797:19816   */\n      swap2\n      pop\n        /* \"#utility.yul\":19826:19899   */\n      tag_567\n        /* \"#utility.yul\":19895:19898   */\n      dup3\n        /* \"#utility.yul\":19886:19892   */\n      dup5\n        /* \"#utility.yul\":19826:19899   */\n      tag_554\n      jump\t// in\n    tag_567:\n        /* \"#utility.yul\":19924:19925   */\n      0x04\n        /* \"#utility.yul\":19919:19922   */\n      dup3\n        /* \"#utility.yul\":19915:19926   */\n      add\n        /* \"#utility.yul\":19908:19926   */\n      swap2\n      pop\n        /* \"#utility.yul\":19943:19946   */\n      dup2\n        /* \"#utility.yul\":19936:19946   */\n      swap1\n      pop\n        /* \"#utility.yul\":19702:19952   */\n      swap4\n      swap3\n      pop\n      pop\n      pop\n      jump\t// out\n        /* \"#utility.yul\":19958:20355   */\n    tag_294:\n      0x00\n        /* \"#utility.yul\":20113:20188   */\n      tag_569\n        /* \"#utility.yul\":20184:20187   */\n      dup3\n        /* \"#utility.yul\":20175:20181   */\n      dup6\n        /* \"#utility.yul\":20113:20188   */\n      tag_431\n      jump\t// in\n    tag_569:\n        /* \"#utility.yul\":20213:20215   */\n      0x20\n        /* \"#utility.yul\":20208:20211   */\n      dup3\n        /* \"#utility.yul\":20204:20216   */\n      add\n        /* \"#utility.yul\":20197:20216   */\n      swap2\n      pop\n        /* \"#utility.yul\":20226:20301   */\n      tag_570\n        /* \"#utility.yul\":20297:20300   */\n      dup3\n        /* \"#utility.yul\":20288:20294   */\n      dup5\n        /* \"#utility.yul\":20226:20301   */\n      tag_431\n      jump\t// in\n    tag_570:\n        /* \"#utility.yul\":20326:20328   */\n      0x20\n        /* \"#utility.yul\":20321:20324   */\n      dup3\n        /* \"#utility.yul\":20317:20329   */\n      add\n        /* \"#utility.yul\":20310:20329   */\n      swap2\n      pop\n        /* \"#utility.yul\":20346:20349   */\n      dup2\n        /* \"#utility.yul\":20339:20349   */\n      swap1\n      pop\n        /* \"#utility.yul\":20102:20355   */\n      swap4\n      swap3\n      pop\n      pop\n      pop\n      jump\t// out\n        /* \"#utility.yul\":20361:20950   */\n    tag_246:\n      0x00\n        /* \"#utility.yul\":20608:20703   */\n      tag_572\n        /* \"#utility.yul\":20699:20702   */\n      dup3\n        /* \"#utility.yul\":20690:20696   */\n      dup7\n        /* \"#utility.yul\":20608:20703   */\n      tag_460\n      jump\t// in\n    tag_572:\n        /* \"#utility.yul\":20601:20703   */\n      swap2\n      pop\n        /* \"#utility.yul\":20720:20812   */\n      tag_573\n        /* \"#utility.yul\":20808:20811   */\n      dup3\n        /* \"#utility.yul\":20799:20805   */\n      dup6\n        /* \"#utility.yul\":20720:20812   */\n      tag_466\n      jump\t// in\n    tag_573:\n        /* \"#utility.yul\":20713:20812   */\n      swap2\n      pop\n        /* \"#utility.yul\":20829:20924   */\n      tag_574\n        /* \"#utility.yul\":20920:20923   */\n      dup3\n        /* \"#utility.yul\":20911:20917   */\n      dup5\n        /* \"#utility.yul\":20829:20924   */\n      tag_460\n      jump\t// in\n    tag_574:\n        /* \"#utility.yul\":20822:20924   */\n      swap2\n      pop\n        /* \"#utility.yul\":20941:20944   */\n      dup2\n        /* \"#utility.yul\":20934:20944   */\n      swap1\n      pop\n        /* \"#utility.yul\":20590:20950   */\n      swap5\n      swap4\n      pop\n      pop\n      pop\n      pop\n      jump\t// out\n        /* \"#utility.yul\":20956:21497   */\n    tag_237:\n      0x00\n        /* \"#utility.yul\":21211:21306   */\n      tag_576\n        /* \"#utility.yul\":21302:21305   */\n      dup3\n        /* \"#utility.yul\":21293:21299   */\n      dup5\n        /* \"#utility.yul\":21211:21306   */\n      tag_460\n      jump\t// in\n    tag_576:\n        /* \"#utility.yul\":21204:21306   */\n      swap2\n      pop\n        /* \"#utility.yul\":21323:21471   */\n      tag_577\n        /* \"#utility.yul\":21467:21470   */\n      dup3\n        /* \"#utility.yul\":21323:21471   */\n      tag_499\n      jump\t// in\n    tag_577:\n        /* \"#utility.yul\":21316:21471   */\n      swap2\n      pop\n        /* \"#utility.yul\":21488:21491   */\n      dup2\n        /* \"#utility.yul\":21481:21491   */\n      swap1\n      pop\n        /* \"#utility.yul\":21193:21497   */\n      swap3\n      swap2\n      pop\n      pop\n      jump\t// out\n        /* \"#utility.yul\":21503:22025   */\n    tag_232:\n      0x00\n        /* \"#utility.yul\":21738:21886   */\n      tag_579\n        /* \"#utility.yul\":21882:21885   */\n      dup3\n        /* \"#utility.yul\":21738:21886   */\n      tag_523\n      jump\t// in\n    tag_579:\n        /* \"#utility.yul\":21731:21886   */\n      swap2\n      pop\n        /* \"#utility.yul\":21896:21971   */\n      tag_580\n        /* \"#utility.yul\":21967:21970   */\n      dup3\n        /* \"#utility.yul\":21958:21964   */\n      dup5\n        /* \"#utility.yul\":21896:21971   */\n      tag_543\n      jump\t// in\n    tag_580:\n        /* \"#utility.yul\":21996:21998   */\n      0x20\n        /* \"#utility.yul\":21991:21994   */\n      dup3\n        /* \"#utility.yul\":21987:21999   */\n      add\n        /* \"#utility.yul\":21980:21999   */\n      swap2\n      pop\n        /* \"#utility.yul\":22016:22019   */\n      dup2\n        /* \"#utility.yul\":22009:22019   */\n      swap1\n      pop\n        /* \"#utility.yul\":21720:22025   */\n      swap3\n      swap2\n      pop\n      pop\n      jump\t// out\n        /* \"#utility.yul\":22031:22253   */\n    tag_122:\n      0x00\n        /* \"#utility.yul\":22162:22164   */\n      0x20\n        /* \"#utility.yul\":22151:22160   */\n      dup3\n        /* \"#utility.yul\":22147:22165   */\n      add\n        /* \"#utility.yul\":22139:22165   */\n      swap1\n      pop\n        /* \"#utility.yul\":22175:22246   */\n      tag_582\n        /* \"#utility.yul\":22243:22244   */\n      0x00\n        /* \"#utility.yul\":22232:22241   */\n      dup4\n        /* \"#utility.yul\":22228:22245   */\n      add\n        /* \"#utility.yul\":22219:22225   */\n      dup5\n        /* \"#utility.yul\":22175:22246   */\n      tag_408\n      jump\t// in\n    tag_582:\n        /* \"#utility.yul\":22129:22253   */\n      swap3\n      swap2\n      pop\n      pop\n      jump\t// out\n        /* \"#utility.yul\":22259:22469   */\n    tag_23:\n      0x00\n        /* \"#utility.yul\":22384:22386   */\n      0x20\n        /* \"#utility.yul\":22373:22382   */\n      dup3\n        /* \"#utility.yul\":22369:22387   */\n      add\n        /* \"#utility.yul\":22361:22387   */\n      swap1\n      pop\n        /* \"#utility.yul\":22397:22462   */\n      tag_584\n        /* \"#utility.yul\":22459:22460   */\n      0x00\n        /* \"#utility.yul\":22448:22457   */\n      dup4\n        /* \"#utility.yul\":22444:22461   */\n      add\n        /* \"#utility.yul\":22435:22441   */\n      dup5\n        /* \"#utility.yul\":22397:22462   */\n      tag_421\n      jump\t// in\n    tag_584:\n        /* \"#utility.yul\":22351:22469   */\n      swap3\n      swap2\n      pop\n      pop\n      jump\t// out\n        /* \"#utility.yul\":22475:22788   */\n    tag_77:\n      0x00\n        /* \"#utility.yul\":22626:22628   */\n      0x20\n        /* \"#utility.yul\":22615:22624   */\n      dup3\n        /* \"#utility.yul\":22611:22629   */\n      add\n        /* \"#utility.yul\":22603:22629   */\n      swap1\n      pop\n        /* \"#utility.yul\":22675:22684   */\n      dup2\n        /* \"#utility.yul\":22669:22673   */\n      dup2\n        /* \"#utility.yul\":22665:22685   */\n      sub\n        /* \"#utility.yul\":22661:22662   */\n      0x00\n        /* \"#utility.yul\":22650:22659   */\n      dup4\n        /* \"#utility.yul\":22646:22663   */\n      add\n        /* \"#utility.yul\":22639:22686   */\n      mstore\n        /* \"#utility.yul\":22703:22781   */\n      tag_586\n        /* \"#utility.yul\":22776:22780   */\n      dup2\n        /* \"#utility.yul\":22767:22773   */\n      dup5\n        /* \"#utility.yul\":22703:22781   */\n      tag_453\n      jump\t// in\n    tag_586:\n        /* \"#utility.yul\":22695:22781   */\n      swap1\n      pop\n        /* \"#utility.yul\":22593:22788   */\n      swap3\n      swap2\n      pop\n      pop\n      jump\t// out\n        /* \"#utility.yul\":22794:23213   */\n    tag_175:\n      0x00\n        /* \"#utility.yul\":22998:23000   */\n      0x20\n        /* \"#utility.yul\":22987:22996   */\n      dup3\n        /* \"#utility.yul\":22983:23001   */\n      add\n        /* \"#utility.yul\":22975:23001   */\n      swap1\n      pop\n        /* \"#utility.yul\":23047:23056   */\n      dup2\n        /* \"#utility.yul\":23041:23045   */\n      dup2\n        /* \"#utility.yul\":23037:23057   */\n      sub\n        /* \"#utility.yul\":23033:23034   */\n      0x00\n        /* \"#utility.yul\":23022:23031   */\n      dup4\n        /* \"#utility.yul\":23018:23035   */\n      add\n        /* \"#utility.yul\":23011:23058   */\n      mstore\n        /* \"#utility.yul\":23075:23206   */\n      tag_588\n        /* \"#utility.yul\":23201:23205   */\n      dup2\n        /* \"#utility.yul\":23075:23206   */\n      tag_478\n      jump\t// in\n    tag_588:\n        /* \"#utility.yul\":23067:23206   */\n      swap1\n      pop\n        /* \"#utility.yul\":22965:23213   */\n      swap2\n      swap1\n      pop\n      jump\t// out\n        /* \"#utility.yul\":23219:23638   */\n    tag_163:\n      0x00\n        /* \"#utility.yul\":23423:23425   */\n      0x20\n        /* \"#utility.yul\":23412:23421   */\n      dup3\n        /* \"#utility.yul\":23408:23426   */\n      add\n        /* \"#utility.yul\":23400:23426   */\n      swap1\n      pop\n        /* \"#utility.yul\":23472:23481   */\n      dup2\n        /* \"#utility.yul\":23466:23470   */\n      dup2\n        /* \"#utility.yul\":23462:23482   */\n      sub\n        /* \"#utility.yul\":23458:23459   */\n      0x00\n        /* \"#utility.yul\":23447:23456   */\n      dup4\n        /* \"#utility.yul\":23443:23460   */\n      add\n        /* \"#utility.yul\":23436:23483   */\n      mstore\n        /* \"#utility.yul\":23500:23631   */\n      tag_590\n        /* \"#utility.yul\":23626:23630   */\n      dup2\n        /* \"#utility.yul\":23500:23631   */\n      tag_481\n      jump\t// in\n    tag_590:\n        /* \"#utility.yul\":23492:23631   */\n      swap1\n      pop\n        /* \"#utility.yul\":23390:23638   */\n      swap2\n      swap1\n      pop\n      jump\t// out\n        /* \"#utility.yul\":23644:24063   */\n    tag_213:\n      0x00\n        /* \"#utility.yul\":23848:23850   */\n      0x20\n        /* \"#utility.yul\":23837:23846   */\n      dup3\n        /* \"#utility.yul\":23833:23851   */\n      add\n        /* \"#utility.yul\":23825:23851   */\n      swap1\n      pop\n        /* \"#utility.yul\":23897:23906   */\n      dup2\n        /* \"#utility.yul\":23891:23895   */\n      dup2\n        /* \"#utility.yul\":23887:23907   */\n      sub\n        /* \"#utility.yul\":23883:23884   */\n      0x00\n        /* \"#utility.yul\":23872:23881   */\n      dup4\n        /* \"#utility.yul\":23868:23885   */\n      add\n        /* \"#utility.yul\":23861:23908   */\n      mstore\n        /* \"#utility.yul\":23925:24056   */\n      tag_592\n        /* \"#utility.yul\":24051:24055   */\n      dup2\n        /* \"#utility.yul\":23925:24056   */\n      tag_484\n      jump\t// in\n    tag_592:\n        /* \"#utility.yul\":23917:24056   */\n      swap1\n      pop\n        /* \"#utility.yul\":23815:24063   */\n      swap2\n      swap1\n      pop\n      jump\t// out\n        /* \"#utility.yul\":24069:24488   */\n    tag_157:\n      0x00\n        /* \"#utility.yul\":24273:24275   */\n      0x20\n        /* \"#utility.yul\":24262:24271   */\n      dup3\n        /* \"#utility.yul\":24258:24276   */\n      add\n        /* \"#utility.yul\":24250:24276   */\n      swap1\n      pop\n        /* \"#utility.yul\":24322:24331   */\n      dup2\n        /* \"#utility.yul\":24316:24320   */\n      dup2\n        /* \"#utility.yul\":24312:24332   */\n      sub\n        /* \"#utility.yul\":24308:24309   */\n      0x00\n        /* \"#utility.yul\":24297:24306   */\n      dup4\n        /* \"#utility.yul\":24293:24310   */\n      add\n        /* \"#utility.yul\":24286:24333   */\n      mstore\n        /* \"#utility.yul\":24350:24481   */\n      tag_594\n        /* \"#utility.yul\":24476:24480   */\n      dup2\n        /* \"#utility.yul\":24350:24481   */\n      tag_487\n      jump\t// in\n    tag_594:\n        /* \"#utility.yul\":24342:24481   */\n      swap1\n      pop\n        /* \"#utility.yul\":24240:24488   */\n      swap2\n      swap1\n      pop\n      jump\t// out\n        /* \"#utility.yul\":24494:24913   */\n    tag_270:\n      0x00\n        /* \"#utility.yul\":24698:24700   */\n      0x20\n        /* \"#utility.yul\":24687:24696   */\n      dup3\n        /* \"#utility.yul\":24683:24701   */\n      add\n        /* \"#utility.yul\":24675:24701   */\n      swap1\n      pop\n        /* \"#utility.yul\":24747:24756   */\n      dup2\n        /* \"#utility.yul\":24741:24745   */\n      dup2\n        /* \"#utility.yul\":24737:24757   */\n      sub\n        /* \"#utility.yul\":24733:24734   */\n      0x00\n        /* \"#utility.yul\":24722:24731   */\n      dup4\n        /* \"#utility.yul\":24718:24735   */\n      add\n        /* \"#utility.yul\":24711:24758   */\n      mstore\n        /* \"#utility.yul\":24775:24906   */\n      tag_596\n        /* \"#utility.yul\":24901:24905   */\n      dup2\n        /* \"#utility.yul\":24775:24906   */\n      tag_490\n      jump\t// in\n    tag_596:\n        /* \"#utility.yul\":24767:24906   */\n      swap1\n      pop\n        /* \"#utility.yul\":24665:24913   */\n      swap2\n      swap1\n      pop\n      jump\t// out\n        /* \"#utility.yul\":24919:25338   */\n    tag_96:\n      0x00\n        /* \"#utility.yul\":25123:25125   */\n      0x20\n        /* \"#utility.yul\":25112:25121   */\n      dup3\n        /* \"#utility.yul\":25108:25126   */\n      add\n        /* \"#utility.yul\":25100:25126   */\n      swap1\n      pop\n        /* \"#utility.yul\":25172:25181   */\n      dup2\n        /* \"#utility.yul\":25166:25170   */\n      dup2\n        /* \"#utility.yul\":25162:25182   */\n      sub\n        /* \"#utility.yul\":25158:25159   */\n      0x00\n        /* \"#utility.yul\":25147:25156   */\n      dup4\n        /* \"#utility.yul\":25143:25160   */\n      add\n        /* \"#utility.yul\":25136:25183   */\n      mstore\n        /* \"#utility.yul\":25200:25331   */\n      tag_598\n        /* \"#utility.yul\":25326:25330   */\n      dup2\n        /* \"#utility.yul\":25200:25331   */\n      tag_493\n      jump\t// in\n    tag_598:\n        /* \"#utility.yul\":25192:25331   */\n      swap1\n      pop\n        /* \"#utility.yul\":25090:25338   */\n      swap2\n      swap1\n      pop\n      jump\t// out\n        /* \"#utility.yul\":25344:25763   */\n    tag_250:\n      0x00\n        /* \"#utility.yul\":25548:25550   */\n      0x20\n        /* \"#utility.yul\":25537:25546   */\n      dup3\n        /* \"#utility.yul\":25533:25551   */\n      add\n        /* \"#utility.yul\":25525:25551   */\n      swap1\n      pop\n        /* \"#utility.yul\":25597:25606   */\n      dup2\n        /* \"#utility.yul\":25591:25595   */\n      dup2\n        /* \"#utility.yul\":25587:25607   */\n      sub\n        /* \"#utility.yul\":25583:25584   */\n      0x00\n        /* \"#utility.yul\":25572:25581   */\n      dup4\n        /* \"#utility.yul\":25568:25585   */\n      add\n        /* \"#utility.yul\":25561:25608   */\n      mstore\n        /* \"#utility.yul\":25625:25756   */\n      tag_600\n        /* \"#utility.yul\":25751:25755   */\n      dup2\n        /* \"#utility.yul\":25625:25756   */\n      tag_496\n      jump\t// in\n    tag_600:\n        /* \"#utility.yul\":25617:25756   */\n      swap1\n      pop\n        /* \"#utility.yul\":25515:25763   */\n      swap2\n      swap1\n      pop\n      jump\t// out\n        /* \"#utility.yul\":25769:26188   */\n    tag_167:\n      0x00\n        /* \"#utility.yul\":25973:25975   */\n      0x20\n        /* \"#utility.yul\":25962:25971   */\n      dup3\n        /* \"#utility.yul\":25958:25976   */\n      add\n        /* \"#utility.yul\":25950:25976   */\n      swap1\n      pop\n        /* \"#utility.yul\":26022:26031   */\n      dup2\n        /* \"#utility.yul\":26016:26020   */\n      dup2\n        /* \"#utility.yul\":26012:26032   */\n      sub\n        /* \"#utility.yul\":26008:26009   */\n      0x00\n        /* \"#utility.yul\":25997:26006   */\n      dup4\n        /* \"#utility.yul\":25993:26010   */\n      add\n        /* \"#utility.yul\":25986:26033   */\n      mstore\n        /* \"#utility.yul\":26050:26181   */\n      tag_602\n        /* \"#utility.yul\":26176:26180   */\n      dup2\n        /* \"#utility.yul\":26050:26181   */\n      tag_502\n      jump\t// in\n    tag_602:\n        /* \"#utility.yul\":26042:26181   */\n      swap1\n      pop\n        /* \"#utility.yul\":25940:26188   */\n      swap2\n      swap1\n      pop\n      jump\t// out\n        /* \"#utility.yul\":26194:26613   */\n    tag_108:\n      0x00\n        /* \"#utility.yul\":26398:26400   */\n      0x20\n        /* \"#utility.yul\":26387:26396   */\n      dup3\n        /* \"#utility.yul\":26383:26401   */\n      add\n        /* \"#utility.yul\":26375:26401   */\n      swap1\n      pop\n        /* \"#utility.yul\":26447:26456   */\n      dup2\n        /* \"#utility.yul\":26441:26445   */\n      dup2\n        /* \"#utility.yul\":26437:26457   */\n      sub\n        /* \"#utility.yul\":26433:26434   */\n      0x00\n        /* \"#utility.yul\":26422:26431   */\n      dup4\n        /* \"#utility.yul\":26418:26435   */\n      add\n        /* \"#utility.yul\":26411:26458   */\n      mstore\n        /* \"#utility.yul\":26475:26606   */\n      tag_604\n        /* \"#utility.yul\":26601:26605   */\n      dup2\n        /* \"#utility.yul\":26475:26606   */\n      tag_505\n      jump\t// in\n    tag_604:\n        /* \"#utility.yul\":26467:26606   */\n      swap1\n      pop\n        /* \"#utility.yul\":26365:26613   */\n      swap2\n      swap1\n      pop\n      jump\t// out\n        /* \"#utility.yul\":26619:27038   */\n    tag_116:\n      0x00\n        /* \"#utility.yul\":26823:26825   */\n      0x20\n        /* \"#utility.yul\":26812:26821   */\n      dup3\n        /* \"#utility.yul\":26808:26826   */\n      add\n        /* \"#utility.yul\":26800:26826   */\n      swap1\n      pop\n        /* \"#utility.yul\":26872:26881   */\n      dup2\n        /* \"#utility.yul\":26866:26870   */\n      dup2\n        /* \"#utility.yul\":26862:26882   */\n      sub\n        /* \"#utility.yul\":26858:26859   */\n      0x00\n        /* \"#utility.yul\":26847:26856   */\n      dup4\n        /* \"#utility.yul\":26843:26860   */\n      add\n        /* \"#utility.yul\":26836:26883   */\n      mstore\n        /* \"#utility.yul\":26900:27031   */\n      tag_606\n        /* \"#utility.yul\":27026:27030   */\n      dup2\n        /* \"#utility.yul\":26900:27031   */\n      tag_508\n      jump\t// in\n    tag_606:\n        /* \"#utility.yul\":26892:27031   */\n      swap1\n      pop\n        /* \"#utility.yul\":26790:27038   */\n      swap2\n      swap1\n      pop\n      jump\t// out\n        /* \"#utility.yul\":27044:27463   */\n    tag_104:\n      0x00\n        /* \"#utility.yul\":27248:27250   */\n      0x20\n        /* \"#utility.yul\":27237:27246   */\n      dup3\n        /* \"#utility.yul\":27233:27251   */\n      add\n        /* \"#utility.yul\":27225:27251   */\n      swap1\n      pop\n        /* \"#utility.yul\":27297:27306   */\n      dup2\n        /* \"#utility.yul\":27291:27295   */\n      dup2\n        /* \"#utility.yul\":27287:27307   */\n      sub\n        /* \"#utility.yul\":27283:27284   */\n      0x00\n        /* \"#utility.yul\":27272:27281   */\n      dup4\n        /* \"#utility.yul\":27268:27285   */\n      add\n        /* \"#utility.yul\":27261:27308   */\n      mstore\n        /* \"#utility.yul\":27325:27456   */\n      tag_608\n        /* \"#utility.yul\":27451:27455   */\n      dup2\n        /* \"#utility.yul\":27325:27456   */\n      tag_511\n      jump\t// in\n    tag_608:\n        /* \"#utility.yul\":27317:27456   */\n      swap1\n      pop\n        /* \"#utility.yul\":27215:27463   */\n      swap2\n      swap1\n      pop\n      jump\t// out\n        /* \"#utility.yul\":27469:27888   */\n    tag_92:\n      0x00\n        /* \"#utility.yul\":27673:27675   */\n      0x20\n        /* \"#utility.yul\":27662:27671   */\n      dup3\n        /* \"#utility.yul\":27658:27676   */\n      add\n        /* \"#utility.yul\":27650:27676   */\n      swap1\n      pop\n        /* \"#utility.yul\":27722:27731   */\n      dup2\n        /* \"#utility.yul\":27716:27720   */\n      dup2\n        /* \"#utility.yul\":27712:27732   */\n      sub\n        /* \"#utility.yul\":27708:27709   */\n      0x00\n        /* \"#utility.yul\":27697:27706   */\n      dup4\n        /* \"#utility.yul\":27693:27710   */\n      add\n        /* \"#utility.yul\":27686:27733   */\n      mstore\n        /* \"#utility.yul\":27750:27881   */\n      tag_610\n        /* \"#utility.yul\":27876:27880   */\n      dup2\n        /* \"#utility.yul\":27750:27881   */\n      tag_514\n      jump\t// in\n    tag_610:\n        /* \"#utility.yul\":27742:27881   */\n      swap1\n      pop\n        /* \"#utility.yul\":27640:27888   */\n      swap2\n      swap1\n      pop\n      jump\t// out\n        /* \"#utility.yul\":27894:28313   */\n    tag_100:\n      0x00\n        /* \"#utility.yul\":28098:28100   */\n      0x20\n        /* \"#utility.yul\":28087:28096   */\n      dup3\n        /* \"#utility.yul\":28083:28101   */\n      add\n        /* \"#utility.yul\":28075:28101   */\n      swap1\n      pop\n        /* \"#utility.yul\":28147:28156   */\n      dup2\n        /* \"#utility.yul\":28141:28145   */\n      dup2\n        /* \"#utility.yul\":28137:28157   */\n      sub\n        /* \"#utility.yul\":28133:28134   */\n      0x00\n        /* \"#utility.yul\":28122:28131   */\n      dup4\n        /* \"#utility.yul\":28118:28135   */\n      add\n        /* \"#utility.yul\":28111:28158   */\n      mstore\n        /* \"#utility.yul\":28175:28306   */\n      tag_612\n        /* \"#utility.yul\":28301:28305   */\n      dup2\n        /* \"#utility.yul\":28175:28306   */\n      tag_517\n      jump\t// in\n    tag_612:\n        /* \"#utility.yul\":28167:28306   */\n      swap1\n      pop\n        /* \"#utility.yul\":28065:28313   */\n      swap2\n      swap1\n      pop\n      jump\t// out\n        /* \"#utility.yul\":28319:28738   */\n    tag_120:\n      0x00\n        /* \"#utility.yul\":28523:28525   */\n      0x20\n        /* \"#utility.yul\":28512:28521   */\n      dup3\n        /* \"#utility.yul\":28508:28526   */\n      add\n        /* \"#utility.yul\":28500:28526   */\n      swap1\n      pop\n        /* \"#utility.yul\":28572:28581   */\n      dup2\n        /* \"#utility.yul\":28566:28570   */\n      dup2\n        /* \"#utility.yul\":28562:28582   */\n      sub\n        /* \"#utility.yul\":28558:28559   */\n      0x00\n        /* \"#utility.yul\":28547:28556   */\n      dup4\n        /* \"#utility.yul\":28543:28560   */\n      add\n        /* \"#utility.yul\":28536:28583   */\n      mstore\n        /* \"#utility.yul\":28600:28731   */\n      tag_614\n        /* \"#utility.yul\":28726:28730   */\n      dup2\n        /* \"#utility.yul\":28600:28731   */\n      tag_520\n      jump\t// in\n    tag_614:\n        /* \"#utility.yul\":28592:28731   */\n      swap1\n      pop\n        /* \"#utility.yul\":28490:28738   */\n      swap2\n      swap1\n      pop\n      jump\t// out\n        /* \"#utility.yul\":28744:29109   */\n    tag_38:\n      0x00\n        /* \"#utility.yul\":28921:28923   */\n      0x20\n        /* \"#utility.yul\":28910:28919   */\n      dup3\n        /* \"#utility.yul\":28906:28924   */\n      add\n        /* \"#utility.yul\":28898:28924   */\n      swap1\n      pop\n        /* \"#utility.yul\":28970:28979   */\n      dup2\n        /* \"#utility.yul\":28964:28968   */\n      dup2\n        /* \"#utility.yul\":28960:28980   */\n      sub\n        /* \"#utility.yul\":28956:28957   */\n      0x00\n        /* \"#utility.yul\":28945:28954   */\n      dup4\n        /* \"#utility.yul\":28941:28958   */\n      add\n        /* \"#utility.yul\":28934:28981   */\n      mstore\n        /* \"#utility.yul\":28998:29102   */\n      tag_616\n        /* \"#utility.yul\":29097:29101   */\n      dup2\n        /* \"#utility.yul\":29088:29094   */\n      dup5\n        /* \"#utility.yul\":28998:29102   */\n      tag_526\n      jump\t// in\n    tag_616:\n        /* \"#utility.yul\":28990:29102   */\n      swap1\n      pop\n        /* \"#utility.yul\":28888:29109   */\n      swap3\n      swap2\n      pop\n      pop\n      jump\t// out\n        /* \"#utility.yul\":29115:29337   */\n    tag_29:\n      0x00\n        /* \"#utility.yul\":29246:29248   */\n      0x20\n        /* \"#utility.yul\":29235:29244   */\n      dup3\n        /* \"#utility.yul\":29231:29249   */\n      add\n        /* \"#utility.yul\":29223:29249   */\n      swap1\n      pop\n        /* \"#utility.yul\":29259:29330   */\n      tag_618\n        /* \"#utility.yul\":29327:29328   */\n      0x00\n        /* \"#utility.yul\":29316:29325   */\n      dup4\n        /* \"#utility.yul\":29312:29329   */\n      add\n        /* \"#utility.yul\":29303:29309   */\n      dup5\n        /* \"#utility.yul\":29259:29330   */\n      tag_539\n      jump\t// in\n    tag_618:\n        /* \"#utility.yul\":29213:29337   */\n      swap3\n      swap2\n      pop\n      pop\n      jump\t// out\n        /* \"#utility.yul\":29343:29675   */\n    tag_44:\n      0x00\n        /* \"#utility.yul\":29502:29504   */\n      0x40\n        /* \"#utility.yul\":29491:29500   */\n      dup3\n        /* \"#utility.yul\":29487:29505   */\n      add\n        /* \"#utility.yul\":29479:29505   */\n      swap1\n      pop\n        /* \"#utility.yul\":29515:29586   */\n      tag_620\n        /* \"#utility.yul\":29583:29584   */\n      0x00\n        /* \"#utility.yul\":29572:29581   */\n      dup4\n        /* \"#utility.yul\":29568:29585   */\n      add\n        /* \"#utility.yul\":29559:29565   */\n      dup6\n        /* \"#utility.yul\":29515:29586   */\n      tag_539\n      jump\t// in\n    tag_620:\n        /* \"#utility.yul\":29596:29668   */\n      tag_621\n        /* \"#utility.yul\":29664:29666   */\n      0x20\n        /* \"#utility.yul\":29653:29662   */\n      dup4\n        /* \"#utility.yul\":29649:29667   */\n      add\n        /* \"#utility.yul\":29640:29646   */\n      dup5\n        /* \"#utility.yul\":29596:29668   */\n      tag_539\n      jump\t// in\n    tag_621:\n        /* \"#utility.yul\":29469:29675   */\n      swap4\n      swap3\n      pop\n      pop\n      pop\n      jump\t// out\n        /* \"#utility.yul\":29681:29899   */\n    tag_49:\n      0x00\n        /* \"#utility.yul\":29810:29812   */\n      0x20\n        /* \"#utility.yul\":29799:29808   */\n      dup3\n        /* \"#utility.yul\":29795:29813   */\n      add\n        /* \"#utility.yul\":29787:29813   */\n      swap1\n      pop\n        /* \"#utility.yul\":29823:29892   */\n      tag_623\n        /* \"#utility.yul\":29889:29890   */\n      0x00\n        /* \"#utility.yul\":29878:29887   */\n      dup4\n        /* \"#utility.yul\":29874:29891   */\n      add\n        /* \"#utility.yul\":29865:29871   */\n      dup5\n        /* \"#utility.yul\":29823:29892   */\n      tag_551\n      jump\t// in\n    tag_623:\n        /* \"#utility.yul\":29777:29899   */\n      swap3\n      swap2\n      pop\n      pop\n      jump\t// out\n        /* \"#utility.yul\":29905:31108   */\n    tag_58:\n      0x00\n        /* \"#utility.yul\":30282:30285   */\n      0x0120\n        /* \"#utility.yul\":30271:30280   */\n      dup3\n        /* \"#utility.yul\":30267:30286   */\n      add\n        /* \"#utility.yul\":30259:30286   */\n      swap1\n      pop\n        /* \"#utility.yul\":30296:30365   */\n      tag_625\n        /* \"#utility.yul\":30362:30363   */\n      0x00\n        /* \"#utility.yul\":30351:30360   */\n      dup4\n        /* \"#utility.yul\":30347:30364   */\n      add\n        /* \"#utility.yul\":30338:30344   */\n      dup13\n        /* \"#utility.yul\":30296:30365   */\n      tag_551\n      jump\t// in\n    tag_625:\n        /* \"#utility.yul\":30375:30445   */\n      tag_626\n        /* \"#utility.yul\":30441:30443   */\n      0x20\n        /* \"#utility.yul\":30430:30439   */\n      dup4\n        /* \"#utility.yul\":30426:30444   */\n      add\n        /* \"#utility.yul\":30417:30423   */\n      dup12\n        /* \"#utility.yul\":30375:30445   */\n      tag_551\n      jump\t// in\n    tag_626:\n        /* \"#utility.yul\":30455:30525   */\n      tag_627\n        /* \"#utility.yul\":30521:30523   */\n      0x40\n        /* \"#utility.yul\":30510:30519   */\n      dup4\n        /* \"#utility.yul\":30506:30524   */\n      add\n        /* \"#utility.yul\":30497:30503   */\n      dup11\n        /* \"#utility.yul\":30455:30525   */\n      tag_551\n      jump\t// in\n    tag_627:\n        /* \"#utility.yul\":30535:30605   */\n      tag_628\n        /* \"#utility.yul\":30601:30603   */\n      0x60\n        /* \"#utility.yul\":30590:30599   */\n      dup4\n        /* \"#utility.yul\":30586:30604   */\n      add\n        /* \"#utility.yul\":30577:30583   */\n      dup10\n        /* \"#utility.yul\":30535:30605   */\n      tag_562\n      jump\t// in\n    tag_628:\n        /* \"#utility.yul\":30615:30686   */\n      tag_629\n        /* \"#utility.yul\":30681:30684   */\n      0x80\n        /* \"#utility.yul\":30670:30679   */\n      dup4\n        /* \"#utility.yul\":30666:30685   */\n      add\n        /* \"#utility.yul\":30657:30663   */\n      dup9\n        /* \"#utility.yul\":30615:30686   */\n      tag_562\n      jump\t// in\n    tag_629:\n        /* \"#utility.yul\":30696:30787   */\n      tag_630\n        /* \"#utility.yul\":30782:30785   */\n      0xa0\n        /* \"#utility.yul\":30771:30780   */\n      dup4\n        /* \"#utility.yul\":30767:30786   */\n      add\n        /* \"#utility.yul\":30758:30764   */\n      dup8\n        /* \"#utility.yul\":30696:30787   */\n      tag_440\n      jump\t// in\n    tag_630:\n        /* \"#utility.yul\":30797:30864   */\n      tag_631\n        /* \"#utility.yul\":30859:30862   */\n      0xc0\n        /* \"#utility.yul\":30848:30857   */\n      dup4\n        /* \"#utility.yul\":30844:30863   */\n      add\n        /* \"#utility.yul\":30835:30841   */\n      dup7\n        /* \"#utility.yul\":30797:30864   */\n      tag_421\n      jump\t// in\n    tag_631:\n        /* \"#utility.yul\":30874:30947   */\n      tag_632\n        /* \"#utility.yul\":30942:30945   */\n      0xe0\n        /* \"#utility.yul\":30931:30940   */\n      dup4\n        /* \"#utility.yul\":30927:30946   */\n      add\n        /* \"#utility.yul\":30918:30924   */\n      dup6\n        /* \"#utility.yul\":30874:30947   */\n      tag_428\n      jump\t// in\n    tag_632:\n        /* \"#utility.yul\":30995:31004   */\n      dup2\n        /* \"#utility.yul\":30989:30993   */\n      dup2\n        /* \"#utility.yul\":30985:31005   */\n      sub\n        /* \"#utility.yul\":30979:30982   */\n      0x0100\n        /* \"#utility.yul\":30968:30977   */\n      dup4\n        /* \"#utility.yul\":30964:30983   */\n      add\n        /* \"#utility.yul\":30957:31006   */\n      mstore\n        /* \"#utility.yul\":31023:31101   */\n      tag_633\n        /* \"#utility.yul\":31096:31100   */\n      dup2\n        /* \"#utility.yul\":31087:31093   */\n      dup5\n        /* \"#utility.yul\":31023:31101   */\n      tag_453\n      jump\t// in\n    tag_633:\n        /* \"#utility.yul\":31015:31101   */\n      swap1\n      pop\n        /* \"#utility.yul\":30249:31108   */\n      swap11\n      swap10\n      pop\n      pop\n      pop\n      pop\n      pop\n      pop\n      pop\n      pop\n      pop\n      pop\n      jump\t// out\n        /* \"#utility.yul\":31114:31638   */\n    tag_186:\n      0x00\n      dup1\n        /* \"#utility.yul\":31254:31265   */\n      dup4\n        /* \"#utility.yul\":31241:31266   */\n      calldataload\n        /* \"#utility.yul\":31354:31355   */\n      0x01\n        /* \"#utility.yul\":31348:31352   */\n      0x20\n        /* \"#utility.yul\":31344:31356   */\n      sub\n        /* \"#utility.yul\":31333:31341   */\n      dup5\n        /* \"#utility.yul\":31317:31331   */\n      calldatasize\n        /* \"#utility.yul\":31313:31342   */\n      sub\n        /* \"#utility.yul\":31309:31357   */\n      sub\n        /* \"#utility.yul\":31289:31307   */\n      dup2\n        /* \"#utility.yul\":31285:31358   */\n      slt\n        /* \"#utility.yul\":31275:31277   */\n      tag_635\n      jumpi\n        /* \"#utility.yul\":31372:31373   */\n      0x00\n        /* \"#utility.yul\":31369:31370   */\n      dup1\n        /* \"#utility.yul\":31362:31374   */\n      revert\n        /* \"#utility.yul\":31275:31277   */\n    tag_635:\n        /* \"#utility.yul\":31407:31425   */\n      dup1\n        /* \"#utility.yul\":31397:31405   */\n      dup5\n        /* \"#utility.yul\":31393:31426   */\n      add\n        /* \"#utility.yul\":31385:31426   */\n      swap3\n      pop\n        /* \"#utility.yul\":31459:31463   */\n      dup3\n        /* \"#utility.yul\":31446:31464   */\n      calldataload\n        /* \"#utility.yul\":31436:31464   */\n      swap2\n      pop\n        /* \"#utility.yul\":31487:31505   */\n      0xffffffffffffffff\n        /* \"#utility.yul\":31479:31485   */\n      dup3\n        /* \"#utility.yul\":31476:31506   */\n      gt\n        /* \"#utility.yul\":31473:31475   */\n      iszero\n      tag_636\n      jumpi\n        /* \"#utility.yul\":31519:31520   */\n      0x00\n        /* \"#utility.yul\":31516:31517   */\n      dup1\n        /* \"#utility.yul\":31509:31521   */\n      revert\n        /* \"#utility.yul\":31473:31475   */\n    tag_636:\n        /* \"#utility.yul\":31550:31552   */\n      0x20\n        /* \"#utility.yul\":31544:31548   */\n      dup4\n        /* \"#utility.yul\":31540:31553   */\n      add\n        /* \"#utility.yul\":31532:31553   */\n      swap3\n      pop\n        /* \"#utility.yul\":31607:31611   */\n      0x01\n        /* \"#utility.yul\":31599:31605   */\n      dup3\n        /* \"#utility.yul\":31595:31612   */\n      mul\n        /* \"#utility.yul\":31579:31593   */\n      calldatasize\n        /* \"#utility.yul\":31575:31613   */\n      sub\n        /* \"#utility.yul\":31569:31573   */\n      dup4\n        /* \"#utility.yul\":31565:31614   */\n      sgt\n        /* \"#utility.yul\":31562:31564   */\n      iszero\n      tag_637\n      jumpi\n        /* \"#utility.yul\":31627:31628   */\n      0x00\n        /* \"#utility.yul\":31624:31625   */\n      dup1\n        /* \"#utility.yul\":31617:31629   */\n      revert\n        /* \"#utility.yul\":31562:31564   */\n    tag_637:\n        /* \"#utility.yul\":31205:31638   */\n      pop\n      swap3\n      pop\n      swap3\n      swap1\n      pop\n      jump\t// out\n        /* \"#utility.yul\":31644:31785   */\n    tag_474:\n      0x00\n        /* \"#utility.yul\":31716:31719   */\n      dup2\n        /* \"#utility.yul\":31708:31719   */\n      swap1\n      pop\n        /* \"#utility.yul\":31739:31742   */\n      dup2\n        /* \"#utility.yul\":31736:31737   */\n      0x00\n        /* \"#utility.yul\":31729:31743   */\n      mstore\n        /* \"#utility.yul\":31773:31777   */\n      0x20\n        /* \"#utility.yul\":31770:31771   */\n      0x00\n        /* \"#utility.yul\":31760:31778   */\n      keccak256\n        /* \"#utility.yul\":31752:31778   */\n      swap1\n      pop\n        /* \"#utility.yul\":31698:31785   */\n      swap2\n      swap1\n      pop\n      jump\t// out\n        /* \"#utility.yul\":31791:31890   */\n    tag_446:\n      0x00\n        /* \"#utility.yul\":31877:31882   */\n      dup2\n        /* \"#utility.yul\":31871:31883   */\n      mload\n        /* \"#utility.yul\":31861:31883   */\n      swap1\n      pop\n        /* \"#utility.yul\":31850:31890   */\n      swap2\n      swap1\n      pop\n      jump\t// out\n        /* \"#utility.yul\":31896:32055   */\n    tag_448:\n      0x00\n        /* \"#utility.yul\":32004:32010   */\n      dup3\n        /* \"#utility.yul\":31999:32002   */\n      dup3\n        /* \"#utility.yul\":31992:32011   */\n      mstore\n        /* \"#utility.yul\":32044:32048   */\n      0x20\n        /* \"#utility.yul\":32039:32042   */\n      dup3\n        /* \"#utility.yul\":32035:32049   */\n      add\n        /* \"#utility.yul\":32020:32049   */\n      swap1\n      pop\n        /* \"#utility.yul\":31982:32055   */\n      swap3\n      swap2\n      pop\n      pop\n      jump\t// out\n        /* \"#utility.yul\":32061:32230   */\n    tag_457:\n      0x00\n        /* \"#utility.yul\":32179:32185   */\n      dup3\n        /* \"#utility.yul\":32174:32177   */\n      dup3\n        /* \"#utility.yul\":32167:32186   */\n      mstore\n        /* \"#utility.yul\":32219:32223   */\n      0x20\n        /* \"#utility.yul\":32214:32217   */\n      dup3\n        /* \"#utility.yul\":32210:32224   */\n      add\n        /* \"#utility.yul\":32195:32224   */\n      swap1\n      pop\n        /* \"#utility.yul\":32157:32230   */\n      swap3\n      swap2\n      pop\n      pop\n      jump\t// out\n        /* \"#utility.yul\":32236:32384   */\n    tag_464:\n      0x00\n        /* \"#utility.yul\":32375:32378   */\n      dup2\n        /* \"#utility.yul\":32360:32378   */\n      swap1\n      pop\n        /* \"#utility.yul\":32350:32384   */\n      swap3\n      swap2\n      pop\n      pop\n      jump\t// out\n        /* \"#utility.yul\":32390:32695   */\n    tag_264:\n      0x00\n        /* \"#utility.yul\":32449:32469   */\n      tag_644\n        /* \"#utility.yul\":32467:32468   */\n      dup3\n        /* \"#utility.yul\":32449:32469   */\n      tag_542\n      jump\t// in\n    tag_644:\n        /* \"#utility.yul\":32444:32469   */\n      swap2\n      pop\n        /* \"#utility.yul\":32483:32503   */\n      tag_645\n        /* \"#utility.yul\":32501:32502   */\n      dup4\n        /* \"#utility.yul\":32483:32503   */\n      tag_542\n      jump\t// in\n    tag_645:\n        /* \"#utility.yul\":32478:32503   */\n      swap3\n      pop\n        /* \"#utility.yul\":32637:32638   */\n      dup3\n        /* \"#utility.yul\":32569:32635   */\n      0xffffffffffffffffffffffffffffffffffffffffffffffffffffffffffffffff\n        /* \"#utility.yul\":32565:32639   */\n      sub\n        /* \"#utility.yul\":32562:32563   */\n      dup3\n        /* \"#utility.yul\":32559:32640   */\n      gt\n        /* \"#utility.yul\":32556:32558   */\n      iszero\n      tag_646\n      jumpi\n        /* \"#utility.yul\":32643:32661   */\n      tag_647\n      tag_648\n      jump\t// in\n    tag_647:\n        /* \"#utility.yul\":32556:32558   */\n    tag_646:\n        /* \"#utility.yul\":32687:32688   */\n      dup3\n        /* \"#utility.yul\":32684:32685   */\n      dup3\n        /* \"#utility.yul\":32680:32689   */\n      add\n        /* \"#utility.yul\":32673:32689   */\n      swap1\n      pop\n        /* \"#utility.yul\":32434:32695   */\n      swap3\n      swap2\n      pop\n      pop\n      jump\t// out\n        /* \"#utility.yul\":32701:32892   */\n    tag_279:\n      0x00\n        /* \"#utility.yul\":32761:32781   */\n      tag_650\n        /* \"#utility.yul\":32779:32780   */\n      dup3\n        /* \"#utility.yul\":32761:32781   */\n      tag_542\n      jump\t// in\n    tag_650:\n        /* \"#utility.yul\":32756:32781   */\n      swap2\n      pop\n        /* \"#utility.yul\":32795:32815   */\n      tag_651\n        /* \"#utility.yul\":32813:32814   */\n      dup4\n        /* \"#utility.yul\":32795:32815   */\n      tag_542\n      jump\t// in\n    tag_651:\n        /* \"#utility.yul\":32790:32815   */\n      swap3\n      pop\n        /* \"#utility.yul\":32834:32835   */\n      dup3\n        /* \"#utility.yul\":32831:32832   */\n      dup3\n        /* \"#utility.yul\":32828:32836   */\n      lt\n        /* \"#utility.yul\":32825:32827   */\n      iszero\n      tag_652\n      jumpi\n        /* \"#utility.yul\":32839:32857   */\n      tag_653\n      tag_648\n      jump\t// in\n    tag_653:\n        /* \"#utility.yul\":32825:32827   */\n    tag_652:\n        /* \"#utility.yul\":32884:32885   */\n      dup3\n        /* \"#utility.yul\":32881:32882   */\n      dup3\n        /* \"#utility.yul\":32877:32886   */\n      sub\n        /* \"#utility.yul\":32869:32886   */\n      swap1\n      pop\n        /* \"#utility.yul\":32746:32892   */\n      swap3\n      swap2\n      pop\n      pop\n      jump\t// out\n        /* \"#utility.yul\":32898:32994   */\n    tag_411:\n      0x00\n        /* \"#utility.yul\":32964:32988   */\n      tag_655\n        /* \"#utility.yul\":32982:32987   */\n      dup3\n        /* \"#utility.yul\":32964:32988   */\n      tag_656\n      jump\t// in\n    tag_655:\n        /* \"#utility.yul\":32953:32988   */\n      swap1\n      pop\n        /* \"#utility.yul\":32943:32994   */\n      swap2\n      swap1\n      pop\n      jump\t// out\n        /* \"#utility.yul\":33000:33090   */\n    tag_420:\n      0x00\n        /* \"#utility.yul\":33077:33082   */\n      dup2\n        /* \"#utility.yul\":33070:33083   */\n      iszero\n        /* \"#utility.yul\":33063:33084   */\n      iszero\n        /* \"#utility.yul\":33052:33084   */\n      swap1\n      pop\n        /* \"#utility.yul\":33042:33090   */\n      swap2\n      swap1\n      pop\n      jump\t// out\n        /* \"#utility.yul\":33096:33173   */\n    tag_427:\n      0x00\n        /* \"#utility.yul\":33162:33167   */\n      dup2\n        /* \"#utility.yul\":33151:33167   */\n      swap1\n      pop\n        /* \"#utility.yul\":33141:33173   */\n      swap2\n      swap1\n      pop\n      jump\t// out\n        /* \"#utility.yul\":33179:33328   */\n    tag_659:\n      0x00\n        /* \"#utility.yul\":33255:33321   */\n      0xffffffff00000000000000000000000000000000000000000000000000000000\n        /* \"#utility.yul\":33248:33253   */\n      dup3\n        /* \"#utility.yul\":33244:33322   */\n      and\n        /* \"#utility.yul\":33233:33322   */\n      swap1\n      pop\n        /* \"#utility.yul\":33223:33328   */\n      swap2\n      swap1\n      pop\n      jump\t// out\n        /* \"#utility.yul\":33334:33485   */\n    tag_661:\n      0x00\n        /* \"#utility.yul\":33420:33425   */\n      dup2\n        /* \"#utility.yul\":33409:33425   */\n      swap1\n      pop\n        /* \"#utility.yul\":33426:33479   */\n      tag_663\n        /* \"#utility.yul\":33473:33478   */\n      dup3\n        /* \"#utility.yul\":33426:33479   */\n      tag_664\n      jump\t// in\n    tag_663:\n        /* \"#utility.yul\":33399:33485   */\n      swap2\n      swap1\n      pop\n      jump\t// out\n        /* \"#utility.yul\":33491:33617   */\n    tag_656:\n      0x00\n        /* \"#utility.yul\":33568:33610   */\n      0xffffffffffffffffffffffffffffffffffffffff\n        /* \"#utility.yul\":33561:33566   */\n      dup3\n        /* \"#utility.yul\":33557:33611   */\n      and\n        /* \"#utility.yul\":33546:33611   */\n      swap1\n      pop\n        /* \"#utility.yul\":33536:33617   */\n      swap2\n      swap1\n      pop\n      jump\t// out\n        /* \"#utility.yul\":33623:33700   */\n    tag_542:\n      0x00\n        /* \"#utility.yul\":33689:33694   */\n      dup2\n        /* \"#utility.yul\":33678:33694   */\n      swap1\n      pop\n        /* \"#utility.yul\":33668:33700   */\n      swap2\n      swap1\n      pop\n      jump\t// out\n        /* \"#utility.yul\":33706:33799   */\n    tag_550:\n      0x00\n        /* \"#utility.yul\":33782:33792   */\n      0xffffffff\n        /* \"#utility.yul\":33775:33780   */\n      dup3\n        /* \"#utility.yul\":33771:33793   */\n      and\n        /* \"#utility.yul\":33760:33793   */\n      swap1\n      pop\n        /* \"#utility.yul\":33750:33799   */\n      swap2\n      swap1\n      pop\n      jump\t// out\n        /* \"#utility.yul\":33805:33902   */\n    tag_561:\n      0x00\n        /* \"#utility.yul\":33881:33895   */\n      0xffffffffffff\n        /* \"#utility.yul\":33874:33879   */\n      dup3\n        /* \"#utility.yul\":33870:33896   */\n      and\n        /* \"#utility.yul\":33859:33896   */\n      swap1\n      pop\n        /* \"#utility.yul\":33849:33902   */\n      swap2\n      swap1\n      pop\n      jump\t// out\n        /* \"#utility.yul\":33908:34059   */\n    tag_439:\n      0x00\n        /* \"#utility.yul\":34009:34053   */\n      tag_670\n        /* \"#utility.yul\":34047:34052   */\n      dup3\n        /* \"#utility.yul\":34009:34053   */\n      tag_661\n      jump\t// in\n    tag_670:\n        /* \"#utility.yul\":33996:34053   */\n      swap1\n      pop\n        /* \"#utility.yul\":33986:34059   */\n      swap2\n      swap1\n      pop\n      jump\t// out\n        /* \"#utility.yul\":34065:34372   */\n    tag_450:\n        /* \"#utility.yul\":34133:34134   */\n      0x00\n        /* \"#utility.yul\":34143:34256   */\n    tag_672:\n        /* \"#utility.yul\":34157:34163   */\n      dup4\n        /* \"#utility.yul\":34154:34155   */\n      dup2\n        /* \"#utility.yul\":34151:34164   */\n      lt\n        /* \"#utility.yul\":34143:34256   */\n      iszero\n      tag_674\n      jumpi\n        /* \"#utility.yul\":34242:34243   */\n      dup1\n        /* \"#utility.yul\":34237:34240   */\n      dup3\n        /* \"#utility.yul\":34233:34244   */\n      add\n        /* \"#utility.yul\":34227:34245   */\n      mload\n        /* \"#utility.yul\":34223:34224   */\n      dup2\n        /* \"#utility.yul\":34218:34221   */\n      dup5\n        /* \"#utility.yul\":34214:34225   */\n      add\n        /* \"#utility.yul\":34207:34246   */\n      mstore\n        /* \"#utility.yul\":34179:34181   */\n      0x20\n        /* \"#utility.yul\":34176:34177   */\n      dup2\n        /* \"#utility.yul\":34172:34182   */\n      add\n        /* \"#utility.yul\":34167:34182   */\n      swap1\n      pop\n        /* \"#utility.yul\":34143:34256   */\n      jump(tag_672)\n    tag_674:\n        /* \"#utility.yul\":34274:34280   */\n      dup4\n        /* \"#utility.yul\":34271:34272   */\n      dup2\n        /* \"#utility.yul\":34268:34281   */\n      gt\n        /* \"#utility.yul\":34265:34267   */\n      iszero\n      tag_675\n      jumpi\n        /* \"#utility.yul\":34354:34355   */\n      0x00\n        /* \"#utility.yul\":34345:34351   */\n      dup5\n        /* \"#utility.yul\":34340:34343   */\n      dup5\n        /* \"#utility.yul\":34336:34352   */\n      add\n        /* \"#utility.yul\":34329:34356   */\n      mstore\n        /* \"#utility.yul\":34265:34267   */\n    tag_675:\n        /* \"#utility.yul\":34114:34372   */\n      pop\n      pop\n      pop\n      pop\n      jump\t// out\n        /* \"#utility.yul\":34378:34698   */\n    tag_138:\n      0x00\n        /* \"#utility.yul\":34459:34460   */\n      0x02\n        /* \"#utility.yul\":34453:34457   */\n      dup3\n        /* \"#utility.yul\":34449:34461   */\n      div\n        /* \"#utility.yul\":34439:34461   */\n      swap1\n      pop\n        /* \"#utility.yul\":34506:34507   */\n      0x01\n        /* \"#utility.yul\":34500:34504   */\n      dup3\n        /* \"#utility.yul\":34496:34508   */\n      and\n        /* \"#utility.yul\":34527:34545   */\n      dup1\n        /* \"#utility.yul\":34517:34519   */\n      tag_677\n      jumpi\n        /* \"#utility.yul\":34583:34587   */\n      0x7f\n        /* \"#utility.yul\":34575:34581   */\n      dup3\n        /* \"#utility.yul\":34571:34588   */\n      and\n        /* \"#utility.yul\":34561:34588   */\n      swap2\n      pop\n        /* \"#utility.yul\":34517:34519   */\n    tag_677:\n        /* \"#utility.yul\":34645:34647   */\n      0x20\n        /* \"#utility.yul\":34637:34643   */\n      dup3\n        /* \"#utility.yul\":34634:34648   */\n      lt\n        /* \"#utility.yul\":34614:34632   */\n      dup2\n        /* \"#utility.yul\":34611:34649   */\n      eq\n        /* \"#utility.yul\":34608:34610   */\n      iszero\n      tag_678\n      jumpi\n        /* \"#utility.yul\":34664:34682   */\n      tag_679\n      tag_680\n      jump\t// in\n    tag_679:\n        /* \"#utility.yul\":34608:34610   */\n    tag_678:\n        /* \"#utility.yul\":34429:34698   */\n      pop\n      swap2\n      swap1\n      pop\n      jump\t// out\n        /* \"#utility.yul\":34704:34937   */\n    tag_215:\n      0x00\n        /* \"#utility.yul\":34766:34790   */\n      tag_682\n        /* \"#utility.yul\":34784:34789   */\n      dup3\n        /* \"#utility.yul\":34766:34790   */\n      tag_542\n      jump\t// in\n    tag_682:\n        /* \"#utility.yul\":34757:34790   */\n      swap2\n      pop\n        /* \"#utility.yul\":34812:34878   */\n      0xffffffffffffffffffffffffffffffffffffffffffffffffffffffffffffffff\n        /* \"#utility.yul\":34805:34810   */\n      dup3\n        /* \"#utility.yul\":34802:34879   */\n      eq\n        /* \"#utility.yul\":34799:34801   */\n      iszero\n      tag_683\n      jumpi\n        /* \"#utility.yul\":34882:34900   */\n      tag_684\n      tag_648\n      jump\t// in\n    tag_684:\n        /* \"#utility.yul\":34799:34801   */\n    tag_683:\n        /* \"#utility.yul\":34929:34930   */\n      0x01\n        /* \"#utility.yul\":34922:34927   */\n      dup3\n        /* \"#utility.yul\":34918:34931   */\n      add\n        /* \"#utility.yul\":34911:34931   */\n      swap1\n      pop\n        /* \"#utility.yul\":34747:34937   */\n      swap2\n      swap1\n      pop\n      jump\t// out\n        /* \"#utility.yul\":34943:35043   */\n    tag_416:\n      0x00\n        /* \"#utility.yul\":35011:35037   */\n      tag_686\n        /* \"#utility.yul\":35031:35036   */\n      dup3\n        /* \"#utility.yul\":35011:35037   */\n      tag_687\n      jump\t// in\n    tag_686:\n        /* \"#utility.yul\":35000:35037   */\n      swap1\n      pop\n        /* \"#utility.yul\":34990:35043   */\n      swap2\n      swap1\n      pop\n      jump\t// out\n        /* \"#utility.yul\":35049:35128   */\n    tag_435:\n      0x00\n        /* \"#utility.yul\":35117:35122   */\n      dup2\n        /* \"#utility.yul\":35106:35122   */\n      swap1\n      pop\n        /* \"#utility.yul\":35096:35128   */\n      swap2\n      swap1\n      pop\n      jump\t// out\n        /* \"#utility.yul\":35134:35228   */\n    tag_687:\n      0x00\n        /* \"#utility.yul\":35202:35222   */\n      tag_690\n        /* \"#utility.yul\":35216:35221   */\n      dup3\n        /* \"#utility.yul\":35202:35222   */\n      tag_691\n      jump\t// in\n    tag_690:\n        /* \"#utility.yul\":35191:35222   */\n      swap1\n      pop\n        /* \"#utility.yul\":35181:35228   */\n      swap2\n      swap1\n      pop\n      jump\t// out\n        /* \"#utility.yul\":35234:35313   */\n    tag_547:\n      0x00\n        /* \"#utility.yul\":35302:35307   */\n      dup2\n        /* \"#utility.yul\":35291:35307   */\n      swap1\n      pop\n        /* \"#utility.yul\":35281:35313   */\n      swap2\n      swap1\n      pop\n      jump\t// out\n        /* \"#utility.yul\":35319:35413   */\n    tag_558:\n      0x00\n        /* \"#utility.yul\":35386:35407   */\n      tag_694\n        /* \"#utility.yul\":35401:35406   */\n      dup3\n        /* \"#utility.yul\":35386:35407   */\n      tag_695\n      jump\t// in\n    tag_694:\n        /* \"#utility.yul\":35375:35407   */\n      swap1\n      pop\n        /* \"#utility.yul\":35365:35413   */\n      swap2\n      swap1\n      pop\n      jump\t// out\n        /* \"#utility.yul\":35419:35599   */\n    tag_648:\n        /* \"#utility.yul\":35467:35544   */\n      0x4e487b7100000000000000000000000000000000000000000000000000000000\n        /* \"#utility.yul\":35464:35465   */\n      0x00\n        /* \"#utility.yul\":35457:35545   */\n      mstore\n        /* \"#utility.yul\":35564:35568   */\n      0x11\n        /* \"#utility.yul\":35561:35562   */\n      0x04\n        /* \"#utility.yul\":35554:35569   */\n      mstore\n        /* \"#utility.yul\":35588:35592   */\n      0x24\n        /* \"#utility.yul\":35585:35586   */\n      0x00\n        /* \"#utility.yul\":35578:35593   */\n      revert\n        /* \"#utility.yul\":35605:35785   */\n    tag_697:\n        /* \"#utility.yul\":35653:35730   */\n      0x4e487b7100000000000000000000000000000000000000000000000000000000\n        /* \"#utility.yul\":35650:35651   */\n      0x00\n        /* \"#utility.yul\":35643:35731   */\n      mstore\n        /* \"#utility.yul\":35750:35754   */\n      0x21\n        /* \"#utility.yul\":35747:35748   */\n      0x04\n        /* \"#utility.yul\":35740:35755   */\n      mstore\n        /* \"#utility.yul\":35774:35778   */\n      0x24\n        /* \"#utility.yul\":35771:35772   */\n      0x00\n        /* \"#utility.yul\":35764:35779   */\n      revert\n        /* \"#utility.yul\":35791:35971   */\n    tag_680:\n        /* \"#utility.yul\":35839:35916   */\n      0x4e487b7100000000000000000000000000000000000000000000000000000000\n        /* \"#utility.yul\":35836:35837   */\n      0x00\n        /* \"#utility.yul\":35829:35917   */\n      mstore\n        /* \"#utility.yul\":35936:35940   */\n      0x22\n        /* \"#utility.yul\":35933:35934   */\n      0x04\n        /* \"#utility.yul\":35926:35941   */\n      mstore\n        /* \"#utility.yul\":35960:35964   */\n      0x24\n        /* \"#utility.yul\":35957:35958   */\n      0x00\n        /* \"#utility.yul\":35950:35965   */\n      revert\n        /* \"#utility.yul\":35977:36079   */\n    tag_452:\n      0x00\n        /* \"#utility.yul\":36069:36071   */\n      0x1f\n        /* \"#utility.yul\":36065:36072   */\n      not\n        /* \"#utility.yul\":36060:36062   */\n      0x1f\n        /* \"#utility.yul\":36053:36058   */\n      dup4\n        /* \"#utility.yul\":36049:36063   */\n      add\n        /* \"#utility.yul\":36045:36073   */\n      and\n        /* \"#utility.yul\":36035:36073   */\n      swap1\n      pop\n        /* \"#utility.yul\":36025:36079   */\n      swap2\n      swap1\n      pop\n      jump\t// out\n        /* \"#utility.yul\":36085:36181   */\n    tag_695:\n      0x00\n        /* \"#utility.yul\":36168:36173   */\n      dup2\n        /* \"#utility.yul\":36163:36166   */\n      0xe0\n        /* \"#utility.yul\":36159:36174   */\n      shl\n        /* \"#utility.yul\":36138:36174   */\n      swap1\n      pop\n        /* \"#utility.yul\":36128:36181   */\n      swap2\n      swap1\n      pop\n      jump\t// out\n        /* \"#utility.yul\":36187:36281   */\n    tag_691:\n      0x00\n        /* \"#utility.yul\":36268:36273   */\n      dup2\n        /* \"#utility.yul\":36264:36266   */\n      0x60\n        /* \"#utility.yul\":36260:36274   */\n      shl\n        /* \"#utility.yul\":36239:36274   */\n      swap1\n      pop\n        /* \"#utility.yul\":36229:36281   */\n      swap2\n      swap1\n      pop\n      jump\t// out\n        /* \"#utility.yul\":36287:36412   */\n    tag_664:\n        /* \"#utility.yul\":36380:36381   */\n      0x03\n        /* \"#utility.yul\":36373:36378   */\n      dup2\n        /* \"#utility.yul\":36370:36382   */\n      lt\n        /* \"#utility.yul\":36360:36362   */\n      tag_704\n      jumpi\n        /* \"#utility.yul\":36386:36404   */\n      tag_705\n      tag_697\n      jump\t// in\n    tag_705:\n        /* \"#utility.yul\":36360:36362   */\n    tag_704:\n        /* \"#utility.yul\":36350:36412   */\n      pop\n      jump\t// out\n        /* \"#utility.yul\":36418:36540   */\n    tag_313:\n        /* \"#utility.yul\":36491:36515   */\n      tag_707\n        /* \"#utility.yul\":36509:36514   */\n      dup2\n        /* \"#utility.yul\":36491:36515   */\n      tag_411\n      jump\t// in\n    tag_707:\n        /* \"#utility.yul\":36484:36489   */\n      dup2\n        /* \"#utility.yul\":36481:36516   */\n      eq\n        /* \"#utility.yul\":36471:36473   */\n      tag_708\n      jumpi\n        /* \"#utility.yul\":36530:36531   */\n      0x00\n        /* \"#utility.yul\":36527:36528   */\n      dup1\n        /* \"#utility.yul\":36520:36532   */\n      revert\n        /* \"#utility.yul\":36471:36473   */\n    tag_708:\n        /* \"#utility.yul\":36461:36540   */\n      pop\n      jump\t// out\n        /* \"#utility.yul\":36546:36662   */\n    tag_322:\n        /* \"#utility.yul\":36616:36637   */\n      tag_710\n        /* \"#utility.yul\":36631:36636   */\n      dup2\n        /* \"#utility.yul\":36616:36637   */\n      tag_420\n      jump\t// in\n    tag_710:\n        /* \"#utility.yul\":36609:36614   */\n      dup2\n        /* \"#utility.yul\":36606:36638   */\n      eq\n        /* \"#utility.yul\":36596:36598   */\n      tag_711\n      jumpi\n        /* \"#utility.yul\":36652:36653   */\n      0x00\n        /* \"#utility.yul\":36649:36650   */\n      dup1\n        /* \"#utility.yul\":36642:36654   */\n      revert\n        /* \"#utility.yul\":36596:36598   */\n    tag_711:\n        /* \"#utility.yul\":36586:36662   */\n      pop\n      jump\t// out\n        /* \"#utility.yul\":36668:36788   */\n    tag_329:\n        /* \"#utility.yul\":36740:36763   */\n      tag_713\n        /* \"#utility.yul\":36757:36762   */\n      dup2\n        /* \"#utility.yul\":36740:36763   */\n      tag_659\n      jump\t// in\n    tag_713:\n        /* \"#utility.yul\":36733:36738   */\n      dup2\n        /* \"#utility.yul\":36730:36764   */\n      eq\n        /* \"#utility.yul\":36720:36722   */\n      tag_714\n      jumpi\n        /* \"#utility.yul\":36778:36779   */\n      0x00\n        /* \"#utility.yul\":36775:36776   */\n      dup1\n        /* \"#utility.yul\":36768:36780   */\n      revert\n        /* \"#utility.yul\":36720:36722   */\n    tag_714:\n        /* \"#utility.yul\":36710:36788   */\n      pop\n      jump\t// out\n        /* \"#utility.yul\":36794:36913   */\n    tag_333:\n        /* \"#utility.yul\":36887:36888   */\n      0x03\n        /* \"#utility.yul\":36880:36885   */\n      dup2\n        /* \"#utility.yul\":36877:36889   */\n      lt\n        /* \"#utility.yul\":36867:36869   */\n      tag_716\n      jumpi\n        /* \"#utility.yul\":36903:36904   */\n      0x00\n        /* \"#utility.yul\":36900:36901   */\n      dup1\n        /* \"#utility.yul\":36893:36905   */\n      revert\n        /* \"#utility.yul\":36867:36869   */\n    tag_716:\n        /* \"#utility.yul\":36857:36913   */\n      pop\n      jump\t// out\n        /* \"#utility.yul\":36919:37041   */\n    tag_340:\n        /* \"#utility.yul\":36992:37016   */\n      tag_718\n        /* \"#utility.yul\":37010:37015   */\n      dup2\n        /* \"#utility.yul\":36992:37016   */\n      tag_542\n      jump\t// in\n    tag_718:\n        /* \"#utility.yul\":36985:36990   */\n      dup2\n        /* \"#utility.yul\":36982:37017   */\n      eq\n        /* \"#utility.yul\":36972:36974   */\n      tag_719\n      jumpi\n        /* \"#utility.yul\":37031:37032   */\n      0x00\n        /* \"#utility.yul\":37028:37029   */\n      dup1\n        /* \"#utility.yul\":37021:37033   */\n      revert\n        /* \"#utility.yul\":36972:36974   */\n    tag_719:\n        /* \"#utility.yul\":36962:37041   */\n      pop\n      jump\t// out\n        /* \"#utility.yul\":37047:37167   */\n    tag_347:\n        /* \"#utility.yul\":37119:37142   */\n      tag_721\n        /* \"#utility.yul\":37136:37141   */\n      dup2\n        /* \"#utility.yul\":37119:37142   */\n      tag_550\n      jump\t// in\n    tag_721:\n        /* \"#utility.yul\":37112:37117   */\n      dup2\n        /* \"#utility.yul\":37109:37143   */\n      eq\n        /* \"#utility.yul\":37099:37101   */\n      tag_722\n      jumpi\n        /* \"#utility.yul\":37157:37158   */\n      0x00\n        /* \"#utility.yul\":37154:37155   */\n      dup1\n        /* \"#utility.yul\":37147:37159   */\n      revert\n        /* \"#utility.yul\":37099:37101   */\n    tag_722:\n        /* \"#utility.yul\":37089:37167   */\n      pop\n      jump\t// out\n        /* \"#utility.yul\":37173:37293   */\n    tag_351:\n        /* \"#utility.yul\":37245:37268   */\n      tag_724\n        /* \"#utility.yul\":37262:37267   */\n      dup2\n        /* \"#utility.yul\":37245:37268   */\n      tag_561\n      jump\t// in\n    tag_724:\n        /* \"#utility.yul\":37238:37243   */\n      dup2\n        /* \"#utility.yul\":37235:37269   */\n      eq\n        /* \"#utility.yul\":37225:37227   */\n      tag_725\n      jumpi\n        /* \"#utility.yul\":37283:37284   */\n      0x00\n        /* \"#utility.yul\":37280:37281   */\n      dup1\n        /* \"#utility.yul\":37273:37285   */\n      revert\n        /* \"#utility.yul\":37225:37227   */\n    tag_725:\n        /* \"#utility.yul\":37215:37293   */\n      pop\n      jump\t// out\n\n    auxdata: 0xa2646970667358221220119224f607694ba6e8c1eb4292cec349d47a0b9d6893cb836b35b63755e23c6264736f6c63430008000033\n}\n",
				"bytecode": {
					"linkReferences": {},
					"object": "608060405234801561001057600080fd5b506001600081905550613e09806100286000396000f3fe608060405234801561001057600080fd5b50600436106100cf5760003560e01c806369c5ecb01161008c578063d19f60c811610066578063d19f60c814610265578063d5fdfe8714610295578063e9dc6375146102c5578063f0f330f0146102f5576100cf565b806369c5ecb0146101e1578063ab541a85146101fd578063cc2d31ed14610235576100cf565b806301ffc9a7146100d457806302349713146101045780630c134959146101345780630f79ab391461015057806331dd2a201461018057806345e9c1f4146101b1575b600080fd5b6100ee60048036038101906100e99190612cdc565b610325565b6040516100fb9190613670565b60405180910390f35b61011e60048036038101906101199190612ac9565b61045f565b60405161012b919061388f565b60405180910390f35b61014e60048036038101906101499190612b54565b610473565b005b61016a60048036038101906101659190612ac9565b610b82565b604051610177919061386d565b60405180910390f35b61019a60048036038101906101959190612c3b565b610e77565b6040516101a89291906138aa565b60405180910390f35b6101cb60048036038101906101c69190612ac9565b610ec5565b6040516101d891906138d3565b60405180910390f35b6101fb60048036038101906101f69190612bd4565b610fee565b005b61021760048036038101906102129190612ac9565b611663565b60405161022c999897969594939291906138ee565b60405180910390f35b61024f600480360381019061024a9190612a4c565b6117b4565b60405161025c919061388f565b60405180910390f35b61027f600480360381019061027a9190612a75565b6117cc565b60405161028c919061388f565b60405180910390f35b6102af60048036038101906102aa9190612a4c565b611da3565b6040516102bc919061388f565b60405180910390f35b6102df60048036038101906102da9190612ac9565b611dec565b6040516102ec919061368b565b60405180910390f35b61030f600480360381019061030a9190612b05565b612250565b60405161031c91906138d3565b60405180910390f35b60007f2910c678000000000000000000000000000000000000000000000000000000007bffffffffffffffffffffffffffffffffffffffffffffffffffffffff1916827bffffffffffffffffffffffffffffffffffffffffffffffffffffffff191614806103f057507fe9dc6375000000000000000000000000000000000000000000000000000000007bffffffffffffffffffffffffffffffffffffffffffffffffffffffff1916827bffffffffffffffffffffffffffffffffffffffffffffffffffffffff1916145b8061045857507f01ffc9a7000000000000000000000000000000000000000000000000000000007bffffffffffffffffffffffffffffffffffffffffffffffffffffffff1916827bffffffffffffffffffffffffffffffffffffffffffffffffffffffff1916145b9050919050565b600061046b838361228f565b905092915050565b600160008673ffffffffffffffffffffffffffffffffffffffff1673ffffffffffffffffffffffffffffffffffffffff1681526020019081526020016000205484106104f4576040517f08c379a00000000000000000000000000000000000000000000000000000000081526004016104eb9061380d565b60405180910390fd5b6000600260008773ffffffffffffffffffffffffffffffffffffffff1673ffffffffffffffffffffffffffffffffffffffff16815260200190815260200160002060008681526020019081526020016000209050600081600001600c9054906101000a900465ffffffffffff1665ffffffffffff16146105cf574281600001600c9054906101000a900465ffffffffffff1665ffffffffffff16106105ce576040517f08c379a00000000000000000000000000000000000000000000000000000000081526004016105c59061374d565b60405180910390fd5b5b60008160000160129054906101000a900465ffffffffffff1665ffffffffffff161461065757428160000160129054906101000a900465ffffffffffff1665ffffffffffff161015610656576040517f08c379a000000000000000000000000000000000000000000000000000000000815260040161064d9061382d565b60405180910390fd5b5b60008160000160089054906101000a900463ffffffff1663ffffffff1614610779578060000160089054906101000a900463ffffffff1663ffffffff16600360008873ffffffffffffffffffffffffffffffffffffffff1673ffffffffffffffffffffffffffffffffffffffff168152602001908152602001600020600087815260200190815260200160002060003373ffffffffffffffffffffffffffffffffffffffff1673ffffffffffffffffffffffffffffffffffffffff16815260200190815260200160002060009054906101000a900463ffffffff1663ffffffff1610610778576040517f08c379a000000000000000000000000000000000000000000000000000000000815260040161076f906137ed565b60405180910390fd5b5b60008160000160049054906101000a900463ffffffff1663ffffffff1614610812578060000160049054906101000a900463ffffffff1663ffffffff168160000160009054906101000a900463ffffffff1663ffffffff1610610811576040517f08c379a0000000000000000000000000000000000000000000000000000000008152600401610808906137ad565b60405180910390fd5b5b60008160010154146109dc5760003383604051602001610833929190613584565b60405160208183030381529060405280519060200120905061089b858580806020026020016040519081016040528093929190818152602001838360200280828437600081840152601f19601f8201169050808301925050505050505083600101548361253b565b6108da576040517f08c379a00000000000000000000000000000000000000000000000000000000081526004016108d1906137cd565b60405180910390fd5b60008363ffffffff16146109da576000600360008973ffffffffffffffffffffffffffffffffffffffff1673ffffffffffffffffffffffffffffffffffffffff168152602001908152602001600020600088815260200190815260200160002060003373ffffffffffffffffffffffffffffffffffffffff1673ffffffffffffffffffffffffffffffffffffffff16815260200190815260200160002060009054906101000a900463ffffffff1663ffffffff1690508363ffffffff1681106109d8576040517f08c379a00000000000000000000000000000000000000000000000000000000081526004016109cf9061384d565b60405180910390fd5b505b505b60008673ffffffffffffffffffffffffffffffffffffffff16632928ca58336040518263ffffffff1660e01b8152600401610a179190613655565b602060405180830381600087803b158015610a3157600080fd5b505af1158015610a45573d6000803e3d6000fd5b505050506040513d601f19601f82011682018060405250810190610a699190612d2e565b9050610a76878783612552565b600360008873ffffffffffffffffffffffffffffffffffffffff1673ffffffffffffffffffffffffffffffffffffffff168152602001908152602001600020600087815260200190815260200160002060003373ffffffffffffffffffffffffffffffffffffffff1673ffffffffffffffffffffffffffffffffffffffff168152602001908152602001600020600081819054906101000a900463ffffffff168092919060010191906101000a81548163ffffffff021916908363ffffffff1602179055505081600001600081819054906101000a900463ffffffff168092919060010191906101000a81548163ffffffff021916908363ffffffff1602179055505050505050505050565b610b8a6127db565b600160008473ffffffffffffffffffffffffffffffffffffffff1673ffffffffffffffffffffffffffffffffffffffff168152602001908152602001600020548210610c0b576040517f08c379a0000000000000000000000000000000000000000000000000000000008152600401610c029061380d565b60405180910390fd5b600260008473ffffffffffffffffffffffffffffffffffffffff1673ffffffffffffffffffffffffffffffffffffffff1681526020019081526020016000206000838152602001908152602001600020604051806101200160405290816000820160009054906101000a900463ffffffff1663ffffffff1663ffffffff1681526020016000820160049054906101000a900463ffffffff1663ffffffff1663ffffffff1681526020016000820160089054906101000a900463ffffffff1663ffffffff1663ffffffff16815260200160008201600c9054906101000a900465ffffffffffff1665ffffffffffff1665ffffffffffff1681526020016000820160129054906101000a900465ffffffffffff1665ffffffffffff1665ffffffffffff1681526020016000820160189054906101000a900460ff166002811115610d7c577f4e487b7100000000000000000000000000000000000000000000000000000000600052602160045260246000fd5b6002811115610db4577f4e487b7100000000000000000000000000000000000000000000000000000000600052602160045260246000fd5b81526020016000820160199054906101000a900460ff1615151515815260200160018201548152602001600282018054610ded90613ba8565b80601f0160208091040260200160405190810160405280929190818152602001828054610e1990613ba8565b8015610e665780601f10610e3b57610100808354040283529160200191610e66565b820191906000526020600020905b815481529060010190602001808311610e4957829003601f168201915b505050505081525050905092915050565b60046020528260005260406000206020528160005260406000208181548110610e9f57600080fd5b906000526020600020906002020160009250925050508060000154908060010154905082565b6000600160008473ffffffffffffffffffffffffffffffffffffffff1673ffffffffffffffffffffffffffffffffffffffff168152602001908152602001600020548210610f48576040517f08c379a0000000000000000000000000000000000000000000000000000000008152600401610f3f9061380d565b60405180910390fd5b600360008473ffffffffffffffffffffffffffffffffffffffff1673ffffffffffffffffffffffffffffffffffffffff168152602001908152602001600020600083815260200190815260200160002060003373ffffffffffffffffffffffffffffffffffffffff1673ffffffffffffffffffffffffffffffffffffffff16815260200190815260200160002060009054906101000a900463ffffffff16905092915050565b8260008190508073ffffffffffffffffffffffffffffffffffffffff166324d7806c336040518263ffffffff1660e01b815260040161102d9190613655565b60206040518083038186803b15801561104557600080fd5b505afa158015611059573d6000803e3d6000fd5b505050506040513d601f19601f8201168201806040525081019061107d9190612cb3565b6110bc576040517f08c379a00000000000000000000000000000000000000000000000000000000081526004016110b39061370d565b60405180910390fd5b8260200160208101906110cf9190612d57565b63ffffffff16600260008773ffffffffffffffffffffffffffffffffffffffff1673ffffffffffffffffffffffffffffffffffffffff168152602001908152602001600020600086815260200190815260200160002060000160049054906101000a900463ffffffff1663ffffffff161461117f576040517f08c379a0000000000000000000000000000000000000000000000000000000008152600401611176906136cd565b60405180910390fd5b8260400160208101906111929190612d57565b63ffffffff16600260008773ffffffffffffffffffffffffffffffffffffffff1673ffffffffffffffffffffffffffffffffffffffff168152602001908152602001600020600086815260200190815260200160002060000160089054906101000a900463ffffffff1663ffffffff161115611243576040517f08c379a000000000000000000000000000000000000000000000000000000000815260040161123a9061378d565b60405180910390fd5b60008360800160208101906112589190612d80565b65ffffffffffff16148061129f575082608001602081019061127a9190612d80565b65ffffffffffff168360600160208101906112959190612d80565b65ffffffffffff16105b6112de576040517f08c379a00000000000000000000000000000000000000000000000000000000081526004016112d5906136ad565b60405180910390fd5b604051806101200160405280600260008873ffffffffffffffffffffffffffffffffffffffff1673ffffffffffffffffffffffffffffffffffffffff168152602001908152602001600020600087815260200190815260200160002060000160009054906101000a900463ffffffff1663ffffffff16815260200184602001602081019061136c9190612d57565b63ffffffff16815260200184604001602081019061138a9190612d57565b63ffffffff1681526020018460600160208101906113a89190612d80565b65ffffffffffff1681526020018460800160208101906113c89190612d80565b65ffffffffffff1681526020018460a00160208101906113e89190612d05565b6002811115611420577f4e487b7100000000000000000000000000000000000000000000000000000000600052602160045260246000fd5b81526020018460c00160208101906114389190612c8a565b151581526020018460e0013581526020018480610100019061145a9190613982565b8080601f016020809104026020016040519081016040528093929190818152602001838380828437600081840152601f19601f82011690508083019250505050505050815250600260008773ffffffffffffffffffffffffffffffffffffffff1673ffffffffffffffffffffffffffffffffffffffff168152602001908152602001600020600086815260200190815260200160002060008201518160000160006101000a81548163ffffffff021916908363ffffffff16021790555060208201518160000160046101000a81548163ffffffff021916908363ffffffff16021790555060408201518160000160086101000a81548163ffffffff021916908363ffffffff160217905550606082015181600001600c6101000a81548165ffffffffffff021916908365ffffffffffff16021790555060808201518160000160126101000a81548165ffffffffffff021916908365ffffffffffff16021790555060a08201518160000160186101000a81548160ff0219169083600281111561160c577f4e487b7100000000000000000000000000000000000000000000000000000000600052602160045260246000fd5b021790555060c08201518160000160196101000a81548160ff02191690831515021790555060e08201518160010155610100820151816002019080519060200190611658929190612886565b509050505050505050565b6002602052816000526040600020602052806000526040600020600091509150508060000160009054906101000a900463ffffffff16908060000160049054906101000a900463ffffffff16908060000160089054906101000a900463ffffffff169080600001600c9054906101000a900465ffffffffffff16908060000160129054906101000a900465ffffffffffff16908060000160189054906101000a900460ff16908060000160199054906101000a900460ff169080600101549080600201805461173190613ba8565b80601f016020809104026020016040519081016040528092919081815260200182805461175d90613ba8565b80156117aa5780601f1061177f576101008083540402835291602001916117aa565b820191906000526020600020905b81548152906001019060200180831161178d57829003601f168201915b5050505050905089565b60016020528060005260406000206000915090505481565b60008260008190508073ffffffffffffffffffffffffffffffffffffffff166324d7806c336040518263ffffffff1660e01b815260040161180d9190613655565b60206040518083038186803b15801561182557600080fd5b505afa158015611839573d6000803e3d6000fd5b505050506040513d601f19601f8201168201806040525081019061185d9190612cb3565b61189c576040517f08c379a00000000000000000000000000000000000000000000000000000000081526004016118939061370d565b60405180910390fd5b60008460800160208101906118b19190612d80565b65ffffffffffff1614806118f857508360800160208101906118d39190612d80565b65ffffffffffff168460600160208101906118ee9190612d80565b65ffffffffffff16105b611937576040517f08c379a000000000000000000000000000000000000000000000000000000000815260040161192e906136ad565b60405180910390fd5b61271084602001602081019061194d9190612d57565b63ffffffff1610611993576040517f08c379a000000000000000000000000000000000000000000000000000000000815260040161198a906136ed565b60405180910390fd5b6000600160008773ffffffffffffffffffffffffffffffffffffffff1673ffffffffffffffffffffffffffffffffffffffff168152602001908152602001600020549050600160008773ffffffffffffffffffffffffffffffffffffffff1673ffffffffffffffffffffffffffffffffffffffff1681526020019081526020016000206000815480929190611a2790613bda565b9190505550604051806101200160405280600063ffffffff168152602001866020016020810190611a589190612d57565b63ffffffff168152602001866040016020810190611a769190612d57565b63ffffffff168152602001866060016020810190611a949190612d80565b65ffffffffffff168152602001866080016020810190611ab49190612d80565b65ffffffffffff1681526020018660a0016020810190611ad49190612d05565b6002811115611b0c577f4e487b7100000000000000000000000000000000000000000000000000000000600052602160045260246000fd5b81526020018660c0016020810190611b249190612c8a565b151581526020018660e00135815260200186806101000190611b469190613982565b8080601f016020809104026020016040519081016040528093929190818152602001838380828437600081840152601f19601f82011690508083019250505050505050815250600260008873ffffffffffffffffffffffffffffffffffffffff1673ffffffffffffffffffffffffffffffffffffffff168152602001908152602001600020600083815260200190815260200160002060008201518160000160006101000a81548163ffffffff021916908363ffffffff16021790555060208201518160000160046101000a81548163ffffffff021916908363ffffffff16021790555060408201518160000160086101000a81548163ffffffff021916908363ffffffff160217905550606082015181600001600c6101000a81548165ffffffffffff021916908365ffffffffffff16021790555060808201518160000160126101000a81548165ffffffffffff021916908365ffffffffffff16021790555060a08201518160000160186101000a81548160ff02191690836002811115611cf8577f4e487b7100000000000000000000000000000000000000000000000000000000600052602160045260246000fd5b021790555060c08201518160000160196101000a81548160ff02191690831515021790555060e08201518160010155610100820151816002019080519060200190611d44929190612886565b50905050808673ffffffffffffffffffffffffffffffffffffffff167fd02727da4c6c6c111e00310108209a4de39f6817414df43ca1a10730d47c6a3433604051611d8f9190613655565b60405180910390a380935050505092915050565b6000600160008373ffffffffffffffffffffffffffffffffffffffff1673ffffffffffffffffffffffffffffffffffffffff168152602001908152602001600020549050919050565b60606000611dfa848461228f565b90506000604051806020016040528060008152509050600260008673ffffffffffffffffffffffffffffffffffffffff1673ffffffffffffffffffffffffffffffffffffffff168152602001908152602001600020600083815260200190815260200160002060000160199054906101000a900460ff16611f935783604051602001611e86919061362f565b6040516020818303038152906040529050600280811115611ed0577f4e487b7100000000000000000000000000000000000000000000000000000000600052602160045260246000fd5b600260008773ffffffffffffffffffffffffffffffffffffffff1673ffffffffffffffffffffffffffffffffffffffff168152602001908152602001600020600084815260200190815260200160002060000160189054906101000a900460ff166002811115611f69577f4e487b7100000000000000000000000000000000000000000000000000000000600052602160045260246000fd5b1415611f925780604051602001611f80919061360d565b60405160208183030381529060405290505b5b6000604051806020016040528060008152509050600280811115611fe0577f4e487b7100000000000000000000000000000000000000000000000000000000600052602160045260246000fd5b600260008873ffffffffffffffffffffffffffffffffffffffff1673ffffffffffffffffffffffffffffffffffffffff168152602001908152602001600020600085815260200190815260200160002060000160189054906101000a900460ff166002811115612079577f4e487b7100000000000000000000000000000000000000000000000000000000600052602160045260246000fd5b14156120bc576040518060400160405280600781526020017f697066733a2f2f0000000000000000000000000000000000000000000000000081525090506121cf565b600160028111156120f6577f4e487b7100000000000000000000000000000000000000000000000000000000600052602160045260246000fd5b600260008873ffffffffffffffffffffffffffffffffffffffff1673ffffffffffffffffffffffffffffffffffffffff168152602001908152602001600020600085815260200190815260200160002060000160189054906101000a900460ff16600281111561218f577f4e487b7100000000000000000000000000000000000000000000000000000000600052602160045260246000fd5b14156121ce576040518060400160405280601481526020017f68747470733a2f2f617277656176652e6e65742f00000000000000000000000081525090505b5b80600260008873ffffffffffffffffffffffffffffffffffffffff1673ffffffffffffffffffffffffffffffffffffffff168152602001908152602001600020600085815260200190815260200160002060020183604051602001612236939291906135dc565b604051602081830303815290604052935050505092915050565b6003602052826000526040600020602052816000526040600020602052806000526040600020600092509250509054906101000a900463ffffffff1681565b600080600160008573ffffffffffffffffffffffffffffffffffffffff1673ffffffffffffffffffffffffffffffffffffffff1681526020019081526020016000205411612312576040517f08c379a00000000000000000000000000000000000000000000000000000000081526004016123099061376d565b60405180910390fd5b6000600190505b600160008573ffffffffffffffffffffffffffffffffffffffff1673ffffffffffffffffffffffffffffffffffffffff1681526020019081526020016000205481116124f9576000600460008673ffffffffffffffffffffffffffffffffffffffff1673ffffffffffffffffffffffffffffffffffffffff1681526020019081526020016000206000838152602001908152602001600020805480602002602001604051908101604052809291908181526020016000905b82821015612417578382906000526020600020906002020160405180604001604052908160008201548152602001600182015481525050815260200190600101906123d1565b505050509050600080600090505b82518110156124e3576000838281518110612469577f4e487b7100000000000000000000000000000000000000000000000000000000600052603260045260246000fd5b60200260200101519050806000015187101561248557506124e3565b806000015187101580156124ab5750806020015181600001516124a89190613a26565b87105b156124bd578495505050505050612535565b8060200151836124cd9190613a26565b92505080806124db90613bda565b915050612425565b50505080806124f190613bda565b915050612319565b506040517f08c379a000000000000000000000000000000000000000000000000000000000815260040161252c9061372d565b60405180910390fd5b92915050565b6000826125488584612702565b1490509392505050565b6000600460008573ffffffffffffffffffffffffffffffffffffffff1673ffffffffffffffffffffffffffffffffffffffff1681526020019081526020016000206000848152602001908152602001600020905060008180549050141561260e5780604051806040016040528084815260200160018152509080600181540180825580915050600190039060005260206000209060020201600090919091909150600082015181600001556020820151816001015550506126fc565b600081600183805490506126229190613a7c565b81548110612659577f4e487b7100000000000000000000000000000000000000000000000000000000600052603260045260246000fd5b90600052602060002090600202019050828160010154826000015461267e9190613a26565b14156126a35780600101600081548092919061269990613bda565b91905055506126fa565b81604051806040016040528085815260200160018152509080600181540180825580915050600190039060005260206000209060020201600090919091909150600082015181600001556020820151816001015550505b505b50505050565b60008082905060005b84518110156127d057600085828151811061274f577f4e487b7100000000000000000000000000000000000000000000000000000000600052603260045260246000fd5b602002602001015190508083116127905782816040516020016127739291906135b0565b6040516020818303038152906040528051906020012092506127bc565b80836040516020016127a39291906135b0565b6040516020818303038152906040528051906020012092505b5080806127c890613bda565b91505061270b565b508091505092915050565b604051806101200160405280600063ffffffff168152602001600063ffffffff168152602001600063ffffffff168152602001600065ffffffffffff168152602001600065ffffffffffff16815260200160006002811115612866577f4e487b7100000000000000000000000000000000000000000000000000000000600052602160045260246000fd5b815260200160001515815260200160008019168152602001606081525090565b82805461289290613ba8565b90600052602060002090601f0160209004810192826128b457600085556128fb565b82601f106128cd57805160ff19168380011785556128fb565b828001600101855582156128fb579182015b828111156128fa5782518255916020019190600101906128df565b5b509050612908919061290c565b5090565b5b8082111561292557600081600090555060010161290d565b5090565b60008135905061293881613d39565b92915050565b60008083601f84011261295057600080fd5b8235905067ffffffffffffffff81111561296957600080fd5b60208301915083602082028301111561298157600080fd5b9250929050565b60008135905061299781613d50565b92915050565b6000815190506129ac81613d50565b92915050565b6000813590506129c181613d67565b92915050565b6000813590506129d681613d7e565b92915050565b600061012082840312156129ef57600080fd5b81905092915050565b600081359050612a0781613d8e565b92915050565b600081519050612a1c81613d8e565b92915050565b600081359050612a3181613da5565b92915050565b600081359050612a4681613dbc565b92915050565b600060208284031215612a5e57600080fd5b6000612a6c84828501612929565b91505092915050565b60008060408385031215612a8857600080fd5b6000612a9685828601612929565b925050602083013567ffffffffffffffff811115612ab357600080fd5b612abf858286016129dc565b9150509250929050565b60008060408385031215612adc57600080fd5b6000612aea85828601612929565b9250506020612afb858286016129f8565b9150509250929050565b600080600060608486031215612b1a57600080fd5b6000612b2886828701612929565b9350506020612b39868287016129f8565b9250506040612b4a86828701612929565b9150509250925092565b600080600080600060808688031215612b6c57600080fd5b6000612b7a88828901612929565b9550506020612b8b888289016129f8565b945050604086013567ffffffffffffffff811115612ba857600080fd5b612bb48882890161293e565b93509350506060612bc788828901612a22565b9150509295509295909350565b600080600060608486031215612be957600080fd5b6000612bf786828701612929565b9350506020612c08868287016129f8565b925050604084013567ffffffffffffffff811115612c2557600080fd5b612c31868287016129dc565b9150509250925092565b600080600060608486031215612c5057600080fd5b6000612c5e86828701612929565b9350506020612c6f868287016129f8565b9250506040612c80868287016129f8565b9150509250925092565b600060208284031215612c9c57600080fd5b6000612caa84828501612988565b91505092915050565b600060208284031215612cc557600080fd5b6000612cd38482850161299d565b91505092915050565b600060208284031215612cee57600080fd5b6000612cfc848285016129b2565b91505092915050565b600060208284031215612d1757600080fd5b6000612d25848285016129c7565b91505092915050565b600060208284031215612d4057600080fd5b6000612d4e84828501612a0d565b91505092915050565b600060208284031215612d6957600080fd5b6000612d7784828501612a22565b91505092915050565b600060208284031215612d9257600080fd5b6000612da084828501612a37565b91505092915050565b612db281613ab0565b82525050565b612dc9612dc482613ab0565b613c23565b82525050565b612dd881613ac2565b82525050565b612de781613ac2565b82525050565b612df681613ace565b82525050565b612e0581613ace565b82525050565b612e1c612e1782613ace565b613c35565b82525050565b612e2b81613b63565b82525050565b612e3a81613b63565b82525050565b6000612e4b826139ee565b612e5581856139f9565b9350612e65818560208601613b75565b612e6e81613cfa565b840191505092915050565b6000612e84826139ee565b612e8e8185613a0a565b9350612e9e818560208601613b75565b612ea781613cfa565b840191505092915050565b6000612ebd826139ee565b612ec78185613a1b565b9350612ed7818560208601613b75565b80840191505092915050565b60008154612ef081613ba8565b612efa8186613a1b565b94506001821660008114612f155760018114612f2657612f59565b60ff19831686528186019350612f59565b612f2f856139d9565b60005b83811015612f5157815481890152600182019150602081019050612f32565b838801955050505b50505092915050565b6000612f6f603683613a0a565b91507f43616e6e6f74206861766520737461727444617465206772656174657220746860008301527f616e206f7220657175616c20746f20656e6444617465000000000000000000006020830152604082019050919050565b6000612fd5601683613a0a565b91507f43616e6e6f74206d6f6469667920746f74616c4d6178000000000000000000006000830152602082019050919050565b6000613015602783613a0a565b91507f43616e6e6f74206861766520746f74616c4d617820677265617465722074686160008301527f6e203130303030000000000000000000000000000000000000000000000000006020830152604082019050919050565b600061307b602b83613a0a565b91507f57616c6c6574206973206e6f7420616e2061646d696e6973747261746f72206660008301527f6f7220636f6e74726163740000000000000000000000000000000000000000006020830152604082019050919050565b60006130e1600d83613a0a565b91507f496e76616c696420746f6b656e000000000000000000000000000000000000006000830152602082019050919050565b6000613121601d83613a0a565b91507f5472616e73616374696f6e206265666f726520737461727420646174650000006000830152602082019050919050565b6000613161601e83613a0a565b91507f4e6f20636c61696d7320666f722063726561746f7220636f6e747261637400006000830152602082019050919050565b60006131a1600583613a1b565b91507f2e6a736f6e0000000000000000000000000000000000000000000000000000006000830152600582019050919050565b60006131e1601983613a0a565b91507f43616e6e6f742064656372656173652077616c6c65744d6178000000000000006000830152602082019050919050565b6000613221602c83613a0a565b91507f4d6178696d756d20746f6b656e7320616c7265616479206d696e74656420666f60008301527f72207468697320636c61696d00000000000000000000000000000000000000006020830152604082019050919050565b6000613287601d83613a0a565b91507f436f756c64206e6f7420766572696679206d65726b6c652070726f6f660000006000830152602082019050919050565b60006132c7602d83613a0a565b91507f4d6178696d756d20746f6b656e7320616c7265616479206d696e74656420666f60008301527f7220746869732077616c6c6574000000000000000000000000000000000000006020830152604082019050919050565b600061332d601483613a0a565b91507f436c61696d20646f6573206e6f742065786973740000000000000000000000006000830152602082019050919050565b600061336d601a83613a0a565b91507f5472616e73616374696f6e20616674657220656e6420646174650000000000006000830152602082019050919050565b60006133ad603c83613a0a565b91507f4d6178696d756d20746f6b656e7320616c7265616479206d696e74656420666f60008301527f7220746869732077616c6c65742070657220616c6c6f636174696f6e000000006020830152604082019050919050565b6000613413600183613a1b565b91507f2f000000000000000000000000000000000000000000000000000000000000006000830152600182019050919050565b60006101208301600083015161345f6000860182613531565b5060208301516134726020860182613531565b5060408301516134856040860182613531565b5060608301516134986060860182613566565b5060808301516134ab6080860182613566565b5060a08301516134be60a0860182612e22565b5060c08301516134d160c0860182612dcf565b5060e08301516134e460e0860182612ded565b506101008301518482036101008601526134fe8282612e40565b9150508091505092915050565b61351481613b37565b82525050565b61352b61352682613b37565b613c51565b82525050565b61353a81613b41565b82525050565b61354981613b41565b82525050565b61356061355b82613b41565b613c5b565b82525050565b61356f81613b51565b82525050565b61357e81613b51565b82525050565b60006135908285612db8565b6014820191506135a0828461354f565b6004820191508190509392505050565b60006135bc8285612e0b565b6020820191506135cc8284612e0b565b6020820191508190509392505050565b60006135e88286612eb2565b91506135f48285612ee3565b91506136008284612eb2565b9150819050949350505050565b60006136198284612eb2565b915061362482613194565b915081905092915050565b600061363a82613406565b9150613646828461351a565b60208201915081905092915050565b600060208201905061366a6000830184612da9565b92915050565b60006020820190506136856000830184612dde565b92915050565b600060208201905081810360008301526136a58184612e79565b905092915050565b600060208201905081810360008301526136c681612f62565b9050919050565b600060208201905081810360008301526136e681612fc8565b9050919050565b6000602082019050818103600083015261370681613008565b9050919050565b600060208201905081810360008301526137268161306e565b9050919050565b60006020820190508181036000830152613746816130d4565b9050919050565b6000602082019050818103600083015261376681613114565b9050919050565b6000602082019050818103600083015261378681613154565b9050919050565b600060208201905081810360008301526137a6816131d4565b9050919050565b600060208201905081810360008301526137c681613214565b9050919050565b600060208201905081810360008301526137e68161327a565b9050919050565b60006020820190508181036000830152613806816132ba565b9050919050565b6000602082019050818103600083015261382681613320565b9050919050565b6000602082019050818103600083015261384681613360565b9050919050565b60006020820190508181036000830152613866816133a0565b9050919050565b600060208201905081810360008301526138878184613446565b905092915050565b60006020820190506138a4600083018461350b565b92915050565b60006040820190506138bf600083018561350b565b6138cc602083018461350b565b9392505050565b60006020820190506138e86000830184613540565b92915050565b600061012082019050613904600083018c613540565b613911602083018b613540565b61391e604083018a613540565b61392b6060830189613575565b6139386080830188613575565b61394560a0830187612e31565b61395260c0830186612dde565b61395f60e0830185612dfc565b8181036101008301526139728184612e79565b90509a9950505050505050505050565b6000808335600160200384360303811261399b57600080fd5b80840192508235915067ffffffffffffffff8211156139b957600080fd5b6020830192506001820236038313156139d157600080fd5b509250929050565b60008190508160005260206000209050919050565b600081519050919050565b600082825260208201905092915050565b600082825260208201905092915050565b600081905092915050565b6000613a3182613b37565b9150613a3c83613b37565b9250827fffffffffffffffffffffffffffffffffffffffffffffffffffffffffffffffff03821115613a7157613a70613c6d565b5b828201905092915050565b6000613a8782613b37565b9150613a9283613b37565b925082821015613aa557613aa4613c6d565b5b828203905092915050565b6000613abb82613b17565b9050919050565b60008115159050919050565b6000819050919050565b60007fffffffff0000000000000000000000000000000000000000000000000000000082169050919050565b6000819050613b1282613d25565b919050565b600073ffffffffffffffffffffffffffffffffffffffff82169050919050565b6000819050919050565b600063ffffffff82169050919050565b600065ffffffffffff82169050919050565b6000613b6e82613b04565b9050919050565b60005b83811015613b93578082015181840152602081019050613b78565b83811115613ba2576000848401525b50505050565b60006002820490506001821680613bc057607f821691505b60208210811415613bd457613bd3613ccb565b5b50919050565b6000613be582613b37565b91507fffffffffffffffffffffffffffffffffffffffffffffffffffffffffffffffff821415613c1857613c17613c6d565b5b600182019050919050565b6000613c2e82613c3f565b9050919050565b6000819050919050565b6000613c4a82613d18565b9050919050565b6000819050919050565b6000613c6682613d0b565b9050919050565b7f4e487b7100000000000000000000000000000000000000000000000000000000600052601160045260246000fd5b7f4e487b7100000000000000000000000000000000000000000000000000000000600052602160045260246000fd5b7f4e487b7100000000000000000000000000000000000000000000000000000000600052602260045260246000fd5b6000601f19601f8301169050919050565b60008160e01b9050919050565b60008160601b9050919050565b60038110613d3657613d35613c9c565b5b50565b613d4281613ab0565b8114613d4d57600080fd5b50565b613d5981613ac2565b8114613d6457600080fd5b50565b613d7081613ad8565b8114613d7b57600080fd5b50565b60038110613d8b57600080fd5b50565b613d9781613b37565b8114613da257600080fd5b50565b613dae81613b41565b8114613db957600080fd5b50565b613dc581613b51565b8114613dd057600080fd5b5056fea2646970667358221220119224f607694ba6e8c1eb4292cec349d47a0b9d6893cb836b35b63755e23c6264736f6c63430008000033",
					"opcodes": "PUSH1 0x80 PUSH1 0x40 MSTORE CALLVALUE DUP1 ISZERO PUSH2 0x10 JUMPI PUSH1 0x0 DUP1 REVERT JUMPDEST POP PUSH1 0x1 PUSH1 0x0 DUP2 SWAP1 SSTORE POP PUSH2 0x3E09 DUP1 PUSH2 0x28 PUSH1 0x0 CODECOPY PUSH1 0x0 RETURN INVALID PUSH1 0x80 PUSH1 0x40 MSTORE CALLVALUE DUP1 ISZERO PUSH2 0x10 JUMPI PUSH1 0x0 DUP1 REVERT JUMPDEST POP PUSH1 0x4 CALLDATASIZE LT PUSH2 0xCF JUMPI PUSH1 0x0 CALLDATALOAD PUSH1 0xE0 SHR DUP1 PUSH4 0x69C5ECB0 GT PUSH2 0x8C JUMPI DUP1 PUSH4 0xD19F60C8 GT PUSH2 0x66 JUMPI DUP1 PUSH4 0xD19F60C8 EQ PUSH2 0x265 JUMPI DUP1 PUSH4 0xD5FDFE87 EQ PUSH2 0x295 JUMPI DUP1 PUSH4 0xE9DC6375 EQ PUSH2 0x2C5 JUMPI DUP1 PUSH4 0xF0F330F0 EQ PUSH2 0x2F5 JUMPI PUSH2 0xCF JUMP JUMPDEST DUP1 PUSH4 0x69C5ECB0 EQ PUSH2 0x1E1 JUMPI DUP1 PUSH4 0xAB541A85 EQ PUSH2 0x1FD JUMPI DUP1 PUSH4 0xCC2D31ED EQ PUSH2 0x235 JUMPI PUSH2 0xCF JUMP JUMPDEST DUP1 PUSH4 0x1FFC9A7 EQ PUSH2 0xD4 JUMPI DUP1 PUSH4 0x2349713 EQ PUSH2 0x104 JUMPI DUP1 PUSH4 0xC134959 EQ PUSH2 0x134 JUMPI DUP1 PUSH4 0xF79AB39 EQ PUSH2 0x150 JUMPI DUP1 PUSH4 0x31DD2A20 EQ PUSH2 0x180 JUMPI DUP1 PUSH4 0x45E9C1F4 EQ PUSH2 0x1B1 JUMPI JUMPDEST PUSH1 0x0 DUP1 REVERT JUMPDEST PUSH2 0xEE PUSH1 0x4 DUP1 CALLDATASIZE SUB DUP2 ADD SWAP1 PUSH2 0xE9 SWAP2 SWAP1 PUSH2 0x2CDC JUMP JUMPDEST PUSH2 0x325 JUMP JUMPDEST PUSH1 0x40 MLOAD PUSH2 0xFB SWAP2 SWAP1 PUSH2 0x3670 JUMP JUMPDEST PUSH1 0x40 MLOAD DUP1 SWAP2 SUB SWAP1 RETURN JUMPDEST PUSH2 0x11E PUSH1 0x4 DUP1 CALLDATASIZE SUB DUP2 ADD SWAP1 PUSH2 0x119 SWAP2 SWAP1 PUSH2 0x2AC9 JUMP JUMPDEST PUSH2 0x45F JUMP JUMPDEST PUSH1 0x40 MLOAD PUSH2 0x12B SWAP2 SWAP1 PUSH2 0x388F JUMP JUMPDEST PUSH1 0x40 MLOAD DUP1 SWAP2 SUB SWAP1 RETURN JUMPDEST PUSH2 0x14E PUSH1 0x4 DUP1 CALLDATASIZE SUB DUP2 ADD SWAP1 PUSH2 0x149 SWAP2 SWAP1 PUSH2 0x2B54 JUMP JUMPDEST PUSH2 0x473 JUMP JUMPDEST STOP JUMPDEST PUSH2 0x16A PUSH1 0x4 DUP1 CALLDATASIZE SUB DUP2 ADD SWAP1 PUSH2 0x165 SWAP2 SWAP1 PUSH2 0x2AC9 JUMP JUMPDEST PUSH2 0xB82 JUMP JUMPDEST PUSH1 0x40 MLOAD PUSH2 0x177 SWAP2 SWAP1 PUSH2 0x386D JUMP JUMPDEST PUSH1 0x40 MLOAD DUP1 SWAP2 SUB SWAP1 RETURN JUMPDEST PUSH2 0x19A PUSH1 0x4 DUP1 CALLDATASIZE SUB DUP2 ADD SWAP1 PUSH2 0x195 SWAP2 SWAP1 PUSH2 0x2C3B JUMP JUMPDEST PUSH2 0xE77 JUMP JUMPDEST PUSH1 0x40 MLOAD PUSH2 0x1A8 SWAP3 SWAP2 SWAP1 PUSH2 0x38AA JUMP JUMPDEST PUSH1 0x40 MLOAD DUP1 SWAP2 SUB SWAP1 RETURN JUMPDEST PUSH2 0x1CB PUSH1 0x4 DUP1 CALLDATASIZE SUB DUP2 ADD SWAP1 PUSH2 0x1C6 SWAP2 SWAP1 PUSH2 0x2AC9 JUMP JUMPDEST PUSH2 0xEC5 JUMP JUMPDEST PUSH1 0x40 MLOAD PUSH2 0x1D8 SWAP2 SWAP1 PUSH2 0x38D3 JUMP JUMPDEST PUSH1 0x40 MLOAD DUP1 SWAP2 SUB SWAP1 RETURN JUMPDEST PUSH2 0x1FB PUSH1 0x4 DUP1 CALLDATASIZE SUB DUP2 ADD SWAP1 PUSH2 0x1F6 SWAP2 SWAP1 PUSH2 0x2BD4 JUMP JUMPDEST PUSH2 0xFEE JUMP JUMPDEST STOP JUMPDEST PUSH2 0x217 PUSH1 0x4 DUP1 CALLDATASIZE SUB DUP2 ADD SWAP1 PUSH2 0x212 SWAP2 SWAP1 PUSH2 0x2AC9 JUMP JUMPDEST PUSH2 0x1663 JUMP JUMPDEST PUSH1 0x40 MLOAD PUSH2 0x22C SWAP10 SWAP9 SWAP8 SWAP7 SWAP6 SWAP5 SWAP4 SWAP3 SWAP2 SWAP1 PUSH2 0x38EE JUMP JUMPDEST PUSH1 0x40 MLOAD DUP1 SWAP2 SUB SWAP1 RETURN JUMPDEST PUSH2 0x24F PUSH1 0x4 DUP1 CALLDATASIZE SUB DUP2 ADD SWAP1 PUSH2 0x24A SWAP2 SWAP1 PUSH2 0x2A4C JUMP JUMPDEST PUSH2 0x17B4 JUMP JUMPDEST PUSH1 0x40 MLOAD PUSH2 0x25C SWAP2 SWAP1 PUSH2 0x388F JUMP JUMPDEST PUSH1 0x40 MLOAD DUP1 SWAP2 SUB SWAP1 RETURN JUMPDEST PUSH2 0x27F PUSH1 0x4 DUP1 CALLDATASIZE SUB DUP2 ADD SWAP1 PUSH2 0x27A SWAP2 SWAP1 PUSH2 0x2A75 JUMP JUMPDEST PUSH2 0x17CC JUMP JUMPDEST PUSH1 0x40 MLOAD PUSH2 0x28C SWAP2 SWAP1 PUSH2 0x388F JUMP JUMPDEST PUSH1 0x40 MLOAD DUP1 SWAP2 SUB SWAP1 RETURN JUMPDEST PUSH2 0x2AF PUSH1 0x4 DUP1 CALLDATASIZE SUB DUP2 ADD SWAP1 PUSH2 0x2AA SWAP2 SWAP1 PUSH2 0x2A4C JUMP JUMPDEST PUSH2 0x1DA3 JUMP JUMPDEST PUSH1 0x40 MLOAD PUSH2 0x2BC SWAP2 SWAP1 PUSH2 0x388F JUMP JUMPDEST PUSH1 0x40 MLOAD DUP1 SWAP2 SUB SWAP1 RETURN JUMPDEST PUSH2 0x2DF PUSH1 0x4 DUP1 CALLDATASIZE SUB DUP2 ADD SWAP1 PUSH2 0x2DA SWAP2 SWAP1 PUSH2 0x2AC9 JUMP JUMPDEST PUSH2 0x1DEC JUMP JUMPDEST PUSH1 0x40 MLOAD PUSH2 0x2EC SWAP2 SWAP1 PUSH2 0x368B JUMP JUMPDEST PUSH1 0x40 MLOAD DUP1 SWAP2 SUB SWAP1 RETURN JUMPDEST PUSH2 0x30F PUSH1 0x4 DUP1 CALLDATASIZE SUB DUP2 ADD SWAP1 PUSH2 0x30A SWAP2 SWAP1 PUSH2 0x2B05 JUMP JUMPDEST PUSH2 0x2250 JUMP JUMPDEST PUSH1 0x40 MLOAD PUSH2 0x31C SWAP2 SWAP1 PUSH2 0x38D3 JUMP JUMPDEST PUSH1 0x40 MLOAD DUP1 SWAP2 SUB SWAP1 RETURN JUMPDEST PUSH1 0x0 PUSH32 0x2910C67800000000000000000000000000000000000000000000000000000000 PUSH28 0xFFFFFFFFFFFFFFFFFFFFFFFFFFFFFFFFFFFFFFFFFFFFFFFFFFFFFFFF NOT AND DUP3 PUSH28 0xFFFFFFFFFFFFFFFFFFFFFFFFFFFFFFFFFFFFFFFFFFFFFFFFFFFFFFFF NOT AND EQ DUP1 PUSH2 0x3F0 JUMPI POP PUSH32 0xE9DC637500000000000000000000000000000000000000000000000000000000 PUSH28 0xFFFFFFFFFFFFFFFFFFFFFFFFFFFFFFFFFFFFFFFFFFFFFFFFFFFFFFFF NOT AND DUP3 PUSH28 0xFFFFFFFFFFFFFFFFFFFFFFFFFFFFFFFFFFFFFFFFFFFFFFFFFFFFFFFF NOT AND EQ JUMPDEST DUP1 PUSH2 0x458 JUMPI POP PUSH32 0x1FFC9A700000000000000000000000000000000000000000000000000000000 PUSH28 0xFFFFFFFFFFFFFFFFFFFFFFFFFFFFFFFFFFFFFFFFFFFFFFFFFFFFFFFF NOT AND DUP3 PUSH28 0xFFFFFFFFFFFFFFFFFFFFFFFFFFFFFFFFFFFFFFFFFFFFFFFFFFFFFFFF NOT AND EQ JUMPDEST SWAP1 POP SWAP2 SWAP1 POP JUMP JUMPDEST PUSH1 0x0 PUSH2 0x46B DUP4 DUP4 PUSH2 0x228F JUMP JUMPDEST SWAP1 POP SWAP3 SWAP2 POP POP JUMP JUMPDEST PUSH1 0x1 PUSH1 0x0 DUP7 PUSH20 0xFFFFFFFFFFFFFFFFFFFFFFFFFFFFFFFFFFFFFFFF AND PUSH20 0xFFFFFFFFFFFFFFFFFFFFFFFFFFFFFFFFFFFFFFFF AND DUP2 MSTORE PUSH1 0x20 ADD SWAP1 DUP2 MSTORE PUSH1 0x20 ADD PUSH1 0x0 KECCAK256 SLOAD DUP5 LT PUSH2 0x4F4 JUMPI PUSH1 0x40 MLOAD PUSH32 0x8C379A000000000000000000000000000000000000000000000000000000000 DUP2 MSTORE PUSH1 0x4 ADD PUSH2 0x4EB SWAP1 PUSH2 0x380D JUMP JUMPDEST PUSH1 0x40 MLOAD DUP1 SWAP2 SUB SWAP1 REVERT JUMPDEST PUSH1 0x0 PUSH1 0x2 PUSH1 0x0 DUP8 PUSH20 0xFFFFFFFFFFFFFFFFFFFFFFFFFFFFFFFFFFFFFFFF AND PUSH20 0xFFFFFFFFFFFFFFFFFFFFFFFFFFFFFFFFFFFFFFFF AND DUP2 MSTORE PUSH1 0x20 ADD SWAP1 DUP2 MSTORE PUSH1 0x20 ADD PUSH1 0x0 KECCAK256 PUSH1 0x0 DUP7 DUP2 MSTORE PUSH1 0x20 ADD SWAP1 DUP2 MSTORE PUSH1 0x20 ADD PUSH1 0x0 KECCAK256 SWAP1 POP PUSH1 0x0 DUP2 PUSH1 0x0 ADD PUSH1 0xC SWAP1 SLOAD SWAP1 PUSH2 0x100 EXP SWAP1 DIV PUSH6 0xFFFFFFFFFFFF AND PUSH6 0xFFFFFFFFFFFF AND EQ PUSH2 0x5CF JUMPI TIMESTAMP DUP2 PUSH1 0x0 ADD PUSH1 0xC SWAP1 SLOAD SWAP1 PUSH2 0x100 EXP SWAP1 DIV PUSH6 0xFFFFFFFFFFFF AND PUSH6 0xFFFFFFFFFFFF AND LT PUSH2 0x5CE JUMPI PUSH1 0x40 MLOAD PUSH32 0x8C379A000000000000000000000000000000000000000000000000000000000 DUP2 MSTORE PUSH1 0x4 ADD PUSH2 0x5C5 SWAP1 PUSH2 0x374D JUMP JUMPDEST PUSH1 0x40 MLOAD DUP1 SWAP2 SUB SWAP1 REVERT JUMPDEST JUMPDEST PUSH1 0x0 DUP2 PUSH1 0x0 ADD PUSH1 0x12 SWAP1 SLOAD SWAP1 PUSH2 0x100 EXP SWAP1 DIV PUSH6 0xFFFFFFFFFFFF AND PUSH6 0xFFFFFFFFFFFF AND EQ PUSH2 0x657 JUMPI TIMESTAMP DUP2 PUSH1 0x0 ADD PUSH1 0x12 SWAP1 SLOAD SWAP1 PUSH2 0x100 EXP SWAP1 DIV PUSH6 0xFFFFFFFFFFFF AND PUSH6 0xFFFFFFFFFFFF AND LT ISZERO PUSH2 0x656 JUMPI PUSH1 0x40 MLOAD PUSH32 0x8C379A000000000000000000000000000000000000000000000000000000000 DUP2 MSTORE PUSH1 0x4 ADD PUSH2 0x64D SWAP1 PUSH2 0x382D JUMP JUMPDEST PUSH1 0x40 MLOAD DUP1 SWAP2 SUB SWAP1 REVERT JUMPDEST JUMPDEST PUSH1 0x0 DUP2 PUSH1 0x0 ADD PUSH1 0x8 SWAP1 SLOAD SWAP1 PUSH2 0x100 EXP SWAP1 DIV PUSH4 0xFFFFFFFF AND PUSH4 0xFFFFFFFF AND EQ PUSH2 0x779 JUMPI DUP1 PUSH1 0x0 ADD PUSH1 0x8 SWAP1 SLOAD SWAP1 PUSH2 0x100 EXP SWAP1 DIV PUSH4 0xFFFFFFFF AND PUSH4 0xFFFFFFFF AND PUSH1 0x3 PUSH1 0x0 DUP9 PUSH20 0xFFFFFFFFFFFFFFFFFFFFFFFFFFFFFFFFFFFFFFFF AND PUSH20 0xFFFFFFFFFFFFFFFFFFFFFFFFFFFFFFFFFFFFFFFF AND DUP2 MSTORE PUSH1 0x20 ADD SWAP1 DUP2 MSTORE PUSH1 0x20 ADD PUSH1 0x0 KECCAK256 PUSH1 0x0 DUP8 DUP2 MSTORE PUSH1 0x20 ADD SWAP1 DUP2 MSTORE PUSH1 0x20 ADD PUSH1 0x0 KECCAK256 PUSH1 0x0 CALLER PUSH20 0xFFFFFFFFFFFFFFFFFFFFFFFFFFFFFFFFFFFFFFFF AND PUSH20 0xFFFFFFFFFFFFFFFFFFFFFFFFFFFFFFFFFFFFFFFF AND DUP2 MSTORE PUSH1 0x20 ADD SWAP1 DUP2 MSTORE PUSH1 0x20 ADD PUSH1 0x0 KECCAK256 PUSH1 0x0 SWAP1 SLOAD SWAP1 PUSH2 0x100 EXP SWAP1 DIV PUSH4 0xFFFFFFFF AND PUSH4 0xFFFFFFFF AND LT PUSH2 0x778 JUMPI PUSH1 0x40 MLOAD PUSH32 0x8C379A000000000000000000000000000000000000000000000000000000000 DUP2 MSTORE PUSH1 0x4 ADD PUSH2 0x76F SWAP1 PUSH2 0x37ED JUMP JUMPDEST PUSH1 0x40 MLOAD DUP1 SWAP2 SUB SWAP1 REVERT JUMPDEST JUMPDEST PUSH1 0x0 DUP2 PUSH1 0x0 ADD PUSH1 0x4 SWAP1 SLOAD SWAP1 PUSH2 0x100 EXP SWAP1 DIV PUSH4 0xFFFFFFFF AND PUSH4 0xFFFFFFFF AND EQ PUSH2 0x812 JUMPI DUP1 PUSH1 0x0 ADD PUSH1 0x4 SWAP1 SLOAD SWAP1 PUSH2 0x100 EXP SWAP1 DIV PUSH4 0xFFFFFFFF AND PUSH4 0xFFFFFFFF AND DUP2 PUSH1 0x0 ADD PUSH1 0x0 SWAP1 SLOAD SWAP1 PUSH2 0x100 EXP SWAP1 DIV PUSH4 0xFFFFFFFF AND PUSH4 0xFFFFFFFF AND LT PUSH2 0x811 JUMPI PUSH1 0x40 MLOAD PUSH32 0x8C379A000000000000000000000000000000000000000000000000000000000 DUP2 MSTORE PUSH1 0x4 ADD PUSH2 0x808 SWAP1 PUSH2 0x37AD JUMP JUMPDEST PUSH1 0x40 MLOAD DUP1 SWAP2 SUB SWAP1 REVERT JUMPDEST JUMPDEST PUSH1 0x0 DUP2 PUSH1 0x1 ADD SLOAD EQ PUSH2 0x9DC JUMPI PUSH1 0x0 CALLER DUP4 PUSH1 0x40 MLOAD PUSH1 0x20 ADD PUSH2 0x833 SWAP3 SWAP2 SWAP1 PUSH2 0x3584 JUMP JUMPDEST PUSH1 0x40 MLOAD PUSH1 0x20 DUP2 DUP4 SUB SUB DUP2 MSTORE SWAP1 PUSH1 0x40 MSTORE DUP1 MLOAD SWAP1 PUSH1 0x20 ADD KECCAK256 SWAP1 POP PUSH2 0x89B DUP6 DUP6 DUP1 DUP1 PUSH1 0x20 MUL PUSH1 0x20 ADD PUSH1 0x40 MLOAD SWAP1 DUP2 ADD PUSH1 0x40 MSTORE DUP1 SWAP4 SWAP3 SWAP2 SWAP1 DUP2 DUP2 MSTORE PUSH1 0x20 ADD DUP4 DUP4 PUSH1 0x20 MUL DUP1 DUP3 DUP5 CALLDATACOPY PUSH1 0x0 DUP2 DUP5 ADD MSTORE PUSH1 0x1F NOT PUSH1 0x1F DUP3 ADD AND SWAP1 POP DUP1 DUP4 ADD SWAP3 POP POP POP POP POP POP POP DUP4 PUSH1 0x1 ADD SLOAD DUP4 PUSH2 0x253B JUMP JUMPDEST PUSH2 0x8DA JUMPI PUSH1 0x40 MLOAD PUSH32 0x8C379A000000000000000000000000000000000000000000000000000000000 DUP2 MSTORE PUSH1 0x4 ADD PUSH2 0x8D1 SWAP1 PUSH2 0x37CD JUMP JUMPDEST PUSH1 0x40 MLOAD DUP1 SWAP2 SUB SWAP1 REVERT JUMPDEST PUSH1 0x0 DUP4 PUSH4 0xFFFFFFFF AND EQ PUSH2 0x9DA JUMPI PUSH1 0x0 PUSH1 0x3 PUSH1 0x0 DUP10 PUSH20 0xFFFFFFFFFFFFFFFFFFFFFFFFFFFFFFFFFFFFFFFF AND PUSH20 0xFFFFFFFFFFFFFFFFFFFFFFFFFFFFFFFFFFFFFFFF AND DUP2 MSTORE PUSH1 0x20 ADD SWAP1 DUP2 MSTORE PUSH1 0x20 ADD PUSH1 0x0 KECCAK256 PUSH1 0x0 DUP9 DUP2 MSTORE PUSH1 0x20 ADD SWAP1 DUP2 MSTORE PUSH1 0x20 ADD PUSH1 0x0 KECCAK256 PUSH1 0x0 CALLER PUSH20 0xFFFFFFFFFFFFFFFFFFFFFFFFFFFFFFFFFFFFFFFF AND PUSH20 0xFFFFFFFFFFFFFFFFFFFFFFFFFFFFFFFFFFFFFFFF AND DUP2 MSTORE PUSH1 0x20 ADD SWAP1 DUP2 MSTORE PUSH1 0x20 ADD PUSH1 0x0 KECCAK256 PUSH1 0x0 SWAP1 SLOAD SWAP1 PUSH2 0x100 EXP SWAP1 DIV PUSH4 0xFFFFFFFF AND PUSH4 0xFFFFFFFF AND SWAP1 POP DUP4 PUSH4 0xFFFFFFFF AND DUP2 LT PUSH2 0x9D8 JUMPI PUSH1 0x40 MLOAD PUSH32 0x8C379A000000000000000000000000000000000000000000000000000000000 DUP2 MSTORE PUSH1 0x4 ADD PUSH2 0x9CF SWAP1 PUSH2 0x384D JUMP JUMPDEST PUSH1 0x40 MLOAD DUP1 SWAP2 SUB SWAP1 REVERT JUMPDEST POP JUMPDEST POP JUMPDEST PUSH1 0x0 DUP7 PUSH20 0xFFFFFFFFFFFFFFFFFFFFFFFFFFFFFFFFFFFFFFFF AND PUSH4 0x2928CA58 CALLER PUSH1 0x40 MLOAD DUP3 PUSH4 0xFFFFFFFF AND PUSH1 0xE0 SHL DUP2 MSTORE PUSH1 0x4 ADD PUSH2 0xA17 SWAP2 SWAP1 PUSH2 0x3655 JUMP JUMPDEST PUSH1 0x20 PUSH1 0x40 MLOAD DUP1 DUP4 SUB DUP2 PUSH1 0x0 DUP8 DUP1 EXTCODESIZE ISZERO DUP1 ISZERO PUSH2 0xA31 JUMPI PUSH1 0x0 DUP1 REVERT JUMPDEST POP GAS CALL ISZERO DUP1 ISZERO PUSH2 0xA45 JUMPI RETURNDATASIZE PUSH1 0x0 DUP1 RETURNDATACOPY RETURNDATASIZE PUSH1 0x0 REVERT JUMPDEST POP POP POP POP PUSH1 0x40 MLOAD RETURNDATASIZE PUSH1 0x1F NOT PUSH1 0x1F DUP3 ADD AND DUP3 ADD DUP1 PUSH1 0x40 MSTORE POP DUP2 ADD SWAP1 PUSH2 0xA69 SWAP2 SWAP1 PUSH2 0x2D2E JUMP JUMPDEST SWAP1 POP PUSH2 0xA76 DUP8 DUP8 DUP4 PUSH2 0x2552 JUMP JUMPDEST PUSH1 0x3 PUSH1 0x0 DUP9 PUSH20 0xFFFFFFFFFFFFFFFFFFFFFFFFFFFFFFFFFFFFFFFF AND PUSH20 0xFFFFFFFFFFFFFFFFFFFFFFFFFFFFFFFFFFFFFFFF AND DUP2 MSTORE PUSH1 0x20 ADD SWAP1 DUP2 MSTORE PUSH1 0x20 ADD PUSH1 0x0 KECCAK256 PUSH1 0x0 DUP8 DUP2 MSTORE PUSH1 0x20 ADD SWAP1 DUP2 MSTORE PUSH1 0x20 ADD PUSH1 0x0 KECCAK256 PUSH1 0x0 CALLER PUSH20 0xFFFFFFFFFFFFFFFFFFFFFFFFFFFFFFFFFFFFFFFF AND PUSH20 0xFFFFFFFFFFFFFFFFFFFFFFFFFFFFFFFFFFFFFFFF AND DUP2 MSTORE PUSH1 0x20 ADD SWAP1 DUP2 MSTORE PUSH1 0x20 ADD PUSH1 0x0 KECCAK256 PUSH1 0x0 DUP2 DUP2 SWAP1 SLOAD SWAP1 PUSH2 0x100 EXP SWAP1 DIV PUSH4 0xFFFFFFFF AND DUP1 SWAP3 SWAP2 SWAP1 PUSH1 0x1 ADD SWAP2 SWAP1 PUSH2 0x100 EXP DUP2 SLOAD DUP2 PUSH4 0xFFFFFFFF MUL NOT AND SWAP1 DUP4 PUSH4 0xFFFFFFFF AND MUL OR SWAP1 SSTORE POP POP DUP2 PUSH1 0x0 ADD PUSH1 0x0 DUP2 DUP2 SWAP1 SLOAD SWAP1 PUSH2 0x100 EXP SWAP1 DIV PUSH4 0xFFFFFFFF AND DUP1 SWAP3 SWAP2 SWAP1 PUSH1 0x1 ADD SWAP2 SWAP1 PUSH2 0x100 EXP DUP2 SLOAD DUP2 PUSH4 0xFFFFFFFF MUL NOT AND SWAP1 DUP4 PUSH4 0xFFFFFFFF AND MUL OR SWAP1 SSTORE POP POP POP POP POP POP POP POP POP JUMP JUMPDEST PUSH2 0xB8A PUSH2 0x27DB JUMP JUMPDEST PUSH1 0x1 PUSH1 0x0 DUP5 PUSH20 0xFFFFFFFFFFFFFFFFFFFFFFFFFFFFFFFFFFFFFFFF AND PUSH20 0xFFFFFFFFFFFFFFFFFFFFFFFFFFFFFFFFFFFFFFFF AND DUP2 MSTORE PUSH1 0x20 ADD SWAP1 DUP2 MSTORE PUSH1 0x20 ADD PUSH1 0x0 KECCAK256 SLOAD DUP3 LT PUSH2 0xC0B JUMPI PUSH1 0x40 MLOAD PUSH32 0x8C379A000000000000000000000000000000000000000000000000000000000 DUP2 MSTORE PUSH1 0x4 ADD PUSH2 0xC02 SWAP1 PUSH2 0x380D JUMP JUMPDEST PUSH1 0x40 MLOAD DUP1 SWAP2 SUB SWAP1 REVERT JUMPDEST PUSH1 0x2 PUSH1 0x0 DUP5 PUSH20 0xFFFFFFFFFFFFFFFFFFFFFFFFFFFFFFFFFFFFFFFF AND PUSH20 0xFFFFFFFFFFFFFFFFFFFFFFFFFFFFFFFFFFFFFFFF AND DUP2 MSTORE PUSH1 0x20 ADD SWAP1 DUP2 MSTORE PUSH1 0x20 ADD PUSH1 0x0 KECCAK256 PUSH1 0x0 DUP4 DUP2 MSTORE PUSH1 0x20 ADD SWAP1 DUP2 MSTORE PUSH1 0x20 ADD PUSH1 0x0 KECCAK256 PUSH1 0x40 MLOAD DUP1 PUSH2 0x120 ADD PUSH1 0x40 MSTORE SWAP1 DUP2 PUSH1 0x0 DUP3 ADD PUSH1 0x0 SWAP1 SLOAD SWAP1 PUSH2 0x100 EXP SWAP1 DIV PUSH4 0xFFFFFFFF AND PUSH4 0xFFFFFFFF AND PUSH4 0xFFFFFFFF AND DUP2 MSTORE PUSH1 0x20 ADD PUSH1 0x0 DUP3 ADD PUSH1 0x4 SWAP1 SLOAD SWAP1 PUSH2 0x100 EXP SWAP1 DIV PUSH4 0xFFFFFFFF AND PUSH4 0xFFFFFFFF AND PUSH4 0xFFFFFFFF AND DUP2 MSTORE PUSH1 0x20 ADD PUSH1 0x0 DUP3 ADD PUSH1 0x8 SWAP1 SLOAD SWAP1 PUSH2 0x100 EXP SWAP1 DIV PUSH4 0xFFFFFFFF AND PUSH4 0xFFFFFFFF AND PUSH4 0xFFFFFFFF AND DUP2 MSTORE PUSH1 0x20 ADD PUSH1 0x0 DUP3 ADD PUSH1 0xC SWAP1 SLOAD SWAP1 PUSH2 0x100 EXP SWAP1 DIV PUSH6 0xFFFFFFFFFFFF AND PUSH6 0xFFFFFFFFFFFF AND PUSH6 0xFFFFFFFFFFFF AND DUP2 MSTORE PUSH1 0x20 ADD PUSH1 0x0 DUP3 ADD PUSH1 0x12 SWAP1 SLOAD SWAP1 PUSH2 0x100 EXP SWAP1 DIV PUSH6 0xFFFFFFFFFFFF AND PUSH6 0xFFFFFFFFFFFF AND PUSH6 0xFFFFFFFFFFFF AND DUP2 MSTORE PUSH1 0x20 ADD PUSH1 0x0 DUP3 ADD PUSH1 0x18 SWAP1 SLOAD SWAP1 PUSH2 0x100 EXP SWAP1 DIV PUSH1 0xFF AND PUSH1 0x2 DUP2 GT ISZERO PUSH2 0xD7C JUMPI PUSH32 0x4E487B7100000000000000000000000000000000000000000000000000000000 PUSH1 0x0 MSTORE PUSH1 0x21 PUSH1 0x4 MSTORE PUSH1 0x24 PUSH1 0x0 REVERT JUMPDEST PUSH1 0x2 DUP2 GT ISZERO PUSH2 0xDB4 JUMPI PUSH32 0x4E487B7100000000000000000000000000000000000000000000000000000000 PUSH1 0x0 MSTORE PUSH1 0x21 PUSH1 0x4 MSTORE PUSH1 0x24 PUSH1 0x0 REVERT JUMPDEST DUP2 MSTORE PUSH1 0x20 ADD PUSH1 0x0 DUP3 ADD PUSH1 0x19 SWAP1 SLOAD SWAP1 PUSH2 0x100 EXP SWAP1 DIV PUSH1 0xFF AND ISZERO ISZERO ISZERO ISZERO DUP2 MSTORE PUSH1 0x20 ADD PUSH1 0x1 DUP3 ADD SLOAD DUP2 MSTORE PUSH1 0x20 ADD PUSH1 0x2 DUP3 ADD DUP1 SLOAD PUSH2 0xDED SWAP1 PUSH2 0x3BA8 JUMP JUMPDEST DUP1 PUSH1 0x1F ADD PUSH1 0x20 DUP1 SWAP2 DIV MUL PUSH1 0x20 ADD PUSH1 0x40 MLOAD SWAP1 DUP2 ADD PUSH1 0x40 MSTORE DUP1 SWAP3 SWAP2 SWAP1 DUP2 DUP2 MSTORE PUSH1 0x20 ADD DUP3 DUP1 SLOAD PUSH2 0xE19 SWAP1 PUSH2 0x3BA8 JUMP JUMPDEST DUP1 ISZERO PUSH2 0xE66 JUMPI DUP1 PUSH1 0x1F LT PUSH2 0xE3B JUMPI PUSH2 0x100 DUP1 DUP4 SLOAD DIV MUL DUP4 MSTORE SWAP2 PUSH1 0x20 ADD SWAP2 PUSH2 0xE66 JUMP JUMPDEST DUP3 ADD SWAP2 SWAP1 PUSH1 0x0 MSTORE PUSH1 0x20 PUSH1 0x0 KECCAK256 SWAP1 JUMPDEST DUP2 SLOAD DUP2 MSTORE SWAP1 PUSH1 0x1 ADD SWAP1 PUSH1 0x20 ADD DUP1 DUP4 GT PUSH2 0xE49 JUMPI DUP3 SWAP1 SUB PUSH1 0x1F AND DUP3 ADD SWAP2 JUMPDEST POP POP POP POP POP DUP2 MSTORE POP POP SWAP1 POP SWAP3 SWAP2 POP POP JUMP JUMPDEST PUSH1 0x4 PUSH1 0x20 MSTORE DUP3 PUSH1 0x0 MSTORE PUSH1 0x40 PUSH1 0x0 KECCAK256 PUSH1 0x20 MSTORE DUP2 PUSH1 0x0 MSTORE PUSH1 0x40 PUSH1 0x0 KECCAK256 DUP2 DUP2 SLOAD DUP2 LT PUSH2 0xE9F JUMPI PUSH1 0x0 DUP1 REVERT JUMPDEST SWAP1 PUSH1 0x0 MSTORE PUSH1 0x20 PUSH1 0x0 KECCAK256 SWAP1 PUSH1 0x2 MUL ADD PUSH1 0x0 SWAP3 POP SWAP3 POP POP POP DUP1 PUSH1 0x0 ADD SLOAD SWAP1 DUP1 PUSH1 0x1 ADD SLOAD SWAP1 POP DUP3 JUMP JUMPDEST PUSH1 0x0 PUSH1 0x1 PUSH1 0x0 DUP5 PUSH20 0xFFFFFFFFFFFFFFFFFFFFFFFFFFFFFFFFFFFFFFFF AND PUSH20 0xFFFFFFFFFFFFFFFFFFFFFFFFFFFFFFFFFFFFFFFF AND DUP2 MSTORE PUSH1 0x20 ADD SWAP1 DUP2 MSTORE PUSH1 0x20 ADD PUSH1 0x0 KECCAK256 SLOAD DUP3 LT PUSH2 0xF48 JUMPI PUSH1 0x40 MLOAD PUSH32 0x8C379A000000000000000000000000000000000000000000000000000000000 DUP2 MSTORE PUSH1 0x4 ADD PUSH2 0xF3F SWAP1 PUSH2 0x380D JUMP JUMPDEST PUSH1 0x40 MLOAD DUP1 SWAP2 SUB SWAP1 REVERT JUMPDEST PUSH1 0x3 PUSH1 0x0 DUP5 PUSH20 0xFFFFFFFFFFFFFFFFFFFFFFFFFFFFFFFFFFFFFFFF AND PUSH20 0xFFFFFFFFFFFFFFFFFFFFFFFFFFFFFFFFFFFFFFFF AND DUP2 MSTORE PUSH1 0x20 ADD SWAP1 DUP2 MSTORE PUSH1 0x20 ADD PUSH1 0x0 KECCAK256 PUSH1 0x0 DUP4 DUP2 MSTORE PUSH1 0x20 ADD SWAP1 DUP2 MSTORE PUSH1 0x20 ADD PUSH1 0x0 KECCAK256 PUSH1 0x0 CALLER PUSH20 0xFFFFFFFFFFFFFFFFFFFFFFFFFFFFFFFFFFFFFFFF AND PUSH20 0xFFFFFFFFFFFFFFFFFFFFFFFFFFFFFFFFFFFFFFFF AND DUP2 MSTORE PUSH1 0x20 ADD SWAP1 DUP2 MSTORE PUSH1 0x20 ADD PUSH1 0x0 KECCAK256 PUSH1 0x0 SWAP1 SLOAD SWAP1 PUSH2 0x100 EXP SWAP1 DIV PUSH4 0xFFFFFFFF AND SWAP1 POP SWAP3 SWAP2 POP POP JUMP JUMPDEST DUP3 PUSH1 0x0 DUP2 SWAP1 POP DUP1 PUSH20 0xFFFFFFFFFFFFFFFFFFFFFFFFFFFFFFFFFFFFFFFF AND PUSH4 0x24D7806C CALLER PUSH1 0x40 MLOAD DUP3 PUSH4 0xFFFFFFFF AND PUSH1 0xE0 SHL DUP2 MSTORE PUSH1 0x4 ADD PUSH2 0x102D SWAP2 SWAP1 PUSH2 0x3655 JUMP JUMPDEST PUSH1 0x20 PUSH1 0x40 MLOAD DUP1 DUP4 SUB DUP2 DUP7 DUP1 EXTCODESIZE ISZERO DUP1 ISZERO PUSH2 0x1045 JUMPI PUSH1 0x0 DUP1 REVERT JUMPDEST POP GAS STATICCALL ISZERO DUP1 ISZERO PUSH2 0x1059 JUMPI RETURNDATASIZE PUSH1 0x0 DUP1 RETURNDATACOPY RETURNDATASIZE PUSH1 0x0 REVERT JUMPDEST POP POP POP POP PUSH1 0x40 MLOAD RETURNDATASIZE PUSH1 0x1F NOT PUSH1 0x1F DUP3 ADD AND DUP3 ADD DUP1 PUSH1 0x40 MSTORE POP DUP2 ADD SWAP1 PUSH2 0x107D SWAP2 SWAP1 PUSH2 0x2CB3 JUMP JUMPDEST PUSH2 0x10BC JUMPI PUSH1 0x40 MLOAD PUSH32 0x8C379A000000000000000000000000000000000000000000000000000000000 DUP2 MSTORE PUSH1 0x4 ADD PUSH2 0x10B3 SWAP1 PUSH2 0x370D JUMP JUMPDEST PUSH1 0x40 MLOAD DUP1 SWAP2 SUB SWAP1 REVERT JUMPDEST DUP3 PUSH1 0x20 ADD PUSH1 0x20 DUP2 ADD SWAP1 PUSH2 0x10CF SWAP2 SWAP1 PUSH2 0x2D57 JUMP JUMPDEST PUSH4 0xFFFFFFFF AND PUSH1 0x2 PUSH1 0x0 DUP8 PUSH20 0xFFFFFFFFFFFFFFFFFFFFFFFFFFFFFFFFFFFFFFFF AND PUSH20 0xFFFFFFFFFFFFFFFFFFFFFFFFFFFFFFFFFFFFFFFF AND DUP2 MSTORE PUSH1 0x20 ADD SWAP1 DUP2 MSTORE PUSH1 0x20 ADD PUSH1 0x0 KECCAK256 PUSH1 0x0 DUP7 DUP2 MSTORE PUSH1 0x20 ADD SWAP1 DUP2 MSTORE PUSH1 0x20 ADD PUSH1 0x0 KECCAK256 PUSH1 0x0 ADD PUSH1 0x4 SWAP1 SLOAD SWAP1 PUSH2 0x100 EXP SWAP1 DIV PUSH4 0xFFFFFFFF AND PUSH4 0xFFFFFFFF AND EQ PUSH2 0x117F JUMPI PUSH1 0x40 MLOAD PUSH32 0x8C379A000000000000000000000000000000000000000000000000000000000 DUP2 MSTORE PUSH1 0x4 ADD PUSH2 0x1176 SWAP1 PUSH2 0x36CD JUMP JUMPDEST PUSH1 0x40 MLOAD DUP1 SWAP2 SUB SWAP1 REVERT JUMPDEST DUP3 PUSH1 0x40 ADD PUSH1 0x20 DUP2 ADD SWAP1 PUSH2 0x1192 SWAP2 SWAP1 PUSH2 0x2D57 JUMP JUMPDEST PUSH4 0xFFFFFFFF AND PUSH1 0x2 PUSH1 0x0 DUP8 PUSH20 0xFFFFFFFFFFFFFFFFFFFFFFFFFFFFFFFFFFFFFFFF AND PUSH20 0xFFFFFFFFFFFFFFFFFFFFFFFFFFFFFFFFFFFFFFFF AND DUP2 MSTORE PUSH1 0x20 ADD SWAP1 DUP2 MSTORE PUSH1 0x20 ADD PUSH1 0x0 KECCAK256 PUSH1 0x0 DUP7 DUP2 MSTORE PUSH1 0x20 ADD SWAP1 DUP2 MSTORE PUSH1 0x20 ADD PUSH1 0x0 KECCAK256 PUSH1 0x0 ADD PUSH1 0x8 SWAP1 SLOAD SWAP1 PUSH2 0x100 EXP SWAP1 DIV PUSH4 0xFFFFFFFF AND PUSH4 0xFFFFFFFF AND GT ISZERO PUSH2 0x1243 JUMPI PUSH1 0x40 MLOAD PUSH32 0x8C379A000000000000000000000000000000000000000000000000000000000 DUP2 MSTORE PUSH1 0x4 ADD PUSH2 0x123A SWAP1 PUSH2 0x378D JUMP JUMPDEST PUSH1 0x40 MLOAD DUP1 SWAP2 SUB SWAP1 REVERT JUMPDEST PUSH1 0x0 DUP4 PUSH1 0x80 ADD PUSH1 0x20 DUP2 ADD SWAP1 PUSH2 0x1258 SWAP2 SWAP1 PUSH2 0x2D80 JUMP JUMPDEST PUSH6 0xFFFFFFFFFFFF AND EQ DUP1 PUSH2 0x129F JUMPI POP DUP3 PUSH1 0x80 ADD PUSH1 0x20 DUP2 ADD SWAP1 PUSH2 0x127A SWAP2 SWAP1 PUSH2 0x2D80 JUMP JUMPDEST PUSH6 0xFFFFFFFFFFFF AND DUP4 PUSH1 0x60 ADD PUSH1 0x20 DUP2 ADD SWAP1 PUSH2 0x1295 SWAP2 SWAP1 PUSH2 0x2D80 JUMP JUMPDEST PUSH6 0xFFFFFFFFFFFF AND LT JUMPDEST PUSH2 0x12DE JUMPI PUSH1 0x40 MLOAD PUSH32 0x8C379A000000000000000000000000000000000000000000000000000000000 DUP2 MSTORE PUSH1 0x4 ADD PUSH2 0x12D5 SWAP1 PUSH2 0x36AD JUMP JUMPDEST PUSH1 0x40 MLOAD DUP1 SWAP2 SUB SWAP1 REVERT JUMPDEST PUSH1 0x40 MLOAD DUP1 PUSH2 0x120 ADD PUSH1 0x40 MSTORE DUP1 PUSH1 0x2 PUSH1 0x0 DUP9 PUSH20 0xFFFFFFFFFFFFFFFFFFFFFFFFFFFFFFFFFFFFFFFF AND PUSH20 0xFFFFFFFFFFFFFFFFFFFFFFFFFFFFFFFFFFFFFFFF AND DUP2 MSTORE PUSH1 0x20 ADD SWAP1 DUP2 MSTORE PUSH1 0x20 ADD PUSH1 0x0 KECCAK256 PUSH1 0x0 DUP8 DUP2 MSTORE PUSH1 0x20 ADD SWAP1 DUP2 MSTORE PUSH1 0x20 ADD PUSH1 0x0 KECCAK256 PUSH1 0x0 ADD PUSH1 0x0 SWAP1 SLOAD SWAP1 PUSH2 0x100 EXP SWAP1 DIV PUSH4 0xFFFFFFFF AND PUSH4 0xFFFFFFFF AND DUP2 MSTORE PUSH1 0x20 ADD DUP5 PUSH1 0x20 ADD PUSH1 0x20 DUP2 ADD SWAP1 PUSH2 0x136C SWAP2 SWAP1 PUSH2 0x2D57 JUMP JUMPDEST PUSH4 0xFFFFFFFF AND DUP2 MSTORE PUSH1 0x20 ADD DUP5 PUSH1 0x40 ADD PUSH1 0x20 DUP2 ADD SWAP1 PUSH2 0x138A SWAP2 SWAP1 PUSH2 0x2D57 JUMP JUMPDEST PUSH4 0xFFFFFFFF AND DUP2 MSTORE PUSH1 0x20 ADD DUP5 PUSH1 0x60 ADD PUSH1 0x20 DUP2 ADD SWAP1 PUSH2 0x13A8 SWAP2 SWAP1 PUSH2 0x2D80 JUMP JUMPDEST PUSH6 0xFFFFFFFFFFFF AND DUP2 MSTORE PUSH1 0x20 ADD DUP5 PUSH1 0x80 ADD PUSH1 0x20 DUP2 ADD SWAP1 PUSH2 0x13C8 SWAP2 SWAP1 PUSH2 0x2D80 JUMP JUMPDEST PUSH6 0xFFFFFFFFFFFF AND DUP2 MSTORE PUSH1 0x20 ADD DUP5 PUSH1 0xA0 ADD PUSH1 0x20 DUP2 ADD SWAP1 PUSH2 0x13E8 SWAP2 SWAP1 PUSH2 0x2D05 JUMP JUMPDEST PUSH1 0x2 DUP2 GT ISZERO PUSH2 0x1420 JUMPI PUSH32 0x4E487B7100000000000000000000000000000000000000000000000000000000 PUSH1 0x0 MSTORE PUSH1 0x21 PUSH1 0x4 MSTORE PUSH1 0x24 PUSH1 0x0 REVERT JUMPDEST DUP2 MSTORE PUSH1 0x20 ADD DUP5 PUSH1 0xC0 ADD PUSH1 0x20 DUP2 ADD SWAP1 PUSH2 0x1438 SWAP2 SWAP1 PUSH2 0x2C8A JUMP JUMPDEST ISZERO ISZERO DUP2 MSTORE PUSH1 0x20 ADD DUP5 PUSH1 0xE0 ADD CALLDATALOAD DUP2 MSTORE PUSH1 0x20 ADD DUP5 DUP1 PUSH2 0x100 ADD SWAP1 PUSH2 0x145A SWAP2 SWAP1 PUSH2 0x3982 JUMP JUMPDEST DUP1 DUP1 PUSH1 0x1F ADD PUSH1 0x20 DUP1 SWAP2 DIV MUL PUSH1 0x20 ADD PUSH1 0x40 MLOAD SWAP1 DUP2 ADD PUSH1 0x40 MSTORE DUP1 SWAP4 SWAP3 SWAP2 SWAP1 DUP2 DUP2 MSTORE PUSH1 0x20 ADD DUP4 DUP4 DUP1 DUP3 DUP5 CALLDATACOPY PUSH1 0x0 DUP2 DUP5 ADD MSTORE PUSH1 0x1F NOT PUSH1 0x1F DUP3 ADD AND SWAP1 POP DUP1 DUP4 ADD SWAP3 POP POP POP POP POP POP POP DUP2 MSTORE POP PUSH1 0x2 PUSH1 0x0 DUP8 PUSH20 0xFFFFFFFFFFFFFFFFFFFFFFFFFFFFFFFFFFFFFFFF AND PUSH20 0xFFFFFFFFFFFFFFFFFFFFFFFFFFFFFFFFFFFFFFFF AND DUP2 MSTORE PUSH1 0x20 ADD SWAP1 DUP2 MSTORE PUSH1 0x20 ADD PUSH1 0x0 KECCAK256 PUSH1 0x0 DUP7 DUP2 MSTORE PUSH1 0x20 ADD SWAP1 DUP2 MSTORE PUSH1 0x20 ADD PUSH1 0x0 KECCAK256 PUSH1 0x0 DUP3 ADD MLOAD DUP2 PUSH1 0x0 ADD PUSH1 0x0 PUSH2 0x100 EXP DUP2 SLOAD DUP2 PUSH4 0xFFFFFFFF MUL NOT AND SWAP1 DUP4 PUSH4 0xFFFFFFFF AND MUL OR SWAP1 SSTORE POP PUSH1 0x20 DUP3 ADD MLOAD DUP2 PUSH1 0x0 ADD PUSH1 0x4 PUSH2 0x100 EXP DUP2 SLOAD DUP2 PUSH4 0xFFFFFFFF MUL NOT AND SWAP1 DUP4 PUSH4 0xFFFFFFFF AND MUL OR SWAP1 SSTORE POP PUSH1 0x40 DUP3 ADD MLOAD DUP2 PUSH1 0x0 ADD PUSH1 0x8 PUSH2 0x100 EXP DUP2 SLOAD DUP2 PUSH4 0xFFFFFFFF MUL NOT AND SWAP1 DUP4 PUSH4 0xFFFFFFFF AND MUL OR SWAP1 SSTORE POP PUSH1 0x60 DUP3 ADD MLOAD DUP2 PUSH1 0x0 ADD PUSH1 0xC PUSH2 0x100 EXP DUP2 SLOAD DUP2 PUSH6 0xFFFFFFFFFFFF MUL NOT AND SWAP1 DUP4 PUSH6 0xFFFFFFFFFFFF AND MUL OR SWAP1 SSTORE POP PUSH1 0x80 DUP3 ADD MLOAD DUP2 PUSH1 0x0 ADD PUSH1 0x12 PUSH2 0x100 EXP DUP2 SLOAD DUP2 PUSH6 0xFFFFFFFFFFFF MUL NOT AND SWAP1 DUP4 PUSH6 0xFFFFFFFFFFFF AND MUL OR SWAP1 SSTORE POP PUSH1 0xA0 DUP3 ADD MLOAD DUP2 PUSH1 0x0 ADD PUSH1 0x18 PUSH2 0x100 EXP DUP2 SLOAD DUP2 PUSH1 0xFF MUL NOT AND SWAP1 DUP4 PUSH1 0x2 DUP2 GT ISZERO PUSH2 0x160C JUMPI PUSH32 0x4E487B7100000000000000000000000000000000000000000000000000000000 PUSH1 0x0 MSTORE PUSH1 0x21 PUSH1 0x4 MSTORE PUSH1 0x24 PUSH1 0x0 REVERT JUMPDEST MUL OR SWAP1 SSTORE POP PUSH1 0xC0 DUP3 ADD MLOAD DUP2 PUSH1 0x0 ADD PUSH1 0x19 PUSH2 0x100 EXP DUP2 SLOAD DUP2 PUSH1 0xFF MUL NOT AND SWAP1 DUP4 ISZERO ISZERO MUL OR SWAP1 SSTORE POP PUSH1 0xE0 DUP3 ADD MLOAD DUP2 PUSH1 0x1 ADD SSTORE PUSH2 0x100 DUP3 ADD MLOAD DUP2 PUSH1 0x2 ADD SWAP1 DUP1 MLOAD SWAP1 PUSH1 0x20 ADD SWAP1 PUSH2 0x1658 SWAP3 SWAP2 SWAP1 PUSH2 0x2886 JUMP JUMPDEST POP SWAP1 POP POP POP POP POP POP POP JUMP JUMPDEST PUSH1 0x2 PUSH1 0x20 MSTORE DUP2 PUSH1 0x0 MSTORE PUSH1 0x40 PUSH1 0x0 KECCAK256 PUSH1 0x20 MSTORE DUP1 PUSH1 0x0 MSTORE PUSH1 0x40 PUSH1 0x0 KECCAK256 PUSH1 0x0 SWAP2 POP SWAP2 POP POP DUP1 PUSH1 0x0 ADD PUSH1 0x0 SWAP1 SLOAD SWAP1 PUSH2 0x100 EXP SWAP1 DIV PUSH4 0xFFFFFFFF AND SWAP1 DUP1 PUSH1 0x0 ADD PUSH1 0x4 SWAP1 SLOAD SWAP1 PUSH2 0x100 EXP SWAP1 DIV PUSH4 0xFFFFFFFF AND SWAP1 DUP1 PUSH1 0x0 ADD PUSH1 0x8 SWAP1 SLOAD SWAP1 PUSH2 0x100 EXP SWAP1 DIV PUSH4 0xFFFFFFFF AND SWAP1 DUP1 PUSH1 0x0 ADD PUSH1 0xC SWAP1 SLOAD SWAP1 PUSH2 0x100 EXP SWAP1 DIV PUSH6 0xFFFFFFFFFFFF AND SWAP1 DUP1 PUSH1 0x0 ADD PUSH1 0x12 SWAP1 SLOAD SWAP1 PUSH2 0x100 EXP SWAP1 DIV PUSH6 0xFFFFFFFFFFFF AND SWAP1 DUP1 PUSH1 0x0 ADD PUSH1 0x18 SWAP1 SLOAD SWAP1 PUSH2 0x100 EXP SWAP1 DIV PUSH1 0xFF AND SWAP1 DUP1 PUSH1 0x0 ADD PUSH1 0x19 SWAP1 SLOAD SWAP1 PUSH2 0x100 EXP SWAP1 DIV PUSH1 0xFF AND SWAP1 DUP1 PUSH1 0x1 ADD SLOAD SWAP1 DUP1 PUSH1 0x2 ADD DUP1 SLOAD PUSH2 0x1731 SWAP1 PUSH2 0x3BA8 JUMP JUMPDEST DUP1 PUSH1 0x1F ADD PUSH1 0x20 DUP1 SWAP2 DIV MUL PUSH1 0x20 ADD PUSH1 0x40 MLOAD SWAP1 DUP2 ADD PUSH1 0x40 MSTORE DUP1 SWAP3 SWAP2 SWAP1 DUP2 DUP2 MSTORE PUSH1 0x20 ADD DUP3 DUP1 SLOAD PUSH2 0x175D SWAP1 PUSH2 0x3BA8 JUMP JUMPDEST DUP1 ISZERO PUSH2 0x17AA JUMPI DUP1 PUSH1 0x1F LT PUSH2 0x177F JUMPI PUSH2 0x100 DUP1 DUP4 SLOAD DIV MUL DUP4 MSTORE SWAP2 PUSH1 0x20 ADD SWAP2 PUSH2 0x17AA JUMP JUMPDEST DUP3 ADD SWAP2 SWAP1 PUSH1 0x0 MSTORE PUSH1 0x20 PUSH1 0x0 KECCAK256 SWAP1 JUMPDEST DUP2 SLOAD DUP2 MSTORE SWAP1 PUSH1 0x1 ADD SWAP1 PUSH1 0x20 ADD DUP1 DUP4 GT PUSH2 0x178D JUMPI DUP3 SWAP1 SUB PUSH1 0x1F AND DUP3 ADD SWAP2 JUMPDEST POP POP POP POP POP SWAP1 POP DUP10 JUMP JUMPDEST PUSH1 0x1 PUSH1 0x20 MSTORE DUP1 PUSH1 0x0 MSTORE PUSH1 0x40 PUSH1 0x0 KECCAK256 PUSH1 0x0 SWAP2 POP SWAP1 POP SLOAD DUP2 JUMP JUMPDEST PUSH1 0x0 DUP3 PUSH1 0x0 DUP2 SWAP1 POP DUP1 PUSH20 0xFFFFFFFFFFFFFFFFFFFFFFFFFFFFFFFFFFFFFFFF AND PUSH4 0x24D7806C CALLER PUSH1 0x40 MLOAD DUP3 PUSH4 0xFFFFFFFF AND PUSH1 0xE0 SHL DUP2 MSTORE PUSH1 0x4 ADD PUSH2 0x180D SWAP2 SWAP1 PUSH2 0x3655 JUMP JUMPDEST PUSH1 0x20 PUSH1 0x40 MLOAD DUP1 DUP4 SUB DUP2 DUP7 DUP1 EXTCODESIZE ISZERO DUP1 ISZERO PUSH2 0x1825 JUMPI PUSH1 0x0 DUP1 REVERT JUMPDEST POP GAS STATICCALL ISZERO DUP1 ISZERO PUSH2 0x1839 JUMPI RETURNDATASIZE PUSH1 0x0 DUP1 RETURNDATACOPY RETURNDATASIZE PUSH1 0x0 REVERT JUMPDEST POP POP POP POP PUSH1 0x40 MLOAD RETURNDATASIZE PUSH1 0x1F NOT PUSH1 0x1F DUP3 ADD AND DUP3 ADD DUP1 PUSH1 0x40 MSTORE POP DUP2 ADD SWAP1 PUSH2 0x185D SWAP2 SWAP1 PUSH2 0x2CB3 JUMP JUMPDEST PUSH2 0x189C JUMPI PUSH1 0x40 MLOAD PUSH32 0x8C379A000000000000000000000000000000000000000000000000000000000 DUP2 MSTORE PUSH1 0x4 ADD PUSH2 0x1893 SWAP1 PUSH2 0x370D JUMP JUMPDEST PUSH1 0x40 MLOAD DUP1 SWAP2 SUB SWAP1 REVERT JUMPDEST PUSH1 0x0 DUP5 PUSH1 0x80 ADD PUSH1 0x20 DUP2 ADD SWAP1 PUSH2 0x18B1 SWAP2 SWAP1 PUSH2 0x2D80 JUMP JUMPDEST PUSH6 0xFFFFFFFFFFFF AND EQ DUP1 PUSH2 0x18F8 JUMPI POP DUP4 PUSH1 0x80 ADD PUSH1 0x20 DUP2 ADD SWAP1 PUSH2 0x18D3 SWAP2 SWAP1 PUSH2 0x2D80 JUMP JUMPDEST PUSH6 0xFFFFFFFFFFFF AND DUP5 PUSH1 0x60 ADD PUSH1 0x20 DUP2 ADD SWAP1 PUSH2 0x18EE SWAP2 SWAP1 PUSH2 0x2D80 JUMP JUMPDEST PUSH6 0xFFFFFFFFFFFF AND LT JUMPDEST PUSH2 0x1937 JUMPI PUSH1 0x40 MLOAD PUSH32 0x8C379A000000000000000000000000000000000000000000000000000000000 DUP2 MSTORE PUSH1 0x4 ADD PUSH2 0x192E SWAP1 PUSH2 0x36AD JUMP JUMPDEST PUSH1 0x40 MLOAD DUP1 SWAP2 SUB SWAP1 REVERT JUMPDEST PUSH2 0x2710 DUP5 PUSH1 0x20 ADD PUSH1 0x20 DUP2 ADD SWAP1 PUSH2 0x194D SWAP2 SWAP1 PUSH2 0x2D57 JUMP JUMPDEST PUSH4 0xFFFFFFFF AND LT PUSH2 0x1993 JUMPI PUSH1 0x40 MLOAD PUSH32 0x8C379A000000000000000000000000000000000000000000000000000000000 DUP2 MSTORE PUSH1 0x4 ADD PUSH2 0x198A SWAP1 PUSH2 0x36ED JUMP JUMPDEST PUSH1 0x40 MLOAD DUP1 SWAP2 SUB SWAP1 REVERT JUMPDEST PUSH1 0x0 PUSH1 0x1 PUSH1 0x0 DUP8 PUSH20 0xFFFFFFFFFFFFFFFFFFFFFFFFFFFFFFFFFFFFFFFF AND PUSH20 0xFFFFFFFFFFFFFFFFFFFFFFFFFFFFFFFFFFFFFFFF AND DUP2 MSTORE PUSH1 0x20 ADD SWAP1 DUP2 MSTORE PUSH1 0x20 ADD PUSH1 0x0 KECCAK256 SLOAD SWAP1 POP PUSH1 0x1 PUSH1 0x0 DUP8 PUSH20 0xFFFFFFFFFFFFFFFFFFFFFFFFFFFFFFFFFFFFFFFF AND PUSH20 0xFFFFFFFFFFFFFFFFFFFFFFFFFFFFFFFFFFFFFFFF AND DUP2 MSTORE PUSH1 0x20 ADD SWAP1 DUP2 MSTORE PUSH1 0x20 ADD PUSH1 0x0 KECCAK256 PUSH1 0x0 DUP2 SLOAD DUP1 SWAP3 SWAP2 SWAP1 PUSH2 0x1A27 SWAP1 PUSH2 0x3BDA JUMP JUMPDEST SWAP2 SWAP1 POP SSTORE POP PUSH1 0x40 MLOAD DUP1 PUSH2 0x120 ADD PUSH1 0x40 MSTORE DUP1 PUSH1 0x0 PUSH4 0xFFFFFFFF AND DUP2 MSTORE PUSH1 0x20 ADD DUP7 PUSH1 0x20 ADD PUSH1 0x20 DUP2 ADD SWAP1 PUSH2 0x1A58 SWAP2 SWAP1 PUSH2 0x2D57 JUMP JUMPDEST PUSH4 0xFFFFFFFF AND DUP2 MSTORE PUSH1 0x20 ADD DUP7 PUSH1 0x40 ADD PUSH1 0x20 DUP2 ADD SWAP1 PUSH2 0x1A76 SWAP2 SWAP1 PUSH2 0x2D57 JUMP JUMPDEST PUSH4 0xFFFFFFFF AND DUP2 MSTORE PUSH1 0x20 ADD DUP7 PUSH1 0x60 ADD PUSH1 0x20 DUP2 ADD SWAP1 PUSH2 0x1A94 SWAP2 SWAP1 PUSH2 0x2D80 JUMP JUMPDEST PUSH6 0xFFFFFFFFFFFF AND DUP2 MSTORE PUSH1 0x20 ADD DUP7 PUSH1 0x80 ADD PUSH1 0x20 DUP2 ADD SWAP1 PUSH2 0x1AB4 SWAP2 SWAP1 PUSH2 0x2D80 JUMP JUMPDEST PUSH6 0xFFFFFFFFFFFF AND DUP2 MSTORE PUSH1 0x20 ADD DUP7 PUSH1 0xA0 ADD PUSH1 0x20 DUP2 ADD SWAP1 PUSH2 0x1AD4 SWAP2 SWAP1 PUSH2 0x2D05 JUMP JUMPDEST PUSH1 0x2 DUP2 GT ISZERO PUSH2 0x1B0C JUMPI PUSH32 0x4E487B7100000000000000000000000000000000000000000000000000000000 PUSH1 0x0 MSTORE PUSH1 0x21 PUSH1 0x4 MSTORE PUSH1 0x24 PUSH1 0x0 REVERT JUMPDEST DUP2 MSTORE PUSH1 0x20 ADD DUP7 PUSH1 0xC0 ADD PUSH1 0x20 DUP2 ADD SWAP1 PUSH2 0x1B24 SWAP2 SWAP1 PUSH2 0x2C8A JUMP JUMPDEST ISZERO ISZERO DUP2 MSTORE PUSH1 0x20 ADD DUP7 PUSH1 0xE0 ADD CALLDATALOAD DUP2 MSTORE PUSH1 0x20 ADD DUP7 DUP1 PUSH2 0x100 ADD SWAP1 PUSH2 0x1B46 SWAP2 SWAP1 PUSH2 0x3982 JUMP JUMPDEST DUP1 DUP1 PUSH1 0x1F ADD PUSH1 0x20 DUP1 SWAP2 DIV MUL PUSH1 0x20 ADD PUSH1 0x40 MLOAD SWAP1 DUP2 ADD PUSH1 0x40 MSTORE DUP1 SWAP4 SWAP3 SWAP2 SWAP1 DUP2 DUP2 MSTORE PUSH1 0x20 ADD DUP4 DUP4 DUP1 DUP3 DUP5 CALLDATACOPY PUSH1 0x0 DUP2 DUP5 ADD MSTORE PUSH1 0x1F NOT PUSH1 0x1F DUP3 ADD AND SWAP1 POP DUP1 DUP4 ADD SWAP3 POP POP POP POP POP POP POP DUP2 MSTORE POP PUSH1 0x2 PUSH1 0x0 DUP9 PUSH20 0xFFFFFFFFFFFFFFFFFFFFFFFFFFFFFFFFFFFFFFFF AND PUSH20 0xFFFFFFFFFFFFFFFFFFFFFFFFFFFFFFFFFFFFFFFF AND DUP2 MSTORE PUSH1 0x20 ADD SWAP1 DUP2 MSTORE PUSH1 0x20 ADD PUSH1 0x0 KECCAK256 PUSH1 0x0 DUP4 DUP2 MSTORE PUSH1 0x20 ADD SWAP1 DUP2 MSTORE PUSH1 0x20 ADD PUSH1 0x0 KECCAK256 PUSH1 0x0 DUP3 ADD MLOAD DUP2 PUSH1 0x0 ADD PUSH1 0x0 PUSH2 0x100 EXP DUP2 SLOAD DUP2 PUSH4 0xFFFFFFFF MUL NOT AND SWAP1 DUP4 PUSH4 0xFFFFFFFF AND MUL OR SWAP1 SSTORE POP PUSH1 0x20 DUP3 ADD MLOAD DUP2 PUSH1 0x0 ADD PUSH1 0x4 PUSH2 0x100 EXP DUP2 SLOAD DUP2 PUSH4 0xFFFFFFFF MUL NOT AND SWAP1 DUP4 PUSH4 0xFFFFFFFF AND MUL OR SWAP1 SSTORE POP PUSH1 0x40 DUP3 ADD MLOAD DUP2 PUSH1 0x0 ADD PUSH1 0x8 PUSH2 0x100 EXP DUP2 SLOAD DUP2 PUSH4 0xFFFFFFFF MUL NOT AND SWAP1 DUP4 PUSH4 0xFFFFFFFF AND MUL OR SWAP1 SSTORE POP PUSH1 0x60 DUP3 ADD MLOAD DUP2 PUSH1 0x0 ADD PUSH1 0xC PUSH2 0x100 EXP DUP2 SLOAD DUP2 PUSH6 0xFFFFFFFFFFFF MUL NOT AND SWAP1 DUP4 PUSH6 0xFFFFFFFFFFFF AND MUL OR SWAP1 SSTORE POP PUSH1 0x80 DUP3 ADD MLOAD DUP2 PUSH1 0x0 ADD PUSH1 0x12 PUSH2 0x100 EXP DUP2 SLOAD DUP2 PUSH6 0xFFFFFFFFFFFF MUL NOT AND SWAP1 DUP4 PUSH6 0xFFFFFFFFFFFF AND MUL OR SWAP1 SSTORE POP PUSH1 0xA0 DUP3 ADD MLOAD DUP2 PUSH1 0x0 ADD PUSH1 0x18 PUSH2 0x100 EXP DUP2 SLOAD DUP2 PUSH1 0xFF MUL NOT AND SWAP1 DUP4 PUSH1 0x2 DUP2 GT ISZERO PUSH2 0x1CF8 JUMPI PUSH32 0x4E487B7100000000000000000000000000000000000000000000000000000000 PUSH1 0x0 MSTORE PUSH1 0x21 PUSH1 0x4 MSTORE PUSH1 0x24 PUSH1 0x0 REVERT JUMPDEST MUL OR SWAP1 SSTORE POP PUSH1 0xC0 DUP3 ADD MLOAD DUP2 PUSH1 0x0 ADD PUSH1 0x19 PUSH2 0x100 EXP DUP2 SLOAD DUP2 PUSH1 0xFF MUL NOT AND SWAP1 DUP4 ISZERO ISZERO MUL OR SWAP1 SSTORE POP PUSH1 0xE0 DUP3 ADD MLOAD DUP2 PUSH1 0x1 ADD SSTORE PUSH2 0x100 DUP3 ADD MLOAD DUP2 PUSH1 0x2 ADD SWAP1 DUP1 MLOAD SWAP1 PUSH1 0x20 ADD SWAP1 PUSH2 0x1D44 SWAP3 SWAP2 SWAP1 PUSH2 0x2886 JUMP JUMPDEST POP SWAP1 POP POP DUP1 DUP7 PUSH20 0xFFFFFFFFFFFFFFFFFFFFFFFFFFFFFFFFFFFFFFFF AND PUSH32 0xD02727DA4C6C6C111E00310108209A4DE39F6817414DF43CA1A10730D47C6A34 CALLER PUSH1 0x40 MLOAD PUSH2 0x1D8F SWAP2 SWAP1 PUSH2 0x3655 JUMP JUMPDEST PUSH1 0x40 MLOAD DUP1 SWAP2 SUB SWAP1 LOG3 DUP1 SWAP4 POP POP POP POP SWAP3 SWAP2 POP POP JUMP JUMPDEST PUSH1 0x0 PUSH1 0x1 PUSH1 0x0 DUP4 PUSH20 0xFFFFFFFFFFFFFFFFFFFFFFFFFFFFFFFFFFFFFFFF AND PUSH20 0xFFFFFFFFFFFFFFFFFFFFFFFFFFFFFFFFFFFFFFFF AND DUP2 MSTORE PUSH1 0x20 ADD SWAP1 DUP2 MSTORE PUSH1 0x20 ADD PUSH1 0x0 KECCAK256 SLOAD SWAP1 POP SWAP2 SWAP1 POP JUMP JUMPDEST PUSH1 0x60 PUSH1 0x0 PUSH2 0x1DFA DUP5 DUP5 PUSH2 0x228F JUMP JUMPDEST SWAP1 POP PUSH1 0x0 PUSH1 0x40 MLOAD DUP1 PUSH1 0x20 ADD PUSH1 0x40 MSTORE DUP1 PUSH1 0x0 DUP2 MSTORE POP SWAP1 POP PUSH1 0x2 PUSH1 0x0 DUP7 PUSH20 0xFFFFFFFFFFFFFFFFFFFFFFFFFFFFFFFFFFFFFFFF AND PUSH20 0xFFFFFFFFFFFFFFFFFFFFFFFFFFFFFFFFFFFFFFFF AND DUP2 MSTORE PUSH1 0x20 ADD SWAP1 DUP2 MSTORE PUSH1 0x20 ADD PUSH1 0x0 KECCAK256 PUSH1 0x0 DUP4 DUP2 MSTORE PUSH1 0x20 ADD SWAP1 DUP2 MSTORE PUSH1 0x20 ADD PUSH1 0x0 KECCAK256 PUSH1 0x0 ADD PUSH1 0x19 SWAP1 SLOAD SWAP1 PUSH2 0x100 EXP SWAP1 DIV PUSH1 0xFF AND PUSH2 0x1F93 JUMPI DUP4 PUSH1 0x40 MLOAD PUSH1 0x20 ADD PUSH2 0x1E86 SWAP2 SWAP1 PUSH2 0x362F JUMP JUMPDEST PUSH1 0x40 MLOAD PUSH1 0x20 DUP2 DUP4 SUB SUB DUP2 MSTORE SWAP1 PUSH1 0x40 MSTORE SWAP1 POP PUSH1 0x2 DUP1 DUP2 GT ISZERO PUSH2 0x1ED0 JUMPI PUSH32 0x4E487B7100000000000000000000000000000000000000000000000000000000 PUSH1 0x0 MSTORE PUSH1 0x21 PUSH1 0x4 MSTORE PUSH1 0x24 PUSH1 0x0 REVERT JUMPDEST PUSH1 0x2 PUSH1 0x0 DUP8 PUSH20 0xFFFFFFFFFFFFFFFFFFFFFFFFFFFFFFFFFFFFFFFF AND PUSH20 0xFFFFFFFFFFFFFFFFFFFFFFFFFFFFFFFFFFFFFFFF AND DUP2 MSTORE PUSH1 0x20 ADD SWAP1 DUP2 MSTORE PUSH1 0x20 ADD PUSH1 0x0 KECCAK256 PUSH1 0x0 DUP5 DUP2 MSTORE PUSH1 0x20 ADD SWAP1 DUP2 MSTORE PUSH1 0x20 ADD PUSH1 0x0 KECCAK256 PUSH1 0x0 ADD PUSH1 0x18 SWAP1 SLOAD SWAP1 PUSH2 0x100 EXP SWAP1 DIV PUSH1 0xFF AND PUSH1 0x2 DUP2 GT ISZERO PUSH2 0x1F69 JUMPI PUSH32 0x4E487B7100000000000000000000000000000000000000000000000000000000 PUSH1 0x0 MSTORE PUSH1 0x21 PUSH1 0x4 MSTORE PUSH1 0x24 PUSH1 0x0 REVERT JUMPDEST EQ ISZERO PUSH2 0x1F92 JUMPI DUP1 PUSH1 0x40 MLOAD PUSH1 0x20 ADD PUSH2 0x1F80 SWAP2 SWAP1 PUSH2 0x360D JUMP JUMPDEST PUSH1 0x40 MLOAD PUSH1 0x20 DUP2 DUP4 SUB SUB DUP2 MSTORE SWAP1 PUSH1 0x40 MSTORE SWAP1 POP JUMPDEST JUMPDEST PUSH1 0x0 PUSH1 0x40 MLOAD DUP1 PUSH1 0x20 ADD PUSH1 0x40 MSTORE DUP1 PUSH1 0x0 DUP2 MSTORE POP SWAP1 POP PUSH1 0x2 DUP1 DUP2 GT ISZERO PUSH2 0x1FE0 JUMPI PUSH32 0x4E487B7100000000000000000000000000000000000000000000000000000000 PUSH1 0x0 MSTORE PUSH1 0x21 PUSH1 0x4 MSTORE PUSH1 0x24 PUSH1 0x0 REVERT JUMPDEST PUSH1 0x2 PUSH1 0x0 DUP9 PUSH20 0xFFFFFFFFFFFFFFFFFFFFFFFFFFFFFFFFFFFFFFFF AND PUSH20 0xFFFFFFFFFFFFFFFFFFFFFFFFFFFFFFFFFFFFFFFF AND DUP2 MSTORE PUSH1 0x20 ADD SWAP1 DUP2 MSTORE PUSH1 0x20 ADD PUSH1 0x0 KECCAK256 PUSH1 0x0 DUP6 DUP2 MSTORE PUSH1 0x20 ADD SWAP1 DUP2 MSTORE PUSH1 0x20 ADD PUSH1 0x0 KECCAK256 PUSH1 0x0 ADD PUSH1 0x18 SWAP1 SLOAD SWAP1 PUSH2 0x100 EXP SWAP1 DIV PUSH1 0xFF AND PUSH1 0x2 DUP2 GT ISZERO PUSH2 0x2079 JUMPI PUSH32 0x4E487B7100000000000000000000000000000000000000000000000000000000 PUSH1 0x0 MSTORE PUSH1 0x21 PUSH1 0x4 MSTORE PUSH1 0x24 PUSH1 0x0 REVERT JUMPDEST EQ ISZERO PUSH2 0x20BC JUMPI PUSH1 0x40 MLOAD DUP1 PUSH1 0x40 ADD PUSH1 0x40 MSTORE DUP1 PUSH1 0x7 DUP2 MSTORE PUSH1 0x20 ADD PUSH32 0x697066733A2F2F00000000000000000000000000000000000000000000000000 DUP2 MSTORE POP SWAP1 POP PUSH2 0x21CF JUMP JUMPDEST PUSH1 0x1 PUSH1 0x2 DUP2 GT ISZERO PUSH2 0x20F6 JUMPI PUSH32 0x4E487B7100000000000000000000000000000000000000000000000000000000 PUSH1 0x0 MSTORE PUSH1 0x21 PUSH1 0x4 MSTORE PUSH1 0x24 PUSH1 0x0 REVERT JUMPDEST PUSH1 0x2 PUSH1 0x0 DUP9 PUSH20 0xFFFFFFFFFFFFFFFFFFFFFFFFFFFFFFFFFFFFFFFF AND PUSH20 0xFFFFFFFFFFFFFFFFFFFFFFFFFFFFFFFFFFFFFFFF AND DUP2 MSTORE PUSH1 0x20 ADD SWAP1 DUP2 MSTORE PUSH1 0x20 ADD PUSH1 0x0 KECCAK256 PUSH1 0x0 DUP6 DUP2 MSTORE PUSH1 0x20 ADD SWAP1 DUP2 MSTORE PUSH1 0x20 ADD PUSH1 0x0 KECCAK256 PUSH1 0x0 ADD PUSH1 0x18 SWAP1 SLOAD SWAP1 PUSH2 0x100 EXP SWAP1 DIV PUSH1 0xFF AND PUSH1 0x2 DUP2 GT ISZERO PUSH2 0x218F JUMPI PUSH32 0x4E487B7100000000000000000000000000000000000000000000000000000000 PUSH1 0x0 MSTORE PUSH1 0x21 PUSH1 0x4 MSTORE PUSH1 0x24 PUSH1 0x0 REVERT JUMPDEST EQ ISZERO PUSH2 0x21CE JUMPI PUSH1 0x40 MLOAD DUP1 PUSH1 0x40 ADD PUSH1 0x40 MSTORE DUP1 PUSH1 0x14 DUP2 MSTORE PUSH1 0x20 ADD PUSH32 0x68747470733A2F2F617277656176652E6E65742F000000000000000000000000 DUP2 MSTORE POP SWAP1 POP JUMPDEST JUMPDEST DUP1 PUSH1 0x2 PUSH1 0x0 DUP9 PUSH20 0xFFFFFFFFFFFFFFFFFFFFFFFFFFFFFFFFFFFFFFFF AND PUSH20 0xFFFFFFFFFFFFFFFFFFFFFFFFFFFFFFFFFFFFFFFF AND DUP2 MSTORE PUSH1 0x20 ADD SWAP1 DUP2 MSTORE PUSH1 0x20 ADD PUSH1 0x0 KECCAK256 PUSH1 0x0 DUP6 DUP2 MSTORE PUSH1 0x20 ADD SWAP1 DUP2 MSTORE PUSH1 0x20 ADD PUSH1 0x0 KECCAK256 PUSH1 0x2 ADD DUP4 PUSH1 0x40 MLOAD PUSH1 0x20 ADD PUSH2 0x2236 SWAP4 SWAP3 SWAP2 SWAP1 PUSH2 0x35DC JUMP JUMPDEST PUSH1 0x40 MLOAD PUSH1 0x20 DUP2 DUP4 SUB SUB DUP2 MSTORE SWAP1 PUSH1 0x40 MSTORE SWAP4 POP POP POP POP SWAP3 SWAP2 POP POP JUMP JUMPDEST PUSH1 0x3 PUSH1 0x20 MSTORE DUP3 PUSH1 0x0 MSTORE PUSH1 0x40 PUSH1 0x0 KECCAK256 PUSH1 0x20 MSTORE DUP2 PUSH1 0x0 MSTORE PUSH1 0x40 PUSH1 0x0 KECCAK256 PUSH1 0x20 MSTORE DUP1 PUSH1 0x0 MSTORE PUSH1 0x40 PUSH1 0x0 KECCAK256 PUSH1 0x0 SWAP3 POP SWAP3 POP POP SWAP1 SLOAD SWAP1 PUSH2 0x100 EXP SWAP1 DIV PUSH4 0xFFFFFFFF AND DUP2 JUMP JUMPDEST PUSH1 0x0 DUP1 PUSH1 0x1 PUSH1 0x0 DUP6 PUSH20 0xFFFFFFFFFFFFFFFFFFFFFFFFFFFFFFFFFFFFFFFF AND PUSH20 0xFFFFFFFFFFFFFFFFFFFFFFFFFFFFFFFFFFFFFFFF AND DUP2 MSTORE PUSH1 0x20 ADD SWAP1 DUP2 MSTORE PUSH1 0x20 ADD PUSH1 0x0 KECCAK256 SLOAD GT PUSH2 0x2312 JUMPI PUSH1 0x40 MLOAD PUSH32 0x8C379A000000000000000000000000000000000000000000000000000000000 DUP2 MSTORE PUSH1 0x4 ADD PUSH2 0x2309 SWAP1 PUSH2 0x376D JUMP JUMPDEST PUSH1 0x40 MLOAD DUP1 SWAP2 SUB SWAP1 REVERT JUMPDEST PUSH1 0x0 PUSH1 0x1 SWAP1 POP JUMPDEST PUSH1 0x1 PUSH1 0x0 DUP6 PUSH20 0xFFFFFFFFFFFFFFFFFFFFFFFFFFFFFFFFFFFFFFFF AND PUSH20 0xFFFFFFFFFFFFFFFFFFFFFFFFFFFFFFFFFFFFFFFF AND DUP2 MSTORE PUSH1 0x20 ADD SWAP1 DUP2 MSTORE PUSH1 0x20 ADD PUSH1 0x0 KECCAK256 SLOAD DUP2 GT PUSH2 0x24F9 JUMPI PUSH1 0x0 PUSH1 0x4 PUSH1 0x0 DUP7 PUSH20 0xFFFFFFFFFFFFFFFFFFFFFFFFFFFFFFFFFFFFFFFF AND PUSH20 0xFFFFFFFFFFFFFFFFFFFFFFFFFFFFFFFFFFFFFFFF AND DUP2 MSTORE PUSH1 0x20 ADD SWAP1 DUP2 MSTORE PUSH1 0x20 ADD PUSH1 0x0 KECCAK256 PUSH1 0x0 DUP4 DUP2 MSTORE PUSH1 0x20 ADD SWAP1 DUP2 MSTORE PUSH1 0x20 ADD PUSH1 0x0 KECCAK256 DUP1 SLOAD DUP1 PUSH1 0x20 MUL PUSH1 0x20 ADD PUSH1 0x40 MLOAD SWAP1 DUP2 ADD PUSH1 0x40 MSTORE DUP1 SWAP3 SWAP2 SWAP1 DUP2 DUP2 MSTORE PUSH1 0x20 ADD PUSH1 0x0 SWAP1 JUMPDEST DUP3 DUP3 LT ISZERO PUSH2 0x2417 JUMPI DUP4 DUP3 SWAP1 PUSH1 0x0 MSTORE PUSH1 0x20 PUSH1 0x0 KECCAK256 SWAP1 PUSH1 0x2 MUL ADD PUSH1 0x40 MLOAD DUP1 PUSH1 0x40 ADD PUSH1 0x40 MSTORE SWAP1 DUP2 PUSH1 0x0 DUP3 ADD SLOAD DUP2 MSTORE PUSH1 0x20 ADD PUSH1 0x1 DUP3 ADD SLOAD DUP2 MSTORE POP POP DUP2 MSTORE PUSH1 0x20 ADD SWAP1 PUSH1 0x1 ADD SWAP1 PUSH2 0x23D1 JUMP JUMPDEST POP POP POP POP SWAP1 POP PUSH1 0x0 DUP1 PUSH1 0x0 SWAP1 POP JUMPDEST DUP3 MLOAD DUP2 LT ISZERO PUSH2 0x24E3 JUMPI PUSH1 0x0 DUP4 DUP3 DUP2 MLOAD DUP2 LT PUSH2 0x2469 JUMPI PUSH32 0x4E487B7100000000000000000000000000000000000000000000000000000000 PUSH1 0x0 MSTORE PUSH1 0x32 PUSH1 0x4 MSTORE PUSH1 0x24 PUSH1 0x0 REVERT JUMPDEST PUSH1 0x20 MUL PUSH1 0x20 ADD ADD MLOAD SWAP1 POP DUP1 PUSH1 0x0 ADD MLOAD DUP8 LT ISZERO PUSH2 0x2485 JUMPI POP PUSH2 0x24E3 JUMP JUMPDEST DUP1 PUSH1 0x0 ADD MLOAD DUP8 LT ISZERO DUP1 ISZERO PUSH2 0x24AB JUMPI POP DUP1 PUSH1 0x20 ADD MLOAD DUP2 PUSH1 0x0 ADD MLOAD PUSH2 0x24A8 SWAP2 SWAP1 PUSH2 0x3A26 JUMP JUMPDEST DUP8 LT JUMPDEST ISZERO PUSH2 0x24BD JUMPI DUP5 SWAP6 POP POP POP POP POP POP PUSH2 0x2535 JUMP JUMPDEST DUP1 PUSH1 0x20 ADD MLOAD DUP4 PUSH2 0x24CD SWAP2 SWAP1 PUSH2 0x3A26 JUMP JUMPDEST SWAP3 POP POP DUP1 DUP1 PUSH2 0x24DB SWAP1 PUSH2 0x3BDA JUMP JUMPDEST SWAP2 POP POP PUSH2 0x2425 JUMP JUMPDEST POP POP POP DUP1 DUP1 PUSH2 0x24F1 SWAP1 PUSH2 0x3BDA JUMP JUMPDEST SWAP2 POP POP PUSH2 0x2319 JUMP JUMPDEST POP PUSH1 0x40 MLOAD PUSH32 0x8C379A000000000000000000000000000000000000000000000000000000000 DUP2 MSTORE PUSH1 0x4 ADD PUSH2 0x252C SWAP1 PUSH2 0x372D JUMP JUMPDEST PUSH1 0x40 MLOAD DUP1 SWAP2 SUB SWAP1 REVERT JUMPDEST SWAP3 SWAP2 POP POP JUMP JUMPDEST PUSH1 0x0 DUP3 PUSH2 0x2548 DUP6 DUP5 PUSH2 0x2702 JUMP JUMPDEST EQ SWAP1 POP SWAP4 SWAP3 POP POP POP JUMP JUMPDEST PUSH1 0x0 PUSH1 0x4 PUSH1 0x0 DUP6 PUSH20 0xFFFFFFFFFFFFFFFFFFFFFFFFFFFFFFFFFFFFFFFF AND PUSH20 0xFFFFFFFFFFFFFFFFFFFFFFFFFFFFFFFFFFFFFFFF AND DUP2 MSTORE PUSH1 0x20 ADD SWAP1 DUP2 MSTORE PUSH1 0x20 ADD PUSH1 0x0 KECCAK256 PUSH1 0x0 DUP5 DUP2 MSTORE PUSH1 0x20 ADD SWAP1 DUP2 MSTORE PUSH1 0x20 ADD PUSH1 0x0 KECCAK256 SWAP1 POP PUSH1 0x0 DUP2 DUP1 SLOAD SWAP1 POP EQ ISZERO PUSH2 0x260E JUMPI DUP1 PUSH1 0x40 MLOAD DUP1 PUSH1 0x40 ADD PUSH1 0x40 MSTORE DUP1 DUP5 DUP2 MSTORE PUSH1 0x20 ADD PUSH1 0x1 DUP2 MSTORE POP SWAP1 DUP1 PUSH1 0x1 DUP2 SLOAD ADD DUP1 DUP3 SSTORE DUP1 SWAP2 POP POP PUSH1 0x1 SWAP1 SUB SWAP1 PUSH1 0x0 MSTORE PUSH1 0x20 PUSH1 0x0 KECCAK256 SWAP1 PUSH1 0x2 MUL ADD PUSH1 0x0 SWAP1 SWAP2 SWAP1 SWAP2 SWAP1 SWAP2 POP PUSH1 0x0 DUP3 ADD MLOAD DUP2 PUSH1 0x0 ADD SSTORE PUSH1 0x20 DUP3 ADD MLOAD DUP2 PUSH1 0x1 ADD SSTORE POP POP PUSH2 0x26FC JUMP JUMPDEST PUSH1 0x0 DUP2 PUSH1 0x1 DUP4 DUP1 SLOAD SWAP1 POP PUSH2 0x2622 SWAP2 SWAP1 PUSH2 0x3A7C JUMP JUMPDEST DUP2 SLOAD DUP2 LT PUSH2 0x2659 JUMPI PUSH32 0x4E487B7100000000000000000000000000000000000000000000000000000000 PUSH1 0x0 MSTORE PUSH1 0x32 PUSH1 0x4 MSTORE PUSH1 0x24 PUSH1 0x0 REVERT JUMPDEST SWAP1 PUSH1 0x0 MSTORE PUSH1 0x20 PUSH1 0x0 KECCAK256 SWAP1 PUSH1 0x2 MUL ADD SWAP1 POP DUP3 DUP2 PUSH1 0x1 ADD SLOAD DUP3 PUSH1 0x0 ADD SLOAD PUSH2 0x267E SWAP2 SWAP1 PUSH2 0x3A26 JUMP JUMPDEST EQ ISZERO PUSH2 0x26A3 JUMPI DUP1 PUSH1 0x1 ADD PUSH1 0x0 DUP2 SLOAD DUP1 SWAP3 SWAP2 SWAP1 PUSH2 0x2699 SWAP1 PUSH2 0x3BDA JUMP JUMPDEST SWAP2 SWAP1 POP SSTORE POP PUSH2 0x26FA JUMP JUMPDEST DUP2 PUSH1 0x40 MLOAD DUP1 PUSH1 0x40 ADD PUSH1 0x40 MSTORE DUP1 DUP6 DUP2 MSTORE PUSH1 0x20 ADD PUSH1 0x1 DUP2 MSTORE POP SWAP1 DUP1 PUSH1 0x1 DUP2 SLOAD ADD DUP1 DUP3 SSTORE DUP1 SWAP2 POP POP PUSH1 0x1 SWAP1 SUB SWAP1 PUSH1 0x0 MSTORE PUSH1 0x20 PUSH1 0x0 KECCAK256 SWAP1 PUSH1 0x2 MUL ADD PUSH1 0x0 SWAP1 SWAP2 SWAP1 SWAP2 SWAP1 SWAP2 POP PUSH1 0x0 DUP3 ADD MLOAD DUP2 PUSH1 0x0 ADD SSTORE PUSH1 0x20 DUP3 ADD MLOAD DUP2 PUSH1 0x1 ADD SSTORE POP POP JUMPDEST POP JUMPDEST POP POP POP POP JUMP JUMPDEST PUSH1 0x0 DUP1 DUP3 SWAP1 POP PUSH1 0x0 JUMPDEST DUP5 MLOAD DUP2 LT ISZERO PUSH2 0x27D0 JUMPI PUSH1 0x0 DUP6 DUP3 DUP2 MLOAD DUP2 LT PUSH2 0x274F JUMPI PUSH32 0x4E487B7100000000000000000000000000000000000000000000000000000000 PUSH1 0x0 MSTORE PUSH1 0x32 PUSH1 0x4 MSTORE PUSH1 0x24 PUSH1 0x0 REVERT JUMPDEST PUSH1 0x20 MUL PUSH1 0x20 ADD ADD MLOAD SWAP1 POP DUP1 DUP4 GT PUSH2 0x2790 JUMPI DUP3 DUP2 PUSH1 0x40 MLOAD PUSH1 0x20 ADD PUSH2 0x2773 SWAP3 SWAP2 SWAP1 PUSH2 0x35B0 JUMP JUMPDEST PUSH1 0x40 MLOAD PUSH1 0x20 DUP2 DUP4 SUB SUB DUP2 MSTORE SWAP1 PUSH1 0x40 MSTORE DUP1 MLOAD SWAP1 PUSH1 0x20 ADD KECCAK256 SWAP3 POP PUSH2 0x27BC JUMP JUMPDEST DUP1 DUP4 PUSH1 0x40 MLOAD PUSH1 0x20 ADD PUSH2 0x27A3 SWAP3 SWAP2 SWAP1 PUSH2 0x35B0 JUMP JUMPDEST PUSH1 0x40 MLOAD PUSH1 0x20 DUP2 DUP4 SUB SUB DUP2 MSTORE SWAP1 PUSH1 0x40 MSTORE DUP1 MLOAD SWAP1 PUSH1 0x20 ADD KECCAK256 SWAP3 POP JUMPDEST POP DUP1 DUP1 PUSH2 0x27C8 SWAP1 PUSH2 0x3BDA JUMP JUMPDEST SWAP2 POP POP PUSH2 0x270B JUMP JUMPDEST POP DUP1 SWAP2 POP POP SWAP3 SWAP2 POP POP JUMP JUMPDEST PUSH1 0x40 MLOAD DUP1 PUSH2 0x120 ADD PUSH1 0x40 MSTORE DUP1 PUSH1 0x0 PUSH4 0xFFFFFFFF AND DUP2 MSTORE PUSH1 0x20 ADD PUSH1 0x0 PUSH4 0xFFFFFFFF AND DUP2 MSTORE PUSH1 0x20 ADD PUSH1 0x0 PUSH4 0xFFFFFFFF AND DUP2 MSTORE PUSH1 0x20 ADD PUSH1 0x0 PUSH6 0xFFFFFFFFFFFF AND DUP2 MSTORE PUSH1 0x20 ADD PUSH1 0x0 PUSH6 0xFFFFFFFFFFFF AND DUP2 MSTORE PUSH1 0x20 ADD PUSH1 0x0 PUSH1 0x2 DUP2 GT ISZERO PUSH2 0x2866 JUMPI PUSH32 0x4E487B7100000000000000000000000000000000000000000000000000000000 PUSH1 0x0 MSTORE PUSH1 0x21 PUSH1 0x4 MSTORE PUSH1 0x24 PUSH1 0x0 REVERT JUMPDEST DUP2 MSTORE PUSH1 0x20 ADD PUSH1 0x0 ISZERO ISZERO DUP2 MSTORE PUSH1 0x20 ADD PUSH1 0x0 DUP1 NOT AND DUP2 MSTORE PUSH1 0x20 ADD PUSH1 0x60 DUP2 MSTORE POP SWAP1 JUMP JUMPDEST DUP3 DUP1 SLOAD PUSH2 0x2892 SWAP1 PUSH2 0x3BA8 JUMP JUMPDEST SWAP1 PUSH1 0x0 MSTORE PUSH1 0x20 PUSH1 0x0 KECCAK256 SWAP1 PUSH1 0x1F ADD PUSH1 0x20 SWAP1 DIV DUP2 ADD SWAP3 DUP3 PUSH2 0x28B4 JUMPI PUSH1 0x0 DUP6 SSTORE PUSH2 0x28FB JUMP JUMPDEST DUP3 PUSH1 0x1F LT PUSH2 0x28CD JUMPI DUP1 MLOAD PUSH1 0xFF NOT AND DUP4 DUP1 ADD OR DUP6 SSTORE PUSH2 0x28FB JUMP JUMPDEST DUP3 DUP1 ADD PUSH1 0x1 ADD DUP6 SSTORE DUP3 ISZERO PUSH2 0x28FB JUMPI SWAP2 DUP3 ADD JUMPDEST DUP3 DUP2 GT ISZERO PUSH2 0x28FA JUMPI DUP3 MLOAD DUP3 SSTORE SWAP2 PUSH1 0x20 ADD SWAP2 SWAP1 PUSH1 0x1 ADD SWAP1 PUSH2 0x28DF JUMP JUMPDEST JUMPDEST POP SWAP1 POP PUSH2 0x2908 SWAP2 SWAP1 PUSH2 0x290C JUMP JUMPDEST POP SWAP1 JUMP JUMPDEST JUMPDEST DUP1 DUP3 GT ISZERO PUSH2 0x2925 JUMPI PUSH1 0x0 DUP2 PUSH1 0x0 SWAP1 SSTORE POP PUSH1 0x1 ADD PUSH2 0x290D JUMP JUMPDEST POP SWAP1 JUMP JUMPDEST PUSH1 0x0 DUP2 CALLDATALOAD SWAP1 POP PUSH2 0x2938 DUP2 PUSH2 0x3D39 JUMP JUMPDEST SWAP3 SWAP2 POP POP JUMP JUMPDEST PUSH1 0x0 DUP1 DUP4 PUSH1 0x1F DUP5 ADD SLT PUSH2 0x2950 JUMPI PUSH1 0x0 DUP1 REVERT JUMPDEST DUP3 CALLDATALOAD SWAP1 POP PUSH8 0xFFFFFFFFFFFFFFFF DUP2 GT ISZERO PUSH2 0x2969 JUMPI PUSH1 0x0 DUP1 REVERT JUMPDEST PUSH1 0x20 DUP4 ADD SWAP2 POP DUP4 PUSH1 0x20 DUP3 MUL DUP4 ADD GT ISZERO PUSH2 0x2981 JUMPI PUSH1 0x0 DUP1 REVERT JUMPDEST SWAP3 POP SWAP3 SWAP1 POP JUMP JUMPDEST PUSH1 0x0 DUP2 CALLDATALOAD SWAP1 POP PUSH2 0x2997 DUP2 PUSH2 0x3D50 JUMP JUMPDEST SWAP3 SWAP2 POP POP JUMP JUMPDEST PUSH1 0x0 DUP2 MLOAD SWAP1 POP PUSH2 0x29AC DUP2 PUSH2 0x3D50 JUMP JUMPDEST SWAP3 SWAP2 POP POP JUMP JUMPDEST PUSH1 0x0 DUP2 CALLDATALOAD SWAP1 POP PUSH2 0x29C1 DUP2 PUSH2 0x3D67 JUMP JUMPDEST SWAP3 SWAP2 POP POP JUMP JUMPDEST PUSH1 0x0 DUP2 CALLDATALOAD SWAP1 POP PUSH2 0x29D6 DUP2 PUSH2 0x3D7E JUMP JUMPDEST SWAP3 SWAP2 POP POP JUMP JUMPDEST PUSH1 0x0 PUSH2 0x120 DUP3 DUP5 SUB SLT ISZERO PUSH2 0x29EF JUMPI PUSH1 0x0 DUP1 REVERT JUMPDEST DUP2 SWAP1 POP SWAP3 SWAP2 POP POP JUMP JUMPDEST PUSH1 0x0 DUP2 CALLDATALOAD SWAP1 POP PUSH2 0x2A07 DUP2 PUSH2 0x3D8E JUMP JUMPDEST SWAP3 SWAP2 POP POP JUMP JUMPDEST PUSH1 0x0 DUP2 MLOAD SWAP1 POP PUSH2 0x2A1C DUP2 PUSH2 0x3D8E JUMP JUMPDEST SWAP3 SWAP2 POP POP JUMP JUMPDEST PUSH1 0x0 DUP2 CALLDATALOAD SWAP1 POP PUSH2 0x2A31 DUP2 PUSH2 0x3DA5 JUMP JUMPDEST SWAP3 SWAP2 POP POP JUMP JUMPDEST PUSH1 0x0 DUP2 CALLDATALOAD SWAP1 POP PUSH2 0x2A46 DUP2 PUSH2 0x3DBC JUMP JUMPDEST SWAP3 SWAP2 POP POP JUMP JUMPDEST PUSH1 0x0 PUSH1 0x20 DUP3 DUP5 SUB SLT ISZERO PUSH2 0x2A5E JUMPI PUSH1 0x0 DUP1 REVERT JUMPDEST PUSH1 0x0 PUSH2 0x2A6C DUP5 DUP3 DUP6 ADD PUSH2 0x2929 JUMP JUMPDEST SWAP2 POP POP SWAP3 SWAP2 POP POP JUMP JUMPDEST PUSH1 0x0 DUP1 PUSH1 0x40 DUP4 DUP6 SUB SLT ISZERO PUSH2 0x2A88 JUMPI PUSH1 0x0 DUP1 REVERT JUMPDEST PUSH1 0x0 PUSH2 0x2A96 DUP6 DUP3 DUP7 ADD PUSH2 0x2929 JUMP JUMPDEST SWAP3 POP POP PUSH1 0x20 DUP4 ADD CALLDATALOAD PUSH8 0xFFFFFFFFFFFFFFFF DUP2 GT ISZERO PUSH2 0x2AB3 JUMPI PUSH1 0x0 DUP1 REVERT JUMPDEST PUSH2 0x2ABF DUP6 DUP3 DUP7 ADD PUSH2 0x29DC JUMP JUMPDEST SWAP2 POP POP SWAP3 POP SWAP3 SWAP1 POP JUMP JUMPDEST PUSH1 0x0 DUP1 PUSH1 0x40 DUP4 DUP6 SUB SLT ISZERO PUSH2 0x2ADC JUMPI PUSH1 0x0 DUP1 REVERT JUMPDEST PUSH1 0x0 PUSH2 0x2AEA DUP6 DUP3 DUP7 ADD PUSH2 0x2929 JUMP JUMPDEST SWAP3 POP POP PUSH1 0x20 PUSH2 0x2AFB DUP6 DUP3 DUP7 ADD PUSH2 0x29F8 JUMP JUMPDEST SWAP2 POP POP SWAP3 POP SWAP3 SWAP1 POP JUMP JUMPDEST PUSH1 0x0 DUP1 PUSH1 0x0 PUSH1 0x60 DUP5 DUP7 SUB SLT ISZERO PUSH2 0x2B1A JUMPI PUSH1 0x0 DUP1 REVERT JUMPDEST PUSH1 0x0 PUSH2 0x2B28 DUP7 DUP3 DUP8 ADD PUSH2 0x2929 JUMP JUMPDEST SWAP4 POP POP PUSH1 0x20 PUSH2 0x2B39 DUP7 DUP3 DUP8 ADD PUSH2 0x29F8 JUMP JUMPDEST SWAP3 POP POP PUSH1 0x40 PUSH2 0x2B4A DUP7 DUP3 DUP8 ADD PUSH2 0x2929 JUMP JUMPDEST SWAP2 POP POP SWAP3 POP SWAP3 POP SWAP3 JUMP JUMPDEST PUSH1 0x0 DUP1 PUSH1 0x0 DUP1 PUSH1 0x0 PUSH1 0x80 DUP7 DUP9 SUB SLT ISZERO PUSH2 0x2B6C JUMPI PUSH1 0x0 DUP1 REVERT JUMPDEST PUSH1 0x0 PUSH2 0x2B7A DUP9 DUP3 DUP10 ADD PUSH2 0x2929 JUMP JUMPDEST SWAP6 POP POP PUSH1 0x20 PUSH2 0x2B8B DUP9 DUP3 DUP10 ADD PUSH2 0x29F8 JUMP JUMPDEST SWAP5 POP POP PUSH1 0x40 DUP7 ADD CALLDATALOAD PUSH8 0xFFFFFFFFFFFFFFFF DUP2 GT ISZERO PUSH2 0x2BA8 JUMPI PUSH1 0x0 DUP1 REVERT JUMPDEST PUSH2 0x2BB4 DUP9 DUP3 DUP10 ADD PUSH2 0x293E JUMP JUMPDEST SWAP4 POP SWAP4 POP POP PUSH1 0x60 PUSH2 0x2BC7 DUP9 DUP3 DUP10 ADD PUSH2 0x2A22 JUMP JUMPDEST SWAP2 POP POP SWAP3 SWAP6 POP SWAP3 SWAP6 SWAP1 SWAP4 POP JUMP JUMPDEST PUSH1 0x0 DUP1 PUSH1 0x0 PUSH1 0x60 DUP5 DUP7 SUB SLT ISZERO PUSH2 0x2BE9 JUMPI PUSH1 0x0 DUP1 REVERT JUMPDEST PUSH1 0x0 PUSH2 0x2BF7 DUP7 DUP3 DUP8 ADD PUSH2 0x2929 JUMP JUMPDEST SWAP4 POP POP PUSH1 0x20 PUSH2 0x2C08 DUP7 DUP3 DUP8 ADD PUSH2 0x29F8 JUMP JUMPDEST SWAP3 POP POP PUSH1 0x40 DUP5 ADD CALLDATALOAD PUSH8 0xFFFFFFFFFFFFFFFF DUP2 GT ISZERO PUSH2 0x2C25 JUMPI PUSH1 0x0 DUP1 REVERT JUMPDEST PUSH2 0x2C31 DUP7 DUP3 DUP8 ADD PUSH2 0x29DC JUMP JUMPDEST SWAP2 POP POP SWAP3 POP SWAP3 POP SWAP3 JUMP JUMPDEST PUSH1 0x0 DUP1 PUSH1 0x0 PUSH1 0x60 DUP5 DUP7 SUB SLT ISZERO PUSH2 0x2C50 JUMPI PUSH1 0x0 DUP1 REVERT JUMPDEST PUSH1 0x0 PUSH2 0x2C5E DUP7 DUP3 DUP8 ADD PUSH2 0x2929 JUMP JUMPDEST SWAP4 POP POP PUSH1 0x20 PUSH2 0x2C6F DUP7 DUP3 DUP8 ADD PUSH2 0x29F8 JUMP JUMPDEST SWAP3 POP POP PUSH1 0x40 PUSH2 0x2C80 DUP7 DUP3 DUP8 ADD PUSH2 0x29F8 JUMP JUMPDEST SWAP2 POP POP SWAP3 POP SWAP3 POP SWAP3 JUMP JUMPDEST PUSH1 0x0 PUSH1 0x20 DUP3 DUP5 SUB SLT ISZERO PUSH2 0x2C9C JUMPI PUSH1 0x0 DUP1 REVERT JUMPDEST PUSH1 0x0 PUSH2 0x2CAA DUP5 DUP3 DUP6 ADD PUSH2 0x2988 JUMP JUMPDEST SWAP2 POP POP SWAP3 SWAP2 POP POP JUMP JUMPDEST PUSH1 0x0 PUSH1 0x20 DUP3 DUP5 SUB SLT ISZERO PUSH2 0x2CC5 JUMPI PUSH1 0x0 DUP1 REVERT JUMPDEST PUSH1 0x0 PUSH2 0x2CD3 DUP5 DUP3 DUP6 ADD PUSH2 0x299D JUMP JUMPDEST SWAP2 POP POP SWAP3 SWAP2 POP POP JUMP JUMPDEST PUSH1 0x0 PUSH1 0x20 DUP3 DUP5 SUB SLT ISZERO PUSH2 0x2CEE JUMPI PUSH1 0x0 DUP1 REVERT JUMPDEST PUSH1 0x0 PUSH2 0x2CFC DUP5 DUP3 DUP6 ADD PUSH2 0x29B2 JUMP JUMPDEST SWAP2 POP POP SWAP3 SWAP2 POP POP JUMP JUMPDEST PUSH1 0x0 PUSH1 0x20 DUP3 DUP5 SUB SLT ISZERO PUSH2 0x2D17 JUMPI PUSH1 0x0 DUP1 REVERT JUMPDEST PUSH1 0x0 PUSH2 0x2D25 DUP5 DUP3 DUP6 ADD PUSH2 0x29C7 JUMP JUMPDEST SWAP2 POP POP SWAP3 SWAP2 POP POP JUMP JUMPDEST PUSH1 0x0 PUSH1 0x20 DUP3 DUP5 SUB SLT ISZERO PUSH2 0x2D40 JUMPI PUSH1 0x0 DUP1 REVERT JUMPDEST PUSH1 0x0 PUSH2 0x2D4E DUP5 DUP3 DUP6 ADD PUSH2 0x2A0D JUMP JUMPDEST SWAP2 POP POP SWAP3 SWAP2 POP POP JUMP JUMPDEST PUSH1 0x0 PUSH1 0x20 DUP3 DUP5 SUB SLT ISZERO PUSH2 0x2D69 JUMPI PUSH1 0x0 DUP1 REVERT JUMPDEST PUSH1 0x0 PUSH2 0x2D77 DUP5 DUP3 DUP6 ADD PUSH2 0x2A22 JUMP JUMPDEST SWAP2 POP POP SWAP3 SWAP2 POP POP JUMP JUMPDEST PUSH1 0x0 PUSH1 0x20 DUP3 DUP5 SUB SLT ISZERO PUSH2 0x2D92 JUMPI PUSH1 0x0 DUP1 REVERT JUMPDEST PUSH1 0x0 PUSH2 0x2DA0 DUP5 DUP3 DUP6 ADD PUSH2 0x2A37 JUMP JUMPDEST SWAP2 POP POP SWAP3 SWAP2 POP POP JUMP JUMPDEST PUSH2 0x2DB2 DUP2 PUSH2 0x3AB0 JUMP JUMPDEST DUP3 MSTORE POP POP JUMP JUMPDEST PUSH2 0x2DC9 PUSH2 0x2DC4 DUP3 PUSH2 0x3AB0 JUMP JUMPDEST PUSH2 0x3C23 JUMP JUMPDEST DUP3 MSTORE POP POP JUMP JUMPDEST PUSH2 0x2DD8 DUP2 PUSH2 0x3AC2 JUMP JUMPDEST DUP3 MSTORE POP POP JUMP JUMPDEST PUSH2 0x2DE7 DUP2 PUSH2 0x3AC2 JUMP JUMPDEST DUP3 MSTORE POP POP JUMP JUMPDEST PUSH2 0x2DF6 DUP2 PUSH2 0x3ACE JUMP JUMPDEST DUP3 MSTORE POP POP JUMP JUMPDEST PUSH2 0x2E05 DUP2 PUSH2 0x3ACE JUMP JUMPDEST DUP3 MSTORE POP POP JUMP JUMPDEST PUSH2 0x2E1C PUSH2 0x2E17 DUP3 PUSH2 0x3ACE JUMP JUMPDEST PUSH2 0x3C35 JUMP JUMPDEST DUP3 MSTORE POP POP JUMP JUMPDEST PUSH2 0x2E2B DUP2 PUSH2 0x3B63 JUMP JUMPDEST DUP3 MSTORE POP POP JUMP JUMPDEST PUSH2 0x2E3A DUP2 PUSH2 0x3B63 JUMP JUMPDEST DUP3 MSTORE POP POP JUMP JUMPDEST PUSH1 0x0 PUSH2 0x2E4B DUP3 PUSH2 0x39EE JUMP JUMPDEST PUSH2 0x2E55 DUP2 DUP6 PUSH2 0x39F9 JUMP JUMPDEST SWAP4 POP PUSH2 0x2E65 DUP2 DUP6 PUSH1 0x20 DUP7 ADD PUSH2 0x3B75 JUMP JUMPDEST PUSH2 0x2E6E DUP2 PUSH2 0x3CFA JUMP JUMPDEST DUP5 ADD SWAP2 POP POP SWAP3 SWAP2 POP POP JUMP JUMPDEST PUSH1 0x0 PUSH2 0x2E84 DUP3 PUSH2 0x39EE JUMP JUMPDEST PUSH2 0x2E8E DUP2 DUP6 PUSH2 0x3A0A JUMP JUMPDEST SWAP4 POP PUSH2 0x2E9E DUP2 DUP6 PUSH1 0x20 DUP7 ADD PUSH2 0x3B75 JUMP JUMPDEST PUSH2 0x2EA7 DUP2 PUSH2 0x3CFA JUMP JUMPDEST DUP5 ADD SWAP2 POP POP SWAP3 SWAP2 POP POP JUMP JUMPDEST PUSH1 0x0 PUSH2 0x2EBD DUP3 PUSH2 0x39EE JUMP JUMPDEST PUSH2 0x2EC7 DUP2 DUP6 PUSH2 0x3A1B JUMP JUMPDEST SWAP4 POP PUSH2 0x2ED7 DUP2 DUP6 PUSH1 0x20 DUP7 ADD PUSH2 0x3B75 JUMP JUMPDEST DUP1 DUP5 ADD SWAP2 POP POP SWAP3 SWAP2 POP POP JUMP JUMPDEST PUSH1 0x0 DUP2 SLOAD PUSH2 0x2EF0 DUP2 PUSH2 0x3BA8 JUMP JUMPDEST PUSH2 0x2EFA DUP2 DUP7 PUSH2 0x3A1B JUMP JUMPDEST SWAP5 POP PUSH1 0x1 DUP3 AND PUSH1 0x0 DUP2 EQ PUSH2 0x2F15 JUMPI PUSH1 0x1 DUP2 EQ PUSH2 0x2F26 JUMPI PUSH2 0x2F59 JUMP JUMPDEST PUSH1 0xFF NOT DUP4 AND DUP7 MSTORE DUP2 DUP7 ADD SWAP4 POP PUSH2 0x2F59 JUMP JUMPDEST PUSH2 0x2F2F DUP6 PUSH2 0x39D9 JUMP JUMPDEST PUSH1 0x0 JUMPDEST DUP4 DUP2 LT ISZERO PUSH2 0x2F51 JUMPI DUP2 SLOAD DUP2 DUP10 ADD MSTORE PUSH1 0x1 DUP3 ADD SWAP2 POP PUSH1 0x20 DUP2 ADD SWAP1 POP PUSH2 0x2F32 JUMP JUMPDEST DUP4 DUP9 ADD SWAP6 POP POP POP JUMPDEST POP POP POP SWAP3 SWAP2 POP POP JUMP JUMPDEST PUSH1 0x0 PUSH2 0x2F6F PUSH1 0x36 DUP4 PUSH2 0x3A0A JUMP JUMPDEST SWAP2 POP PUSH32 0x43616E6E6F742068617665207374617274446174652067726561746572207468 PUSH1 0x0 DUP4 ADD MSTORE PUSH32 0x616E206F7220657175616C20746F20656E644461746500000000000000000000 PUSH1 0x20 DUP4 ADD MSTORE PUSH1 0x40 DUP3 ADD SWAP1 POP SWAP2 SWAP1 POP JUMP JUMPDEST PUSH1 0x0 PUSH2 0x2FD5 PUSH1 0x16 DUP4 PUSH2 0x3A0A JUMP JUMPDEST SWAP2 POP PUSH32 0x43616E6E6F74206D6F6469667920746F74616C4D617800000000000000000000 PUSH1 0x0 DUP4 ADD MSTORE PUSH1 0x20 DUP3 ADD SWAP1 POP SWAP2 SWAP1 POP JUMP JUMPDEST PUSH1 0x0 PUSH2 0x3015 PUSH1 0x27 DUP4 PUSH2 0x3A0A JUMP JUMPDEST SWAP2 POP PUSH32 0x43616E6E6F74206861766520746F74616C4D6178206772656174657220746861 PUSH1 0x0 DUP4 ADD MSTORE PUSH32 0x6E20313030303000000000000000000000000000000000000000000000000000 PUSH1 0x20 DUP4 ADD MSTORE PUSH1 0x40 DUP3 ADD SWAP1 POP SWAP2 SWAP1 POP JUMP JUMPDEST PUSH1 0x0 PUSH2 0x307B PUSH1 0x2B DUP4 PUSH2 0x3A0A JUMP JUMPDEST SWAP2 POP PUSH32 0x57616C6C6574206973206E6F7420616E2061646D696E6973747261746F722066 PUSH1 0x0 DUP4 ADD MSTORE PUSH32 0x6F7220636F6E7472616374000000000000000000000000000000000000000000 PUSH1 0x20 DUP4 ADD MSTORE PUSH1 0x40 DUP3 ADD SWAP1 POP SWAP2 SWAP1 POP JUMP JUMPDEST PUSH1 0x0 PUSH2 0x30E1 PUSH1 0xD DUP4 PUSH2 0x3A0A JUMP JUMPDEST SWAP2 POP PUSH32 0x496E76616C696420746F6B656E00000000000000000000000000000000000000 PUSH1 0x0 DUP4 ADD MSTORE PUSH1 0x20 DUP3 ADD SWAP1 POP SWAP2 SWAP1 POP JUMP JUMPDEST PUSH1 0x0 PUSH2 0x3121 PUSH1 0x1D DUP4 PUSH2 0x3A0A JUMP JUMPDEST SWAP2 POP PUSH32 0x5472616E73616374696F6E206265666F72652073746172742064617465000000 PUSH1 0x0 DUP4 ADD MSTORE PUSH1 0x20 DUP3 ADD SWAP1 POP SWAP2 SWAP1 POP JUMP JUMPDEST PUSH1 0x0 PUSH2 0x3161 PUSH1 0x1E DUP4 PUSH2 0x3A0A JUMP JUMPDEST SWAP2 POP PUSH32 0x4E6F20636C61696D7320666F722063726561746F7220636F6E74726163740000 PUSH1 0x0 DUP4 ADD MSTORE PUSH1 0x20 DUP3 ADD SWAP1 POP SWAP2 SWAP1 POP JUMP JUMPDEST PUSH1 0x0 PUSH2 0x31A1 PUSH1 0x5 DUP4 PUSH2 0x3A1B JUMP JUMPDEST SWAP2 POP PUSH32 0x2E6A736F6E000000000000000000000000000000000000000000000000000000 PUSH1 0x0 DUP4 ADD MSTORE PUSH1 0x5 DUP3 ADD SWAP1 POP SWAP2 SWAP1 POP JUMP JUMPDEST PUSH1 0x0 PUSH2 0x31E1 PUSH1 0x19 DUP4 PUSH2 0x3A0A JUMP JUMPDEST SWAP2 POP PUSH32 0x43616E6E6F742064656372656173652077616C6C65744D617800000000000000 PUSH1 0x0 DUP4 ADD MSTORE PUSH1 0x20 DUP3 ADD SWAP1 POP SWAP2 SWAP1 POP JUMP JUMPDEST PUSH1 0x0 PUSH2 0x3221 PUSH1 0x2C DUP4 PUSH2 0x3A0A JUMP JUMPDEST SWAP2 POP PUSH32 0x4D6178696D756D20746F6B656E7320616C7265616479206D696E74656420666F PUSH1 0x0 DUP4 ADD MSTORE PUSH32 0x72207468697320636C61696D0000000000000000000000000000000000000000 PUSH1 0x20 DUP4 ADD MSTORE PUSH1 0x40 DUP3 ADD SWAP1 POP SWAP2 SWAP1 POP JUMP JUMPDEST PUSH1 0x0 PUSH2 0x3287 PUSH1 0x1D DUP4 PUSH2 0x3A0A JUMP JUMPDEST SWAP2 POP PUSH32 0x436F756C64206E6F7420766572696679206D65726B6C652070726F6F66000000 PUSH1 0x0 DUP4 ADD MSTORE PUSH1 0x20 DUP3 ADD SWAP1 POP SWAP2 SWAP1 POP JUMP JUMPDEST PUSH1 0x0 PUSH2 0x32C7 PUSH1 0x2D DUP4 PUSH2 0x3A0A JUMP JUMPDEST SWAP2 POP PUSH32 0x4D6178696D756D20746F6B656E7320616C7265616479206D696E74656420666F PUSH1 0x0 DUP4 ADD MSTORE PUSH32 0x7220746869732077616C6C657400000000000000000000000000000000000000 PUSH1 0x20 DUP4 ADD MSTORE PUSH1 0x40 DUP3 ADD SWAP1 POP SWAP2 SWAP1 POP JUMP JUMPDEST PUSH1 0x0 PUSH2 0x332D PUSH1 0x14 DUP4 PUSH2 0x3A0A JUMP JUMPDEST SWAP2 POP PUSH32 0x436C61696D20646F6573206E6F74206578697374000000000000000000000000 PUSH1 0x0 DUP4 ADD MSTORE PUSH1 0x20 DUP3 ADD SWAP1 POP SWAP2 SWAP1 POP JUMP JUMPDEST PUSH1 0x0 PUSH2 0x336D PUSH1 0x1A DUP4 PUSH2 0x3A0A JUMP JUMPDEST SWAP2 POP PUSH32 0x5472616E73616374696F6E20616674657220656E642064617465000000000000 PUSH1 0x0 DUP4 ADD MSTORE PUSH1 0x20 DUP3 ADD SWAP1 POP SWAP2 SWAP1 POP JUMP JUMPDEST PUSH1 0x0 PUSH2 0x33AD PUSH1 0x3C DUP4 PUSH2 0x3A0A JUMP JUMPDEST SWAP2 POP PUSH32 0x4D6178696D756D20746F6B656E7320616C7265616479206D696E74656420666F PUSH1 0x0 DUP4 ADD MSTORE PUSH32 0x7220746869732077616C6C65742070657220616C6C6F636174696F6E00000000 PUSH1 0x20 DUP4 ADD MSTORE PUSH1 0x40 DUP3 ADD SWAP1 POP SWAP2 SWAP1 POP JUMP JUMPDEST PUSH1 0x0 PUSH2 0x3413 PUSH1 0x1 DUP4 PUSH2 0x3A1B JUMP JUMPDEST SWAP2 POP PUSH32 0x2F00000000000000000000000000000000000000000000000000000000000000 PUSH1 0x0 DUP4 ADD MSTORE PUSH1 0x1 DUP3 ADD SWAP1 POP SWAP2 SWAP1 POP JUMP JUMPDEST PUSH1 0x0 PUSH2 0x120 DUP4 ADD PUSH1 0x0 DUP4 ADD MLOAD PUSH2 0x345F PUSH1 0x0 DUP7 ADD DUP3 PUSH2 0x3531 JUMP JUMPDEST POP PUSH1 0x20 DUP4 ADD MLOAD PUSH2 0x3472 PUSH1 0x20 DUP7 ADD DUP3 PUSH2 0x3531 JUMP JUMPDEST POP PUSH1 0x40 DUP4 ADD MLOAD PUSH2 0x3485 PUSH1 0x40 DUP7 ADD DUP3 PUSH2 0x3531 JUMP JUMPDEST POP PUSH1 0x60 DUP4 ADD MLOAD PUSH2 0x3498 PUSH1 0x60 DUP7 ADD DUP3 PUSH2 0x3566 JUMP JUMPDEST POP PUSH1 0x80 DUP4 ADD MLOAD PUSH2 0x34AB PUSH1 0x80 DUP7 ADD DUP3 PUSH2 0x3566 JUMP JUMPDEST POP PUSH1 0xA0 DUP4 ADD MLOAD PUSH2 0x34BE PUSH1 0xA0 DUP7 ADD DUP3 PUSH2 0x2E22 JUMP JUMPDEST POP PUSH1 0xC0 DUP4 ADD MLOAD PUSH2 0x34D1 PUSH1 0xC0 DUP7 ADD DUP3 PUSH2 0x2DCF JUMP JUMPDEST POP PUSH1 0xE0 DUP4 ADD MLOAD PUSH2 0x34E4 PUSH1 0xE0 DUP7 ADD DUP3 PUSH2 0x2DED JUMP JUMPDEST POP PUSH2 0x100 DUP4 ADD MLOAD DUP5 DUP3 SUB PUSH2 0x100 DUP7 ADD MSTORE PUSH2 0x34FE DUP3 DUP3 PUSH2 0x2E40 JUMP JUMPDEST SWAP2 POP POP DUP1 SWAP2 POP POP SWAP3 SWAP2 POP POP JUMP JUMPDEST PUSH2 0x3514 DUP2 PUSH2 0x3B37 JUMP JUMPDEST DUP3 MSTORE POP POP JUMP JUMPDEST PUSH2 0x352B PUSH2 0x3526 DUP3 PUSH2 0x3B37 JUMP JUMPDEST PUSH2 0x3C51 JUMP JUMPDEST DUP3 MSTORE POP POP JUMP JUMPDEST PUSH2 0x353A DUP2 PUSH2 0x3B41 JUMP JUMPDEST DUP3 MSTORE POP POP JUMP JUMPDEST PUSH2 0x3549 DUP2 PUSH2 0x3B41 JUMP JUMPDEST DUP3 MSTORE POP POP JUMP JUMPDEST PUSH2 0x3560 PUSH2 0x355B DUP3 PUSH2 0x3B41 JUMP JUMPDEST PUSH2 0x3C5B JUMP JUMPDEST DUP3 MSTORE POP POP JUMP JUMPDEST PUSH2 0x356F DUP2 PUSH2 0x3B51 JUMP JUMPDEST DUP3 MSTORE POP POP JUMP JUMPDEST PUSH2 0x357E DUP2 PUSH2 0x3B51 JUMP JUMPDEST DUP3 MSTORE POP POP JUMP JUMPDEST PUSH1 0x0 PUSH2 0x3590 DUP3 DUP6 PUSH2 0x2DB8 JUMP JUMPDEST PUSH1 0x14 DUP3 ADD SWAP2 POP PUSH2 0x35A0 DUP3 DUP5 PUSH2 0x354F JUMP JUMPDEST PUSH1 0x4 DUP3 ADD SWAP2 POP DUP2 SWAP1 POP SWAP4 SWAP3 POP POP POP JUMP JUMPDEST PUSH1 0x0 PUSH2 0x35BC DUP3 DUP6 PUSH2 0x2E0B JUMP JUMPDEST PUSH1 0x20 DUP3 ADD SWAP2 POP PUSH2 0x35CC DUP3 DUP5 PUSH2 0x2E0B JUMP JUMPDEST PUSH1 0x20 DUP3 ADD SWAP2 POP DUP2 SWAP1 POP SWAP4 SWAP3 POP POP POP JUMP JUMPDEST PUSH1 0x0 PUSH2 0x35E8 DUP3 DUP7 PUSH2 0x2EB2 JUMP JUMPDEST SWAP2 POP PUSH2 0x35F4 DUP3 DUP6 PUSH2 0x2EE3 JUMP JUMPDEST SWAP2 POP PUSH2 0x3600 DUP3 DUP5 PUSH2 0x2EB2 JUMP JUMPDEST SWAP2 POP DUP2 SWAP1 POP SWAP5 SWAP4 POP POP POP POP JUMP JUMPDEST PUSH1 0x0 PUSH2 0x3619 DUP3 DUP5 PUSH2 0x2EB2 JUMP JUMPDEST SWAP2 POP PUSH2 0x3624 DUP3 PUSH2 0x3194 JUMP JUMPDEST SWAP2 POP DUP2 SWAP1 POP SWAP3 SWAP2 POP POP JUMP JUMPDEST PUSH1 0x0 PUSH2 0x363A DUP3 PUSH2 0x3406 JUMP JUMPDEST SWAP2 POP PUSH2 0x3646 DUP3 DUP5 PUSH2 0x351A JUMP JUMPDEST PUSH1 0x20 DUP3 ADD SWAP2 POP DUP2 SWAP1 POP SWAP3 SWAP2 POP POP JUMP JUMPDEST PUSH1 0x0 PUSH1 0x20 DUP3 ADD SWAP1 POP PUSH2 0x366A PUSH1 0x0 DUP4 ADD DUP5 PUSH2 0x2DA9 JUMP JUMPDEST SWAP3 SWAP2 POP POP JUMP JUMPDEST PUSH1 0x0 PUSH1 0x20 DUP3 ADD SWAP1 POP PUSH2 0x3685 PUSH1 0x0 DUP4 ADD DUP5 PUSH2 0x2DDE JUMP JUMPDEST SWAP3 SWAP2 POP POP JUMP JUMPDEST PUSH1 0x0 PUSH1 0x20 DUP3 ADD SWAP1 POP DUP2 DUP2 SUB PUSH1 0x0 DUP4 ADD MSTORE PUSH2 0x36A5 DUP2 DUP5 PUSH2 0x2E79 JUMP JUMPDEST SWAP1 POP SWAP3 SWAP2 POP POP JUMP JUMPDEST PUSH1 0x0 PUSH1 0x20 DUP3 ADD SWAP1 POP DUP2 DUP2 SUB PUSH1 0x0 DUP4 ADD MSTORE PUSH2 0x36C6 DUP2 PUSH2 0x2F62 JUMP JUMPDEST SWAP1 POP SWAP2 SWAP1 POP JUMP JUMPDEST PUSH1 0x0 PUSH1 0x20 DUP3 ADD SWAP1 POP DUP2 DUP2 SUB PUSH1 0x0 DUP4 ADD MSTORE PUSH2 0x36E6 DUP2 PUSH2 0x2FC8 JUMP JUMPDEST SWAP1 POP SWAP2 SWAP1 POP JUMP JUMPDEST PUSH1 0x0 PUSH1 0x20 DUP3 ADD SWAP1 POP DUP2 DUP2 SUB PUSH1 0x0 DUP4 ADD MSTORE PUSH2 0x3706 DUP2 PUSH2 0x3008 JUMP JUMPDEST SWAP1 POP SWAP2 SWAP1 POP JUMP JUMPDEST PUSH1 0x0 PUSH1 0x20 DUP3 ADD SWAP1 POP DUP2 DUP2 SUB PUSH1 0x0 DUP4 ADD MSTORE PUSH2 0x3726 DUP2 PUSH2 0x306E JUMP JUMPDEST SWAP1 POP SWAP2 SWAP1 POP JUMP JUMPDEST PUSH1 0x0 PUSH1 0x20 DUP3 ADD SWAP1 POP DUP2 DUP2 SUB PUSH1 0x0 DUP4 ADD MSTORE PUSH2 0x3746 DUP2 PUSH2 0x30D4 JUMP JUMPDEST SWAP1 POP SWAP2 SWAP1 POP JUMP JUMPDEST PUSH1 0x0 PUSH1 0x20 DUP3 ADD SWAP1 POP DUP2 DUP2 SUB PUSH1 0x0 DUP4 ADD MSTORE PUSH2 0x3766 DUP2 PUSH2 0x3114 JUMP JUMPDEST SWAP1 POP SWAP2 SWAP1 POP JUMP JUMPDEST PUSH1 0x0 PUSH1 0x20 DUP3 ADD SWAP1 POP DUP2 DUP2 SUB PUSH1 0x0 DUP4 ADD MSTORE PUSH2 0x3786 DUP2 PUSH2 0x3154 JUMP JUMPDEST SWAP1 POP SWAP2 SWAP1 POP JUMP JUMPDEST PUSH1 0x0 PUSH1 0x20 DUP3 ADD SWAP1 POP DUP2 DUP2 SUB PUSH1 0x0 DUP4 ADD MSTORE PUSH2 0x37A6 DUP2 PUSH2 0x31D4 JUMP JUMPDEST SWAP1 POP SWAP2 SWAP1 POP JUMP JUMPDEST PUSH1 0x0 PUSH1 0x20 DUP3 ADD SWAP1 POP DUP2 DUP2 SUB PUSH1 0x0 DUP4 ADD MSTORE PUSH2 0x37C6 DUP2 PUSH2 0x3214 JUMP JUMPDEST SWAP1 POP SWAP2 SWAP1 POP JUMP JUMPDEST PUSH1 0x0 PUSH1 0x20 DUP3 ADD SWAP1 POP DUP2 DUP2 SUB PUSH1 0x0 DUP4 ADD MSTORE PUSH2 0x37E6 DUP2 PUSH2 0x327A JUMP JUMPDEST SWAP1 POP SWAP2 SWAP1 POP JUMP JUMPDEST PUSH1 0x0 PUSH1 0x20 DUP3 ADD SWAP1 POP DUP2 DUP2 SUB PUSH1 0x0 DUP4 ADD MSTORE PUSH2 0x3806 DUP2 PUSH2 0x32BA JUMP JUMPDEST SWAP1 POP SWAP2 SWAP1 POP JUMP JUMPDEST PUSH1 0x0 PUSH1 0x20 DUP3 ADD SWAP1 POP DUP2 DUP2 SUB PUSH1 0x0 DUP4 ADD MSTORE PUSH2 0x3826 DUP2 PUSH2 0x3320 JUMP JUMPDEST SWAP1 POP SWAP2 SWAP1 POP JUMP JUMPDEST PUSH1 0x0 PUSH1 0x20 DUP3 ADD SWAP1 POP DUP2 DUP2 SUB PUSH1 0x0 DUP4 ADD MSTORE PUSH2 0x3846 DUP2 PUSH2 0x3360 JUMP JUMPDEST SWAP1 POP SWAP2 SWAP1 POP JUMP JUMPDEST PUSH1 0x0 PUSH1 0x20 DUP3 ADD SWAP1 POP DUP2 DUP2 SUB PUSH1 0x0 DUP4 ADD MSTORE PUSH2 0x3866 DUP2 PUSH2 0x33A0 JUMP JUMPDEST SWAP1 POP SWAP2 SWAP1 POP JUMP JUMPDEST PUSH1 0x0 PUSH1 0x20 DUP3 ADD SWAP1 POP DUP2 DUP2 SUB PUSH1 0x0 DUP4 ADD MSTORE PUSH2 0x3887 DUP2 DUP5 PUSH2 0x3446 JUMP JUMPDEST SWAP1 POP SWAP3 SWAP2 POP POP JUMP JUMPDEST PUSH1 0x0 PUSH1 0x20 DUP3 ADD SWAP1 POP PUSH2 0x38A4 PUSH1 0x0 DUP4 ADD DUP5 PUSH2 0x350B JUMP JUMPDEST SWAP3 SWAP2 POP POP JUMP JUMPDEST PUSH1 0x0 PUSH1 0x40 DUP3 ADD SWAP1 POP PUSH2 0x38BF PUSH1 0x0 DUP4 ADD DUP6 PUSH2 0x350B JUMP JUMPDEST PUSH2 0x38CC PUSH1 0x20 DUP4 ADD DUP5 PUSH2 0x350B JUMP JUMPDEST SWAP4 SWAP3 POP POP POP JUMP JUMPDEST PUSH1 0x0 PUSH1 0x20 DUP3 ADD SWAP1 POP PUSH2 0x38E8 PUSH1 0x0 DUP4 ADD DUP5 PUSH2 0x3540 JUMP JUMPDEST SWAP3 SWAP2 POP POP JUMP JUMPDEST PUSH1 0x0 PUSH2 0x120 DUP3 ADD SWAP1 POP PUSH2 0x3904 PUSH1 0x0 DUP4 ADD DUP13 PUSH2 0x3540 JUMP JUMPDEST PUSH2 0x3911 PUSH1 0x20 DUP4 ADD DUP12 PUSH2 0x3540 JUMP JUMPDEST PUSH2 0x391E PUSH1 0x40 DUP4 ADD DUP11 PUSH2 0x3540 JUMP JUMPDEST PUSH2 0x392B PUSH1 0x60 DUP4 ADD DUP10 PUSH2 0x3575 JUMP JUMPDEST PUSH2 0x3938 PUSH1 0x80 DUP4 ADD DUP9 PUSH2 0x3575 JUMP JUMPDEST PUSH2 0x3945 PUSH1 0xA0 DUP4 ADD DUP8 PUSH2 0x2E31 JUMP JUMPDEST PUSH2 0x3952 PUSH1 0xC0 DUP4 ADD DUP7 PUSH2 0x2DDE JUMP JUMPDEST PUSH2 0x395F PUSH1 0xE0 DUP4 ADD DUP6 PUSH2 0x2DFC JUMP JUMPDEST DUP2 DUP2 SUB PUSH2 0x100 DUP4 ADD MSTORE PUSH2 0x3972 DUP2 DUP5 PUSH2 0x2E79 JUMP JUMPDEST SWAP1 POP SWAP11 SWAP10 POP POP POP POP POP POP POP POP POP POP JUMP JUMPDEST PUSH1 0x0 DUP1 DUP4 CALLDATALOAD PUSH1 0x1 PUSH1 0x20 SUB DUP5 CALLDATASIZE SUB SUB DUP2 SLT PUSH2 0x399B JUMPI PUSH1 0x0 DUP1 REVERT JUMPDEST DUP1 DUP5 ADD SWAP3 POP DUP3 CALLDATALOAD SWAP2 POP PUSH8 0xFFFFFFFFFFFFFFFF DUP3 GT ISZERO PUSH2 0x39B9 JUMPI PUSH1 0x0 DUP1 REVERT JUMPDEST PUSH1 0x20 DUP4 ADD SWAP3 POP PUSH1 0x1 DUP3 MUL CALLDATASIZE SUB DUP4 SGT ISZERO PUSH2 0x39D1 JUMPI PUSH1 0x0 DUP1 REVERT JUMPDEST POP SWAP3 POP SWAP3 SWAP1 POP JUMP JUMPDEST PUSH1 0x0 DUP2 SWAP1 POP DUP2 PUSH1 0x0 MSTORE PUSH1 0x20 PUSH1 0x0 KECCAK256 SWAP1 POP SWAP2 SWAP1 POP JUMP JUMPDEST PUSH1 0x0 DUP2 MLOAD SWAP1 POP SWAP2 SWAP1 POP JUMP JUMPDEST PUSH1 0x0 DUP3 DUP3 MSTORE PUSH1 0x20 DUP3 ADD SWAP1 POP SWAP3 SWAP2 POP POP JUMP JUMPDEST PUSH1 0x0 DUP3 DUP3 MSTORE PUSH1 0x20 DUP3 ADD SWAP1 POP SWAP3 SWAP2 POP POP JUMP JUMPDEST PUSH1 0x0 DUP2 SWAP1 POP SWAP3 SWAP2 POP POP JUMP JUMPDEST PUSH1 0x0 PUSH2 0x3A31 DUP3 PUSH2 0x3B37 JUMP JUMPDEST SWAP2 POP PUSH2 0x3A3C DUP4 PUSH2 0x3B37 JUMP JUMPDEST SWAP3 POP DUP3 PUSH32 0xFFFFFFFFFFFFFFFFFFFFFFFFFFFFFFFFFFFFFFFFFFFFFFFFFFFFFFFFFFFFFFFF SUB DUP3 GT ISZERO PUSH2 0x3A71 JUMPI PUSH2 0x3A70 PUSH2 0x3C6D JUMP JUMPDEST JUMPDEST DUP3 DUP3 ADD SWAP1 POP SWAP3 SWAP2 POP POP JUMP JUMPDEST PUSH1 0x0 PUSH2 0x3A87 DUP3 PUSH2 0x3B37 JUMP JUMPDEST SWAP2 POP PUSH2 0x3A92 DUP4 PUSH2 0x3B37 JUMP JUMPDEST SWAP3 POP DUP3 DUP3 LT ISZERO PUSH2 0x3AA5 JUMPI PUSH2 0x3AA4 PUSH2 0x3C6D JUMP JUMPDEST JUMPDEST DUP3 DUP3 SUB SWAP1 POP SWAP3 SWAP2 POP POP JUMP JUMPDEST PUSH1 0x0 PUSH2 0x3ABB DUP3 PUSH2 0x3B17 JUMP JUMPDEST SWAP1 POP SWAP2 SWAP1 POP JUMP JUMPDEST PUSH1 0x0 DUP2 ISZERO ISZERO SWAP1 POP SWAP2 SWAP1 POP JUMP JUMPDEST PUSH1 0x0 DUP2 SWAP1 POP SWAP2 SWAP1 POP JUMP JUMPDEST PUSH1 0x0 PUSH32 0xFFFFFFFF00000000000000000000000000000000000000000000000000000000 DUP3 AND SWAP1 POP SWAP2 SWAP1 POP JUMP JUMPDEST PUSH1 0x0 DUP2 SWAP1 POP PUSH2 0x3B12 DUP3 PUSH2 0x3D25 JUMP JUMPDEST SWAP2 SWAP1 POP JUMP JUMPDEST PUSH1 0x0 PUSH20 0xFFFFFFFFFFFFFFFFFFFFFFFFFFFFFFFFFFFFFFFF DUP3 AND SWAP1 POP SWAP2 SWAP1 POP JUMP JUMPDEST PUSH1 0x0 DUP2 SWAP1 POP SWAP2 SWAP1 POP JUMP JUMPDEST PUSH1 0x0 PUSH4 0xFFFFFFFF DUP3 AND SWAP1 POP SWAP2 SWAP1 POP JUMP JUMPDEST PUSH1 0x0 PUSH6 0xFFFFFFFFFFFF DUP3 AND SWAP1 POP SWAP2 SWAP1 POP JUMP JUMPDEST PUSH1 0x0 PUSH2 0x3B6E DUP3 PUSH2 0x3B04 JUMP JUMPDEST SWAP1 POP SWAP2 SWAP1 POP JUMP JUMPDEST PUSH1 0x0 JUMPDEST DUP4 DUP2 LT ISZERO PUSH2 0x3B93 JUMPI DUP1 DUP3 ADD MLOAD DUP2 DUP5 ADD MSTORE PUSH1 0x20 DUP2 ADD SWAP1 POP PUSH2 0x3B78 JUMP JUMPDEST DUP4 DUP2 GT ISZERO PUSH2 0x3BA2 JUMPI PUSH1 0x0 DUP5 DUP5 ADD MSTORE JUMPDEST POP POP POP POP JUMP JUMPDEST PUSH1 0x0 PUSH1 0x2 DUP3 DIV SWAP1 POP PUSH1 0x1 DUP3 AND DUP1 PUSH2 0x3BC0 JUMPI PUSH1 0x7F DUP3 AND SWAP2 POP JUMPDEST PUSH1 0x20 DUP3 LT DUP2 EQ ISZERO PUSH2 0x3BD4 JUMPI PUSH2 0x3BD3 PUSH2 0x3CCB JUMP JUMPDEST JUMPDEST POP SWAP2 SWAP1 POP JUMP JUMPDEST PUSH1 0x0 PUSH2 0x3BE5 DUP3 PUSH2 0x3B37 JUMP JUMPDEST SWAP2 POP PUSH32 0xFFFFFFFFFFFFFFFFFFFFFFFFFFFFFFFFFFFFFFFFFFFFFFFFFFFFFFFFFFFFFFFF DUP3 EQ ISZERO PUSH2 0x3C18 JUMPI PUSH2 0x3C17 PUSH2 0x3C6D JUMP JUMPDEST JUMPDEST PUSH1 0x1 DUP3 ADD SWAP1 POP SWAP2 SWAP1 POP JUMP JUMPDEST PUSH1 0x0 PUSH2 0x3C2E DUP3 PUSH2 0x3C3F JUMP JUMPDEST SWAP1 POP SWAP2 SWAP1 POP JUMP JUMPDEST PUSH1 0x0 DUP2 SWAP1 POP SWAP2 SWAP1 POP JUMP JUMPDEST PUSH1 0x0 PUSH2 0x3C4A DUP3 PUSH2 0x3D18 JUMP JUMPDEST SWAP1 POP SWAP2 SWAP1 POP JUMP JUMPDEST PUSH1 0x0 DUP2 SWAP1 POP SWAP2 SWAP1 POP JUMP JUMPDEST PUSH1 0x0 PUSH2 0x3C66 DUP3 PUSH2 0x3D0B JUMP JUMPDEST SWAP1 POP SWAP2 SWAP1 POP JUMP JUMPDEST PUSH32 0x4E487B7100000000000000000000000000000000000000000000000000000000 PUSH1 0x0 MSTORE PUSH1 0x11 PUSH1 0x4 MSTORE PUSH1 0x24 PUSH1 0x0 REVERT JUMPDEST PUSH32 0x4E487B7100000000000000000000000000000000000000000000000000000000 PUSH1 0x0 MSTORE PUSH1 0x21 PUSH1 0x4 MSTORE PUSH1 0x24 PUSH1 0x0 REVERT JUMPDEST PUSH32 0x4E487B7100000000000000000000000000000000000000000000000000000000 PUSH1 0x0 MSTORE PUSH1 0x22 PUSH1 0x4 MSTORE PUSH1 0x24 PUSH1 0x0 REVERT JUMPDEST PUSH1 0x0 PUSH1 0x1F NOT PUSH1 0x1F DUP4 ADD AND SWAP1 POP SWAP2 SWAP1 POP JUMP JUMPDEST PUSH1 0x0 DUP2 PUSH1 0xE0 SHL SWAP1 POP SWAP2 SWAP1 POP JUMP JUMPDEST PUSH1 0x0 DUP2 PUSH1 0x60 SHL SWAP1 POP SWAP2 SWAP1 POP JUMP JUMPDEST PUSH1 0x3 DUP2 LT PUSH2 0x3D36 JUMPI PUSH2 0x3D35 PUSH2 0x3C9C JUMP JUMPDEST JUMPDEST POP JUMP JUMPDEST PUSH2 0x3D42 DUP2 PUSH2 0x3AB0 JUMP JUMPDEST DUP2 EQ PUSH2 0x3D4D JUMPI PUSH1 0x0 DUP1 REVERT JUMPDEST POP JUMP JUMPDEST PUSH2 0x3D59 DUP2 PUSH2 0x3AC2 JUMP JUMPDEST DUP2 EQ PUSH2 0x3D64 JUMPI PUSH1 0x0 DUP1 REVERT JUMPDEST POP JUMP JUMPDEST PUSH2 0x3D70 DUP2 PUSH2 0x3AD8 JUMP JUMPDEST DUP2 EQ PUSH2 0x3D7B JUMPI PUSH1 0x0 DUP1 REVERT JUMPDEST POP JUMP JUMPDEST PUSH1 0x3 DUP2 LT PUSH2 0x3D8B JUMPI PUSH1 0x0 DUP1 REVERT JUMPDEST POP JUMP JUMPDEST PUSH2 0x3D97 DUP2 PUSH2 0x3B37 JUMP JUMPDEST DUP2 EQ PUSH2 0x3DA2 JUMPI PUSH1 0x0 DUP1 REVERT JUMPDEST POP JUMP JUMPDEST PUSH2 0x3DAE DUP2 PUSH2 0x3B41 JUMP JUMPDEST DUP2 EQ PUSH2 0x3DB9 JUMPI PUSH1 0x0 DUP1 REVERT JUMPDEST POP JUMP JUMPDEST PUSH2 0x3DC5 DUP2 PUSH2 0x3B51 JUMP JUMPDEST DUP2 EQ PUSH2 0x3DD0 JUMPI PUSH1 0x0 DUP1 REVERT JUMPDEST POP JUMP INVALID LOG2 PUSH5 0x6970667358 0x22 SLT KECCAK256 GT SWAP3 0x24 0xF6 SMOD PUSH10 0x4BA6E8C1EB4292CEC349 0xD4 PUSH27 0xB9D6893CB836B35B63755E23C6264736F6C634300080000330000 "
				},
				"gasEstimates": {
					"creation": {
						"codeDepositCost": "3176200",
						"executionCost": "23529",
						"totalCost": "3199729"
					},
					"external": {
						"claimCounts(address)": "1581",
						"claims(address,uint256)": "infinite",
						"getClaim(address,uint256)": "infinite",
						"getClaimCount(address)": "1585",
						"getTokenClaim(address,uint256)": "infinite",
						"getWalletMinted(address,uint256)": "2947",
						"initializeClaim(address,(uint32,uint32,uint32,uint48,uint48,uint8,bool,bytes32,string))": "infinite",
						"mint(address,uint256,bytes32[],uint32)": "infinite",
						"mintsPerWallet(address,uint256,address)": "infinite",
						"overwriteClaim(address,uint256,(uint32,uint32,uint32,uint48,uint48,uint8,bool,bytes32,string))": "infinite",
						"supportsInterface(bytes4)": "731",
						"tokenClaims(address,uint256,uint256)": "infinite",
						"tokenURI(address,uint256)": "infinite"
					},
					"internal": {
						"_getTokenClaim(address,uint256)": "infinite",
						"_updateIndexRanges(address,uint256,uint256)": "infinite"
					}
				},
				"methodIdentifiers": {
					"claimCounts(address)": "cc2d31ed",
					"claims(address,uint256)": "ab541a85",
					"getClaim(address,uint256)": "0f79ab39",
					"getClaimCount(address)": "d5fdfe87",
					"getTokenClaim(address,uint256)": "02349713",
					"getWalletMinted(address,uint256)": "45e9c1f4",
					"initializeClaim(address,(uint32,uint32,uint32,uint48,uint48,uint8,bool,bytes32,string))": "d19f60c8",
					"mint(address,uint256,bytes32[],uint32)": "0c134959",
					"mintsPerWallet(address,uint256,address)": "f0f330f0",
					"overwriteClaim(address,uint256,(uint32,uint32,uint32,uint48,uint48,uint8,bool,bytes32,string))": "69c5ecb0",
					"supportsInterface(bytes4)": "01ffc9a7",
					"tokenClaims(address,uint256,uint256)": "31dd2a20",
					"tokenURI(address,uint256)": "e9dc6375"
				}
			},
			"storageLayout": {
				"storage": [
					{
						"astId": 740,
						"contract": "contracts/lazyclaim/ERC721LazyClaim.sol:ERC721LazyClaim",
						"label": "_status",
						"offset": 0,
						"slot": "0",
						"type": "t_uint256"
					},
					{
						"astId": 1555,
						"contract": "contracts/lazyclaim/ERC721LazyClaim.sol:ERC721LazyClaim",
						"label": "claimCounts",
						"offset": 0,
						"slot": "1",
						"type": "t_mapping(t_address,t_uint256)"
					},
					{
						"astId": 1562,
						"contract": "contracts/lazyclaim/ERC721LazyClaim.sol:ERC721LazyClaim",
						"label": "claims",
						"offset": 0,
						"slot": "2",
						"type": "t_mapping(t_address,t_mapping(t_uint256,t_struct(Claim)2403_storage))"
					},
					{
						"astId": 1570,
						"contract": "contracts/lazyclaim/ERC721LazyClaim.sol:ERC721LazyClaim",
						"label": "mintsPerWallet",
						"offset": 0,
						"slot": "3",
						"type": "t_mapping(t_address,t_mapping(t_uint256,t_mapping(t_address,t_uint32)))"
					},
					{
						"astId": 1578,
						"contract": "contracts/lazyclaim/ERC721LazyClaim.sol:ERC721LazyClaim",
						"label": "tokenClaims",
						"offset": 0,
						"slot": "4",
						"type": "t_mapping(t_address,t_mapping(t_uint256,t_array(t_struct(IndexRange)1551_storage)dyn_storage))"
					}
				],
				"types": {
					"t_address": {
						"encoding": "inplace",
						"label": "address",
						"numberOfBytes": "20"
					},
					"t_array(t_struct(IndexRange)1551_storage)dyn_storage": {
						"base": "t_struct(IndexRange)1551_storage",
						"encoding": "dynamic_array",
						"label": "struct ERC721LazyClaim.IndexRange[]",
						"numberOfBytes": "32"
					},
					"t_bool": {
						"encoding": "inplace",
						"label": "bool",
						"numberOfBytes": "1"
					},
					"t_bytes32": {
						"encoding": "inplace",
						"label": "bytes32",
						"numberOfBytes": "32"
					},
					"t_enum(StorageProtocol)2363": {
						"encoding": "inplace",
						"label": "enum IERC721LazyClaim.StorageProtocol",
						"numberOfBytes": "1"
					},
					"t_mapping(t_address,t_mapping(t_uint256,t_array(t_struct(IndexRange)1551_storage)dyn_storage))": {
						"encoding": "mapping",
						"key": "t_address",
						"label": "mapping(address => mapping(uint256 => struct ERC721LazyClaim.IndexRange[]))",
						"numberOfBytes": "32",
						"value": "t_mapping(t_uint256,t_array(t_struct(IndexRange)1551_storage)dyn_storage)"
					},
					"t_mapping(t_address,t_mapping(t_uint256,t_mapping(t_address,t_uint32)))": {
						"encoding": "mapping",
						"key": "t_address",
						"label": "mapping(address => mapping(uint256 => mapping(address => uint32)))",
						"numberOfBytes": "32",
						"value": "t_mapping(t_uint256,t_mapping(t_address,t_uint32))"
					},
					"t_mapping(t_address,t_mapping(t_uint256,t_struct(Claim)2403_storage))": {
						"encoding": "mapping",
						"key": "t_address",
						"label": "mapping(address => mapping(uint256 => struct IERC721LazyClaim.Claim))",
						"numberOfBytes": "32",
						"value": "t_mapping(t_uint256,t_struct(Claim)2403_storage)"
					},
					"t_mapping(t_address,t_uint256)": {
						"encoding": "mapping",
						"key": "t_address",
						"label": "mapping(address => uint256)",
						"numberOfBytes": "32",
						"value": "t_uint256"
					},
					"t_mapping(t_address,t_uint32)": {
						"encoding": "mapping",
						"key": "t_address",
						"label": "mapping(address => uint32)",
						"numberOfBytes": "32",
						"value": "t_uint32"
					},
					"t_mapping(t_uint256,t_array(t_struct(IndexRange)1551_storage)dyn_storage)": {
						"encoding": "mapping",
						"key": "t_uint256",
						"label": "mapping(uint256 => struct ERC721LazyClaim.IndexRange[])",
						"numberOfBytes": "32",
						"value": "t_array(t_struct(IndexRange)1551_storage)dyn_storage"
					},
					"t_mapping(t_uint256,t_mapping(t_address,t_uint32))": {
						"encoding": "mapping",
						"key": "t_uint256",
						"label": "mapping(uint256 => mapping(address => uint32))",
						"numberOfBytes": "32",
						"value": "t_mapping(t_address,t_uint32)"
					},
					"t_mapping(t_uint256,t_struct(Claim)2403_storage)": {
						"encoding": "mapping",
						"key": "t_uint256",
						"label": "mapping(uint256 => struct IERC721LazyClaim.Claim)",
						"numberOfBytes": "32",
						"value": "t_struct(Claim)2403_storage"
					},
					"t_string_storage": {
						"encoding": "bytes",
						"label": "string",
						"numberOfBytes": "32"
					},
					"t_struct(Claim)2403_storage": {
						"encoding": "inplace",
						"label": "struct IERC721LazyClaim.Claim",
						"members": [
							{
								"astId": 2385,
								"contract": "contracts/lazyclaim/ERC721LazyClaim.sol:ERC721LazyClaim",
								"label": "total",
								"offset": 0,
								"slot": "0",
								"type": "t_uint32"
							},
							{
								"astId": 2387,
								"contract": "contracts/lazyclaim/ERC721LazyClaim.sol:ERC721LazyClaim",
								"label": "totalMax",
								"offset": 4,
								"slot": "0",
								"type": "t_uint32"
							},
							{
								"astId": 2389,
								"contract": "contracts/lazyclaim/ERC721LazyClaim.sol:ERC721LazyClaim",
								"label": "walletMax",
								"offset": 8,
								"slot": "0",
								"type": "t_uint32"
							},
							{
								"astId": 2391,
								"contract": "contracts/lazyclaim/ERC721LazyClaim.sol:ERC721LazyClaim",
								"label": "startDate",
								"offset": 12,
								"slot": "0",
								"type": "t_uint48"
							},
							{
								"astId": 2393,
								"contract": "contracts/lazyclaim/ERC721LazyClaim.sol:ERC721LazyClaim",
								"label": "endDate",
								"offset": 18,
								"slot": "0",
								"type": "t_uint48"
							},
							{
								"astId": 2396,
								"contract": "contracts/lazyclaim/ERC721LazyClaim.sol:ERC721LazyClaim",
								"label": "storageProtocol",
								"offset": 24,
								"slot": "0",
								"type": "t_enum(StorageProtocol)2363"
							},
							{
								"astId": 2398,
								"contract": "contracts/lazyclaim/ERC721LazyClaim.sol:ERC721LazyClaim",
								"label": "identical",
								"offset": 25,
								"slot": "0",
								"type": "t_bool"
							},
							{
								"astId": 2400,
								"contract": "contracts/lazyclaim/ERC721LazyClaim.sol:ERC721LazyClaim",
								"label": "merkleRoot",
								"offset": 0,
								"slot": "1",
								"type": "t_bytes32"
							},
							{
								"astId": 2402,
								"contract": "contracts/lazyclaim/ERC721LazyClaim.sol:ERC721LazyClaim",
								"label": "location",
								"offset": 0,
								"slot": "2",
								"type": "t_string_storage"
							}
						],
						"numberOfBytes": "96"
					},
					"t_struct(IndexRange)1551_storage": {
						"encoding": "inplace",
						"label": "struct ERC721LazyClaim.IndexRange",
						"members": [
							{
								"astId": 1548,
								"contract": "contracts/lazyclaim/ERC721LazyClaim.sol:ERC721LazyClaim",
								"label": "start",
								"offset": 0,
								"slot": "0",
								"type": "t_uint256"
							},
							{
								"astId": 1550,
								"contract": "contracts/lazyclaim/ERC721LazyClaim.sol:ERC721LazyClaim",
								"label": "count",
								"offset": 0,
								"slot": "1",
								"type": "t_uint256"
							}
						],
						"numberOfBytes": "64"
					},
					"t_uint256": {
						"encoding": "inplace",
						"label": "uint256",
						"numberOfBytes": "32"
					},
					"t_uint32": {
						"encoding": "inplace",
						"label": "uint32",
						"numberOfBytes": "4"
					},
					"t_uint48": {
						"encoding": "inplace",
						"label": "uint48",
						"numberOfBytes": "6"
					}
				}
			},
			"userdoc": {
				"kind": "user",
				"methods": {
					"getClaim(address,uint256)": {
						"notice": "get a claim corresponding to a creator contract and index"
					},
					"getClaimCount(address)": {
						"notice": "get the number of claims initialized for a given creator contract"
					},
					"getTokenClaim(address,uint256)": {
						"notice": "get the claim index corresponding to a creator contract and tokenId"
					},
					"getWalletMinted(address,uint256)": {
						"notice": "get the number of tokens minted for the current wallet for a given claim"
					},
					"initializeClaim(address,(uint32,uint32,uint32,uint48,uint48,uint8,bool,bytes32,string))": {
						"notice": "initialize a new claim, emit initialize event, and return the newly created index"
					},
					"overwriteClaim(address,uint256,(uint32,uint32,uint32,uint48,uint48,uint8,bool,bytes32,string))": {
						"notice": "update an existing claim at claimIndex"
					}
				},
				"notice": "Lazy claim with optional whitelist ERC721 tokens",
				"version": 1
			}
		}
	}
}