{
	"contracts/manifold/lazyclaim/ERC721LazyClaim.sol": {
		"ERC721LazyClaim": {
			"abi": [
				{
					"anonymous": false,
					"inputs": [
						{
							"indexed": true,
							"internalType": "address",
							"name": "creatorContract",
							"type": "address"
						},
						{
							"indexed": true,
							"internalType": "uint256",
							"name": "claimIndex",
							"type": "uint256"
						},
						{
							"indexed": false,
							"internalType": "address",
							"name": "initializer",
							"type": "address"
						}
					],
					"name": "ClaimInitialized",
					"type": "event"
				},
				{
					"anonymous": false,
					"inputs": [
						{
							"indexed": true,
							"internalType": "address",
							"name": "creatorContract",
							"type": "address"
						},
						{
							"indexed": true,
							"internalType": "uint256",
							"name": "claimIndex",
							"type": "uint256"
						},
						{
							"indexed": false,
							"internalType": "uint256",
							"name": "tokenId",
							"type": "uint256"
						},
						{
							"indexed": false,
							"internalType": "address",
							"name": "claimer",
							"type": "address"
						}
					],
					"name": "Mint",
					"type": "event"
				},
				{
					"inputs": [
						{
							"internalType": "address",
							"name": "creatorContractAddress",
							"type": "address"
						},
						{
							"internalType": "uint256",
							"name": "claimIndex",
							"type": "uint256"
						}
					],
					"name": "getClaim",
					"outputs": [
						{
							"components": [
								{
									"internalType": "uint32",
									"name": "total",
									"type": "uint32"
								},
								{
									"internalType": "uint32",
									"name": "totalMax",
									"type": "uint32"
								},
								{
									"internalType": "uint32",
									"name": "walletMax",
									"type": "uint32"
								},
								{
									"internalType": "uint48",
									"name": "startDate",
									"type": "uint48"
								},
								{
									"internalType": "uint48",
									"name": "endDate",
									"type": "uint48"
								},
								{
									"internalType": "enum IERC721LazyClaim.StorageProtocol",
									"name": "storageProtocol",
									"type": "uint8"
								},
								{
									"internalType": "bool",
									"name": "identical",
									"type": "bool"
								},
								{
									"internalType": "bytes32",
									"name": "merkleRoot",
									"type": "bytes32"
								},
								{
									"internalType": "string",
									"name": "location",
									"type": "string"
								}
							],
							"internalType": "struct IERC721LazyClaim.Claim",
							"name": "",
							"type": "tuple"
						}
					],
					"stateMutability": "view",
					"type": "function"
				},
				{
					"inputs": [
						{
							"internalType": "address",
							"name": "creatorContractAddress",
							"type": "address"
						}
					],
					"name": "getClaimCount",
					"outputs": [
						{
							"internalType": "uint256",
							"name": "",
							"type": "uint256"
						}
					],
					"stateMutability": "view",
					"type": "function"
				},
				{
					"inputs": [
						{
							"internalType": "address",
							"name": "creatorContractAddress",
							"type": "address"
						},
						{
							"internalType": "uint256",
							"name": "tokenId",
							"type": "uint256"
						}
					],
					"name": "getTokenClaim",
					"outputs": [
						{
							"internalType": "uint256",
							"name": "",
							"type": "uint256"
						}
					],
					"stateMutability": "view",
					"type": "function"
				},
				{
					"inputs": [
						{
							"internalType": "address",
							"name": "creatorContractAddress",
							"type": "address"
						},
						{
							"internalType": "uint256",
							"name": "claimIndex",
							"type": "uint256"
						},
						{
							"internalType": "address",
							"name": "walletAddress",
							"type": "address"
						}
					],
					"name": "getWalletMinted",
					"outputs": [
						{
							"internalType": "uint32",
							"name": "",
							"type": "uint32"
						}
					],
					"stateMutability": "view",
					"type": "function"
				},
				{
					"inputs": [
						{
							"internalType": "address",
							"name": "creatorContractAddress",
							"type": "address"
						},
						{
							"components": [
								{
									"internalType": "uint32",
									"name": "totalMax",
									"type": "uint32"
								},
								{
									"internalType": "uint32",
									"name": "walletMax",
									"type": "uint32"
								},
								{
									"internalType": "uint48",
									"name": "startDate",
									"type": "uint48"
								},
								{
									"internalType": "uint48",
									"name": "endDate",
									"type": "uint48"
								},
								{
									"internalType": "enum IERC721LazyClaim.StorageProtocol",
									"name": "storageProtocol",
									"type": "uint8"
								},
								{
									"internalType": "bool",
									"name": "identical",
									"type": "bool"
								},
								{
									"internalType": "bytes32",
									"name": "merkleRoot",
									"type": "bytes32"
								},
								{
									"internalType": "string",
									"name": "location",
									"type": "string"
								}
							],
							"internalType": "struct IERC721LazyClaim.ClaimParameters",
							"name": "claimParameters",
							"type": "tuple"
						}
					],
					"name": "initializeClaim",
					"outputs": [
						{
							"internalType": "uint256",
							"name": "",
							"type": "uint256"
						}
					],
					"stateMutability": "nonpayable",
					"type": "function"
				},
				{
					"inputs": [
						{
							"internalType": "address",
							"name": "creatorContractAddress",
							"type": "address"
						},
						{
							"internalType": "uint256",
							"name": "claimIndex",
							"type": "uint256"
						},
						{
							"internalType": "bytes32[]",
							"name": "merkleProof",
							"type": "bytes32[]"
						},
						{
							"internalType": "uint32",
							"name": "minterValue",
							"type": "uint32"
						}
					],
					"name": "mint",
					"outputs": [
						{
							"internalType": "uint256",
							"name": "",
							"type": "uint256"
						}
					],
					"stateMutability": "nonpayable",
					"type": "function"
				},
				{
					"inputs": [
						{
							"internalType": "address",
							"name": "creatorContractAddress",
							"type": "address"
						},
						{
							"internalType": "uint256",
							"name": "claimIndex",
							"type": "uint256"
						},
						{
							"components": [
								{
									"internalType": "uint32",
									"name": "totalMax",
									"type": "uint32"
								},
								{
									"internalType": "uint32",
									"name": "walletMax",
									"type": "uint32"
								},
								{
									"internalType": "uint48",
									"name": "startDate",
									"type": "uint48"
								},
								{
									"internalType": "uint48",
									"name": "endDate",
									"type": "uint48"
								},
								{
									"internalType": "enum IERC721LazyClaim.StorageProtocol",
									"name": "storageProtocol",
									"type": "uint8"
								},
								{
									"internalType": "bool",
									"name": "identical",
									"type": "bool"
								},
								{
									"internalType": "bytes32",
									"name": "merkleRoot",
									"type": "bytes32"
								},
								{
									"internalType": "string",
									"name": "location",
									"type": "string"
								}
							],
							"internalType": "struct IERC721LazyClaim.ClaimParameters",
							"name": "claimParameters",
							"type": "tuple"
						}
					],
					"name": "overwriteClaim",
					"outputs": [],
					"stateMutability": "nonpayable",
					"type": "function"
				},
				{
					"inputs": [
						{
							"internalType": "bytes4",
							"name": "interfaceId",
							"type": "bytes4"
						}
					],
					"name": "supportsInterface",
					"outputs": [
						{
							"internalType": "bool",
							"name": "",
							"type": "bool"
						}
					],
					"stateMutability": "view",
					"type": "function"
				},
				{
					"inputs": [
						{
							"internalType": "address",
							"name": "creatorContractAddress",
							"type": "address"
						},
						{
							"internalType": "uint256",
							"name": "tokenId",
							"type": "uint256"
						}
					],
					"name": "tokenURI",
					"outputs": [
						{
							"internalType": "string",
							"name": "",
							"type": "string"
						}
					],
					"stateMutability": "view",
					"type": "function"
				}
			],
			"devdoc": {
				"author": "manifold.xyz",
				"kind": "dev",
				"methods": {
					"getClaim(address,uint256)": {
						"params": {
							"claimIndex": "the index of the claim",
							"creatorContractAddress": "the address of the creator contract"
						},
						"returns": {
							"_0": "the claim object"
						}
					},
					"getClaimCount(address)": {
						"params": {
							"creatorContractAddress": "the address of the creator contract"
						},
						"returns": {
							"_0": "the number of claims initialized for this creator contract"
						}
					},
					"getTokenClaim(address,uint256)": {
						"params": {
							"creatorContractAddress": "the address of the creator contract",
							"tokenId": "the token id"
						},
						"returns": {
							"_0": "the index of the claim"
						}
					},
					"getWalletMinted(address,uint256,address)": {
						"params": {
							"claimIndex": "the index of the claim",
							"creatorContractAddress": "the address of the creator contract for the claim"
						},
						"returns": {
							"_0": "the number of tokens minted for the current wallet"
						}
					},
					"mint(address,uint256,bytes32[],uint32)": {
						"params": {
							"claimIndex": "the index of the claim for which we will mint",
							"creatorContractAddress": "the creator contract address",
							"merkleProof": "if the claim has a merkleRoot, verifying merkleProof ensures that address + minterValue was used to construct it",
							"minterValue": "the value portion which combines with msg.sender to form the merkle leaf corresponding to merkleProof"
						},
						"returns": {
							"_0": "the tokenId of the newly minted token"
						}
					},
					"overwriteClaim(address,uint256,(uint32,uint32,uint48,uint48,uint8,bool,bytes32,string))": {
						"params": {
							"claimIndex": "the index of the claim in the list of creatorContractAddress' claims",
							"claimParameters": "the parameters which will affect the minting behavior of the claim",
							"creatorContractAddress": "the creator contract corresponding to the claim"
						}
					},
					"supportsInterface(bytes4)": {
						"details": "Returns true if this contract implements the interface defined by `interfaceId`. See the corresponding https://eips.ethereum.org/EIPS/eip-165#how-interfaces-are-identified[EIP section] to learn more about how these ids are created. This function call must use less than 30 000 gas."
					},
					"tokenURI(address,uint256)": {
						"params": {
							"creatorContractAddress": "the creator contract address",
							"tokenId": "the token id to construct the uri for"
						},
						"returns": {
							"_0": "the uri constructed according to the params of the claim corresponding to tokenId"
						}
					}
				},
				"title": "Lazy Claim",
				"version": 1
			},
			"evm": {
				"assembly": "    /* \"contracts/manifold/lazyclaim/ERC721LazyClaim.sol\":730:14163  contract ERC721LazyClaim is IERC165, IERC721LazyClaim, ICreatorExtensionTokenURI, ReentrancyGuard {... */\n  mstore(0x40, 0x80)\n  callvalue\n  dup1\n  iszero\n  tag_1\n  jumpi\n  0x00\n  dup1\n  revert\ntag_1:\n  pop\n    /* \"@openzeppelin/contracts/security/ReentrancyGuard.sol\":1701:1702  1 */\n  0x01\n    /* \"@openzeppelin/contracts/security/ReentrancyGuard.sol\":1806:1813  _status */\n  0x00\n    /* \"@openzeppelin/contracts/security/ReentrancyGuard.sol\":1806:1828  _status = _NOT_ENTERED */\n  dup2\n  swap1\n  sstore\n  pop\n    /* \"contracts/manifold/lazyclaim/ERC721LazyClaim.sol\":730:14163  contract ERC721LazyClaim is IERC165, IERC721LazyClaim, ICreatorExtensionTokenURI, ReentrancyGuard {... */\n  dataSize(sub_0)\n  dup1\n  dataOffset(sub_0)\n  0x00\n  codecopy\n  0x00\n  return\nstop\n\nsub_0: assembly {\n        /* \"contracts/manifold/lazyclaim/ERC721LazyClaim.sol\":730:14163  contract ERC721LazyClaim is IERC165, IERC721LazyClaim, ICreatorExtensionTokenURI, ReentrancyGuard {... */\n      mstore(0x40, 0x80)\n      callvalue\n      dup1\n      iszero\n      tag_1\n      jumpi\n      0x00\n      dup1\n      revert\n    tag_1:\n      pop\n      jumpi(tag_2, lt(calldatasize, 0x04))\n      shr(0xe0, calldataload(0x00))\n      dup1\n      0x0f79ab39\n      gt\n      tag_12\n      jumpi\n      dup1\n      0x0f79ab39\n      eq\n      tag_7\n      jumpi\n      dup1\n      0x8566ae5d\n      eq\n      tag_8\n      jumpi\n      dup1\n      0xcc351138\n      eq\n      tag_9\n      jumpi\n      dup1\n      0xd5fdfe87\n      eq\n      tag_10\n      jumpi\n      dup1\n      0xe9dc6375\n      eq\n      tag_11\n      jumpi\n      jump(tag_2)\n    tag_12:\n      dup1\n      0x01ffc9a7\n      eq\n      tag_3\n      jumpi\n      dup1\n      0x02349713\n      eq\n      tag_4\n      jumpi\n      dup1\n      0x037b79db\n      eq\n      tag_5\n      jumpi\n      dup1\n      0x0c134959\n      eq\n      tag_6\n      jumpi\n    tag_2:\n      0x00\n      dup1\n      revert\n        /* \"contracts/manifold/lazyclaim/ERC721LazyClaim.sol\":2043:2328  function supportsInterface(bytes4 interfaceId) public view virtual override(IERC165) returns (bool) {... */\n    tag_3:\n      tag_13\n      0x04\n      dup1\n      calldatasize\n      sub\n      dup2\n      add\n      swap1\n      tag_14\n      swap2\n      swap1\n      tag_15\n      jump\t// in\n    tag_14:\n      tag_16\n      jump\t// in\n    tag_13:\n      mload(0x40)\n      tag_17\n      swap2\n      swap1\n      tag_18\n      jump\t// in\n    tag_17:\n      mload(0x40)\n      dup1\n      swap2\n      sub\n      swap1\n      return\n        /* \"contracts/manifold/lazyclaim/ERC721LazyClaim.sol\":7828:8005  function getTokenClaim(address creatorContractAddress, uint256 tokenId) external override view returns(uint256) {... */\n    tag_4:\n      tag_19\n      0x04\n      dup1\n      calldatasize\n      sub\n      dup2\n      add\n      swap1\n      tag_20\n      swap2\n      swap1\n      tag_21\n      jump\t// in\n    tag_20:\n      tag_22\n      jump\t// in\n    tag_19:\n      mload(0x40)\n      tag_23\n      swap2\n      swap1\n      tag_24\n      jump\t// in\n    tag_23:\n      mload(0x40)\n      dup1\n      swap2\n      sub\n      swap1\n      return\n        /* \"contracts/manifold/lazyclaim/ERC721LazyClaim.sol\":3184:4448  function initializeClaim(... */\n    tag_5:\n      tag_25\n      0x04\n      dup1\n      calldatasize\n      sub\n      dup2\n      add\n      swap1\n      tag_26\n      swap2\n      swap1\n      tag_27\n      jump\t// in\n    tag_26:\n      tag_28\n      jump\t// in\n    tag_25:\n      mload(0x40)\n      tag_29\n      swap2\n      swap1\n      tag_24\n      jump\t// in\n    tag_29:\n      mload(0x40)\n      dup1\n      swap2\n      sub\n      swap1\n      return\n        /* \"contracts/manifold/lazyclaim/ERC721LazyClaim.sol\":10570:12621  function mint(address creatorContractAddress, uint256 claimIndex, bytes32[] calldata merkleProof, uint32 minterValue) external override returns (uint256) {... */\n    tag_6:\n      tag_30\n      0x04\n      dup1\n      calldatasize\n      sub\n      dup2\n      add\n      swap1\n      tag_31\n      swap2\n      swap1\n      tag_32\n      jump\t// in\n    tag_31:\n      tag_33\n      jump\t// in\n    tag_30:\n      mload(0x40)\n      tag_34\n      swap2\n      swap1\n      tag_24\n      jump\t// in\n    tag_34:\n      mload(0x40)\n      dup1\n      swap2\n      sub\n      swap1\n      return\n        /* \"contracts/manifold/lazyclaim/ERC721LazyClaim.sol\":6677:6962  function getClaim(address creatorContractAddress, uint256 claimIndex) external override view returns(Claim memory) {... */\n    tag_7:\n      tag_35\n      0x04\n      dup1\n      calldatasize\n      sub\n      dup2\n      add\n      swap1\n      tag_36\n      swap2\n      swap1\n      tag_21\n      jump\t// in\n    tag_36:\n      tag_37\n      jump\t// in\n    tag_35:\n      mload(0x40)\n      tag_38\n      swap2\n      swap1\n      tag_39\n      jump\t// in\n    tag_38:\n      mload(0x40)\n      dup1\n      swap2\n      sub\n      swap1\n      return\n        /* \"contracts/manifold/lazyclaim/ERC721LazyClaim.sol\":7259:7591  function getWalletMinted(address creatorContractAddress, uint256 claimIndex, address walletAddress) external override view returns(uint32) {... */\n    tag_8:\n      tag_40\n      0x04\n      dup1\n      calldatasize\n      sub\n      dup2\n      add\n      swap1\n      tag_41\n      swap2\n      swap1\n      tag_42\n      jump\t// in\n    tag_41:\n      tag_43\n      jump\t// in\n    tag_40:\n      mload(0x40)\n      tag_44\n      swap2\n      swap1\n      tag_45\n      jump\t// in\n    tag_44:\n      mload(0x40)\n      dup1\n      swap2\n      sub\n      swap1\n      return\n        /* \"contracts/manifold/lazyclaim/ERC721LazyClaim.sol\":4786:6057  function overwriteClaim(... */\n    tag_9:\n      tag_46\n      0x04\n      dup1\n      calldatasize\n      sub\n      dup2\n      add\n      swap1\n      tag_47\n      swap2\n      swap1\n      tag_48\n      jump\t// in\n    tag_47:\n      tag_49\n      jump\t// in\n    tag_46:\n      stop\n        /* \"contracts/manifold/lazyclaim/ERC721LazyClaim.sol\":6295:6443  function getClaimCount(address creatorContractAddress) external override view returns(uint256) {... */\n    tag_10:\n      tag_50\n      0x04\n      dup1\n      calldatasize\n      sub\n      dup2\n      add\n      swap1\n      tag_51\n      swap2\n      swap1\n      tag_52\n      jump\t// in\n    tag_51:\n      tag_53\n      jump\t// in\n    tag_50:\n      mload(0x40)\n      tag_54\n      swap2\n      swap1\n      tag_24\n      jump\t// in\n    tag_54:\n      mload(0x40)\n      dup1\n      swap2\n      sub\n      swap1\n      return\n        /* \"contracts/manifold/lazyclaim/ERC721LazyClaim.sol\":12958:14161  function tokenURI(address creatorContractAddress, uint256 tokenId) external override view returns(string memory) {... */\n    tag_11:\n      tag_55\n      0x04\n      dup1\n      calldatasize\n      sub\n      dup2\n      add\n      swap1\n      tag_56\n      swap2\n      swap1\n      tag_21\n      jump\t// in\n    tag_56:\n      tag_57\n      jump\t// in\n    tag_55:\n      mload(0x40)\n      tag_58\n      swap2\n      swap1\n      tag_59\n      jump\t// in\n    tag_58:\n      mload(0x40)\n      dup1\n      swap2\n      sub\n      swap1\n      return\n        /* \"contracts/manifold/lazyclaim/ERC721LazyClaim.sol\":2043:2328  function supportsInterface(bytes4 interfaceId) public view virtual override(IERC165) returns (bool) {... */\n    tag_16:\n        /* \"contracts/manifold/lazyclaim/ERC721LazyClaim.sol\":2137:2141  bool */\n      0x00\n        /* \"contracts/manifold/lazyclaim/ERC721LazyClaim.sol\":2171:2205  type(IERC721LazyClaim).interfaceId */\n      0x9e8b4d4a00000000000000000000000000000000000000000000000000000000\n        /* \"contracts/manifold/lazyclaim/ERC721LazyClaim.sol\":2156:2205  interfaceId == type(IERC721LazyClaim).interfaceId */\n      not(0xffffffffffffffffffffffffffffffffffffffffffffffffffffffff)\n      and\n        /* \"contracts/manifold/lazyclaim/ERC721LazyClaim.sol\":2156:2167  interfaceId */\n      dup3\n        /* \"contracts/manifold/lazyclaim/ERC721LazyClaim.sol\":2156:2205  interfaceId == type(IERC721LazyClaim).interfaceId */\n      not(0xffffffffffffffffffffffffffffffffffffffffffffffffffffffff)\n      and\n      eq\n        /* \"contracts/manifold/lazyclaim/ERC721LazyClaim.sol\":2156:2273  interfaceId == type(IERC721LazyClaim).interfaceId ||... */\n      dup1\n      tag_61\n      jumpi\n      pop\n        /* \"contracts/manifold/lazyclaim/ERC721LazyClaim.sol\":2230:2273  type(ICreatorExtensionTokenURI).interfaceId */\n      0xe9dc637500000000000000000000000000000000000000000000000000000000\n        /* \"contracts/manifold/lazyclaim/ERC721LazyClaim.sol\":2215:2273  interfaceId == type(ICreatorExtensionTokenURI).interfaceId */\n      not(0xffffffffffffffffffffffffffffffffffffffffffffffffffffffff)\n      and\n        /* \"contracts/manifold/lazyclaim/ERC721LazyClaim.sol\":2215:2226  interfaceId */\n      dup3\n        /* \"contracts/manifold/lazyclaim/ERC721LazyClaim.sol\":2215:2273  interfaceId == type(ICreatorExtensionTokenURI).interfaceId */\n      not(0xffffffffffffffffffffffffffffffffffffffffffffffffffffffff)\n      and\n      eq\n        /* \"contracts/manifold/lazyclaim/ERC721LazyClaim.sol\":2156:2273  interfaceId == type(IERC721LazyClaim).interfaceId ||... */\n    tag_61:\n        /* \"contracts/manifold/lazyclaim/ERC721LazyClaim.sol\":2156:2323  interfaceId == type(IERC721LazyClaim).interfaceId ||... */\n      dup1\n      tag_62\n      jumpi\n      pop\n        /* \"contracts/manifold/lazyclaim/ERC721LazyClaim.sol\":2298:2323  type(IERC165).interfaceId */\n      0x01ffc9a700000000000000000000000000000000000000000000000000000000\n        /* \"contracts/manifold/lazyclaim/ERC721LazyClaim.sol\":2283:2323  interfaceId == type(IERC165).interfaceId */\n      not(0xffffffffffffffffffffffffffffffffffffffffffffffffffffffff)\n      and\n        /* \"contracts/manifold/lazyclaim/ERC721LazyClaim.sol\":2283:2294  interfaceId */\n      dup3\n        /* \"contracts/manifold/lazyclaim/ERC721LazyClaim.sol\":2283:2323  interfaceId == type(IERC165).interfaceId */\n      not(0xffffffffffffffffffffffffffffffffffffffffffffffffffffffff)\n      and\n      eq\n        /* \"contracts/manifold/lazyclaim/ERC721LazyClaim.sol\":2156:2323  interfaceId == type(IERC721LazyClaim).interfaceId ||... */\n    tag_62:\n        /* \"contracts/manifold/lazyclaim/ERC721LazyClaim.sol\":2149:2323  return interfaceId == type(IERC721LazyClaim).interfaceId ||... */\n      swap1\n      pop\n        /* \"contracts/manifold/lazyclaim/ERC721LazyClaim.sol\":2043:2328  function supportsInterface(bytes4 interfaceId) public view virtual override(IERC165) returns (bool) {... */\n      swap2\n      swap1\n      pop\n      jump\t// out\n        /* \"contracts/manifold/lazyclaim/ERC721LazyClaim.sol\":7828:8005  function getTokenClaim(address creatorContractAddress, uint256 tokenId) external override view returns(uint256) {... */\n    tag_22:\n        /* \"contracts/manifold/lazyclaim/ERC721LazyClaim.sol\":7931:7938  uint256 */\n      0x00\n        /* \"contracts/manifold/lazyclaim/ERC721LazyClaim.sol\":7953:8000  _getTokenClaim(creatorContractAddress, tokenId) */\n      tag_64\n        /* \"contracts/manifold/lazyclaim/ERC721LazyClaim.sol\":7968:7990  creatorContractAddress */\n      dup4\n        /* \"contracts/manifold/lazyclaim/ERC721LazyClaim.sol\":7992:7999  tokenId */\n      dup4\n        /* \"contracts/manifold/lazyclaim/ERC721LazyClaim.sol\":7953:7967  _getTokenClaim */\n      tag_65\n        /* \"contracts/manifold/lazyclaim/ERC721LazyClaim.sol\":7953:8000  _getTokenClaim(creatorContractAddress, tokenId) */\n      jump\t// in\n    tag_64:\n        /* \"contracts/manifold/lazyclaim/ERC721LazyClaim.sol\":7946:8000  return _getTokenClaim(creatorContractAddress, tokenId) */\n      swap1\n      pop\n        /* \"contracts/manifold/lazyclaim/ERC721LazyClaim.sol\":7828:8005  function getTokenClaim(address creatorContractAddress, uint256 tokenId) external override view returns(uint256) {... */\n      swap3\n      swap2\n      pop\n      pop\n      jump\t// out\n        /* \"contracts/manifold/lazyclaim/ERC721LazyClaim.sol\":3184:4448  function initializeClaim(... */\n    tag_28:\n        /* \"contracts/manifold/lazyclaim/ERC721LazyClaim.sol\":3367:3374  uint256 */\n      0x00\n        /* \"contracts/manifold/lazyclaim/ERC721LazyClaim.sol\":3334:3356  creatorContractAddress */\n      dup3\n        /* \"contracts/manifold/lazyclaim/ERC721LazyClaim.sol\":2658:2690  AdminControl creatorCoreContract */\n      0x00\n        /* \"contracts/manifold/lazyclaim/ERC721LazyClaim.sol\":2706:2728  creatorContractAddress */\n      dup2\n        /* \"contracts/manifold/lazyclaim/ERC721LazyClaim.sol\":2658:2729  AdminControl creatorCoreContract = AdminControl(creatorContractAddress) */\n      swap1\n      pop\n        /* \"contracts/manifold/lazyclaim/ERC721LazyClaim.sol\":2743:2762  creatorCoreContract */\n      dup1\n        /* \"contracts/manifold/lazyclaim/ERC721LazyClaim.sol\":2743:2770  creatorCoreContract.isAdmin */\n      0xffffffffffffffffffffffffffffffffffffffff\n      and\n      0x24d7806c\n        /* \"contracts/manifold/lazyclaim/ERC721LazyClaim.sol\":2771:2781  msg.sender */\n      caller\n        /* \"contracts/manifold/lazyclaim/ERC721LazyClaim.sol\":2743:2782  creatorCoreContract.isAdmin(msg.sender) */\n      mload(0x40)\n      dup3\n      0xffffffff\n      and\n      0xe0\n      shl\n      dup2\n      mstore\n      0x04\n      add\n      tag_67\n      swap2\n      swap1\n      tag_68\n      jump\t// in\n    tag_67:\n      0x20\n      mload(0x40)\n      dup1\n      dup4\n      sub\n      dup2\n      dup7\n      dup1\n      extcodesize\n      iszero\n      dup1\n      iszero\n      tag_69\n      jumpi\n      0x00\n      dup1\n      revert\n    tag_69:\n      pop\n      gas\n      staticcall\n      iszero\n      dup1\n      iszero\n      tag_71\n      jumpi\n      returndatasize\n      0x00\n      dup1\n      returndatacopy\n      revert(0x00, returndatasize)\n    tag_71:\n      pop\n      pop\n      pop\n      pop\n      mload(0x40)\n      returndatasize\n      not(0x1f)\n      0x1f\n      dup3\n      add\n      and\n      dup3\n      add\n      dup1\n      0x40\n      mstore\n      pop\n      dup2\n      add\n      swap1\n      tag_72\n      swap2\n      swap1\n      tag_73\n      jump\t// in\n    tag_72:\n        /* \"contracts/manifold/lazyclaim/ERC721LazyClaim.sol\":2735:2830  require(creatorCoreContract.isAdmin(msg.sender), \"Wallet is not an administrator for contract\") */\n      tag_74\n      jumpi\n      mload(0x40)\n      0x08c379a000000000000000000000000000000000000000000000000000000000\n      dup2\n      mstore\n      0x04\n      add\n      tag_75\n      swap1\n      tag_76\n      jump\t// in\n    tag_75:\n      mload(0x40)\n      dup1\n      swap2\n      sub\n      swap1\n      revert\n    tag_74:\n        /* \"contracts/manifold/lazyclaim/ERC721LazyClaim.sol\":3453:3454  0 */\n      0x00\n        /* \"contracts/manifold/lazyclaim/ERC721LazyClaim.sol\":3417:3432  claimParameters */\n      dup5\n        /* \"contracts/manifold/lazyclaim/ERC721LazyClaim.sol\":3417:3441  claimParameters.location */\n      dup1\n      0xe0\n      add\n      swap1\n      tag_78\n      swap2\n      swap1\n      tag_79\n      jump\t// in\n    tag_78:\n        /* \"contracts/manifold/lazyclaim/ERC721LazyClaim.sol\":3411:3449  bytes(claimParameters.location).length */\n      swap1\n      pop\n        /* \"contracts/manifold/lazyclaim/ERC721LazyClaim.sol\":3411:3454  bytes(claimParameters.location).length != 0 */\n      eq\n      iszero\n        /* \"contracts/manifold/lazyclaim/ERC721LazyClaim.sol\":3403:3496  require(bytes(claimParameters.location).length != 0, \"Cannot initialize with empty location\") */\n      tag_80\n      jumpi\n      mload(0x40)\n      0x08c379a000000000000000000000000000000000000000000000000000000000\n      dup2\n      mstore\n      0x04\n      add\n      tag_81\n      swap1\n      tag_82\n      jump\t// in\n    tag_81:\n      mload(0x40)\n      dup1\n      swap2\n      sub\n      swap1\n      revert\n    tag_80:\n        /* \"contracts/manifold/lazyclaim/ERC721LazyClaim.sol\":3537:3538  0 */\n      0x00\n        /* \"contracts/manifold/lazyclaim/ERC721LazyClaim.sol\":3510:3525  claimParameters */\n      dup5\n        /* \"contracts/manifold/lazyclaim/ERC721LazyClaim.sol\":3510:3533  claimParameters.endDate */\n      0x60\n      add\n      0x20\n      dup2\n      add\n      swap1\n      tag_83\n      swap2\n      swap1\n      tag_84\n      jump\t// in\n    tag_83:\n        /* \"contracts/manifold/lazyclaim/ERC721LazyClaim.sol\":3510:3538  claimParameters.endDate == 0 */\n      0xffffffffffff\n      and\n      eq\n        /* \"contracts/manifold/lazyclaim/ERC721LazyClaim.sol\":3510:3593  claimParameters.endDate == 0 || claimParameters.startDate < claimParameters.endDate */\n      dup1\n      tag_85\n      jumpi\n      pop\n        /* \"contracts/manifold/lazyclaim/ERC721LazyClaim.sol\":3570:3585  claimParameters */\n      dup4\n        /* \"contracts/manifold/lazyclaim/ERC721LazyClaim.sol\":3570:3593  claimParameters.endDate */\n      0x60\n      add\n      0x20\n      dup2\n      add\n      swap1\n      tag_86\n      swap2\n      swap1\n      tag_84\n      jump\t// in\n    tag_86:\n        /* \"contracts/manifold/lazyclaim/ERC721LazyClaim.sol\":3542:3593  claimParameters.startDate < claimParameters.endDate */\n      0xffffffffffff\n      and\n        /* \"contracts/manifold/lazyclaim/ERC721LazyClaim.sol\":3542:3557  claimParameters */\n      dup5\n        /* \"contracts/manifold/lazyclaim/ERC721LazyClaim.sol\":3542:3567  claimParameters.startDate */\n      0x40\n      add\n      0x20\n      dup2\n      add\n      swap1\n      tag_87\n      swap2\n      swap1\n      tag_84\n      jump\t// in\n    tag_87:\n        /* \"contracts/manifold/lazyclaim/ERC721LazyClaim.sol\":3542:3593  claimParameters.startDate < claimParameters.endDate */\n      0xffffffffffff\n      and\n      lt\n        /* \"contracts/manifold/lazyclaim/ERC721LazyClaim.sol\":3510:3593  claimParameters.endDate == 0 || claimParameters.startDate < claimParameters.endDate */\n    tag_85:\n        /* \"contracts/manifold/lazyclaim/ERC721LazyClaim.sol\":3502:3652  require(claimParameters.endDate == 0 || claimParameters.startDate < claimParameters.endDate, \"Cannot have startDate greater than or equal to endDate\") */\n      tag_88\n      jumpi\n      mload(0x40)\n      0x08c379a000000000000000000000000000000000000000000000000000000000\n      dup2\n      mstore\n      0x04\n      add\n      tag_89\n      swap1\n      tag_90\n      jump\t// in\n    tag_89:\n      mload(0x40)\n      dup1\n      swap2\n      sub\n      swap1\n      revert\n    tag_88:\n        /* \"contracts/manifold/lazyclaim/ERC721LazyClaim.sol\":3693:3698  10000 */\n      0x2710\n        /* \"contracts/manifold/lazyclaim/ERC721LazyClaim.sol\":3666:3681  claimParameters */\n      dup5\n        /* \"contracts/manifold/lazyclaim/ERC721LazyClaim.sol\":3666:3690  claimParameters.totalMax */\n      0x00\n      add\n      0x20\n      dup2\n      add\n      swap1\n      tag_91\n      swap2\n      swap1\n      tag_92\n      jump\t// in\n    tag_91:\n        /* \"contracts/manifold/lazyclaim/ERC721LazyClaim.sol\":3666:3698  claimParameters.totalMax < 10000 */\n      0xffffffff\n      and\n      lt\n        /* \"contracts/manifold/lazyclaim/ERC721LazyClaim.sol\":3658:3742  require(claimParameters.totalMax < 10000, \"Cannot have totalMax greater than 10000\") */\n      tag_93\n      jumpi\n      mload(0x40)\n      0x08c379a000000000000000000000000000000000000000000000000000000000\n      dup2\n      mstore\n      0x04\n      add\n      tag_94\n      swap1\n      tag_95\n      jump\t// in\n    tag_94:\n      mload(0x40)\n      dup1\n      swap2\n      sub\n      swap1\n      revert\n    tag_93:\n        /* \"contracts/manifold/lazyclaim/ERC721LazyClaim.sol\":3790:3801  claimCounts */\n      0x01\n        /* \"contracts/manifold/lazyclaim/ERC721LazyClaim.sol\":3790:3825  claimCounts[creatorContractAddress] */\n      0x00\n        /* \"contracts/manifold/lazyclaim/ERC721LazyClaim.sol\":3802:3824  creatorContractAddress */\n      dup7\n        /* \"contracts/manifold/lazyclaim/ERC721LazyClaim.sol\":3790:3825  claimCounts[creatorContractAddress] */\n      0xffffffffffffffffffffffffffffffffffffffff\n      and\n      0xffffffffffffffffffffffffffffffffffffffff\n      and\n      dup2\n      mstore\n      0x20\n      add\n      swap1\n      dup2\n      mstore\n      0x20\n      add\n      0x00\n      keccak256\n      0x00\n        /* \"contracts/manifold/lazyclaim/ERC721LazyClaim.sol\":3790:3827  claimCounts[creatorContractAddress]++ */\n      dup2\n      sload\n      dup1\n      swap3\n      swap2\n      swap1\n      tag_96\n      swap1\n      tag_97\n      jump\t// in\n    tag_96:\n      swap2\n      swap1\n      pop\n      sstore\n      pop\n        /* \"contracts/manifold/lazyclaim/ERC721LazyClaim.sol\":3833:3849  uint256 newIndex */\n      0x00\n        /* \"contracts/manifold/lazyclaim/ERC721LazyClaim.sol\":3852:3863  claimCounts */\n      0x01\n        /* \"contracts/manifold/lazyclaim/ERC721LazyClaim.sol\":3852:3887  claimCounts[creatorContractAddress] */\n      0x00\n        /* \"contracts/manifold/lazyclaim/ERC721LazyClaim.sol\":3864:3886  creatorContractAddress */\n      dup8\n        /* \"contracts/manifold/lazyclaim/ERC721LazyClaim.sol\":3852:3887  claimCounts[creatorContractAddress] */\n      0xffffffffffffffffffffffffffffffffffffffff\n      and\n      0xffffffffffffffffffffffffffffffffffffffff\n      and\n      dup2\n      mstore\n      0x20\n      add\n      swap1\n      dup2\n      mstore\n      0x20\n      add\n      0x00\n      keccak256\n      sload\n        /* \"contracts/manifold/lazyclaim/ERC721LazyClaim.sol\":3833:3887  uint256 newIndex = claimCounts[creatorContractAddress] */\n      swap1\n      pop\n        /* \"contracts/manifold/lazyclaim/ERC721LazyClaim.sol\":3961:4348  Claim({... */\n      mload(0x40)\n      dup1\n      0x0120\n      add\n      0x40\n      mstore\n      dup1\n        /* \"contracts/manifold/lazyclaim/ERC721LazyClaim.sol\":3982:3983  0 */\n      0x00\n        /* \"contracts/manifold/lazyclaim/ERC721LazyClaim.sol\":3961:4348  Claim({... */\n      0xffffffff\n      and\n      dup2\n      mstore\n      0x20\n      add\n        /* \"contracts/manifold/lazyclaim/ERC721LazyClaim.sol\":4001:4016  claimParameters */\n      dup7\n        /* \"contracts/manifold/lazyclaim/ERC721LazyClaim.sol\":4001:4025  claimParameters.totalMax */\n      0x00\n      add\n      0x20\n      dup2\n      add\n      swap1\n      tag_98\n      swap2\n      swap1\n      tag_92\n      jump\t// in\n    tag_98:\n        /* \"contracts/manifold/lazyclaim/ERC721LazyClaim.sol\":3961:4348  Claim({... */\n      0xffffffff\n      and\n      dup2\n      mstore\n      0x20\n      add\n        /* \"contracts/manifold/lazyclaim/ERC721LazyClaim.sol\":4044:4059  claimParameters */\n      dup7\n        /* \"contracts/manifold/lazyclaim/ERC721LazyClaim.sol\":4044:4069  claimParameters.walletMax */\n      0x20\n      add\n      0x20\n      dup2\n      add\n      swap1\n      tag_99\n      swap2\n      swap1\n      tag_92\n      jump\t// in\n    tag_99:\n        /* \"contracts/manifold/lazyclaim/ERC721LazyClaim.sol\":3961:4348  Claim({... */\n      0xffffffff\n      and\n      dup2\n      mstore\n      0x20\n      add\n        /* \"contracts/manifold/lazyclaim/ERC721LazyClaim.sol\":4088:4103  claimParameters */\n      dup7\n        /* \"contracts/manifold/lazyclaim/ERC721LazyClaim.sol\":4088:4113  claimParameters.startDate */\n      0x40\n      add\n      0x20\n      dup2\n      add\n      swap1\n      tag_100\n      swap2\n      swap1\n      tag_84\n      jump\t// in\n    tag_100:\n        /* \"contracts/manifold/lazyclaim/ERC721LazyClaim.sol\":3961:4348  Claim({... */\n      0xffffffffffff\n      and\n      dup2\n      mstore\n      0x20\n      add\n        /* \"contracts/manifold/lazyclaim/ERC721LazyClaim.sol\":4130:4145  claimParameters */\n      dup7\n        /* \"contracts/manifold/lazyclaim/ERC721LazyClaim.sol\":4130:4153  claimParameters.endDate */\n      0x60\n      add\n      0x20\n      dup2\n      add\n      swap1\n      tag_101\n      swap2\n      swap1\n      tag_84\n      jump\t// in\n    tag_101:\n        /* \"contracts/manifold/lazyclaim/ERC721LazyClaim.sol\":3961:4348  Claim({... */\n      0xffffffffffff\n      and\n      dup2\n      mstore\n      0x20\n      add\n        /* \"contracts/manifold/lazyclaim/ERC721LazyClaim.sol\":4178:4193  claimParameters */\n      dup7\n        /* \"contracts/manifold/lazyclaim/ERC721LazyClaim.sol\":4178:4209  claimParameters.storageProtocol */\n      0x80\n      add\n      0x20\n      dup2\n      add\n      swap1\n      tag_102\n      swap2\n      swap1\n      tag_103\n      jump\t// in\n    tag_102:\n        /* \"contracts/manifold/lazyclaim/ERC721LazyClaim.sol\":3961:4348  Claim({... */\n      0x02\n      dup2\n      gt\n      iszero\n      tag_104\n      jumpi\n      mstore(0x00, 0x4e487b7100000000000000000000000000000000000000000000000000000000)\n      mstore(0x04, 0x21)\n      revert(0x00, 0x24)\n    tag_104:\n      dup2\n      mstore\n      0x20\n      add\n        /* \"contracts/manifold/lazyclaim/ERC721LazyClaim.sol\":4228:4243  claimParameters */\n      dup7\n        /* \"contracts/manifold/lazyclaim/ERC721LazyClaim.sol\":4228:4253  claimParameters.identical */\n      0xa0\n      add\n      0x20\n      dup2\n      add\n      swap1\n      tag_105\n      swap2\n      swap1\n      tag_106\n      jump\t// in\n    tag_105:\n        /* \"contracts/manifold/lazyclaim/ERC721LazyClaim.sol\":3961:4348  Claim({... */\n      iszero\n      iszero\n      dup2\n      mstore\n      0x20\n      add\n        /* \"contracts/manifold/lazyclaim/ERC721LazyClaim.sol\":4273:4288  claimParameters */\n      dup7\n        /* \"contracts/manifold/lazyclaim/ERC721LazyClaim.sol\":4273:4299  claimParameters.merkleRoot */\n      0xc0\n      add\n      calldataload\n        /* \"contracts/manifold/lazyclaim/ERC721LazyClaim.sol\":3961:4348  Claim({... */\n      dup2\n      mstore\n      0x20\n      add\n        /* \"contracts/manifold/lazyclaim/ERC721LazyClaim.sol\":4317:4332  claimParameters */\n      dup7\n        /* \"contracts/manifold/lazyclaim/ERC721LazyClaim.sol\":4317:4341  claimParameters.location */\n      dup1\n      0xe0\n      add\n      swap1\n      tag_107\n      swap2\n      swap1\n      tag_79\n      jump\t// in\n    tag_107:\n        /* \"contracts/manifold/lazyclaim/ERC721LazyClaim.sol\":3961:4348  Claim({... */\n      dup1\n      dup1\n      0x1f\n      add\n      0x20\n      dup1\n      swap2\n      div\n      mul\n      0x20\n      add\n      mload(0x40)\n      swap1\n      dup2\n      add\n      0x40\n      mstore\n      dup1\n      swap4\n      swap3\n      swap2\n      swap1\n      dup2\n      dup2\n      mstore\n      0x20\n      add\n      dup4\n      dup4\n      dup1\n      dup3\n      dup5\n      calldatacopy\n      0x00\n      dup2\n      dup5\n      add\n      mstore\n      not(0x1f)\n      0x1f\n      dup3\n      add\n      and\n      swap1\n      pop\n      dup1\n      dup4\n      add\n      swap3\n      pop\n      pop\n      pop\n      pop\n      pop\n      pop\n      pop\n      dup2\n      mstore\n      pop\n        /* \"contracts/manifold/lazyclaim/ERC721LazyClaim.sol\":3918:3924  claims */\n      0x02\n        /* \"contracts/manifold/lazyclaim/ERC721LazyClaim.sol\":3918:3948  claims[creatorContractAddress] */\n      0x00\n        /* \"contracts/manifold/lazyclaim/ERC721LazyClaim.sol\":3925:3947  creatorContractAddress */\n      dup9\n        /* \"contracts/manifold/lazyclaim/ERC721LazyClaim.sol\":3918:3948  claims[creatorContractAddress] */\n      0xffffffffffffffffffffffffffffffffffffffff\n      and\n      0xffffffffffffffffffffffffffffffffffffffff\n      and\n      dup2\n      mstore\n      0x20\n      add\n      swap1\n      dup2\n      mstore\n      0x20\n      add\n      0x00\n      keccak256\n        /* \"contracts/manifold/lazyclaim/ERC721LazyClaim.sol\":3918:3958  claims[creatorContractAddress][newIndex] */\n      0x00\n        /* \"contracts/manifold/lazyclaim/ERC721LazyClaim.sol\":3949:3957  newIndex */\n      dup4\n        /* \"contracts/manifold/lazyclaim/ERC721LazyClaim.sol\":3918:3958  claims[creatorContractAddress][newIndex] */\n      dup2\n      mstore\n      0x20\n      add\n      swap1\n      dup2\n      mstore\n      0x20\n      add\n      0x00\n      keccak256\n        /* \"contracts/manifold/lazyclaim/ERC721LazyClaim.sol\":3918:4348  claims[creatorContractAddress][newIndex] = Claim({... */\n      0x00\n      dup3\n      add\n      mload\n      dup2\n      0x00\n      add\n      exp(0x0100, 0x00)\n      dup2\n      sload\n      dup2\n      0xffffffff\n      mul\n      not\n      and\n      swap1\n      dup4\n      0xffffffff\n      and\n      mul\n      or\n      swap1\n      sstore\n      pop\n      0x20\n      dup3\n      add\n      mload\n      dup2\n      0x00\n      add\n      exp(0x0100, 0x04)\n      dup2\n      sload\n      dup2\n      0xffffffff\n      mul\n      not\n      and\n      swap1\n      dup4\n      0xffffffff\n      and\n      mul\n      or\n      swap1\n      sstore\n      pop\n      0x40\n      dup3\n      add\n      mload\n      dup2\n      0x00\n      add\n      exp(0x0100, 0x08)\n      dup2\n      sload\n      dup2\n      0xffffffff\n      mul\n      not\n      and\n      swap1\n      dup4\n      0xffffffff\n      and\n      mul\n      or\n      swap1\n      sstore\n      pop\n      0x60\n      dup3\n      add\n      mload\n      dup2\n      0x00\n      add\n      exp(0x0100, 0x0c)\n      dup2\n      sload\n      dup2\n      0xffffffffffff\n      mul\n      not\n      and\n      swap1\n      dup4\n      0xffffffffffff\n      and\n      mul\n      or\n      swap1\n      sstore\n      pop\n      0x80\n      dup3\n      add\n      mload\n      dup2\n      0x00\n      add\n      exp(0x0100, 0x12)\n      dup2\n      sload\n      dup2\n      0xffffffffffff\n      mul\n      not\n      and\n      swap1\n      dup4\n      0xffffffffffff\n      and\n      mul\n      or\n      swap1\n      sstore\n      pop\n      0xa0\n      dup3\n      add\n      mload\n      dup2\n      0x00\n      add\n      exp(0x0100, 0x18)\n      dup2\n      sload\n      dup2\n      0xff\n      mul\n      not\n      and\n      swap1\n      dup4\n      0x02\n      dup2\n      gt\n      iszero\n      tag_108\n      jumpi\n      mstore(0x00, 0x4e487b7100000000000000000000000000000000000000000000000000000000)\n      mstore(0x04, 0x21)\n      revert(0x00, 0x24)\n    tag_108:\n      mul\n      or\n      swap1\n      sstore\n      pop\n      0xc0\n      dup3\n      add\n      mload\n      dup2\n      0x00\n      add\n      exp(0x0100, 0x19)\n      dup2\n      sload\n      dup2\n      0xff\n      mul\n      not\n      and\n      swap1\n      dup4\n      iszero\n      iszero\n      mul\n      or\n      swap1\n      sstore\n      pop\n      0xe0\n      dup3\n      add\n      mload\n      dup2\n      0x01\n      add\n      sstore\n      0x0100\n      dup3\n      add\n      mload\n      dup2\n      0x02\n      add\n      swap1\n      dup1\n      mload\n      swap1\n      0x20\n      add\n      swap1\n      tag_109\n      swap3\n      swap2\n      swap1\n      tag_110\n      jump\t// in\n    tag_109:\n      pop\n      swap1\n      pop\n      pop\n        /* \"contracts/manifold/lazyclaim/ERC721LazyClaim.sol\":4401:4409  newIndex */\n      dup1\n        /* \"contracts/manifold/lazyclaim/ERC721LazyClaim.sol\":4377:4399  creatorContractAddress */\n      dup7\n        /* \"contracts/manifold/lazyclaim/ERC721LazyClaim.sol\":4360:4422  ClaimInitialized(creatorContractAddress, newIndex, msg.sender) */\n      0xffffffffffffffffffffffffffffffffffffffff\n      and\n      0xd02727da4c6c6c111e00310108209a4de39f6817414df43ca1a10730d47c6a34\n        /* \"contracts/manifold/lazyclaim/ERC721LazyClaim.sol\":4411:4421  msg.sender */\n      caller\n        /* \"contracts/manifold/lazyclaim/ERC721LazyClaim.sol\":4360:4422  ClaimInitialized(creatorContractAddress, newIndex, msg.sender) */\n      mload(0x40)\n      tag_111\n      swap2\n      swap1\n      tag_68\n      jump\t// in\n    tag_111:\n      mload(0x40)\n      dup1\n      swap2\n      sub\n      swap1\n      log3\n        /* \"contracts/manifold/lazyclaim/ERC721LazyClaim.sol\":4435:4443  newIndex */\n      dup1\n        /* \"contracts/manifold/lazyclaim/ERC721LazyClaim.sol\":4428:4443  return newIndex */\n      swap4\n      pop\n      pop\n        /* \"contracts/manifold/lazyclaim/ERC721LazyClaim.sol\":3184:4448  function initializeClaim(... */\n      pop\n      pop\n      swap3\n      swap2\n      pop\n      pop\n      jump\t// out\n        /* \"contracts/manifold/lazyclaim/ERC721LazyClaim.sol\":10570:12621  function mint(address creatorContractAddress, uint256 claimIndex, bytes32[] calldata merkleProof, uint32 minterValue) external override returns (uint256) {... */\n    tag_33:\n        /* \"contracts/manifold/lazyclaim/ERC721LazyClaim.sol\":10715:10722  uint256 */\n      0x00\n        /* \"contracts/manifold/lazyclaim/ERC721LazyClaim.sol\":10845:10846  0 */\n      dup1\n        /* \"contracts/manifold/lazyclaim/ERC721LazyClaim.sol\":10782:10788  claims */\n      0x02\n        /* \"contracts/manifold/lazyclaim/ERC721LazyClaim.sol\":10782:10812  claims[creatorContractAddress] */\n      0x00\n        /* \"contracts/manifold/lazyclaim/ERC721LazyClaim.sol\":10789:10811  creatorContractAddress */\n      dup9\n        /* \"contracts/manifold/lazyclaim/ERC721LazyClaim.sol\":10782:10812  claims[creatorContractAddress] */\n      0xffffffffffffffffffffffffffffffffffffffff\n      and\n      0xffffffffffffffffffffffffffffffffffffffff\n      and\n      dup2\n      mstore\n      0x20\n      add\n      swap1\n      dup2\n      mstore\n      0x20\n      add\n      0x00\n      keccak256\n        /* \"contracts/manifold/lazyclaim/ERC721LazyClaim.sol\":10782:10824  claims[creatorContractAddress][claimIndex] */\n      0x00\n        /* \"contracts/manifold/lazyclaim/ERC721LazyClaim.sol\":10813:10823  claimIndex */\n      dup8\n        /* \"contracts/manifold/lazyclaim/ERC721LazyClaim.sol\":10782:10824  claims[creatorContractAddress][claimIndex] */\n      dup2\n      mstore\n      0x20\n      add\n      swap1\n      dup2\n      mstore\n      0x20\n      add\n      0x00\n      keccak256\n        /* \"contracts/manifold/lazyclaim/ERC721LazyClaim.sol\":10782:10833  claims[creatorContractAddress][claimIndex].location */\n      0x02\n      add\n        /* \"contracts/manifold/lazyclaim/ERC721LazyClaim.sol\":10776:10841  bytes(claims[creatorContractAddress][claimIndex].location).length */\n      dup1\n      sload\n      tag_113\n      swap1\n      tag_114\n      jump\t// in\n    tag_113:\n      swap1\n      pop\n        /* \"contracts/manifold/lazyclaim/ERC721LazyClaim.sol\":10776:10846  bytes(claims[creatorContractAddress][claimIndex].location).length != 0 */\n      eq\n      iszero\n        /* \"contracts/manifold/lazyclaim/ERC721LazyClaim.sol\":10768:10872  require(bytes(claims[creatorContractAddress][claimIndex].location).length != 0, \"Claim not initialized\") */\n      tag_115\n      jumpi\n      mload(0x40)\n      0x08c379a000000000000000000000000000000000000000000000000000000000\n      dup2\n      mstore\n      0x04\n      add\n      tag_116\n      swap1\n      tag_117\n      jump\t// in\n    tag_116:\n      mload(0x40)\n      dup1\n      swap2\n      sub\n      swap1\n      revert\n    tag_115:\n        /* \"contracts/manifold/lazyclaim/ERC721LazyClaim.sol\":10880:10899  Claim storage claim */\n      0x00\n        /* \"contracts/manifold/lazyclaim/ERC721LazyClaim.sol\":10902:10908  claims */\n      0x02\n        /* \"contracts/manifold/lazyclaim/ERC721LazyClaim.sol\":10902:10932  claims[creatorContractAddress] */\n      0x00\n        /* \"contracts/manifold/lazyclaim/ERC721LazyClaim.sol\":10909:10931  creatorContractAddress */\n      dup9\n        /* \"contracts/manifold/lazyclaim/ERC721LazyClaim.sol\":10902:10932  claims[creatorContractAddress] */\n      0xffffffffffffffffffffffffffffffffffffffff\n      and\n      0xffffffffffffffffffffffffffffffffffffffff\n      and\n      dup2\n      mstore\n      0x20\n      add\n      swap1\n      dup2\n      mstore\n      0x20\n      add\n      0x00\n      keccak256\n        /* \"contracts/manifold/lazyclaim/ERC721LazyClaim.sol\":10902:10944  claims[creatorContractAddress][claimIndex] */\n      0x00\n        /* \"contracts/manifold/lazyclaim/ERC721LazyClaim.sol\":10933:10943  claimIndex */\n      dup8\n        /* \"contracts/manifold/lazyclaim/ERC721LazyClaim.sol\":10902:10944  claims[creatorContractAddress][claimIndex] */\n      dup2\n      mstore\n      0x20\n      add\n      swap1\n      dup2\n      mstore\n      0x20\n      add\n      0x00\n      keccak256\n        /* \"contracts/manifold/lazyclaim/ERC721LazyClaim.sol\":10880:10944  Claim storage claim = claims[creatorContractAddress][claimIndex] */\n      swap1\n      pop\n        /* \"contracts/manifold/lazyclaim/ERC721LazyClaim.sol\":11006:11007  0 */\n      0x00\n        /* \"contracts/manifold/lazyclaim/ERC721LazyClaim.sol\":10987:10992  claim */\n      dup2\n        /* \"contracts/manifold/lazyclaim/ERC721LazyClaim.sol\":10987:11002  claim.startDate */\n      0x00\n      add\n      0x0c\n      swap1\n      sload\n      swap1\n      0x0100\n      exp\n      swap1\n      div\n      0xffffffffffff\n      and\n        /* \"contracts/manifold/lazyclaim/ERC721LazyClaim.sol\":10987:11007  claim.startDate == 0 */\n      0xffffffffffff\n      and\n      eq\n        /* \"contracts/manifold/lazyclaim/ERC721LazyClaim.sol\":10987:11044  claim.startDate == 0 || claim.startDate < block.timestamp */\n      dup1\n      tag_118\n      jumpi\n      pop\n        /* \"contracts/manifold/lazyclaim/ERC721LazyClaim.sol\":11029:11044  block.timestamp */\n      timestamp\n        /* \"contracts/manifold/lazyclaim/ERC721LazyClaim.sol\":11011:11016  claim */\n      dup2\n        /* \"contracts/manifold/lazyclaim/ERC721LazyClaim.sol\":11011:11026  claim.startDate */\n      0x00\n      add\n      0x0c\n      swap1\n      sload\n      swap1\n      0x0100\n      exp\n      swap1\n      div\n      0xffffffffffff\n      and\n        /* \"contracts/manifold/lazyclaim/ERC721LazyClaim.sol\":11011:11044  claim.startDate < block.timestamp */\n      0xffffffffffff\n      and\n      lt\n        /* \"contracts/manifold/lazyclaim/ERC721LazyClaim.sol\":10987:11044  claim.startDate == 0 || claim.startDate < block.timestamp */\n    tag_118:\n        /* \"contracts/manifold/lazyclaim/ERC721LazyClaim.sol\":10979:11078  require(claim.startDate == 0 || claim.startDate < block.timestamp, \"Transaction before start date\") */\n      tag_119\n      jumpi\n      mload(0x40)\n      0x08c379a000000000000000000000000000000000000000000000000000000000\n      dup2\n      mstore\n      0x04\n      add\n      tag_120\n      swap1\n      tag_121\n      jump\t// in\n    tag_120:\n      mload(0x40)\n      dup1\n      swap2\n      sub\n      swap1\n      revert\n    tag_119:\n        /* \"contracts/manifold/lazyclaim/ERC721LazyClaim.sol\":11111:11112  0 */\n      0x00\n        /* \"contracts/manifold/lazyclaim/ERC721LazyClaim.sol\":11094:11099  claim */\n      dup2\n        /* \"contracts/manifold/lazyclaim/ERC721LazyClaim.sol\":11094:11107  claim.endDate */\n      0x00\n      add\n      0x12\n      swap1\n      sload\n      swap1\n      0x0100\n      exp\n      swap1\n      div\n      0xffffffffffff\n      and\n        /* \"contracts/manifold/lazyclaim/ERC721LazyClaim.sol\":11094:11112  claim.endDate == 0 */\n      0xffffffffffff\n      and\n      eq\n        /* \"contracts/manifold/lazyclaim/ERC721LazyClaim.sol\":11094:11148  claim.endDate == 0 || claim.endDate >= block.timestamp */\n      dup1\n      tag_122\n      jumpi\n      pop\n        /* \"contracts/manifold/lazyclaim/ERC721LazyClaim.sol\":11133:11148  block.timestamp */\n      timestamp\n        /* \"contracts/manifold/lazyclaim/ERC721LazyClaim.sol\":11116:11121  claim */\n      dup2\n        /* \"contracts/manifold/lazyclaim/ERC721LazyClaim.sol\":11116:11129  claim.endDate */\n      0x00\n      add\n      0x12\n      swap1\n      sload\n      swap1\n      0x0100\n      exp\n      swap1\n      div\n      0xffffffffffff\n      and\n        /* \"contracts/manifold/lazyclaim/ERC721LazyClaim.sol\":11116:11148  claim.endDate >= block.timestamp */\n      0xffffffffffff\n      and\n      lt\n      iszero\n        /* \"contracts/manifold/lazyclaim/ERC721LazyClaim.sol\":11094:11148  claim.endDate == 0 || claim.endDate >= block.timestamp */\n    tag_122:\n        /* \"contracts/manifold/lazyclaim/ERC721LazyClaim.sol\":11086:11179  require(claim.endDate == 0 || claim.endDate >= block.timestamp, \"Transaction after end date\") */\n      tag_123\n      jumpi\n      mload(0x40)\n      0x08c379a000000000000000000000000000000000000000000000000000000000\n      dup2\n      mstore\n      0x04\n      add\n      tag_124\n      swap1\n      tag_125\n      jump\t// in\n    tag_124:\n      mload(0x40)\n      dup1\n      swap2\n      sub\n      swap1\n      revert\n    tag_123:\n        /* \"contracts/manifold/lazyclaim/ERC721LazyClaim.sol\":11264:11265  0 */\n      0x00\n        /* \"contracts/manifold/lazyclaim/ERC721LazyClaim.sol\":11245:11250  claim */\n      dup2\n        /* \"contracts/manifold/lazyclaim/ERC721LazyClaim.sol\":11245:11260  claim.walletMax */\n      0x00\n      add\n      0x08\n      swap1\n      sload\n      swap1\n      0x0100\n      exp\n      swap1\n      div\n      0xffffffff\n      and\n        /* \"contracts/manifold/lazyclaim/ERC721LazyClaim.sol\":11245:11265  claim.walletMax == 0 */\n      0xffffffff\n      and\n      eq\n        /* \"contracts/manifold/lazyclaim/ERC721LazyClaim.sol\":11245:11349  claim.walletMax == 0 || mintsPerWallet[creatorContractAddress][claimIndex][msg.sender] < claim.walletMax */\n      dup1\n      tag_126\n      jumpi\n      pop\n        /* \"contracts/manifold/lazyclaim/ERC721LazyClaim.sol\":11334:11339  claim */\n      dup1\n        /* \"contracts/manifold/lazyclaim/ERC721LazyClaim.sol\":11334:11349  claim.walletMax */\n      0x00\n      add\n      0x08\n      swap1\n      sload\n      swap1\n      0x0100\n      exp\n      swap1\n      div\n      0xffffffff\n      and\n        /* \"contracts/manifold/lazyclaim/ERC721LazyClaim.sol\":11269:11349  mintsPerWallet[creatorContractAddress][claimIndex][msg.sender] < claim.walletMax */\n      0xffffffff\n      and\n        /* \"contracts/manifold/lazyclaim/ERC721LazyClaim.sol\":11269:11283  mintsPerWallet */\n      0x03\n        /* \"contracts/manifold/lazyclaim/ERC721LazyClaim.sol\":11269:11307  mintsPerWallet[creatorContractAddress] */\n      0x00\n        /* \"contracts/manifold/lazyclaim/ERC721LazyClaim.sol\":11284:11306  creatorContractAddress */\n      dup10\n        /* \"contracts/manifold/lazyclaim/ERC721LazyClaim.sol\":11269:11307  mintsPerWallet[creatorContractAddress] */\n      0xffffffffffffffffffffffffffffffffffffffff\n      and\n      0xffffffffffffffffffffffffffffffffffffffff\n      and\n      dup2\n      mstore\n      0x20\n      add\n      swap1\n      dup2\n      mstore\n      0x20\n      add\n      0x00\n      keccak256\n        /* \"contracts/manifold/lazyclaim/ERC721LazyClaim.sol\":11269:11319  mintsPerWallet[creatorContractAddress][claimIndex] */\n      0x00\n        /* \"contracts/manifold/lazyclaim/ERC721LazyClaim.sol\":11308:11318  claimIndex */\n      dup9\n        /* \"contracts/manifold/lazyclaim/ERC721LazyClaim.sol\":11269:11319  mintsPerWallet[creatorContractAddress][claimIndex] */\n      dup2\n      mstore\n      0x20\n      add\n      swap1\n      dup2\n      mstore\n      0x20\n      add\n      0x00\n      keccak256\n        /* \"contracts/manifold/lazyclaim/ERC721LazyClaim.sol\":11269:11331  mintsPerWallet[creatorContractAddress][claimIndex][msg.sender] */\n      0x00\n        /* \"contracts/manifold/lazyclaim/ERC721LazyClaim.sol\":11320:11330  msg.sender */\n      caller\n        /* \"contracts/manifold/lazyclaim/ERC721LazyClaim.sol\":11269:11331  mintsPerWallet[creatorContractAddress][claimIndex][msg.sender] */\n      0xffffffffffffffffffffffffffffffffffffffff\n      and\n      0xffffffffffffffffffffffffffffffffffffffff\n      and\n      dup2\n      mstore\n      0x20\n      add\n      swap1\n      dup2\n      mstore\n      0x20\n      add\n      0x00\n      keccak256\n      0x00\n      swap1\n      sload\n      swap1\n      0x0100\n      exp\n      swap1\n      div\n      0xffffffff\n      and\n        /* \"contracts/manifold/lazyclaim/ERC721LazyClaim.sol\":11269:11349  mintsPerWallet[creatorContractAddress][claimIndex][msg.sender] < claim.walletMax */\n      0xffffffff\n      and\n      lt\n        /* \"contracts/manifold/lazyclaim/ERC721LazyClaim.sol\":11245:11349  claim.walletMax == 0 || mintsPerWallet[creatorContractAddress][claimIndex][msg.sender] < claim.walletMax */\n    tag_126:\n        /* \"contracts/manifold/lazyclaim/ERC721LazyClaim.sol\":11237:11399  require(claim.walletMax == 0 || mintsPerWallet[creatorContractAddress][claimIndex][msg.sender] < claim.walletMax, \"Maximum tokens already minted for this wallet\") */\n      tag_127\n      jumpi\n      mload(0x40)\n      0x08c379a000000000000000000000000000000000000000000000000000000000\n      dup2\n      mstore\n      0x04\n      add\n      tag_128\n      swap1\n      tag_129\n      jump\t// in\n    tag_128:\n      mload(0x40)\n      dup1\n      swap2\n      sub\n      swap1\n      revert\n    tag_127:\n        /* \"contracts/manifold/lazyclaim/ERC721LazyClaim.sol\":11458:11459  0 */\n      0x00\n        /* \"contracts/manifold/lazyclaim/ERC721LazyClaim.sol\":11440:11445  claim */\n      dup2\n        /* \"contracts/manifold/lazyclaim/ERC721LazyClaim.sol\":11440:11454  claim.totalMax */\n      0x00\n      add\n      0x04\n      swap1\n      sload\n      swap1\n      0x0100\n      exp\n      swap1\n      div\n      0xffffffff\n      and\n        /* \"contracts/manifold/lazyclaim/ERC721LazyClaim.sol\":11440:11459  claim.totalMax == 0 */\n      0xffffffff\n      and\n      eq\n        /* \"contracts/manifold/lazyclaim/ERC721LazyClaim.sol\":11440:11491  claim.totalMax == 0 || claim.total < claim.totalMax */\n      dup1\n      tag_130\n      jumpi\n      pop\n        /* \"contracts/manifold/lazyclaim/ERC721LazyClaim.sol\":11477:11482  claim */\n      dup1\n        /* \"contracts/manifold/lazyclaim/ERC721LazyClaim.sol\":11477:11491  claim.totalMax */\n      0x00\n      add\n      0x04\n      swap1\n      sload\n      swap1\n      0x0100\n      exp\n      swap1\n      div\n      0xffffffff\n      and\n        /* \"contracts/manifold/lazyclaim/ERC721LazyClaim.sol\":11463:11491  claim.total < claim.totalMax */\n      0xffffffff\n      and\n        /* \"contracts/manifold/lazyclaim/ERC721LazyClaim.sol\":11463:11468  claim */\n      dup2\n        /* \"contracts/manifold/lazyclaim/ERC721LazyClaim.sol\":11463:11474  claim.total */\n      0x00\n      add\n      0x00\n      swap1\n      sload\n      swap1\n      0x0100\n      exp\n      swap1\n      div\n      0xffffffff\n      and\n        /* \"contracts/manifold/lazyclaim/ERC721LazyClaim.sol\":11463:11491  claim.total < claim.totalMax */\n      0xffffffff\n      and\n      lt\n        /* \"contracts/manifold/lazyclaim/ERC721LazyClaim.sol\":11440:11491  claim.totalMax == 0 || claim.total < claim.totalMax */\n    tag_130:\n        /* \"contracts/manifold/lazyclaim/ERC721LazyClaim.sol\":11432:11540  require(claim.totalMax == 0 || claim.total < claim.totalMax, \"Maximum tokens already minted for this claim\") */\n      tag_131\n      jumpi\n      mload(0x40)\n      0x08c379a000000000000000000000000000000000000000000000000000000000\n      dup2\n      mstore\n      0x04\n      add\n      tag_132\n      swap1\n      tag_133\n      jump\t// in\n    tag_132:\n      mload(0x40)\n      dup1\n      swap2\n      sub\n      swap1\n      revert\n    tag_131:\n        /* \"contracts/manifold/lazyclaim/ERC721LazyClaim.sol\":11582:11604  claim.merkleRoot != \"\" */\n      0x00\n        /* \"contracts/manifold/lazyclaim/ERC721LazyClaim.sol\":11582:11587  claim */\n      dup2\n        /* \"contracts/manifold/lazyclaim/ERC721LazyClaim.sol\":11582:11598  claim.merkleRoot */\n      0x01\n      add\n      sload\n        /* \"contracts/manifold/lazyclaim/ERC721LazyClaim.sol\":11582:11604  claim.merkleRoot != \"\" */\n      eq\n        /* \"contracts/manifold/lazyclaim/ERC721LazyClaim.sol\":11578:12032  if (claim.merkleRoot != \"\") {... */\n      tag_134\n      jumpi\n        /* \"contracts/manifold/lazyclaim/ERC721LazyClaim.sol\":11616:11628  bytes32 leaf */\n      0x00\n        /* \"contracts/manifold/lazyclaim/ERC721LazyClaim.sol\":11658:11668  msg.sender */\n      caller\n        /* \"contracts/manifold/lazyclaim/ERC721LazyClaim.sol\":11670:11681  minterValue */\n      dup5\n        /* \"contracts/manifold/lazyclaim/ERC721LazyClaim.sol\":11641:11682  abi.encodePacked(msg.sender, minterValue) */\n      add(0x20, mload(0x40))\n      tag_135\n      swap3\n      swap2\n      swap1\n      tag_136\n      jump\t// in\n    tag_135:\n      mload(0x40)\n      0x20\n      dup2\n      dup4\n      sub\n      sub\n      dup2\n      mstore\n      swap1\n      0x40\n      mstore\n        /* \"contracts/manifold/lazyclaim/ERC721LazyClaim.sol\":11631:11683  keccak256(abi.encodePacked(msg.sender, minterValue)) */\n      dup1\n      mload\n      swap1\n      0x20\n      add\n      keccak256\n        /* \"contracts/manifold/lazyclaim/ERC721LazyClaim.sol\":11616:11683  bytes32 leaf = keccak256(abi.encodePacked(msg.sender, minterValue)) */\n      swap1\n      pop\n        /* \"contracts/manifold/lazyclaim/ERC721LazyClaim.sol\":11701:11756  MerkleProof.verify(merkleProof, claim.merkleRoot, leaf) */\n      tag_137\n        /* \"contracts/manifold/lazyclaim/ERC721LazyClaim.sol\":11720:11731  merkleProof */\n      dup7\n      dup7\n        /* \"contracts/manifold/lazyclaim/ERC721LazyClaim.sol\":11701:11756  MerkleProof.verify(merkleProof, claim.merkleRoot, leaf) */\n      dup1\n      dup1\n      0x20\n      mul\n      0x20\n      add\n      mload(0x40)\n      swap1\n      dup2\n      add\n      0x40\n      mstore\n      dup1\n      swap4\n      swap3\n      swap2\n      swap1\n      dup2\n      dup2\n      mstore\n      0x20\n      add\n      dup4\n      dup4\n      0x20\n      mul\n      dup1\n      dup3\n      dup5\n      calldatacopy\n      0x00\n      dup2\n      dup5\n      add\n      mstore\n      not(0x1f)\n      0x1f\n      dup3\n      add\n      and\n      swap1\n      pop\n      dup1\n      dup4\n      add\n      swap3\n      pop\n      pop\n      pop\n      pop\n      pop\n      pop\n      pop\n        /* \"contracts/manifold/lazyclaim/ERC721LazyClaim.sol\":11733:11738  claim */\n      dup4\n        /* \"contracts/manifold/lazyclaim/ERC721LazyClaim.sol\":11733:11749  claim.merkleRoot */\n      0x01\n      add\n      sload\n        /* \"contracts/manifold/lazyclaim/ERC721LazyClaim.sol\":11751:11755  leaf */\n      dup4\n        /* \"contracts/manifold/lazyclaim/ERC721LazyClaim.sol\":11701:11719  MerkleProof.verify */\n      tag_138\n        /* \"contracts/manifold/lazyclaim/ERC721LazyClaim.sol\":11701:11756  MerkleProof.verify(merkleProof, claim.merkleRoot, leaf) */\n      jump\t// in\n    tag_137:\n        /* \"contracts/manifold/lazyclaim/ERC721LazyClaim.sol\":11693:11790  require(MerkleProof.verify(merkleProof, claim.merkleRoot, leaf), \"Could not verify merkle proof\") */\n      tag_139\n      jumpi\n      mload(0x40)\n      0x08c379a000000000000000000000000000000000000000000000000000000000\n      dup2\n      mstore\n      0x04\n      add\n      tag_140\n      swap1\n      tag_141\n      jump\t// in\n    tag_140:\n      mload(0x40)\n      dup1\n      swap2\n      sub\n      swap1\n      revert\n    tag_139:\n        /* \"contracts/manifold/lazyclaim/ERC721LazyClaim.sol\":11877:11878  0 */\n      0x00\n        /* \"contracts/manifold/lazyclaim/ERC721LazyClaim.sol\":11862:11873  minterValue */\n      dup5\n        /* \"contracts/manifold/lazyclaim/ERC721LazyClaim.sol\":11862:11878  minterValue == 0 */\n      0xffffffff\n      and\n      eq\n        /* \"contracts/manifold/lazyclaim/ERC721LazyClaim.sol\":11862:11958  minterValue == 0 || mintsPerWallet[creatorContractAddress][claimIndex][msg.sender] < minterValue */\n      dup1\n      tag_142\n      jumpi\n      pop\n        /* \"contracts/manifold/lazyclaim/ERC721LazyClaim.sol\":11947:11958  minterValue */\n      dup4\n        /* \"contracts/manifold/lazyclaim/ERC721LazyClaim.sol\":11882:11958  mintsPerWallet[creatorContractAddress][claimIndex][msg.sender] < minterValue */\n      0xffffffff\n      and\n        /* \"contracts/manifold/lazyclaim/ERC721LazyClaim.sol\":11882:11896  mintsPerWallet */\n      0x03\n        /* \"contracts/manifold/lazyclaim/ERC721LazyClaim.sol\":11882:11920  mintsPerWallet[creatorContractAddress] */\n      0x00\n        /* \"contracts/manifold/lazyclaim/ERC721LazyClaim.sol\":11897:11919  creatorContractAddress */\n      dup11\n        /* \"contracts/manifold/lazyclaim/ERC721LazyClaim.sol\":11882:11920  mintsPerWallet[creatorContractAddress] */\n      0xffffffffffffffffffffffffffffffffffffffff\n      and\n      0xffffffffffffffffffffffffffffffffffffffff\n      and\n      dup2\n      mstore\n      0x20\n      add\n      swap1\n      dup2\n      mstore\n      0x20\n      add\n      0x00\n      keccak256\n        /* \"contracts/manifold/lazyclaim/ERC721LazyClaim.sol\":11882:11932  mintsPerWallet[creatorContractAddress][claimIndex] */\n      0x00\n        /* \"contracts/manifold/lazyclaim/ERC721LazyClaim.sol\":11921:11931  claimIndex */\n      dup10\n        /* \"contracts/manifold/lazyclaim/ERC721LazyClaim.sol\":11882:11932  mintsPerWallet[creatorContractAddress][claimIndex] */\n      dup2\n      mstore\n      0x20\n      add\n      swap1\n      dup2\n      mstore\n      0x20\n      add\n      0x00\n      keccak256\n        /* \"contracts/manifold/lazyclaim/ERC721LazyClaim.sol\":11882:11944  mintsPerWallet[creatorContractAddress][claimIndex][msg.sender] */\n      0x00\n        /* \"contracts/manifold/lazyclaim/ERC721LazyClaim.sol\":11933:11943  msg.sender */\n      caller\n        /* \"contracts/manifold/lazyclaim/ERC721LazyClaim.sol\":11882:11944  mintsPerWallet[creatorContractAddress][claimIndex][msg.sender] */\n      0xffffffffffffffffffffffffffffffffffffffff\n      and\n      0xffffffffffffffffffffffffffffffffffffffff\n      and\n      dup2\n      mstore\n      0x20\n      add\n      swap1\n      dup2\n      mstore\n      0x20\n      add\n      0x00\n      keccak256\n      0x00\n      swap1\n      sload\n      swap1\n      0x0100\n      exp\n      swap1\n      div\n      0xffffffff\n      and\n        /* \"contracts/manifold/lazyclaim/ERC721LazyClaim.sol\":11882:11958  mintsPerWallet[creatorContractAddress][claimIndex][msg.sender] < minterValue */\n      0xffffffff\n      and\n      lt\n        /* \"contracts/manifold/lazyclaim/ERC721LazyClaim.sol\":11862:11958  minterValue == 0 || mintsPerWallet[creatorContractAddress][claimIndex][msg.sender] < minterValue */\n    tag_142:\n        /* \"contracts/manifold/lazyclaim/ERC721LazyClaim.sol\":11854:12023  require(minterValue == 0 || mintsPerWallet[creatorContractAddress][claimIndex][msg.sender] < minterValue, \"Maximum tokens already minted for this wallet per allocation\") */\n      tag_143\n      jumpi\n      mload(0x40)\n      0x08c379a000000000000000000000000000000000000000000000000000000000\n      dup2\n      mstore\n      0x04\n      add\n      tag_144\n      swap1\n      tag_145\n      jump\t// in\n    tag_144:\n      mload(0x40)\n      dup1\n      swap2\n      sub\n      swap1\n      revert\n    tag_143:\n        /* \"contracts/manifold/lazyclaim/ERC721LazyClaim.sol\":11578:12032  if (claim.merkleRoot != \"\") {... */\n      pop\n    tag_134:\n        /* \"contracts/manifold/lazyclaim/ERC721LazyClaim.sol\":12057:12075  uint256 newTokenId */\n      0x00\n        /* \"contracts/manifold/lazyclaim/ERC721LazyClaim.sol\":12097:12119  creatorContractAddress */\n      dup8\n        /* \"contracts/manifold/lazyclaim/ERC721LazyClaim.sol\":12078:12134  IERC721CreatorCore(creatorContractAddress).mintExtension */\n      0xffffffffffffffffffffffffffffffffffffffff\n      and\n      0x2928ca58\n        /* \"contracts/manifold/lazyclaim/ERC721LazyClaim.sol\":12135:12145  msg.sender */\n      caller\n        /* \"contracts/manifold/lazyclaim/ERC721LazyClaim.sol\":12078:12146  IERC721CreatorCore(creatorContractAddress).mintExtension(msg.sender) */\n      mload(0x40)\n      dup3\n      0xffffffff\n      and\n      0xe0\n      shl\n      dup2\n      mstore\n      0x04\n      add\n      tag_146\n      swap2\n      swap1\n      tag_68\n      jump\t// in\n    tag_146:\n      0x20\n      mload(0x40)\n      dup1\n      dup4\n      sub\n      dup2\n      0x00\n      dup8\n      dup1\n      extcodesize\n      iszero\n      dup1\n      iszero\n      tag_147\n      jumpi\n      0x00\n      dup1\n      revert\n    tag_147:\n      pop\n      gas\n      call\n      iszero\n      dup1\n      iszero\n      tag_149\n      jumpi\n      returndatasize\n      0x00\n      dup1\n      returndatacopy\n      revert(0x00, returndatasize)\n    tag_149:\n      pop\n      pop\n      pop\n      pop\n      mload(0x40)\n      returndatasize\n      not(0x1f)\n      0x1f\n      dup3\n      add\n      and\n      dup3\n      add\n      dup1\n      0x40\n      mstore\n      pop\n      dup2\n      add\n      swap1\n      tag_150\n      swap2\n      swap1\n      tag_151\n      jump\t// in\n    tag_150:\n        /* \"contracts/manifold/lazyclaim/ERC721LazyClaim.sol\":12057:12146  uint256 newTokenId = IERC721CreatorCore(creatorContractAddress).mintExtension(msg.sender) */\n      swap1\n      pop\n        /* \"contracts/manifold/lazyclaim/ERC721LazyClaim.sol\":12242:12308  _updateIndexRanges(creatorContractAddress, claimIndex, newTokenId) */\n      tag_152\n        /* \"contracts/manifold/lazyclaim/ERC721LazyClaim.sol\":12261:12283  creatorContractAddress */\n      dup9\n        /* \"contracts/manifold/lazyclaim/ERC721LazyClaim.sol\":12285:12295  claimIndex */\n      dup9\n        /* \"contracts/manifold/lazyclaim/ERC721LazyClaim.sol\":12297:12307  newTokenId */\n      dup4\n        /* \"contracts/manifold/lazyclaim/ERC721LazyClaim.sol\":12242:12260  _updateIndexRanges */\n      tag_153\n        /* \"contracts/manifold/lazyclaim/ERC721LazyClaim.sol\":12242:12308  _updateIndexRanges(creatorContractAddress, claimIndex, newTokenId) */\n      jump\t// in\n    tag_152:\n        /* \"contracts/manifold/lazyclaim/ERC721LazyClaim.sol\":12407:12421  mintsPerWallet */\n      0x03\n        /* \"contracts/manifold/lazyclaim/ERC721LazyClaim.sol\":12407:12445  mintsPerWallet[creatorContractAddress] */\n      0x00\n        /* \"contracts/manifold/lazyclaim/ERC721LazyClaim.sol\":12422:12444  creatorContractAddress */\n      dup10\n        /* \"contracts/manifold/lazyclaim/ERC721LazyClaim.sol\":12407:12445  mintsPerWallet[creatorContractAddress] */\n      0xffffffffffffffffffffffffffffffffffffffff\n      and\n      0xffffffffffffffffffffffffffffffffffffffff\n      and\n      dup2\n      mstore\n      0x20\n      add\n      swap1\n      dup2\n      mstore\n      0x20\n      add\n      0x00\n      keccak256\n        /* \"contracts/manifold/lazyclaim/ERC721LazyClaim.sol\":12407:12457  mintsPerWallet[creatorContractAddress][claimIndex] */\n      0x00\n        /* \"contracts/manifold/lazyclaim/ERC721LazyClaim.sol\":12446:12456  claimIndex */\n      dup9\n        /* \"contracts/manifold/lazyclaim/ERC721LazyClaim.sol\":12407:12457  mintsPerWallet[creatorContractAddress][claimIndex] */\n      dup2\n      mstore\n      0x20\n      add\n      swap1\n      dup2\n      mstore\n      0x20\n      add\n      0x00\n      keccak256\n        /* \"contracts/manifold/lazyclaim/ERC721LazyClaim.sol\":12407:12469  mintsPerWallet[creatorContractAddress][claimIndex][msg.sender] */\n      0x00\n        /* \"contracts/manifold/lazyclaim/ERC721LazyClaim.sol\":12458:12468  msg.sender */\n      caller\n        /* \"contracts/manifold/lazyclaim/ERC721LazyClaim.sol\":12407:12469  mintsPerWallet[creatorContractAddress][claimIndex][msg.sender] */\n      0xffffffffffffffffffffffffffffffffffffffff\n      and\n      0xffffffffffffffffffffffffffffffffffffffff\n      and\n      dup2\n      mstore\n      0x20\n      add\n      swap1\n      dup2\n      mstore\n      0x20\n      add\n      0x00\n      keccak256\n      0x00\n        /* \"contracts/manifold/lazyclaim/ERC721LazyClaim.sol\":12407:12471  mintsPerWallet[creatorContractAddress][claimIndex][msg.sender]++ */\n      dup2\n      dup2\n      swap1\n      sload\n      swap1\n      0x0100\n      exp\n      swap1\n      div\n      0xffffffff\n      and\n      dup1\n      swap3\n      swap2\n      swap1\n      0x01\n      add\n      swap2\n      swap1\n      0x0100\n      exp\n      dup2\n      sload\n      dup2\n      0xffffffff\n      mul\n      not\n      and\n      swap1\n      dup4\n      0xffffffff\n      and\n      mul\n      or\n      swap1\n      sstore\n      pop\n      pop\n        /* \"contracts/manifold/lazyclaim/ERC721LazyClaim.sol\":12492:12497  claim */\n      dup2\n        /* \"contracts/manifold/lazyclaim/ERC721LazyClaim.sol\":12492:12503  claim.total */\n      0x00\n      add\n      0x00\n        /* \"contracts/manifold/lazyclaim/ERC721LazyClaim.sol\":12492:12505  claim.total++ */\n      dup2\n      dup2\n      swap1\n      sload\n      swap1\n      0x0100\n      exp\n      swap1\n      div\n      0xffffffff\n      and\n      dup1\n      swap3\n      swap2\n      swap1\n      0x01\n      add\n      swap2\n      swap1\n      0x0100\n      exp\n      dup2\n      sload\n      dup2\n      0xffffffff\n      mul\n      not\n      and\n      swap1\n      dup4\n      0xffffffff\n      and\n      mul\n      or\n      swap1\n      sstore\n      pop\n      pop\n        /* \"contracts/manifold/lazyclaim/ERC721LazyClaim.sol\":12556:12566  claimIndex */\n      dup7\n        /* \"contracts/manifold/lazyclaim/ERC721LazyClaim.sol\":12532:12554  creatorContractAddress */\n      dup9\n        /* \"contracts/manifold/lazyclaim/ERC721LazyClaim.sol\":12527:12591  Mint(creatorContractAddress, claimIndex, newTokenId, msg.sender) */\n      0xffffffffffffffffffffffffffffffffffffffff\n      and\n      0xdbba30eb0402b389513e87f51f4db2db80bed454384ec6925a24097c3548a02a\n        /* \"contracts/manifold/lazyclaim/ERC721LazyClaim.sol\":12568:12578  newTokenId */\n      dup4\n        /* \"contracts/manifold/lazyclaim/ERC721LazyClaim.sol\":12580:12590  msg.sender */\n      caller\n        /* \"contracts/manifold/lazyclaim/ERC721LazyClaim.sol\":12527:12591  Mint(creatorContractAddress, claimIndex, newTokenId, msg.sender) */\n      mload(0x40)\n      tag_154\n      swap3\n      swap2\n      swap1\n      tag_155\n      jump\t// in\n    tag_154:\n      mload(0x40)\n      dup1\n      swap2\n      sub\n      swap1\n      log3\n        /* \"contracts/manifold/lazyclaim/ERC721LazyClaim.sol\":12606:12616  newTokenId */\n      dup1\n        /* \"contracts/manifold/lazyclaim/ERC721LazyClaim.sol\":12599:12616  return newTokenId */\n      swap3\n      pop\n      pop\n      pop\n        /* \"contracts/manifold/lazyclaim/ERC721LazyClaim.sol\":10570:12621  function mint(address creatorContractAddress, uint256 claimIndex, bytes32[] calldata merkleProof, uint32 minterValue) external override returns (uint256) {... */\n      swap6\n      swap5\n      pop\n      pop\n      pop\n      pop\n      pop\n      jump\t// out\n        /* \"contracts/manifold/lazyclaim/ERC721LazyClaim.sol\":6677:6962  function getClaim(address creatorContractAddress, uint256 claimIndex) external override view returns(Claim memory) {... */\n    tag_37:\n        /* \"contracts/manifold/lazyclaim/ERC721LazyClaim.sol\":6778:6790  Claim memory */\n      tag_156\n      tag_157\n      jump\t// in\n    tag_156:\n        /* \"contracts/manifold/lazyclaim/ERC721LazyClaim.sol\":6875:6876  0 */\n      0x00\n        /* \"contracts/manifold/lazyclaim/ERC721LazyClaim.sol\":6812:6818  claims */\n      0x02\n        /* \"contracts/manifold/lazyclaim/ERC721LazyClaim.sol\":6812:6842  claims[creatorContractAddress] */\n      0x00\n        /* \"contracts/manifold/lazyclaim/ERC721LazyClaim.sol\":6819:6841  creatorContractAddress */\n      dup6\n        /* \"contracts/manifold/lazyclaim/ERC721LazyClaim.sol\":6812:6842  claims[creatorContractAddress] */\n      0xffffffffffffffffffffffffffffffffffffffff\n      and\n      0xffffffffffffffffffffffffffffffffffffffff\n      and\n      dup2\n      mstore\n      0x20\n      add\n      swap1\n      dup2\n      mstore\n      0x20\n      add\n      0x00\n      keccak256\n        /* \"contracts/manifold/lazyclaim/ERC721LazyClaim.sol\":6812:6854  claims[creatorContractAddress][claimIndex] */\n      0x00\n        /* \"contracts/manifold/lazyclaim/ERC721LazyClaim.sol\":6843:6853  claimIndex */\n      dup5\n        /* \"contracts/manifold/lazyclaim/ERC721LazyClaim.sol\":6812:6854  claims[creatorContractAddress][claimIndex] */\n      dup2\n      mstore\n      0x20\n      add\n      swap1\n      dup2\n      mstore\n      0x20\n      add\n      0x00\n      keccak256\n        /* \"contracts/manifold/lazyclaim/ERC721LazyClaim.sol\":6812:6863  claims[creatorContractAddress][claimIndex].location */\n      0x02\n      add\n        /* \"contracts/manifold/lazyclaim/ERC721LazyClaim.sol\":6806:6871  bytes(claims[creatorContractAddress][claimIndex].location).length */\n      dup1\n      sload\n      tag_159\n      swap1\n      tag_114\n      jump\t// in\n    tag_159:\n      swap1\n      pop\n        /* \"contracts/manifold/lazyclaim/ERC721LazyClaim.sol\":6806:6876  bytes(claims[creatorContractAddress][claimIndex].location).length != 0 */\n      eq\n      iszero\n        /* \"contracts/manifold/lazyclaim/ERC721LazyClaim.sol\":6798:6902  require(bytes(claims[creatorContractAddress][claimIndex].location).length != 0, \"Claim not initialized\") */\n      tag_160\n      jumpi\n      mload(0x40)\n      0x08c379a000000000000000000000000000000000000000000000000000000000\n      dup2\n      mstore\n      0x04\n      add\n      tag_161\n      swap1\n      tag_117\n      jump\t// in\n    tag_161:\n      mload(0x40)\n      dup1\n      swap2\n      sub\n      swap1\n      revert\n    tag_160:\n        /* \"contracts/manifold/lazyclaim/ERC721LazyClaim.sol\":6915:6921  claims */\n      0x02\n        /* \"contracts/manifold/lazyclaim/ERC721LazyClaim.sol\":6915:6945  claims[creatorContractAddress] */\n      0x00\n        /* \"contracts/manifold/lazyclaim/ERC721LazyClaim.sol\":6922:6944  creatorContractAddress */\n      dup5\n        /* \"contracts/manifold/lazyclaim/ERC721LazyClaim.sol\":6915:6945  claims[creatorContractAddress] */\n      0xffffffffffffffffffffffffffffffffffffffff\n      and\n      0xffffffffffffffffffffffffffffffffffffffff\n      and\n      dup2\n      mstore\n      0x20\n      add\n      swap1\n      dup2\n      mstore\n      0x20\n      add\n      0x00\n      keccak256\n        /* \"contracts/manifold/lazyclaim/ERC721LazyClaim.sol\":6915:6957  claims[creatorContractAddress][claimIndex] */\n      0x00\n        /* \"contracts/manifold/lazyclaim/ERC721LazyClaim.sol\":6946:6956  claimIndex */\n      dup4\n        /* \"contracts/manifold/lazyclaim/ERC721LazyClaim.sol\":6915:6957  claims[creatorContractAddress][claimIndex] */\n      dup2\n      mstore\n      0x20\n      add\n      swap1\n      dup2\n      mstore\n      0x20\n      add\n      0x00\n      keccak256\n        /* \"contracts/manifold/lazyclaim/ERC721LazyClaim.sol\":6908:6957  return claims[creatorContractAddress][claimIndex] */\n      mload(0x40)\n      dup1\n      0x0120\n      add\n      0x40\n      mstore\n      swap1\n      dup2\n      0x00\n      dup3\n      add\n      0x00\n      swap1\n      sload\n      swap1\n      0x0100\n      exp\n      swap1\n      div\n      0xffffffff\n      and\n      0xffffffff\n      and\n      0xffffffff\n      and\n      dup2\n      mstore\n      0x20\n      add\n      0x00\n      dup3\n      add\n      0x04\n      swap1\n      sload\n      swap1\n      0x0100\n      exp\n      swap1\n      div\n      0xffffffff\n      and\n      0xffffffff\n      and\n      0xffffffff\n      and\n      dup2\n      mstore\n      0x20\n      add\n      0x00\n      dup3\n      add\n      0x08\n      swap1\n      sload\n      swap1\n      0x0100\n      exp\n      swap1\n      div\n      0xffffffff\n      and\n      0xffffffff\n      and\n      0xffffffff\n      and\n      dup2\n      mstore\n      0x20\n      add\n      0x00\n      dup3\n      add\n      0x0c\n      swap1\n      sload\n      swap1\n      0x0100\n      exp\n      swap1\n      div\n      0xffffffffffff\n      and\n      0xffffffffffff\n      and\n      0xffffffffffff\n      and\n      dup2\n      mstore\n      0x20\n      add\n      0x00\n      dup3\n      add\n      0x12\n      swap1\n      sload\n      swap1\n      0x0100\n      exp\n      swap1\n      div\n      0xffffffffffff\n      and\n      0xffffffffffff\n      and\n      0xffffffffffff\n      and\n      dup2\n      mstore\n      0x20\n      add\n      0x00\n      dup3\n      add\n      0x18\n      swap1\n      sload\n      swap1\n      0x0100\n      exp\n      swap1\n      div\n      0xff\n      and\n      0x02\n      dup2\n      gt\n      iszero\n      tag_162\n      jumpi\n      mstore(0x00, 0x4e487b7100000000000000000000000000000000000000000000000000000000)\n      mstore(0x04, 0x21)\n      revert(0x00, 0x24)\n    tag_162:\n      0x02\n      dup2\n      gt\n      iszero\n      tag_163\n      jumpi\n      mstore(0x00, 0x4e487b7100000000000000000000000000000000000000000000000000000000)\n      mstore(0x04, 0x21)\n      revert(0x00, 0x24)\n    tag_163:\n      dup2\n      mstore\n      0x20\n      add\n      0x00\n      dup3\n      add\n      0x19\n      swap1\n      sload\n      swap1\n      0x0100\n      exp\n      swap1\n      div\n      0xff\n      and\n      iszero\n      iszero\n      iszero\n      iszero\n      dup2\n      mstore\n      0x20\n      add\n      0x01\n      dup3\n      add\n      sload\n      dup2\n      mstore\n      0x20\n      add\n      0x02\n      dup3\n      add\n      dup1\n      sload\n      tag_164\n      swap1\n      tag_114\n      jump\t// in\n    tag_164:\n      dup1\n      0x1f\n      add\n      0x20\n      dup1\n      swap2\n      div\n      mul\n      0x20\n      add\n      mload(0x40)\n      swap1\n      dup2\n      add\n      0x40\n      mstore\n      dup1\n      swap3\n      swap2\n      swap1\n      dup2\n      dup2\n      mstore\n      0x20\n      add\n      dup3\n      dup1\n      sload\n      tag_165\n      swap1\n      tag_114\n      jump\t// in\n    tag_165:\n      dup1\n      iszero\n      tag_166\n      jumpi\n      dup1\n      0x1f\n      lt\n      tag_167\n      jumpi\n      0x0100\n      dup1\n      dup4\n      sload\n      div\n      mul\n      dup4\n      mstore\n      swap2\n      0x20\n      add\n      swap2\n      jump(tag_166)\n    tag_167:\n      dup3\n      add\n      swap2\n      swap1\n      0x00\n      mstore\n      keccak256(0x00, 0x20)\n      swap1\n    tag_168:\n      dup2\n      sload\n      dup2\n      mstore\n      swap1\n      0x01\n      add\n      swap1\n      0x20\n      add\n      dup1\n      dup4\n      gt\n      tag_168\n      jumpi\n      dup3\n      swap1\n      sub\n      0x1f\n      and\n      dup3\n      add\n      swap2\n    tag_166:\n      pop\n      pop\n      pop\n      pop\n      pop\n      dup2\n      mstore\n      pop\n      pop\n      swap1\n      pop\n        /* \"contracts/manifold/lazyclaim/ERC721LazyClaim.sol\":6677:6962  function getClaim(address creatorContractAddress, uint256 claimIndex) external override view returns(Claim memory) {... */\n      swap3\n      swap2\n      pop\n      pop\n      jump\t// out\n        /* \"contracts/manifold/lazyclaim/ERC721LazyClaim.sol\":7259:7591  function getWalletMinted(address creatorContractAddress, uint256 claimIndex, address walletAddress) external override view returns(uint32) {... */\n    tag_43:\n        /* \"contracts/manifold/lazyclaim/ERC721LazyClaim.sol\":7390:7396  uint32 */\n      0x00\n        /* \"contracts/manifold/lazyclaim/ERC721LazyClaim.sol\":7481:7482  0 */\n      dup1\n        /* \"contracts/manifold/lazyclaim/ERC721LazyClaim.sol\":7418:7424  claims */\n      0x02\n        /* \"contracts/manifold/lazyclaim/ERC721LazyClaim.sol\":7418:7448  claims[creatorContractAddress] */\n      0x00\n        /* \"contracts/manifold/lazyclaim/ERC721LazyClaim.sol\":7425:7447  creatorContractAddress */\n      dup7\n        /* \"contracts/manifold/lazyclaim/ERC721LazyClaim.sol\":7418:7448  claims[creatorContractAddress] */\n      0xffffffffffffffffffffffffffffffffffffffff\n      and\n      0xffffffffffffffffffffffffffffffffffffffff\n      and\n      dup2\n      mstore\n      0x20\n      add\n      swap1\n      dup2\n      mstore\n      0x20\n      add\n      0x00\n      keccak256\n        /* \"contracts/manifold/lazyclaim/ERC721LazyClaim.sol\":7418:7460  claims[creatorContractAddress][claimIndex] */\n      0x00\n        /* \"contracts/manifold/lazyclaim/ERC721LazyClaim.sol\":7449:7459  claimIndex */\n      dup6\n        /* \"contracts/manifold/lazyclaim/ERC721LazyClaim.sol\":7418:7460  claims[creatorContractAddress][claimIndex] */\n      dup2\n      mstore\n      0x20\n      add\n      swap1\n      dup2\n      mstore\n      0x20\n      add\n      0x00\n      keccak256\n        /* \"contracts/manifold/lazyclaim/ERC721LazyClaim.sol\":7418:7469  claims[creatorContractAddress][claimIndex].location */\n      0x02\n      add\n        /* \"contracts/manifold/lazyclaim/ERC721LazyClaim.sol\":7412:7477  bytes(claims[creatorContractAddress][claimIndex].location).length */\n      dup1\n      sload\n      tag_170\n      swap1\n      tag_114\n      jump\t// in\n    tag_170:\n      swap1\n      pop\n        /* \"contracts/manifold/lazyclaim/ERC721LazyClaim.sol\":7412:7482  bytes(claims[creatorContractAddress][claimIndex].location).length != 0 */\n      eq\n      iszero\n        /* \"contracts/manifold/lazyclaim/ERC721LazyClaim.sol\":7404:7508  require(bytes(claims[creatorContractAddress][claimIndex].location).length != 0, \"Claim not initialized\") */\n      tag_171\n      jumpi\n      mload(0x40)\n      0x08c379a000000000000000000000000000000000000000000000000000000000\n      dup2\n      mstore\n      0x04\n      add\n      tag_172\n      swap1\n      tag_117\n      jump\t// in\n    tag_172:\n      mload(0x40)\n      dup1\n      swap2\n      sub\n      swap1\n      revert\n    tag_171:\n        /* \"contracts/manifold/lazyclaim/ERC721LazyClaim.sol\":7521:7535  mintsPerWallet */\n      0x03\n        /* \"contracts/manifold/lazyclaim/ERC721LazyClaim.sol\":7521:7559  mintsPerWallet[creatorContractAddress] */\n      0x00\n        /* \"contracts/manifold/lazyclaim/ERC721LazyClaim.sol\":7536:7558  creatorContractAddress */\n      dup6\n        /* \"contracts/manifold/lazyclaim/ERC721LazyClaim.sol\":7521:7559  mintsPerWallet[creatorContractAddress] */\n      0xffffffffffffffffffffffffffffffffffffffff\n      and\n      0xffffffffffffffffffffffffffffffffffffffff\n      and\n      dup2\n      mstore\n      0x20\n      add\n      swap1\n      dup2\n      mstore\n      0x20\n      add\n      0x00\n      keccak256\n        /* \"contracts/manifold/lazyclaim/ERC721LazyClaim.sol\":7521:7571  mintsPerWallet[creatorContractAddress][claimIndex] */\n      0x00\n        /* \"contracts/manifold/lazyclaim/ERC721LazyClaim.sol\":7560:7570  claimIndex */\n      dup5\n        /* \"contracts/manifold/lazyclaim/ERC721LazyClaim.sol\":7521:7571  mintsPerWallet[creatorContractAddress][claimIndex] */\n      dup2\n      mstore\n      0x20\n      add\n      swap1\n      dup2\n      mstore\n      0x20\n      add\n      0x00\n      keccak256\n        /* \"contracts/manifold/lazyclaim/ERC721LazyClaim.sol\":7521:7586  mintsPerWallet[creatorContractAddress][claimIndex][walletAddress] */\n      0x00\n        /* \"contracts/manifold/lazyclaim/ERC721LazyClaim.sol\":7572:7585  walletAddress */\n      dup4\n        /* \"contracts/manifold/lazyclaim/ERC721LazyClaim.sol\":7521:7586  mintsPerWallet[creatorContractAddress][claimIndex][walletAddress] */\n      0xffffffffffffffffffffffffffffffffffffffff\n      and\n      0xffffffffffffffffffffffffffffffffffffffff\n      and\n      dup2\n      mstore\n      0x20\n      add\n      swap1\n      dup2\n      mstore\n      0x20\n      add\n      0x00\n      keccak256\n      0x00\n      swap1\n      sload\n      swap1\n      0x0100\n      exp\n      swap1\n      div\n      0xffffffff\n      and\n        /* \"contracts/manifold/lazyclaim/ERC721LazyClaim.sol\":7514:7586  return mintsPerWallet[creatorContractAddress][claimIndex][walletAddress] */\n      swap1\n      pop\n        /* \"contracts/manifold/lazyclaim/ERC721LazyClaim.sol\":7259:7591  function getWalletMinted(address creatorContractAddress, uint256 claimIndex, address walletAddress) external override view returns(uint32) {... */\n      swap4\n      swap3\n      pop\n      pop\n      pop\n      jump\t// out\n        /* \"contracts/manifold/lazyclaim/ERC721LazyClaim.sol\":4786:6057  function overwriteClaim(... */\n    tag_49:\n        /* \"contracts/manifold/lazyclaim/ERC721LazyClaim.sol\":4959:4981  creatorContractAddress */\n      dup3\n        /* \"contracts/manifold/lazyclaim/ERC721LazyClaim.sol\":2658:2690  AdminControl creatorCoreContract */\n      0x00\n        /* \"contracts/manifold/lazyclaim/ERC721LazyClaim.sol\":2706:2728  creatorContractAddress */\n      dup2\n        /* \"contracts/manifold/lazyclaim/ERC721LazyClaim.sol\":2658:2729  AdminControl creatorCoreContract = AdminControl(creatorContractAddress) */\n      swap1\n      pop\n        /* \"contracts/manifold/lazyclaim/ERC721LazyClaim.sol\":2743:2762  creatorCoreContract */\n      dup1\n        /* \"contracts/manifold/lazyclaim/ERC721LazyClaim.sol\":2743:2770  creatorCoreContract.isAdmin */\n      0xffffffffffffffffffffffffffffffffffffffff\n      and\n      0x24d7806c\n        /* \"contracts/manifold/lazyclaim/ERC721LazyClaim.sol\":2771:2781  msg.sender */\n      caller\n        /* \"contracts/manifold/lazyclaim/ERC721LazyClaim.sol\":2743:2782  creatorCoreContract.isAdmin(msg.sender) */\n      mload(0x40)\n      dup3\n      0xffffffff\n      and\n      0xe0\n      shl\n      dup2\n      mstore\n      0x04\n      add\n      tag_174\n      swap2\n      swap1\n      tag_68\n      jump\t// in\n    tag_174:\n      0x20\n      mload(0x40)\n      dup1\n      dup4\n      sub\n      dup2\n      dup7\n      dup1\n      extcodesize\n      iszero\n      dup1\n      iszero\n      tag_175\n      jumpi\n      0x00\n      dup1\n      revert\n    tag_175:\n      pop\n      gas\n      staticcall\n      iszero\n      dup1\n      iszero\n      tag_177\n      jumpi\n      returndatasize\n      0x00\n      dup1\n      returndatacopy\n      revert(0x00, returndatasize)\n    tag_177:\n      pop\n      pop\n      pop\n      pop\n      mload(0x40)\n      returndatasize\n      not(0x1f)\n      0x1f\n      dup3\n      add\n      and\n      dup3\n      add\n      dup1\n      0x40\n      mstore\n      pop\n      dup2\n      add\n      swap1\n      tag_178\n      swap2\n      swap1\n      tag_73\n      jump\t// in\n    tag_178:\n        /* \"contracts/manifold/lazyclaim/ERC721LazyClaim.sol\":2735:2830  require(creatorCoreContract.isAdmin(msg.sender), \"Wallet is not an administrator for contract\") */\n      tag_179\n      jumpi\n      mload(0x40)\n      0x08c379a000000000000000000000000000000000000000000000000000000000\n      dup2\n      mstore\n      0x04\n      add\n      tag_180\n      swap1\n      tag_76\n      jump\t// in\n    tag_180:\n      mload(0x40)\n      dup1\n      swap2\n      sub\n      swap1\n      revert\n    tag_179:\n        /* \"contracts/manifold/lazyclaim/ERC721LazyClaim.sol\":5087:5088  0 */\n      0x00\n        /* \"contracts/manifold/lazyclaim/ERC721LazyClaim.sol\":5024:5030  claims */\n      0x02\n        /* \"contracts/manifold/lazyclaim/ERC721LazyClaim.sol\":5024:5054  claims[creatorContractAddress] */\n      0x00\n        /* \"contracts/manifold/lazyclaim/ERC721LazyClaim.sol\":5031:5053  creatorContractAddress */\n      dup8\n        /* \"contracts/manifold/lazyclaim/ERC721LazyClaim.sol\":5024:5054  claims[creatorContractAddress] */\n      0xffffffffffffffffffffffffffffffffffffffff\n      and\n      0xffffffffffffffffffffffffffffffffffffffff\n      and\n      dup2\n      mstore\n      0x20\n      add\n      swap1\n      dup2\n      mstore\n      0x20\n      add\n      0x00\n      keccak256\n        /* \"contracts/manifold/lazyclaim/ERC721LazyClaim.sol\":5024:5066  claims[creatorContractAddress][claimIndex] */\n      0x00\n        /* \"contracts/manifold/lazyclaim/ERC721LazyClaim.sol\":5055:5065  claimIndex */\n      dup7\n        /* \"contracts/manifold/lazyclaim/ERC721LazyClaim.sol\":5024:5066  claims[creatorContractAddress][claimIndex] */\n      dup2\n      mstore\n      0x20\n      add\n      swap1\n      dup2\n      mstore\n      0x20\n      add\n      0x00\n      keccak256\n        /* \"contracts/manifold/lazyclaim/ERC721LazyClaim.sol\":5024:5075  claims[creatorContractAddress][claimIndex].location */\n      0x02\n      add\n        /* \"contracts/manifold/lazyclaim/ERC721LazyClaim.sol\":5018:5083  bytes(claims[creatorContractAddress][claimIndex].location).length */\n      dup1\n      sload\n      tag_182\n      swap1\n      tag_114\n      jump\t// in\n    tag_182:\n      swap1\n      pop\n        /* \"contracts/manifold/lazyclaim/ERC721LazyClaim.sol\":5018:5088  bytes(claims[creatorContractAddress][claimIndex].location).length != 0 */\n      eq\n      iszero\n        /* \"contracts/manifold/lazyclaim/ERC721LazyClaim.sol\":5010:5129  require(bytes(claims[creatorContractAddress][claimIndex].location).length != 0, \"Cannot overwrite uninitialized claim\") */\n      tag_183\n      jumpi\n      mload(0x40)\n      0x08c379a000000000000000000000000000000000000000000000000000000000\n      dup2\n      mstore\n      0x04\n      add\n      tag_184\n      swap1\n      tag_185\n      jump\t// in\n    tag_184:\n      mload(0x40)\n      dup1\n      swap2\n      sub\n      swap1\n      revert\n    tag_183:\n        /* \"contracts/manifold/lazyclaim/ERC721LazyClaim.sol\":5198:5213  claimParameters */\n      dup3\n        /* \"contracts/manifold/lazyclaim/ERC721LazyClaim.sol\":5198:5222  claimParameters.totalMax */\n      0x00\n      add\n      0x20\n      dup2\n      add\n      swap1\n      tag_186\n      swap2\n      swap1\n      tag_92\n      jump\t// in\n    tag_186:\n        /* \"contracts/manifold/lazyclaim/ERC721LazyClaim.sol\":5143:5222  claims[creatorContractAddress][claimIndex].totalMax == claimParameters.totalMax */\n      0xffffffff\n      and\n        /* \"contracts/manifold/lazyclaim/ERC721LazyClaim.sol\":5143:5149  claims */\n      0x02\n        /* \"contracts/manifold/lazyclaim/ERC721LazyClaim.sol\":5143:5173  claims[creatorContractAddress] */\n      0x00\n        /* \"contracts/manifold/lazyclaim/ERC721LazyClaim.sol\":5150:5172  creatorContractAddress */\n      dup8\n        /* \"contracts/manifold/lazyclaim/ERC721LazyClaim.sol\":5143:5173  claims[creatorContractAddress] */\n      0xffffffffffffffffffffffffffffffffffffffff\n      and\n      0xffffffffffffffffffffffffffffffffffffffff\n      and\n      dup2\n      mstore\n      0x20\n      add\n      swap1\n      dup2\n      mstore\n      0x20\n      add\n      0x00\n      keccak256\n        /* \"contracts/manifold/lazyclaim/ERC721LazyClaim.sol\":5143:5185  claims[creatorContractAddress][claimIndex] */\n      0x00\n        /* \"contracts/manifold/lazyclaim/ERC721LazyClaim.sol\":5174:5184  claimIndex */\n      dup7\n        /* \"contracts/manifold/lazyclaim/ERC721LazyClaim.sol\":5143:5185  claims[creatorContractAddress][claimIndex] */\n      dup2\n      mstore\n      0x20\n      add\n      swap1\n      dup2\n      mstore\n      0x20\n      add\n      0x00\n      keccak256\n        /* \"contracts/manifold/lazyclaim/ERC721LazyClaim.sol\":5143:5194  claims[creatorContractAddress][claimIndex].totalMax */\n      0x00\n      add\n      0x04\n      swap1\n      sload\n      swap1\n      0x0100\n      exp\n      swap1\n      div\n      0xffffffff\n      and\n        /* \"contracts/manifold/lazyclaim/ERC721LazyClaim.sol\":5143:5222  claims[creatorContractAddress][claimIndex].totalMax == claimParameters.totalMax */\n      0xffffffff\n      and\n      eq\n        /* \"contracts/manifold/lazyclaim/ERC721LazyClaim.sol\":5135:5249  require(claims[creatorContractAddress][claimIndex].totalMax == claimParameters.totalMax, \"Cannot modify totalMax\") */\n      tag_187\n      jumpi\n      mload(0x40)\n      0x08c379a000000000000000000000000000000000000000000000000000000000\n      dup2\n      mstore\n      0x04\n      add\n      tag_188\n      swap1\n      tag_189\n      jump\t// in\n    tag_188:\n      mload(0x40)\n      dup1\n      swap2\n      sub\n      swap1\n      revert\n    tag_187:\n        /* \"contracts/manifold/lazyclaim/ERC721LazyClaim.sol\":5319:5334  claimParameters */\n      dup3\n        /* \"contracts/manifold/lazyclaim/ERC721LazyClaim.sol\":5319:5344  claimParameters.walletMax */\n      0x20\n      add\n      0x20\n      dup2\n      add\n      swap1\n      tag_190\n      swap2\n      swap1\n      tag_92\n      jump\t// in\n    tag_190:\n        /* \"contracts/manifold/lazyclaim/ERC721LazyClaim.sol\":5263:5344  claims[creatorContractAddress][claimIndex].walletMax <= claimParameters.walletMax */\n      0xffffffff\n      and\n        /* \"contracts/manifold/lazyclaim/ERC721LazyClaim.sol\":5263:5269  claims */\n      0x02\n        /* \"contracts/manifold/lazyclaim/ERC721LazyClaim.sol\":5263:5293  claims[creatorContractAddress] */\n      0x00\n        /* \"contracts/manifold/lazyclaim/ERC721LazyClaim.sol\":5270:5292  creatorContractAddress */\n      dup8\n        /* \"contracts/manifold/lazyclaim/ERC721LazyClaim.sol\":5263:5293  claims[creatorContractAddress] */\n      0xffffffffffffffffffffffffffffffffffffffff\n      and\n      0xffffffffffffffffffffffffffffffffffffffff\n      and\n      dup2\n      mstore\n      0x20\n      add\n      swap1\n      dup2\n      mstore\n      0x20\n      add\n      0x00\n      keccak256\n        /* \"contracts/manifold/lazyclaim/ERC721LazyClaim.sol\":5263:5305  claims[creatorContractAddress][claimIndex] */\n      0x00\n        /* \"contracts/manifold/lazyclaim/ERC721LazyClaim.sol\":5294:5304  claimIndex */\n      dup7\n        /* \"contracts/manifold/lazyclaim/ERC721LazyClaim.sol\":5263:5305  claims[creatorContractAddress][claimIndex] */\n      dup2\n      mstore\n      0x20\n      add\n      swap1\n      dup2\n      mstore\n      0x20\n      add\n      0x00\n      keccak256\n        /* \"contracts/manifold/lazyclaim/ERC721LazyClaim.sol\":5263:5315  claims[creatorContractAddress][claimIndex].walletMax */\n      0x00\n      add\n      0x08\n      swap1\n      sload\n      swap1\n      0x0100\n      exp\n      swap1\n      div\n      0xffffffff\n      and\n        /* \"contracts/manifold/lazyclaim/ERC721LazyClaim.sol\":5263:5344  claims[creatorContractAddress][claimIndex].walletMax <= claimParameters.walletMax */\n      0xffffffff\n      and\n      gt\n      iszero\n        /* \"contracts/manifold/lazyclaim/ERC721LazyClaim.sol\":5255:5374  require(claims[creatorContractAddress][claimIndex].walletMax <= claimParameters.walletMax, \"Cannot decrease walletMax\") */\n      tag_191\n      jumpi\n      mload(0x40)\n      0x08c379a000000000000000000000000000000000000000000000000000000000\n      dup2\n      mstore\n      0x04\n      add\n      tag_192\n      swap1\n      tag_193\n      jump\t// in\n    tag_192:\n      mload(0x40)\n      dup1\n      swap2\n      sub\n      swap1\n      revert\n    tag_191:\n        /* \"contracts/manifold/lazyclaim/ERC721LazyClaim.sol\":5415:5416  0 */\n      0x00\n        /* \"contracts/manifold/lazyclaim/ERC721LazyClaim.sol\":5388:5403  claimParameters */\n      dup4\n        /* \"contracts/manifold/lazyclaim/ERC721LazyClaim.sol\":5388:5411  claimParameters.endDate */\n      0x60\n      add\n      0x20\n      dup2\n      add\n      swap1\n      tag_194\n      swap2\n      swap1\n      tag_84\n      jump\t// in\n    tag_194:\n        /* \"contracts/manifold/lazyclaim/ERC721LazyClaim.sol\":5388:5416  claimParameters.endDate == 0 */\n      0xffffffffffff\n      and\n      eq\n        /* \"contracts/manifold/lazyclaim/ERC721LazyClaim.sol\":5388:5471  claimParameters.endDate == 0 || claimParameters.startDate < claimParameters.endDate */\n      dup1\n      tag_195\n      jumpi\n      pop\n        /* \"contracts/manifold/lazyclaim/ERC721LazyClaim.sol\":5448:5463  claimParameters */\n      dup3\n        /* \"contracts/manifold/lazyclaim/ERC721LazyClaim.sol\":5448:5471  claimParameters.endDate */\n      0x60\n      add\n      0x20\n      dup2\n      add\n      swap1\n      tag_196\n      swap2\n      swap1\n      tag_84\n      jump\t// in\n    tag_196:\n        /* \"contracts/manifold/lazyclaim/ERC721LazyClaim.sol\":5420:5471  claimParameters.startDate < claimParameters.endDate */\n      0xffffffffffff\n      and\n        /* \"contracts/manifold/lazyclaim/ERC721LazyClaim.sol\":5420:5435  claimParameters */\n      dup4\n        /* \"contracts/manifold/lazyclaim/ERC721LazyClaim.sol\":5420:5445  claimParameters.startDate */\n      0x40\n      add\n      0x20\n      dup2\n      add\n      swap1\n      tag_197\n      swap2\n      swap1\n      tag_84\n      jump\t// in\n    tag_197:\n        /* \"contracts/manifold/lazyclaim/ERC721LazyClaim.sol\":5420:5471  claimParameters.startDate < claimParameters.endDate */\n      0xffffffffffff\n      and\n      lt\n        /* \"contracts/manifold/lazyclaim/ERC721LazyClaim.sol\":5388:5471  claimParameters.endDate == 0 || claimParameters.startDate < claimParameters.endDate */\n    tag_195:\n        /* \"contracts/manifold/lazyclaim/ERC721LazyClaim.sol\":5380:5530  require(claimParameters.endDate == 0 || claimParameters.startDate < claimParameters.endDate, \"Cannot have startDate greater than or equal to endDate\") */\n      tag_198\n      jumpi\n      mload(0x40)\n      0x08c379a000000000000000000000000000000000000000000000000000000000\n      dup2\n      mstore\n      0x04\n      add\n      tag_199\n      swap1\n      tag_90\n      jump\t// in\n    tag_199:\n      mload(0x40)\n      dup1\n      swap2\n      sub\n      swap1\n      revert\n    tag_198:\n        /* \"contracts/manifold/lazyclaim/ERC721LazyClaim.sol\":5618:6052  Claim({... */\n      mload(0x40)\n      dup1\n      0x0120\n      add\n      0x40\n      mstore\n      dup1\n        /* \"contracts/manifold/lazyclaim/ERC721LazyClaim.sol\":5639:5645  claims */\n      0x02\n        /* \"contracts/manifold/lazyclaim/ERC721LazyClaim.sol\":5639:5669  claims[creatorContractAddress] */\n      0x00\n        /* \"contracts/manifold/lazyclaim/ERC721LazyClaim.sol\":5646:5668  creatorContractAddress */\n      dup9\n        /* \"contracts/manifold/lazyclaim/ERC721LazyClaim.sol\":5639:5669  claims[creatorContractAddress] */\n      0xffffffffffffffffffffffffffffffffffffffff\n      and\n      0xffffffffffffffffffffffffffffffffffffffff\n      and\n      dup2\n      mstore\n      0x20\n      add\n      swap1\n      dup2\n      mstore\n      0x20\n      add\n      0x00\n      keccak256\n        /* \"contracts/manifold/lazyclaim/ERC721LazyClaim.sol\":5639:5681  claims[creatorContractAddress][claimIndex] */\n      0x00\n        /* \"contracts/manifold/lazyclaim/ERC721LazyClaim.sol\":5670:5680  claimIndex */\n      dup8\n        /* \"contracts/manifold/lazyclaim/ERC721LazyClaim.sol\":5639:5681  claims[creatorContractAddress][claimIndex] */\n      dup2\n      mstore\n      0x20\n      add\n      swap1\n      dup2\n      mstore\n      0x20\n      add\n      0x00\n      keccak256\n        /* \"contracts/manifold/lazyclaim/ERC721LazyClaim.sol\":5639:5687  claims[creatorContractAddress][claimIndex].total */\n      0x00\n      add\n      0x00\n      swap1\n      sload\n      swap1\n      0x0100\n      exp\n      swap1\n      div\n      0xffffffff\n      and\n        /* \"contracts/manifold/lazyclaim/ERC721LazyClaim.sol\":5618:6052  Claim({... */\n      0xffffffff\n      and\n      dup2\n      mstore\n      0x20\n      add\n        /* \"contracts/manifold/lazyclaim/ERC721LazyClaim.sol\":5705:5720  claimParameters */\n      dup5\n        /* \"contracts/manifold/lazyclaim/ERC721LazyClaim.sol\":5705:5729  claimParameters.totalMax */\n      0x00\n      add\n      0x20\n      dup2\n      add\n      swap1\n      tag_200\n      swap2\n      swap1\n      tag_92\n      jump\t// in\n    tag_200:\n        /* \"contracts/manifold/lazyclaim/ERC721LazyClaim.sol\":5618:6052  Claim({... */\n      0xffffffff\n      and\n      dup2\n      mstore\n      0x20\n      add\n        /* \"contracts/manifold/lazyclaim/ERC721LazyClaim.sol\":5748:5763  claimParameters */\n      dup5\n        /* \"contracts/manifold/lazyclaim/ERC721LazyClaim.sol\":5748:5773  claimParameters.walletMax */\n      0x20\n      add\n      0x20\n      dup2\n      add\n      swap1\n      tag_201\n      swap2\n      swap1\n      tag_92\n      jump\t// in\n    tag_201:\n        /* \"contracts/manifold/lazyclaim/ERC721LazyClaim.sol\":5618:6052  Claim({... */\n      0xffffffff\n      and\n      dup2\n      mstore\n      0x20\n      add\n        /* \"contracts/manifold/lazyclaim/ERC721LazyClaim.sol\":5792:5807  claimParameters */\n      dup5\n        /* \"contracts/manifold/lazyclaim/ERC721LazyClaim.sol\":5792:5817  claimParameters.startDate */\n      0x40\n      add\n      0x20\n      dup2\n      add\n      swap1\n      tag_202\n      swap2\n      swap1\n      tag_84\n      jump\t// in\n    tag_202:\n        /* \"contracts/manifold/lazyclaim/ERC721LazyClaim.sol\":5618:6052  Claim({... */\n      0xffffffffffff\n      and\n      dup2\n      mstore\n      0x20\n      add\n        /* \"contracts/manifold/lazyclaim/ERC721LazyClaim.sol\":5834:5849  claimParameters */\n      dup5\n        /* \"contracts/manifold/lazyclaim/ERC721LazyClaim.sol\":5834:5857  claimParameters.endDate */\n      0x60\n      add\n      0x20\n      dup2\n      add\n      swap1\n      tag_203\n      swap2\n      swap1\n      tag_84\n      jump\t// in\n    tag_203:\n        /* \"contracts/manifold/lazyclaim/ERC721LazyClaim.sol\":5618:6052  Claim({... */\n      0xffffffffffff\n      and\n      dup2\n      mstore\n      0x20\n      add\n        /* \"contracts/manifold/lazyclaim/ERC721LazyClaim.sol\":5882:5897  claimParameters */\n      dup5\n        /* \"contracts/manifold/lazyclaim/ERC721LazyClaim.sol\":5882:5913  claimParameters.storageProtocol */\n      0x80\n      add\n      0x20\n      dup2\n      add\n      swap1\n      tag_204\n      swap2\n      swap1\n      tag_103\n      jump\t// in\n    tag_204:\n        /* \"contracts/manifold/lazyclaim/ERC721LazyClaim.sol\":5618:6052  Claim({... */\n      0x02\n      dup2\n      gt\n      iszero\n      tag_205\n      jumpi\n      mstore(0x00, 0x4e487b7100000000000000000000000000000000000000000000000000000000)\n      mstore(0x04, 0x21)\n      revert(0x00, 0x24)\n    tag_205:\n      dup2\n      mstore\n      0x20\n      add\n        /* \"contracts/manifold/lazyclaim/ERC721LazyClaim.sol\":5932:5947  claimParameters */\n      dup5\n        /* \"contracts/manifold/lazyclaim/ERC721LazyClaim.sol\":5932:5957  claimParameters.identical */\n      0xa0\n      add\n      0x20\n      dup2\n      add\n      swap1\n      tag_206\n      swap2\n      swap1\n      tag_106\n      jump\t// in\n    tag_206:\n        /* \"contracts/manifold/lazyclaim/ERC721LazyClaim.sol\":5618:6052  Claim({... */\n      iszero\n      iszero\n      dup2\n      mstore\n      0x20\n      add\n        /* \"contracts/manifold/lazyclaim/ERC721LazyClaim.sol\":5977:5992  claimParameters */\n      dup5\n        /* \"contracts/manifold/lazyclaim/ERC721LazyClaim.sol\":5977:6003  claimParameters.merkleRoot */\n      0xc0\n      add\n      calldataload\n        /* \"contracts/manifold/lazyclaim/ERC721LazyClaim.sol\":5618:6052  Claim({... */\n      dup2\n      mstore\n      0x20\n      add\n        /* \"contracts/manifold/lazyclaim/ERC721LazyClaim.sol\":6021:6036  claimParameters */\n      dup5\n        /* \"contracts/manifold/lazyclaim/ERC721LazyClaim.sol\":6021:6045  claimParameters.location */\n      dup1\n      0xe0\n      add\n      swap1\n      tag_207\n      swap2\n      swap1\n      tag_79\n      jump\t// in\n    tag_207:\n        /* \"contracts/manifold/lazyclaim/ERC721LazyClaim.sol\":5618:6052  Claim({... */\n      dup1\n      dup1\n      0x1f\n      add\n      0x20\n      dup1\n      swap2\n      div\n      mul\n      0x20\n      add\n      mload(0x40)\n      swap1\n      dup2\n      add\n      0x40\n      mstore\n      dup1\n      swap4\n      swap3\n      swap2\n      swap1\n      dup2\n      dup2\n      mstore\n      0x20\n      add\n      dup4\n      dup4\n      dup1\n      dup3\n      dup5\n      calldatacopy\n      0x00\n      dup2\n      dup5\n      add\n      mstore\n      not(0x1f)\n      0x1f\n      dup3\n      add\n      and\n      swap1\n      pop\n      dup1\n      dup4\n      add\n      swap3\n      pop\n      pop\n      pop\n      pop\n      pop\n      pop\n      pop\n      dup2\n      mstore\n      pop\n        /* \"contracts/manifold/lazyclaim/ERC721LazyClaim.sol\":5573:5579  claims */\n      0x02\n        /* \"contracts/manifold/lazyclaim/ERC721LazyClaim.sol\":5573:5603  claims[creatorContractAddress] */\n      0x00\n        /* \"contracts/manifold/lazyclaim/ERC721LazyClaim.sol\":5580:5602  creatorContractAddress */\n      dup8\n        /* \"contracts/manifold/lazyclaim/ERC721LazyClaim.sol\":5573:5603  claims[creatorContractAddress] */\n      0xffffffffffffffffffffffffffffffffffffffff\n      and\n      0xffffffffffffffffffffffffffffffffffffffff\n      and\n      dup2\n      mstore\n      0x20\n      add\n      swap1\n      dup2\n      mstore\n      0x20\n      add\n      0x00\n      keccak256\n        /* \"contracts/manifold/lazyclaim/ERC721LazyClaim.sol\":5573:5615  claims[creatorContractAddress][claimIndex] */\n      0x00\n        /* \"contracts/manifold/lazyclaim/ERC721LazyClaim.sol\":5604:5614  claimIndex */\n      dup7\n        /* \"contracts/manifold/lazyclaim/ERC721LazyClaim.sol\":5573:5615  claims[creatorContractAddress][claimIndex] */\n      dup2\n      mstore\n      0x20\n      add\n      swap1\n      dup2\n      mstore\n      0x20\n      add\n      0x00\n      keccak256\n        /* \"contracts/manifold/lazyclaim/ERC721LazyClaim.sol\":5573:6052  claims[creatorContractAddress][claimIndex] = Claim({... */\n      0x00\n      dup3\n      add\n      mload\n      dup2\n      0x00\n      add\n      exp(0x0100, 0x00)\n      dup2\n      sload\n      dup2\n      0xffffffff\n      mul\n      not\n      and\n      swap1\n      dup4\n      0xffffffff\n      and\n      mul\n      or\n      swap1\n      sstore\n      pop\n      0x20\n      dup3\n      add\n      mload\n      dup2\n      0x00\n      add\n      exp(0x0100, 0x04)\n      dup2\n      sload\n      dup2\n      0xffffffff\n      mul\n      not\n      and\n      swap1\n      dup4\n      0xffffffff\n      and\n      mul\n      or\n      swap1\n      sstore\n      pop\n      0x40\n      dup3\n      add\n      mload\n      dup2\n      0x00\n      add\n      exp(0x0100, 0x08)\n      dup2\n      sload\n      dup2\n      0xffffffff\n      mul\n      not\n      and\n      swap1\n      dup4\n      0xffffffff\n      and\n      mul\n      or\n      swap1\n      sstore\n      pop\n      0x60\n      dup3\n      add\n      mload\n      dup2\n      0x00\n      add\n      exp(0x0100, 0x0c)\n      dup2\n      sload\n      dup2\n      0xffffffffffff\n      mul\n      not\n      and\n      swap1\n      dup4\n      0xffffffffffff\n      and\n      mul\n      or\n      swap1\n      sstore\n      pop\n      0x80\n      dup3\n      add\n      mload\n      dup2\n      0x00\n      add\n      exp(0x0100, 0x12)\n      dup2\n      sload\n      dup2\n      0xffffffffffff\n      mul\n      not\n      and\n      swap1\n      dup4\n      0xffffffffffff\n      and\n      mul\n      or\n      swap1\n      sstore\n      pop\n      0xa0\n      dup3\n      add\n      mload\n      dup2\n      0x00\n      add\n      exp(0x0100, 0x18)\n      dup2\n      sload\n      dup2\n      0xff\n      mul\n      not\n      and\n      swap1\n      dup4\n      0x02\n      dup2\n      gt\n      iszero\n      tag_208\n      jumpi\n      mstore(0x00, 0x4e487b7100000000000000000000000000000000000000000000000000000000)\n      mstore(0x04, 0x21)\n      revert(0x00, 0x24)\n    tag_208:\n      mul\n      or\n      swap1\n      sstore\n      pop\n      0xc0\n      dup3\n      add\n      mload\n      dup2\n      0x00\n      add\n      exp(0x0100, 0x19)\n      dup2\n      sload\n      dup2\n      0xff\n      mul\n      not\n      and\n      swap1\n      dup4\n      iszero\n      iszero\n      mul\n      or\n      swap1\n      sstore\n      pop\n      0xe0\n      dup3\n      add\n      mload\n      dup2\n      0x01\n      add\n      sstore\n      0x0100\n      dup3\n      add\n      mload\n      dup2\n      0x02\n      add\n      swap1\n      dup1\n      mload\n      swap1\n      0x20\n      add\n      swap1\n      tag_209\n      swap3\n      swap2\n      swap1\n      tag_110\n      jump\t// in\n    tag_209:\n      pop\n      swap1\n      pop\n      pop\n        /* \"contracts/manifold/lazyclaim/ERC721LazyClaim.sol\":4786:6057  function overwriteClaim(... */\n      pop\n      pop\n      pop\n      pop\n      pop\n      jump\t// out\n        /* \"contracts/manifold/lazyclaim/ERC721LazyClaim.sol\":6295:6443  function getClaimCount(address creatorContractAddress) external override view returns(uint256) {... */\n    tag_53:\n        /* \"contracts/manifold/lazyclaim/ERC721LazyClaim.sol\":6381:6388  uint256 */\n      0x00\n        /* \"contracts/manifold/lazyclaim/ERC721LazyClaim.sol\":6403:6414  claimCounts */\n      0x01\n        /* \"contracts/manifold/lazyclaim/ERC721LazyClaim.sol\":6403:6438  claimCounts[creatorContractAddress] */\n      0x00\n        /* \"contracts/manifold/lazyclaim/ERC721LazyClaim.sol\":6415:6437  creatorContractAddress */\n      dup4\n        /* \"contracts/manifold/lazyclaim/ERC721LazyClaim.sol\":6403:6438  claimCounts[creatorContractAddress] */\n      0xffffffffffffffffffffffffffffffffffffffff\n      and\n      0xffffffffffffffffffffffffffffffffffffffff\n      and\n      dup2\n      mstore\n      0x20\n      add\n      swap1\n      dup2\n      mstore\n      0x20\n      add\n      0x00\n      keccak256\n      sload\n        /* \"contracts/manifold/lazyclaim/ERC721LazyClaim.sol\":6396:6438  return claimCounts[creatorContractAddress] */\n      swap1\n      pop\n        /* \"contracts/manifold/lazyclaim/ERC721LazyClaim.sol\":6295:6443  function getClaimCount(address creatorContractAddress) external override view returns(uint256) {... */\n      swap2\n      swap1\n      pop\n      jump\t// out\n        /* \"contracts/manifold/lazyclaim/ERC721LazyClaim.sol\":12958:14161  function tokenURI(address creatorContractAddress, uint256 tokenId) external override view returns(string memory) {... */\n    tag_57:\n        /* \"contracts/manifold/lazyclaim/ERC721LazyClaim.sol\":13056:13069  string memory */\n      0x60\n        /* \"contracts/manifold/lazyclaim/ERC721LazyClaim.sol\":13137:13155  uint256 claimIndex */\n      0x00\n        /* \"contracts/manifold/lazyclaim/ERC721LazyClaim.sol\":13158:13205  _getTokenClaim(creatorContractAddress, tokenId) */\n      tag_212\n        /* \"contracts/manifold/lazyclaim/ERC721LazyClaim.sol\":13173:13195  creatorContractAddress */\n      dup5\n        /* \"contracts/manifold/lazyclaim/ERC721LazyClaim.sol\":13197:13204  tokenId */\n      dup5\n        /* \"contracts/manifold/lazyclaim/ERC721LazyClaim.sol\":13158:13172  _getTokenClaim */\n      tag_65\n        /* \"contracts/manifold/lazyclaim/ERC721LazyClaim.sol\":13158:13205  _getTokenClaim(creatorContractAddress, tokenId) */\n      jump\t// in\n    tag_212:\n        /* \"contracts/manifold/lazyclaim/ERC721LazyClaim.sol\":13137:13205  uint256 claimIndex = _getTokenClaim(creatorContractAddress, tokenId) */\n      swap1\n      pop\n        /* \"contracts/manifold/lazyclaim/ERC721LazyClaim.sol\":13283:13303  string memory suffix */\n      0x00\n        /* \"contracts/manifold/lazyclaim/ERC721LazyClaim.sol\":13283:13308  string memory suffix = \"\" */\n      mload(0x40)\n      dup1\n      0x20\n      add\n      0x40\n      mstore\n      dup1\n      0x00\n      dup2\n      mstore\n      pop\n      swap1\n      pop\n        /* \"contracts/manifold/lazyclaim/ERC721LazyClaim.sol\":13319:13325  claims */\n      0x02\n        /* \"contracts/manifold/lazyclaim/ERC721LazyClaim.sol\":13319:13349  claims[creatorContractAddress] */\n      0x00\n        /* \"contracts/manifold/lazyclaim/ERC721LazyClaim.sol\":13326:13348  creatorContractAddress */\n      dup7\n        /* \"contracts/manifold/lazyclaim/ERC721LazyClaim.sol\":13319:13349  claims[creatorContractAddress] */\n      0xffffffffffffffffffffffffffffffffffffffff\n      and\n      0xffffffffffffffffffffffffffffffffffffffff\n      and\n      dup2\n      mstore\n      0x20\n      add\n      swap1\n      dup2\n      mstore\n      0x20\n      add\n      0x00\n      keccak256\n        /* \"contracts/manifold/lazyclaim/ERC721LazyClaim.sol\":13319:13361  claims[creatorContractAddress][claimIndex] */\n      0x00\n        /* \"contracts/manifold/lazyclaim/ERC721LazyClaim.sol\":13350:13360  claimIndex */\n      dup4\n        /* \"contracts/manifold/lazyclaim/ERC721LazyClaim.sol\":13319:13361  claims[creatorContractAddress][claimIndex] */\n      dup2\n      mstore\n      0x20\n      add\n      swap1\n      dup2\n      mstore\n      0x20\n      add\n      0x00\n      keccak256\n        /* \"contracts/manifold/lazyclaim/ERC721LazyClaim.sol\":13319:13371  claims[creatorContractAddress][claimIndex].identical */\n      0x00\n      add\n      0x19\n      swap1\n      sload\n      swap1\n      0x0100\n      exp\n      swap1\n      div\n      0xff\n      and\n        /* \"contracts/manifold/lazyclaim/ERC721LazyClaim.sol\":13314:13660  if (!claims[creatorContractAddress][claimIndex].identical) {... */\n      tag_213\n      jumpi\n        /* \"contracts/manifold/lazyclaim/ERC721LazyClaim.sol\":13419:13444  Strings.toString(tokenId) */\n      tag_214\n        /* \"contracts/manifold/lazyclaim/ERC721LazyClaim.sol\":13436:13443  tokenId */\n      dup5\n        /* \"contracts/manifold/lazyclaim/ERC721LazyClaim.sol\":13419:13435  Strings.toString */\n      tag_215\n        /* \"contracts/manifold/lazyclaim/ERC721LazyClaim.sol\":13419:13444  Strings.toString(tokenId) */\n      jump\t// in\n    tag_214:\n        /* \"contracts/manifold/lazyclaim/ERC721LazyClaim.sol\":13397:13445  abi.encodePacked(\"/\", Strings.toString(tokenId)) */\n      add(0x20, mload(0x40))\n      tag_216\n      swap2\n      swap1\n      tag_217\n      jump\t// in\n    tag_216:\n      mload(0x40)\n      0x20\n      dup2\n      dup4\n      sub\n      sub\n      dup2\n      mstore\n      swap1\n      0x40\n      mstore\n        /* \"contracts/manifold/lazyclaim/ERC721LazyClaim.sol\":13381:13446  suffix = string(abi.encodePacked(\"/\", Strings.toString(tokenId))) */\n      swap1\n      pop\n        /* \"contracts/manifold/lazyclaim/ERC721LazyClaim.sol\":13563:13583  StorageProtocol.IPFS */\n      0x02\n        /* \"contracts/manifold/lazyclaim/ERC721LazyClaim.sol\":13501:13583  claims[creatorContractAddress][claimIndex].storageProtocol == StorageProtocol.IPFS */\n      dup1\n      dup2\n      gt\n      iszero\n      tag_218\n      jumpi\n      mstore(0x00, 0x4e487b7100000000000000000000000000000000000000000000000000000000)\n      mstore(0x04, 0x21)\n      revert(0x00, 0x24)\n    tag_218:\n        /* \"contracts/manifold/lazyclaim/ERC721LazyClaim.sol\":13501:13507  claims */\n      0x02\n        /* \"contracts/manifold/lazyclaim/ERC721LazyClaim.sol\":13501:13531  claims[creatorContractAddress] */\n      0x00\n        /* \"contracts/manifold/lazyclaim/ERC721LazyClaim.sol\":13508:13530  creatorContractAddress */\n      dup8\n        /* \"contracts/manifold/lazyclaim/ERC721LazyClaim.sol\":13501:13531  claims[creatorContractAddress] */\n      0xffffffffffffffffffffffffffffffffffffffff\n      and\n      0xffffffffffffffffffffffffffffffffffffffff\n      and\n      dup2\n      mstore\n      0x20\n      add\n      swap1\n      dup2\n      mstore\n      0x20\n      add\n      0x00\n      keccak256\n        /* \"contracts/manifold/lazyclaim/ERC721LazyClaim.sol\":13501:13543  claims[creatorContractAddress][claimIndex] */\n      0x00\n        /* \"contracts/manifold/lazyclaim/ERC721LazyClaim.sol\":13532:13542  claimIndex */\n      dup5\n        /* \"contracts/manifold/lazyclaim/ERC721LazyClaim.sol\":13501:13543  claims[creatorContractAddress][claimIndex] */\n      dup2\n      mstore\n      0x20\n      add\n      swap1\n      dup2\n      mstore\n      0x20\n      add\n      0x00\n      keccak256\n        /* \"contracts/manifold/lazyclaim/ERC721LazyClaim.sol\":13501:13559  claims[creatorContractAddress][claimIndex].storageProtocol */\n      0x00\n      add\n      0x18\n      swap1\n      sload\n      swap1\n      0x0100\n      exp\n      swap1\n      div\n      0xff\n      and\n        /* \"contracts/manifold/lazyclaim/ERC721LazyClaim.sol\":13501:13583  claims[creatorContractAddress][claimIndex].storageProtocol == StorageProtocol.IPFS */\n      0x02\n      dup2\n      gt\n      iszero\n      tag_219\n      jumpi\n      mstore(0x00, 0x4e487b7100000000000000000000000000000000000000000000000000000000)\n      mstore(0x04, 0x21)\n      revert(0x00, 0x24)\n    tag_219:\n      eq\n        /* \"contracts/manifold/lazyclaim/ERC721LazyClaim.sol\":13497:13654  if (claims[creatorContractAddress][claimIndex].storageProtocol == StorageProtocol.IPFS) {... */\n      iszero\n      tag_220\n      jumpi\n        /* \"contracts/manifold/lazyclaim/ERC721LazyClaim.sol\":13628:13634  suffix */\n      dup1\n        /* \"contracts/manifold/lazyclaim/ERC721LazyClaim.sol\":13611:13644  abi.encodePacked(suffix, \".json\") */\n      add(0x20, mload(0x40))\n      tag_221\n      swap2\n      swap1\n      tag_222\n      jump\t// in\n    tag_221:\n      mload(0x40)\n      0x20\n      dup2\n      dup4\n      sub\n      sub\n      dup2\n      mstore\n      swap1\n      0x40\n      mstore\n        /* \"contracts/manifold/lazyclaim/ERC721LazyClaim.sol\":13595:13645  suffix = string(abi.encodePacked(suffix, \".json\")) */\n      swap1\n      pop\n        /* \"contracts/manifold/lazyclaim/ERC721LazyClaim.sol\":13497:13654  if (claims[creatorContractAddress][claimIndex].storageProtocol == StorageProtocol.IPFS) {... */\n    tag_220:\n        /* \"contracts/manifold/lazyclaim/ERC721LazyClaim.sol\":13314:13660  if (!claims[creatorContractAddress][claimIndex].identical) {... */\n    tag_213:\n        /* \"contracts/manifold/lazyclaim/ERC721LazyClaim.sol\":13725:13745  string memory prefix */\n      0x00\n        /* \"contracts/manifold/lazyclaim/ERC721LazyClaim.sol\":13725:13750  string memory prefix = \"\" */\n      mload(0x40)\n      dup1\n      0x20\n      add\n      0x40\n      mstore\n      dup1\n      0x00\n      dup2\n      mstore\n      pop\n      swap1\n      pop\n        /* \"contracts/manifold/lazyclaim/ERC721LazyClaim.sol\":13822:13842  StorageProtocol.IPFS */\n      0x02\n        /* \"contracts/manifold/lazyclaim/ERC721LazyClaim.sol\":13760:13842  claims[creatorContractAddress][claimIndex].storageProtocol == StorageProtocol.IPFS */\n      dup1\n      dup2\n      gt\n      iszero\n      tag_223\n      jumpi\n      mstore(0x00, 0x4e487b7100000000000000000000000000000000000000000000000000000000)\n      mstore(0x04, 0x21)\n      revert(0x00, 0x24)\n    tag_223:\n        /* \"contracts/manifold/lazyclaim/ERC721LazyClaim.sol\":13760:13766  claims */\n      0x02\n        /* \"contracts/manifold/lazyclaim/ERC721LazyClaim.sol\":13760:13790  claims[creatorContractAddress] */\n      0x00\n        /* \"contracts/manifold/lazyclaim/ERC721LazyClaim.sol\":13767:13789  creatorContractAddress */\n      dup9\n        /* \"contracts/manifold/lazyclaim/ERC721LazyClaim.sol\":13760:13790  claims[creatorContractAddress] */\n      0xffffffffffffffffffffffffffffffffffffffff\n      and\n      0xffffffffffffffffffffffffffffffffffffffff\n      and\n      dup2\n      mstore\n      0x20\n      add\n      swap1\n      dup2\n      mstore\n      0x20\n      add\n      0x00\n      keccak256\n        /* \"contracts/manifold/lazyclaim/ERC721LazyClaim.sol\":13760:13802  claims[creatorContractAddress][claimIndex] */\n      0x00\n        /* \"contracts/manifold/lazyclaim/ERC721LazyClaim.sol\":13791:13801  claimIndex */\n      dup6\n        /* \"contracts/manifold/lazyclaim/ERC721LazyClaim.sol\":13760:13802  claims[creatorContractAddress][claimIndex] */\n      dup2\n      mstore\n      0x20\n      add\n      swap1\n      dup2\n      mstore\n      0x20\n      add\n      0x00\n      keccak256\n        /* \"contracts/manifold/lazyclaim/ERC721LazyClaim.sol\":13760:13818  claims[creatorContractAddress][claimIndex].storageProtocol */\n      0x00\n      add\n      0x18\n      swap1\n      sload\n      swap1\n      0x0100\n      exp\n      swap1\n      div\n      0xff\n      and\n        /* \"contracts/manifold/lazyclaim/ERC721LazyClaim.sol\":13760:13842  claims[creatorContractAddress][claimIndex].storageProtocol == StorageProtocol.IPFS */\n      0x02\n      dup2\n      gt\n      iszero\n      tag_224\n      jumpi\n      mstore(0x00, 0x4e487b7100000000000000000000000000000000000000000000000000000000)\n      mstore(0x04, 0x21)\n      revert(0x00, 0x24)\n    tag_224:\n      eq\n        /* \"contracts/manifold/lazyclaim/ERC721LazyClaim.sol\":13756:14014  if (claims[creatorContractAddress][claimIndex].storageProtocol == StorageProtocol.IPFS) {... */\n      iszero\n      tag_225\n      jumpi\n        /* \"contracts/manifold/lazyclaim/ERC721LazyClaim.sol\":13861:13872  IPFS_PREFIX */\n      mload(0x40)\n      dup1\n      0x40\n      add\n      0x40\n      mstore\n      dup1\n      0x07\n      dup2\n      mstore\n      0x20\n      add\n      0x697066733a2f2f00000000000000000000000000000000000000000000000000\n      dup2\n      mstore\n      pop\n        /* \"contracts/manifold/lazyclaim/ERC721LazyClaim.sol\":13852:13872  prefix = IPFS_PREFIX */\n      swap1\n      pop\n        /* \"contracts/manifold/lazyclaim/ERC721LazyClaim.sol\":13756:14014  if (claims[creatorContractAddress][claimIndex].storageProtocol == StorageProtocol.IPFS) {... */\n      jump(tag_226)\n    tag_225:\n        /* \"contracts/manifold/lazyclaim/ERC721LazyClaim.sol\":13951:13974  StorageProtocol.ARWEAVE */\n      0x01\n        /* \"contracts/manifold/lazyclaim/ERC721LazyClaim.sol\":13889:13974  claims[creatorContractAddress][claimIndex].storageProtocol == StorageProtocol.ARWEAVE */\n      0x02\n      dup2\n      gt\n      iszero\n      tag_227\n      jumpi\n      mstore(0x00, 0x4e487b7100000000000000000000000000000000000000000000000000000000)\n      mstore(0x04, 0x21)\n      revert(0x00, 0x24)\n    tag_227:\n        /* \"contracts/manifold/lazyclaim/ERC721LazyClaim.sol\":13889:13895  claims */\n      0x02\n        /* \"contracts/manifold/lazyclaim/ERC721LazyClaim.sol\":13889:13919  claims[creatorContractAddress] */\n      0x00\n        /* \"contracts/manifold/lazyclaim/ERC721LazyClaim.sol\":13896:13918  creatorContractAddress */\n      dup9\n        /* \"contracts/manifold/lazyclaim/ERC721LazyClaim.sol\":13889:13919  claims[creatorContractAddress] */\n      0xffffffffffffffffffffffffffffffffffffffff\n      and\n      0xffffffffffffffffffffffffffffffffffffffff\n      and\n      dup2\n      mstore\n      0x20\n      add\n      swap1\n      dup2\n      mstore\n      0x20\n      add\n      0x00\n      keccak256\n        /* \"contracts/manifold/lazyclaim/ERC721LazyClaim.sol\":13889:13931  claims[creatorContractAddress][claimIndex] */\n      0x00\n        /* \"contracts/manifold/lazyclaim/ERC721LazyClaim.sol\":13920:13930  claimIndex */\n      dup6\n        /* \"contracts/manifold/lazyclaim/ERC721LazyClaim.sol\":13889:13931  claims[creatorContractAddress][claimIndex] */\n      dup2\n      mstore\n      0x20\n      add\n      swap1\n      dup2\n      mstore\n      0x20\n      add\n      0x00\n      keccak256\n        /* \"contracts/manifold/lazyclaim/ERC721LazyClaim.sol\":13889:13947  claims[creatorContractAddress][claimIndex].storageProtocol */\n      0x00\n      add\n      0x18\n      swap1\n      sload\n      swap1\n      0x0100\n      exp\n      swap1\n      div\n      0xff\n      and\n        /* \"contracts/manifold/lazyclaim/ERC721LazyClaim.sol\":13889:13974  claims[creatorContractAddress][claimIndex].storageProtocol == StorageProtocol.ARWEAVE */\n      0x02\n      dup2\n      gt\n      iszero\n      tag_228\n      jumpi\n      mstore(0x00, 0x4e487b7100000000000000000000000000000000000000000000000000000000)\n      mstore(0x04, 0x21)\n      revert(0x00, 0x24)\n    tag_228:\n      eq\n        /* \"contracts/manifold/lazyclaim/ERC721LazyClaim.sol\":13885:14014  if (claims[creatorContractAddress][claimIndex].storageProtocol == StorageProtocol.ARWEAVE) {... */\n      iszero\n      tag_229\n      jumpi\n        /* \"contracts/manifold/lazyclaim/ERC721LazyClaim.sol\":13993:14007  ARWEAVE_PREFIX */\n      mload(0x40)\n      dup1\n      0x40\n      add\n      0x40\n      mstore\n      dup1\n      0x14\n      dup2\n      mstore\n      0x20\n      add\n      0x68747470733a2f2f617277656176652e6e65742f000000000000000000000000\n      dup2\n      mstore\n      pop\n        /* \"contracts/manifold/lazyclaim/ERC721LazyClaim.sol\":13984:14007  prefix = ARWEAVE_PREFIX */\n      swap1\n      pop\n        /* \"contracts/manifold/lazyclaim/ERC721LazyClaim.sol\":13885:14014  if (claims[creatorContractAddress][claimIndex].storageProtocol == StorageProtocol.ARWEAVE) {... */\n    tag_229:\n        /* \"contracts/manifold/lazyclaim/ERC721LazyClaim.sol\":13756:14014  if (claims[creatorContractAddress][claimIndex].storageProtocol == StorageProtocol.IPFS) {... */\n    tag_226:\n        /* \"contracts/manifold/lazyclaim/ERC721LazyClaim.sol\":14087:14093  prefix */\n      dup1\n        /* \"contracts/manifold/lazyclaim/ERC721LazyClaim.sol\":14095:14101  claims */\n      0x02\n        /* \"contracts/manifold/lazyclaim/ERC721LazyClaim.sol\":14095:14125  claims[creatorContractAddress] */\n      0x00\n        /* \"contracts/manifold/lazyclaim/ERC721LazyClaim.sol\":14102:14124  creatorContractAddress */\n      dup9\n        /* \"contracts/manifold/lazyclaim/ERC721LazyClaim.sol\":14095:14125  claims[creatorContractAddress] */\n      0xffffffffffffffffffffffffffffffffffffffff\n      and\n      0xffffffffffffffffffffffffffffffffffffffff\n      and\n      dup2\n      mstore\n      0x20\n      add\n      swap1\n      dup2\n      mstore\n      0x20\n      add\n      0x00\n      keccak256\n        /* \"contracts/manifold/lazyclaim/ERC721LazyClaim.sol\":14095:14137  claims[creatorContractAddress][claimIndex] */\n      0x00\n        /* \"contracts/manifold/lazyclaim/ERC721LazyClaim.sol\":14126:14136  claimIndex */\n      dup6\n        /* \"contracts/manifold/lazyclaim/ERC721LazyClaim.sol\":14095:14137  claims[creatorContractAddress][claimIndex] */\n      dup2\n      mstore\n      0x20\n      add\n      swap1\n      dup2\n      mstore\n      0x20\n      add\n      0x00\n      keccak256\n        /* \"contracts/manifold/lazyclaim/ERC721LazyClaim.sol\":14095:14146  claims[creatorContractAddress][claimIndex].location */\n      0x02\n      add\n        /* \"contracts/manifold/lazyclaim/ERC721LazyClaim.sol\":14148:14154  suffix */\n      dup4\n        /* \"contracts/manifold/lazyclaim/ERC721LazyClaim.sol\":14070:14155  abi.encodePacked(prefix, claims[creatorContractAddress][claimIndex].location, suffix) */\n      add(0x20, mload(0x40))\n      tag_230\n      swap4\n      swap3\n      swap2\n      swap1\n      tag_231\n      jump\t// in\n    tag_230:\n      mload(0x40)\n      0x20\n      dup2\n      dup4\n      sub\n      sub\n      dup2\n      mstore\n      swap1\n      0x40\n      mstore\n        /* \"contracts/manifold/lazyclaim/ERC721LazyClaim.sol\":14056:14156  return string(abi.encodePacked(prefix, claims[creatorContractAddress][claimIndex].location, suffix)) */\n      swap4\n      pop\n      pop\n      pop\n      pop\n        /* \"contracts/manifold/lazyclaim/ERC721LazyClaim.sol\":12958:14161  function tokenURI(address creatorContractAddress, uint256 tokenId) external override view returns(string memory) {... */\n      swap3\n      swap2\n      pop\n      pop\n      jump\t// out\n        /* \"contracts/manifold/lazyclaim/ERC721LazyClaim.sol\":9267:10029  function _getTokenClaim(address creatorContractAddress, uint256 tokenId) internal view returns(uint256) {... */\n    tag_65:\n        /* \"contracts/manifold/lazyclaim/ERC721LazyClaim.sol\":9362:9369  uint256 */\n      0x00\n        /* \"contracts/manifold/lazyclaim/ERC721LazyClaim.sol\":9423:9424  0 */\n      dup1\n        /* \"contracts/manifold/lazyclaim/ERC721LazyClaim.sol\":9385:9396  claimCounts */\n      0x01\n        /* \"contracts/manifold/lazyclaim/ERC721LazyClaim.sol\":9385:9420  claimCounts[creatorContractAddress] */\n      0x00\n        /* \"contracts/manifold/lazyclaim/ERC721LazyClaim.sol\":9397:9419  creatorContractAddress */\n      dup6\n        /* \"contracts/manifold/lazyclaim/ERC721LazyClaim.sol\":9385:9420  claimCounts[creatorContractAddress] */\n      0xffffffffffffffffffffffffffffffffffffffff\n      and\n      0xffffffffffffffffffffffffffffffffffffffff\n      and\n      dup2\n      mstore\n      0x20\n      add\n      swap1\n      dup2\n      mstore\n      0x20\n      add\n      0x00\n      keccak256\n      sload\n        /* \"contracts/manifold/lazyclaim/ERC721LazyClaim.sol\":9385:9424  claimCounts[creatorContractAddress] > 0 */\n      gt\n        /* \"contracts/manifold/lazyclaim/ERC721LazyClaim.sol\":9377:9459  require(claimCounts[creatorContractAddress] > 0, \"No claims for creator contract\") */\n      tag_233\n      jumpi\n      mload(0x40)\n      0x08c379a000000000000000000000000000000000000000000000000000000000\n      dup2\n      mstore\n      0x04\n      add\n      tag_234\n      swap1\n      tag_235\n      jump\t// in\n    tag_234:\n      mload(0x40)\n      dup1\n      swap2\n      sub\n      swap1\n      revert\n    tag_233:\n        /* \"contracts/manifold/lazyclaim/ERC721LazyClaim.sol\":9470:9483  uint256 index */\n      0x00\n        /* \"contracts/manifold/lazyclaim/ERC721LazyClaim.sol\":9484:9485  1 */\n      0x01\n        /* \"contracts/manifold/lazyclaim/ERC721LazyClaim.sol\":9470:9485  uint256 index=1 */\n      swap1\n      pop\n        /* \"contracts/manifold/lazyclaim/ERC721LazyClaim.sol\":9465:9996  for (uint256 index=1; index <= claimCounts[creatorContractAddress]; index++) {... */\n    tag_236:\n        /* \"contracts/manifold/lazyclaim/ERC721LazyClaim.sol\":9496:9507  claimCounts */\n      0x01\n        /* \"contracts/manifold/lazyclaim/ERC721LazyClaim.sol\":9496:9531  claimCounts[creatorContractAddress] */\n      0x00\n        /* \"contracts/manifold/lazyclaim/ERC721LazyClaim.sol\":9508:9530  creatorContractAddress */\n      dup6\n        /* \"contracts/manifold/lazyclaim/ERC721LazyClaim.sol\":9496:9531  claimCounts[creatorContractAddress] */\n      0xffffffffffffffffffffffffffffffffffffffff\n      and\n      0xffffffffffffffffffffffffffffffffffffffff\n      and\n      dup2\n      mstore\n      0x20\n      add\n      swap1\n      dup2\n      mstore\n      0x20\n      add\n      0x00\n      keccak256\n      sload\n        /* \"contracts/manifold/lazyclaim/ERC721LazyClaim.sol\":9487:9492  index */\n      dup2\n        /* \"contracts/manifold/lazyclaim/ERC721LazyClaim.sol\":9487:9531  index <= claimCounts[creatorContractAddress] */\n      gt\n        /* \"contracts/manifold/lazyclaim/ERC721LazyClaim.sol\":9465:9996  for (uint256 index=1; index <= claimCounts[creatorContractAddress]; index++) {... */\n      tag_237\n      jumpi\n        /* \"contracts/manifold/lazyclaim/ERC721LazyClaim.sol\":9550:9581  IndexRange[] memory indexRanges */\n      0x00\n        /* \"contracts/manifold/lazyclaim/ERC721LazyClaim.sol\":9584:9595  tokenClaims */\n      0x04\n        /* \"contracts/manifold/lazyclaim/ERC721LazyClaim.sol\":9584:9619  tokenClaims[creatorContractAddress] */\n      0x00\n        /* \"contracts/manifold/lazyclaim/ERC721LazyClaim.sol\":9596:9618  creatorContractAddress */\n      dup7\n        /* \"contracts/manifold/lazyclaim/ERC721LazyClaim.sol\":9584:9619  tokenClaims[creatorContractAddress] */\n      0xffffffffffffffffffffffffffffffffffffffff\n      and\n      0xffffffffffffffffffffffffffffffffffffffff\n      and\n      dup2\n      mstore\n      0x20\n      add\n      swap1\n      dup2\n      mstore\n      0x20\n      add\n      0x00\n      keccak256\n        /* \"contracts/manifold/lazyclaim/ERC721LazyClaim.sol\":9584:9626  tokenClaims[creatorContractAddress][index] */\n      0x00\n        /* \"contracts/manifold/lazyclaim/ERC721LazyClaim.sol\":9620:9625  index */\n      dup4\n        /* \"contracts/manifold/lazyclaim/ERC721LazyClaim.sol\":9584:9626  tokenClaims[creatorContractAddress][index] */\n      dup2\n      mstore\n      0x20\n      add\n      swap1\n      dup2\n      mstore\n      0x20\n      add\n      0x00\n      keccak256\n        /* \"contracts/manifold/lazyclaim/ERC721LazyClaim.sol\":9550:9626  IndexRange[] memory indexRanges = tokenClaims[creatorContractAddress][index] */\n      dup1\n      sload\n      dup1\n      0x20\n      mul\n      0x20\n      add\n      mload(0x40)\n      swap1\n      dup2\n      add\n      0x40\n      mstore\n      dup1\n      swap3\n      swap2\n      swap1\n      dup2\n      dup2\n      mstore\n      0x20\n      add\n      0x00\n      swap1\n    tag_239:\n      dup3\n      dup3\n      lt\n      iszero\n      tag_240\n      jumpi\n      dup4\n      dup3\n      swap1\n      0x00\n      mstore\n      keccak256(0x00, 0x20)\n      swap1\n      0x02\n      mul\n      add\n      mload(0x40)\n      dup1\n      0x40\n      add\n      0x40\n      mstore\n      swap1\n      dup2\n      0x00\n      dup3\n      add\n      sload\n      dup2\n      mstore\n      0x20\n      add\n      0x01\n      dup3\n      add\n      sload\n      dup2\n      mstore\n      pop\n      pop\n      dup2\n      mstore\n      0x20\n      add\n      swap1\n      0x01\n      add\n      swap1\n      jump(tag_239)\n    tag_240:\n      pop\n      pop\n      pop\n      pop\n      swap1\n      pop\n        /* \"contracts/manifold/lazyclaim/ERC721LazyClaim.sol\":9634:9648  uint256 offset */\n      0x00\n        /* \"contracts/manifold/lazyclaim/ERC721LazyClaim.sol\":9661:9670  uint256 i */\n      dup1\n        /* \"contracts/manifold/lazyclaim/ERC721LazyClaim.sol\":9673:9674  0 */\n      0x00\n        /* \"contracts/manifold/lazyclaim/ERC721LazyClaim.sol\":9661:9674  uint256 i = 0 */\n      swap1\n      pop\n        /* \"contracts/manifold/lazyclaim/ERC721LazyClaim.sol\":9656:9990  for (uint256 i = 0; i < indexRanges.length; i++) {... */\n    tag_242:\n        /* \"contracts/manifold/lazyclaim/ERC721LazyClaim.sol\":9680:9691  indexRanges */\n      dup3\n        /* \"contracts/manifold/lazyclaim/ERC721LazyClaim.sol\":9680:9698  indexRanges.length */\n      mload\n        /* \"contracts/manifold/lazyclaim/ERC721LazyClaim.sol\":9676:9677  i */\n      dup2\n        /* \"contracts/manifold/lazyclaim/ERC721LazyClaim.sol\":9676:9698  i < indexRanges.length */\n      lt\n        /* \"contracts/manifold/lazyclaim/ERC721LazyClaim.sol\":9656:9990  for (uint256 i = 0; i < indexRanges.length; i++) {... */\n      iszero\n      tag_243\n      jumpi\n        /* \"contracts/manifold/lazyclaim/ERC721LazyClaim.sol\":9715:9745  IndexRange memory currentIndex */\n      0x00\n        /* \"contracts/manifold/lazyclaim/ERC721LazyClaim.sol\":9748:9759  indexRanges */\n      dup4\n        /* \"contracts/manifold/lazyclaim/ERC721LazyClaim.sol\":9760:9761  i */\n      dup3\n        /* \"contracts/manifold/lazyclaim/ERC721LazyClaim.sol\":9748:9762  indexRanges[i] */\n      dup2\n      mload\n      dup2\n      lt\n      tag_245\n      jumpi\n      mstore(0x00, 0x4e487b7100000000000000000000000000000000000000000000000000000000)\n      mstore(0x04, 0x32)\n      revert(0x00, 0x24)\n    tag_245:\n      0x20\n      mul\n      0x20\n      add\n      add\n      mload\n        /* \"contracts/manifold/lazyclaim/ERC721LazyClaim.sol\":9715:9762  IndexRange memory currentIndex = indexRanges[i] */\n      swap1\n      pop\n        /* \"contracts/manifold/lazyclaim/ERC721LazyClaim.sol\":9786:9798  currentIndex */\n      dup1\n        /* \"contracts/manifold/lazyclaim/ERC721LazyClaim.sol\":9786:9804  currentIndex.start */\n      0x00\n      add\n      mload\n        /* \"contracts/manifold/lazyclaim/ERC721LazyClaim.sol\":9776:9783  tokenId */\n      dup8\n        /* \"contracts/manifold/lazyclaim/ERC721LazyClaim.sol\":9776:9804  tokenId < currentIndex.start */\n      lt\n        /* \"contracts/manifold/lazyclaim/ERC721LazyClaim.sol\":9772:9811  if (tokenId < currentIndex.start) break */\n      iszero\n      tag_246\n      jumpi\n        /* \"contracts/manifold/lazyclaim/ERC721LazyClaim.sol\":9806:9811  break */\n      pop\n      jump(tag_243)\n        /* \"contracts/manifold/lazyclaim/ERC721LazyClaim.sol\":9772:9811  if (tokenId < currentIndex.start) break */\n    tag_246:\n        /* \"contracts/manifold/lazyclaim/ERC721LazyClaim.sol\":9836:9848  currentIndex */\n      dup1\n        /* \"contracts/manifold/lazyclaim/ERC721LazyClaim.sol\":9836:9854  currentIndex.start */\n      0x00\n      add\n      mload\n        /* \"contracts/manifold/lazyclaim/ERC721LazyClaim.sol\":9825:9832  tokenId */\n      dup8\n        /* \"contracts/manifold/lazyclaim/ERC721LazyClaim.sol\":9825:9854  tokenId >= currentIndex.start */\n      lt\n      iszero\n        /* \"contracts/manifold/lazyclaim/ERC721LazyClaim.sol\":9825:9907  tokenId >= currentIndex.start && tokenId < currentIndex.start + currentIndex.count */\n      dup1\n      iszero\n      tag_247\n      jumpi\n      pop\n        /* \"contracts/manifold/lazyclaim/ERC721LazyClaim.sol\":9889:9901  currentIndex */\n      dup1\n        /* \"contracts/manifold/lazyclaim/ERC721LazyClaim.sol\":9889:9907  currentIndex.count */\n      0x20\n      add\n      mload\n        /* \"contracts/manifold/lazyclaim/ERC721LazyClaim.sol\":9868:9880  currentIndex */\n      dup2\n        /* \"contracts/manifold/lazyclaim/ERC721LazyClaim.sol\":9868:9886  currentIndex.start */\n      0x00\n      add\n      mload\n        /* \"contracts/manifold/lazyclaim/ERC721LazyClaim.sol\":9868:9907  currentIndex.start + currentIndex.count */\n      tag_248\n      swap2\n      swap1\n      tag_249\n      jump\t// in\n    tag_248:\n        /* \"contracts/manifold/lazyclaim/ERC721LazyClaim.sol\":9858:9865  tokenId */\n      dup8\n        /* \"contracts/manifold/lazyclaim/ERC721LazyClaim.sol\":9858:9907  tokenId < currentIndex.start + currentIndex.count */\n      lt\n        /* \"contracts/manifold/lazyclaim/ERC721LazyClaim.sol\":9825:9907  tokenId >= currentIndex.start && tokenId < currentIndex.start + currentIndex.count */\n    tag_247:\n        /* \"contracts/manifold/lazyclaim/ERC721LazyClaim.sol\":9821:9944  if (tokenId >= currentIndex.start && tokenId < currentIndex.start + currentIndex.count) {... */\n      iszero\n      tag_250\n      jumpi\n        /* \"contracts/manifold/lazyclaim/ERC721LazyClaim.sol\":9928:9933  index */\n      dup5\n        /* \"contracts/manifold/lazyclaim/ERC721LazyClaim.sol\":9921:9933  return index */\n      swap6\n      pop\n      pop\n      pop\n      pop\n      pop\n      pop\n      jump(tag_232)\n        /* \"contracts/manifold/lazyclaim/ERC721LazyClaim.sol\":9821:9944  if (tokenId >= currentIndex.start && tokenId < currentIndex.start + currentIndex.count) {... */\n    tag_250:\n        /* \"contracts/manifold/lazyclaim/ERC721LazyClaim.sol\":9963:9975  currentIndex */\n      dup1\n        /* \"contracts/manifold/lazyclaim/ERC721LazyClaim.sol\":9963:9981  currentIndex.count */\n      0x20\n      add\n      mload\n        /* \"contracts/manifold/lazyclaim/ERC721LazyClaim.sol\":9953:9981  offset += currentIndex.count */\n      dup4\n      tag_251\n      swap2\n      swap1\n      tag_249\n      jump\t// in\n    tag_251:\n      swap3\n      pop\n        /* \"contracts/manifold/lazyclaim/ERC721LazyClaim.sol\":9656:9990  for (uint256 i = 0; i < indexRanges.length; i++) {... */\n      pop\n        /* \"contracts/manifold/lazyclaim/ERC721LazyClaim.sol\":9700:9703  i++ */\n      dup1\n      dup1\n      tag_252\n      swap1\n      tag_97\n      jump\t// in\n    tag_252:\n      swap2\n      pop\n      pop\n        /* \"contracts/manifold/lazyclaim/ERC721LazyClaim.sol\":9656:9990  for (uint256 i = 0; i < indexRanges.length; i++) {... */\n      jump(tag_242)\n    tag_243:\n      pop\n        /* \"contracts/manifold/lazyclaim/ERC721LazyClaim.sol\":9465:9996  for (uint256 index=1; index <= claimCounts[creatorContractAddress]; index++) {... */\n      pop\n      pop\n        /* \"contracts/manifold/lazyclaim/ERC721LazyClaim.sol\":9533:9540  index++ */\n      dup1\n      dup1\n      tag_253\n      swap1\n      tag_97\n      jump\t// in\n    tag_253:\n      swap2\n      pop\n      pop\n        /* \"contracts/manifold/lazyclaim/ERC721LazyClaim.sol\":9465:9996  for (uint256 index=1; index <= claimCounts[creatorContractAddress]; index++) {... */\n      jump(tag_236)\n    tag_237:\n      pop\n        /* \"contracts/manifold/lazyclaim/ERC721LazyClaim.sol\":10001:10024  revert(\"Invalid token\") */\n      mload(0x40)\n      0x08c379a000000000000000000000000000000000000000000000000000000000\n      dup2\n      mstore\n      0x04\n      add\n      tag_254\n      swap1\n      tag_255\n      jump\t// in\n    tag_254:\n      mload(0x40)\n      dup1\n      swap2\n      sub\n      swap1\n      revert\n        /* \"contracts/manifold/lazyclaim/ERC721LazyClaim.sol\":9267:10029  function _getTokenClaim(address creatorContractAddress, uint256 tokenId) internal view returns(uint256) {... */\n    tag_232:\n      swap3\n      swap2\n      pop\n      pop\n      jump\t// out\n        /* \"@openzeppelin/contracts/utils/cryptography/MerkleProof.sol\":847:1031  function verify(... */\n    tag_138:\n        /* \"@openzeppelin/contracts/utils/cryptography/MerkleProof.sol\":968:972  bool */\n      0x00\n        /* \"@openzeppelin/contracts/utils/cryptography/MerkleProof.sol\":1020:1024  root */\n      dup3\n        /* \"@openzeppelin/contracts/utils/cryptography/MerkleProof.sol\":991:1016  processProof(proof, leaf) */\n      tag_257\n        /* \"@openzeppelin/contracts/utils/cryptography/MerkleProof.sol\":1004:1009  proof */\n      dup6\n        /* \"@openzeppelin/contracts/utils/cryptography/MerkleProof.sol\":1011:1015  leaf */\n      dup5\n        /* \"@openzeppelin/contracts/utils/cryptography/MerkleProof.sol\":991:1003  processProof */\n      tag_258\n        /* \"@openzeppelin/contracts/utils/cryptography/MerkleProof.sol\":991:1016  processProof(proof, leaf) */\n      jump\t// in\n    tag_257:\n        /* \"@openzeppelin/contracts/utils/cryptography/MerkleProof.sol\":991:1024  processProof(proof, leaf) == root */\n      eq\n        /* \"@openzeppelin/contracts/utils/cryptography/MerkleProof.sol\":984:1024  return processProof(proof, leaf) == root */\n      swap1\n      pop\n        /* \"@openzeppelin/contracts/utils/cryptography/MerkleProof.sol\":847:1031  function verify(... */\n      swap4\n      swap3\n      pop\n      pop\n      pop\n      jump\t// out\n        /* \"contracts/manifold/lazyclaim/ERC721LazyClaim.sol\":8419:8964  function _updateIndexRanges(address creatorContractAddress, uint256 claimIndex, uint256 start) internal {... */\n    tag_153:\n        /* \"contracts/manifold/lazyclaim/ERC721LazyClaim.sol\":8529:8561  IndexRange[] storage indexRanges */\n      0x00\n        /* \"contracts/manifold/lazyclaim/ERC721LazyClaim.sol\":8564:8575  tokenClaims */\n      0x04\n        /* \"contracts/manifold/lazyclaim/ERC721LazyClaim.sol\":8564:8599  tokenClaims[creatorContractAddress] */\n      0x00\n        /* \"contracts/manifold/lazyclaim/ERC721LazyClaim.sol\":8576:8598  creatorContractAddress */\n      dup6\n        /* \"contracts/manifold/lazyclaim/ERC721LazyClaim.sol\":8564:8599  tokenClaims[creatorContractAddress] */\n      0xffffffffffffffffffffffffffffffffffffffff\n      and\n      0xffffffffffffffffffffffffffffffffffffffff\n      and\n      dup2\n      mstore\n      0x20\n      add\n      swap1\n      dup2\n      mstore\n      0x20\n      add\n      0x00\n      keccak256\n        /* \"contracts/manifold/lazyclaim/ERC721LazyClaim.sol\":8564:8611  tokenClaims[creatorContractAddress][claimIndex] */\n      0x00\n        /* \"contracts/manifold/lazyclaim/ERC721LazyClaim.sol\":8600:8610  claimIndex */\n      dup5\n        /* \"contracts/manifold/lazyclaim/ERC721LazyClaim.sol\":8564:8611  tokenClaims[creatorContractAddress][claimIndex] */\n      dup2\n      mstore\n      0x20\n      add\n      swap1\n      dup2\n      mstore\n      0x20\n      add\n      0x00\n      keccak256\n        /* \"contracts/manifold/lazyclaim/ERC721LazyClaim.sol\":8529:8611  IndexRange[] storage indexRanges = tokenClaims[creatorContractAddress][claimIndex] */\n      swap1\n      pop\n        /* \"contracts/manifold/lazyclaim/ERC721LazyClaim.sol\":8643:8644  0 */\n      0x00\n        /* \"contracts/manifold/lazyclaim/ERC721LazyClaim.sol\":8621:8632  indexRanges */\n      dup2\n        /* \"contracts/manifold/lazyclaim/ERC721LazyClaim.sol\":8621:8639  indexRanges.length */\n      dup1\n      sload\n      swap1\n      pop\n        /* \"contracts/manifold/lazyclaim/ERC721LazyClaim.sol\":8621:8644  indexRanges.length == 0 */\n      eq\n        /* \"contracts/manifold/lazyclaim/ERC721LazyClaim.sol\":8617:8960  if (indexRanges.length == 0) {... */\n      iszero\n      tag_260\n      jumpi\n        /* \"contracts/manifold/lazyclaim/ERC721LazyClaim.sol\":8654:8665  indexRanges */\n      dup1\n        /* \"contracts/manifold/lazyclaim/ERC721LazyClaim.sol\":8671:8691  IndexRange(start, 1) */\n      mload(0x40)\n      dup1\n      0x40\n      add\n      0x40\n      mstore\n      dup1\n        /* \"contracts/manifold/lazyclaim/ERC721LazyClaim.sol\":8682:8687  start */\n      dup5\n        /* \"contracts/manifold/lazyclaim/ERC721LazyClaim.sol\":8671:8691  IndexRange(start, 1) */\n      dup2\n      mstore\n      0x20\n      add\n        /* \"contracts/manifold/lazyclaim/ERC721LazyClaim.sol\":8689:8690  1 */\n      0x01\n        /* \"contracts/manifold/lazyclaim/ERC721LazyClaim.sol\":8671:8691  IndexRange(start, 1) */\n      dup2\n      mstore\n      pop\n        /* \"contracts/manifold/lazyclaim/ERC721LazyClaim.sol\":8654:8692  indexRanges.push(IndexRange(start, 1)) */\n      swap1\n      dup1\n      0x01\n      dup2\n      sload\n      add\n      dup1\n      dup3\n      sstore\n      dup1\n      swap2\n      pop\n      pop\n      0x01\n      swap1\n      sub\n      swap1\n      0x00\n      mstore\n      keccak256(0x00, 0x20)\n      swap1\n      0x02\n      mul\n      add\n      0x00\n      swap1\n      swap2\n      swap1\n      swap2\n      swap1\n      swap2\n      pop\n      0x00\n      dup3\n      add\n      mload\n      dup2\n      0x00\n      add\n      sstore\n      0x20\n      dup3\n      add\n      mload\n      dup2\n      0x01\n      add\n      sstore\n      pop\n      pop\n        /* \"contracts/manifold/lazyclaim/ERC721LazyClaim.sol\":8617:8960  if (indexRanges.length == 0) {... */\n      jump(tag_262)\n    tag_260:\n        /* \"contracts/manifold/lazyclaim/ERC721LazyClaim.sol\":8713:8746  IndexRange storage lastIndexRange */\n      0x00\n        /* \"contracts/manifold/lazyclaim/ERC721LazyClaim.sol\":8749:8760  indexRanges */\n      dup2\n        /* \"contracts/manifold/lazyclaim/ERC721LazyClaim.sol\":8780:8781  1 */\n      0x01\n        /* \"contracts/manifold/lazyclaim/ERC721LazyClaim.sol\":8761:8772  indexRanges */\n      dup4\n        /* \"contracts/manifold/lazyclaim/ERC721LazyClaim.sol\":8761:8779  indexRanges.length */\n      dup1\n      sload\n      swap1\n      pop\n        /* \"contracts/manifold/lazyclaim/ERC721LazyClaim.sol\":8761:8781  indexRanges.length-1 */\n      tag_263\n      swap2\n      swap1\n      tag_264\n      jump\t// in\n    tag_263:\n        /* \"contracts/manifold/lazyclaim/ERC721LazyClaim.sol\":8749:8782  indexRanges[indexRanges.length-1] */\n      dup2\n      sload\n      dup2\n      lt\n      tag_265\n      jumpi\n      mstore(0x00, 0x4e487b7100000000000000000000000000000000000000000000000000000000)\n      mstore(0x04, 0x32)\n      revert(0x00, 0x24)\n    tag_265:\n      swap1\n      0x00\n      mstore\n      keccak256(0x00, 0x20)\n      swap1\n      0x02\n      mul\n      add\n        /* \"contracts/manifold/lazyclaim/ERC721LazyClaim.sol\":8713:8782  IndexRange storage lastIndexRange = indexRanges[indexRanges.length-1] */\n      swap1\n      pop\n        /* \"contracts/manifold/lazyclaim/ERC721LazyClaim.sol\":8843:8848  start */\n      dup3\n        /* \"contracts/manifold/lazyclaim/ERC721LazyClaim.sol\":8818:8832  lastIndexRange */\n      dup2\n        /* \"contracts/manifold/lazyclaim/ERC721LazyClaim.sol\":8818:8838  lastIndexRange.count */\n      0x01\n      add\n      sload\n        /* \"contracts/manifold/lazyclaim/ERC721LazyClaim.sol\":8795:8809  lastIndexRange */\n      dup3\n        /* \"contracts/manifold/lazyclaim/ERC721LazyClaim.sol\":8795:8815  lastIndexRange.start */\n      0x00\n      add\n      sload\n        /* \"contracts/manifold/lazyclaim/ERC721LazyClaim.sol\":8795:8838  lastIndexRange.start + lastIndexRange.count */\n      tag_267\n      swap2\n      swap1\n      tag_249\n      jump\t// in\n    tag_267:\n        /* \"contracts/manifold/lazyclaim/ERC721LazyClaim.sol\":8794:8848  (lastIndexRange.start + lastIndexRange.count) == start */\n      eq\n        /* \"contracts/manifold/lazyclaim/ERC721LazyClaim.sol\":8790:8954  if ((lastIndexRange.start + lastIndexRange.count) == start) {... */\n      iszero\n      tag_268\n      jumpi\n        /* \"contracts/manifold/lazyclaim/ERC721LazyClaim.sol\":8860:8874  lastIndexRange */\n      dup1\n        /* \"contracts/manifold/lazyclaim/ERC721LazyClaim.sol\":8860:8880  lastIndexRange.count */\n      0x01\n      add\n      0x00\n        /* \"contracts/manifold/lazyclaim/ERC721LazyClaim.sol\":8860:8882  lastIndexRange.count++ */\n      dup2\n      sload\n      dup1\n      swap3\n      swap2\n      swap1\n      tag_269\n      swap1\n      tag_97\n      jump\t// in\n    tag_269:\n      swap2\n      swap1\n      pop\n      sstore\n      pop\n        /* \"contracts/manifold/lazyclaim/ERC721LazyClaim.sol\":8790:8954  if ((lastIndexRange.start + lastIndexRange.count) == start) {... */\n      jump(tag_270)\n    tag_268:\n        /* \"contracts/manifold/lazyclaim/ERC721LazyClaim.sol\":8907:8918  indexRanges */\n      dup2\n        /* \"contracts/manifold/lazyclaim/ERC721LazyClaim.sol\":8924:8944  IndexRange(start, 1) */\n      mload(0x40)\n      dup1\n      0x40\n      add\n      0x40\n      mstore\n      dup1\n        /* \"contracts/manifold/lazyclaim/ERC721LazyClaim.sol\":8935:8940  start */\n      dup6\n        /* \"contracts/manifold/lazyclaim/ERC721LazyClaim.sol\":8924:8944  IndexRange(start, 1) */\n      dup2\n      mstore\n      0x20\n      add\n        /* \"contracts/manifold/lazyclaim/ERC721LazyClaim.sol\":8942:8943  1 */\n      0x01\n        /* \"contracts/manifold/lazyclaim/ERC721LazyClaim.sol\":8924:8944  IndexRange(start, 1) */\n      dup2\n      mstore\n      pop\n        /* \"contracts/manifold/lazyclaim/ERC721LazyClaim.sol\":8907:8945  indexRanges.push(IndexRange(start, 1)) */\n      swap1\n      dup1\n      0x01\n      dup2\n      sload\n      add\n      dup1\n      dup3\n      sstore\n      dup1\n      swap2\n      pop\n      pop\n      0x01\n      swap1\n      sub\n      swap1\n      0x00\n      mstore\n      keccak256(0x00, 0x20)\n      swap1\n      0x02\n      mul\n      add\n      0x00\n      swap1\n      swap2\n      swap1\n      swap2\n      swap1\n      swap2\n      pop\n      0x00\n      dup3\n      add\n      mload\n      dup2\n      0x00\n      add\n      sstore\n      0x20\n      dup3\n      add\n      mload\n      dup2\n      0x01\n      add\n      sstore\n      pop\n      pop\n        /* \"contracts/manifold/lazyclaim/ERC721LazyClaim.sol\":8790:8954  if ((lastIndexRange.start + lastIndexRange.count) == start) {... */\n    tag_270:\n        /* \"contracts/manifold/lazyclaim/ERC721LazyClaim.sol\":8617:8960  if (indexRanges.length == 0) {... */\n      pop\n    tag_262:\n        /* \"contracts/manifold/lazyclaim/ERC721LazyClaim.sol\":8419:8964  function _updateIndexRanges(address creatorContractAddress, uint256 claimIndex, uint256 start) internal {... */\n      pop\n      pop\n      pop\n      pop\n      jump\t// out\n        /* \"@openzeppelin/contracts/utils/Strings.sol\":328:1031  function toString(uint256 value) internal pure returns (string memory) {... */\n    tag_215:\n        /* \"@openzeppelin/contracts/utils/Strings.sol\":384:397  string memory */\n      0x60\n        /* \"@openzeppelin/contracts/utils/Strings.sol\":610:611  0 */\n      0x00\n        /* \"@openzeppelin/contracts/utils/Strings.sol\":601:606  value */\n      dup3\n        /* \"@openzeppelin/contracts/utils/Strings.sol\":601:611  value == 0 */\n      eq\n        /* \"@openzeppelin/contracts/utils/Strings.sol\":597:648  if (value == 0) {... */\n      iszero\n      tag_273\n      jumpi\n        /* \"@openzeppelin/contracts/utils/Strings.sol\":627:637  return \"0\" */\n      mload(0x40)\n      dup1\n      0x40\n      add\n      0x40\n      mstore\n      dup1\n      0x01\n      dup2\n      mstore\n      0x20\n      add\n      0x3000000000000000000000000000000000000000000000000000000000000000\n      dup2\n      mstore\n      pop\n      swap1\n      pop\n      jump(tag_272)\n        /* \"@openzeppelin/contracts/utils/Strings.sol\":597:648  if (value == 0) {... */\n    tag_273:\n        /* \"@openzeppelin/contracts/utils/Strings.sol\":657:669  uint256 temp */\n      0x00\n        /* \"@openzeppelin/contracts/utils/Strings.sol\":672:677  value */\n      dup3\n        /* \"@openzeppelin/contracts/utils/Strings.sol\":657:677  uint256 temp = value */\n      swap1\n      pop\n        /* \"@openzeppelin/contracts/utils/Strings.sol\":687:701  uint256 digits */\n      0x00\n        /* \"@openzeppelin/contracts/utils/Strings.sol\":711:786  while (temp != 0) {... */\n    tag_274:\n        /* \"@openzeppelin/contracts/utils/Strings.sol\":726:727  0 */\n      0x00\n        /* \"@openzeppelin/contracts/utils/Strings.sol\":718:722  temp */\n      dup3\n        /* \"@openzeppelin/contracts/utils/Strings.sol\":718:727  temp != 0 */\n      eq\n        /* \"@openzeppelin/contracts/utils/Strings.sol\":711:786  while (temp != 0) {... */\n      tag_275\n      jumpi\n        /* \"@openzeppelin/contracts/utils/Strings.sol\":743:751  digits++ */\n      dup1\n      dup1\n      tag_276\n      swap1\n      tag_97\n      jump\t// in\n    tag_276:\n      swap2\n      pop\n      pop\n        /* \"@openzeppelin/contracts/utils/Strings.sol\":773:775  10 */\n      0x0a\n        /* \"@openzeppelin/contracts/utils/Strings.sol\":765:775  temp /= 10 */\n      dup3\n      tag_277\n      swap2\n      swap1\n      tag_278\n      jump\t// in\n    tag_277:\n      swap2\n      pop\n        /* \"@openzeppelin/contracts/utils/Strings.sol\":711:786  while (temp != 0) {... */\n      jump(tag_274)\n    tag_275:\n        /* \"@openzeppelin/contracts/utils/Strings.sol\":795:814  bytes memory buffer */\n      0x00\n        /* \"@openzeppelin/contracts/utils/Strings.sol\":827:833  digits */\n      dup2\n        /* \"@openzeppelin/contracts/utils/Strings.sol\":817:834  new bytes(digits) */\n      0xffffffffffffffff\n      dup2\n      gt\n      iszero\n      tag_279\n      jumpi\n      mstore(0x00, 0x4e487b7100000000000000000000000000000000000000000000000000000000)\n      mstore(0x04, 0x41)\n      revert(0x00, 0x24)\n    tag_279:\n      mload(0x40)\n      swap1\n      dup1\n      dup3\n      mstore\n      dup1\n      0x1f\n      add\n      not(0x1f)\n      and\n      0x20\n      add\n      dup3\n      add\n      0x40\n      mstore\n      dup1\n      iszero\n      tag_280\n      jumpi\n      dup2\n      0x20\n      add\n      0x01\n      dup3\n      mul\n      dup1\n      calldatasize\n      dup4\n      calldatacopy\n      dup1\n      dup3\n      add\n      swap2\n      pop\n      pop\n      swap1\n      pop\n    tag_280:\n      pop\n        /* \"@openzeppelin/contracts/utils/Strings.sol\":795:834  bytes memory buffer = new bytes(digits) */\n      swap1\n      pop\n        /* \"@openzeppelin/contracts/utils/Strings.sol\":844:994  while (value != 0) {... */\n    tag_281:\n        /* \"@openzeppelin/contracts/utils/Strings.sol\":860:861  0 */\n      0x00\n        /* \"@openzeppelin/contracts/utils/Strings.sol\":851:856  value */\n      dup6\n        /* \"@openzeppelin/contracts/utils/Strings.sol\":851:861  value != 0 */\n      eq\n        /* \"@openzeppelin/contracts/utils/Strings.sol\":844:994  while (value != 0) {... */\n      tag_282\n      jumpi\n        /* \"@openzeppelin/contracts/utils/Strings.sol\":887:888  1 */\n      0x01\n        /* \"@openzeppelin/contracts/utils/Strings.sol\":877:888  digits -= 1 */\n      dup3\n      tag_283\n      swap2\n      swap1\n      tag_264\n      jump\t// in\n    tag_283:\n      swap2\n      pop\n        /* \"@openzeppelin/contracts/utils/Strings.sol\":953:955  10 */\n      0x0a\n        /* \"@openzeppelin/contracts/utils/Strings.sol\":945:950  value */\n      dup6\n        /* \"@openzeppelin/contracts/utils/Strings.sol\":945:955  value % 10 */\n      tag_284\n      swap2\n      swap1\n      tag_285\n      jump\t// in\n    tag_284:\n        /* \"@openzeppelin/contracts/utils/Strings.sol\":932:934  48 */\n      0x30\n        /* \"@openzeppelin/contracts/utils/Strings.sol\":932:956  48 + uint256(value % 10) */\n      tag_286\n      swap2\n      swap1\n      tag_249\n      jump\t// in\n    tag_286:\n        /* \"@openzeppelin/contracts/utils/Strings.sol\":919:958  bytes1(uint8(48 + uint256(value % 10))) */\n      0xf8\n      shl\n        /* \"@openzeppelin/contracts/utils/Strings.sol\":902:908  buffer */\n      dup2\n        /* \"@openzeppelin/contracts/utils/Strings.sol\":909:915  digits */\n      dup4\n        /* \"@openzeppelin/contracts/utils/Strings.sol\":902:916  buffer[digits] */\n      dup2\n      mload\n      dup2\n      lt\n      tag_287\n      jumpi\n      mstore(0x00, 0x4e487b7100000000000000000000000000000000000000000000000000000000)\n      mstore(0x04, 0x32)\n      revert(0x00, 0x24)\n    tag_287:\n      0x20\n      add\n      add\n        /* \"@openzeppelin/contracts/utils/Strings.sol\":902:958  buffer[digits] = bytes1(uint8(48 + uint256(value % 10))) */\n      swap1\n      not(0xffffffffffffffffffffffffffffffffffffffffffffffffffffffffffffff)\n      and\n      swap1\n      dup2\n      0x00\n      byte\n      swap1\n      mstore8\n      pop\n        /* \"@openzeppelin/contracts/utils/Strings.sol\":981:983  10 */\n      0x0a\n        /* \"@openzeppelin/contracts/utils/Strings.sol\":972:983  value /= 10 */\n      dup6\n      tag_288\n      swap2\n      swap1\n      tag_278\n      jump\t// in\n    tag_288:\n      swap5\n      pop\n        /* \"@openzeppelin/contracts/utils/Strings.sol\":844:994  while (value != 0) {... */\n      jump(tag_281)\n    tag_282:\n        /* \"@openzeppelin/contracts/utils/Strings.sol\":1017:1023  buffer */\n      dup1\n        /* \"@openzeppelin/contracts/utils/Strings.sol\":1003:1024  return string(buffer) */\n      swap4\n      pop\n      pop\n      pop\n      pop\n        /* \"@openzeppelin/contracts/utils/Strings.sol\":328:1031  function toString(uint256 value) internal pure returns (string memory) {... */\n    tag_272:\n      swap2\n      swap1\n      pop\n      jump\t// out\n        /* \"@openzeppelin/contracts/utils/cryptography/MerkleProof.sol\":1383:2071  function processProof(bytes32[] memory proof, bytes32 leaf) internal pure returns (bytes32) {... */\n    tag_258:\n        /* \"@openzeppelin/contracts/utils/cryptography/MerkleProof.sol\":1466:1473  bytes32 */\n      0x00\n        /* \"@openzeppelin/contracts/utils/cryptography/MerkleProof.sol\":1485:1505  bytes32 computedHash */\n      dup1\n        /* \"@openzeppelin/contracts/utils/cryptography/MerkleProof.sol\":1508:1512  leaf */\n      dup3\n        /* \"@openzeppelin/contracts/utils/cryptography/MerkleProof.sol\":1485:1512  bytes32 computedHash = leaf */\n      swap1\n      pop\n        /* \"@openzeppelin/contracts/utils/cryptography/MerkleProof.sol\":1527:1536  uint256 i */\n      0x00\n        /* \"@openzeppelin/contracts/utils/cryptography/MerkleProof.sol\":1522:2036  for (uint256 i = 0; i < proof.length; i++) {... */\n    tag_290:\n        /* \"@openzeppelin/contracts/utils/cryptography/MerkleProof.sol\":1546:1551  proof */\n      dup5\n        /* \"@openzeppelin/contracts/utils/cryptography/MerkleProof.sol\":1546:1558  proof.length */\n      mload\n        /* \"@openzeppelin/contracts/utils/cryptography/MerkleProof.sol\":1542:1543  i */\n      dup2\n        /* \"@openzeppelin/contracts/utils/cryptography/MerkleProof.sol\":1542:1558  i < proof.length */\n      lt\n        /* \"@openzeppelin/contracts/utils/cryptography/MerkleProof.sol\":1522:2036  for (uint256 i = 0; i < proof.length; i++) {... */\n      iszero\n      tag_291\n      jumpi\n        /* \"@openzeppelin/contracts/utils/cryptography/MerkleProof.sol\":1579:1599  bytes32 proofElement */\n      0x00\n        /* \"@openzeppelin/contracts/utils/cryptography/MerkleProof.sol\":1602:1607  proof */\n      dup6\n        /* \"@openzeppelin/contracts/utils/cryptography/MerkleProof.sol\":1608:1609  i */\n      dup3\n        /* \"@openzeppelin/contracts/utils/cryptography/MerkleProof.sol\":1602:1610  proof[i] */\n      dup2\n      mload\n      dup2\n      lt\n      tag_293\n      jumpi\n      mstore(0x00, 0x4e487b7100000000000000000000000000000000000000000000000000000000)\n      mstore(0x04, 0x32)\n      revert(0x00, 0x24)\n    tag_293:\n      0x20\n      mul\n      0x20\n      add\n      add\n      mload\n        /* \"@openzeppelin/contracts/utils/cryptography/MerkleProof.sol\":1579:1610  bytes32 proofElement = proof[i] */\n      swap1\n      pop\n        /* \"@openzeppelin/contracts/utils/cryptography/MerkleProof.sol\":1644:1656  proofElement */\n      dup1\n        /* \"@openzeppelin/contracts/utils/cryptography/MerkleProof.sol\":1628:1640  computedHash */\n      dup4\n        /* \"@openzeppelin/contracts/utils/cryptography/MerkleProof.sol\":1628:1656  computedHash <= proofElement */\n      gt\n        /* \"@openzeppelin/contracts/utils/cryptography/MerkleProof.sol\":1624:2026  if (computedHash <= proofElement) {... */\n      tag_294\n      jumpi\n        /* \"@openzeppelin/contracts/utils/cryptography/MerkleProof.sol\":1796:1808  computedHash */\n      dup3\n        /* \"@openzeppelin/contracts/utils/cryptography/MerkleProof.sol\":1810:1822  proofElement */\n      dup2\n        /* \"@openzeppelin/contracts/utils/cryptography/MerkleProof.sol\":1779:1823  abi.encodePacked(computedHash, proofElement) */\n      add(0x20, mload(0x40))\n      tag_295\n      swap3\n      swap2\n      swap1\n      tag_296\n      jump\t// in\n    tag_295:\n      mload(0x40)\n      0x20\n      dup2\n      dup4\n      sub\n      sub\n      dup2\n      mstore\n      swap1\n      0x40\n      mstore\n        /* \"@openzeppelin/contracts/utils/cryptography/MerkleProof.sol\":1769:1824  keccak256(abi.encodePacked(computedHash, proofElement)) */\n      dup1\n      mload\n      swap1\n      0x20\n      add\n      keccak256\n        /* \"@openzeppelin/contracts/utils/cryptography/MerkleProof.sol\":1754:1824  computedHash = keccak256(abi.encodePacked(computedHash, proofElement)) */\n      swap3\n      pop\n        /* \"@openzeppelin/contracts/utils/cryptography/MerkleProof.sol\":1624:2026  if (computedHash <= proofElement) {... */\n      jump(tag_297)\n    tag_294:\n        /* \"@openzeppelin/contracts/utils/cryptography/MerkleProof.sol\":1983:1995  proofElement */\n      dup1\n        /* \"@openzeppelin/contracts/utils/cryptography/MerkleProof.sol\":1997:2009  computedHash */\n      dup4\n        /* \"@openzeppelin/contracts/utils/cryptography/MerkleProof.sol\":1966:2010  abi.encodePacked(proofElement, computedHash) */\n      add(0x20, mload(0x40))\n      tag_298\n      swap3\n      swap2\n      swap1\n      tag_296\n      jump\t// in\n    tag_298:\n      mload(0x40)\n      0x20\n      dup2\n      dup4\n      sub\n      sub\n      dup2\n      mstore\n      swap1\n      0x40\n      mstore\n        /* \"@openzeppelin/contracts/utils/cryptography/MerkleProof.sol\":1956:2011  keccak256(abi.encodePacked(proofElement, computedHash)) */\n      dup1\n      mload\n      swap1\n      0x20\n      add\n      keccak256\n        /* \"@openzeppelin/contracts/utils/cryptography/MerkleProof.sol\":1941:2011  computedHash = keccak256(abi.encodePacked(proofElement, computedHash)) */\n      swap3\n      pop\n        /* \"@openzeppelin/contracts/utils/cryptography/MerkleProof.sol\":1624:2026  if (computedHash <= proofElement) {... */\n    tag_297:\n        /* \"@openzeppelin/contracts/utils/cryptography/MerkleProof.sol\":1522:2036  for (uint256 i = 0; i < proof.length; i++) {... */\n      pop\n        /* \"@openzeppelin/contracts/utils/cryptography/MerkleProof.sol\":1560:1563  i++ */\n      dup1\n      dup1\n      tag_299\n      swap1\n      tag_97\n      jump\t// in\n    tag_299:\n      swap2\n      pop\n      pop\n        /* \"@openzeppelin/contracts/utils/cryptography/MerkleProof.sol\":1522:2036  for (uint256 i = 0; i < proof.length; i++) {... */\n      jump(tag_290)\n    tag_291:\n      pop\n        /* \"@openzeppelin/contracts/utils/cryptography/MerkleProof.sol\":2052:2064  computedHash */\n      dup1\n        /* \"@openzeppelin/contracts/utils/cryptography/MerkleProof.sol\":2045:2064  return computedHash */\n      swap2\n      pop\n      pop\n        /* \"@openzeppelin/contracts/utils/cryptography/MerkleProof.sol\":1383:2071  function processProof(bytes32[] memory proof, bytes32 leaf) internal pure returns (bytes32) {... */\n      swap3\n      swap2\n      pop\n      pop\n      jump\t// out\n    tag_110:\n      dup3\n      dup1\n      sload\n      tag_300\n      swap1\n      tag_114\n      jump\t// in\n    tag_300:\n      swap1\n      0x00\n      mstore\n      keccak256(0x00, 0x20)\n      swap1\n      0x1f\n      add\n      0x20\n      swap1\n      div\n      dup2\n      add\n      swap3\n      dup3\n      tag_302\n      jumpi\n      0x00\n      dup6\n      sstore\n      jump(tag_301)\n    tag_302:\n      dup3\n      0x1f\n      lt\n      tag_303\n      jumpi\n      dup1\n      mload\n      not(0xff)\n      and\n      dup4\n      dup1\n      add\n      or\n      dup6\n      sstore\n      jump(tag_301)\n    tag_303:\n      dup3\n      dup1\n      add\n      0x01\n      add\n      dup6\n      sstore\n      dup3\n      iszero\n      tag_301\n      jumpi\n      swap2\n      dup3\n      add\n    tag_304:\n      dup3\n      dup2\n      gt\n      iszero\n      tag_305\n      jumpi\n      dup3\n      mload\n      dup3\n      sstore\n      swap2\n      0x20\n      add\n      swap2\n      swap1\n      0x01\n      add\n      swap1\n      jump(tag_304)\n    tag_305:\n    tag_301:\n      pop\n      swap1\n      pop\n      tag_306\n      swap2\n      swap1\n      tag_307\n      jump\t// in\n    tag_306:\n      pop\n      swap1\n      jump\t// out\n    tag_157:\n      mload(0x40)\n      dup1\n      0x0120\n      add\n      0x40\n      mstore\n      dup1\n      and(0xffffffff, 0x00)\n      dup2\n      mstore\n      0x20\n      add\n      and(0xffffffff, 0x00)\n      dup2\n      mstore\n      0x20\n      add\n      and(0xffffffff, 0x00)\n      dup2\n      mstore\n      0x20\n      add\n      and(0xffffffffffff, 0x00)\n      dup2\n      mstore\n      0x20\n      add\n      and(0xffffffffffff, 0x00)\n      dup2\n      mstore\n      0x20\n      add\n      0x00\n      0x02\n      dup2\n      gt\n      iszero\n      tag_308\n      jumpi\n      mstore(0x00, 0x4e487b7100000000000000000000000000000000000000000000000000000000)\n      mstore(0x04, 0x21)\n      revert(0x00, 0x24)\n    tag_308:\n      dup2\n      mstore\n      0x20\n      add\n      iszero(iszero(0x00))\n      dup2\n      mstore\n      0x20\n      add\n      0x00\n      dup1\n      not\n      and\n      dup2\n      mstore\n      0x20\n      add\n      0x60\n      dup2\n      mstore\n      pop\n      swap1\n      jump\t// out\n    tag_307:\n    tag_309:\n      dup1\n      dup3\n      gt\n      iszero\n      tag_310\n      jumpi\n      0x00\n      dup2\n      0x00\n      swap1\n      sstore\n      pop\n      0x01\n      add\n      jump(tag_309)\n    tag_310:\n      pop\n      swap1\n      jump\t// out\n        /* \"#utility.yul\":7:146   */\n    tag_312:\n      0x00\n        /* \"#utility.yul\":91:97   */\n      dup2\n        /* \"#utility.yul\":78:98   */\n      calldataload\n        /* \"#utility.yul\":69:98   */\n      swap1\n      pop\n        /* \"#utility.yul\":107:140   */\n      tag_314\n        /* \"#utility.yul\":134:139   */\n      dup2\n        /* \"#utility.yul\":107:140   */\n      tag_315\n      jump\t// in\n    tag_314:\n        /* \"#utility.yul\":59:146   */\n      swap3\n      swap2\n      pop\n      pop\n      jump\t// out\n        /* \"#utility.yul\":169:536   */\n    tag_316:\n      0x00\n      dup1\n        /* \"#utility.yul\":302:305   */\n      dup4\n        /* \"#utility.yul\":295:299   */\n      0x1f\n        /* \"#utility.yul\":287:293   */\n      dup5\n        /* \"#utility.yul\":283:300   */\n      add\n        /* \"#utility.yul\":279:306   */\n      slt\n        /* \"#utility.yul\":269:271   */\n      tag_318\n      jumpi\n        /* \"#utility.yul\":320:321   */\n      0x00\n        /* \"#utility.yul\":317:318   */\n      dup1\n        /* \"#utility.yul\":310:322   */\n      revert\n        /* \"#utility.yul\":269:271   */\n    tag_318:\n        /* \"#utility.yul\":356:362   */\n      dup3\n        /* \"#utility.yul\":343:363   */\n      calldataload\n        /* \"#utility.yul\":333:363   */\n      swap1\n      pop\n        /* \"#utility.yul\":386:404   */\n      0xffffffffffffffff\n        /* \"#utility.yul\":378:384   */\n      dup2\n        /* \"#utility.yul\":375:405   */\n      gt\n        /* \"#utility.yul\":372:374   */\n      iszero\n      tag_319\n      jumpi\n        /* \"#utility.yul\":418:419   */\n      0x00\n        /* \"#utility.yul\":415:416   */\n      dup1\n        /* \"#utility.yul\":408:420   */\n      revert\n        /* \"#utility.yul\":372:374   */\n    tag_319:\n        /* \"#utility.yul\":455:459   */\n      0x20\n        /* \"#utility.yul\":447:453   */\n      dup4\n        /* \"#utility.yul\":443:460   */\n      add\n        /* \"#utility.yul\":431:460   */\n      swap2\n      pop\n        /* \"#utility.yul\":509:512   */\n      dup4\n        /* \"#utility.yul\":501:505   */\n      0x20\n        /* \"#utility.yul\":493:499   */\n      dup3\n        /* \"#utility.yul\":489:506   */\n      mul\n        /* \"#utility.yul\":479:487   */\n      dup4\n        /* \"#utility.yul\":475:507   */\n      add\n        /* \"#utility.yul\":472:513   */\n      gt\n        /* \"#utility.yul\":469:471   */\n      iszero\n      tag_320\n      jumpi\n        /* \"#utility.yul\":526:527   */\n      0x00\n        /* \"#utility.yul\":523:524   */\n      dup1\n        /* \"#utility.yul\":516:528   */\n      revert\n        /* \"#utility.yul\":469:471   */\n    tag_320:\n        /* \"#utility.yul\":259:536   */\n      swap3\n      pop\n      swap3\n      swap1\n      pop\n      jump\t// out\n        /* \"#utility.yul\":542:675   */\n    tag_321:\n      0x00\n        /* \"#utility.yul\":623:629   */\n      dup2\n        /* \"#utility.yul\":610:630   */\n      calldataload\n        /* \"#utility.yul\":601:630   */\n      swap1\n      pop\n        /* \"#utility.yul\":639:669   */\n      tag_323\n        /* \"#utility.yul\":663:668   */\n      dup2\n        /* \"#utility.yul\":639:669   */\n      tag_324\n      jump\t// in\n    tag_323:\n        /* \"#utility.yul\":591:675   */\n      swap3\n      swap2\n      pop\n      pop\n      jump\t// out\n        /* \"#utility.yul\":681:818   */\n    tag_325:\n      0x00\n        /* \"#utility.yul\":766:772   */\n      dup2\n        /* \"#utility.yul\":760:773   */\n      mload\n        /* \"#utility.yul\":751:773   */\n      swap1\n      pop\n        /* \"#utility.yul\":782:812   */\n      tag_327\n        /* \"#utility.yul\":806:811   */\n      dup2\n        /* \"#utility.yul\":782:812   */\n      tag_324\n      jump\t// in\n    tag_327:\n        /* \"#utility.yul\":741:818   */\n      swap3\n      swap2\n      pop\n      pop\n      jump\t// out\n        /* \"#utility.yul\":824:961   */\n    tag_328:\n      0x00\n        /* \"#utility.yul\":907:913   */\n      dup2\n        /* \"#utility.yul\":894:914   */\n      calldataload\n        /* \"#utility.yul\":885:914   */\n      swap1\n      pop\n        /* \"#utility.yul\":923:955   */\n      tag_330\n        /* \"#utility.yul\":949:954   */\n      dup2\n        /* \"#utility.yul\":923:955   */\n      tag_331\n      jump\t// in\n    tag_330:\n        /* \"#utility.yul\":875:961   */\n      swap3\n      swap2\n      pop\n      pop\n      jump\t// out\n        /* \"#utility.yul\":967:1146   */\n    tag_332:\n      0x00\n        /* \"#utility.yul\":1071:1077   */\n      dup2\n        /* \"#utility.yul\":1058:1078   */\n      calldataload\n        /* \"#utility.yul\":1049:1078   */\n      swap1\n      pop\n        /* \"#utility.yul\":1087:1140   */\n      tag_334\n        /* \"#utility.yul\":1134:1139   */\n      dup2\n        /* \"#utility.yul\":1087:1140   */\n      tag_335\n      jump\t// in\n    tag_334:\n        /* \"#utility.yul\":1039:1146   */\n      swap3\n      swap2\n      pop\n      pop\n      jump\t// out\n        /* \"#utility.yul\":1199:1372   */\n    tag_336:\n      0x00\n        /* \"#utility.yul\":1321:1324   */\n      0x0100\n        /* \"#utility.yul\":1312:1318   */\n      dup3\n        /* \"#utility.yul\":1307:1310   */\n      dup5\n        /* \"#utility.yul\":1303:1319   */\n      sub\n        /* \"#utility.yul\":1299:1325   */\n      slt\n        /* \"#utility.yul\":1296:1298   */\n      iszero\n      tag_338\n      jumpi\n        /* \"#utility.yul\":1338:1339   */\n      0x00\n        /* \"#utility.yul\":1335:1336   */\n      dup1\n        /* \"#utility.yul\":1328:1340   */\n      revert\n        /* \"#utility.yul\":1296:1298   */\n    tag_338:\n        /* \"#utility.yul\":1360:1366   */\n      dup2\n        /* \"#utility.yul\":1351:1366   */\n      swap1\n      pop\n        /* \"#utility.yul\":1286:1372   */\n      swap3\n      swap2\n      pop\n      pop\n      jump\t// out\n        /* \"#utility.yul\":1378:1517   */\n    tag_339:\n      0x00\n        /* \"#utility.yul\":1462:1468   */\n      dup2\n        /* \"#utility.yul\":1449:1469   */\n      calldataload\n        /* \"#utility.yul\":1440:1469   */\n      swap1\n      pop\n        /* \"#utility.yul\":1478:1511   */\n      tag_341\n        /* \"#utility.yul\":1505:1510   */\n      dup2\n        /* \"#utility.yul\":1478:1511   */\n      tag_342\n      jump\t// in\n    tag_341:\n        /* \"#utility.yul\":1430:1517   */\n      swap3\n      swap2\n      pop\n      pop\n      jump\t// out\n        /* \"#utility.yul\":1523:1666   */\n    tag_343:\n      0x00\n        /* \"#utility.yul\":1611:1617   */\n      dup2\n        /* \"#utility.yul\":1605:1618   */\n      mload\n        /* \"#utility.yul\":1596:1618   */\n      swap1\n      pop\n        /* \"#utility.yul\":1627:1660   */\n      tag_345\n        /* \"#utility.yul\":1654:1659   */\n      dup2\n        /* \"#utility.yul\":1627:1660   */\n      tag_342\n      jump\t// in\n    tag_345:\n        /* \"#utility.yul\":1586:1666   */\n      swap3\n      swap2\n      pop\n      pop\n      jump\t// out\n        /* \"#utility.yul\":1672:1809   */\n    tag_346:\n      0x00\n        /* \"#utility.yul\":1755:1761   */\n      dup2\n        /* \"#utility.yul\":1742:1762   */\n      calldataload\n        /* \"#utility.yul\":1733:1762   */\n      swap1\n      pop\n        /* \"#utility.yul\":1771:1803   */\n      tag_348\n        /* \"#utility.yul\":1797:1802   */\n      dup2\n        /* \"#utility.yul\":1771:1803   */\n      tag_349\n      jump\t// in\n    tag_348:\n        /* \"#utility.yul\":1723:1809   */\n      swap3\n      swap2\n      pop\n      pop\n      jump\t// out\n        /* \"#utility.yul\":1815:1952   */\n    tag_350:\n      0x00\n        /* \"#utility.yul\":1898:1904   */\n      dup2\n        /* \"#utility.yul\":1885:1905   */\n      calldataload\n        /* \"#utility.yul\":1876:1905   */\n      swap1\n      pop\n        /* \"#utility.yul\":1914:1946   */\n      tag_352\n        /* \"#utility.yul\":1940:1945   */\n      dup2\n        /* \"#utility.yul\":1914:1946   */\n      tag_353\n      jump\t// in\n    tag_352:\n        /* \"#utility.yul\":1866:1952   */\n      swap3\n      swap2\n      pop\n      pop\n      jump\t// out\n        /* \"#utility.yul\":1958:2220   */\n    tag_52:\n      0x00\n        /* \"#utility.yul\":2066:2068   */\n      0x20\n        /* \"#utility.yul\":2054:2063   */\n      dup3\n        /* \"#utility.yul\":2045:2052   */\n      dup5\n        /* \"#utility.yul\":2041:2064   */\n      sub\n        /* \"#utility.yul\":2037:2069   */\n      slt\n        /* \"#utility.yul\":2034:2036   */\n      iszero\n      tag_355\n      jumpi\n        /* \"#utility.yul\":2082:2083   */\n      0x00\n        /* \"#utility.yul\":2079:2080   */\n      dup1\n        /* \"#utility.yul\":2072:2084   */\n      revert\n        /* \"#utility.yul\":2034:2036   */\n    tag_355:\n        /* \"#utility.yul\":2125:2126   */\n      0x00\n        /* \"#utility.yul\":2150:2203   */\n      tag_356\n        /* \"#utility.yul\":2195:2202   */\n      dup5\n        /* \"#utility.yul\":2186:2192   */\n      dup3\n        /* \"#utility.yul\":2175:2184   */\n      dup6\n        /* \"#utility.yul\":2171:2193   */\n      add\n        /* \"#utility.yul\":2150:2203   */\n      tag_312\n      jump\t// in\n    tag_356:\n        /* \"#utility.yul\":2140:2203   */\n      swap2\n      pop\n        /* \"#utility.yul\":2096:2213   */\n      pop\n        /* \"#utility.yul\":2024:2220   */\n      swap3\n      swap2\n      pop\n      pop\n      jump\t// out\n        /* \"#utility.yul\":2226:2796   */\n    tag_27:\n      0x00\n      dup1\n        /* \"#utility.yul\":2386:2388   */\n      0x40\n        /* \"#utility.yul\":2374:2383   */\n      dup4\n        /* \"#utility.yul\":2365:2372   */\n      dup6\n        /* \"#utility.yul\":2361:2384   */\n      sub\n        /* \"#utility.yul\":2357:2389   */\n      slt\n        /* \"#utility.yul\":2354:2356   */\n      iszero\n      tag_358\n      jumpi\n        /* \"#utility.yul\":2402:2403   */\n      0x00\n        /* \"#utility.yul\":2399:2400   */\n      dup1\n        /* \"#utility.yul\":2392:2404   */\n      revert\n        /* \"#utility.yul\":2354:2356   */\n    tag_358:\n        /* \"#utility.yul\":2445:2446   */\n      0x00\n        /* \"#utility.yul\":2470:2523   */\n      tag_359\n        /* \"#utility.yul\":2515:2522   */\n      dup6\n        /* \"#utility.yul\":2506:2512   */\n      dup3\n        /* \"#utility.yul\":2495:2504   */\n      dup7\n        /* \"#utility.yul\":2491:2513   */\n      add\n        /* \"#utility.yul\":2470:2523   */\n      tag_312\n      jump\t// in\n    tag_359:\n        /* \"#utility.yul\":2460:2523   */\n      swap3\n      pop\n        /* \"#utility.yul\":2416:2533   */\n      pop\n        /* \"#utility.yul\":2600:2602   */\n      0x20\n        /* \"#utility.yul\":2589:2598   */\n      dup4\n        /* \"#utility.yul\":2585:2603   */\n      add\n        /* \"#utility.yul\":2572:2604   */\n      calldataload\n        /* \"#utility.yul\":2631:2649   */\n      0xffffffffffffffff\n        /* \"#utility.yul\":2623:2629   */\n      dup2\n        /* \"#utility.yul\":2620:2650   */\n      gt\n        /* \"#utility.yul\":2617:2619   */\n      iszero\n      tag_360\n      jumpi\n        /* \"#utility.yul\":2663:2664   */\n      0x00\n        /* \"#utility.yul\":2660:2661   */\n      dup1\n        /* \"#utility.yul\":2653:2665   */\n      revert\n        /* \"#utility.yul\":2617:2619   */\n    tag_360:\n        /* \"#utility.yul\":2691:2779   */\n      tag_361\n        /* \"#utility.yul\":2771:2778   */\n      dup6\n        /* \"#utility.yul\":2762:2768   */\n      dup3\n        /* \"#utility.yul\":2751:2760   */\n      dup7\n        /* \"#utility.yul\":2747:2769   */\n      add\n        /* \"#utility.yul\":2691:2779   */\n      tag_336\n      jump\t// in\n    tag_361:\n        /* \"#utility.yul\":2681:2779   */\n      swap2\n      pop\n        /* \"#utility.yul\":2543:2789   */\n      pop\n        /* \"#utility.yul\":2344:2796   */\n      swap3\n      pop\n      swap3\n      swap1\n      pop\n      jump\t// out\n        /* \"#utility.yul\":2802:3209   */\n    tag_21:\n      0x00\n      dup1\n        /* \"#utility.yul\":2927:2929   */\n      0x40\n        /* \"#utility.yul\":2915:2924   */\n      dup4\n        /* \"#utility.yul\":2906:2913   */\n      dup6\n        /* \"#utility.yul\":2902:2925   */\n      sub\n        /* \"#utility.yul\":2898:2930   */\n      slt\n        /* \"#utility.yul\":2895:2897   */\n      iszero\n      tag_363\n      jumpi\n        /* \"#utility.yul\":2943:2944   */\n      0x00\n        /* \"#utility.yul\":2940:2941   */\n      dup1\n        /* \"#utility.yul\":2933:2945   */\n      revert\n        /* \"#utility.yul\":2895:2897   */\n    tag_363:\n        /* \"#utility.yul\":2986:2987   */\n      0x00\n        /* \"#utility.yul\":3011:3064   */\n      tag_364\n        /* \"#utility.yul\":3056:3063   */\n      dup6\n        /* \"#utility.yul\":3047:3053   */\n      dup3\n        /* \"#utility.yul\":3036:3045   */\n      dup7\n        /* \"#utility.yul\":3032:3054   */\n      add\n        /* \"#utility.yul\":3011:3064   */\n      tag_312\n      jump\t// in\n    tag_364:\n        /* \"#utility.yul\":3001:3064   */\n      swap3\n      pop\n        /* \"#utility.yul\":2957:3074   */\n      pop\n        /* \"#utility.yul\":3113:3115   */\n      0x20\n        /* \"#utility.yul\":3139:3192   */\n      tag_365\n        /* \"#utility.yul\":3184:3191   */\n      dup6\n        /* \"#utility.yul\":3175:3181   */\n      dup3\n        /* \"#utility.yul\":3164:3173   */\n      dup7\n        /* \"#utility.yul\":3160:3182   */\n      add\n        /* \"#utility.yul\":3139:3192   */\n      tag_339\n      jump\t// in\n    tag_365:\n        /* \"#utility.yul\":3129:3192   */\n      swap2\n      pop\n        /* \"#utility.yul\":3084:3202   */\n      pop\n        /* \"#utility.yul\":2885:3209   */\n      swap3\n      pop\n      swap3\n      swap1\n      pop\n      jump\t// out\n        /* \"#utility.yul\":3215:3767   */\n    tag_42:\n      0x00\n      dup1\n      0x00\n        /* \"#utility.yul\":3357:3359   */\n      0x60\n        /* \"#utility.yul\":3345:3354   */\n      dup5\n        /* \"#utility.yul\":3336:3343   */\n      dup7\n        /* \"#utility.yul\":3332:3355   */\n      sub\n        /* \"#utility.yul\":3328:3360   */\n      slt\n        /* \"#utility.yul\":3325:3327   */\n      iszero\n      tag_367\n      jumpi\n        /* \"#utility.yul\":3373:3374   */\n      0x00\n        /* \"#utility.yul\":3370:3371   */\n      dup1\n        /* \"#utility.yul\":3363:3375   */\n      revert\n        /* \"#utility.yul\":3325:3327   */\n    tag_367:\n        /* \"#utility.yul\":3416:3417   */\n      0x00\n        /* \"#utility.yul\":3441:3494   */\n      tag_368\n        /* \"#utility.yul\":3486:3493   */\n      dup7\n        /* \"#utility.yul\":3477:3483   */\n      dup3\n        /* \"#utility.yul\":3466:3475   */\n      dup8\n        /* \"#utility.yul\":3462:3484   */\n      add\n        /* \"#utility.yul\":3441:3494   */\n      tag_312\n      jump\t// in\n    tag_368:\n        /* \"#utility.yul\":3431:3494   */\n      swap4\n      pop\n        /* \"#utility.yul\":3387:3504   */\n      pop\n        /* \"#utility.yul\":3543:3545   */\n      0x20\n        /* \"#utility.yul\":3569:3622   */\n      tag_369\n        /* \"#utility.yul\":3614:3621   */\n      dup7\n        /* \"#utility.yul\":3605:3611   */\n      dup3\n        /* \"#utility.yul\":3594:3603   */\n      dup8\n        /* \"#utility.yul\":3590:3612   */\n      add\n        /* \"#utility.yul\":3569:3622   */\n      tag_339\n      jump\t// in\n    tag_369:\n        /* \"#utility.yul\":3559:3622   */\n      swap3\n      pop\n        /* \"#utility.yul\":3514:3632   */\n      pop\n        /* \"#utility.yul\":3671:3673   */\n      0x40\n        /* \"#utility.yul\":3697:3750   */\n      tag_370\n        /* \"#utility.yul\":3742:3749   */\n      dup7\n        /* \"#utility.yul\":3733:3739   */\n      dup3\n        /* \"#utility.yul\":3722:3731   */\n      dup8\n        /* \"#utility.yul\":3718:3740   */\n      add\n        /* \"#utility.yul\":3697:3750   */\n      tag_312\n      jump\t// in\n    tag_370:\n        /* \"#utility.yul\":3687:3750   */\n      swap2\n      pop\n        /* \"#utility.yul\":3642:3760   */\n      pop\n        /* \"#utility.yul\":3315:3767   */\n      swap3\n      pop\n      swap3\n      pop\n      swap3\n      jump\t// out\n        /* \"#utility.yul\":3773:4632   */\n    tag_32:\n      0x00\n      dup1\n      0x00\n      dup1\n      0x00\n        /* \"#utility.yul\":3966:3969   */\n      0x80\n        /* \"#utility.yul\":3954:3963   */\n      dup7\n        /* \"#utility.yul\":3945:3952   */\n      dup9\n        /* \"#utility.yul\":3941:3964   */\n      sub\n        /* \"#utility.yul\":3937:3970   */\n      slt\n        /* \"#utility.yul\":3934:3936   */\n      iszero\n      tag_372\n      jumpi\n        /* \"#utility.yul\":3983:3984   */\n      0x00\n        /* \"#utility.yul\":3980:3981   */\n      dup1\n        /* \"#utility.yul\":3973:3985   */\n      revert\n        /* \"#utility.yul\":3934:3936   */\n    tag_372:\n        /* \"#utility.yul\":4026:4027   */\n      0x00\n        /* \"#utility.yul\":4051:4104   */\n      tag_373\n        /* \"#utility.yul\":4096:4103   */\n      dup9\n        /* \"#utility.yul\":4087:4093   */\n      dup3\n        /* \"#utility.yul\":4076:4085   */\n      dup10\n        /* \"#utility.yul\":4072:4094   */\n      add\n        /* \"#utility.yul\":4051:4104   */\n      tag_312\n      jump\t// in\n    tag_373:\n        /* \"#utility.yul\":4041:4104   */\n      swap6\n      pop\n        /* \"#utility.yul\":3997:4114   */\n      pop\n        /* \"#utility.yul\":4153:4155   */\n      0x20\n        /* \"#utility.yul\":4179:4232   */\n      tag_374\n        /* \"#utility.yul\":4224:4231   */\n      dup9\n        /* \"#utility.yul\":4215:4221   */\n      dup3\n        /* \"#utility.yul\":4204:4213   */\n      dup10\n        /* \"#utility.yul\":4200:4222   */\n      add\n        /* \"#utility.yul\":4179:4232   */\n      tag_339\n      jump\t// in\n    tag_374:\n        /* \"#utility.yul\":4169:4232   */\n      swap5\n      pop\n        /* \"#utility.yul\":4124:4242   */\n      pop\n        /* \"#utility.yul\":4309:4311   */\n      0x40\n        /* \"#utility.yul\":4298:4307   */\n      dup7\n        /* \"#utility.yul\":4294:4312   */\n      add\n        /* \"#utility.yul\":4281:4313   */\n      calldataload\n        /* \"#utility.yul\":4340:4358   */\n      0xffffffffffffffff\n        /* \"#utility.yul\":4332:4338   */\n      dup2\n        /* \"#utility.yul\":4329:4359   */\n      gt\n        /* \"#utility.yul\":4326:4328   */\n      iszero\n      tag_375\n      jumpi\n        /* \"#utility.yul\":4372:4373   */\n      0x00\n        /* \"#utility.yul\":4369:4370   */\n      dup1\n        /* \"#utility.yul\":4362:4374   */\n      revert\n        /* \"#utility.yul\":4326:4328   */\n    tag_375:\n        /* \"#utility.yul\":4408:4488   */\n      tag_376\n        /* \"#utility.yul\":4480:4487   */\n      dup9\n        /* \"#utility.yul\":4471:4477   */\n      dup3\n        /* \"#utility.yul\":4460:4469   */\n      dup10\n        /* \"#utility.yul\":4456:4478   */\n      add\n        /* \"#utility.yul\":4408:4488   */\n      tag_316\n      jump\t// in\n    tag_376:\n        /* \"#utility.yul\":4390:4488   */\n      swap4\n      pop\n      swap4\n      pop\n        /* \"#utility.yul\":4252:4498   */\n      pop\n        /* \"#utility.yul\":4537:4539   */\n      0x60\n        /* \"#utility.yul\":4563:4615   */\n      tag_377\n        /* \"#utility.yul\":4607:4614   */\n      dup9\n        /* \"#utility.yul\":4598:4604   */\n      dup3\n        /* \"#utility.yul\":4587:4596   */\n      dup10\n        /* \"#utility.yul\":4583:4605   */\n      add\n        /* \"#utility.yul\":4563:4615   */\n      tag_346\n      jump\t// in\n    tag_377:\n        /* \"#utility.yul\":4553:4615   */\n      swap2\n      pop\n        /* \"#utility.yul\":4508:4625   */\n      pop\n        /* \"#utility.yul\":3924:4632   */\n      swap3\n      swap6\n      pop\n      swap3\n      swap6\n      swap1\n      swap4\n      pop\n      jump\t// out\n        /* \"#utility.yul\":4638:5353   */\n    tag_48:\n      0x00\n      dup1\n      0x00\n        /* \"#utility.yul\":4815:4817   */\n      0x60\n        /* \"#utility.yul\":4803:4812   */\n      dup5\n        /* \"#utility.yul\":4794:4801   */\n      dup7\n        /* \"#utility.yul\":4790:4813   */\n      sub\n        /* \"#utility.yul\":4786:4818   */\n      slt\n        /* \"#utility.yul\":4783:4785   */\n      iszero\n      tag_379\n      jumpi\n        /* \"#utility.yul\":4831:4832   */\n      0x00\n        /* \"#utility.yul\":4828:4829   */\n      dup1\n        /* \"#utility.yul\":4821:4833   */\n      revert\n        /* \"#utility.yul\":4783:4785   */\n    tag_379:\n        /* \"#utility.yul\":4874:4875   */\n      0x00\n        /* \"#utility.yul\":4899:4952   */\n      tag_380\n        /* \"#utility.yul\":4944:4951   */\n      dup7\n        /* \"#utility.yul\":4935:4941   */\n      dup3\n        /* \"#utility.yul\":4924:4933   */\n      dup8\n        /* \"#utility.yul\":4920:4942   */\n      add\n        /* \"#utility.yul\":4899:4952   */\n      tag_312\n      jump\t// in\n    tag_380:\n        /* \"#utility.yul\":4889:4952   */\n      swap4\n      pop\n        /* \"#utility.yul\":4845:4962   */\n      pop\n        /* \"#utility.yul\":5001:5003   */\n      0x20\n        /* \"#utility.yul\":5027:5080   */\n      tag_381\n        /* \"#utility.yul\":5072:5079   */\n      dup7\n        /* \"#utility.yul\":5063:5069   */\n      dup3\n        /* \"#utility.yul\":5052:5061   */\n      dup8\n        /* \"#utility.yul\":5048:5070   */\n      add\n        /* \"#utility.yul\":5027:5080   */\n      tag_339\n      jump\t// in\n    tag_381:\n        /* \"#utility.yul\":5017:5080   */\n      swap3\n      pop\n        /* \"#utility.yul\":4972:5090   */\n      pop\n        /* \"#utility.yul\":5157:5159   */\n      0x40\n        /* \"#utility.yul\":5146:5155   */\n      dup5\n        /* \"#utility.yul\":5142:5160   */\n      add\n        /* \"#utility.yul\":5129:5161   */\n      calldataload\n        /* \"#utility.yul\":5188:5206   */\n      0xffffffffffffffff\n        /* \"#utility.yul\":5180:5186   */\n      dup2\n        /* \"#utility.yul\":5177:5207   */\n      gt\n        /* \"#utility.yul\":5174:5176   */\n      iszero\n      tag_382\n      jumpi\n        /* \"#utility.yul\":5220:5221   */\n      0x00\n        /* \"#utility.yul\":5217:5218   */\n      dup1\n        /* \"#utility.yul\":5210:5222   */\n      revert\n        /* \"#utility.yul\":5174:5176   */\n    tag_382:\n        /* \"#utility.yul\":5248:5336   */\n      tag_383\n        /* \"#utility.yul\":5328:5335   */\n      dup7\n        /* \"#utility.yul\":5319:5325   */\n      dup3\n        /* \"#utility.yul\":5308:5317   */\n      dup8\n        /* \"#utility.yul\":5304:5326   */\n      add\n        /* \"#utility.yul\":5248:5336   */\n      tag_336\n      jump\t// in\n    tag_383:\n        /* \"#utility.yul\":5238:5336   */\n      swap2\n      pop\n        /* \"#utility.yul\":5100:5346   */\n      pop\n        /* \"#utility.yul\":4773:5353   */\n      swap3\n      pop\n      swap3\n      pop\n      swap3\n      jump\t// out\n        /* \"#utility.yul\":5359:5615   */\n    tag_106:\n      0x00\n        /* \"#utility.yul\":5464:5466   */\n      0x20\n        /* \"#utility.yul\":5452:5461   */\n      dup3\n        /* \"#utility.yul\":5443:5450   */\n      dup5\n        /* \"#utility.yul\":5439:5462   */\n      sub\n        /* \"#utility.yul\":5435:5467   */\n      slt\n        /* \"#utility.yul\":5432:5434   */\n      iszero\n      tag_385\n      jumpi\n        /* \"#utility.yul\":5480:5481   */\n      0x00\n        /* \"#utility.yul\":5477:5478   */\n      dup1\n        /* \"#utility.yul\":5470:5482   */\n      revert\n        /* \"#utility.yul\":5432:5434   */\n    tag_385:\n        /* \"#utility.yul\":5523:5524   */\n      0x00\n        /* \"#utility.yul\":5548:5598   */\n      tag_386\n        /* \"#utility.yul\":5590:5597   */\n      dup5\n        /* \"#utility.yul\":5581:5587   */\n      dup3\n        /* \"#utility.yul\":5570:5579   */\n      dup6\n        /* \"#utility.yul\":5566:5588   */\n      add\n        /* \"#utility.yul\":5548:5598   */\n      tag_321\n      jump\t// in\n    tag_386:\n        /* \"#utility.yul\":5538:5598   */\n      swap2\n      pop\n        /* \"#utility.yul\":5494:5608   */\n      pop\n        /* \"#utility.yul\":5422:5615   */\n      swap3\n      swap2\n      pop\n      pop\n      jump\t// out\n        /* \"#utility.yul\":5621:5899   */\n    tag_73:\n      0x00\n        /* \"#utility.yul\":5737:5739   */\n      0x20\n        /* \"#utility.yul\":5725:5734   */\n      dup3\n        /* \"#utility.yul\":5716:5723   */\n      dup5\n        /* \"#utility.yul\":5712:5735   */\n      sub\n        /* \"#utility.yul\":5708:5740   */\n      slt\n        /* \"#utility.yul\":5705:5707   */\n      iszero\n      tag_388\n      jumpi\n        /* \"#utility.yul\":5753:5754   */\n      0x00\n        /* \"#utility.yul\":5750:5751   */\n      dup1\n        /* \"#utility.yul\":5743:5755   */\n      revert\n        /* \"#utility.yul\":5705:5707   */\n    tag_388:\n        /* \"#utility.yul\":5796:5797   */\n      0x00\n        /* \"#utility.yul\":5821:5882   */\n      tag_389\n        /* \"#utility.yul\":5874:5881   */\n      dup5\n        /* \"#utility.yul\":5865:5871   */\n      dup3\n        /* \"#utility.yul\":5854:5863   */\n      dup6\n        /* \"#utility.yul\":5850:5872   */\n      add\n        /* \"#utility.yul\":5821:5882   */\n      tag_325\n      jump\t// in\n    tag_389:\n        /* \"#utility.yul\":5811:5882   */\n      swap2\n      pop\n        /* \"#utility.yul\":5767:5892   */\n      pop\n        /* \"#utility.yul\":5695:5899   */\n      swap3\n      swap2\n      pop\n      pop\n      jump\t// out\n        /* \"#utility.yul\":5905:6165   */\n    tag_15:\n      0x00\n        /* \"#utility.yul\":6012:6014   */\n      0x20\n        /* \"#utility.yul\":6000:6009   */\n      dup3\n        /* \"#utility.yul\":5991:5998   */\n      dup5\n        /* \"#utility.yul\":5987:6010   */\n      sub\n        /* \"#utility.yul\":5983:6015   */\n      slt\n        /* \"#utility.yul\":5980:5982   */\n      iszero\n      tag_391\n      jumpi\n        /* \"#utility.yul\":6028:6029   */\n      0x00\n        /* \"#utility.yul\":6025:6026   */\n      dup1\n        /* \"#utility.yul\":6018:6030   */\n      revert\n        /* \"#utility.yul\":5980:5982   */\n    tag_391:\n        /* \"#utility.yul\":6071:6072   */\n      0x00\n        /* \"#utility.yul\":6096:6148   */\n      tag_392\n        /* \"#utility.yul\":6140:6147   */\n      dup5\n        /* \"#utility.yul\":6131:6137   */\n      dup3\n        /* \"#utility.yul\":6120:6129   */\n      dup6\n        /* \"#utility.yul\":6116:6138   */\n      add\n        /* \"#utility.yul\":6096:6148   */\n      tag_328\n      jump\t// in\n    tag_392:\n        /* \"#utility.yul\":6086:6148   */\n      swap2\n      pop\n        /* \"#utility.yul\":6042:6158   */\n      pop\n        /* \"#utility.yul\":5970:6165   */\n      swap3\n      swap2\n      pop\n      pop\n      jump\t// out\n        /* \"#utility.yul\":6171:6473   */\n    tag_103:\n      0x00\n        /* \"#utility.yul\":6299:6301   */\n      0x20\n        /* \"#utility.yul\":6287:6296   */\n      dup3\n        /* \"#utility.yul\":6278:6285   */\n      dup5\n        /* \"#utility.yul\":6274:6297   */\n      sub\n        /* \"#utility.yul\":6270:6302   */\n      slt\n        /* \"#utility.yul\":6267:6269   */\n      iszero\n      tag_394\n      jumpi\n        /* \"#utility.yul\":6315:6316   */\n      0x00\n        /* \"#utility.yul\":6312:6313   */\n      dup1\n        /* \"#utility.yul\":6305:6317   */\n      revert\n        /* \"#utility.yul\":6267:6269   */\n    tag_394:\n        /* \"#utility.yul\":6358:6359   */\n      0x00\n        /* \"#utility.yul\":6383:6456   */\n      tag_395\n        /* \"#utility.yul\":6448:6455   */\n      dup5\n        /* \"#utility.yul\":6439:6445   */\n      dup3\n        /* \"#utility.yul\":6428:6437   */\n      dup6\n        /* \"#utility.yul\":6424:6446   */\n      add\n        /* \"#utility.yul\":6383:6456   */\n      tag_332\n      jump\t// in\n    tag_395:\n        /* \"#utility.yul\":6373:6456   */\n      swap2\n      pop\n        /* \"#utility.yul\":6329:6466   */\n      pop\n        /* \"#utility.yul\":6257:6473   */\n      swap3\n      swap2\n      pop\n      pop\n      jump\t// out\n        /* \"#utility.yul\":6479:6763   */\n    tag_151:\n      0x00\n        /* \"#utility.yul\":6598:6600   */\n      0x20\n        /* \"#utility.yul\":6586:6595   */\n      dup3\n        /* \"#utility.yul\":6577:6584   */\n      dup5\n        /* \"#utility.yul\":6573:6596   */\n      sub\n        /* \"#utility.yul\":6569:6601   */\n      slt\n        /* \"#utility.yul\":6566:6568   */\n      iszero\n      tag_397\n      jumpi\n        /* \"#utility.yul\":6614:6615   */\n      0x00\n        /* \"#utility.yul\":6611:6612   */\n      dup1\n        /* \"#utility.yul\":6604:6616   */\n      revert\n        /* \"#utility.yul\":6566:6568   */\n    tag_397:\n        /* \"#utility.yul\":6657:6658   */\n      0x00\n        /* \"#utility.yul\":6682:6746   */\n      tag_398\n        /* \"#utility.yul\":6738:6745   */\n      dup5\n        /* \"#utility.yul\":6729:6735   */\n      dup3\n        /* \"#utility.yul\":6718:6727   */\n      dup6\n        /* \"#utility.yul\":6714:6736   */\n      add\n        /* \"#utility.yul\":6682:6746   */\n      tag_343\n      jump\t// in\n    tag_398:\n        /* \"#utility.yul\":6672:6746   */\n      swap2\n      pop\n        /* \"#utility.yul\":6628:6756   */\n      pop\n        /* \"#utility.yul\":6556:6763   */\n      swap3\n      swap2\n      pop\n      pop\n      jump\t// out\n        /* \"#utility.yul\":6769:7029   */\n    tag_92:\n      0x00\n        /* \"#utility.yul\":6876:6878   */\n      0x20\n        /* \"#utility.yul\":6864:6873   */\n      dup3\n        /* \"#utility.yul\":6855:6862   */\n      dup5\n        /* \"#utility.yul\":6851:6874   */\n      sub\n        /* \"#utility.yul\":6847:6879   */\n      slt\n        /* \"#utility.yul\":6844:6846   */\n      iszero\n      tag_400\n      jumpi\n        /* \"#utility.yul\":6892:6893   */\n      0x00\n        /* \"#utility.yul\":6889:6890   */\n      dup1\n        /* \"#utility.yul\":6882:6894   */\n      revert\n        /* \"#utility.yul\":6844:6846   */\n    tag_400:\n        /* \"#utility.yul\":6935:6936   */\n      0x00\n        /* \"#utility.yul\":6960:7012   */\n      tag_401\n        /* \"#utility.yul\":7004:7011   */\n      dup5\n        /* \"#utility.yul\":6995:7001   */\n      dup3\n        /* \"#utility.yul\":6984:6993   */\n      dup6\n        /* \"#utility.yul\":6980:7002   */\n      add\n        /* \"#utility.yul\":6960:7012   */\n      tag_346\n      jump\t// in\n    tag_401:\n        /* \"#utility.yul\":6950:7012   */\n      swap2\n      pop\n        /* \"#utility.yul\":6906:7022   */\n      pop\n        /* \"#utility.yul\":6834:7029   */\n      swap3\n      swap2\n      pop\n      pop\n      jump\t// out\n        /* \"#utility.yul\":7035:7295   */\n    tag_84:\n      0x00\n        /* \"#utility.yul\":7142:7144   */\n      0x20\n        /* \"#utility.yul\":7130:7139   */\n      dup3\n        /* \"#utility.yul\":7121:7128   */\n      dup5\n        /* \"#utility.yul\":7117:7140   */\n      sub\n        /* \"#utility.yul\":7113:7145   */\n      slt\n        /* \"#utility.yul\":7110:7112   */\n      iszero\n      tag_403\n      jumpi\n        /* \"#utility.yul\":7158:7159   */\n      0x00\n        /* \"#utility.yul\":7155:7156   */\n      dup1\n        /* \"#utility.yul\":7148:7160   */\n      revert\n        /* \"#utility.yul\":7110:7112   */\n    tag_403:\n        /* \"#utility.yul\":7201:7202   */\n      0x00\n        /* \"#utility.yul\":7226:7278   */\n      tag_404\n        /* \"#utility.yul\":7270:7277   */\n      dup5\n        /* \"#utility.yul\":7261:7267   */\n      dup3\n        /* \"#utility.yul\":7250:7259   */\n      dup6\n        /* \"#utility.yul\":7246:7268   */\n      add\n        /* \"#utility.yul\":7226:7278   */\n      tag_350\n      jump\t// in\n    tag_404:\n        /* \"#utility.yul\":7216:7278   */\n      swap2\n      pop\n        /* \"#utility.yul\":7172:7288   */\n      pop\n        /* \"#utility.yul\":7100:7295   */\n      swap3\n      swap2\n      pop\n      pop\n      jump\t// out\n        /* \"#utility.yul\":7301:7419   */\n    tag_405:\n        /* \"#utility.yul\":7388:7412   */\n      tag_407\n        /* \"#utility.yul\":7406:7411   */\n      dup2\n        /* \"#utility.yul\":7388:7412   */\n      tag_408\n      jump\t// in\n    tag_407:\n        /* \"#utility.yul\":7383:7386   */\n      dup3\n        /* \"#utility.yul\":7376:7413   */\n      mstore\n        /* \"#utility.yul\":7366:7419   */\n      pop\n      pop\n      jump\t// out\n        /* \"#utility.yul\":7425:7582   */\n    tag_409:\n        /* \"#utility.yul\":7530:7575   */\n      tag_411\n        /* \"#utility.yul\":7550:7574   */\n      tag_412\n        /* \"#utility.yul\":7568:7573   */\n      dup3\n        /* \"#utility.yul\":7550:7574   */\n      tag_408\n      jump\t// in\n    tag_412:\n        /* \"#utility.yul\":7530:7575   */\n      tag_413\n      jump\t// in\n    tag_411:\n        /* \"#utility.yul\":7525:7528   */\n      dup3\n        /* \"#utility.yul\":7518:7576   */\n      mstore\n        /* \"#utility.yul\":7508:7582   */\n      pop\n      pop\n      jump\t// out\n        /* \"#utility.yul\":7588:7687   */\n    tag_414:\n        /* \"#utility.yul\":7659:7680   */\n      tag_416\n        /* \"#utility.yul\":7674:7679   */\n      dup2\n        /* \"#utility.yul\":7659:7680   */\n      tag_417\n      jump\t// in\n    tag_416:\n        /* \"#utility.yul\":7654:7657   */\n      dup3\n        /* \"#utility.yul\":7647:7681   */\n      mstore\n        /* \"#utility.yul\":7637:7687   */\n      pop\n      pop\n      jump\t// out\n        /* \"#utility.yul\":7693:7802   */\n    tag_418:\n        /* \"#utility.yul\":7774:7795   */\n      tag_420\n        /* \"#utility.yul\":7789:7794   */\n      dup2\n        /* \"#utility.yul\":7774:7795   */\n      tag_417\n      jump\t// in\n    tag_420:\n        /* \"#utility.yul\":7769:7772   */\n      dup3\n        /* \"#utility.yul\":7762:7796   */\n      mstore\n        /* \"#utility.yul\":7752:7802   */\n      pop\n      pop\n      jump\t// out\n        /* \"#utility.yul\":7808:7916   */\n    tag_421:\n        /* \"#utility.yul\":7885:7909   */\n      tag_423\n        /* \"#utility.yul\":7903:7908   */\n      dup2\n        /* \"#utility.yul\":7885:7909   */\n      tag_424\n      jump\t// in\n    tag_423:\n        /* \"#utility.yul\":7880:7883   */\n      dup3\n        /* \"#utility.yul\":7873:7910   */\n      mstore\n        /* \"#utility.yul\":7863:7916   */\n      pop\n      pop\n      jump\t// out\n        /* \"#utility.yul\":7922:8079   */\n    tag_425:\n        /* \"#utility.yul\":8027:8072   */\n      tag_427\n        /* \"#utility.yul\":8047:8071   */\n      tag_428\n        /* \"#utility.yul\":8065:8070   */\n      dup3\n        /* \"#utility.yul\":8047:8071   */\n      tag_424\n      jump\t// in\n    tag_428:\n        /* \"#utility.yul\":8027:8072   */\n      tag_429\n      jump\t// in\n    tag_427:\n        /* \"#utility.yul\":8022:8025   */\n      dup3\n        /* \"#utility.yul\":8015:8073   */\n      mstore\n        /* \"#utility.yul\":8005:8079   */\n      pop\n      pop\n      jump\t// out\n        /* \"#utility.yul\":8085:8242   */\n    tag_430:\n        /* \"#utility.yul\":8180:8235   */\n      tag_432\n        /* \"#utility.yul\":8229:8234   */\n      dup2\n        /* \"#utility.yul\":8180:8235   */\n      tag_433\n      jump\t// in\n    tag_432:\n        /* \"#utility.yul\":8175:8178   */\n      dup3\n        /* \"#utility.yul\":8168:8236   */\n      mstore\n        /* \"#utility.yul\":8158:8242   */\n      pop\n      pop\n      jump\t// out\n        /* \"#utility.yul\":8248:8592   */\n    tag_434:\n      0x00\n        /* \"#utility.yul\":8354:8393   */\n      tag_436\n        /* \"#utility.yul\":8387:8392   */\n      dup3\n        /* \"#utility.yul\":8354:8393   */\n      tag_437\n      jump\t// in\n    tag_436:\n        /* \"#utility.yul\":8409:8470   */\n      tag_438\n        /* \"#utility.yul\":8463:8469   */\n      dup2\n        /* \"#utility.yul\":8458:8461   */\n      dup6\n        /* \"#utility.yul\":8409:8470   */\n      tag_439\n      jump\t// in\n    tag_438:\n        /* \"#utility.yul\":8402:8470   */\n      swap4\n      pop\n        /* \"#utility.yul\":8479:8531   */\n      tag_440\n        /* \"#utility.yul\":8524:8530   */\n      dup2\n        /* \"#utility.yul\":8519:8522   */\n      dup6\n        /* \"#utility.yul\":8512:8516   */\n      0x20\n        /* \"#utility.yul\":8505:8510   */\n      dup7\n        /* \"#utility.yul\":8501:8517   */\n      add\n        /* \"#utility.yul\":8479:8531   */\n      tag_441\n      jump\t// in\n    tag_440:\n        /* \"#utility.yul\":8556:8585   */\n      tag_442\n        /* \"#utility.yul\":8578:8584   */\n      dup2\n        /* \"#utility.yul\":8556:8585   */\n      tag_443\n      jump\t// in\n    tag_442:\n        /* \"#utility.yul\":8551:8554   */\n      dup5\n        /* \"#utility.yul\":8547:8586   */\n      add\n        /* \"#utility.yul\":8540:8586   */\n      swap2\n      pop\n        /* \"#utility.yul\":8330:8592   */\n      pop\n      swap3\n      swap2\n      pop\n      pop\n      jump\t// out\n        /* \"#utility.yul\":8598:8962   */\n    tag_444:\n      0x00\n        /* \"#utility.yul\":8714:8753   */\n      tag_446\n        /* \"#utility.yul\":8747:8752   */\n      dup3\n        /* \"#utility.yul\":8714:8753   */\n      tag_437\n      jump\t// in\n    tag_446:\n        /* \"#utility.yul\":8769:8840   */\n      tag_447\n        /* \"#utility.yul\":8833:8839   */\n      dup2\n        /* \"#utility.yul\":8828:8831   */\n      dup6\n        /* \"#utility.yul\":8769:8840   */\n      tag_448\n      jump\t// in\n    tag_447:\n        /* \"#utility.yul\":8762:8840   */\n      swap4\n      pop\n        /* \"#utility.yul\":8849:8901   */\n      tag_449\n        /* \"#utility.yul\":8894:8900   */\n      dup2\n        /* \"#utility.yul\":8889:8892   */\n      dup6\n        /* \"#utility.yul\":8882:8886   */\n      0x20\n        /* \"#utility.yul\":8875:8880   */\n      dup7\n        /* \"#utility.yul\":8871:8887   */\n      add\n        /* \"#utility.yul\":8849:8901   */\n      tag_441\n      jump\t// in\n    tag_449:\n        /* \"#utility.yul\":8926:8955   */\n      tag_450\n        /* \"#utility.yul\":8948:8954   */\n      dup2\n        /* \"#utility.yul\":8926:8955   */\n      tag_443\n      jump\t// in\n    tag_450:\n        /* \"#utility.yul\":8921:8924   */\n      dup5\n        /* \"#utility.yul\":8917:8956   */\n      add\n        /* \"#utility.yul\":8910:8956   */\n      swap2\n      pop\n        /* \"#utility.yul\":8690:8962   */\n      pop\n      swap3\n      swap2\n      pop\n      pop\n      jump\t// out\n        /* \"#utility.yul\":8968:9345   */\n    tag_451:\n      0x00\n        /* \"#utility.yul\":9102:9141   */\n      tag_453\n        /* \"#utility.yul\":9135:9140   */\n      dup3\n        /* \"#utility.yul\":9102:9141   */\n      tag_437\n      jump\t// in\n    tag_453:\n        /* \"#utility.yul\":9157:9246   */\n      tag_454\n        /* \"#utility.yul\":9239:9245   */\n      dup2\n        /* \"#utility.yul\":9234:9237   */\n      dup6\n        /* \"#utility.yul\":9157:9246   */\n      tag_455\n      jump\t// in\n    tag_454:\n        /* \"#utility.yul\":9150:9246   */\n      swap4\n      pop\n        /* \"#utility.yul\":9255:9307   */\n      tag_456\n        /* \"#utility.yul\":9300:9306   */\n      dup2\n        /* \"#utility.yul\":9295:9298   */\n      dup6\n        /* \"#utility.yul\":9288:9292   */\n      0x20\n        /* \"#utility.yul\":9281:9286   */\n      dup7\n        /* \"#utility.yul\":9277:9293   */\n      add\n        /* \"#utility.yul\":9255:9307   */\n      tag_441\n      jump\t// in\n    tag_456:\n        /* \"#utility.yul\":9332:9338   */\n      dup1\n        /* \"#utility.yul\":9327:9330   */\n      dup5\n        /* \"#utility.yul\":9323:9339   */\n      add\n        /* \"#utility.yul\":9316:9339   */\n      swap2\n      pop\n        /* \"#utility.yul\":9078:9345   */\n      pop\n      swap3\n      swap2\n      pop\n      pop\n      jump\t// out\n        /* \"#utility.yul\":9375:10220   */\n    tag_457:\n      0x00\n        /* \"#utility.yul\":9515:9520   */\n      dup2\n        /* \"#utility.yul\":9509:9521   */\n      sload\n        /* \"#utility.yul\":9544:9580   */\n      tag_459\n        /* \"#utility.yul\":9570:9579   */\n      dup2\n        /* \"#utility.yul\":9544:9580   */\n      tag_114\n      jump\t// in\n    tag_459:\n        /* \"#utility.yul\":9596:9685   */\n      tag_460\n        /* \"#utility.yul\":9678:9684   */\n      dup2\n        /* \"#utility.yul\":9673:9676   */\n      dup7\n        /* \"#utility.yul\":9596:9685   */\n      tag_455\n      jump\t// in\n    tag_460:\n        /* \"#utility.yul\":9589:9685   */\n      swap5\n      pop\n        /* \"#utility.yul\":9716:9717   */\n      0x01\n        /* \"#utility.yul\":9705:9714   */\n      dup3\n        /* \"#utility.yul\":9701:9718   */\n      and\n        /* \"#utility.yul\":9732:9733   */\n      0x00\n        /* \"#utility.yul\":9727:9864   */\n      dup2\n      eq\n      tag_462\n      jumpi\n        /* \"#utility.yul\":9878:9879   */\n      0x01\n        /* \"#utility.yul\":9873:10214   */\n      dup2\n      eq\n      tag_463\n      jumpi\n        /* \"#utility.yul\":9694:10214   */\n      jump(tag_461)\n        /* \"#utility.yul\":9727:9864   */\n    tag_462:\n        /* \"#utility.yul\":9811:9815   */\n      0xff\n        /* \"#utility.yul\":9807:9816   */\n      not\n        /* \"#utility.yul\":9796:9805   */\n      dup4\n        /* \"#utility.yul\":9792:9817   */\n      and\n        /* \"#utility.yul\":9787:9790   */\n      dup7\n        /* \"#utility.yul\":9780:9818   */\n      mstore\n        /* \"#utility.yul\":9847:9853   */\n      dup2\n        /* \"#utility.yul\":9842:9845   */\n      dup7\n        /* \"#utility.yul\":9838:9854   */\n      add\n        /* \"#utility.yul\":9831:9854   */\n      swap4\n      pop\n        /* \"#utility.yul\":9727:9864   */\n      jump(tag_461)\n        /* \"#utility.yul\":9873:10214   */\n    tag_463:\n        /* \"#utility.yul\":9940:9978   */\n      tag_464\n        /* \"#utility.yul\":9972:9977   */\n      dup6\n        /* \"#utility.yul\":9940:9978   */\n      tag_465\n      jump\t// in\n    tag_464:\n        /* \"#utility.yul\":10000:10001   */\n      0x00\n        /* \"#utility.yul\":10014:10168   */\n    tag_466:\n        /* \"#utility.yul\":10028:10034   */\n      dup4\n        /* \"#utility.yul\":10025:10026   */\n      dup2\n        /* \"#utility.yul\":10022:10035   */\n      lt\n        /* \"#utility.yul\":10014:10168   */\n      iszero\n      tag_468\n      jumpi\n        /* \"#utility.yul\":10102:10109   */\n      dup2\n        /* \"#utility.yul\":10096:10110   */\n      sload\n        /* \"#utility.yul\":10092:10093   */\n      dup2\n        /* \"#utility.yul\":10087:10090   */\n      dup10\n        /* \"#utility.yul\":10083:10094   */\n      add\n        /* \"#utility.yul\":10076:10111   */\n      mstore\n        /* \"#utility.yul\":10152:10153   */\n      0x01\n        /* \"#utility.yul\":10143:10150   */\n      dup3\n        /* \"#utility.yul\":10139:10154   */\n      add\n        /* \"#utility.yul\":10128:10154   */\n      swap2\n      pop\n        /* \"#utility.yul\":10050:10054   */\n      0x20\n        /* \"#utility.yul\":10047:10048   */\n      dup2\n        /* \"#utility.yul\":10043:10055   */\n      add\n        /* \"#utility.yul\":10038:10055   */\n      swap1\n      pop\n        /* \"#utility.yul\":10014:10168   */\n      jump(tag_466)\n    tag_468:\n        /* \"#utility.yul\":10197:10203   */\n      dup4\n        /* \"#utility.yul\":10192:10195   */\n      dup9\n        /* \"#utility.yul\":10188:10204   */\n      add\n        /* \"#utility.yul\":10181:10204   */\n      swap6\n      pop\n        /* \"#utility.yul\":9880:10214   */\n      pop\n      pop\n        /* \"#utility.yul\":9694:10214   */\n    tag_461:\n      pop\n        /* \"#utility.yul\":9482:10220   */\n      pop\n      pop\n      swap3\n      swap2\n      pop\n      pop\n      jump\t// out\n        /* \"#utility.yul\":10226:10612   */\n    tag_469:\n      0x00\n        /* \"#utility.yul\":10389:10456   */\n      tag_471\n        /* \"#utility.yul\":10453:10455   */\n      0x36\n        /* \"#utility.yul\":10448:10451   */\n      dup4\n        /* \"#utility.yul\":10389:10456   */\n      tag_448\n      jump\t// in\n    tag_471:\n        /* \"#utility.yul\":10382:10456   */\n      swap2\n      pop\n        /* \"#utility.yul\":10486:10520   */\n      0x43616e6e6f742068617665207374617274446174652067726561746572207468\n        /* \"#utility.yul\":10482:10483   */\n      0x00\n        /* \"#utility.yul\":10477:10480   */\n      dup4\n        /* \"#utility.yul\":10473:10484   */\n      add\n        /* \"#utility.yul\":10466:10521   */\n      mstore\n        /* \"#utility.yul\":10552:10576   */\n      0x616e206f7220657175616c20746f20656e644461746500000000000000000000\n        /* \"#utility.yul\":10547:10549   */\n      0x20\n        /* \"#utility.yul\":10542:10545   */\n      dup4\n        /* \"#utility.yul\":10538:10550   */\n      add\n        /* \"#utility.yul\":10531:10577   */\n      mstore\n        /* \"#utility.yul\":10603:10605   */\n      0x40\n        /* \"#utility.yul\":10598:10601   */\n      dup3\n        /* \"#utility.yul\":10594:10606   */\n      add\n        /* \"#utility.yul\":10587:10606   */\n      swap1\n      pop\n        /* \"#utility.yul\":10372:10612   */\n      swap2\n      swap1\n      pop\n      jump\t// out\n        /* \"#utility.yul\":10618:10986   */\n    tag_472:\n      0x00\n        /* \"#utility.yul\":10781:10848   */\n      tag_474\n        /* \"#utility.yul\":10845:10847   */\n      0x24\n        /* \"#utility.yul\":10840:10843   */\n      dup4\n        /* \"#utility.yul\":10781:10848   */\n      tag_448\n      jump\t// in\n    tag_474:\n        /* \"#utility.yul\":10774:10848   */\n      swap2\n      pop\n        /* \"#utility.yul\":10878:10912   */\n      0x43616e6e6f74206f766572777269746520756e696e697469616c697a65642063\n        /* \"#utility.yul\":10874:10875   */\n      0x00\n        /* \"#utility.yul\":10869:10872   */\n      dup4\n        /* \"#utility.yul\":10865:10876   */\n      add\n        /* \"#utility.yul\":10858:10913   */\n      mstore\n        /* \"#utility.yul\":10944:10950   */\n      0x6c61696d00000000000000000000000000000000000000000000000000000000\n        /* \"#utility.yul\":10939:10941   */\n      0x20\n        /* \"#utility.yul\":10934:10937   */\n      dup4\n        /* \"#utility.yul\":10930:10942   */\n      add\n        /* \"#utility.yul\":10923:10951   */\n      mstore\n        /* \"#utility.yul\":10977:10979   */\n      0x40\n        /* \"#utility.yul\":10972:10975   */\n      dup3\n        /* \"#utility.yul\":10968:10980   */\n      add\n        /* \"#utility.yul\":10961:10980   */\n      swap1\n      pop\n        /* \"#utility.yul\":10764:10986   */\n      swap2\n      swap1\n      pop\n      jump\t// out\n        /* \"#utility.yul\":10992:11312   */\n    tag_475:\n      0x00\n        /* \"#utility.yul\":11155:11222   */\n      tag_477\n        /* \"#utility.yul\":11219:11221   */\n      0x16\n        /* \"#utility.yul\":11214:11217   */\n      dup4\n        /* \"#utility.yul\":11155:11222   */\n      tag_448\n      jump\t// in\n    tag_477:\n        /* \"#utility.yul\":11148:11222   */\n      swap2\n      pop\n        /* \"#utility.yul\":11252:11276   */\n      0x43616e6e6f74206d6f6469667920746f74616c4d617800000000000000000000\n        /* \"#utility.yul\":11248:11249   */\n      0x00\n        /* \"#utility.yul\":11243:11246   */\n      dup4\n        /* \"#utility.yul\":11239:11250   */\n      add\n        /* \"#utility.yul\":11232:11277   */\n      mstore\n        /* \"#utility.yul\":11303:11305   */\n      0x20\n        /* \"#utility.yul\":11298:11301   */\n      dup3\n        /* \"#utility.yul\":11294:11306   */\n      add\n        /* \"#utility.yul\":11287:11306   */\n      swap1\n      pop\n        /* \"#utility.yul\":11138:11312   */\n      swap2\n      swap1\n      pop\n      jump\t// out\n        /* \"#utility.yul\":11318:11689   */\n    tag_478:\n      0x00\n        /* \"#utility.yul\":11481:11548   */\n      tag_480\n        /* \"#utility.yul\":11545:11547   */\n      0x27\n        /* \"#utility.yul\":11540:11543   */\n      dup4\n        /* \"#utility.yul\":11481:11548   */\n      tag_448\n      jump\t// in\n    tag_480:\n        /* \"#utility.yul\":11474:11548   */\n      swap2\n      pop\n        /* \"#utility.yul\":11578:11612   */\n      0x43616e6e6f74206861766520746f74616c4d6178206772656174657220746861\n        /* \"#utility.yul\":11574:11575   */\n      0x00\n        /* \"#utility.yul\":11569:11572   */\n      dup4\n        /* \"#utility.yul\":11565:11576   */\n      add\n        /* \"#utility.yul\":11558:11613   */\n      mstore\n        /* \"#utility.yul\":11644:11653   */\n      0x6e20313030303000000000000000000000000000000000000000000000000000\n        /* \"#utility.yul\":11639:11641   */\n      0x20\n        /* \"#utility.yul\":11634:11637   */\n      dup4\n        /* \"#utility.yul\":11630:11642   */\n      add\n        /* \"#utility.yul\":11623:11654   */\n      mstore\n        /* \"#utility.yul\":11680:11682   */\n      0x40\n        /* \"#utility.yul\":11675:11678   */\n      dup3\n        /* \"#utility.yul\":11671:11683   */\n      add\n        /* \"#utility.yul\":11664:11683   */\n      swap1\n      pop\n        /* \"#utility.yul\":11464:11689   */\n      swap2\n      swap1\n      pop\n      jump\t// out\n        /* \"#utility.yul\":11695:12070   */\n    tag_481:\n      0x00\n        /* \"#utility.yul\":11858:11925   */\n      tag_483\n        /* \"#utility.yul\":11922:11924   */\n      0x2b\n        /* \"#utility.yul\":11917:11920   */\n      dup4\n        /* \"#utility.yul\":11858:11925   */\n      tag_448\n      jump\t// in\n    tag_483:\n        /* \"#utility.yul\":11851:11925   */\n      swap2\n      pop\n        /* \"#utility.yul\":11955:11989   */\n      0x57616c6c6574206973206e6f7420616e2061646d696e6973747261746f722066\n        /* \"#utility.yul\":11951:11952   */\n      0x00\n        /* \"#utility.yul\":11946:11949   */\n      dup4\n        /* \"#utility.yul\":11942:11953   */\n      add\n        /* \"#utility.yul\":11935:11990   */\n      mstore\n        /* \"#utility.yul\":12021:12034   */\n      0x6f7220636f6e7472616374000000000000000000000000000000000000000000\n        /* \"#utility.yul\":12016:12018   */\n      0x20\n        /* \"#utility.yul\":12011:12014   */\n      dup4\n        /* \"#utility.yul\":12007:12019   */\n      add\n        /* \"#utility.yul\":12000:12035   */\n      mstore\n        /* \"#utility.yul\":12061:12063   */\n      0x40\n        /* \"#utility.yul\":12056:12059   */\n      dup3\n        /* \"#utility.yul\":12052:12064   */\n      add\n        /* \"#utility.yul\":12045:12064   */\n      swap1\n      pop\n        /* \"#utility.yul\":11841:12070   */\n      swap2\n      swap1\n      pop\n      jump\t// out\n        /* \"#utility.yul\":12076:12387   */\n    tag_484:\n      0x00\n        /* \"#utility.yul\":12239:12306   */\n      tag_486\n        /* \"#utility.yul\":12303:12305   */\n      0x0d\n        /* \"#utility.yul\":12298:12301   */\n      dup4\n        /* \"#utility.yul\":12239:12306   */\n      tag_448\n      jump\t// in\n    tag_486:\n        /* \"#utility.yul\":12232:12306   */\n      swap2\n      pop\n        /* \"#utility.yul\":12336:12351   */\n      0x496e76616c696420746f6b656e00000000000000000000000000000000000000\n        /* \"#utility.yul\":12332:12333   */\n      0x00\n        /* \"#utility.yul\":12327:12330   */\n      dup4\n        /* \"#utility.yul\":12323:12334   */\n      add\n        /* \"#utility.yul\":12316:12352   */\n      mstore\n        /* \"#utility.yul\":12378:12380   */\n      0x20\n        /* \"#utility.yul\":12373:12376   */\n      dup3\n        /* \"#utility.yul\":12369:12381   */\n      add\n        /* \"#utility.yul\":12362:12381   */\n      swap1\n      pop\n        /* \"#utility.yul\":12222:12387   */\n      swap2\n      swap1\n      pop\n      jump\t// out\n        /* \"#utility.yul\":12393:12762   */\n    tag_487:\n      0x00\n        /* \"#utility.yul\":12556:12623   */\n      tag_489\n        /* \"#utility.yul\":12620:12622   */\n      0x25\n        /* \"#utility.yul\":12615:12618   */\n      dup4\n        /* \"#utility.yul\":12556:12623   */\n      tag_448\n      jump\t// in\n    tag_489:\n        /* \"#utility.yul\":12549:12623   */\n      swap2\n      pop\n        /* \"#utility.yul\":12653:12687   */\n      0x43616e6e6f7420696e697469616c697a65207769746820656d707479206c6f63\n        /* \"#utility.yul\":12649:12650   */\n      0x00\n        /* \"#utility.yul\":12644:12647   */\n      dup4\n        /* \"#utility.yul\":12640:12651   */\n      add\n        /* \"#utility.yul\":12633:12688   */\n      mstore\n        /* \"#utility.yul\":12719:12726   */\n      0x6174696f6e000000000000000000000000000000000000000000000000000000\n        /* \"#utility.yul\":12714:12716   */\n      0x20\n        /* \"#utility.yul\":12709:12712   */\n      dup4\n        /* \"#utility.yul\":12705:12717   */\n      add\n        /* \"#utility.yul\":12698:12727   */\n      mstore\n        /* \"#utility.yul\":12753:12755   */\n      0x40\n        /* \"#utility.yul\":12748:12751   */\n      dup3\n        /* \"#utility.yul\":12744:12756   */\n      add\n        /* \"#utility.yul\":12737:12756   */\n      swap1\n      pop\n        /* \"#utility.yul\":12539:12762   */\n      swap2\n      swap1\n      pop\n      jump\t// out\n        /* \"#utility.yul\":12768:13095   */\n    tag_490:\n      0x00\n        /* \"#utility.yul\":12931:12998   */\n      tag_492\n        /* \"#utility.yul\":12995:12997   */\n      0x1d\n        /* \"#utility.yul\":12990:12993   */\n      dup4\n        /* \"#utility.yul\":12931:12998   */\n      tag_448\n      jump\t// in\n    tag_492:\n        /* \"#utility.yul\":12924:12998   */\n      swap2\n      pop\n        /* \"#utility.yul\":13028:13059   */\n      0x5472616e73616374696f6e206265666f72652073746172742064617465000000\n        /* \"#utility.yul\":13024:13025   */\n      0x00\n        /* \"#utility.yul\":13019:13022   */\n      dup4\n        /* \"#utility.yul\":13015:13026   */\n      add\n        /* \"#utility.yul\":13008:13060   */\n      mstore\n        /* \"#utility.yul\":13086:13088   */\n      0x20\n        /* \"#utility.yul\":13081:13084   */\n      dup3\n        /* \"#utility.yul\":13077:13089   */\n      add\n        /* \"#utility.yul\":13070:13089   */\n      swap1\n      pop\n        /* \"#utility.yul\":12914:13095   */\n      swap2\n      swap1\n      pop\n      jump\t// out\n        /* \"#utility.yul\":13101:13420   */\n    tag_493:\n      0x00\n        /* \"#utility.yul\":13264:13331   */\n      tag_495\n        /* \"#utility.yul\":13328:13330   */\n      0x15\n        /* \"#utility.yul\":13323:13326   */\n      dup4\n        /* \"#utility.yul\":13264:13331   */\n      tag_448\n      jump\t// in\n    tag_495:\n        /* \"#utility.yul\":13257:13331   */\n      swap2\n      pop\n        /* \"#utility.yul\":13361:13384   */\n      0x436c61696d206e6f7420696e697469616c697a65640000000000000000000000\n        /* \"#utility.yul\":13357:13358   */\n      0x00\n        /* \"#utility.yul\":13352:13355   */\n      dup4\n        /* \"#utility.yul\":13348:13359   */\n      add\n        /* \"#utility.yul\":13341:13385   */\n      mstore\n        /* \"#utility.yul\":13411:13413   */\n      0x20\n        /* \"#utility.yul\":13406:13409   */\n      dup3\n        /* \"#utility.yul\":13402:13414   */\n      add\n        /* \"#utility.yul\":13395:13414   */\n      swap1\n      pop\n        /* \"#utility.yul\":13247:13420   */\n      swap2\n      swap1\n      pop\n      jump\t// out\n        /* \"#utility.yul\":13426:13754   */\n    tag_496:\n      0x00\n        /* \"#utility.yul\":13589:13656   */\n      tag_498\n        /* \"#utility.yul\":13653:13655   */\n      0x1e\n        /* \"#utility.yul\":13648:13651   */\n      dup4\n        /* \"#utility.yul\":13589:13656   */\n      tag_448\n      jump\t// in\n    tag_498:\n        /* \"#utility.yul\":13582:13656   */\n      swap2\n      pop\n        /* \"#utility.yul\":13686:13718   */\n      0x4e6f20636c61696d7320666f722063726561746f7220636f6e74726163740000\n        /* \"#utility.yul\":13682:13683   */\n      0x00\n        /* \"#utility.yul\":13677:13680   */\n      dup4\n        /* \"#utility.yul\":13673:13684   */\n      add\n        /* \"#utility.yul\":13666:13719   */\n      mstore\n        /* \"#utility.yul\":13745:13747   */\n      0x20\n        /* \"#utility.yul\":13740:13743   */\n      dup3\n        /* \"#utility.yul\":13736:13748   */\n      add\n        /* \"#utility.yul\":13729:13748   */\n      swap1\n      pop\n        /* \"#utility.yul\":13572:13754   */\n      swap2\n      swap1\n      pop\n      jump\t// out\n        /* \"#utility.yul\":13760:14097   */\n    tag_499:\n      0x00\n        /* \"#utility.yul\":13941:14025   */\n      tag_501\n        /* \"#utility.yul\":14023:14024   */\n      0x05\n        /* \"#utility.yul\":14018:14021   */\n      dup4\n        /* \"#utility.yul\":13941:14025   */\n      tag_455\n      jump\t// in\n    tag_501:\n        /* \"#utility.yul\":13934:14025   */\n      swap2\n      pop\n        /* \"#utility.yul\":14055:14062   */\n      0x2e6a736f6e000000000000000000000000000000000000000000000000000000\n        /* \"#utility.yul\":14051:14052   */\n      0x00\n        /* \"#utility.yul\":14046:14049   */\n      dup4\n        /* \"#utility.yul\":14042:14053   */\n      add\n        /* \"#utility.yul\":14035:14063   */\n      mstore\n        /* \"#utility.yul\":14089:14090   */\n      0x05\n        /* \"#utility.yul\":14084:14087   */\n      dup3\n        /* \"#utility.yul\":14080:14091   */\n      add\n        /* \"#utility.yul\":14073:14091   */\n      swap1\n      pop\n        /* \"#utility.yul\":13924:14097   */\n      swap2\n      swap1\n      pop\n      jump\t// out\n        /* \"#utility.yul\":14103:14426   */\n    tag_502:\n      0x00\n        /* \"#utility.yul\":14266:14333   */\n      tag_504\n        /* \"#utility.yul\":14330:14332   */\n      0x19\n        /* \"#utility.yul\":14325:14328   */\n      dup4\n        /* \"#utility.yul\":14266:14333   */\n      tag_448\n      jump\t// in\n    tag_504:\n        /* \"#utility.yul\":14259:14333   */\n      swap2\n      pop\n        /* \"#utility.yul\":14363:14390   */\n      0x43616e6e6f742064656372656173652077616c6c65744d617800000000000000\n        /* \"#utility.yul\":14359:14360   */\n      0x00\n        /* \"#utility.yul\":14354:14357   */\n      dup4\n        /* \"#utility.yul\":14350:14361   */\n      add\n        /* \"#utility.yul\":14343:14391   */\n      mstore\n        /* \"#utility.yul\":14417:14419   */\n      0x20\n        /* \"#utility.yul\":14412:14415   */\n      dup3\n        /* \"#utility.yul\":14408:14420   */\n      add\n        /* \"#utility.yul\":14401:14420   */\n      swap1\n      pop\n        /* \"#utility.yul\":14249:14426   */\n      swap2\n      swap1\n      pop\n      jump\t// out\n        /* \"#utility.yul\":14432:14808   */\n    tag_505:\n      0x00\n        /* \"#utility.yul\":14595:14662   */\n      tag_507\n        /* \"#utility.yul\":14659:14661   */\n      0x2c\n        /* \"#utility.yul\":14654:14657   */\n      dup4\n        /* \"#utility.yul\":14595:14662   */\n      tag_448\n      jump\t// in\n    tag_507:\n        /* \"#utility.yul\":14588:14662   */\n      swap2\n      pop\n        /* \"#utility.yul\":14692:14726   */\n      0x4d6178696d756d20746f6b656e7320616c7265616479206d696e74656420666f\n        /* \"#utility.yul\":14688:14689   */\n      0x00\n        /* \"#utility.yul\":14683:14686   */\n      dup4\n        /* \"#utility.yul\":14679:14690   */\n      add\n        /* \"#utility.yul\":14672:14727   */\n      mstore\n        /* \"#utility.yul\":14758:14772   */\n      0x72207468697320636c61696d0000000000000000000000000000000000000000\n        /* \"#utility.yul\":14753:14755   */\n      0x20\n        /* \"#utility.yul\":14748:14751   */\n      dup4\n        /* \"#utility.yul\":14744:14756   */\n      add\n        /* \"#utility.yul\":14737:14773   */\n      mstore\n        /* \"#utility.yul\":14799:14801   */\n      0x40\n        /* \"#utility.yul\":14794:14797   */\n      dup3\n        /* \"#utility.yul\":14790:14802   */\n      add\n        /* \"#utility.yul\":14783:14802   */\n      swap1\n      pop\n        /* \"#utility.yul\":14578:14808   */\n      swap2\n      swap1\n      pop\n      jump\t// out\n        /* \"#utility.yul\":14814:15141   */\n    tag_508:\n      0x00\n        /* \"#utility.yul\":14977:15044   */\n      tag_510\n        /* \"#utility.yul\":15041:15043   */\n      0x1d\n        /* \"#utility.yul\":15036:15039   */\n      dup4\n        /* \"#utility.yul\":14977:15044   */\n      tag_448\n      jump\t// in\n    tag_510:\n        /* \"#utility.yul\":14970:15044   */\n      swap2\n      pop\n        /* \"#utility.yul\":15074:15105   */\n      0x436f756c64206e6f7420766572696679206d65726b6c652070726f6f66000000\n        /* \"#utility.yul\":15070:15071   */\n      0x00\n        /* \"#utility.yul\":15065:15068   */\n      dup4\n        /* \"#utility.yul\":15061:15072   */\n      add\n        /* \"#utility.yul\":15054:15106   */\n      mstore\n        /* \"#utility.yul\":15132:15134   */\n      0x20\n        /* \"#utility.yul\":15127:15130   */\n      dup3\n        /* \"#utility.yul\":15123:15135   */\n      add\n        /* \"#utility.yul\":15116:15135   */\n      swap1\n      pop\n        /* \"#utility.yul\":14960:15141   */\n      swap2\n      swap1\n      pop\n      jump\t// out\n        /* \"#utility.yul\":15147:15524   */\n    tag_511:\n      0x00\n        /* \"#utility.yul\":15310:15377   */\n      tag_513\n        /* \"#utility.yul\":15374:15376   */\n      0x2d\n        /* \"#utility.yul\":15369:15372   */\n      dup4\n        /* \"#utility.yul\":15310:15377   */\n      tag_448\n      jump\t// in\n    tag_513:\n        /* \"#utility.yul\":15303:15377   */\n      swap2\n      pop\n        /* \"#utility.yul\":15407:15441   */\n      0x4d6178696d756d20746f6b656e7320616c7265616479206d696e74656420666f\n        /* \"#utility.yul\":15403:15404   */\n      0x00\n        /* \"#utility.yul\":15398:15401   */\n      dup4\n        /* \"#utility.yul\":15394:15405   */\n      add\n        /* \"#utility.yul\":15387:15442   */\n      mstore\n        /* \"#utility.yul\":15473:15488   */\n      0x7220746869732077616c6c657400000000000000000000000000000000000000\n        /* \"#utility.yul\":15468:15470   */\n      0x20\n        /* \"#utility.yul\":15463:15466   */\n      dup4\n        /* \"#utility.yul\":15459:15471   */\n      add\n        /* \"#utility.yul\":15452:15489   */\n      mstore\n        /* \"#utility.yul\":15515:15517   */\n      0x40\n        /* \"#utility.yul\":15510:15513   */\n      dup3\n        /* \"#utility.yul\":15506:15518   */\n      add\n        /* \"#utility.yul\":15499:15518   */\n      swap1\n      pop\n        /* \"#utility.yul\":15293:15524   */\n      swap2\n      swap1\n      pop\n      jump\t// out\n        /* \"#utility.yul\":15530:15854   */\n    tag_514:\n      0x00\n        /* \"#utility.yul\":15693:15760   */\n      tag_516\n        /* \"#utility.yul\":15757:15759   */\n      0x1a\n        /* \"#utility.yul\":15752:15755   */\n      dup4\n        /* \"#utility.yul\":15693:15760   */\n      tag_448\n      jump\t// in\n    tag_516:\n        /* \"#utility.yul\":15686:15760   */\n      swap2\n      pop\n        /* \"#utility.yul\":15790:15818   */\n      0x5472616e73616374696f6e20616674657220656e642064617465000000000000\n        /* \"#utility.yul\":15786:15787   */\n      0x00\n        /* \"#utility.yul\":15781:15784   */\n      dup4\n        /* \"#utility.yul\":15777:15788   */\n      add\n        /* \"#utility.yul\":15770:15819   */\n      mstore\n        /* \"#utility.yul\":15845:15847   */\n      0x20\n        /* \"#utility.yul\":15840:15843   */\n      dup3\n        /* \"#utility.yul\":15836:15848   */\n      add\n        /* \"#utility.yul\":15829:15848   */\n      swap1\n      pop\n        /* \"#utility.yul\":15676:15854   */\n      swap2\n      swap1\n      pop\n      jump\t// out\n        /* \"#utility.yul\":15860:16252   */\n    tag_517:\n      0x00\n        /* \"#utility.yul\":16023:16090   */\n      tag_519\n        /* \"#utility.yul\":16087:16089   */\n      0x3c\n        /* \"#utility.yul\":16082:16085   */\n      dup4\n        /* \"#utility.yul\":16023:16090   */\n      tag_448\n      jump\t// in\n    tag_519:\n        /* \"#utility.yul\":16016:16090   */\n      swap2\n      pop\n        /* \"#utility.yul\":16120:16154   */\n      0x4d6178696d756d20746f6b656e7320616c7265616479206d696e74656420666f\n        /* \"#utility.yul\":16116:16117   */\n      0x00\n        /* \"#utility.yul\":16111:16114   */\n      dup4\n        /* \"#utility.yul\":16107:16118   */\n      add\n        /* \"#utility.yul\":16100:16155   */\n      mstore\n        /* \"#utility.yul\":16186:16216   */\n      0x7220746869732077616c6c65742070657220616c6c6f636174696f6e00000000\n        /* \"#utility.yul\":16181:16183   */\n      0x20\n        /* \"#utility.yul\":16176:16179   */\n      dup4\n        /* \"#utility.yul\":16172:16184   */\n      add\n        /* \"#utility.yul\":16165:16217   */\n      mstore\n        /* \"#utility.yul\":16243:16245   */\n      0x40\n        /* \"#utility.yul\":16238:16241   */\n      dup3\n        /* \"#utility.yul\":16234:16246   */\n      add\n        /* \"#utility.yul\":16227:16246   */\n      swap1\n      pop\n        /* \"#utility.yul\":16006:16252   */\n      swap2\n      swap1\n      pop\n      jump\t// out\n        /* \"#utility.yul\":16258:16591   */\n    tag_520:\n      0x00\n        /* \"#utility.yul\":16439:16523   */\n      tag_522\n        /* \"#utility.yul\":16521:16522   */\n      0x01\n        /* \"#utility.yul\":16516:16519   */\n      dup4\n        /* \"#utility.yul\":16439:16523   */\n      tag_455\n      jump\t// in\n    tag_522:\n        /* \"#utility.yul\":16432:16523   */\n      swap2\n      pop\n        /* \"#utility.yul\":16553:16556   */\n      0x2f00000000000000000000000000000000000000000000000000000000000000\n        /* \"#utility.yul\":16549:16550   */\n      0x00\n        /* \"#utility.yul\":16544:16547   */\n      dup4\n        /* \"#utility.yul\":16540:16551   */\n      add\n        /* \"#utility.yul\":16533:16557   */\n      mstore\n        /* \"#utility.yul\":16583:16584   */\n      0x01\n        /* \"#utility.yul\":16578:16581   */\n      dup3\n        /* \"#utility.yul\":16574:16585   */\n      add\n        /* \"#utility.yul\":16567:16585   */\n      swap1\n      pop\n        /* \"#utility.yul\":16422:16591   */\n      swap2\n      swap1\n      pop\n      jump\t// out\n        /* \"#utility.yul\":16667:18539   */\n    tag_523:\n      0x00\n        /* \"#utility.yul\":16818:16824   */\n      0x0120\n        /* \"#utility.yul\":16813:16816   */\n      dup4\n        /* \"#utility.yul\":16809:16825   */\n      add\n        /* \"#utility.yul\":16908:16912   */\n      0x00\n        /* \"#utility.yul\":16901:16906   */\n      dup4\n        /* \"#utility.yul\":16897:16913   */\n      add\n        /* \"#utility.yul\":16891:16914   */\n      mload\n        /* \"#utility.yul\":16927:16988   */\n      tag_525\n        /* \"#utility.yul\":16982:16986   */\n      0x00\n        /* \"#utility.yul\":16977:16980   */\n      dup7\n        /* \"#utility.yul\":16973:16987   */\n      add\n        /* \"#utility.yul\":16959:16971   */\n      dup3\n        /* \"#utility.yul\":16927:16988   */\n      tag_526\n      jump\t// in\n    tag_525:\n        /* \"#utility.yul\":16835:16998   */\n      pop\n        /* \"#utility.yul\":17084:17088   */\n      0x20\n        /* \"#utility.yul\":17077:17082   */\n      dup4\n        /* \"#utility.yul\":17073:17089   */\n      add\n        /* \"#utility.yul\":17067:17090   */\n      mload\n        /* \"#utility.yul\":17103:17164   */\n      tag_527\n        /* \"#utility.yul\":17158:17162   */\n      0x20\n        /* \"#utility.yul\":17153:17156   */\n      dup7\n        /* \"#utility.yul\":17149:17163   */\n      add\n        /* \"#utility.yul\":17135:17147   */\n      dup3\n        /* \"#utility.yul\":17103:17164   */\n      tag_526\n      jump\t// in\n    tag_527:\n        /* \"#utility.yul\":17008:17174   */\n      pop\n        /* \"#utility.yul\":17261:17265   */\n      0x40\n        /* \"#utility.yul\":17254:17259   */\n      dup4\n        /* \"#utility.yul\":17250:17266   */\n      add\n        /* \"#utility.yul\":17244:17267   */\n      mload\n        /* \"#utility.yul\":17280:17341   */\n      tag_528\n        /* \"#utility.yul\":17335:17339   */\n      0x40\n        /* \"#utility.yul\":17330:17333   */\n      dup7\n        /* \"#utility.yul\":17326:17340   */\n      add\n        /* \"#utility.yul\":17312:17324   */\n      dup3\n        /* \"#utility.yul\":17280:17341   */\n      tag_526\n      jump\t// in\n    tag_528:\n        /* \"#utility.yul\":17184:17351   */\n      pop\n        /* \"#utility.yul\":17438:17442   */\n      0x60\n        /* \"#utility.yul\":17431:17436   */\n      dup4\n        /* \"#utility.yul\":17427:17443   */\n      add\n        /* \"#utility.yul\":17421:17444   */\n      mload\n        /* \"#utility.yul\":17457:17518   */\n      tag_529\n        /* \"#utility.yul\":17512:17516   */\n      0x60\n        /* \"#utility.yul\":17507:17510   */\n      dup7\n        /* \"#utility.yul\":17503:17517   */\n      add\n        /* \"#utility.yul\":17489:17501   */\n      dup3\n        /* \"#utility.yul\":17457:17518   */\n      tag_530\n      jump\t// in\n    tag_529:\n        /* \"#utility.yul\":17361:17528   */\n      pop\n        /* \"#utility.yul\":17613:17617   */\n      0x80\n        /* \"#utility.yul\":17606:17611   */\n      dup4\n        /* \"#utility.yul\":17602:17618   */\n      add\n        /* \"#utility.yul\":17596:17619   */\n      mload\n        /* \"#utility.yul\":17632:17693   */\n      tag_531\n        /* \"#utility.yul\":17687:17691   */\n      0x80\n        /* \"#utility.yul\":17682:17685   */\n      dup7\n        /* \"#utility.yul\":17678:17692   */\n      add\n        /* \"#utility.yul\":17664:17676   */\n      dup3\n        /* \"#utility.yul\":17632:17693   */\n      tag_530\n      jump\t// in\n    tag_531:\n        /* \"#utility.yul\":17538:17703   */\n      pop\n        /* \"#utility.yul\":17796:17800   */\n      0xa0\n        /* \"#utility.yul\":17789:17794   */\n      dup4\n        /* \"#utility.yul\":17785:17801   */\n      add\n        /* \"#utility.yul\":17779:17802   */\n      mload\n        /* \"#utility.yul\":17815:17896   */\n      tag_532\n        /* \"#utility.yul\":17890:17894   */\n      0xa0\n        /* \"#utility.yul\":17885:17888   */\n      dup7\n        /* \"#utility.yul\":17881:17895   */\n      add\n        /* \"#utility.yul\":17867:17879   */\n      dup3\n        /* \"#utility.yul\":17815:17896   */\n      tag_430\n      jump\t// in\n    tag_532:\n        /* \"#utility.yul\":17713:17906   */\n      pop\n        /* \"#utility.yul\":17993:17997   */\n      0xc0\n        /* \"#utility.yul\":17986:17991   */\n      dup4\n        /* \"#utility.yul\":17982:17998   */\n      add\n        /* \"#utility.yul\":17976:17999   */\n      mload\n        /* \"#utility.yul\":18012:18069   */\n      tag_533\n        /* \"#utility.yul\":18063:18067   */\n      0xc0\n        /* \"#utility.yul\":18058:18061   */\n      dup7\n        /* \"#utility.yul\":18054:18068   */\n      add\n        /* \"#utility.yul\":18040:18052   */\n      dup3\n        /* \"#utility.yul\":18012:18069   */\n      tag_414\n      jump\t// in\n    tag_533:\n        /* \"#utility.yul\":17916:18079   */\n      pop\n        /* \"#utility.yul\":18167:18171   */\n      0xe0\n        /* \"#utility.yul\":18160:18165   */\n      dup4\n        /* \"#utility.yul\":18156:18172   */\n      add\n        /* \"#utility.yul\":18150:18173   */\n      mload\n        /* \"#utility.yul\":18186:18249   */\n      tag_534\n        /* \"#utility.yul\":18243:18247   */\n      0xe0\n        /* \"#utility.yul\":18238:18241   */\n      dup7\n        /* \"#utility.yul\":18234:18248   */\n      add\n        /* \"#utility.yul\":18220:18232   */\n      dup3\n        /* \"#utility.yul\":18186:18249   */\n      tag_421\n      jump\t// in\n    tag_534:\n        /* \"#utility.yul\":18089:18259   */\n      pop\n        /* \"#utility.yul\":18345:18351   */\n      0x0100\n        /* \"#utility.yul\":18338:18343   */\n      dup4\n        /* \"#utility.yul\":18334:18352   */\n      add\n        /* \"#utility.yul\":18328:18353   */\n      mload\n        /* \"#utility.yul\":18402:18405   */\n      dup5\n        /* \"#utility.yul\":18396:18400   */\n      dup3\n        /* \"#utility.yul\":18392:18406   */\n      sub\n        /* \"#utility.yul\":18383:18389   */\n      0x0100\n        /* \"#utility.yul\":18378:18381   */\n      dup7\n        /* \"#utility.yul\":18374:18390   */\n      add\n        /* \"#utility.yul\":18367:18407   */\n      mstore\n        /* \"#utility.yul\":18428:18501   */\n      tag_535\n        /* \"#utility.yul\":18496:18500   */\n      dup3\n        /* \"#utility.yul\":18482:18494   */\n      dup3\n        /* \"#utility.yul\":18428:18501   */\n      tag_434\n      jump\t// in\n    tag_535:\n        /* \"#utility.yul\":18420:18501   */\n      swap2\n      pop\n        /* \"#utility.yul\":18269:18512   */\n      pop\n        /* \"#utility.yul\":18529:18533   */\n      dup1\n        /* \"#utility.yul\":18522:18533   */\n      swap2\n      pop\n        /* \"#utility.yul\":16787:18539   */\n      pop\n      swap3\n      swap2\n      pop\n      pop\n      jump\t// out\n        /* \"#utility.yul\":18545:18663   */\n    tag_536:\n        /* \"#utility.yul\":18632:18656   */\n      tag_538\n        /* \"#utility.yul\":18650:18655   */\n      dup2\n        /* \"#utility.yul\":18632:18656   */\n      tag_539\n      jump\t// in\n    tag_538:\n        /* \"#utility.yul\":18627:18630   */\n      dup3\n        /* \"#utility.yul\":18620:18657   */\n      mstore\n        /* \"#utility.yul\":18610:18663   */\n      pop\n      pop\n      jump\t// out\n        /* \"#utility.yul\":18669:18774   */\n    tag_526:\n        /* \"#utility.yul\":18744:18767   */\n      tag_541\n        /* \"#utility.yul\":18761:18766   */\n      dup2\n        /* \"#utility.yul\":18744:18767   */\n      tag_542\n      jump\t// in\n    tag_541:\n        /* \"#utility.yul\":18739:18742   */\n      dup3\n        /* \"#utility.yul\":18732:18768   */\n      mstore\n        /* \"#utility.yul\":18722:18774   */\n      pop\n      pop\n      jump\t// out\n        /* \"#utility.yul\":18780:18895   */\n    tag_543:\n        /* \"#utility.yul\":18865:18888   */\n      tag_545\n        /* \"#utility.yul\":18882:18887   */\n      dup2\n        /* \"#utility.yul\":18865:18888   */\n      tag_542\n      jump\t// in\n    tag_545:\n        /* \"#utility.yul\":18860:18863   */\n      dup3\n        /* \"#utility.yul\":18853:18889   */\n      mstore\n        /* \"#utility.yul\":18843:18895   */\n      pop\n      pop\n      jump\t// out\n        /* \"#utility.yul\":18901:19054   */\n    tag_546:\n        /* \"#utility.yul\":19004:19047   */\n      tag_548\n        /* \"#utility.yul\":19023:19046   */\n      tag_549\n        /* \"#utility.yul\":19040:19045   */\n      dup3\n        /* \"#utility.yul\":19023:19046   */\n      tag_542\n      jump\t// in\n    tag_549:\n        /* \"#utility.yul\":19004:19047   */\n      tag_550\n      jump\t// in\n    tag_548:\n        /* \"#utility.yul\":18999:19002   */\n      dup3\n        /* \"#utility.yul\":18992:19048   */\n      mstore\n        /* \"#utility.yul\":18982:19054   */\n      pop\n      pop\n      jump\t// out\n        /* \"#utility.yul\":19060:19165   */\n    tag_530:\n        /* \"#utility.yul\":19135:19158   */\n      tag_552\n        /* \"#utility.yul\":19152:19157   */\n      dup2\n        /* \"#utility.yul\":19135:19158   */\n      tag_553\n      jump\t// in\n    tag_552:\n        /* \"#utility.yul\":19130:19133   */\n      dup3\n        /* \"#utility.yul\":19123:19159   */\n      mstore\n        /* \"#utility.yul\":19113:19165   */\n      pop\n      pop\n      jump\t// out\n        /* \"#utility.yul\":19171:19563   */\n    tag_136:\n      0x00\n        /* \"#utility.yul\":19324:19399   */\n      tag_555\n        /* \"#utility.yul\":19395:19398   */\n      dup3\n        /* \"#utility.yul\":19386:19392   */\n      dup6\n        /* \"#utility.yul\":19324:19399   */\n      tag_409\n      jump\t// in\n    tag_555:\n        /* \"#utility.yul\":19424:19426   */\n      0x14\n        /* \"#utility.yul\":19419:19422   */\n      dup3\n        /* \"#utility.yul\":19415:19427   */\n      add\n        /* \"#utility.yul\":19408:19427   */\n      swap2\n      pop\n        /* \"#utility.yul\":19437:19510   */\n      tag_556\n        /* \"#utility.yul\":19506:19509   */\n      dup3\n        /* \"#utility.yul\":19497:19503   */\n      dup5\n        /* \"#utility.yul\":19437:19510   */\n      tag_546\n      jump\t// in\n    tag_556:\n        /* \"#utility.yul\":19535:19536   */\n      0x04\n        /* \"#utility.yul\":19530:19533   */\n      dup3\n        /* \"#utility.yul\":19526:19537   */\n      add\n        /* \"#utility.yul\":19519:19537   */\n      swap2\n      pop\n        /* \"#utility.yul\":19554:19557   */\n      dup2\n        /* \"#utility.yul\":19547:19557   */\n      swap1\n      pop\n        /* \"#utility.yul\":19313:19563   */\n      swap4\n      swap3\n      pop\n      pop\n      pop\n      jump\t// out\n        /* \"#utility.yul\":19569:19966   */\n    tag_296:\n      0x00\n        /* \"#utility.yul\":19724:19799   */\n      tag_558\n        /* \"#utility.yul\":19795:19798   */\n      dup3\n        /* \"#utility.yul\":19786:19792   */\n      dup6\n        /* \"#utility.yul\":19724:19799   */\n      tag_425\n      jump\t// in\n    tag_558:\n        /* \"#utility.yul\":19824:19826   */\n      0x20\n        /* \"#utility.yul\":19819:19822   */\n      dup3\n        /* \"#utility.yul\":19815:19827   */\n      add\n        /* \"#utility.yul\":19808:19827   */\n      swap2\n      pop\n        /* \"#utility.yul\":19837:19912   */\n      tag_559\n        /* \"#utility.yul\":19908:19911   */\n      dup3\n        /* \"#utility.yul\":19899:19905   */\n      dup5\n        /* \"#utility.yul\":19837:19912   */\n      tag_425\n      jump\t// in\n    tag_559:\n        /* \"#utility.yul\":19937:19939   */\n      0x20\n        /* \"#utility.yul\":19932:19935   */\n      dup3\n        /* \"#utility.yul\":19928:19940   */\n      add\n        /* \"#utility.yul\":19921:19940   */\n      swap2\n      pop\n        /* \"#utility.yul\":19957:19960   */\n      dup2\n        /* \"#utility.yul\":19950:19960   */\n      swap1\n      pop\n        /* \"#utility.yul\":19713:19966   */\n      swap4\n      swap3\n      pop\n      pop\n      pop\n      jump\t// out\n        /* \"#utility.yul\":19972:20561   */\n    tag_231:\n      0x00\n        /* \"#utility.yul\":20219:20314   */\n      tag_561\n        /* \"#utility.yul\":20310:20313   */\n      dup3\n        /* \"#utility.yul\":20301:20307   */\n      dup7\n        /* \"#utility.yul\":20219:20314   */\n      tag_451\n      jump\t// in\n    tag_561:\n        /* \"#utility.yul\":20212:20314   */\n      swap2\n      pop\n        /* \"#utility.yul\":20331:20423   */\n      tag_562\n        /* \"#utility.yul\":20419:20422   */\n      dup3\n        /* \"#utility.yul\":20410:20416   */\n      dup6\n        /* \"#utility.yul\":20331:20423   */\n      tag_457\n      jump\t// in\n    tag_562:\n        /* \"#utility.yul\":20324:20423   */\n      swap2\n      pop\n        /* \"#utility.yul\":20440:20535   */\n      tag_563\n        /* \"#utility.yul\":20531:20534   */\n      dup3\n        /* \"#utility.yul\":20522:20528   */\n      dup5\n        /* \"#utility.yul\":20440:20535   */\n      tag_451\n      jump\t// in\n    tag_563:\n        /* \"#utility.yul\":20433:20535   */\n      swap2\n      pop\n        /* \"#utility.yul\":20552:20555   */\n      dup2\n        /* \"#utility.yul\":20545:20555   */\n      swap1\n      pop\n        /* \"#utility.yul\":20201:20561   */\n      swap5\n      swap4\n      pop\n      pop\n      pop\n      pop\n      jump\t// out\n        /* \"#utility.yul\":20567:21108   */\n    tag_222:\n      0x00\n        /* \"#utility.yul\":20822:20917   */\n      tag_565\n        /* \"#utility.yul\":20913:20916   */\n      dup3\n        /* \"#utility.yul\":20904:20910   */\n      dup5\n        /* \"#utility.yul\":20822:20917   */\n      tag_451\n      jump\t// in\n    tag_565:\n        /* \"#utility.yul\":20815:20917   */\n      swap2\n      pop\n        /* \"#utility.yul\":20934:21082   */\n      tag_566\n        /* \"#utility.yul\":21078:21081   */\n      dup3\n        /* \"#utility.yul\":20934:21082   */\n      tag_499\n      jump\t// in\n    tag_566:\n        /* \"#utility.yul\":20927:21082   */\n      swap2\n      pop\n        /* \"#utility.yul\":21099:21102   */\n      dup2\n        /* \"#utility.yul\":21092:21102   */\n      swap1\n      pop\n        /* \"#utility.yul\":20804:21108   */\n      swap3\n      swap2\n      pop\n      pop\n      jump\t// out\n        /* \"#utility.yul\":21114:21655   */\n    tag_217:\n      0x00\n        /* \"#utility.yul\":21369:21517   */\n      tag_568\n        /* \"#utility.yul\":21513:21516   */\n      dup3\n        /* \"#utility.yul\":21369:21517   */\n      tag_520\n      jump\t// in\n    tag_568:\n        /* \"#utility.yul\":21362:21517   */\n      swap2\n      pop\n        /* \"#utility.yul\":21534:21629   */\n      tag_569\n        /* \"#utility.yul\":21625:21628   */\n      dup3\n        /* \"#utility.yul\":21616:21622   */\n      dup5\n        /* \"#utility.yul\":21534:21629   */\n      tag_451\n      jump\t// in\n    tag_569:\n        /* \"#utility.yul\":21527:21629   */\n      swap2\n      pop\n        /* \"#utility.yul\":21646:21649   */\n      dup2\n        /* \"#utility.yul\":21639:21649   */\n      swap1\n      pop\n        /* \"#utility.yul\":21351:21655   */\n      swap3\n      swap2\n      pop\n      pop\n      jump\t// out\n        /* \"#utility.yul\":21661:21883   */\n    tag_68:\n      0x00\n        /* \"#utility.yul\":21792:21794   */\n      0x20\n        /* \"#utility.yul\":21781:21790   */\n      dup3\n        /* \"#utility.yul\":21777:21795   */\n      add\n        /* \"#utility.yul\":21769:21795   */\n      swap1\n      pop\n        /* \"#utility.yul\":21805:21876   */\n      tag_571\n        /* \"#utility.yul\":21873:21874   */\n      0x00\n        /* \"#utility.yul\":21862:21871   */\n      dup4\n        /* \"#utility.yul\":21858:21875   */\n      add\n        /* \"#utility.yul\":21849:21855   */\n      dup5\n        /* \"#utility.yul\":21805:21876   */\n      tag_405\n      jump\t// in\n    tag_571:\n        /* \"#utility.yul\":21759:21883   */\n      swap3\n      swap2\n      pop\n      pop\n      jump\t// out\n        /* \"#utility.yul\":21889:22099   */\n    tag_18:\n      0x00\n        /* \"#utility.yul\":22014:22016   */\n      0x20\n        /* \"#utility.yul\":22003:22012   */\n      dup3\n        /* \"#utility.yul\":21999:22017   */\n      add\n        /* \"#utility.yul\":21991:22017   */\n      swap1\n      pop\n        /* \"#utility.yul\":22027:22092   */\n      tag_573\n        /* \"#utility.yul\":22089:22090   */\n      0x00\n        /* \"#utility.yul\":22078:22087   */\n      dup4\n        /* \"#utility.yul\":22074:22091   */\n      add\n        /* \"#utility.yul\":22065:22071   */\n      dup5\n        /* \"#utility.yul\":22027:22092   */\n      tag_418\n      jump\t// in\n    tag_573:\n        /* \"#utility.yul\":21981:22099   */\n      swap3\n      swap2\n      pop\n      pop\n      jump\t// out\n        /* \"#utility.yul\":22105:22418   */\n    tag_59:\n      0x00\n        /* \"#utility.yul\":22256:22258   */\n      0x20\n        /* \"#utility.yul\":22245:22254   */\n      dup3\n        /* \"#utility.yul\":22241:22259   */\n      add\n        /* \"#utility.yul\":22233:22259   */\n      swap1\n      pop\n        /* \"#utility.yul\":22305:22314   */\n      dup2\n        /* \"#utility.yul\":22299:22303   */\n      dup2\n        /* \"#utility.yul\":22295:22315   */\n      sub\n        /* \"#utility.yul\":22291:22292   */\n      0x00\n        /* \"#utility.yul\":22280:22289   */\n      dup4\n        /* \"#utility.yul\":22276:22293   */\n      add\n        /* \"#utility.yul\":22269:22316   */\n      mstore\n        /* \"#utility.yul\":22333:22411   */\n      tag_575\n        /* \"#utility.yul\":22406:22410   */\n      dup2\n        /* \"#utility.yul\":22397:22403   */\n      dup5\n        /* \"#utility.yul\":22333:22411   */\n      tag_444\n      jump\t// in\n    tag_575:\n        /* \"#utility.yul\":22325:22411   */\n      swap1\n      pop\n        /* \"#utility.yul\":22223:22418   */\n      swap3\n      swap2\n      pop\n      pop\n      jump\t// out\n        /* \"#utility.yul\":22424:22843   */\n    tag_90:\n      0x00\n        /* \"#utility.yul\":22628:22630   */\n      0x20\n        /* \"#utility.yul\":22617:22626   */\n      dup3\n        /* \"#utility.yul\":22613:22631   */\n      add\n        /* \"#utility.yul\":22605:22631   */\n      swap1\n      pop\n        /* \"#utility.yul\":22677:22686   */\n      dup2\n        /* \"#utility.yul\":22671:22675   */\n      dup2\n        /* \"#utility.yul\":22667:22687   */\n      sub\n        /* \"#utility.yul\":22663:22664   */\n      0x00\n        /* \"#utility.yul\":22652:22661   */\n      dup4\n        /* \"#utility.yul\":22648:22665   */\n      add\n        /* \"#utility.yul\":22641:22688   */\n      mstore\n        /* \"#utility.yul\":22705:22836   */\n      tag_577\n        /* \"#utility.yul\":22831:22835   */\n      dup2\n        /* \"#utility.yul\":22705:22836   */\n      tag_469\n      jump\t// in\n    tag_577:\n        /* \"#utility.yul\":22697:22836   */\n      swap1\n      pop\n        /* \"#utility.yul\":22595:22843   */\n      swap2\n      swap1\n      pop\n      jump\t// out\n        /* \"#utility.yul\":22849:23268   */\n    tag_185:\n      0x00\n        /* \"#utility.yul\":23053:23055   */\n      0x20\n        /* \"#utility.yul\":23042:23051   */\n      dup3\n        /* \"#utility.yul\":23038:23056   */\n      add\n        /* \"#utility.yul\":23030:23056   */\n      swap1\n      pop\n        /* \"#utility.yul\":23102:23111   */\n      dup2\n        /* \"#utility.yul\":23096:23100   */\n      dup2\n        /* \"#utility.yul\":23092:23112   */\n      sub\n        /* \"#utility.yul\":23088:23089   */\n      0x00\n        /* \"#utility.yul\":23077:23086   */\n      dup4\n        /* \"#utility.yul\":23073:23090   */\n      add\n        /* \"#utility.yul\":23066:23113   */\n      mstore\n        /* \"#utility.yul\":23130:23261   */\n      tag_579\n        /* \"#utility.yul\":23256:23260   */\n      dup2\n        /* \"#utility.yul\":23130:23261   */\n      tag_472\n      jump\t// in\n    tag_579:\n        /* \"#utility.yul\":23122:23261   */\n      swap1\n      pop\n        /* \"#utility.yul\":23020:23268   */\n      swap2\n      swap1\n      pop\n      jump\t// out\n        /* \"#utility.yul\":23274:23693   */\n    tag_189:\n      0x00\n        /* \"#utility.yul\":23478:23480   */\n      0x20\n        /* \"#utility.yul\":23467:23476   */\n      dup3\n        /* \"#utility.yul\":23463:23481   */\n      add\n        /* \"#utility.yul\":23455:23481   */\n      swap1\n      pop\n        /* \"#utility.yul\":23527:23536   */\n      dup2\n        /* \"#utility.yul\":23521:23525   */\n      dup2\n        /* \"#utility.yul\":23517:23537   */\n      sub\n        /* \"#utility.yul\":23513:23514   */\n      0x00\n        /* \"#utility.yul\":23502:23511   */\n      dup4\n        /* \"#utility.yul\":23498:23515   */\n      add\n        /* \"#utility.yul\":23491:23538   */\n      mstore\n        /* \"#utility.yul\":23555:23686   */\n      tag_581\n        /* \"#utility.yul\":23681:23685   */\n      dup2\n        /* \"#utility.yul\":23555:23686   */\n      tag_475\n      jump\t// in\n    tag_581:\n        /* \"#utility.yul\":23547:23686   */\n      swap1\n      pop\n        /* \"#utility.yul\":23445:23693   */\n      swap2\n      swap1\n      pop\n      jump\t// out\n        /* \"#utility.yul\":23699:24118   */\n    tag_95:\n      0x00\n        /* \"#utility.yul\":23903:23905   */\n      0x20\n        /* \"#utility.yul\":23892:23901   */\n      dup3\n        /* \"#utility.yul\":23888:23906   */\n      add\n        /* \"#utility.yul\":23880:23906   */\n      swap1\n      pop\n        /* \"#utility.yul\":23952:23961   */\n      dup2\n        /* \"#utility.yul\":23946:23950   */\n      dup2\n        /* \"#utility.yul\":23942:23962   */\n      sub\n        /* \"#utility.yul\":23938:23939   */\n      0x00\n        /* \"#utility.yul\":23927:23936   */\n      dup4\n        /* \"#utility.yul\":23923:23940   */\n      add\n        /* \"#utility.yul\":23916:23963   */\n      mstore\n        /* \"#utility.yul\":23980:24111   */\n      tag_583\n        /* \"#utility.yul\":24106:24110   */\n      dup2\n        /* \"#utility.yul\":23980:24111   */\n      tag_478\n      jump\t// in\n    tag_583:\n        /* \"#utility.yul\":23972:24111   */\n      swap1\n      pop\n        /* \"#utility.yul\":23870:24118   */\n      swap2\n      swap1\n      pop\n      jump\t// out\n        /* \"#utility.yul\":24124:24543   */\n    tag_76:\n      0x00\n        /* \"#utility.yul\":24328:24330   */\n      0x20\n        /* \"#utility.yul\":24317:24326   */\n      dup3\n        /* \"#utility.yul\":24313:24331   */\n      add\n        /* \"#utility.yul\":24305:24331   */\n      swap1\n      pop\n        /* \"#utility.yul\":24377:24386   */\n      dup2\n        /* \"#utility.yul\":24371:24375   */\n      dup2\n        /* \"#utility.yul\":24367:24387   */\n      sub\n        /* \"#utility.yul\":24363:24364   */\n      0x00\n        /* \"#utility.yul\":24352:24361   */\n      dup4\n        /* \"#utility.yul\":24348:24365   */\n      add\n        /* \"#utility.yul\":24341:24388   */\n      mstore\n        /* \"#utility.yul\":24405:24536   */\n      tag_585\n        /* \"#utility.yul\":24531:24535   */\n      dup2\n        /* \"#utility.yul\":24405:24536   */\n      tag_481\n      jump\t// in\n    tag_585:\n        /* \"#utility.yul\":24397:24536   */\n      swap1\n      pop\n        /* \"#utility.yul\":24295:24543   */\n      swap2\n      swap1\n      pop\n      jump\t// out\n        /* \"#utility.yul\":24549:24968   */\n    tag_255:\n      0x00\n        /* \"#utility.yul\":24753:24755   */\n      0x20\n        /* \"#utility.yul\":24742:24751   */\n      dup3\n        /* \"#utility.yul\":24738:24756   */\n      add\n        /* \"#utility.yul\":24730:24756   */\n      swap1\n      pop\n        /* \"#utility.yul\":24802:24811   */\n      dup2\n        /* \"#utility.yul\":24796:24800   */\n      dup2\n        /* \"#utility.yul\":24792:24812   */\n      sub\n        /* \"#utility.yul\":24788:24789   */\n      0x00\n        /* \"#utility.yul\":24777:24786   */\n      dup4\n        /* \"#utility.yul\":24773:24790   */\n      add\n        /* \"#utility.yul\":24766:24813   */\n      mstore\n        /* \"#utility.yul\":24830:24961   */\n      tag_587\n        /* \"#utility.yul\":24956:24960   */\n      dup2\n        /* \"#utility.yul\":24830:24961   */\n      tag_484\n      jump\t// in\n    tag_587:\n        /* \"#utility.yul\":24822:24961   */\n      swap1\n      pop\n        /* \"#utility.yul\":24720:24968   */\n      swap2\n      swap1\n      pop\n      jump\t// out\n        /* \"#utility.yul\":24974:25393   */\n    tag_82:\n      0x00\n        /* \"#utility.yul\":25178:25180   */\n      0x20\n        /* \"#utility.yul\":25167:25176   */\n      dup3\n        /* \"#utility.yul\":25163:25181   */\n      add\n        /* \"#utility.yul\":25155:25181   */\n      swap1\n      pop\n        /* \"#utility.yul\":25227:25236   */\n      dup2\n        /* \"#utility.yul\":25221:25225   */\n      dup2\n        /* \"#utility.yul\":25217:25237   */\n      sub\n        /* \"#utility.yul\":25213:25214   */\n      0x00\n        /* \"#utility.yul\":25202:25211   */\n      dup4\n        /* \"#utility.yul\":25198:25215   */\n      add\n        /* \"#utility.yul\":25191:25238   */\n      mstore\n        /* \"#utility.yul\":25255:25386   */\n      tag_589\n        /* \"#utility.yul\":25381:25385   */\n      dup2\n        /* \"#utility.yul\":25255:25386   */\n      tag_487\n      jump\t// in\n    tag_589:\n        /* \"#utility.yul\":25247:25386   */\n      swap1\n      pop\n        /* \"#utility.yul\":25145:25393   */\n      swap2\n      swap1\n      pop\n      jump\t// out\n        /* \"#utility.yul\":25399:25818   */\n    tag_121:\n      0x00\n        /* \"#utility.yul\":25603:25605   */\n      0x20\n        /* \"#utility.yul\":25592:25601   */\n      dup3\n        /* \"#utility.yul\":25588:25606   */\n      add\n        /* \"#utility.yul\":25580:25606   */\n      swap1\n      pop\n        /* \"#utility.yul\":25652:25661   */\n      dup2\n        /* \"#utility.yul\":25646:25650   */\n      dup2\n        /* \"#utility.yul\":25642:25662   */\n      sub\n        /* \"#utility.yul\":25638:25639   */\n      0x00\n        /* \"#utility.yul\":25627:25636   */\n      dup4\n        /* \"#utility.yul\":25623:25640   */\n      add\n        /* \"#utility.yul\":25616:25663   */\n      mstore\n        /* \"#utility.yul\":25680:25811   */\n      tag_591\n        /* \"#utility.yul\":25806:25810   */\n      dup2\n        /* \"#utility.yul\":25680:25811   */\n      tag_490\n      jump\t// in\n    tag_591:\n        /* \"#utility.yul\":25672:25811   */\n      swap1\n      pop\n        /* \"#utility.yul\":25570:25818   */\n      swap2\n      swap1\n      pop\n      jump\t// out\n        /* \"#utility.yul\":25824:26243   */\n    tag_117:\n      0x00\n        /* \"#utility.yul\":26028:26030   */\n      0x20\n        /* \"#utility.yul\":26017:26026   */\n      dup3\n        /* \"#utility.yul\":26013:26031   */\n      add\n        /* \"#utility.yul\":26005:26031   */\n      swap1\n      pop\n        /* \"#utility.yul\":26077:26086   */\n      dup2\n        /* \"#utility.yul\":26071:26075   */\n      dup2\n        /* \"#utility.yul\":26067:26087   */\n      sub\n        /* \"#utility.yul\":26063:26064   */\n      0x00\n        /* \"#utility.yul\":26052:26061   */\n      dup4\n        /* \"#utility.yul\":26048:26065   */\n      add\n        /* \"#utility.yul\":26041:26088   */\n      mstore\n        /* \"#utility.yul\":26105:26236   */\n      tag_593\n        /* \"#utility.yul\":26231:26235   */\n      dup2\n        /* \"#utility.yul\":26105:26236   */\n      tag_493\n      jump\t// in\n    tag_593:\n        /* \"#utility.yul\":26097:26236   */\n      swap1\n      pop\n        /* \"#utility.yul\":25995:26243   */\n      swap2\n      swap1\n      pop\n      jump\t// out\n        /* \"#utility.yul\":26249:26668   */\n    tag_235:\n      0x00\n        /* \"#utility.yul\":26453:26455   */\n      0x20\n        /* \"#utility.yul\":26442:26451   */\n      dup3\n        /* \"#utility.yul\":26438:26456   */\n      add\n        /* \"#utility.yul\":26430:26456   */\n      swap1\n      pop\n        /* \"#utility.yul\":26502:26511   */\n      dup2\n        /* \"#utility.yul\":26496:26500   */\n      dup2\n        /* \"#utility.yul\":26492:26512   */\n      sub\n        /* \"#utility.yul\":26488:26489   */\n      0x00\n        /* \"#utility.yul\":26477:26486   */\n      dup4\n        /* \"#utility.yul\":26473:26490   */\n      add\n        /* \"#utility.yul\":26466:26513   */\n      mstore\n        /* \"#utility.yul\":26530:26661   */\n      tag_595\n        /* \"#utility.yul\":26656:26660   */\n      dup2\n        /* \"#utility.yul\":26530:26661   */\n      tag_496\n      jump\t// in\n    tag_595:\n        /* \"#utility.yul\":26522:26661   */\n      swap1\n      pop\n        /* \"#utility.yul\":26420:26668   */\n      swap2\n      swap1\n      pop\n      jump\t// out\n        /* \"#utility.yul\":26674:27093   */\n    tag_193:\n      0x00\n        /* \"#utility.yul\":26878:26880   */\n      0x20\n        /* \"#utility.yul\":26867:26876   */\n      dup3\n        /* \"#utility.yul\":26863:26881   */\n      add\n        /* \"#utility.yul\":26855:26881   */\n      swap1\n      pop\n        /* \"#utility.yul\":26927:26936   */\n      dup2\n        /* \"#utility.yul\":26921:26925   */\n      dup2\n        /* \"#utility.yul\":26917:26937   */\n      sub\n        /* \"#utility.yul\":26913:26914   */\n      0x00\n        /* \"#utility.yul\":26902:26911   */\n      dup4\n        /* \"#utility.yul\":26898:26915   */\n      add\n        /* \"#utility.yul\":26891:26938   */\n      mstore\n        /* \"#utility.yul\":26955:27086   */\n      tag_597\n        /* \"#utility.yul\":27081:27085   */\n      dup2\n        /* \"#utility.yul\":26955:27086   */\n      tag_502\n      jump\t// in\n    tag_597:\n        /* \"#utility.yul\":26947:27086   */\n      swap1\n      pop\n        /* \"#utility.yul\":26845:27093   */\n      swap2\n      swap1\n      pop\n      jump\t// out\n        /* \"#utility.yul\":27099:27518   */\n    tag_133:\n      0x00\n        /* \"#utility.yul\":27303:27305   */\n      0x20\n        /* \"#utility.yul\":27292:27301   */\n      dup3\n        /* \"#utility.yul\":27288:27306   */\n      add\n        /* \"#utility.yul\":27280:27306   */\n      swap1\n      pop\n        /* \"#utility.yul\":27352:27361   */\n      dup2\n        /* \"#utility.yul\":27346:27350   */\n      dup2\n        /* \"#utility.yul\":27342:27362   */\n      sub\n        /* \"#utility.yul\":27338:27339   */\n      0x00\n        /* \"#utility.yul\":27327:27336   */\n      dup4\n        /* \"#utility.yul\":27323:27340   */\n      add\n        /* \"#utility.yul\":27316:27363   */\n      mstore\n        /* \"#utility.yul\":27380:27511   */\n      tag_599\n        /* \"#utility.yul\":27506:27510   */\n      dup2\n        /* \"#utility.yul\":27380:27511   */\n      tag_505\n      jump\t// in\n    tag_599:\n        /* \"#utility.yul\":27372:27511   */\n      swap1\n      pop\n        /* \"#utility.yul\":27270:27518   */\n      swap2\n      swap1\n      pop\n      jump\t// out\n        /* \"#utility.yul\":27524:27943   */\n    tag_141:\n      0x00\n        /* \"#utility.yul\":27728:27730   */\n      0x20\n        /* \"#utility.yul\":27717:27726   */\n      dup3\n        /* \"#utility.yul\":27713:27731   */\n      add\n        /* \"#utility.yul\":27705:27731   */\n      swap1\n      pop\n        /* \"#utility.yul\":27777:27786   */\n      dup2\n        /* \"#utility.yul\":27771:27775   */\n      dup2\n        /* \"#utility.yul\":27767:27787   */\n      sub\n        /* \"#utility.yul\":27763:27764   */\n      0x00\n        /* \"#utility.yul\":27752:27761   */\n      dup4\n        /* \"#utility.yul\":27748:27765   */\n      add\n        /* \"#utility.yul\":27741:27788   */\n      mstore\n        /* \"#utility.yul\":27805:27936   */\n      tag_601\n        /* \"#utility.yul\":27931:27935   */\n      dup2\n        /* \"#utility.yul\":27805:27936   */\n      tag_508\n      jump\t// in\n    tag_601:\n        /* \"#utility.yul\":27797:27936   */\n      swap1\n      pop\n        /* \"#utility.yul\":27695:27943   */\n      swap2\n      swap1\n      pop\n      jump\t// out\n        /* \"#utility.yul\":27949:28368   */\n    tag_129:\n      0x00\n        /* \"#utility.yul\":28153:28155   */\n      0x20\n        /* \"#utility.yul\":28142:28151   */\n      dup3\n        /* \"#utility.yul\":28138:28156   */\n      add\n        /* \"#utility.yul\":28130:28156   */\n      swap1\n      pop\n        /* \"#utility.yul\":28202:28211   */\n      dup2\n        /* \"#utility.yul\":28196:28200   */\n      dup2\n        /* \"#utility.yul\":28192:28212   */\n      sub\n        /* \"#utility.yul\":28188:28189   */\n      0x00\n        /* \"#utility.yul\":28177:28186   */\n      dup4\n        /* \"#utility.yul\":28173:28190   */\n      add\n        /* \"#utility.yul\":28166:28213   */\n      mstore\n        /* \"#utility.yul\":28230:28361   */\n      tag_603\n        /* \"#utility.yul\":28356:28360   */\n      dup2\n        /* \"#utility.yul\":28230:28361   */\n      tag_511\n      jump\t// in\n    tag_603:\n        /* \"#utility.yul\":28222:28361   */\n      swap1\n      pop\n        /* \"#utility.yul\":28120:28368   */\n      swap2\n      swap1\n      pop\n      jump\t// out\n        /* \"#utility.yul\":28374:28793   */\n    tag_125:\n      0x00\n        /* \"#utility.yul\":28578:28580   */\n      0x20\n        /* \"#utility.yul\":28567:28576   */\n      dup3\n        /* \"#utility.yul\":28563:28581   */\n      add\n        /* \"#utility.yul\":28555:28581   */\n      swap1\n      pop\n        /* \"#utility.yul\":28627:28636   */\n      dup2\n        /* \"#utility.yul\":28621:28625   */\n      dup2\n        /* \"#utility.yul\":28617:28637   */\n      sub\n        /* \"#utility.yul\":28613:28614   */\n      0x00\n        /* \"#utility.yul\":28602:28611   */\n      dup4\n        /* \"#utility.yul\":28598:28615   */\n      add\n        /* \"#utility.yul\":28591:28638   */\n      mstore\n        /* \"#utility.yul\":28655:28786   */\n      tag_605\n        /* \"#utility.yul\":28781:28785   */\n      dup2\n        /* \"#utility.yul\":28655:28786   */\n      tag_514\n      jump\t// in\n    tag_605:\n        /* \"#utility.yul\":28647:28786   */\n      swap1\n      pop\n        /* \"#utility.yul\":28545:28793   */\n      swap2\n      swap1\n      pop\n      jump\t// out\n        /* \"#utility.yul\":28799:29218   */\n    tag_145:\n      0x00\n        /* \"#utility.yul\":29003:29005   */\n      0x20\n        /* \"#utility.yul\":28992:29001   */\n      dup3\n        /* \"#utility.yul\":28988:29006   */\n      add\n        /* \"#utility.yul\":28980:29006   */\n      swap1\n      pop\n        /* \"#utility.yul\":29052:29061   */\n      dup2\n        /* \"#utility.yul\":29046:29050   */\n      dup2\n        /* \"#utility.yul\":29042:29062   */\n      sub\n        /* \"#utility.yul\":29038:29039   */\n      0x00\n        /* \"#utility.yul\":29027:29036   */\n      dup4\n        /* \"#utility.yul\":29023:29040   */\n      add\n        /* \"#utility.yul\":29016:29063   */\n      mstore\n        /* \"#utility.yul\":29080:29211   */\n      tag_607\n        /* \"#utility.yul\":29206:29210   */\n      dup2\n        /* \"#utility.yul\":29080:29211   */\n      tag_517\n      jump\t// in\n    tag_607:\n        /* \"#utility.yul\":29072:29211   */\n      swap1\n      pop\n        /* \"#utility.yul\":28970:29218   */\n      swap2\n      swap1\n      pop\n      jump\t// out\n        /* \"#utility.yul\":29224:29589   */\n    tag_39:\n      0x00\n        /* \"#utility.yul\":29401:29403   */\n      0x20\n        /* \"#utility.yul\":29390:29399   */\n      dup3\n        /* \"#utility.yul\":29386:29404   */\n      add\n        /* \"#utility.yul\":29378:29404   */\n      swap1\n      pop\n        /* \"#utility.yul\":29450:29459   */\n      dup2\n        /* \"#utility.yul\":29444:29448   */\n      dup2\n        /* \"#utility.yul\":29440:29460   */\n      sub\n        /* \"#utility.yul\":29436:29437   */\n      0x00\n        /* \"#utility.yul\":29425:29434   */\n      dup4\n        /* \"#utility.yul\":29421:29438   */\n      add\n        /* \"#utility.yul\":29414:29461   */\n      mstore\n        /* \"#utility.yul\":29478:29582   */\n      tag_609\n        /* \"#utility.yul\":29577:29581   */\n      dup2\n        /* \"#utility.yul\":29568:29574   */\n      dup5\n        /* \"#utility.yul\":29478:29582   */\n      tag_523\n      jump\t// in\n    tag_609:\n        /* \"#utility.yul\":29470:29582   */\n      swap1\n      pop\n        /* \"#utility.yul\":29368:29589   */\n      swap3\n      swap2\n      pop\n      pop\n      jump\t// out\n        /* \"#utility.yul\":29595:29817   */\n    tag_24:\n      0x00\n        /* \"#utility.yul\":29726:29728   */\n      0x20\n        /* \"#utility.yul\":29715:29724   */\n      dup3\n        /* \"#utility.yul\":29711:29729   */\n      add\n        /* \"#utility.yul\":29703:29729   */\n      swap1\n      pop\n        /* \"#utility.yul\":29739:29810   */\n      tag_611\n        /* \"#utility.yul\":29807:29808   */\n      0x00\n        /* \"#utility.yul\":29796:29805   */\n      dup4\n        /* \"#utility.yul\":29792:29809   */\n      add\n        /* \"#utility.yul\":29783:29789   */\n      dup5\n        /* \"#utility.yul\":29739:29810   */\n      tag_536\n      jump\t// in\n    tag_611:\n        /* \"#utility.yul\":29693:29817   */\n      swap3\n      swap2\n      pop\n      pop\n      jump\t// out\n        /* \"#utility.yul\":29823:30155   */\n    tag_155:\n      0x00\n        /* \"#utility.yul\":29982:29984   */\n      0x40\n        /* \"#utility.yul\":29971:29980   */\n      dup3\n        /* \"#utility.yul\":29967:29985   */\n      add\n        /* \"#utility.yul\":29959:29985   */\n      swap1\n      pop\n        /* \"#utility.yul\":29995:30066   */\n      tag_613\n        /* \"#utility.yul\":30063:30064   */\n      0x00\n        /* \"#utility.yul\":30052:30061   */\n      dup4\n        /* \"#utility.yul\":30048:30065   */\n      add\n        /* \"#utility.yul\":30039:30045   */\n      dup6\n        /* \"#utility.yul\":29995:30066   */\n      tag_536\n      jump\t// in\n    tag_613:\n        /* \"#utility.yul\":30076:30148   */\n      tag_614\n        /* \"#utility.yul\":30144:30146   */\n      0x20\n        /* \"#utility.yul\":30133:30142   */\n      dup4\n        /* \"#utility.yul\":30129:30147   */\n      add\n        /* \"#utility.yul\":30120:30126   */\n      dup5\n        /* \"#utility.yul\":30076:30148   */\n      tag_405\n      jump\t// in\n    tag_614:\n        /* \"#utility.yul\":29949:30155   */\n      swap4\n      swap3\n      pop\n      pop\n      pop\n      jump\t// out\n        /* \"#utility.yul\":30161:30379   */\n    tag_45:\n      0x00\n        /* \"#utility.yul\":30290:30292   */\n      0x20\n        /* \"#utility.yul\":30279:30288   */\n      dup3\n        /* \"#utility.yul\":30275:30293   */\n      add\n        /* \"#utility.yul\":30267:30293   */\n      swap1\n      pop\n        /* \"#utility.yul\":30303:30372   */\n      tag_616\n        /* \"#utility.yul\":30369:30370   */\n      0x00\n        /* \"#utility.yul\":30358:30367   */\n      dup4\n        /* \"#utility.yul\":30354:30371   */\n      add\n        /* \"#utility.yul\":30345:30351   */\n      dup5\n        /* \"#utility.yul\":30303:30372   */\n      tag_543\n      jump\t// in\n    tag_616:\n        /* \"#utility.yul\":30257:30379   */\n      swap3\n      swap2\n      pop\n      pop\n      jump\t// out\n        /* \"#utility.yul\":30385:30909   */\n    tag_79:\n      0x00\n      dup1\n        /* \"#utility.yul\":30525:30536   */\n      dup4\n        /* \"#utility.yul\":30512:30537   */\n      calldataload\n        /* \"#utility.yul\":30625:30626   */\n      0x01\n        /* \"#utility.yul\":30619:30623   */\n      0x20\n        /* \"#utility.yul\":30615:30627   */\n      sub\n        /* \"#utility.yul\":30604:30612   */\n      dup5\n        /* \"#utility.yul\":30588:30602   */\n      calldatasize\n        /* \"#utility.yul\":30584:30613   */\n      sub\n        /* \"#utility.yul\":30580:30628   */\n      sub\n        /* \"#utility.yul\":30560:30578   */\n      dup2\n        /* \"#utility.yul\":30556:30629   */\n      slt\n        /* \"#utility.yul\":30546:30548   */\n      tag_618\n      jumpi\n        /* \"#utility.yul\":30643:30644   */\n      0x00\n        /* \"#utility.yul\":30640:30641   */\n      dup1\n        /* \"#utility.yul\":30633:30645   */\n      revert\n        /* \"#utility.yul\":30546:30548   */\n    tag_618:\n        /* \"#utility.yul\":30678:30696   */\n      dup1\n        /* \"#utility.yul\":30668:30676   */\n      dup5\n        /* \"#utility.yul\":30664:30697   */\n      add\n        /* \"#utility.yul\":30656:30697   */\n      swap3\n      pop\n        /* \"#utility.yul\":30730:30734   */\n      dup3\n        /* \"#utility.yul\":30717:30735   */\n      calldataload\n        /* \"#utility.yul\":30707:30735   */\n      swap2\n      pop\n        /* \"#utility.yul\":30758:30776   */\n      0xffffffffffffffff\n        /* \"#utility.yul\":30750:30756   */\n      dup3\n        /* \"#utility.yul\":30747:30777   */\n      gt\n        /* \"#utility.yul\":30744:30746   */\n      iszero\n      tag_619\n      jumpi\n        /* \"#utility.yul\":30790:30791   */\n      0x00\n        /* \"#utility.yul\":30787:30788   */\n      dup1\n        /* \"#utility.yul\":30780:30792   */\n      revert\n        /* \"#utility.yul\":30744:30746   */\n    tag_619:\n        /* \"#utility.yul\":30821:30823   */\n      0x20\n        /* \"#utility.yul\":30815:30819   */\n      dup4\n        /* \"#utility.yul\":30811:30824   */\n      add\n        /* \"#utility.yul\":30803:30824   */\n      swap3\n      pop\n        /* \"#utility.yul\":30878:30882   */\n      0x01\n        /* \"#utility.yul\":30870:30876   */\n      dup3\n        /* \"#utility.yul\":30866:30883   */\n      mul\n        /* \"#utility.yul\":30850:30864   */\n      calldatasize\n        /* \"#utility.yul\":30846:30884   */\n      sub\n        /* \"#utility.yul\":30840:30844   */\n      dup4\n        /* \"#utility.yul\":30836:30885   */\n      sgt\n        /* \"#utility.yul\":30833:30835   */\n      iszero\n      tag_620\n      jumpi\n        /* \"#utility.yul\":30898:30899   */\n      0x00\n        /* \"#utility.yul\":30895:30896   */\n      dup1\n        /* \"#utility.yul\":30888:30900   */\n      revert\n        /* \"#utility.yul\":30833:30835   */\n    tag_620:\n        /* \"#utility.yul\":30476:30909   */\n      pop\n      swap3\n      pop\n      swap3\n      swap1\n      pop\n      jump\t// out\n        /* \"#utility.yul\":30915:31056   */\n    tag_465:\n      0x00\n        /* \"#utility.yul\":30987:30990   */\n      dup2\n        /* \"#utility.yul\":30979:30990   */\n      swap1\n      pop\n        /* \"#utility.yul\":31010:31013   */\n      dup2\n        /* \"#utility.yul\":31007:31008   */\n      0x00\n        /* \"#utility.yul\":31000:31014   */\n      mstore\n        /* \"#utility.yul\":31044:31048   */\n      0x20\n        /* \"#utility.yul\":31041:31042   */\n      0x00\n        /* \"#utility.yul\":31031:31049   */\n      keccak256\n        /* \"#utility.yul\":31023:31049   */\n      swap1\n      pop\n        /* \"#utility.yul\":30969:31056   */\n      swap2\n      swap1\n      pop\n      jump\t// out\n        /* \"#utility.yul\":31062:31161   */\n    tag_437:\n      0x00\n        /* \"#utility.yul\":31148:31153   */\n      dup2\n        /* \"#utility.yul\":31142:31154   */\n      mload\n        /* \"#utility.yul\":31132:31154   */\n      swap1\n      pop\n        /* \"#utility.yul\":31121:31161   */\n      swap2\n      swap1\n      pop\n      jump\t// out\n        /* \"#utility.yul\":31167:31326   */\n    tag_439:\n      0x00\n        /* \"#utility.yul\":31275:31281   */\n      dup3\n        /* \"#utility.yul\":31270:31273   */\n      dup3\n        /* \"#utility.yul\":31263:31282   */\n      mstore\n        /* \"#utility.yul\":31315:31319   */\n      0x20\n        /* \"#utility.yul\":31310:31313   */\n      dup3\n        /* \"#utility.yul\":31306:31320   */\n      add\n        /* \"#utility.yul\":31291:31320   */\n      swap1\n      pop\n        /* \"#utility.yul\":31253:31326   */\n      swap3\n      swap2\n      pop\n      pop\n      jump\t// out\n        /* \"#utility.yul\":31332:31501   */\n    tag_448:\n      0x00\n        /* \"#utility.yul\":31450:31456   */\n      dup3\n        /* \"#utility.yul\":31445:31448   */\n      dup3\n        /* \"#utility.yul\":31438:31457   */\n      mstore\n        /* \"#utility.yul\":31490:31494   */\n      0x20\n        /* \"#utility.yul\":31485:31488   */\n      dup3\n        /* \"#utility.yul\":31481:31495   */\n      add\n        /* \"#utility.yul\":31466:31495   */\n      swap1\n      pop\n        /* \"#utility.yul\":31428:31501   */\n      swap3\n      swap2\n      pop\n      pop\n      jump\t// out\n        /* \"#utility.yul\":31507:31655   */\n    tag_455:\n      0x00\n        /* \"#utility.yul\":31646:31649   */\n      dup2\n        /* \"#utility.yul\":31631:31649   */\n      swap1\n      pop\n        /* \"#utility.yul\":31621:31655   */\n      swap3\n      swap2\n      pop\n      pop\n      jump\t// out\n        /* \"#utility.yul\":31661:31966   */\n    tag_249:\n      0x00\n        /* \"#utility.yul\":31720:31740   */\n      tag_627\n        /* \"#utility.yul\":31738:31739   */\n      dup3\n        /* \"#utility.yul\":31720:31740   */\n      tag_539\n      jump\t// in\n    tag_627:\n        /* \"#utility.yul\":31715:31740   */\n      swap2\n      pop\n        /* \"#utility.yul\":31754:31774   */\n      tag_628\n        /* \"#utility.yul\":31772:31773   */\n      dup4\n        /* \"#utility.yul\":31754:31774   */\n      tag_539\n      jump\t// in\n    tag_628:\n        /* \"#utility.yul\":31749:31774   */\n      swap3\n      pop\n        /* \"#utility.yul\":31908:31909   */\n      dup3\n        /* \"#utility.yul\":31840:31906   */\n      0xffffffffffffffffffffffffffffffffffffffffffffffffffffffffffffffff\n        /* \"#utility.yul\":31836:31910   */\n      sub\n        /* \"#utility.yul\":31833:31834   */\n      dup3\n        /* \"#utility.yul\":31830:31911   */\n      gt\n        /* \"#utility.yul\":31827:31829   */\n      iszero\n      tag_629\n      jumpi\n        /* \"#utility.yul\":31914:31932   */\n      tag_630\n      tag_631\n      jump\t// in\n    tag_630:\n        /* \"#utility.yul\":31827:31829   */\n    tag_629:\n        /* \"#utility.yul\":31958:31959   */\n      dup3\n        /* \"#utility.yul\":31955:31956   */\n      dup3\n        /* \"#utility.yul\":31951:31960   */\n      add\n        /* \"#utility.yul\":31944:31960   */\n      swap1\n      pop\n        /* \"#utility.yul\":31705:31966   */\n      swap3\n      swap2\n      pop\n      pop\n      jump\t// out\n        /* \"#utility.yul\":31972:32157   */\n    tag_278:\n      0x00\n        /* \"#utility.yul\":32029:32049   */\n      tag_633\n        /* \"#utility.yul\":32047:32048   */\n      dup3\n        /* \"#utility.yul\":32029:32049   */\n      tag_539\n      jump\t// in\n    tag_633:\n        /* \"#utility.yul\":32024:32049   */\n      swap2\n      pop\n        /* \"#utility.yul\":32063:32083   */\n      tag_634\n        /* \"#utility.yul\":32081:32082   */\n      dup4\n        /* \"#utility.yul\":32063:32083   */\n      tag_539\n      jump\t// in\n    tag_634:\n        /* \"#utility.yul\":32058:32083   */\n      swap3\n      pop\n        /* \"#utility.yul\":32102:32103   */\n      dup3\n        /* \"#utility.yul\":32092:32094   */\n      tag_635\n      jumpi\n        /* \"#utility.yul\":32107:32125   */\n      tag_636\n      tag_637\n      jump\t// in\n    tag_636:\n        /* \"#utility.yul\":32092:32094   */\n    tag_635:\n        /* \"#utility.yul\":32149:32150   */\n      dup3\n        /* \"#utility.yul\":32146:32147   */\n      dup3\n        /* \"#utility.yul\":32142:32151   */\n      div\n        /* \"#utility.yul\":32137:32151   */\n      swap1\n      pop\n        /* \"#utility.yul\":32014:32157   */\n      swap3\n      swap2\n      pop\n      pop\n      jump\t// out\n        /* \"#utility.yul\":32163:32354   */\n    tag_264:\n      0x00\n        /* \"#utility.yul\":32223:32243   */\n      tag_639\n        /* \"#utility.yul\":32241:32242   */\n      dup3\n        /* \"#utility.yul\":32223:32243   */\n      tag_539\n      jump\t// in\n    tag_639:\n        /* \"#utility.yul\":32218:32243   */\n      swap2\n      pop\n        /* \"#utility.yul\":32257:32277   */\n      tag_640\n        /* \"#utility.yul\":32275:32276   */\n      dup4\n        /* \"#utility.yul\":32257:32277   */\n      tag_539\n      jump\t// in\n    tag_640:\n        /* \"#utility.yul\":32252:32277   */\n      swap3\n      pop\n        /* \"#utility.yul\":32296:32297   */\n      dup3\n        /* \"#utility.yul\":32293:32294   */\n      dup3\n        /* \"#utility.yul\":32290:32298   */\n      lt\n        /* \"#utility.yul\":32287:32289   */\n      iszero\n      tag_641\n      jumpi\n        /* \"#utility.yul\":32301:32319   */\n      tag_642\n      tag_631\n      jump\t// in\n    tag_642:\n        /* \"#utility.yul\":32287:32289   */\n    tag_641:\n        /* \"#utility.yul\":32346:32347   */\n      dup3\n        /* \"#utility.yul\":32343:32344   */\n      dup3\n        /* \"#utility.yul\":32339:32348   */\n      sub\n        /* \"#utility.yul\":32331:32348   */\n      swap1\n      pop\n        /* \"#utility.yul\":32208:32354   */\n      swap3\n      swap2\n      pop\n      pop\n      jump\t// out\n        /* \"#utility.yul\":32360:32456   */\n    tag_408:\n      0x00\n        /* \"#utility.yul\":32426:32450   */\n      tag_644\n        /* \"#utility.yul\":32444:32449   */\n      dup3\n        /* \"#utility.yul\":32426:32450   */\n      tag_645\n      jump\t// in\n    tag_644:\n        /* \"#utility.yul\":32415:32450   */\n      swap1\n      pop\n        /* \"#utility.yul\":32405:32456   */\n      swap2\n      swap1\n      pop\n      jump\t// out\n        /* \"#utility.yul\":32462:32552   */\n    tag_417:\n      0x00\n        /* \"#utility.yul\":32539:32544   */\n      dup2\n        /* \"#utility.yul\":32532:32545   */\n      iszero\n        /* \"#utility.yul\":32525:32546   */\n      iszero\n        /* \"#utility.yul\":32514:32546   */\n      swap1\n      pop\n        /* \"#utility.yul\":32504:32552   */\n      swap2\n      swap1\n      pop\n      jump\t// out\n        /* \"#utility.yul\":32558:32635   */\n    tag_424:\n      0x00\n        /* \"#utility.yul\":32624:32629   */\n      dup2\n        /* \"#utility.yul\":32613:32629   */\n      swap1\n      pop\n        /* \"#utility.yul\":32603:32635   */\n      swap2\n      swap1\n      pop\n      jump\t// out\n        /* \"#utility.yul\":32641:32790   */\n    tag_648:\n      0x00\n        /* \"#utility.yul\":32717:32783   */\n      0xffffffff00000000000000000000000000000000000000000000000000000000\n        /* \"#utility.yul\":32710:32715   */\n      dup3\n        /* \"#utility.yul\":32706:32784   */\n      and\n        /* \"#utility.yul\":32695:32784   */\n      swap1\n      pop\n        /* \"#utility.yul\":32685:32790   */\n      swap2\n      swap1\n      pop\n      jump\t// out\n        /* \"#utility.yul\":32796:32947   */\n    tag_650:\n      0x00\n        /* \"#utility.yul\":32882:32887   */\n      dup2\n        /* \"#utility.yul\":32871:32887   */\n      swap1\n      pop\n        /* \"#utility.yul\":32888:32941   */\n      tag_652\n        /* \"#utility.yul\":32935:32940   */\n      dup3\n        /* \"#utility.yul\":32888:32941   */\n      tag_653\n      jump\t// in\n    tag_652:\n        /* \"#utility.yul\":32861:32947   */\n      swap2\n      swap1\n      pop\n      jump\t// out\n        /* \"#utility.yul\":32953:33079   */\n    tag_645:\n      0x00\n        /* \"#utility.yul\":33030:33072   */\n      0xffffffffffffffffffffffffffffffffffffffff\n        /* \"#utility.yul\":33023:33028   */\n      dup3\n        /* \"#utility.yul\":33019:33073   */\n      and\n        /* \"#utility.yul\":33008:33073   */\n      swap1\n      pop\n        /* \"#utility.yul\":32998:33079   */\n      swap2\n      swap1\n      pop\n      jump\t// out\n        /* \"#utility.yul\":33085:33162   */\n    tag_539:\n      0x00\n        /* \"#utility.yul\":33151:33156   */\n      dup2\n        /* \"#utility.yul\":33140:33156   */\n      swap1\n      pop\n        /* \"#utility.yul\":33130:33162   */\n      swap2\n      swap1\n      pop\n      jump\t// out\n        /* \"#utility.yul\":33168:33261   */\n    tag_542:\n      0x00\n        /* \"#utility.yul\":33244:33254   */\n      0xffffffff\n        /* \"#utility.yul\":33237:33242   */\n      dup3\n        /* \"#utility.yul\":33233:33255   */\n      and\n        /* \"#utility.yul\":33222:33255   */\n      swap1\n      pop\n        /* \"#utility.yul\":33212:33261   */\n      swap2\n      swap1\n      pop\n      jump\t// out\n        /* \"#utility.yul\":33267:33364   */\n    tag_553:\n      0x00\n        /* \"#utility.yul\":33343:33357   */\n      0xffffffffffff\n        /* \"#utility.yul\":33336:33341   */\n      dup3\n        /* \"#utility.yul\":33332:33358   */\n      and\n        /* \"#utility.yul\":33321:33358   */\n      swap1\n      pop\n        /* \"#utility.yul\":33311:33364   */\n      swap2\n      swap1\n      pop\n      jump\t// out\n        /* \"#utility.yul\":33370:33521   */\n    tag_433:\n      0x00\n        /* \"#utility.yul\":33471:33515   */\n      tag_659\n        /* \"#utility.yul\":33509:33514   */\n      dup3\n        /* \"#utility.yul\":33471:33515   */\n      tag_650\n      jump\t// in\n    tag_659:\n        /* \"#utility.yul\":33458:33515   */\n      swap1\n      pop\n        /* \"#utility.yul\":33448:33521   */\n      swap2\n      swap1\n      pop\n      jump\t// out\n        /* \"#utility.yul\":33527:33834   */\n    tag_441:\n        /* \"#utility.yul\":33595:33596   */\n      0x00\n        /* \"#utility.yul\":33605:33718   */\n    tag_661:\n        /* \"#utility.yul\":33619:33625   */\n      dup4\n        /* \"#utility.yul\":33616:33617   */\n      dup2\n        /* \"#utility.yul\":33613:33626   */\n      lt\n        /* \"#utility.yul\":33605:33718   */\n      iszero\n      tag_663\n      jumpi\n        /* \"#utility.yul\":33704:33705   */\n      dup1\n        /* \"#utility.yul\":33699:33702   */\n      dup3\n        /* \"#utility.yul\":33695:33706   */\n      add\n        /* \"#utility.yul\":33689:33707   */\n      mload\n        /* \"#utility.yul\":33685:33686   */\n      dup2\n        /* \"#utility.yul\":33680:33683   */\n      dup5\n        /* \"#utility.yul\":33676:33687   */\n      add\n        /* \"#utility.yul\":33669:33708   */\n      mstore\n        /* \"#utility.yul\":33641:33643   */\n      0x20\n        /* \"#utility.yul\":33638:33639   */\n      dup2\n        /* \"#utility.yul\":33634:33644   */\n      add\n        /* \"#utility.yul\":33629:33644   */\n      swap1\n      pop\n        /* \"#utility.yul\":33605:33718   */\n      jump(tag_661)\n    tag_663:\n        /* \"#utility.yul\":33736:33742   */\n      dup4\n        /* \"#utility.yul\":33733:33734   */\n      dup2\n        /* \"#utility.yul\":33730:33743   */\n      gt\n        /* \"#utility.yul\":33727:33729   */\n      iszero\n      tag_664\n      jumpi\n        /* \"#utility.yul\":33816:33817   */\n      0x00\n        /* \"#utility.yul\":33807:33813   */\n      dup5\n        /* \"#utility.yul\":33802:33805   */\n      dup5\n        /* \"#utility.yul\":33798:33814   */\n      add\n        /* \"#utility.yul\":33791:33818   */\n      mstore\n        /* \"#utility.yul\":33727:33729   */\n    tag_664:\n        /* \"#utility.yul\":33576:33834   */\n      pop\n      pop\n      pop\n      pop\n      jump\t// out\n        /* \"#utility.yul\":33840:34160   */\n    tag_114:\n      0x00\n        /* \"#utility.yul\":33921:33922   */\n      0x02\n        /* \"#utility.yul\":33915:33919   */\n      dup3\n        /* \"#utility.yul\":33911:33923   */\n      div\n        /* \"#utility.yul\":33901:33923   */\n      swap1\n      pop\n        /* \"#utility.yul\":33968:33969   */\n      0x01\n        /* \"#utility.yul\":33962:33966   */\n      dup3\n        /* \"#utility.yul\":33958:33970   */\n      and\n        /* \"#utility.yul\":33989:34007   */\n      dup1\n        /* \"#utility.yul\":33979:33981   */\n      tag_666\n      jumpi\n        /* \"#utility.yul\":34045:34049   */\n      0x7f\n        /* \"#utility.yul\":34037:34043   */\n      dup3\n        /* \"#utility.yul\":34033:34050   */\n      and\n        /* \"#utility.yul\":34023:34050   */\n      swap2\n      pop\n        /* \"#utility.yul\":33979:33981   */\n    tag_666:\n        /* \"#utility.yul\":34107:34109   */\n      0x20\n        /* \"#utility.yul\":34099:34105   */\n      dup3\n        /* \"#utility.yul\":34096:34110   */\n      lt\n        /* \"#utility.yul\":34076:34094   */\n      dup2\n        /* \"#utility.yul\":34073:34111   */\n      eq\n        /* \"#utility.yul\":34070:34072   */\n      iszero\n      tag_667\n      jumpi\n        /* \"#utility.yul\":34126:34144   */\n      tag_668\n      tag_669\n      jump\t// in\n    tag_668:\n        /* \"#utility.yul\":34070:34072   */\n    tag_667:\n        /* \"#utility.yul\":33891:34160   */\n      pop\n      swap2\n      swap1\n      pop\n      jump\t// out\n        /* \"#utility.yul\":34166:34399   */\n    tag_97:\n      0x00\n        /* \"#utility.yul\":34228:34252   */\n      tag_671\n        /* \"#utility.yul\":34246:34251   */\n      dup3\n        /* \"#utility.yul\":34228:34252   */\n      tag_539\n      jump\t// in\n    tag_671:\n        /* \"#utility.yul\":34219:34252   */\n      swap2\n      pop\n        /* \"#utility.yul\":34274:34340   */\n      0xffffffffffffffffffffffffffffffffffffffffffffffffffffffffffffffff\n        /* \"#utility.yul\":34267:34272   */\n      dup3\n        /* \"#utility.yul\":34264:34341   */\n      eq\n        /* \"#utility.yul\":34261:34263   */\n      iszero\n      tag_672\n      jumpi\n        /* \"#utility.yul\":34344:34362   */\n      tag_673\n      tag_631\n      jump\t// in\n    tag_673:\n        /* \"#utility.yul\":34261:34263   */\n    tag_672:\n        /* \"#utility.yul\":34391:34392   */\n      0x01\n        /* \"#utility.yul\":34384:34389   */\n      dup3\n        /* \"#utility.yul\":34380:34393   */\n      add\n        /* \"#utility.yul\":34373:34393   */\n      swap1\n      pop\n        /* \"#utility.yul\":34209:34399   */\n      swap2\n      swap1\n      pop\n      jump\t// out\n        /* \"#utility.yul\":34405:34505   */\n    tag_413:\n      0x00\n        /* \"#utility.yul\":34473:34499   */\n      tag_675\n        /* \"#utility.yul\":34493:34498   */\n      dup3\n        /* \"#utility.yul\":34473:34499   */\n      tag_676\n      jump\t// in\n    tag_675:\n        /* \"#utility.yul\":34462:34499   */\n      swap1\n      pop\n        /* \"#utility.yul\":34452:34505   */\n      swap2\n      swap1\n      pop\n      jump\t// out\n        /* \"#utility.yul\":34511:34590   */\n    tag_429:\n      0x00\n        /* \"#utility.yul\":34579:34584   */\n      dup2\n        /* \"#utility.yul\":34568:34584   */\n      swap1\n      pop\n        /* \"#utility.yul\":34558:34590   */\n      swap2\n      swap1\n      pop\n      jump\t// out\n        /* \"#utility.yul\":34596:34690   */\n    tag_676:\n      0x00\n        /* \"#utility.yul\":34664:34684   */\n      tag_679\n        /* \"#utility.yul\":34678:34683   */\n      dup3\n        /* \"#utility.yul\":34664:34684   */\n      tag_680\n      jump\t// in\n    tag_679:\n        /* \"#utility.yul\":34653:34684   */\n      swap1\n      pop\n        /* \"#utility.yul\":34643:34690   */\n      swap2\n      swap1\n      pop\n      jump\t// out\n        /* \"#utility.yul\":34696:34790   */\n    tag_550:\n      0x00\n        /* \"#utility.yul\":34763:34784   */\n      tag_682\n        /* \"#utility.yul\":34778:34783   */\n      dup3\n        /* \"#utility.yul\":34763:34784   */\n      tag_683\n      jump\t// in\n    tag_682:\n        /* \"#utility.yul\":34752:34784   */\n      swap1\n      pop\n        /* \"#utility.yul\":34742:34790   */\n      swap2\n      swap1\n      pop\n      jump\t// out\n        /* \"#utility.yul\":34796:34972   */\n    tag_285:\n      0x00\n        /* \"#utility.yul\":34845:34865   */\n      tag_685\n        /* \"#utility.yul\":34863:34864   */\n      dup3\n        /* \"#utility.yul\":34845:34865   */\n      tag_539\n      jump\t// in\n    tag_685:\n        /* \"#utility.yul\":34840:34865   */\n      swap2\n      pop\n        /* \"#utility.yul\":34879:34899   */\n      tag_686\n        /* \"#utility.yul\":34897:34898   */\n      dup4\n        /* \"#utility.yul\":34879:34899   */\n      tag_539\n      jump\t// in\n    tag_686:\n        /* \"#utility.yul\":34874:34899   */\n      swap3\n      pop\n        /* \"#utility.yul\":34918:34919   */\n      dup3\n        /* \"#utility.yul\":34908:34910   */\n      tag_687\n      jumpi\n        /* \"#utility.yul\":34923:34941   */\n      tag_688\n      tag_637\n      jump\t// in\n    tag_688:\n        /* \"#utility.yul\":34908:34910   */\n    tag_687:\n        /* \"#utility.yul\":34964:34965   */\n      dup3\n        /* \"#utility.yul\":34961:34962   */\n      dup3\n        /* \"#utility.yul\":34957:34966   */\n      mod\n        /* \"#utility.yul\":34952:34966   */\n      swap1\n      pop\n        /* \"#utility.yul\":34830:34972   */\n      swap3\n      swap2\n      pop\n      pop\n      jump\t// out\n        /* \"#utility.yul\":34978:35158   */\n    tag_631:\n        /* \"#utility.yul\":35026:35103   */\n      0x4e487b7100000000000000000000000000000000000000000000000000000000\n        /* \"#utility.yul\":35023:35024   */\n      0x00\n        /* \"#utility.yul\":35016:35104   */\n      mstore\n        /* \"#utility.yul\":35123:35127   */\n      0x11\n        /* \"#utility.yul\":35120:35121   */\n      0x04\n        /* \"#utility.yul\":35113:35128   */\n      mstore\n        /* \"#utility.yul\":35147:35151   */\n      0x24\n        /* \"#utility.yul\":35144:35145   */\n      0x00\n        /* \"#utility.yul\":35137:35152   */\n      revert\n        /* \"#utility.yul\":35164:35344   */\n    tag_637:\n        /* \"#utility.yul\":35212:35289   */\n      0x4e487b7100000000000000000000000000000000000000000000000000000000\n        /* \"#utility.yul\":35209:35210   */\n      0x00\n        /* \"#utility.yul\":35202:35290   */\n      mstore\n        /* \"#utility.yul\":35309:35313   */\n      0x12\n        /* \"#utility.yul\":35306:35307   */\n      0x04\n        /* \"#utility.yul\":35299:35314   */\n      mstore\n        /* \"#utility.yul\":35333:35337   */\n      0x24\n        /* \"#utility.yul\":35330:35331   */\n      0x00\n        /* \"#utility.yul\":35323:35338   */\n      revert\n        /* \"#utility.yul\":35350:35530   */\n    tag_691:\n        /* \"#utility.yul\":35398:35475   */\n      0x4e487b7100000000000000000000000000000000000000000000000000000000\n        /* \"#utility.yul\":35395:35396   */\n      0x00\n        /* \"#utility.yul\":35388:35476   */\n      mstore\n        /* \"#utility.yul\":35495:35499   */\n      0x21\n        /* \"#utility.yul\":35492:35493   */\n      0x04\n        /* \"#utility.yul\":35485:35500   */\n      mstore\n        /* \"#utility.yul\":35519:35523   */\n      0x24\n        /* \"#utility.yul\":35516:35517   */\n      0x00\n        /* \"#utility.yul\":35509:35524   */\n      revert\n        /* \"#utility.yul\":35536:35716   */\n    tag_669:\n        /* \"#utility.yul\":35584:35661   */\n      0x4e487b7100000000000000000000000000000000000000000000000000000000\n        /* \"#utility.yul\":35581:35582   */\n      0x00\n        /* \"#utility.yul\":35574:35662   */\n      mstore\n        /* \"#utility.yul\":35681:35685   */\n      0x22\n        /* \"#utility.yul\":35678:35679   */\n      0x04\n        /* \"#utility.yul\":35671:35686   */\n      mstore\n        /* \"#utility.yul\":35705:35709   */\n      0x24\n        /* \"#utility.yul\":35702:35703   */\n      0x00\n        /* \"#utility.yul\":35695:35710   */\n      revert\n        /* \"#utility.yul\":35722:35824   */\n    tag_443:\n      0x00\n        /* \"#utility.yul\":35814:35816   */\n      0x1f\n        /* \"#utility.yul\":35810:35817   */\n      not\n        /* \"#utility.yul\":35805:35807   */\n      0x1f\n        /* \"#utility.yul\":35798:35803   */\n      dup4\n        /* \"#utility.yul\":35794:35808   */\n      add\n        /* \"#utility.yul\":35790:35818   */\n      and\n        /* \"#utility.yul\":35780:35818   */\n      swap1\n      pop\n        /* \"#utility.yul\":35770:35824   */\n      swap2\n      swap1\n      pop\n      jump\t// out\n        /* \"#utility.yul\":35830:35926   */\n    tag_683:\n      0x00\n        /* \"#utility.yul\":35913:35918   */\n      dup2\n        /* \"#utility.yul\":35908:35911   */\n      0xe0\n        /* \"#utility.yul\":35904:35919   */\n      shl\n        /* \"#utility.yul\":35883:35919   */\n      swap1\n      pop\n        /* \"#utility.yul\":35873:35926   */\n      swap2\n      swap1\n      pop\n      jump\t// out\n        /* \"#utility.yul\":35932:36026   */\n    tag_680:\n      0x00\n        /* \"#utility.yul\":36013:36018   */\n      dup2\n        /* \"#utility.yul\":36009:36011   */\n      0x60\n        /* \"#utility.yul\":36005:36019   */\n      shl\n        /* \"#utility.yul\":35984:36019   */\n      swap1\n      pop\n        /* \"#utility.yul\":35974:36026   */\n      swap2\n      swap1\n      pop\n      jump\t// out\n        /* \"#utility.yul\":36032:36157   */\n    tag_653:\n        /* \"#utility.yul\":36125:36126   */\n      0x03\n        /* \"#utility.yul\":36118:36123   */\n      dup2\n        /* \"#utility.yul\":36115:36127   */\n      lt\n        /* \"#utility.yul\":36105:36107   */\n      tag_698\n      jumpi\n        /* \"#utility.yul\":36131:36149   */\n      tag_699\n      tag_691\n      jump\t// in\n    tag_699:\n        /* \"#utility.yul\":36105:36107   */\n    tag_698:\n        /* \"#utility.yul\":36095:36157   */\n      pop\n      jump\t// out\n        /* \"#utility.yul\":36163:36285   */\n    tag_315:\n        /* \"#utility.yul\":36236:36260   */\n      tag_701\n        /* \"#utility.yul\":36254:36259   */\n      dup2\n        /* \"#utility.yul\":36236:36260   */\n      tag_408\n      jump\t// in\n    tag_701:\n        /* \"#utility.yul\":36229:36234   */\n      dup2\n        /* \"#utility.yul\":36226:36261   */\n      eq\n        /* \"#utility.yul\":36216:36218   */\n      tag_702\n      jumpi\n        /* \"#utility.yul\":36275:36276   */\n      0x00\n        /* \"#utility.yul\":36272:36273   */\n      dup1\n        /* \"#utility.yul\":36265:36277   */\n      revert\n        /* \"#utility.yul\":36216:36218   */\n    tag_702:\n        /* \"#utility.yul\":36206:36285   */\n      pop\n      jump\t// out\n        /* \"#utility.yul\":36291:36407   */\n    tag_324:\n        /* \"#utility.yul\":36361:36382   */\n      tag_704\n        /* \"#utility.yul\":36376:36381   */\n      dup2\n        /* \"#utility.yul\":36361:36382   */\n      tag_417\n      jump\t// in\n    tag_704:\n        /* \"#utility.yul\":36354:36359   */\n      dup2\n        /* \"#utility.yul\":36351:36383   */\n      eq\n        /* \"#utility.yul\":36341:36343   */\n      tag_705\n      jumpi\n        /* \"#utility.yul\":36397:36398   */\n      0x00\n        /* \"#utility.yul\":36394:36395   */\n      dup1\n        /* \"#utility.yul\":36387:36399   */\n      revert\n        /* \"#utility.yul\":36341:36343   */\n    tag_705:\n        /* \"#utility.yul\":36331:36407   */\n      pop\n      jump\t// out\n        /* \"#utility.yul\":36413:36533   */\n    tag_331:\n        /* \"#utility.yul\":36485:36508   */\n      tag_707\n        /* \"#utility.yul\":36502:36507   */\n      dup2\n        /* \"#utility.yul\":36485:36508   */\n      tag_648\n      jump\t// in\n    tag_707:\n        /* \"#utility.yul\":36478:36483   */\n      dup2\n        /* \"#utility.yul\":36475:36509   */\n      eq\n        /* \"#utility.yul\":36465:36467   */\n      tag_708\n      jumpi\n        /* \"#utility.yul\":36523:36524   */\n      0x00\n        /* \"#utility.yul\":36520:36521   */\n      dup1\n        /* \"#utility.yul\":36513:36525   */\n      revert\n        /* \"#utility.yul\":36465:36467   */\n    tag_708:\n        /* \"#utility.yul\":36455:36533   */\n      pop\n      jump\t// out\n        /* \"#utility.yul\":36539:36658   */\n    tag_335:\n        /* \"#utility.yul\":36632:36633   */\n      0x03\n        /* \"#utility.yul\":36625:36630   */\n      dup2\n        /* \"#utility.yul\":36622:36634   */\n      lt\n        /* \"#utility.yul\":36612:36614   */\n      tag_710\n      jumpi\n        /* \"#utility.yul\":36648:36649   */\n      0x00\n        /* \"#utility.yul\":36645:36646   */\n      dup1\n        /* \"#utility.yul\":36638:36650   */\n      revert\n        /* \"#utility.yul\":36612:36614   */\n    tag_710:\n        /* \"#utility.yul\":36602:36658   */\n      pop\n      jump\t// out\n        /* \"#utility.yul\":36664:36786   */\n    tag_342:\n        /* \"#utility.yul\":36737:36761   */\n      tag_712\n        /* \"#utility.yul\":36755:36760   */\n      dup2\n        /* \"#utility.yul\":36737:36761   */\n      tag_539\n      jump\t// in\n    tag_712:\n        /* \"#utility.yul\":36730:36735   */\n      dup2\n        /* \"#utility.yul\":36727:36762   */\n      eq\n        /* \"#utility.yul\":36717:36719   */\n      tag_713\n      jumpi\n        /* \"#utility.yul\":36776:36777   */\n      0x00\n        /* \"#utility.yul\":36773:36774   */\n      dup1\n        /* \"#utility.yul\":36766:36778   */\n      revert\n        /* \"#utility.yul\":36717:36719   */\n    tag_713:\n        /* \"#utility.yul\":36707:36786   */\n      pop\n      jump\t// out\n        /* \"#utility.yul\":36792:36912   */\n    tag_349:\n        /* \"#utility.yul\":36864:36887   */\n      tag_715\n        /* \"#utility.yul\":36881:36886   */\n      dup2\n        /* \"#utility.yul\":36864:36887   */\n      tag_542\n      jump\t// in\n    tag_715:\n        /* \"#utility.yul\":36857:36862   */\n      dup2\n        /* \"#utility.yul\":36854:36888   */\n      eq\n        /* \"#utility.yul\":36844:36846   */\n      tag_716\n      jumpi\n        /* \"#utility.yul\":36902:36903   */\n      0x00\n        /* \"#utility.yul\":36899:36900   */\n      dup1\n        /* \"#utility.yul\":36892:36904   */\n      revert\n        /* \"#utility.yul\":36844:36846   */\n    tag_716:\n        /* \"#utility.yul\":36834:36912   */\n      pop\n      jump\t// out\n        /* \"#utility.yul\":36918:37038   */\n    tag_353:\n        /* \"#utility.yul\":36990:37013   */\n      tag_718\n        /* \"#utility.yul\":37007:37012   */\n      dup2\n        /* \"#utility.yul\":36990:37013   */\n      tag_553\n      jump\t// in\n    tag_718:\n        /* \"#utility.yul\":36983:36988   */\n      dup2\n        /* \"#utility.yul\":36980:37014   */\n      eq\n        /* \"#utility.yul\":36970:36972   */\n      tag_719\n      jumpi\n        /* \"#utility.yul\":37028:37029   */\n      0x00\n        /* \"#utility.yul\":37025:37026   */\n      dup1\n        /* \"#utility.yul\":37018:37030   */\n      revert\n        /* \"#utility.yul\":36970:36972   */\n    tag_719:\n        /* \"#utility.yul\":36960:37038   */\n      pop\n      jump\t// out\n\n    auxdata: 0xa264697066735822122032b9353c14d6e64a8192a52b96e8f0a7d53eea7b13813e6d84449f376badd3ad64736f6c63430008000033\n}\n",
				"bytecode": {
					"linkReferences": {},
					"object": "608060405234801561001057600080fd5b506001600081905550613ef6806100286000396000f3fe608060405234801561001057600080fd5b50600436106100935760003560e01c80630f79ab39116100665780630f79ab39146101585780638566ae5d14610188578063cc351138146101b8578063d5fdfe87146101d4578063e9dc63751461020457610093565b806301ffc9a71461009857806302349713146100c8578063037b79db146100f85780630c13495914610128575b600080fd5b6100b260048036038101906100ad9190612d12565b610234565b6040516100bf919061372a565b60405180910390f35b6100e260048036038101906100dd9190612b4e565b61036e565b6040516100ef9190613989565b60405180910390f35b610112600480360381019061010d9190612afa565b610382565b60405161011f9190613989565b60405180910390f35b610142600480360381019061013d9190612bd9565b6109ad565b60405161014f9190613989565b60405180910390f35b610172600480360381019061016d9190612b4e565b611139565b60405161017f9190613967565b60405180910390f35b6101a2600480360381019061019d9190612b8a565b611450565b6040516101af91906139cd565b60405180910390f35b6101d260048036038101906101cd9190612c59565b61159b565b005b6101ee60048036038101906101e99190612ad1565b611cb2565b6040516101fb9190613989565b60405180910390f35b61021e60048036038101906102199190612b4e565b611cfb565b60405161022b9190613745565b60405180910390f35b60007f9e8b4d4a000000000000000000000000000000000000000000000000000000007bffffffffffffffffffffffffffffffffffffffffffffffffffffffff1916827bffffffffffffffffffffffffffffffffffffffffffffffffffffffff191614806102ff57507fe9dc6375000000000000000000000000000000000000000000000000000000007bffffffffffffffffffffffffffffffffffffffffffffffffffffffff1916827bffffffffffffffffffffffffffffffffffffffffffffffffffffffff1916145b8061036757507f01ffc9a7000000000000000000000000000000000000000000000000000000007bffffffffffffffffffffffffffffffffffffffffffffffffffffffff1916827bffffffffffffffffffffffffffffffffffffffffffffffffffffffff1916145b9050919050565b600061037a8383612167565b905092915050565b60008260008190508073ffffffffffffffffffffffffffffffffffffffff166324d7806c336040518263ffffffff1660e01b81526004016103c3919061370f565b60206040518083038186803b1580156103db57600080fd5b505afa1580156103ef573d6000803e3d6000fd5b505050506040513d601f19601f820116820180604052508101906104139190612ce9565b610452576040517f08c379a0000000000000000000000000000000000000000000000000000000008152600401610449906137e7565b60405180910390fd5b6000848060e0019061046491906139e8565b905014156104a7576040517f08c379a000000000000000000000000000000000000000000000000000000000815260040161049e90613827565b60405180910390fd5b60008460600160208101906104bc9190612db6565b65ffffffffffff16148061050357508360600160208101906104de9190612db6565b65ffffffffffff168460400160208101906104f99190612db6565b65ffffffffffff16105b610542576040517f08c379a000000000000000000000000000000000000000000000000000000000815260040161053990613767565b60405180910390fd5b6127108460000160208101906105589190612d8d565b63ffffffff161061059e576040517f08c379a0000000000000000000000000000000000000000000000000000000008152600401610595906137c7565b60405180910390fd5b600160008673ffffffffffffffffffffffffffffffffffffffff1673ffffffffffffffffffffffffffffffffffffffff16815260200190815260200160002060008154809291906105ee90613c71565b91905055506000600160008773ffffffffffffffffffffffffffffffffffffffff1673ffffffffffffffffffffffffffffffffffffffff168152602001908152602001600020549050604051806101200160405280600063ffffffff1681526020018660000160208101906106639190612d8d565b63ffffffff1681526020018660200160208101906106819190612d8d565b63ffffffff16815260200186604001602081019061069f9190612db6565b65ffffffffffff1681526020018660600160208101906106bf9190612db6565b65ffffffffffff1681526020018660800160208101906106df9190612d3b565b6002811115610717577f4e487b7100000000000000000000000000000000000000000000000000000000600052602160045260246000fd5b81526020018660a001602081019061072f9190612cc0565b151581526020018660c001358152602001868060e0019061075091906139e8565b8080601f016020809104026020016040519081016040528093929190818152602001838380828437600081840152601f19601f82011690508083019250505050505050815250600260008873ffffffffffffffffffffffffffffffffffffffff1673ffffffffffffffffffffffffffffffffffffffff168152602001908152602001600020600083815260200190815260200160002060008201518160000160006101000a81548163ffffffff021916908363ffffffff16021790555060208201518160000160046101000a81548163ffffffff021916908363ffffffff16021790555060408201518160000160086101000a81548163ffffffff021916908363ffffffff160217905550606082015181600001600c6101000a81548165ffffffffffff021916908365ffffffffffff16021790555060808201518160000160126101000a81548165ffffffffffff021916908365ffffffffffff16021790555060a08201518160000160186101000a81548160ff02191690836002811115610902577f4e487b7100000000000000000000000000000000000000000000000000000000600052602160045260246000fd5b021790555060c08201518160000160196101000a81548160ff02191690831515021790555060e0820151816001015561010082015181600201908051906020019061094e929190612860565b50905050808673ffffffffffffffffffffffffffffffffffffffff167fd02727da4c6c6c111e00310108209a4de39f6817414df43ca1a10730d47c6a3433604051610999919061370f565b60405180910390a380935050505092915050565b600080600260008873ffffffffffffffffffffffffffffffffffffffff1673ffffffffffffffffffffffffffffffffffffffff16815260200190815260200160002060008781526020019081526020016000206002018054610a0e90613c3f565b90501415610a51576040517f08c379a0000000000000000000000000000000000000000000000000000000008152600401610a4890613867565b60405180910390fd5b6000600260008873ffffffffffffffffffffffffffffffffffffffff1673ffffffffffffffffffffffffffffffffffffffff16815260200190815260200160002060008781526020019081526020016000209050600081600001600c9054906101000a900465ffffffffffff1665ffffffffffff161480610aef57504281600001600c9054906101000a900465ffffffffffff1665ffffffffffff16105b610b2e576040517f08c379a0000000000000000000000000000000000000000000000000000000008152600401610b2590613847565b60405180910390fd5b60008160000160129054906101000a900465ffffffffffff1665ffffffffffff161480610b795750428160000160129054906101000a900465ffffffffffff1665ffffffffffff1610155b610bb8576040517f08c379a0000000000000000000000000000000000000000000000000000000008152600401610baf90613927565b60405180910390fd5b60008160000160089054906101000a900463ffffffff1663ffffffff161480610c9d57508060000160089054906101000a900463ffffffff1663ffffffff16600360008973ffffffffffffffffffffffffffffffffffffffff1673ffffffffffffffffffffffffffffffffffffffff168152602001908152602001600020600088815260200190815260200160002060003373ffffffffffffffffffffffffffffffffffffffff1673ffffffffffffffffffffffffffffffffffffffff16815260200190815260200160002060009054906101000a900463ffffffff1663ffffffff16105b610cdc576040517f08c379a0000000000000000000000000000000000000000000000000000000008152600401610cd390613907565b60405180910390fd5b60008160000160049054906101000a900463ffffffff1663ffffffff161480610d3857508060000160049054906101000a900463ffffffff1663ffffffff168160000160009054906101000a900463ffffffff1663ffffffff16105b610d77576040517f08c379a0000000000000000000000000000000000000000000000000000000008152600401610d6e906138c7565b60405180910390fd5b6000816001015414610f3d5760003384604051602001610d98929190613642565b604051602081830303815290604052805190602001209050610e00868680806020026020016040519081016040528093929190818152602001838360200280828437600081840152601f19601f82011690508083019250505050505050836001015483612413565b610e3f576040517f08c379a0000000000000000000000000000000000000000000000000000000008152600401610e36906138e7565b60405180910390fd5b60008463ffffffff161480610efc57508363ffffffff16600360008a73ffffffffffffffffffffffffffffffffffffffff1673ffffffffffffffffffffffffffffffffffffffff168152602001908152602001600020600089815260200190815260200160002060003373ffffffffffffffffffffffffffffffffffffffff1673ffffffffffffffffffffffffffffffffffffffff16815260200190815260200160002060009054906101000a900463ffffffff1663ffffffff16105b610f3b576040517f08c379a0000000000000000000000000000000000000000000000000000000008152600401610f3290613947565b60405180910390fd5b505b60008773ffffffffffffffffffffffffffffffffffffffff16632928ca58336040518263ffffffff1660e01b8152600401610f78919061370f565b602060405180830381600087803b158015610f9257600080fd5b505af1158015610fa6573d6000803e3d6000fd5b505050506040513d601f19601f82011682018060405250810190610fca9190612d64565b9050610fd788888361242a565b600360008973ffffffffffffffffffffffffffffffffffffffff1673ffffffffffffffffffffffffffffffffffffffff168152602001908152602001600020600088815260200190815260200160002060003373ffffffffffffffffffffffffffffffffffffffff1673ffffffffffffffffffffffffffffffffffffffff168152602001908152602001600020600081819054906101000a900463ffffffff168092919060010191906101000a81548163ffffffff021916908363ffffffff1602179055505081600001600081819054906101000a900463ffffffff168092919060010191906101000a81548163ffffffff021916908363ffffffff16021790555050868873ffffffffffffffffffffffffffffffffffffffff167fdbba30eb0402b389513e87f51f4db2db80bed454384ec6925a24097c3548a02a83336040516111239291906139a4565b60405180910390a3809250505095945050505050565b6111416128e6565b6000600260008573ffffffffffffffffffffffffffffffffffffffff1673ffffffffffffffffffffffffffffffffffffffff168152602001908152602001600020600084815260200190815260200160002060020180546111a190613c3f565b905014156111e4576040517f08c379a00000000000000000000000000000000000000000000000000000000081526004016111db90613867565b60405180910390fd5b600260008473ffffffffffffffffffffffffffffffffffffffff1673ffffffffffffffffffffffffffffffffffffffff1681526020019081526020016000206000838152602001908152602001600020604051806101200160405290816000820160009054906101000a900463ffffffff1663ffffffff1663ffffffff1681526020016000820160049054906101000a900463ffffffff1663ffffffff1663ffffffff1681526020016000820160089054906101000a900463ffffffff1663ffffffff1663ffffffff16815260200160008201600c9054906101000a900465ffffffffffff1665ffffffffffff1665ffffffffffff1681526020016000820160129054906101000a900465ffffffffffff1665ffffffffffff1665ffffffffffff1681526020016000820160189054906101000a900460ff166002811115611355577f4e487b7100000000000000000000000000000000000000000000000000000000600052602160045260246000fd5b600281111561138d577f4e487b7100000000000000000000000000000000000000000000000000000000600052602160045260246000fd5b81526020016000820160199054906101000a900460ff16151515158152602001600182015481526020016002820180546113c690613c3f565b80601f01602080910402602001604051908101604052809291908181526020018280546113f290613c3f565b801561143f5780601f106114145761010080835404028352916020019161143f565b820191906000526020600020905b81548152906001019060200180831161142257829003601f168201915b505050505081525050905092915050565b600080600260008673ffffffffffffffffffffffffffffffffffffffff1673ffffffffffffffffffffffffffffffffffffffff168152602001908152602001600020600085815260200190815260200160002060020180546114b190613c3f565b905014156114f4576040517f08c379a00000000000000000000000000000000000000000000000000000000081526004016114eb90613867565b60405180910390fd5b600360008573ffffffffffffffffffffffffffffffffffffffff1673ffffffffffffffffffffffffffffffffffffffff168152602001908152602001600020600084815260200190815260200160002060008373ffffffffffffffffffffffffffffffffffffffff1673ffffffffffffffffffffffffffffffffffffffff16815260200190815260200160002060009054906101000a900463ffffffff1690509392505050565b8260008190508073ffffffffffffffffffffffffffffffffffffffff166324d7806c336040518263ffffffff1660e01b81526004016115da919061370f565b60206040518083038186803b1580156115f257600080fd5b505afa158015611606573d6000803e3d6000fd5b505050506040513d601f19601f8201168201806040525081019061162a9190612ce9565b611669576040517f08c379a0000000000000000000000000000000000000000000000000000000008152600401611660906137e7565b60405180910390fd5b6000600260008773ffffffffffffffffffffffffffffffffffffffff1673ffffffffffffffffffffffffffffffffffffffff168152602001908152602001600020600086815260200190815260200160002060020180546116c990613c3f565b9050141561170c576040517f08c379a000000000000000000000000000000000000000000000000000000000815260040161170390613787565b60405180910390fd5b82600001602081019061171f9190612d8d565b63ffffffff16600260008773ffffffffffffffffffffffffffffffffffffffff1673ffffffffffffffffffffffffffffffffffffffff168152602001908152602001600020600086815260200190815260200160002060000160049054906101000a900463ffffffff1663ffffffff16146117cf576040517f08c379a00000000000000000000000000000000000000000000000000000000081526004016117c6906137a7565b60405180910390fd5b8260200160208101906117e29190612d8d565b63ffffffff16600260008773ffffffffffffffffffffffffffffffffffffffff1673ffffffffffffffffffffffffffffffffffffffff168152602001908152602001600020600086815260200190815260200160002060000160089054906101000a900463ffffffff1663ffffffff161115611893576040517f08c379a000000000000000000000000000000000000000000000000000000000815260040161188a906138a7565b60405180910390fd5b60008360600160208101906118a89190612db6565b65ffffffffffff1614806118ef57508260600160208101906118ca9190612db6565b65ffffffffffff168360400160208101906118e59190612db6565b65ffffffffffff16105b61192e576040517f08c379a000000000000000000000000000000000000000000000000000000000815260040161192590613767565b60405180910390fd5b604051806101200160405280600260008873ffffffffffffffffffffffffffffffffffffffff1673ffffffffffffffffffffffffffffffffffffffff168152602001908152602001600020600087815260200190815260200160002060000160009054906101000a900463ffffffff1663ffffffff1681526020018460000160208101906119bc9190612d8d565b63ffffffff1681526020018460200160208101906119da9190612d8d565b63ffffffff1681526020018460400160208101906119f89190612db6565b65ffffffffffff168152602001846060016020810190611a189190612db6565b65ffffffffffff168152602001846080016020810190611a389190612d3b565b6002811115611a70577f4e487b7100000000000000000000000000000000000000000000000000000000600052602160045260246000fd5b81526020018460a0016020810190611a889190612cc0565b151581526020018460c001358152602001848060e00190611aa991906139e8565b8080601f016020809104026020016040519081016040528093929190818152602001838380828437600081840152601f19601f82011690508083019250505050505050815250600260008773ffffffffffffffffffffffffffffffffffffffff1673ffffffffffffffffffffffffffffffffffffffff168152602001908152602001600020600086815260200190815260200160002060008201518160000160006101000a81548163ffffffff021916908363ffffffff16021790555060208201518160000160046101000a81548163ffffffff021916908363ffffffff16021790555060408201518160000160086101000a81548163ffffffff021916908363ffffffff160217905550606082015181600001600c6101000a81548165ffffffffffff021916908365ffffffffffff16021790555060808201518160000160126101000a81548165ffffffffffff021916908365ffffffffffff16021790555060a08201518160000160186101000a81548160ff02191690836002811115611c5b577f4e487b7100000000000000000000000000000000000000000000000000000000600052602160045260246000fd5b021790555060c08201518160000160196101000a81548160ff02191690831515021790555060e08201518160010155610100820151816002019080519060200190611ca7929190612860565b509050505050505050565b6000600160008373ffffffffffffffffffffffffffffffffffffffff1673ffffffffffffffffffffffffffffffffffffffff168152602001908152602001600020549050919050565b60606000611d098484612167565b90506000604051806020016040528060008152509050600260008673ffffffffffffffffffffffffffffffffffffffff1673ffffffffffffffffffffffffffffffffffffffff168152602001908152602001600020600083815260200190815260200160002060000160199054906101000a900460ff16611eaa57611d8d846125da565b604051602001611d9d91906136ed565b6040516020818303038152906040529050600280811115611de7577f4e487b7100000000000000000000000000000000000000000000000000000000600052602160045260246000fd5b600260008773ffffffffffffffffffffffffffffffffffffffff1673ffffffffffffffffffffffffffffffffffffffff168152602001908152602001600020600084815260200190815260200160002060000160189054906101000a900460ff166002811115611e80577f4e487b7100000000000000000000000000000000000000000000000000000000600052602160045260246000fd5b1415611ea95780604051602001611e9791906136cb565b60405160208183030381529060405290505b5b6000604051806020016040528060008152509050600280811115611ef7577f4e487b7100000000000000000000000000000000000000000000000000000000600052602160045260246000fd5b600260008873ffffffffffffffffffffffffffffffffffffffff1673ffffffffffffffffffffffffffffffffffffffff168152602001908152602001600020600085815260200190815260200160002060000160189054906101000a900460ff166002811115611f90577f4e487b7100000000000000000000000000000000000000000000000000000000600052602160045260246000fd5b1415611fd3576040518060400160405280600781526020017f697066733a2f2f0000000000000000000000000000000000000000000000000081525090506120e6565b6001600281111561200d577f4e487b7100000000000000000000000000000000000000000000000000000000600052602160045260246000fd5b600260008873ffffffffffffffffffffffffffffffffffffffff1673ffffffffffffffffffffffffffffffffffffffff168152602001908152602001600020600085815260200190815260200160002060000160189054906101000a900460ff1660028111156120a6577f4e487b7100000000000000000000000000000000000000000000000000000000600052602160045260246000fd5b14156120e5576040518060400160405280601481526020017f68747470733a2f2f617277656176652e6e65742f00000000000000000000000081525090505b5b80600260008873ffffffffffffffffffffffffffffffffffffffff1673ffffffffffffffffffffffffffffffffffffffff16815260200190815260200160002060008581526020019081526020016000206002018360405160200161214d9392919061369a565b604051602081830303815290604052935050505092915050565b600080600160008573ffffffffffffffffffffffffffffffffffffffff1673ffffffffffffffffffffffffffffffffffffffff16815260200190815260200160002054116121ea576040517f08c379a00000000000000000000000000000000000000000000000000000000081526004016121e190613887565b60405180910390fd5b6000600190505b600160008573ffffffffffffffffffffffffffffffffffffffff1673ffffffffffffffffffffffffffffffffffffffff1681526020019081526020016000205481116123d1576000600460008673ffffffffffffffffffffffffffffffffffffffff1673ffffffffffffffffffffffffffffffffffffffff1681526020019081526020016000206000838152602001908152602001600020805480602002602001604051908101604052809291908181526020016000905b828210156122ef578382906000526020600020906002020160405180604001604052908160008201548152602001600182015481525050815260200190600101906122a9565b505050509050600080600090505b82518110156123bb576000838281518110612341577f4e487b7100000000000000000000000000000000000000000000000000000000600052603260045260246000fd5b60200260200101519050806000015187101561235d57506123bb565b806000015187101580156123835750806020015181600001516123809190613a8c565b87105b1561239557849550505050505061240d565b8060200151836123a59190613a8c565b92505080806123b390613c71565b9150506122fd565b50505080806123c990613c71565b9150506121f1565b506040517f08c379a000000000000000000000000000000000000000000000000000000000815260040161240490613807565b60405180910390fd5b92915050565b6000826124208584612787565b1490509392505050565b6000600460008573ffffffffffffffffffffffffffffffffffffffff1673ffffffffffffffffffffffffffffffffffffffff168152602001908152602001600020600084815260200190815260200160002090506000818054905014156124e65780604051806040016040528084815260200160018152509080600181540180825580915050600190039060005260206000209060020201600090919091909150600082015181600001556020820151816001015550506125d4565b600081600183805490506124fa9190613b13565b81548110612531577f4e487b7100000000000000000000000000000000000000000000000000000000600052603260045260246000fd5b9060005260206000209060020201905082816001015482600001546125569190613a8c565b141561257b5780600101600081548092919061257190613c71565b91905055506125d2565b81604051806040016040528085815260200160018152509080600181540180825580915050600190039060005260206000209060020201600090919091909150600082015181600001556020820151816001015550505b505b50505050565b60606000821415612622576040518060400160405280600181526020017f30000000000000000000000000000000000000000000000000000000000000008152509050612782565b600082905060005b6000821461265457808061263d90613c71565b915050600a8261264d9190613ae2565b915061262a565b60008167ffffffffffffffff811115612696577f4e487b7100000000000000000000000000000000000000000000000000000000600052604160045260246000fd5b6040519080825280601f01601f1916602001820160405280156126c85781602001600182028036833780820191505090505b5090505b6000851461277b576001826126e19190613b13565b9150600a856126f09190613cfa565b60306126fc9190613a8c565b60f81b818381518110612738577f4e487b7100000000000000000000000000000000000000000000000000000000600052603260045260246000fd5b60200101907effffffffffffffffffffffffffffffffffffffffffffffffffffffffffffff1916908160001a905350600a856127749190613ae2565b94506126cc565b8093505050505b919050565b60008082905060005b84518110156128555760008582815181106127d4577f4e487b7100000000000000000000000000000000000000000000000000000000600052603260045260246000fd5b602002602001015190508083116128155782816040516020016127f892919061366e565b604051602081830303815290604052805190602001209250612841565b808360405160200161282892919061366e565b6040516020818303038152906040528051906020012092505b50808061284d90613c71565b915050612790565b508091505092915050565b82805461286c90613c3f565b90600052602060002090601f01602090048101928261288e57600085556128d5565b82601f106128a757805160ff19168380011785556128d5565b828001600101855582156128d5579182015b828111156128d45782518255916020019190600101906128b9565b5b5090506128e29190612991565b5090565b604051806101200160405280600063ffffffff168152602001600063ffffffff168152602001600063ffffffff168152602001600065ffffffffffff168152602001600065ffffffffffff16815260200160006002811115612971577f4e487b7100000000000000000000000000000000000000000000000000000000600052602160045260246000fd5b815260200160001515815260200160008019168152602001606081525090565b5b808211156129aa576000816000905550600101612992565b5090565b6000813590506129bd81613e26565b92915050565b60008083601f8401126129d557600080fd5b8235905067ffffffffffffffff8111156129ee57600080fd5b602083019150836020820283011115612a0657600080fd5b9250929050565b600081359050612a1c81613e3d565b92915050565b600081519050612a3181613e3d565b92915050565b600081359050612a4681613e54565b92915050565b600081359050612a5b81613e6b565b92915050565b60006101008284031215612a7457600080fd5b81905092915050565b600081359050612a8c81613e7b565b92915050565b600081519050612aa181613e7b565b92915050565b600081359050612ab681613e92565b92915050565b600081359050612acb81613ea9565b92915050565b600060208284031215612ae357600080fd5b6000612af1848285016129ae565b91505092915050565b60008060408385031215612b0d57600080fd5b6000612b1b858286016129ae565b925050602083013567ffffffffffffffff811115612b3857600080fd5b612b4485828601612a61565b9150509250929050565b60008060408385031215612b6157600080fd5b6000612b6f858286016129ae565b9250506020612b8085828601612a7d565b9150509250929050565b600080600060608486031215612b9f57600080fd5b6000612bad868287016129ae565b9350506020612bbe86828701612a7d565b9250506040612bcf868287016129ae565b9150509250925092565b600080600080600060808688031215612bf157600080fd5b6000612bff888289016129ae565b9550506020612c1088828901612a7d565b945050604086013567ffffffffffffffff811115612c2d57600080fd5b612c39888289016129c3565b93509350506060612c4c88828901612aa7565b9150509295509295909350565b600080600060608486031215612c6e57600080fd5b6000612c7c868287016129ae565b9350506020612c8d86828701612a7d565b925050604084013567ffffffffffffffff811115612caa57600080fd5b612cb686828701612a61565b9150509250925092565b600060208284031215612cd257600080fd5b6000612ce084828501612a0d565b91505092915050565b600060208284031215612cfb57600080fd5b6000612d0984828501612a22565b91505092915050565b600060208284031215612d2457600080fd5b6000612d3284828501612a37565b91505092915050565b600060208284031215612d4d57600080fd5b6000612d5b84828501612a4c565b91505092915050565b600060208284031215612d7657600080fd5b6000612d8484828501612a92565b91505092915050565b600060208284031215612d9f57600080fd5b6000612dad84828501612aa7565b91505092915050565b600060208284031215612dc857600080fd5b6000612dd684828501612abc565b91505092915050565b612de881613b47565b82525050565b612dff612dfa82613b47565b613cba565b82525050565b612e0e81613b59565b82525050565b612e1d81613b59565b82525050565b612e2c81613b65565b82525050565b612e43612e3e82613b65565b613ccc565b82525050565b612e5281613bfa565b82525050565b6000612e6382613a54565b612e6d8185613a5f565b9350612e7d818560208601613c0c565b612e8681613de7565b840191505092915050565b6000612e9c82613a54565b612ea68185613a70565b9350612eb6818560208601613c0c565b612ebf81613de7565b840191505092915050565b6000612ed582613a54565b612edf8185613a81565b9350612eef818560208601613c0c565b80840191505092915050565b60008154612f0881613c3f565b612f128186613a81565b94506001821660008114612f2d5760018114612f3e57612f71565b60ff19831686528186019350612f71565b612f4785613a3f565b60005b83811015612f6957815481890152600182019150602081019050612f4a565b838801955050505b50505092915050565b6000612f87603683613a70565b91507f43616e6e6f74206861766520737461727444617465206772656174657220746860008301527f616e206f7220657175616c20746f20656e6444617465000000000000000000006020830152604082019050919050565b6000612fed602483613a70565b91507f43616e6e6f74206f766572777269746520756e696e697469616c697a6564206360008301527f6c61696d000000000000000000000000000000000000000000000000000000006020830152604082019050919050565b6000613053601683613a70565b91507f43616e6e6f74206d6f6469667920746f74616c4d6178000000000000000000006000830152602082019050919050565b6000613093602783613a70565b91507f43616e6e6f74206861766520746f74616c4d617820677265617465722074686160008301527f6e203130303030000000000000000000000000000000000000000000000000006020830152604082019050919050565b60006130f9602b83613a70565b91507f57616c6c6574206973206e6f7420616e2061646d696e6973747261746f72206660008301527f6f7220636f6e74726163740000000000000000000000000000000000000000006020830152604082019050919050565b600061315f600d83613a70565b91507f496e76616c696420746f6b656e000000000000000000000000000000000000006000830152602082019050919050565b600061319f602583613a70565b91507f43616e6e6f7420696e697469616c697a65207769746820656d707479206c6f6360008301527f6174696f6e0000000000000000000000000000000000000000000000000000006020830152604082019050919050565b6000613205601d83613a70565b91507f5472616e73616374696f6e206265666f726520737461727420646174650000006000830152602082019050919050565b6000613245601583613a70565b91507f436c61696d206e6f7420696e697469616c697a656400000000000000000000006000830152602082019050919050565b6000613285601e83613a70565b91507f4e6f20636c61696d7320666f722063726561746f7220636f6e747261637400006000830152602082019050919050565b60006132c5600583613a81565b91507f2e6a736f6e0000000000000000000000000000000000000000000000000000006000830152600582019050919050565b6000613305601983613a70565b91507f43616e6e6f742064656372656173652077616c6c65744d6178000000000000006000830152602082019050919050565b6000613345602c83613a70565b91507f4d6178696d756d20746f6b656e7320616c7265616479206d696e74656420666f60008301527f72207468697320636c61696d00000000000000000000000000000000000000006020830152604082019050919050565b60006133ab601d83613a70565b91507f436f756c64206e6f7420766572696679206d65726b6c652070726f6f660000006000830152602082019050919050565b60006133eb602d83613a70565b91507f4d6178696d756d20746f6b656e7320616c7265616479206d696e74656420666f60008301527f7220746869732077616c6c6574000000000000000000000000000000000000006020830152604082019050919050565b6000613451601a83613a70565b91507f5472616e73616374696f6e20616674657220656e6420646174650000000000006000830152602082019050919050565b6000613491603c83613a70565b91507f4d6178696d756d20746f6b656e7320616c7265616479206d696e74656420666f60008301527f7220746869732077616c6c65742070657220616c6c6f636174696f6e000000006020830152604082019050919050565b60006134f7600183613a81565b91507f2f000000000000000000000000000000000000000000000000000000000000006000830152600182019050919050565b60006101208301600083015161354360008601826135fe565b50602083015161355660208601826135fe565b50604083015161356960408601826135fe565b50606083015161357c6060860182613633565b50608083015161358f6080860182613633565b5060a08301516135a260a0860182612e49565b5060c08301516135b560c0860182612e05565b5060e08301516135c860e0860182612e23565b506101008301518482036101008601526135e28282612e58565b9150508091505092915050565b6135f881613bce565b82525050565b61360781613bd8565b82525050565b61361681613bd8565b82525050565b61362d61362882613bd8565b613ce8565b82525050565b61363c81613be8565b82525050565b600061364e8285612dee565b60148201915061365e828461361c565b6004820191508190509392505050565b600061367a8285612e32565b60208201915061368a8284612e32565b6020820191508190509392505050565b60006136a68286612eca565b91506136b28285612efb565b91506136be8284612eca565b9150819050949350505050565b60006136d78284612eca565b91506136e2826132b8565b915081905092915050565b60006136f8826134ea565b91506137048284612eca565b915081905092915050565b60006020820190506137246000830184612ddf565b92915050565b600060208201905061373f6000830184612e14565b92915050565b6000602082019050818103600083015261375f8184612e91565b905092915050565b6000602082019050818103600083015261378081612f7a565b9050919050565b600060208201905081810360008301526137a081612fe0565b9050919050565b600060208201905081810360008301526137c081613046565b9050919050565b600060208201905081810360008301526137e081613086565b9050919050565b60006020820190508181036000830152613800816130ec565b9050919050565b6000602082019050818103600083015261382081613152565b9050919050565b6000602082019050818103600083015261384081613192565b9050919050565b60006020820190508181036000830152613860816131f8565b9050919050565b6000602082019050818103600083015261388081613238565b9050919050565b600060208201905081810360008301526138a081613278565b9050919050565b600060208201905081810360008301526138c0816132f8565b9050919050565b600060208201905081810360008301526138e081613338565b9050919050565b600060208201905081810360008301526139008161339e565b9050919050565b60006020820190508181036000830152613920816133de565b9050919050565b6000602082019050818103600083015261394081613444565b9050919050565b6000602082019050818103600083015261396081613484565b9050919050565b60006020820190508181036000830152613981818461352a565b905092915050565b600060208201905061399e60008301846135ef565b92915050565b60006040820190506139b960008301856135ef565b6139c66020830184612ddf565b9392505050565b60006020820190506139e2600083018461360d565b92915050565b60008083356001602003843603038112613a0157600080fd5b80840192508235915067ffffffffffffffff821115613a1f57600080fd5b602083019250600182023603831315613a3757600080fd5b509250929050565b60008190508160005260206000209050919050565b600081519050919050565b600082825260208201905092915050565b600082825260208201905092915050565b600081905092915050565b6000613a9782613bce565b9150613aa283613bce565b9250827fffffffffffffffffffffffffffffffffffffffffffffffffffffffffffffffff03821115613ad757613ad6613d2b565b5b828201905092915050565b6000613aed82613bce565b9150613af883613bce565b925082613b0857613b07613d5a565b5b828204905092915050565b6000613b1e82613bce565b9150613b2983613bce565b925082821015613b3c57613b3b613d2b565b5b828203905092915050565b6000613b5282613bae565b9050919050565b60008115159050919050565b6000819050919050565b60007fffffffff0000000000000000000000000000000000000000000000000000000082169050919050565b6000819050613ba982613e12565b919050565b600073ffffffffffffffffffffffffffffffffffffffff82169050919050565b6000819050919050565b600063ffffffff82169050919050565b600065ffffffffffff82169050919050565b6000613c0582613b9b565b9050919050565b60005b83811015613c2a578082015181840152602081019050613c0f565b83811115613c39576000848401525b50505050565b60006002820490506001821680613c5757607f821691505b60208210811415613c6b57613c6a613db8565b5b50919050565b6000613c7c82613bce565b91507fffffffffffffffffffffffffffffffffffffffffffffffffffffffffffffffff821415613caf57613cae613d2b565b5b600182019050919050565b6000613cc582613cd6565b9050919050565b6000819050919050565b6000613ce182613e05565b9050919050565b6000613cf382613df8565b9050919050565b6000613d0582613bce565b9150613d1083613bce565b925082613d2057613d1f613d5a565b5b828206905092915050565b7f4e487b7100000000000000000000000000000000000000000000000000000000600052601160045260246000fd5b7f4e487b7100000000000000000000000000000000000000000000000000000000600052601260045260246000fd5b7f4e487b7100000000000000000000000000000000000000000000000000000000600052602160045260246000fd5b7f4e487b7100000000000000000000000000000000000000000000000000000000600052602260045260246000fd5b6000601f19601f8301169050919050565b60008160e01b9050919050565b60008160601b9050919050565b60038110613e2357613e22613d89565b5b50565b613e2f81613b47565b8114613e3a57600080fd5b50565b613e4681613b59565b8114613e5157600080fd5b50565b613e5d81613b6f565b8114613e6857600080fd5b50565b60038110613e7857600080fd5b50565b613e8481613bce565b8114613e8f57600080fd5b50565b613e9b81613bd8565b8114613ea657600080fd5b50565b613eb281613be8565b8114613ebd57600080fd5b5056fea264697066735822122032b9353c14d6e64a8192a52b96e8f0a7d53eea7b13813e6d84449f376badd3ad64736f6c63430008000033",
					"opcodes": "PUSH1 0x80 PUSH1 0x40 MSTORE CALLVALUE DUP1 ISZERO PUSH2 0x10 JUMPI PUSH1 0x0 DUP1 REVERT JUMPDEST POP PUSH1 0x1 PUSH1 0x0 DUP2 SWAP1 SSTORE POP PUSH2 0x3EF6 DUP1 PUSH2 0x28 PUSH1 0x0 CODECOPY PUSH1 0x0 RETURN INVALID PUSH1 0x80 PUSH1 0x40 MSTORE CALLVALUE DUP1 ISZERO PUSH2 0x10 JUMPI PUSH1 0x0 DUP1 REVERT JUMPDEST POP PUSH1 0x4 CALLDATASIZE LT PUSH2 0x93 JUMPI PUSH1 0x0 CALLDATALOAD PUSH1 0xE0 SHR DUP1 PUSH4 0xF79AB39 GT PUSH2 0x66 JUMPI DUP1 PUSH4 0xF79AB39 EQ PUSH2 0x158 JUMPI DUP1 PUSH4 0x8566AE5D EQ PUSH2 0x188 JUMPI DUP1 PUSH4 0xCC351138 EQ PUSH2 0x1B8 JUMPI DUP1 PUSH4 0xD5FDFE87 EQ PUSH2 0x1D4 JUMPI DUP1 PUSH4 0xE9DC6375 EQ PUSH2 0x204 JUMPI PUSH2 0x93 JUMP JUMPDEST DUP1 PUSH4 0x1FFC9A7 EQ PUSH2 0x98 JUMPI DUP1 PUSH4 0x2349713 EQ PUSH2 0xC8 JUMPI DUP1 PUSH4 0x37B79DB EQ PUSH2 0xF8 JUMPI DUP1 PUSH4 0xC134959 EQ PUSH2 0x128 JUMPI JUMPDEST PUSH1 0x0 DUP1 REVERT JUMPDEST PUSH2 0xB2 PUSH1 0x4 DUP1 CALLDATASIZE SUB DUP2 ADD SWAP1 PUSH2 0xAD SWAP2 SWAP1 PUSH2 0x2D12 JUMP JUMPDEST PUSH2 0x234 JUMP JUMPDEST PUSH1 0x40 MLOAD PUSH2 0xBF SWAP2 SWAP1 PUSH2 0x372A JUMP JUMPDEST PUSH1 0x40 MLOAD DUP1 SWAP2 SUB SWAP1 RETURN JUMPDEST PUSH2 0xE2 PUSH1 0x4 DUP1 CALLDATASIZE SUB DUP2 ADD SWAP1 PUSH2 0xDD SWAP2 SWAP1 PUSH2 0x2B4E JUMP JUMPDEST PUSH2 0x36E JUMP JUMPDEST PUSH1 0x40 MLOAD PUSH2 0xEF SWAP2 SWAP1 PUSH2 0x3989 JUMP JUMPDEST PUSH1 0x40 MLOAD DUP1 SWAP2 SUB SWAP1 RETURN JUMPDEST PUSH2 0x112 PUSH1 0x4 DUP1 CALLDATASIZE SUB DUP2 ADD SWAP1 PUSH2 0x10D SWAP2 SWAP1 PUSH2 0x2AFA JUMP JUMPDEST PUSH2 0x382 JUMP JUMPDEST PUSH1 0x40 MLOAD PUSH2 0x11F SWAP2 SWAP1 PUSH2 0x3989 JUMP JUMPDEST PUSH1 0x40 MLOAD DUP1 SWAP2 SUB SWAP1 RETURN JUMPDEST PUSH2 0x142 PUSH1 0x4 DUP1 CALLDATASIZE SUB DUP2 ADD SWAP1 PUSH2 0x13D SWAP2 SWAP1 PUSH2 0x2BD9 JUMP JUMPDEST PUSH2 0x9AD JUMP JUMPDEST PUSH1 0x40 MLOAD PUSH2 0x14F SWAP2 SWAP1 PUSH2 0x3989 JUMP JUMPDEST PUSH1 0x40 MLOAD DUP1 SWAP2 SUB SWAP1 RETURN JUMPDEST PUSH2 0x172 PUSH1 0x4 DUP1 CALLDATASIZE SUB DUP2 ADD SWAP1 PUSH2 0x16D SWAP2 SWAP1 PUSH2 0x2B4E JUMP JUMPDEST PUSH2 0x1139 JUMP JUMPDEST PUSH1 0x40 MLOAD PUSH2 0x17F SWAP2 SWAP1 PUSH2 0x3967 JUMP JUMPDEST PUSH1 0x40 MLOAD DUP1 SWAP2 SUB SWAP1 RETURN JUMPDEST PUSH2 0x1A2 PUSH1 0x4 DUP1 CALLDATASIZE SUB DUP2 ADD SWAP1 PUSH2 0x19D SWAP2 SWAP1 PUSH2 0x2B8A JUMP JUMPDEST PUSH2 0x1450 JUMP JUMPDEST PUSH1 0x40 MLOAD PUSH2 0x1AF SWAP2 SWAP1 PUSH2 0x39CD JUMP JUMPDEST PUSH1 0x40 MLOAD DUP1 SWAP2 SUB SWAP1 RETURN JUMPDEST PUSH2 0x1D2 PUSH1 0x4 DUP1 CALLDATASIZE SUB DUP2 ADD SWAP1 PUSH2 0x1CD SWAP2 SWAP1 PUSH2 0x2C59 JUMP JUMPDEST PUSH2 0x159B JUMP JUMPDEST STOP JUMPDEST PUSH2 0x1EE PUSH1 0x4 DUP1 CALLDATASIZE SUB DUP2 ADD SWAP1 PUSH2 0x1E9 SWAP2 SWAP1 PUSH2 0x2AD1 JUMP JUMPDEST PUSH2 0x1CB2 JUMP JUMPDEST PUSH1 0x40 MLOAD PUSH2 0x1FB SWAP2 SWAP1 PUSH2 0x3989 JUMP JUMPDEST PUSH1 0x40 MLOAD DUP1 SWAP2 SUB SWAP1 RETURN JUMPDEST PUSH2 0x21E PUSH1 0x4 DUP1 CALLDATASIZE SUB DUP2 ADD SWAP1 PUSH2 0x219 SWAP2 SWAP1 PUSH2 0x2B4E JUMP JUMPDEST PUSH2 0x1CFB JUMP JUMPDEST PUSH1 0x40 MLOAD PUSH2 0x22B SWAP2 SWAP1 PUSH2 0x3745 JUMP JUMPDEST PUSH1 0x40 MLOAD DUP1 SWAP2 SUB SWAP1 RETURN JUMPDEST PUSH1 0x0 PUSH32 0x9E8B4D4A00000000000000000000000000000000000000000000000000000000 PUSH28 0xFFFFFFFFFFFFFFFFFFFFFFFFFFFFFFFFFFFFFFFFFFFFFFFFFFFFFFFF NOT AND DUP3 PUSH28 0xFFFFFFFFFFFFFFFFFFFFFFFFFFFFFFFFFFFFFFFFFFFFFFFFFFFFFFFF NOT AND EQ DUP1 PUSH2 0x2FF JUMPI POP PUSH32 0xE9DC637500000000000000000000000000000000000000000000000000000000 PUSH28 0xFFFFFFFFFFFFFFFFFFFFFFFFFFFFFFFFFFFFFFFFFFFFFFFFFFFFFFFF NOT AND DUP3 PUSH28 0xFFFFFFFFFFFFFFFFFFFFFFFFFFFFFFFFFFFFFFFFFFFFFFFFFFFFFFFF NOT AND EQ JUMPDEST DUP1 PUSH2 0x367 JUMPI POP PUSH32 0x1FFC9A700000000000000000000000000000000000000000000000000000000 PUSH28 0xFFFFFFFFFFFFFFFFFFFFFFFFFFFFFFFFFFFFFFFFFFFFFFFFFFFFFFFF NOT AND DUP3 PUSH28 0xFFFFFFFFFFFFFFFFFFFFFFFFFFFFFFFFFFFFFFFFFFFFFFFFFFFFFFFF NOT AND EQ JUMPDEST SWAP1 POP SWAP2 SWAP1 POP JUMP JUMPDEST PUSH1 0x0 PUSH2 0x37A DUP4 DUP4 PUSH2 0x2167 JUMP JUMPDEST SWAP1 POP SWAP3 SWAP2 POP POP JUMP JUMPDEST PUSH1 0x0 DUP3 PUSH1 0x0 DUP2 SWAP1 POP DUP1 PUSH20 0xFFFFFFFFFFFFFFFFFFFFFFFFFFFFFFFFFFFFFFFF AND PUSH4 0x24D7806C CALLER PUSH1 0x40 MLOAD DUP3 PUSH4 0xFFFFFFFF AND PUSH1 0xE0 SHL DUP2 MSTORE PUSH1 0x4 ADD PUSH2 0x3C3 SWAP2 SWAP1 PUSH2 0x370F JUMP JUMPDEST PUSH1 0x20 PUSH1 0x40 MLOAD DUP1 DUP4 SUB DUP2 DUP7 DUP1 EXTCODESIZE ISZERO DUP1 ISZERO PUSH2 0x3DB JUMPI PUSH1 0x0 DUP1 REVERT JUMPDEST POP GAS STATICCALL ISZERO DUP1 ISZERO PUSH2 0x3EF JUMPI RETURNDATASIZE PUSH1 0x0 DUP1 RETURNDATACOPY RETURNDATASIZE PUSH1 0x0 REVERT JUMPDEST POP POP POP POP PUSH1 0x40 MLOAD RETURNDATASIZE PUSH1 0x1F NOT PUSH1 0x1F DUP3 ADD AND DUP3 ADD DUP1 PUSH1 0x40 MSTORE POP DUP2 ADD SWAP1 PUSH2 0x413 SWAP2 SWAP1 PUSH2 0x2CE9 JUMP JUMPDEST PUSH2 0x452 JUMPI PUSH1 0x40 MLOAD PUSH32 0x8C379A000000000000000000000000000000000000000000000000000000000 DUP2 MSTORE PUSH1 0x4 ADD PUSH2 0x449 SWAP1 PUSH2 0x37E7 JUMP JUMPDEST PUSH1 0x40 MLOAD DUP1 SWAP2 SUB SWAP1 REVERT JUMPDEST PUSH1 0x0 DUP5 DUP1 PUSH1 0xE0 ADD SWAP1 PUSH2 0x464 SWAP2 SWAP1 PUSH2 0x39E8 JUMP JUMPDEST SWAP1 POP EQ ISZERO PUSH2 0x4A7 JUMPI PUSH1 0x40 MLOAD PUSH32 0x8C379A000000000000000000000000000000000000000000000000000000000 DUP2 MSTORE PUSH1 0x4 ADD PUSH2 0x49E SWAP1 PUSH2 0x3827 JUMP JUMPDEST PUSH1 0x40 MLOAD DUP1 SWAP2 SUB SWAP1 REVERT JUMPDEST PUSH1 0x0 DUP5 PUSH1 0x60 ADD PUSH1 0x20 DUP2 ADD SWAP1 PUSH2 0x4BC SWAP2 SWAP1 PUSH2 0x2DB6 JUMP JUMPDEST PUSH6 0xFFFFFFFFFFFF AND EQ DUP1 PUSH2 0x503 JUMPI POP DUP4 PUSH1 0x60 ADD PUSH1 0x20 DUP2 ADD SWAP1 PUSH2 0x4DE SWAP2 SWAP1 PUSH2 0x2DB6 JUMP JUMPDEST PUSH6 0xFFFFFFFFFFFF AND DUP5 PUSH1 0x40 ADD PUSH1 0x20 DUP2 ADD SWAP1 PUSH2 0x4F9 SWAP2 SWAP1 PUSH2 0x2DB6 JUMP JUMPDEST PUSH6 0xFFFFFFFFFFFF AND LT JUMPDEST PUSH2 0x542 JUMPI PUSH1 0x40 MLOAD PUSH32 0x8C379A000000000000000000000000000000000000000000000000000000000 DUP2 MSTORE PUSH1 0x4 ADD PUSH2 0x539 SWAP1 PUSH2 0x3767 JUMP JUMPDEST PUSH1 0x40 MLOAD DUP1 SWAP2 SUB SWAP1 REVERT JUMPDEST PUSH2 0x2710 DUP5 PUSH1 0x0 ADD PUSH1 0x20 DUP2 ADD SWAP1 PUSH2 0x558 SWAP2 SWAP1 PUSH2 0x2D8D JUMP JUMPDEST PUSH4 0xFFFFFFFF AND LT PUSH2 0x59E JUMPI PUSH1 0x40 MLOAD PUSH32 0x8C379A000000000000000000000000000000000000000000000000000000000 DUP2 MSTORE PUSH1 0x4 ADD PUSH2 0x595 SWAP1 PUSH2 0x37C7 JUMP JUMPDEST PUSH1 0x40 MLOAD DUP1 SWAP2 SUB SWAP1 REVERT JUMPDEST PUSH1 0x1 PUSH1 0x0 DUP7 PUSH20 0xFFFFFFFFFFFFFFFFFFFFFFFFFFFFFFFFFFFFFFFF AND PUSH20 0xFFFFFFFFFFFFFFFFFFFFFFFFFFFFFFFFFFFFFFFF AND DUP2 MSTORE PUSH1 0x20 ADD SWAP1 DUP2 MSTORE PUSH1 0x20 ADD PUSH1 0x0 KECCAK256 PUSH1 0x0 DUP2 SLOAD DUP1 SWAP3 SWAP2 SWAP1 PUSH2 0x5EE SWAP1 PUSH2 0x3C71 JUMP JUMPDEST SWAP2 SWAP1 POP SSTORE POP PUSH1 0x0 PUSH1 0x1 PUSH1 0x0 DUP8 PUSH20 0xFFFFFFFFFFFFFFFFFFFFFFFFFFFFFFFFFFFFFFFF AND PUSH20 0xFFFFFFFFFFFFFFFFFFFFFFFFFFFFFFFFFFFFFFFF AND DUP2 MSTORE PUSH1 0x20 ADD SWAP1 DUP2 MSTORE PUSH1 0x20 ADD PUSH1 0x0 KECCAK256 SLOAD SWAP1 POP PUSH1 0x40 MLOAD DUP1 PUSH2 0x120 ADD PUSH1 0x40 MSTORE DUP1 PUSH1 0x0 PUSH4 0xFFFFFFFF AND DUP2 MSTORE PUSH1 0x20 ADD DUP7 PUSH1 0x0 ADD PUSH1 0x20 DUP2 ADD SWAP1 PUSH2 0x663 SWAP2 SWAP1 PUSH2 0x2D8D JUMP JUMPDEST PUSH4 0xFFFFFFFF AND DUP2 MSTORE PUSH1 0x20 ADD DUP7 PUSH1 0x20 ADD PUSH1 0x20 DUP2 ADD SWAP1 PUSH2 0x681 SWAP2 SWAP1 PUSH2 0x2D8D JUMP JUMPDEST PUSH4 0xFFFFFFFF AND DUP2 MSTORE PUSH1 0x20 ADD DUP7 PUSH1 0x40 ADD PUSH1 0x20 DUP2 ADD SWAP1 PUSH2 0x69F SWAP2 SWAP1 PUSH2 0x2DB6 JUMP JUMPDEST PUSH6 0xFFFFFFFFFFFF AND DUP2 MSTORE PUSH1 0x20 ADD DUP7 PUSH1 0x60 ADD PUSH1 0x20 DUP2 ADD SWAP1 PUSH2 0x6BF SWAP2 SWAP1 PUSH2 0x2DB6 JUMP JUMPDEST PUSH6 0xFFFFFFFFFFFF AND DUP2 MSTORE PUSH1 0x20 ADD DUP7 PUSH1 0x80 ADD PUSH1 0x20 DUP2 ADD SWAP1 PUSH2 0x6DF SWAP2 SWAP1 PUSH2 0x2D3B JUMP JUMPDEST PUSH1 0x2 DUP2 GT ISZERO PUSH2 0x717 JUMPI PUSH32 0x4E487B7100000000000000000000000000000000000000000000000000000000 PUSH1 0x0 MSTORE PUSH1 0x21 PUSH1 0x4 MSTORE PUSH1 0x24 PUSH1 0x0 REVERT JUMPDEST DUP2 MSTORE PUSH1 0x20 ADD DUP7 PUSH1 0xA0 ADD PUSH1 0x20 DUP2 ADD SWAP1 PUSH2 0x72F SWAP2 SWAP1 PUSH2 0x2CC0 JUMP JUMPDEST ISZERO ISZERO DUP2 MSTORE PUSH1 0x20 ADD DUP7 PUSH1 0xC0 ADD CALLDATALOAD DUP2 MSTORE PUSH1 0x20 ADD DUP7 DUP1 PUSH1 0xE0 ADD SWAP1 PUSH2 0x750 SWAP2 SWAP1 PUSH2 0x39E8 JUMP JUMPDEST DUP1 DUP1 PUSH1 0x1F ADD PUSH1 0x20 DUP1 SWAP2 DIV MUL PUSH1 0x20 ADD PUSH1 0x40 MLOAD SWAP1 DUP2 ADD PUSH1 0x40 MSTORE DUP1 SWAP4 SWAP3 SWAP2 SWAP1 DUP2 DUP2 MSTORE PUSH1 0x20 ADD DUP4 DUP4 DUP1 DUP3 DUP5 CALLDATACOPY PUSH1 0x0 DUP2 DUP5 ADD MSTORE PUSH1 0x1F NOT PUSH1 0x1F DUP3 ADD AND SWAP1 POP DUP1 DUP4 ADD SWAP3 POP POP POP POP POP POP POP DUP2 MSTORE POP PUSH1 0x2 PUSH1 0x0 DUP9 PUSH20 0xFFFFFFFFFFFFFFFFFFFFFFFFFFFFFFFFFFFFFFFF AND PUSH20 0xFFFFFFFFFFFFFFFFFFFFFFFFFFFFFFFFFFFFFFFF AND DUP2 MSTORE PUSH1 0x20 ADD SWAP1 DUP2 MSTORE PUSH1 0x20 ADD PUSH1 0x0 KECCAK256 PUSH1 0x0 DUP4 DUP2 MSTORE PUSH1 0x20 ADD SWAP1 DUP2 MSTORE PUSH1 0x20 ADD PUSH1 0x0 KECCAK256 PUSH1 0x0 DUP3 ADD MLOAD DUP2 PUSH1 0x0 ADD PUSH1 0x0 PUSH2 0x100 EXP DUP2 SLOAD DUP2 PUSH4 0xFFFFFFFF MUL NOT AND SWAP1 DUP4 PUSH4 0xFFFFFFFF AND MUL OR SWAP1 SSTORE POP PUSH1 0x20 DUP3 ADD MLOAD DUP2 PUSH1 0x0 ADD PUSH1 0x4 PUSH2 0x100 EXP DUP2 SLOAD DUP2 PUSH4 0xFFFFFFFF MUL NOT AND SWAP1 DUP4 PUSH4 0xFFFFFFFF AND MUL OR SWAP1 SSTORE POP PUSH1 0x40 DUP3 ADD MLOAD DUP2 PUSH1 0x0 ADD PUSH1 0x8 PUSH2 0x100 EXP DUP2 SLOAD DUP2 PUSH4 0xFFFFFFFF MUL NOT AND SWAP1 DUP4 PUSH4 0xFFFFFFFF AND MUL OR SWAP1 SSTORE POP PUSH1 0x60 DUP3 ADD MLOAD DUP2 PUSH1 0x0 ADD PUSH1 0xC PUSH2 0x100 EXP DUP2 SLOAD DUP2 PUSH6 0xFFFFFFFFFFFF MUL NOT AND SWAP1 DUP4 PUSH6 0xFFFFFFFFFFFF AND MUL OR SWAP1 SSTORE POP PUSH1 0x80 DUP3 ADD MLOAD DUP2 PUSH1 0x0 ADD PUSH1 0x12 PUSH2 0x100 EXP DUP2 SLOAD DUP2 PUSH6 0xFFFFFFFFFFFF MUL NOT AND SWAP1 DUP4 PUSH6 0xFFFFFFFFFFFF AND MUL OR SWAP1 SSTORE POP PUSH1 0xA0 DUP3 ADD MLOAD DUP2 PUSH1 0x0 ADD PUSH1 0x18 PUSH2 0x100 EXP DUP2 SLOAD DUP2 PUSH1 0xFF MUL NOT AND SWAP1 DUP4 PUSH1 0x2 DUP2 GT ISZERO PUSH2 0x902 JUMPI PUSH32 0x4E487B7100000000000000000000000000000000000000000000000000000000 PUSH1 0x0 MSTORE PUSH1 0x21 PUSH1 0x4 MSTORE PUSH1 0x24 PUSH1 0x0 REVERT JUMPDEST MUL OR SWAP1 SSTORE POP PUSH1 0xC0 DUP3 ADD MLOAD DUP2 PUSH1 0x0 ADD PUSH1 0x19 PUSH2 0x100 EXP DUP2 SLOAD DUP2 PUSH1 0xFF MUL NOT AND SWAP1 DUP4 ISZERO ISZERO MUL OR SWAP1 SSTORE POP PUSH1 0xE0 DUP3 ADD MLOAD DUP2 PUSH1 0x1 ADD SSTORE PUSH2 0x100 DUP3 ADD MLOAD DUP2 PUSH1 0x2 ADD SWAP1 DUP1 MLOAD SWAP1 PUSH1 0x20 ADD SWAP1 PUSH2 0x94E SWAP3 SWAP2 SWAP1 PUSH2 0x2860 JUMP JUMPDEST POP SWAP1 POP POP DUP1 DUP7 PUSH20 0xFFFFFFFFFFFFFFFFFFFFFFFFFFFFFFFFFFFFFFFF AND PUSH32 0xD02727DA4C6C6C111E00310108209A4DE39F6817414DF43CA1A10730D47C6A34 CALLER PUSH1 0x40 MLOAD PUSH2 0x999 SWAP2 SWAP1 PUSH2 0x370F JUMP JUMPDEST PUSH1 0x40 MLOAD DUP1 SWAP2 SUB SWAP1 LOG3 DUP1 SWAP4 POP POP POP POP SWAP3 SWAP2 POP POP JUMP JUMPDEST PUSH1 0x0 DUP1 PUSH1 0x2 PUSH1 0x0 DUP9 PUSH20 0xFFFFFFFFFFFFFFFFFFFFFFFFFFFFFFFFFFFFFFFF AND PUSH20 0xFFFFFFFFFFFFFFFFFFFFFFFFFFFFFFFFFFFFFFFF AND DUP2 MSTORE PUSH1 0x20 ADD SWAP1 DUP2 MSTORE PUSH1 0x20 ADD PUSH1 0x0 KECCAK256 PUSH1 0x0 DUP8 DUP2 MSTORE PUSH1 0x20 ADD SWAP1 DUP2 MSTORE PUSH1 0x20 ADD PUSH1 0x0 KECCAK256 PUSH1 0x2 ADD DUP1 SLOAD PUSH2 0xA0E SWAP1 PUSH2 0x3C3F JUMP JUMPDEST SWAP1 POP EQ ISZERO PUSH2 0xA51 JUMPI PUSH1 0x40 MLOAD PUSH32 0x8C379A000000000000000000000000000000000000000000000000000000000 DUP2 MSTORE PUSH1 0x4 ADD PUSH2 0xA48 SWAP1 PUSH2 0x3867 JUMP JUMPDEST PUSH1 0x40 MLOAD DUP1 SWAP2 SUB SWAP1 REVERT JUMPDEST PUSH1 0x0 PUSH1 0x2 PUSH1 0x0 DUP9 PUSH20 0xFFFFFFFFFFFFFFFFFFFFFFFFFFFFFFFFFFFFFFFF AND PUSH20 0xFFFFFFFFFFFFFFFFFFFFFFFFFFFFFFFFFFFFFFFF AND DUP2 MSTORE PUSH1 0x20 ADD SWAP1 DUP2 MSTORE PUSH1 0x20 ADD PUSH1 0x0 KECCAK256 PUSH1 0x0 DUP8 DUP2 MSTORE PUSH1 0x20 ADD SWAP1 DUP2 MSTORE PUSH1 0x20 ADD PUSH1 0x0 KECCAK256 SWAP1 POP PUSH1 0x0 DUP2 PUSH1 0x0 ADD PUSH1 0xC SWAP1 SLOAD SWAP1 PUSH2 0x100 EXP SWAP1 DIV PUSH6 0xFFFFFFFFFFFF AND PUSH6 0xFFFFFFFFFFFF AND EQ DUP1 PUSH2 0xAEF JUMPI POP TIMESTAMP DUP2 PUSH1 0x0 ADD PUSH1 0xC SWAP1 SLOAD SWAP1 PUSH2 0x100 EXP SWAP1 DIV PUSH6 0xFFFFFFFFFFFF AND PUSH6 0xFFFFFFFFFFFF AND LT JUMPDEST PUSH2 0xB2E JUMPI PUSH1 0x40 MLOAD PUSH32 0x8C379A000000000000000000000000000000000000000000000000000000000 DUP2 MSTORE PUSH1 0x4 ADD PUSH2 0xB25 SWAP1 PUSH2 0x3847 JUMP JUMPDEST PUSH1 0x40 MLOAD DUP1 SWAP2 SUB SWAP1 REVERT JUMPDEST PUSH1 0x0 DUP2 PUSH1 0x0 ADD PUSH1 0x12 SWAP1 SLOAD SWAP1 PUSH2 0x100 EXP SWAP1 DIV PUSH6 0xFFFFFFFFFFFF AND PUSH6 0xFFFFFFFFFFFF AND EQ DUP1 PUSH2 0xB79 JUMPI POP TIMESTAMP DUP2 PUSH1 0x0 ADD PUSH1 0x12 SWAP1 SLOAD SWAP1 PUSH2 0x100 EXP SWAP1 DIV PUSH6 0xFFFFFFFFFFFF AND PUSH6 0xFFFFFFFFFFFF AND LT ISZERO JUMPDEST PUSH2 0xBB8 JUMPI PUSH1 0x40 MLOAD PUSH32 0x8C379A000000000000000000000000000000000000000000000000000000000 DUP2 MSTORE PUSH1 0x4 ADD PUSH2 0xBAF SWAP1 PUSH2 0x3927 JUMP JUMPDEST PUSH1 0x40 MLOAD DUP1 SWAP2 SUB SWAP1 REVERT JUMPDEST PUSH1 0x0 DUP2 PUSH1 0x0 ADD PUSH1 0x8 SWAP1 SLOAD SWAP1 PUSH2 0x100 EXP SWAP1 DIV PUSH4 0xFFFFFFFF AND PUSH4 0xFFFFFFFF AND EQ DUP1 PUSH2 0xC9D JUMPI POP DUP1 PUSH1 0x0 ADD PUSH1 0x8 SWAP1 SLOAD SWAP1 PUSH2 0x100 EXP SWAP1 DIV PUSH4 0xFFFFFFFF AND PUSH4 0xFFFFFFFF AND PUSH1 0x3 PUSH1 0x0 DUP10 PUSH20 0xFFFFFFFFFFFFFFFFFFFFFFFFFFFFFFFFFFFFFFFF AND PUSH20 0xFFFFFFFFFFFFFFFFFFFFFFFFFFFFFFFFFFFFFFFF AND DUP2 MSTORE PUSH1 0x20 ADD SWAP1 DUP2 MSTORE PUSH1 0x20 ADD PUSH1 0x0 KECCAK256 PUSH1 0x0 DUP9 DUP2 MSTORE PUSH1 0x20 ADD SWAP1 DUP2 MSTORE PUSH1 0x20 ADD PUSH1 0x0 KECCAK256 PUSH1 0x0 CALLER PUSH20 0xFFFFFFFFFFFFFFFFFFFFFFFFFFFFFFFFFFFFFFFF AND PUSH20 0xFFFFFFFFFFFFFFFFFFFFFFFFFFFFFFFFFFFFFFFF AND DUP2 MSTORE PUSH1 0x20 ADD SWAP1 DUP2 MSTORE PUSH1 0x20 ADD PUSH1 0x0 KECCAK256 PUSH1 0x0 SWAP1 SLOAD SWAP1 PUSH2 0x100 EXP SWAP1 DIV PUSH4 0xFFFFFFFF AND PUSH4 0xFFFFFFFF AND LT JUMPDEST PUSH2 0xCDC JUMPI PUSH1 0x40 MLOAD PUSH32 0x8C379A000000000000000000000000000000000000000000000000000000000 DUP2 MSTORE PUSH1 0x4 ADD PUSH2 0xCD3 SWAP1 PUSH2 0x3907 JUMP JUMPDEST PUSH1 0x40 MLOAD DUP1 SWAP2 SUB SWAP1 REVERT JUMPDEST PUSH1 0x0 DUP2 PUSH1 0x0 ADD PUSH1 0x4 SWAP1 SLOAD SWAP1 PUSH2 0x100 EXP SWAP1 DIV PUSH4 0xFFFFFFFF AND PUSH4 0xFFFFFFFF AND EQ DUP1 PUSH2 0xD38 JUMPI POP DUP1 PUSH1 0x0 ADD PUSH1 0x4 SWAP1 SLOAD SWAP1 PUSH2 0x100 EXP SWAP1 DIV PUSH4 0xFFFFFFFF AND PUSH4 0xFFFFFFFF AND DUP2 PUSH1 0x0 ADD PUSH1 0x0 SWAP1 SLOAD SWAP1 PUSH2 0x100 EXP SWAP1 DIV PUSH4 0xFFFFFFFF AND PUSH4 0xFFFFFFFF AND LT JUMPDEST PUSH2 0xD77 JUMPI PUSH1 0x40 MLOAD PUSH32 0x8C379A000000000000000000000000000000000000000000000000000000000 DUP2 MSTORE PUSH1 0x4 ADD PUSH2 0xD6E SWAP1 PUSH2 0x38C7 JUMP JUMPDEST PUSH1 0x40 MLOAD DUP1 SWAP2 SUB SWAP1 REVERT JUMPDEST PUSH1 0x0 DUP2 PUSH1 0x1 ADD SLOAD EQ PUSH2 0xF3D JUMPI PUSH1 0x0 CALLER DUP5 PUSH1 0x40 MLOAD PUSH1 0x20 ADD PUSH2 0xD98 SWAP3 SWAP2 SWAP1 PUSH2 0x3642 JUMP JUMPDEST PUSH1 0x40 MLOAD PUSH1 0x20 DUP2 DUP4 SUB SUB DUP2 MSTORE SWAP1 PUSH1 0x40 MSTORE DUP1 MLOAD SWAP1 PUSH1 0x20 ADD KECCAK256 SWAP1 POP PUSH2 0xE00 DUP7 DUP7 DUP1 DUP1 PUSH1 0x20 MUL PUSH1 0x20 ADD PUSH1 0x40 MLOAD SWAP1 DUP2 ADD PUSH1 0x40 MSTORE DUP1 SWAP4 SWAP3 SWAP2 SWAP1 DUP2 DUP2 MSTORE PUSH1 0x20 ADD DUP4 DUP4 PUSH1 0x20 MUL DUP1 DUP3 DUP5 CALLDATACOPY PUSH1 0x0 DUP2 DUP5 ADD MSTORE PUSH1 0x1F NOT PUSH1 0x1F DUP3 ADD AND SWAP1 POP DUP1 DUP4 ADD SWAP3 POP POP POP POP POP POP POP DUP4 PUSH1 0x1 ADD SLOAD DUP4 PUSH2 0x2413 JUMP JUMPDEST PUSH2 0xE3F JUMPI PUSH1 0x40 MLOAD PUSH32 0x8C379A000000000000000000000000000000000000000000000000000000000 DUP2 MSTORE PUSH1 0x4 ADD PUSH2 0xE36 SWAP1 PUSH2 0x38E7 JUMP JUMPDEST PUSH1 0x40 MLOAD DUP1 SWAP2 SUB SWAP1 REVERT JUMPDEST PUSH1 0x0 DUP5 PUSH4 0xFFFFFFFF AND EQ DUP1 PUSH2 0xEFC JUMPI POP DUP4 PUSH4 0xFFFFFFFF AND PUSH1 0x3 PUSH1 0x0 DUP11 PUSH20 0xFFFFFFFFFFFFFFFFFFFFFFFFFFFFFFFFFFFFFFFF AND PUSH20 0xFFFFFFFFFFFFFFFFFFFFFFFFFFFFFFFFFFFFFFFF AND DUP2 MSTORE PUSH1 0x20 ADD SWAP1 DUP2 MSTORE PUSH1 0x20 ADD PUSH1 0x0 KECCAK256 PUSH1 0x0 DUP10 DUP2 MSTORE PUSH1 0x20 ADD SWAP1 DUP2 MSTORE PUSH1 0x20 ADD PUSH1 0x0 KECCAK256 PUSH1 0x0 CALLER PUSH20 0xFFFFFFFFFFFFFFFFFFFFFFFFFFFFFFFFFFFFFFFF AND PUSH20 0xFFFFFFFFFFFFFFFFFFFFFFFFFFFFFFFFFFFFFFFF AND DUP2 MSTORE PUSH1 0x20 ADD SWAP1 DUP2 MSTORE PUSH1 0x20 ADD PUSH1 0x0 KECCAK256 PUSH1 0x0 SWAP1 SLOAD SWAP1 PUSH2 0x100 EXP SWAP1 DIV PUSH4 0xFFFFFFFF AND PUSH4 0xFFFFFFFF AND LT JUMPDEST PUSH2 0xF3B JUMPI PUSH1 0x40 MLOAD PUSH32 0x8C379A000000000000000000000000000000000000000000000000000000000 DUP2 MSTORE PUSH1 0x4 ADD PUSH2 0xF32 SWAP1 PUSH2 0x3947 JUMP JUMPDEST PUSH1 0x40 MLOAD DUP1 SWAP2 SUB SWAP1 REVERT JUMPDEST POP JUMPDEST PUSH1 0x0 DUP8 PUSH20 0xFFFFFFFFFFFFFFFFFFFFFFFFFFFFFFFFFFFFFFFF AND PUSH4 0x2928CA58 CALLER PUSH1 0x40 MLOAD DUP3 PUSH4 0xFFFFFFFF AND PUSH1 0xE0 SHL DUP2 MSTORE PUSH1 0x4 ADD PUSH2 0xF78 SWAP2 SWAP1 PUSH2 0x370F JUMP JUMPDEST PUSH1 0x20 PUSH1 0x40 MLOAD DUP1 DUP4 SUB DUP2 PUSH1 0x0 DUP8 DUP1 EXTCODESIZE ISZERO DUP1 ISZERO PUSH2 0xF92 JUMPI PUSH1 0x0 DUP1 REVERT JUMPDEST POP GAS CALL ISZERO DUP1 ISZERO PUSH2 0xFA6 JUMPI RETURNDATASIZE PUSH1 0x0 DUP1 RETURNDATACOPY RETURNDATASIZE PUSH1 0x0 REVERT JUMPDEST POP POP POP POP PUSH1 0x40 MLOAD RETURNDATASIZE PUSH1 0x1F NOT PUSH1 0x1F DUP3 ADD AND DUP3 ADD DUP1 PUSH1 0x40 MSTORE POP DUP2 ADD SWAP1 PUSH2 0xFCA SWAP2 SWAP1 PUSH2 0x2D64 JUMP JUMPDEST SWAP1 POP PUSH2 0xFD7 DUP9 DUP9 DUP4 PUSH2 0x242A JUMP JUMPDEST PUSH1 0x3 PUSH1 0x0 DUP10 PUSH20 0xFFFFFFFFFFFFFFFFFFFFFFFFFFFFFFFFFFFFFFFF AND PUSH20 0xFFFFFFFFFFFFFFFFFFFFFFFFFFFFFFFFFFFFFFFF AND DUP2 MSTORE PUSH1 0x20 ADD SWAP1 DUP2 MSTORE PUSH1 0x20 ADD PUSH1 0x0 KECCAK256 PUSH1 0x0 DUP9 DUP2 MSTORE PUSH1 0x20 ADD SWAP1 DUP2 MSTORE PUSH1 0x20 ADD PUSH1 0x0 KECCAK256 PUSH1 0x0 CALLER PUSH20 0xFFFFFFFFFFFFFFFFFFFFFFFFFFFFFFFFFFFFFFFF AND PUSH20 0xFFFFFFFFFFFFFFFFFFFFFFFFFFFFFFFFFFFFFFFF AND DUP2 MSTORE PUSH1 0x20 ADD SWAP1 DUP2 MSTORE PUSH1 0x20 ADD PUSH1 0x0 KECCAK256 PUSH1 0x0 DUP2 DUP2 SWAP1 SLOAD SWAP1 PUSH2 0x100 EXP SWAP1 DIV PUSH4 0xFFFFFFFF AND DUP1 SWAP3 SWAP2 SWAP1 PUSH1 0x1 ADD SWAP2 SWAP1 PUSH2 0x100 EXP DUP2 SLOAD DUP2 PUSH4 0xFFFFFFFF MUL NOT AND SWAP1 DUP4 PUSH4 0xFFFFFFFF AND MUL OR SWAP1 SSTORE POP POP DUP2 PUSH1 0x0 ADD PUSH1 0x0 DUP2 DUP2 SWAP1 SLOAD SWAP1 PUSH2 0x100 EXP SWAP1 DIV PUSH4 0xFFFFFFFF AND DUP1 SWAP3 SWAP2 SWAP1 PUSH1 0x1 ADD SWAP2 SWAP1 PUSH2 0x100 EXP DUP2 SLOAD DUP2 PUSH4 0xFFFFFFFF MUL NOT AND SWAP1 DUP4 PUSH4 0xFFFFFFFF AND MUL OR SWAP1 SSTORE POP POP DUP7 DUP9 PUSH20 0xFFFFFFFFFFFFFFFFFFFFFFFFFFFFFFFFFFFFFFFF AND PUSH32 0xDBBA30EB0402B389513E87F51F4DB2DB80BED454384EC6925A24097C3548A02A DUP4 CALLER PUSH1 0x40 MLOAD PUSH2 0x1123 SWAP3 SWAP2 SWAP1 PUSH2 0x39A4 JUMP JUMPDEST PUSH1 0x40 MLOAD DUP1 SWAP2 SUB SWAP1 LOG3 DUP1 SWAP3 POP POP POP SWAP6 SWAP5 POP POP POP POP POP JUMP JUMPDEST PUSH2 0x1141 PUSH2 0x28E6 JUMP JUMPDEST PUSH1 0x0 PUSH1 0x2 PUSH1 0x0 DUP6 PUSH20 0xFFFFFFFFFFFFFFFFFFFFFFFFFFFFFFFFFFFFFFFF AND PUSH20 0xFFFFFFFFFFFFFFFFFFFFFFFFFFFFFFFFFFFFFFFF AND DUP2 MSTORE PUSH1 0x20 ADD SWAP1 DUP2 MSTORE PUSH1 0x20 ADD PUSH1 0x0 KECCAK256 PUSH1 0x0 DUP5 DUP2 MSTORE PUSH1 0x20 ADD SWAP1 DUP2 MSTORE PUSH1 0x20 ADD PUSH1 0x0 KECCAK256 PUSH1 0x2 ADD DUP1 SLOAD PUSH2 0x11A1 SWAP1 PUSH2 0x3C3F JUMP JUMPDEST SWAP1 POP EQ ISZERO PUSH2 0x11E4 JUMPI PUSH1 0x40 MLOAD PUSH32 0x8C379A000000000000000000000000000000000000000000000000000000000 DUP2 MSTORE PUSH1 0x4 ADD PUSH2 0x11DB SWAP1 PUSH2 0x3867 JUMP JUMPDEST PUSH1 0x40 MLOAD DUP1 SWAP2 SUB SWAP1 REVERT JUMPDEST PUSH1 0x2 PUSH1 0x0 DUP5 PUSH20 0xFFFFFFFFFFFFFFFFFFFFFFFFFFFFFFFFFFFFFFFF AND PUSH20 0xFFFFFFFFFFFFFFFFFFFFFFFFFFFFFFFFFFFFFFFF AND DUP2 MSTORE PUSH1 0x20 ADD SWAP1 DUP2 MSTORE PUSH1 0x20 ADD PUSH1 0x0 KECCAK256 PUSH1 0x0 DUP4 DUP2 MSTORE PUSH1 0x20 ADD SWAP1 DUP2 MSTORE PUSH1 0x20 ADD PUSH1 0x0 KECCAK256 PUSH1 0x40 MLOAD DUP1 PUSH2 0x120 ADD PUSH1 0x40 MSTORE SWAP1 DUP2 PUSH1 0x0 DUP3 ADD PUSH1 0x0 SWAP1 SLOAD SWAP1 PUSH2 0x100 EXP SWAP1 DIV PUSH4 0xFFFFFFFF AND PUSH4 0xFFFFFFFF AND PUSH4 0xFFFFFFFF AND DUP2 MSTORE PUSH1 0x20 ADD PUSH1 0x0 DUP3 ADD PUSH1 0x4 SWAP1 SLOAD SWAP1 PUSH2 0x100 EXP SWAP1 DIV PUSH4 0xFFFFFFFF AND PUSH4 0xFFFFFFFF AND PUSH4 0xFFFFFFFF AND DUP2 MSTORE PUSH1 0x20 ADD PUSH1 0x0 DUP3 ADD PUSH1 0x8 SWAP1 SLOAD SWAP1 PUSH2 0x100 EXP SWAP1 DIV PUSH4 0xFFFFFFFF AND PUSH4 0xFFFFFFFF AND PUSH4 0xFFFFFFFF AND DUP2 MSTORE PUSH1 0x20 ADD PUSH1 0x0 DUP3 ADD PUSH1 0xC SWAP1 SLOAD SWAP1 PUSH2 0x100 EXP SWAP1 DIV PUSH6 0xFFFFFFFFFFFF AND PUSH6 0xFFFFFFFFFFFF AND PUSH6 0xFFFFFFFFFFFF AND DUP2 MSTORE PUSH1 0x20 ADD PUSH1 0x0 DUP3 ADD PUSH1 0x12 SWAP1 SLOAD SWAP1 PUSH2 0x100 EXP SWAP1 DIV PUSH6 0xFFFFFFFFFFFF AND PUSH6 0xFFFFFFFFFFFF AND PUSH6 0xFFFFFFFFFFFF AND DUP2 MSTORE PUSH1 0x20 ADD PUSH1 0x0 DUP3 ADD PUSH1 0x18 SWAP1 SLOAD SWAP1 PUSH2 0x100 EXP SWAP1 DIV PUSH1 0xFF AND PUSH1 0x2 DUP2 GT ISZERO PUSH2 0x1355 JUMPI PUSH32 0x4E487B7100000000000000000000000000000000000000000000000000000000 PUSH1 0x0 MSTORE PUSH1 0x21 PUSH1 0x4 MSTORE PUSH1 0x24 PUSH1 0x0 REVERT JUMPDEST PUSH1 0x2 DUP2 GT ISZERO PUSH2 0x138D JUMPI PUSH32 0x4E487B7100000000000000000000000000000000000000000000000000000000 PUSH1 0x0 MSTORE PUSH1 0x21 PUSH1 0x4 MSTORE PUSH1 0x24 PUSH1 0x0 REVERT JUMPDEST DUP2 MSTORE PUSH1 0x20 ADD PUSH1 0x0 DUP3 ADD PUSH1 0x19 SWAP1 SLOAD SWAP1 PUSH2 0x100 EXP SWAP1 DIV PUSH1 0xFF AND ISZERO ISZERO ISZERO ISZERO DUP2 MSTORE PUSH1 0x20 ADD PUSH1 0x1 DUP3 ADD SLOAD DUP2 MSTORE PUSH1 0x20 ADD PUSH1 0x2 DUP3 ADD DUP1 SLOAD PUSH2 0x13C6 SWAP1 PUSH2 0x3C3F JUMP JUMPDEST DUP1 PUSH1 0x1F ADD PUSH1 0x20 DUP1 SWAP2 DIV MUL PUSH1 0x20 ADD PUSH1 0x40 MLOAD SWAP1 DUP2 ADD PUSH1 0x40 MSTORE DUP1 SWAP3 SWAP2 SWAP1 DUP2 DUP2 MSTORE PUSH1 0x20 ADD DUP3 DUP1 SLOAD PUSH2 0x13F2 SWAP1 PUSH2 0x3C3F JUMP JUMPDEST DUP1 ISZERO PUSH2 0x143F JUMPI DUP1 PUSH1 0x1F LT PUSH2 0x1414 JUMPI PUSH2 0x100 DUP1 DUP4 SLOAD DIV MUL DUP4 MSTORE SWAP2 PUSH1 0x20 ADD SWAP2 PUSH2 0x143F JUMP JUMPDEST DUP3 ADD SWAP2 SWAP1 PUSH1 0x0 MSTORE PUSH1 0x20 PUSH1 0x0 KECCAK256 SWAP1 JUMPDEST DUP2 SLOAD DUP2 MSTORE SWAP1 PUSH1 0x1 ADD SWAP1 PUSH1 0x20 ADD DUP1 DUP4 GT PUSH2 0x1422 JUMPI DUP3 SWAP1 SUB PUSH1 0x1F AND DUP3 ADD SWAP2 JUMPDEST POP POP POP POP POP DUP2 MSTORE POP POP SWAP1 POP SWAP3 SWAP2 POP POP JUMP JUMPDEST PUSH1 0x0 DUP1 PUSH1 0x2 PUSH1 0x0 DUP7 PUSH20 0xFFFFFFFFFFFFFFFFFFFFFFFFFFFFFFFFFFFFFFFF AND PUSH20 0xFFFFFFFFFFFFFFFFFFFFFFFFFFFFFFFFFFFFFFFF AND DUP2 MSTORE PUSH1 0x20 ADD SWAP1 DUP2 MSTORE PUSH1 0x20 ADD PUSH1 0x0 KECCAK256 PUSH1 0x0 DUP6 DUP2 MSTORE PUSH1 0x20 ADD SWAP1 DUP2 MSTORE PUSH1 0x20 ADD PUSH1 0x0 KECCAK256 PUSH1 0x2 ADD DUP1 SLOAD PUSH2 0x14B1 SWAP1 PUSH2 0x3C3F JUMP JUMPDEST SWAP1 POP EQ ISZERO PUSH2 0x14F4 JUMPI PUSH1 0x40 MLOAD PUSH32 0x8C379A000000000000000000000000000000000000000000000000000000000 DUP2 MSTORE PUSH1 0x4 ADD PUSH2 0x14EB SWAP1 PUSH2 0x3867 JUMP JUMPDEST PUSH1 0x40 MLOAD DUP1 SWAP2 SUB SWAP1 REVERT JUMPDEST PUSH1 0x3 PUSH1 0x0 DUP6 PUSH20 0xFFFFFFFFFFFFFFFFFFFFFFFFFFFFFFFFFFFFFFFF AND PUSH20 0xFFFFFFFFFFFFFFFFFFFFFFFFFFFFFFFFFFFFFFFF AND DUP2 MSTORE PUSH1 0x20 ADD SWAP1 DUP2 MSTORE PUSH1 0x20 ADD PUSH1 0x0 KECCAK256 PUSH1 0x0 DUP5 DUP2 MSTORE PUSH1 0x20 ADD SWAP1 DUP2 MSTORE PUSH1 0x20 ADD PUSH1 0x0 KECCAK256 PUSH1 0x0 DUP4 PUSH20 0xFFFFFFFFFFFFFFFFFFFFFFFFFFFFFFFFFFFFFFFF AND PUSH20 0xFFFFFFFFFFFFFFFFFFFFFFFFFFFFFFFFFFFFFFFF AND DUP2 MSTORE PUSH1 0x20 ADD SWAP1 DUP2 MSTORE PUSH1 0x20 ADD PUSH1 0x0 KECCAK256 PUSH1 0x0 SWAP1 SLOAD SWAP1 PUSH2 0x100 EXP SWAP1 DIV PUSH4 0xFFFFFFFF AND SWAP1 POP SWAP4 SWAP3 POP POP POP JUMP JUMPDEST DUP3 PUSH1 0x0 DUP2 SWAP1 POP DUP1 PUSH20 0xFFFFFFFFFFFFFFFFFFFFFFFFFFFFFFFFFFFFFFFF AND PUSH4 0x24D7806C CALLER PUSH1 0x40 MLOAD DUP3 PUSH4 0xFFFFFFFF AND PUSH1 0xE0 SHL DUP2 MSTORE PUSH1 0x4 ADD PUSH2 0x15DA SWAP2 SWAP1 PUSH2 0x370F JUMP JUMPDEST PUSH1 0x20 PUSH1 0x40 MLOAD DUP1 DUP4 SUB DUP2 DUP7 DUP1 EXTCODESIZE ISZERO DUP1 ISZERO PUSH2 0x15F2 JUMPI PUSH1 0x0 DUP1 REVERT JUMPDEST POP GAS STATICCALL ISZERO DUP1 ISZERO PUSH2 0x1606 JUMPI RETURNDATASIZE PUSH1 0x0 DUP1 RETURNDATACOPY RETURNDATASIZE PUSH1 0x0 REVERT JUMPDEST POP POP POP POP PUSH1 0x40 MLOAD RETURNDATASIZE PUSH1 0x1F NOT PUSH1 0x1F DUP3 ADD AND DUP3 ADD DUP1 PUSH1 0x40 MSTORE POP DUP2 ADD SWAP1 PUSH2 0x162A SWAP2 SWAP1 PUSH2 0x2CE9 JUMP JUMPDEST PUSH2 0x1669 JUMPI PUSH1 0x40 MLOAD PUSH32 0x8C379A000000000000000000000000000000000000000000000000000000000 DUP2 MSTORE PUSH1 0x4 ADD PUSH2 0x1660 SWAP1 PUSH2 0x37E7 JUMP JUMPDEST PUSH1 0x40 MLOAD DUP1 SWAP2 SUB SWAP1 REVERT JUMPDEST PUSH1 0x0 PUSH1 0x2 PUSH1 0x0 DUP8 PUSH20 0xFFFFFFFFFFFFFFFFFFFFFFFFFFFFFFFFFFFFFFFF AND PUSH20 0xFFFFFFFFFFFFFFFFFFFFFFFFFFFFFFFFFFFFFFFF AND DUP2 MSTORE PUSH1 0x20 ADD SWAP1 DUP2 MSTORE PUSH1 0x20 ADD PUSH1 0x0 KECCAK256 PUSH1 0x0 DUP7 DUP2 MSTORE PUSH1 0x20 ADD SWAP1 DUP2 MSTORE PUSH1 0x20 ADD PUSH1 0x0 KECCAK256 PUSH1 0x2 ADD DUP1 SLOAD PUSH2 0x16C9 SWAP1 PUSH2 0x3C3F JUMP JUMPDEST SWAP1 POP EQ ISZERO PUSH2 0x170C JUMPI PUSH1 0x40 MLOAD PUSH32 0x8C379A000000000000000000000000000000000000000000000000000000000 DUP2 MSTORE PUSH1 0x4 ADD PUSH2 0x1703 SWAP1 PUSH2 0x3787 JUMP JUMPDEST PUSH1 0x40 MLOAD DUP1 SWAP2 SUB SWAP1 REVERT JUMPDEST DUP3 PUSH1 0x0 ADD PUSH1 0x20 DUP2 ADD SWAP1 PUSH2 0x171F SWAP2 SWAP1 PUSH2 0x2D8D JUMP JUMPDEST PUSH4 0xFFFFFFFF AND PUSH1 0x2 PUSH1 0x0 DUP8 PUSH20 0xFFFFFFFFFFFFFFFFFFFFFFFFFFFFFFFFFFFFFFFF AND PUSH20 0xFFFFFFFFFFFFFFFFFFFFFFFFFFFFFFFFFFFFFFFF AND DUP2 MSTORE PUSH1 0x20 ADD SWAP1 DUP2 MSTORE PUSH1 0x20 ADD PUSH1 0x0 KECCAK256 PUSH1 0x0 DUP7 DUP2 MSTORE PUSH1 0x20 ADD SWAP1 DUP2 MSTORE PUSH1 0x20 ADD PUSH1 0x0 KECCAK256 PUSH1 0x0 ADD PUSH1 0x4 SWAP1 SLOAD SWAP1 PUSH2 0x100 EXP SWAP1 DIV PUSH4 0xFFFFFFFF AND PUSH4 0xFFFFFFFF AND EQ PUSH2 0x17CF JUMPI PUSH1 0x40 MLOAD PUSH32 0x8C379A000000000000000000000000000000000000000000000000000000000 DUP2 MSTORE PUSH1 0x4 ADD PUSH2 0x17C6 SWAP1 PUSH2 0x37A7 JUMP JUMPDEST PUSH1 0x40 MLOAD DUP1 SWAP2 SUB SWAP1 REVERT JUMPDEST DUP3 PUSH1 0x20 ADD PUSH1 0x20 DUP2 ADD SWAP1 PUSH2 0x17E2 SWAP2 SWAP1 PUSH2 0x2D8D JUMP JUMPDEST PUSH4 0xFFFFFFFF AND PUSH1 0x2 PUSH1 0x0 DUP8 PUSH20 0xFFFFFFFFFFFFFFFFFFFFFFFFFFFFFFFFFFFFFFFF AND PUSH20 0xFFFFFFFFFFFFFFFFFFFFFFFFFFFFFFFFFFFFFFFF AND DUP2 MSTORE PUSH1 0x20 ADD SWAP1 DUP2 MSTORE PUSH1 0x20 ADD PUSH1 0x0 KECCAK256 PUSH1 0x0 DUP7 DUP2 MSTORE PUSH1 0x20 ADD SWAP1 DUP2 MSTORE PUSH1 0x20 ADD PUSH1 0x0 KECCAK256 PUSH1 0x0 ADD PUSH1 0x8 SWAP1 SLOAD SWAP1 PUSH2 0x100 EXP SWAP1 DIV PUSH4 0xFFFFFFFF AND PUSH4 0xFFFFFFFF AND GT ISZERO PUSH2 0x1893 JUMPI PUSH1 0x40 MLOAD PUSH32 0x8C379A000000000000000000000000000000000000000000000000000000000 DUP2 MSTORE PUSH1 0x4 ADD PUSH2 0x188A SWAP1 PUSH2 0x38A7 JUMP JUMPDEST PUSH1 0x40 MLOAD DUP1 SWAP2 SUB SWAP1 REVERT JUMPDEST PUSH1 0x0 DUP4 PUSH1 0x60 ADD PUSH1 0x20 DUP2 ADD SWAP1 PUSH2 0x18A8 SWAP2 SWAP1 PUSH2 0x2DB6 JUMP JUMPDEST PUSH6 0xFFFFFFFFFFFF AND EQ DUP1 PUSH2 0x18EF JUMPI POP DUP3 PUSH1 0x60 ADD PUSH1 0x20 DUP2 ADD SWAP1 PUSH2 0x18CA SWAP2 SWAP1 PUSH2 0x2DB6 JUMP JUMPDEST PUSH6 0xFFFFFFFFFFFF AND DUP4 PUSH1 0x40 ADD PUSH1 0x20 DUP2 ADD SWAP1 PUSH2 0x18E5 SWAP2 SWAP1 PUSH2 0x2DB6 JUMP JUMPDEST PUSH6 0xFFFFFFFFFFFF AND LT JUMPDEST PUSH2 0x192E JUMPI PUSH1 0x40 MLOAD PUSH32 0x8C379A000000000000000000000000000000000000000000000000000000000 DUP2 MSTORE PUSH1 0x4 ADD PUSH2 0x1925 SWAP1 PUSH2 0x3767 JUMP JUMPDEST PUSH1 0x40 MLOAD DUP1 SWAP2 SUB SWAP1 REVERT JUMPDEST PUSH1 0x40 MLOAD DUP1 PUSH2 0x120 ADD PUSH1 0x40 MSTORE DUP1 PUSH1 0x2 PUSH1 0x0 DUP9 PUSH20 0xFFFFFFFFFFFFFFFFFFFFFFFFFFFFFFFFFFFFFFFF AND PUSH20 0xFFFFFFFFFFFFFFFFFFFFFFFFFFFFFFFFFFFFFFFF AND DUP2 MSTORE PUSH1 0x20 ADD SWAP1 DUP2 MSTORE PUSH1 0x20 ADD PUSH1 0x0 KECCAK256 PUSH1 0x0 DUP8 DUP2 MSTORE PUSH1 0x20 ADD SWAP1 DUP2 MSTORE PUSH1 0x20 ADD PUSH1 0x0 KECCAK256 PUSH1 0x0 ADD PUSH1 0x0 SWAP1 SLOAD SWAP1 PUSH2 0x100 EXP SWAP1 DIV PUSH4 0xFFFFFFFF AND PUSH4 0xFFFFFFFF AND DUP2 MSTORE PUSH1 0x20 ADD DUP5 PUSH1 0x0 ADD PUSH1 0x20 DUP2 ADD SWAP1 PUSH2 0x19BC SWAP2 SWAP1 PUSH2 0x2D8D JUMP JUMPDEST PUSH4 0xFFFFFFFF AND DUP2 MSTORE PUSH1 0x20 ADD DUP5 PUSH1 0x20 ADD PUSH1 0x20 DUP2 ADD SWAP1 PUSH2 0x19DA SWAP2 SWAP1 PUSH2 0x2D8D JUMP JUMPDEST PUSH4 0xFFFFFFFF AND DUP2 MSTORE PUSH1 0x20 ADD DUP5 PUSH1 0x40 ADD PUSH1 0x20 DUP2 ADD SWAP1 PUSH2 0x19F8 SWAP2 SWAP1 PUSH2 0x2DB6 JUMP JUMPDEST PUSH6 0xFFFFFFFFFFFF AND DUP2 MSTORE PUSH1 0x20 ADD DUP5 PUSH1 0x60 ADD PUSH1 0x20 DUP2 ADD SWAP1 PUSH2 0x1A18 SWAP2 SWAP1 PUSH2 0x2DB6 JUMP JUMPDEST PUSH6 0xFFFFFFFFFFFF AND DUP2 MSTORE PUSH1 0x20 ADD DUP5 PUSH1 0x80 ADD PUSH1 0x20 DUP2 ADD SWAP1 PUSH2 0x1A38 SWAP2 SWAP1 PUSH2 0x2D3B JUMP JUMPDEST PUSH1 0x2 DUP2 GT ISZERO PUSH2 0x1A70 JUMPI PUSH32 0x4E487B7100000000000000000000000000000000000000000000000000000000 PUSH1 0x0 MSTORE PUSH1 0x21 PUSH1 0x4 MSTORE PUSH1 0x24 PUSH1 0x0 REVERT JUMPDEST DUP2 MSTORE PUSH1 0x20 ADD DUP5 PUSH1 0xA0 ADD PUSH1 0x20 DUP2 ADD SWAP1 PUSH2 0x1A88 SWAP2 SWAP1 PUSH2 0x2CC0 JUMP JUMPDEST ISZERO ISZERO DUP2 MSTORE PUSH1 0x20 ADD DUP5 PUSH1 0xC0 ADD CALLDATALOAD DUP2 MSTORE PUSH1 0x20 ADD DUP5 DUP1 PUSH1 0xE0 ADD SWAP1 PUSH2 0x1AA9 SWAP2 SWAP1 PUSH2 0x39E8 JUMP JUMPDEST DUP1 DUP1 PUSH1 0x1F ADD PUSH1 0x20 DUP1 SWAP2 DIV MUL PUSH1 0x20 ADD PUSH1 0x40 MLOAD SWAP1 DUP2 ADD PUSH1 0x40 MSTORE DUP1 SWAP4 SWAP3 SWAP2 SWAP1 DUP2 DUP2 MSTORE PUSH1 0x20 ADD DUP4 DUP4 DUP1 DUP3 DUP5 CALLDATACOPY PUSH1 0x0 DUP2 DUP5 ADD MSTORE PUSH1 0x1F NOT PUSH1 0x1F DUP3 ADD AND SWAP1 POP DUP1 DUP4 ADD SWAP3 POP POP POP POP POP POP POP DUP2 MSTORE POP PUSH1 0x2 PUSH1 0x0 DUP8 PUSH20 0xFFFFFFFFFFFFFFFFFFFFFFFFFFFFFFFFFFFFFFFF AND PUSH20 0xFFFFFFFFFFFFFFFFFFFFFFFFFFFFFFFFFFFFFFFF AND DUP2 MSTORE PUSH1 0x20 ADD SWAP1 DUP2 MSTORE PUSH1 0x20 ADD PUSH1 0x0 KECCAK256 PUSH1 0x0 DUP7 DUP2 MSTORE PUSH1 0x20 ADD SWAP1 DUP2 MSTORE PUSH1 0x20 ADD PUSH1 0x0 KECCAK256 PUSH1 0x0 DUP3 ADD MLOAD DUP2 PUSH1 0x0 ADD PUSH1 0x0 PUSH2 0x100 EXP DUP2 SLOAD DUP2 PUSH4 0xFFFFFFFF MUL NOT AND SWAP1 DUP4 PUSH4 0xFFFFFFFF AND MUL OR SWAP1 SSTORE POP PUSH1 0x20 DUP3 ADD MLOAD DUP2 PUSH1 0x0 ADD PUSH1 0x4 PUSH2 0x100 EXP DUP2 SLOAD DUP2 PUSH4 0xFFFFFFFF MUL NOT AND SWAP1 DUP4 PUSH4 0xFFFFFFFF AND MUL OR SWAP1 SSTORE POP PUSH1 0x40 DUP3 ADD MLOAD DUP2 PUSH1 0x0 ADD PUSH1 0x8 PUSH2 0x100 EXP DUP2 SLOAD DUP2 PUSH4 0xFFFFFFFF MUL NOT AND SWAP1 DUP4 PUSH4 0xFFFFFFFF AND MUL OR SWAP1 SSTORE POP PUSH1 0x60 DUP3 ADD MLOAD DUP2 PUSH1 0x0 ADD PUSH1 0xC PUSH2 0x100 EXP DUP2 SLOAD DUP2 PUSH6 0xFFFFFFFFFFFF MUL NOT AND SWAP1 DUP4 PUSH6 0xFFFFFFFFFFFF AND MUL OR SWAP1 SSTORE POP PUSH1 0x80 DUP3 ADD MLOAD DUP2 PUSH1 0x0 ADD PUSH1 0x12 PUSH2 0x100 EXP DUP2 SLOAD DUP2 PUSH6 0xFFFFFFFFFFFF MUL NOT AND SWAP1 DUP4 PUSH6 0xFFFFFFFFFFFF AND MUL OR SWAP1 SSTORE POP PUSH1 0xA0 DUP3 ADD MLOAD DUP2 PUSH1 0x0 ADD PUSH1 0x18 PUSH2 0x100 EXP DUP2 SLOAD DUP2 PUSH1 0xFF MUL NOT AND SWAP1 DUP4 PUSH1 0x2 DUP2 GT ISZERO PUSH2 0x1C5B JUMPI PUSH32 0x4E487B7100000000000000000000000000000000000000000000000000000000 PUSH1 0x0 MSTORE PUSH1 0x21 PUSH1 0x4 MSTORE PUSH1 0x24 PUSH1 0x0 REVERT JUMPDEST MUL OR SWAP1 SSTORE POP PUSH1 0xC0 DUP3 ADD MLOAD DUP2 PUSH1 0x0 ADD PUSH1 0x19 PUSH2 0x100 EXP DUP2 SLOAD DUP2 PUSH1 0xFF MUL NOT AND SWAP1 DUP4 ISZERO ISZERO MUL OR SWAP1 SSTORE POP PUSH1 0xE0 DUP3 ADD MLOAD DUP2 PUSH1 0x1 ADD SSTORE PUSH2 0x100 DUP3 ADD MLOAD DUP2 PUSH1 0x2 ADD SWAP1 DUP1 MLOAD SWAP1 PUSH1 0x20 ADD SWAP1 PUSH2 0x1CA7 SWAP3 SWAP2 SWAP1 PUSH2 0x2860 JUMP JUMPDEST POP SWAP1 POP POP POP POP POP POP POP JUMP JUMPDEST PUSH1 0x0 PUSH1 0x1 PUSH1 0x0 DUP4 PUSH20 0xFFFFFFFFFFFFFFFFFFFFFFFFFFFFFFFFFFFFFFFF AND PUSH20 0xFFFFFFFFFFFFFFFFFFFFFFFFFFFFFFFFFFFFFFFF AND DUP2 MSTORE PUSH1 0x20 ADD SWAP1 DUP2 MSTORE PUSH1 0x20 ADD PUSH1 0x0 KECCAK256 SLOAD SWAP1 POP SWAP2 SWAP1 POP JUMP JUMPDEST PUSH1 0x60 PUSH1 0x0 PUSH2 0x1D09 DUP5 DUP5 PUSH2 0x2167 JUMP JUMPDEST SWAP1 POP PUSH1 0x0 PUSH1 0x40 MLOAD DUP1 PUSH1 0x20 ADD PUSH1 0x40 MSTORE DUP1 PUSH1 0x0 DUP2 MSTORE POP SWAP1 POP PUSH1 0x2 PUSH1 0x0 DUP7 PUSH20 0xFFFFFFFFFFFFFFFFFFFFFFFFFFFFFFFFFFFFFFFF AND PUSH20 0xFFFFFFFFFFFFFFFFFFFFFFFFFFFFFFFFFFFFFFFF AND DUP2 MSTORE PUSH1 0x20 ADD SWAP1 DUP2 MSTORE PUSH1 0x20 ADD PUSH1 0x0 KECCAK256 PUSH1 0x0 DUP4 DUP2 MSTORE PUSH1 0x20 ADD SWAP1 DUP2 MSTORE PUSH1 0x20 ADD PUSH1 0x0 KECCAK256 PUSH1 0x0 ADD PUSH1 0x19 SWAP1 SLOAD SWAP1 PUSH2 0x100 EXP SWAP1 DIV PUSH1 0xFF AND PUSH2 0x1EAA JUMPI PUSH2 0x1D8D DUP5 PUSH2 0x25DA JUMP JUMPDEST PUSH1 0x40 MLOAD PUSH1 0x20 ADD PUSH2 0x1D9D SWAP2 SWAP1 PUSH2 0x36ED JUMP JUMPDEST PUSH1 0x40 MLOAD PUSH1 0x20 DUP2 DUP4 SUB SUB DUP2 MSTORE SWAP1 PUSH1 0x40 MSTORE SWAP1 POP PUSH1 0x2 DUP1 DUP2 GT ISZERO PUSH2 0x1DE7 JUMPI PUSH32 0x4E487B7100000000000000000000000000000000000000000000000000000000 PUSH1 0x0 MSTORE PUSH1 0x21 PUSH1 0x4 MSTORE PUSH1 0x24 PUSH1 0x0 REVERT JUMPDEST PUSH1 0x2 PUSH1 0x0 DUP8 PUSH20 0xFFFFFFFFFFFFFFFFFFFFFFFFFFFFFFFFFFFFFFFF AND PUSH20 0xFFFFFFFFFFFFFFFFFFFFFFFFFFFFFFFFFFFFFFFF AND DUP2 MSTORE PUSH1 0x20 ADD SWAP1 DUP2 MSTORE PUSH1 0x20 ADD PUSH1 0x0 KECCAK256 PUSH1 0x0 DUP5 DUP2 MSTORE PUSH1 0x20 ADD SWAP1 DUP2 MSTORE PUSH1 0x20 ADD PUSH1 0x0 KECCAK256 PUSH1 0x0 ADD PUSH1 0x18 SWAP1 SLOAD SWAP1 PUSH2 0x100 EXP SWAP1 DIV PUSH1 0xFF AND PUSH1 0x2 DUP2 GT ISZERO PUSH2 0x1E80 JUMPI PUSH32 0x4E487B7100000000000000000000000000000000000000000000000000000000 PUSH1 0x0 MSTORE PUSH1 0x21 PUSH1 0x4 MSTORE PUSH1 0x24 PUSH1 0x0 REVERT JUMPDEST EQ ISZERO PUSH2 0x1EA9 JUMPI DUP1 PUSH1 0x40 MLOAD PUSH1 0x20 ADD PUSH2 0x1E97 SWAP2 SWAP1 PUSH2 0x36CB JUMP JUMPDEST PUSH1 0x40 MLOAD PUSH1 0x20 DUP2 DUP4 SUB SUB DUP2 MSTORE SWAP1 PUSH1 0x40 MSTORE SWAP1 POP JUMPDEST JUMPDEST PUSH1 0x0 PUSH1 0x40 MLOAD DUP1 PUSH1 0x20 ADD PUSH1 0x40 MSTORE DUP1 PUSH1 0x0 DUP2 MSTORE POP SWAP1 POP PUSH1 0x2 DUP1 DUP2 GT ISZERO PUSH2 0x1EF7 JUMPI PUSH32 0x4E487B7100000000000000000000000000000000000000000000000000000000 PUSH1 0x0 MSTORE PUSH1 0x21 PUSH1 0x4 MSTORE PUSH1 0x24 PUSH1 0x0 REVERT JUMPDEST PUSH1 0x2 PUSH1 0x0 DUP9 PUSH20 0xFFFFFFFFFFFFFFFFFFFFFFFFFFFFFFFFFFFFFFFF AND PUSH20 0xFFFFFFFFFFFFFFFFFFFFFFFFFFFFFFFFFFFFFFFF AND DUP2 MSTORE PUSH1 0x20 ADD SWAP1 DUP2 MSTORE PUSH1 0x20 ADD PUSH1 0x0 KECCAK256 PUSH1 0x0 DUP6 DUP2 MSTORE PUSH1 0x20 ADD SWAP1 DUP2 MSTORE PUSH1 0x20 ADD PUSH1 0x0 KECCAK256 PUSH1 0x0 ADD PUSH1 0x18 SWAP1 SLOAD SWAP1 PUSH2 0x100 EXP SWAP1 DIV PUSH1 0xFF AND PUSH1 0x2 DUP2 GT ISZERO PUSH2 0x1F90 JUMPI PUSH32 0x4E487B7100000000000000000000000000000000000000000000000000000000 PUSH1 0x0 MSTORE PUSH1 0x21 PUSH1 0x4 MSTORE PUSH1 0x24 PUSH1 0x0 REVERT JUMPDEST EQ ISZERO PUSH2 0x1FD3 JUMPI PUSH1 0x40 MLOAD DUP1 PUSH1 0x40 ADD PUSH1 0x40 MSTORE DUP1 PUSH1 0x7 DUP2 MSTORE PUSH1 0x20 ADD PUSH32 0x697066733A2F2F00000000000000000000000000000000000000000000000000 DUP2 MSTORE POP SWAP1 POP PUSH2 0x20E6 JUMP JUMPDEST PUSH1 0x1 PUSH1 0x2 DUP2 GT ISZERO PUSH2 0x200D JUMPI PUSH32 0x4E487B7100000000000000000000000000000000000000000000000000000000 PUSH1 0x0 MSTORE PUSH1 0x21 PUSH1 0x4 MSTORE PUSH1 0x24 PUSH1 0x0 REVERT JUMPDEST PUSH1 0x2 PUSH1 0x0 DUP9 PUSH20 0xFFFFFFFFFFFFFFFFFFFFFFFFFFFFFFFFFFFFFFFF AND PUSH20 0xFFFFFFFFFFFFFFFFFFFFFFFFFFFFFFFFFFFFFFFF AND DUP2 MSTORE PUSH1 0x20 ADD SWAP1 DUP2 MSTORE PUSH1 0x20 ADD PUSH1 0x0 KECCAK256 PUSH1 0x0 DUP6 DUP2 MSTORE PUSH1 0x20 ADD SWAP1 DUP2 MSTORE PUSH1 0x20 ADD PUSH1 0x0 KECCAK256 PUSH1 0x0 ADD PUSH1 0x18 SWAP1 SLOAD SWAP1 PUSH2 0x100 EXP SWAP1 DIV PUSH1 0xFF AND PUSH1 0x2 DUP2 GT ISZERO PUSH2 0x20A6 JUMPI PUSH32 0x4E487B7100000000000000000000000000000000000000000000000000000000 PUSH1 0x0 MSTORE PUSH1 0x21 PUSH1 0x4 MSTORE PUSH1 0x24 PUSH1 0x0 REVERT JUMPDEST EQ ISZERO PUSH2 0x20E5 JUMPI PUSH1 0x40 MLOAD DUP1 PUSH1 0x40 ADD PUSH1 0x40 MSTORE DUP1 PUSH1 0x14 DUP2 MSTORE PUSH1 0x20 ADD PUSH32 0x68747470733A2F2F617277656176652E6E65742F000000000000000000000000 DUP2 MSTORE POP SWAP1 POP JUMPDEST JUMPDEST DUP1 PUSH1 0x2 PUSH1 0x0 DUP9 PUSH20 0xFFFFFFFFFFFFFFFFFFFFFFFFFFFFFFFFFFFFFFFF AND PUSH20 0xFFFFFFFFFFFFFFFFFFFFFFFFFFFFFFFFFFFFFFFF AND DUP2 MSTORE PUSH1 0x20 ADD SWAP1 DUP2 MSTORE PUSH1 0x20 ADD PUSH1 0x0 KECCAK256 PUSH1 0x0 DUP6 DUP2 MSTORE PUSH1 0x20 ADD SWAP1 DUP2 MSTORE PUSH1 0x20 ADD PUSH1 0x0 KECCAK256 PUSH1 0x2 ADD DUP4 PUSH1 0x40 MLOAD PUSH1 0x20 ADD PUSH2 0x214D SWAP4 SWAP3 SWAP2 SWAP1 PUSH2 0x369A JUMP JUMPDEST PUSH1 0x40 MLOAD PUSH1 0x20 DUP2 DUP4 SUB SUB DUP2 MSTORE SWAP1 PUSH1 0x40 MSTORE SWAP4 POP POP POP POP SWAP3 SWAP2 POP POP JUMP JUMPDEST PUSH1 0x0 DUP1 PUSH1 0x1 PUSH1 0x0 DUP6 PUSH20 0xFFFFFFFFFFFFFFFFFFFFFFFFFFFFFFFFFFFFFFFF AND PUSH20 0xFFFFFFFFFFFFFFFFFFFFFFFFFFFFFFFFFFFFFFFF AND DUP2 MSTORE PUSH1 0x20 ADD SWAP1 DUP2 MSTORE PUSH1 0x20 ADD PUSH1 0x0 KECCAK256 SLOAD GT PUSH2 0x21EA JUMPI PUSH1 0x40 MLOAD PUSH32 0x8C379A000000000000000000000000000000000000000000000000000000000 DUP2 MSTORE PUSH1 0x4 ADD PUSH2 0x21E1 SWAP1 PUSH2 0x3887 JUMP JUMPDEST PUSH1 0x40 MLOAD DUP1 SWAP2 SUB SWAP1 REVERT JUMPDEST PUSH1 0x0 PUSH1 0x1 SWAP1 POP JUMPDEST PUSH1 0x1 PUSH1 0x0 DUP6 PUSH20 0xFFFFFFFFFFFFFFFFFFFFFFFFFFFFFFFFFFFFFFFF AND PUSH20 0xFFFFFFFFFFFFFFFFFFFFFFFFFFFFFFFFFFFFFFFF AND DUP2 MSTORE PUSH1 0x20 ADD SWAP1 DUP2 MSTORE PUSH1 0x20 ADD PUSH1 0x0 KECCAK256 SLOAD DUP2 GT PUSH2 0x23D1 JUMPI PUSH1 0x0 PUSH1 0x4 PUSH1 0x0 DUP7 PUSH20 0xFFFFFFFFFFFFFFFFFFFFFFFFFFFFFFFFFFFFFFFF AND PUSH20 0xFFFFFFFFFFFFFFFFFFFFFFFFFFFFFFFFFFFFFFFF AND DUP2 MSTORE PUSH1 0x20 ADD SWAP1 DUP2 MSTORE PUSH1 0x20 ADD PUSH1 0x0 KECCAK256 PUSH1 0x0 DUP4 DUP2 MSTORE PUSH1 0x20 ADD SWAP1 DUP2 MSTORE PUSH1 0x20 ADD PUSH1 0x0 KECCAK256 DUP1 SLOAD DUP1 PUSH1 0x20 MUL PUSH1 0x20 ADD PUSH1 0x40 MLOAD SWAP1 DUP2 ADD PUSH1 0x40 MSTORE DUP1 SWAP3 SWAP2 SWAP1 DUP2 DUP2 MSTORE PUSH1 0x20 ADD PUSH1 0x0 SWAP1 JUMPDEST DUP3 DUP3 LT ISZERO PUSH2 0x22EF JUMPI DUP4 DUP3 SWAP1 PUSH1 0x0 MSTORE PUSH1 0x20 PUSH1 0x0 KECCAK256 SWAP1 PUSH1 0x2 MUL ADD PUSH1 0x40 MLOAD DUP1 PUSH1 0x40 ADD PUSH1 0x40 MSTORE SWAP1 DUP2 PUSH1 0x0 DUP3 ADD SLOAD DUP2 MSTORE PUSH1 0x20 ADD PUSH1 0x1 DUP3 ADD SLOAD DUP2 MSTORE POP POP DUP2 MSTORE PUSH1 0x20 ADD SWAP1 PUSH1 0x1 ADD SWAP1 PUSH2 0x22A9 JUMP JUMPDEST POP POP POP POP SWAP1 POP PUSH1 0x0 DUP1 PUSH1 0x0 SWAP1 POP JUMPDEST DUP3 MLOAD DUP2 LT ISZERO PUSH2 0x23BB JUMPI PUSH1 0x0 DUP4 DUP3 DUP2 MLOAD DUP2 LT PUSH2 0x2341 JUMPI PUSH32 0x4E487B7100000000000000000000000000000000000000000000000000000000 PUSH1 0x0 MSTORE PUSH1 0x32 PUSH1 0x4 MSTORE PUSH1 0x24 PUSH1 0x0 REVERT JUMPDEST PUSH1 0x20 MUL PUSH1 0x20 ADD ADD MLOAD SWAP1 POP DUP1 PUSH1 0x0 ADD MLOAD DUP8 LT ISZERO PUSH2 0x235D JUMPI POP PUSH2 0x23BB JUMP JUMPDEST DUP1 PUSH1 0x0 ADD MLOAD DUP8 LT ISZERO DUP1 ISZERO PUSH2 0x2383 JUMPI POP DUP1 PUSH1 0x20 ADD MLOAD DUP2 PUSH1 0x0 ADD MLOAD PUSH2 0x2380 SWAP2 SWAP1 PUSH2 0x3A8C JUMP JUMPDEST DUP8 LT JUMPDEST ISZERO PUSH2 0x2395 JUMPI DUP5 SWAP6 POP POP POP POP POP POP PUSH2 0x240D JUMP JUMPDEST DUP1 PUSH1 0x20 ADD MLOAD DUP4 PUSH2 0x23A5 SWAP2 SWAP1 PUSH2 0x3A8C JUMP JUMPDEST SWAP3 POP POP DUP1 DUP1 PUSH2 0x23B3 SWAP1 PUSH2 0x3C71 JUMP JUMPDEST SWAP2 POP POP PUSH2 0x22FD JUMP JUMPDEST POP POP POP DUP1 DUP1 PUSH2 0x23C9 SWAP1 PUSH2 0x3C71 JUMP JUMPDEST SWAP2 POP POP PUSH2 0x21F1 JUMP JUMPDEST POP PUSH1 0x40 MLOAD PUSH32 0x8C379A000000000000000000000000000000000000000000000000000000000 DUP2 MSTORE PUSH1 0x4 ADD PUSH2 0x2404 SWAP1 PUSH2 0x3807 JUMP JUMPDEST PUSH1 0x40 MLOAD DUP1 SWAP2 SUB SWAP1 REVERT JUMPDEST SWAP3 SWAP2 POP POP JUMP JUMPDEST PUSH1 0x0 DUP3 PUSH2 0x2420 DUP6 DUP5 PUSH2 0x2787 JUMP JUMPDEST EQ SWAP1 POP SWAP4 SWAP3 POP POP POP JUMP JUMPDEST PUSH1 0x0 PUSH1 0x4 PUSH1 0x0 DUP6 PUSH20 0xFFFFFFFFFFFFFFFFFFFFFFFFFFFFFFFFFFFFFFFF AND PUSH20 0xFFFFFFFFFFFFFFFFFFFFFFFFFFFFFFFFFFFFFFFF AND DUP2 MSTORE PUSH1 0x20 ADD SWAP1 DUP2 MSTORE PUSH1 0x20 ADD PUSH1 0x0 KECCAK256 PUSH1 0x0 DUP5 DUP2 MSTORE PUSH1 0x20 ADD SWAP1 DUP2 MSTORE PUSH1 0x20 ADD PUSH1 0x0 KECCAK256 SWAP1 POP PUSH1 0x0 DUP2 DUP1 SLOAD SWAP1 POP EQ ISZERO PUSH2 0x24E6 JUMPI DUP1 PUSH1 0x40 MLOAD DUP1 PUSH1 0x40 ADD PUSH1 0x40 MSTORE DUP1 DUP5 DUP2 MSTORE PUSH1 0x20 ADD PUSH1 0x1 DUP2 MSTORE POP SWAP1 DUP1 PUSH1 0x1 DUP2 SLOAD ADD DUP1 DUP3 SSTORE DUP1 SWAP2 POP POP PUSH1 0x1 SWAP1 SUB SWAP1 PUSH1 0x0 MSTORE PUSH1 0x20 PUSH1 0x0 KECCAK256 SWAP1 PUSH1 0x2 MUL ADD PUSH1 0x0 SWAP1 SWAP2 SWAP1 SWAP2 SWAP1 SWAP2 POP PUSH1 0x0 DUP3 ADD MLOAD DUP2 PUSH1 0x0 ADD SSTORE PUSH1 0x20 DUP3 ADD MLOAD DUP2 PUSH1 0x1 ADD SSTORE POP POP PUSH2 0x25D4 JUMP JUMPDEST PUSH1 0x0 DUP2 PUSH1 0x1 DUP4 DUP1 SLOAD SWAP1 POP PUSH2 0x24FA SWAP2 SWAP1 PUSH2 0x3B13 JUMP JUMPDEST DUP2 SLOAD DUP2 LT PUSH2 0x2531 JUMPI PUSH32 0x4E487B7100000000000000000000000000000000000000000000000000000000 PUSH1 0x0 MSTORE PUSH1 0x32 PUSH1 0x4 MSTORE PUSH1 0x24 PUSH1 0x0 REVERT JUMPDEST SWAP1 PUSH1 0x0 MSTORE PUSH1 0x20 PUSH1 0x0 KECCAK256 SWAP1 PUSH1 0x2 MUL ADD SWAP1 POP DUP3 DUP2 PUSH1 0x1 ADD SLOAD DUP3 PUSH1 0x0 ADD SLOAD PUSH2 0x2556 SWAP2 SWAP1 PUSH2 0x3A8C JUMP JUMPDEST EQ ISZERO PUSH2 0x257B JUMPI DUP1 PUSH1 0x1 ADD PUSH1 0x0 DUP2 SLOAD DUP1 SWAP3 SWAP2 SWAP1 PUSH2 0x2571 SWAP1 PUSH2 0x3C71 JUMP JUMPDEST SWAP2 SWAP1 POP SSTORE POP PUSH2 0x25D2 JUMP JUMPDEST DUP2 PUSH1 0x40 MLOAD DUP1 PUSH1 0x40 ADD PUSH1 0x40 MSTORE DUP1 DUP6 DUP2 MSTORE PUSH1 0x20 ADD PUSH1 0x1 DUP2 MSTORE POP SWAP1 DUP1 PUSH1 0x1 DUP2 SLOAD ADD DUP1 DUP3 SSTORE DUP1 SWAP2 POP POP PUSH1 0x1 SWAP1 SUB SWAP1 PUSH1 0x0 MSTORE PUSH1 0x20 PUSH1 0x0 KECCAK256 SWAP1 PUSH1 0x2 MUL ADD PUSH1 0x0 SWAP1 SWAP2 SWAP1 SWAP2 SWAP1 SWAP2 POP PUSH1 0x0 DUP3 ADD MLOAD DUP2 PUSH1 0x0 ADD SSTORE PUSH1 0x20 DUP3 ADD MLOAD DUP2 PUSH1 0x1 ADD SSTORE POP POP JUMPDEST POP JUMPDEST POP POP POP POP JUMP JUMPDEST PUSH1 0x60 PUSH1 0x0 DUP3 EQ ISZERO PUSH2 0x2622 JUMPI PUSH1 0x40 MLOAD DUP1 PUSH1 0x40 ADD PUSH1 0x40 MSTORE DUP1 PUSH1 0x1 DUP2 MSTORE PUSH1 0x20 ADD PUSH32 0x3000000000000000000000000000000000000000000000000000000000000000 DUP2 MSTORE POP SWAP1 POP PUSH2 0x2782 JUMP JUMPDEST PUSH1 0x0 DUP3 SWAP1 POP PUSH1 0x0 JUMPDEST PUSH1 0x0 DUP3 EQ PUSH2 0x2654 JUMPI DUP1 DUP1 PUSH2 0x263D SWAP1 PUSH2 0x3C71 JUMP JUMPDEST SWAP2 POP POP PUSH1 0xA DUP3 PUSH2 0x264D SWAP2 SWAP1 PUSH2 0x3AE2 JUMP JUMPDEST SWAP2 POP PUSH2 0x262A JUMP JUMPDEST PUSH1 0x0 DUP2 PUSH8 0xFFFFFFFFFFFFFFFF DUP2 GT ISZERO PUSH2 0x2696 JUMPI PUSH32 0x4E487B7100000000000000000000000000000000000000000000000000000000 PUSH1 0x0 MSTORE PUSH1 0x41 PUSH1 0x4 MSTORE PUSH1 0x24 PUSH1 0x0 REVERT JUMPDEST PUSH1 0x40 MLOAD SWAP1 DUP1 DUP3 MSTORE DUP1 PUSH1 0x1F ADD PUSH1 0x1F NOT AND PUSH1 0x20 ADD DUP3 ADD PUSH1 0x40 MSTORE DUP1 ISZERO PUSH2 0x26C8 JUMPI DUP2 PUSH1 0x20 ADD PUSH1 0x1 DUP3 MUL DUP1 CALLDATASIZE DUP4 CALLDATACOPY DUP1 DUP3 ADD SWAP2 POP POP SWAP1 POP JUMPDEST POP SWAP1 POP JUMPDEST PUSH1 0x0 DUP6 EQ PUSH2 0x277B JUMPI PUSH1 0x1 DUP3 PUSH2 0x26E1 SWAP2 SWAP1 PUSH2 0x3B13 JUMP JUMPDEST SWAP2 POP PUSH1 0xA DUP6 PUSH2 0x26F0 SWAP2 SWAP1 PUSH2 0x3CFA JUMP JUMPDEST PUSH1 0x30 PUSH2 0x26FC SWAP2 SWAP1 PUSH2 0x3A8C JUMP JUMPDEST PUSH1 0xF8 SHL DUP2 DUP4 DUP2 MLOAD DUP2 LT PUSH2 0x2738 JUMPI PUSH32 0x4E487B7100000000000000000000000000000000000000000000000000000000 PUSH1 0x0 MSTORE PUSH1 0x32 PUSH1 0x4 MSTORE PUSH1 0x24 PUSH1 0x0 REVERT JUMPDEST PUSH1 0x20 ADD ADD SWAP1 PUSH31 0xFFFFFFFFFFFFFFFFFFFFFFFFFFFFFFFFFFFFFFFFFFFFFFFFFFFFFFFFFFFFFF NOT AND SWAP1 DUP2 PUSH1 0x0 BYTE SWAP1 MSTORE8 POP PUSH1 0xA DUP6 PUSH2 0x2774 SWAP2 SWAP1 PUSH2 0x3AE2 JUMP JUMPDEST SWAP5 POP PUSH2 0x26CC JUMP JUMPDEST DUP1 SWAP4 POP POP POP POP JUMPDEST SWAP2 SWAP1 POP JUMP JUMPDEST PUSH1 0x0 DUP1 DUP3 SWAP1 POP PUSH1 0x0 JUMPDEST DUP5 MLOAD DUP2 LT ISZERO PUSH2 0x2855 JUMPI PUSH1 0x0 DUP6 DUP3 DUP2 MLOAD DUP2 LT PUSH2 0x27D4 JUMPI PUSH32 0x4E487B7100000000000000000000000000000000000000000000000000000000 PUSH1 0x0 MSTORE PUSH1 0x32 PUSH1 0x4 MSTORE PUSH1 0x24 PUSH1 0x0 REVERT JUMPDEST PUSH1 0x20 MUL PUSH1 0x20 ADD ADD MLOAD SWAP1 POP DUP1 DUP4 GT PUSH2 0x2815 JUMPI DUP3 DUP2 PUSH1 0x40 MLOAD PUSH1 0x20 ADD PUSH2 0x27F8 SWAP3 SWAP2 SWAP1 PUSH2 0x366E JUMP JUMPDEST PUSH1 0x40 MLOAD PUSH1 0x20 DUP2 DUP4 SUB SUB DUP2 MSTORE SWAP1 PUSH1 0x40 MSTORE DUP1 MLOAD SWAP1 PUSH1 0x20 ADD KECCAK256 SWAP3 POP PUSH2 0x2841 JUMP JUMPDEST DUP1 DUP4 PUSH1 0x40 MLOAD PUSH1 0x20 ADD PUSH2 0x2828 SWAP3 SWAP2 SWAP1 PUSH2 0x366E JUMP JUMPDEST PUSH1 0x40 MLOAD PUSH1 0x20 DUP2 DUP4 SUB SUB DUP2 MSTORE SWAP1 PUSH1 0x40 MSTORE DUP1 MLOAD SWAP1 PUSH1 0x20 ADD KECCAK256 SWAP3 POP JUMPDEST POP DUP1 DUP1 PUSH2 0x284D SWAP1 PUSH2 0x3C71 JUMP JUMPDEST SWAP2 POP POP PUSH2 0x2790 JUMP JUMPDEST POP DUP1 SWAP2 POP POP SWAP3 SWAP2 POP POP JUMP JUMPDEST DUP3 DUP1 SLOAD PUSH2 0x286C SWAP1 PUSH2 0x3C3F JUMP JUMPDEST SWAP1 PUSH1 0x0 MSTORE PUSH1 0x20 PUSH1 0x0 KECCAK256 SWAP1 PUSH1 0x1F ADD PUSH1 0x20 SWAP1 DIV DUP2 ADD SWAP3 DUP3 PUSH2 0x288E JUMPI PUSH1 0x0 DUP6 SSTORE PUSH2 0x28D5 JUMP JUMPDEST DUP3 PUSH1 0x1F LT PUSH2 0x28A7 JUMPI DUP1 MLOAD PUSH1 0xFF NOT AND DUP4 DUP1 ADD OR DUP6 SSTORE PUSH2 0x28D5 JUMP JUMPDEST DUP3 DUP1 ADD PUSH1 0x1 ADD DUP6 SSTORE DUP3 ISZERO PUSH2 0x28D5 JUMPI SWAP2 DUP3 ADD JUMPDEST DUP3 DUP2 GT ISZERO PUSH2 0x28D4 JUMPI DUP3 MLOAD DUP3 SSTORE SWAP2 PUSH1 0x20 ADD SWAP2 SWAP1 PUSH1 0x1 ADD SWAP1 PUSH2 0x28B9 JUMP JUMPDEST JUMPDEST POP SWAP1 POP PUSH2 0x28E2 SWAP2 SWAP1 PUSH2 0x2991 JUMP JUMPDEST POP SWAP1 JUMP JUMPDEST PUSH1 0x40 MLOAD DUP1 PUSH2 0x120 ADD PUSH1 0x40 MSTORE DUP1 PUSH1 0x0 PUSH4 0xFFFFFFFF AND DUP2 MSTORE PUSH1 0x20 ADD PUSH1 0x0 PUSH4 0xFFFFFFFF AND DUP2 MSTORE PUSH1 0x20 ADD PUSH1 0x0 PUSH4 0xFFFFFFFF AND DUP2 MSTORE PUSH1 0x20 ADD PUSH1 0x0 PUSH6 0xFFFFFFFFFFFF AND DUP2 MSTORE PUSH1 0x20 ADD PUSH1 0x0 PUSH6 0xFFFFFFFFFFFF AND DUP2 MSTORE PUSH1 0x20 ADD PUSH1 0x0 PUSH1 0x2 DUP2 GT ISZERO PUSH2 0x2971 JUMPI PUSH32 0x4E487B7100000000000000000000000000000000000000000000000000000000 PUSH1 0x0 MSTORE PUSH1 0x21 PUSH1 0x4 MSTORE PUSH1 0x24 PUSH1 0x0 REVERT JUMPDEST DUP2 MSTORE PUSH1 0x20 ADD PUSH1 0x0 ISZERO ISZERO DUP2 MSTORE PUSH1 0x20 ADD PUSH1 0x0 DUP1 NOT AND DUP2 MSTORE PUSH1 0x20 ADD PUSH1 0x60 DUP2 MSTORE POP SWAP1 JUMP JUMPDEST JUMPDEST DUP1 DUP3 GT ISZERO PUSH2 0x29AA JUMPI PUSH1 0x0 DUP2 PUSH1 0x0 SWAP1 SSTORE POP PUSH1 0x1 ADD PUSH2 0x2992 JUMP JUMPDEST POP SWAP1 JUMP JUMPDEST PUSH1 0x0 DUP2 CALLDATALOAD SWAP1 POP PUSH2 0x29BD DUP2 PUSH2 0x3E26 JUMP JUMPDEST SWAP3 SWAP2 POP POP JUMP JUMPDEST PUSH1 0x0 DUP1 DUP4 PUSH1 0x1F DUP5 ADD SLT PUSH2 0x29D5 JUMPI PUSH1 0x0 DUP1 REVERT JUMPDEST DUP3 CALLDATALOAD SWAP1 POP PUSH8 0xFFFFFFFFFFFFFFFF DUP2 GT ISZERO PUSH2 0x29EE JUMPI PUSH1 0x0 DUP1 REVERT JUMPDEST PUSH1 0x20 DUP4 ADD SWAP2 POP DUP4 PUSH1 0x20 DUP3 MUL DUP4 ADD GT ISZERO PUSH2 0x2A06 JUMPI PUSH1 0x0 DUP1 REVERT JUMPDEST SWAP3 POP SWAP3 SWAP1 POP JUMP JUMPDEST PUSH1 0x0 DUP2 CALLDATALOAD SWAP1 POP PUSH2 0x2A1C DUP2 PUSH2 0x3E3D JUMP JUMPDEST SWAP3 SWAP2 POP POP JUMP JUMPDEST PUSH1 0x0 DUP2 MLOAD SWAP1 POP PUSH2 0x2A31 DUP2 PUSH2 0x3E3D JUMP JUMPDEST SWAP3 SWAP2 POP POP JUMP JUMPDEST PUSH1 0x0 DUP2 CALLDATALOAD SWAP1 POP PUSH2 0x2A46 DUP2 PUSH2 0x3E54 JUMP JUMPDEST SWAP3 SWAP2 POP POP JUMP JUMPDEST PUSH1 0x0 DUP2 CALLDATALOAD SWAP1 POP PUSH2 0x2A5B DUP2 PUSH2 0x3E6B JUMP JUMPDEST SWAP3 SWAP2 POP POP JUMP JUMPDEST PUSH1 0x0 PUSH2 0x100 DUP3 DUP5 SUB SLT ISZERO PUSH2 0x2A74 JUMPI PUSH1 0x0 DUP1 REVERT JUMPDEST DUP2 SWAP1 POP SWAP3 SWAP2 POP POP JUMP JUMPDEST PUSH1 0x0 DUP2 CALLDATALOAD SWAP1 POP PUSH2 0x2A8C DUP2 PUSH2 0x3E7B JUMP JUMPDEST SWAP3 SWAP2 POP POP JUMP JUMPDEST PUSH1 0x0 DUP2 MLOAD SWAP1 POP PUSH2 0x2AA1 DUP2 PUSH2 0x3E7B JUMP JUMPDEST SWAP3 SWAP2 POP POP JUMP JUMPDEST PUSH1 0x0 DUP2 CALLDATALOAD SWAP1 POP PUSH2 0x2AB6 DUP2 PUSH2 0x3E92 JUMP JUMPDEST SWAP3 SWAP2 POP POP JUMP JUMPDEST PUSH1 0x0 DUP2 CALLDATALOAD SWAP1 POP PUSH2 0x2ACB DUP2 PUSH2 0x3EA9 JUMP JUMPDEST SWAP3 SWAP2 POP POP JUMP JUMPDEST PUSH1 0x0 PUSH1 0x20 DUP3 DUP5 SUB SLT ISZERO PUSH2 0x2AE3 JUMPI PUSH1 0x0 DUP1 REVERT JUMPDEST PUSH1 0x0 PUSH2 0x2AF1 DUP5 DUP3 DUP6 ADD PUSH2 0x29AE JUMP JUMPDEST SWAP2 POP POP SWAP3 SWAP2 POP POP JUMP JUMPDEST PUSH1 0x0 DUP1 PUSH1 0x40 DUP4 DUP6 SUB SLT ISZERO PUSH2 0x2B0D JUMPI PUSH1 0x0 DUP1 REVERT JUMPDEST PUSH1 0x0 PUSH2 0x2B1B DUP6 DUP3 DUP7 ADD PUSH2 0x29AE JUMP JUMPDEST SWAP3 POP POP PUSH1 0x20 DUP4 ADD CALLDATALOAD PUSH8 0xFFFFFFFFFFFFFFFF DUP2 GT ISZERO PUSH2 0x2B38 JUMPI PUSH1 0x0 DUP1 REVERT JUMPDEST PUSH2 0x2B44 DUP6 DUP3 DUP7 ADD PUSH2 0x2A61 JUMP JUMPDEST SWAP2 POP POP SWAP3 POP SWAP3 SWAP1 POP JUMP JUMPDEST PUSH1 0x0 DUP1 PUSH1 0x40 DUP4 DUP6 SUB SLT ISZERO PUSH2 0x2B61 JUMPI PUSH1 0x0 DUP1 REVERT JUMPDEST PUSH1 0x0 PUSH2 0x2B6F DUP6 DUP3 DUP7 ADD PUSH2 0x29AE JUMP JUMPDEST SWAP3 POP POP PUSH1 0x20 PUSH2 0x2B80 DUP6 DUP3 DUP7 ADD PUSH2 0x2A7D JUMP JUMPDEST SWAP2 POP POP SWAP3 POP SWAP3 SWAP1 POP JUMP JUMPDEST PUSH1 0x0 DUP1 PUSH1 0x0 PUSH1 0x60 DUP5 DUP7 SUB SLT ISZERO PUSH2 0x2B9F JUMPI PUSH1 0x0 DUP1 REVERT JUMPDEST PUSH1 0x0 PUSH2 0x2BAD DUP7 DUP3 DUP8 ADD PUSH2 0x29AE JUMP JUMPDEST SWAP4 POP POP PUSH1 0x20 PUSH2 0x2BBE DUP7 DUP3 DUP8 ADD PUSH2 0x2A7D JUMP JUMPDEST SWAP3 POP POP PUSH1 0x40 PUSH2 0x2BCF DUP7 DUP3 DUP8 ADD PUSH2 0x29AE JUMP JUMPDEST SWAP2 POP POP SWAP3 POP SWAP3 POP SWAP3 JUMP JUMPDEST PUSH1 0x0 DUP1 PUSH1 0x0 DUP1 PUSH1 0x0 PUSH1 0x80 DUP7 DUP9 SUB SLT ISZERO PUSH2 0x2BF1 JUMPI PUSH1 0x0 DUP1 REVERT JUMPDEST PUSH1 0x0 PUSH2 0x2BFF DUP9 DUP3 DUP10 ADD PUSH2 0x29AE JUMP JUMPDEST SWAP6 POP POP PUSH1 0x20 PUSH2 0x2C10 DUP9 DUP3 DUP10 ADD PUSH2 0x2A7D JUMP JUMPDEST SWAP5 POP POP PUSH1 0x40 DUP7 ADD CALLDATALOAD PUSH8 0xFFFFFFFFFFFFFFFF DUP2 GT ISZERO PUSH2 0x2C2D JUMPI PUSH1 0x0 DUP1 REVERT JUMPDEST PUSH2 0x2C39 DUP9 DUP3 DUP10 ADD PUSH2 0x29C3 JUMP JUMPDEST SWAP4 POP SWAP4 POP POP PUSH1 0x60 PUSH2 0x2C4C DUP9 DUP3 DUP10 ADD PUSH2 0x2AA7 JUMP JUMPDEST SWAP2 POP POP SWAP3 SWAP6 POP SWAP3 SWAP6 SWAP1 SWAP4 POP JUMP JUMPDEST PUSH1 0x0 DUP1 PUSH1 0x0 PUSH1 0x60 DUP5 DUP7 SUB SLT ISZERO PUSH2 0x2C6E JUMPI PUSH1 0x0 DUP1 REVERT JUMPDEST PUSH1 0x0 PUSH2 0x2C7C DUP7 DUP3 DUP8 ADD PUSH2 0x29AE JUMP JUMPDEST SWAP4 POP POP PUSH1 0x20 PUSH2 0x2C8D DUP7 DUP3 DUP8 ADD PUSH2 0x2A7D JUMP JUMPDEST SWAP3 POP POP PUSH1 0x40 DUP5 ADD CALLDATALOAD PUSH8 0xFFFFFFFFFFFFFFFF DUP2 GT ISZERO PUSH2 0x2CAA JUMPI PUSH1 0x0 DUP1 REVERT JUMPDEST PUSH2 0x2CB6 DUP7 DUP3 DUP8 ADD PUSH2 0x2A61 JUMP JUMPDEST SWAP2 POP POP SWAP3 POP SWAP3 POP SWAP3 JUMP JUMPDEST PUSH1 0x0 PUSH1 0x20 DUP3 DUP5 SUB SLT ISZERO PUSH2 0x2CD2 JUMPI PUSH1 0x0 DUP1 REVERT JUMPDEST PUSH1 0x0 PUSH2 0x2CE0 DUP5 DUP3 DUP6 ADD PUSH2 0x2A0D JUMP JUMPDEST SWAP2 POP POP SWAP3 SWAP2 POP POP JUMP JUMPDEST PUSH1 0x0 PUSH1 0x20 DUP3 DUP5 SUB SLT ISZERO PUSH2 0x2CFB JUMPI PUSH1 0x0 DUP1 REVERT JUMPDEST PUSH1 0x0 PUSH2 0x2D09 DUP5 DUP3 DUP6 ADD PUSH2 0x2A22 JUMP JUMPDEST SWAP2 POP POP SWAP3 SWAP2 POP POP JUMP JUMPDEST PUSH1 0x0 PUSH1 0x20 DUP3 DUP5 SUB SLT ISZERO PUSH2 0x2D24 JUMPI PUSH1 0x0 DUP1 REVERT JUMPDEST PUSH1 0x0 PUSH2 0x2D32 DUP5 DUP3 DUP6 ADD PUSH2 0x2A37 JUMP JUMPDEST SWAP2 POP POP SWAP3 SWAP2 POP POP JUMP JUMPDEST PUSH1 0x0 PUSH1 0x20 DUP3 DUP5 SUB SLT ISZERO PUSH2 0x2D4D JUMPI PUSH1 0x0 DUP1 REVERT JUMPDEST PUSH1 0x0 PUSH2 0x2D5B DUP5 DUP3 DUP6 ADD PUSH2 0x2A4C JUMP JUMPDEST SWAP2 POP POP SWAP3 SWAP2 POP POP JUMP JUMPDEST PUSH1 0x0 PUSH1 0x20 DUP3 DUP5 SUB SLT ISZERO PUSH2 0x2D76 JUMPI PUSH1 0x0 DUP1 REVERT JUMPDEST PUSH1 0x0 PUSH2 0x2D84 DUP5 DUP3 DUP6 ADD PUSH2 0x2A92 JUMP JUMPDEST SWAP2 POP POP SWAP3 SWAP2 POP POP JUMP JUMPDEST PUSH1 0x0 PUSH1 0x20 DUP3 DUP5 SUB SLT ISZERO PUSH2 0x2D9F JUMPI PUSH1 0x0 DUP1 REVERT JUMPDEST PUSH1 0x0 PUSH2 0x2DAD DUP5 DUP3 DUP6 ADD PUSH2 0x2AA7 JUMP JUMPDEST SWAP2 POP POP SWAP3 SWAP2 POP POP JUMP JUMPDEST PUSH1 0x0 PUSH1 0x20 DUP3 DUP5 SUB SLT ISZERO PUSH2 0x2DC8 JUMPI PUSH1 0x0 DUP1 REVERT JUMPDEST PUSH1 0x0 PUSH2 0x2DD6 DUP5 DUP3 DUP6 ADD PUSH2 0x2ABC JUMP JUMPDEST SWAP2 POP POP SWAP3 SWAP2 POP POP JUMP JUMPDEST PUSH2 0x2DE8 DUP2 PUSH2 0x3B47 JUMP JUMPDEST DUP3 MSTORE POP POP JUMP JUMPDEST PUSH2 0x2DFF PUSH2 0x2DFA DUP3 PUSH2 0x3B47 JUMP JUMPDEST PUSH2 0x3CBA JUMP JUMPDEST DUP3 MSTORE POP POP JUMP JUMPDEST PUSH2 0x2E0E DUP2 PUSH2 0x3B59 JUMP JUMPDEST DUP3 MSTORE POP POP JUMP JUMPDEST PUSH2 0x2E1D DUP2 PUSH2 0x3B59 JUMP JUMPDEST DUP3 MSTORE POP POP JUMP JUMPDEST PUSH2 0x2E2C DUP2 PUSH2 0x3B65 JUMP JUMPDEST DUP3 MSTORE POP POP JUMP JUMPDEST PUSH2 0x2E43 PUSH2 0x2E3E DUP3 PUSH2 0x3B65 JUMP JUMPDEST PUSH2 0x3CCC JUMP JUMPDEST DUP3 MSTORE POP POP JUMP JUMPDEST PUSH2 0x2E52 DUP2 PUSH2 0x3BFA JUMP JUMPDEST DUP3 MSTORE POP POP JUMP JUMPDEST PUSH1 0x0 PUSH2 0x2E63 DUP3 PUSH2 0x3A54 JUMP JUMPDEST PUSH2 0x2E6D DUP2 DUP6 PUSH2 0x3A5F JUMP JUMPDEST SWAP4 POP PUSH2 0x2E7D DUP2 DUP6 PUSH1 0x20 DUP7 ADD PUSH2 0x3C0C JUMP JUMPDEST PUSH2 0x2E86 DUP2 PUSH2 0x3DE7 JUMP JUMPDEST DUP5 ADD SWAP2 POP POP SWAP3 SWAP2 POP POP JUMP JUMPDEST PUSH1 0x0 PUSH2 0x2E9C DUP3 PUSH2 0x3A54 JUMP JUMPDEST PUSH2 0x2EA6 DUP2 DUP6 PUSH2 0x3A70 JUMP JUMPDEST SWAP4 POP PUSH2 0x2EB6 DUP2 DUP6 PUSH1 0x20 DUP7 ADD PUSH2 0x3C0C JUMP JUMPDEST PUSH2 0x2EBF DUP2 PUSH2 0x3DE7 JUMP JUMPDEST DUP5 ADD SWAP2 POP POP SWAP3 SWAP2 POP POP JUMP JUMPDEST PUSH1 0x0 PUSH2 0x2ED5 DUP3 PUSH2 0x3A54 JUMP JUMPDEST PUSH2 0x2EDF DUP2 DUP6 PUSH2 0x3A81 JUMP JUMPDEST SWAP4 POP PUSH2 0x2EEF DUP2 DUP6 PUSH1 0x20 DUP7 ADD PUSH2 0x3C0C JUMP JUMPDEST DUP1 DUP5 ADD SWAP2 POP POP SWAP3 SWAP2 POP POP JUMP JUMPDEST PUSH1 0x0 DUP2 SLOAD PUSH2 0x2F08 DUP2 PUSH2 0x3C3F JUMP JUMPDEST PUSH2 0x2F12 DUP2 DUP7 PUSH2 0x3A81 JUMP JUMPDEST SWAP5 POP PUSH1 0x1 DUP3 AND PUSH1 0x0 DUP2 EQ PUSH2 0x2F2D JUMPI PUSH1 0x1 DUP2 EQ PUSH2 0x2F3E JUMPI PUSH2 0x2F71 JUMP JUMPDEST PUSH1 0xFF NOT DUP4 AND DUP7 MSTORE DUP2 DUP7 ADD SWAP4 POP PUSH2 0x2F71 JUMP JUMPDEST PUSH2 0x2F47 DUP6 PUSH2 0x3A3F JUMP JUMPDEST PUSH1 0x0 JUMPDEST DUP4 DUP2 LT ISZERO PUSH2 0x2F69 JUMPI DUP2 SLOAD DUP2 DUP10 ADD MSTORE PUSH1 0x1 DUP3 ADD SWAP2 POP PUSH1 0x20 DUP2 ADD SWAP1 POP PUSH2 0x2F4A JUMP JUMPDEST DUP4 DUP9 ADD SWAP6 POP POP POP JUMPDEST POP POP POP SWAP3 SWAP2 POP POP JUMP JUMPDEST PUSH1 0x0 PUSH2 0x2F87 PUSH1 0x36 DUP4 PUSH2 0x3A70 JUMP JUMPDEST SWAP2 POP PUSH32 0x43616E6E6F742068617665207374617274446174652067726561746572207468 PUSH1 0x0 DUP4 ADD MSTORE PUSH32 0x616E206F7220657175616C20746F20656E644461746500000000000000000000 PUSH1 0x20 DUP4 ADD MSTORE PUSH1 0x40 DUP3 ADD SWAP1 POP SWAP2 SWAP1 POP JUMP JUMPDEST PUSH1 0x0 PUSH2 0x2FED PUSH1 0x24 DUP4 PUSH2 0x3A70 JUMP JUMPDEST SWAP2 POP PUSH32 0x43616E6E6F74206F766572777269746520756E696E697469616C697A65642063 PUSH1 0x0 DUP4 ADD MSTORE PUSH32 0x6C61696D00000000000000000000000000000000000000000000000000000000 PUSH1 0x20 DUP4 ADD MSTORE PUSH1 0x40 DUP3 ADD SWAP1 POP SWAP2 SWAP1 POP JUMP JUMPDEST PUSH1 0x0 PUSH2 0x3053 PUSH1 0x16 DUP4 PUSH2 0x3A70 JUMP JUMPDEST SWAP2 POP PUSH32 0x43616E6E6F74206D6F6469667920746F74616C4D617800000000000000000000 PUSH1 0x0 DUP4 ADD MSTORE PUSH1 0x20 DUP3 ADD SWAP1 POP SWAP2 SWAP1 POP JUMP JUMPDEST PUSH1 0x0 PUSH2 0x3093 PUSH1 0x27 DUP4 PUSH2 0x3A70 JUMP JUMPDEST SWAP2 POP PUSH32 0x43616E6E6F74206861766520746F74616C4D6178206772656174657220746861 PUSH1 0x0 DUP4 ADD MSTORE PUSH32 0x6E20313030303000000000000000000000000000000000000000000000000000 PUSH1 0x20 DUP4 ADD MSTORE PUSH1 0x40 DUP3 ADD SWAP1 POP SWAP2 SWAP1 POP JUMP JUMPDEST PUSH1 0x0 PUSH2 0x30F9 PUSH1 0x2B DUP4 PUSH2 0x3A70 JUMP JUMPDEST SWAP2 POP PUSH32 0x57616C6C6574206973206E6F7420616E2061646D696E6973747261746F722066 PUSH1 0x0 DUP4 ADD MSTORE PUSH32 0x6F7220636F6E7472616374000000000000000000000000000000000000000000 PUSH1 0x20 DUP4 ADD MSTORE PUSH1 0x40 DUP3 ADD SWAP1 POP SWAP2 SWAP1 POP JUMP JUMPDEST PUSH1 0x0 PUSH2 0x315F PUSH1 0xD DUP4 PUSH2 0x3A70 JUMP JUMPDEST SWAP2 POP PUSH32 0x496E76616C696420746F6B656E00000000000000000000000000000000000000 PUSH1 0x0 DUP4 ADD MSTORE PUSH1 0x20 DUP3 ADD SWAP1 POP SWAP2 SWAP1 POP JUMP JUMPDEST PUSH1 0x0 PUSH2 0x319F PUSH1 0x25 DUP4 PUSH2 0x3A70 JUMP JUMPDEST SWAP2 POP PUSH32 0x43616E6E6F7420696E697469616C697A65207769746820656D707479206C6F63 PUSH1 0x0 DUP4 ADD MSTORE PUSH32 0x6174696F6E000000000000000000000000000000000000000000000000000000 PUSH1 0x20 DUP4 ADD MSTORE PUSH1 0x40 DUP3 ADD SWAP1 POP SWAP2 SWAP1 POP JUMP JUMPDEST PUSH1 0x0 PUSH2 0x3205 PUSH1 0x1D DUP4 PUSH2 0x3A70 JUMP JUMPDEST SWAP2 POP PUSH32 0x5472616E73616374696F6E206265666F72652073746172742064617465000000 PUSH1 0x0 DUP4 ADD MSTORE PUSH1 0x20 DUP3 ADD SWAP1 POP SWAP2 SWAP1 POP JUMP JUMPDEST PUSH1 0x0 PUSH2 0x3245 PUSH1 0x15 DUP4 PUSH2 0x3A70 JUMP JUMPDEST SWAP2 POP PUSH32 0x436C61696D206E6F7420696E697469616C697A65640000000000000000000000 PUSH1 0x0 DUP4 ADD MSTORE PUSH1 0x20 DUP3 ADD SWAP1 POP SWAP2 SWAP1 POP JUMP JUMPDEST PUSH1 0x0 PUSH2 0x3285 PUSH1 0x1E DUP4 PUSH2 0x3A70 JUMP JUMPDEST SWAP2 POP PUSH32 0x4E6F20636C61696D7320666F722063726561746F7220636F6E74726163740000 PUSH1 0x0 DUP4 ADD MSTORE PUSH1 0x20 DUP3 ADD SWAP1 POP SWAP2 SWAP1 POP JUMP JUMPDEST PUSH1 0x0 PUSH2 0x32C5 PUSH1 0x5 DUP4 PUSH2 0x3A81 JUMP JUMPDEST SWAP2 POP PUSH32 0x2E6A736F6E000000000000000000000000000000000000000000000000000000 PUSH1 0x0 DUP4 ADD MSTORE PUSH1 0x5 DUP3 ADD SWAP1 POP SWAP2 SWAP1 POP JUMP JUMPDEST PUSH1 0x0 PUSH2 0x3305 PUSH1 0x19 DUP4 PUSH2 0x3A70 JUMP JUMPDEST SWAP2 POP PUSH32 0x43616E6E6F742064656372656173652077616C6C65744D617800000000000000 PUSH1 0x0 DUP4 ADD MSTORE PUSH1 0x20 DUP3 ADD SWAP1 POP SWAP2 SWAP1 POP JUMP JUMPDEST PUSH1 0x0 PUSH2 0x3345 PUSH1 0x2C DUP4 PUSH2 0x3A70 JUMP JUMPDEST SWAP2 POP PUSH32 0x4D6178696D756D20746F6B656E7320616C7265616479206D696E74656420666F PUSH1 0x0 DUP4 ADD MSTORE PUSH32 0x72207468697320636C61696D0000000000000000000000000000000000000000 PUSH1 0x20 DUP4 ADD MSTORE PUSH1 0x40 DUP3 ADD SWAP1 POP SWAP2 SWAP1 POP JUMP JUMPDEST PUSH1 0x0 PUSH2 0x33AB PUSH1 0x1D DUP4 PUSH2 0x3A70 JUMP JUMPDEST SWAP2 POP PUSH32 0x436F756C64206E6F7420766572696679206D65726B6C652070726F6F66000000 PUSH1 0x0 DUP4 ADD MSTORE PUSH1 0x20 DUP3 ADD SWAP1 POP SWAP2 SWAP1 POP JUMP JUMPDEST PUSH1 0x0 PUSH2 0x33EB PUSH1 0x2D DUP4 PUSH2 0x3A70 JUMP JUMPDEST SWAP2 POP PUSH32 0x4D6178696D756D20746F6B656E7320616C7265616479206D696E74656420666F PUSH1 0x0 DUP4 ADD MSTORE PUSH32 0x7220746869732077616C6C657400000000000000000000000000000000000000 PUSH1 0x20 DUP4 ADD MSTORE PUSH1 0x40 DUP3 ADD SWAP1 POP SWAP2 SWAP1 POP JUMP JUMPDEST PUSH1 0x0 PUSH2 0x3451 PUSH1 0x1A DUP4 PUSH2 0x3A70 JUMP JUMPDEST SWAP2 POP PUSH32 0x5472616E73616374696F6E20616674657220656E642064617465000000000000 PUSH1 0x0 DUP4 ADD MSTORE PUSH1 0x20 DUP3 ADD SWAP1 POP SWAP2 SWAP1 POP JUMP JUMPDEST PUSH1 0x0 PUSH2 0x3491 PUSH1 0x3C DUP4 PUSH2 0x3A70 JUMP JUMPDEST SWAP2 POP PUSH32 0x4D6178696D756D20746F6B656E7320616C7265616479206D696E74656420666F PUSH1 0x0 DUP4 ADD MSTORE PUSH32 0x7220746869732077616C6C65742070657220616C6C6F636174696F6E00000000 PUSH1 0x20 DUP4 ADD MSTORE PUSH1 0x40 DUP3 ADD SWAP1 POP SWAP2 SWAP1 POP JUMP JUMPDEST PUSH1 0x0 PUSH2 0x34F7 PUSH1 0x1 DUP4 PUSH2 0x3A81 JUMP JUMPDEST SWAP2 POP PUSH32 0x2F00000000000000000000000000000000000000000000000000000000000000 PUSH1 0x0 DUP4 ADD MSTORE PUSH1 0x1 DUP3 ADD SWAP1 POP SWAP2 SWAP1 POP JUMP JUMPDEST PUSH1 0x0 PUSH2 0x120 DUP4 ADD PUSH1 0x0 DUP4 ADD MLOAD PUSH2 0x3543 PUSH1 0x0 DUP7 ADD DUP3 PUSH2 0x35FE JUMP JUMPDEST POP PUSH1 0x20 DUP4 ADD MLOAD PUSH2 0x3556 PUSH1 0x20 DUP7 ADD DUP3 PUSH2 0x35FE JUMP JUMPDEST POP PUSH1 0x40 DUP4 ADD MLOAD PUSH2 0x3569 PUSH1 0x40 DUP7 ADD DUP3 PUSH2 0x35FE JUMP JUMPDEST POP PUSH1 0x60 DUP4 ADD MLOAD PUSH2 0x357C PUSH1 0x60 DUP7 ADD DUP3 PUSH2 0x3633 JUMP JUMPDEST POP PUSH1 0x80 DUP4 ADD MLOAD PUSH2 0x358F PUSH1 0x80 DUP7 ADD DUP3 PUSH2 0x3633 JUMP JUMPDEST POP PUSH1 0xA0 DUP4 ADD MLOAD PUSH2 0x35A2 PUSH1 0xA0 DUP7 ADD DUP3 PUSH2 0x2E49 JUMP JUMPDEST POP PUSH1 0xC0 DUP4 ADD MLOAD PUSH2 0x35B5 PUSH1 0xC0 DUP7 ADD DUP3 PUSH2 0x2E05 JUMP JUMPDEST POP PUSH1 0xE0 DUP4 ADD MLOAD PUSH2 0x35C8 PUSH1 0xE0 DUP7 ADD DUP3 PUSH2 0x2E23 JUMP JUMPDEST POP PUSH2 0x100 DUP4 ADD MLOAD DUP5 DUP3 SUB PUSH2 0x100 DUP7 ADD MSTORE PUSH2 0x35E2 DUP3 DUP3 PUSH2 0x2E58 JUMP JUMPDEST SWAP2 POP POP DUP1 SWAP2 POP POP SWAP3 SWAP2 POP POP JUMP JUMPDEST PUSH2 0x35F8 DUP2 PUSH2 0x3BCE JUMP JUMPDEST DUP3 MSTORE POP POP JUMP JUMPDEST PUSH2 0x3607 DUP2 PUSH2 0x3BD8 JUMP JUMPDEST DUP3 MSTORE POP POP JUMP JUMPDEST PUSH2 0x3616 DUP2 PUSH2 0x3BD8 JUMP JUMPDEST DUP3 MSTORE POP POP JUMP JUMPDEST PUSH2 0x362D PUSH2 0x3628 DUP3 PUSH2 0x3BD8 JUMP JUMPDEST PUSH2 0x3CE8 JUMP JUMPDEST DUP3 MSTORE POP POP JUMP JUMPDEST PUSH2 0x363C DUP2 PUSH2 0x3BE8 JUMP JUMPDEST DUP3 MSTORE POP POP JUMP JUMPDEST PUSH1 0x0 PUSH2 0x364E DUP3 DUP6 PUSH2 0x2DEE JUMP JUMPDEST PUSH1 0x14 DUP3 ADD SWAP2 POP PUSH2 0x365E DUP3 DUP5 PUSH2 0x361C JUMP JUMPDEST PUSH1 0x4 DUP3 ADD SWAP2 POP DUP2 SWAP1 POP SWAP4 SWAP3 POP POP POP JUMP JUMPDEST PUSH1 0x0 PUSH2 0x367A DUP3 DUP6 PUSH2 0x2E32 JUMP JUMPDEST PUSH1 0x20 DUP3 ADD SWAP2 POP PUSH2 0x368A DUP3 DUP5 PUSH2 0x2E32 JUMP JUMPDEST PUSH1 0x20 DUP3 ADD SWAP2 POP DUP2 SWAP1 POP SWAP4 SWAP3 POP POP POP JUMP JUMPDEST PUSH1 0x0 PUSH2 0x36A6 DUP3 DUP7 PUSH2 0x2ECA JUMP JUMPDEST SWAP2 POP PUSH2 0x36B2 DUP3 DUP6 PUSH2 0x2EFB JUMP JUMPDEST SWAP2 POP PUSH2 0x36BE DUP3 DUP5 PUSH2 0x2ECA JUMP JUMPDEST SWAP2 POP DUP2 SWAP1 POP SWAP5 SWAP4 POP POP POP POP JUMP JUMPDEST PUSH1 0x0 PUSH2 0x36D7 DUP3 DUP5 PUSH2 0x2ECA JUMP JUMPDEST SWAP2 POP PUSH2 0x36E2 DUP3 PUSH2 0x32B8 JUMP JUMPDEST SWAP2 POP DUP2 SWAP1 POP SWAP3 SWAP2 POP POP JUMP JUMPDEST PUSH1 0x0 PUSH2 0x36F8 DUP3 PUSH2 0x34EA JUMP JUMPDEST SWAP2 POP PUSH2 0x3704 DUP3 DUP5 PUSH2 0x2ECA JUMP JUMPDEST SWAP2 POP DUP2 SWAP1 POP SWAP3 SWAP2 POP POP JUMP JUMPDEST PUSH1 0x0 PUSH1 0x20 DUP3 ADD SWAP1 POP PUSH2 0x3724 PUSH1 0x0 DUP4 ADD DUP5 PUSH2 0x2DDF JUMP JUMPDEST SWAP3 SWAP2 POP POP JUMP JUMPDEST PUSH1 0x0 PUSH1 0x20 DUP3 ADD SWAP1 POP PUSH2 0x373F PUSH1 0x0 DUP4 ADD DUP5 PUSH2 0x2E14 JUMP JUMPDEST SWAP3 SWAP2 POP POP JUMP JUMPDEST PUSH1 0x0 PUSH1 0x20 DUP3 ADD SWAP1 POP DUP2 DUP2 SUB PUSH1 0x0 DUP4 ADD MSTORE PUSH2 0x375F DUP2 DUP5 PUSH2 0x2E91 JUMP JUMPDEST SWAP1 POP SWAP3 SWAP2 POP POP JUMP JUMPDEST PUSH1 0x0 PUSH1 0x20 DUP3 ADD SWAP1 POP DUP2 DUP2 SUB PUSH1 0x0 DUP4 ADD MSTORE PUSH2 0x3780 DUP2 PUSH2 0x2F7A JUMP JUMPDEST SWAP1 POP SWAP2 SWAP1 POP JUMP JUMPDEST PUSH1 0x0 PUSH1 0x20 DUP3 ADD SWAP1 POP DUP2 DUP2 SUB PUSH1 0x0 DUP4 ADD MSTORE PUSH2 0x37A0 DUP2 PUSH2 0x2FE0 JUMP JUMPDEST SWAP1 POP SWAP2 SWAP1 POP JUMP JUMPDEST PUSH1 0x0 PUSH1 0x20 DUP3 ADD SWAP1 POP DUP2 DUP2 SUB PUSH1 0x0 DUP4 ADD MSTORE PUSH2 0x37C0 DUP2 PUSH2 0x3046 JUMP JUMPDEST SWAP1 POP SWAP2 SWAP1 POP JUMP JUMPDEST PUSH1 0x0 PUSH1 0x20 DUP3 ADD SWAP1 POP DUP2 DUP2 SUB PUSH1 0x0 DUP4 ADD MSTORE PUSH2 0x37E0 DUP2 PUSH2 0x3086 JUMP JUMPDEST SWAP1 POP SWAP2 SWAP1 POP JUMP JUMPDEST PUSH1 0x0 PUSH1 0x20 DUP3 ADD SWAP1 POP DUP2 DUP2 SUB PUSH1 0x0 DUP4 ADD MSTORE PUSH2 0x3800 DUP2 PUSH2 0x30EC JUMP JUMPDEST SWAP1 POP SWAP2 SWAP1 POP JUMP JUMPDEST PUSH1 0x0 PUSH1 0x20 DUP3 ADD SWAP1 POP DUP2 DUP2 SUB PUSH1 0x0 DUP4 ADD MSTORE PUSH2 0x3820 DUP2 PUSH2 0x3152 JUMP JUMPDEST SWAP1 POP SWAP2 SWAP1 POP JUMP JUMPDEST PUSH1 0x0 PUSH1 0x20 DUP3 ADD SWAP1 POP DUP2 DUP2 SUB PUSH1 0x0 DUP4 ADD MSTORE PUSH2 0x3840 DUP2 PUSH2 0x3192 JUMP JUMPDEST SWAP1 POP SWAP2 SWAP1 POP JUMP JUMPDEST PUSH1 0x0 PUSH1 0x20 DUP3 ADD SWAP1 POP DUP2 DUP2 SUB PUSH1 0x0 DUP4 ADD MSTORE PUSH2 0x3860 DUP2 PUSH2 0x31F8 JUMP JUMPDEST SWAP1 POP SWAP2 SWAP1 POP JUMP JUMPDEST PUSH1 0x0 PUSH1 0x20 DUP3 ADD SWAP1 POP DUP2 DUP2 SUB PUSH1 0x0 DUP4 ADD MSTORE PUSH2 0x3880 DUP2 PUSH2 0x3238 JUMP JUMPDEST SWAP1 POP SWAP2 SWAP1 POP JUMP JUMPDEST PUSH1 0x0 PUSH1 0x20 DUP3 ADD SWAP1 POP DUP2 DUP2 SUB PUSH1 0x0 DUP4 ADD MSTORE PUSH2 0x38A0 DUP2 PUSH2 0x3278 JUMP JUMPDEST SWAP1 POP SWAP2 SWAP1 POP JUMP JUMPDEST PUSH1 0x0 PUSH1 0x20 DUP3 ADD SWAP1 POP DUP2 DUP2 SUB PUSH1 0x0 DUP4 ADD MSTORE PUSH2 0x38C0 DUP2 PUSH2 0x32F8 JUMP JUMPDEST SWAP1 POP SWAP2 SWAP1 POP JUMP JUMPDEST PUSH1 0x0 PUSH1 0x20 DUP3 ADD SWAP1 POP DUP2 DUP2 SUB PUSH1 0x0 DUP4 ADD MSTORE PUSH2 0x38E0 DUP2 PUSH2 0x3338 JUMP JUMPDEST SWAP1 POP SWAP2 SWAP1 POP JUMP JUMPDEST PUSH1 0x0 PUSH1 0x20 DUP3 ADD SWAP1 POP DUP2 DUP2 SUB PUSH1 0x0 DUP4 ADD MSTORE PUSH2 0x3900 DUP2 PUSH2 0x339E JUMP JUMPDEST SWAP1 POP SWAP2 SWAP1 POP JUMP JUMPDEST PUSH1 0x0 PUSH1 0x20 DUP3 ADD SWAP1 POP DUP2 DUP2 SUB PUSH1 0x0 DUP4 ADD MSTORE PUSH2 0x3920 DUP2 PUSH2 0x33DE JUMP JUMPDEST SWAP1 POP SWAP2 SWAP1 POP JUMP JUMPDEST PUSH1 0x0 PUSH1 0x20 DUP3 ADD SWAP1 POP DUP2 DUP2 SUB PUSH1 0x0 DUP4 ADD MSTORE PUSH2 0x3940 DUP2 PUSH2 0x3444 JUMP JUMPDEST SWAP1 POP SWAP2 SWAP1 POP JUMP JUMPDEST PUSH1 0x0 PUSH1 0x20 DUP3 ADD SWAP1 POP DUP2 DUP2 SUB PUSH1 0x0 DUP4 ADD MSTORE PUSH2 0x3960 DUP2 PUSH2 0x3484 JUMP JUMPDEST SWAP1 POP SWAP2 SWAP1 POP JUMP JUMPDEST PUSH1 0x0 PUSH1 0x20 DUP3 ADD SWAP1 POP DUP2 DUP2 SUB PUSH1 0x0 DUP4 ADD MSTORE PUSH2 0x3981 DUP2 DUP5 PUSH2 0x352A JUMP JUMPDEST SWAP1 POP SWAP3 SWAP2 POP POP JUMP JUMPDEST PUSH1 0x0 PUSH1 0x20 DUP3 ADD SWAP1 POP PUSH2 0x399E PUSH1 0x0 DUP4 ADD DUP5 PUSH2 0x35EF JUMP JUMPDEST SWAP3 SWAP2 POP POP JUMP JUMPDEST PUSH1 0x0 PUSH1 0x40 DUP3 ADD SWAP1 POP PUSH2 0x39B9 PUSH1 0x0 DUP4 ADD DUP6 PUSH2 0x35EF JUMP JUMPDEST PUSH2 0x39C6 PUSH1 0x20 DUP4 ADD DUP5 PUSH2 0x2DDF JUMP JUMPDEST SWAP4 SWAP3 POP POP POP JUMP JUMPDEST PUSH1 0x0 PUSH1 0x20 DUP3 ADD SWAP1 POP PUSH2 0x39E2 PUSH1 0x0 DUP4 ADD DUP5 PUSH2 0x360D JUMP JUMPDEST SWAP3 SWAP2 POP POP JUMP JUMPDEST PUSH1 0x0 DUP1 DUP4 CALLDATALOAD PUSH1 0x1 PUSH1 0x20 SUB DUP5 CALLDATASIZE SUB SUB DUP2 SLT PUSH2 0x3A01 JUMPI PUSH1 0x0 DUP1 REVERT JUMPDEST DUP1 DUP5 ADD SWAP3 POP DUP3 CALLDATALOAD SWAP2 POP PUSH8 0xFFFFFFFFFFFFFFFF DUP3 GT ISZERO PUSH2 0x3A1F JUMPI PUSH1 0x0 DUP1 REVERT JUMPDEST PUSH1 0x20 DUP4 ADD SWAP3 POP PUSH1 0x1 DUP3 MUL CALLDATASIZE SUB DUP4 SGT ISZERO PUSH2 0x3A37 JUMPI PUSH1 0x0 DUP1 REVERT JUMPDEST POP SWAP3 POP SWAP3 SWAP1 POP JUMP JUMPDEST PUSH1 0x0 DUP2 SWAP1 POP DUP2 PUSH1 0x0 MSTORE PUSH1 0x20 PUSH1 0x0 KECCAK256 SWAP1 POP SWAP2 SWAP1 POP JUMP JUMPDEST PUSH1 0x0 DUP2 MLOAD SWAP1 POP SWAP2 SWAP1 POP JUMP JUMPDEST PUSH1 0x0 DUP3 DUP3 MSTORE PUSH1 0x20 DUP3 ADD SWAP1 POP SWAP3 SWAP2 POP POP JUMP JUMPDEST PUSH1 0x0 DUP3 DUP3 MSTORE PUSH1 0x20 DUP3 ADD SWAP1 POP SWAP3 SWAP2 POP POP JUMP JUMPDEST PUSH1 0x0 DUP2 SWAP1 POP SWAP3 SWAP2 POP POP JUMP JUMPDEST PUSH1 0x0 PUSH2 0x3A97 DUP3 PUSH2 0x3BCE JUMP JUMPDEST SWAP2 POP PUSH2 0x3AA2 DUP4 PUSH2 0x3BCE JUMP JUMPDEST SWAP3 POP DUP3 PUSH32 0xFFFFFFFFFFFFFFFFFFFFFFFFFFFFFFFFFFFFFFFFFFFFFFFFFFFFFFFFFFFFFFFF SUB DUP3 GT ISZERO PUSH2 0x3AD7 JUMPI PUSH2 0x3AD6 PUSH2 0x3D2B JUMP JUMPDEST JUMPDEST DUP3 DUP3 ADD SWAP1 POP SWAP3 SWAP2 POP POP JUMP JUMPDEST PUSH1 0x0 PUSH2 0x3AED DUP3 PUSH2 0x3BCE JUMP JUMPDEST SWAP2 POP PUSH2 0x3AF8 DUP4 PUSH2 0x3BCE JUMP JUMPDEST SWAP3 POP DUP3 PUSH2 0x3B08 JUMPI PUSH2 0x3B07 PUSH2 0x3D5A JUMP JUMPDEST JUMPDEST DUP3 DUP3 DIV SWAP1 POP SWAP3 SWAP2 POP POP JUMP JUMPDEST PUSH1 0x0 PUSH2 0x3B1E DUP3 PUSH2 0x3BCE JUMP JUMPDEST SWAP2 POP PUSH2 0x3B29 DUP4 PUSH2 0x3BCE JUMP JUMPDEST SWAP3 POP DUP3 DUP3 LT ISZERO PUSH2 0x3B3C JUMPI PUSH2 0x3B3B PUSH2 0x3D2B JUMP JUMPDEST JUMPDEST DUP3 DUP3 SUB SWAP1 POP SWAP3 SWAP2 POP POP JUMP JUMPDEST PUSH1 0x0 PUSH2 0x3B52 DUP3 PUSH2 0x3BAE JUMP JUMPDEST SWAP1 POP SWAP2 SWAP1 POP JUMP JUMPDEST PUSH1 0x0 DUP2 ISZERO ISZERO SWAP1 POP SWAP2 SWAP1 POP JUMP JUMPDEST PUSH1 0x0 DUP2 SWAP1 POP SWAP2 SWAP1 POP JUMP JUMPDEST PUSH1 0x0 PUSH32 0xFFFFFFFF00000000000000000000000000000000000000000000000000000000 DUP3 AND SWAP1 POP SWAP2 SWAP1 POP JUMP JUMPDEST PUSH1 0x0 DUP2 SWAP1 POP PUSH2 0x3BA9 DUP3 PUSH2 0x3E12 JUMP JUMPDEST SWAP2 SWAP1 POP JUMP JUMPDEST PUSH1 0x0 PUSH20 0xFFFFFFFFFFFFFFFFFFFFFFFFFFFFFFFFFFFFFFFF DUP3 AND SWAP1 POP SWAP2 SWAP1 POP JUMP JUMPDEST PUSH1 0x0 DUP2 SWAP1 POP SWAP2 SWAP1 POP JUMP JUMPDEST PUSH1 0x0 PUSH4 0xFFFFFFFF DUP3 AND SWAP1 POP SWAP2 SWAP1 POP JUMP JUMPDEST PUSH1 0x0 PUSH6 0xFFFFFFFFFFFF DUP3 AND SWAP1 POP SWAP2 SWAP1 POP JUMP JUMPDEST PUSH1 0x0 PUSH2 0x3C05 DUP3 PUSH2 0x3B9B JUMP JUMPDEST SWAP1 POP SWAP2 SWAP1 POP JUMP JUMPDEST PUSH1 0x0 JUMPDEST DUP4 DUP2 LT ISZERO PUSH2 0x3C2A JUMPI DUP1 DUP3 ADD MLOAD DUP2 DUP5 ADD MSTORE PUSH1 0x20 DUP2 ADD SWAP1 POP PUSH2 0x3C0F JUMP JUMPDEST DUP4 DUP2 GT ISZERO PUSH2 0x3C39 JUMPI PUSH1 0x0 DUP5 DUP5 ADD MSTORE JUMPDEST POP POP POP POP JUMP JUMPDEST PUSH1 0x0 PUSH1 0x2 DUP3 DIV SWAP1 POP PUSH1 0x1 DUP3 AND DUP1 PUSH2 0x3C57 JUMPI PUSH1 0x7F DUP3 AND SWAP2 POP JUMPDEST PUSH1 0x20 DUP3 LT DUP2 EQ ISZERO PUSH2 0x3C6B JUMPI PUSH2 0x3C6A PUSH2 0x3DB8 JUMP JUMPDEST JUMPDEST POP SWAP2 SWAP1 POP JUMP JUMPDEST PUSH1 0x0 PUSH2 0x3C7C DUP3 PUSH2 0x3BCE JUMP JUMPDEST SWAP2 POP PUSH32 0xFFFFFFFFFFFFFFFFFFFFFFFFFFFFFFFFFFFFFFFFFFFFFFFFFFFFFFFFFFFFFFFF DUP3 EQ ISZERO PUSH2 0x3CAF JUMPI PUSH2 0x3CAE PUSH2 0x3D2B JUMP JUMPDEST JUMPDEST PUSH1 0x1 DUP3 ADD SWAP1 POP SWAP2 SWAP1 POP JUMP JUMPDEST PUSH1 0x0 PUSH2 0x3CC5 DUP3 PUSH2 0x3CD6 JUMP JUMPDEST SWAP1 POP SWAP2 SWAP1 POP JUMP JUMPDEST PUSH1 0x0 DUP2 SWAP1 POP SWAP2 SWAP1 POP JUMP JUMPDEST PUSH1 0x0 PUSH2 0x3CE1 DUP3 PUSH2 0x3E05 JUMP JUMPDEST SWAP1 POP SWAP2 SWAP1 POP JUMP JUMPDEST PUSH1 0x0 PUSH2 0x3CF3 DUP3 PUSH2 0x3DF8 JUMP JUMPDEST SWAP1 POP SWAP2 SWAP1 POP JUMP JUMPDEST PUSH1 0x0 PUSH2 0x3D05 DUP3 PUSH2 0x3BCE JUMP JUMPDEST SWAP2 POP PUSH2 0x3D10 DUP4 PUSH2 0x3BCE JUMP JUMPDEST SWAP3 POP DUP3 PUSH2 0x3D20 JUMPI PUSH2 0x3D1F PUSH2 0x3D5A JUMP JUMPDEST JUMPDEST DUP3 DUP3 MOD SWAP1 POP SWAP3 SWAP2 POP POP JUMP JUMPDEST PUSH32 0x4E487B7100000000000000000000000000000000000000000000000000000000 PUSH1 0x0 MSTORE PUSH1 0x11 PUSH1 0x4 MSTORE PUSH1 0x24 PUSH1 0x0 REVERT JUMPDEST PUSH32 0x4E487B7100000000000000000000000000000000000000000000000000000000 PUSH1 0x0 MSTORE PUSH1 0x12 PUSH1 0x4 MSTORE PUSH1 0x24 PUSH1 0x0 REVERT JUMPDEST PUSH32 0x4E487B7100000000000000000000000000000000000000000000000000000000 PUSH1 0x0 MSTORE PUSH1 0x21 PUSH1 0x4 MSTORE PUSH1 0x24 PUSH1 0x0 REVERT JUMPDEST PUSH32 0x4E487B7100000000000000000000000000000000000000000000000000000000 PUSH1 0x0 MSTORE PUSH1 0x22 PUSH1 0x4 MSTORE PUSH1 0x24 PUSH1 0x0 REVERT JUMPDEST PUSH1 0x0 PUSH1 0x1F NOT PUSH1 0x1F DUP4 ADD AND SWAP1 POP SWAP2 SWAP1 POP JUMP JUMPDEST PUSH1 0x0 DUP2 PUSH1 0xE0 SHL SWAP1 POP SWAP2 SWAP1 POP JUMP JUMPDEST PUSH1 0x0 DUP2 PUSH1 0x60 SHL SWAP1 POP SWAP2 SWAP1 POP JUMP JUMPDEST PUSH1 0x3 DUP2 LT PUSH2 0x3E23 JUMPI PUSH2 0x3E22 PUSH2 0x3D89 JUMP JUMPDEST JUMPDEST POP JUMP JUMPDEST PUSH2 0x3E2F DUP2 PUSH2 0x3B47 JUMP JUMPDEST DUP2 EQ PUSH2 0x3E3A JUMPI PUSH1 0x0 DUP1 REVERT JUMPDEST POP JUMP JUMPDEST PUSH2 0x3E46 DUP2 PUSH2 0x3B59 JUMP JUMPDEST DUP2 EQ PUSH2 0x3E51 JUMPI PUSH1 0x0 DUP1 REVERT JUMPDEST POP JUMP JUMPDEST PUSH2 0x3E5D DUP2 PUSH2 0x3B6F JUMP JUMPDEST DUP2 EQ PUSH2 0x3E68 JUMPI PUSH1 0x0 DUP1 REVERT JUMPDEST POP JUMP JUMPDEST PUSH1 0x3 DUP2 LT PUSH2 0x3E78 JUMPI PUSH1 0x0 DUP1 REVERT JUMPDEST POP JUMP JUMPDEST PUSH2 0x3E84 DUP2 PUSH2 0x3BCE JUMP JUMPDEST DUP2 EQ PUSH2 0x3E8F JUMPI PUSH1 0x0 DUP1 REVERT JUMPDEST POP JUMP JUMPDEST PUSH2 0x3E9B DUP2 PUSH2 0x3BD8 JUMP JUMPDEST DUP2 EQ PUSH2 0x3EA6 JUMPI PUSH1 0x0 DUP1 REVERT JUMPDEST POP JUMP JUMPDEST PUSH2 0x3EB2 DUP2 PUSH2 0x3BE8 JUMP JUMPDEST DUP2 EQ PUSH2 0x3EBD JUMPI PUSH1 0x0 DUP1 REVERT JUMPDEST POP JUMP INVALID LOG2 PUSH5 0x6970667358 0x22 SLT KECCAK256 ORIGIN 0xB9 CALLDATALOAD EXTCODECOPY EQ 0xD6 0xE6 0x4A DUP2 SWAP3 0xA5 0x2B SWAP7 0xE8 CREATE 0xA7 0xD5 RETURNDATACOPY 0xEA PUSH28 0x13813E6D84449F376BADD3AD64736F6C634300080000330000000000 "
				},
				"gasEstimates": {
					"creation": {
						"codeDepositCost": "3223600",
						"executionCost": "23585",
						"totalCost": "3247185"
					},
					"external": {
						"getClaim(address,uint256)": "infinite",
						"getClaimCount(address)": "1607",
						"getTokenClaim(address,uint256)": "infinite",
						"getWalletMinted(address,uint256,address)": "infinite",
						"initializeClaim(address,(uint32,uint32,uint48,uint48,uint8,bool,bytes32,string))": "infinite",
						"mint(address,uint256,bytes32[],uint32)": "infinite",
						"overwriteClaim(address,uint256,(uint32,uint32,uint48,uint48,uint8,bool,bytes32,string))": "infinite",
						"supportsInterface(bytes4)": "731",
						"tokenURI(address,uint256)": "infinite"
					},
					"internal": {
						"_getTokenClaim(address,uint256)": "infinite",
						"_updateIndexRanges(address,uint256,uint256)": "infinite"
					}
				},
				"methodIdentifiers": {
					"getClaim(address,uint256)": "0f79ab39",
					"getClaimCount(address)": "d5fdfe87",
					"getTokenClaim(address,uint256)": "02349713",
					"getWalletMinted(address,uint256,address)": "8566ae5d",
					"initializeClaim(address,(uint32,uint32,uint48,uint48,uint8,bool,bytes32,string))": "037b79db",
					"mint(address,uint256,bytes32[],uint32)": "0c134959",
					"overwriteClaim(address,uint256,(uint32,uint32,uint48,uint48,uint8,bool,bytes32,string))": "cc351138",
					"supportsInterface(bytes4)": "01ffc9a7",
					"tokenURI(address,uint256)": "e9dc6375"
				}
			},
			"storageLayout": {
				"storage": [
					{
						"astId": 740,
						"contract": "contracts/manifold/lazyclaim/ERC721LazyClaim.sol:ERC721LazyClaim",
						"label": "_status",
						"offset": 0,
						"slot": "0",
						"type": "t_uint256"
					},
					{
						"astId": 1769,
						"contract": "contracts/manifold/lazyclaim/ERC721LazyClaim.sol:ERC721LazyClaim",
						"label": "claimCounts",
						"offset": 0,
						"slot": "1",
						"type": "t_mapping(t_address,t_uint256)"
					},
					{
						"astId": 1776,
						"contract": "contracts/manifold/lazyclaim/ERC721LazyClaim.sol:ERC721LazyClaim",
						"label": "claims",
						"offset": 0,
						"slot": "2",
						"type": "t_mapping(t_address,t_mapping(t_uint256,t_struct(Claim)2676_storage))"
					},
					{
						"astId": 1784,
						"contract": "contracts/manifold/lazyclaim/ERC721LazyClaim.sol:ERC721LazyClaim",
						"label": "mintsPerWallet",
						"offset": 0,
						"slot": "3",
						"type": "t_mapping(t_address,t_mapping(t_uint256,t_mapping(t_address,t_uint32)))"
					},
					{
						"astId": 1792,
						"contract": "contracts/manifold/lazyclaim/ERC721LazyClaim.sol:ERC721LazyClaim",
						"label": "tokenClaims",
						"offset": 0,
						"slot": "4",
						"type": "t_mapping(t_address,t_mapping(t_uint256,t_array(t_struct(IndexRange)1765_storage)dyn_storage))"
					}
				],
				"types": {
					"t_address": {
						"encoding": "inplace",
						"label": "address",
						"numberOfBytes": "20"
					},
					"t_array(t_struct(IndexRange)1765_storage)dyn_storage": {
						"base": "t_struct(IndexRange)1765_storage",
						"encoding": "dynamic_array",
						"label": "struct ERC721LazyClaim.IndexRange[]",
						"numberOfBytes": "32"
					},
					"t_bool": {
						"encoding": "inplace",
						"label": "bool",
						"numberOfBytes": "1"
					},
					"t_bytes32": {
						"encoding": "inplace",
						"label": "bytes32",
						"numberOfBytes": "32"
					},
					"t_enum(StorageProtocol)2638": {
						"encoding": "inplace",
						"label": "enum IERC721LazyClaim.StorageProtocol",
						"numberOfBytes": "1"
					},
					"t_mapping(t_address,t_mapping(t_uint256,t_array(t_struct(IndexRange)1765_storage)dyn_storage))": {
						"encoding": "mapping",
						"key": "t_address",
						"label": "mapping(address => mapping(uint256 => struct ERC721LazyClaim.IndexRange[]))",
						"numberOfBytes": "32",
						"value": "t_mapping(t_uint256,t_array(t_struct(IndexRange)1765_storage)dyn_storage)"
					},
					"t_mapping(t_address,t_mapping(t_uint256,t_mapping(t_address,t_uint32)))": {
						"encoding": "mapping",
						"key": "t_address",
						"label": "mapping(address => mapping(uint256 => mapping(address => uint32)))",
						"numberOfBytes": "32",
						"value": "t_mapping(t_uint256,t_mapping(t_address,t_uint32))"
					},
					"t_mapping(t_address,t_mapping(t_uint256,t_struct(Claim)2676_storage))": {
						"encoding": "mapping",
						"key": "t_address",
						"label": "mapping(address => mapping(uint256 => struct IERC721LazyClaim.Claim))",
						"numberOfBytes": "32",
						"value": "t_mapping(t_uint256,t_struct(Claim)2676_storage)"
					},
					"t_mapping(t_address,t_uint256)": {
						"encoding": "mapping",
						"key": "t_address",
						"label": "mapping(address => uint256)",
						"numberOfBytes": "32",
						"value": "t_uint256"
					},
					"t_mapping(t_address,t_uint32)": {
						"encoding": "mapping",
						"key": "t_address",
						"label": "mapping(address => uint32)",
						"numberOfBytes": "32",
						"value": "t_uint32"
					},
					"t_mapping(t_uint256,t_array(t_struct(IndexRange)1765_storage)dyn_storage)": {
						"encoding": "mapping",
						"key": "t_uint256",
						"label": "mapping(uint256 => struct ERC721LazyClaim.IndexRange[])",
						"numberOfBytes": "32",
						"value": "t_array(t_struct(IndexRange)1765_storage)dyn_storage"
					},
					"t_mapping(t_uint256,t_mapping(t_address,t_uint32))": {
						"encoding": "mapping",
						"key": "t_uint256",
						"label": "mapping(uint256 => mapping(address => uint32))",
						"numberOfBytes": "32",
						"value": "t_mapping(t_address,t_uint32)"
					},
					"t_mapping(t_uint256,t_struct(Claim)2676_storage)": {
						"encoding": "mapping",
						"key": "t_uint256",
						"label": "mapping(uint256 => struct IERC721LazyClaim.Claim)",
						"numberOfBytes": "32",
						"value": "t_struct(Claim)2676_storage"
					},
					"t_string_storage": {
						"encoding": "bytes",
						"label": "string",
						"numberOfBytes": "32"
					},
					"t_struct(Claim)2676_storage": {
						"encoding": "inplace",
						"label": "struct IERC721LazyClaim.Claim",
						"members": [
							{
								"astId": 2658,
								"contract": "contracts/manifold/lazyclaim/ERC721LazyClaim.sol:ERC721LazyClaim",
								"label": "total",
								"offset": 0,
								"slot": "0",
								"type": "t_uint32"
							},
							{
								"astId": 2660,
								"contract": "contracts/manifold/lazyclaim/ERC721LazyClaim.sol:ERC721LazyClaim",
								"label": "totalMax",
								"offset": 4,
								"slot": "0",
								"type": "t_uint32"
							},
							{
								"astId": 2662,
								"contract": "contracts/manifold/lazyclaim/ERC721LazyClaim.sol:ERC721LazyClaim",
								"label": "walletMax",
								"offset": 8,
								"slot": "0",
								"type": "t_uint32"
							},
							{
								"astId": 2664,
								"contract": "contracts/manifold/lazyclaim/ERC721LazyClaim.sol:ERC721LazyClaim",
								"label": "startDate",
								"offset": 12,
								"slot": "0",
								"type": "t_uint48"
							},
							{
								"astId": 2666,
								"contract": "contracts/manifold/lazyclaim/ERC721LazyClaim.sol:ERC721LazyClaim",
								"label": "endDate",
								"offset": 18,
								"slot": "0",
								"type": "t_uint48"
							},
							{
								"astId": 2669,
								"contract": "contracts/manifold/lazyclaim/ERC721LazyClaim.sol:ERC721LazyClaim",
								"label": "storageProtocol",
								"offset": 24,
								"slot": "0",
								"type": "t_enum(StorageProtocol)2638"
							},
							{
								"astId": 2671,
								"contract": "contracts/manifold/lazyclaim/ERC721LazyClaim.sol:ERC721LazyClaim",
								"label": "identical",
								"offset": 25,
								"slot": "0",
								"type": "t_bool"
							},
							{
								"astId": 2673,
								"contract": "contracts/manifold/lazyclaim/ERC721LazyClaim.sol:ERC721LazyClaim",
								"label": "merkleRoot",
								"offset": 0,
								"slot": "1",
								"type": "t_bytes32"
							},
							{
								"astId": 2675,
								"contract": "contracts/manifold/lazyclaim/ERC721LazyClaim.sol:ERC721LazyClaim",
								"label": "location",
								"offset": 0,
								"slot": "2",
								"type": "t_string_storage"
							}
						],
						"numberOfBytes": "96"
					},
					"t_struct(IndexRange)1765_storage": {
						"encoding": "inplace",
						"label": "struct ERC721LazyClaim.IndexRange",
						"members": [
							{
								"astId": 1762,
								"contract": "contracts/manifold/lazyclaim/ERC721LazyClaim.sol:ERC721LazyClaim",
								"label": "start",
								"offset": 0,
								"slot": "0",
								"type": "t_uint256"
							},
							{
								"astId": 1764,
								"contract": "contracts/manifold/lazyclaim/ERC721LazyClaim.sol:ERC721LazyClaim",
								"label": "count",
								"offset": 0,
								"slot": "1",
								"type": "t_uint256"
							}
						],
						"numberOfBytes": "64"
					},
					"t_uint256": {
						"encoding": "inplace",
						"label": "uint256",
						"numberOfBytes": "32"
					},
					"t_uint32": {
						"encoding": "inplace",
						"label": "uint32",
						"numberOfBytes": "4"
					},
					"t_uint48": {
						"encoding": "inplace",
						"label": "uint48",
						"numberOfBytes": "6"
					}
				}
			},
			"userdoc": {
				"kind": "user",
				"methods": {
					"getClaim(address,uint256)": {
						"notice": "get a claim corresponding to a creator contract and index"
					},
					"getClaimCount(address)": {
						"notice": "get the number of claims initialized for a given creator contract"
					},
					"getTokenClaim(address,uint256)": {
						"notice": "get the claim index corresponding to a creator contract and tokenId"
					},
					"getWalletMinted(address,uint256,address)": {
						"notice": "get the number of tokens minted for the current wallet for a given claim"
					},
					"mint(address,uint256,bytes32[],uint32)": {
						"notice": "allow a wallet to lazily claim a token according to parameters"
					},
					"overwriteClaim(address,uint256,(uint32,uint32,uint48,uint48,uint8,bool,bytes32,string))": {
						"notice": "update an existing claim at claimIndex"
					},
					"tokenURI(address,uint256)": {
						"notice": "construct the uri for the erc721 token metadata"
					}
				},
				"notice": "Lazy claim with optional whitelist ERC721 tokens",
				"version": 1
			}
		}
	}
}