{
	"contracts/manifold/lazyclaim/ERC721LazyClaim.sol": {
		"ERC721LazyClaim": {
			"abi": [
				{
					"anonymous": false,
					"inputs": [
						{
							"indexed": true,
							"internalType": "address",
							"name": "creatorContract",
							"type": "address"
						},
						{
							"indexed": true,
							"internalType": "uint256",
							"name": "claimIndex",
							"type": "uint256"
						},
						{
							"indexed": false,
							"internalType": "address",
							"name": "initializer",
							"type": "address"
						}
					],
					"name": "ClaimInitialized",
					"type": "event"
				},
				{
					"anonymous": false,
					"inputs": [
						{
							"indexed": true,
							"internalType": "address",
							"name": "creatorContract",
							"type": "address"
						},
						{
							"indexed": true,
							"internalType": "uint256",
							"name": "claimIndex",
							"type": "uint256"
						},
						{
							"indexed": false,
							"internalType": "uint256",
							"name": "tokenId",
							"type": "uint256"
						},
						{
							"indexed": false,
							"internalType": "address",
							"name": "claimer",
							"type": "address"
						}
					],
					"name": "Mint",
					"type": "event"
				},
				{
					"inputs": [
						{
							"internalType": "address",
							"name": "creatorContractAddress",
							"type": "address"
						},
						{
							"internalType": "uint256",
							"name": "claimIndex",
							"type": "uint256"
						}
					],
					"name": "getClaim",
					"outputs": [
						{
							"components": [
								{
									"internalType": "uint32",
									"name": "total",
									"type": "uint32"
								},
								{
									"internalType": "uint32",
									"name": "totalMax",
									"type": "uint32"
								},
								{
									"internalType": "uint32",
									"name": "walletMax",
									"type": "uint32"
								},
								{
									"internalType": "uint48",
									"name": "startDate",
									"type": "uint48"
								},
								{
									"internalType": "uint48",
									"name": "endDate",
									"type": "uint48"
								},
								{
									"internalType": "enum IERC721LazyClaim.StorageProtocol",
									"name": "storageProtocol",
									"type": "uint8"
								},
								{
									"internalType": "bool",
									"name": "identical",
									"type": "bool"
								},
								{
									"internalType": "bytes32",
									"name": "merkleRoot",
									"type": "bytes32"
								},
								{
									"internalType": "string",
									"name": "location",
									"type": "string"
								}
							],
							"internalType": "struct IERC721LazyClaim.Claim",
							"name": "",
							"type": "tuple"
						}
					],
					"stateMutability": "view",
					"type": "function"
				},
				{
					"inputs": [
						{
							"internalType": "address",
							"name": "creatorContractAddress",
							"type": "address"
						}
					],
					"name": "getClaimCount",
					"outputs": [
						{
							"internalType": "uint256",
							"name": "",
							"type": "uint256"
						}
					],
					"stateMutability": "view",
					"type": "function"
				},
				{
					"inputs": [
						{
							"internalType": "address",
							"name": "creatorContractAddress",
							"type": "address"
						},
						{
							"internalType": "uint256",
							"name": "tokenId",
							"type": "uint256"
						}
					],
					"name": "getTokenClaim",
					"outputs": [
						{
							"internalType": "uint256",
							"name": "",
							"type": "uint256"
						}
					],
					"stateMutability": "view",
					"type": "function"
				},
				{
					"inputs": [
						{
							"internalType": "address",
							"name": "creatorContractAddress",
							"type": "address"
						},
						{
							"internalType": "uint256",
							"name": "claimIndex",
							"type": "uint256"
						},
						{
							"internalType": "address",
							"name": "walletAddress",
							"type": "address"
						}
					],
					"name": "getWalletMinted",
					"outputs": [
						{
							"internalType": "uint32",
							"name": "",
							"type": "uint32"
						}
					],
					"stateMutability": "view",
					"type": "function"
				},
				{
					"inputs": [
						{
							"internalType": "address",
							"name": "creatorContractAddress",
							"type": "address"
						},
						{
							"components": [
								{
									"internalType": "uint32",
									"name": "totalMax",
									"type": "uint32"
								},
								{
									"internalType": "uint32",
									"name": "walletMax",
									"type": "uint32"
								},
								{
									"internalType": "uint48",
									"name": "startDate",
									"type": "uint48"
								},
								{
									"internalType": "uint48",
									"name": "endDate",
									"type": "uint48"
								},
								{
									"internalType": "enum IERC721LazyClaim.StorageProtocol",
									"name": "storageProtocol",
									"type": "uint8"
								},
								{
									"internalType": "bool",
									"name": "identical",
									"type": "bool"
								},
								{
									"internalType": "bytes32",
									"name": "merkleRoot",
									"type": "bytes32"
								},
								{
									"internalType": "string",
									"name": "location",
									"type": "string"
								}
							],
							"internalType": "struct IERC721LazyClaim.ClaimParameters",
							"name": "claimParameters",
							"type": "tuple"
						}
					],
					"name": "initializeClaim",
					"outputs": [
						{
							"internalType": "uint256",
							"name": "",
							"type": "uint256"
						}
					],
					"stateMutability": "nonpayable",
					"type": "function"
				},
				{
					"inputs": [
						{
							"internalType": "address",
							"name": "creatorContractAddress",
							"type": "address"
						},
						{
							"internalType": "uint256",
							"name": "claimIndex",
							"type": "uint256"
						},
						{
							"internalType": "bytes32[]",
							"name": "merkleProof",
							"type": "bytes32[]"
						},
						{
							"internalType": "uint32",
							"name": "minterValue",
							"type": "uint32"
						}
					],
					"name": "mint",
					"outputs": [
						{
							"internalType": "uint256",
							"name": "",
							"type": "uint256"
						}
					],
					"stateMutability": "nonpayable",
					"type": "function"
				},
				{
					"inputs": [
						{
							"internalType": "address",
							"name": "creatorContractAddress",
							"type": "address"
						},
						{
							"internalType": "uint256",
							"name": "claimIndex",
							"type": "uint256"
						},
						{
							"components": [
								{
									"internalType": "uint32",
									"name": "totalMax",
									"type": "uint32"
								},
								{
									"internalType": "uint32",
									"name": "walletMax",
									"type": "uint32"
								},
								{
									"internalType": "uint48",
									"name": "startDate",
									"type": "uint48"
								},
								{
									"internalType": "uint48",
									"name": "endDate",
									"type": "uint48"
								},
								{
									"internalType": "enum IERC721LazyClaim.StorageProtocol",
									"name": "storageProtocol",
									"type": "uint8"
								},
								{
									"internalType": "bool",
									"name": "identical",
									"type": "bool"
								},
								{
									"internalType": "bytes32",
									"name": "merkleRoot",
									"type": "bytes32"
								},
								{
									"internalType": "string",
									"name": "location",
									"type": "string"
								}
							],
							"internalType": "struct IERC721LazyClaim.ClaimParameters",
							"name": "claimParameters",
							"type": "tuple"
						}
					],
					"name": "overwriteClaim",
					"outputs": [],
					"stateMutability": "nonpayable",
					"type": "function"
				},
				{
					"inputs": [
						{
							"internalType": "bytes4",
							"name": "interfaceId",
							"type": "bytes4"
						}
					],
					"name": "supportsInterface",
					"outputs": [
						{
							"internalType": "bool",
							"name": "",
							"type": "bool"
						}
					],
					"stateMutability": "view",
					"type": "function"
				},
				{
					"inputs": [
						{
							"internalType": "address",
							"name": "creatorContractAddress",
							"type": "address"
						},
						{
							"internalType": "uint256",
							"name": "tokenId",
							"type": "uint256"
						}
					],
					"name": "tokenURI",
					"outputs": [
						{
							"internalType": "string",
							"name": "",
							"type": "string"
						}
					],
					"stateMutability": "view",
					"type": "function"
				}
			],
			"devdoc": {
				"author": "manifold.xyz",
				"kind": "dev",
				"methods": {
					"getClaim(address,uint256)": {
						"params": {
							"claimIndex": "the index of the claim",
							"creatorContractAddress": "the address of the creator contract"
						},
						"returns": {
							"_0": "the claim object"
						}
					},
					"getClaimCount(address)": {
						"params": {
							"creatorContractAddress": "the address of the creator contract"
						},
						"returns": {
							"_0": "the number of claims initialized for this creator contract"
						}
					},
					"getTokenClaim(address,uint256)": {
						"params": {
							"creatorContractAddress": "the address of the creator contract",
							"tokenId": "the token id"
						},
						"returns": {
							"_0": "the index of the claim"
						}
					},
					"getWalletMinted(address,uint256,address)": {
						"params": {
							"claimIndex": "the index of the claim",
							"creatorContractAddress": "the address of the creator contract for the claim"
						},
						"returns": {
							"_0": "the number of tokens minted for the current wallet"
						}
					},
					"mint(address,uint256,bytes32[],uint32)": {
						"params": {
							"claimIndex": "the index of the claim for which we will mint",
							"creatorContractAddress": "the creator contract address",
							"merkleProof": "if the claim has a merkleRoot, verifying merkleProof ensures that address + minterValue was used to construct it",
							"minterValue": "the value portion which combines with msg.sender to form the merkle leaf corresponding to merkleProof"
						},
						"returns": {
							"_0": "the tokenId of the newly minted token"
						}
					},
					"overwriteClaim(address,uint256,(uint32,uint32,uint48,uint48,uint8,bool,bytes32,string))": {
						"params": {
							"claimIndex": "the index of the claim in the list of creatorContractAddress' claims",
							"claimParameters": "the parameters which will affect the minting behavior of the claim",
							"creatorContractAddress": "the creator contract corresponding to the claim"
						}
					},
					"supportsInterface(bytes4)": {
						"details": "Returns true if this contract implements the interface defined by `interfaceId`. See the corresponding https://eips.ethereum.org/EIPS/eip-165#how-interfaces-are-identified[EIP section] to learn more about how these ids are created. This function call must use less than 30 000 gas."
					},
					"tokenURI(address,uint256)": {
						"params": {
							"creatorContractAddress": "the creator contract address",
							"tokenId": "the token id to construct the uri for"
						},
						"returns": {
							"_0": "the uri constructed according to the params of the claim corresponding to tokenId"
						}
					}
				},
				"title": "Lazy Claim",
				"version": 1
			},
			"evm": {
				"assembly": "    /* \"contracts/manifold/lazyclaim/ERC721LazyClaim.sol\":730:15647  contract ERC721LazyClaim is IERC165, IERC721LazyClaim, ICreatorExtensionTokenURI, ReentrancyGuard {... */\n  mstore(0x40, 0x80)\n  callvalue\n  dup1\n  iszero\n  tag_1\n  jumpi\n  0x00\n  dup1\n  revert\ntag_1:\n  pop\n    /* \"@openzeppelin/contracts/security/ReentrancyGuard.sol\":1701:1702  1 */\n  0x01\n    /* \"@openzeppelin/contracts/security/ReentrancyGuard.sol\":1806:1813  _status */\n  0x00\n    /* \"@openzeppelin/contracts/security/ReentrancyGuard.sol\":1806:1828  _status = _NOT_ENTERED */\n  dup2\n  swap1\n  sstore\n  pop\n    /* \"contracts/manifold/lazyclaim/ERC721LazyClaim.sol\":730:15647  contract ERC721LazyClaim is IERC165, IERC721LazyClaim, ICreatorExtensionTokenURI, ReentrancyGuard {... */\n  dataSize(sub_0)\n  dup1\n  dataOffset(sub_0)\n  0x00\n  codecopy\n  0x00\n  return\nstop\n\nsub_0: assembly {\n        /* \"contracts/manifold/lazyclaim/ERC721LazyClaim.sol\":730:15647  contract ERC721LazyClaim is IERC165, IERC721LazyClaim, ICreatorExtensionTokenURI, ReentrancyGuard {... */\n      mstore(0x40, 0x80)\n      callvalue\n      dup1\n      iszero\n      tag_1\n      jumpi\n      0x00\n      dup1\n      revert\n    tag_1:\n      pop\n      jumpi(tag_2, lt(calldatasize, 0x04))\n      shr(0xe0, calldataload(0x00))\n      dup1\n      0x0f79ab39\n      gt\n      tag_12\n      jumpi\n      dup1\n      0x0f79ab39\n      eq\n      tag_7\n      jumpi\n      dup1\n      0x8566ae5d\n      eq\n      tag_8\n      jumpi\n      dup1\n      0xcc351138\n      eq\n      tag_9\n      jumpi\n      dup1\n      0xd5fdfe87\n      eq\n      tag_10\n      jumpi\n      dup1\n      0xe9dc6375\n      eq\n      tag_11\n      jumpi\n      jump(tag_2)\n    tag_12:\n      dup1\n      0x01ffc9a7\n      eq\n      tag_3\n      jumpi\n      dup1\n      0x02349713\n      eq\n      tag_4\n      jumpi\n      dup1\n      0x037b79db\n      eq\n      tag_5\n      jumpi\n      dup1\n      0x0c134959\n      eq\n      tag_6\n      jumpi\n    tag_2:\n      0x00\n      dup1\n      revert\n        /* \"contracts/manifold/lazyclaim/ERC721LazyClaim.sol\":2098:2401  function supportsInterface(bytes4 interfaceId) public view virtual override(IERC165) returns (bool) {... */\n    tag_3:\n      tag_13\n      0x04\n      dup1\n      calldatasize\n      sub\n      dup2\n      add\n      swap1\n      tag_14\n      swap2\n      swap1\n      tag_15\n      jump\t// in\n    tag_14:\n      tag_16\n      jump\t// in\n    tag_13:\n      mload(0x40)\n      tag_17\n      swap2\n      swap1\n      tag_18\n      jump\t// in\n    tag_17:\n      mload(0x40)\n      dup1\n      swap2\n      sub\n      swap1\n      return\n        /* \"contracts/manifold/lazyclaim/ERC721LazyClaim.sol\":8507:8690  function getTokenClaim(address creatorContractAddress, uint256 tokenId) external override view returns(uint256) {... */\n    tag_4:\n      tag_19\n      0x04\n      dup1\n      calldatasize\n      sub\n      dup2\n      add\n      swap1\n      tag_20\n      swap2\n      swap1\n      tag_21\n      jump\t// in\n    tag_20:\n      tag_22\n      jump\t// in\n    tag_19:\n      mload(0x40)\n      tag_23\n      swap2\n      swap1\n      tag_24\n      jump\t// in\n    tag_23:\n      mload(0x40)\n      dup1\n      swap2\n      sub\n      swap1\n      return\n        /* \"contracts/manifold/lazyclaim/ERC721LazyClaim.sol\":3299:4807  function initializeClaim(... */\n    tag_5:\n      tag_25\n      0x04\n      dup1\n      calldatasize\n      sub\n      dup2\n      add\n      swap1\n      tag_26\n      swap2\n      swap1\n      tag_27\n      jump\t// in\n    tag_26:\n      tag_28\n      jump\t// in\n    tag_25:\n      mload(0x40)\n      tag_29\n      swap2\n      swap1\n      tag_24\n      jump\t// in\n    tag_29:\n      mload(0x40)\n      dup1\n      swap2\n      sub\n      swap1\n      return\n        /* \"contracts/manifold/lazyclaim/ERC721LazyClaim.sol\":11459:13991  function mint(address creatorContractAddress, uint256 claimIndex, bytes32[] calldata merkleProof, uint32 minterValue) external override returns (uint256) {... */\n    tag_6:\n      tag_30\n      0x04\n      dup1\n      calldatasize\n      sub\n      dup2\n      add\n      swap1\n      tag_31\n      swap2\n      swap1\n      tag_32\n      jump\t// in\n    tag_31:\n      tag_33\n      jump\t// in\n    tag_30:\n      mload(0x40)\n      tag_34\n      swap2\n      swap1\n      tag_24\n      jump\t// in\n    tag_34:\n      mload(0x40)\n      dup1\n      swap2\n      sub\n      swap1\n      return\n        /* \"contracts/manifold/lazyclaim/ERC721LazyClaim.sol\":7300:7595  function getClaim(address creatorContractAddress, uint256 claimIndex) external override view returns(Claim memory) {... */\n    tag_7:\n      tag_35\n      0x04\n      dup1\n      calldatasize\n      sub\n      dup2\n      add\n      swap1\n      tag_36\n      swap2\n      swap1\n      tag_21\n      jump\t// in\n    tag_36:\n      tag_37\n      jump\t// in\n    tag_35:\n      mload(0x40)\n      tag_38\n      swap2\n      swap1\n      tag_39\n      jump\t// in\n    tag_38:\n      mload(0x40)\n      dup1\n      swap2\n      sub\n      swap1\n      return\n        /* \"contracts/manifold/lazyclaim/ERC721LazyClaim.sol\":7906:8256  function getWalletMinted(address creatorContractAddress, uint256 claimIndex, address walletAddress) external override view returns(uint32) {... */\n    tag_8:\n      tag_40\n      0x04\n      dup1\n      calldatasize\n      sub\n      dup2\n      add\n      swap1\n      tag_41\n      swap2\n      swap1\n      tag_42\n      jump\t// in\n    tag_41:\n      tag_43\n      jump\t// in\n    tag_40:\n      mload(0x40)\n      tag_44\n      swap2\n      swap1\n      tag_45\n      jump\t// in\n    tag_44:\n      mload(0x40)\n      dup1\n      swap2\n      sub\n      swap1\n      return\n        /* \"contracts/manifold/lazyclaim/ERC721LazyClaim.sol\":5159:6648  function overwriteClaim(... */\n    tag_9:\n      tag_46\n      0x04\n      dup1\n      calldatasize\n      sub\n      dup2\n      add\n      swap1\n      tag_47\n      swap2\n      swap1\n      tag_48\n      jump\t// in\n    tag_47:\n      tag_49\n      jump\t// in\n    tag_46:\n      stop\n        /* \"contracts/manifold/lazyclaim/ERC721LazyClaim.sol\":6898:7052  function getClaimCount(address creatorContractAddress) external override view returns(uint256) {... */\n    tag_10:\n      tag_50\n      0x04\n      dup1\n      calldatasize\n      sub\n      dup2\n      add\n      swap1\n      tag_51\n      swap2\n      swap1\n      tag_52\n      jump\t// in\n    tag_51:\n      tag_53\n      jump\t// in\n    tag_50:\n      mload(0x40)\n      tag_54\n      swap2\n      swap1\n      tag_24\n      jump\t// in\n    tag_54:\n      mload(0x40)\n      dup1\n      swap2\n      sub\n      swap1\n      return\n        /* \"contracts/manifold/lazyclaim/ERC721LazyClaim.sol\":14344:15645  function tokenURI(address creatorContractAddress, uint256 tokenId) external override view returns(string memory) {... */\n    tag_11:\n      tag_55\n      0x04\n      dup1\n      calldatasize\n      sub\n      dup2\n      add\n      swap1\n      tag_56\n      swap2\n      swap1\n      tag_21\n      jump\t// in\n    tag_56:\n      tag_57\n      jump\t// in\n    tag_55:\n      mload(0x40)\n      tag_58\n      swap2\n      swap1\n      tag_59\n      jump\t// in\n    tag_58:\n      mload(0x40)\n      dup1\n      swap2\n      sub\n      swap1\n      return\n        /* \"contracts/manifold/lazyclaim/ERC721LazyClaim.sol\":2098:2401  function supportsInterface(bytes4 interfaceId) public view virtual override(IERC165) returns (bool) {... */\n    tag_16:\n        /* \"contracts/manifold/lazyclaim/ERC721LazyClaim.sol\":2192:2196  bool */\n      0x00\n        /* \"contracts/manifold/lazyclaim/ERC721LazyClaim.sol\":2230:2264  type(IERC721LazyClaim).interfaceId */\n      0x9e8b4d4a00000000000000000000000000000000000000000000000000000000\n        /* \"contracts/manifold/lazyclaim/ERC721LazyClaim.sol\":2215:2264  interfaceId == type(IERC721LazyClaim).interfaceId */\n      not(0xffffffffffffffffffffffffffffffffffffffffffffffffffffffff)\n      and\n        /* \"contracts/manifold/lazyclaim/ERC721LazyClaim.sol\":2215:2226  interfaceId */\n      dup3\n        /* \"contracts/manifold/lazyclaim/ERC721LazyClaim.sol\":2215:2264  interfaceId == type(IERC721LazyClaim).interfaceId */\n      not(0xffffffffffffffffffffffffffffffffffffffffffffffffffffffff)\n      and\n      eq\n        /* \"contracts/manifold/lazyclaim/ERC721LazyClaim.sol\":2215:2338  interfaceId == type(IERC721LazyClaim).interfaceId ||... */\n      dup1\n      tag_61\n      jumpi\n      pop\n        /* \"contracts/manifold/lazyclaim/ERC721LazyClaim.sol\":2295:2338  type(ICreatorExtensionTokenURI).interfaceId */\n      0xe9dc637500000000000000000000000000000000000000000000000000000000\n        /* \"contracts/manifold/lazyclaim/ERC721LazyClaim.sol\":2280:2338  interfaceId == type(ICreatorExtensionTokenURI).interfaceId */\n      not(0xffffffffffffffffffffffffffffffffffffffffffffffffffffffff)\n      and\n        /* \"contracts/manifold/lazyclaim/ERC721LazyClaim.sol\":2280:2291  interfaceId */\n      dup3\n        /* \"contracts/manifold/lazyclaim/ERC721LazyClaim.sol\":2280:2338  interfaceId == type(ICreatorExtensionTokenURI).interfaceId */\n      not(0xffffffffffffffffffffffffffffffffffffffffffffffffffffffff)\n      and\n      eq\n        /* \"contracts/manifold/lazyclaim/ERC721LazyClaim.sol\":2215:2338  interfaceId == type(IERC721LazyClaim).interfaceId ||... */\n    tag_61:\n        /* \"contracts/manifold/lazyclaim/ERC721LazyClaim.sol\":2215:2394  interfaceId == type(IERC721LazyClaim).interfaceId ||... */\n      dup1\n      tag_62\n      jumpi\n      pop\n        /* \"contracts/manifold/lazyclaim/ERC721LazyClaim.sol\":2369:2394  type(IERC165).interfaceId */\n      0x01ffc9a700000000000000000000000000000000000000000000000000000000\n        /* \"contracts/manifold/lazyclaim/ERC721LazyClaim.sol\":2354:2394  interfaceId == type(IERC165).interfaceId */\n      not(0xffffffffffffffffffffffffffffffffffffffffffffffffffffffff)\n      and\n        /* \"contracts/manifold/lazyclaim/ERC721LazyClaim.sol\":2354:2365  interfaceId */\n      dup3\n        /* \"contracts/manifold/lazyclaim/ERC721LazyClaim.sol\":2354:2394  interfaceId == type(IERC165).interfaceId */\n      not(0xffffffffffffffffffffffffffffffffffffffffffffffffffffffff)\n      and\n      eq\n        /* \"contracts/manifold/lazyclaim/ERC721LazyClaim.sol\":2215:2394  interfaceId == type(IERC721LazyClaim).interfaceId ||... */\n    tag_62:\n        /* \"contracts/manifold/lazyclaim/ERC721LazyClaim.sol\":2208:2394  return interfaceId == type(IERC721LazyClaim).interfaceId ||... */\n      swap1\n      pop\n        /* \"contracts/manifold/lazyclaim/ERC721LazyClaim.sol\":2098:2401  function supportsInterface(bytes4 interfaceId) public view virtual override(IERC165) returns (bool) {... */\n      swap2\n      swap1\n      pop\n      jump\t// out\n        /* \"contracts/manifold/lazyclaim/ERC721LazyClaim.sol\":8507:8690  function getTokenClaim(address creatorContractAddress, uint256 tokenId) external override view returns(uint256) {... */\n    tag_22:\n        /* \"contracts/manifold/lazyclaim/ERC721LazyClaim.sol\":8610:8617  uint256 */\n      0x00\n        /* \"contracts/manifold/lazyclaim/ERC721LazyClaim.sol\":8636:8683  _getTokenClaim(creatorContractAddress, tokenId) */\n      tag_64\n        /* \"contracts/manifold/lazyclaim/ERC721LazyClaim.sol\":8651:8673  creatorContractAddress */\n      dup4\n        /* \"contracts/manifold/lazyclaim/ERC721LazyClaim.sol\":8675:8682  tokenId */\n      dup4\n        /* \"contracts/manifold/lazyclaim/ERC721LazyClaim.sol\":8636:8650  _getTokenClaim */\n      tag_65\n        /* \"contracts/manifold/lazyclaim/ERC721LazyClaim.sol\":8636:8683  _getTokenClaim(creatorContractAddress, tokenId) */\n      jump\t// in\n    tag_64:\n        /* \"contracts/manifold/lazyclaim/ERC721LazyClaim.sol\":8629:8683  return _getTokenClaim(creatorContractAddress, tokenId) */\n      swap1\n      pop\n        /* \"contracts/manifold/lazyclaim/ERC721LazyClaim.sol\":8507:8690  function getTokenClaim(address creatorContractAddress, uint256 tokenId) external override view returns(uint256) {... */\n      swap3\n      swap2\n      pop\n      pop\n      jump\t// out\n        /* \"contracts/manifold/lazyclaim/ERC721LazyClaim.sol\":3299:4807  function initializeClaim(... */\n    tag_28:\n        /* \"contracts/manifold/lazyclaim/ERC721LazyClaim.sol\":3492:3499  uint256 */\n      0x00\n        /* \"contracts/manifold/lazyclaim/ERC721LazyClaim.sol\":3459:3481  creatorContractAddress */\n      dup3\n        /* \"contracts/manifold/lazyclaim/ERC721LazyClaim.sol\":2749:2781  AdminControl creatorCoreContract */\n      0x00\n        /* \"contracts/manifold/lazyclaim/ERC721LazyClaim.sol\":2797:2819  creatorContractAddress */\n      dup2\n        /* \"contracts/manifold/lazyclaim/ERC721LazyClaim.sol\":2749:2820  AdminControl creatorCoreContract = AdminControl(creatorContractAddress) */\n      swap1\n      pop\n        /* \"contracts/manifold/lazyclaim/ERC721LazyClaim.sol\":2838:2857  creatorCoreContract */\n      dup1\n        /* \"contracts/manifold/lazyclaim/ERC721LazyClaim.sol\":2838:2865  creatorCoreContract.isAdmin */\n      0xffffffffffffffffffffffffffffffffffffffff\n      and\n      0x24d7806c\n        /* \"contracts/manifold/lazyclaim/ERC721LazyClaim.sol\":2866:2876  msg.sender */\n      caller\n        /* \"contracts/manifold/lazyclaim/ERC721LazyClaim.sol\":2838:2877  creatorCoreContract.isAdmin(msg.sender) */\n      mload(0x40)\n      dup3\n      0xffffffff\n      and\n      0xe0\n      shl\n      dup2\n      mstore\n      0x04\n      add\n      tag_67\n      swap2\n      swap1\n      tag_68\n      jump\t// in\n    tag_67:\n      0x20\n      mload(0x40)\n      dup1\n      dup4\n      sub\n      dup2\n      dup7\n      dup1\n      extcodesize\n      iszero\n      dup1\n      iszero\n      tag_69\n      jumpi\n      0x00\n      dup1\n      revert\n    tag_69:\n      pop\n      gas\n      staticcall\n      iszero\n      dup1\n      iszero\n      tag_71\n      jumpi\n      returndatasize\n      0x00\n      dup1\n      returndatacopy\n      revert(0x00, returndatasize)\n    tag_71:\n      pop\n      pop\n      pop\n      pop\n      mload(0x40)\n      returndatasize\n      not(0x1f)\n      0x1f\n      dup3\n      add\n      and\n      dup3\n      add\n      dup1\n      0x40\n      mstore\n      pop\n      dup2\n      add\n      swap1\n      tag_72\n      swap2\n      swap1\n      tag_73\n      jump\t// in\n    tag_72:\n        /* \"contracts/manifold/lazyclaim/ERC721LazyClaim.sol\":2830:2925  require(creatorCoreContract.isAdmin(msg.sender), \"Wallet is not an administrator for contract\") */\n      tag_74\n      jumpi\n      mload(0x40)\n      0x08c379a000000000000000000000000000000000000000000000000000000000\n      dup2\n      mstore\n      0x04\n      add\n      tag_75\n      swap1\n      tag_76\n      jump\t// in\n    tag_75:\n      mload(0x40)\n      dup1\n      swap2\n      sub\n      swap1\n      revert\n    tag_74:\n        /* \"contracts/manifold/lazyclaim/ERC721LazyClaim.sol\":3586:3587  0 */\n      0x00\n        /* \"contracts/manifold/lazyclaim/ERC721LazyClaim.sol\":3550:3565  claimParameters */\n      dup5\n        /* \"contracts/manifold/lazyclaim/ERC721LazyClaim.sol\":3550:3574  claimParameters.location */\n      dup1\n      0xe0\n      add\n      swap1\n      tag_78\n      swap2\n      swap1\n      tag_79\n      jump\t// in\n    tag_78:\n        /* \"contracts/manifold/lazyclaim/ERC721LazyClaim.sol\":3544:3582  bytes(claimParameters.location).length */\n      swap1\n      pop\n        /* \"contracts/manifold/lazyclaim/ERC721LazyClaim.sol\":3544:3587  bytes(claimParameters.location).length != 0 */\n      eq\n      iszero\n        /* \"contracts/manifold/lazyclaim/ERC721LazyClaim.sol\":3536:3629  require(bytes(claimParameters.location).length != 0, \"Cannot initialize with empty location\") */\n      tag_80\n      jumpi\n      mload(0x40)\n      0x08c379a000000000000000000000000000000000000000000000000000000000\n      dup2\n      mstore\n      0x04\n      add\n      tag_81\n      swap1\n      tag_82\n      jump\t// in\n    tag_81:\n      mload(0x40)\n      dup1\n      swap2\n      sub\n      swap1\n      revert\n    tag_80:\n        /* \"contracts/manifold/lazyclaim/ERC721LazyClaim.sol\":3682:3705  StorageProtocol.INVALID */\n      0x00\n        /* \"contracts/manifold/lazyclaim/ERC721LazyClaim.sol\":3647:3705  claimParameters.storageProtocol != StorageProtocol.INVALID */\n      0x03\n      dup2\n      gt\n      iszero\n      tag_83\n      jumpi\n      mstore(0x00, 0x4e487b7100000000000000000000000000000000000000000000000000000000)\n      mstore(0x04, 0x21)\n      revert(0x00, 0x24)\n    tag_83:\n        /* \"contracts/manifold/lazyclaim/ERC721LazyClaim.sol\":3647:3662  claimParameters */\n      dup5\n        /* \"contracts/manifold/lazyclaim/ERC721LazyClaim.sol\":3647:3678  claimParameters.storageProtocol */\n      0x80\n      add\n      0x20\n      dup2\n      add\n      swap1\n      tag_84\n      swap2\n      swap1\n      tag_85\n      jump\t// in\n    tag_84:\n        /* \"contracts/manifold/lazyclaim/ERC721LazyClaim.sol\":3647:3705  claimParameters.storageProtocol != StorageProtocol.INVALID */\n      0x03\n      dup2\n      gt\n      iszero\n      tag_86\n      jumpi\n      mstore(0x00, 0x4e487b7100000000000000000000000000000000000000000000000000000000)\n      mstore(0x04, 0x21)\n      revert(0x00, 0x24)\n    tag_86:\n      eq\n      iszero\n        /* \"contracts/manifold/lazyclaim/ERC721LazyClaim.sol\":3639:3757  require(claimParameters.storageProtocol != StorageProtocol.INVALID, \"Cannot initialize with invalid storage protocol\") */\n      tag_87\n      jumpi\n      mload(0x40)\n      0x08c379a000000000000000000000000000000000000000000000000000000000\n      dup2\n      mstore\n      0x04\n      add\n      tag_88\n      swap1\n      tag_89\n      jump\t// in\n    tag_88:\n      mload(0x40)\n      dup1\n      swap2\n      sub\n      swap1\n      revert\n    tag_87:\n        /* \"contracts/manifold/lazyclaim/ERC721LazyClaim.sol\":3802:3803  0 */\n      0x00\n        /* \"contracts/manifold/lazyclaim/ERC721LazyClaim.sol\":3775:3790  claimParameters */\n      dup5\n        /* \"contracts/manifold/lazyclaim/ERC721LazyClaim.sol\":3775:3798  claimParameters.endDate */\n      0x60\n      add\n      0x20\n      dup2\n      add\n      swap1\n      tag_90\n      swap2\n      swap1\n      tag_91\n      jump\t// in\n    tag_90:\n        /* \"contracts/manifold/lazyclaim/ERC721LazyClaim.sol\":3775:3803  claimParameters.endDate == 0 */\n      0xffffffffffff\n      and\n      eq\n        /* \"contracts/manifold/lazyclaim/ERC721LazyClaim.sol\":3775:3858  claimParameters.endDate == 0 || claimParameters.startDate < claimParameters.endDate */\n      dup1\n      tag_92\n      jumpi\n      pop\n        /* \"contracts/manifold/lazyclaim/ERC721LazyClaim.sol\":3835:3850  claimParameters */\n      dup4\n        /* \"contracts/manifold/lazyclaim/ERC721LazyClaim.sol\":3835:3858  claimParameters.endDate */\n      0x60\n      add\n      0x20\n      dup2\n      add\n      swap1\n      tag_93\n      swap2\n      swap1\n      tag_91\n      jump\t// in\n    tag_93:\n        /* \"contracts/manifold/lazyclaim/ERC721LazyClaim.sol\":3807:3858  claimParameters.startDate < claimParameters.endDate */\n      0xffffffffffff\n      and\n        /* \"contracts/manifold/lazyclaim/ERC721LazyClaim.sol\":3807:3822  claimParameters */\n      dup5\n        /* \"contracts/manifold/lazyclaim/ERC721LazyClaim.sol\":3807:3832  claimParameters.startDate */\n      0x40\n      add\n      0x20\n      dup2\n      add\n      swap1\n      tag_94\n      swap2\n      swap1\n      tag_91\n      jump\t// in\n    tag_94:\n        /* \"contracts/manifold/lazyclaim/ERC721LazyClaim.sol\":3807:3858  claimParameters.startDate < claimParameters.endDate */\n      0xffffffffffff\n      and\n      lt\n        /* \"contracts/manifold/lazyclaim/ERC721LazyClaim.sol\":3775:3858  claimParameters.endDate == 0 || claimParameters.startDate < claimParameters.endDate */\n    tag_92:\n        /* \"contracts/manifold/lazyclaim/ERC721LazyClaim.sol\":3767:3917  require(claimParameters.endDate == 0 || claimParameters.startDate < claimParameters.endDate, \"Cannot have startDate greater than or equal to endDate\") */\n      tag_95\n      jumpi\n      mload(0x40)\n      0x08c379a000000000000000000000000000000000000000000000000000000000\n      dup2\n      mstore\n      0x04\n      add\n      tag_96\n      swap1\n      tag_97\n      jump\t// in\n    tag_96:\n      mload(0x40)\n      dup1\n      swap2\n      sub\n      swap1\n      revert\n    tag_95:\n        /* \"contracts/manifold/lazyclaim/ERC721LazyClaim.sol\":3962:3967  10000 */\n      0x2710\n        /* \"contracts/manifold/lazyclaim/ERC721LazyClaim.sol\":3935:3950  claimParameters */\n      dup5\n        /* \"contracts/manifold/lazyclaim/ERC721LazyClaim.sol\":3935:3959  claimParameters.totalMax */\n      0x00\n      add\n      0x20\n      dup2\n      add\n      swap1\n      tag_98\n      swap2\n      swap1\n      tag_99\n      jump\t// in\n    tag_98:\n        /* \"contracts/manifold/lazyclaim/ERC721LazyClaim.sol\":3935:3967  claimParameters.totalMax < 10000 */\n      0xffffffff\n      and\n      lt\n        /* \"contracts/manifold/lazyclaim/ERC721LazyClaim.sol\":3927:4011  require(claimParameters.totalMax < 10000, \"Cannot have totalMax greater than 10000\") */\n      tag_100\n      jumpi\n      mload(0x40)\n      0x08c379a000000000000000000000000000000000000000000000000000000000\n      dup2\n      mstore\n      0x04\n      add\n      tag_101\n      swap1\n      tag_102\n      jump\t// in\n    tag_101:\n      mload(0x40)\n      dup1\n      swap2\n      sub\n      swap1\n      revert\n    tag_100:\n        /* \"contracts/manifold/lazyclaim/ERC721LazyClaim.sol\":4069:4080  claimCounts */\n      0x01\n        /* \"contracts/manifold/lazyclaim/ERC721LazyClaim.sol\":4069:4104  claimCounts[creatorContractAddress] */\n      0x00\n        /* \"contracts/manifold/lazyclaim/ERC721LazyClaim.sol\":4081:4103  creatorContractAddress */\n      dup7\n        /* \"contracts/manifold/lazyclaim/ERC721LazyClaim.sol\":4069:4104  claimCounts[creatorContractAddress] */\n      0xffffffffffffffffffffffffffffffffffffffff\n      and\n      0xffffffffffffffffffffffffffffffffffffffff\n      and\n      dup2\n      mstore\n      0x20\n      add\n      swap1\n      dup2\n      mstore\n      0x20\n      add\n      0x00\n      keccak256\n      0x00\n        /* \"contracts/manifold/lazyclaim/ERC721LazyClaim.sol\":4069:4106  claimCounts[creatorContractAddress]++ */\n      dup2\n      sload\n      dup1\n      swap3\n      swap2\n      swap1\n      tag_103\n      swap1\n      tag_104\n      jump\t// in\n    tag_103:\n      swap2\n      swap1\n      pop\n      sstore\n      pop\n        /* \"contracts/manifold/lazyclaim/ERC721LazyClaim.sol\":4116:4132  uint256 newIndex */\n      0x00\n        /* \"contracts/manifold/lazyclaim/ERC721LazyClaim.sol\":4135:4146  claimCounts */\n      0x01\n        /* \"contracts/manifold/lazyclaim/ERC721LazyClaim.sol\":4135:4170  claimCounts[creatorContractAddress] */\n      0x00\n        /* \"contracts/manifold/lazyclaim/ERC721LazyClaim.sol\":4147:4169  creatorContractAddress */\n      dup8\n        /* \"contracts/manifold/lazyclaim/ERC721LazyClaim.sol\":4135:4170  claimCounts[creatorContractAddress] */\n      0xffffffffffffffffffffffffffffffffffffffff\n      and\n      0xffffffffffffffffffffffffffffffffffffffff\n      and\n      dup2\n      mstore\n      0x20\n      add\n      swap1\n      dup2\n      mstore\n      0x20\n      add\n      0x00\n      keccak256\n      sload\n        /* \"contracts/manifold/lazyclaim/ERC721LazyClaim.sol\":4116:4170  uint256 newIndex = claimCounts[creatorContractAddress] */\n      swap1\n      pop\n        /* \"contracts/manifold/lazyclaim/ERC721LazyClaim.sol\":4252:4697  Claim({... */\n      mload(0x40)\n      dup1\n      0x0120\n      add\n      0x40\n      mstore\n      dup1\n        /* \"contracts/manifold/lazyclaim/ERC721LazyClaim.sol\":4279:4280  0 */\n      0x00\n        /* \"contracts/manifold/lazyclaim/ERC721LazyClaim.sol\":4252:4697  Claim({... */\n      0xffffffff\n      and\n      dup2\n      mstore\n      0x20\n      add\n        /* \"contracts/manifold/lazyclaim/ERC721LazyClaim.sol\":4304:4319  claimParameters */\n      dup7\n        /* \"contracts/manifold/lazyclaim/ERC721LazyClaim.sol\":4304:4328  claimParameters.totalMax */\n      0x00\n      add\n      0x20\n      dup2\n      add\n      swap1\n      tag_105\n      swap2\n      swap1\n      tag_99\n      jump\t// in\n    tag_105:\n        /* \"contracts/manifold/lazyclaim/ERC721LazyClaim.sol\":4252:4697  Claim({... */\n      0xffffffff\n      and\n      dup2\n      mstore\n      0x20\n      add\n        /* \"contracts/manifold/lazyclaim/ERC721LazyClaim.sol\":4353:4368  claimParameters */\n      dup7\n        /* \"contracts/manifold/lazyclaim/ERC721LazyClaim.sol\":4353:4378  claimParameters.walletMax */\n      0x20\n      add\n      0x20\n      dup2\n      add\n      swap1\n      tag_106\n      swap2\n      swap1\n      tag_99\n      jump\t// in\n    tag_106:\n        /* \"contracts/manifold/lazyclaim/ERC721LazyClaim.sol\":4252:4697  Claim({... */\n      0xffffffff\n      and\n      dup2\n      mstore\n      0x20\n      add\n        /* \"contracts/manifold/lazyclaim/ERC721LazyClaim.sol\":4403:4418  claimParameters */\n      dup7\n        /* \"contracts/manifold/lazyclaim/ERC721LazyClaim.sol\":4403:4428  claimParameters.startDate */\n      0x40\n      add\n      0x20\n      dup2\n      add\n      swap1\n      tag_107\n      swap2\n      swap1\n      tag_91\n      jump\t// in\n    tag_107:\n        /* \"contracts/manifold/lazyclaim/ERC721LazyClaim.sol\":4252:4697  Claim({... */\n      0xffffffffffff\n      and\n      dup2\n      mstore\n      0x20\n      add\n        /* \"contracts/manifold/lazyclaim/ERC721LazyClaim.sol\":4451:4466  claimParameters */\n      dup7\n        /* \"contracts/manifold/lazyclaim/ERC721LazyClaim.sol\":4451:4474  claimParameters.endDate */\n      0x60\n      add\n      0x20\n      dup2\n      add\n      swap1\n      tag_108\n      swap2\n      swap1\n      tag_91\n      jump\t// in\n    tag_108:\n        /* \"contracts/manifold/lazyclaim/ERC721LazyClaim.sol\":4252:4697  Claim({... */\n      0xffffffffffff\n      and\n      dup2\n      mstore\n      0x20\n      add\n        /* \"contracts/manifold/lazyclaim/ERC721LazyClaim.sol\":4505:4520  claimParameters */\n      dup7\n        /* \"contracts/manifold/lazyclaim/ERC721LazyClaim.sol\":4505:4536  claimParameters.storageProtocol */\n      0x80\n      add\n      0x20\n      dup2\n      add\n      swap1\n      tag_109\n      swap2\n      swap1\n      tag_85\n      jump\t// in\n    tag_109:\n        /* \"contracts/manifold/lazyclaim/ERC721LazyClaim.sol\":4252:4697  Claim({... */\n      0x03\n      dup2\n      gt\n      iszero\n      tag_110\n      jumpi\n      mstore(0x00, 0x4e487b7100000000000000000000000000000000000000000000000000000000)\n      mstore(0x04, 0x21)\n      revert(0x00, 0x24)\n    tag_110:\n      dup2\n      mstore\n      0x20\n      add\n        /* \"contracts/manifold/lazyclaim/ERC721LazyClaim.sol\":4561:4576  claimParameters */\n      dup7\n        /* \"contracts/manifold/lazyclaim/ERC721LazyClaim.sol\":4561:4586  claimParameters.identical */\n      0xa0\n      add\n      0x20\n      dup2\n      add\n      swap1\n      tag_111\n      swap2\n      swap1\n      tag_112\n      jump\t// in\n    tag_111:\n        /* \"contracts/manifold/lazyclaim/ERC721LazyClaim.sol\":4252:4697  Claim({... */\n      iszero\n      iszero\n      dup2\n      mstore\n      0x20\n      add\n        /* \"contracts/manifold/lazyclaim/ERC721LazyClaim.sol\":4612:4627  claimParameters */\n      dup7\n        /* \"contracts/manifold/lazyclaim/ERC721LazyClaim.sol\":4612:4638  claimParameters.merkleRoot */\n      0xc0\n      add\n      calldataload\n        /* \"contracts/manifold/lazyclaim/ERC721LazyClaim.sol\":4252:4697  Claim({... */\n      dup2\n      mstore\n      0x20\n      add\n        /* \"contracts/manifold/lazyclaim/ERC721LazyClaim.sol\":4662:4677  claimParameters */\n      dup7\n        /* \"contracts/manifold/lazyclaim/ERC721LazyClaim.sol\":4662:4686  claimParameters.location */\n      dup1\n      0xe0\n      add\n      swap1\n      tag_113\n      swap2\n      swap1\n      tag_79\n      jump\t// in\n    tag_113:\n        /* \"contracts/manifold/lazyclaim/ERC721LazyClaim.sol\":4252:4697  Claim({... */\n      dup1\n      dup1\n      0x1f\n      add\n      0x20\n      dup1\n      swap2\n      div\n      mul\n      0x20\n      add\n      mload(0x40)\n      swap1\n      dup2\n      add\n      0x40\n      mstore\n      dup1\n      swap4\n      swap3\n      swap2\n      swap1\n      dup2\n      dup2\n      mstore\n      0x20\n      add\n      dup4\n      dup4\n      dup1\n      dup3\n      dup5\n      calldatacopy\n      0x00\n      dup2\n      dup5\n      add\n      mstore\n      not(0x1f)\n      0x1f\n      dup3\n      add\n      and\n      swap1\n      pop\n      dup1\n      dup4\n      add\n      swap3\n      pop\n      pop\n      pop\n      pop\n      pop\n      pop\n      pop\n      dup2\n      mstore\n      pop\n        /* \"contracts/manifold/lazyclaim/ERC721LazyClaim.sol\":4209:4215  claims */\n      0x02\n        /* \"contracts/manifold/lazyclaim/ERC721LazyClaim.sol\":4209:4239  claims[creatorContractAddress] */\n      0x00\n        /* \"contracts/manifold/lazyclaim/ERC721LazyClaim.sol\":4216:4238  creatorContractAddress */\n      dup9\n        /* \"contracts/manifold/lazyclaim/ERC721LazyClaim.sol\":4209:4239  claims[creatorContractAddress] */\n      0xffffffffffffffffffffffffffffffffffffffff\n      and\n      0xffffffffffffffffffffffffffffffffffffffff\n      and\n      dup2\n      mstore\n      0x20\n      add\n      swap1\n      dup2\n      mstore\n      0x20\n      add\n      0x00\n      keccak256\n        /* \"contracts/manifold/lazyclaim/ERC721LazyClaim.sol\":4209:4249  claims[creatorContractAddress][newIndex] */\n      0x00\n        /* \"contracts/manifold/lazyclaim/ERC721LazyClaim.sol\":4240:4248  newIndex */\n      dup4\n        /* \"contracts/manifold/lazyclaim/ERC721LazyClaim.sol\":4209:4249  claims[creatorContractAddress][newIndex] */\n      dup2\n      mstore\n      0x20\n      add\n      swap1\n      dup2\n      mstore\n      0x20\n      add\n      0x00\n      keccak256\n        /* \"contracts/manifold/lazyclaim/ERC721LazyClaim.sol\":4209:4697  claims[creatorContractAddress][newIndex] = Claim({... */\n      0x00\n      dup3\n      add\n      mload\n      dup2\n      0x00\n      add\n      exp(0x0100, 0x00)\n      dup2\n      sload\n      dup2\n      0xffffffff\n      mul\n      not\n      and\n      swap1\n      dup4\n      0xffffffff\n      and\n      mul\n      or\n      swap1\n      sstore\n      pop\n      0x20\n      dup3\n      add\n      mload\n      dup2\n      0x00\n      add\n      exp(0x0100, 0x04)\n      dup2\n      sload\n      dup2\n      0xffffffff\n      mul\n      not\n      and\n      swap1\n      dup4\n      0xffffffff\n      and\n      mul\n      or\n      swap1\n      sstore\n      pop\n      0x40\n      dup3\n      add\n      mload\n      dup2\n      0x00\n      add\n      exp(0x0100, 0x08)\n      dup2\n      sload\n      dup2\n      0xffffffff\n      mul\n      not\n      and\n      swap1\n      dup4\n      0xffffffff\n      and\n      mul\n      or\n      swap1\n      sstore\n      pop\n      0x60\n      dup3\n      add\n      mload\n      dup2\n      0x00\n      add\n      exp(0x0100, 0x0c)\n      dup2\n      sload\n      dup2\n      0xffffffffffff\n      mul\n      not\n      and\n      swap1\n      dup4\n      0xffffffffffff\n      and\n      mul\n      or\n      swap1\n      sstore\n      pop\n      0x80\n      dup3\n      add\n      mload\n      dup2\n      0x00\n      add\n      exp(0x0100, 0x12)\n      dup2\n      sload\n      dup2\n      0xffffffffffff\n      mul\n      not\n      and\n      swap1\n      dup4\n      0xffffffffffff\n      and\n      mul\n      or\n      swap1\n      sstore\n      pop\n      0xa0\n      dup3\n      add\n      mload\n      dup2\n      0x00\n      add\n      exp(0x0100, 0x18)\n      dup2\n      sload\n      dup2\n      0xff\n      mul\n      not\n      and\n      swap1\n      dup4\n      0x03\n      dup2\n      gt\n      iszero\n      tag_114\n      jumpi\n      mstore(0x00, 0x4e487b7100000000000000000000000000000000000000000000000000000000)\n      mstore(0x04, 0x21)\n      revert(0x00, 0x24)\n    tag_114:\n      mul\n      or\n      swap1\n      sstore\n      pop\n      0xc0\n      dup3\n      add\n      mload\n      dup2\n      0x00\n      add\n      exp(0x0100, 0x19)\n      dup2\n      sload\n      dup2\n      0xff\n      mul\n      not\n      and\n      swap1\n      dup4\n      iszero\n      iszero\n      mul\n      or\n      swap1\n      sstore\n      pop\n      0xe0\n      dup3\n      add\n      mload\n      dup2\n      0x01\n      add\n      sstore\n      0x0100\n      dup3\n      add\n      mload\n      dup2\n      0x02\n      add\n      swap1\n      dup1\n      mload\n      swap1\n      0x20\n      add\n      swap1\n      tag_115\n      swap3\n      swap2\n      swap1\n      tag_116\n      jump\t// in\n    tag_115:\n      pop\n      swap1\n      pop\n      pop\n        /* \"contracts/manifold/lazyclaim/ERC721LazyClaim.sol\":4754:4762  newIndex */\n      dup1\n        /* \"contracts/manifold/lazyclaim/ERC721LazyClaim.sol\":4730:4752  creatorContractAddress */\n      dup7\n        /* \"contracts/manifold/lazyclaim/ERC721LazyClaim.sol\":4713:4775  ClaimInitialized(creatorContractAddress, newIndex, msg.sender) */\n      0xffffffffffffffffffffffffffffffffffffffff\n      and\n      0xd02727da4c6c6c111e00310108209a4de39f6817414df43ca1a10730d47c6a34\n        /* \"contracts/manifold/lazyclaim/ERC721LazyClaim.sol\":4764:4774  msg.sender */\n      caller\n        /* \"contracts/manifold/lazyclaim/ERC721LazyClaim.sol\":4713:4775  ClaimInitialized(creatorContractAddress, newIndex, msg.sender) */\n      mload(0x40)\n      tag_117\n      swap2\n      swap1\n      tag_68\n      jump\t// in\n    tag_117:\n      mload(0x40)\n      dup1\n      swap2\n      sub\n      swap1\n      log3\n        /* \"contracts/manifold/lazyclaim/ERC721LazyClaim.sol\":4792:4800  newIndex */\n      dup1\n        /* \"contracts/manifold/lazyclaim/ERC721LazyClaim.sol\":4785:4800  return newIndex */\n      swap4\n      pop\n      pop\n        /* \"contracts/manifold/lazyclaim/ERC721LazyClaim.sol\":3299:4807  function initializeClaim(... */\n      pop\n      pop\n      swap3\n      swap2\n      pop\n      pop\n      jump\t// out\n        /* \"contracts/manifold/lazyclaim/ERC721LazyClaim.sol\":11459:13991  function mint(address creatorContractAddress, uint256 claimIndex, bytes32[] calldata merkleProof, uint32 minterValue) external override returns (uint256) {... */\n    tag_33:\n        /* \"contracts/manifold/lazyclaim/ERC721LazyClaim.sol\":11604:11611  uint256 */\n      0x00\n        /* \"contracts/manifold/lazyclaim/ERC721LazyClaim.sol\":11623:11642  Claim storage claim */\n      dup1\n        /* \"contracts/manifold/lazyclaim/ERC721LazyClaim.sol\":11645:11651  claims */\n      0x02\n        /* \"contracts/manifold/lazyclaim/ERC721LazyClaim.sol\":11645:11675  claims[creatorContractAddress] */\n      0x00\n        /* \"contracts/manifold/lazyclaim/ERC721LazyClaim.sol\":11652:11674  creatorContractAddress */\n      dup9\n        /* \"contracts/manifold/lazyclaim/ERC721LazyClaim.sol\":11645:11675  claims[creatorContractAddress] */\n      0xffffffffffffffffffffffffffffffffffffffff\n      and\n      0xffffffffffffffffffffffffffffffffffffffff\n      and\n      dup2\n      mstore\n      0x20\n      add\n      swap1\n      dup2\n      mstore\n      0x20\n      add\n      0x00\n      keccak256\n        /* \"contracts/manifold/lazyclaim/ERC721LazyClaim.sol\":11645:11687  claims[creatorContractAddress][claimIndex] */\n      0x00\n        /* \"contracts/manifold/lazyclaim/ERC721LazyClaim.sol\":11676:11686  claimIndex */\n      dup8\n        /* \"contracts/manifold/lazyclaim/ERC721LazyClaim.sol\":11645:11687  claims[creatorContractAddress][claimIndex] */\n      dup2\n      mstore\n      0x20\n      add\n      swap1\n      dup2\n      mstore\n      0x20\n      add\n      0x00\n      keccak256\n        /* \"contracts/manifold/lazyclaim/ERC721LazyClaim.sol\":11623:11687  Claim storage claim = claims[creatorContractAddress][claimIndex] */\n      swap1\n      pop\n        /* \"contracts/manifold/lazyclaim/ERC721LazyClaim.sol\":11767:11790  StorageProtocol.INVALID */\n      0x00\n        /* \"contracts/manifold/lazyclaim/ERC721LazyClaim.sol\":11742:11790  claim.storageProtocol != StorageProtocol.INVALID */\n      0x03\n      dup2\n      gt\n      iszero\n      tag_119\n      jumpi\n      mstore(0x00, 0x4e487b7100000000000000000000000000000000000000000000000000000000)\n      mstore(0x04, 0x21)\n      revert(0x00, 0x24)\n    tag_119:\n        /* \"contracts/manifold/lazyclaim/ERC721LazyClaim.sol\":11742:11747  claim */\n      dup2\n        /* \"contracts/manifold/lazyclaim/ERC721LazyClaim.sol\":11742:11763  claim.storageProtocol */\n      0x00\n      add\n      0x18\n      swap1\n      sload\n      swap1\n      0x0100\n      exp\n      swap1\n      div\n      0xff\n      and\n        /* \"contracts/manifold/lazyclaim/ERC721LazyClaim.sol\":11742:11790  claim.storageProtocol != StorageProtocol.INVALID */\n      0x03\n      dup2\n      gt\n      iszero\n      tag_120\n      jumpi\n      mstore(0x00, 0x4e487b7100000000000000000000000000000000000000000000000000000000)\n      mstore(0x04, 0x21)\n      revert(0x00, 0x24)\n    tag_120:\n      eq\n      iszero\n        /* \"contracts/manifold/lazyclaim/ERC721LazyClaim.sol\":11734:11816  require(claim.storageProtocol != StorageProtocol.INVALID, \"Claim not initialized\") */\n      tag_121\n      jumpi\n      mload(0x40)\n      0x08c379a000000000000000000000000000000000000000000000000000000000\n      dup2\n      mstore\n      0x04\n      add\n      tag_122\n      swap1\n      tag_123\n      jump\t// in\n    tag_122:\n      mload(0x40)\n      dup1\n      swap2\n      sub\n      swap1\n      revert\n    tag_121:\n        /* \"contracts/manifold/lazyclaim/ERC721LazyClaim.sol\":11882:11883  0 */\n      0x00\n        /* \"contracts/manifold/lazyclaim/ERC721LazyClaim.sol\":11863:11868  claim */\n      dup2\n        /* \"contracts/manifold/lazyclaim/ERC721LazyClaim.sol\":11863:11878  claim.startDate */\n      0x00\n      add\n      0x0c\n      swap1\n      sload\n      swap1\n      0x0100\n      exp\n      swap1\n      div\n      0xffffffffffff\n      and\n        /* \"contracts/manifold/lazyclaim/ERC721LazyClaim.sol\":11863:11883  claim.startDate == 0 */\n      0xffffffffffff\n      and\n      eq\n        /* \"contracts/manifold/lazyclaim/ERC721LazyClaim.sol\":11863:11920  claim.startDate == 0 || claim.startDate < block.timestamp */\n      dup1\n      tag_124\n      jumpi\n      pop\n        /* \"contracts/manifold/lazyclaim/ERC721LazyClaim.sol\":11905:11920  block.timestamp */\n      timestamp\n        /* \"contracts/manifold/lazyclaim/ERC721LazyClaim.sol\":11887:11892  claim */\n      dup2\n        /* \"contracts/manifold/lazyclaim/ERC721LazyClaim.sol\":11887:11902  claim.startDate */\n      0x00\n      add\n      0x0c\n      swap1\n      sload\n      swap1\n      0x0100\n      exp\n      swap1\n      div\n      0xffffffffffff\n      and\n        /* \"contracts/manifold/lazyclaim/ERC721LazyClaim.sol\":11887:11920  claim.startDate < block.timestamp */\n      0xffffffffffff\n      and\n      lt\n        /* \"contracts/manifold/lazyclaim/ERC721LazyClaim.sol\":11863:11920  claim.startDate == 0 || claim.startDate < block.timestamp */\n    tag_124:\n        /* \"contracts/manifold/lazyclaim/ERC721LazyClaim.sol\":11855:11954  require(claim.startDate == 0 || claim.startDate < block.timestamp, \"Transaction before start date\") */\n      tag_125\n      jumpi\n      mload(0x40)\n      0x08c379a000000000000000000000000000000000000000000000000000000000\n      dup2\n      mstore\n      0x04\n      add\n      tag_126\n      swap1\n      tag_127\n      jump\t// in\n    tag_126:\n      mload(0x40)\n      dup1\n      swap2\n      sub\n      swap1\n      revert\n    tag_125:\n        /* \"contracts/manifold/lazyclaim/ERC721LazyClaim.sol\":11989:11990  0 */\n      0x00\n        /* \"contracts/manifold/lazyclaim/ERC721LazyClaim.sol\":11972:11977  claim */\n      dup2\n        /* \"contracts/manifold/lazyclaim/ERC721LazyClaim.sol\":11972:11985  claim.endDate */\n      0x00\n      add\n      0x12\n      swap1\n      sload\n      swap1\n      0x0100\n      exp\n      swap1\n      div\n      0xffffffffffff\n      and\n        /* \"contracts/manifold/lazyclaim/ERC721LazyClaim.sol\":11972:11990  claim.endDate == 0 */\n      0xffffffffffff\n      and\n      eq\n        /* \"contracts/manifold/lazyclaim/ERC721LazyClaim.sol\":11972:12026  claim.endDate == 0 || claim.endDate >= block.timestamp */\n      dup1\n      tag_128\n      jumpi\n      pop\n        /* \"contracts/manifold/lazyclaim/ERC721LazyClaim.sol\":12011:12026  block.timestamp */\n      timestamp\n        /* \"contracts/manifold/lazyclaim/ERC721LazyClaim.sol\":11994:11999  claim */\n      dup2\n        /* \"contracts/manifold/lazyclaim/ERC721LazyClaim.sol\":11994:12007  claim.endDate */\n      0x00\n      add\n      0x12\n      swap1\n      sload\n      swap1\n      0x0100\n      exp\n      swap1\n      div\n      0xffffffffffff\n      and\n        /* \"contracts/manifold/lazyclaim/ERC721LazyClaim.sol\":11994:12026  claim.endDate >= block.timestamp */\n      0xffffffffffff\n      and\n      lt\n      iszero\n        /* \"contracts/manifold/lazyclaim/ERC721LazyClaim.sol\":11972:12026  claim.endDate == 0 || claim.endDate >= block.timestamp */\n    tag_128:\n        /* \"contracts/manifold/lazyclaim/ERC721LazyClaim.sol\":11964:12057  require(claim.endDate == 0 || claim.endDate >= block.timestamp, \"Transaction after end date\") */\n      tag_129\n      jumpi\n      mload(0x40)\n      0x08c379a000000000000000000000000000000000000000000000000000000000\n      dup2\n      mstore\n      0x04\n      add\n      tag_130\n      swap1\n      tag_131\n      jump\t// in\n    tag_130:\n      mload(0x40)\n      dup1\n      swap2\n      sub\n      swap1\n      revert\n    tag_129:\n        /* \"contracts/manifold/lazyclaim/ERC721LazyClaim.sol\":12120:12121  0 */\n      0x00\n        /* \"contracts/manifold/lazyclaim/ERC721LazyClaim.sol\":12102:12107  claim */\n      dup2\n        /* \"contracts/manifold/lazyclaim/ERC721LazyClaim.sol\":12102:12116  claim.totalMax */\n      0x00\n      add\n      0x04\n      swap1\n      sload\n      swap1\n      0x0100\n      exp\n      swap1\n      div\n      0xffffffff\n      and\n        /* \"contracts/manifold/lazyclaim/ERC721LazyClaim.sol\":12102:12121  claim.totalMax == 0 */\n      0xffffffff\n      and\n      eq\n        /* \"contracts/manifold/lazyclaim/ERC721LazyClaim.sol\":12102:12153  claim.totalMax == 0 || claim.total < claim.totalMax */\n      dup1\n      tag_132\n      jumpi\n      pop\n        /* \"contracts/manifold/lazyclaim/ERC721LazyClaim.sol\":12139:12144  claim */\n      dup1\n        /* \"contracts/manifold/lazyclaim/ERC721LazyClaim.sol\":12139:12153  claim.totalMax */\n      0x00\n      add\n      0x04\n      swap1\n      sload\n      swap1\n      0x0100\n      exp\n      swap1\n      div\n      0xffffffff\n      and\n        /* \"contracts/manifold/lazyclaim/ERC721LazyClaim.sol\":12125:12153  claim.total < claim.totalMax */\n      0xffffffff\n      and\n        /* \"contracts/manifold/lazyclaim/ERC721LazyClaim.sol\":12125:12130  claim */\n      dup2\n        /* \"contracts/manifold/lazyclaim/ERC721LazyClaim.sol\":12125:12136  claim.total */\n      0x00\n      add\n      0x00\n      swap1\n      sload\n      swap1\n      0x0100\n      exp\n      swap1\n      div\n      0xffffffff\n      and\n        /* \"contracts/manifold/lazyclaim/ERC721LazyClaim.sol\":12125:12153  claim.total < claim.totalMax */\n      0xffffffff\n      and\n      lt\n        /* \"contracts/manifold/lazyclaim/ERC721LazyClaim.sol\":12102:12153  claim.totalMax == 0 || claim.total < claim.totalMax */\n    tag_132:\n        /* \"contracts/manifold/lazyclaim/ERC721LazyClaim.sol\":12094:12202  require(claim.totalMax == 0 || claim.total < claim.totalMax, \"Maximum tokens already minted for this claim\") */\n      tag_133\n      jumpi\n      mload(0x40)\n      0x08c379a000000000000000000000000000000000000000000000000000000000\n      dup2\n      mstore\n      0x04\n      add\n      tag_134\n      swap1\n      tag_135\n      jump\t// in\n    tag_134:\n      mload(0x40)\n      dup1\n      swap2\n      sub\n      swap1\n      revert\n    tag_133:\n        /* \"contracts/manifold/lazyclaim/ERC721LazyClaim.sol\":12248:12270  claim.merkleRoot != \"\" */\n      0x00\n        /* \"contracts/manifold/lazyclaim/ERC721LazyClaim.sol\":12248:12253  claim */\n      dup2\n        /* \"contracts/manifold/lazyclaim/ERC721LazyClaim.sol\":12248:12264  claim.merkleRoot */\n      0x01\n      add\n      sload\n        /* \"contracts/manifold/lazyclaim/ERC721LazyClaim.sol\":12248:12270  claim.merkleRoot != \"\" */\n      eq\n        /* \"contracts/manifold/lazyclaim/ERC721LazyClaim.sol\":12244:13380  if (claim.merkleRoot != \"\") {... */\n      tag_136\n      jumpi\n        /* \"contracts/manifold/lazyclaim/ERC721LazyClaim.sol\":12286:12298  bytes32 leaf */\n      0x00\n        /* \"contracts/manifold/lazyclaim/ERC721LazyClaim.sol\":12328:12338  msg.sender */\n      caller\n        /* \"contracts/manifold/lazyclaim/ERC721LazyClaim.sol\":12340:12351  minterValue */\n      dup5\n        /* \"contracts/manifold/lazyclaim/ERC721LazyClaim.sol\":12311:12352  abi.encodePacked(msg.sender, minterValue) */\n      add(0x20, mload(0x40))\n      tag_137\n      swap3\n      swap2\n      swap1\n      tag_138\n      jump\t// in\n    tag_137:\n      mload(0x40)\n      0x20\n      dup2\n      dup4\n      sub\n      sub\n      dup2\n      mstore\n      swap1\n      0x40\n      mstore\n        /* \"contracts/manifold/lazyclaim/ERC721LazyClaim.sol\":12301:12353  keccak256(abi.encodePacked(msg.sender, minterValue)) */\n      dup1\n      mload\n      swap1\n      0x20\n      add\n      keccak256\n        /* \"contracts/manifold/lazyclaim/ERC721LazyClaim.sol\":12286:12353  bytes32 leaf = keccak256(abi.encodePacked(msg.sender, minterValue)) */\n      swap1\n      pop\n        /* \"contracts/manifold/lazyclaim/ERC721LazyClaim.sol\":12375:12430  MerkleProof.verify(merkleProof, claim.merkleRoot, leaf) */\n      tag_139\n        /* \"contracts/manifold/lazyclaim/ERC721LazyClaim.sol\":12394:12405  merkleProof */\n      dup7\n      dup7\n        /* \"contracts/manifold/lazyclaim/ERC721LazyClaim.sol\":12375:12430  MerkleProof.verify(merkleProof, claim.merkleRoot, leaf) */\n      dup1\n      dup1\n      0x20\n      mul\n      0x20\n      add\n      mload(0x40)\n      swap1\n      dup2\n      add\n      0x40\n      mstore\n      dup1\n      swap4\n      swap3\n      swap2\n      swap1\n      dup2\n      dup2\n      mstore\n      0x20\n      add\n      dup4\n      dup4\n      0x20\n      mul\n      dup1\n      dup3\n      dup5\n      calldatacopy\n      0x00\n      dup2\n      dup5\n      add\n      mstore\n      not(0x1f)\n      0x1f\n      dup3\n      add\n      and\n      swap1\n      pop\n      dup1\n      dup4\n      add\n      swap3\n      pop\n      pop\n      pop\n      pop\n      pop\n      pop\n      pop\n        /* \"contracts/manifold/lazyclaim/ERC721LazyClaim.sol\":12407:12412  claim */\n      dup4\n        /* \"contracts/manifold/lazyclaim/ERC721LazyClaim.sol\":12407:12423  claim.merkleRoot */\n      0x01\n      add\n      sload\n        /* \"contracts/manifold/lazyclaim/ERC721LazyClaim.sol\":12425:12429  leaf */\n      dup4\n        /* \"contracts/manifold/lazyclaim/ERC721LazyClaim.sol\":12375:12393  MerkleProof.verify */\n      tag_140\n        /* \"contracts/manifold/lazyclaim/ERC721LazyClaim.sol\":12375:12430  MerkleProof.verify(merkleProof, claim.merkleRoot, leaf) */\n      jump\t// in\n    tag_139:\n        /* \"contracts/manifold/lazyclaim/ERC721LazyClaim.sol\":12367:12464  require(MerkleProof.verify(merkleProof, claim.merkleRoot, leaf), \"Could not verify merkle proof\") */\n      tag_141\n      jumpi\n      mload(0x40)\n      0x08c379a000000000000000000000000000000000000000000000000000000000\n      dup2\n      mstore\n      0x04\n      add\n      tag_142\n      swap1\n      tag_143\n      jump\t// in\n    tag_142:\n      mload(0x40)\n      dup1\n      swap2\n      sub\n      swap1\n      revert\n    tag_141:\n        /* \"contracts/manifold/lazyclaim/ERC721LazyClaim.sol\":12498:12499  0 */\n      0x00\n        /* \"contracts/manifold/lazyclaim/ERC721LazyClaim.sol\":12483:12494  minterValue */\n      dup5\n        /* \"contracts/manifold/lazyclaim/ERC721LazyClaim.sol\":12483:12499  minterValue != 0 */\n      0xffffffff\n      and\n      eq\n        /* \"contracts/manifold/lazyclaim/ERC721LazyClaim.sol\":12479:13122  if (minterValue != 0) {... */\n      tag_144\n      jumpi\n        /* \"contracts/manifold/lazyclaim/ERC721LazyClaim.sol\":12519:12536  uint256 mintCount */\n      0x00\n        /* \"contracts/manifold/lazyclaim/ERC721LazyClaim.sol\":12539:12553  mintsPerWallet */\n      0x03\n        /* \"contracts/manifold/lazyclaim/ERC721LazyClaim.sol\":12539:12577  mintsPerWallet[creatorContractAddress] */\n      0x00\n        /* \"contracts/manifold/lazyclaim/ERC721LazyClaim.sol\":12554:12576  creatorContractAddress */\n      dup11\n        /* \"contracts/manifold/lazyclaim/ERC721LazyClaim.sol\":12539:12577  mintsPerWallet[creatorContractAddress] */\n      0xffffffffffffffffffffffffffffffffffffffff\n      and\n      0xffffffffffffffffffffffffffffffffffffffff\n      and\n      dup2\n      mstore\n      0x20\n      add\n      swap1\n      dup2\n      mstore\n      0x20\n      add\n      0x00\n      keccak256\n        /* \"contracts/manifold/lazyclaim/ERC721LazyClaim.sol\":12539:12589  mintsPerWallet[creatorContractAddress][claimIndex] */\n      0x00\n        /* \"contracts/manifold/lazyclaim/ERC721LazyClaim.sol\":12578:12588  claimIndex */\n      dup10\n        /* \"contracts/manifold/lazyclaim/ERC721LazyClaim.sol\":12539:12589  mintsPerWallet[creatorContractAddress][claimIndex] */\n      dup2\n      mstore\n      0x20\n      add\n      swap1\n      dup2\n      mstore\n      0x20\n      add\n      0x00\n      keccak256\n        /* \"contracts/manifold/lazyclaim/ERC721LazyClaim.sol\":12539:12601  mintsPerWallet[creatorContractAddress][claimIndex][msg.sender] */\n      0x00\n        /* \"contracts/manifold/lazyclaim/ERC721LazyClaim.sol\":12590:12600  msg.sender */\n      caller\n        /* \"contracts/manifold/lazyclaim/ERC721LazyClaim.sol\":12539:12601  mintsPerWallet[creatorContractAddress][claimIndex][msg.sender] */\n      0xffffffffffffffffffffffffffffffffffffffff\n      and\n      0xffffffffffffffffffffffffffffffffffffffff\n      and\n      dup2\n      mstore\n      0x20\n      add\n      swap1\n      dup2\n      mstore\n      0x20\n      add\n      0x00\n      keccak256\n      sload\n        /* \"contracts/manifold/lazyclaim/ERC721LazyClaim.sol\":12519:12601  uint256 mintCount = mintsPerWallet[creatorContractAddress][claimIndex][msg.sender] */\n      swap1\n      pop\n        /* \"contracts/manifold/lazyclaim/ERC721LazyClaim.sol\":12722:12723  0 */\n      0x00\n        /* \"contracts/manifold/lazyclaim/ERC721LazyClaim.sol\":12703:12708  claim */\n      dup4\n        /* \"contracts/manifold/lazyclaim/ERC721LazyClaim.sol\":12703:12718  claim.walletMax */\n      0x00\n      add\n      0x08\n      swap1\n      sload\n      swap1\n      0x0100\n      exp\n      swap1\n      div\n      0xffffffff\n      and\n        /* \"contracts/manifold/lazyclaim/ERC721LazyClaim.sol\":12703:12723  claim.walletMax == 0 */\n      0xffffffff\n      and\n      eq\n        /* \"contracts/manifold/lazyclaim/ERC721LazyClaim.sol\":12703:12754  claim.walletMax == 0 || mintCount < claim.walletMax */\n      dup1\n      tag_145\n      jumpi\n      pop\n        /* \"contracts/manifold/lazyclaim/ERC721LazyClaim.sol\":12739:12744  claim */\n      dup3\n        /* \"contracts/manifold/lazyclaim/ERC721LazyClaim.sol\":12739:12754  claim.walletMax */\n      0x00\n      add\n      0x08\n      swap1\n      sload\n      swap1\n      0x0100\n      exp\n      swap1\n      div\n      0xffffffff\n      and\n        /* \"contracts/manifold/lazyclaim/ERC721LazyClaim.sol\":12727:12754  mintCount < claim.walletMax */\n      0xffffffff\n      and\n        /* \"contracts/manifold/lazyclaim/ERC721LazyClaim.sol\":12727:12736  mintCount */\n      dup2\n        /* \"contracts/manifold/lazyclaim/ERC721LazyClaim.sol\":12727:12754  mintCount < claim.walletMax */\n      lt\n        /* \"contracts/manifold/lazyclaim/ERC721LazyClaim.sol\":12703:12754  claim.walletMax == 0 || mintCount < claim.walletMax */\n    tag_145:\n        /* \"contracts/manifold/lazyclaim/ERC721LazyClaim.sol\":12702:12782  (claim.walletMax == 0 || mintCount < claim.walletMax) && mintCount < minterValue */\n      dup1\n      iszero\n      tag_146\n      jumpi\n      pop\n        /* \"contracts/manifold/lazyclaim/ERC721LazyClaim.sol\":12771:12782  minterValue */\n      dup5\n        /* \"contracts/manifold/lazyclaim/ERC721LazyClaim.sol\":12759:12782  mintCount < minterValue */\n      0xffffffff\n      and\n        /* \"contracts/manifold/lazyclaim/ERC721LazyClaim.sol\":12759:12768  mintCount */\n      dup2\n        /* \"contracts/manifold/lazyclaim/ERC721LazyClaim.sol\":12759:12782  mintCount < minterValue */\n      lt\n        /* \"contracts/manifold/lazyclaim/ERC721LazyClaim.sol\":12702:12782  (claim.walletMax == 0 || mintCount < claim.walletMax) && mintCount < minterValue */\n    tag_146:\n        /* \"contracts/manifold/lazyclaim/ERC721LazyClaim.sol\":12694:12847  require((claim.walletMax == 0 || mintCount < claim.walletMax) && mintCount < minterValue, \"Maximum tokens already minted for this wallet per allocation\") */\n      tag_147\n      jumpi\n      mload(0x40)\n      0x08c379a000000000000000000000000000000000000000000000000000000000\n      dup2\n      mstore\n      0x04\n      add\n      tag_148\n      swap1\n      tag_149\n      jump\t// in\n    tag_148:\n      mload(0x40)\n      dup1\n      swap2\n      sub\n      swap1\n      revert\n    tag_147:\n        /* \"contracts/manifold/lazyclaim/ERC721LazyClaim.sol\":12479:13122  if (minterValue != 0) {... */\n      pop\n      jump(tag_150)\n    tag_144:\n        /* \"contracts/manifold/lazyclaim/ERC721LazyClaim.sol\":12972:12973  0 */\n      0x00\n        /* \"contracts/manifold/lazyclaim/ERC721LazyClaim.sol\":12953:12958  claim */\n      dup3\n        /* \"contracts/manifold/lazyclaim/ERC721LazyClaim.sol\":12953:12968  claim.walletMax */\n      0x00\n      add\n      0x08\n      swap1\n      sload\n      swap1\n      0x0100\n      exp\n      swap1\n      div\n      0xffffffff\n      and\n        /* \"contracts/manifold/lazyclaim/ERC721LazyClaim.sol\":12953:12973  claim.walletMax == 0 */\n      0xffffffff\n      and\n      eq\n        /* \"contracts/manifold/lazyclaim/ERC721LazyClaim.sol\":12953:13057  claim.walletMax == 0 || mintsPerWallet[creatorContractAddress][claimIndex][msg.sender] < claim.walletMax */\n      dup1\n      tag_151\n      jumpi\n      pop\n        /* \"contracts/manifold/lazyclaim/ERC721LazyClaim.sol\":13042:13047  claim */\n      dup2\n        /* \"contracts/manifold/lazyclaim/ERC721LazyClaim.sol\":13042:13057  claim.walletMax */\n      0x00\n      add\n      0x08\n      swap1\n      sload\n      swap1\n      0x0100\n      exp\n      swap1\n      div\n      0xffffffff\n      and\n        /* \"contracts/manifold/lazyclaim/ERC721LazyClaim.sol\":12977:13057  mintsPerWallet[creatorContractAddress][claimIndex][msg.sender] < claim.walletMax */\n      0xffffffff\n      and\n        /* \"contracts/manifold/lazyclaim/ERC721LazyClaim.sol\":12977:12991  mintsPerWallet */\n      0x03\n        /* \"contracts/manifold/lazyclaim/ERC721LazyClaim.sol\":12977:13015  mintsPerWallet[creatorContractAddress] */\n      0x00\n        /* \"contracts/manifold/lazyclaim/ERC721LazyClaim.sol\":12992:13014  creatorContractAddress */\n      dup11\n        /* \"contracts/manifold/lazyclaim/ERC721LazyClaim.sol\":12977:13015  mintsPerWallet[creatorContractAddress] */\n      0xffffffffffffffffffffffffffffffffffffffff\n      and\n      0xffffffffffffffffffffffffffffffffffffffff\n      and\n      dup2\n      mstore\n      0x20\n      add\n      swap1\n      dup2\n      mstore\n      0x20\n      add\n      0x00\n      keccak256\n        /* \"contracts/manifold/lazyclaim/ERC721LazyClaim.sol\":12977:13027  mintsPerWallet[creatorContractAddress][claimIndex] */\n      0x00\n        /* \"contracts/manifold/lazyclaim/ERC721LazyClaim.sol\":13016:13026  claimIndex */\n      dup10\n        /* \"contracts/manifold/lazyclaim/ERC721LazyClaim.sol\":12977:13027  mintsPerWallet[creatorContractAddress][claimIndex] */\n      dup2\n      mstore\n      0x20\n      add\n      swap1\n      dup2\n      mstore\n      0x20\n      add\n      0x00\n      keccak256\n        /* \"contracts/manifold/lazyclaim/ERC721LazyClaim.sol\":12977:13039  mintsPerWallet[creatorContractAddress][claimIndex][msg.sender] */\n      0x00\n        /* \"contracts/manifold/lazyclaim/ERC721LazyClaim.sol\":13028:13038  msg.sender */\n      caller\n        /* \"contracts/manifold/lazyclaim/ERC721LazyClaim.sol\":12977:13039  mintsPerWallet[creatorContractAddress][claimIndex][msg.sender] */\n      0xffffffffffffffffffffffffffffffffffffffff\n      and\n      0xffffffffffffffffffffffffffffffffffffffff\n      and\n      dup2\n      mstore\n      0x20\n      add\n      swap1\n      dup2\n      mstore\n      0x20\n      add\n      0x00\n      keccak256\n      sload\n        /* \"contracts/manifold/lazyclaim/ERC721LazyClaim.sol\":12977:13057  mintsPerWallet[creatorContractAddress][claimIndex][msg.sender] < claim.walletMax */\n      lt\n        /* \"contracts/manifold/lazyclaim/ERC721LazyClaim.sol\":12953:13057  claim.walletMax == 0 || mintsPerWallet[creatorContractAddress][claimIndex][msg.sender] < claim.walletMax */\n    tag_151:\n        /* \"contracts/manifold/lazyclaim/ERC721LazyClaim.sol\":12945:13107  require(claim.walletMax == 0 || mintsPerWallet[creatorContractAddress][claimIndex][msg.sender] < claim.walletMax, \"Maximum tokens already minted for this wallet\") */\n      tag_152\n      jumpi\n      mload(0x40)\n      0x08c379a000000000000000000000000000000000000000000000000000000000\n      dup2\n      mstore\n      0x04\n      add\n      tag_153\n      swap1\n      tag_154\n      jump\t// in\n    tag_153:\n      mload(0x40)\n      dup1\n      swap2\n      sub\n      swap1\n      revert\n    tag_152:\n        /* \"contracts/manifold/lazyclaim/ERC721LazyClaim.sol\":12479:13122  if (minterValue != 0) {... */\n    tag_150:\n        /* \"contracts/manifold/lazyclaim/ERC721LazyClaim.sol\":12244:13380  if (claim.merkleRoot != \"\") {... */\n      pop\n      jump(tag_155)\n    tag_136:\n        /* \"contracts/manifold/lazyclaim/ERC721LazyClaim.sol\":13234:13235  0 */\n      0x00\n        /* \"contracts/manifold/lazyclaim/ERC721LazyClaim.sol\":13215:13220  claim */\n      dup2\n        /* \"contracts/manifold/lazyclaim/ERC721LazyClaim.sol\":13215:13230  claim.walletMax */\n      0x00\n      add\n      0x08\n      swap1\n      sload\n      swap1\n      0x0100\n      exp\n      swap1\n      div\n      0xffffffff\n      and\n        /* \"contracts/manifold/lazyclaim/ERC721LazyClaim.sol\":13215:13235  claim.walletMax == 0 */\n      0xffffffff\n      and\n      eq\n        /* \"contracts/manifold/lazyclaim/ERC721LazyClaim.sol\":13215:13319  claim.walletMax == 0 || mintsPerWallet[creatorContractAddress][claimIndex][msg.sender] < claim.walletMax */\n      dup1\n      tag_156\n      jumpi\n      pop\n        /* \"contracts/manifold/lazyclaim/ERC721LazyClaim.sol\":13304:13309  claim */\n      dup1\n        /* \"contracts/manifold/lazyclaim/ERC721LazyClaim.sol\":13304:13319  claim.walletMax */\n      0x00\n      add\n      0x08\n      swap1\n      sload\n      swap1\n      0x0100\n      exp\n      swap1\n      div\n      0xffffffff\n      and\n        /* \"contracts/manifold/lazyclaim/ERC721LazyClaim.sol\":13239:13319  mintsPerWallet[creatorContractAddress][claimIndex][msg.sender] < claim.walletMax */\n      0xffffffff\n      and\n        /* \"contracts/manifold/lazyclaim/ERC721LazyClaim.sol\":13239:13253  mintsPerWallet */\n      0x03\n        /* \"contracts/manifold/lazyclaim/ERC721LazyClaim.sol\":13239:13277  mintsPerWallet[creatorContractAddress] */\n      0x00\n        /* \"contracts/manifold/lazyclaim/ERC721LazyClaim.sol\":13254:13276  creatorContractAddress */\n      dup10\n        /* \"contracts/manifold/lazyclaim/ERC721LazyClaim.sol\":13239:13277  mintsPerWallet[creatorContractAddress] */\n      0xffffffffffffffffffffffffffffffffffffffff\n      and\n      0xffffffffffffffffffffffffffffffffffffffff\n      and\n      dup2\n      mstore\n      0x20\n      add\n      swap1\n      dup2\n      mstore\n      0x20\n      add\n      0x00\n      keccak256\n        /* \"contracts/manifold/lazyclaim/ERC721LazyClaim.sol\":13239:13289  mintsPerWallet[creatorContractAddress][claimIndex] */\n      0x00\n        /* \"contracts/manifold/lazyclaim/ERC721LazyClaim.sol\":13278:13288  claimIndex */\n      dup9\n        /* \"contracts/manifold/lazyclaim/ERC721LazyClaim.sol\":13239:13289  mintsPerWallet[creatorContractAddress][claimIndex] */\n      dup2\n      mstore\n      0x20\n      add\n      swap1\n      dup2\n      mstore\n      0x20\n      add\n      0x00\n      keccak256\n        /* \"contracts/manifold/lazyclaim/ERC721LazyClaim.sol\":13239:13301  mintsPerWallet[creatorContractAddress][claimIndex][msg.sender] */\n      0x00\n        /* \"contracts/manifold/lazyclaim/ERC721LazyClaim.sol\":13290:13300  msg.sender */\n      caller\n        /* \"contracts/manifold/lazyclaim/ERC721LazyClaim.sol\":13239:13301  mintsPerWallet[creatorContractAddress][claimIndex][msg.sender] */\n      0xffffffffffffffffffffffffffffffffffffffff\n      and\n      0xffffffffffffffffffffffffffffffffffffffff\n      and\n      dup2\n      mstore\n      0x20\n      add\n      swap1\n      dup2\n      mstore\n      0x20\n      add\n      0x00\n      keccak256\n      sload\n        /* \"contracts/manifold/lazyclaim/ERC721LazyClaim.sol\":13239:13319  mintsPerWallet[creatorContractAddress][claimIndex][msg.sender] < claim.walletMax */\n      lt\n        /* \"contracts/manifold/lazyclaim/ERC721LazyClaim.sol\":13215:13319  claim.walletMax == 0 || mintsPerWallet[creatorContractAddress][claimIndex][msg.sender] < claim.walletMax */\n    tag_156:\n        /* \"contracts/manifold/lazyclaim/ERC721LazyClaim.sol\":13207:13369  require(claim.walletMax == 0 || mintsPerWallet[creatorContractAddress][claimIndex][msg.sender] < claim.walletMax, \"Maximum tokens already minted for this wallet\") */\n      tag_157\n      jumpi\n      mload(0x40)\n      0x08c379a000000000000000000000000000000000000000000000000000000000\n      dup2\n      mstore\n      0x04\n      add\n      tag_158\n      swap1\n      tag_154\n      jump\t// in\n    tag_158:\n      mload(0x40)\n      dup1\n      swap2\n      sub\n      swap1\n      revert\n    tag_157:\n        /* \"contracts/manifold/lazyclaim/ERC721LazyClaim.sol\":12244:13380  if (claim.merkleRoot != \"\") {... */\n    tag_155:\n        /* \"contracts/manifold/lazyclaim/ERC721LazyClaim.sol\":13409:13427  uint256 newTokenId */\n      0x00\n        /* \"contracts/manifold/lazyclaim/ERC721LazyClaim.sol\":13449:13471  creatorContractAddress */\n      dup8\n        /* \"contracts/manifold/lazyclaim/ERC721LazyClaim.sol\":13430:13486  IERC721CreatorCore(creatorContractAddress).mintExtension */\n      0xffffffffffffffffffffffffffffffffffffffff\n      and\n      0x2928ca58\n        /* \"contracts/manifold/lazyclaim/ERC721LazyClaim.sol\":13487:13497  msg.sender */\n      caller\n        /* \"contracts/manifold/lazyclaim/ERC721LazyClaim.sol\":13430:13498  IERC721CreatorCore(creatorContractAddress).mintExtension(msg.sender) */\n      mload(0x40)\n      dup3\n      0xffffffff\n      and\n      0xe0\n      shl\n      dup2\n      mstore\n      0x04\n      add\n      tag_159\n      swap2\n      swap1\n      tag_68\n      jump\t// in\n    tag_159:\n      0x20\n      mload(0x40)\n      dup1\n      dup4\n      sub\n      dup2\n      0x00\n      dup8\n      dup1\n      extcodesize\n      iszero\n      dup1\n      iszero\n      tag_160\n      jumpi\n      0x00\n      dup1\n      revert\n    tag_160:\n      pop\n      gas\n      call\n      iszero\n      dup1\n      iszero\n      tag_162\n      jumpi\n      returndatasize\n      0x00\n      dup1\n      returndatacopy\n      revert(0x00, returndatasize)\n    tag_162:\n      pop\n      pop\n      pop\n      pop\n      mload(0x40)\n      returndatasize\n      not(0x1f)\n      0x1f\n      dup3\n      add\n      and\n      dup3\n      add\n      dup1\n      0x40\n      mstore\n      pop\n      dup2\n      add\n      swap1\n      tag_163\n      swap2\n      swap1\n      tag_164\n      jump\t// in\n    tag_163:\n        /* \"contracts/manifold/lazyclaim/ERC721LazyClaim.sol\":13409:13498  uint256 newTokenId = IERC721CreatorCore(creatorContractAddress).mintExtension(msg.sender) */\n      swap1\n      pop\n        /* \"contracts/manifold/lazyclaim/ERC721LazyClaim.sol\":13598:13664  _updateIndexRanges(creatorContractAddress, claimIndex, newTokenId) */\n      tag_165\n        /* \"contracts/manifold/lazyclaim/ERC721LazyClaim.sol\":13617:13639  creatorContractAddress */\n      dup9\n        /* \"contracts/manifold/lazyclaim/ERC721LazyClaim.sol\":13641:13651  claimIndex */\n      dup9\n        /* \"contracts/manifold/lazyclaim/ERC721LazyClaim.sol\":13653:13663  newTokenId */\n      dup4\n        /* \"contracts/manifold/lazyclaim/ERC721LazyClaim.sol\":13598:13616  _updateIndexRanges */\n      tag_166\n        /* \"contracts/manifold/lazyclaim/ERC721LazyClaim.sol\":13598:13664  _updateIndexRanges(creatorContractAddress, claimIndex, newTokenId) */\n      jump\t// in\n    tag_165:\n        /* \"contracts/manifold/lazyclaim/ERC721LazyClaim.sol\":13767:13781  mintsPerWallet */\n      0x03\n        /* \"contracts/manifold/lazyclaim/ERC721LazyClaim.sol\":13767:13805  mintsPerWallet[creatorContractAddress] */\n      0x00\n        /* \"contracts/manifold/lazyclaim/ERC721LazyClaim.sol\":13782:13804  creatorContractAddress */\n      dup10\n        /* \"contracts/manifold/lazyclaim/ERC721LazyClaim.sol\":13767:13805  mintsPerWallet[creatorContractAddress] */\n      0xffffffffffffffffffffffffffffffffffffffff\n      and\n      0xffffffffffffffffffffffffffffffffffffffff\n      and\n      dup2\n      mstore\n      0x20\n      add\n      swap1\n      dup2\n      mstore\n      0x20\n      add\n      0x00\n      keccak256\n        /* \"contracts/manifold/lazyclaim/ERC721LazyClaim.sol\":13767:13817  mintsPerWallet[creatorContractAddress][claimIndex] */\n      0x00\n        /* \"contracts/manifold/lazyclaim/ERC721LazyClaim.sol\":13806:13816  claimIndex */\n      dup9\n        /* \"contracts/manifold/lazyclaim/ERC721LazyClaim.sol\":13767:13817  mintsPerWallet[creatorContractAddress][claimIndex] */\n      dup2\n      mstore\n      0x20\n      add\n      swap1\n      dup2\n      mstore\n      0x20\n      add\n      0x00\n      keccak256\n        /* \"contracts/manifold/lazyclaim/ERC721LazyClaim.sol\":13767:13829  mintsPerWallet[creatorContractAddress][claimIndex][msg.sender] */\n      0x00\n        /* \"contracts/manifold/lazyclaim/ERC721LazyClaim.sol\":13818:13828  msg.sender */\n      caller\n        /* \"contracts/manifold/lazyclaim/ERC721LazyClaim.sol\":13767:13829  mintsPerWallet[creatorContractAddress][claimIndex][msg.sender] */\n      0xffffffffffffffffffffffffffffffffffffffff\n      and\n      0xffffffffffffffffffffffffffffffffffffffff\n      and\n      dup2\n      mstore\n      0x20\n      add\n      swap1\n      dup2\n      mstore\n      0x20\n      add\n      0x00\n      keccak256\n      0x00\n        /* \"contracts/manifold/lazyclaim/ERC721LazyClaim.sol\":13767:13831  mintsPerWallet[creatorContractAddress][claimIndex][msg.sender]++ */\n      dup2\n      sload\n      dup1\n      swap3\n      swap2\n      swap1\n      0x01\n      add\n      swap2\n      swap1\n      pop\n      sstore\n      pop\n        /* \"contracts/manifold/lazyclaim/ERC721LazyClaim.sol\":13854:13859  claim */\n      dup2\n        /* \"contracts/manifold/lazyclaim/ERC721LazyClaim.sol\":13854:13865  claim.total */\n      0x00\n      add\n      0x00\n        /* \"contracts/manifold/lazyclaim/ERC721LazyClaim.sol\":13854:13867  claim.total++ */\n      dup2\n      dup2\n      swap1\n      sload\n      swap1\n      0x0100\n      exp\n      swap1\n      div\n      0xffffffff\n      and\n      dup1\n      swap3\n      swap2\n      swap1\n      0x01\n      add\n      swap2\n      swap1\n      0x0100\n      exp\n      dup2\n      sload\n      dup2\n      0xffffffff\n      mul\n      not\n      and\n      swap1\n      dup4\n      0xffffffff\n      and\n      mul\n      or\n      swap1\n      sstore\n      pop\n      pop\n        /* \"contracts/manifold/lazyclaim/ERC721LazyClaim.sol\":13922:13932  claimIndex */\n      dup7\n        /* \"contracts/manifold/lazyclaim/ERC721LazyClaim.sol\":13898:13920  creatorContractAddress */\n      dup9\n        /* \"contracts/manifold/lazyclaim/ERC721LazyClaim.sol\":13893:13957  Mint(creatorContractAddress, claimIndex, newTokenId, msg.sender) */\n      0xffffffffffffffffffffffffffffffffffffffff\n      and\n      0xdbba30eb0402b389513e87f51f4db2db80bed454384ec6925a24097c3548a02a\n        /* \"contracts/manifold/lazyclaim/ERC721LazyClaim.sol\":13934:13944  newTokenId */\n      dup4\n        /* \"contracts/manifold/lazyclaim/ERC721LazyClaim.sol\":13946:13956  msg.sender */\n      caller\n        /* \"contracts/manifold/lazyclaim/ERC721LazyClaim.sol\":13893:13957  Mint(creatorContractAddress, claimIndex, newTokenId, msg.sender) */\n      mload(0x40)\n      tag_167\n      swap3\n      swap2\n      swap1\n      tag_168\n      jump\t// in\n    tag_167:\n      mload(0x40)\n      dup1\n      swap2\n      sub\n      swap1\n      log3\n        /* \"contracts/manifold/lazyclaim/ERC721LazyClaim.sol\":13974:13984  newTokenId */\n      dup1\n        /* \"contracts/manifold/lazyclaim/ERC721LazyClaim.sol\":13967:13984  return newTokenId */\n      swap3\n      pop\n      pop\n      pop\n        /* \"contracts/manifold/lazyclaim/ERC721LazyClaim.sol\":11459:13991  function mint(address creatorContractAddress, uint256 claimIndex, bytes32[] calldata merkleProof, uint32 minterValue) external override returns (uint256) {... */\n      swap6\n      swap5\n      pop\n      pop\n      pop\n      pop\n      pop\n      jump\t// out\n        /* \"contracts/manifold/lazyclaim/ERC721LazyClaim.sol\":7300:7595  function getClaim(address creatorContractAddress, uint256 claimIndex) external override view returns(Claim memory) {... */\n    tag_37:\n        /* \"contracts/manifold/lazyclaim/ERC721LazyClaim.sol\":7401:7413  Claim memory */\n      tag_169\n      tag_170\n      jump\t// in\n    tag_169:\n        /* \"contracts/manifold/lazyclaim/ERC721LazyClaim.sol\":7502:7503  0 */\n      0x00\n        /* \"contracts/manifold/lazyclaim/ERC721LazyClaim.sol\":7439:7445  claims */\n      0x02\n        /* \"contracts/manifold/lazyclaim/ERC721LazyClaim.sol\":7439:7469  claims[creatorContractAddress] */\n      0x00\n        /* \"contracts/manifold/lazyclaim/ERC721LazyClaim.sol\":7446:7468  creatorContractAddress */\n      dup6\n        /* \"contracts/manifold/lazyclaim/ERC721LazyClaim.sol\":7439:7469  claims[creatorContractAddress] */\n      0xffffffffffffffffffffffffffffffffffffffff\n      and\n      0xffffffffffffffffffffffffffffffffffffffff\n      and\n      dup2\n      mstore\n      0x20\n      add\n      swap1\n      dup2\n      mstore\n      0x20\n      add\n      0x00\n      keccak256\n        /* \"contracts/manifold/lazyclaim/ERC721LazyClaim.sol\":7439:7481  claims[creatorContractAddress][claimIndex] */\n      0x00\n        /* \"contracts/manifold/lazyclaim/ERC721LazyClaim.sol\":7470:7480  claimIndex */\n      dup5\n        /* \"contracts/manifold/lazyclaim/ERC721LazyClaim.sol\":7439:7481  claims[creatorContractAddress][claimIndex] */\n      dup2\n      mstore\n      0x20\n      add\n      swap1\n      dup2\n      mstore\n      0x20\n      add\n      0x00\n      keccak256\n        /* \"contracts/manifold/lazyclaim/ERC721LazyClaim.sol\":7439:7490  claims[creatorContractAddress][claimIndex].location */\n      0x02\n      add\n        /* \"contracts/manifold/lazyclaim/ERC721LazyClaim.sol\":7433:7498  bytes(claims[creatorContractAddress][claimIndex].location).length */\n      dup1\n      sload\n      tag_172\n      swap1\n      tag_173\n      jump\t// in\n    tag_172:\n      swap1\n      pop\n        /* \"contracts/manifold/lazyclaim/ERC721LazyClaim.sol\":7433:7503  bytes(claims[creatorContractAddress][claimIndex].location).length != 0 */\n      eq\n      iszero\n        /* \"contracts/manifold/lazyclaim/ERC721LazyClaim.sol\":7425:7529  require(bytes(claims[creatorContractAddress][claimIndex].location).length != 0, \"Claim not initialized\") */\n      tag_174\n      jumpi\n      mload(0x40)\n      0x08c379a000000000000000000000000000000000000000000000000000000000\n      dup2\n      mstore\n      0x04\n      add\n      tag_175\n      swap1\n      tag_123\n      jump\t// in\n    tag_175:\n      mload(0x40)\n      dup1\n      swap2\n      sub\n      swap1\n      revert\n    tag_174:\n        /* \"contracts/manifold/lazyclaim/ERC721LazyClaim.sol\":7546:7552  claims */\n      0x02\n        /* \"contracts/manifold/lazyclaim/ERC721LazyClaim.sol\":7546:7576  claims[creatorContractAddress] */\n      0x00\n        /* \"contracts/manifold/lazyclaim/ERC721LazyClaim.sol\":7553:7575  creatorContractAddress */\n      dup5\n        /* \"contracts/manifold/lazyclaim/ERC721LazyClaim.sol\":7546:7576  claims[creatorContractAddress] */\n      0xffffffffffffffffffffffffffffffffffffffff\n      and\n      0xffffffffffffffffffffffffffffffffffffffff\n      and\n      dup2\n      mstore\n      0x20\n      add\n      swap1\n      dup2\n      mstore\n      0x20\n      add\n      0x00\n      keccak256\n        /* \"contracts/manifold/lazyclaim/ERC721LazyClaim.sol\":7546:7588  claims[creatorContractAddress][claimIndex] */\n      0x00\n        /* \"contracts/manifold/lazyclaim/ERC721LazyClaim.sol\":7577:7587  claimIndex */\n      dup4\n        /* \"contracts/manifold/lazyclaim/ERC721LazyClaim.sol\":7546:7588  claims[creatorContractAddress][claimIndex] */\n      dup2\n      mstore\n      0x20\n      add\n      swap1\n      dup2\n      mstore\n      0x20\n      add\n      0x00\n      keccak256\n        /* \"contracts/manifold/lazyclaim/ERC721LazyClaim.sol\":7539:7588  return claims[creatorContractAddress][claimIndex] */\n      mload(0x40)\n      dup1\n      0x0120\n      add\n      0x40\n      mstore\n      swap1\n      dup2\n      0x00\n      dup3\n      add\n      0x00\n      swap1\n      sload\n      swap1\n      0x0100\n      exp\n      swap1\n      div\n      0xffffffff\n      and\n      0xffffffff\n      and\n      0xffffffff\n      and\n      dup2\n      mstore\n      0x20\n      add\n      0x00\n      dup3\n      add\n      0x04\n      swap1\n      sload\n      swap1\n      0x0100\n      exp\n      swap1\n      div\n      0xffffffff\n      and\n      0xffffffff\n      and\n      0xffffffff\n      and\n      dup2\n      mstore\n      0x20\n      add\n      0x00\n      dup3\n      add\n      0x08\n      swap1\n      sload\n      swap1\n      0x0100\n      exp\n      swap1\n      div\n      0xffffffff\n      and\n      0xffffffff\n      and\n      0xffffffff\n      and\n      dup2\n      mstore\n      0x20\n      add\n      0x00\n      dup3\n      add\n      0x0c\n      swap1\n      sload\n      swap1\n      0x0100\n      exp\n      swap1\n      div\n      0xffffffffffff\n      and\n      0xffffffffffff\n      and\n      0xffffffffffff\n      and\n      dup2\n      mstore\n      0x20\n      add\n      0x00\n      dup3\n      add\n      0x12\n      swap1\n      sload\n      swap1\n      0x0100\n      exp\n      swap1\n      div\n      0xffffffffffff\n      and\n      0xffffffffffff\n      and\n      0xffffffffffff\n      and\n      dup2\n      mstore\n      0x20\n      add\n      0x00\n      dup3\n      add\n      0x18\n      swap1\n      sload\n      swap1\n      0x0100\n      exp\n      swap1\n      div\n      0xff\n      and\n      0x03\n      dup2\n      gt\n      iszero\n      tag_176\n      jumpi\n      mstore(0x00, 0x4e487b7100000000000000000000000000000000000000000000000000000000)\n      mstore(0x04, 0x21)\n      revert(0x00, 0x24)\n    tag_176:\n      0x03\n      dup2\n      gt\n      iszero\n      tag_177\n      jumpi\n      mstore(0x00, 0x4e487b7100000000000000000000000000000000000000000000000000000000)\n      mstore(0x04, 0x21)\n      revert(0x00, 0x24)\n    tag_177:\n      dup2\n      mstore\n      0x20\n      add\n      0x00\n      dup3\n      add\n      0x19\n      swap1\n      sload\n      swap1\n      0x0100\n      exp\n      swap1\n      div\n      0xff\n      and\n      iszero\n      iszero\n      iszero\n      iszero\n      dup2\n      mstore\n      0x20\n      add\n      0x01\n      dup3\n      add\n      sload\n      dup2\n      mstore\n      0x20\n      add\n      0x02\n      dup3\n      add\n      dup1\n      sload\n      tag_178\n      swap1\n      tag_173\n      jump\t// in\n    tag_178:\n      dup1\n      0x1f\n      add\n      0x20\n      dup1\n      swap2\n      div\n      mul\n      0x20\n      add\n      mload(0x40)\n      swap1\n      dup2\n      add\n      0x40\n      mstore\n      dup1\n      swap3\n      swap2\n      swap1\n      dup2\n      dup2\n      mstore\n      0x20\n      add\n      dup3\n      dup1\n      sload\n      tag_179\n      swap1\n      tag_173\n      jump\t// in\n    tag_179:\n      dup1\n      iszero\n      tag_180\n      jumpi\n      dup1\n      0x1f\n      lt\n      tag_181\n      jumpi\n      0x0100\n      dup1\n      dup4\n      sload\n      div\n      mul\n      dup4\n      mstore\n      swap2\n      0x20\n      add\n      swap2\n      jump(tag_180)\n    tag_181:\n      dup3\n      add\n      swap2\n      swap1\n      0x00\n      mstore\n      keccak256(0x00, 0x20)\n      swap1\n    tag_182:\n      dup2\n      sload\n      dup2\n      mstore\n      swap1\n      0x01\n      add\n      swap1\n      0x20\n      add\n      dup1\n      dup4\n      gt\n      tag_182\n      jumpi\n      dup3\n      swap1\n      sub\n      0x1f\n      and\n      dup3\n      add\n      swap2\n    tag_180:\n      pop\n      pop\n      pop\n      pop\n      pop\n      dup2\n      mstore\n      pop\n      pop\n      swap1\n      pop\n        /* \"contracts/manifold/lazyclaim/ERC721LazyClaim.sol\":7300:7595  function getClaim(address creatorContractAddress, uint256 claimIndex) external override view returns(Claim memory) {... */\n      swap3\n      swap2\n      pop\n      pop\n      jump\t// out\n        /* \"contracts/manifold/lazyclaim/ERC721LazyClaim.sol\":7906:8256  function getWalletMinted(address creatorContractAddress, uint256 claimIndex, address walletAddress) external override view returns(uint32) {... */\n    tag_43:\n        /* \"contracts/manifold/lazyclaim/ERC721LazyClaim.sol\":8037:8043  uint32 */\n      0x00\n        /* \"contracts/manifold/lazyclaim/ERC721LazyClaim.sol\":8132:8133  0 */\n      dup1\n        /* \"contracts/manifold/lazyclaim/ERC721LazyClaim.sol\":8069:8075  claims */\n      0x02\n        /* \"contracts/manifold/lazyclaim/ERC721LazyClaim.sol\":8069:8099  claims[creatorContractAddress] */\n      0x00\n        /* \"contracts/manifold/lazyclaim/ERC721LazyClaim.sol\":8076:8098  creatorContractAddress */\n      dup7\n        /* \"contracts/manifold/lazyclaim/ERC721LazyClaim.sol\":8069:8099  claims[creatorContractAddress] */\n      0xffffffffffffffffffffffffffffffffffffffff\n      and\n      0xffffffffffffffffffffffffffffffffffffffff\n      and\n      dup2\n      mstore\n      0x20\n      add\n      swap1\n      dup2\n      mstore\n      0x20\n      add\n      0x00\n      keccak256\n        /* \"contracts/manifold/lazyclaim/ERC721LazyClaim.sol\":8069:8111  claims[creatorContractAddress][claimIndex] */\n      0x00\n        /* \"contracts/manifold/lazyclaim/ERC721LazyClaim.sol\":8100:8110  claimIndex */\n      dup6\n        /* \"contracts/manifold/lazyclaim/ERC721LazyClaim.sol\":8069:8111  claims[creatorContractAddress][claimIndex] */\n      dup2\n      mstore\n      0x20\n      add\n      swap1\n      dup2\n      mstore\n      0x20\n      add\n      0x00\n      keccak256\n        /* \"contracts/manifold/lazyclaim/ERC721LazyClaim.sol\":8069:8120  claims[creatorContractAddress][claimIndex].location */\n      0x02\n      add\n        /* \"contracts/manifold/lazyclaim/ERC721LazyClaim.sol\":8063:8128  bytes(claims[creatorContractAddress][claimIndex].location).length */\n      dup1\n      sload\n      tag_184\n      swap1\n      tag_173\n      jump\t// in\n    tag_184:\n      swap1\n      pop\n        /* \"contracts/manifold/lazyclaim/ERC721LazyClaim.sol\":8063:8133  bytes(claims[creatorContractAddress][claimIndex].location).length != 0 */\n      eq\n      iszero\n        /* \"contracts/manifold/lazyclaim/ERC721LazyClaim.sol\":8055:8159  require(bytes(claims[creatorContractAddress][claimIndex].location).length != 0, \"Claim not initialized\") */\n      tag_185\n      jumpi\n      mload(0x40)\n      0x08c379a000000000000000000000000000000000000000000000000000000000\n      dup2\n      mstore\n      0x04\n      add\n      tag_186\n      swap1\n      tag_123\n      jump\t// in\n    tag_186:\n      mload(0x40)\n      dup1\n      swap2\n      sub\n      swap1\n      revert\n    tag_185:\n        /* \"contracts/manifold/lazyclaim/ERC721LazyClaim.sol\":8183:8197  mintsPerWallet */\n      0x03\n        /* \"contracts/manifold/lazyclaim/ERC721LazyClaim.sol\":8183:8221  mintsPerWallet[creatorContractAddress] */\n      0x00\n        /* \"contracts/manifold/lazyclaim/ERC721LazyClaim.sol\":8198:8220  creatorContractAddress */\n      dup6\n        /* \"contracts/manifold/lazyclaim/ERC721LazyClaim.sol\":8183:8221  mintsPerWallet[creatorContractAddress] */\n      0xffffffffffffffffffffffffffffffffffffffff\n      and\n      0xffffffffffffffffffffffffffffffffffffffff\n      and\n      dup2\n      mstore\n      0x20\n      add\n      swap1\n      dup2\n      mstore\n      0x20\n      add\n      0x00\n      keccak256\n        /* \"contracts/manifold/lazyclaim/ERC721LazyClaim.sol\":8183:8233  mintsPerWallet[creatorContractAddress][claimIndex] */\n      0x00\n        /* \"contracts/manifold/lazyclaim/ERC721LazyClaim.sol\":8222:8232  claimIndex */\n      dup5\n        /* \"contracts/manifold/lazyclaim/ERC721LazyClaim.sol\":8183:8233  mintsPerWallet[creatorContractAddress][claimIndex] */\n      dup2\n      mstore\n      0x20\n      add\n      swap1\n      dup2\n      mstore\n      0x20\n      add\n      0x00\n      keccak256\n        /* \"contracts/manifold/lazyclaim/ERC721LazyClaim.sol\":8183:8248  mintsPerWallet[creatorContractAddress][claimIndex][walletAddress] */\n      0x00\n        /* \"contracts/manifold/lazyclaim/ERC721LazyClaim.sol\":8234:8247  walletAddress */\n      dup4\n        /* \"contracts/manifold/lazyclaim/ERC721LazyClaim.sol\":8183:8248  mintsPerWallet[creatorContractAddress][claimIndex][walletAddress] */\n      0xffffffffffffffffffffffffffffffffffffffff\n      and\n      0xffffffffffffffffffffffffffffffffffffffff\n      and\n      dup2\n      mstore\n      0x20\n      add\n      swap1\n      dup2\n      mstore\n      0x20\n      add\n      0x00\n      keccak256\n      sload\n        /* \"contracts/manifold/lazyclaim/ERC721LazyClaim.sol\":8169:8249  return uint32(mintsPerWallet[creatorContractAddress][claimIndex][walletAddress]) */\n      swap1\n      pop\n        /* \"contracts/manifold/lazyclaim/ERC721LazyClaim.sol\":7906:8256  function getWalletMinted(address creatorContractAddress, uint256 claimIndex, address walletAddress) external override view returns(uint32) {... */\n      swap4\n      swap3\n      pop\n      pop\n      pop\n      jump\t// out\n        /* \"contracts/manifold/lazyclaim/ERC721LazyClaim.sol\":5159:6648  function overwriteClaim(... */\n    tag_49:\n        /* \"contracts/manifold/lazyclaim/ERC721LazyClaim.sol\":5346:5368  creatorContractAddress */\n      dup3\n        /* \"contracts/manifold/lazyclaim/ERC721LazyClaim.sol\":2749:2781  AdminControl creatorCoreContract */\n      0x00\n        /* \"contracts/manifold/lazyclaim/ERC721LazyClaim.sol\":2797:2819  creatorContractAddress */\n      dup2\n        /* \"contracts/manifold/lazyclaim/ERC721LazyClaim.sol\":2749:2820  AdminControl creatorCoreContract = AdminControl(creatorContractAddress) */\n      swap1\n      pop\n        /* \"contracts/manifold/lazyclaim/ERC721LazyClaim.sol\":2838:2857  creatorCoreContract */\n      dup1\n        /* \"contracts/manifold/lazyclaim/ERC721LazyClaim.sol\":2838:2865  creatorCoreContract.isAdmin */\n      0xffffffffffffffffffffffffffffffffffffffff\n      and\n      0x24d7806c\n        /* \"contracts/manifold/lazyclaim/ERC721LazyClaim.sol\":2866:2876  msg.sender */\n      caller\n        /* \"contracts/manifold/lazyclaim/ERC721LazyClaim.sol\":2838:2877  creatorCoreContract.isAdmin(msg.sender) */\n      mload(0x40)\n      dup3\n      0xffffffff\n      and\n      0xe0\n      shl\n      dup2\n      mstore\n      0x04\n      add\n      tag_188\n      swap2\n      swap1\n      tag_68\n      jump\t// in\n    tag_188:\n      0x20\n      mload(0x40)\n      dup1\n      dup4\n      sub\n      dup2\n      dup7\n      dup1\n      extcodesize\n      iszero\n      dup1\n      iszero\n      tag_189\n      jumpi\n      0x00\n      dup1\n      revert\n    tag_189:\n      pop\n      gas\n      staticcall\n      iszero\n      dup1\n      iszero\n      tag_191\n      jumpi\n      returndatasize\n      0x00\n      dup1\n      returndatacopy\n      revert(0x00, returndatasize)\n    tag_191:\n      pop\n      pop\n      pop\n      pop\n      mload(0x40)\n      returndatasize\n      not(0x1f)\n      0x1f\n      dup3\n      add\n      and\n      dup3\n      add\n      dup1\n      0x40\n      mstore\n      pop\n      dup2\n      add\n      swap1\n      tag_192\n      swap2\n      swap1\n      tag_73\n      jump\t// in\n    tag_192:\n        /* \"contracts/manifold/lazyclaim/ERC721LazyClaim.sol\":2830:2925  require(creatorCoreContract.isAdmin(msg.sender), \"Wallet is not an administrator for contract\") */\n      tag_193\n      jumpi\n      mload(0x40)\n      0x08c379a000000000000000000000000000000000000000000000000000000000\n      dup2\n      mstore\n      0x04\n      add\n      tag_194\n      swap1\n      tag_76\n      jump\t// in\n    tag_194:\n      mload(0x40)\n      dup1\n      swap2\n      sub\n      swap1\n      revert\n    tag_193:\n        /* \"contracts/manifold/lazyclaim/ERC721LazyClaim.sol\":5482:5483  0 */\n      0x00\n        /* \"contracts/manifold/lazyclaim/ERC721LazyClaim.sol\":5419:5425  claims */\n      0x02\n        /* \"contracts/manifold/lazyclaim/ERC721LazyClaim.sol\":5419:5449  claims[creatorContractAddress] */\n      0x00\n        /* \"contracts/manifold/lazyclaim/ERC721LazyClaim.sol\":5426:5448  creatorContractAddress */\n      dup8\n        /* \"contracts/manifold/lazyclaim/ERC721LazyClaim.sol\":5419:5449  claims[creatorContractAddress] */\n      0xffffffffffffffffffffffffffffffffffffffff\n      and\n      0xffffffffffffffffffffffffffffffffffffffff\n      and\n      dup2\n      mstore\n      0x20\n      add\n      swap1\n      dup2\n      mstore\n      0x20\n      add\n      0x00\n      keccak256\n        /* \"contracts/manifold/lazyclaim/ERC721LazyClaim.sol\":5419:5461  claims[creatorContractAddress][claimIndex] */\n      0x00\n        /* \"contracts/manifold/lazyclaim/ERC721LazyClaim.sol\":5450:5460  claimIndex */\n      dup7\n        /* \"contracts/manifold/lazyclaim/ERC721LazyClaim.sol\":5419:5461  claims[creatorContractAddress][claimIndex] */\n      dup2\n      mstore\n      0x20\n      add\n      swap1\n      dup2\n      mstore\n      0x20\n      add\n      0x00\n      keccak256\n        /* \"contracts/manifold/lazyclaim/ERC721LazyClaim.sol\":5419:5470  claims[creatorContractAddress][claimIndex].location */\n      0x02\n      add\n        /* \"contracts/manifold/lazyclaim/ERC721LazyClaim.sol\":5413:5478  bytes(claims[creatorContractAddress][claimIndex].location).length */\n      dup1\n      sload\n      tag_196\n      swap1\n      tag_173\n      jump\t// in\n    tag_196:\n      swap1\n      pop\n        /* \"contracts/manifold/lazyclaim/ERC721LazyClaim.sol\":5413:5483  bytes(claims[creatorContractAddress][claimIndex].location).length != 0 */\n      eq\n      iszero\n        /* \"contracts/manifold/lazyclaim/ERC721LazyClaim.sol\":5405:5524  require(bytes(claims[creatorContractAddress][claimIndex].location).length != 0, \"Cannot overwrite uninitialized claim\") */\n      tag_197\n      jumpi\n      mload(0x40)\n      0x08c379a000000000000000000000000000000000000000000000000000000000\n      dup2\n      mstore\n      0x04\n      add\n      tag_198\n      swap1\n      tag_199\n      jump\t// in\n    tag_198:\n      mload(0x40)\n      dup1\n      swap2\n      sub\n      swap1\n      revert\n    tag_197:\n        /* \"contracts/manifold/lazyclaim/ERC721LazyClaim.sol\":5577:5600  StorageProtocol.INVALID */\n      0x00\n        /* \"contracts/manifold/lazyclaim/ERC721LazyClaim.sol\":5542:5600  claimParameters.storageProtocol != StorageProtocol.INVALID */\n      0x03\n      dup2\n      gt\n      iszero\n      tag_200\n      jumpi\n      mstore(0x00, 0x4e487b7100000000000000000000000000000000000000000000000000000000)\n      mstore(0x04, 0x21)\n      revert(0x00, 0x24)\n    tag_200:\n        /* \"contracts/manifold/lazyclaim/ERC721LazyClaim.sol\":5542:5557  claimParameters */\n      dup4\n        /* \"contracts/manifold/lazyclaim/ERC721LazyClaim.sol\":5542:5573  claimParameters.storageProtocol */\n      0x80\n      add\n      0x20\n      dup2\n      add\n      swap1\n      tag_201\n      swap2\n      swap1\n      tag_85\n      jump\t// in\n    tag_201:\n        /* \"contracts/manifold/lazyclaim/ERC721LazyClaim.sol\":5542:5600  claimParameters.storageProtocol != StorageProtocol.INVALID */\n      0x03\n      dup2\n      gt\n      iszero\n      tag_202\n      jumpi\n      mstore(0x00, 0x4e487b7100000000000000000000000000000000000000000000000000000000)\n      mstore(0x04, 0x21)\n      revert(0x00, 0x24)\n    tag_202:\n      eq\n      iszero\n        /* \"contracts/manifold/lazyclaim/ERC721LazyClaim.sol\":5534:5640  require(claimParameters.storageProtocol != StorageProtocol.INVALID, \"Cannot set invalid storage protocol\") */\n      tag_203\n      jumpi\n      mload(0x40)\n      0x08c379a000000000000000000000000000000000000000000000000000000000\n      dup2\n      mstore\n      0x04\n      add\n      tag_204\n      swap1\n      tag_205\n      jump\t// in\n    tag_204:\n      mload(0x40)\n      dup1\n      swap2\n      sub\n      swap1\n      revert\n    tag_203:\n        /* \"contracts/manifold/lazyclaim/ERC721LazyClaim.sol\":5713:5728  claimParameters */\n      dup3\n        /* \"contracts/manifold/lazyclaim/ERC721LazyClaim.sol\":5713:5737  claimParameters.totalMax */\n      0x00\n      add\n      0x20\n      dup2\n      add\n      swap1\n      tag_206\n      swap2\n      swap1\n      tag_99\n      jump\t// in\n    tag_206:\n        /* \"contracts/manifold/lazyclaim/ERC721LazyClaim.sol\":5658:5737  claims[creatorContractAddress][claimIndex].totalMax == claimParameters.totalMax */\n      0xffffffff\n      and\n        /* \"contracts/manifold/lazyclaim/ERC721LazyClaim.sol\":5658:5664  claims */\n      0x02\n        /* \"contracts/manifold/lazyclaim/ERC721LazyClaim.sol\":5658:5688  claims[creatorContractAddress] */\n      0x00\n        /* \"contracts/manifold/lazyclaim/ERC721LazyClaim.sol\":5665:5687  creatorContractAddress */\n      dup8\n        /* \"contracts/manifold/lazyclaim/ERC721LazyClaim.sol\":5658:5688  claims[creatorContractAddress] */\n      0xffffffffffffffffffffffffffffffffffffffff\n      and\n      0xffffffffffffffffffffffffffffffffffffffff\n      and\n      dup2\n      mstore\n      0x20\n      add\n      swap1\n      dup2\n      mstore\n      0x20\n      add\n      0x00\n      keccak256\n        /* \"contracts/manifold/lazyclaim/ERC721LazyClaim.sol\":5658:5700  claims[creatorContractAddress][claimIndex] */\n      0x00\n        /* \"contracts/manifold/lazyclaim/ERC721LazyClaim.sol\":5689:5699  claimIndex */\n      dup7\n        /* \"contracts/manifold/lazyclaim/ERC721LazyClaim.sol\":5658:5700  claims[creatorContractAddress][claimIndex] */\n      dup2\n      mstore\n      0x20\n      add\n      swap1\n      dup2\n      mstore\n      0x20\n      add\n      0x00\n      keccak256\n        /* \"contracts/manifold/lazyclaim/ERC721LazyClaim.sol\":5658:5709  claims[creatorContractAddress][claimIndex].totalMax */\n      0x00\n      add\n      0x04\n      swap1\n      sload\n      swap1\n      0x0100\n      exp\n      swap1\n      div\n      0xffffffff\n      and\n        /* \"contracts/manifold/lazyclaim/ERC721LazyClaim.sol\":5658:5737  claims[creatorContractAddress][claimIndex].totalMax == claimParameters.totalMax */\n      0xffffffff\n      and\n      eq\n        /* \"contracts/manifold/lazyclaim/ERC721LazyClaim.sol\":5650:5764  require(claims[creatorContractAddress][claimIndex].totalMax == claimParameters.totalMax, \"Cannot modify totalMax\") */\n      tag_207\n      jumpi\n      mload(0x40)\n      0x08c379a000000000000000000000000000000000000000000000000000000000\n      dup2\n      mstore\n      0x04\n      add\n      tag_208\n      swap1\n      tag_209\n      jump\t// in\n    tag_208:\n      mload(0x40)\n      dup1\n      swap2\n      sub\n      swap1\n      revert\n    tag_207:\n        /* \"contracts/manifold/lazyclaim/ERC721LazyClaim.sol\":5838:5853  claimParameters */\n      dup3\n        /* \"contracts/manifold/lazyclaim/ERC721LazyClaim.sol\":5838:5863  claimParameters.walletMax */\n      0x20\n      add\n      0x20\n      dup2\n      add\n      swap1\n      tag_210\n      swap2\n      swap1\n      tag_99\n      jump\t// in\n    tag_210:\n        /* \"contracts/manifold/lazyclaim/ERC721LazyClaim.sol\":5782:5863  claims[creatorContractAddress][claimIndex].walletMax <= claimParameters.walletMax */\n      0xffffffff\n      and\n        /* \"contracts/manifold/lazyclaim/ERC721LazyClaim.sol\":5782:5788  claims */\n      0x02\n        /* \"contracts/manifold/lazyclaim/ERC721LazyClaim.sol\":5782:5812  claims[creatorContractAddress] */\n      0x00\n        /* \"contracts/manifold/lazyclaim/ERC721LazyClaim.sol\":5789:5811  creatorContractAddress */\n      dup8\n        /* \"contracts/manifold/lazyclaim/ERC721LazyClaim.sol\":5782:5812  claims[creatorContractAddress] */\n      0xffffffffffffffffffffffffffffffffffffffff\n      and\n      0xffffffffffffffffffffffffffffffffffffffff\n      and\n      dup2\n      mstore\n      0x20\n      add\n      swap1\n      dup2\n      mstore\n      0x20\n      add\n      0x00\n      keccak256\n        /* \"contracts/manifold/lazyclaim/ERC721LazyClaim.sol\":5782:5824  claims[creatorContractAddress][claimIndex] */\n      0x00\n        /* \"contracts/manifold/lazyclaim/ERC721LazyClaim.sol\":5813:5823  claimIndex */\n      dup7\n        /* \"contracts/manifold/lazyclaim/ERC721LazyClaim.sol\":5782:5824  claims[creatorContractAddress][claimIndex] */\n      dup2\n      mstore\n      0x20\n      add\n      swap1\n      dup2\n      mstore\n      0x20\n      add\n      0x00\n      keccak256\n        /* \"contracts/manifold/lazyclaim/ERC721LazyClaim.sol\":5782:5834  claims[creatorContractAddress][claimIndex].walletMax */\n      0x00\n      add\n      0x08\n      swap1\n      sload\n      swap1\n      0x0100\n      exp\n      swap1\n      div\n      0xffffffff\n      and\n        /* \"contracts/manifold/lazyclaim/ERC721LazyClaim.sol\":5782:5863  claims[creatorContractAddress][claimIndex].walletMax <= claimParameters.walletMax */\n      0xffffffff\n      and\n      gt\n      iszero\n        /* \"contracts/manifold/lazyclaim/ERC721LazyClaim.sol\":5774:5893  require(claims[creatorContractAddress][claimIndex].walletMax <= claimParameters.walletMax, \"Cannot decrease walletMax\") */\n      tag_211\n      jumpi\n      mload(0x40)\n      0x08c379a000000000000000000000000000000000000000000000000000000000\n      dup2\n      mstore\n      0x04\n      add\n      tag_212\n      swap1\n      tag_213\n      jump\t// in\n    tag_212:\n      mload(0x40)\n      dup1\n      swap2\n      sub\n      swap1\n      revert\n    tag_211:\n        /* \"contracts/manifold/lazyclaim/ERC721LazyClaim.sol\":5938:5939  0 */\n      0x00\n        /* \"contracts/manifold/lazyclaim/ERC721LazyClaim.sol\":5911:5926  claimParameters */\n      dup4\n        /* \"contracts/manifold/lazyclaim/ERC721LazyClaim.sol\":5911:5934  claimParameters.endDate */\n      0x60\n      add\n      0x20\n      dup2\n      add\n      swap1\n      tag_214\n      swap2\n      swap1\n      tag_91\n      jump\t// in\n    tag_214:\n        /* \"contracts/manifold/lazyclaim/ERC721LazyClaim.sol\":5911:5939  claimParameters.endDate == 0 */\n      0xffffffffffff\n      and\n      eq\n        /* \"contracts/manifold/lazyclaim/ERC721LazyClaim.sol\":5911:5994  claimParameters.endDate == 0 || claimParameters.startDate < claimParameters.endDate */\n      dup1\n      tag_215\n      jumpi\n      pop\n        /* \"contracts/manifold/lazyclaim/ERC721LazyClaim.sol\":5971:5986  claimParameters */\n      dup3\n        /* \"contracts/manifold/lazyclaim/ERC721LazyClaim.sol\":5971:5994  claimParameters.endDate */\n      0x60\n      add\n      0x20\n      dup2\n      add\n      swap1\n      tag_216\n      swap2\n      swap1\n      tag_91\n      jump\t// in\n    tag_216:\n        /* \"contracts/manifold/lazyclaim/ERC721LazyClaim.sol\":5943:5994  claimParameters.startDate < claimParameters.endDate */\n      0xffffffffffff\n      and\n        /* \"contracts/manifold/lazyclaim/ERC721LazyClaim.sol\":5943:5958  claimParameters */\n      dup4\n        /* \"contracts/manifold/lazyclaim/ERC721LazyClaim.sol\":5943:5968  claimParameters.startDate */\n      0x40\n      add\n      0x20\n      dup2\n      add\n      swap1\n      tag_217\n      swap2\n      swap1\n      tag_91\n      jump\t// in\n    tag_217:\n        /* \"contracts/manifold/lazyclaim/ERC721LazyClaim.sol\":5943:5994  claimParameters.startDate < claimParameters.endDate */\n      0xffffffffffff\n      and\n      lt\n        /* \"contracts/manifold/lazyclaim/ERC721LazyClaim.sol\":5911:5994  claimParameters.endDate == 0 || claimParameters.startDate < claimParameters.endDate */\n    tag_215:\n        /* \"contracts/manifold/lazyclaim/ERC721LazyClaim.sol\":5903:6053  require(claimParameters.endDate == 0 || claimParameters.startDate < claimParameters.endDate, \"Cannot have startDate greater than or equal to endDate\") */\n      tag_218\n      jumpi\n      mload(0x40)\n      0x08c379a000000000000000000000000000000000000000000000000000000000\n      dup2\n      mstore\n      0x04\n      add\n      tag_219\n      swap1\n      tag_97\n      jump\t// in\n    tag_219:\n      mload(0x40)\n      dup1\n      swap2\n      sub\n      swap1\n      revert\n    tag_218:\n        /* \"contracts/manifold/lazyclaim/ERC721LazyClaim.sol\":6149:6641  Claim({... */\n      mload(0x40)\n      dup1\n      0x0120\n      add\n      0x40\n      mstore\n      dup1\n        /* \"contracts/manifold/lazyclaim/ERC721LazyClaim.sol\":6176:6182  claims */\n      0x02\n        /* \"contracts/manifold/lazyclaim/ERC721LazyClaim.sol\":6176:6206  claims[creatorContractAddress] */\n      0x00\n        /* \"contracts/manifold/lazyclaim/ERC721LazyClaim.sol\":6183:6205  creatorContractAddress */\n      dup9\n        /* \"contracts/manifold/lazyclaim/ERC721LazyClaim.sol\":6176:6206  claims[creatorContractAddress] */\n      0xffffffffffffffffffffffffffffffffffffffff\n      and\n      0xffffffffffffffffffffffffffffffffffffffff\n      and\n      dup2\n      mstore\n      0x20\n      add\n      swap1\n      dup2\n      mstore\n      0x20\n      add\n      0x00\n      keccak256\n        /* \"contracts/manifold/lazyclaim/ERC721LazyClaim.sol\":6176:6218  claims[creatorContractAddress][claimIndex] */\n      0x00\n        /* \"contracts/manifold/lazyclaim/ERC721LazyClaim.sol\":6207:6217  claimIndex */\n      dup8\n        /* \"contracts/manifold/lazyclaim/ERC721LazyClaim.sol\":6176:6218  claims[creatorContractAddress][claimIndex] */\n      dup2\n      mstore\n      0x20\n      add\n      swap1\n      dup2\n      mstore\n      0x20\n      add\n      0x00\n      keccak256\n        /* \"contracts/manifold/lazyclaim/ERC721LazyClaim.sol\":6176:6224  claims[creatorContractAddress][claimIndex].total */\n      0x00\n      add\n      0x00\n      swap1\n      sload\n      swap1\n      0x0100\n      exp\n      swap1\n      div\n      0xffffffff\n      and\n        /* \"contracts/manifold/lazyclaim/ERC721LazyClaim.sol\":6149:6641  Claim({... */\n      0xffffffff\n      and\n      dup2\n      mstore\n      0x20\n      add\n        /* \"contracts/manifold/lazyclaim/ERC721LazyClaim.sol\":6248:6263  claimParameters */\n      dup5\n        /* \"contracts/manifold/lazyclaim/ERC721LazyClaim.sol\":6248:6272  claimParameters.totalMax */\n      0x00\n      add\n      0x20\n      dup2\n      add\n      swap1\n      tag_220\n      swap2\n      swap1\n      tag_99\n      jump\t// in\n    tag_220:\n        /* \"contracts/manifold/lazyclaim/ERC721LazyClaim.sol\":6149:6641  Claim({... */\n      0xffffffff\n      and\n      dup2\n      mstore\n      0x20\n      add\n        /* \"contracts/manifold/lazyclaim/ERC721LazyClaim.sol\":6297:6312  claimParameters */\n      dup5\n        /* \"contracts/manifold/lazyclaim/ERC721LazyClaim.sol\":6297:6322  claimParameters.walletMax */\n      0x20\n      add\n      0x20\n      dup2\n      add\n      swap1\n      tag_221\n      swap2\n      swap1\n      tag_99\n      jump\t// in\n    tag_221:\n        /* \"contracts/manifold/lazyclaim/ERC721LazyClaim.sol\":6149:6641  Claim({... */\n      0xffffffff\n      and\n      dup2\n      mstore\n      0x20\n      add\n        /* \"contracts/manifold/lazyclaim/ERC721LazyClaim.sol\":6347:6362  claimParameters */\n      dup5\n        /* \"contracts/manifold/lazyclaim/ERC721LazyClaim.sol\":6347:6372  claimParameters.startDate */\n      0x40\n      add\n      0x20\n      dup2\n      add\n      swap1\n      tag_222\n      swap2\n      swap1\n      tag_91\n      jump\t// in\n    tag_222:\n        /* \"contracts/manifold/lazyclaim/ERC721LazyClaim.sol\":6149:6641  Claim({... */\n      0xffffffffffff\n      and\n      dup2\n      mstore\n      0x20\n      add\n        /* \"contracts/manifold/lazyclaim/ERC721LazyClaim.sol\":6395:6410  claimParameters */\n      dup5\n        /* \"contracts/manifold/lazyclaim/ERC721LazyClaim.sol\":6395:6418  claimParameters.endDate */\n      0x60\n      add\n      0x20\n      dup2\n      add\n      swap1\n      tag_223\n      swap2\n      swap1\n      tag_91\n      jump\t// in\n    tag_223:\n        /* \"contracts/manifold/lazyclaim/ERC721LazyClaim.sol\":6149:6641  Claim({... */\n      0xffffffffffff\n      and\n      dup2\n      mstore\n      0x20\n      add\n        /* \"contracts/manifold/lazyclaim/ERC721LazyClaim.sol\":6449:6464  claimParameters */\n      dup5\n        /* \"contracts/manifold/lazyclaim/ERC721LazyClaim.sol\":6449:6480  claimParameters.storageProtocol */\n      0x80\n      add\n      0x20\n      dup2\n      add\n      swap1\n      tag_224\n      swap2\n      swap1\n      tag_85\n      jump\t// in\n    tag_224:\n        /* \"contracts/manifold/lazyclaim/ERC721LazyClaim.sol\":6149:6641  Claim({... */\n      0x03\n      dup2\n      gt\n      iszero\n      tag_225\n      jumpi\n      mstore(0x00, 0x4e487b7100000000000000000000000000000000000000000000000000000000)\n      mstore(0x04, 0x21)\n      revert(0x00, 0x24)\n    tag_225:\n      dup2\n      mstore\n      0x20\n      add\n        /* \"contracts/manifold/lazyclaim/ERC721LazyClaim.sol\":6505:6520  claimParameters */\n      dup5\n        /* \"contracts/manifold/lazyclaim/ERC721LazyClaim.sol\":6505:6530  claimParameters.identical */\n      0xa0\n      add\n      0x20\n      dup2\n      add\n      swap1\n      tag_226\n      swap2\n      swap1\n      tag_112\n      jump\t// in\n    tag_226:\n        /* \"contracts/manifold/lazyclaim/ERC721LazyClaim.sol\":6149:6641  Claim({... */\n      iszero\n      iszero\n      dup2\n      mstore\n      0x20\n      add\n        /* \"contracts/manifold/lazyclaim/ERC721LazyClaim.sol\":6556:6571  claimParameters */\n      dup5\n        /* \"contracts/manifold/lazyclaim/ERC721LazyClaim.sol\":6556:6582  claimParameters.merkleRoot */\n      0xc0\n      add\n      calldataload\n        /* \"contracts/manifold/lazyclaim/ERC721LazyClaim.sol\":6149:6641  Claim({... */\n      dup2\n      mstore\n      0x20\n      add\n        /* \"contracts/manifold/lazyclaim/ERC721LazyClaim.sol\":6606:6621  claimParameters */\n      dup5\n        /* \"contracts/manifold/lazyclaim/ERC721LazyClaim.sol\":6606:6630  claimParameters.location */\n      dup1\n      0xe0\n      add\n      swap1\n      tag_227\n      swap2\n      swap1\n      tag_79\n      jump\t// in\n    tag_227:\n        /* \"contracts/manifold/lazyclaim/ERC721LazyClaim.sol\":6149:6641  Claim({... */\n      dup1\n      dup1\n      0x1f\n      add\n      0x20\n      dup1\n      swap2\n      div\n      mul\n      0x20\n      add\n      mload(0x40)\n      swap1\n      dup2\n      add\n      0x40\n      mstore\n      dup1\n      swap4\n      swap3\n      swap2\n      swap1\n      dup2\n      dup2\n      mstore\n      0x20\n      add\n      dup4\n      dup4\n      dup1\n      dup3\n      dup5\n      calldatacopy\n      0x00\n      dup2\n      dup5\n      add\n      mstore\n      not(0x1f)\n      0x1f\n      dup3\n      add\n      and\n      swap1\n      pop\n      dup1\n      dup4\n      add\n      swap3\n      pop\n      pop\n      pop\n      pop\n      pop\n      pop\n      pop\n      dup2\n      mstore\n      pop\n        /* \"contracts/manifold/lazyclaim/ERC721LazyClaim.sol\":6104:6110  claims */\n      0x02\n        /* \"contracts/manifold/lazyclaim/ERC721LazyClaim.sol\":6104:6134  claims[creatorContractAddress] */\n      0x00\n        /* \"contracts/manifold/lazyclaim/ERC721LazyClaim.sol\":6111:6133  creatorContractAddress */\n      dup8\n        /* \"contracts/manifold/lazyclaim/ERC721LazyClaim.sol\":6104:6134  claims[creatorContractAddress] */\n      0xffffffffffffffffffffffffffffffffffffffff\n      and\n      0xffffffffffffffffffffffffffffffffffffffff\n      and\n      dup2\n      mstore\n      0x20\n      add\n      swap1\n      dup2\n      mstore\n      0x20\n      add\n      0x00\n      keccak256\n        /* \"contracts/manifold/lazyclaim/ERC721LazyClaim.sol\":6104:6146  claims[creatorContractAddress][claimIndex] */\n      0x00\n        /* \"contracts/manifold/lazyclaim/ERC721LazyClaim.sol\":6135:6145  claimIndex */\n      dup7\n        /* \"contracts/manifold/lazyclaim/ERC721LazyClaim.sol\":6104:6146  claims[creatorContractAddress][claimIndex] */\n      dup2\n      mstore\n      0x20\n      add\n      swap1\n      dup2\n      mstore\n      0x20\n      add\n      0x00\n      keccak256\n        /* \"contracts/manifold/lazyclaim/ERC721LazyClaim.sol\":6104:6641  claims[creatorContractAddress][claimIndex] = Claim({... */\n      0x00\n      dup3\n      add\n      mload\n      dup2\n      0x00\n      add\n      exp(0x0100, 0x00)\n      dup2\n      sload\n      dup2\n      0xffffffff\n      mul\n      not\n      and\n      swap1\n      dup4\n      0xffffffff\n      and\n      mul\n      or\n      swap1\n      sstore\n      pop\n      0x20\n      dup3\n      add\n      mload\n      dup2\n      0x00\n      add\n      exp(0x0100, 0x04)\n      dup2\n      sload\n      dup2\n      0xffffffff\n      mul\n      not\n      and\n      swap1\n      dup4\n      0xffffffff\n      and\n      mul\n      or\n      swap1\n      sstore\n      pop\n      0x40\n      dup3\n      add\n      mload\n      dup2\n      0x00\n      add\n      exp(0x0100, 0x08)\n      dup2\n      sload\n      dup2\n      0xffffffff\n      mul\n      not\n      and\n      swap1\n      dup4\n      0xffffffff\n      and\n      mul\n      or\n      swap1\n      sstore\n      pop\n      0x60\n      dup3\n      add\n      mload\n      dup2\n      0x00\n      add\n      exp(0x0100, 0x0c)\n      dup2\n      sload\n      dup2\n      0xffffffffffff\n      mul\n      not\n      and\n      swap1\n      dup4\n      0xffffffffffff\n      and\n      mul\n      or\n      swap1\n      sstore\n      pop\n      0x80\n      dup3\n      add\n      mload\n      dup2\n      0x00\n      add\n      exp(0x0100, 0x12)\n      dup2\n      sload\n      dup2\n      0xffffffffffff\n      mul\n      not\n      and\n      swap1\n      dup4\n      0xffffffffffff\n      and\n      mul\n      or\n      swap1\n      sstore\n      pop\n      0xa0\n      dup3\n      add\n      mload\n      dup2\n      0x00\n      add\n      exp(0x0100, 0x18)\n      dup2\n      sload\n      dup2\n      0xff\n      mul\n      not\n      and\n      swap1\n      dup4\n      0x03\n      dup2\n      gt\n      iszero\n      tag_228\n      jumpi\n      mstore(0x00, 0x4e487b7100000000000000000000000000000000000000000000000000000000)\n      mstore(0x04, 0x21)\n      revert(0x00, 0x24)\n    tag_228:\n      mul\n      or\n      swap1\n      sstore\n      pop\n      0xc0\n      dup3\n      add\n      mload\n      dup2\n      0x00\n      add\n      exp(0x0100, 0x19)\n      dup2\n      sload\n      dup2\n      0xff\n      mul\n      not\n      and\n      swap1\n      dup4\n      iszero\n      iszero\n      mul\n      or\n      swap1\n      sstore\n      pop\n      0xe0\n      dup3\n      add\n      mload\n      dup2\n      0x01\n      add\n      sstore\n      0x0100\n      dup3\n      add\n      mload\n      dup2\n      0x02\n      add\n      swap1\n      dup1\n      mload\n      swap1\n      0x20\n      add\n      swap1\n      tag_229\n      swap3\n      swap2\n      swap1\n      tag_116\n      jump\t// in\n    tag_229:\n      pop\n      swap1\n      pop\n      pop\n        /* \"contracts/manifold/lazyclaim/ERC721LazyClaim.sol\":5159:6648  function overwriteClaim(... */\n      pop\n      pop\n      pop\n      pop\n      pop\n      jump\t// out\n        /* \"contracts/manifold/lazyclaim/ERC721LazyClaim.sol\":6898:7052  function getClaimCount(address creatorContractAddress) external override view returns(uint256) {... */\n    tag_53:\n        /* \"contracts/manifold/lazyclaim/ERC721LazyClaim.sol\":6984:6991  uint256 */\n      0x00\n        /* \"contracts/manifold/lazyclaim/ERC721LazyClaim.sol\":7010:7021  claimCounts */\n      0x01\n        /* \"contracts/manifold/lazyclaim/ERC721LazyClaim.sol\":7010:7045  claimCounts[creatorContractAddress] */\n      0x00\n        /* \"contracts/manifold/lazyclaim/ERC721LazyClaim.sol\":7022:7044  creatorContractAddress */\n      dup4\n        /* \"contracts/manifold/lazyclaim/ERC721LazyClaim.sol\":7010:7045  claimCounts[creatorContractAddress] */\n      0xffffffffffffffffffffffffffffffffffffffff\n      and\n      0xffffffffffffffffffffffffffffffffffffffff\n      and\n      dup2\n      mstore\n      0x20\n      add\n      swap1\n      dup2\n      mstore\n      0x20\n      add\n      0x00\n      keccak256\n      sload\n        /* \"contracts/manifold/lazyclaim/ERC721LazyClaim.sol\":7003:7045  return claimCounts[creatorContractAddress] */\n      swap1\n      pop\n        /* \"contracts/manifold/lazyclaim/ERC721LazyClaim.sol\":6898:7052  function getClaimCount(address creatorContractAddress) external override view returns(uint256) {... */\n      swap2\n      swap1\n      pop\n      jump\t// out\n        /* \"contracts/manifold/lazyclaim/ERC721LazyClaim.sol\":14344:15645  function tokenURI(address creatorContractAddress, uint256 tokenId) external override view returns(string memory) {... */\n    tag_57:\n        /* \"contracts/manifold/lazyclaim/ERC721LazyClaim.sol\":14442:14455  string memory */\n      0x60\n        /* \"contracts/manifold/lazyclaim/ERC721LazyClaim.sol\":14531:14549  uint256 claimIndex */\n      0x00\n        /* \"contracts/manifold/lazyclaim/ERC721LazyClaim.sol\":14552:14599  _getTokenClaim(creatorContractAddress, tokenId) */\n      tag_232\n        /* \"contracts/manifold/lazyclaim/ERC721LazyClaim.sol\":14567:14589  creatorContractAddress */\n      dup5\n        /* \"contracts/manifold/lazyclaim/ERC721LazyClaim.sol\":14591:14598  tokenId */\n      dup5\n        /* \"contracts/manifold/lazyclaim/ERC721LazyClaim.sol\":14552:14566  _getTokenClaim */\n      tag_65\n        /* \"contracts/manifold/lazyclaim/ERC721LazyClaim.sol\":14552:14599  _getTokenClaim(creatorContractAddress, tokenId) */\n      jump\t// in\n    tag_232:\n        /* \"contracts/manifold/lazyclaim/ERC721LazyClaim.sol\":14531:14599  uint256 claimIndex = _getTokenClaim(creatorContractAddress, tokenId) */\n      swap1\n      pop\n        /* \"contracts/manifold/lazyclaim/ERC721LazyClaim.sol\":14685:14705  string memory suffix */\n      0x00\n        /* \"contracts/manifold/lazyclaim/ERC721LazyClaim.sol\":14685:14710  string memory suffix = \"\" */\n      mload(0x40)\n      dup1\n      0x20\n      add\n      0x40\n      mstore\n      dup1\n      0x00\n      dup2\n      mstore\n      pop\n      swap1\n      pop\n        /* \"contracts/manifold/lazyclaim/ERC721LazyClaim.sol\":14725:14731  claims */\n      0x02\n        /* \"contracts/manifold/lazyclaim/ERC721LazyClaim.sol\":14725:14755  claims[creatorContractAddress] */\n      0x00\n        /* \"contracts/manifold/lazyclaim/ERC721LazyClaim.sol\":14732:14754  creatorContractAddress */\n      dup7\n        /* \"contracts/manifold/lazyclaim/ERC721LazyClaim.sol\":14725:14755  claims[creatorContractAddress] */\n      0xffffffffffffffffffffffffffffffffffffffff\n      and\n      0xffffffffffffffffffffffffffffffffffffffff\n      and\n      dup2\n      mstore\n      0x20\n      add\n      swap1\n      dup2\n      mstore\n      0x20\n      add\n      0x00\n      keccak256\n        /* \"contracts/manifold/lazyclaim/ERC721LazyClaim.sol\":14725:14767  claims[creatorContractAddress][claimIndex] */\n      0x00\n        /* \"contracts/manifold/lazyclaim/ERC721LazyClaim.sol\":14756:14766  claimIndex */\n      dup4\n        /* \"contracts/manifold/lazyclaim/ERC721LazyClaim.sol\":14725:14767  claims[creatorContractAddress][claimIndex] */\n      dup2\n      mstore\n      0x20\n      add\n      swap1\n      dup2\n      mstore\n      0x20\n      add\n      0x00\n      keccak256\n        /* \"contracts/manifold/lazyclaim/ERC721LazyClaim.sol\":14725:14777  claims[creatorContractAddress][claimIndex].identical */\n      0x00\n      add\n      0x19\n      swap1\n      sload\n      swap1\n      0x0100\n      exp\n      swap1\n      div\n      0xff\n      and\n        /* \"contracts/manifold/lazyclaim/ERC721LazyClaim.sol\":14720:15102  if (!claims[creatorContractAddress][claimIndex].identical) {... */\n      tag_233\n      jumpi\n        /* \"contracts/manifold/lazyclaim/ERC721LazyClaim.sol\":14831:14856  Strings.toString(tokenId) */\n      tag_234\n        /* \"contracts/manifold/lazyclaim/ERC721LazyClaim.sol\":14848:14855  tokenId */\n      dup5\n        /* \"contracts/manifold/lazyclaim/ERC721LazyClaim.sol\":14831:14847  Strings.toString */\n      tag_235\n        /* \"contracts/manifold/lazyclaim/ERC721LazyClaim.sol\":14831:14856  Strings.toString(tokenId) */\n      jump\t// in\n    tag_234:\n        /* \"contracts/manifold/lazyclaim/ERC721LazyClaim.sol\":14809:14857  abi.encodePacked(\"/\", Strings.toString(tokenId)) */\n      add(0x20, mload(0x40))\n      tag_236\n      swap2\n      swap1\n      tag_237\n      jump\t// in\n    tag_236:\n      mload(0x40)\n      0x20\n      dup2\n      dup4\n      sub\n      sub\n      dup2\n      mstore\n      swap1\n      0x40\n      mstore\n        /* \"contracts/manifold/lazyclaim/ERC721LazyClaim.sol\":14793:14858  suffix = string(abi.encodePacked(\"/\", Strings.toString(tokenId))) */\n      swap1\n      pop\n        /* \"contracts/manifold/lazyclaim/ERC721LazyClaim.sol\":14987:15007  StorageProtocol.IPFS */\n      0x03\n        /* \"contracts/manifold/lazyclaim/ERC721LazyClaim.sol\":14925:15007  claims[creatorContractAddress][claimIndex].storageProtocol == StorageProtocol.IPFS */\n      dup1\n      dup2\n      gt\n      iszero\n      tag_238\n      jumpi\n      mstore(0x00, 0x4e487b7100000000000000000000000000000000000000000000000000000000)\n      mstore(0x04, 0x21)\n      revert(0x00, 0x24)\n    tag_238:\n        /* \"contracts/manifold/lazyclaim/ERC721LazyClaim.sol\":14925:14931  claims */\n      0x02\n        /* \"contracts/manifold/lazyclaim/ERC721LazyClaim.sol\":14925:14955  claims[creatorContractAddress] */\n      0x00\n        /* \"contracts/manifold/lazyclaim/ERC721LazyClaim.sol\":14932:14954  creatorContractAddress */\n      dup8\n        /* \"contracts/manifold/lazyclaim/ERC721LazyClaim.sol\":14925:14955  claims[creatorContractAddress] */\n      0xffffffffffffffffffffffffffffffffffffffff\n      and\n      0xffffffffffffffffffffffffffffffffffffffff\n      and\n      dup2\n      mstore\n      0x20\n      add\n      swap1\n      dup2\n      mstore\n      0x20\n      add\n      0x00\n      keccak256\n        /* \"contracts/manifold/lazyclaim/ERC721LazyClaim.sol\":14925:14967  claims[creatorContractAddress][claimIndex] */\n      0x00\n        /* \"contracts/manifold/lazyclaim/ERC721LazyClaim.sol\":14956:14966  claimIndex */\n      dup5\n        /* \"contracts/manifold/lazyclaim/ERC721LazyClaim.sol\":14925:14967  claims[creatorContractAddress][claimIndex] */\n      dup2\n      mstore\n      0x20\n      add\n      swap1\n      dup2\n      mstore\n      0x20\n      add\n      0x00\n      keccak256\n        /* \"contracts/manifold/lazyclaim/ERC721LazyClaim.sol\":14925:14983  claims[creatorContractAddress][claimIndex].storageProtocol */\n      0x00\n      add\n      0x18\n      swap1\n      sload\n      swap1\n      0x0100\n      exp\n      swap1\n      div\n      0xff\n      and\n        /* \"contracts/manifold/lazyclaim/ERC721LazyClaim.sol\":14925:15007  claims[creatorContractAddress][claimIndex].storageProtocol == StorageProtocol.IPFS */\n      0x03\n      dup2\n      gt\n      iszero\n      tag_239\n      jumpi\n      mstore(0x00, 0x4e487b7100000000000000000000000000000000000000000000000000000000)\n      mstore(0x04, 0x21)\n      revert(0x00, 0x24)\n    tag_239:\n      eq\n        /* \"contracts/manifold/lazyclaim/ERC721LazyClaim.sol\":14921:15092  if (claims[creatorContractAddress][claimIndex].storageProtocol == StorageProtocol.IPFS) {... */\n      iszero\n      tag_240\n      jumpi\n        /* \"contracts/manifold/lazyclaim/ERC721LazyClaim.sol\":15060:15066  suffix */\n      dup1\n        /* \"contracts/manifold/lazyclaim/ERC721LazyClaim.sol\":15043:15076  abi.encodePacked(suffix, \".json\") */\n      add(0x20, mload(0x40))\n      tag_241\n      swap2\n      swap1\n      tag_242\n      jump\t// in\n    tag_241:\n      mload(0x40)\n      0x20\n      dup2\n      dup4\n      sub\n      sub\n      dup2\n      mstore\n      swap1\n      0x40\n      mstore\n        /* \"contracts/manifold/lazyclaim/ERC721LazyClaim.sol\":15027:15077  suffix = string(abi.encodePacked(suffix, \".json\")) */\n      swap1\n      pop\n        /* \"contracts/manifold/lazyclaim/ERC721LazyClaim.sol\":14921:15092  if (claims[creatorContractAddress][claimIndex].storageProtocol == StorageProtocol.IPFS) {... */\n    tag_240:\n        /* \"contracts/manifold/lazyclaim/ERC721LazyClaim.sol\":14720:15102  if (!claims[creatorContractAddress][claimIndex].identical) {... */\n    tag_233:\n        /* \"contracts/manifold/lazyclaim/ERC721LazyClaim.sol\":15175:15195  string memory prefix */\n      0x00\n        /* \"contracts/manifold/lazyclaim/ERC721LazyClaim.sol\":15175:15200  string memory prefix = \"\" */\n      mload(0x40)\n      dup1\n      0x20\n      add\n      0x40\n      mstore\n      dup1\n      0x00\n      dup2\n      mstore\n      pop\n      swap1\n      pop\n        /* \"contracts/manifold/lazyclaim/ERC721LazyClaim.sol\":15276:15296  StorageProtocol.IPFS */\n      0x03\n        /* \"contracts/manifold/lazyclaim/ERC721LazyClaim.sol\":15214:15296  claims[creatorContractAddress][claimIndex].storageProtocol == StorageProtocol.IPFS */\n      dup1\n      dup2\n      gt\n      iszero\n      tag_243\n      jumpi\n      mstore(0x00, 0x4e487b7100000000000000000000000000000000000000000000000000000000)\n      mstore(0x04, 0x21)\n      revert(0x00, 0x24)\n    tag_243:\n        /* \"contracts/manifold/lazyclaim/ERC721LazyClaim.sol\":15214:15220  claims */\n      0x02\n        /* \"contracts/manifold/lazyclaim/ERC721LazyClaim.sol\":15214:15244  claims[creatorContractAddress] */\n      0x00\n        /* \"contracts/manifold/lazyclaim/ERC721LazyClaim.sol\":15221:15243  creatorContractAddress */\n      dup9\n        /* \"contracts/manifold/lazyclaim/ERC721LazyClaim.sol\":15214:15244  claims[creatorContractAddress] */\n      0xffffffffffffffffffffffffffffffffffffffff\n      and\n      0xffffffffffffffffffffffffffffffffffffffff\n      and\n      dup2\n      mstore\n      0x20\n      add\n      swap1\n      dup2\n      mstore\n      0x20\n      add\n      0x00\n      keccak256\n        /* \"contracts/manifold/lazyclaim/ERC721LazyClaim.sol\":15214:15256  claims[creatorContractAddress][claimIndex] */\n      0x00\n        /* \"contracts/manifold/lazyclaim/ERC721LazyClaim.sol\":15245:15255  claimIndex */\n      dup6\n        /* \"contracts/manifold/lazyclaim/ERC721LazyClaim.sol\":15214:15256  claims[creatorContractAddress][claimIndex] */\n      dup2\n      mstore\n      0x20\n      add\n      swap1\n      dup2\n      mstore\n      0x20\n      add\n      0x00\n      keccak256\n        /* \"contracts/manifold/lazyclaim/ERC721LazyClaim.sol\":15214:15272  claims[creatorContractAddress][claimIndex].storageProtocol */\n      0x00\n      add\n      0x18\n      swap1\n      sload\n      swap1\n      0x0100\n      exp\n      swap1\n      div\n      0xff\n      and\n        /* \"contracts/manifold/lazyclaim/ERC721LazyClaim.sol\":15214:15296  claims[creatorContractAddress][claimIndex].storageProtocol == StorageProtocol.IPFS */\n      0x03\n      dup2\n      gt\n      iszero\n      tag_244\n      jumpi\n      mstore(0x00, 0x4e487b7100000000000000000000000000000000000000000000000000000000)\n      mstore(0x04, 0x21)\n      revert(0x00, 0x24)\n    tag_244:\n      eq\n        /* \"contracts/manifold/lazyclaim/ERC721LazyClaim.sol\":15210:15488  if (claims[creatorContractAddress][claimIndex].storageProtocol == StorageProtocol.IPFS) {... */\n      iszero\n      tag_245\n      jumpi\n        /* \"contracts/manifold/lazyclaim/ERC721LazyClaim.sol\":15321:15332  IPFS_PREFIX */\n      mload(0x40)\n      dup1\n      0x40\n      add\n      0x40\n      mstore\n      dup1\n      0x07\n      dup2\n      mstore\n      0x20\n      add\n      0x697066733a2f2f00000000000000000000000000000000000000000000000000\n      dup2\n      mstore\n      pop\n        /* \"contracts/manifold/lazyclaim/ERC721LazyClaim.sol\":15312:15332  prefix = IPFS_PREFIX */\n      swap1\n      pop\n        /* \"contracts/manifold/lazyclaim/ERC721LazyClaim.sol\":15210:15488  if (claims[creatorContractAddress][claimIndex].storageProtocol == StorageProtocol.IPFS) {... */\n      jump(tag_246)\n    tag_245:\n        /* \"contracts/manifold/lazyclaim/ERC721LazyClaim.sol\":15415:15438  StorageProtocol.ARWEAVE */\n      0x02\n        /* \"contracts/manifold/lazyclaim/ERC721LazyClaim.sol\":15353:15438  claims[creatorContractAddress][claimIndex].storageProtocol == StorageProtocol.ARWEAVE */\n      0x03\n      dup2\n      gt\n      iszero\n      tag_247\n      jumpi\n      mstore(0x00, 0x4e487b7100000000000000000000000000000000000000000000000000000000)\n      mstore(0x04, 0x21)\n      revert(0x00, 0x24)\n    tag_247:\n        /* \"contracts/manifold/lazyclaim/ERC721LazyClaim.sol\":15353:15359  claims */\n      0x02\n        /* \"contracts/manifold/lazyclaim/ERC721LazyClaim.sol\":15353:15383  claims[creatorContractAddress] */\n      0x00\n        /* \"contracts/manifold/lazyclaim/ERC721LazyClaim.sol\":15360:15382  creatorContractAddress */\n      dup9\n        /* \"contracts/manifold/lazyclaim/ERC721LazyClaim.sol\":15353:15383  claims[creatorContractAddress] */\n      0xffffffffffffffffffffffffffffffffffffffff\n      and\n      0xffffffffffffffffffffffffffffffffffffffff\n      and\n      dup2\n      mstore\n      0x20\n      add\n      swap1\n      dup2\n      mstore\n      0x20\n      add\n      0x00\n      keccak256\n        /* \"contracts/manifold/lazyclaim/ERC721LazyClaim.sol\":15353:15395  claims[creatorContractAddress][claimIndex] */\n      0x00\n        /* \"contracts/manifold/lazyclaim/ERC721LazyClaim.sol\":15384:15394  claimIndex */\n      dup6\n        /* \"contracts/manifold/lazyclaim/ERC721LazyClaim.sol\":15353:15395  claims[creatorContractAddress][claimIndex] */\n      dup2\n      mstore\n      0x20\n      add\n      swap1\n      dup2\n      mstore\n      0x20\n      add\n      0x00\n      keccak256\n        /* \"contracts/manifold/lazyclaim/ERC721LazyClaim.sol\":15353:15411  claims[creatorContractAddress][claimIndex].storageProtocol */\n      0x00\n      add\n      0x18\n      swap1\n      sload\n      swap1\n      0x0100\n      exp\n      swap1\n      div\n      0xff\n      and\n        /* \"contracts/manifold/lazyclaim/ERC721LazyClaim.sol\":15353:15438  claims[creatorContractAddress][claimIndex].storageProtocol == StorageProtocol.ARWEAVE */\n      0x03\n      dup2\n      gt\n      iszero\n      tag_248\n      jumpi\n      mstore(0x00, 0x4e487b7100000000000000000000000000000000000000000000000000000000)\n      mstore(0x04, 0x21)\n      revert(0x00, 0x24)\n    tag_248:\n      eq\n        /* \"contracts/manifold/lazyclaim/ERC721LazyClaim.sol\":15349:15488  if (claims[creatorContractAddress][claimIndex].storageProtocol == StorageProtocol.ARWEAVE) {... */\n      iszero\n      tag_249\n      jumpi\n        /* \"contracts/manifold/lazyclaim/ERC721LazyClaim.sol\":15463:15477  ARWEAVE_PREFIX */\n      mload(0x40)\n      dup1\n      0x40\n      add\n      0x40\n      mstore\n      dup1\n      0x14\n      dup2\n      mstore\n      0x20\n      add\n      0x68747470733a2f2f617277656176652e6e65742f000000000000000000000000\n      dup2\n      mstore\n      pop\n        /* \"contracts/manifold/lazyclaim/ERC721LazyClaim.sol\":15454:15477  prefix = ARWEAVE_PREFIX */\n      swap1\n      pop\n        /* \"contracts/manifold/lazyclaim/ERC721LazyClaim.sol\":15349:15488  if (claims[creatorContractAddress][claimIndex].storageProtocol == StorageProtocol.ARWEAVE) {... */\n    tag_249:\n        /* \"contracts/manifold/lazyclaim/ERC721LazyClaim.sol\":15210:15488  if (claims[creatorContractAddress][claimIndex].storageProtocol == StorageProtocol.IPFS) {... */\n    tag_246:\n        /* \"contracts/manifold/lazyclaim/ERC721LazyClaim.sol\":15569:15575  prefix */\n      dup1\n        /* \"contracts/manifold/lazyclaim/ERC721LazyClaim.sol\":15577:15583  claims */\n      0x02\n        /* \"contracts/manifold/lazyclaim/ERC721LazyClaim.sol\":15577:15607  claims[creatorContractAddress] */\n      0x00\n        /* \"contracts/manifold/lazyclaim/ERC721LazyClaim.sol\":15584:15606  creatorContractAddress */\n      dup9\n        /* \"contracts/manifold/lazyclaim/ERC721LazyClaim.sol\":15577:15607  claims[creatorContractAddress] */\n      0xffffffffffffffffffffffffffffffffffffffff\n      and\n      0xffffffffffffffffffffffffffffffffffffffff\n      and\n      dup2\n      mstore\n      0x20\n      add\n      swap1\n      dup2\n      mstore\n      0x20\n      add\n      0x00\n      keccak256\n        /* \"contracts/manifold/lazyclaim/ERC721LazyClaim.sol\":15577:15619  claims[creatorContractAddress][claimIndex] */\n      0x00\n        /* \"contracts/manifold/lazyclaim/ERC721LazyClaim.sol\":15608:15618  claimIndex */\n      dup6\n        /* \"contracts/manifold/lazyclaim/ERC721LazyClaim.sol\":15577:15619  claims[creatorContractAddress][claimIndex] */\n      dup2\n      mstore\n      0x20\n      add\n      swap1\n      dup2\n      mstore\n      0x20\n      add\n      0x00\n      keccak256\n        /* \"contracts/manifold/lazyclaim/ERC721LazyClaim.sol\":15577:15628  claims[creatorContractAddress][claimIndex].location */\n      0x02\n      add\n        /* \"contracts/manifold/lazyclaim/ERC721LazyClaim.sol\":15630:15636  suffix */\n      dup4\n        /* \"contracts/manifold/lazyclaim/ERC721LazyClaim.sol\":15552:15637  abi.encodePacked(prefix, claims[creatorContractAddress][claimIndex].location, suffix) */\n      add(0x20, mload(0x40))\n      tag_250\n      swap4\n      swap3\n      swap2\n      swap1\n      tag_251\n      jump\t// in\n    tag_250:\n      mload(0x40)\n      0x20\n      dup2\n      dup4\n      sub\n      sub\n      dup2\n      mstore\n      swap1\n      0x40\n      mstore\n        /* \"contracts/manifold/lazyclaim/ERC721LazyClaim.sol\":15538:15638  return string(abi.encodePacked(prefix, claims[creatorContractAddress][claimIndex].location, suffix)) */\n      swap4\n      pop\n      pop\n      pop\n      pop\n        /* \"contracts/manifold/lazyclaim/ERC721LazyClaim.sol\":14344:15645  function tokenURI(address creatorContractAddress, uint256 tokenId) external override view returns(string memory) {... */\n      swap3\n      swap2\n      pop\n      pop\n      jump\t// out\n        /* \"contracts/manifold/lazyclaim/ERC721LazyClaim.sol\":10046:10900  function _getTokenClaim(address creatorContractAddress, uint256 tokenId) internal view returns(uint256) {... */\n    tag_65:\n        /* \"contracts/manifold/lazyclaim/ERC721LazyClaim.sol\":10141:10148  uint256 */\n      0x00\n        /* \"contracts/manifold/lazyclaim/ERC721LazyClaim.sol\":10206:10207  0 */\n      dup1\n        /* \"contracts/manifold/lazyclaim/ERC721LazyClaim.sol\":10168:10179  claimCounts */\n      0x01\n        /* \"contracts/manifold/lazyclaim/ERC721LazyClaim.sol\":10168:10203  claimCounts[creatorContractAddress] */\n      0x00\n        /* \"contracts/manifold/lazyclaim/ERC721LazyClaim.sol\":10180:10202  creatorContractAddress */\n      dup6\n        /* \"contracts/manifold/lazyclaim/ERC721LazyClaim.sol\":10168:10203  claimCounts[creatorContractAddress] */\n      0xffffffffffffffffffffffffffffffffffffffff\n      and\n      0xffffffffffffffffffffffffffffffffffffffff\n      and\n      dup2\n      mstore\n      0x20\n      add\n      swap1\n      dup2\n      mstore\n      0x20\n      add\n      0x00\n      keccak256\n      sload\n        /* \"contracts/manifold/lazyclaim/ERC721LazyClaim.sol\":10168:10207  claimCounts[creatorContractAddress] > 0 */\n      gt\n        /* \"contracts/manifold/lazyclaim/ERC721LazyClaim.sol\":10160:10242  require(claimCounts[creatorContractAddress] > 0, \"No claims for creator contract\") */\n      tag_253\n      jumpi\n      mload(0x40)\n      0x08c379a000000000000000000000000000000000000000000000000000000000\n      dup2\n      mstore\n      0x04\n      add\n      tag_254\n      swap1\n      tag_255\n      jump\t// in\n    tag_254:\n      mload(0x40)\n      dup1\n      swap2\n      sub\n      swap1\n      revert\n    tag_253:\n        /* \"contracts/manifold/lazyclaim/ERC721LazyClaim.sol\":10257:10270  uint256 index */\n      0x00\n        /* \"contracts/manifold/lazyclaim/ERC721LazyClaim.sol\":10271:10272  1 */\n      0x01\n        /* \"contracts/manifold/lazyclaim/ERC721LazyClaim.sol\":10257:10272  uint256 index=1 */\n      swap1\n      pop\n        /* \"contracts/manifold/lazyclaim/ERC721LazyClaim.sol\":10252:10861  for (uint256 index=1; index <= claimCounts[creatorContractAddress]; index++) {... */\n    tag_256:\n        /* \"contracts/manifold/lazyclaim/ERC721LazyClaim.sol\":10283:10294  claimCounts */\n      0x01\n        /* \"contracts/manifold/lazyclaim/ERC721LazyClaim.sol\":10283:10318  claimCounts[creatorContractAddress] */\n      0x00\n        /* \"contracts/manifold/lazyclaim/ERC721LazyClaim.sol\":10295:10317  creatorContractAddress */\n      dup6\n        /* \"contracts/manifold/lazyclaim/ERC721LazyClaim.sol\":10283:10318  claimCounts[creatorContractAddress] */\n      0xffffffffffffffffffffffffffffffffffffffff\n      and\n      0xffffffffffffffffffffffffffffffffffffffff\n      and\n      dup2\n      mstore\n      0x20\n      add\n      swap1\n      dup2\n      mstore\n      0x20\n      add\n      0x00\n      keccak256\n      sload\n        /* \"contracts/manifold/lazyclaim/ERC721LazyClaim.sol\":10274:10279  index */\n      dup2\n        /* \"contracts/manifold/lazyclaim/ERC721LazyClaim.sol\":10274:10318  index <= claimCounts[creatorContractAddress] */\n      gt\n        /* \"contracts/manifold/lazyclaim/ERC721LazyClaim.sol\":10252:10861  for (uint256 index=1; index <= claimCounts[creatorContractAddress]; index++) {... */\n      tag_257\n      jumpi\n        /* \"contracts/manifold/lazyclaim/ERC721LazyClaim.sol\":10343:10374  IndexRange[] memory indexRanges */\n      0x00\n        /* \"contracts/manifold/lazyclaim/ERC721LazyClaim.sol\":10377:10388  tokenClaims */\n      0x04\n        /* \"contracts/manifold/lazyclaim/ERC721LazyClaim.sol\":10377:10412  tokenClaims[creatorContractAddress] */\n      0x00\n        /* \"contracts/manifold/lazyclaim/ERC721LazyClaim.sol\":10389:10411  creatorContractAddress */\n      dup7\n        /* \"contracts/manifold/lazyclaim/ERC721LazyClaim.sol\":10377:10412  tokenClaims[creatorContractAddress] */\n      0xffffffffffffffffffffffffffffffffffffffff\n      and\n      0xffffffffffffffffffffffffffffffffffffffff\n      and\n      dup2\n      mstore\n      0x20\n      add\n      swap1\n      dup2\n      mstore\n      0x20\n      add\n      0x00\n      keccak256\n        /* \"contracts/manifold/lazyclaim/ERC721LazyClaim.sol\":10377:10419  tokenClaims[creatorContractAddress][index] */\n      0x00\n        /* \"contracts/manifold/lazyclaim/ERC721LazyClaim.sol\":10413:10418  index */\n      dup4\n        /* \"contracts/manifold/lazyclaim/ERC721LazyClaim.sol\":10377:10419  tokenClaims[creatorContractAddress][index] */\n      dup2\n      mstore\n      0x20\n      add\n      swap1\n      dup2\n      mstore\n      0x20\n      add\n      0x00\n      keccak256\n        /* \"contracts/manifold/lazyclaim/ERC721LazyClaim.sol\":10343:10419  IndexRange[] memory indexRanges = tokenClaims[creatorContractAddress][index] */\n      dup1\n      sload\n      dup1\n      0x20\n      mul\n      0x20\n      add\n      mload(0x40)\n      swap1\n      dup2\n      add\n      0x40\n      mstore\n      dup1\n      swap3\n      swap2\n      swap1\n      dup2\n      dup2\n      mstore\n      0x20\n      add\n      0x00\n      swap1\n    tag_259:\n      dup3\n      dup3\n      lt\n      iszero\n      tag_260\n      jumpi\n      dup4\n      dup3\n      swap1\n      0x00\n      mstore\n      keccak256(0x00, 0x20)\n      swap1\n      0x02\n      mul\n      add\n      mload(0x40)\n      dup1\n      0x40\n      add\n      0x40\n      mstore\n      swap1\n      dup2\n      0x00\n      dup3\n      add\n      sload\n      dup2\n      mstore\n      0x20\n      add\n      0x01\n      dup3\n      add\n      sload\n      dup2\n      mstore\n      pop\n      pop\n      dup2\n      mstore\n      0x20\n      add\n      swap1\n      0x01\n      add\n      swap1\n      jump(tag_259)\n    tag_260:\n      pop\n      pop\n      pop\n      pop\n      swap1\n      pop\n        /* \"contracts/manifold/lazyclaim/ERC721LazyClaim.sol\":10433:10447  uint256 offset */\n      0x00\n        /* \"contracts/manifold/lazyclaim/ERC721LazyClaim.sol\":10466:10475  uint256 i */\n      dup1\n        /* \"contracts/manifold/lazyclaim/ERC721LazyClaim.sol\":10478:10479  0 */\n      0x00\n        /* \"contracts/manifold/lazyclaim/ERC721LazyClaim.sol\":10466:10479  uint256 i = 0 */\n      swap1\n      pop\n        /* \"contracts/manifold/lazyclaim/ERC721LazyClaim.sol\":10461:10851  for (uint256 i = 0; i < indexRanges.length; i++) {... */\n    tag_262:\n        /* \"contracts/manifold/lazyclaim/ERC721LazyClaim.sol\":10485:10496  indexRanges */\n      dup3\n        /* \"contracts/manifold/lazyclaim/ERC721LazyClaim.sol\":10485:10503  indexRanges.length */\n      mload\n        /* \"contracts/manifold/lazyclaim/ERC721LazyClaim.sol\":10481:10482  i */\n      dup2\n        /* \"contracts/manifold/lazyclaim/ERC721LazyClaim.sol\":10481:10503  i < indexRanges.length */\n      lt\n        /* \"contracts/manifold/lazyclaim/ERC721LazyClaim.sol\":10461:10851  for (uint256 i = 0; i < indexRanges.length; i++) {... */\n      iszero\n      tag_263\n      jumpi\n        /* \"contracts/manifold/lazyclaim/ERC721LazyClaim.sol\":10528:10558  IndexRange memory currentIndex */\n      0x00\n        /* \"contracts/manifold/lazyclaim/ERC721LazyClaim.sol\":10561:10572  indexRanges */\n      dup4\n        /* \"contracts/manifold/lazyclaim/ERC721LazyClaim.sol\":10573:10574  i */\n      dup3\n        /* \"contracts/manifold/lazyclaim/ERC721LazyClaim.sol\":10561:10575  indexRanges[i] */\n      dup2\n      mload\n      dup2\n      lt\n      tag_265\n      jumpi\n      mstore(0x00, 0x4e487b7100000000000000000000000000000000000000000000000000000000)\n      mstore(0x04, 0x32)\n      revert(0x00, 0x24)\n    tag_265:\n      0x20\n      mul\n      0x20\n      add\n      add\n      mload\n        /* \"contracts/manifold/lazyclaim/ERC721LazyClaim.sol\":10528:10575  IndexRange memory currentIndex = indexRanges[i] */\n      swap1\n      pop\n        /* \"contracts/manifold/lazyclaim/ERC721LazyClaim.sol\":10607:10619  currentIndex */\n      dup1\n        /* \"contracts/manifold/lazyclaim/ERC721LazyClaim.sol\":10607:10625  currentIndex.start */\n      0x00\n      add\n      mload\n        /* \"contracts/manifold/lazyclaim/ERC721LazyClaim.sol\":10597:10604  tokenId */\n      dup8\n        /* \"contracts/manifold/lazyclaim/ERC721LazyClaim.sol\":10597:10625  tokenId < currentIndex.start */\n      lt\n        /* \"contracts/manifold/lazyclaim/ERC721LazyClaim.sol\":10593:10632  if (tokenId < currentIndex.start) break */\n      iszero\n      tag_266\n      jumpi\n        /* \"contracts/manifold/lazyclaim/ERC721LazyClaim.sol\":10627:10632  break */\n      pop\n      jump(tag_263)\n        /* \"contracts/manifold/lazyclaim/ERC721LazyClaim.sol\":10593:10632  if (tokenId < currentIndex.start) break */\n    tag_266:\n        /* \"contracts/manifold/lazyclaim/ERC721LazyClaim.sol\":10665:10677  currentIndex */\n      dup1\n        /* \"contracts/manifold/lazyclaim/ERC721LazyClaim.sol\":10665:10683  currentIndex.start */\n      0x00\n      add\n      mload\n        /* \"contracts/manifold/lazyclaim/ERC721LazyClaim.sol\":10654:10661  tokenId */\n      dup8\n        /* \"contracts/manifold/lazyclaim/ERC721LazyClaim.sol\":10654:10683  tokenId >= currentIndex.start */\n      lt\n      iszero\n        /* \"contracts/manifold/lazyclaim/ERC721LazyClaim.sol\":10654:10736  tokenId >= currentIndex.start && tokenId < currentIndex.start + currentIndex.count */\n      dup1\n      iszero\n      tag_267\n      jumpi\n      pop\n        /* \"contracts/manifold/lazyclaim/ERC721LazyClaim.sol\":10718:10730  currentIndex */\n      dup1\n        /* \"contracts/manifold/lazyclaim/ERC721LazyClaim.sol\":10718:10736  currentIndex.count */\n      0x20\n      add\n      mload\n        /* \"contracts/manifold/lazyclaim/ERC721LazyClaim.sol\":10697:10709  currentIndex */\n      dup2\n        /* \"contracts/manifold/lazyclaim/ERC721LazyClaim.sol\":10697:10715  currentIndex.start */\n      0x00\n      add\n      mload\n        /* \"contracts/manifold/lazyclaim/ERC721LazyClaim.sol\":10697:10736  currentIndex.start + currentIndex.count */\n      tag_268\n      swap2\n      swap1\n      tag_269\n      jump\t// in\n    tag_268:\n        /* \"contracts/manifold/lazyclaim/ERC721LazyClaim.sol\":10687:10694  tokenId */\n      dup8\n        /* \"contracts/manifold/lazyclaim/ERC721LazyClaim.sol\":10687:10736  tokenId < currentIndex.start + currentIndex.count */\n      lt\n        /* \"contracts/manifold/lazyclaim/ERC721LazyClaim.sol\":10654:10736  tokenId >= currentIndex.start && tokenId < currentIndex.start + currentIndex.count */\n    tag_267:\n        /* \"contracts/manifold/lazyclaim/ERC721LazyClaim.sol\":10650:10791  if (tokenId >= currentIndex.start && tokenId < currentIndex.start + currentIndex.count) {... */\n      iszero\n      tag_270\n      jumpi\n        /* \"contracts/manifold/lazyclaim/ERC721LazyClaim.sol\":10767:10772  index */\n      dup5\n        /* \"contracts/manifold/lazyclaim/ERC721LazyClaim.sol\":10760:10772  return index */\n      swap6\n      pop\n      pop\n      pop\n      pop\n      pop\n      pop\n      jump(tag_252)\n        /* \"contracts/manifold/lazyclaim/ERC721LazyClaim.sol\":10650:10791  if (tokenId >= currentIndex.start && tokenId < currentIndex.start + currentIndex.count) {... */\n    tag_270:\n        /* \"contracts/manifold/lazyclaim/ERC721LazyClaim.sol\":10818:10830  currentIndex */\n      dup1\n        /* \"contracts/manifold/lazyclaim/ERC721LazyClaim.sol\":10818:10836  currentIndex.count */\n      0x20\n      add\n      mload\n        /* \"contracts/manifold/lazyclaim/ERC721LazyClaim.sol\":10808:10836  offset += currentIndex.count */\n      dup4\n      tag_271\n      swap2\n      swap1\n      tag_269\n      jump\t// in\n    tag_271:\n      swap3\n      pop\n        /* \"contracts/manifold/lazyclaim/ERC721LazyClaim.sol\":10461:10851  for (uint256 i = 0; i < indexRanges.length; i++) {... */\n      pop\n        /* \"contracts/manifold/lazyclaim/ERC721LazyClaim.sol\":10505:10508  i++ */\n      dup1\n      dup1\n      tag_272\n      swap1\n      tag_104\n      jump\t// in\n    tag_272:\n      swap2\n      pop\n      pop\n        /* \"contracts/manifold/lazyclaim/ERC721LazyClaim.sol\":10461:10851  for (uint256 i = 0; i < indexRanges.length; i++) {... */\n      jump(tag_262)\n    tag_263:\n      pop\n        /* \"contracts/manifold/lazyclaim/ERC721LazyClaim.sol\":10252:10861  for (uint256 index=1; index <= claimCounts[creatorContractAddress]; index++) {... */\n      pop\n      pop\n        /* \"contracts/manifold/lazyclaim/ERC721LazyClaim.sol\":10320:10327  index++ */\n      dup1\n      dup1\n      tag_273\n      swap1\n      tag_104\n      jump\t// in\n    tag_273:\n      swap2\n      pop\n      pop\n        /* \"contracts/manifold/lazyclaim/ERC721LazyClaim.sol\":10252:10861  for (uint256 index=1; index <= claimCounts[creatorContractAddress]; index++) {... */\n      jump(tag_256)\n    tag_257:\n      pop\n        /* \"contracts/manifold/lazyclaim/ERC721LazyClaim.sol\":10870:10893  revert(\"Invalid token\") */\n      mload(0x40)\n      0x08c379a000000000000000000000000000000000000000000000000000000000\n      dup2\n      mstore\n      0x04\n      add\n      tag_274\n      swap1\n      tag_275\n      jump\t// in\n    tag_274:\n      mload(0x40)\n      dup1\n      swap2\n      sub\n      swap1\n      revert\n        /* \"contracts/manifold/lazyclaim/ERC721LazyClaim.sol\":10046:10900  function _getTokenClaim(address creatorContractAddress, uint256 tokenId) internal view returns(uint256) {... */\n    tag_252:\n      swap3\n      swap2\n      pop\n      pop\n      jump\t// out\n        /* \"@openzeppelin/contracts/utils/cryptography/MerkleProof.sol\":847:1031  function verify(... */\n    tag_140:\n        /* \"@openzeppelin/contracts/utils/cryptography/MerkleProof.sol\":968:972  bool */\n      0x00\n        /* \"@openzeppelin/contracts/utils/cryptography/MerkleProof.sol\":1020:1024  root */\n      dup3\n        /* \"@openzeppelin/contracts/utils/cryptography/MerkleProof.sol\":991:1016  processProof(proof, leaf) */\n      tag_277\n        /* \"@openzeppelin/contracts/utils/cryptography/MerkleProof.sol\":1004:1009  proof */\n      dup6\n        /* \"@openzeppelin/contracts/utils/cryptography/MerkleProof.sol\":1011:1015  leaf */\n      dup5\n        /* \"@openzeppelin/contracts/utils/cryptography/MerkleProof.sol\":991:1003  processProof */\n      tag_278\n        /* \"@openzeppelin/contracts/utils/cryptography/MerkleProof.sol\":991:1016  processProof(proof, leaf) */\n      jump\t// in\n    tag_277:\n        /* \"@openzeppelin/contracts/utils/cryptography/MerkleProof.sol\":991:1024  processProof(proof, leaf) == root */\n      eq\n        /* \"@openzeppelin/contracts/utils/cryptography/MerkleProof.sol\":984:1024  return processProof(proof, leaf) == root */\n      swap1\n      pop\n        /* \"@openzeppelin/contracts/utils/cryptography/MerkleProof.sol\":847:1031  function verify(... */\n      swap4\n      swap3\n      pop\n      pop\n      pop\n      jump\t// out\n        /* \"contracts/manifold/lazyclaim/ERC721LazyClaim.sol\":9120:9729  function _updateIndexRanges(address creatorContractAddress, uint256 claimIndex, uint256 start) internal {... */\n    tag_166:\n        /* \"contracts/manifold/lazyclaim/ERC721LazyClaim.sol\":9234:9266  IndexRange[] storage indexRanges */\n      0x00\n        /* \"contracts/manifold/lazyclaim/ERC721LazyClaim.sol\":9269:9280  tokenClaims */\n      0x04\n        /* \"contracts/manifold/lazyclaim/ERC721LazyClaim.sol\":9269:9304  tokenClaims[creatorContractAddress] */\n      0x00\n        /* \"contracts/manifold/lazyclaim/ERC721LazyClaim.sol\":9281:9303  creatorContractAddress */\n      dup6\n        /* \"contracts/manifold/lazyclaim/ERC721LazyClaim.sol\":9269:9304  tokenClaims[creatorContractAddress] */\n      0xffffffffffffffffffffffffffffffffffffffff\n      and\n      0xffffffffffffffffffffffffffffffffffffffff\n      and\n      dup2\n      mstore\n      0x20\n      add\n      swap1\n      dup2\n      mstore\n      0x20\n      add\n      0x00\n      keccak256\n        /* \"contracts/manifold/lazyclaim/ERC721LazyClaim.sol\":9269:9316  tokenClaims[creatorContractAddress][claimIndex] */\n      0x00\n        /* \"contracts/manifold/lazyclaim/ERC721LazyClaim.sol\":9305:9315  claimIndex */\n      dup5\n        /* \"contracts/manifold/lazyclaim/ERC721LazyClaim.sol\":9269:9316  tokenClaims[creatorContractAddress][claimIndex] */\n      dup2\n      mstore\n      0x20\n      add\n      swap1\n      dup2\n      mstore\n      0x20\n      add\n      0x00\n      keccak256\n        /* \"contracts/manifold/lazyclaim/ERC721LazyClaim.sol\":9234:9316  IndexRange[] storage indexRanges = tokenClaims[creatorContractAddress][claimIndex] */\n      swap1\n      pop\n        /* \"contracts/manifold/lazyclaim/ERC721LazyClaim.sol\":9352:9353  0 */\n      0x00\n        /* \"contracts/manifold/lazyclaim/ERC721LazyClaim.sol\":9330:9341  indexRanges */\n      dup2\n        /* \"contracts/manifold/lazyclaim/ERC721LazyClaim.sol\":9330:9348  indexRanges.length */\n      dup1\n      sload\n      swap1\n      pop\n        /* \"contracts/manifold/lazyclaim/ERC721LazyClaim.sol\":9330:9353  indexRanges.length == 0 */\n      eq\n        /* \"contracts/manifold/lazyclaim/ERC721LazyClaim.sol\":9326:9723  if (indexRanges.length == 0) {... */\n      iszero\n      tag_280\n      jumpi\n        /* \"contracts/manifold/lazyclaim/ERC721LazyClaim.sol\":9369:9380  indexRanges */\n      dup1\n        /* \"contracts/manifold/lazyclaim/ERC721LazyClaim.sol\":9386:9406  IndexRange(start, 1) */\n      mload(0x40)\n      dup1\n      0x40\n      add\n      0x40\n      mstore\n      dup1\n        /* \"contracts/manifold/lazyclaim/ERC721LazyClaim.sol\":9397:9402  start */\n      dup5\n        /* \"contracts/manifold/lazyclaim/ERC721LazyClaim.sol\":9386:9406  IndexRange(start, 1) */\n      dup2\n      mstore\n      0x20\n      add\n        /* \"contracts/manifold/lazyclaim/ERC721LazyClaim.sol\":9404:9405  1 */\n      0x01\n        /* \"contracts/manifold/lazyclaim/ERC721LazyClaim.sol\":9386:9406  IndexRange(start, 1) */\n      dup2\n      mstore\n      pop\n        /* \"contracts/manifold/lazyclaim/ERC721LazyClaim.sol\":9369:9407  indexRanges.push(IndexRange(start, 1)) */\n      swap1\n      dup1\n      0x01\n      dup2\n      sload\n      add\n      dup1\n      dup3\n      sstore\n      dup1\n      swap2\n      pop\n      pop\n      0x01\n      swap1\n      sub\n      swap1\n      0x00\n      mstore\n      keccak256(0x00, 0x20)\n      swap1\n      0x02\n      mul\n      add\n      0x00\n      swap1\n      swap2\n      swap1\n      swap2\n      swap1\n      swap2\n      pop\n      0x00\n      dup3\n      add\n      mload\n      dup2\n      0x00\n      add\n      sstore\n      0x20\n      dup3\n      add\n      mload\n      dup2\n      0x01\n      add\n      sstore\n      pop\n      pop\n        /* \"contracts/manifold/lazyclaim/ERC721LazyClaim.sol\":9326:9723  if (indexRanges.length == 0) {... */\n      jump(tag_282)\n    tag_280:\n        /* \"contracts/manifold/lazyclaim/ERC721LazyClaim.sol\":9438:9471  IndexRange storage lastIndexRange */\n      0x00\n        /* \"contracts/manifold/lazyclaim/ERC721LazyClaim.sol\":9474:9485  indexRanges */\n      dup2\n        /* \"contracts/manifold/lazyclaim/ERC721LazyClaim.sol\":9505:9506  1 */\n      0x01\n        /* \"contracts/manifold/lazyclaim/ERC721LazyClaim.sol\":9486:9497  indexRanges */\n      dup4\n        /* \"contracts/manifold/lazyclaim/ERC721LazyClaim.sol\":9486:9504  indexRanges.length */\n      dup1\n      sload\n      swap1\n      pop\n        /* \"contracts/manifold/lazyclaim/ERC721LazyClaim.sol\":9486:9506  indexRanges.length-1 */\n      tag_283\n      swap2\n      swap1\n      tag_284\n      jump\t// in\n    tag_283:\n        /* \"contracts/manifold/lazyclaim/ERC721LazyClaim.sol\":9474:9507  indexRanges[indexRanges.length-1] */\n      dup2\n      sload\n      dup2\n      lt\n      tag_285\n      jumpi\n      mstore(0x00, 0x4e487b7100000000000000000000000000000000000000000000000000000000)\n      mstore(0x04, 0x32)\n      revert(0x00, 0x24)\n    tag_285:\n      swap1\n      0x00\n      mstore\n      keccak256(0x00, 0x20)\n      swap1\n      0x02\n      mul\n      add\n        /* \"contracts/manifold/lazyclaim/ERC721LazyClaim.sol\":9438:9507  IndexRange storage lastIndexRange = indexRanges[indexRanges.length-1] */\n      swap1\n      pop\n        /* \"contracts/manifold/lazyclaim/ERC721LazyClaim.sol\":9574:9579  start */\n      dup3\n        /* \"contracts/manifold/lazyclaim/ERC721LazyClaim.sol\":9549:9563  lastIndexRange */\n      dup2\n        /* \"contracts/manifold/lazyclaim/ERC721LazyClaim.sol\":9549:9569  lastIndexRange.count */\n      0x01\n      add\n      sload\n        /* \"contracts/manifold/lazyclaim/ERC721LazyClaim.sol\":9526:9540  lastIndexRange */\n      dup3\n        /* \"contracts/manifold/lazyclaim/ERC721LazyClaim.sol\":9526:9546  lastIndexRange.start */\n      0x00\n      add\n      sload\n        /* \"contracts/manifold/lazyclaim/ERC721LazyClaim.sol\":9526:9569  lastIndexRange.start + lastIndexRange.count */\n      tag_287\n      swap2\n      swap1\n      tag_269\n      jump\t// in\n    tag_287:\n        /* \"contracts/manifold/lazyclaim/ERC721LazyClaim.sol\":9525:9579  (lastIndexRange.start + lastIndexRange.count) == start */\n      eq\n        /* \"contracts/manifold/lazyclaim/ERC721LazyClaim.sol\":9521:9713  if ((lastIndexRange.start + lastIndexRange.count) == start) {... */\n      iszero\n      tag_288\n      jumpi\n        /* \"contracts/manifold/lazyclaim/ERC721LazyClaim.sol\":9599:9613  lastIndexRange */\n      dup1\n        /* \"contracts/manifold/lazyclaim/ERC721LazyClaim.sol\":9599:9619  lastIndexRange.count */\n      0x01\n      add\n      0x00\n        /* \"contracts/manifold/lazyclaim/ERC721LazyClaim.sol\":9599:9621  lastIndexRange.count++ */\n      dup2\n      sload\n      dup1\n      swap3\n      swap2\n      swap1\n      tag_289\n      swap1\n      tag_104\n      jump\t// in\n    tag_289:\n      swap2\n      swap1\n      pop\n      sstore\n      pop\n        /* \"contracts/manifold/lazyclaim/ERC721LazyClaim.sol\":9521:9713  if ((lastIndexRange.start + lastIndexRange.count) == start) {... */\n      jump(tag_290)\n    tag_288:\n        /* \"contracts/manifold/lazyclaim/ERC721LazyClaim.sol\":9660:9671  indexRanges */\n      dup2\n        /* \"contracts/manifold/lazyclaim/ERC721LazyClaim.sol\":9677:9697  IndexRange(start, 1) */\n      mload(0x40)\n      dup1\n      0x40\n      add\n      0x40\n      mstore\n      dup1\n        /* \"contracts/manifold/lazyclaim/ERC721LazyClaim.sol\":9688:9693  start */\n      dup6\n        /* \"contracts/manifold/lazyclaim/ERC721LazyClaim.sol\":9677:9697  IndexRange(start, 1) */\n      dup2\n      mstore\n      0x20\n      add\n        /* \"contracts/manifold/lazyclaim/ERC721LazyClaim.sol\":9695:9696  1 */\n      0x01\n        /* \"contracts/manifold/lazyclaim/ERC721LazyClaim.sol\":9677:9697  IndexRange(start, 1) */\n      dup2\n      mstore\n      pop\n        /* \"contracts/manifold/lazyclaim/ERC721LazyClaim.sol\":9660:9698  indexRanges.push(IndexRange(start, 1)) */\n      swap1\n      dup1\n      0x01\n      dup2\n      sload\n      add\n      dup1\n      dup3\n      sstore\n      dup1\n      swap2\n      pop\n      pop\n      0x01\n      swap1\n      sub\n      swap1\n      0x00\n      mstore\n      keccak256(0x00, 0x20)\n      swap1\n      0x02\n      mul\n      add\n      0x00\n      swap1\n      swap2\n      swap1\n      swap2\n      swap1\n      swap2\n      pop\n      0x00\n      dup3\n      add\n      mload\n      dup2\n      0x00\n      add\n      sstore\n      0x20\n      dup3\n      add\n      mload\n      dup2\n      0x01\n      add\n      sstore\n      pop\n      pop\n        /* \"contracts/manifold/lazyclaim/ERC721LazyClaim.sol\":9521:9713  if ((lastIndexRange.start + lastIndexRange.count) == start) {... */\n    tag_290:\n        /* \"contracts/manifold/lazyclaim/ERC721LazyClaim.sol\":9326:9723  if (indexRanges.length == 0) {... */\n      pop\n    tag_282:\n        /* \"contracts/manifold/lazyclaim/ERC721LazyClaim.sol\":9120:9729  function _updateIndexRanges(address creatorContractAddress, uint256 claimIndex, uint256 start) internal {... */\n      pop\n      pop\n      pop\n      pop\n      jump\t// out\n        /* \"@openzeppelin/contracts/utils/Strings.sol\":328:1031  function toString(uint256 value) internal pure returns (string memory) {... */\n    tag_235:\n        /* \"@openzeppelin/contracts/utils/Strings.sol\":384:397  string memory */\n      0x60\n        /* \"@openzeppelin/contracts/utils/Strings.sol\":610:611  0 */\n      0x00\n        /* \"@openzeppelin/contracts/utils/Strings.sol\":601:606  value */\n      dup3\n        /* \"@openzeppelin/contracts/utils/Strings.sol\":601:611  value == 0 */\n      eq\n        /* \"@openzeppelin/contracts/utils/Strings.sol\":597:648  if (value == 0) {... */\n      iszero\n      tag_293\n      jumpi\n        /* \"@openzeppelin/contracts/utils/Strings.sol\":627:637  return \"0\" */\n      mload(0x40)\n      dup1\n      0x40\n      add\n      0x40\n      mstore\n      dup1\n      0x01\n      dup2\n      mstore\n      0x20\n      add\n      0x3000000000000000000000000000000000000000000000000000000000000000\n      dup2\n      mstore\n      pop\n      swap1\n      pop\n      jump(tag_292)\n        /* \"@openzeppelin/contracts/utils/Strings.sol\":597:648  if (value == 0) {... */\n    tag_293:\n        /* \"@openzeppelin/contracts/utils/Strings.sol\":657:669  uint256 temp */\n      0x00\n        /* \"@openzeppelin/contracts/utils/Strings.sol\":672:677  value */\n      dup3\n        /* \"@openzeppelin/contracts/utils/Strings.sol\":657:677  uint256 temp = value */\n      swap1\n      pop\n        /* \"@openzeppelin/contracts/utils/Strings.sol\":687:701  uint256 digits */\n      0x00\n        /* \"@openzeppelin/contracts/utils/Strings.sol\":711:786  while (temp != 0) {... */\n    tag_294:\n        /* \"@openzeppelin/contracts/utils/Strings.sol\":726:727  0 */\n      0x00\n        /* \"@openzeppelin/contracts/utils/Strings.sol\":718:722  temp */\n      dup3\n        /* \"@openzeppelin/contracts/utils/Strings.sol\":718:727  temp != 0 */\n      eq\n        /* \"@openzeppelin/contracts/utils/Strings.sol\":711:786  while (temp != 0) {... */\n      tag_295\n      jumpi\n        /* \"@openzeppelin/contracts/utils/Strings.sol\":743:751  digits++ */\n      dup1\n      dup1\n      tag_296\n      swap1\n      tag_104\n      jump\t// in\n    tag_296:\n      swap2\n      pop\n      pop\n        /* \"@openzeppelin/contracts/utils/Strings.sol\":773:775  10 */\n      0x0a\n        /* \"@openzeppelin/contracts/utils/Strings.sol\":765:775  temp /= 10 */\n      dup3\n      tag_297\n      swap2\n      swap1\n      tag_298\n      jump\t// in\n    tag_297:\n      swap2\n      pop\n        /* \"@openzeppelin/contracts/utils/Strings.sol\":711:786  while (temp != 0) {... */\n      jump(tag_294)\n    tag_295:\n        /* \"@openzeppelin/contracts/utils/Strings.sol\":795:814  bytes memory buffer */\n      0x00\n        /* \"@openzeppelin/contracts/utils/Strings.sol\":827:833  digits */\n      dup2\n        /* \"@openzeppelin/contracts/utils/Strings.sol\":817:834  new bytes(digits) */\n      0xffffffffffffffff\n      dup2\n      gt\n      iszero\n      tag_299\n      jumpi\n      mstore(0x00, 0x4e487b7100000000000000000000000000000000000000000000000000000000)\n      mstore(0x04, 0x41)\n      revert(0x00, 0x24)\n    tag_299:\n      mload(0x40)\n      swap1\n      dup1\n      dup3\n      mstore\n      dup1\n      0x1f\n      add\n      not(0x1f)\n      and\n      0x20\n      add\n      dup3\n      add\n      0x40\n      mstore\n      dup1\n      iszero\n      tag_300\n      jumpi\n      dup2\n      0x20\n      add\n      0x01\n      dup3\n      mul\n      dup1\n      calldatasize\n      dup4\n      calldatacopy\n      dup1\n      dup3\n      add\n      swap2\n      pop\n      pop\n      swap1\n      pop\n    tag_300:\n      pop\n        /* \"@openzeppelin/contracts/utils/Strings.sol\":795:834  bytes memory buffer = new bytes(digits) */\n      swap1\n      pop\n        /* \"@openzeppelin/contracts/utils/Strings.sol\":844:994  while (value != 0) {... */\n    tag_301:\n        /* \"@openzeppelin/contracts/utils/Strings.sol\":860:861  0 */\n      0x00\n        /* \"@openzeppelin/contracts/utils/Strings.sol\":851:856  value */\n      dup6\n        /* \"@openzeppelin/contracts/utils/Strings.sol\":851:861  value != 0 */\n      eq\n        /* \"@openzeppelin/contracts/utils/Strings.sol\":844:994  while (value != 0) {... */\n      tag_302\n      jumpi\n        /* \"@openzeppelin/contracts/utils/Strings.sol\":887:888  1 */\n      0x01\n        /* \"@openzeppelin/contracts/utils/Strings.sol\":877:888  digits -= 1 */\n      dup3\n      tag_303\n      swap2\n      swap1\n      tag_284\n      jump\t// in\n    tag_303:\n      swap2\n      pop\n        /* \"@openzeppelin/contracts/utils/Strings.sol\":953:955  10 */\n      0x0a\n        /* \"@openzeppelin/contracts/utils/Strings.sol\":945:950  value */\n      dup6\n        /* \"@openzeppelin/contracts/utils/Strings.sol\":945:955  value % 10 */\n      tag_304\n      swap2\n      swap1\n      tag_305\n      jump\t// in\n    tag_304:\n        /* \"@openzeppelin/contracts/utils/Strings.sol\":932:934  48 */\n      0x30\n        /* \"@openzeppelin/contracts/utils/Strings.sol\":932:956  48 + uint256(value % 10) */\n      tag_306\n      swap2\n      swap1\n      tag_269\n      jump\t// in\n    tag_306:\n        /* \"@openzeppelin/contracts/utils/Strings.sol\":919:958  bytes1(uint8(48 + uint256(value % 10))) */\n      0xf8\n      shl\n        /* \"@openzeppelin/contracts/utils/Strings.sol\":902:908  buffer */\n      dup2\n        /* \"@openzeppelin/contracts/utils/Strings.sol\":909:915  digits */\n      dup4\n        /* \"@openzeppelin/contracts/utils/Strings.sol\":902:916  buffer[digits] */\n      dup2\n      mload\n      dup2\n      lt\n      tag_307\n      jumpi\n      mstore(0x00, 0x4e487b7100000000000000000000000000000000000000000000000000000000)\n      mstore(0x04, 0x32)\n      revert(0x00, 0x24)\n    tag_307:\n      0x20\n      add\n      add\n        /* \"@openzeppelin/contracts/utils/Strings.sol\":902:958  buffer[digits] = bytes1(uint8(48 + uint256(value % 10))) */\n      swap1\n      not(0xffffffffffffffffffffffffffffffffffffffffffffffffffffffffffffff)\n      and\n      swap1\n      dup2\n      0x00\n      byte\n      swap1\n      mstore8\n      pop\n        /* \"@openzeppelin/contracts/utils/Strings.sol\":981:983  10 */\n      0x0a\n        /* \"@openzeppelin/contracts/utils/Strings.sol\":972:983  value /= 10 */\n      dup6\n      tag_308\n      swap2\n      swap1\n      tag_298\n      jump\t// in\n    tag_308:\n      swap5\n      pop\n        /* \"@openzeppelin/contracts/utils/Strings.sol\":844:994  while (value != 0) {... */\n      jump(tag_301)\n    tag_302:\n        /* \"@openzeppelin/contracts/utils/Strings.sol\":1017:1023  buffer */\n      dup1\n        /* \"@openzeppelin/contracts/utils/Strings.sol\":1003:1024  return string(buffer) */\n      swap4\n      pop\n      pop\n      pop\n      pop\n        /* \"@openzeppelin/contracts/utils/Strings.sol\":328:1031  function toString(uint256 value) internal pure returns (string memory) {... */\n    tag_292:\n      swap2\n      swap1\n      pop\n      jump\t// out\n        /* \"@openzeppelin/contracts/utils/cryptography/MerkleProof.sol\":1383:2071  function processProof(bytes32[] memory proof, bytes32 leaf) internal pure returns (bytes32) {... */\n    tag_278:\n        /* \"@openzeppelin/contracts/utils/cryptography/MerkleProof.sol\":1466:1473  bytes32 */\n      0x00\n        /* \"@openzeppelin/contracts/utils/cryptography/MerkleProof.sol\":1485:1505  bytes32 computedHash */\n      dup1\n        /* \"@openzeppelin/contracts/utils/cryptography/MerkleProof.sol\":1508:1512  leaf */\n      dup3\n        /* \"@openzeppelin/contracts/utils/cryptography/MerkleProof.sol\":1485:1512  bytes32 computedHash = leaf */\n      swap1\n      pop\n        /* \"@openzeppelin/contracts/utils/cryptography/MerkleProof.sol\":1527:1536  uint256 i */\n      0x00\n        /* \"@openzeppelin/contracts/utils/cryptography/MerkleProof.sol\":1522:2036  for (uint256 i = 0; i < proof.length; i++) {... */\n    tag_310:\n        /* \"@openzeppelin/contracts/utils/cryptography/MerkleProof.sol\":1546:1551  proof */\n      dup5\n        /* \"@openzeppelin/contracts/utils/cryptography/MerkleProof.sol\":1546:1558  proof.length */\n      mload\n        /* \"@openzeppelin/contracts/utils/cryptography/MerkleProof.sol\":1542:1543  i */\n      dup2\n        /* \"@openzeppelin/contracts/utils/cryptography/MerkleProof.sol\":1542:1558  i < proof.length */\n      lt\n        /* \"@openzeppelin/contracts/utils/cryptography/MerkleProof.sol\":1522:2036  for (uint256 i = 0; i < proof.length; i++) {... */\n      iszero\n      tag_311\n      jumpi\n        /* \"@openzeppelin/contracts/utils/cryptography/MerkleProof.sol\":1579:1599  bytes32 proofElement */\n      0x00\n        /* \"@openzeppelin/contracts/utils/cryptography/MerkleProof.sol\":1602:1607  proof */\n      dup6\n        /* \"@openzeppelin/contracts/utils/cryptography/MerkleProof.sol\":1608:1609  i */\n      dup3\n        /* \"@openzeppelin/contracts/utils/cryptography/MerkleProof.sol\":1602:1610  proof[i] */\n      dup2\n      mload\n      dup2\n      lt\n      tag_313\n      jumpi\n      mstore(0x00, 0x4e487b7100000000000000000000000000000000000000000000000000000000)\n      mstore(0x04, 0x32)\n      revert(0x00, 0x24)\n    tag_313:\n      0x20\n      mul\n      0x20\n      add\n      add\n      mload\n        /* \"@openzeppelin/contracts/utils/cryptography/MerkleProof.sol\":1579:1610  bytes32 proofElement = proof[i] */\n      swap1\n      pop\n        /* \"@openzeppelin/contracts/utils/cryptography/MerkleProof.sol\":1644:1656  proofElement */\n      dup1\n        /* \"@openzeppelin/contracts/utils/cryptography/MerkleProof.sol\":1628:1640  computedHash */\n      dup4\n        /* \"@openzeppelin/contracts/utils/cryptography/MerkleProof.sol\":1628:1656  computedHash <= proofElement */\n      gt\n        /* \"@openzeppelin/contracts/utils/cryptography/MerkleProof.sol\":1624:2026  if (computedHash <= proofElement) {... */\n      tag_314\n      jumpi\n        /* \"@openzeppelin/contracts/utils/cryptography/MerkleProof.sol\":1796:1808  computedHash */\n      dup3\n        /* \"@openzeppelin/contracts/utils/cryptography/MerkleProof.sol\":1810:1822  proofElement */\n      dup2\n        /* \"@openzeppelin/contracts/utils/cryptography/MerkleProof.sol\":1779:1823  abi.encodePacked(computedHash, proofElement) */\n      add(0x20, mload(0x40))\n      tag_315\n      swap3\n      swap2\n      swap1\n      tag_316\n      jump\t// in\n    tag_315:\n      mload(0x40)\n      0x20\n      dup2\n      dup4\n      sub\n      sub\n      dup2\n      mstore\n      swap1\n      0x40\n      mstore\n        /* \"@openzeppelin/contracts/utils/cryptography/MerkleProof.sol\":1769:1824  keccak256(abi.encodePacked(computedHash, proofElement)) */\n      dup1\n      mload\n      swap1\n      0x20\n      add\n      keccak256\n        /* \"@openzeppelin/contracts/utils/cryptography/MerkleProof.sol\":1754:1824  computedHash = keccak256(abi.encodePacked(computedHash, proofElement)) */\n      swap3\n      pop\n        /* \"@openzeppelin/contracts/utils/cryptography/MerkleProof.sol\":1624:2026  if (computedHash <= proofElement) {... */\n      jump(tag_317)\n    tag_314:\n        /* \"@openzeppelin/contracts/utils/cryptography/MerkleProof.sol\":1983:1995  proofElement */\n      dup1\n        /* \"@openzeppelin/contracts/utils/cryptography/MerkleProof.sol\":1997:2009  computedHash */\n      dup4\n        /* \"@openzeppelin/contracts/utils/cryptography/MerkleProof.sol\":1966:2010  abi.encodePacked(proofElement, computedHash) */\n      add(0x20, mload(0x40))\n      tag_318\n      swap3\n      swap2\n      swap1\n      tag_316\n      jump\t// in\n    tag_318:\n      mload(0x40)\n      0x20\n      dup2\n      dup4\n      sub\n      sub\n      dup2\n      mstore\n      swap1\n      0x40\n      mstore\n        /* \"@openzeppelin/contracts/utils/cryptography/MerkleProof.sol\":1956:2011  keccak256(abi.encodePacked(proofElement, computedHash)) */\n      dup1\n      mload\n      swap1\n      0x20\n      add\n      keccak256\n        /* \"@openzeppelin/contracts/utils/cryptography/MerkleProof.sol\":1941:2011  computedHash = keccak256(abi.encodePacked(proofElement, computedHash)) */\n      swap3\n      pop\n        /* \"@openzeppelin/contracts/utils/cryptography/MerkleProof.sol\":1624:2026  if (computedHash <= proofElement) {... */\n    tag_317:\n        /* \"@openzeppelin/contracts/utils/cryptography/MerkleProof.sol\":1522:2036  for (uint256 i = 0; i < proof.length; i++) {... */\n      pop\n        /* \"@openzeppelin/contracts/utils/cryptography/MerkleProof.sol\":1560:1563  i++ */\n      dup1\n      dup1\n      tag_319\n      swap1\n      tag_104\n      jump\t// in\n    tag_319:\n      swap2\n      pop\n      pop\n        /* \"@openzeppelin/contracts/utils/cryptography/MerkleProof.sol\":1522:2036  for (uint256 i = 0; i < proof.length; i++) {... */\n      jump(tag_310)\n    tag_311:\n      pop\n        /* \"@openzeppelin/contracts/utils/cryptography/MerkleProof.sol\":2052:2064  computedHash */\n      dup1\n        /* \"@openzeppelin/contracts/utils/cryptography/MerkleProof.sol\":2045:2064  return computedHash */\n      swap2\n      pop\n      pop\n        /* \"@openzeppelin/contracts/utils/cryptography/MerkleProof.sol\":1383:2071  function processProof(bytes32[] memory proof, bytes32 leaf) internal pure returns (bytes32) {... */\n      swap3\n      swap2\n      pop\n      pop\n      jump\t// out\n    tag_116:\n      dup3\n      dup1\n      sload\n      tag_320\n      swap1\n      tag_173\n      jump\t// in\n    tag_320:\n      swap1\n      0x00\n      mstore\n      keccak256(0x00, 0x20)\n      swap1\n      0x1f\n      add\n      0x20\n      swap1\n      div\n      dup2\n      add\n      swap3\n      dup3\n      tag_322\n      jumpi\n      0x00\n      dup6\n      sstore\n      jump(tag_321)\n    tag_322:\n      dup3\n      0x1f\n      lt\n      tag_323\n      jumpi\n      dup1\n      mload\n      not(0xff)\n      and\n      dup4\n      dup1\n      add\n      or\n      dup6\n      sstore\n      jump(tag_321)\n    tag_323:\n      dup3\n      dup1\n      add\n      0x01\n      add\n      dup6\n      sstore\n      dup3\n      iszero\n      tag_321\n      jumpi\n      swap2\n      dup3\n      add\n    tag_324:\n      dup3\n      dup2\n      gt\n      iszero\n      tag_325\n      jumpi\n      dup3\n      mload\n      dup3\n      sstore\n      swap2\n      0x20\n      add\n      swap2\n      swap1\n      0x01\n      add\n      swap1\n      jump(tag_324)\n    tag_325:\n    tag_321:\n      pop\n      swap1\n      pop\n      tag_326\n      swap2\n      swap1\n      tag_327\n      jump\t// in\n    tag_326:\n      pop\n      swap1\n      jump\t// out\n    tag_170:\n      mload(0x40)\n      dup1\n      0x0120\n      add\n      0x40\n      mstore\n      dup1\n      and(0xffffffff, 0x00)\n      dup2\n      mstore\n      0x20\n      add\n      and(0xffffffff, 0x00)\n      dup2\n      mstore\n      0x20\n      add\n      and(0xffffffff, 0x00)\n      dup2\n      mstore\n      0x20\n      add\n      and(0xffffffffffff, 0x00)\n      dup2\n      mstore\n      0x20\n      add\n      and(0xffffffffffff, 0x00)\n      dup2\n      mstore\n      0x20\n      add\n      0x00\n      0x03\n      dup2\n      gt\n      iszero\n      tag_328\n      jumpi\n      mstore(0x00, 0x4e487b7100000000000000000000000000000000000000000000000000000000)\n      mstore(0x04, 0x21)\n      revert(0x00, 0x24)\n    tag_328:\n      dup2\n      mstore\n      0x20\n      add\n      iszero(iszero(0x00))\n      dup2\n      mstore\n      0x20\n      add\n      0x00\n      dup1\n      not\n      and\n      dup2\n      mstore\n      0x20\n      add\n      0x60\n      dup2\n      mstore\n      pop\n      swap1\n      jump\t// out\n    tag_327:\n    tag_329:\n      dup1\n      dup3\n      gt\n      iszero\n      tag_330\n      jumpi\n      0x00\n      dup2\n      0x00\n      swap1\n      sstore\n      pop\n      0x01\n      add\n      jump(tag_329)\n    tag_330:\n      pop\n      swap1\n      jump\t// out\n        /* \"#utility.yul\":7:146   */\n    tag_332:\n      0x00\n        /* \"#utility.yul\":91:97   */\n      dup2\n        /* \"#utility.yul\":78:98   */\n      calldataload\n        /* \"#utility.yul\":69:98   */\n      swap1\n      pop\n        /* \"#utility.yul\":107:140   */\n      tag_334\n        /* \"#utility.yul\":134:139   */\n      dup2\n        /* \"#utility.yul\":107:140   */\n      tag_335\n      jump\t// in\n    tag_334:\n        /* \"#utility.yul\":59:146   */\n      swap3\n      swap2\n      pop\n      pop\n      jump\t// out\n        /* \"#utility.yul\":169:536   */\n    tag_336:\n      0x00\n      dup1\n        /* \"#utility.yul\":302:305   */\n      dup4\n        /* \"#utility.yul\":295:299   */\n      0x1f\n        /* \"#utility.yul\":287:293   */\n      dup5\n        /* \"#utility.yul\":283:300   */\n      add\n        /* \"#utility.yul\":279:306   */\n      slt\n        /* \"#utility.yul\":269:271   */\n      tag_338\n      jumpi\n        /* \"#utility.yul\":320:321   */\n      0x00\n        /* \"#utility.yul\":317:318   */\n      dup1\n        /* \"#utility.yul\":310:322   */\n      revert\n        /* \"#utility.yul\":269:271   */\n    tag_338:\n        /* \"#utility.yul\":356:362   */\n      dup3\n        /* \"#utility.yul\":343:363   */\n      calldataload\n        /* \"#utility.yul\":333:363   */\n      swap1\n      pop\n        /* \"#utility.yul\":386:404   */\n      0xffffffffffffffff\n        /* \"#utility.yul\":378:384   */\n      dup2\n        /* \"#utility.yul\":375:405   */\n      gt\n        /* \"#utility.yul\":372:374   */\n      iszero\n      tag_339\n      jumpi\n        /* \"#utility.yul\":418:419   */\n      0x00\n        /* \"#utility.yul\":415:416   */\n      dup1\n        /* \"#utility.yul\":408:420   */\n      revert\n        /* \"#utility.yul\":372:374   */\n    tag_339:\n        /* \"#utility.yul\":455:459   */\n      0x20\n        /* \"#utility.yul\":447:453   */\n      dup4\n        /* \"#utility.yul\":443:460   */\n      add\n        /* \"#utility.yul\":431:460   */\n      swap2\n      pop\n        /* \"#utility.yul\":509:512   */\n      dup4\n        /* \"#utility.yul\":501:505   */\n      0x20\n        /* \"#utility.yul\":493:499   */\n      dup3\n        /* \"#utility.yul\":489:506   */\n      mul\n        /* \"#utility.yul\":479:487   */\n      dup4\n        /* \"#utility.yul\":475:507   */\n      add\n        /* \"#utility.yul\":472:513   */\n      gt\n        /* \"#utility.yul\":469:471   */\n      iszero\n      tag_340\n      jumpi\n        /* \"#utility.yul\":526:527   */\n      0x00\n        /* \"#utility.yul\":523:524   */\n      dup1\n        /* \"#utility.yul\":516:528   */\n      revert\n        /* \"#utility.yul\":469:471   */\n    tag_340:\n        /* \"#utility.yul\":259:536   */\n      swap3\n      pop\n      swap3\n      swap1\n      pop\n      jump\t// out\n        /* \"#utility.yul\":542:675   */\n    tag_341:\n      0x00\n        /* \"#utility.yul\":623:629   */\n      dup2\n        /* \"#utility.yul\":610:630   */\n      calldataload\n        /* \"#utility.yul\":601:630   */\n      swap1\n      pop\n        /* \"#utility.yul\":639:669   */\n      tag_343\n        /* \"#utility.yul\":663:668   */\n      dup2\n        /* \"#utility.yul\":639:669   */\n      tag_344\n      jump\t// in\n    tag_343:\n        /* \"#utility.yul\":591:675   */\n      swap3\n      swap2\n      pop\n      pop\n      jump\t// out\n        /* \"#utility.yul\":681:818   */\n    tag_345:\n      0x00\n        /* \"#utility.yul\":766:772   */\n      dup2\n        /* \"#utility.yul\":760:773   */\n      mload\n        /* \"#utility.yul\":751:773   */\n      swap1\n      pop\n        /* \"#utility.yul\":782:812   */\n      tag_347\n        /* \"#utility.yul\":806:811   */\n      dup2\n        /* \"#utility.yul\":782:812   */\n      tag_344\n      jump\t// in\n    tag_347:\n        /* \"#utility.yul\":741:818   */\n      swap3\n      swap2\n      pop\n      pop\n      jump\t// out\n        /* \"#utility.yul\":824:961   */\n    tag_348:\n      0x00\n        /* \"#utility.yul\":907:913   */\n      dup2\n        /* \"#utility.yul\":894:914   */\n      calldataload\n        /* \"#utility.yul\":885:914   */\n      swap1\n      pop\n        /* \"#utility.yul\":923:955   */\n      tag_350\n        /* \"#utility.yul\":949:954   */\n      dup2\n        /* \"#utility.yul\":923:955   */\n      tag_351\n      jump\t// in\n    tag_350:\n        /* \"#utility.yul\":875:961   */\n      swap3\n      swap2\n      pop\n      pop\n      jump\t// out\n        /* \"#utility.yul\":967:1146   */\n    tag_352:\n      0x00\n        /* \"#utility.yul\":1071:1077   */\n      dup2\n        /* \"#utility.yul\":1058:1078   */\n      calldataload\n        /* \"#utility.yul\":1049:1078   */\n      swap1\n      pop\n        /* \"#utility.yul\":1087:1140   */\n      tag_354\n        /* \"#utility.yul\":1134:1139   */\n      dup2\n        /* \"#utility.yul\":1087:1140   */\n      tag_355\n      jump\t// in\n    tag_354:\n        /* \"#utility.yul\":1039:1146   */\n      swap3\n      swap2\n      pop\n      pop\n      jump\t// out\n        /* \"#utility.yul\":1199:1372   */\n    tag_356:\n      0x00\n        /* \"#utility.yul\":1321:1324   */\n      0x0100\n        /* \"#utility.yul\":1312:1318   */\n      dup3\n        /* \"#utility.yul\":1307:1310   */\n      dup5\n        /* \"#utility.yul\":1303:1319   */\n      sub\n        /* \"#utility.yul\":1299:1325   */\n      slt\n        /* \"#utility.yul\":1296:1298   */\n      iszero\n      tag_358\n      jumpi\n        /* \"#utility.yul\":1338:1339   */\n      0x00\n        /* \"#utility.yul\":1335:1336   */\n      dup1\n        /* \"#utility.yul\":1328:1340   */\n      revert\n        /* \"#utility.yul\":1296:1298   */\n    tag_358:\n        /* \"#utility.yul\":1360:1366   */\n      dup2\n        /* \"#utility.yul\":1351:1366   */\n      swap1\n      pop\n        /* \"#utility.yul\":1286:1372   */\n      swap3\n      swap2\n      pop\n      pop\n      jump\t// out\n        /* \"#utility.yul\":1378:1517   */\n    tag_359:\n      0x00\n        /* \"#utility.yul\":1462:1468   */\n      dup2\n        /* \"#utility.yul\":1449:1469   */\n      calldataload\n        /* \"#utility.yul\":1440:1469   */\n      swap1\n      pop\n        /* \"#utility.yul\":1478:1511   */\n      tag_361\n        /* \"#utility.yul\":1505:1510   */\n      dup2\n        /* \"#utility.yul\":1478:1511   */\n      tag_362\n      jump\t// in\n    tag_361:\n        /* \"#utility.yul\":1430:1517   */\n      swap3\n      swap2\n      pop\n      pop\n      jump\t// out\n        /* \"#utility.yul\":1523:1666   */\n    tag_363:\n      0x00\n        /* \"#utility.yul\":1611:1617   */\n      dup2\n        /* \"#utility.yul\":1605:1618   */\n      mload\n        /* \"#utility.yul\":1596:1618   */\n      swap1\n      pop\n        /* \"#utility.yul\":1627:1660   */\n      tag_365\n        /* \"#utility.yul\":1654:1659   */\n      dup2\n        /* \"#utility.yul\":1627:1660   */\n      tag_362\n      jump\t// in\n    tag_365:\n        /* \"#utility.yul\":1586:1666   */\n      swap3\n      swap2\n      pop\n      pop\n      jump\t// out\n        /* \"#utility.yul\":1672:1809   */\n    tag_366:\n      0x00\n        /* \"#utility.yul\":1755:1761   */\n      dup2\n        /* \"#utility.yul\":1742:1762   */\n      calldataload\n        /* \"#utility.yul\":1733:1762   */\n      swap1\n      pop\n        /* \"#utility.yul\":1771:1803   */\n      tag_368\n        /* \"#utility.yul\":1797:1802   */\n      dup2\n        /* \"#utility.yul\":1771:1803   */\n      tag_369\n      jump\t// in\n    tag_368:\n        /* \"#utility.yul\":1723:1809   */\n      swap3\n      swap2\n      pop\n      pop\n      jump\t// out\n        /* \"#utility.yul\":1815:1952   */\n    tag_370:\n      0x00\n        /* \"#utility.yul\":1898:1904   */\n      dup2\n        /* \"#utility.yul\":1885:1905   */\n      calldataload\n        /* \"#utility.yul\":1876:1905   */\n      swap1\n      pop\n        /* \"#utility.yul\":1914:1946   */\n      tag_372\n        /* \"#utility.yul\":1940:1945   */\n      dup2\n        /* \"#utility.yul\":1914:1946   */\n      tag_373\n      jump\t// in\n    tag_372:\n        /* \"#utility.yul\":1866:1952   */\n      swap3\n      swap2\n      pop\n      pop\n      jump\t// out\n        /* \"#utility.yul\":1958:2220   */\n    tag_52:\n      0x00\n        /* \"#utility.yul\":2066:2068   */\n      0x20\n        /* \"#utility.yul\":2054:2063   */\n      dup3\n        /* \"#utility.yul\":2045:2052   */\n      dup5\n        /* \"#utility.yul\":2041:2064   */\n      sub\n        /* \"#utility.yul\":2037:2069   */\n      slt\n        /* \"#utility.yul\":2034:2036   */\n      iszero\n      tag_375\n      jumpi\n        /* \"#utility.yul\":2082:2083   */\n      0x00\n        /* \"#utility.yul\":2079:2080   */\n      dup1\n        /* \"#utility.yul\":2072:2084   */\n      revert\n        /* \"#utility.yul\":2034:2036   */\n    tag_375:\n        /* \"#utility.yul\":2125:2126   */\n      0x00\n        /* \"#utility.yul\":2150:2203   */\n      tag_376\n        /* \"#utility.yul\":2195:2202   */\n      dup5\n        /* \"#utility.yul\":2186:2192   */\n      dup3\n        /* \"#utility.yul\":2175:2184   */\n      dup6\n        /* \"#utility.yul\":2171:2193   */\n      add\n        /* \"#utility.yul\":2150:2203   */\n      tag_332\n      jump\t// in\n    tag_376:\n        /* \"#utility.yul\":2140:2203   */\n      swap2\n      pop\n        /* \"#utility.yul\":2096:2213   */\n      pop\n        /* \"#utility.yul\":2024:2220   */\n      swap3\n      swap2\n      pop\n      pop\n      jump\t// out\n        /* \"#utility.yul\":2226:2796   */\n    tag_27:\n      0x00\n      dup1\n        /* \"#utility.yul\":2386:2388   */\n      0x40\n        /* \"#utility.yul\":2374:2383   */\n      dup4\n        /* \"#utility.yul\":2365:2372   */\n      dup6\n        /* \"#utility.yul\":2361:2384   */\n      sub\n        /* \"#utility.yul\":2357:2389   */\n      slt\n        /* \"#utility.yul\":2354:2356   */\n      iszero\n      tag_378\n      jumpi\n        /* \"#utility.yul\":2402:2403   */\n      0x00\n        /* \"#utility.yul\":2399:2400   */\n      dup1\n        /* \"#utility.yul\":2392:2404   */\n      revert\n        /* \"#utility.yul\":2354:2356   */\n    tag_378:\n        /* \"#utility.yul\":2445:2446   */\n      0x00\n        /* \"#utility.yul\":2470:2523   */\n      tag_379\n        /* \"#utility.yul\":2515:2522   */\n      dup6\n        /* \"#utility.yul\":2506:2512   */\n      dup3\n        /* \"#utility.yul\":2495:2504   */\n      dup7\n        /* \"#utility.yul\":2491:2513   */\n      add\n        /* \"#utility.yul\":2470:2523   */\n      tag_332\n      jump\t// in\n    tag_379:\n        /* \"#utility.yul\":2460:2523   */\n      swap3\n      pop\n        /* \"#utility.yul\":2416:2533   */\n      pop\n        /* \"#utility.yul\":2600:2602   */\n      0x20\n        /* \"#utility.yul\":2589:2598   */\n      dup4\n        /* \"#utility.yul\":2585:2603   */\n      add\n        /* \"#utility.yul\":2572:2604   */\n      calldataload\n        /* \"#utility.yul\":2631:2649   */\n      0xffffffffffffffff\n        /* \"#utility.yul\":2623:2629   */\n      dup2\n        /* \"#utility.yul\":2620:2650   */\n      gt\n        /* \"#utility.yul\":2617:2619   */\n      iszero\n      tag_380\n      jumpi\n        /* \"#utility.yul\":2663:2664   */\n      0x00\n        /* \"#utility.yul\":2660:2661   */\n      dup1\n        /* \"#utility.yul\":2653:2665   */\n      revert\n        /* \"#utility.yul\":2617:2619   */\n    tag_380:\n        /* \"#utility.yul\":2691:2779   */\n      tag_381\n        /* \"#utility.yul\":2771:2778   */\n      dup6\n        /* \"#utility.yul\":2762:2768   */\n      dup3\n        /* \"#utility.yul\":2751:2760   */\n      dup7\n        /* \"#utility.yul\":2747:2769   */\n      add\n        /* \"#utility.yul\":2691:2779   */\n      tag_356\n      jump\t// in\n    tag_381:\n        /* \"#utility.yul\":2681:2779   */\n      swap2\n      pop\n        /* \"#utility.yul\":2543:2789   */\n      pop\n        /* \"#utility.yul\":2344:2796   */\n      swap3\n      pop\n      swap3\n      swap1\n      pop\n      jump\t// out\n        /* \"#utility.yul\":2802:3209   */\n    tag_21:\n      0x00\n      dup1\n        /* \"#utility.yul\":2927:2929   */\n      0x40\n        /* \"#utility.yul\":2915:2924   */\n      dup4\n        /* \"#utility.yul\":2906:2913   */\n      dup6\n        /* \"#utility.yul\":2902:2925   */\n      sub\n        /* \"#utility.yul\":2898:2930   */\n      slt\n        /* \"#utility.yul\":2895:2897   */\n      iszero\n      tag_383\n      jumpi\n        /* \"#utility.yul\":2943:2944   */\n      0x00\n        /* \"#utility.yul\":2940:2941   */\n      dup1\n        /* \"#utility.yul\":2933:2945   */\n      revert\n        /* \"#utility.yul\":2895:2897   */\n    tag_383:\n        /* \"#utility.yul\":2986:2987   */\n      0x00\n        /* \"#utility.yul\":3011:3064   */\n      tag_384\n        /* \"#utility.yul\":3056:3063   */\n      dup6\n        /* \"#utility.yul\":3047:3053   */\n      dup3\n        /* \"#utility.yul\":3036:3045   */\n      dup7\n        /* \"#utility.yul\":3032:3054   */\n      add\n        /* \"#utility.yul\":3011:3064   */\n      tag_332\n      jump\t// in\n    tag_384:\n        /* \"#utility.yul\":3001:3064   */\n      swap3\n      pop\n        /* \"#utility.yul\":2957:3074   */\n      pop\n        /* \"#utility.yul\":3113:3115   */\n      0x20\n        /* \"#utility.yul\":3139:3192   */\n      tag_385\n        /* \"#utility.yul\":3184:3191   */\n      dup6\n        /* \"#utility.yul\":3175:3181   */\n      dup3\n        /* \"#utility.yul\":3164:3173   */\n      dup7\n        /* \"#utility.yul\":3160:3182   */\n      add\n        /* \"#utility.yul\":3139:3192   */\n      tag_359\n      jump\t// in\n    tag_385:\n        /* \"#utility.yul\":3129:3192   */\n      swap2\n      pop\n        /* \"#utility.yul\":3084:3202   */\n      pop\n        /* \"#utility.yul\":2885:3209   */\n      swap3\n      pop\n      swap3\n      swap1\n      pop\n      jump\t// out\n        /* \"#utility.yul\":3215:3767   */\n    tag_42:\n      0x00\n      dup1\n      0x00\n        /* \"#utility.yul\":3357:3359   */\n      0x60\n        /* \"#utility.yul\":3345:3354   */\n      dup5\n        /* \"#utility.yul\":3336:3343   */\n      dup7\n        /* \"#utility.yul\":3332:3355   */\n      sub\n        /* \"#utility.yul\":3328:3360   */\n      slt\n        /* \"#utility.yul\":3325:3327   */\n      iszero\n      tag_387\n      jumpi\n        /* \"#utility.yul\":3373:3374   */\n      0x00\n        /* \"#utility.yul\":3370:3371   */\n      dup1\n        /* \"#utility.yul\":3363:3375   */\n      revert\n        /* \"#utility.yul\":3325:3327   */\n    tag_387:\n        /* \"#utility.yul\":3416:3417   */\n      0x00\n        /* \"#utility.yul\":3441:3494   */\n      tag_388\n        /* \"#utility.yul\":3486:3493   */\n      dup7\n        /* \"#utility.yul\":3477:3483   */\n      dup3\n        /* \"#utility.yul\":3466:3475   */\n      dup8\n        /* \"#utility.yul\":3462:3484   */\n      add\n        /* \"#utility.yul\":3441:3494   */\n      tag_332\n      jump\t// in\n    tag_388:\n        /* \"#utility.yul\":3431:3494   */\n      swap4\n      pop\n        /* \"#utility.yul\":3387:3504   */\n      pop\n        /* \"#utility.yul\":3543:3545   */\n      0x20\n        /* \"#utility.yul\":3569:3622   */\n      tag_389\n        /* \"#utility.yul\":3614:3621   */\n      dup7\n        /* \"#utility.yul\":3605:3611   */\n      dup3\n        /* \"#utility.yul\":3594:3603   */\n      dup8\n        /* \"#utility.yul\":3590:3612   */\n      add\n        /* \"#utility.yul\":3569:3622   */\n      tag_359\n      jump\t// in\n    tag_389:\n        /* \"#utility.yul\":3559:3622   */\n      swap3\n      pop\n        /* \"#utility.yul\":3514:3632   */\n      pop\n        /* \"#utility.yul\":3671:3673   */\n      0x40\n        /* \"#utility.yul\":3697:3750   */\n      tag_390\n        /* \"#utility.yul\":3742:3749   */\n      dup7\n        /* \"#utility.yul\":3733:3739   */\n      dup3\n        /* \"#utility.yul\":3722:3731   */\n      dup8\n        /* \"#utility.yul\":3718:3740   */\n      add\n        /* \"#utility.yul\":3697:3750   */\n      tag_332\n      jump\t// in\n    tag_390:\n        /* \"#utility.yul\":3687:3750   */\n      swap2\n      pop\n        /* \"#utility.yul\":3642:3760   */\n      pop\n        /* \"#utility.yul\":3315:3767   */\n      swap3\n      pop\n      swap3\n      pop\n      swap3\n      jump\t// out\n        /* \"#utility.yul\":3773:4632   */\n    tag_32:\n      0x00\n      dup1\n      0x00\n      dup1\n      0x00\n        /* \"#utility.yul\":3966:3969   */\n      0x80\n        /* \"#utility.yul\":3954:3963   */\n      dup7\n        /* \"#utility.yul\":3945:3952   */\n      dup9\n        /* \"#utility.yul\":3941:3964   */\n      sub\n        /* \"#utility.yul\":3937:3970   */\n      slt\n        /* \"#utility.yul\":3934:3936   */\n      iszero\n      tag_392\n      jumpi\n        /* \"#utility.yul\":3983:3984   */\n      0x00\n        /* \"#utility.yul\":3980:3981   */\n      dup1\n        /* \"#utility.yul\":3973:3985   */\n      revert\n        /* \"#utility.yul\":3934:3936   */\n    tag_392:\n        /* \"#utility.yul\":4026:4027   */\n      0x00\n        /* \"#utility.yul\":4051:4104   */\n      tag_393\n        /* \"#utility.yul\":4096:4103   */\n      dup9\n        /* \"#utility.yul\":4087:4093   */\n      dup3\n        /* \"#utility.yul\":4076:4085   */\n      dup10\n        /* \"#utility.yul\":4072:4094   */\n      add\n        /* \"#utility.yul\":4051:4104   */\n      tag_332\n      jump\t// in\n    tag_393:\n        /* \"#utility.yul\":4041:4104   */\n      swap6\n      pop\n        /* \"#utility.yul\":3997:4114   */\n      pop\n        /* \"#utility.yul\":4153:4155   */\n      0x20\n        /* \"#utility.yul\":4179:4232   */\n      tag_394\n        /* \"#utility.yul\":4224:4231   */\n      dup9\n        /* \"#utility.yul\":4215:4221   */\n      dup3\n        /* \"#utility.yul\":4204:4213   */\n      dup10\n        /* \"#utility.yul\":4200:4222   */\n      add\n        /* \"#utility.yul\":4179:4232   */\n      tag_359\n      jump\t// in\n    tag_394:\n        /* \"#utility.yul\":4169:4232   */\n      swap5\n      pop\n        /* \"#utility.yul\":4124:4242   */\n      pop\n        /* \"#utility.yul\":4309:4311   */\n      0x40\n        /* \"#utility.yul\":4298:4307   */\n      dup7\n        /* \"#utility.yul\":4294:4312   */\n      add\n        /* \"#utility.yul\":4281:4313   */\n      calldataload\n        /* \"#utility.yul\":4340:4358   */\n      0xffffffffffffffff\n        /* \"#utility.yul\":4332:4338   */\n      dup2\n        /* \"#utility.yul\":4329:4359   */\n      gt\n        /* \"#utility.yul\":4326:4328   */\n      iszero\n      tag_395\n      jumpi\n        /* \"#utility.yul\":4372:4373   */\n      0x00\n        /* \"#utility.yul\":4369:4370   */\n      dup1\n        /* \"#utility.yul\":4362:4374   */\n      revert\n        /* \"#utility.yul\":4326:4328   */\n    tag_395:\n        /* \"#utility.yul\":4408:4488   */\n      tag_396\n        /* \"#utility.yul\":4480:4487   */\n      dup9\n        /* \"#utility.yul\":4471:4477   */\n      dup3\n        /* \"#utility.yul\":4460:4469   */\n      dup10\n        /* \"#utility.yul\":4456:4478   */\n      add\n        /* \"#utility.yul\":4408:4488   */\n      tag_336\n      jump\t// in\n    tag_396:\n        /* \"#utility.yul\":4390:4488   */\n      swap4\n      pop\n      swap4\n      pop\n        /* \"#utility.yul\":4252:4498   */\n      pop\n        /* \"#utility.yul\":4537:4539   */\n      0x60\n        /* \"#utility.yul\":4563:4615   */\n      tag_397\n        /* \"#utility.yul\":4607:4614   */\n      dup9\n        /* \"#utility.yul\":4598:4604   */\n      dup3\n        /* \"#utility.yul\":4587:4596   */\n      dup10\n        /* \"#utility.yul\":4583:4605   */\n      add\n        /* \"#utility.yul\":4563:4615   */\n      tag_366\n      jump\t// in\n    tag_397:\n        /* \"#utility.yul\":4553:4615   */\n      swap2\n      pop\n        /* \"#utility.yul\":4508:4625   */\n      pop\n        /* \"#utility.yul\":3924:4632   */\n      swap3\n      swap6\n      pop\n      swap3\n      swap6\n      swap1\n      swap4\n      pop\n      jump\t// out\n        /* \"#utility.yul\":4638:5353   */\n    tag_48:\n      0x00\n      dup1\n      0x00\n        /* \"#utility.yul\":4815:4817   */\n      0x60\n        /* \"#utility.yul\":4803:4812   */\n      dup5\n        /* \"#utility.yul\":4794:4801   */\n      dup7\n        /* \"#utility.yul\":4790:4813   */\n      sub\n        /* \"#utility.yul\":4786:4818   */\n      slt\n        /* \"#utility.yul\":4783:4785   */\n      iszero\n      tag_399\n      jumpi\n        /* \"#utility.yul\":4831:4832   */\n      0x00\n        /* \"#utility.yul\":4828:4829   */\n      dup1\n        /* \"#utility.yul\":4821:4833   */\n      revert\n        /* \"#utility.yul\":4783:4785   */\n    tag_399:\n        /* \"#utility.yul\":4874:4875   */\n      0x00\n        /* \"#utility.yul\":4899:4952   */\n      tag_400\n        /* \"#utility.yul\":4944:4951   */\n      dup7\n        /* \"#utility.yul\":4935:4941   */\n      dup3\n        /* \"#utility.yul\":4924:4933   */\n      dup8\n        /* \"#utility.yul\":4920:4942   */\n      add\n        /* \"#utility.yul\":4899:4952   */\n      tag_332\n      jump\t// in\n    tag_400:\n        /* \"#utility.yul\":4889:4952   */\n      swap4\n      pop\n        /* \"#utility.yul\":4845:4962   */\n      pop\n        /* \"#utility.yul\":5001:5003   */\n      0x20\n        /* \"#utility.yul\":5027:5080   */\n      tag_401\n        /* \"#utility.yul\":5072:5079   */\n      dup7\n        /* \"#utility.yul\":5063:5069   */\n      dup3\n        /* \"#utility.yul\":5052:5061   */\n      dup8\n        /* \"#utility.yul\":5048:5070   */\n      add\n        /* \"#utility.yul\":5027:5080   */\n      tag_359\n      jump\t// in\n    tag_401:\n        /* \"#utility.yul\":5017:5080   */\n      swap3\n      pop\n        /* \"#utility.yul\":4972:5090   */\n      pop\n        /* \"#utility.yul\":5157:5159   */\n      0x40\n        /* \"#utility.yul\":5146:5155   */\n      dup5\n        /* \"#utility.yul\":5142:5160   */\n      add\n        /* \"#utility.yul\":5129:5161   */\n      calldataload\n        /* \"#utility.yul\":5188:5206   */\n      0xffffffffffffffff\n        /* \"#utility.yul\":5180:5186   */\n      dup2\n        /* \"#utility.yul\":5177:5207   */\n      gt\n        /* \"#utility.yul\":5174:5176   */\n      iszero\n      tag_402\n      jumpi\n        /* \"#utility.yul\":5220:5221   */\n      0x00\n        /* \"#utility.yul\":5217:5218   */\n      dup1\n        /* \"#utility.yul\":5210:5222   */\n      revert\n        /* \"#utility.yul\":5174:5176   */\n    tag_402:\n        /* \"#utility.yul\":5248:5336   */\n      tag_403\n        /* \"#utility.yul\":5328:5335   */\n      dup7\n        /* \"#utility.yul\":5319:5325   */\n      dup3\n        /* \"#utility.yul\":5308:5317   */\n      dup8\n        /* \"#utility.yul\":5304:5326   */\n      add\n        /* \"#utility.yul\":5248:5336   */\n      tag_356\n      jump\t// in\n    tag_403:\n        /* \"#utility.yul\":5238:5336   */\n      swap2\n      pop\n        /* \"#utility.yul\":5100:5346   */\n      pop\n        /* \"#utility.yul\":4773:5353   */\n      swap3\n      pop\n      swap3\n      pop\n      swap3\n      jump\t// out\n        /* \"#utility.yul\":5359:5615   */\n    tag_112:\n      0x00\n        /* \"#utility.yul\":5464:5466   */\n      0x20\n        /* \"#utility.yul\":5452:5461   */\n      dup3\n        /* \"#utility.yul\":5443:5450   */\n      dup5\n        /* \"#utility.yul\":5439:5462   */\n      sub\n        /* \"#utility.yul\":5435:5467   */\n      slt\n        /* \"#utility.yul\":5432:5434   */\n      iszero\n      tag_405\n      jumpi\n        /* \"#utility.yul\":5480:5481   */\n      0x00\n        /* \"#utility.yul\":5477:5478   */\n      dup1\n        /* \"#utility.yul\":5470:5482   */\n      revert\n        /* \"#utility.yul\":5432:5434   */\n    tag_405:\n        /* \"#utility.yul\":5523:5524   */\n      0x00\n        /* \"#utility.yul\":5548:5598   */\n      tag_406\n        /* \"#utility.yul\":5590:5597   */\n      dup5\n        /* \"#utility.yul\":5581:5587   */\n      dup3\n        /* \"#utility.yul\":5570:5579   */\n      dup6\n        /* \"#utility.yul\":5566:5588   */\n      add\n        /* \"#utility.yul\":5548:5598   */\n      tag_341\n      jump\t// in\n    tag_406:\n        /* \"#utility.yul\":5538:5598   */\n      swap2\n      pop\n        /* \"#utility.yul\":5494:5608   */\n      pop\n        /* \"#utility.yul\":5422:5615   */\n      swap3\n      swap2\n      pop\n      pop\n      jump\t// out\n        /* \"#utility.yul\":5621:5899   */\n    tag_73:\n      0x00\n        /* \"#utility.yul\":5737:5739   */\n      0x20\n        /* \"#utility.yul\":5725:5734   */\n      dup3\n        /* \"#utility.yul\":5716:5723   */\n      dup5\n        /* \"#utility.yul\":5712:5735   */\n      sub\n        /* \"#utility.yul\":5708:5740   */\n      slt\n        /* \"#utility.yul\":5705:5707   */\n      iszero\n      tag_408\n      jumpi\n        /* \"#utility.yul\":5753:5754   */\n      0x00\n        /* \"#utility.yul\":5750:5751   */\n      dup1\n        /* \"#utility.yul\":5743:5755   */\n      revert\n        /* \"#utility.yul\":5705:5707   */\n    tag_408:\n        /* \"#utility.yul\":5796:5797   */\n      0x00\n        /* \"#utility.yul\":5821:5882   */\n      tag_409\n        /* \"#utility.yul\":5874:5881   */\n      dup5\n        /* \"#utility.yul\":5865:5871   */\n      dup3\n        /* \"#utility.yul\":5854:5863   */\n      dup6\n        /* \"#utility.yul\":5850:5872   */\n      add\n        /* \"#utility.yul\":5821:5882   */\n      tag_345\n      jump\t// in\n    tag_409:\n        /* \"#utility.yul\":5811:5882   */\n      swap2\n      pop\n        /* \"#utility.yul\":5767:5892   */\n      pop\n        /* \"#utility.yul\":5695:5899   */\n      swap3\n      swap2\n      pop\n      pop\n      jump\t// out\n        /* \"#utility.yul\":5905:6165   */\n    tag_15:\n      0x00\n        /* \"#utility.yul\":6012:6014   */\n      0x20\n        /* \"#utility.yul\":6000:6009   */\n      dup3\n        /* \"#utility.yul\":5991:5998   */\n      dup5\n        /* \"#utility.yul\":5987:6010   */\n      sub\n        /* \"#utility.yul\":5983:6015   */\n      slt\n        /* \"#utility.yul\":5980:5982   */\n      iszero\n      tag_411\n      jumpi\n        /* \"#utility.yul\":6028:6029   */\n      0x00\n        /* \"#utility.yul\":6025:6026   */\n      dup1\n        /* \"#utility.yul\":6018:6030   */\n      revert\n        /* \"#utility.yul\":5980:5982   */\n    tag_411:\n        /* \"#utility.yul\":6071:6072   */\n      0x00\n        /* \"#utility.yul\":6096:6148   */\n      tag_412\n        /* \"#utility.yul\":6140:6147   */\n      dup5\n        /* \"#utility.yul\":6131:6137   */\n      dup3\n        /* \"#utility.yul\":6120:6129   */\n      dup6\n        /* \"#utility.yul\":6116:6138   */\n      add\n        /* \"#utility.yul\":6096:6148   */\n      tag_348\n      jump\t// in\n    tag_412:\n        /* \"#utility.yul\":6086:6148   */\n      swap2\n      pop\n        /* \"#utility.yul\":6042:6158   */\n      pop\n        /* \"#utility.yul\":5970:6165   */\n      swap3\n      swap2\n      pop\n      pop\n      jump\t// out\n        /* \"#utility.yul\":6171:6473   */\n    tag_85:\n      0x00\n        /* \"#utility.yul\":6299:6301   */\n      0x20\n        /* \"#utility.yul\":6287:6296   */\n      dup3\n        /* \"#utility.yul\":6278:6285   */\n      dup5\n        /* \"#utility.yul\":6274:6297   */\n      sub\n        /* \"#utility.yul\":6270:6302   */\n      slt\n        /* \"#utility.yul\":6267:6269   */\n      iszero\n      tag_414\n      jumpi\n        /* \"#utility.yul\":6315:6316   */\n      0x00\n        /* \"#utility.yul\":6312:6313   */\n      dup1\n        /* \"#utility.yul\":6305:6317   */\n      revert\n        /* \"#utility.yul\":6267:6269   */\n    tag_414:\n        /* \"#utility.yul\":6358:6359   */\n      0x00\n        /* \"#utility.yul\":6383:6456   */\n      tag_415\n        /* \"#utility.yul\":6448:6455   */\n      dup5\n        /* \"#utility.yul\":6439:6445   */\n      dup3\n        /* \"#utility.yul\":6428:6437   */\n      dup6\n        /* \"#utility.yul\":6424:6446   */\n      add\n        /* \"#utility.yul\":6383:6456   */\n      tag_352\n      jump\t// in\n    tag_415:\n        /* \"#utility.yul\":6373:6456   */\n      swap2\n      pop\n        /* \"#utility.yul\":6329:6466   */\n      pop\n        /* \"#utility.yul\":6257:6473   */\n      swap3\n      swap2\n      pop\n      pop\n      jump\t// out\n        /* \"#utility.yul\":6479:6763   */\n    tag_164:\n      0x00\n        /* \"#utility.yul\":6598:6600   */\n      0x20\n        /* \"#utility.yul\":6586:6595   */\n      dup3\n        /* \"#utility.yul\":6577:6584   */\n      dup5\n        /* \"#utility.yul\":6573:6596   */\n      sub\n        /* \"#utility.yul\":6569:6601   */\n      slt\n        /* \"#utility.yul\":6566:6568   */\n      iszero\n      tag_417\n      jumpi\n        /* \"#utility.yul\":6614:6615   */\n      0x00\n        /* \"#utility.yul\":6611:6612   */\n      dup1\n        /* \"#utility.yul\":6604:6616   */\n      revert\n        /* \"#utility.yul\":6566:6568   */\n    tag_417:\n        /* \"#utility.yul\":6657:6658   */\n      0x00\n        /* \"#utility.yul\":6682:6746   */\n      tag_418\n        /* \"#utility.yul\":6738:6745   */\n      dup5\n        /* \"#utility.yul\":6729:6735   */\n      dup3\n        /* \"#utility.yul\":6718:6727   */\n      dup6\n        /* \"#utility.yul\":6714:6736   */\n      add\n        /* \"#utility.yul\":6682:6746   */\n      tag_363\n      jump\t// in\n    tag_418:\n        /* \"#utility.yul\":6672:6746   */\n      swap2\n      pop\n        /* \"#utility.yul\":6628:6756   */\n      pop\n        /* \"#utility.yul\":6556:6763   */\n      swap3\n      swap2\n      pop\n      pop\n      jump\t// out\n        /* \"#utility.yul\":6769:7029   */\n    tag_99:\n      0x00\n        /* \"#utility.yul\":6876:6878   */\n      0x20\n        /* \"#utility.yul\":6864:6873   */\n      dup3\n        /* \"#utility.yul\":6855:6862   */\n      dup5\n        /* \"#utility.yul\":6851:6874   */\n      sub\n        /* \"#utility.yul\":6847:6879   */\n      slt\n        /* \"#utility.yul\":6844:6846   */\n      iszero\n      tag_420\n      jumpi\n        /* \"#utility.yul\":6892:6893   */\n      0x00\n        /* \"#utility.yul\":6889:6890   */\n      dup1\n        /* \"#utility.yul\":6882:6894   */\n      revert\n        /* \"#utility.yul\":6844:6846   */\n    tag_420:\n        /* \"#utility.yul\":6935:6936   */\n      0x00\n        /* \"#utility.yul\":6960:7012   */\n      tag_421\n        /* \"#utility.yul\":7004:7011   */\n      dup5\n        /* \"#utility.yul\":6995:7001   */\n      dup3\n        /* \"#utility.yul\":6984:6993   */\n      dup6\n        /* \"#utility.yul\":6980:7002   */\n      add\n        /* \"#utility.yul\":6960:7012   */\n      tag_366\n      jump\t// in\n    tag_421:\n        /* \"#utility.yul\":6950:7012   */\n      swap2\n      pop\n        /* \"#utility.yul\":6906:7022   */\n      pop\n        /* \"#utility.yul\":6834:7029   */\n      swap3\n      swap2\n      pop\n      pop\n      jump\t// out\n        /* \"#utility.yul\":7035:7295   */\n    tag_91:\n      0x00\n        /* \"#utility.yul\":7142:7144   */\n      0x20\n        /* \"#utility.yul\":7130:7139   */\n      dup3\n        /* \"#utility.yul\":7121:7128   */\n      dup5\n        /* \"#utility.yul\":7117:7140   */\n      sub\n        /* \"#utility.yul\":7113:7145   */\n      slt\n        /* \"#utility.yul\":7110:7112   */\n      iszero\n      tag_423\n      jumpi\n        /* \"#utility.yul\":7158:7159   */\n      0x00\n        /* \"#utility.yul\":7155:7156   */\n      dup1\n        /* \"#utility.yul\":7148:7160   */\n      revert\n        /* \"#utility.yul\":7110:7112   */\n    tag_423:\n        /* \"#utility.yul\":7201:7202   */\n      0x00\n        /* \"#utility.yul\":7226:7278   */\n      tag_424\n        /* \"#utility.yul\":7270:7277   */\n      dup5\n        /* \"#utility.yul\":7261:7267   */\n      dup3\n        /* \"#utility.yul\":7250:7259   */\n      dup6\n        /* \"#utility.yul\":7246:7268   */\n      add\n        /* \"#utility.yul\":7226:7278   */\n      tag_370\n      jump\t// in\n    tag_424:\n        /* \"#utility.yul\":7216:7278   */\n      swap2\n      pop\n        /* \"#utility.yul\":7172:7288   */\n      pop\n        /* \"#utility.yul\":7100:7295   */\n      swap3\n      swap2\n      pop\n      pop\n      jump\t// out\n        /* \"#utility.yul\":7301:7419   */\n    tag_425:\n        /* \"#utility.yul\":7388:7412   */\n      tag_427\n        /* \"#utility.yul\":7406:7411   */\n      dup2\n        /* \"#utility.yul\":7388:7412   */\n      tag_428\n      jump\t// in\n    tag_427:\n        /* \"#utility.yul\":7383:7386   */\n      dup3\n        /* \"#utility.yul\":7376:7413   */\n      mstore\n        /* \"#utility.yul\":7366:7419   */\n      pop\n      pop\n      jump\t// out\n        /* \"#utility.yul\":7425:7582   */\n    tag_429:\n        /* \"#utility.yul\":7530:7575   */\n      tag_431\n        /* \"#utility.yul\":7550:7574   */\n      tag_432\n        /* \"#utility.yul\":7568:7573   */\n      dup3\n        /* \"#utility.yul\":7550:7574   */\n      tag_428\n      jump\t// in\n    tag_432:\n        /* \"#utility.yul\":7530:7575   */\n      tag_433\n      jump\t// in\n    tag_431:\n        /* \"#utility.yul\":7525:7528   */\n      dup3\n        /* \"#utility.yul\":7518:7576   */\n      mstore\n        /* \"#utility.yul\":7508:7582   */\n      pop\n      pop\n      jump\t// out\n        /* \"#utility.yul\":7588:7687   */\n    tag_434:\n        /* \"#utility.yul\":7659:7680   */\n      tag_436\n        /* \"#utility.yul\":7674:7679   */\n      dup2\n        /* \"#utility.yul\":7659:7680   */\n      tag_437\n      jump\t// in\n    tag_436:\n        /* \"#utility.yul\":7654:7657   */\n      dup3\n        /* \"#utility.yul\":7647:7681   */\n      mstore\n        /* \"#utility.yul\":7637:7687   */\n      pop\n      pop\n      jump\t// out\n        /* \"#utility.yul\":7693:7802   */\n    tag_438:\n        /* \"#utility.yul\":7774:7795   */\n      tag_440\n        /* \"#utility.yul\":7789:7794   */\n      dup2\n        /* \"#utility.yul\":7774:7795   */\n      tag_437\n      jump\t// in\n    tag_440:\n        /* \"#utility.yul\":7769:7772   */\n      dup3\n        /* \"#utility.yul\":7762:7796   */\n      mstore\n        /* \"#utility.yul\":7752:7802   */\n      pop\n      pop\n      jump\t// out\n        /* \"#utility.yul\":7808:7916   */\n    tag_441:\n        /* \"#utility.yul\":7885:7909   */\n      tag_443\n        /* \"#utility.yul\":7903:7908   */\n      dup2\n        /* \"#utility.yul\":7885:7909   */\n      tag_444\n      jump\t// in\n    tag_443:\n        /* \"#utility.yul\":7880:7883   */\n      dup3\n        /* \"#utility.yul\":7873:7910   */\n      mstore\n        /* \"#utility.yul\":7863:7916   */\n      pop\n      pop\n      jump\t// out\n        /* \"#utility.yul\":7922:8079   */\n    tag_445:\n        /* \"#utility.yul\":8027:8072   */\n      tag_447\n        /* \"#utility.yul\":8047:8071   */\n      tag_448\n        /* \"#utility.yul\":8065:8070   */\n      dup3\n        /* \"#utility.yul\":8047:8071   */\n      tag_444\n      jump\t// in\n    tag_448:\n        /* \"#utility.yul\":8027:8072   */\n      tag_449\n      jump\t// in\n    tag_447:\n        /* \"#utility.yul\":8022:8025   */\n      dup3\n        /* \"#utility.yul\":8015:8073   */\n      mstore\n        /* \"#utility.yul\":8005:8079   */\n      pop\n      pop\n      jump\t// out\n        /* \"#utility.yul\":8085:8242   */\n    tag_450:\n        /* \"#utility.yul\":8180:8235   */\n      tag_452\n        /* \"#utility.yul\":8229:8234   */\n      dup2\n        /* \"#utility.yul\":8180:8235   */\n      tag_453\n      jump\t// in\n    tag_452:\n        /* \"#utility.yul\":8175:8178   */\n      dup3\n        /* \"#utility.yul\":8168:8236   */\n      mstore\n        /* \"#utility.yul\":8158:8242   */\n      pop\n      pop\n      jump\t// out\n        /* \"#utility.yul\":8248:8592   */\n    tag_454:\n      0x00\n        /* \"#utility.yul\":8354:8393   */\n      tag_456\n        /* \"#utility.yul\":8387:8392   */\n      dup3\n        /* \"#utility.yul\":8354:8393   */\n      tag_457\n      jump\t// in\n    tag_456:\n        /* \"#utility.yul\":8409:8470   */\n      tag_458\n        /* \"#utility.yul\":8463:8469   */\n      dup2\n        /* \"#utility.yul\":8458:8461   */\n      dup6\n        /* \"#utility.yul\":8409:8470   */\n      tag_459\n      jump\t// in\n    tag_458:\n        /* \"#utility.yul\":8402:8470   */\n      swap4\n      pop\n        /* \"#utility.yul\":8479:8531   */\n      tag_460\n        /* \"#utility.yul\":8524:8530   */\n      dup2\n        /* \"#utility.yul\":8519:8522   */\n      dup6\n        /* \"#utility.yul\":8512:8516   */\n      0x20\n        /* \"#utility.yul\":8505:8510   */\n      dup7\n        /* \"#utility.yul\":8501:8517   */\n      add\n        /* \"#utility.yul\":8479:8531   */\n      tag_461\n      jump\t// in\n    tag_460:\n        /* \"#utility.yul\":8556:8585   */\n      tag_462\n        /* \"#utility.yul\":8578:8584   */\n      dup2\n        /* \"#utility.yul\":8556:8585   */\n      tag_463\n      jump\t// in\n    tag_462:\n        /* \"#utility.yul\":8551:8554   */\n      dup5\n        /* \"#utility.yul\":8547:8586   */\n      add\n        /* \"#utility.yul\":8540:8586   */\n      swap2\n      pop\n        /* \"#utility.yul\":8330:8592   */\n      pop\n      swap3\n      swap2\n      pop\n      pop\n      jump\t// out\n        /* \"#utility.yul\":8598:8962   */\n    tag_464:\n      0x00\n        /* \"#utility.yul\":8714:8753   */\n      tag_466\n        /* \"#utility.yul\":8747:8752   */\n      dup3\n        /* \"#utility.yul\":8714:8753   */\n      tag_457\n      jump\t// in\n    tag_466:\n        /* \"#utility.yul\":8769:8840   */\n      tag_467\n        /* \"#utility.yul\":8833:8839   */\n      dup2\n        /* \"#utility.yul\":8828:8831   */\n      dup6\n        /* \"#utility.yul\":8769:8840   */\n      tag_468\n      jump\t// in\n    tag_467:\n        /* \"#utility.yul\":8762:8840   */\n      swap4\n      pop\n        /* \"#utility.yul\":8849:8901   */\n      tag_469\n        /* \"#utility.yul\":8894:8900   */\n      dup2\n        /* \"#utility.yul\":8889:8892   */\n      dup6\n        /* \"#utility.yul\":8882:8886   */\n      0x20\n        /* \"#utility.yul\":8875:8880   */\n      dup7\n        /* \"#utility.yul\":8871:8887   */\n      add\n        /* \"#utility.yul\":8849:8901   */\n      tag_461\n      jump\t// in\n    tag_469:\n        /* \"#utility.yul\":8926:8955   */\n      tag_470\n        /* \"#utility.yul\":8948:8954   */\n      dup2\n        /* \"#utility.yul\":8926:8955   */\n      tag_463\n      jump\t// in\n    tag_470:\n        /* \"#utility.yul\":8921:8924   */\n      dup5\n        /* \"#utility.yul\":8917:8956   */\n      add\n        /* \"#utility.yul\":8910:8956   */\n      swap2\n      pop\n        /* \"#utility.yul\":8690:8962   */\n      pop\n      swap3\n      swap2\n      pop\n      pop\n      jump\t// out\n        /* \"#utility.yul\":8968:9345   */\n    tag_471:\n      0x00\n        /* \"#utility.yul\":9102:9141   */\n      tag_473\n        /* \"#utility.yul\":9135:9140   */\n      dup3\n        /* \"#utility.yul\":9102:9141   */\n      tag_457\n      jump\t// in\n    tag_473:\n        /* \"#utility.yul\":9157:9246   */\n      tag_474\n        /* \"#utility.yul\":9239:9245   */\n      dup2\n        /* \"#utility.yul\":9234:9237   */\n      dup6\n        /* \"#utility.yul\":9157:9246   */\n      tag_475\n      jump\t// in\n    tag_474:\n        /* \"#utility.yul\":9150:9246   */\n      swap4\n      pop\n        /* \"#utility.yul\":9255:9307   */\n      tag_476\n        /* \"#utility.yul\":9300:9306   */\n      dup2\n        /* \"#utility.yul\":9295:9298   */\n      dup6\n        /* \"#utility.yul\":9288:9292   */\n      0x20\n        /* \"#utility.yul\":9281:9286   */\n      dup7\n        /* \"#utility.yul\":9277:9293   */\n      add\n        /* \"#utility.yul\":9255:9307   */\n      tag_461\n      jump\t// in\n    tag_476:\n        /* \"#utility.yul\":9332:9338   */\n      dup1\n        /* \"#utility.yul\":9327:9330   */\n      dup5\n        /* \"#utility.yul\":9323:9339   */\n      add\n        /* \"#utility.yul\":9316:9339   */\n      swap2\n      pop\n        /* \"#utility.yul\":9078:9345   */\n      pop\n      swap3\n      swap2\n      pop\n      pop\n      jump\t// out\n        /* \"#utility.yul\":9375:10220   */\n    tag_477:\n      0x00\n        /* \"#utility.yul\":9515:9520   */\n      dup2\n        /* \"#utility.yul\":9509:9521   */\n      sload\n        /* \"#utility.yul\":9544:9580   */\n      tag_479\n        /* \"#utility.yul\":9570:9579   */\n      dup2\n        /* \"#utility.yul\":9544:9580   */\n      tag_173\n      jump\t// in\n    tag_479:\n        /* \"#utility.yul\":9596:9685   */\n      tag_480\n        /* \"#utility.yul\":9678:9684   */\n      dup2\n        /* \"#utility.yul\":9673:9676   */\n      dup7\n        /* \"#utility.yul\":9596:9685   */\n      tag_475\n      jump\t// in\n    tag_480:\n        /* \"#utility.yul\":9589:9685   */\n      swap5\n      pop\n        /* \"#utility.yul\":9716:9717   */\n      0x01\n        /* \"#utility.yul\":9705:9714   */\n      dup3\n        /* \"#utility.yul\":9701:9718   */\n      and\n        /* \"#utility.yul\":9732:9733   */\n      0x00\n        /* \"#utility.yul\":9727:9864   */\n      dup2\n      eq\n      tag_482\n      jumpi\n        /* \"#utility.yul\":9878:9879   */\n      0x01\n        /* \"#utility.yul\":9873:10214   */\n      dup2\n      eq\n      tag_483\n      jumpi\n        /* \"#utility.yul\":9694:10214   */\n      jump(tag_481)\n        /* \"#utility.yul\":9727:9864   */\n    tag_482:\n        /* \"#utility.yul\":9811:9815   */\n      0xff\n        /* \"#utility.yul\":9807:9816   */\n      not\n        /* \"#utility.yul\":9796:9805   */\n      dup4\n        /* \"#utility.yul\":9792:9817   */\n      and\n        /* \"#utility.yul\":9787:9790   */\n      dup7\n        /* \"#utility.yul\":9780:9818   */\n      mstore\n        /* \"#utility.yul\":9847:9853   */\n      dup2\n        /* \"#utility.yul\":9842:9845   */\n      dup7\n        /* \"#utility.yul\":9838:9854   */\n      add\n        /* \"#utility.yul\":9831:9854   */\n      swap4\n      pop\n        /* \"#utility.yul\":9727:9864   */\n      jump(tag_481)\n        /* \"#utility.yul\":9873:10214   */\n    tag_483:\n        /* \"#utility.yul\":9940:9978   */\n      tag_484\n        /* \"#utility.yul\":9972:9977   */\n      dup6\n        /* \"#utility.yul\":9940:9978   */\n      tag_485\n      jump\t// in\n    tag_484:\n        /* \"#utility.yul\":10000:10001   */\n      0x00\n        /* \"#utility.yul\":10014:10168   */\n    tag_486:\n        /* \"#utility.yul\":10028:10034   */\n      dup4\n        /* \"#utility.yul\":10025:10026   */\n      dup2\n        /* \"#utility.yul\":10022:10035   */\n      lt\n        /* \"#utility.yul\":10014:10168   */\n      iszero\n      tag_488\n      jumpi\n        /* \"#utility.yul\":10102:10109   */\n      dup2\n        /* \"#utility.yul\":10096:10110   */\n      sload\n        /* \"#utility.yul\":10092:10093   */\n      dup2\n        /* \"#utility.yul\":10087:10090   */\n      dup10\n        /* \"#utility.yul\":10083:10094   */\n      add\n        /* \"#utility.yul\":10076:10111   */\n      mstore\n        /* \"#utility.yul\":10152:10153   */\n      0x01\n        /* \"#utility.yul\":10143:10150   */\n      dup3\n        /* \"#utility.yul\":10139:10154   */\n      add\n        /* \"#utility.yul\":10128:10154   */\n      swap2\n      pop\n        /* \"#utility.yul\":10050:10054   */\n      0x20\n        /* \"#utility.yul\":10047:10048   */\n      dup2\n        /* \"#utility.yul\":10043:10055   */\n      add\n        /* \"#utility.yul\":10038:10055   */\n      swap1\n      pop\n        /* \"#utility.yul\":10014:10168   */\n      jump(tag_486)\n    tag_488:\n        /* \"#utility.yul\":10197:10203   */\n      dup4\n        /* \"#utility.yul\":10192:10195   */\n      dup9\n        /* \"#utility.yul\":10188:10204   */\n      add\n        /* \"#utility.yul\":10181:10204   */\n      swap6\n      pop\n        /* \"#utility.yul\":9880:10214   */\n      pop\n      pop\n        /* \"#utility.yul\":9694:10214   */\n    tag_481:\n      pop\n        /* \"#utility.yul\":9482:10220   */\n      pop\n      pop\n      swap3\n      swap2\n      pop\n      pop\n      jump\t// out\n        /* \"#utility.yul\":10226:10612   */\n    tag_489:\n      0x00\n        /* \"#utility.yul\":10389:10456   */\n      tag_491\n        /* \"#utility.yul\":10453:10455   */\n      0x36\n        /* \"#utility.yul\":10448:10451   */\n      dup4\n        /* \"#utility.yul\":10389:10456   */\n      tag_468\n      jump\t// in\n    tag_491:\n        /* \"#utility.yul\":10382:10456   */\n      swap2\n      pop\n        /* \"#utility.yul\":10486:10520   */\n      0x43616e6e6f742068617665207374617274446174652067726561746572207468\n        /* \"#utility.yul\":10482:10483   */\n      0x00\n        /* \"#utility.yul\":10477:10480   */\n      dup4\n        /* \"#utility.yul\":10473:10484   */\n      add\n        /* \"#utility.yul\":10466:10521   */\n      mstore\n        /* \"#utility.yul\":10552:10576   */\n      0x616e206f7220657175616c20746f20656e644461746500000000000000000000\n        /* \"#utility.yul\":10547:10549   */\n      0x20\n        /* \"#utility.yul\":10542:10545   */\n      dup4\n        /* \"#utility.yul\":10538:10550   */\n      add\n        /* \"#utility.yul\":10531:10577   */\n      mstore\n        /* \"#utility.yul\":10603:10605   */\n      0x40\n        /* \"#utility.yul\":10598:10601   */\n      dup3\n        /* \"#utility.yul\":10594:10606   */\n      add\n        /* \"#utility.yul\":10587:10606   */\n      swap1\n      pop\n        /* \"#utility.yul\":10372:10612   */\n      swap2\n      swap1\n      pop\n      jump\t// out\n        /* \"#utility.yul\":10618:10986   */\n    tag_492:\n      0x00\n        /* \"#utility.yul\":10781:10848   */\n      tag_494\n        /* \"#utility.yul\":10845:10847   */\n      0x24\n        /* \"#utility.yul\":10840:10843   */\n      dup4\n        /* \"#utility.yul\":10781:10848   */\n      tag_468\n      jump\t// in\n    tag_494:\n        /* \"#utility.yul\":10774:10848   */\n      swap2\n      pop\n        /* \"#utility.yul\":10878:10912   */\n      0x43616e6e6f74206f766572777269746520756e696e697469616c697a65642063\n        /* \"#utility.yul\":10874:10875   */\n      0x00\n        /* \"#utility.yul\":10869:10872   */\n      dup4\n        /* \"#utility.yul\":10865:10876   */\n      add\n        /* \"#utility.yul\":10858:10913   */\n      mstore\n        /* \"#utility.yul\":10944:10950   */\n      0x6c61696d00000000000000000000000000000000000000000000000000000000\n        /* \"#utility.yul\":10939:10941   */\n      0x20\n        /* \"#utility.yul\":10934:10937   */\n      dup4\n        /* \"#utility.yul\":10930:10942   */\n      add\n        /* \"#utility.yul\":10923:10951   */\n      mstore\n        /* \"#utility.yul\":10977:10979   */\n      0x40\n        /* \"#utility.yul\":10972:10975   */\n      dup3\n        /* \"#utility.yul\":10968:10980   */\n      add\n        /* \"#utility.yul\":10961:10980   */\n      swap1\n      pop\n        /* \"#utility.yul\":10764:10986   */\n      swap2\n      swap1\n      pop\n      jump\t// out\n        /* \"#utility.yul\":10992:11312   */\n    tag_495:\n      0x00\n        /* \"#utility.yul\":11155:11222   */\n      tag_497\n        /* \"#utility.yul\":11219:11221   */\n      0x16\n        /* \"#utility.yul\":11214:11217   */\n      dup4\n        /* \"#utility.yul\":11155:11222   */\n      tag_468\n      jump\t// in\n    tag_497:\n        /* \"#utility.yul\":11148:11222   */\n      swap2\n      pop\n        /* \"#utility.yul\":11252:11276   */\n      0x43616e6e6f74206d6f6469667920746f74616c4d617800000000000000000000\n        /* \"#utility.yul\":11248:11249   */\n      0x00\n        /* \"#utility.yul\":11243:11246   */\n      dup4\n        /* \"#utility.yul\":11239:11250   */\n      add\n        /* \"#utility.yul\":11232:11277   */\n      mstore\n        /* \"#utility.yul\":11303:11305   */\n      0x20\n        /* \"#utility.yul\":11298:11301   */\n      dup3\n        /* \"#utility.yul\":11294:11306   */\n      add\n        /* \"#utility.yul\":11287:11306   */\n      swap1\n      pop\n        /* \"#utility.yul\":11138:11312   */\n      swap2\n      swap1\n      pop\n      jump\t// out\n        /* \"#utility.yul\":11318:11689   */\n    tag_498:\n      0x00\n        /* \"#utility.yul\":11481:11548   */\n      tag_500\n        /* \"#utility.yul\":11545:11547   */\n      0x27\n        /* \"#utility.yul\":11540:11543   */\n      dup4\n        /* \"#utility.yul\":11481:11548   */\n      tag_468\n      jump\t// in\n    tag_500:\n        /* \"#utility.yul\":11474:11548   */\n      swap2\n      pop\n        /* \"#utility.yul\":11578:11612   */\n      0x43616e6e6f74206861766520746f74616c4d6178206772656174657220746861\n        /* \"#utility.yul\":11574:11575   */\n      0x00\n        /* \"#utility.yul\":11569:11572   */\n      dup4\n        /* \"#utility.yul\":11565:11576   */\n      add\n        /* \"#utility.yul\":11558:11613   */\n      mstore\n        /* \"#utility.yul\":11644:11653   */\n      0x6e20313030303000000000000000000000000000000000000000000000000000\n        /* \"#utility.yul\":11639:11641   */\n      0x20\n        /* \"#utility.yul\":11634:11637   */\n      dup4\n        /* \"#utility.yul\":11630:11642   */\n      add\n        /* \"#utility.yul\":11623:11654   */\n      mstore\n        /* \"#utility.yul\":11680:11682   */\n      0x40\n        /* \"#utility.yul\":11675:11678   */\n      dup3\n        /* \"#utility.yul\":11671:11683   */\n      add\n        /* \"#utility.yul\":11664:11683   */\n      swap1\n      pop\n        /* \"#utility.yul\":11464:11689   */\n      swap2\n      swap1\n      pop\n      jump\t// out\n        /* \"#utility.yul\":11695:12074   */\n    tag_501:\n      0x00\n        /* \"#utility.yul\":11858:11925   */\n      tag_503\n        /* \"#utility.yul\":11922:11924   */\n      0x2f\n        /* \"#utility.yul\":11917:11920   */\n      dup4\n        /* \"#utility.yul\":11858:11925   */\n      tag_468\n      jump\t// in\n    tag_503:\n        /* \"#utility.yul\":11851:11925   */\n      swap2\n      pop\n        /* \"#utility.yul\":11955:11989   */\n      0x43616e6e6f7420696e697469616c697a65207769746820696e76616c69642073\n        /* \"#utility.yul\":11951:11952   */\n      0x00\n        /* \"#utility.yul\":11946:11949   */\n      dup4\n        /* \"#utility.yul\":11942:11953   */\n      add\n        /* \"#utility.yul\":11935:11990   */\n      mstore\n        /* \"#utility.yul\":12021:12038   */\n      0x746f726167652070726f746f636f6c0000000000000000000000000000000000\n        /* \"#utility.yul\":12016:12018   */\n      0x20\n        /* \"#utility.yul\":12011:12014   */\n      dup4\n        /* \"#utility.yul\":12007:12019   */\n      add\n        /* \"#utility.yul\":12000:12039   */\n      mstore\n        /* \"#utility.yul\":12065:12067   */\n      0x40\n        /* \"#utility.yul\":12060:12063   */\n      dup3\n        /* \"#utility.yul\":12056:12068   */\n      add\n        /* \"#utility.yul\":12049:12068   */\n      swap1\n      pop\n        /* \"#utility.yul\":11841:12074   */\n      swap2\n      swap1\n      pop\n      jump\t// out\n        /* \"#utility.yul\":12080:12455   */\n    tag_504:\n      0x00\n        /* \"#utility.yul\":12243:12310   */\n      tag_506\n        /* \"#utility.yul\":12307:12309   */\n      0x2b\n        /* \"#utility.yul\":12302:12305   */\n      dup4\n        /* \"#utility.yul\":12243:12310   */\n      tag_468\n      jump\t// in\n    tag_506:\n        /* \"#utility.yul\":12236:12310   */\n      swap2\n      pop\n        /* \"#utility.yul\":12340:12374   */\n      0x57616c6c6574206973206e6f7420616e2061646d696e6973747261746f722066\n        /* \"#utility.yul\":12336:12337   */\n      0x00\n        /* \"#utility.yul\":12331:12334   */\n      dup4\n        /* \"#utility.yul\":12327:12338   */\n      add\n        /* \"#utility.yul\":12320:12375   */\n      mstore\n        /* \"#utility.yul\":12406:12419   */\n      0x6f7220636f6e7472616374000000000000000000000000000000000000000000\n        /* \"#utility.yul\":12401:12403   */\n      0x20\n        /* \"#utility.yul\":12396:12399   */\n      dup4\n        /* \"#utility.yul\":12392:12404   */\n      add\n        /* \"#utility.yul\":12385:12420   */\n      mstore\n        /* \"#utility.yul\":12446:12448   */\n      0x40\n        /* \"#utility.yul\":12441:12444   */\n      dup3\n        /* \"#utility.yul\":12437:12449   */\n      add\n        /* \"#utility.yul\":12430:12449   */\n      swap1\n      pop\n        /* \"#utility.yul\":12226:12455   */\n      swap2\n      swap1\n      pop\n      jump\t// out\n        /* \"#utility.yul\":12461:12772   */\n    tag_507:\n      0x00\n        /* \"#utility.yul\":12624:12691   */\n      tag_509\n        /* \"#utility.yul\":12688:12690   */\n      0x0d\n        /* \"#utility.yul\":12683:12686   */\n      dup4\n        /* \"#utility.yul\":12624:12691   */\n      tag_468\n      jump\t// in\n    tag_509:\n        /* \"#utility.yul\":12617:12691   */\n      swap2\n      pop\n        /* \"#utility.yul\":12721:12736   */\n      0x496e76616c696420746f6b656e00000000000000000000000000000000000000\n        /* \"#utility.yul\":12717:12718   */\n      0x00\n        /* \"#utility.yul\":12712:12715   */\n      dup4\n        /* \"#utility.yul\":12708:12719   */\n      add\n        /* \"#utility.yul\":12701:12737   */\n      mstore\n        /* \"#utility.yul\":12763:12765   */\n      0x20\n        /* \"#utility.yul\":12758:12761   */\n      dup3\n        /* \"#utility.yul\":12754:12766   */\n      add\n        /* \"#utility.yul\":12747:12766   */\n      swap1\n      pop\n        /* \"#utility.yul\":12607:12772   */\n      swap2\n      swap1\n      pop\n      jump\t// out\n        /* \"#utility.yul\":12778:13147   */\n    tag_510:\n      0x00\n        /* \"#utility.yul\":12941:13008   */\n      tag_512\n        /* \"#utility.yul\":13005:13007   */\n      0x25\n        /* \"#utility.yul\":13000:13003   */\n      dup4\n        /* \"#utility.yul\":12941:13008   */\n      tag_468\n      jump\t// in\n    tag_512:\n        /* \"#utility.yul\":12934:13008   */\n      swap2\n      pop\n        /* \"#utility.yul\":13038:13072   */\n      0x43616e6e6f7420696e697469616c697a65207769746820656d707479206c6f63\n        /* \"#utility.yul\":13034:13035   */\n      0x00\n        /* \"#utility.yul\":13029:13032   */\n      dup4\n        /* \"#utility.yul\":13025:13036   */\n      add\n        /* \"#utility.yul\":13018:13073   */\n      mstore\n        /* \"#utility.yul\":13104:13111   */\n      0x6174696f6e000000000000000000000000000000000000000000000000000000\n        /* \"#utility.yul\":13099:13101   */\n      0x20\n        /* \"#utility.yul\":13094:13097   */\n      dup4\n        /* \"#utility.yul\":13090:13102   */\n      add\n        /* \"#utility.yul\":13083:13112   */\n      mstore\n        /* \"#utility.yul\":13138:13140   */\n      0x40\n        /* \"#utility.yul\":13133:13136   */\n      dup3\n        /* \"#utility.yul\":13129:13141   */\n      add\n        /* \"#utility.yul\":13122:13141   */\n      swap1\n      pop\n        /* \"#utility.yul\":12924:13147   */\n      swap2\n      swap1\n      pop\n      jump\t// out\n        /* \"#utility.yul\":13153:13480   */\n    tag_513:\n      0x00\n        /* \"#utility.yul\":13316:13383   */\n      tag_515\n        /* \"#utility.yul\":13380:13382   */\n      0x1d\n        /* \"#utility.yul\":13375:13378   */\n      dup4\n        /* \"#utility.yul\":13316:13383   */\n      tag_468\n      jump\t// in\n    tag_515:\n        /* \"#utility.yul\":13309:13383   */\n      swap2\n      pop\n        /* \"#utility.yul\":13413:13444   */\n      0x5472616e73616374696f6e206265666f72652073746172742064617465000000\n        /* \"#utility.yul\":13409:13410   */\n      0x00\n        /* \"#utility.yul\":13404:13407   */\n      dup4\n        /* \"#utility.yul\":13400:13411   */\n      add\n        /* \"#utility.yul\":13393:13445   */\n      mstore\n        /* \"#utility.yul\":13471:13473   */\n      0x20\n        /* \"#utility.yul\":13466:13469   */\n      dup3\n        /* \"#utility.yul\":13462:13474   */\n      add\n        /* \"#utility.yul\":13455:13474   */\n      swap1\n      pop\n        /* \"#utility.yul\":13299:13480   */\n      swap2\n      swap1\n      pop\n      jump\t// out\n        /* \"#utility.yul\":13486:13805   */\n    tag_516:\n      0x00\n        /* \"#utility.yul\":13649:13716   */\n      tag_518\n        /* \"#utility.yul\":13713:13715   */\n      0x15\n        /* \"#utility.yul\":13708:13711   */\n      dup4\n        /* \"#utility.yul\":13649:13716   */\n      tag_468\n      jump\t// in\n    tag_518:\n        /* \"#utility.yul\":13642:13716   */\n      swap2\n      pop\n        /* \"#utility.yul\":13746:13769   */\n      0x436c61696d206e6f7420696e697469616c697a65640000000000000000000000\n        /* \"#utility.yul\":13742:13743   */\n      0x00\n        /* \"#utility.yul\":13737:13740   */\n      dup4\n        /* \"#utility.yul\":13733:13744   */\n      add\n        /* \"#utility.yul\":13726:13770   */\n      mstore\n        /* \"#utility.yul\":13796:13798   */\n      0x20\n        /* \"#utility.yul\":13791:13794   */\n      dup3\n        /* \"#utility.yul\":13787:13799   */\n      add\n        /* \"#utility.yul\":13780:13799   */\n      swap1\n      pop\n        /* \"#utility.yul\":13632:13805   */\n      swap2\n      swap1\n      pop\n      jump\t// out\n        /* \"#utility.yul\":13811:14139   */\n    tag_519:\n      0x00\n        /* \"#utility.yul\":13974:14041   */\n      tag_521\n        /* \"#utility.yul\":14038:14040   */\n      0x1e\n        /* \"#utility.yul\":14033:14036   */\n      dup4\n        /* \"#utility.yul\":13974:14041   */\n      tag_468\n      jump\t// in\n    tag_521:\n        /* \"#utility.yul\":13967:14041   */\n      swap2\n      pop\n        /* \"#utility.yul\":14071:14103   */\n      0x4e6f20636c61696d7320666f722063726561746f7220636f6e74726163740000\n        /* \"#utility.yul\":14067:14068   */\n      0x00\n        /* \"#utility.yul\":14062:14065   */\n      dup4\n        /* \"#utility.yul\":14058:14069   */\n      add\n        /* \"#utility.yul\":14051:14104   */\n      mstore\n        /* \"#utility.yul\":14130:14132   */\n      0x20\n        /* \"#utility.yul\":14125:14128   */\n      dup3\n        /* \"#utility.yul\":14121:14133   */\n      add\n        /* \"#utility.yul\":14114:14133   */\n      swap1\n      pop\n        /* \"#utility.yul\":13957:14139   */\n      swap2\n      swap1\n      pop\n      jump\t// out\n        /* \"#utility.yul\":14145:14482   */\n    tag_522:\n      0x00\n        /* \"#utility.yul\":14326:14410   */\n      tag_524\n        /* \"#utility.yul\":14408:14409   */\n      0x05\n        /* \"#utility.yul\":14403:14406   */\n      dup4\n        /* \"#utility.yul\":14326:14410   */\n      tag_475\n      jump\t// in\n    tag_524:\n        /* \"#utility.yul\":14319:14410   */\n      swap2\n      pop\n        /* \"#utility.yul\":14440:14447   */\n      0x2e6a736f6e000000000000000000000000000000000000000000000000000000\n        /* \"#utility.yul\":14436:14437   */\n      0x00\n        /* \"#utility.yul\":14431:14434   */\n      dup4\n        /* \"#utility.yul\":14427:14438   */\n      add\n        /* \"#utility.yul\":14420:14448   */\n      mstore\n        /* \"#utility.yul\":14474:14475   */\n      0x05\n        /* \"#utility.yul\":14469:14472   */\n      dup3\n        /* \"#utility.yul\":14465:14476   */\n      add\n        /* \"#utility.yul\":14458:14476   */\n      swap1\n      pop\n        /* \"#utility.yul\":14309:14482   */\n      swap2\n      swap1\n      pop\n      jump\t// out\n        /* \"#utility.yul\":14488:14811   */\n    tag_525:\n      0x00\n        /* \"#utility.yul\":14651:14718   */\n      tag_527\n        /* \"#utility.yul\":14715:14717   */\n      0x19\n        /* \"#utility.yul\":14710:14713   */\n      dup4\n        /* \"#utility.yul\":14651:14718   */\n      tag_468\n      jump\t// in\n    tag_527:\n        /* \"#utility.yul\":14644:14718   */\n      swap2\n      pop\n        /* \"#utility.yul\":14748:14775   */\n      0x43616e6e6f742064656372656173652077616c6c65744d617800000000000000\n        /* \"#utility.yul\":14744:14745   */\n      0x00\n        /* \"#utility.yul\":14739:14742   */\n      dup4\n        /* \"#utility.yul\":14735:14746   */\n      add\n        /* \"#utility.yul\":14728:14776   */\n      mstore\n        /* \"#utility.yul\":14802:14804   */\n      0x20\n        /* \"#utility.yul\":14797:14800   */\n      dup3\n        /* \"#utility.yul\":14793:14805   */\n      add\n        /* \"#utility.yul\":14786:14805   */\n      swap1\n      pop\n        /* \"#utility.yul\":14634:14811   */\n      swap2\n      swap1\n      pop\n      jump\t// out\n        /* \"#utility.yul\":14817:15193   */\n    tag_528:\n      0x00\n        /* \"#utility.yul\":14980:15047   */\n      tag_530\n        /* \"#utility.yul\":15044:15046   */\n      0x2c\n        /* \"#utility.yul\":15039:15042   */\n      dup4\n        /* \"#utility.yul\":14980:15047   */\n      tag_468\n      jump\t// in\n    tag_530:\n        /* \"#utility.yul\":14973:15047   */\n      swap2\n      pop\n        /* \"#utility.yul\":15077:15111   */\n      0x4d6178696d756d20746f6b656e7320616c7265616479206d696e74656420666f\n        /* \"#utility.yul\":15073:15074   */\n      0x00\n        /* \"#utility.yul\":15068:15071   */\n      dup4\n        /* \"#utility.yul\":15064:15075   */\n      add\n        /* \"#utility.yul\":15057:15112   */\n      mstore\n        /* \"#utility.yul\":15143:15157   */\n      0x72207468697320636c61696d0000000000000000000000000000000000000000\n        /* \"#utility.yul\":15138:15140   */\n      0x20\n        /* \"#utility.yul\":15133:15136   */\n      dup4\n        /* \"#utility.yul\":15129:15141   */\n      add\n        /* \"#utility.yul\":15122:15158   */\n      mstore\n        /* \"#utility.yul\":15184:15186   */\n      0x40\n        /* \"#utility.yul\":15179:15182   */\n      dup3\n        /* \"#utility.yul\":15175:15187   */\n      add\n        /* \"#utility.yul\":15168:15187   */\n      swap1\n      pop\n        /* \"#utility.yul\":14963:15193   */\n      swap2\n      swap1\n      pop\n      jump\t// out\n        /* \"#utility.yul\":15199:15526   */\n    tag_531:\n      0x00\n        /* \"#utility.yul\":15362:15429   */\n      tag_533\n        /* \"#utility.yul\":15426:15428   */\n      0x1d\n        /* \"#utility.yul\":15421:15424   */\n      dup4\n        /* \"#utility.yul\":15362:15429   */\n      tag_468\n      jump\t// in\n    tag_533:\n        /* \"#utility.yul\":15355:15429   */\n      swap2\n      pop\n        /* \"#utility.yul\":15459:15490   */\n      0x436f756c64206e6f7420766572696679206d65726b6c652070726f6f66000000\n        /* \"#utility.yul\":15455:15456   */\n      0x00\n        /* \"#utility.yul\":15450:15453   */\n      dup4\n        /* \"#utility.yul\":15446:15457   */\n      add\n        /* \"#utility.yul\":15439:15491   */\n      mstore\n        /* \"#utility.yul\":15517:15519   */\n      0x20\n        /* \"#utility.yul\":15512:15515   */\n      dup3\n        /* \"#utility.yul\":15508:15520   */\n      add\n        /* \"#utility.yul\":15501:15520   */\n      swap1\n      pop\n        /* \"#utility.yul\":15345:15526   */\n      swap2\n      swap1\n      pop\n      jump\t// out\n        /* \"#utility.yul\":15532:15909   */\n    tag_534:\n      0x00\n        /* \"#utility.yul\":15695:15762   */\n      tag_536\n        /* \"#utility.yul\":15759:15761   */\n      0x2d\n        /* \"#utility.yul\":15754:15757   */\n      dup4\n        /* \"#utility.yul\":15695:15762   */\n      tag_468\n      jump\t// in\n    tag_536:\n        /* \"#utility.yul\":15688:15762   */\n      swap2\n      pop\n        /* \"#utility.yul\":15792:15826   */\n      0x4d6178696d756d20746f6b656e7320616c7265616479206d696e74656420666f\n        /* \"#utility.yul\":15788:15789   */\n      0x00\n        /* \"#utility.yul\":15783:15786   */\n      dup4\n        /* \"#utility.yul\":15779:15790   */\n      add\n        /* \"#utility.yul\":15772:15827   */\n      mstore\n        /* \"#utility.yul\":15858:15873   */\n      0x7220746869732077616c6c657400000000000000000000000000000000000000\n        /* \"#utility.yul\":15853:15855   */\n      0x20\n        /* \"#utility.yul\":15848:15851   */\n      dup4\n        /* \"#utility.yul\":15844:15856   */\n      add\n        /* \"#utility.yul\":15837:15874   */\n      mstore\n        /* \"#utility.yul\":15900:15902   */\n      0x40\n        /* \"#utility.yul\":15895:15898   */\n      dup3\n        /* \"#utility.yul\":15891:15903   */\n      add\n        /* \"#utility.yul\":15884:15903   */\n      swap1\n      pop\n        /* \"#utility.yul\":15678:15909   */\n      swap2\n      swap1\n      pop\n      jump\t// out\n        /* \"#utility.yul\":15915:16282   */\n    tag_537:\n      0x00\n        /* \"#utility.yul\":16078:16145   */\n      tag_539\n        /* \"#utility.yul\":16142:16144   */\n      0x23\n        /* \"#utility.yul\":16137:16140   */\n      dup4\n        /* \"#utility.yul\":16078:16145   */\n      tag_468\n      jump\t// in\n    tag_539:\n        /* \"#utility.yul\":16071:16145   */\n      swap2\n      pop\n        /* \"#utility.yul\":16175:16209   */\n      0x43616e6e6f742073657420696e76616c69642073746f726167652070726f746f\n        /* \"#utility.yul\":16171:16172   */\n      0x00\n        /* \"#utility.yul\":16166:16169   */\n      dup4\n        /* \"#utility.yul\":16162:16173   */\n      add\n        /* \"#utility.yul\":16155:16210   */\n      mstore\n        /* \"#utility.yul\":16241:16246   */\n      0x636f6c0000000000000000000000000000000000000000000000000000000000\n        /* \"#utility.yul\":16236:16238   */\n      0x20\n        /* \"#utility.yul\":16231:16234   */\n      dup4\n        /* \"#utility.yul\":16227:16239   */\n      add\n        /* \"#utility.yul\":16220:16247   */\n      mstore\n        /* \"#utility.yul\":16273:16275   */\n      0x40\n        /* \"#utility.yul\":16268:16271   */\n      dup3\n        /* \"#utility.yul\":16264:16276   */\n      add\n        /* \"#utility.yul\":16257:16276   */\n      swap1\n      pop\n        /* \"#utility.yul\":16061:16282   */\n      swap2\n      swap1\n      pop\n      jump\t// out\n        /* \"#utility.yul\":16288:16612   */\n    tag_540:\n      0x00\n        /* \"#utility.yul\":16451:16518   */\n      tag_542\n        /* \"#utility.yul\":16515:16517   */\n      0x1a\n        /* \"#utility.yul\":16510:16513   */\n      dup4\n        /* \"#utility.yul\":16451:16518   */\n      tag_468\n      jump\t// in\n    tag_542:\n        /* \"#utility.yul\":16444:16518   */\n      swap2\n      pop\n        /* \"#utility.yul\":16548:16576   */\n      0x5472616e73616374696f6e20616674657220656e642064617465000000000000\n        /* \"#utility.yul\":16544:16545   */\n      0x00\n        /* \"#utility.yul\":16539:16542   */\n      dup4\n        /* \"#utility.yul\":16535:16546   */\n      add\n        /* \"#utility.yul\":16528:16577   */\n      mstore\n        /* \"#utility.yul\":16603:16605   */\n      0x20\n        /* \"#utility.yul\":16598:16601   */\n      dup3\n        /* \"#utility.yul\":16594:16606   */\n      add\n        /* \"#utility.yul\":16587:16606   */\n      swap1\n      pop\n        /* \"#utility.yul\":16434:16612   */\n      swap2\n      swap1\n      pop\n      jump\t// out\n        /* \"#utility.yul\":16618:17010   */\n    tag_543:\n      0x00\n        /* \"#utility.yul\":16781:16848   */\n      tag_545\n        /* \"#utility.yul\":16845:16847   */\n      0x3c\n        /* \"#utility.yul\":16840:16843   */\n      dup4\n        /* \"#utility.yul\":16781:16848   */\n      tag_468\n      jump\t// in\n    tag_545:\n        /* \"#utility.yul\":16774:16848   */\n      swap2\n      pop\n        /* \"#utility.yul\":16878:16912   */\n      0x4d6178696d756d20746f6b656e7320616c7265616479206d696e74656420666f\n        /* \"#utility.yul\":16874:16875   */\n      0x00\n        /* \"#utility.yul\":16869:16872   */\n      dup4\n        /* \"#utility.yul\":16865:16876   */\n      add\n        /* \"#utility.yul\":16858:16913   */\n      mstore\n        /* \"#utility.yul\":16944:16974   */\n      0x7220746869732077616c6c65742070657220616c6c6f636174696f6e00000000\n        /* \"#utility.yul\":16939:16941   */\n      0x20\n        /* \"#utility.yul\":16934:16937   */\n      dup4\n        /* \"#utility.yul\":16930:16942   */\n      add\n        /* \"#utility.yul\":16923:16975   */\n      mstore\n        /* \"#utility.yul\":17001:17003   */\n      0x40\n        /* \"#utility.yul\":16996:16999   */\n      dup3\n        /* \"#utility.yul\":16992:17004   */\n      add\n        /* \"#utility.yul\":16985:17004   */\n      swap1\n      pop\n        /* \"#utility.yul\":16764:17010   */\n      swap2\n      swap1\n      pop\n      jump\t// out\n        /* \"#utility.yul\":17016:17349   */\n    tag_546:\n      0x00\n        /* \"#utility.yul\":17197:17281   */\n      tag_548\n        /* \"#utility.yul\":17279:17280   */\n      0x01\n        /* \"#utility.yul\":17274:17277   */\n      dup4\n        /* \"#utility.yul\":17197:17281   */\n      tag_475\n      jump\t// in\n    tag_548:\n        /* \"#utility.yul\":17190:17281   */\n      swap2\n      pop\n        /* \"#utility.yul\":17311:17314   */\n      0x2f00000000000000000000000000000000000000000000000000000000000000\n        /* \"#utility.yul\":17307:17308   */\n      0x00\n        /* \"#utility.yul\":17302:17305   */\n      dup4\n        /* \"#utility.yul\":17298:17309   */\n      add\n        /* \"#utility.yul\":17291:17315   */\n      mstore\n        /* \"#utility.yul\":17341:17342   */\n      0x01\n        /* \"#utility.yul\":17336:17339   */\n      dup3\n        /* \"#utility.yul\":17332:17343   */\n      add\n        /* \"#utility.yul\":17325:17343   */\n      swap1\n      pop\n        /* \"#utility.yul\":17180:17349   */\n      swap2\n      swap1\n      pop\n      jump\t// out\n        /* \"#utility.yul\":17425:19297   */\n    tag_549:\n      0x00\n        /* \"#utility.yul\":17576:17582   */\n      0x0120\n        /* \"#utility.yul\":17571:17574   */\n      dup4\n        /* \"#utility.yul\":17567:17583   */\n      add\n        /* \"#utility.yul\":17666:17670   */\n      0x00\n        /* \"#utility.yul\":17659:17664   */\n      dup4\n        /* \"#utility.yul\":17655:17671   */\n      add\n        /* \"#utility.yul\":17649:17672   */\n      mload\n        /* \"#utility.yul\":17685:17746   */\n      tag_551\n        /* \"#utility.yul\":17740:17744   */\n      0x00\n        /* \"#utility.yul\":17735:17738   */\n      dup7\n        /* \"#utility.yul\":17731:17745   */\n      add\n        /* \"#utility.yul\":17717:17729   */\n      dup3\n        /* \"#utility.yul\":17685:17746   */\n      tag_552\n      jump\t// in\n    tag_551:\n        /* \"#utility.yul\":17593:17756   */\n      pop\n        /* \"#utility.yul\":17842:17846   */\n      0x20\n        /* \"#utility.yul\":17835:17840   */\n      dup4\n        /* \"#utility.yul\":17831:17847   */\n      add\n        /* \"#utility.yul\":17825:17848   */\n      mload\n        /* \"#utility.yul\":17861:17922   */\n      tag_553\n        /* \"#utility.yul\":17916:17920   */\n      0x20\n        /* \"#utility.yul\":17911:17914   */\n      dup7\n        /* \"#utility.yul\":17907:17921   */\n      add\n        /* \"#utility.yul\":17893:17905   */\n      dup3\n        /* \"#utility.yul\":17861:17922   */\n      tag_552\n      jump\t// in\n    tag_553:\n        /* \"#utility.yul\":17766:17932   */\n      pop\n        /* \"#utility.yul\":18019:18023   */\n      0x40\n        /* \"#utility.yul\":18012:18017   */\n      dup4\n        /* \"#utility.yul\":18008:18024   */\n      add\n        /* \"#utility.yul\":18002:18025   */\n      mload\n        /* \"#utility.yul\":18038:18099   */\n      tag_554\n        /* \"#utility.yul\":18093:18097   */\n      0x40\n        /* \"#utility.yul\":18088:18091   */\n      dup7\n        /* \"#utility.yul\":18084:18098   */\n      add\n        /* \"#utility.yul\":18070:18082   */\n      dup3\n        /* \"#utility.yul\":18038:18099   */\n      tag_552\n      jump\t// in\n    tag_554:\n        /* \"#utility.yul\":17942:18109   */\n      pop\n        /* \"#utility.yul\":18196:18200   */\n      0x60\n        /* \"#utility.yul\":18189:18194   */\n      dup4\n        /* \"#utility.yul\":18185:18201   */\n      add\n        /* \"#utility.yul\":18179:18202   */\n      mload\n        /* \"#utility.yul\":18215:18276   */\n      tag_555\n        /* \"#utility.yul\":18270:18274   */\n      0x60\n        /* \"#utility.yul\":18265:18268   */\n      dup7\n        /* \"#utility.yul\":18261:18275   */\n      add\n        /* \"#utility.yul\":18247:18259   */\n      dup3\n        /* \"#utility.yul\":18215:18276   */\n      tag_556\n      jump\t// in\n    tag_555:\n        /* \"#utility.yul\":18119:18286   */\n      pop\n        /* \"#utility.yul\":18371:18375   */\n      0x80\n        /* \"#utility.yul\":18364:18369   */\n      dup4\n        /* \"#utility.yul\":18360:18376   */\n      add\n        /* \"#utility.yul\":18354:18377   */\n      mload\n        /* \"#utility.yul\":18390:18451   */\n      tag_557\n        /* \"#utility.yul\":18445:18449   */\n      0x80\n        /* \"#utility.yul\":18440:18443   */\n      dup7\n        /* \"#utility.yul\":18436:18450   */\n      add\n        /* \"#utility.yul\":18422:18434   */\n      dup3\n        /* \"#utility.yul\":18390:18451   */\n      tag_556\n      jump\t// in\n    tag_557:\n        /* \"#utility.yul\":18296:18461   */\n      pop\n        /* \"#utility.yul\":18554:18558   */\n      0xa0\n        /* \"#utility.yul\":18547:18552   */\n      dup4\n        /* \"#utility.yul\":18543:18559   */\n      add\n        /* \"#utility.yul\":18537:18560   */\n      mload\n        /* \"#utility.yul\":18573:18654   */\n      tag_558\n        /* \"#utility.yul\":18648:18652   */\n      0xa0\n        /* \"#utility.yul\":18643:18646   */\n      dup7\n        /* \"#utility.yul\":18639:18653   */\n      add\n        /* \"#utility.yul\":18625:18637   */\n      dup3\n        /* \"#utility.yul\":18573:18654   */\n      tag_450\n      jump\t// in\n    tag_558:\n        /* \"#utility.yul\":18471:18664   */\n      pop\n        /* \"#utility.yul\":18751:18755   */\n      0xc0\n        /* \"#utility.yul\":18744:18749   */\n      dup4\n        /* \"#utility.yul\":18740:18756   */\n      add\n        /* \"#utility.yul\":18734:18757   */\n      mload\n        /* \"#utility.yul\":18770:18827   */\n      tag_559\n        /* \"#utility.yul\":18821:18825   */\n      0xc0\n        /* \"#utility.yul\":18816:18819   */\n      dup7\n        /* \"#utility.yul\":18812:18826   */\n      add\n        /* \"#utility.yul\":18798:18810   */\n      dup3\n        /* \"#utility.yul\":18770:18827   */\n      tag_434\n      jump\t// in\n    tag_559:\n        /* \"#utility.yul\":18674:18837   */\n      pop\n        /* \"#utility.yul\":18925:18929   */\n      0xe0\n        /* \"#utility.yul\":18918:18923   */\n      dup4\n        /* \"#utility.yul\":18914:18930   */\n      add\n        /* \"#utility.yul\":18908:18931   */\n      mload\n        /* \"#utility.yul\":18944:19007   */\n      tag_560\n        /* \"#utility.yul\":19001:19005   */\n      0xe0\n        /* \"#utility.yul\":18996:18999   */\n      dup7\n        /* \"#utility.yul\":18992:19006   */\n      add\n        /* \"#utility.yul\":18978:18990   */\n      dup3\n        /* \"#utility.yul\":18944:19007   */\n      tag_441\n      jump\t// in\n    tag_560:\n        /* \"#utility.yul\":18847:19017   */\n      pop\n        /* \"#utility.yul\":19103:19109   */\n      0x0100\n        /* \"#utility.yul\":19096:19101   */\n      dup4\n        /* \"#utility.yul\":19092:19110   */\n      add\n        /* \"#utility.yul\":19086:19111   */\n      mload\n        /* \"#utility.yul\":19160:19163   */\n      dup5\n        /* \"#utility.yul\":19154:19158   */\n      dup3\n        /* \"#utility.yul\":19150:19164   */\n      sub\n        /* \"#utility.yul\":19141:19147   */\n      0x0100\n        /* \"#utility.yul\":19136:19139   */\n      dup7\n        /* \"#utility.yul\":19132:19148   */\n      add\n        /* \"#utility.yul\":19125:19165   */\n      mstore\n        /* \"#utility.yul\":19186:19259   */\n      tag_561\n        /* \"#utility.yul\":19254:19258   */\n      dup3\n        /* \"#utility.yul\":19240:19252   */\n      dup3\n        /* \"#utility.yul\":19186:19259   */\n      tag_454\n      jump\t// in\n    tag_561:\n        /* \"#utility.yul\":19178:19259   */\n      swap2\n      pop\n        /* \"#utility.yul\":19027:19270   */\n      pop\n        /* \"#utility.yul\":19287:19291   */\n      dup1\n        /* \"#utility.yul\":19280:19291   */\n      swap2\n      pop\n        /* \"#utility.yul\":17545:19297   */\n      pop\n      swap3\n      swap2\n      pop\n      pop\n      jump\t// out\n        /* \"#utility.yul\":19303:19421   */\n    tag_562:\n        /* \"#utility.yul\":19390:19414   */\n      tag_564\n        /* \"#utility.yul\":19408:19413   */\n      dup2\n        /* \"#utility.yul\":19390:19414   */\n      tag_565\n      jump\t// in\n    tag_564:\n        /* \"#utility.yul\":19385:19388   */\n      dup3\n        /* \"#utility.yul\":19378:19415   */\n      mstore\n        /* \"#utility.yul\":19368:19421   */\n      pop\n      pop\n      jump\t// out\n        /* \"#utility.yul\":19427:19532   */\n    tag_552:\n        /* \"#utility.yul\":19502:19525   */\n      tag_567\n        /* \"#utility.yul\":19519:19524   */\n      dup2\n        /* \"#utility.yul\":19502:19525   */\n      tag_568\n      jump\t// in\n    tag_567:\n        /* \"#utility.yul\":19497:19500   */\n      dup3\n        /* \"#utility.yul\":19490:19526   */\n      mstore\n        /* \"#utility.yul\":19480:19532   */\n      pop\n      pop\n      jump\t// out\n        /* \"#utility.yul\":19538:19653   */\n    tag_569:\n        /* \"#utility.yul\":19623:19646   */\n      tag_571\n        /* \"#utility.yul\":19640:19645   */\n      dup2\n        /* \"#utility.yul\":19623:19646   */\n      tag_568\n      jump\t// in\n    tag_571:\n        /* \"#utility.yul\":19618:19621   */\n      dup3\n        /* \"#utility.yul\":19611:19647   */\n      mstore\n        /* \"#utility.yul\":19601:19653   */\n      pop\n      pop\n      jump\t// out\n        /* \"#utility.yul\":19659:19812   */\n    tag_572:\n        /* \"#utility.yul\":19762:19805   */\n      tag_574\n        /* \"#utility.yul\":19781:19804   */\n      tag_575\n        /* \"#utility.yul\":19798:19803   */\n      dup3\n        /* \"#utility.yul\":19781:19804   */\n      tag_568\n      jump\t// in\n    tag_575:\n        /* \"#utility.yul\":19762:19805   */\n      tag_576\n      jump\t// in\n    tag_574:\n        /* \"#utility.yul\":19757:19760   */\n      dup3\n        /* \"#utility.yul\":19750:19806   */\n      mstore\n        /* \"#utility.yul\":19740:19812   */\n      pop\n      pop\n      jump\t// out\n        /* \"#utility.yul\":19818:19923   */\n    tag_556:\n        /* \"#utility.yul\":19893:19916   */\n      tag_578\n        /* \"#utility.yul\":19910:19915   */\n      dup2\n        /* \"#utility.yul\":19893:19916   */\n      tag_579\n      jump\t// in\n    tag_578:\n        /* \"#utility.yul\":19888:19891   */\n      dup3\n        /* \"#utility.yul\":19881:19917   */\n      mstore\n        /* \"#utility.yul\":19871:19923   */\n      pop\n      pop\n      jump\t// out\n        /* \"#utility.yul\":19929:20321   */\n    tag_138:\n      0x00\n        /* \"#utility.yul\":20082:20157   */\n      tag_581\n        /* \"#utility.yul\":20153:20156   */\n      dup3\n        /* \"#utility.yul\":20144:20150   */\n      dup6\n        /* \"#utility.yul\":20082:20157   */\n      tag_429\n      jump\t// in\n    tag_581:\n        /* \"#utility.yul\":20182:20184   */\n      0x14\n        /* \"#utility.yul\":20177:20180   */\n      dup3\n        /* \"#utility.yul\":20173:20185   */\n      add\n        /* \"#utility.yul\":20166:20185   */\n      swap2\n      pop\n        /* \"#utility.yul\":20195:20268   */\n      tag_582\n        /* \"#utility.yul\":20264:20267   */\n      dup3\n        /* \"#utility.yul\":20255:20261   */\n      dup5\n        /* \"#utility.yul\":20195:20268   */\n      tag_572\n      jump\t// in\n    tag_582:\n        /* \"#utility.yul\":20293:20294   */\n      0x04\n        /* \"#utility.yul\":20288:20291   */\n      dup3\n        /* \"#utility.yul\":20284:20295   */\n      add\n        /* \"#utility.yul\":20277:20295   */\n      swap2\n      pop\n        /* \"#utility.yul\":20312:20315   */\n      dup2\n        /* \"#utility.yul\":20305:20315   */\n      swap1\n      pop\n        /* \"#utility.yul\":20071:20321   */\n      swap4\n      swap3\n      pop\n      pop\n      pop\n      jump\t// out\n        /* \"#utility.yul\":20327:20724   */\n    tag_316:\n      0x00\n        /* \"#utility.yul\":20482:20557   */\n      tag_584\n        /* \"#utility.yul\":20553:20556   */\n      dup3\n        /* \"#utility.yul\":20544:20550   */\n      dup6\n        /* \"#utility.yul\":20482:20557   */\n      tag_445\n      jump\t// in\n    tag_584:\n        /* \"#utility.yul\":20582:20584   */\n      0x20\n        /* \"#utility.yul\":20577:20580   */\n      dup3\n        /* \"#utility.yul\":20573:20585   */\n      add\n        /* \"#utility.yul\":20566:20585   */\n      swap2\n      pop\n        /* \"#utility.yul\":20595:20670   */\n      tag_585\n        /* \"#utility.yul\":20666:20669   */\n      dup3\n        /* \"#utility.yul\":20657:20663   */\n      dup5\n        /* \"#utility.yul\":20595:20670   */\n      tag_445\n      jump\t// in\n    tag_585:\n        /* \"#utility.yul\":20695:20697   */\n      0x20\n        /* \"#utility.yul\":20690:20693   */\n      dup3\n        /* \"#utility.yul\":20686:20698   */\n      add\n        /* \"#utility.yul\":20679:20698   */\n      swap2\n      pop\n        /* \"#utility.yul\":20715:20718   */\n      dup2\n        /* \"#utility.yul\":20708:20718   */\n      swap1\n      pop\n        /* \"#utility.yul\":20471:20724   */\n      swap4\n      swap3\n      pop\n      pop\n      pop\n      jump\t// out\n        /* \"#utility.yul\":20730:21319   */\n    tag_251:\n      0x00\n        /* \"#utility.yul\":20977:21072   */\n      tag_587\n        /* \"#utility.yul\":21068:21071   */\n      dup3\n        /* \"#utility.yul\":21059:21065   */\n      dup7\n        /* \"#utility.yul\":20977:21072   */\n      tag_471\n      jump\t// in\n    tag_587:\n        /* \"#utility.yul\":20970:21072   */\n      swap2\n      pop\n        /* \"#utility.yul\":21089:21181   */\n      tag_588\n        /* \"#utility.yul\":21177:21180   */\n      dup3\n        /* \"#utility.yul\":21168:21174   */\n      dup6\n        /* \"#utility.yul\":21089:21181   */\n      tag_477\n      jump\t// in\n    tag_588:\n        /* \"#utility.yul\":21082:21181   */\n      swap2\n      pop\n        /* \"#utility.yul\":21198:21293   */\n      tag_589\n        /* \"#utility.yul\":21289:21292   */\n      dup3\n        /* \"#utility.yul\":21280:21286   */\n      dup5\n        /* \"#utility.yul\":21198:21293   */\n      tag_471\n      jump\t// in\n    tag_589:\n        /* \"#utility.yul\":21191:21293   */\n      swap2\n      pop\n        /* \"#utility.yul\":21310:21313   */\n      dup2\n        /* \"#utility.yul\":21303:21313   */\n      swap1\n      pop\n        /* \"#utility.yul\":20959:21319   */\n      swap5\n      swap4\n      pop\n      pop\n      pop\n      pop\n      jump\t// out\n        /* \"#utility.yul\":21325:21866   */\n    tag_242:\n      0x00\n        /* \"#utility.yul\":21580:21675   */\n      tag_591\n        /* \"#utility.yul\":21671:21674   */\n      dup3\n        /* \"#utility.yul\":21662:21668   */\n      dup5\n        /* \"#utility.yul\":21580:21675   */\n      tag_471\n      jump\t// in\n    tag_591:\n        /* \"#utility.yul\":21573:21675   */\n      swap2\n      pop\n        /* \"#utility.yul\":21692:21840   */\n      tag_592\n        /* \"#utility.yul\":21836:21839   */\n      dup3\n        /* \"#utility.yul\":21692:21840   */\n      tag_522\n      jump\t// in\n    tag_592:\n        /* \"#utility.yul\":21685:21840   */\n      swap2\n      pop\n        /* \"#utility.yul\":21857:21860   */\n      dup2\n        /* \"#utility.yul\":21850:21860   */\n      swap1\n      pop\n        /* \"#utility.yul\":21562:21866   */\n      swap3\n      swap2\n      pop\n      pop\n      jump\t// out\n        /* \"#utility.yul\":21872:22413   */\n    tag_237:\n      0x00\n        /* \"#utility.yul\":22127:22275   */\n      tag_594\n        /* \"#utility.yul\":22271:22274   */\n      dup3\n        /* \"#utility.yul\":22127:22275   */\n      tag_546\n      jump\t// in\n    tag_594:\n        /* \"#utility.yul\":22120:22275   */\n      swap2\n      pop\n        /* \"#utility.yul\":22292:22387   */\n      tag_595\n        /* \"#utility.yul\":22383:22386   */\n      dup3\n        /* \"#utility.yul\":22374:22380   */\n      dup5\n        /* \"#utility.yul\":22292:22387   */\n      tag_471\n      jump\t// in\n    tag_595:\n        /* \"#utility.yul\":22285:22387   */\n      swap2\n      pop\n        /* \"#utility.yul\":22404:22407   */\n      dup2\n        /* \"#utility.yul\":22397:22407   */\n      swap1\n      pop\n        /* \"#utility.yul\":22109:22413   */\n      swap3\n      swap2\n      pop\n      pop\n      jump\t// out\n        /* \"#utility.yul\":22419:22641   */\n    tag_68:\n      0x00\n        /* \"#utility.yul\":22550:22552   */\n      0x20\n        /* \"#utility.yul\":22539:22548   */\n      dup3\n        /* \"#utility.yul\":22535:22553   */\n      add\n        /* \"#utility.yul\":22527:22553   */\n      swap1\n      pop\n        /* \"#utility.yul\":22563:22634   */\n      tag_597\n        /* \"#utility.yul\":22631:22632   */\n      0x00\n        /* \"#utility.yul\":22620:22629   */\n      dup4\n        /* \"#utility.yul\":22616:22633   */\n      add\n        /* \"#utility.yul\":22607:22613   */\n      dup5\n        /* \"#utility.yul\":22563:22634   */\n      tag_425\n      jump\t// in\n    tag_597:\n        /* \"#utility.yul\":22517:22641   */\n      swap3\n      swap2\n      pop\n      pop\n      jump\t// out\n        /* \"#utility.yul\":22647:22857   */\n    tag_18:\n      0x00\n        /* \"#utility.yul\":22772:22774   */\n      0x20\n        /* \"#utility.yul\":22761:22770   */\n      dup3\n        /* \"#utility.yul\":22757:22775   */\n      add\n        /* \"#utility.yul\":22749:22775   */\n      swap1\n      pop\n        /* \"#utility.yul\":22785:22850   */\n      tag_599\n        /* \"#utility.yul\":22847:22848   */\n      0x00\n        /* \"#utility.yul\":22836:22845   */\n      dup4\n        /* \"#utility.yul\":22832:22849   */\n      add\n        /* \"#utility.yul\":22823:22829   */\n      dup5\n        /* \"#utility.yul\":22785:22850   */\n      tag_438\n      jump\t// in\n    tag_599:\n        /* \"#utility.yul\":22739:22857   */\n      swap3\n      swap2\n      pop\n      pop\n      jump\t// out\n        /* \"#utility.yul\":22863:23176   */\n    tag_59:\n      0x00\n        /* \"#utility.yul\":23014:23016   */\n      0x20\n        /* \"#utility.yul\":23003:23012   */\n      dup3\n        /* \"#utility.yul\":22999:23017   */\n      add\n        /* \"#utility.yul\":22991:23017   */\n      swap1\n      pop\n        /* \"#utility.yul\":23063:23072   */\n      dup2\n        /* \"#utility.yul\":23057:23061   */\n      dup2\n        /* \"#utility.yul\":23053:23073   */\n      sub\n        /* \"#utility.yul\":23049:23050   */\n      0x00\n        /* \"#utility.yul\":23038:23047   */\n      dup4\n        /* \"#utility.yul\":23034:23051   */\n      add\n        /* \"#utility.yul\":23027:23074   */\n      mstore\n        /* \"#utility.yul\":23091:23169   */\n      tag_601\n        /* \"#utility.yul\":23164:23168   */\n      dup2\n        /* \"#utility.yul\":23155:23161   */\n      dup5\n        /* \"#utility.yul\":23091:23169   */\n      tag_464\n      jump\t// in\n    tag_601:\n        /* \"#utility.yul\":23083:23169   */\n      swap1\n      pop\n        /* \"#utility.yul\":22981:23176   */\n      swap3\n      swap2\n      pop\n      pop\n      jump\t// out\n        /* \"#utility.yul\":23182:23601   */\n    tag_97:\n      0x00\n        /* \"#utility.yul\":23386:23388   */\n      0x20\n        /* \"#utility.yul\":23375:23384   */\n      dup3\n        /* \"#utility.yul\":23371:23389   */\n      add\n        /* \"#utility.yul\":23363:23389   */\n      swap1\n      pop\n        /* \"#utility.yul\":23435:23444   */\n      dup2\n        /* \"#utility.yul\":23429:23433   */\n      dup2\n        /* \"#utility.yul\":23425:23445   */\n      sub\n        /* \"#utility.yul\":23421:23422   */\n      0x00\n        /* \"#utility.yul\":23410:23419   */\n      dup4\n        /* \"#utility.yul\":23406:23423   */\n      add\n        /* \"#utility.yul\":23399:23446   */\n      mstore\n        /* \"#utility.yul\":23463:23594   */\n      tag_603\n        /* \"#utility.yul\":23589:23593   */\n      dup2\n        /* \"#utility.yul\":23463:23594   */\n      tag_489\n      jump\t// in\n    tag_603:\n        /* \"#utility.yul\":23455:23594   */\n      swap1\n      pop\n        /* \"#utility.yul\":23353:23601   */\n      swap2\n      swap1\n      pop\n      jump\t// out\n        /* \"#utility.yul\":23607:24026   */\n    tag_199:\n      0x00\n        /* \"#utility.yul\":23811:23813   */\n      0x20\n        /* \"#utility.yul\":23800:23809   */\n      dup3\n        /* \"#utility.yul\":23796:23814   */\n      add\n        /* \"#utility.yul\":23788:23814   */\n      swap1\n      pop\n        /* \"#utility.yul\":23860:23869   */\n      dup2\n        /* \"#utility.yul\":23854:23858   */\n      dup2\n        /* \"#utility.yul\":23850:23870   */\n      sub\n        /* \"#utility.yul\":23846:23847   */\n      0x00\n        /* \"#utility.yul\":23835:23844   */\n      dup4\n        /* \"#utility.yul\":23831:23848   */\n      add\n        /* \"#utility.yul\":23824:23871   */\n      mstore\n        /* \"#utility.yul\":23888:24019   */\n      tag_605\n        /* \"#utility.yul\":24014:24018   */\n      dup2\n        /* \"#utility.yul\":23888:24019   */\n      tag_492\n      jump\t// in\n    tag_605:\n        /* \"#utility.yul\":23880:24019   */\n      swap1\n      pop\n        /* \"#utility.yul\":23778:24026   */\n      swap2\n      swap1\n      pop\n      jump\t// out\n        /* \"#utility.yul\":24032:24451   */\n    tag_209:\n      0x00\n        /* \"#utility.yul\":24236:24238   */\n      0x20\n        /* \"#utility.yul\":24225:24234   */\n      dup3\n        /* \"#utility.yul\":24221:24239   */\n      add\n        /* \"#utility.yul\":24213:24239   */\n      swap1\n      pop\n        /* \"#utility.yul\":24285:24294   */\n      dup2\n        /* \"#utility.yul\":24279:24283   */\n      dup2\n        /* \"#utility.yul\":24275:24295   */\n      sub\n        /* \"#utility.yul\":24271:24272   */\n      0x00\n        /* \"#utility.yul\":24260:24269   */\n      dup4\n        /* \"#utility.yul\":24256:24273   */\n      add\n        /* \"#utility.yul\":24249:24296   */\n      mstore\n        /* \"#utility.yul\":24313:24444   */\n      tag_607\n        /* \"#utility.yul\":24439:24443   */\n      dup2\n        /* \"#utility.yul\":24313:24444   */\n      tag_495\n      jump\t// in\n    tag_607:\n        /* \"#utility.yul\":24305:24444   */\n      swap1\n      pop\n        /* \"#utility.yul\":24203:24451   */\n      swap2\n      swap1\n      pop\n      jump\t// out\n        /* \"#utility.yul\":24457:24876   */\n    tag_102:\n      0x00\n        /* \"#utility.yul\":24661:24663   */\n      0x20\n        /* \"#utility.yul\":24650:24659   */\n      dup3\n        /* \"#utility.yul\":24646:24664   */\n      add\n        /* \"#utility.yul\":24638:24664   */\n      swap1\n      pop\n        /* \"#utility.yul\":24710:24719   */\n      dup2\n        /* \"#utility.yul\":24704:24708   */\n      dup2\n        /* \"#utility.yul\":24700:24720   */\n      sub\n        /* \"#utility.yul\":24696:24697   */\n      0x00\n        /* \"#utility.yul\":24685:24694   */\n      dup4\n        /* \"#utility.yul\":24681:24698   */\n      add\n        /* \"#utility.yul\":24674:24721   */\n      mstore\n        /* \"#utility.yul\":24738:24869   */\n      tag_609\n        /* \"#utility.yul\":24864:24868   */\n      dup2\n        /* \"#utility.yul\":24738:24869   */\n      tag_498\n      jump\t// in\n    tag_609:\n        /* \"#utility.yul\":24730:24869   */\n      swap1\n      pop\n        /* \"#utility.yul\":24628:24876   */\n      swap2\n      swap1\n      pop\n      jump\t// out\n        /* \"#utility.yul\":24882:25301   */\n    tag_89:\n      0x00\n        /* \"#utility.yul\":25086:25088   */\n      0x20\n        /* \"#utility.yul\":25075:25084   */\n      dup3\n        /* \"#utility.yul\":25071:25089   */\n      add\n        /* \"#utility.yul\":25063:25089   */\n      swap1\n      pop\n        /* \"#utility.yul\":25135:25144   */\n      dup2\n        /* \"#utility.yul\":25129:25133   */\n      dup2\n        /* \"#utility.yul\":25125:25145   */\n      sub\n        /* \"#utility.yul\":25121:25122   */\n      0x00\n        /* \"#utility.yul\":25110:25119   */\n      dup4\n        /* \"#utility.yul\":25106:25123   */\n      add\n        /* \"#utility.yul\":25099:25146   */\n      mstore\n        /* \"#utility.yul\":25163:25294   */\n      tag_611\n        /* \"#utility.yul\":25289:25293   */\n      dup2\n        /* \"#utility.yul\":25163:25294   */\n      tag_501\n      jump\t// in\n    tag_611:\n        /* \"#utility.yul\":25155:25294   */\n      swap1\n      pop\n        /* \"#utility.yul\":25053:25301   */\n      swap2\n      swap1\n      pop\n      jump\t// out\n        /* \"#utility.yul\":25307:25726   */\n    tag_76:\n      0x00\n        /* \"#utility.yul\":25511:25513   */\n      0x20\n        /* \"#utility.yul\":25500:25509   */\n      dup3\n        /* \"#utility.yul\":25496:25514   */\n      add\n        /* \"#utility.yul\":25488:25514   */\n      swap1\n      pop\n        /* \"#utility.yul\":25560:25569   */\n      dup2\n        /* \"#utility.yul\":25554:25558   */\n      dup2\n        /* \"#utility.yul\":25550:25570   */\n      sub\n        /* \"#utility.yul\":25546:25547   */\n      0x00\n        /* \"#utility.yul\":25535:25544   */\n      dup4\n        /* \"#utility.yul\":25531:25548   */\n      add\n        /* \"#utility.yul\":25524:25571   */\n      mstore\n        /* \"#utility.yul\":25588:25719   */\n      tag_613\n        /* \"#utility.yul\":25714:25718   */\n      dup2\n        /* \"#utility.yul\":25588:25719   */\n      tag_504\n      jump\t// in\n    tag_613:\n        /* \"#utility.yul\":25580:25719   */\n      swap1\n      pop\n        /* \"#utility.yul\":25478:25726   */\n      swap2\n      swap1\n      pop\n      jump\t// out\n        /* \"#utility.yul\":25732:26151   */\n    tag_275:\n      0x00\n        /* \"#utility.yul\":25936:25938   */\n      0x20\n        /* \"#utility.yul\":25925:25934   */\n      dup3\n        /* \"#utility.yul\":25921:25939   */\n      add\n        /* \"#utility.yul\":25913:25939   */\n      swap1\n      pop\n        /* \"#utility.yul\":25985:25994   */\n      dup2\n        /* \"#utility.yul\":25979:25983   */\n      dup2\n        /* \"#utility.yul\":25975:25995   */\n      sub\n        /* \"#utility.yul\":25971:25972   */\n      0x00\n        /* \"#utility.yul\":25960:25969   */\n      dup4\n        /* \"#utility.yul\":25956:25973   */\n      add\n        /* \"#utility.yul\":25949:25996   */\n      mstore\n        /* \"#utility.yul\":26013:26144   */\n      tag_615\n        /* \"#utility.yul\":26139:26143   */\n      dup2\n        /* \"#utility.yul\":26013:26144   */\n      tag_507\n      jump\t// in\n    tag_615:\n        /* \"#utility.yul\":26005:26144   */\n      swap1\n      pop\n        /* \"#utility.yul\":25903:26151   */\n      swap2\n      swap1\n      pop\n      jump\t// out\n        /* \"#utility.yul\":26157:26576   */\n    tag_82:\n      0x00\n        /* \"#utility.yul\":26361:26363   */\n      0x20\n        /* \"#utility.yul\":26350:26359   */\n      dup3\n        /* \"#utility.yul\":26346:26364   */\n      add\n        /* \"#utility.yul\":26338:26364   */\n      swap1\n      pop\n        /* \"#utility.yul\":26410:26419   */\n      dup2\n        /* \"#utility.yul\":26404:26408   */\n      dup2\n        /* \"#utility.yul\":26400:26420   */\n      sub\n        /* \"#utility.yul\":26396:26397   */\n      0x00\n        /* \"#utility.yul\":26385:26394   */\n      dup4\n        /* \"#utility.yul\":26381:26398   */\n      add\n        /* \"#utility.yul\":26374:26421   */\n      mstore\n        /* \"#utility.yul\":26438:26569   */\n      tag_617\n        /* \"#utility.yul\":26564:26568   */\n      dup2\n        /* \"#utility.yul\":26438:26569   */\n      tag_510\n      jump\t// in\n    tag_617:\n        /* \"#utility.yul\":26430:26569   */\n      swap1\n      pop\n        /* \"#utility.yul\":26328:26576   */\n      swap2\n      swap1\n      pop\n      jump\t// out\n        /* \"#utility.yul\":26582:27001   */\n    tag_127:\n      0x00\n        /* \"#utility.yul\":26786:26788   */\n      0x20\n        /* \"#utility.yul\":26775:26784   */\n      dup3\n        /* \"#utility.yul\":26771:26789   */\n      add\n        /* \"#utility.yul\":26763:26789   */\n      swap1\n      pop\n        /* \"#utility.yul\":26835:26844   */\n      dup2\n        /* \"#utility.yul\":26829:26833   */\n      dup2\n        /* \"#utility.yul\":26825:26845   */\n      sub\n        /* \"#utility.yul\":26821:26822   */\n      0x00\n        /* \"#utility.yul\":26810:26819   */\n      dup4\n        /* \"#utility.yul\":26806:26823   */\n      add\n        /* \"#utility.yul\":26799:26846   */\n      mstore\n        /* \"#utility.yul\":26863:26994   */\n      tag_619\n        /* \"#utility.yul\":26989:26993   */\n      dup2\n        /* \"#utility.yul\":26863:26994   */\n      tag_513\n      jump\t// in\n    tag_619:\n        /* \"#utility.yul\":26855:26994   */\n      swap1\n      pop\n        /* \"#utility.yul\":26753:27001   */\n      swap2\n      swap1\n      pop\n      jump\t// out\n        /* \"#utility.yul\":27007:27426   */\n    tag_123:\n      0x00\n        /* \"#utility.yul\":27211:27213   */\n      0x20\n        /* \"#utility.yul\":27200:27209   */\n      dup3\n        /* \"#utility.yul\":27196:27214   */\n      add\n        /* \"#utility.yul\":27188:27214   */\n      swap1\n      pop\n        /* \"#utility.yul\":27260:27269   */\n      dup2\n        /* \"#utility.yul\":27254:27258   */\n      dup2\n        /* \"#utility.yul\":27250:27270   */\n      sub\n        /* \"#utility.yul\":27246:27247   */\n      0x00\n        /* \"#utility.yul\":27235:27244   */\n      dup4\n        /* \"#utility.yul\":27231:27248   */\n      add\n        /* \"#utility.yul\":27224:27271   */\n      mstore\n        /* \"#utility.yul\":27288:27419   */\n      tag_621\n        /* \"#utility.yul\":27414:27418   */\n      dup2\n        /* \"#utility.yul\":27288:27419   */\n      tag_516\n      jump\t// in\n    tag_621:\n        /* \"#utility.yul\":27280:27419   */\n      swap1\n      pop\n        /* \"#utility.yul\":27178:27426   */\n      swap2\n      swap1\n      pop\n      jump\t// out\n        /* \"#utility.yul\":27432:27851   */\n    tag_255:\n      0x00\n        /* \"#utility.yul\":27636:27638   */\n      0x20\n        /* \"#utility.yul\":27625:27634   */\n      dup3\n        /* \"#utility.yul\":27621:27639   */\n      add\n        /* \"#utility.yul\":27613:27639   */\n      swap1\n      pop\n        /* \"#utility.yul\":27685:27694   */\n      dup2\n        /* \"#utility.yul\":27679:27683   */\n      dup2\n        /* \"#utility.yul\":27675:27695   */\n      sub\n        /* \"#utility.yul\":27671:27672   */\n      0x00\n        /* \"#utility.yul\":27660:27669   */\n      dup4\n        /* \"#utility.yul\":27656:27673   */\n      add\n        /* \"#utility.yul\":27649:27696   */\n      mstore\n        /* \"#utility.yul\":27713:27844   */\n      tag_623\n        /* \"#utility.yul\":27839:27843   */\n      dup2\n        /* \"#utility.yul\":27713:27844   */\n      tag_519\n      jump\t// in\n    tag_623:\n        /* \"#utility.yul\":27705:27844   */\n      swap1\n      pop\n        /* \"#utility.yul\":27603:27851   */\n      swap2\n      swap1\n      pop\n      jump\t// out\n        /* \"#utility.yul\":27857:28276   */\n    tag_213:\n      0x00\n        /* \"#utility.yul\":28061:28063   */\n      0x20\n        /* \"#utility.yul\":28050:28059   */\n      dup3\n        /* \"#utility.yul\":28046:28064   */\n      add\n        /* \"#utility.yul\":28038:28064   */\n      swap1\n      pop\n        /* \"#utility.yul\":28110:28119   */\n      dup2\n        /* \"#utility.yul\":28104:28108   */\n      dup2\n        /* \"#utility.yul\":28100:28120   */\n      sub\n        /* \"#utility.yul\":28096:28097   */\n      0x00\n        /* \"#utility.yul\":28085:28094   */\n      dup4\n        /* \"#utility.yul\":28081:28098   */\n      add\n        /* \"#utility.yul\":28074:28121   */\n      mstore\n        /* \"#utility.yul\":28138:28269   */\n      tag_625\n        /* \"#utility.yul\":28264:28268   */\n      dup2\n        /* \"#utility.yul\":28138:28269   */\n      tag_525\n      jump\t// in\n    tag_625:\n        /* \"#utility.yul\":28130:28269   */\n      swap1\n      pop\n        /* \"#utility.yul\":28028:28276   */\n      swap2\n      swap1\n      pop\n      jump\t// out\n        /* \"#utility.yul\":28282:28701   */\n    tag_135:\n      0x00\n        /* \"#utility.yul\":28486:28488   */\n      0x20\n        /* \"#utility.yul\":28475:28484   */\n      dup3\n        /* \"#utility.yul\":28471:28489   */\n      add\n        /* \"#utility.yul\":28463:28489   */\n      swap1\n      pop\n        /* \"#utility.yul\":28535:28544   */\n      dup2\n        /* \"#utility.yul\":28529:28533   */\n      dup2\n        /* \"#utility.yul\":28525:28545   */\n      sub\n        /* \"#utility.yul\":28521:28522   */\n      0x00\n        /* \"#utility.yul\":28510:28519   */\n      dup4\n        /* \"#utility.yul\":28506:28523   */\n      add\n        /* \"#utility.yul\":28499:28546   */\n      mstore\n        /* \"#utility.yul\":28563:28694   */\n      tag_627\n        /* \"#utility.yul\":28689:28693   */\n      dup2\n        /* \"#utility.yul\":28563:28694   */\n      tag_528\n      jump\t// in\n    tag_627:\n        /* \"#utility.yul\":28555:28694   */\n      swap1\n      pop\n        /* \"#utility.yul\":28453:28701   */\n      swap2\n      swap1\n      pop\n      jump\t// out\n        /* \"#utility.yul\":28707:29126   */\n    tag_143:\n      0x00\n        /* \"#utility.yul\":28911:28913   */\n      0x20\n        /* \"#utility.yul\":28900:28909   */\n      dup3\n        /* \"#utility.yul\":28896:28914   */\n      add\n        /* \"#utility.yul\":28888:28914   */\n      swap1\n      pop\n        /* \"#utility.yul\":28960:28969   */\n      dup2\n        /* \"#utility.yul\":28954:28958   */\n      dup2\n        /* \"#utility.yul\":28950:28970   */\n      sub\n        /* \"#utility.yul\":28946:28947   */\n      0x00\n        /* \"#utility.yul\":28935:28944   */\n      dup4\n        /* \"#utility.yul\":28931:28948   */\n      add\n        /* \"#utility.yul\":28924:28971   */\n      mstore\n        /* \"#utility.yul\":28988:29119   */\n      tag_629\n        /* \"#utility.yul\":29114:29118   */\n      dup2\n        /* \"#utility.yul\":28988:29119   */\n      tag_531\n      jump\t// in\n    tag_629:\n        /* \"#utility.yul\":28980:29119   */\n      swap1\n      pop\n        /* \"#utility.yul\":28878:29126   */\n      swap2\n      swap1\n      pop\n      jump\t// out\n        /* \"#utility.yul\":29132:29551   */\n    tag_154:\n      0x00\n        /* \"#utility.yul\":29336:29338   */\n      0x20\n        /* \"#utility.yul\":29325:29334   */\n      dup3\n        /* \"#utility.yul\":29321:29339   */\n      add\n        /* \"#utility.yul\":29313:29339   */\n      swap1\n      pop\n        /* \"#utility.yul\":29385:29394   */\n      dup2\n        /* \"#utility.yul\":29379:29383   */\n      dup2\n        /* \"#utility.yul\":29375:29395   */\n      sub\n        /* \"#utility.yul\":29371:29372   */\n      0x00\n        /* \"#utility.yul\":29360:29369   */\n      dup4\n        /* \"#utility.yul\":29356:29373   */\n      add\n        /* \"#utility.yul\":29349:29396   */\n      mstore\n        /* \"#utility.yul\":29413:29544   */\n      tag_631\n        /* \"#utility.yul\":29539:29543   */\n      dup2\n        /* \"#utility.yul\":29413:29544   */\n      tag_534\n      jump\t// in\n    tag_631:\n        /* \"#utility.yul\":29405:29544   */\n      swap1\n      pop\n        /* \"#utility.yul\":29303:29551   */\n      swap2\n      swap1\n      pop\n      jump\t// out\n        /* \"#utility.yul\":29557:29976   */\n    tag_205:\n      0x00\n        /* \"#utility.yul\":29761:29763   */\n      0x20\n        /* \"#utility.yul\":29750:29759   */\n      dup3\n        /* \"#utility.yul\":29746:29764   */\n      add\n        /* \"#utility.yul\":29738:29764   */\n      swap1\n      pop\n        /* \"#utility.yul\":29810:29819   */\n      dup2\n        /* \"#utility.yul\":29804:29808   */\n      dup2\n        /* \"#utility.yul\":29800:29820   */\n      sub\n        /* \"#utility.yul\":29796:29797   */\n      0x00\n        /* \"#utility.yul\":29785:29794   */\n      dup4\n        /* \"#utility.yul\":29781:29798   */\n      add\n        /* \"#utility.yul\":29774:29821   */\n      mstore\n        /* \"#utility.yul\":29838:29969   */\n      tag_633\n        /* \"#utility.yul\":29964:29968   */\n      dup2\n        /* \"#utility.yul\":29838:29969   */\n      tag_537\n      jump\t// in\n    tag_633:\n        /* \"#utility.yul\":29830:29969   */\n      swap1\n      pop\n        /* \"#utility.yul\":29728:29976   */\n      swap2\n      swap1\n      pop\n      jump\t// out\n        /* \"#utility.yul\":29982:30401   */\n    tag_131:\n      0x00\n        /* \"#utility.yul\":30186:30188   */\n      0x20\n        /* \"#utility.yul\":30175:30184   */\n      dup3\n        /* \"#utility.yul\":30171:30189   */\n      add\n        /* \"#utility.yul\":30163:30189   */\n      swap1\n      pop\n        /* \"#utility.yul\":30235:30244   */\n      dup2\n        /* \"#utility.yul\":30229:30233   */\n      dup2\n        /* \"#utility.yul\":30225:30245   */\n      sub\n        /* \"#utility.yul\":30221:30222   */\n      0x00\n        /* \"#utility.yul\":30210:30219   */\n      dup4\n        /* \"#utility.yul\":30206:30223   */\n      add\n        /* \"#utility.yul\":30199:30246   */\n      mstore\n        /* \"#utility.yul\":30263:30394   */\n      tag_635\n        /* \"#utility.yul\":30389:30393   */\n      dup2\n        /* \"#utility.yul\":30263:30394   */\n      tag_540\n      jump\t// in\n    tag_635:\n        /* \"#utility.yul\":30255:30394   */\n      swap1\n      pop\n        /* \"#utility.yul\":30153:30401   */\n      swap2\n      swap1\n      pop\n      jump\t// out\n        /* \"#utility.yul\":30407:30826   */\n    tag_149:\n      0x00\n        /* \"#utility.yul\":30611:30613   */\n      0x20\n        /* \"#utility.yul\":30600:30609   */\n      dup3\n        /* \"#utility.yul\":30596:30614   */\n      add\n        /* \"#utility.yul\":30588:30614   */\n      swap1\n      pop\n        /* \"#utility.yul\":30660:30669   */\n      dup2\n        /* \"#utility.yul\":30654:30658   */\n      dup2\n        /* \"#utility.yul\":30650:30670   */\n      sub\n        /* \"#utility.yul\":30646:30647   */\n      0x00\n        /* \"#utility.yul\":30635:30644   */\n      dup4\n        /* \"#utility.yul\":30631:30648   */\n      add\n        /* \"#utility.yul\":30624:30671   */\n      mstore\n        /* \"#utility.yul\":30688:30819   */\n      tag_637\n        /* \"#utility.yul\":30814:30818   */\n      dup2\n        /* \"#utility.yul\":30688:30819   */\n      tag_543\n      jump\t// in\n    tag_637:\n        /* \"#utility.yul\":30680:30819   */\n      swap1\n      pop\n        /* \"#utility.yul\":30578:30826   */\n      swap2\n      swap1\n      pop\n      jump\t// out\n        /* \"#utility.yul\":30832:31197   */\n    tag_39:\n      0x00\n        /* \"#utility.yul\":31009:31011   */\n      0x20\n        /* \"#utility.yul\":30998:31007   */\n      dup3\n        /* \"#utility.yul\":30994:31012   */\n      add\n        /* \"#utility.yul\":30986:31012   */\n      swap1\n      pop\n        /* \"#utility.yul\":31058:31067   */\n      dup2\n        /* \"#utility.yul\":31052:31056   */\n      dup2\n        /* \"#utility.yul\":31048:31068   */\n      sub\n        /* \"#utility.yul\":31044:31045   */\n      0x00\n        /* \"#utility.yul\":31033:31042   */\n      dup4\n        /* \"#utility.yul\":31029:31046   */\n      add\n        /* \"#utility.yul\":31022:31069   */\n      mstore\n        /* \"#utility.yul\":31086:31190   */\n      tag_639\n        /* \"#utility.yul\":31185:31189   */\n      dup2\n        /* \"#utility.yul\":31176:31182   */\n      dup5\n        /* \"#utility.yul\":31086:31190   */\n      tag_549\n      jump\t// in\n    tag_639:\n        /* \"#utility.yul\":31078:31190   */\n      swap1\n      pop\n        /* \"#utility.yul\":30976:31197   */\n      swap3\n      swap2\n      pop\n      pop\n      jump\t// out\n        /* \"#utility.yul\":31203:31425   */\n    tag_24:\n      0x00\n        /* \"#utility.yul\":31334:31336   */\n      0x20\n        /* \"#utility.yul\":31323:31332   */\n      dup3\n        /* \"#utility.yul\":31319:31337   */\n      add\n        /* \"#utility.yul\":31311:31337   */\n      swap1\n      pop\n        /* \"#utility.yul\":31347:31418   */\n      tag_641\n        /* \"#utility.yul\":31415:31416   */\n      0x00\n        /* \"#utility.yul\":31404:31413   */\n      dup4\n        /* \"#utility.yul\":31400:31417   */\n      add\n        /* \"#utility.yul\":31391:31397   */\n      dup5\n        /* \"#utility.yul\":31347:31418   */\n      tag_562\n      jump\t// in\n    tag_641:\n        /* \"#utility.yul\":31301:31425   */\n      swap3\n      swap2\n      pop\n      pop\n      jump\t// out\n        /* \"#utility.yul\":31431:31763   */\n    tag_168:\n      0x00\n        /* \"#utility.yul\":31590:31592   */\n      0x40\n        /* \"#utility.yul\":31579:31588   */\n      dup3\n        /* \"#utility.yul\":31575:31593   */\n      add\n        /* \"#utility.yul\":31567:31593   */\n      swap1\n      pop\n        /* \"#utility.yul\":31603:31674   */\n      tag_643\n        /* \"#utility.yul\":31671:31672   */\n      0x00\n        /* \"#utility.yul\":31660:31669   */\n      dup4\n        /* \"#utility.yul\":31656:31673   */\n      add\n        /* \"#utility.yul\":31647:31653   */\n      dup6\n        /* \"#utility.yul\":31603:31674   */\n      tag_562\n      jump\t// in\n    tag_643:\n        /* \"#utility.yul\":31684:31756   */\n      tag_644\n        /* \"#utility.yul\":31752:31754   */\n      0x20\n        /* \"#utility.yul\":31741:31750   */\n      dup4\n        /* \"#utility.yul\":31737:31755   */\n      add\n        /* \"#utility.yul\":31728:31734   */\n      dup5\n        /* \"#utility.yul\":31684:31756   */\n      tag_425\n      jump\t// in\n    tag_644:\n        /* \"#utility.yul\":31557:31763   */\n      swap4\n      swap3\n      pop\n      pop\n      pop\n      jump\t// out\n        /* \"#utility.yul\":31769:31987   */\n    tag_45:\n      0x00\n        /* \"#utility.yul\":31898:31900   */\n      0x20\n        /* \"#utility.yul\":31887:31896   */\n      dup3\n        /* \"#utility.yul\":31883:31901   */\n      add\n        /* \"#utility.yul\":31875:31901   */\n      swap1\n      pop\n        /* \"#utility.yul\":31911:31980   */\n      tag_646\n        /* \"#utility.yul\":31977:31978   */\n      0x00\n        /* \"#utility.yul\":31966:31975   */\n      dup4\n        /* \"#utility.yul\":31962:31979   */\n      add\n        /* \"#utility.yul\":31953:31959   */\n      dup5\n        /* \"#utility.yul\":31911:31980   */\n      tag_569\n      jump\t// in\n    tag_646:\n        /* \"#utility.yul\":31865:31987   */\n      swap3\n      swap2\n      pop\n      pop\n      jump\t// out\n        /* \"#utility.yul\":31993:32517   */\n    tag_79:\n      0x00\n      dup1\n        /* \"#utility.yul\":32133:32144   */\n      dup4\n        /* \"#utility.yul\":32120:32145   */\n      calldataload\n        /* \"#utility.yul\":32233:32234   */\n      0x01\n        /* \"#utility.yul\":32227:32231   */\n      0x20\n        /* \"#utility.yul\":32223:32235   */\n      sub\n        /* \"#utility.yul\":32212:32220   */\n      dup5\n        /* \"#utility.yul\":32196:32210   */\n      calldatasize\n        /* \"#utility.yul\":32192:32221   */\n      sub\n        /* \"#utility.yul\":32188:32236   */\n      sub\n        /* \"#utility.yul\":32168:32186   */\n      dup2\n        /* \"#utility.yul\":32164:32237   */\n      slt\n        /* \"#utility.yul\":32154:32156   */\n      tag_648\n      jumpi\n        /* \"#utility.yul\":32251:32252   */\n      0x00\n        /* \"#utility.yul\":32248:32249   */\n      dup1\n        /* \"#utility.yul\":32241:32253   */\n      revert\n        /* \"#utility.yul\":32154:32156   */\n    tag_648:\n        /* \"#utility.yul\":32286:32304   */\n      dup1\n        /* \"#utility.yul\":32276:32284   */\n      dup5\n        /* \"#utility.yul\":32272:32305   */\n      add\n        /* \"#utility.yul\":32264:32305   */\n      swap3\n      pop\n        /* \"#utility.yul\":32338:32342   */\n      dup3\n        /* \"#utility.yul\":32325:32343   */\n      calldataload\n        /* \"#utility.yul\":32315:32343   */\n      swap2\n      pop\n        /* \"#utility.yul\":32366:32384   */\n      0xffffffffffffffff\n        /* \"#utility.yul\":32358:32364   */\n      dup3\n        /* \"#utility.yul\":32355:32385   */\n      gt\n        /* \"#utility.yul\":32352:32354   */\n      iszero\n      tag_649\n      jumpi\n        /* \"#utility.yul\":32398:32399   */\n      0x00\n        /* \"#utility.yul\":32395:32396   */\n      dup1\n        /* \"#utility.yul\":32388:32400   */\n      revert\n        /* \"#utility.yul\":32352:32354   */\n    tag_649:\n        /* \"#utility.yul\":32429:32431   */\n      0x20\n        /* \"#utility.yul\":32423:32427   */\n      dup4\n        /* \"#utility.yul\":32419:32432   */\n      add\n        /* \"#utility.yul\":32411:32432   */\n      swap3\n      pop\n        /* \"#utility.yul\":32486:32490   */\n      0x01\n        /* \"#utility.yul\":32478:32484   */\n      dup3\n        /* \"#utility.yul\":32474:32491   */\n      mul\n        /* \"#utility.yul\":32458:32472   */\n      calldatasize\n        /* \"#utility.yul\":32454:32492   */\n      sub\n        /* \"#utility.yul\":32448:32452   */\n      dup4\n        /* \"#utility.yul\":32444:32493   */\n      sgt\n        /* \"#utility.yul\":32441:32443   */\n      iszero\n      tag_650\n      jumpi\n        /* \"#utility.yul\":32506:32507   */\n      0x00\n        /* \"#utility.yul\":32503:32504   */\n      dup1\n        /* \"#utility.yul\":32496:32508   */\n      revert\n        /* \"#utility.yul\":32441:32443   */\n    tag_650:\n        /* \"#utility.yul\":32084:32517   */\n      pop\n      swap3\n      pop\n      swap3\n      swap1\n      pop\n      jump\t// out\n        /* \"#utility.yul\":32523:32664   */\n    tag_485:\n      0x00\n        /* \"#utility.yul\":32595:32598   */\n      dup2\n        /* \"#utility.yul\":32587:32598   */\n      swap1\n      pop\n        /* \"#utility.yul\":32618:32621   */\n      dup2\n        /* \"#utility.yul\":32615:32616   */\n      0x00\n        /* \"#utility.yul\":32608:32622   */\n      mstore\n        /* \"#utility.yul\":32652:32656   */\n      0x20\n        /* \"#utility.yul\":32649:32650   */\n      0x00\n        /* \"#utility.yul\":32639:32657   */\n      keccak256\n        /* \"#utility.yul\":32631:32657   */\n      swap1\n      pop\n        /* \"#utility.yul\":32577:32664   */\n      swap2\n      swap1\n      pop\n      jump\t// out\n        /* \"#utility.yul\":32670:32769   */\n    tag_457:\n      0x00\n        /* \"#utility.yul\":32756:32761   */\n      dup2\n        /* \"#utility.yul\":32750:32762   */\n      mload\n        /* \"#utility.yul\":32740:32762   */\n      swap1\n      pop\n        /* \"#utility.yul\":32729:32769   */\n      swap2\n      swap1\n      pop\n      jump\t// out\n        /* \"#utility.yul\":32775:32934   */\n    tag_459:\n      0x00\n        /* \"#utility.yul\":32883:32889   */\n      dup3\n        /* \"#utility.yul\":32878:32881   */\n      dup3\n        /* \"#utility.yul\":32871:32890   */\n      mstore\n        /* \"#utility.yul\":32923:32927   */\n      0x20\n        /* \"#utility.yul\":32918:32921   */\n      dup3\n        /* \"#utility.yul\":32914:32928   */\n      add\n        /* \"#utility.yul\":32899:32928   */\n      swap1\n      pop\n        /* \"#utility.yul\":32861:32934   */\n      swap3\n      swap2\n      pop\n      pop\n      jump\t// out\n        /* \"#utility.yul\":32940:33109   */\n    tag_468:\n      0x00\n        /* \"#utility.yul\":33058:33064   */\n      dup3\n        /* \"#utility.yul\":33053:33056   */\n      dup3\n        /* \"#utility.yul\":33046:33065   */\n      mstore\n        /* \"#utility.yul\":33098:33102   */\n      0x20\n        /* \"#utility.yul\":33093:33096   */\n      dup3\n        /* \"#utility.yul\":33089:33103   */\n      add\n        /* \"#utility.yul\":33074:33103   */\n      swap1\n      pop\n        /* \"#utility.yul\":33036:33109   */\n      swap3\n      swap2\n      pop\n      pop\n      jump\t// out\n        /* \"#utility.yul\":33115:33263   */\n    tag_475:\n      0x00\n        /* \"#utility.yul\":33254:33257   */\n      dup2\n        /* \"#utility.yul\":33239:33257   */\n      swap1\n      pop\n        /* \"#utility.yul\":33229:33263   */\n      swap3\n      swap2\n      pop\n      pop\n      jump\t// out\n        /* \"#utility.yul\":33269:33574   */\n    tag_269:\n      0x00\n        /* \"#utility.yul\":33328:33348   */\n      tag_657\n        /* \"#utility.yul\":33346:33347   */\n      dup3\n        /* \"#utility.yul\":33328:33348   */\n      tag_565\n      jump\t// in\n    tag_657:\n        /* \"#utility.yul\":33323:33348   */\n      swap2\n      pop\n        /* \"#utility.yul\":33362:33382   */\n      tag_658\n        /* \"#utility.yul\":33380:33381   */\n      dup4\n        /* \"#utility.yul\":33362:33382   */\n      tag_565\n      jump\t// in\n    tag_658:\n        /* \"#utility.yul\":33357:33382   */\n      swap3\n      pop\n        /* \"#utility.yul\":33516:33517   */\n      dup3\n        /* \"#utility.yul\":33448:33514   */\n      0xffffffffffffffffffffffffffffffffffffffffffffffffffffffffffffffff\n        /* \"#utility.yul\":33444:33518   */\n      sub\n        /* \"#utility.yul\":33441:33442   */\n      dup3\n        /* \"#utility.yul\":33438:33519   */\n      gt\n        /* \"#utility.yul\":33435:33437   */\n      iszero\n      tag_659\n      jumpi\n        /* \"#utility.yul\":33522:33540   */\n      tag_660\n      tag_661\n      jump\t// in\n    tag_660:\n        /* \"#utility.yul\":33435:33437   */\n    tag_659:\n        /* \"#utility.yul\":33566:33567   */\n      dup3\n        /* \"#utility.yul\":33563:33564   */\n      dup3\n        /* \"#utility.yul\":33559:33568   */\n      add\n        /* \"#utility.yul\":33552:33568   */\n      swap1\n      pop\n        /* \"#utility.yul\":33313:33574   */\n      swap3\n      swap2\n      pop\n      pop\n      jump\t// out\n        /* \"#utility.yul\":33580:33765   */\n    tag_298:\n      0x00\n        /* \"#utility.yul\":33637:33657   */\n      tag_663\n        /* \"#utility.yul\":33655:33656   */\n      dup3\n        /* \"#utility.yul\":33637:33657   */\n      tag_565\n      jump\t// in\n    tag_663:\n        /* \"#utility.yul\":33632:33657   */\n      swap2\n      pop\n        /* \"#utility.yul\":33671:33691   */\n      tag_664\n        /* \"#utility.yul\":33689:33690   */\n      dup4\n        /* \"#utility.yul\":33671:33691   */\n      tag_565\n      jump\t// in\n    tag_664:\n        /* \"#utility.yul\":33666:33691   */\n      swap3\n      pop\n        /* \"#utility.yul\":33710:33711   */\n      dup3\n        /* \"#utility.yul\":33700:33702   */\n      tag_665\n      jumpi\n        /* \"#utility.yul\":33715:33733   */\n      tag_666\n      tag_667\n      jump\t// in\n    tag_666:\n        /* \"#utility.yul\":33700:33702   */\n    tag_665:\n        /* \"#utility.yul\":33757:33758   */\n      dup3\n        /* \"#utility.yul\":33754:33755   */\n      dup3\n        /* \"#utility.yul\":33750:33759   */\n      div\n        /* \"#utility.yul\":33745:33759   */\n      swap1\n      pop\n        /* \"#utility.yul\":33622:33765   */\n      swap3\n      swap2\n      pop\n      pop\n      jump\t// out\n        /* \"#utility.yul\":33771:33962   */\n    tag_284:\n      0x00\n        /* \"#utility.yul\":33831:33851   */\n      tag_669\n        /* \"#utility.yul\":33849:33850   */\n      dup3\n        /* \"#utility.yul\":33831:33851   */\n      tag_565\n      jump\t// in\n    tag_669:\n        /* \"#utility.yul\":33826:33851   */\n      swap2\n      pop\n        /* \"#utility.yul\":33865:33885   */\n      tag_670\n        /* \"#utility.yul\":33883:33884   */\n      dup4\n        /* \"#utility.yul\":33865:33885   */\n      tag_565\n      jump\t// in\n    tag_670:\n        /* \"#utility.yul\":33860:33885   */\n      swap3\n      pop\n        /* \"#utility.yul\":33904:33905   */\n      dup3\n        /* \"#utility.yul\":33901:33902   */\n      dup3\n        /* \"#utility.yul\":33898:33906   */\n      lt\n        /* \"#utility.yul\":33895:33897   */\n      iszero\n      tag_671\n      jumpi\n        /* \"#utility.yul\":33909:33927   */\n      tag_672\n      tag_661\n      jump\t// in\n    tag_672:\n        /* \"#utility.yul\":33895:33897   */\n    tag_671:\n        /* \"#utility.yul\":33954:33955   */\n      dup3\n        /* \"#utility.yul\":33951:33952   */\n      dup3\n        /* \"#utility.yul\":33947:33956   */\n      sub\n        /* \"#utility.yul\":33939:33956   */\n      swap1\n      pop\n        /* \"#utility.yul\":33816:33962   */\n      swap3\n      swap2\n      pop\n      pop\n      jump\t// out\n        /* \"#utility.yul\":33968:34064   */\n    tag_428:\n      0x00\n        /* \"#utility.yul\":34034:34058   */\n      tag_674\n        /* \"#utility.yul\":34052:34057   */\n      dup3\n        /* \"#utility.yul\":34034:34058   */\n      tag_675\n      jump\t// in\n    tag_674:\n        /* \"#utility.yul\":34023:34058   */\n      swap1\n      pop\n        /* \"#utility.yul\":34013:34064   */\n      swap2\n      swap1\n      pop\n      jump\t// out\n        /* \"#utility.yul\":34070:34160   */\n    tag_437:\n      0x00\n        /* \"#utility.yul\":34147:34152   */\n      dup2\n        /* \"#utility.yul\":34140:34153   */\n      iszero\n        /* \"#utility.yul\":34133:34154   */\n      iszero\n        /* \"#utility.yul\":34122:34154   */\n      swap1\n      pop\n        /* \"#utility.yul\":34112:34160   */\n      swap2\n      swap1\n      pop\n      jump\t// out\n        /* \"#utility.yul\":34166:34243   */\n    tag_444:\n      0x00\n        /* \"#utility.yul\":34232:34237   */\n      dup2\n        /* \"#utility.yul\":34221:34237   */\n      swap1\n      pop\n        /* \"#utility.yul\":34211:34243   */\n      swap2\n      swap1\n      pop\n      jump\t// out\n        /* \"#utility.yul\":34249:34398   */\n    tag_678:\n      0x00\n        /* \"#utility.yul\":34325:34391   */\n      0xffffffff00000000000000000000000000000000000000000000000000000000\n        /* \"#utility.yul\":34318:34323   */\n      dup3\n        /* \"#utility.yul\":34314:34392   */\n      and\n        /* \"#utility.yul\":34303:34392   */\n      swap1\n      pop\n        /* \"#utility.yul\":34293:34398   */\n      swap2\n      swap1\n      pop\n      jump\t// out\n        /* \"#utility.yul\":34404:34555   */\n    tag_680:\n      0x00\n        /* \"#utility.yul\":34490:34495   */\n      dup2\n        /* \"#utility.yul\":34479:34495   */\n      swap1\n      pop\n        /* \"#utility.yul\":34496:34549   */\n      tag_682\n        /* \"#utility.yul\":34543:34548   */\n      dup3\n        /* \"#utility.yul\":34496:34549   */\n      tag_683\n      jump\t// in\n    tag_682:\n        /* \"#utility.yul\":34469:34555   */\n      swap2\n      swap1\n      pop\n      jump\t// out\n        /* \"#utility.yul\":34561:34687   */\n    tag_675:\n      0x00\n        /* \"#utility.yul\":34638:34680   */\n      0xffffffffffffffffffffffffffffffffffffffff\n        /* \"#utility.yul\":34631:34636   */\n      dup3\n        /* \"#utility.yul\":34627:34681   */\n      and\n        /* \"#utility.yul\":34616:34681   */\n      swap1\n      pop\n        /* \"#utility.yul\":34606:34687   */\n      swap2\n      swap1\n      pop\n      jump\t// out\n        /* \"#utility.yul\":34693:34770   */\n    tag_565:\n      0x00\n        /* \"#utility.yul\":34759:34764   */\n      dup2\n        /* \"#utility.yul\":34748:34764   */\n      swap1\n      pop\n        /* \"#utility.yul\":34738:34770   */\n      swap2\n      swap1\n      pop\n      jump\t// out\n        /* \"#utility.yul\":34776:34869   */\n    tag_568:\n      0x00\n        /* \"#utility.yul\":34852:34862   */\n      0xffffffff\n        /* \"#utility.yul\":34845:34850   */\n      dup3\n        /* \"#utility.yul\":34841:34863   */\n      and\n        /* \"#utility.yul\":34830:34863   */\n      swap1\n      pop\n        /* \"#utility.yul\":34820:34869   */\n      swap2\n      swap1\n      pop\n      jump\t// out\n        /* \"#utility.yul\":34875:34972   */\n    tag_579:\n      0x00\n        /* \"#utility.yul\":34951:34965   */\n      0xffffffffffff\n        /* \"#utility.yul\":34944:34949   */\n      dup3\n        /* \"#utility.yul\":34940:34966   */\n      and\n        /* \"#utility.yul\":34929:34966   */\n      swap1\n      pop\n        /* \"#utility.yul\":34919:34972   */\n      swap2\n      swap1\n      pop\n      jump\t// out\n        /* \"#utility.yul\":34978:35129   */\n    tag_453:\n      0x00\n        /* \"#utility.yul\":35079:35123   */\n      tag_689\n        /* \"#utility.yul\":35117:35122   */\n      dup3\n        /* \"#utility.yul\":35079:35123   */\n      tag_680\n      jump\t// in\n    tag_689:\n        /* \"#utility.yul\":35066:35123   */\n      swap1\n      pop\n        /* \"#utility.yul\":35056:35129   */\n      swap2\n      swap1\n      pop\n      jump\t// out\n        /* \"#utility.yul\":35135:35442   */\n    tag_461:\n        /* \"#utility.yul\":35203:35204   */\n      0x00\n        /* \"#utility.yul\":35213:35326   */\n    tag_691:\n        /* \"#utility.yul\":35227:35233   */\n      dup4\n        /* \"#utility.yul\":35224:35225   */\n      dup2\n        /* \"#utility.yul\":35221:35234   */\n      lt\n        /* \"#utility.yul\":35213:35326   */\n      iszero\n      tag_693\n      jumpi\n        /* \"#utility.yul\":35312:35313   */\n      dup1\n        /* \"#utility.yul\":35307:35310   */\n      dup3\n        /* \"#utility.yul\":35303:35314   */\n      add\n        /* \"#utility.yul\":35297:35315   */\n      mload\n        /* \"#utility.yul\":35293:35294   */\n      dup2\n        /* \"#utility.yul\":35288:35291   */\n      dup5\n        /* \"#utility.yul\":35284:35295   */\n      add\n        /* \"#utility.yul\":35277:35316   */\n      mstore\n        /* \"#utility.yul\":35249:35251   */\n      0x20\n        /* \"#utility.yul\":35246:35247   */\n      dup2\n        /* \"#utility.yul\":35242:35252   */\n      add\n        /* \"#utility.yul\":35237:35252   */\n      swap1\n      pop\n        /* \"#utility.yul\":35213:35326   */\n      jump(tag_691)\n    tag_693:\n        /* \"#utility.yul\":35344:35350   */\n      dup4\n        /* \"#utility.yul\":35341:35342   */\n      dup2\n        /* \"#utility.yul\":35338:35351   */\n      gt\n        /* \"#utility.yul\":35335:35337   */\n      iszero\n      tag_694\n      jumpi\n        /* \"#utility.yul\":35424:35425   */\n      0x00\n        /* \"#utility.yul\":35415:35421   */\n      dup5\n        /* \"#utility.yul\":35410:35413   */\n      dup5\n        /* \"#utility.yul\":35406:35422   */\n      add\n        /* \"#utility.yul\":35399:35426   */\n      mstore\n        /* \"#utility.yul\":35335:35337   */\n    tag_694:\n        /* \"#utility.yul\":35184:35442   */\n      pop\n      pop\n      pop\n      pop\n      jump\t// out\n        /* \"#utility.yul\":35448:35768   */\n    tag_173:\n      0x00\n        /* \"#utility.yul\":35529:35530   */\n      0x02\n        /* \"#utility.yul\":35523:35527   */\n      dup3\n        /* \"#utility.yul\":35519:35531   */\n      div\n        /* \"#utility.yul\":35509:35531   */\n      swap1\n      pop\n        /* \"#utility.yul\":35576:35577   */\n      0x01\n        /* \"#utility.yul\":35570:35574   */\n      dup3\n        /* \"#utility.yul\":35566:35578   */\n      and\n        /* \"#utility.yul\":35597:35615   */\n      dup1\n        /* \"#utility.yul\":35587:35589   */\n      tag_696\n      jumpi\n        /* \"#utility.yul\":35653:35657   */\n      0x7f\n        /* \"#utility.yul\":35645:35651   */\n      dup3\n        /* \"#utility.yul\":35641:35658   */\n      and\n        /* \"#utility.yul\":35631:35658   */\n      swap2\n      pop\n        /* \"#utility.yul\":35587:35589   */\n    tag_696:\n        /* \"#utility.yul\":35715:35717   */\n      0x20\n        /* \"#utility.yul\":35707:35713   */\n      dup3\n        /* \"#utility.yul\":35704:35718   */\n      lt\n        /* \"#utility.yul\":35684:35702   */\n      dup2\n        /* \"#utility.yul\":35681:35719   */\n      eq\n        /* \"#utility.yul\":35678:35680   */\n      iszero\n      tag_697\n      jumpi\n        /* \"#utility.yul\":35734:35752   */\n      tag_698\n      tag_699\n      jump\t// in\n    tag_698:\n        /* \"#utility.yul\":35678:35680   */\n    tag_697:\n        /* \"#utility.yul\":35499:35768   */\n      pop\n      swap2\n      swap1\n      pop\n      jump\t// out\n        /* \"#utility.yul\":35774:36007   */\n    tag_104:\n      0x00\n        /* \"#utility.yul\":35836:35860   */\n      tag_701\n        /* \"#utility.yul\":35854:35859   */\n      dup3\n        /* \"#utility.yul\":35836:35860   */\n      tag_565\n      jump\t// in\n    tag_701:\n        /* \"#utility.yul\":35827:35860   */\n      swap2\n      pop\n        /* \"#utility.yul\":35882:35948   */\n      0xffffffffffffffffffffffffffffffffffffffffffffffffffffffffffffffff\n        /* \"#utility.yul\":35875:35880   */\n      dup3\n        /* \"#utility.yul\":35872:35949   */\n      eq\n        /* \"#utility.yul\":35869:35871   */\n      iszero\n      tag_702\n      jumpi\n        /* \"#utility.yul\":35952:35970   */\n      tag_703\n      tag_661\n      jump\t// in\n    tag_703:\n        /* \"#utility.yul\":35869:35871   */\n    tag_702:\n        /* \"#utility.yul\":35999:36000   */\n      0x01\n        /* \"#utility.yul\":35992:35997   */\n      dup3\n        /* \"#utility.yul\":35988:36001   */\n      add\n        /* \"#utility.yul\":35981:36001   */\n      swap1\n      pop\n        /* \"#utility.yul\":35817:36007   */\n      swap2\n      swap1\n      pop\n      jump\t// out\n        /* \"#utility.yul\":36013:36113   */\n    tag_433:\n      0x00\n        /* \"#utility.yul\":36081:36107   */\n      tag_705\n        /* \"#utility.yul\":36101:36106   */\n      dup3\n        /* \"#utility.yul\":36081:36107   */\n      tag_706\n      jump\t// in\n    tag_705:\n        /* \"#utility.yul\":36070:36107   */\n      swap1\n      pop\n        /* \"#utility.yul\":36060:36113   */\n      swap2\n      swap1\n      pop\n      jump\t// out\n        /* \"#utility.yul\":36119:36198   */\n    tag_449:\n      0x00\n        /* \"#utility.yul\":36187:36192   */\n      dup2\n        /* \"#utility.yul\":36176:36192   */\n      swap1\n      pop\n        /* \"#utility.yul\":36166:36198   */\n      swap2\n      swap1\n      pop\n      jump\t// out\n        /* \"#utility.yul\":36204:36298   */\n    tag_706:\n      0x00\n        /* \"#utility.yul\":36272:36292   */\n      tag_709\n        /* \"#utility.yul\":36286:36291   */\n      dup3\n        /* \"#utility.yul\":36272:36292   */\n      tag_710\n      jump\t// in\n    tag_709:\n        /* \"#utility.yul\":36261:36292   */\n      swap1\n      pop\n        /* \"#utility.yul\":36251:36298   */\n      swap2\n      swap1\n      pop\n      jump\t// out\n        /* \"#utility.yul\":36304:36398   */\n    tag_576:\n      0x00\n        /* \"#utility.yul\":36371:36392   */\n      tag_712\n        /* \"#utility.yul\":36386:36391   */\n      dup3\n        /* \"#utility.yul\":36371:36392   */\n      tag_713\n      jump\t// in\n    tag_712:\n        /* \"#utility.yul\":36360:36392   */\n      swap1\n      pop\n        /* \"#utility.yul\":36350:36398   */\n      swap2\n      swap1\n      pop\n      jump\t// out\n        /* \"#utility.yul\":36404:36580   */\n    tag_305:\n      0x00\n        /* \"#utility.yul\":36453:36473   */\n      tag_715\n        /* \"#utility.yul\":36471:36472   */\n      dup3\n        /* \"#utility.yul\":36453:36473   */\n      tag_565\n      jump\t// in\n    tag_715:\n        /* \"#utility.yul\":36448:36473   */\n      swap2\n      pop\n        /* \"#utility.yul\":36487:36507   */\n      tag_716\n        /* \"#utility.yul\":36505:36506   */\n      dup4\n        /* \"#utility.yul\":36487:36507   */\n      tag_565\n      jump\t// in\n    tag_716:\n        /* \"#utility.yul\":36482:36507   */\n      swap3\n      pop\n        /* \"#utility.yul\":36526:36527   */\n      dup3\n        /* \"#utility.yul\":36516:36518   */\n      tag_717\n      jumpi\n        /* \"#utility.yul\":36531:36549   */\n      tag_718\n      tag_667\n      jump\t// in\n    tag_718:\n        /* \"#utility.yul\":36516:36518   */\n    tag_717:\n        /* \"#utility.yul\":36572:36573   */\n      dup3\n        /* \"#utility.yul\":36569:36570   */\n      dup3\n        /* \"#utility.yul\":36565:36574   */\n      mod\n        /* \"#utility.yul\":36560:36574   */\n      swap1\n      pop\n        /* \"#utility.yul\":36438:36580   */\n      swap3\n      swap2\n      pop\n      pop\n      jump\t// out\n        /* \"#utility.yul\":36586:36766   */\n    tag_661:\n        /* \"#utility.yul\":36634:36711   */\n      0x4e487b7100000000000000000000000000000000000000000000000000000000\n        /* \"#utility.yul\":36631:36632   */\n      0x00\n        /* \"#utility.yul\":36624:36712   */\n      mstore\n        /* \"#utility.yul\":36731:36735   */\n      0x11\n        /* \"#utility.yul\":36728:36729   */\n      0x04\n        /* \"#utility.yul\":36721:36736   */\n      mstore\n        /* \"#utility.yul\":36755:36759   */\n      0x24\n        /* \"#utility.yul\":36752:36753   */\n      0x00\n        /* \"#utility.yul\":36745:36760   */\n      revert\n        /* \"#utility.yul\":36772:36952   */\n    tag_667:\n        /* \"#utility.yul\":36820:36897   */\n      0x4e487b7100000000000000000000000000000000000000000000000000000000\n        /* \"#utility.yul\":36817:36818   */\n      0x00\n        /* \"#utility.yul\":36810:36898   */\n      mstore\n        /* \"#utility.yul\":36917:36921   */\n      0x12\n        /* \"#utility.yul\":36914:36915   */\n      0x04\n        /* \"#utility.yul\":36907:36922   */\n      mstore\n        /* \"#utility.yul\":36941:36945   */\n      0x24\n        /* \"#utility.yul\":36938:36939   */\n      0x00\n        /* \"#utility.yul\":36931:36946   */\n      revert\n        /* \"#utility.yul\":36958:37138   */\n    tag_721:\n        /* \"#utility.yul\":37006:37083   */\n      0x4e487b7100000000000000000000000000000000000000000000000000000000\n        /* \"#utility.yul\":37003:37004   */\n      0x00\n        /* \"#utility.yul\":36996:37084   */\n      mstore\n        /* \"#utility.yul\":37103:37107   */\n      0x21\n        /* \"#utility.yul\":37100:37101   */\n      0x04\n        /* \"#utility.yul\":37093:37108   */\n      mstore\n        /* \"#utility.yul\":37127:37131   */\n      0x24\n        /* \"#utility.yul\":37124:37125   */\n      0x00\n        /* \"#utility.yul\":37117:37132   */\n      revert\n        /* \"#utility.yul\":37144:37324   */\n    tag_699:\n        /* \"#utility.yul\":37192:37269   */\n      0x4e487b7100000000000000000000000000000000000000000000000000000000\n        /* \"#utility.yul\":37189:37190   */\n      0x00\n        /* \"#utility.yul\":37182:37270   */\n      mstore\n        /* \"#utility.yul\":37289:37293   */\n      0x22\n        /* \"#utility.yul\":37286:37287   */\n      0x04\n        /* \"#utility.yul\":37279:37294   */\n      mstore\n        /* \"#utility.yul\":37313:37317   */\n      0x24\n        /* \"#utility.yul\":37310:37311   */\n      0x00\n        /* \"#utility.yul\":37303:37318   */\n      revert\n        /* \"#utility.yul\":37330:37432   */\n    tag_463:\n      0x00\n        /* \"#utility.yul\":37422:37424   */\n      0x1f\n        /* \"#utility.yul\":37418:37425   */\n      not\n        /* \"#utility.yul\":37413:37415   */\n      0x1f\n        /* \"#utility.yul\":37406:37411   */\n      dup4\n        /* \"#utility.yul\":37402:37416   */\n      add\n        /* \"#utility.yul\":37398:37426   */\n      and\n        /* \"#utility.yul\":37388:37426   */\n      swap1\n      pop\n        /* \"#utility.yul\":37378:37432   */\n      swap2\n      swap1\n      pop\n      jump\t// out\n        /* \"#utility.yul\":37438:37534   */\n    tag_713:\n      0x00\n        /* \"#utility.yul\":37521:37526   */\n      dup2\n        /* \"#utility.yul\":37516:37519   */\n      0xe0\n        /* \"#utility.yul\":37512:37527   */\n      shl\n        /* \"#utility.yul\":37491:37527   */\n      swap1\n      pop\n        /* \"#utility.yul\":37481:37534   */\n      swap2\n      swap1\n      pop\n      jump\t// out\n        /* \"#utility.yul\":37540:37634   */\n    tag_710:\n      0x00\n        /* \"#utility.yul\":37621:37626   */\n      dup2\n        /* \"#utility.yul\":37617:37619   */\n      0x60\n        /* \"#utility.yul\":37613:37627   */\n      shl\n        /* \"#utility.yul\":37592:37627   */\n      swap1\n      pop\n        /* \"#utility.yul\":37582:37634   */\n      swap2\n      swap1\n      pop\n      jump\t// out\n        /* \"#utility.yul\":37640:37765   */\n    tag_683:\n        /* \"#utility.yul\":37733:37734   */\n      0x04\n        /* \"#utility.yul\":37726:37731   */\n      dup2\n        /* \"#utility.yul\":37723:37735   */\n      lt\n        /* \"#utility.yul\":37713:37715   */\n      tag_728\n      jumpi\n        /* \"#utility.yul\":37739:37757   */\n      tag_729\n      tag_721\n      jump\t// in\n    tag_729:\n        /* \"#utility.yul\":37713:37715   */\n    tag_728:\n        /* \"#utility.yul\":37703:37765   */\n      pop\n      jump\t// out\n        /* \"#utility.yul\":37771:37893   */\n    tag_335:\n        /* \"#utility.yul\":37844:37868   */\n      tag_731\n        /* \"#utility.yul\":37862:37867   */\n      dup2\n        /* \"#utility.yul\":37844:37868   */\n      tag_428\n      jump\t// in\n    tag_731:\n        /* \"#utility.yul\":37837:37842   */\n      dup2\n        /* \"#utility.yul\":37834:37869   */\n      eq\n        /* \"#utility.yul\":37824:37826   */\n      tag_732\n      jumpi\n        /* \"#utility.yul\":37883:37884   */\n      0x00\n        /* \"#utility.yul\":37880:37881   */\n      dup1\n        /* \"#utility.yul\":37873:37885   */\n      revert\n        /* \"#utility.yul\":37824:37826   */\n    tag_732:\n        /* \"#utility.yul\":37814:37893   */\n      pop\n      jump\t// out\n        /* \"#utility.yul\":37899:38015   */\n    tag_344:\n        /* \"#utility.yul\":37969:37990   */\n      tag_734\n        /* \"#utility.yul\":37984:37989   */\n      dup2\n        /* \"#utility.yul\":37969:37990   */\n      tag_437\n      jump\t// in\n    tag_734:\n        /* \"#utility.yul\":37962:37967   */\n      dup2\n        /* \"#utility.yul\":37959:37991   */\n      eq\n        /* \"#utility.yul\":37949:37951   */\n      tag_735\n      jumpi\n        /* \"#utility.yul\":38005:38006   */\n      0x00\n        /* \"#utility.yul\":38002:38003   */\n      dup1\n        /* \"#utility.yul\":37995:38007   */\n      revert\n        /* \"#utility.yul\":37949:37951   */\n    tag_735:\n        /* \"#utility.yul\":37939:38015   */\n      pop\n      jump\t// out\n        /* \"#utility.yul\":38021:38141   */\n    tag_351:\n        /* \"#utility.yul\":38093:38116   */\n      tag_737\n        /* \"#utility.yul\":38110:38115   */\n      dup2\n        /* \"#utility.yul\":38093:38116   */\n      tag_678\n      jump\t// in\n    tag_737:\n        /* \"#utility.yul\":38086:38091   */\n      dup2\n        /* \"#utility.yul\":38083:38117   */\n      eq\n        /* \"#utility.yul\":38073:38075   */\n      tag_738\n      jumpi\n        /* \"#utility.yul\":38131:38132   */\n      0x00\n        /* \"#utility.yul\":38128:38129   */\n      dup1\n        /* \"#utility.yul\":38121:38133   */\n      revert\n        /* \"#utility.yul\":38073:38075   */\n    tag_738:\n        /* \"#utility.yul\":38063:38141   */\n      pop\n      jump\t// out\n        /* \"#utility.yul\":38147:38266   */\n    tag_355:\n        /* \"#utility.yul\":38240:38241   */\n      0x04\n        /* \"#utility.yul\":38233:38238   */\n      dup2\n        /* \"#utility.yul\":38230:38242   */\n      lt\n        /* \"#utility.yul\":38220:38222   */\n      tag_740\n      jumpi\n        /* \"#utility.yul\":38256:38257   */\n      0x00\n        /* \"#utility.yul\":38253:38254   */\n      dup1\n        /* \"#utility.yul\":38246:38258   */\n      revert\n        /* \"#utility.yul\":38220:38222   */\n    tag_740:\n        /* \"#utility.yul\":38210:38266   */\n      pop\n      jump\t// out\n        /* \"#utility.yul\":38272:38394   */\n    tag_362:\n        /* \"#utility.yul\":38345:38369   */\n      tag_742\n        /* \"#utility.yul\":38363:38368   */\n      dup2\n        /* \"#utility.yul\":38345:38369   */\n      tag_565\n      jump\t// in\n    tag_742:\n        /* \"#utility.yul\":38338:38343   */\n      dup2\n        /* \"#utility.yul\":38335:38370   */\n      eq\n        /* \"#utility.yul\":38325:38327   */\n      tag_743\n      jumpi\n        /* \"#utility.yul\":38384:38385   */\n      0x00\n        /* \"#utility.yul\":38381:38382   */\n      dup1\n        /* \"#utility.yul\":38374:38386   */\n      revert\n        /* \"#utility.yul\":38325:38327   */\n    tag_743:\n        /* \"#utility.yul\":38315:38394   */\n      pop\n      jump\t// out\n        /* \"#utility.yul\":38400:38520   */\n    tag_369:\n        /* \"#utility.yul\":38472:38495   */\n      tag_745\n        /* \"#utility.yul\":38489:38494   */\n      dup2\n        /* \"#utility.yul\":38472:38495   */\n      tag_568\n      jump\t// in\n    tag_745:\n        /* \"#utility.yul\":38465:38470   */\n      dup2\n        /* \"#utility.yul\":38462:38496   */\n      eq\n        /* \"#utility.yul\":38452:38454   */\n      tag_746\n      jumpi\n        /* \"#utility.yul\":38510:38511   */\n      0x00\n        /* \"#utility.yul\":38507:38508   */\n      dup1\n        /* \"#utility.yul\":38500:38512   */\n      revert\n        /* \"#utility.yul\":38452:38454   */\n    tag_746:\n        /* \"#utility.yul\":38442:38520   */\n      pop\n      jump\t// out\n        /* \"#utility.yul\":38526:38646   */\n    tag_373:\n        /* \"#utility.yul\":38598:38621   */\n      tag_748\n        /* \"#utility.yul\":38615:38620   */\n      dup2\n        /* \"#utility.yul\":38598:38621   */\n      tag_579\n      jump\t// in\n    tag_748:\n        /* \"#utility.yul\":38591:38596   */\n      dup2\n        /* \"#utility.yul\":38588:38622   */\n      eq\n        /* \"#utility.yul\":38578:38580   */\n      tag_749\n      jumpi\n        /* \"#utility.yul\":38636:38637   */\n      0x00\n        /* \"#utility.yul\":38633:38634   */\n      dup1\n        /* \"#utility.yul\":38626:38638   */\n      revert\n        /* \"#utility.yul\":38578:38580   */\n    tag_749:\n        /* \"#utility.yul\":38568:38646   */\n      pop\n      jump\t// out\n\n    auxdata: 0xa26469706673582212206debf2feab381d9008ed08140d9844ab3066141ce3273afe4be6aecc6d4c292d64736f6c63430008000033\n}\n",
				"bytecode": {
					"linkReferences": {},
					"object": "608060405234801561001057600080fd5b5060016000819055506142b1806100286000396000f3fe608060405234801561001057600080fd5b50600436106100935760003560e01c80630f79ab39116100665780630f79ab39146101585780638566ae5d14610188578063cc351138146101b8578063d5fdfe87146101d4578063e9dc63751461020457610093565b806301ffc9a71461009857806302349713146100c8578063037b79db146100f85780630c13495914610128575b600080fd5b6100b260048036038101906100ad9190612fc1565b610234565b6040516100bf9190613aa5565b60405180910390f35b6100e260048036038101906100dd9190612dfd565b61036e565b6040516100ef9190613d44565b60405180910390f35b610112600480360381019061010d9190612da9565b610382565b60405161011f9190613d44565b60405180910390f35b610142600480360381019061013d9190612e88565b610a73565b60405161014f9190613d44565b60405180910390f35b610172600480360381019061016d9190612dfd565b611332565b60405161017f9190613d22565b60405180910390f35b6101a2600480360381019061019d9190612e39565b611649565b6040516101af9190613d88565b60405180910390f35b6101d260048036038101906101cd9190612f08565b611784565b005b6101ee60048036038101906101e99190612d80565b611f61565b6040516101fb9190613d44565b60405180910390f35b61021e60048036038101906102199190612dfd565b611faa565b60405161022b9190613ac0565b60405180910390f35b60007f9e8b4d4a000000000000000000000000000000000000000000000000000000007bffffffffffffffffffffffffffffffffffffffffffffffffffffffff1916827bffffffffffffffffffffffffffffffffffffffffffffffffffffffff191614806102ff57507fe9dc6375000000000000000000000000000000000000000000000000000000007bffffffffffffffffffffffffffffffffffffffffffffffffffffffff1916827bffffffffffffffffffffffffffffffffffffffffffffffffffffffff1916145b8061036757507f01ffc9a7000000000000000000000000000000000000000000000000000000007bffffffffffffffffffffffffffffffffffffffffffffffffffffffff1916827bffffffffffffffffffffffffffffffffffffffffffffffffffffffff1916145b9050919050565b600061037a8383612416565b905092915050565b60008260008190508073ffffffffffffffffffffffffffffffffffffffff166324d7806c336040518263ffffffff1660e01b81526004016103c39190613a8a565b60206040518083038186803b1580156103db57600080fd5b505afa1580156103ef573d6000803e3d6000fd5b505050506040513d601f19601f820116820180604052508101906104139190612f98565b610452576040517f08c379a000000000000000000000000000000000000000000000000000000000815260040161044990613b82565b60405180910390fd5b6000848060e001906104649190613da3565b905014156104a7576040517f08c379a000000000000000000000000000000000000000000000000000000000815260040161049e90613bc2565b60405180910390fd5b600060038111156104e1577f4e487b7100000000000000000000000000000000000000000000000000000000600052602160045260246000fd5b8460800160208101906104f49190612fea565b600381111561052c577f4e487b7100000000000000000000000000000000000000000000000000000000600052602160045260246000fd5b141561056d576040517f08c379a000000000000000000000000000000000000000000000000000000000815260040161056490613b62565b60405180910390fd5b60008460600160208101906105829190613065565b65ffffffffffff1614806105c957508360600160208101906105a49190613065565b65ffffffffffff168460400160208101906105bf9190613065565b65ffffffffffff16105b610608576040517f08c379a00000000000000000000000000000000000000000000000000000000081526004016105ff90613ae2565b60405180910390fd5b61271084600001602081019061061e919061303c565b63ffffffff1610610664576040517f08c379a000000000000000000000000000000000000000000000000000000000815260040161065b90613b42565b60405180910390fd5b600160008673ffffffffffffffffffffffffffffffffffffffff1673ffffffffffffffffffffffffffffffffffffffff16815260200190815260200160002060008154809291906106b49061402c565b91905055506000600160008773ffffffffffffffffffffffffffffffffffffffff1673ffffffffffffffffffffffffffffffffffffffff168152602001908152602001600020549050604051806101200160405280600063ffffffff168152602001866000016020810190610729919061303c565b63ffffffff168152602001866020016020810190610747919061303c565b63ffffffff1681526020018660400160208101906107659190613065565b65ffffffffffff1681526020018660600160208101906107859190613065565b65ffffffffffff1681526020018660800160208101906107a59190612fea565b60038111156107dd577f4e487b7100000000000000000000000000000000000000000000000000000000600052602160045260246000fd5b81526020018660a00160208101906107f59190612f6f565b151581526020018660c001358152602001868060e001906108169190613da3565b8080601f016020809104026020016040519081016040528093929190818152602001838380828437600081840152601f19601f82011690508083019250505050505050815250600260008873ffffffffffffffffffffffffffffffffffffffff1673ffffffffffffffffffffffffffffffffffffffff168152602001908152602001600020600083815260200190815260200160002060008201518160000160006101000a81548163ffffffff021916908363ffffffff16021790555060208201518160000160046101000a81548163ffffffff021916908363ffffffff16021790555060408201518160000160086101000a81548163ffffffff021916908363ffffffff160217905550606082015181600001600c6101000a81548165ffffffffffff021916908365ffffffffffff16021790555060808201518160000160126101000a81548165ffffffffffff021916908365ffffffffffff16021790555060a08201518160000160186101000a81548160ff021916908360038111156109c8577f4e487b7100000000000000000000000000000000000000000000000000000000600052602160045260246000fd5b021790555060c08201518160000160196101000a81548160ff02191690831515021790555060e08201518160010155610100820151816002019080519060200190610a14929190612b0f565b50905050808673ffffffffffffffffffffffffffffffffffffffff167fd02727da4c6c6c111e00310108209a4de39f6817414df43ca1a10730d47c6a3433604051610a5f9190613a8a565b60405180910390a380935050505092915050565b600080600260008873ffffffffffffffffffffffffffffffffffffffff1673ffffffffffffffffffffffffffffffffffffffff1681526020019081526020016000206000878152602001908152602001600020905060006003811115610b02577f4e487b7100000000000000000000000000000000000000000000000000000000600052602160045260246000fd5b8160000160189054906101000a900460ff166003811115610b4c577f4e487b7100000000000000000000000000000000000000000000000000000000600052602160045260246000fd5b1415610b8d576040517f08c379a0000000000000000000000000000000000000000000000000000000008152600401610b8490613c02565b60405180910390fd5b600081600001600c9054906101000a900465ffffffffffff1665ffffffffffff161480610bd757504281600001600c9054906101000a900465ffffffffffff1665ffffffffffff16105b610c16576040517f08c379a0000000000000000000000000000000000000000000000000000000008152600401610c0d90613be2565b60405180910390fd5b60008160000160129054906101000a900465ffffffffffff1665ffffffffffff161480610c615750428160000160129054906101000a900465ffffffffffff1665ffffffffffff1610155b610ca0576040517f08c379a0000000000000000000000000000000000000000000000000000000008152600401610c9790613ce2565b60405180910390fd5b60008160000160049054906101000a900463ffffffff1663ffffffff161480610cfc57508060000160049054906101000a900463ffffffff1663ffffffff168160000160009054906101000a900463ffffffff1663ffffffff16105b610d3b576040517f08c379a0000000000000000000000000000000000000000000000000000000008152600401610d3290613c62565b60405180910390fd5b60008160010154146110505760003384604051602001610d5c9291906139bd565b604051602081830303815290604052805190602001209050610dc4868680806020026020016040519081016040528093929190818152602001838360200280828437600081840152601f19601f820116905080830192505050505050508360010154836126c2565b610e03576040517f08c379a0000000000000000000000000000000000000000000000000000000008152600401610dfa90613c82565b60405180910390fd5b60008463ffffffff1614610f3b576000600360008a73ffffffffffffffffffffffffffffffffffffffff1673ffffffffffffffffffffffffffffffffffffffff168152602001908152602001600020600089815260200190815260200160002060003373ffffffffffffffffffffffffffffffffffffffff1673ffffffffffffffffffffffffffffffffffffffff16815260200190815260200160002054905060008360000160089054906101000a900463ffffffff1663ffffffff161480610ee557508260000160089054906101000a900463ffffffff1663ffffffff1681105b8015610ef657508463ffffffff1681105b610f35576040517f08c379a0000000000000000000000000000000000000000000000000000000008152600401610f2c90613d02565b60405180910390fd5b5061104a565b60008260000160089054906101000a900463ffffffff1663ffffffff16148061100a57508160000160089054906101000a900463ffffffff1663ffffffff16600360008a73ffffffffffffffffffffffffffffffffffffffff1673ffffffffffffffffffffffffffffffffffffffff168152602001908152602001600020600089815260200190815260200160002060003373ffffffffffffffffffffffffffffffffffffffff1673ffffffffffffffffffffffffffffffffffffffff16815260200190815260200160002054105b611049576040517f08c379a000000000000000000000000000000000000000000000000000000000815260040161104090613ca2565b60405180910390fd5b5b5061115f565b60008160000160089054906101000a900463ffffffff1663ffffffff16148061111f57508060000160089054906101000a900463ffffffff1663ffffffff16600360008973ffffffffffffffffffffffffffffffffffffffff1673ffffffffffffffffffffffffffffffffffffffff168152602001908152602001600020600088815260200190815260200160002060003373ffffffffffffffffffffffffffffffffffffffff1673ffffffffffffffffffffffffffffffffffffffff16815260200190815260200160002054105b61115e576040517f08c379a000000000000000000000000000000000000000000000000000000000815260040161115590613ca2565b60405180910390fd5b5b60008773ffffffffffffffffffffffffffffffffffffffff16632928ca58336040518263ffffffff1660e01b815260040161119a9190613a8a565b602060405180830381600087803b1580156111b457600080fd5b505af11580156111c8573d6000803e3d6000fd5b505050506040513d601f19601f820116820180604052508101906111ec9190613013565b90506111f98888836126d9565b600360008973ffffffffffffffffffffffffffffffffffffffff1673ffffffffffffffffffffffffffffffffffffffff168152602001908152602001600020600088815260200190815260200160002060003373ffffffffffffffffffffffffffffffffffffffff1673ffffffffffffffffffffffffffffffffffffffff1681526020019081526020016000206000815480929190600101919050555081600001600081819054906101000a900463ffffffff168092919060010191906101000a81548163ffffffff021916908363ffffffff16021790555050868873ffffffffffffffffffffffffffffffffffffffff167fdbba30eb0402b389513e87f51f4db2db80bed454384ec6925a24097c3548a02a833360405161131c929190613d5f565b60405180910390a3809250505095945050505050565b61133a612b95565b6000600260008573ffffffffffffffffffffffffffffffffffffffff1673ffffffffffffffffffffffffffffffffffffffff1681526020019081526020016000206000848152602001908152602001600020600201805461139a90613ffa565b905014156113dd576040517f08c379a00000000000000000000000000000000000000000000000000000000081526004016113d490613c02565b60405180910390fd5b600260008473ffffffffffffffffffffffffffffffffffffffff1673ffffffffffffffffffffffffffffffffffffffff1681526020019081526020016000206000838152602001908152602001600020604051806101200160405290816000820160009054906101000a900463ffffffff1663ffffffff1663ffffffff1681526020016000820160049054906101000a900463ffffffff1663ffffffff1663ffffffff1681526020016000820160089054906101000a900463ffffffff1663ffffffff1663ffffffff16815260200160008201600c9054906101000a900465ffffffffffff1665ffffffffffff1665ffffffffffff1681526020016000820160129054906101000a900465ffffffffffff1665ffffffffffff1665ffffffffffff1681526020016000820160189054906101000a900460ff16600381111561154e577f4e487b7100000000000000000000000000000000000000000000000000000000600052602160045260246000fd5b6003811115611586577f4e487b7100000000000000000000000000000000000000000000000000000000600052602160045260246000fd5b81526020016000820160199054906101000a900460ff16151515158152602001600182015481526020016002820180546115bf90613ffa565b80601f01602080910402602001604051908101604052809291908181526020018280546115eb90613ffa565b80156116385780601f1061160d57610100808354040283529160200191611638565b820191906000526020600020905b81548152906001019060200180831161161b57829003601f168201915b505050505081525050905092915050565b600080600260008673ffffffffffffffffffffffffffffffffffffffff1673ffffffffffffffffffffffffffffffffffffffff168152602001908152602001600020600085815260200190815260200160002060020180546116aa90613ffa565b905014156116ed576040517f08c379a00000000000000000000000000000000000000000000000000000000081526004016116e490613c02565b60405180910390fd5b600360008573ffffffffffffffffffffffffffffffffffffffff1673ffffffffffffffffffffffffffffffffffffffff168152602001908152602001600020600084815260200190815260200160002060008373ffffffffffffffffffffffffffffffffffffffff1673ffffffffffffffffffffffffffffffffffffffff1681526020019081526020016000205490509392505050565b8260008190508073ffffffffffffffffffffffffffffffffffffffff166324d7806c336040518263ffffffff1660e01b81526004016117c39190613a8a565b60206040518083038186803b1580156117db57600080fd5b505afa1580156117ef573d6000803e3d6000fd5b505050506040513d601f19601f820116820180604052508101906118139190612f98565b611852576040517f08c379a000000000000000000000000000000000000000000000000000000000815260040161184990613b82565b60405180910390fd5b6000600260008773ffffffffffffffffffffffffffffffffffffffff1673ffffffffffffffffffffffffffffffffffffffff168152602001908152602001600020600086815260200190815260200160002060020180546118b290613ffa565b905014156118f5576040517f08c379a00000000000000000000000000000000000000000000000000000000081526004016118ec90613b02565b60405180910390fd5b6000600381111561192f577f4e487b7100000000000000000000000000000000000000000000000000000000600052602160045260246000fd5b8360800160208101906119429190612fea565b600381111561197a577f4e487b7100000000000000000000000000000000000000000000000000000000600052602160045260246000fd5b14156119bb576040517f08c379a00000000000000000000000000000000000000000000000000000000081526004016119b290613cc2565b60405180910390fd5b8260000160208101906119ce919061303c565b63ffffffff16600260008773ffffffffffffffffffffffffffffffffffffffff1673ffffffffffffffffffffffffffffffffffffffff168152602001908152602001600020600086815260200190815260200160002060000160049054906101000a900463ffffffff1663ffffffff1614611a7e576040517f08c379a0000000000000000000000000000000000000000000000000000000008152600401611a7590613b22565b60405180910390fd5b826020016020810190611a91919061303c565b63ffffffff16600260008773ffffffffffffffffffffffffffffffffffffffff1673ffffffffffffffffffffffffffffffffffffffff168152602001908152602001600020600086815260200190815260200160002060000160089054906101000a900463ffffffff1663ffffffff161115611b42576040517f08c379a0000000000000000000000000000000000000000000000000000000008152600401611b3990613c42565b60405180910390fd5b6000836060016020810190611b579190613065565b65ffffffffffff161480611b9e5750826060016020810190611b799190613065565b65ffffffffffff16836040016020810190611b949190613065565b65ffffffffffff16105b611bdd576040517f08c379a0000000000000000000000000000000000000000000000000000000008152600401611bd490613ae2565b60405180910390fd5b604051806101200160405280600260008873ffffffffffffffffffffffffffffffffffffffff1673ffffffffffffffffffffffffffffffffffffffff168152602001908152602001600020600087815260200190815260200160002060000160009054906101000a900463ffffffff1663ffffffff168152602001846000016020810190611c6b919061303c565b63ffffffff168152602001846020016020810190611c89919061303c565b63ffffffff168152602001846040016020810190611ca79190613065565b65ffffffffffff168152602001846060016020810190611cc79190613065565b65ffffffffffff168152602001846080016020810190611ce79190612fea565b6003811115611d1f577f4e487b7100000000000000000000000000000000000000000000000000000000600052602160045260246000fd5b81526020018460a0016020810190611d379190612f6f565b151581526020018460c001358152602001848060e00190611d589190613da3565b8080601f016020809104026020016040519081016040528093929190818152602001838380828437600081840152601f19601f82011690508083019250505050505050815250600260008773ffffffffffffffffffffffffffffffffffffffff1673ffffffffffffffffffffffffffffffffffffffff168152602001908152602001600020600086815260200190815260200160002060008201518160000160006101000a81548163ffffffff021916908363ffffffff16021790555060208201518160000160046101000a81548163ffffffff021916908363ffffffff16021790555060408201518160000160086101000a81548163ffffffff021916908363ffffffff160217905550606082015181600001600c6101000a81548165ffffffffffff021916908365ffffffffffff16021790555060808201518160000160126101000a81548165ffffffffffff021916908365ffffffffffff16021790555060a08201518160000160186101000a81548160ff02191690836003811115611f0a577f4e487b7100000000000000000000000000000000000000000000000000000000600052602160045260246000fd5b021790555060c08201518160000160196101000a81548160ff02191690831515021790555060e08201518160010155610100820151816002019080519060200190611f56929190612b0f565b509050505050505050565b6000600160008373ffffffffffffffffffffffffffffffffffffffff1673ffffffffffffffffffffffffffffffffffffffff168152602001908152602001600020549050919050565b60606000611fb88484612416565b90506000604051806020016040528060008152509050600260008673ffffffffffffffffffffffffffffffffffffffff1673ffffffffffffffffffffffffffffffffffffffff168152602001908152602001600020600083815260200190815260200160002060000160199054906101000a900460ff166121595761203c84612889565b60405160200161204c9190613a68565b6040516020818303038152906040529050600380811115612096577f4e487b7100000000000000000000000000000000000000000000000000000000600052602160045260246000fd5b600260008773ffffffffffffffffffffffffffffffffffffffff1673ffffffffffffffffffffffffffffffffffffffff168152602001908152602001600020600084815260200190815260200160002060000160189054906101000a900460ff16600381111561212f577f4e487b7100000000000000000000000000000000000000000000000000000000600052602160045260246000fd5b141561215857806040516020016121469190613a46565b60405160208183030381529060405290505b5b60006040518060200160405280600081525090506003808111156121a6577f4e487b7100000000000000000000000000000000000000000000000000000000600052602160045260246000fd5b600260008873ffffffffffffffffffffffffffffffffffffffff1673ffffffffffffffffffffffffffffffffffffffff168152602001908152602001600020600085815260200190815260200160002060000160189054906101000a900460ff16600381111561223f577f4e487b7100000000000000000000000000000000000000000000000000000000600052602160045260246000fd5b1415612282576040518060400160405280600781526020017f697066733a2f2f000000000000000000000000000000000000000000000000008152509050612395565b600260038111156122bc577f4e487b7100000000000000000000000000000000000000000000000000000000600052602160045260246000fd5b600260008873ffffffffffffffffffffffffffffffffffffffff1673ffffffffffffffffffffffffffffffffffffffff168152602001908152602001600020600085815260200190815260200160002060000160189054906101000a900460ff166003811115612355577f4e487b7100000000000000000000000000000000000000000000000000000000600052602160045260246000fd5b1415612394576040518060400160405280601481526020017f68747470733a2f2f617277656176652e6e65742f00000000000000000000000081525090505b5b80600260008873ffffffffffffffffffffffffffffffffffffffff1673ffffffffffffffffffffffffffffffffffffffff1681526020019081526020016000206000858152602001908152602001600020600201836040516020016123fc93929190613a15565b604051602081830303815290604052935050505092915050565b600080600160008573ffffffffffffffffffffffffffffffffffffffff1673ffffffffffffffffffffffffffffffffffffffff1681526020019081526020016000205411612499576040517f08c379a000000000000000000000000000000000000000000000000000000000815260040161249090613c22565b60405180910390fd5b6000600190505b600160008573ffffffffffffffffffffffffffffffffffffffff1673ffffffffffffffffffffffffffffffffffffffff168152602001908152602001600020548111612680576000600460008673ffffffffffffffffffffffffffffffffffffffff1673ffffffffffffffffffffffffffffffffffffffff1681526020019081526020016000206000838152602001908152602001600020805480602002602001604051908101604052809291908181526020016000905b8282101561259e57838290600052602060002090600202016040518060400160405290816000820154815260200160018201548152505081526020019060010190612558565b505050509050600080600090505b825181101561266a5760008382815181106125f0577f4e487b7100000000000000000000000000000000000000000000000000000000600052603260045260246000fd5b60200260200101519050806000015187101561260c575061266a565b8060000151871015801561263257508060200151816000015161262f9190613e47565b87105b156126445784955050505050506126bc565b8060200151836126549190613e47565b92505080806126629061402c565b9150506125ac565b50505080806126789061402c565b9150506124a0565b506040517f08c379a00000000000000000000000000000000000000000000000000000000081526004016126b390613ba2565b60405180910390fd5b92915050565b6000826126cf8584612a36565b1490509392505050565b6000600460008573ffffffffffffffffffffffffffffffffffffffff1673ffffffffffffffffffffffffffffffffffffffff16815260200190815260200160002060008481526020019081526020016000209050600081805490501415612795578060405180604001604052808481526020016001815250908060018154018082558091505060019003906000526020600020906002020160009091909190915060008201518160000155602082015181600101555050612883565b600081600183805490506127a99190613ece565b815481106127e0577f4e487b7100000000000000000000000000000000000000000000000000000000600052603260045260246000fd5b9060005260206000209060020201905082816001015482600001546128059190613e47565b141561282a578060010160008154809291906128209061402c565b9190505550612881565b81604051806040016040528085815260200160018152509080600181540180825580915050600190039060005260206000209060020201600090919091909150600082015181600001556020820151816001015550505b505b50505050565b606060008214156128d1576040518060400160405280600181526020017f30000000000000000000000000000000000000000000000000000000000000008152509050612a31565b600082905060005b600082146129035780806128ec9061402c565b915050600a826128fc9190613e9d565b91506128d9565b60008167ffffffffffffffff811115612945577f4e487b7100000000000000000000000000000000000000000000000000000000600052604160045260246000fd5b6040519080825280601f01601f1916602001820160405280156129775781602001600182028036833780820191505090505b5090505b60008514612a2a576001826129909190613ece565b9150600a8561299f91906140b5565b60306129ab9190613e47565b60f81b8183815181106129e7577f4e487b7100000000000000000000000000000000000000000000000000000000600052603260045260246000fd5b60200101907effffffffffffffffffffffffffffffffffffffffffffffffffffffffffffff1916908160001a905350600a85612a239190613e9d565b945061297b565b8093505050505b919050565b60008082905060005b8451811015612b04576000858281518110612a83577f4e487b7100000000000000000000000000000000000000000000000000000000600052603260045260246000fd5b60200260200101519050808311612ac4578281604051602001612aa79291906139e9565b604051602081830303815290604052805190602001209250612af0565b8083604051602001612ad79291906139e9565b6040516020818303038152906040528051906020012092505b508080612afc9061402c565b915050612a3f565b508091505092915050565b828054612b1b90613ffa565b90600052602060002090601f016020900481019282612b3d5760008555612b84565b82601f10612b5657805160ff1916838001178555612b84565b82800160010185558215612b84579182015b82811115612b83578251825591602001919060010190612b68565b5b509050612b919190612c40565b5090565b604051806101200160405280600063ffffffff168152602001600063ffffffff168152602001600063ffffffff168152602001600065ffffffffffff168152602001600065ffffffffffff16815260200160006003811115612c20577f4e487b7100000000000000000000000000000000000000000000000000000000600052602160045260246000fd5b815260200160001515815260200160008019168152602001606081525090565b5b80821115612c59576000816000905550600101612c41565b5090565b600081359050612c6c816141e1565b92915050565b60008083601f840112612c8457600080fd5b8235905067ffffffffffffffff811115612c9d57600080fd5b602083019150836020820283011115612cb557600080fd5b9250929050565b600081359050612ccb816141f8565b92915050565b600081519050612ce0816141f8565b92915050565b600081359050612cf58161420f565b92915050565b600081359050612d0a81614226565b92915050565b60006101008284031215612d2357600080fd5b81905092915050565b600081359050612d3b81614236565b92915050565b600081519050612d5081614236565b92915050565b600081359050612d658161424d565b92915050565b600081359050612d7a81614264565b92915050565b600060208284031215612d9257600080fd5b6000612da084828501612c5d565b91505092915050565b60008060408385031215612dbc57600080fd5b6000612dca85828601612c5d565b925050602083013567ffffffffffffffff811115612de757600080fd5b612df385828601612d10565b9150509250929050565b60008060408385031215612e1057600080fd5b6000612e1e85828601612c5d565b9250506020612e2f85828601612d2c565b9150509250929050565b600080600060608486031215612e4e57600080fd5b6000612e5c86828701612c5d565b9350506020612e6d86828701612d2c565b9250506040612e7e86828701612c5d565b9150509250925092565b600080600080600060808688031215612ea057600080fd5b6000612eae88828901612c5d565b9550506020612ebf88828901612d2c565b945050604086013567ffffffffffffffff811115612edc57600080fd5b612ee888828901612c72565b93509350506060612efb88828901612d56565b9150509295509295909350565b600080600060608486031215612f1d57600080fd5b6000612f2b86828701612c5d565b9350506020612f3c86828701612d2c565b925050604084013567ffffffffffffffff811115612f5957600080fd5b612f6586828701612d10565b9150509250925092565b600060208284031215612f8157600080fd5b6000612f8f84828501612cbc565b91505092915050565b600060208284031215612faa57600080fd5b6000612fb884828501612cd1565b91505092915050565b600060208284031215612fd357600080fd5b6000612fe184828501612ce6565b91505092915050565b600060208284031215612ffc57600080fd5b600061300a84828501612cfb565b91505092915050565b60006020828403121561302557600080fd5b600061303384828501612d41565b91505092915050565b60006020828403121561304e57600080fd5b600061305c84828501612d56565b91505092915050565b60006020828403121561307757600080fd5b600061308584828501612d6b565b91505092915050565b61309781613f02565b82525050565b6130ae6130a982613f02565b614075565b82525050565b6130bd81613f14565b82525050565b6130cc81613f14565b82525050565b6130db81613f20565b82525050565b6130f26130ed82613f20565b614087565b82525050565b61310181613fb5565b82525050565b600061311282613e0f565b61311c8185613e1a565b935061312c818560208601613fc7565b613135816141a2565b840191505092915050565b600061314b82613e0f565b6131558185613e2b565b9350613165818560208601613fc7565b61316e816141a2565b840191505092915050565b600061318482613e0f565b61318e8185613e3c565b935061319e818560208601613fc7565b80840191505092915050565b600081546131b781613ffa565b6131c18186613e3c565b945060018216600081146131dc57600181146131ed57613220565b60ff19831686528186019350613220565b6131f685613dfa565b60005b83811015613218578154818901526001820191506020810190506131f9565b838801955050505b50505092915050565b6000613236603683613e2b565b91507f43616e6e6f74206861766520737461727444617465206772656174657220746860008301527f616e206f7220657175616c20746f20656e6444617465000000000000000000006020830152604082019050919050565b600061329c602483613e2b565b91507f43616e6e6f74206f766572777269746520756e696e697469616c697a6564206360008301527f6c61696d000000000000000000000000000000000000000000000000000000006020830152604082019050919050565b6000613302601683613e2b565b91507f43616e6e6f74206d6f6469667920746f74616c4d6178000000000000000000006000830152602082019050919050565b6000613342602783613e2b565b91507f43616e6e6f74206861766520746f74616c4d617820677265617465722074686160008301527f6e203130303030000000000000000000000000000000000000000000000000006020830152604082019050919050565b60006133a8602f83613e2b565b91507f43616e6e6f7420696e697469616c697a65207769746820696e76616c6964207360008301527f746f726167652070726f746f636f6c00000000000000000000000000000000006020830152604082019050919050565b600061340e602b83613e2b565b91507f57616c6c6574206973206e6f7420616e2061646d696e6973747261746f72206660008301527f6f7220636f6e74726163740000000000000000000000000000000000000000006020830152604082019050919050565b6000613474600d83613e2b565b91507f496e76616c696420746f6b656e000000000000000000000000000000000000006000830152602082019050919050565b60006134b4602583613e2b565b91507f43616e6e6f7420696e697469616c697a65207769746820656d707479206c6f6360008301527f6174696f6e0000000000000000000000000000000000000000000000000000006020830152604082019050919050565b600061351a601d83613e2b565b91507f5472616e73616374696f6e206265666f726520737461727420646174650000006000830152602082019050919050565b600061355a601583613e2b565b91507f436c61696d206e6f7420696e697469616c697a656400000000000000000000006000830152602082019050919050565b600061359a601e83613e2b565b91507f4e6f20636c61696d7320666f722063726561746f7220636f6e747261637400006000830152602082019050919050565b60006135da600583613e3c565b91507f2e6a736f6e0000000000000000000000000000000000000000000000000000006000830152600582019050919050565b600061361a601983613e2b565b91507f43616e6e6f742064656372656173652077616c6c65744d6178000000000000006000830152602082019050919050565b600061365a602c83613e2b565b91507f4d6178696d756d20746f6b656e7320616c7265616479206d696e74656420666f60008301527f72207468697320636c61696d00000000000000000000000000000000000000006020830152604082019050919050565b60006136c0601d83613e2b565b91507f436f756c64206e6f7420766572696679206d65726b6c652070726f6f660000006000830152602082019050919050565b6000613700602d83613e2b565b91507f4d6178696d756d20746f6b656e7320616c7265616479206d696e74656420666f60008301527f7220746869732077616c6c6574000000000000000000000000000000000000006020830152604082019050919050565b6000613766602383613e2b565b91507f43616e6e6f742073657420696e76616c69642073746f726167652070726f746f60008301527f636f6c00000000000000000000000000000000000000000000000000000000006020830152604082019050919050565b60006137cc601a83613e2b565b91507f5472616e73616374696f6e20616674657220656e6420646174650000000000006000830152602082019050919050565b600061380c603c83613e2b565b91507f4d6178696d756d20746f6b656e7320616c7265616479206d696e74656420666f60008301527f7220746869732077616c6c65742070657220616c6c6f636174696f6e000000006020830152604082019050919050565b6000613872600183613e3c565b91507f2f000000000000000000000000000000000000000000000000000000000000006000830152600182019050919050565b6000610120830160008301516138be6000860182613979565b5060208301516138d16020860182613979565b5060408301516138e46040860182613979565b5060608301516138f760608601826139ae565b50608083015161390a60808601826139ae565b5060a083015161391d60a08601826130f8565b5060c083015161393060c08601826130b4565b5060e083015161394360e08601826130d2565b5061010083015184820361010086015261395d8282613107565b9150508091505092915050565b61397381613f89565b82525050565b61398281613f93565b82525050565b61399181613f93565b82525050565b6139a86139a382613f93565b6140a3565b82525050565b6139b781613fa3565b82525050565b60006139c9828561309d565b6014820191506139d98284613997565b6004820191508190509392505050565b60006139f582856130e1565b602082019150613a0582846130e1565b6020820191508190509392505050565b6000613a218286613179565b9150613a2d82856131aa565b9150613a398284613179565b9150819050949350505050565b6000613a528284613179565b9150613a5d826135cd565b915081905092915050565b6000613a7382613865565b9150613a7f8284613179565b915081905092915050565b6000602082019050613a9f600083018461308e565b92915050565b6000602082019050613aba60008301846130c3565b92915050565b60006020820190508181036000830152613ada8184613140565b905092915050565b60006020820190508181036000830152613afb81613229565b9050919050565b60006020820190508181036000830152613b1b8161328f565b9050919050565b60006020820190508181036000830152613b3b816132f5565b9050919050565b60006020820190508181036000830152613b5b81613335565b9050919050565b60006020820190508181036000830152613b7b8161339b565b9050919050565b60006020820190508181036000830152613b9b81613401565b9050919050565b60006020820190508181036000830152613bbb81613467565b9050919050565b60006020820190508181036000830152613bdb816134a7565b9050919050565b60006020820190508181036000830152613bfb8161350d565b9050919050565b60006020820190508181036000830152613c1b8161354d565b9050919050565b60006020820190508181036000830152613c3b8161358d565b9050919050565b60006020820190508181036000830152613c5b8161360d565b9050919050565b60006020820190508181036000830152613c7b8161364d565b9050919050565b60006020820190508181036000830152613c9b816136b3565b9050919050565b60006020820190508181036000830152613cbb816136f3565b9050919050565b60006020820190508181036000830152613cdb81613759565b9050919050565b60006020820190508181036000830152613cfb816137bf565b9050919050565b60006020820190508181036000830152613d1b816137ff565b9050919050565b60006020820190508181036000830152613d3c81846138a5565b905092915050565b6000602082019050613d59600083018461396a565b92915050565b6000604082019050613d74600083018561396a565b613d81602083018461308e565b9392505050565b6000602082019050613d9d6000830184613988565b92915050565b60008083356001602003843603038112613dbc57600080fd5b80840192508235915067ffffffffffffffff821115613dda57600080fd5b602083019250600182023603831315613df257600080fd5b509250929050565b60008190508160005260206000209050919050565b600081519050919050565b600082825260208201905092915050565b600082825260208201905092915050565b600081905092915050565b6000613e5282613f89565b9150613e5d83613f89565b9250827fffffffffffffffffffffffffffffffffffffffffffffffffffffffffffffffff03821115613e9257613e916140e6565b5b828201905092915050565b6000613ea882613f89565b9150613eb383613f89565b925082613ec357613ec2614115565b5b828204905092915050565b6000613ed982613f89565b9150613ee483613f89565b925082821015613ef757613ef66140e6565b5b828203905092915050565b6000613f0d82613f69565b9050919050565b60008115159050919050565b6000819050919050565b60007fffffffff0000000000000000000000000000000000000000000000000000000082169050919050565b6000819050613f64826141cd565b919050565b600073ffffffffffffffffffffffffffffffffffffffff82169050919050565b6000819050919050565b600063ffffffff82169050919050565b600065ffffffffffff82169050919050565b6000613fc082613f56565b9050919050565b60005b83811015613fe5578082015181840152602081019050613fca565b83811115613ff4576000848401525b50505050565b6000600282049050600182168061401257607f821691505b6020821081141561402657614025614173565b5b50919050565b600061403782613f89565b91507fffffffffffffffffffffffffffffffffffffffffffffffffffffffffffffffff82141561406a576140696140e6565b5b600182019050919050565b600061408082614091565b9050919050565b6000819050919050565b600061409c826141c0565b9050919050565b60006140ae826141b3565b9050919050565b60006140c082613f89565b91506140cb83613f89565b9250826140db576140da614115565b5b828206905092915050565b7f4e487b7100000000000000000000000000000000000000000000000000000000600052601160045260246000fd5b7f4e487b7100000000000000000000000000000000000000000000000000000000600052601260045260246000fd5b7f4e487b7100000000000000000000000000000000000000000000000000000000600052602160045260246000fd5b7f4e487b7100000000000000000000000000000000000000000000000000000000600052602260045260246000fd5b6000601f19601f8301169050919050565b60008160e01b9050919050565b60008160601b9050919050565b600481106141de576141dd614144565b5b50565b6141ea81613f02565b81146141f557600080fd5b50565b61420181613f14565b811461420c57600080fd5b50565b61421881613f2a565b811461422357600080fd5b50565b6004811061423357600080fd5b50565b61423f81613f89565b811461424a57600080fd5b50565b61425681613f93565b811461426157600080fd5b50565b61426d81613fa3565b811461427857600080fd5b5056fea26469706673582212206debf2feab381d9008ed08140d9844ab3066141ce3273afe4be6aecc6d4c292d64736f6c63430008000033",
					"opcodes": "PUSH1 0x80 PUSH1 0x40 MSTORE CALLVALUE DUP1 ISZERO PUSH2 0x10 JUMPI PUSH1 0x0 DUP1 REVERT JUMPDEST POP PUSH1 0x1 PUSH1 0x0 DUP2 SWAP1 SSTORE POP PUSH2 0x42B1 DUP1 PUSH2 0x28 PUSH1 0x0 CODECOPY PUSH1 0x0 RETURN INVALID PUSH1 0x80 PUSH1 0x40 MSTORE CALLVALUE DUP1 ISZERO PUSH2 0x10 JUMPI PUSH1 0x0 DUP1 REVERT JUMPDEST POP PUSH1 0x4 CALLDATASIZE LT PUSH2 0x93 JUMPI PUSH1 0x0 CALLDATALOAD PUSH1 0xE0 SHR DUP1 PUSH4 0xF79AB39 GT PUSH2 0x66 JUMPI DUP1 PUSH4 0xF79AB39 EQ PUSH2 0x158 JUMPI DUP1 PUSH4 0x8566AE5D EQ PUSH2 0x188 JUMPI DUP1 PUSH4 0xCC351138 EQ PUSH2 0x1B8 JUMPI DUP1 PUSH4 0xD5FDFE87 EQ PUSH2 0x1D4 JUMPI DUP1 PUSH4 0xE9DC6375 EQ PUSH2 0x204 JUMPI PUSH2 0x93 JUMP JUMPDEST DUP1 PUSH4 0x1FFC9A7 EQ PUSH2 0x98 JUMPI DUP1 PUSH4 0x2349713 EQ PUSH2 0xC8 JUMPI DUP1 PUSH4 0x37B79DB EQ PUSH2 0xF8 JUMPI DUP1 PUSH4 0xC134959 EQ PUSH2 0x128 JUMPI JUMPDEST PUSH1 0x0 DUP1 REVERT JUMPDEST PUSH2 0xB2 PUSH1 0x4 DUP1 CALLDATASIZE SUB DUP2 ADD SWAP1 PUSH2 0xAD SWAP2 SWAP1 PUSH2 0x2FC1 JUMP JUMPDEST PUSH2 0x234 JUMP JUMPDEST PUSH1 0x40 MLOAD PUSH2 0xBF SWAP2 SWAP1 PUSH2 0x3AA5 JUMP JUMPDEST PUSH1 0x40 MLOAD DUP1 SWAP2 SUB SWAP1 RETURN JUMPDEST PUSH2 0xE2 PUSH1 0x4 DUP1 CALLDATASIZE SUB DUP2 ADD SWAP1 PUSH2 0xDD SWAP2 SWAP1 PUSH2 0x2DFD JUMP JUMPDEST PUSH2 0x36E JUMP JUMPDEST PUSH1 0x40 MLOAD PUSH2 0xEF SWAP2 SWAP1 PUSH2 0x3D44 JUMP JUMPDEST PUSH1 0x40 MLOAD DUP1 SWAP2 SUB SWAP1 RETURN JUMPDEST PUSH2 0x112 PUSH1 0x4 DUP1 CALLDATASIZE SUB DUP2 ADD SWAP1 PUSH2 0x10D SWAP2 SWAP1 PUSH2 0x2DA9 JUMP JUMPDEST PUSH2 0x382 JUMP JUMPDEST PUSH1 0x40 MLOAD PUSH2 0x11F SWAP2 SWAP1 PUSH2 0x3D44 JUMP JUMPDEST PUSH1 0x40 MLOAD DUP1 SWAP2 SUB SWAP1 RETURN JUMPDEST PUSH2 0x142 PUSH1 0x4 DUP1 CALLDATASIZE SUB DUP2 ADD SWAP1 PUSH2 0x13D SWAP2 SWAP1 PUSH2 0x2E88 JUMP JUMPDEST PUSH2 0xA73 JUMP JUMPDEST PUSH1 0x40 MLOAD PUSH2 0x14F SWAP2 SWAP1 PUSH2 0x3D44 JUMP JUMPDEST PUSH1 0x40 MLOAD DUP1 SWAP2 SUB SWAP1 RETURN JUMPDEST PUSH2 0x172 PUSH1 0x4 DUP1 CALLDATASIZE SUB DUP2 ADD SWAP1 PUSH2 0x16D SWAP2 SWAP1 PUSH2 0x2DFD JUMP JUMPDEST PUSH2 0x1332 JUMP JUMPDEST PUSH1 0x40 MLOAD PUSH2 0x17F SWAP2 SWAP1 PUSH2 0x3D22 JUMP JUMPDEST PUSH1 0x40 MLOAD DUP1 SWAP2 SUB SWAP1 RETURN JUMPDEST PUSH2 0x1A2 PUSH1 0x4 DUP1 CALLDATASIZE SUB DUP2 ADD SWAP1 PUSH2 0x19D SWAP2 SWAP1 PUSH2 0x2E39 JUMP JUMPDEST PUSH2 0x1649 JUMP JUMPDEST PUSH1 0x40 MLOAD PUSH2 0x1AF SWAP2 SWAP1 PUSH2 0x3D88 JUMP JUMPDEST PUSH1 0x40 MLOAD DUP1 SWAP2 SUB SWAP1 RETURN JUMPDEST PUSH2 0x1D2 PUSH1 0x4 DUP1 CALLDATASIZE SUB DUP2 ADD SWAP1 PUSH2 0x1CD SWAP2 SWAP1 PUSH2 0x2F08 JUMP JUMPDEST PUSH2 0x1784 JUMP JUMPDEST STOP JUMPDEST PUSH2 0x1EE PUSH1 0x4 DUP1 CALLDATASIZE SUB DUP2 ADD SWAP1 PUSH2 0x1E9 SWAP2 SWAP1 PUSH2 0x2D80 JUMP JUMPDEST PUSH2 0x1F61 JUMP JUMPDEST PUSH1 0x40 MLOAD PUSH2 0x1FB SWAP2 SWAP1 PUSH2 0x3D44 JUMP JUMPDEST PUSH1 0x40 MLOAD DUP1 SWAP2 SUB SWAP1 RETURN JUMPDEST PUSH2 0x21E PUSH1 0x4 DUP1 CALLDATASIZE SUB DUP2 ADD SWAP1 PUSH2 0x219 SWAP2 SWAP1 PUSH2 0x2DFD JUMP JUMPDEST PUSH2 0x1FAA JUMP JUMPDEST PUSH1 0x40 MLOAD PUSH2 0x22B SWAP2 SWAP1 PUSH2 0x3AC0 JUMP JUMPDEST PUSH1 0x40 MLOAD DUP1 SWAP2 SUB SWAP1 RETURN JUMPDEST PUSH1 0x0 PUSH32 0x9E8B4D4A00000000000000000000000000000000000000000000000000000000 PUSH28 0xFFFFFFFFFFFFFFFFFFFFFFFFFFFFFFFFFFFFFFFFFFFFFFFFFFFFFFFF NOT AND DUP3 PUSH28 0xFFFFFFFFFFFFFFFFFFFFFFFFFFFFFFFFFFFFFFFFFFFFFFFFFFFFFFFF NOT AND EQ DUP1 PUSH2 0x2FF JUMPI POP PUSH32 0xE9DC637500000000000000000000000000000000000000000000000000000000 PUSH28 0xFFFFFFFFFFFFFFFFFFFFFFFFFFFFFFFFFFFFFFFFFFFFFFFFFFFFFFFF NOT AND DUP3 PUSH28 0xFFFFFFFFFFFFFFFFFFFFFFFFFFFFFFFFFFFFFFFFFFFFFFFFFFFFFFFF NOT AND EQ JUMPDEST DUP1 PUSH2 0x367 JUMPI POP PUSH32 0x1FFC9A700000000000000000000000000000000000000000000000000000000 PUSH28 0xFFFFFFFFFFFFFFFFFFFFFFFFFFFFFFFFFFFFFFFFFFFFFFFFFFFFFFFF NOT AND DUP3 PUSH28 0xFFFFFFFFFFFFFFFFFFFFFFFFFFFFFFFFFFFFFFFFFFFFFFFFFFFFFFFF NOT AND EQ JUMPDEST SWAP1 POP SWAP2 SWAP1 POP JUMP JUMPDEST PUSH1 0x0 PUSH2 0x37A DUP4 DUP4 PUSH2 0x2416 JUMP JUMPDEST SWAP1 POP SWAP3 SWAP2 POP POP JUMP JUMPDEST PUSH1 0x0 DUP3 PUSH1 0x0 DUP2 SWAP1 POP DUP1 PUSH20 0xFFFFFFFFFFFFFFFFFFFFFFFFFFFFFFFFFFFFFFFF AND PUSH4 0x24D7806C CALLER PUSH1 0x40 MLOAD DUP3 PUSH4 0xFFFFFFFF AND PUSH1 0xE0 SHL DUP2 MSTORE PUSH1 0x4 ADD PUSH2 0x3C3 SWAP2 SWAP1 PUSH2 0x3A8A JUMP JUMPDEST PUSH1 0x20 PUSH1 0x40 MLOAD DUP1 DUP4 SUB DUP2 DUP7 DUP1 EXTCODESIZE ISZERO DUP1 ISZERO PUSH2 0x3DB JUMPI PUSH1 0x0 DUP1 REVERT JUMPDEST POP GAS STATICCALL ISZERO DUP1 ISZERO PUSH2 0x3EF JUMPI RETURNDATASIZE PUSH1 0x0 DUP1 RETURNDATACOPY RETURNDATASIZE PUSH1 0x0 REVERT JUMPDEST POP POP POP POP PUSH1 0x40 MLOAD RETURNDATASIZE PUSH1 0x1F NOT PUSH1 0x1F DUP3 ADD AND DUP3 ADD DUP1 PUSH1 0x40 MSTORE POP DUP2 ADD SWAP1 PUSH2 0x413 SWAP2 SWAP1 PUSH2 0x2F98 JUMP JUMPDEST PUSH2 0x452 JUMPI PUSH1 0x40 MLOAD PUSH32 0x8C379A000000000000000000000000000000000000000000000000000000000 DUP2 MSTORE PUSH1 0x4 ADD PUSH2 0x449 SWAP1 PUSH2 0x3B82 JUMP JUMPDEST PUSH1 0x40 MLOAD DUP1 SWAP2 SUB SWAP1 REVERT JUMPDEST PUSH1 0x0 DUP5 DUP1 PUSH1 0xE0 ADD SWAP1 PUSH2 0x464 SWAP2 SWAP1 PUSH2 0x3DA3 JUMP JUMPDEST SWAP1 POP EQ ISZERO PUSH2 0x4A7 JUMPI PUSH1 0x40 MLOAD PUSH32 0x8C379A000000000000000000000000000000000000000000000000000000000 DUP2 MSTORE PUSH1 0x4 ADD PUSH2 0x49E SWAP1 PUSH2 0x3BC2 JUMP JUMPDEST PUSH1 0x40 MLOAD DUP1 SWAP2 SUB SWAP1 REVERT JUMPDEST PUSH1 0x0 PUSH1 0x3 DUP2 GT ISZERO PUSH2 0x4E1 JUMPI PUSH32 0x4E487B7100000000000000000000000000000000000000000000000000000000 PUSH1 0x0 MSTORE PUSH1 0x21 PUSH1 0x4 MSTORE PUSH1 0x24 PUSH1 0x0 REVERT JUMPDEST DUP5 PUSH1 0x80 ADD PUSH1 0x20 DUP2 ADD SWAP1 PUSH2 0x4F4 SWAP2 SWAP1 PUSH2 0x2FEA JUMP JUMPDEST PUSH1 0x3 DUP2 GT ISZERO PUSH2 0x52C JUMPI PUSH32 0x4E487B7100000000000000000000000000000000000000000000000000000000 PUSH1 0x0 MSTORE PUSH1 0x21 PUSH1 0x4 MSTORE PUSH1 0x24 PUSH1 0x0 REVERT JUMPDEST EQ ISZERO PUSH2 0x56D JUMPI PUSH1 0x40 MLOAD PUSH32 0x8C379A000000000000000000000000000000000000000000000000000000000 DUP2 MSTORE PUSH1 0x4 ADD PUSH2 0x564 SWAP1 PUSH2 0x3B62 JUMP JUMPDEST PUSH1 0x40 MLOAD DUP1 SWAP2 SUB SWAP1 REVERT JUMPDEST PUSH1 0x0 DUP5 PUSH1 0x60 ADD PUSH1 0x20 DUP2 ADD SWAP1 PUSH2 0x582 SWAP2 SWAP1 PUSH2 0x3065 JUMP JUMPDEST PUSH6 0xFFFFFFFFFFFF AND EQ DUP1 PUSH2 0x5C9 JUMPI POP DUP4 PUSH1 0x60 ADD PUSH1 0x20 DUP2 ADD SWAP1 PUSH2 0x5A4 SWAP2 SWAP1 PUSH2 0x3065 JUMP JUMPDEST PUSH6 0xFFFFFFFFFFFF AND DUP5 PUSH1 0x40 ADD PUSH1 0x20 DUP2 ADD SWAP1 PUSH2 0x5BF SWAP2 SWAP1 PUSH2 0x3065 JUMP JUMPDEST PUSH6 0xFFFFFFFFFFFF AND LT JUMPDEST PUSH2 0x608 JUMPI PUSH1 0x40 MLOAD PUSH32 0x8C379A000000000000000000000000000000000000000000000000000000000 DUP2 MSTORE PUSH1 0x4 ADD PUSH2 0x5FF SWAP1 PUSH2 0x3AE2 JUMP JUMPDEST PUSH1 0x40 MLOAD DUP1 SWAP2 SUB SWAP1 REVERT JUMPDEST PUSH2 0x2710 DUP5 PUSH1 0x0 ADD PUSH1 0x20 DUP2 ADD SWAP1 PUSH2 0x61E SWAP2 SWAP1 PUSH2 0x303C JUMP JUMPDEST PUSH4 0xFFFFFFFF AND LT PUSH2 0x664 JUMPI PUSH1 0x40 MLOAD PUSH32 0x8C379A000000000000000000000000000000000000000000000000000000000 DUP2 MSTORE PUSH1 0x4 ADD PUSH2 0x65B SWAP1 PUSH2 0x3B42 JUMP JUMPDEST PUSH1 0x40 MLOAD DUP1 SWAP2 SUB SWAP1 REVERT JUMPDEST PUSH1 0x1 PUSH1 0x0 DUP7 PUSH20 0xFFFFFFFFFFFFFFFFFFFFFFFFFFFFFFFFFFFFFFFF AND PUSH20 0xFFFFFFFFFFFFFFFFFFFFFFFFFFFFFFFFFFFFFFFF AND DUP2 MSTORE PUSH1 0x20 ADD SWAP1 DUP2 MSTORE PUSH1 0x20 ADD PUSH1 0x0 KECCAK256 PUSH1 0x0 DUP2 SLOAD DUP1 SWAP3 SWAP2 SWAP1 PUSH2 0x6B4 SWAP1 PUSH2 0x402C JUMP JUMPDEST SWAP2 SWAP1 POP SSTORE POP PUSH1 0x0 PUSH1 0x1 PUSH1 0x0 DUP8 PUSH20 0xFFFFFFFFFFFFFFFFFFFFFFFFFFFFFFFFFFFFFFFF AND PUSH20 0xFFFFFFFFFFFFFFFFFFFFFFFFFFFFFFFFFFFFFFFF AND DUP2 MSTORE PUSH1 0x20 ADD SWAP1 DUP2 MSTORE PUSH1 0x20 ADD PUSH1 0x0 KECCAK256 SLOAD SWAP1 POP PUSH1 0x40 MLOAD DUP1 PUSH2 0x120 ADD PUSH1 0x40 MSTORE DUP1 PUSH1 0x0 PUSH4 0xFFFFFFFF AND DUP2 MSTORE PUSH1 0x20 ADD DUP7 PUSH1 0x0 ADD PUSH1 0x20 DUP2 ADD SWAP1 PUSH2 0x729 SWAP2 SWAP1 PUSH2 0x303C JUMP JUMPDEST PUSH4 0xFFFFFFFF AND DUP2 MSTORE PUSH1 0x20 ADD DUP7 PUSH1 0x20 ADD PUSH1 0x20 DUP2 ADD SWAP1 PUSH2 0x747 SWAP2 SWAP1 PUSH2 0x303C JUMP JUMPDEST PUSH4 0xFFFFFFFF AND DUP2 MSTORE PUSH1 0x20 ADD DUP7 PUSH1 0x40 ADD PUSH1 0x20 DUP2 ADD SWAP1 PUSH2 0x765 SWAP2 SWAP1 PUSH2 0x3065 JUMP JUMPDEST PUSH6 0xFFFFFFFFFFFF AND DUP2 MSTORE PUSH1 0x20 ADD DUP7 PUSH1 0x60 ADD PUSH1 0x20 DUP2 ADD SWAP1 PUSH2 0x785 SWAP2 SWAP1 PUSH2 0x3065 JUMP JUMPDEST PUSH6 0xFFFFFFFFFFFF AND DUP2 MSTORE PUSH1 0x20 ADD DUP7 PUSH1 0x80 ADD PUSH1 0x20 DUP2 ADD SWAP1 PUSH2 0x7A5 SWAP2 SWAP1 PUSH2 0x2FEA JUMP JUMPDEST PUSH1 0x3 DUP2 GT ISZERO PUSH2 0x7DD JUMPI PUSH32 0x4E487B7100000000000000000000000000000000000000000000000000000000 PUSH1 0x0 MSTORE PUSH1 0x21 PUSH1 0x4 MSTORE PUSH1 0x24 PUSH1 0x0 REVERT JUMPDEST DUP2 MSTORE PUSH1 0x20 ADD DUP7 PUSH1 0xA0 ADD PUSH1 0x20 DUP2 ADD SWAP1 PUSH2 0x7F5 SWAP2 SWAP1 PUSH2 0x2F6F JUMP JUMPDEST ISZERO ISZERO DUP2 MSTORE PUSH1 0x20 ADD DUP7 PUSH1 0xC0 ADD CALLDATALOAD DUP2 MSTORE PUSH1 0x20 ADD DUP7 DUP1 PUSH1 0xE0 ADD SWAP1 PUSH2 0x816 SWAP2 SWAP1 PUSH2 0x3DA3 JUMP JUMPDEST DUP1 DUP1 PUSH1 0x1F ADD PUSH1 0x20 DUP1 SWAP2 DIV MUL PUSH1 0x20 ADD PUSH1 0x40 MLOAD SWAP1 DUP2 ADD PUSH1 0x40 MSTORE DUP1 SWAP4 SWAP3 SWAP2 SWAP1 DUP2 DUP2 MSTORE PUSH1 0x20 ADD DUP4 DUP4 DUP1 DUP3 DUP5 CALLDATACOPY PUSH1 0x0 DUP2 DUP5 ADD MSTORE PUSH1 0x1F NOT PUSH1 0x1F DUP3 ADD AND SWAP1 POP DUP1 DUP4 ADD SWAP3 POP POP POP POP POP POP POP DUP2 MSTORE POP PUSH1 0x2 PUSH1 0x0 DUP9 PUSH20 0xFFFFFFFFFFFFFFFFFFFFFFFFFFFFFFFFFFFFFFFF AND PUSH20 0xFFFFFFFFFFFFFFFFFFFFFFFFFFFFFFFFFFFFFFFF AND DUP2 MSTORE PUSH1 0x20 ADD SWAP1 DUP2 MSTORE PUSH1 0x20 ADD PUSH1 0x0 KECCAK256 PUSH1 0x0 DUP4 DUP2 MSTORE PUSH1 0x20 ADD SWAP1 DUP2 MSTORE PUSH1 0x20 ADD PUSH1 0x0 KECCAK256 PUSH1 0x0 DUP3 ADD MLOAD DUP2 PUSH1 0x0 ADD PUSH1 0x0 PUSH2 0x100 EXP DUP2 SLOAD DUP2 PUSH4 0xFFFFFFFF MUL NOT AND SWAP1 DUP4 PUSH4 0xFFFFFFFF AND MUL OR SWAP1 SSTORE POP PUSH1 0x20 DUP3 ADD MLOAD DUP2 PUSH1 0x0 ADD PUSH1 0x4 PUSH2 0x100 EXP DUP2 SLOAD DUP2 PUSH4 0xFFFFFFFF MUL NOT AND SWAP1 DUP4 PUSH4 0xFFFFFFFF AND MUL OR SWAP1 SSTORE POP PUSH1 0x40 DUP3 ADD MLOAD DUP2 PUSH1 0x0 ADD PUSH1 0x8 PUSH2 0x100 EXP DUP2 SLOAD DUP2 PUSH4 0xFFFFFFFF MUL NOT AND SWAP1 DUP4 PUSH4 0xFFFFFFFF AND MUL OR SWAP1 SSTORE POP PUSH1 0x60 DUP3 ADD MLOAD DUP2 PUSH1 0x0 ADD PUSH1 0xC PUSH2 0x100 EXP DUP2 SLOAD DUP2 PUSH6 0xFFFFFFFFFFFF MUL NOT AND SWAP1 DUP4 PUSH6 0xFFFFFFFFFFFF AND MUL OR SWAP1 SSTORE POP PUSH1 0x80 DUP3 ADD MLOAD DUP2 PUSH1 0x0 ADD PUSH1 0x12 PUSH2 0x100 EXP DUP2 SLOAD DUP2 PUSH6 0xFFFFFFFFFFFF MUL NOT AND SWAP1 DUP4 PUSH6 0xFFFFFFFFFFFF AND MUL OR SWAP1 SSTORE POP PUSH1 0xA0 DUP3 ADD MLOAD DUP2 PUSH1 0x0 ADD PUSH1 0x18 PUSH2 0x100 EXP DUP2 SLOAD DUP2 PUSH1 0xFF MUL NOT AND SWAP1 DUP4 PUSH1 0x3 DUP2 GT ISZERO PUSH2 0x9C8 JUMPI PUSH32 0x4E487B7100000000000000000000000000000000000000000000000000000000 PUSH1 0x0 MSTORE PUSH1 0x21 PUSH1 0x4 MSTORE PUSH1 0x24 PUSH1 0x0 REVERT JUMPDEST MUL OR SWAP1 SSTORE POP PUSH1 0xC0 DUP3 ADD MLOAD DUP2 PUSH1 0x0 ADD PUSH1 0x19 PUSH2 0x100 EXP DUP2 SLOAD DUP2 PUSH1 0xFF MUL NOT AND SWAP1 DUP4 ISZERO ISZERO MUL OR SWAP1 SSTORE POP PUSH1 0xE0 DUP3 ADD MLOAD DUP2 PUSH1 0x1 ADD SSTORE PUSH2 0x100 DUP3 ADD MLOAD DUP2 PUSH1 0x2 ADD SWAP1 DUP1 MLOAD SWAP1 PUSH1 0x20 ADD SWAP1 PUSH2 0xA14 SWAP3 SWAP2 SWAP1 PUSH2 0x2B0F JUMP JUMPDEST POP SWAP1 POP POP DUP1 DUP7 PUSH20 0xFFFFFFFFFFFFFFFFFFFFFFFFFFFFFFFFFFFFFFFF AND PUSH32 0xD02727DA4C6C6C111E00310108209A4DE39F6817414DF43CA1A10730D47C6A34 CALLER PUSH1 0x40 MLOAD PUSH2 0xA5F SWAP2 SWAP1 PUSH2 0x3A8A JUMP JUMPDEST PUSH1 0x40 MLOAD DUP1 SWAP2 SUB SWAP1 LOG3 DUP1 SWAP4 POP POP POP POP SWAP3 SWAP2 POP POP JUMP JUMPDEST PUSH1 0x0 DUP1 PUSH1 0x2 PUSH1 0x0 DUP9 PUSH20 0xFFFFFFFFFFFFFFFFFFFFFFFFFFFFFFFFFFFFFFFF AND PUSH20 0xFFFFFFFFFFFFFFFFFFFFFFFFFFFFFFFFFFFFFFFF AND DUP2 MSTORE PUSH1 0x20 ADD SWAP1 DUP2 MSTORE PUSH1 0x20 ADD PUSH1 0x0 KECCAK256 PUSH1 0x0 DUP8 DUP2 MSTORE PUSH1 0x20 ADD SWAP1 DUP2 MSTORE PUSH1 0x20 ADD PUSH1 0x0 KECCAK256 SWAP1 POP PUSH1 0x0 PUSH1 0x3 DUP2 GT ISZERO PUSH2 0xB02 JUMPI PUSH32 0x4E487B7100000000000000000000000000000000000000000000000000000000 PUSH1 0x0 MSTORE PUSH1 0x21 PUSH1 0x4 MSTORE PUSH1 0x24 PUSH1 0x0 REVERT JUMPDEST DUP2 PUSH1 0x0 ADD PUSH1 0x18 SWAP1 SLOAD SWAP1 PUSH2 0x100 EXP SWAP1 DIV PUSH1 0xFF AND PUSH1 0x3 DUP2 GT ISZERO PUSH2 0xB4C JUMPI PUSH32 0x4E487B7100000000000000000000000000000000000000000000000000000000 PUSH1 0x0 MSTORE PUSH1 0x21 PUSH1 0x4 MSTORE PUSH1 0x24 PUSH1 0x0 REVERT JUMPDEST EQ ISZERO PUSH2 0xB8D JUMPI PUSH1 0x40 MLOAD PUSH32 0x8C379A000000000000000000000000000000000000000000000000000000000 DUP2 MSTORE PUSH1 0x4 ADD PUSH2 0xB84 SWAP1 PUSH2 0x3C02 JUMP JUMPDEST PUSH1 0x40 MLOAD DUP1 SWAP2 SUB SWAP1 REVERT JUMPDEST PUSH1 0x0 DUP2 PUSH1 0x0 ADD PUSH1 0xC SWAP1 SLOAD SWAP1 PUSH2 0x100 EXP SWAP1 DIV PUSH6 0xFFFFFFFFFFFF AND PUSH6 0xFFFFFFFFFFFF AND EQ DUP1 PUSH2 0xBD7 JUMPI POP TIMESTAMP DUP2 PUSH1 0x0 ADD PUSH1 0xC SWAP1 SLOAD SWAP1 PUSH2 0x100 EXP SWAP1 DIV PUSH6 0xFFFFFFFFFFFF AND PUSH6 0xFFFFFFFFFFFF AND LT JUMPDEST PUSH2 0xC16 JUMPI PUSH1 0x40 MLOAD PUSH32 0x8C379A000000000000000000000000000000000000000000000000000000000 DUP2 MSTORE PUSH1 0x4 ADD PUSH2 0xC0D SWAP1 PUSH2 0x3BE2 JUMP JUMPDEST PUSH1 0x40 MLOAD DUP1 SWAP2 SUB SWAP1 REVERT JUMPDEST PUSH1 0x0 DUP2 PUSH1 0x0 ADD PUSH1 0x12 SWAP1 SLOAD SWAP1 PUSH2 0x100 EXP SWAP1 DIV PUSH6 0xFFFFFFFFFFFF AND PUSH6 0xFFFFFFFFFFFF AND EQ DUP1 PUSH2 0xC61 JUMPI POP TIMESTAMP DUP2 PUSH1 0x0 ADD PUSH1 0x12 SWAP1 SLOAD SWAP1 PUSH2 0x100 EXP SWAP1 DIV PUSH6 0xFFFFFFFFFFFF AND PUSH6 0xFFFFFFFFFFFF AND LT ISZERO JUMPDEST PUSH2 0xCA0 JUMPI PUSH1 0x40 MLOAD PUSH32 0x8C379A000000000000000000000000000000000000000000000000000000000 DUP2 MSTORE PUSH1 0x4 ADD PUSH2 0xC97 SWAP1 PUSH2 0x3CE2 JUMP JUMPDEST PUSH1 0x40 MLOAD DUP1 SWAP2 SUB SWAP1 REVERT JUMPDEST PUSH1 0x0 DUP2 PUSH1 0x0 ADD PUSH1 0x4 SWAP1 SLOAD SWAP1 PUSH2 0x100 EXP SWAP1 DIV PUSH4 0xFFFFFFFF AND PUSH4 0xFFFFFFFF AND EQ DUP1 PUSH2 0xCFC JUMPI POP DUP1 PUSH1 0x0 ADD PUSH1 0x4 SWAP1 SLOAD SWAP1 PUSH2 0x100 EXP SWAP1 DIV PUSH4 0xFFFFFFFF AND PUSH4 0xFFFFFFFF AND DUP2 PUSH1 0x0 ADD PUSH1 0x0 SWAP1 SLOAD SWAP1 PUSH2 0x100 EXP SWAP1 DIV PUSH4 0xFFFFFFFF AND PUSH4 0xFFFFFFFF AND LT JUMPDEST PUSH2 0xD3B JUMPI PUSH1 0x40 MLOAD PUSH32 0x8C379A000000000000000000000000000000000000000000000000000000000 DUP2 MSTORE PUSH1 0x4 ADD PUSH2 0xD32 SWAP1 PUSH2 0x3C62 JUMP JUMPDEST PUSH1 0x40 MLOAD DUP1 SWAP2 SUB SWAP1 REVERT JUMPDEST PUSH1 0x0 DUP2 PUSH1 0x1 ADD SLOAD EQ PUSH2 0x1050 JUMPI PUSH1 0x0 CALLER DUP5 PUSH1 0x40 MLOAD PUSH1 0x20 ADD PUSH2 0xD5C SWAP3 SWAP2 SWAP1 PUSH2 0x39BD JUMP JUMPDEST PUSH1 0x40 MLOAD PUSH1 0x20 DUP2 DUP4 SUB SUB DUP2 MSTORE SWAP1 PUSH1 0x40 MSTORE DUP1 MLOAD SWAP1 PUSH1 0x20 ADD KECCAK256 SWAP1 POP PUSH2 0xDC4 DUP7 DUP7 DUP1 DUP1 PUSH1 0x20 MUL PUSH1 0x20 ADD PUSH1 0x40 MLOAD SWAP1 DUP2 ADD PUSH1 0x40 MSTORE DUP1 SWAP4 SWAP3 SWAP2 SWAP1 DUP2 DUP2 MSTORE PUSH1 0x20 ADD DUP4 DUP4 PUSH1 0x20 MUL DUP1 DUP3 DUP5 CALLDATACOPY PUSH1 0x0 DUP2 DUP5 ADD MSTORE PUSH1 0x1F NOT PUSH1 0x1F DUP3 ADD AND SWAP1 POP DUP1 DUP4 ADD SWAP3 POP POP POP POP POP POP POP DUP4 PUSH1 0x1 ADD SLOAD DUP4 PUSH2 0x26C2 JUMP JUMPDEST PUSH2 0xE03 JUMPI PUSH1 0x40 MLOAD PUSH32 0x8C379A000000000000000000000000000000000000000000000000000000000 DUP2 MSTORE PUSH1 0x4 ADD PUSH2 0xDFA SWAP1 PUSH2 0x3C82 JUMP JUMPDEST PUSH1 0x40 MLOAD DUP1 SWAP2 SUB SWAP1 REVERT JUMPDEST PUSH1 0x0 DUP5 PUSH4 0xFFFFFFFF AND EQ PUSH2 0xF3B JUMPI PUSH1 0x0 PUSH1 0x3 PUSH1 0x0 DUP11 PUSH20 0xFFFFFFFFFFFFFFFFFFFFFFFFFFFFFFFFFFFFFFFF AND PUSH20 0xFFFFFFFFFFFFFFFFFFFFFFFFFFFFFFFFFFFFFFFF AND DUP2 MSTORE PUSH1 0x20 ADD SWAP1 DUP2 MSTORE PUSH1 0x20 ADD PUSH1 0x0 KECCAK256 PUSH1 0x0 DUP10 DUP2 MSTORE PUSH1 0x20 ADD SWAP1 DUP2 MSTORE PUSH1 0x20 ADD PUSH1 0x0 KECCAK256 PUSH1 0x0 CALLER PUSH20 0xFFFFFFFFFFFFFFFFFFFFFFFFFFFFFFFFFFFFFFFF AND PUSH20 0xFFFFFFFFFFFFFFFFFFFFFFFFFFFFFFFFFFFFFFFF AND DUP2 MSTORE PUSH1 0x20 ADD SWAP1 DUP2 MSTORE PUSH1 0x20 ADD PUSH1 0x0 KECCAK256 SLOAD SWAP1 POP PUSH1 0x0 DUP4 PUSH1 0x0 ADD PUSH1 0x8 SWAP1 SLOAD SWAP1 PUSH2 0x100 EXP SWAP1 DIV PUSH4 0xFFFFFFFF AND PUSH4 0xFFFFFFFF AND EQ DUP1 PUSH2 0xEE5 JUMPI POP DUP3 PUSH1 0x0 ADD PUSH1 0x8 SWAP1 SLOAD SWAP1 PUSH2 0x100 EXP SWAP1 DIV PUSH4 0xFFFFFFFF AND PUSH4 0xFFFFFFFF AND DUP2 LT JUMPDEST DUP1 ISZERO PUSH2 0xEF6 JUMPI POP DUP5 PUSH4 0xFFFFFFFF AND DUP2 LT JUMPDEST PUSH2 0xF35 JUMPI PUSH1 0x40 MLOAD PUSH32 0x8C379A000000000000000000000000000000000000000000000000000000000 DUP2 MSTORE PUSH1 0x4 ADD PUSH2 0xF2C SWAP1 PUSH2 0x3D02 JUMP JUMPDEST PUSH1 0x40 MLOAD DUP1 SWAP2 SUB SWAP1 REVERT JUMPDEST POP PUSH2 0x104A JUMP JUMPDEST PUSH1 0x0 DUP3 PUSH1 0x0 ADD PUSH1 0x8 SWAP1 SLOAD SWAP1 PUSH2 0x100 EXP SWAP1 DIV PUSH4 0xFFFFFFFF AND PUSH4 0xFFFFFFFF AND EQ DUP1 PUSH2 0x100A JUMPI POP DUP2 PUSH1 0x0 ADD PUSH1 0x8 SWAP1 SLOAD SWAP1 PUSH2 0x100 EXP SWAP1 DIV PUSH4 0xFFFFFFFF AND PUSH4 0xFFFFFFFF AND PUSH1 0x3 PUSH1 0x0 DUP11 PUSH20 0xFFFFFFFFFFFFFFFFFFFFFFFFFFFFFFFFFFFFFFFF AND PUSH20 0xFFFFFFFFFFFFFFFFFFFFFFFFFFFFFFFFFFFFFFFF AND DUP2 MSTORE PUSH1 0x20 ADD SWAP1 DUP2 MSTORE PUSH1 0x20 ADD PUSH1 0x0 KECCAK256 PUSH1 0x0 DUP10 DUP2 MSTORE PUSH1 0x20 ADD SWAP1 DUP2 MSTORE PUSH1 0x20 ADD PUSH1 0x0 KECCAK256 PUSH1 0x0 CALLER PUSH20 0xFFFFFFFFFFFFFFFFFFFFFFFFFFFFFFFFFFFFFFFF AND PUSH20 0xFFFFFFFFFFFFFFFFFFFFFFFFFFFFFFFFFFFFFFFF AND DUP2 MSTORE PUSH1 0x20 ADD SWAP1 DUP2 MSTORE PUSH1 0x20 ADD PUSH1 0x0 KECCAK256 SLOAD LT JUMPDEST PUSH2 0x1049 JUMPI PUSH1 0x40 MLOAD PUSH32 0x8C379A000000000000000000000000000000000000000000000000000000000 DUP2 MSTORE PUSH1 0x4 ADD PUSH2 0x1040 SWAP1 PUSH2 0x3CA2 JUMP JUMPDEST PUSH1 0x40 MLOAD DUP1 SWAP2 SUB SWAP1 REVERT JUMPDEST JUMPDEST POP PUSH2 0x115F JUMP JUMPDEST PUSH1 0x0 DUP2 PUSH1 0x0 ADD PUSH1 0x8 SWAP1 SLOAD SWAP1 PUSH2 0x100 EXP SWAP1 DIV PUSH4 0xFFFFFFFF AND PUSH4 0xFFFFFFFF AND EQ DUP1 PUSH2 0x111F JUMPI POP DUP1 PUSH1 0x0 ADD PUSH1 0x8 SWAP1 SLOAD SWAP1 PUSH2 0x100 EXP SWAP1 DIV PUSH4 0xFFFFFFFF AND PUSH4 0xFFFFFFFF AND PUSH1 0x3 PUSH1 0x0 DUP10 PUSH20 0xFFFFFFFFFFFFFFFFFFFFFFFFFFFFFFFFFFFFFFFF AND PUSH20 0xFFFFFFFFFFFFFFFFFFFFFFFFFFFFFFFFFFFFFFFF AND DUP2 MSTORE PUSH1 0x20 ADD SWAP1 DUP2 MSTORE PUSH1 0x20 ADD PUSH1 0x0 KECCAK256 PUSH1 0x0 DUP9 DUP2 MSTORE PUSH1 0x20 ADD SWAP1 DUP2 MSTORE PUSH1 0x20 ADD PUSH1 0x0 KECCAK256 PUSH1 0x0 CALLER PUSH20 0xFFFFFFFFFFFFFFFFFFFFFFFFFFFFFFFFFFFFFFFF AND PUSH20 0xFFFFFFFFFFFFFFFFFFFFFFFFFFFFFFFFFFFFFFFF AND DUP2 MSTORE PUSH1 0x20 ADD SWAP1 DUP2 MSTORE PUSH1 0x20 ADD PUSH1 0x0 KECCAK256 SLOAD LT JUMPDEST PUSH2 0x115E JUMPI PUSH1 0x40 MLOAD PUSH32 0x8C379A000000000000000000000000000000000000000000000000000000000 DUP2 MSTORE PUSH1 0x4 ADD PUSH2 0x1155 SWAP1 PUSH2 0x3CA2 JUMP JUMPDEST PUSH1 0x40 MLOAD DUP1 SWAP2 SUB SWAP1 REVERT JUMPDEST JUMPDEST PUSH1 0x0 DUP8 PUSH20 0xFFFFFFFFFFFFFFFFFFFFFFFFFFFFFFFFFFFFFFFF AND PUSH4 0x2928CA58 CALLER PUSH1 0x40 MLOAD DUP3 PUSH4 0xFFFFFFFF AND PUSH1 0xE0 SHL DUP2 MSTORE PUSH1 0x4 ADD PUSH2 0x119A SWAP2 SWAP1 PUSH2 0x3A8A JUMP JUMPDEST PUSH1 0x20 PUSH1 0x40 MLOAD DUP1 DUP4 SUB DUP2 PUSH1 0x0 DUP8 DUP1 EXTCODESIZE ISZERO DUP1 ISZERO PUSH2 0x11B4 JUMPI PUSH1 0x0 DUP1 REVERT JUMPDEST POP GAS CALL ISZERO DUP1 ISZERO PUSH2 0x11C8 JUMPI RETURNDATASIZE PUSH1 0x0 DUP1 RETURNDATACOPY RETURNDATASIZE PUSH1 0x0 REVERT JUMPDEST POP POP POP POP PUSH1 0x40 MLOAD RETURNDATASIZE PUSH1 0x1F NOT PUSH1 0x1F DUP3 ADD AND DUP3 ADD DUP1 PUSH1 0x40 MSTORE POP DUP2 ADD SWAP1 PUSH2 0x11EC SWAP2 SWAP1 PUSH2 0x3013 JUMP JUMPDEST SWAP1 POP PUSH2 0x11F9 DUP9 DUP9 DUP4 PUSH2 0x26D9 JUMP JUMPDEST PUSH1 0x3 PUSH1 0x0 DUP10 PUSH20 0xFFFFFFFFFFFFFFFFFFFFFFFFFFFFFFFFFFFFFFFF AND PUSH20 0xFFFFFFFFFFFFFFFFFFFFFFFFFFFFFFFFFFFFFFFF AND DUP2 MSTORE PUSH1 0x20 ADD SWAP1 DUP2 MSTORE PUSH1 0x20 ADD PUSH1 0x0 KECCAK256 PUSH1 0x0 DUP9 DUP2 MSTORE PUSH1 0x20 ADD SWAP1 DUP2 MSTORE PUSH1 0x20 ADD PUSH1 0x0 KECCAK256 PUSH1 0x0 CALLER PUSH20 0xFFFFFFFFFFFFFFFFFFFFFFFFFFFFFFFFFFFFFFFF AND PUSH20 0xFFFFFFFFFFFFFFFFFFFFFFFFFFFFFFFFFFFFFFFF AND DUP2 MSTORE PUSH1 0x20 ADD SWAP1 DUP2 MSTORE PUSH1 0x20 ADD PUSH1 0x0 KECCAK256 PUSH1 0x0 DUP2 SLOAD DUP1 SWAP3 SWAP2 SWAP1 PUSH1 0x1 ADD SWAP2 SWAP1 POP SSTORE POP DUP2 PUSH1 0x0 ADD PUSH1 0x0 DUP2 DUP2 SWAP1 SLOAD SWAP1 PUSH2 0x100 EXP SWAP1 DIV PUSH4 0xFFFFFFFF AND DUP1 SWAP3 SWAP2 SWAP1 PUSH1 0x1 ADD SWAP2 SWAP1 PUSH2 0x100 EXP DUP2 SLOAD DUP2 PUSH4 0xFFFFFFFF MUL NOT AND SWAP1 DUP4 PUSH4 0xFFFFFFFF AND MUL OR SWAP1 SSTORE POP POP DUP7 DUP9 PUSH20 0xFFFFFFFFFFFFFFFFFFFFFFFFFFFFFFFFFFFFFFFF AND PUSH32 0xDBBA30EB0402B389513E87F51F4DB2DB80BED454384EC6925A24097C3548A02A DUP4 CALLER PUSH1 0x40 MLOAD PUSH2 0x131C SWAP3 SWAP2 SWAP1 PUSH2 0x3D5F JUMP JUMPDEST PUSH1 0x40 MLOAD DUP1 SWAP2 SUB SWAP1 LOG3 DUP1 SWAP3 POP POP POP SWAP6 SWAP5 POP POP POP POP POP JUMP JUMPDEST PUSH2 0x133A PUSH2 0x2B95 JUMP JUMPDEST PUSH1 0x0 PUSH1 0x2 PUSH1 0x0 DUP6 PUSH20 0xFFFFFFFFFFFFFFFFFFFFFFFFFFFFFFFFFFFFFFFF AND PUSH20 0xFFFFFFFFFFFFFFFFFFFFFFFFFFFFFFFFFFFFFFFF AND DUP2 MSTORE PUSH1 0x20 ADD SWAP1 DUP2 MSTORE PUSH1 0x20 ADD PUSH1 0x0 KECCAK256 PUSH1 0x0 DUP5 DUP2 MSTORE PUSH1 0x20 ADD SWAP1 DUP2 MSTORE PUSH1 0x20 ADD PUSH1 0x0 KECCAK256 PUSH1 0x2 ADD DUP1 SLOAD PUSH2 0x139A SWAP1 PUSH2 0x3FFA JUMP JUMPDEST SWAP1 POP EQ ISZERO PUSH2 0x13DD JUMPI PUSH1 0x40 MLOAD PUSH32 0x8C379A000000000000000000000000000000000000000000000000000000000 DUP2 MSTORE PUSH1 0x4 ADD PUSH2 0x13D4 SWAP1 PUSH2 0x3C02 JUMP JUMPDEST PUSH1 0x40 MLOAD DUP1 SWAP2 SUB SWAP1 REVERT JUMPDEST PUSH1 0x2 PUSH1 0x0 DUP5 PUSH20 0xFFFFFFFFFFFFFFFFFFFFFFFFFFFFFFFFFFFFFFFF AND PUSH20 0xFFFFFFFFFFFFFFFFFFFFFFFFFFFFFFFFFFFFFFFF AND DUP2 MSTORE PUSH1 0x20 ADD SWAP1 DUP2 MSTORE PUSH1 0x20 ADD PUSH1 0x0 KECCAK256 PUSH1 0x0 DUP4 DUP2 MSTORE PUSH1 0x20 ADD SWAP1 DUP2 MSTORE PUSH1 0x20 ADD PUSH1 0x0 KECCAK256 PUSH1 0x40 MLOAD DUP1 PUSH2 0x120 ADD PUSH1 0x40 MSTORE SWAP1 DUP2 PUSH1 0x0 DUP3 ADD PUSH1 0x0 SWAP1 SLOAD SWAP1 PUSH2 0x100 EXP SWAP1 DIV PUSH4 0xFFFFFFFF AND PUSH4 0xFFFFFFFF AND PUSH4 0xFFFFFFFF AND DUP2 MSTORE PUSH1 0x20 ADD PUSH1 0x0 DUP3 ADD PUSH1 0x4 SWAP1 SLOAD SWAP1 PUSH2 0x100 EXP SWAP1 DIV PUSH4 0xFFFFFFFF AND PUSH4 0xFFFFFFFF AND PUSH4 0xFFFFFFFF AND DUP2 MSTORE PUSH1 0x20 ADD PUSH1 0x0 DUP3 ADD PUSH1 0x8 SWAP1 SLOAD SWAP1 PUSH2 0x100 EXP SWAP1 DIV PUSH4 0xFFFFFFFF AND PUSH4 0xFFFFFFFF AND PUSH4 0xFFFFFFFF AND DUP2 MSTORE PUSH1 0x20 ADD PUSH1 0x0 DUP3 ADD PUSH1 0xC SWAP1 SLOAD SWAP1 PUSH2 0x100 EXP SWAP1 DIV PUSH6 0xFFFFFFFFFFFF AND PUSH6 0xFFFFFFFFFFFF AND PUSH6 0xFFFFFFFFFFFF AND DUP2 MSTORE PUSH1 0x20 ADD PUSH1 0x0 DUP3 ADD PUSH1 0x12 SWAP1 SLOAD SWAP1 PUSH2 0x100 EXP SWAP1 DIV PUSH6 0xFFFFFFFFFFFF AND PUSH6 0xFFFFFFFFFFFF AND PUSH6 0xFFFFFFFFFFFF AND DUP2 MSTORE PUSH1 0x20 ADD PUSH1 0x0 DUP3 ADD PUSH1 0x18 SWAP1 SLOAD SWAP1 PUSH2 0x100 EXP SWAP1 DIV PUSH1 0xFF AND PUSH1 0x3 DUP2 GT ISZERO PUSH2 0x154E JUMPI PUSH32 0x4E487B7100000000000000000000000000000000000000000000000000000000 PUSH1 0x0 MSTORE PUSH1 0x21 PUSH1 0x4 MSTORE PUSH1 0x24 PUSH1 0x0 REVERT JUMPDEST PUSH1 0x3 DUP2 GT ISZERO PUSH2 0x1586 JUMPI PUSH32 0x4E487B7100000000000000000000000000000000000000000000000000000000 PUSH1 0x0 MSTORE PUSH1 0x21 PUSH1 0x4 MSTORE PUSH1 0x24 PUSH1 0x0 REVERT JUMPDEST DUP2 MSTORE PUSH1 0x20 ADD PUSH1 0x0 DUP3 ADD PUSH1 0x19 SWAP1 SLOAD SWAP1 PUSH2 0x100 EXP SWAP1 DIV PUSH1 0xFF AND ISZERO ISZERO ISZERO ISZERO DUP2 MSTORE PUSH1 0x20 ADD PUSH1 0x1 DUP3 ADD SLOAD DUP2 MSTORE PUSH1 0x20 ADD PUSH1 0x2 DUP3 ADD DUP1 SLOAD PUSH2 0x15BF SWAP1 PUSH2 0x3FFA JUMP JUMPDEST DUP1 PUSH1 0x1F ADD PUSH1 0x20 DUP1 SWAP2 DIV MUL PUSH1 0x20 ADD PUSH1 0x40 MLOAD SWAP1 DUP2 ADD PUSH1 0x40 MSTORE DUP1 SWAP3 SWAP2 SWAP1 DUP2 DUP2 MSTORE PUSH1 0x20 ADD DUP3 DUP1 SLOAD PUSH2 0x15EB SWAP1 PUSH2 0x3FFA JUMP JUMPDEST DUP1 ISZERO PUSH2 0x1638 JUMPI DUP1 PUSH1 0x1F LT PUSH2 0x160D JUMPI PUSH2 0x100 DUP1 DUP4 SLOAD DIV MUL DUP4 MSTORE SWAP2 PUSH1 0x20 ADD SWAP2 PUSH2 0x1638 JUMP JUMPDEST DUP3 ADD SWAP2 SWAP1 PUSH1 0x0 MSTORE PUSH1 0x20 PUSH1 0x0 KECCAK256 SWAP1 JUMPDEST DUP2 SLOAD DUP2 MSTORE SWAP1 PUSH1 0x1 ADD SWAP1 PUSH1 0x20 ADD DUP1 DUP4 GT PUSH2 0x161B JUMPI DUP3 SWAP1 SUB PUSH1 0x1F AND DUP3 ADD SWAP2 JUMPDEST POP POP POP POP POP DUP2 MSTORE POP POP SWAP1 POP SWAP3 SWAP2 POP POP JUMP JUMPDEST PUSH1 0x0 DUP1 PUSH1 0x2 PUSH1 0x0 DUP7 PUSH20 0xFFFFFFFFFFFFFFFFFFFFFFFFFFFFFFFFFFFFFFFF AND PUSH20 0xFFFFFFFFFFFFFFFFFFFFFFFFFFFFFFFFFFFFFFFF AND DUP2 MSTORE PUSH1 0x20 ADD SWAP1 DUP2 MSTORE PUSH1 0x20 ADD PUSH1 0x0 KECCAK256 PUSH1 0x0 DUP6 DUP2 MSTORE PUSH1 0x20 ADD SWAP1 DUP2 MSTORE PUSH1 0x20 ADD PUSH1 0x0 KECCAK256 PUSH1 0x2 ADD DUP1 SLOAD PUSH2 0x16AA SWAP1 PUSH2 0x3FFA JUMP JUMPDEST SWAP1 POP EQ ISZERO PUSH2 0x16ED JUMPI PUSH1 0x40 MLOAD PUSH32 0x8C379A000000000000000000000000000000000000000000000000000000000 DUP2 MSTORE PUSH1 0x4 ADD PUSH2 0x16E4 SWAP1 PUSH2 0x3C02 JUMP JUMPDEST PUSH1 0x40 MLOAD DUP1 SWAP2 SUB SWAP1 REVERT JUMPDEST PUSH1 0x3 PUSH1 0x0 DUP6 PUSH20 0xFFFFFFFFFFFFFFFFFFFFFFFFFFFFFFFFFFFFFFFF AND PUSH20 0xFFFFFFFFFFFFFFFFFFFFFFFFFFFFFFFFFFFFFFFF AND DUP2 MSTORE PUSH1 0x20 ADD SWAP1 DUP2 MSTORE PUSH1 0x20 ADD PUSH1 0x0 KECCAK256 PUSH1 0x0 DUP5 DUP2 MSTORE PUSH1 0x20 ADD SWAP1 DUP2 MSTORE PUSH1 0x20 ADD PUSH1 0x0 KECCAK256 PUSH1 0x0 DUP4 PUSH20 0xFFFFFFFFFFFFFFFFFFFFFFFFFFFFFFFFFFFFFFFF AND PUSH20 0xFFFFFFFFFFFFFFFFFFFFFFFFFFFFFFFFFFFFFFFF AND DUP2 MSTORE PUSH1 0x20 ADD SWAP1 DUP2 MSTORE PUSH1 0x20 ADD PUSH1 0x0 KECCAK256 SLOAD SWAP1 POP SWAP4 SWAP3 POP POP POP JUMP JUMPDEST DUP3 PUSH1 0x0 DUP2 SWAP1 POP DUP1 PUSH20 0xFFFFFFFFFFFFFFFFFFFFFFFFFFFFFFFFFFFFFFFF AND PUSH4 0x24D7806C CALLER PUSH1 0x40 MLOAD DUP3 PUSH4 0xFFFFFFFF AND PUSH1 0xE0 SHL DUP2 MSTORE PUSH1 0x4 ADD PUSH2 0x17C3 SWAP2 SWAP1 PUSH2 0x3A8A JUMP JUMPDEST PUSH1 0x20 PUSH1 0x40 MLOAD DUP1 DUP4 SUB DUP2 DUP7 DUP1 EXTCODESIZE ISZERO DUP1 ISZERO PUSH2 0x17DB JUMPI PUSH1 0x0 DUP1 REVERT JUMPDEST POP GAS STATICCALL ISZERO DUP1 ISZERO PUSH2 0x17EF JUMPI RETURNDATASIZE PUSH1 0x0 DUP1 RETURNDATACOPY RETURNDATASIZE PUSH1 0x0 REVERT JUMPDEST POP POP POP POP PUSH1 0x40 MLOAD RETURNDATASIZE PUSH1 0x1F NOT PUSH1 0x1F DUP3 ADD AND DUP3 ADD DUP1 PUSH1 0x40 MSTORE POP DUP2 ADD SWAP1 PUSH2 0x1813 SWAP2 SWAP1 PUSH2 0x2F98 JUMP JUMPDEST PUSH2 0x1852 JUMPI PUSH1 0x40 MLOAD PUSH32 0x8C379A000000000000000000000000000000000000000000000000000000000 DUP2 MSTORE PUSH1 0x4 ADD PUSH2 0x1849 SWAP1 PUSH2 0x3B82 JUMP JUMPDEST PUSH1 0x40 MLOAD DUP1 SWAP2 SUB SWAP1 REVERT JUMPDEST PUSH1 0x0 PUSH1 0x2 PUSH1 0x0 DUP8 PUSH20 0xFFFFFFFFFFFFFFFFFFFFFFFFFFFFFFFFFFFFFFFF AND PUSH20 0xFFFFFFFFFFFFFFFFFFFFFFFFFFFFFFFFFFFFFFFF AND DUP2 MSTORE PUSH1 0x20 ADD SWAP1 DUP2 MSTORE PUSH1 0x20 ADD PUSH1 0x0 KECCAK256 PUSH1 0x0 DUP7 DUP2 MSTORE PUSH1 0x20 ADD SWAP1 DUP2 MSTORE PUSH1 0x20 ADD PUSH1 0x0 KECCAK256 PUSH1 0x2 ADD DUP1 SLOAD PUSH2 0x18B2 SWAP1 PUSH2 0x3FFA JUMP JUMPDEST SWAP1 POP EQ ISZERO PUSH2 0x18F5 JUMPI PUSH1 0x40 MLOAD PUSH32 0x8C379A000000000000000000000000000000000000000000000000000000000 DUP2 MSTORE PUSH1 0x4 ADD PUSH2 0x18EC SWAP1 PUSH2 0x3B02 JUMP JUMPDEST PUSH1 0x40 MLOAD DUP1 SWAP2 SUB SWAP1 REVERT JUMPDEST PUSH1 0x0 PUSH1 0x3 DUP2 GT ISZERO PUSH2 0x192F JUMPI PUSH32 0x4E487B7100000000000000000000000000000000000000000000000000000000 PUSH1 0x0 MSTORE PUSH1 0x21 PUSH1 0x4 MSTORE PUSH1 0x24 PUSH1 0x0 REVERT JUMPDEST DUP4 PUSH1 0x80 ADD PUSH1 0x20 DUP2 ADD SWAP1 PUSH2 0x1942 SWAP2 SWAP1 PUSH2 0x2FEA JUMP JUMPDEST PUSH1 0x3 DUP2 GT ISZERO PUSH2 0x197A JUMPI PUSH32 0x4E487B7100000000000000000000000000000000000000000000000000000000 PUSH1 0x0 MSTORE PUSH1 0x21 PUSH1 0x4 MSTORE PUSH1 0x24 PUSH1 0x0 REVERT JUMPDEST EQ ISZERO PUSH2 0x19BB JUMPI PUSH1 0x40 MLOAD PUSH32 0x8C379A000000000000000000000000000000000000000000000000000000000 DUP2 MSTORE PUSH1 0x4 ADD PUSH2 0x19B2 SWAP1 PUSH2 0x3CC2 JUMP JUMPDEST PUSH1 0x40 MLOAD DUP1 SWAP2 SUB SWAP1 REVERT JUMPDEST DUP3 PUSH1 0x0 ADD PUSH1 0x20 DUP2 ADD SWAP1 PUSH2 0x19CE SWAP2 SWAP1 PUSH2 0x303C JUMP JUMPDEST PUSH4 0xFFFFFFFF AND PUSH1 0x2 PUSH1 0x0 DUP8 PUSH20 0xFFFFFFFFFFFFFFFFFFFFFFFFFFFFFFFFFFFFFFFF AND PUSH20 0xFFFFFFFFFFFFFFFFFFFFFFFFFFFFFFFFFFFFFFFF AND DUP2 MSTORE PUSH1 0x20 ADD SWAP1 DUP2 MSTORE PUSH1 0x20 ADD PUSH1 0x0 KECCAK256 PUSH1 0x0 DUP7 DUP2 MSTORE PUSH1 0x20 ADD SWAP1 DUP2 MSTORE PUSH1 0x20 ADD PUSH1 0x0 KECCAK256 PUSH1 0x0 ADD PUSH1 0x4 SWAP1 SLOAD SWAP1 PUSH2 0x100 EXP SWAP1 DIV PUSH4 0xFFFFFFFF AND PUSH4 0xFFFFFFFF AND EQ PUSH2 0x1A7E JUMPI PUSH1 0x40 MLOAD PUSH32 0x8C379A000000000000000000000000000000000000000000000000000000000 DUP2 MSTORE PUSH1 0x4 ADD PUSH2 0x1A75 SWAP1 PUSH2 0x3B22 JUMP JUMPDEST PUSH1 0x40 MLOAD DUP1 SWAP2 SUB SWAP1 REVERT JUMPDEST DUP3 PUSH1 0x20 ADD PUSH1 0x20 DUP2 ADD SWAP1 PUSH2 0x1A91 SWAP2 SWAP1 PUSH2 0x303C JUMP JUMPDEST PUSH4 0xFFFFFFFF AND PUSH1 0x2 PUSH1 0x0 DUP8 PUSH20 0xFFFFFFFFFFFFFFFFFFFFFFFFFFFFFFFFFFFFFFFF AND PUSH20 0xFFFFFFFFFFFFFFFFFFFFFFFFFFFFFFFFFFFFFFFF AND DUP2 MSTORE PUSH1 0x20 ADD SWAP1 DUP2 MSTORE PUSH1 0x20 ADD PUSH1 0x0 KECCAK256 PUSH1 0x0 DUP7 DUP2 MSTORE PUSH1 0x20 ADD SWAP1 DUP2 MSTORE PUSH1 0x20 ADD PUSH1 0x0 KECCAK256 PUSH1 0x0 ADD PUSH1 0x8 SWAP1 SLOAD SWAP1 PUSH2 0x100 EXP SWAP1 DIV PUSH4 0xFFFFFFFF AND PUSH4 0xFFFFFFFF AND GT ISZERO PUSH2 0x1B42 JUMPI PUSH1 0x40 MLOAD PUSH32 0x8C379A000000000000000000000000000000000000000000000000000000000 DUP2 MSTORE PUSH1 0x4 ADD PUSH2 0x1B39 SWAP1 PUSH2 0x3C42 JUMP JUMPDEST PUSH1 0x40 MLOAD DUP1 SWAP2 SUB SWAP1 REVERT JUMPDEST PUSH1 0x0 DUP4 PUSH1 0x60 ADD PUSH1 0x20 DUP2 ADD SWAP1 PUSH2 0x1B57 SWAP2 SWAP1 PUSH2 0x3065 JUMP JUMPDEST PUSH6 0xFFFFFFFFFFFF AND EQ DUP1 PUSH2 0x1B9E JUMPI POP DUP3 PUSH1 0x60 ADD PUSH1 0x20 DUP2 ADD SWAP1 PUSH2 0x1B79 SWAP2 SWAP1 PUSH2 0x3065 JUMP JUMPDEST PUSH6 0xFFFFFFFFFFFF AND DUP4 PUSH1 0x40 ADD PUSH1 0x20 DUP2 ADD SWAP1 PUSH2 0x1B94 SWAP2 SWAP1 PUSH2 0x3065 JUMP JUMPDEST PUSH6 0xFFFFFFFFFFFF AND LT JUMPDEST PUSH2 0x1BDD JUMPI PUSH1 0x40 MLOAD PUSH32 0x8C379A000000000000000000000000000000000000000000000000000000000 DUP2 MSTORE PUSH1 0x4 ADD PUSH2 0x1BD4 SWAP1 PUSH2 0x3AE2 JUMP JUMPDEST PUSH1 0x40 MLOAD DUP1 SWAP2 SUB SWAP1 REVERT JUMPDEST PUSH1 0x40 MLOAD DUP1 PUSH2 0x120 ADD PUSH1 0x40 MSTORE DUP1 PUSH1 0x2 PUSH1 0x0 DUP9 PUSH20 0xFFFFFFFFFFFFFFFFFFFFFFFFFFFFFFFFFFFFFFFF AND PUSH20 0xFFFFFFFFFFFFFFFFFFFFFFFFFFFFFFFFFFFFFFFF AND DUP2 MSTORE PUSH1 0x20 ADD SWAP1 DUP2 MSTORE PUSH1 0x20 ADD PUSH1 0x0 KECCAK256 PUSH1 0x0 DUP8 DUP2 MSTORE PUSH1 0x20 ADD SWAP1 DUP2 MSTORE PUSH1 0x20 ADD PUSH1 0x0 KECCAK256 PUSH1 0x0 ADD PUSH1 0x0 SWAP1 SLOAD SWAP1 PUSH2 0x100 EXP SWAP1 DIV PUSH4 0xFFFFFFFF AND PUSH4 0xFFFFFFFF AND DUP2 MSTORE PUSH1 0x20 ADD DUP5 PUSH1 0x0 ADD PUSH1 0x20 DUP2 ADD SWAP1 PUSH2 0x1C6B SWAP2 SWAP1 PUSH2 0x303C JUMP JUMPDEST PUSH4 0xFFFFFFFF AND DUP2 MSTORE PUSH1 0x20 ADD DUP5 PUSH1 0x20 ADD PUSH1 0x20 DUP2 ADD SWAP1 PUSH2 0x1C89 SWAP2 SWAP1 PUSH2 0x303C JUMP JUMPDEST PUSH4 0xFFFFFFFF AND DUP2 MSTORE PUSH1 0x20 ADD DUP5 PUSH1 0x40 ADD PUSH1 0x20 DUP2 ADD SWAP1 PUSH2 0x1CA7 SWAP2 SWAP1 PUSH2 0x3065 JUMP JUMPDEST PUSH6 0xFFFFFFFFFFFF AND DUP2 MSTORE PUSH1 0x20 ADD DUP5 PUSH1 0x60 ADD PUSH1 0x20 DUP2 ADD SWAP1 PUSH2 0x1CC7 SWAP2 SWAP1 PUSH2 0x3065 JUMP JUMPDEST PUSH6 0xFFFFFFFFFFFF AND DUP2 MSTORE PUSH1 0x20 ADD DUP5 PUSH1 0x80 ADD PUSH1 0x20 DUP2 ADD SWAP1 PUSH2 0x1CE7 SWAP2 SWAP1 PUSH2 0x2FEA JUMP JUMPDEST PUSH1 0x3 DUP2 GT ISZERO PUSH2 0x1D1F JUMPI PUSH32 0x4E487B7100000000000000000000000000000000000000000000000000000000 PUSH1 0x0 MSTORE PUSH1 0x21 PUSH1 0x4 MSTORE PUSH1 0x24 PUSH1 0x0 REVERT JUMPDEST DUP2 MSTORE PUSH1 0x20 ADD DUP5 PUSH1 0xA0 ADD PUSH1 0x20 DUP2 ADD SWAP1 PUSH2 0x1D37 SWAP2 SWAP1 PUSH2 0x2F6F JUMP JUMPDEST ISZERO ISZERO DUP2 MSTORE PUSH1 0x20 ADD DUP5 PUSH1 0xC0 ADD CALLDATALOAD DUP2 MSTORE PUSH1 0x20 ADD DUP5 DUP1 PUSH1 0xE0 ADD SWAP1 PUSH2 0x1D58 SWAP2 SWAP1 PUSH2 0x3DA3 JUMP JUMPDEST DUP1 DUP1 PUSH1 0x1F ADD PUSH1 0x20 DUP1 SWAP2 DIV MUL PUSH1 0x20 ADD PUSH1 0x40 MLOAD SWAP1 DUP2 ADD PUSH1 0x40 MSTORE DUP1 SWAP4 SWAP3 SWAP2 SWAP1 DUP2 DUP2 MSTORE PUSH1 0x20 ADD DUP4 DUP4 DUP1 DUP3 DUP5 CALLDATACOPY PUSH1 0x0 DUP2 DUP5 ADD MSTORE PUSH1 0x1F NOT PUSH1 0x1F DUP3 ADD AND SWAP1 POP DUP1 DUP4 ADD SWAP3 POP POP POP POP POP POP POP DUP2 MSTORE POP PUSH1 0x2 PUSH1 0x0 DUP8 PUSH20 0xFFFFFFFFFFFFFFFFFFFFFFFFFFFFFFFFFFFFFFFF AND PUSH20 0xFFFFFFFFFFFFFFFFFFFFFFFFFFFFFFFFFFFFFFFF AND DUP2 MSTORE PUSH1 0x20 ADD SWAP1 DUP2 MSTORE PUSH1 0x20 ADD PUSH1 0x0 KECCAK256 PUSH1 0x0 DUP7 DUP2 MSTORE PUSH1 0x20 ADD SWAP1 DUP2 MSTORE PUSH1 0x20 ADD PUSH1 0x0 KECCAK256 PUSH1 0x0 DUP3 ADD MLOAD DUP2 PUSH1 0x0 ADD PUSH1 0x0 PUSH2 0x100 EXP DUP2 SLOAD DUP2 PUSH4 0xFFFFFFFF MUL NOT AND SWAP1 DUP4 PUSH4 0xFFFFFFFF AND MUL OR SWAP1 SSTORE POP PUSH1 0x20 DUP3 ADD MLOAD DUP2 PUSH1 0x0 ADD PUSH1 0x4 PUSH2 0x100 EXP DUP2 SLOAD DUP2 PUSH4 0xFFFFFFFF MUL NOT AND SWAP1 DUP4 PUSH4 0xFFFFFFFF AND MUL OR SWAP1 SSTORE POP PUSH1 0x40 DUP3 ADD MLOAD DUP2 PUSH1 0x0 ADD PUSH1 0x8 PUSH2 0x100 EXP DUP2 SLOAD DUP2 PUSH4 0xFFFFFFFF MUL NOT AND SWAP1 DUP4 PUSH4 0xFFFFFFFF AND MUL OR SWAP1 SSTORE POP PUSH1 0x60 DUP3 ADD MLOAD DUP2 PUSH1 0x0 ADD PUSH1 0xC PUSH2 0x100 EXP DUP2 SLOAD DUP2 PUSH6 0xFFFFFFFFFFFF MUL NOT AND SWAP1 DUP4 PUSH6 0xFFFFFFFFFFFF AND MUL OR SWAP1 SSTORE POP PUSH1 0x80 DUP3 ADD MLOAD DUP2 PUSH1 0x0 ADD PUSH1 0x12 PUSH2 0x100 EXP DUP2 SLOAD DUP2 PUSH6 0xFFFFFFFFFFFF MUL NOT AND SWAP1 DUP4 PUSH6 0xFFFFFFFFFFFF AND MUL OR SWAP1 SSTORE POP PUSH1 0xA0 DUP3 ADD MLOAD DUP2 PUSH1 0x0 ADD PUSH1 0x18 PUSH2 0x100 EXP DUP2 SLOAD DUP2 PUSH1 0xFF MUL NOT AND SWAP1 DUP4 PUSH1 0x3 DUP2 GT ISZERO PUSH2 0x1F0A JUMPI PUSH32 0x4E487B7100000000000000000000000000000000000000000000000000000000 PUSH1 0x0 MSTORE PUSH1 0x21 PUSH1 0x4 MSTORE PUSH1 0x24 PUSH1 0x0 REVERT JUMPDEST MUL OR SWAP1 SSTORE POP PUSH1 0xC0 DUP3 ADD MLOAD DUP2 PUSH1 0x0 ADD PUSH1 0x19 PUSH2 0x100 EXP DUP2 SLOAD DUP2 PUSH1 0xFF MUL NOT AND SWAP1 DUP4 ISZERO ISZERO MUL OR SWAP1 SSTORE POP PUSH1 0xE0 DUP3 ADD MLOAD DUP2 PUSH1 0x1 ADD SSTORE PUSH2 0x100 DUP3 ADD MLOAD DUP2 PUSH1 0x2 ADD SWAP1 DUP1 MLOAD SWAP1 PUSH1 0x20 ADD SWAP1 PUSH2 0x1F56 SWAP3 SWAP2 SWAP1 PUSH2 0x2B0F JUMP JUMPDEST POP SWAP1 POP POP POP POP POP POP POP JUMP JUMPDEST PUSH1 0x0 PUSH1 0x1 PUSH1 0x0 DUP4 PUSH20 0xFFFFFFFFFFFFFFFFFFFFFFFFFFFFFFFFFFFFFFFF AND PUSH20 0xFFFFFFFFFFFFFFFFFFFFFFFFFFFFFFFFFFFFFFFF AND DUP2 MSTORE PUSH1 0x20 ADD SWAP1 DUP2 MSTORE PUSH1 0x20 ADD PUSH1 0x0 KECCAK256 SLOAD SWAP1 POP SWAP2 SWAP1 POP JUMP JUMPDEST PUSH1 0x60 PUSH1 0x0 PUSH2 0x1FB8 DUP5 DUP5 PUSH2 0x2416 JUMP JUMPDEST SWAP1 POP PUSH1 0x0 PUSH1 0x40 MLOAD DUP1 PUSH1 0x20 ADD PUSH1 0x40 MSTORE DUP1 PUSH1 0x0 DUP2 MSTORE POP SWAP1 POP PUSH1 0x2 PUSH1 0x0 DUP7 PUSH20 0xFFFFFFFFFFFFFFFFFFFFFFFFFFFFFFFFFFFFFFFF AND PUSH20 0xFFFFFFFFFFFFFFFFFFFFFFFFFFFFFFFFFFFFFFFF AND DUP2 MSTORE PUSH1 0x20 ADD SWAP1 DUP2 MSTORE PUSH1 0x20 ADD PUSH1 0x0 KECCAK256 PUSH1 0x0 DUP4 DUP2 MSTORE PUSH1 0x20 ADD SWAP1 DUP2 MSTORE PUSH1 0x20 ADD PUSH1 0x0 KECCAK256 PUSH1 0x0 ADD PUSH1 0x19 SWAP1 SLOAD SWAP1 PUSH2 0x100 EXP SWAP1 DIV PUSH1 0xFF AND PUSH2 0x2159 JUMPI PUSH2 0x203C DUP5 PUSH2 0x2889 JUMP JUMPDEST PUSH1 0x40 MLOAD PUSH1 0x20 ADD PUSH2 0x204C SWAP2 SWAP1 PUSH2 0x3A68 JUMP JUMPDEST PUSH1 0x40 MLOAD PUSH1 0x20 DUP2 DUP4 SUB SUB DUP2 MSTORE SWAP1 PUSH1 0x40 MSTORE SWAP1 POP PUSH1 0x3 DUP1 DUP2 GT ISZERO PUSH2 0x2096 JUMPI PUSH32 0x4E487B7100000000000000000000000000000000000000000000000000000000 PUSH1 0x0 MSTORE PUSH1 0x21 PUSH1 0x4 MSTORE PUSH1 0x24 PUSH1 0x0 REVERT JUMPDEST PUSH1 0x2 PUSH1 0x0 DUP8 PUSH20 0xFFFFFFFFFFFFFFFFFFFFFFFFFFFFFFFFFFFFFFFF AND PUSH20 0xFFFFFFFFFFFFFFFFFFFFFFFFFFFFFFFFFFFFFFFF AND DUP2 MSTORE PUSH1 0x20 ADD SWAP1 DUP2 MSTORE PUSH1 0x20 ADD PUSH1 0x0 KECCAK256 PUSH1 0x0 DUP5 DUP2 MSTORE PUSH1 0x20 ADD SWAP1 DUP2 MSTORE PUSH1 0x20 ADD PUSH1 0x0 KECCAK256 PUSH1 0x0 ADD PUSH1 0x18 SWAP1 SLOAD SWAP1 PUSH2 0x100 EXP SWAP1 DIV PUSH1 0xFF AND PUSH1 0x3 DUP2 GT ISZERO PUSH2 0x212F JUMPI PUSH32 0x4E487B7100000000000000000000000000000000000000000000000000000000 PUSH1 0x0 MSTORE PUSH1 0x21 PUSH1 0x4 MSTORE PUSH1 0x24 PUSH1 0x0 REVERT JUMPDEST EQ ISZERO PUSH2 0x2158 JUMPI DUP1 PUSH1 0x40 MLOAD PUSH1 0x20 ADD PUSH2 0x2146 SWAP2 SWAP1 PUSH2 0x3A46 JUMP JUMPDEST PUSH1 0x40 MLOAD PUSH1 0x20 DUP2 DUP4 SUB SUB DUP2 MSTORE SWAP1 PUSH1 0x40 MSTORE SWAP1 POP JUMPDEST JUMPDEST PUSH1 0x0 PUSH1 0x40 MLOAD DUP1 PUSH1 0x20 ADD PUSH1 0x40 MSTORE DUP1 PUSH1 0x0 DUP2 MSTORE POP SWAP1 POP PUSH1 0x3 DUP1 DUP2 GT ISZERO PUSH2 0x21A6 JUMPI PUSH32 0x4E487B7100000000000000000000000000000000000000000000000000000000 PUSH1 0x0 MSTORE PUSH1 0x21 PUSH1 0x4 MSTORE PUSH1 0x24 PUSH1 0x0 REVERT JUMPDEST PUSH1 0x2 PUSH1 0x0 DUP9 PUSH20 0xFFFFFFFFFFFFFFFFFFFFFFFFFFFFFFFFFFFFFFFF AND PUSH20 0xFFFFFFFFFFFFFFFFFFFFFFFFFFFFFFFFFFFFFFFF AND DUP2 MSTORE PUSH1 0x20 ADD SWAP1 DUP2 MSTORE PUSH1 0x20 ADD PUSH1 0x0 KECCAK256 PUSH1 0x0 DUP6 DUP2 MSTORE PUSH1 0x20 ADD SWAP1 DUP2 MSTORE PUSH1 0x20 ADD PUSH1 0x0 KECCAK256 PUSH1 0x0 ADD PUSH1 0x18 SWAP1 SLOAD SWAP1 PUSH2 0x100 EXP SWAP1 DIV PUSH1 0xFF AND PUSH1 0x3 DUP2 GT ISZERO PUSH2 0x223F JUMPI PUSH32 0x4E487B7100000000000000000000000000000000000000000000000000000000 PUSH1 0x0 MSTORE PUSH1 0x21 PUSH1 0x4 MSTORE PUSH1 0x24 PUSH1 0x0 REVERT JUMPDEST EQ ISZERO PUSH2 0x2282 JUMPI PUSH1 0x40 MLOAD DUP1 PUSH1 0x40 ADD PUSH1 0x40 MSTORE DUP1 PUSH1 0x7 DUP2 MSTORE PUSH1 0x20 ADD PUSH32 0x697066733A2F2F00000000000000000000000000000000000000000000000000 DUP2 MSTORE POP SWAP1 POP PUSH2 0x2395 JUMP JUMPDEST PUSH1 0x2 PUSH1 0x3 DUP2 GT ISZERO PUSH2 0x22BC JUMPI PUSH32 0x4E487B7100000000000000000000000000000000000000000000000000000000 PUSH1 0x0 MSTORE PUSH1 0x21 PUSH1 0x4 MSTORE PUSH1 0x24 PUSH1 0x0 REVERT JUMPDEST PUSH1 0x2 PUSH1 0x0 DUP9 PUSH20 0xFFFFFFFFFFFFFFFFFFFFFFFFFFFFFFFFFFFFFFFF AND PUSH20 0xFFFFFFFFFFFFFFFFFFFFFFFFFFFFFFFFFFFFFFFF AND DUP2 MSTORE PUSH1 0x20 ADD SWAP1 DUP2 MSTORE PUSH1 0x20 ADD PUSH1 0x0 KECCAK256 PUSH1 0x0 DUP6 DUP2 MSTORE PUSH1 0x20 ADD SWAP1 DUP2 MSTORE PUSH1 0x20 ADD PUSH1 0x0 KECCAK256 PUSH1 0x0 ADD PUSH1 0x18 SWAP1 SLOAD SWAP1 PUSH2 0x100 EXP SWAP1 DIV PUSH1 0xFF AND PUSH1 0x3 DUP2 GT ISZERO PUSH2 0x2355 JUMPI PUSH32 0x4E487B7100000000000000000000000000000000000000000000000000000000 PUSH1 0x0 MSTORE PUSH1 0x21 PUSH1 0x4 MSTORE PUSH1 0x24 PUSH1 0x0 REVERT JUMPDEST EQ ISZERO PUSH2 0x2394 JUMPI PUSH1 0x40 MLOAD DUP1 PUSH1 0x40 ADD PUSH1 0x40 MSTORE DUP1 PUSH1 0x14 DUP2 MSTORE PUSH1 0x20 ADD PUSH32 0x68747470733A2F2F617277656176652E6E65742F000000000000000000000000 DUP2 MSTORE POP SWAP1 POP JUMPDEST JUMPDEST DUP1 PUSH1 0x2 PUSH1 0x0 DUP9 PUSH20 0xFFFFFFFFFFFFFFFFFFFFFFFFFFFFFFFFFFFFFFFF AND PUSH20 0xFFFFFFFFFFFFFFFFFFFFFFFFFFFFFFFFFFFFFFFF AND DUP2 MSTORE PUSH1 0x20 ADD SWAP1 DUP2 MSTORE PUSH1 0x20 ADD PUSH1 0x0 KECCAK256 PUSH1 0x0 DUP6 DUP2 MSTORE PUSH1 0x20 ADD SWAP1 DUP2 MSTORE PUSH1 0x20 ADD PUSH1 0x0 KECCAK256 PUSH1 0x2 ADD DUP4 PUSH1 0x40 MLOAD PUSH1 0x20 ADD PUSH2 0x23FC SWAP4 SWAP3 SWAP2 SWAP1 PUSH2 0x3A15 JUMP JUMPDEST PUSH1 0x40 MLOAD PUSH1 0x20 DUP2 DUP4 SUB SUB DUP2 MSTORE SWAP1 PUSH1 0x40 MSTORE SWAP4 POP POP POP POP SWAP3 SWAP2 POP POP JUMP JUMPDEST PUSH1 0x0 DUP1 PUSH1 0x1 PUSH1 0x0 DUP6 PUSH20 0xFFFFFFFFFFFFFFFFFFFFFFFFFFFFFFFFFFFFFFFF AND PUSH20 0xFFFFFFFFFFFFFFFFFFFFFFFFFFFFFFFFFFFFFFFF AND DUP2 MSTORE PUSH1 0x20 ADD SWAP1 DUP2 MSTORE PUSH1 0x20 ADD PUSH1 0x0 KECCAK256 SLOAD GT PUSH2 0x2499 JUMPI PUSH1 0x40 MLOAD PUSH32 0x8C379A000000000000000000000000000000000000000000000000000000000 DUP2 MSTORE PUSH1 0x4 ADD PUSH2 0x2490 SWAP1 PUSH2 0x3C22 JUMP JUMPDEST PUSH1 0x40 MLOAD DUP1 SWAP2 SUB SWAP1 REVERT JUMPDEST PUSH1 0x0 PUSH1 0x1 SWAP1 POP JUMPDEST PUSH1 0x1 PUSH1 0x0 DUP6 PUSH20 0xFFFFFFFFFFFFFFFFFFFFFFFFFFFFFFFFFFFFFFFF AND PUSH20 0xFFFFFFFFFFFFFFFFFFFFFFFFFFFFFFFFFFFFFFFF AND DUP2 MSTORE PUSH1 0x20 ADD SWAP1 DUP2 MSTORE PUSH1 0x20 ADD PUSH1 0x0 KECCAK256 SLOAD DUP2 GT PUSH2 0x2680 JUMPI PUSH1 0x0 PUSH1 0x4 PUSH1 0x0 DUP7 PUSH20 0xFFFFFFFFFFFFFFFFFFFFFFFFFFFFFFFFFFFFFFFF AND PUSH20 0xFFFFFFFFFFFFFFFFFFFFFFFFFFFFFFFFFFFFFFFF AND DUP2 MSTORE PUSH1 0x20 ADD SWAP1 DUP2 MSTORE PUSH1 0x20 ADD PUSH1 0x0 KECCAK256 PUSH1 0x0 DUP4 DUP2 MSTORE PUSH1 0x20 ADD SWAP1 DUP2 MSTORE PUSH1 0x20 ADD PUSH1 0x0 KECCAK256 DUP1 SLOAD DUP1 PUSH1 0x20 MUL PUSH1 0x20 ADD PUSH1 0x40 MLOAD SWAP1 DUP2 ADD PUSH1 0x40 MSTORE DUP1 SWAP3 SWAP2 SWAP1 DUP2 DUP2 MSTORE PUSH1 0x20 ADD PUSH1 0x0 SWAP1 JUMPDEST DUP3 DUP3 LT ISZERO PUSH2 0x259E JUMPI DUP4 DUP3 SWAP1 PUSH1 0x0 MSTORE PUSH1 0x20 PUSH1 0x0 KECCAK256 SWAP1 PUSH1 0x2 MUL ADD PUSH1 0x40 MLOAD DUP1 PUSH1 0x40 ADD PUSH1 0x40 MSTORE SWAP1 DUP2 PUSH1 0x0 DUP3 ADD SLOAD DUP2 MSTORE PUSH1 0x20 ADD PUSH1 0x1 DUP3 ADD SLOAD DUP2 MSTORE POP POP DUP2 MSTORE PUSH1 0x20 ADD SWAP1 PUSH1 0x1 ADD SWAP1 PUSH2 0x2558 JUMP JUMPDEST POP POP POP POP SWAP1 POP PUSH1 0x0 DUP1 PUSH1 0x0 SWAP1 POP JUMPDEST DUP3 MLOAD DUP2 LT ISZERO PUSH2 0x266A JUMPI PUSH1 0x0 DUP4 DUP3 DUP2 MLOAD DUP2 LT PUSH2 0x25F0 JUMPI PUSH32 0x4E487B7100000000000000000000000000000000000000000000000000000000 PUSH1 0x0 MSTORE PUSH1 0x32 PUSH1 0x4 MSTORE PUSH1 0x24 PUSH1 0x0 REVERT JUMPDEST PUSH1 0x20 MUL PUSH1 0x20 ADD ADD MLOAD SWAP1 POP DUP1 PUSH1 0x0 ADD MLOAD DUP8 LT ISZERO PUSH2 0x260C JUMPI POP PUSH2 0x266A JUMP JUMPDEST DUP1 PUSH1 0x0 ADD MLOAD DUP8 LT ISZERO DUP1 ISZERO PUSH2 0x2632 JUMPI POP DUP1 PUSH1 0x20 ADD MLOAD DUP2 PUSH1 0x0 ADD MLOAD PUSH2 0x262F SWAP2 SWAP1 PUSH2 0x3E47 JUMP JUMPDEST DUP8 LT JUMPDEST ISZERO PUSH2 0x2644 JUMPI DUP5 SWAP6 POP POP POP POP POP POP PUSH2 0x26BC JUMP JUMPDEST DUP1 PUSH1 0x20 ADD MLOAD DUP4 PUSH2 0x2654 SWAP2 SWAP1 PUSH2 0x3E47 JUMP JUMPDEST SWAP3 POP POP DUP1 DUP1 PUSH2 0x2662 SWAP1 PUSH2 0x402C JUMP JUMPDEST SWAP2 POP POP PUSH2 0x25AC JUMP JUMPDEST POP POP POP DUP1 DUP1 PUSH2 0x2678 SWAP1 PUSH2 0x402C JUMP JUMPDEST SWAP2 POP POP PUSH2 0x24A0 JUMP JUMPDEST POP PUSH1 0x40 MLOAD PUSH32 0x8C379A000000000000000000000000000000000000000000000000000000000 DUP2 MSTORE PUSH1 0x4 ADD PUSH2 0x26B3 SWAP1 PUSH2 0x3BA2 JUMP JUMPDEST PUSH1 0x40 MLOAD DUP1 SWAP2 SUB SWAP1 REVERT JUMPDEST SWAP3 SWAP2 POP POP JUMP JUMPDEST PUSH1 0x0 DUP3 PUSH2 0x26CF DUP6 DUP5 PUSH2 0x2A36 JUMP JUMPDEST EQ SWAP1 POP SWAP4 SWAP3 POP POP POP JUMP JUMPDEST PUSH1 0x0 PUSH1 0x4 PUSH1 0x0 DUP6 PUSH20 0xFFFFFFFFFFFFFFFFFFFFFFFFFFFFFFFFFFFFFFFF AND PUSH20 0xFFFFFFFFFFFFFFFFFFFFFFFFFFFFFFFFFFFFFFFF AND DUP2 MSTORE PUSH1 0x20 ADD SWAP1 DUP2 MSTORE PUSH1 0x20 ADD PUSH1 0x0 KECCAK256 PUSH1 0x0 DUP5 DUP2 MSTORE PUSH1 0x20 ADD SWAP1 DUP2 MSTORE PUSH1 0x20 ADD PUSH1 0x0 KECCAK256 SWAP1 POP PUSH1 0x0 DUP2 DUP1 SLOAD SWAP1 POP EQ ISZERO PUSH2 0x2795 JUMPI DUP1 PUSH1 0x40 MLOAD DUP1 PUSH1 0x40 ADD PUSH1 0x40 MSTORE DUP1 DUP5 DUP2 MSTORE PUSH1 0x20 ADD PUSH1 0x1 DUP2 MSTORE POP SWAP1 DUP1 PUSH1 0x1 DUP2 SLOAD ADD DUP1 DUP3 SSTORE DUP1 SWAP2 POP POP PUSH1 0x1 SWAP1 SUB SWAP1 PUSH1 0x0 MSTORE PUSH1 0x20 PUSH1 0x0 KECCAK256 SWAP1 PUSH1 0x2 MUL ADD PUSH1 0x0 SWAP1 SWAP2 SWAP1 SWAP2 SWAP1 SWAP2 POP PUSH1 0x0 DUP3 ADD MLOAD DUP2 PUSH1 0x0 ADD SSTORE PUSH1 0x20 DUP3 ADD MLOAD DUP2 PUSH1 0x1 ADD SSTORE POP POP PUSH2 0x2883 JUMP JUMPDEST PUSH1 0x0 DUP2 PUSH1 0x1 DUP4 DUP1 SLOAD SWAP1 POP PUSH2 0x27A9 SWAP2 SWAP1 PUSH2 0x3ECE JUMP JUMPDEST DUP2 SLOAD DUP2 LT PUSH2 0x27E0 JUMPI PUSH32 0x4E487B7100000000000000000000000000000000000000000000000000000000 PUSH1 0x0 MSTORE PUSH1 0x32 PUSH1 0x4 MSTORE PUSH1 0x24 PUSH1 0x0 REVERT JUMPDEST SWAP1 PUSH1 0x0 MSTORE PUSH1 0x20 PUSH1 0x0 KECCAK256 SWAP1 PUSH1 0x2 MUL ADD SWAP1 POP DUP3 DUP2 PUSH1 0x1 ADD SLOAD DUP3 PUSH1 0x0 ADD SLOAD PUSH2 0x2805 SWAP2 SWAP1 PUSH2 0x3E47 JUMP JUMPDEST EQ ISZERO PUSH2 0x282A JUMPI DUP1 PUSH1 0x1 ADD PUSH1 0x0 DUP2 SLOAD DUP1 SWAP3 SWAP2 SWAP1 PUSH2 0x2820 SWAP1 PUSH2 0x402C JUMP JUMPDEST SWAP2 SWAP1 POP SSTORE POP PUSH2 0x2881 JUMP JUMPDEST DUP2 PUSH1 0x40 MLOAD DUP1 PUSH1 0x40 ADD PUSH1 0x40 MSTORE DUP1 DUP6 DUP2 MSTORE PUSH1 0x20 ADD PUSH1 0x1 DUP2 MSTORE POP SWAP1 DUP1 PUSH1 0x1 DUP2 SLOAD ADD DUP1 DUP3 SSTORE DUP1 SWAP2 POP POP PUSH1 0x1 SWAP1 SUB SWAP1 PUSH1 0x0 MSTORE PUSH1 0x20 PUSH1 0x0 KECCAK256 SWAP1 PUSH1 0x2 MUL ADD PUSH1 0x0 SWAP1 SWAP2 SWAP1 SWAP2 SWAP1 SWAP2 POP PUSH1 0x0 DUP3 ADD MLOAD DUP2 PUSH1 0x0 ADD SSTORE PUSH1 0x20 DUP3 ADD MLOAD DUP2 PUSH1 0x1 ADD SSTORE POP POP JUMPDEST POP JUMPDEST POP POP POP POP JUMP JUMPDEST PUSH1 0x60 PUSH1 0x0 DUP3 EQ ISZERO PUSH2 0x28D1 JUMPI PUSH1 0x40 MLOAD DUP1 PUSH1 0x40 ADD PUSH1 0x40 MSTORE DUP1 PUSH1 0x1 DUP2 MSTORE PUSH1 0x20 ADD PUSH32 0x3000000000000000000000000000000000000000000000000000000000000000 DUP2 MSTORE POP SWAP1 POP PUSH2 0x2A31 JUMP JUMPDEST PUSH1 0x0 DUP3 SWAP1 POP PUSH1 0x0 JUMPDEST PUSH1 0x0 DUP3 EQ PUSH2 0x2903 JUMPI DUP1 DUP1 PUSH2 0x28EC SWAP1 PUSH2 0x402C JUMP JUMPDEST SWAP2 POP POP PUSH1 0xA DUP3 PUSH2 0x28FC SWAP2 SWAP1 PUSH2 0x3E9D JUMP JUMPDEST SWAP2 POP PUSH2 0x28D9 JUMP JUMPDEST PUSH1 0x0 DUP2 PUSH8 0xFFFFFFFFFFFFFFFF DUP2 GT ISZERO PUSH2 0x2945 JUMPI PUSH32 0x4E487B7100000000000000000000000000000000000000000000000000000000 PUSH1 0x0 MSTORE PUSH1 0x41 PUSH1 0x4 MSTORE PUSH1 0x24 PUSH1 0x0 REVERT JUMPDEST PUSH1 0x40 MLOAD SWAP1 DUP1 DUP3 MSTORE DUP1 PUSH1 0x1F ADD PUSH1 0x1F NOT AND PUSH1 0x20 ADD DUP3 ADD PUSH1 0x40 MSTORE DUP1 ISZERO PUSH2 0x2977 JUMPI DUP2 PUSH1 0x20 ADD PUSH1 0x1 DUP3 MUL DUP1 CALLDATASIZE DUP4 CALLDATACOPY DUP1 DUP3 ADD SWAP2 POP POP SWAP1 POP JUMPDEST POP SWAP1 POP JUMPDEST PUSH1 0x0 DUP6 EQ PUSH2 0x2A2A JUMPI PUSH1 0x1 DUP3 PUSH2 0x2990 SWAP2 SWAP1 PUSH2 0x3ECE JUMP JUMPDEST SWAP2 POP PUSH1 0xA DUP6 PUSH2 0x299F SWAP2 SWAP1 PUSH2 0x40B5 JUMP JUMPDEST PUSH1 0x30 PUSH2 0x29AB SWAP2 SWAP1 PUSH2 0x3E47 JUMP JUMPDEST PUSH1 0xF8 SHL DUP2 DUP4 DUP2 MLOAD DUP2 LT PUSH2 0x29E7 JUMPI PUSH32 0x4E487B7100000000000000000000000000000000000000000000000000000000 PUSH1 0x0 MSTORE PUSH1 0x32 PUSH1 0x4 MSTORE PUSH1 0x24 PUSH1 0x0 REVERT JUMPDEST PUSH1 0x20 ADD ADD SWAP1 PUSH31 0xFFFFFFFFFFFFFFFFFFFFFFFFFFFFFFFFFFFFFFFFFFFFFFFFFFFFFFFFFFFFFF NOT AND SWAP1 DUP2 PUSH1 0x0 BYTE SWAP1 MSTORE8 POP PUSH1 0xA DUP6 PUSH2 0x2A23 SWAP2 SWAP1 PUSH2 0x3E9D JUMP JUMPDEST SWAP5 POP PUSH2 0x297B JUMP JUMPDEST DUP1 SWAP4 POP POP POP POP JUMPDEST SWAP2 SWAP1 POP JUMP JUMPDEST PUSH1 0x0 DUP1 DUP3 SWAP1 POP PUSH1 0x0 JUMPDEST DUP5 MLOAD DUP2 LT ISZERO PUSH2 0x2B04 JUMPI PUSH1 0x0 DUP6 DUP3 DUP2 MLOAD DUP2 LT PUSH2 0x2A83 JUMPI PUSH32 0x4E487B7100000000000000000000000000000000000000000000000000000000 PUSH1 0x0 MSTORE PUSH1 0x32 PUSH1 0x4 MSTORE PUSH1 0x24 PUSH1 0x0 REVERT JUMPDEST PUSH1 0x20 MUL PUSH1 0x20 ADD ADD MLOAD SWAP1 POP DUP1 DUP4 GT PUSH2 0x2AC4 JUMPI DUP3 DUP2 PUSH1 0x40 MLOAD PUSH1 0x20 ADD PUSH2 0x2AA7 SWAP3 SWAP2 SWAP1 PUSH2 0x39E9 JUMP JUMPDEST PUSH1 0x40 MLOAD PUSH1 0x20 DUP2 DUP4 SUB SUB DUP2 MSTORE SWAP1 PUSH1 0x40 MSTORE DUP1 MLOAD SWAP1 PUSH1 0x20 ADD KECCAK256 SWAP3 POP PUSH2 0x2AF0 JUMP JUMPDEST DUP1 DUP4 PUSH1 0x40 MLOAD PUSH1 0x20 ADD PUSH2 0x2AD7 SWAP3 SWAP2 SWAP1 PUSH2 0x39E9 JUMP JUMPDEST PUSH1 0x40 MLOAD PUSH1 0x20 DUP2 DUP4 SUB SUB DUP2 MSTORE SWAP1 PUSH1 0x40 MSTORE DUP1 MLOAD SWAP1 PUSH1 0x20 ADD KECCAK256 SWAP3 POP JUMPDEST POP DUP1 DUP1 PUSH2 0x2AFC SWAP1 PUSH2 0x402C JUMP JUMPDEST SWAP2 POP POP PUSH2 0x2A3F JUMP JUMPDEST POP DUP1 SWAP2 POP POP SWAP3 SWAP2 POP POP JUMP JUMPDEST DUP3 DUP1 SLOAD PUSH2 0x2B1B SWAP1 PUSH2 0x3FFA JUMP JUMPDEST SWAP1 PUSH1 0x0 MSTORE PUSH1 0x20 PUSH1 0x0 KECCAK256 SWAP1 PUSH1 0x1F ADD PUSH1 0x20 SWAP1 DIV DUP2 ADD SWAP3 DUP3 PUSH2 0x2B3D JUMPI PUSH1 0x0 DUP6 SSTORE PUSH2 0x2B84 JUMP JUMPDEST DUP3 PUSH1 0x1F LT PUSH2 0x2B56 JUMPI DUP1 MLOAD PUSH1 0xFF NOT AND DUP4 DUP1 ADD OR DUP6 SSTORE PUSH2 0x2B84 JUMP JUMPDEST DUP3 DUP1 ADD PUSH1 0x1 ADD DUP6 SSTORE DUP3 ISZERO PUSH2 0x2B84 JUMPI SWAP2 DUP3 ADD JUMPDEST DUP3 DUP2 GT ISZERO PUSH2 0x2B83 JUMPI DUP3 MLOAD DUP3 SSTORE SWAP2 PUSH1 0x20 ADD SWAP2 SWAP1 PUSH1 0x1 ADD SWAP1 PUSH2 0x2B68 JUMP JUMPDEST JUMPDEST POP SWAP1 POP PUSH2 0x2B91 SWAP2 SWAP1 PUSH2 0x2C40 JUMP JUMPDEST POP SWAP1 JUMP JUMPDEST PUSH1 0x40 MLOAD DUP1 PUSH2 0x120 ADD PUSH1 0x40 MSTORE DUP1 PUSH1 0x0 PUSH4 0xFFFFFFFF AND DUP2 MSTORE PUSH1 0x20 ADD PUSH1 0x0 PUSH4 0xFFFFFFFF AND DUP2 MSTORE PUSH1 0x20 ADD PUSH1 0x0 PUSH4 0xFFFFFFFF AND DUP2 MSTORE PUSH1 0x20 ADD PUSH1 0x0 PUSH6 0xFFFFFFFFFFFF AND DUP2 MSTORE PUSH1 0x20 ADD PUSH1 0x0 PUSH6 0xFFFFFFFFFFFF AND DUP2 MSTORE PUSH1 0x20 ADD PUSH1 0x0 PUSH1 0x3 DUP2 GT ISZERO PUSH2 0x2C20 JUMPI PUSH32 0x4E487B7100000000000000000000000000000000000000000000000000000000 PUSH1 0x0 MSTORE PUSH1 0x21 PUSH1 0x4 MSTORE PUSH1 0x24 PUSH1 0x0 REVERT JUMPDEST DUP2 MSTORE PUSH1 0x20 ADD PUSH1 0x0 ISZERO ISZERO DUP2 MSTORE PUSH1 0x20 ADD PUSH1 0x0 DUP1 NOT AND DUP2 MSTORE PUSH1 0x20 ADD PUSH1 0x60 DUP2 MSTORE POP SWAP1 JUMP JUMPDEST JUMPDEST DUP1 DUP3 GT ISZERO PUSH2 0x2C59 JUMPI PUSH1 0x0 DUP2 PUSH1 0x0 SWAP1 SSTORE POP PUSH1 0x1 ADD PUSH2 0x2C41 JUMP JUMPDEST POP SWAP1 JUMP JUMPDEST PUSH1 0x0 DUP2 CALLDATALOAD SWAP1 POP PUSH2 0x2C6C DUP2 PUSH2 0x41E1 JUMP JUMPDEST SWAP3 SWAP2 POP POP JUMP JUMPDEST PUSH1 0x0 DUP1 DUP4 PUSH1 0x1F DUP5 ADD SLT PUSH2 0x2C84 JUMPI PUSH1 0x0 DUP1 REVERT JUMPDEST DUP3 CALLDATALOAD SWAP1 POP PUSH8 0xFFFFFFFFFFFFFFFF DUP2 GT ISZERO PUSH2 0x2C9D JUMPI PUSH1 0x0 DUP1 REVERT JUMPDEST PUSH1 0x20 DUP4 ADD SWAP2 POP DUP4 PUSH1 0x20 DUP3 MUL DUP4 ADD GT ISZERO PUSH2 0x2CB5 JUMPI PUSH1 0x0 DUP1 REVERT JUMPDEST SWAP3 POP SWAP3 SWAP1 POP JUMP JUMPDEST PUSH1 0x0 DUP2 CALLDATALOAD SWAP1 POP PUSH2 0x2CCB DUP2 PUSH2 0x41F8 JUMP JUMPDEST SWAP3 SWAP2 POP POP JUMP JUMPDEST PUSH1 0x0 DUP2 MLOAD SWAP1 POP PUSH2 0x2CE0 DUP2 PUSH2 0x41F8 JUMP JUMPDEST SWAP3 SWAP2 POP POP JUMP JUMPDEST PUSH1 0x0 DUP2 CALLDATALOAD SWAP1 POP PUSH2 0x2CF5 DUP2 PUSH2 0x420F JUMP JUMPDEST SWAP3 SWAP2 POP POP JUMP JUMPDEST PUSH1 0x0 DUP2 CALLDATALOAD SWAP1 POP PUSH2 0x2D0A DUP2 PUSH2 0x4226 JUMP JUMPDEST SWAP3 SWAP2 POP POP JUMP JUMPDEST PUSH1 0x0 PUSH2 0x100 DUP3 DUP5 SUB SLT ISZERO PUSH2 0x2D23 JUMPI PUSH1 0x0 DUP1 REVERT JUMPDEST DUP2 SWAP1 POP SWAP3 SWAP2 POP POP JUMP JUMPDEST PUSH1 0x0 DUP2 CALLDATALOAD SWAP1 POP PUSH2 0x2D3B DUP2 PUSH2 0x4236 JUMP JUMPDEST SWAP3 SWAP2 POP POP JUMP JUMPDEST PUSH1 0x0 DUP2 MLOAD SWAP1 POP PUSH2 0x2D50 DUP2 PUSH2 0x4236 JUMP JUMPDEST SWAP3 SWAP2 POP POP JUMP JUMPDEST PUSH1 0x0 DUP2 CALLDATALOAD SWAP1 POP PUSH2 0x2D65 DUP2 PUSH2 0x424D JUMP JUMPDEST SWAP3 SWAP2 POP POP JUMP JUMPDEST PUSH1 0x0 DUP2 CALLDATALOAD SWAP1 POP PUSH2 0x2D7A DUP2 PUSH2 0x4264 JUMP JUMPDEST SWAP3 SWAP2 POP POP JUMP JUMPDEST PUSH1 0x0 PUSH1 0x20 DUP3 DUP5 SUB SLT ISZERO PUSH2 0x2D92 JUMPI PUSH1 0x0 DUP1 REVERT JUMPDEST PUSH1 0x0 PUSH2 0x2DA0 DUP5 DUP3 DUP6 ADD PUSH2 0x2C5D JUMP JUMPDEST SWAP2 POP POP SWAP3 SWAP2 POP POP JUMP JUMPDEST PUSH1 0x0 DUP1 PUSH1 0x40 DUP4 DUP6 SUB SLT ISZERO PUSH2 0x2DBC JUMPI PUSH1 0x0 DUP1 REVERT JUMPDEST PUSH1 0x0 PUSH2 0x2DCA DUP6 DUP3 DUP7 ADD PUSH2 0x2C5D JUMP JUMPDEST SWAP3 POP POP PUSH1 0x20 DUP4 ADD CALLDATALOAD PUSH8 0xFFFFFFFFFFFFFFFF DUP2 GT ISZERO PUSH2 0x2DE7 JUMPI PUSH1 0x0 DUP1 REVERT JUMPDEST PUSH2 0x2DF3 DUP6 DUP3 DUP7 ADD PUSH2 0x2D10 JUMP JUMPDEST SWAP2 POP POP SWAP3 POP SWAP3 SWAP1 POP JUMP JUMPDEST PUSH1 0x0 DUP1 PUSH1 0x40 DUP4 DUP6 SUB SLT ISZERO PUSH2 0x2E10 JUMPI PUSH1 0x0 DUP1 REVERT JUMPDEST PUSH1 0x0 PUSH2 0x2E1E DUP6 DUP3 DUP7 ADD PUSH2 0x2C5D JUMP JUMPDEST SWAP3 POP POP PUSH1 0x20 PUSH2 0x2E2F DUP6 DUP3 DUP7 ADD PUSH2 0x2D2C JUMP JUMPDEST SWAP2 POP POP SWAP3 POP SWAP3 SWAP1 POP JUMP JUMPDEST PUSH1 0x0 DUP1 PUSH1 0x0 PUSH1 0x60 DUP5 DUP7 SUB SLT ISZERO PUSH2 0x2E4E JUMPI PUSH1 0x0 DUP1 REVERT JUMPDEST PUSH1 0x0 PUSH2 0x2E5C DUP7 DUP3 DUP8 ADD PUSH2 0x2C5D JUMP JUMPDEST SWAP4 POP POP PUSH1 0x20 PUSH2 0x2E6D DUP7 DUP3 DUP8 ADD PUSH2 0x2D2C JUMP JUMPDEST SWAP3 POP POP PUSH1 0x40 PUSH2 0x2E7E DUP7 DUP3 DUP8 ADD PUSH2 0x2C5D JUMP JUMPDEST SWAP2 POP POP SWAP3 POP SWAP3 POP SWAP3 JUMP JUMPDEST PUSH1 0x0 DUP1 PUSH1 0x0 DUP1 PUSH1 0x0 PUSH1 0x80 DUP7 DUP9 SUB SLT ISZERO PUSH2 0x2EA0 JUMPI PUSH1 0x0 DUP1 REVERT JUMPDEST PUSH1 0x0 PUSH2 0x2EAE DUP9 DUP3 DUP10 ADD PUSH2 0x2C5D JUMP JUMPDEST SWAP6 POP POP PUSH1 0x20 PUSH2 0x2EBF DUP9 DUP3 DUP10 ADD PUSH2 0x2D2C JUMP JUMPDEST SWAP5 POP POP PUSH1 0x40 DUP7 ADD CALLDATALOAD PUSH8 0xFFFFFFFFFFFFFFFF DUP2 GT ISZERO PUSH2 0x2EDC JUMPI PUSH1 0x0 DUP1 REVERT JUMPDEST PUSH2 0x2EE8 DUP9 DUP3 DUP10 ADD PUSH2 0x2C72 JUMP JUMPDEST SWAP4 POP SWAP4 POP POP PUSH1 0x60 PUSH2 0x2EFB DUP9 DUP3 DUP10 ADD PUSH2 0x2D56 JUMP JUMPDEST SWAP2 POP POP SWAP3 SWAP6 POP SWAP3 SWAP6 SWAP1 SWAP4 POP JUMP JUMPDEST PUSH1 0x0 DUP1 PUSH1 0x0 PUSH1 0x60 DUP5 DUP7 SUB SLT ISZERO PUSH2 0x2F1D JUMPI PUSH1 0x0 DUP1 REVERT JUMPDEST PUSH1 0x0 PUSH2 0x2F2B DUP7 DUP3 DUP8 ADD PUSH2 0x2C5D JUMP JUMPDEST SWAP4 POP POP PUSH1 0x20 PUSH2 0x2F3C DUP7 DUP3 DUP8 ADD PUSH2 0x2D2C JUMP JUMPDEST SWAP3 POP POP PUSH1 0x40 DUP5 ADD CALLDATALOAD PUSH8 0xFFFFFFFFFFFFFFFF DUP2 GT ISZERO PUSH2 0x2F59 JUMPI PUSH1 0x0 DUP1 REVERT JUMPDEST PUSH2 0x2F65 DUP7 DUP3 DUP8 ADD PUSH2 0x2D10 JUMP JUMPDEST SWAP2 POP POP SWAP3 POP SWAP3 POP SWAP3 JUMP JUMPDEST PUSH1 0x0 PUSH1 0x20 DUP3 DUP5 SUB SLT ISZERO PUSH2 0x2F81 JUMPI PUSH1 0x0 DUP1 REVERT JUMPDEST PUSH1 0x0 PUSH2 0x2F8F DUP5 DUP3 DUP6 ADD PUSH2 0x2CBC JUMP JUMPDEST SWAP2 POP POP SWAP3 SWAP2 POP POP JUMP JUMPDEST PUSH1 0x0 PUSH1 0x20 DUP3 DUP5 SUB SLT ISZERO PUSH2 0x2FAA JUMPI PUSH1 0x0 DUP1 REVERT JUMPDEST PUSH1 0x0 PUSH2 0x2FB8 DUP5 DUP3 DUP6 ADD PUSH2 0x2CD1 JUMP JUMPDEST SWAP2 POP POP SWAP3 SWAP2 POP POP JUMP JUMPDEST PUSH1 0x0 PUSH1 0x20 DUP3 DUP5 SUB SLT ISZERO PUSH2 0x2FD3 JUMPI PUSH1 0x0 DUP1 REVERT JUMPDEST PUSH1 0x0 PUSH2 0x2FE1 DUP5 DUP3 DUP6 ADD PUSH2 0x2CE6 JUMP JUMPDEST SWAP2 POP POP SWAP3 SWAP2 POP POP JUMP JUMPDEST PUSH1 0x0 PUSH1 0x20 DUP3 DUP5 SUB SLT ISZERO PUSH2 0x2FFC JUMPI PUSH1 0x0 DUP1 REVERT JUMPDEST PUSH1 0x0 PUSH2 0x300A DUP5 DUP3 DUP6 ADD PUSH2 0x2CFB JUMP JUMPDEST SWAP2 POP POP SWAP3 SWAP2 POP POP JUMP JUMPDEST PUSH1 0x0 PUSH1 0x20 DUP3 DUP5 SUB SLT ISZERO PUSH2 0x3025 JUMPI PUSH1 0x0 DUP1 REVERT JUMPDEST PUSH1 0x0 PUSH2 0x3033 DUP5 DUP3 DUP6 ADD PUSH2 0x2D41 JUMP JUMPDEST SWAP2 POP POP SWAP3 SWAP2 POP POP JUMP JUMPDEST PUSH1 0x0 PUSH1 0x20 DUP3 DUP5 SUB SLT ISZERO PUSH2 0x304E JUMPI PUSH1 0x0 DUP1 REVERT JUMPDEST PUSH1 0x0 PUSH2 0x305C DUP5 DUP3 DUP6 ADD PUSH2 0x2D56 JUMP JUMPDEST SWAP2 POP POP SWAP3 SWAP2 POP POP JUMP JUMPDEST PUSH1 0x0 PUSH1 0x20 DUP3 DUP5 SUB SLT ISZERO PUSH2 0x3077 JUMPI PUSH1 0x0 DUP1 REVERT JUMPDEST PUSH1 0x0 PUSH2 0x3085 DUP5 DUP3 DUP6 ADD PUSH2 0x2D6B JUMP JUMPDEST SWAP2 POP POP SWAP3 SWAP2 POP POP JUMP JUMPDEST PUSH2 0x3097 DUP2 PUSH2 0x3F02 JUMP JUMPDEST DUP3 MSTORE POP POP JUMP JUMPDEST PUSH2 0x30AE PUSH2 0x30A9 DUP3 PUSH2 0x3F02 JUMP JUMPDEST PUSH2 0x4075 JUMP JUMPDEST DUP3 MSTORE POP POP JUMP JUMPDEST PUSH2 0x30BD DUP2 PUSH2 0x3F14 JUMP JUMPDEST DUP3 MSTORE POP POP JUMP JUMPDEST PUSH2 0x30CC DUP2 PUSH2 0x3F14 JUMP JUMPDEST DUP3 MSTORE POP POP JUMP JUMPDEST PUSH2 0x30DB DUP2 PUSH2 0x3F20 JUMP JUMPDEST DUP3 MSTORE POP POP JUMP JUMPDEST PUSH2 0x30F2 PUSH2 0x30ED DUP3 PUSH2 0x3F20 JUMP JUMPDEST PUSH2 0x4087 JUMP JUMPDEST DUP3 MSTORE POP POP JUMP JUMPDEST PUSH2 0x3101 DUP2 PUSH2 0x3FB5 JUMP JUMPDEST DUP3 MSTORE POP POP JUMP JUMPDEST PUSH1 0x0 PUSH2 0x3112 DUP3 PUSH2 0x3E0F JUMP JUMPDEST PUSH2 0x311C DUP2 DUP6 PUSH2 0x3E1A JUMP JUMPDEST SWAP4 POP PUSH2 0x312C DUP2 DUP6 PUSH1 0x20 DUP7 ADD PUSH2 0x3FC7 JUMP JUMPDEST PUSH2 0x3135 DUP2 PUSH2 0x41A2 JUMP JUMPDEST DUP5 ADD SWAP2 POP POP SWAP3 SWAP2 POP POP JUMP JUMPDEST PUSH1 0x0 PUSH2 0x314B DUP3 PUSH2 0x3E0F JUMP JUMPDEST PUSH2 0x3155 DUP2 DUP6 PUSH2 0x3E2B JUMP JUMPDEST SWAP4 POP PUSH2 0x3165 DUP2 DUP6 PUSH1 0x20 DUP7 ADD PUSH2 0x3FC7 JUMP JUMPDEST PUSH2 0x316E DUP2 PUSH2 0x41A2 JUMP JUMPDEST DUP5 ADD SWAP2 POP POP SWAP3 SWAP2 POP POP JUMP JUMPDEST PUSH1 0x0 PUSH2 0x3184 DUP3 PUSH2 0x3E0F JUMP JUMPDEST PUSH2 0x318E DUP2 DUP6 PUSH2 0x3E3C JUMP JUMPDEST SWAP4 POP PUSH2 0x319E DUP2 DUP6 PUSH1 0x20 DUP7 ADD PUSH2 0x3FC7 JUMP JUMPDEST DUP1 DUP5 ADD SWAP2 POP POP SWAP3 SWAP2 POP POP JUMP JUMPDEST PUSH1 0x0 DUP2 SLOAD PUSH2 0x31B7 DUP2 PUSH2 0x3FFA JUMP JUMPDEST PUSH2 0x31C1 DUP2 DUP7 PUSH2 0x3E3C JUMP JUMPDEST SWAP5 POP PUSH1 0x1 DUP3 AND PUSH1 0x0 DUP2 EQ PUSH2 0x31DC JUMPI PUSH1 0x1 DUP2 EQ PUSH2 0x31ED JUMPI PUSH2 0x3220 JUMP JUMPDEST PUSH1 0xFF NOT DUP4 AND DUP7 MSTORE DUP2 DUP7 ADD SWAP4 POP PUSH2 0x3220 JUMP JUMPDEST PUSH2 0x31F6 DUP6 PUSH2 0x3DFA JUMP JUMPDEST PUSH1 0x0 JUMPDEST DUP4 DUP2 LT ISZERO PUSH2 0x3218 JUMPI DUP2 SLOAD DUP2 DUP10 ADD MSTORE PUSH1 0x1 DUP3 ADD SWAP2 POP PUSH1 0x20 DUP2 ADD SWAP1 POP PUSH2 0x31F9 JUMP JUMPDEST DUP4 DUP9 ADD SWAP6 POP POP POP JUMPDEST POP POP POP SWAP3 SWAP2 POP POP JUMP JUMPDEST PUSH1 0x0 PUSH2 0x3236 PUSH1 0x36 DUP4 PUSH2 0x3E2B JUMP JUMPDEST SWAP2 POP PUSH32 0x43616E6E6F742068617665207374617274446174652067726561746572207468 PUSH1 0x0 DUP4 ADD MSTORE PUSH32 0x616E206F7220657175616C20746F20656E644461746500000000000000000000 PUSH1 0x20 DUP4 ADD MSTORE PUSH1 0x40 DUP3 ADD SWAP1 POP SWAP2 SWAP1 POP JUMP JUMPDEST PUSH1 0x0 PUSH2 0x329C PUSH1 0x24 DUP4 PUSH2 0x3E2B JUMP JUMPDEST SWAP2 POP PUSH32 0x43616E6E6F74206F766572777269746520756E696E697469616C697A65642063 PUSH1 0x0 DUP4 ADD MSTORE PUSH32 0x6C61696D00000000000000000000000000000000000000000000000000000000 PUSH1 0x20 DUP4 ADD MSTORE PUSH1 0x40 DUP3 ADD SWAP1 POP SWAP2 SWAP1 POP JUMP JUMPDEST PUSH1 0x0 PUSH2 0x3302 PUSH1 0x16 DUP4 PUSH2 0x3E2B JUMP JUMPDEST SWAP2 POP PUSH32 0x43616E6E6F74206D6F6469667920746F74616C4D617800000000000000000000 PUSH1 0x0 DUP4 ADD MSTORE PUSH1 0x20 DUP3 ADD SWAP1 POP SWAP2 SWAP1 POP JUMP JUMPDEST PUSH1 0x0 PUSH2 0x3342 PUSH1 0x27 DUP4 PUSH2 0x3E2B JUMP JUMPDEST SWAP2 POP PUSH32 0x43616E6E6F74206861766520746F74616C4D6178206772656174657220746861 PUSH1 0x0 DUP4 ADD MSTORE PUSH32 0x6E20313030303000000000000000000000000000000000000000000000000000 PUSH1 0x20 DUP4 ADD MSTORE PUSH1 0x40 DUP3 ADD SWAP1 POP SWAP2 SWAP1 POP JUMP JUMPDEST PUSH1 0x0 PUSH2 0x33A8 PUSH1 0x2F DUP4 PUSH2 0x3E2B JUMP JUMPDEST SWAP2 POP PUSH32 0x43616E6E6F7420696E697469616C697A65207769746820696E76616C69642073 PUSH1 0x0 DUP4 ADD MSTORE PUSH32 0x746F726167652070726F746F636F6C0000000000000000000000000000000000 PUSH1 0x20 DUP4 ADD MSTORE PUSH1 0x40 DUP3 ADD SWAP1 POP SWAP2 SWAP1 POP JUMP JUMPDEST PUSH1 0x0 PUSH2 0x340E PUSH1 0x2B DUP4 PUSH2 0x3E2B JUMP JUMPDEST SWAP2 POP PUSH32 0x57616C6C6574206973206E6F7420616E2061646D696E6973747261746F722066 PUSH1 0x0 DUP4 ADD MSTORE PUSH32 0x6F7220636F6E7472616374000000000000000000000000000000000000000000 PUSH1 0x20 DUP4 ADD MSTORE PUSH1 0x40 DUP3 ADD SWAP1 POP SWAP2 SWAP1 POP JUMP JUMPDEST PUSH1 0x0 PUSH2 0x3474 PUSH1 0xD DUP4 PUSH2 0x3E2B JUMP JUMPDEST SWAP2 POP PUSH32 0x496E76616C696420746F6B656E00000000000000000000000000000000000000 PUSH1 0x0 DUP4 ADD MSTORE PUSH1 0x20 DUP3 ADD SWAP1 POP SWAP2 SWAP1 POP JUMP JUMPDEST PUSH1 0x0 PUSH2 0x34B4 PUSH1 0x25 DUP4 PUSH2 0x3E2B JUMP JUMPDEST SWAP2 POP PUSH32 0x43616E6E6F7420696E697469616C697A65207769746820656D707479206C6F63 PUSH1 0x0 DUP4 ADD MSTORE PUSH32 0x6174696F6E000000000000000000000000000000000000000000000000000000 PUSH1 0x20 DUP4 ADD MSTORE PUSH1 0x40 DUP3 ADD SWAP1 POP SWAP2 SWAP1 POP JUMP JUMPDEST PUSH1 0x0 PUSH2 0x351A PUSH1 0x1D DUP4 PUSH2 0x3E2B JUMP JUMPDEST SWAP2 POP PUSH32 0x5472616E73616374696F6E206265666F72652073746172742064617465000000 PUSH1 0x0 DUP4 ADD MSTORE PUSH1 0x20 DUP3 ADD SWAP1 POP SWAP2 SWAP1 POP JUMP JUMPDEST PUSH1 0x0 PUSH2 0x355A PUSH1 0x15 DUP4 PUSH2 0x3E2B JUMP JUMPDEST SWAP2 POP PUSH32 0x436C61696D206E6F7420696E697469616C697A65640000000000000000000000 PUSH1 0x0 DUP4 ADD MSTORE PUSH1 0x20 DUP3 ADD SWAP1 POP SWAP2 SWAP1 POP JUMP JUMPDEST PUSH1 0x0 PUSH2 0x359A PUSH1 0x1E DUP4 PUSH2 0x3E2B JUMP JUMPDEST SWAP2 POP PUSH32 0x4E6F20636C61696D7320666F722063726561746F7220636F6E74726163740000 PUSH1 0x0 DUP4 ADD MSTORE PUSH1 0x20 DUP3 ADD SWAP1 POP SWAP2 SWAP1 POP JUMP JUMPDEST PUSH1 0x0 PUSH2 0x35DA PUSH1 0x5 DUP4 PUSH2 0x3E3C JUMP JUMPDEST SWAP2 POP PUSH32 0x2E6A736F6E000000000000000000000000000000000000000000000000000000 PUSH1 0x0 DUP4 ADD MSTORE PUSH1 0x5 DUP3 ADD SWAP1 POP SWAP2 SWAP1 POP JUMP JUMPDEST PUSH1 0x0 PUSH2 0x361A PUSH1 0x19 DUP4 PUSH2 0x3E2B JUMP JUMPDEST SWAP2 POP PUSH32 0x43616E6E6F742064656372656173652077616C6C65744D617800000000000000 PUSH1 0x0 DUP4 ADD MSTORE PUSH1 0x20 DUP3 ADD SWAP1 POP SWAP2 SWAP1 POP JUMP JUMPDEST PUSH1 0x0 PUSH2 0x365A PUSH1 0x2C DUP4 PUSH2 0x3E2B JUMP JUMPDEST SWAP2 POP PUSH32 0x4D6178696D756D20746F6B656E7320616C7265616479206D696E74656420666F PUSH1 0x0 DUP4 ADD MSTORE PUSH32 0x72207468697320636C61696D0000000000000000000000000000000000000000 PUSH1 0x20 DUP4 ADD MSTORE PUSH1 0x40 DUP3 ADD SWAP1 POP SWAP2 SWAP1 POP JUMP JUMPDEST PUSH1 0x0 PUSH2 0x36C0 PUSH1 0x1D DUP4 PUSH2 0x3E2B JUMP JUMPDEST SWAP2 POP PUSH32 0x436F756C64206E6F7420766572696679206D65726B6C652070726F6F66000000 PUSH1 0x0 DUP4 ADD MSTORE PUSH1 0x20 DUP3 ADD SWAP1 POP SWAP2 SWAP1 POP JUMP JUMPDEST PUSH1 0x0 PUSH2 0x3700 PUSH1 0x2D DUP4 PUSH2 0x3E2B JUMP JUMPDEST SWAP2 POP PUSH32 0x4D6178696D756D20746F6B656E7320616C7265616479206D696E74656420666F PUSH1 0x0 DUP4 ADD MSTORE PUSH32 0x7220746869732077616C6C657400000000000000000000000000000000000000 PUSH1 0x20 DUP4 ADD MSTORE PUSH1 0x40 DUP3 ADD SWAP1 POP SWAP2 SWAP1 POP JUMP JUMPDEST PUSH1 0x0 PUSH2 0x3766 PUSH1 0x23 DUP4 PUSH2 0x3E2B JUMP JUMPDEST SWAP2 POP PUSH32 0x43616E6E6F742073657420696E76616C69642073746F726167652070726F746F PUSH1 0x0 DUP4 ADD MSTORE PUSH32 0x636F6C0000000000000000000000000000000000000000000000000000000000 PUSH1 0x20 DUP4 ADD MSTORE PUSH1 0x40 DUP3 ADD SWAP1 POP SWAP2 SWAP1 POP JUMP JUMPDEST PUSH1 0x0 PUSH2 0x37CC PUSH1 0x1A DUP4 PUSH2 0x3E2B JUMP JUMPDEST SWAP2 POP PUSH32 0x5472616E73616374696F6E20616674657220656E642064617465000000000000 PUSH1 0x0 DUP4 ADD MSTORE PUSH1 0x20 DUP3 ADD SWAP1 POP SWAP2 SWAP1 POP JUMP JUMPDEST PUSH1 0x0 PUSH2 0x380C PUSH1 0x3C DUP4 PUSH2 0x3E2B JUMP JUMPDEST SWAP2 POP PUSH32 0x4D6178696D756D20746F6B656E7320616C7265616479206D696E74656420666F PUSH1 0x0 DUP4 ADD MSTORE PUSH32 0x7220746869732077616C6C65742070657220616C6C6F636174696F6E00000000 PUSH1 0x20 DUP4 ADD MSTORE PUSH1 0x40 DUP3 ADD SWAP1 POP SWAP2 SWAP1 POP JUMP JUMPDEST PUSH1 0x0 PUSH2 0x3872 PUSH1 0x1 DUP4 PUSH2 0x3E3C JUMP JUMPDEST SWAP2 POP PUSH32 0x2F00000000000000000000000000000000000000000000000000000000000000 PUSH1 0x0 DUP4 ADD MSTORE PUSH1 0x1 DUP3 ADD SWAP1 POP SWAP2 SWAP1 POP JUMP JUMPDEST PUSH1 0x0 PUSH2 0x120 DUP4 ADD PUSH1 0x0 DUP4 ADD MLOAD PUSH2 0x38BE PUSH1 0x0 DUP7 ADD DUP3 PUSH2 0x3979 JUMP JUMPDEST POP PUSH1 0x20 DUP4 ADD MLOAD PUSH2 0x38D1 PUSH1 0x20 DUP7 ADD DUP3 PUSH2 0x3979 JUMP JUMPDEST POP PUSH1 0x40 DUP4 ADD MLOAD PUSH2 0x38E4 PUSH1 0x40 DUP7 ADD DUP3 PUSH2 0x3979 JUMP JUMPDEST POP PUSH1 0x60 DUP4 ADD MLOAD PUSH2 0x38F7 PUSH1 0x60 DUP7 ADD DUP3 PUSH2 0x39AE JUMP JUMPDEST POP PUSH1 0x80 DUP4 ADD MLOAD PUSH2 0x390A PUSH1 0x80 DUP7 ADD DUP3 PUSH2 0x39AE JUMP JUMPDEST POP PUSH1 0xA0 DUP4 ADD MLOAD PUSH2 0x391D PUSH1 0xA0 DUP7 ADD DUP3 PUSH2 0x30F8 JUMP JUMPDEST POP PUSH1 0xC0 DUP4 ADD MLOAD PUSH2 0x3930 PUSH1 0xC0 DUP7 ADD DUP3 PUSH2 0x30B4 JUMP JUMPDEST POP PUSH1 0xE0 DUP4 ADD MLOAD PUSH2 0x3943 PUSH1 0xE0 DUP7 ADD DUP3 PUSH2 0x30D2 JUMP JUMPDEST POP PUSH2 0x100 DUP4 ADD MLOAD DUP5 DUP3 SUB PUSH2 0x100 DUP7 ADD MSTORE PUSH2 0x395D DUP3 DUP3 PUSH2 0x3107 JUMP JUMPDEST SWAP2 POP POP DUP1 SWAP2 POP POP SWAP3 SWAP2 POP POP JUMP JUMPDEST PUSH2 0x3973 DUP2 PUSH2 0x3F89 JUMP JUMPDEST DUP3 MSTORE POP POP JUMP JUMPDEST PUSH2 0x3982 DUP2 PUSH2 0x3F93 JUMP JUMPDEST DUP3 MSTORE POP POP JUMP JUMPDEST PUSH2 0x3991 DUP2 PUSH2 0x3F93 JUMP JUMPDEST DUP3 MSTORE POP POP JUMP JUMPDEST PUSH2 0x39A8 PUSH2 0x39A3 DUP3 PUSH2 0x3F93 JUMP JUMPDEST PUSH2 0x40A3 JUMP JUMPDEST DUP3 MSTORE POP POP JUMP JUMPDEST PUSH2 0x39B7 DUP2 PUSH2 0x3FA3 JUMP JUMPDEST DUP3 MSTORE POP POP JUMP JUMPDEST PUSH1 0x0 PUSH2 0x39C9 DUP3 DUP6 PUSH2 0x309D JUMP JUMPDEST PUSH1 0x14 DUP3 ADD SWAP2 POP PUSH2 0x39D9 DUP3 DUP5 PUSH2 0x3997 JUMP JUMPDEST PUSH1 0x4 DUP3 ADD SWAP2 POP DUP2 SWAP1 POP SWAP4 SWAP3 POP POP POP JUMP JUMPDEST PUSH1 0x0 PUSH2 0x39F5 DUP3 DUP6 PUSH2 0x30E1 JUMP JUMPDEST PUSH1 0x20 DUP3 ADD SWAP2 POP PUSH2 0x3A05 DUP3 DUP5 PUSH2 0x30E1 JUMP JUMPDEST PUSH1 0x20 DUP3 ADD SWAP2 POP DUP2 SWAP1 POP SWAP4 SWAP3 POP POP POP JUMP JUMPDEST PUSH1 0x0 PUSH2 0x3A21 DUP3 DUP7 PUSH2 0x3179 JUMP JUMPDEST SWAP2 POP PUSH2 0x3A2D DUP3 DUP6 PUSH2 0x31AA JUMP JUMPDEST SWAP2 POP PUSH2 0x3A39 DUP3 DUP5 PUSH2 0x3179 JUMP JUMPDEST SWAP2 POP DUP2 SWAP1 POP SWAP5 SWAP4 POP POP POP POP JUMP JUMPDEST PUSH1 0x0 PUSH2 0x3A52 DUP3 DUP5 PUSH2 0x3179 JUMP JUMPDEST SWAP2 POP PUSH2 0x3A5D DUP3 PUSH2 0x35CD JUMP JUMPDEST SWAP2 POP DUP2 SWAP1 POP SWAP3 SWAP2 POP POP JUMP JUMPDEST PUSH1 0x0 PUSH2 0x3A73 DUP3 PUSH2 0x3865 JUMP JUMPDEST SWAP2 POP PUSH2 0x3A7F DUP3 DUP5 PUSH2 0x3179 JUMP JUMPDEST SWAP2 POP DUP2 SWAP1 POP SWAP3 SWAP2 POP POP JUMP JUMPDEST PUSH1 0x0 PUSH1 0x20 DUP3 ADD SWAP1 POP PUSH2 0x3A9F PUSH1 0x0 DUP4 ADD DUP5 PUSH2 0x308E JUMP JUMPDEST SWAP3 SWAP2 POP POP JUMP JUMPDEST PUSH1 0x0 PUSH1 0x20 DUP3 ADD SWAP1 POP PUSH2 0x3ABA PUSH1 0x0 DUP4 ADD DUP5 PUSH2 0x30C3 JUMP JUMPDEST SWAP3 SWAP2 POP POP JUMP JUMPDEST PUSH1 0x0 PUSH1 0x20 DUP3 ADD SWAP1 POP DUP2 DUP2 SUB PUSH1 0x0 DUP4 ADD MSTORE PUSH2 0x3ADA DUP2 DUP5 PUSH2 0x3140 JUMP JUMPDEST SWAP1 POP SWAP3 SWAP2 POP POP JUMP JUMPDEST PUSH1 0x0 PUSH1 0x20 DUP3 ADD SWAP1 POP DUP2 DUP2 SUB PUSH1 0x0 DUP4 ADD MSTORE PUSH2 0x3AFB DUP2 PUSH2 0x3229 JUMP JUMPDEST SWAP1 POP SWAP2 SWAP1 POP JUMP JUMPDEST PUSH1 0x0 PUSH1 0x20 DUP3 ADD SWAP1 POP DUP2 DUP2 SUB PUSH1 0x0 DUP4 ADD MSTORE PUSH2 0x3B1B DUP2 PUSH2 0x328F JUMP JUMPDEST SWAP1 POP SWAP2 SWAP1 POP JUMP JUMPDEST PUSH1 0x0 PUSH1 0x20 DUP3 ADD SWAP1 POP DUP2 DUP2 SUB PUSH1 0x0 DUP4 ADD MSTORE PUSH2 0x3B3B DUP2 PUSH2 0x32F5 JUMP JUMPDEST SWAP1 POP SWAP2 SWAP1 POP JUMP JUMPDEST PUSH1 0x0 PUSH1 0x20 DUP3 ADD SWAP1 POP DUP2 DUP2 SUB PUSH1 0x0 DUP4 ADD MSTORE PUSH2 0x3B5B DUP2 PUSH2 0x3335 JUMP JUMPDEST SWAP1 POP SWAP2 SWAP1 POP JUMP JUMPDEST PUSH1 0x0 PUSH1 0x20 DUP3 ADD SWAP1 POP DUP2 DUP2 SUB PUSH1 0x0 DUP4 ADD MSTORE PUSH2 0x3B7B DUP2 PUSH2 0x339B JUMP JUMPDEST SWAP1 POP SWAP2 SWAP1 POP JUMP JUMPDEST PUSH1 0x0 PUSH1 0x20 DUP3 ADD SWAP1 POP DUP2 DUP2 SUB PUSH1 0x0 DUP4 ADD MSTORE PUSH2 0x3B9B DUP2 PUSH2 0x3401 JUMP JUMPDEST SWAP1 POP SWAP2 SWAP1 POP JUMP JUMPDEST PUSH1 0x0 PUSH1 0x20 DUP3 ADD SWAP1 POP DUP2 DUP2 SUB PUSH1 0x0 DUP4 ADD MSTORE PUSH2 0x3BBB DUP2 PUSH2 0x3467 JUMP JUMPDEST SWAP1 POP SWAP2 SWAP1 POP JUMP JUMPDEST PUSH1 0x0 PUSH1 0x20 DUP3 ADD SWAP1 POP DUP2 DUP2 SUB PUSH1 0x0 DUP4 ADD MSTORE PUSH2 0x3BDB DUP2 PUSH2 0x34A7 JUMP JUMPDEST SWAP1 POP SWAP2 SWAP1 POP JUMP JUMPDEST PUSH1 0x0 PUSH1 0x20 DUP3 ADD SWAP1 POP DUP2 DUP2 SUB PUSH1 0x0 DUP4 ADD MSTORE PUSH2 0x3BFB DUP2 PUSH2 0x350D JUMP JUMPDEST SWAP1 POP SWAP2 SWAP1 POP JUMP JUMPDEST PUSH1 0x0 PUSH1 0x20 DUP3 ADD SWAP1 POP DUP2 DUP2 SUB PUSH1 0x0 DUP4 ADD MSTORE PUSH2 0x3C1B DUP2 PUSH2 0x354D JUMP JUMPDEST SWAP1 POP SWAP2 SWAP1 POP JUMP JUMPDEST PUSH1 0x0 PUSH1 0x20 DUP3 ADD SWAP1 POP DUP2 DUP2 SUB PUSH1 0x0 DUP4 ADD MSTORE PUSH2 0x3C3B DUP2 PUSH2 0x358D JUMP JUMPDEST SWAP1 POP SWAP2 SWAP1 POP JUMP JUMPDEST PUSH1 0x0 PUSH1 0x20 DUP3 ADD SWAP1 POP DUP2 DUP2 SUB PUSH1 0x0 DUP4 ADD MSTORE PUSH2 0x3C5B DUP2 PUSH2 0x360D JUMP JUMPDEST SWAP1 POP SWAP2 SWAP1 POP JUMP JUMPDEST PUSH1 0x0 PUSH1 0x20 DUP3 ADD SWAP1 POP DUP2 DUP2 SUB PUSH1 0x0 DUP4 ADD MSTORE PUSH2 0x3C7B DUP2 PUSH2 0x364D JUMP JUMPDEST SWAP1 POP SWAP2 SWAP1 POP JUMP JUMPDEST PUSH1 0x0 PUSH1 0x20 DUP3 ADD SWAP1 POP DUP2 DUP2 SUB PUSH1 0x0 DUP4 ADD MSTORE PUSH2 0x3C9B DUP2 PUSH2 0x36B3 JUMP JUMPDEST SWAP1 POP SWAP2 SWAP1 POP JUMP JUMPDEST PUSH1 0x0 PUSH1 0x20 DUP3 ADD SWAP1 POP DUP2 DUP2 SUB PUSH1 0x0 DUP4 ADD MSTORE PUSH2 0x3CBB DUP2 PUSH2 0x36F3 JUMP JUMPDEST SWAP1 POP SWAP2 SWAP1 POP JUMP JUMPDEST PUSH1 0x0 PUSH1 0x20 DUP3 ADD SWAP1 POP DUP2 DUP2 SUB PUSH1 0x0 DUP4 ADD MSTORE PUSH2 0x3CDB DUP2 PUSH2 0x3759 JUMP JUMPDEST SWAP1 POP SWAP2 SWAP1 POP JUMP JUMPDEST PUSH1 0x0 PUSH1 0x20 DUP3 ADD SWAP1 POP DUP2 DUP2 SUB PUSH1 0x0 DUP4 ADD MSTORE PUSH2 0x3CFB DUP2 PUSH2 0x37BF JUMP JUMPDEST SWAP1 POP SWAP2 SWAP1 POP JUMP JUMPDEST PUSH1 0x0 PUSH1 0x20 DUP3 ADD SWAP1 POP DUP2 DUP2 SUB PUSH1 0x0 DUP4 ADD MSTORE PUSH2 0x3D1B DUP2 PUSH2 0x37FF JUMP JUMPDEST SWAP1 POP SWAP2 SWAP1 POP JUMP JUMPDEST PUSH1 0x0 PUSH1 0x20 DUP3 ADD SWAP1 POP DUP2 DUP2 SUB PUSH1 0x0 DUP4 ADD MSTORE PUSH2 0x3D3C DUP2 DUP5 PUSH2 0x38A5 JUMP JUMPDEST SWAP1 POP SWAP3 SWAP2 POP POP JUMP JUMPDEST PUSH1 0x0 PUSH1 0x20 DUP3 ADD SWAP1 POP PUSH2 0x3D59 PUSH1 0x0 DUP4 ADD DUP5 PUSH2 0x396A JUMP JUMPDEST SWAP3 SWAP2 POP POP JUMP JUMPDEST PUSH1 0x0 PUSH1 0x40 DUP3 ADD SWAP1 POP PUSH2 0x3D74 PUSH1 0x0 DUP4 ADD DUP6 PUSH2 0x396A JUMP JUMPDEST PUSH2 0x3D81 PUSH1 0x20 DUP4 ADD DUP5 PUSH2 0x308E JUMP JUMPDEST SWAP4 SWAP3 POP POP POP JUMP JUMPDEST PUSH1 0x0 PUSH1 0x20 DUP3 ADD SWAP1 POP PUSH2 0x3D9D PUSH1 0x0 DUP4 ADD DUP5 PUSH2 0x3988 JUMP JUMPDEST SWAP3 SWAP2 POP POP JUMP JUMPDEST PUSH1 0x0 DUP1 DUP4 CALLDATALOAD PUSH1 0x1 PUSH1 0x20 SUB DUP5 CALLDATASIZE SUB SUB DUP2 SLT PUSH2 0x3DBC JUMPI PUSH1 0x0 DUP1 REVERT JUMPDEST DUP1 DUP5 ADD SWAP3 POP DUP3 CALLDATALOAD SWAP2 POP PUSH8 0xFFFFFFFFFFFFFFFF DUP3 GT ISZERO PUSH2 0x3DDA JUMPI PUSH1 0x0 DUP1 REVERT JUMPDEST PUSH1 0x20 DUP4 ADD SWAP3 POP PUSH1 0x1 DUP3 MUL CALLDATASIZE SUB DUP4 SGT ISZERO PUSH2 0x3DF2 JUMPI PUSH1 0x0 DUP1 REVERT JUMPDEST POP SWAP3 POP SWAP3 SWAP1 POP JUMP JUMPDEST PUSH1 0x0 DUP2 SWAP1 POP DUP2 PUSH1 0x0 MSTORE PUSH1 0x20 PUSH1 0x0 KECCAK256 SWAP1 POP SWAP2 SWAP1 POP JUMP JUMPDEST PUSH1 0x0 DUP2 MLOAD SWAP1 POP SWAP2 SWAP1 POP JUMP JUMPDEST PUSH1 0x0 DUP3 DUP3 MSTORE PUSH1 0x20 DUP3 ADD SWAP1 POP SWAP3 SWAP2 POP POP JUMP JUMPDEST PUSH1 0x0 DUP3 DUP3 MSTORE PUSH1 0x20 DUP3 ADD SWAP1 POP SWAP3 SWAP2 POP POP JUMP JUMPDEST PUSH1 0x0 DUP2 SWAP1 POP SWAP3 SWAP2 POP POP JUMP JUMPDEST PUSH1 0x0 PUSH2 0x3E52 DUP3 PUSH2 0x3F89 JUMP JUMPDEST SWAP2 POP PUSH2 0x3E5D DUP4 PUSH2 0x3F89 JUMP JUMPDEST SWAP3 POP DUP3 PUSH32 0xFFFFFFFFFFFFFFFFFFFFFFFFFFFFFFFFFFFFFFFFFFFFFFFFFFFFFFFFFFFFFFFF SUB DUP3 GT ISZERO PUSH2 0x3E92 JUMPI PUSH2 0x3E91 PUSH2 0x40E6 JUMP JUMPDEST JUMPDEST DUP3 DUP3 ADD SWAP1 POP SWAP3 SWAP2 POP POP JUMP JUMPDEST PUSH1 0x0 PUSH2 0x3EA8 DUP3 PUSH2 0x3F89 JUMP JUMPDEST SWAP2 POP PUSH2 0x3EB3 DUP4 PUSH2 0x3F89 JUMP JUMPDEST SWAP3 POP DUP3 PUSH2 0x3EC3 JUMPI PUSH2 0x3EC2 PUSH2 0x4115 JUMP JUMPDEST JUMPDEST DUP3 DUP3 DIV SWAP1 POP SWAP3 SWAP2 POP POP JUMP JUMPDEST PUSH1 0x0 PUSH2 0x3ED9 DUP3 PUSH2 0x3F89 JUMP JUMPDEST SWAP2 POP PUSH2 0x3EE4 DUP4 PUSH2 0x3F89 JUMP JUMPDEST SWAP3 POP DUP3 DUP3 LT ISZERO PUSH2 0x3EF7 JUMPI PUSH2 0x3EF6 PUSH2 0x40E6 JUMP JUMPDEST JUMPDEST DUP3 DUP3 SUB SWAP1 POP SWAP3 SWAP2 POP POP JUMP JUMPDEST PUSH1 0x0 PUSH2 0x3F0D DUP3 PUSH2 0x3F69 JUMP JUMPDEST SWAP1 POP SWAP2 SWAP1 POP JUMP JUMPDEST PUSH1 0x0 DUP2 ISZERO ISZERO SWAP1 POP SWAP2 SWAP1 POP JUMP JUMPDEST PUSH1 0x0 DUP2 SWAP1 POP SWAP2 SWAP1 POP JUMP JUMPDEST PUSH1 0x0 PUSH32 0xFFFFFFFF00000000000000000000000000000000000000000000000000000000 DUP3 AND SWAP1 POP SWAP2 SWAP1 POP JUMP JUMPDEST PUSH1 0x0 DUP2 SWAP1 POP PUSH2 0x3F64 DUP3 PUSH2 0x41CD JUMP JUMPDEST SWAP2 SWAP1 POP JUMP JUMPDEST PUSH1 0x0 PUSH20 0xFFFFFFFFFFFFFFFFFFFFFFFFFFFFFFFFFFFFFFFF DUP3 AND SWAP1 POP SWAP2 SWAP1 POP JUMP JUMPDEST PUSH1 0x0 DUP2 SWAP1 POP SWAP2 SWAP1 POP JUMP JUMPDEST PUSH1 0x0 PUSH4 0xFFFFFFFF DUP3 AND SWAP1 POP SWAP2 SWAP1 POP JUMP JUMPDEST PUSH1 0x0 PUSH6 0xFFFFFFFFFFFF DUP3 AND SWAP1 POP SWAP2 SWAP1 POP JUMP JUMPDEST PUSH1 0x0 PUSH2 0x3FC0 DUP3 PUSH2 0x3F56 JUMP JUMPDEST SWAP1 POP SWAP2 SWAP1 POP JUMP JUMPDEST PUSH1 0x0 JUMPDEST DUP4 DUP2 LT ISZERO PUSH2 0x3FE5 JUMPI DUP1 DUP3 ADD MLOAD DUP2 DUP5 ADD MSTORE PUSH1 0x20 DUP2 ADD SWAP1 POP PUSH2 0x3FCA JUMP JUMPDEST DUP4 DUP2 GT ISZERO PUSH2 0x3FF4 JUMPI PUSH1 0x0 DUP5 DUP5 ADD MSTORE JUMPDEST POP POP POP POP JUMP JUMPDEST PUSH1 0x0 PUSH1 0x2 DUP3 DIV SWAP1 POP PUSH1 0x1 DUP3 AND DUP1 PUSH2 0x4012 JUMPI PUSH1 0x7F DUP3 AND SWAP2 POP JUMPDEST PUSH1 0x20 DUP3 LT DUP2 EQ ISZERO PUSH2 0x4026 JUMPI PUSH2 0x4025 PUSH2 0x4173 JUMP JUMPDEST JUMPDEST POP SWAP2 SWAP1 POP JUMP JUMPDEST PUSH1 0x0 PUSH2 0x4037 DUP3 PUSH2 0x3F89 JUMP JUMPDEST SWAP2 POP PUSH32 0xFFFFFFFFFFFFFFFFFFFFFFFFFFFFFFFFFFFFFFFFFFFFFFFFFFFFFFFFFFFFFFFF DUP3 EQ ISZERO PUSH2 0x406A JUMPI PUSH2 0x4069 PUSH2 0x40E6 JUMP JUMPDEST JUMPDEST PUSH1 0x1 DUP3 ADD SWAP1 POP SWAP2 SWAP1 POP JUMP JUMPDEST PUSH1 0x0 PUSH2 0x4080 DUP3 PUSH2 0x4091 JUMP JUMPDEST SWAP1 POP SWAP2 SWAP1 POP JUMP JUMPDEST PUSH1 0x0 DUP2 SWAP1 POP SWAP2 SWAP1 POP JUMP JUMPDEST PUSH1 0x0 PUSH2 0x409C DUP3 PUSH2 0x41C0 JUMP JUMPDEST SWAP1 POP SWAP2 SWAP1 POP JUMP JUMPDEST PUSH1 0x0 PUSH2 0x40AE DUP3 PUSH2 0x41B3 JUMP JUMPDEST SWAP1 POP SWAP2 SWAP1 POP JUMP JUMPDEST PUSH1 0x0 PUSH2 0x40C0 DUP3 PUSH2 0x3F89 JUMP JUMPDEST SWAP2 POP PUSH2 0x40CB DUP4 PUSH2 0x3F89 JUMP JUMPDEST SWAP3 POP DUP3 PUSH2 0x40DB JUMPI PUSH2 0x40DA PUSH2 0x4115 JUMP JUMPDEST JUMPDEST DUP3 DUP3 MOD SWAP1 POP SWAP3 SWAP2 POP POP JUMP JUMPDEST PUSH32 0x4E487B7100000000000000000000000000000000000000000000000000000000 PUSH1 0x0 MSTORE PUSH1 0x11 PUSH1 0x4 MSTORE PUSH1 0x24 PUSH1 0x0 REVERT JUMPDEST PUSH32 0x4E487B7100000000000000000000000000000000000000000000000000000000 PUSH1 0x0 MSTORE PUSH1 0x12 PUSH1 0x4 MSTORE PUSH1 0x24 PUSH1 0x0 REVERT JUMPDEST PUSH32 0x4E487B7100000000000000000000000000000000000000000000000000000000 PUSH1 0x0 MSTORE PUSH1 0x21 PUSH1 0x4 MSTORE PUSH1 0x24 PUSH1 0x0 REVERT JUMPDEST PUSH32 0x4E487B7100000000000000000000000000000000000000000000000000000000 PUSH1 0x0 MSTORE PUSH1 0x22 PUSH1 0x4 MSTORE PUSH1 0x24 PUSH1 0x0 REVERT JUMPDEST PUSH1 0x0 PUSH1 0x1F NOT PUSH1 0x1F DUP4 ADD AND SWAP1 POP SWAP2 SWAP1 POP JUMP JUMPDEST PUSH1 0x0 DUP2 PUSH1 0xE0 SHL SWAP1 POP SWAP2 SWAP1 POP JUMP JUMPDEST PUSH1 0x0 DUP2 PUSH1 0x60 SHL SWAP1 POP SWAP2 SWAP1 POP JUMP JUMPDEST PUSH1 0x4 DUP2 LT PUSH2 0x41DE JUMPI PUSH2 0x41DD PUSH2 0x4144 JUMP JUMPDEST JUMPDEST POP JUMP JUMPDEST PUSH2 0x41EA DUP2 PUSH2 0x3F02 JUMP JUMPDEST DUP2 EQ PUSH2 0x41F5 JUMPI PUSH1 0x0 DUP1 REVERT JUMPDEST POP JUMP JUMPDEST PUSH2 0x4201 DUP2 PUSH2 0x3F14 JUMP JUMPDEST DUP2 EQ PUSH2 0x420C JUMPI PUSH1 0x0 DUP1 REVERT JUMPDEST POP JUMP JUMPDEST PUSH2 0x4218 DUP2 PUSH2 0x3F2A JUMP JUMPDEST DUP2 EQ PUSH2 0x4223 JUMPI PUSH1 0x0 DUP1 REVERT JUMPDEST POP JUMP JUMPDEST PUSH1 0x4 DUP2 LT PUSH2 0x4233 JUMPI PUSH1 0x0 DUP1 REVERT JUMPDEST POP JUMP JUMPDEST PUSH2 0x423F DUP2 PUSH2 0x3F89 JUMP JUMPDEST DUP2 EQ PUSH2 0x424A JUMPI PUSH1 0x0 DUP1 REVERT JUMPDEST POP JUMP JUMPDEST PUSH2 0x4256 DUP2 PUSH2 0x3F93 JUMP JUMPDEST DUP2 EQ PUSH2 0x4261 JUMPI PUSH1 0x0 DUP1 REVERT JUMPDEST POP JUMP JUMPDEST PUSH2 0x426D DUP2 PUSH2 0x3FA3 JUMP JUMPDEST DUP2 EQ PUSH2 0x4278 JUMPI PUSH1 0x0 DUP1 REVERT JUMPDEST POP JUMP INVALID LOG2 PUSH5 0x6970667358 0x22 SLT KECCAK256 PUSH14 0xEBF2FEAB381D9008ED08140D9844 0xAB ADDRESS PUSH7 0x141CE3273AFE4B 0xE6 0xAE 0xCC PUSH14 0x4C292D64736F6C63430008000033 "
				},
				"gasEstimates": {
					"creation": {
						"codeDepositCost": "3414600",
						"executionCost": "23825",
						"totalCost": "3438425"
					},
					"external": {
						"getClaim(address,uint256)": "infinite",
						"getClaimCount(address)": "1607",
						"getTokenClaim(address,uint256)": "infinite",
						"getWalletMinted(address,uint256,address)": "infinite",
						"initializeClaim(address,(uint32,uint32,uint48,uint48,uint8,bool,bytes32,string))": "infinite",
						"mint(address,uint256,bytes32[],uint32)": "infinite",
						"overwriteClaim(address,uint256,(uint32,uint32,uint48,uint48,uint8,bool,bytes32,string))": "infinite",
						"supportsInterface(bytes4)": "731",
						"tokenURI(address,uint256)": "infinite"
					},
					"internal": {
						"_getTokenClaim(address,uint256)": "infinite",
						"_updateIndexRanges(address,uint256,uint256)": "infinite"
					}
				},
				"methodIdentifiers": {
					"getClaim(address,uint256)": "0f79ab39",
					"getClaimCount(address)": "d5fdfe87",
					"getTokenClaim(address,uint256)": "02349713",
					"getWalletMinted(address,uint256,address)": "8566ae5d",
					"initializeClaim(address,(uint32,uint32,uint48,uint48,uint8,bool,bytes32,string))": "037b79db",
					"mint(address,uint256,bytes32[],uint32)": "0c134959",
					"overwriteClaim(address,uint256,(uint32,uint32,uint48,uint48,uint8,bool,bytes32,string))": "cc351138",
					"supportsInterface(bytes4)": "01ffc9a7",
					"tokenURI(address,uint256)": "e9dc6375"
				}
			},
			"storageLayout": {
				"storage": [
					{
						"astId": 740,
						"contract": "contracts/manifold/lazyclaim/ERC721LazyClaim.sol:ERC721LazyClaim",
						"label": "_status",
						"offset": 0,
						"slot": "0",
						"type": "t_uint256"
					},
					{
						"astId": 1769,
						"contract": "contracts/manifold/lazyclaim/ERC721LazyClaim.sol:ERC721LazyClaim",
						"label": "claimCounts",
						"offset": 0,
						"slot": "1",
						"type": "t_mapping(t_address,t_uint256)"
					},
					{
						"astId": 1776,
						"contract": "contracts/manifold/lazyclaim/ERC721LazyClaim.sol:ERC721LazyClaim",
						"label": "claims",
						"offset": 0,
						"slot": "2",
						"type": "t_mapping(t_address,t_mapping(t_uint256,t_struct(Claim)2729_storage))"
					},
					{
						"astId": 1784,
						"contract": "contracts/manifold/lazyclaim/ERC721LazyClaim.sol:ERC721LazyClaim",
						"label": "mintsPerWallet",
						"offset": 0,
						"slot": "3",
						"type": "t_mapping(t_address,t_mapping(t_uint256,t_mapping(t_address,t_uint256)))"
					},
					{
						"astId": 1792,
						"contract": "contracts/manifold/lazyclaim/ERC721LazyClaim.sol:ERC721LazyClaim",
						"label": "tokenClaims",
						"offset": 0,
						"slot": "4",
						"type": "t_mapping(t_address,t_mapping(t_uint256,t_array(t_struct(IndexRange)1765_storage)dyn_storage))"
					}
				],
				"types": {
					"t_address": {
						"encoding": "inplace",
						"label": "address",
						"numberOfBytes": "20"
					},
					"t_array(t_struct(IndexRange)1765_storage)dyn_storage": {
						"base": "t_struct(IndexRange)1765_storage",
						"encoding": "dynamic_array",
						"label": "struct ERC721LazyClaim.IndexRange[]",
						"numberOfBytes": "32"
					},
					"t_bool": {
						"encoding": "inplace",
						"label": "bool",
						"numberOfBytes": "1"
					},
					"t_bytes32": {
						"encoding": "inplace",
						"label": "bytes32",
						"numberOfBytes": "32"
					},
					"t_enum(StorageProtocol)2691": {
						"encoding": "inplace",
						"label": "enum IERC721LazyClaim.StorageProtocol",
						"numberOfBytes": "1"
					},
					"t_mapping(t_address,t_mapping(t_uint256,t_array(t_struct(IndexRange)1765_storage)dyn_storage))": {
						"encoding": "mapping",
						"key": "t_address",
						"label": "mapping(address => mapping(uint256 => struct ERC721LazyClaim.IndexRange[]))",
						"numberOfBytes": "32",
						"value": "t_mapping(t_uint256,t_array(t_struct(IndexRange)1765_storage)dyn_storage)"
					},
					"t_mapping(t_address,t_mapping(t_uint256,t_mapping(t_address,t_uint256)))": {
						"encoding": "mapping",
						"key": "t_address",
						"label": "mapping(address => mapping(uint256 => mapping(address => uint256)))",
						"numberOfBytes": "32",
						"value": "t_mapping(t_uint256,t_mapping(t_address,t_uint256))"
					},
					"t_mapping(t_address,t_mapping(t_uint256,t_struct(Claim)2729_storage))": {
						"encoding": "mapping",
						"key": "t_address",
						"label": "mapping(address => mapping(uint256 => struct IERC721LazyClaim.Claim))",
						"numberOfBytes": "32",
						"value": "t_mapping(t_uint256,t_struct(Claim)2729_storage)"
					},
					"t_mapping(t_address,t_uint256)": {
						"encoding": "mapping",
						"key": "t_address",
						"label": "mapping(address => uint256)",
						"numberOfBytes": "32",
						"value": "t_uint256"
					},
					"t_mapping(t_uint256,t_array(t_struct(IndexRange)1765_storage)dyn_storage)": {
						"encoding": "mapping",
						"key": "t_uint256",
						"label": "mapping(uint256 => struct ERC721LazyClaim.IndexRange[])",
						"numberOfBytes": "32",
						"value": "t_array(t_struct(IndexRange)1765_storage)dyn_storage"
					},
					"t_mapping(t_uint256,t_mapping(t_address,t_uint256))": {
						"encoding": "mapping",
						"key": "t_uint256",
						"label": "mapping(uint256 => mapping(address => uint256))",
						"numberOfBytes": "32",
						"value": "t_mapping(t_address,t_uint256)"
					},
					"t_mapping(t_uint256,t_struct(Claim)2729_storage)": {
						"encoding": "mapping",
						"key": "t_uint256",
						"label": "mapping(uint256 => struct IERC721LazyClaim.Claim)",
						"numberOfBytes": "32",
						"value": "t_struct(Claim)2729_storage"
					},
					"t_string_storage": {
						"encoding": "bytes",
						"label": "string",
						"numberOfBytes": "32"
					},
					"t_struct(Claim)2729_storage": {
						"encoding": "inplace",
						"label": "struct IERC721LazyClaim.Claim",
						"members": [
							{
								"astId": 2711,
								"contract": "contracts/manifold/lazyclaim/ERC721LazyClaim.sol:ERC721LazyClaim",
								"label": "total",
								"offset": 0,
								"slot": "0",
								"type": "t_uint32"
							},
							{
								"astId": 2713,
								"contract": "contracts/manifold/lazyclaim/ERC721LazyClaim.sol:ERC721LazyClaim",
								"label": "totalMax",
								"offset": 4,
								"slot": "0",
								"type": "t_uint32"
							},
							{
								"astId": 2715,
								"contract": "contracts/manifold/lazyclaim/ERC721LazyClaim.sol:ERC721LazyClaim",
								"label": "walletMax",
								"offset": 8,
								"slot": "0",
								"type": "t_uint32"
							},
							{
								"astId": 2717,
								"contract": "contracts/manifold/lazyclaim/ERC721LazyClaim.sol:ERC721LazyClaim",
								"label": "startDate",
								"offset": 12,
								"slot": "0",
								"type": "t_uint48"
							},
							{
								"astId": 2719,
								"contract": "contracts/manifold/lazyclaim/ERC721LazyClaim.sol:ERC721LazyClaim",
								"label": "endDate",
								"offset": 18,
								"slot": "0",
								"type": "t_uint48"
							},
							{
								"astId": 2722,
								"contract": "contracts/manifold/lazyclaim/ERC721LazyClaim.sol:ERC721LazyClaim",
								"label": "storageProtocol",
								"offset": 24,
								"slot": "0",
								"type": "t_enum(StorageProtocol)2691"
							},
							{
								"astId": 2724,
								"contract": "contracts/manifold/lazyclaim/ERC721LazyClaim.sol:ERC721LazyClaim",
								"label": "identical",
								"offset": 25,
								"slot": "0",
								"type": "t_bool"
							},
							{
								"astId": 2726,
								"contract": "contracts/manifold/lazyclaim/ERC721LazyClaim.sol:ERC721LazyClaim",
								"label": "merkleRoot",
								"offset": 0,
								"slot": "1",
								"type": "t_bytes32"
							},
							{
								"astId": 2728,
								"contract": "contracts/manifold/lazyclaim/ERC721LazyClaim.sol:ERC721LazyClaim",
								"label": "location",
								"offset": 0,
								"slot": "2",
								"type": "t_string_storage"
							}
						],
						"numberOfBytes": "96"
					},
					"t_struct(IndexRange)1765_storage": {
						"encoding": "inplace",
						"label": "struct ERC721LazyClaim.IndexRange",
						"members": [
							{
								"astId": 1762,
								"contract": "contracts/manifold/lazyclaim/ERC721LazyClaim.sol:ERC721LazyClaim",
								"label": "start",
								"offset": 0,
								"slot": "0",
								"type": "t_uint256"
							},
							{
								"astId": 1764,
								"contract": "contracts/manifold/lazyclaim/ERC721LazyClaim.sol:ERC721LazyClaim",
								"label": "count",
								"offset": 0,
								"slot": "1",
								"type": "t_uint256"
							}
						],
						"numberOfBytes": "64"
					},
					"t_uint256": {
						"encoding": "inplace",
						"label": "uint256",
						"numberOfBytes": "32"
					},
					"t_uint32": {
						"encoding": "inplace",
						"label": "uint32",
						"numberOfBytes": "4"
					},
					"t_uint48": {
						"encoding": "inplace",
						"label": "uint48",
						"numberOfBytes": "6"
					}
				}
			},
			"userdoc": {
				"kind": "user",
				"methods": {
					"getClaim(address,uint256)": {
						"notice": "get a claim corresponding to a creator contract and index"
					},
					"getClaimCount(address)": {
						"notice": "get the number of claims initialized for a given creator contract"
					},
					"getTokenClaim(address,uint256)": {
						"notice": "get the claim index corresponding to a creator contract and tokenId"
					},
					"getWalletMinted(address,uint256,address)": {
						"notice": "get the number of tokens minted for the current wallet for a given claim"
					},
					"mint(address,uint256,bytes32[],uint32)": {
						"notice": "allow a wallet to lazily claim a token according to parameters"
					},
					"overwriteClaim(address,uint256,(uint32,uint32,uint48,uint48,uint8,bool,bytes32,string))": {
						"notice": "update an existing claim at claimIndex"
					},
					"tokenURI(address,uint256)": {
						"notice": "construct the uri for the erc721 token metadata"
					}
				},
				"notice": "Lazy claim with optional whitelist ERC721 tokens",
				"version": 1
			}
		}
	}
}