{
	"contracts/manifold/lazyclaim/ERC721LazyClaim.sol": {
		"ERC721LazyClaim": {
			"abi": [
				{
					"anonymous": false,
					"inputs": [
						{
							"indexed": true,
							"internalType": "address",
							"name": "creatorContract",
							"type": "address"
						},
						{
							"indexed": true,
							"internalType": "uint224",
							"name": "claimIndex",
							"type": "uint224"
						},
						{
							"indexed": false,
							"internalType": "address",
							"name": "initializer",
							"type": "address"
						}
					],
					"name": "ClaimInitialized",
					"type": "event"
				},
				{
					"anonymous": false,
					"inputs": [
						{
							"indexed": true,
							"internalType": "address",
							"name": "creatorContract",
							"type": "address"
						},
						{
							"indexed": true,
							"internalType": "uint256",
							"name": "claimIndex",
							"type": "uint256"
						}
					],
					"name": "ClaimMint",
					"type": "event"
				},
				{
					"anonymous": false,
					"inputs": [
						{
							"indexed": true,
							"internalType": "address",
							"name": "creatorContract",
							"type": "address"
						},
						{
							"indexed": true,
							"internalType": "uint256",
							"name": "claimIndex",
							"type": "uint256"
						},
						{
							"indexed": false,
							"internalType": "uint16",
							"name": "mintCount",
							"type": "uint16"
						}
					],
					"name": "ClaimMintBatch",
					"type": "event"
				},
				{
					"inputs": [
						{
							"internalType": "address",
							"name": "creatorContractAddress",
							"type": "address"
						},
						{
							"internalType": "uint256",
							"name": "claimIndex",
							"type": "uint256"
						},
						{
							"internalType": "uint32",
							"name": "mintIndex",
							"type": "uint32"
						}
					],
					"name": "checkMintIndex",
					"outputs": [
						{
							"internalType": "bool",
							"name": "",
							"type": "bool"
						}
					],
					"stateMutability": "view",
					"type": "function"
				},
				{
					"inputs": [
						{
							"internalType": "address",
							"name": "creatorContractAddress",
							"type": "address"
						},
						{
							"internalType": "uint256",
							"name": "claimIndex",
							"type": "uint256"
						},
						{
							"internalType": "uint32[]",
							"name": "mintIndices",
							"type": "uint32[]"
						}
					],
					"name": "checkMintIndices",
					"outputs": [
						{
							"internalType": "bool[]",
							"name": "minted",
							"type": "bool[]"
						}
					],
					"stateMutability": "view",
					"type": "function"
				},
				{
					"inputs": [
						{
							"internalType": "address",
							"name": "creatorContractAddress",
							"type": "address"
						},
						{
							"internalType": "uint256",
							"name": "claimIndex",
							"type": "uint256"
						}
					],
					"name": "getClaim",
					"outputs": [
						{
							"components": [
								{
									"internalType": "uint32",
									"name": "total",
									"type": "uint32"
								},
								{
									"internalType": "uint32",
									"name": "totalMax",
									"type": "uint32"
								},
								{
									"internalType": "uint32",
									"name": "walletMax",
									"type": "uint32"
								},
								{
									"internalType": "uint48",
									"name": "startDate",
									"type": "uint48"
								},
								{
									"internalType": "uint48",
									"name": "endDate",
									"type": "uint48"
								},
								{
									"internalType": "enum IERC721LazyClaim.StorageProtocol",
									"name": "storageProtocol",
									"type": "uint8"
								},
								{
									"internalType": "bool",
									"name": "identical",
									"type": "bool"
								},
								{
									"internalType": "bytes32",
									"name": "merkleRoot",
									"type": "bytes32"
								},
								{
									"internalType": "string",
									"name": "location",
									"type": "string"
								}
							],
							"internalType": "struct IERC721LazyClaim.Claim",
							"name": "",
							"type": "tuple"
						}
					],
					"stateMutability": "view",
					"type": "function"
				},
				{
					"inputs": [
						{
							"internalType": "address",
							"name": "creatorContractAddress",
							"type": "address"
						}
					],
					"name": "getClaimCount",
					"outputs": [
						{
							"internalType": "uint256",
							"name": "",
							"type": "uint256"
						}
					],
					"stateMutability": "view",
					"type": "function"
				},
				{
					"inputs": [
						{
							"internalType": "address",
							"name": "minter",
							"type": "address"
						},
						{
							"internalType": "address",
							"name": "creatorContractAddress",
							"type": "address"
						},
						{
							"internalType": "uint256",
							"name": "claimIndex",
							"type": "uint256"
						}
					],
					"name": "getTotalMints",
					"outputs": [
						{
							"internalType": "uint32",
							"name": "",
							"type": "uint32"
						}
					],
					"stateMutability": "view",
					"type": "function"
				},
				{
					"inputs": [
						{
							"internalType": "address",
							"name": "creatorContractAddress",
							"type": "address"
						},
						{
							"components": [
								{
									"internalType": "uint32",
									"name": "totalMax",
									"type": "uint32"
								},
								{
									"internalType": "uint32",
									"name": "walletMax",
									"type": "uint32"
								},
								{
									"internalType": "uint48",
									"name": "startDate",
									"type": "uint48"
								},
								{
									"internalType": "uint48",
									"name": "endDate",
									"type": "uint48"
								},
								{
									"internalType": "enum IERC721LazyClaim.StorageProtocol",
									"name": "storageProtocol",
									"type": "uint8"
								},
								{
									"internalType": "bool",
									"name": "identical",
									"type": "bool"
								},
								{
									"internalType": "bytes32",
									"name": "merkleRoot",
									"type": "bytes32"
								},
								{
									"internalType": "string",
									"name": "location",
									"type": "string"
								}
							],
							"internalType": "struct IERC721LazyClaim.ClaimParameters",
							"name": "claimParameters",
							"type": "tuple"
						}
					],
					"name": "initializeClaim",
					"outputs": [
						{
							"internalType": "uint256",
							"name": "",
							"type": "uint256"
						}
					],
					"stateMutability": "nonpayable",
					"type": "function"
				},
				{
					"inputs": [
						{
							"internalType": "address",
							"name": "creatorContractAddress",
							"type": "address"
						},
						{
							"internalType": "uint256",
							"name": "claimIndex",
							"type": "uint256"
						},
						{
							"internalType": "uint32",
							"name": "mintIndex",
							"type": "uint32"
						},
						{
							"internalType": "bytes32[]",
							"name": "merkleProof",
							"type": "bytes32[]"
						}
					],
					"name": "mint",
					"outputs": [],
					"stateMutability": "nonpayable",
					"type": "function"
				},
				{
					"inputs": [
						{
							"internalType": "address",
							"name": "creatorContractAddress",
							"type": "address"
						},
						{
							"internalType": "uint256",
							"name": "claimIndex",
							"type": "uint256"
						},
						{
							"internalType": "uint16",
							"name": "mintCount",
							"type": "uint16"
						},
						{
							"internalType": "uint32[]",
							"name": "mintIndices",
							"type": "uint32[]"
						},
						{
							"internalType": "bytes32[][]",
							"name": "merkleProofs",
							"type": "bytes32[][]"
						}
					],
					"name": "mintBatch",
					"outputs": [],
					"stateMutability": "nonpayable",
					"type": "function"
				},
				{
					"inputs": [
						{
							"internalType": "bytes4",
							"name": "interfaceId",
							"type": "bytes4"
						}
					],
					"name": "supportsInterface",
					"outputs": [
						{
							"internalType": "bool",
							"name": "",
							"type": "bool"
						}
					],
					"stateMutability": "view",
					"type": "function"
				},
				{
					"inputs": [
						{
							"internalType": "address",
							"name": "creatorContractAddress",
							"type": "address"
						},
						{
							"internalType": "uint256",
							"name": "tokenId",
							"type": "uint256"
						}
					],
					"name": "tokenURI",
					"outputs": [
						{
							"internalType": "string",
							"name": "uri",
							"type": "string"
						}
					],
					"stateMutability": "view",
					"type": "function"
				},
				{
					"inputs": [
						{
							"internalType": "address",
							"name": "creatorContractAddress",
							"type": "address"
						},
						{
							"internalType": "uint256",
							"name": "claimIndex",
							"type": "uint256"
						},
						{
							"components": [
								{
									"internalType": "uint32",
									"name": "totalMax",
									"type": "uint32"
								},
								{
									"internalType": "uint32",
									"name": "walletMax",
									"type": "uint32"
								},
								{
									"internalType": "uint48",
									"name": "startDate",
									"type": "uint48"
								},
								{
									"internalType": "uint48",
									"name": "endDate",
									"type": "uint48"
								},
								{
									"internalType": "enum IERC721LazyClaim.StorageProtocol",
									"name": "storageProtocol",
									"type": "uint8"
								},
								{
									"internalType": "bool",
									"name": "identical",
									"type": "bool"
								},
								{
									"internalType": "bytes32",
									"name": "merkleRoot",
									"type": "bytes32"
								},
								{
									"internalType": "string",
									"name": "location",
									"type": "string"
								}
							],
							"internalType": "struct IERC721LazyClaim.ClaimParameters",
							"name": "claimParameters",
							"type": "tuple"
						}
					],
					"name": "updateClaim",
					"outputs": [],
					"stateMutability": "nonpayable",
					"type": "function"
				}
			],
			"devdoc": {
				"author": "manifold.xyz",
				"kind": "dev",
				"methods": {
					"supportsInterface(bytes4)": {
						"details": "Returns true if this contract implements the interface defined by `interfaceId`. See the corresponding https://eips.ethereum.org/EIPS/eip-165#how-interfaces-are-identified[EIP section] to learn more about how these ids are created. This function call must use less than 30 000 gas."
					}
				},
				"title": "Lazy Claim",
				"version": 1
			},
			"evm": {
				"assembly": "    /* \"contracts/manifold/lazyclaim/ERC721LazyClaim.sol\":703:14589  contract ERC721LazyClaim is IERC165, IERC721LazyClaim, ICreatorExtensionTokenURI, ReentrancyGuard {... */\n  mstore(0x40, 0x80)\n  callvalue\n  dup1\n  iszero\n  tag_1\n  jumpi\n  0x00\n  dup1\n  revert\ntag_1:\n  pop\n    /* \"@openzeppelin/contracts/security/ReentrancyGuard.sol\":1701:1702  1 */\n  0x01\n    /* \"@openzeppelin/contracts/security/ReentrancyGuard.sol\":1806:1813  _status */\n  0x00\n    /* \"@openzeppelin/contracts/security/ReentrancyGuard.sol\":1806:1828  _status = _NOT_ENTERED */\n  sstore\n    /* \"contracts/manifold/lazyclaim/ERC721LazyClaim.sol\":703:14589  contract ERC721LazyClaim is IERC165, IERC721LazyClaim, ICreatorExtensionTokenURI, ReentrancyGuard {... */\n  dataSize(sub_0)\n  dup1\n  dataOffset(sub_0)\n  0x00\n  codecopy\n  0x00\n  return\nstop\n\nsub_0: assembly {\n        /* \"contracts/manifold/lazyclaim/ERC721LazyClaim.sol\":703:14589  contract ERC721LazyClaim is IERC165, IERC721LazyClaim, ICreatorExtensionTokenURI, ReentrancyGuard {... */\n      mstore(0x40, 0x80)\n      callvalue\n      dup1\n      iszero\n      tag_1\n      jumpi\n      0x00\n      dup1\n      revert\n    tag_1:\n      pop\n      jumpi(tag_2, lt(calldatasize, 0x04))\n      shr(0xe0, calldataload(0x00))\n      dup1\n      0x42f3bef4\n      gt\n      tag_14\n      jumpi\n      dup1\n      0xd5fdfe87\n      gt\n      tag_15\n      jumpi\n      dup1\n      0xd5fdfe87\n      eq\n      tag_11\n      jumpi\n      dup1\n      0xe9dc6375\n      eq\n      tag_12\n      jumpi\n      dup1\n      0xf8a6137b\n      eq\n      tag_13\n      jumpi\n      0x00\n      dup1\n      revert\n    tag_15:\n      dup1\n      0x42f3bef4\n      eq\n      tag_8\n      jumpi\n      dup1\n      0xbbf2a8c6\n      eq\n      tag_9\n      jumpi\n      dup1\n      0xcda08536\n      eq\n      tag_10\n      jumpi\n      0x00\n      dup1\n      revert\n    tag_14:\n      dup1\n      0x0f79ab39\n      gt\n      tag_16\n      jumpi\n      dup1\n      0x0f79ab39\n      eq\n      tag_5\n      jumpi\n      dup1\n      0x1831a643\n      eq\n      tag_6\n      jumpi\n      dup1\n      0x3512da33\n      eq\n      tag_7\n      jumpi\n      0x00\n      dup1\n      revert\n    tag_16:\n      dup1\n      0x01ffc9a7\n      eq\n      tag_3\n      jumpi\n      dup1\n      0x037b79db\n      eq\n      tag_4\n      jumpi\n    tag_2:\n      0x00\n      dup1\n      revert\n        /* \"contracts/manifold/lazyclaim/ERC721LazyClaim.sol\":2304:2607  function supportsInterface(bytes4 interfaceId) public view virtual override(IERC165) returns (bool) {... */\n    tag_3:\n      tag_17\n      tag_18\n      calldatasize\n      0x04\n      tag_19\n      jump\t// in\n    tag_18:\n      tag_20\n      jump\t// in\n    tag_17:\n      mload(0x40)\n        /* \"#utility.yul\":612:626   */\n      swap1\n      iszero\n        /* \"#utility.yul\":605:627   */\n      iszero\n        /* \"#utility.yul\":587:628   */\n      dup2\n      mstore\n        /* \"#utility.yul\":575:577   */\n      0x20\n        /* \"#utility.yul\":560:578   */\n      add\n        /* \"contracts/manifold/lazyclaim/ERC721LazyClaim.sol\":2304:2607  function supportsInterface(bytes4 interfaceId) public view virtual override(IERC165) returns (bool) {... */\n    tag_21:\n      mload(0x40)\n      dup1\n      swap2\n      sub\n      swap1\n      return\n        /* \"contracts/manifold/lazyclaim/ERC721LazyClaim.sol\":3221:4673  function initializeClaim(... */\n    tag_4:\n      tag_23\n      tag_24\n      calldatasize\n      0x04\n      tag_25\n      jump\t// in\n    tag_24:\n      tag_26\n      jump\t// in\n    tag_23:\n      mload(0x40)\n        /* \"#utility.yul\":1606:1631   */\n      swap1\n      dup2\n      mstore\n        /* \"#utility.yul\":1594:1596   */\n      0x20\n        /* \"#utility.yul\":1579:1597   */\n      add\n        /* \"contracts/manifold/lazyclaim/ERC721LazyClaim.sol\":3221:4673  function initializeClaim(... */\n      tag_21\n        /* \"#utility.yul\":1460:1637   */\n      jump\n        /* \"contracts/manifold/lazyclaim/ERC721LazyClaim.sol\":6639:6951  function getClaim(address creatorContractAddress, uint256 claimIndex) external override view returns(Claim memory) {... */\n    tag_5:\n      tag_29\n      tag_30\n      calldatasize\n      0x04\n      tag_31\n      jump\t// in\n    tag_30:\n      tag_32\n      jump\t// in\n    tag_29:\n      mload(0x40)\n      tag_21\n      swap2\n      swap1\n      tag_34\n      jump\t// in\n        /* \"contracts/manifold/lazyclaim/ERC721LazyClaim.sol\":4738:6355  function updateClaim(... */\n    tag_6:\n      tag_35\n      tag_36\n      calldatasize\n      0x04\n      tag_37\n      jump\t// in\n    tag_36:\n      tag_38\n      jump\t// in\n    tag_35:\n      stop\n        /* \"contracts/manifold/lazyclaim/ERC721LazyClaim.sol\":10469:12658  function mintBatch(address creatorContractAddress, uint256 claimIndex, uint16 mintCount, uint32[] calldata mintIndices, bytes32[][] calldata merkleProofs) external override {... */\n    tag_7:\n      tag_35\n      tag_40\n      calldatasize\n      0x04\n      tag_41\n      jump\t// in\n    tag_40:\n      tag_42\n      jump\t// in\n        /* \"contracts/manifold/lazyclaim/ERC721LazyClaim.sol\":8186:8672  function getTotalMints(address minter, address creatorContractAddress, uint256 claimIndex) external override view returns(uint32) {... */\n    tag_8:\n      tag_43\n      tag_44\n      calldatasize\n      0x04\n      tag_45\n      jump\t// in\n    tag_44:\n      tag_46\n      jump\t// in\n    tag_43:\n      mload(0x40)\n        /* \"#utility.yul\":6872:6882   */\n      0xffffffff\n        /* \"#utility.yul\":6860:6883   */\n      swap1\n      swap2\n      and\n        /* \"#utility.yul\":6842:6884   */\n      dup2\n      mstore\n        /* \"#utility.yul\":6830:6832   */\n      0x20\n        /* \"#utility.yul\":6815:6833   */\n      add\n        /* \"contracts/manifold/lazyclaim/ERC721LazyClaim.sol\":8186:8672  function getTotalMints(address minter, address creatorContractAddress, uint256 claimIndex) external override view returns(uint32) {... */\n      tag_21\n        /* \"#utility.yul\":6698:6890   */\n      jump\n        /* \"contracts/manifold/lazyclaim/ERC721LazyClaim.sol\":8730:10406  function mint(address creatorContractAddress, uint256 claimIndex, uint32 mintIndex, bytes32[] calldata merkleProof) external override {... */\n    tag_9:\n      tag_35\n      tag_50\n      calldatasize\n      0x04\n      tag_51\n      jump\t// in\n    tag_50:\n      tag_52\n      jump\t// in\n        /* \"contracts/manifold/lazyclaim/ERC721LazyClaim.sol\":7019:7673  function checkMintIndex(address creatorContractAddress, uint256 claimIndex, uint32 mintIndex) public override view returns(bool) {... */\n    tag_10:\n      tag_17\n      tag_54\n      calldatasize\n      0x04\n      tag_55\n      jump\t// in\n    tag_54:\n      tag_56\n      jump\t// in\n        /* \"contracts/manifold/lazyclaim/ERC721LazyClaim.sol\":6422:6577  function getClaimCount(address creatorContractAddress) external override view returns(uint256) {... */\n    tag_11:\n      tag_23\n      tag_59\n      calldatasize\n      0x04\n      tag_60\n      jump\t// in\n    tag_59:\n      sub(shl(0xa0, 0x01), 0x01)\n        /* \"contracts/manifold/lazyclaim/ERC721LazyClaim.sol\":6534:6570  _claimCounts[creatorContractAddress] */\n      and\n        /* \"contracts/manifold/lazyclaim/ERC721LazyClaim.sol\":6508:6515  uint256 */\n      0x00\n        /* \"contracts/manifold/lazyclaim/ERC721LazyClaim.sol\":6534:6570  _claimCounts[creatorContractAddress] */\n      swap1\n      dup2\n      mstore\n        /* \"contracts/manifold/lazyclaim/ERC721LazyClaim.sol\":6534:6546  _claimCounts */\n      0x01\n        /* \"contracts/manifold/lazyclaim/ERC721LazyClaim.sol\":6534:6570  _claimCounts[creatorContractAddress] */\n      0x20\n      mstore\n      0x40\n      swap1\n      keccak256\n      sload\n      sub(shl(0xe0, 0x01), 0x01)\n      and\n      swap1\n        /* \"contracts/manifold/lazyclaim/ERC721LazyClaim.sol\":6422:6577  function getClaimCount(address creatorContractAddress) external override view returns(uint256) {... */\n      jump\n        /* \"contracts/manifold/lazyclaim/ERC721LazyClaim.sol\":13697:14587  function tokenURI(address creatorContractAddress, uint256 tokenId) external override view returns(string memory uri) {... */\n    tag_12:\n      tag_63\n      tag_64\n      calldatasize\n      0x04\n      tag_31\n      jump\t// in\n    tag_64:\n      tag_65\n      jump\t// in\n    tag_63:\n      mload(0x40)\n      tag_21\n      swap2\n      swap1\n      tag_67\n      jump\t// in\n        /* \"contracts/manifold/lazyclaim/ERC721LazyClaim.sol\":7743:8119  function checkMintIndices(address creatorContractAddress, uint256 claimIndex, uint32[] calldata mintIndices) external override view returns(bool[] memory minted) {... */\n    tag_13:\n      tag_68\n      tag_69\n      calldatasize\n      0x04\n      tag_70\n      jump\t// in\n    tag_69:\n      tag_71\n      jump\t// in\n    tag_68:\n      mload(0x40)\n      tag_21\n      swap2\n      swap1\n      tag_73\n      jump\t// in\n        /* \"contracts/manifold/lazyclaim/ERC721LazyClaim.sol\":2304:2607  function supportsInterface(bytes4 interfaceId) public view virtual override(IERC165) returns (bool) {... */\n    tag_20:\n        /* \"contracts/manifold/lazyclaim/ERC721LazyClaim.sol\":2398:2402  bool */\n      0x00\n      not(sub(shl(0xe0, 0x01), 0x01))\n        /* \"contracts/manifold/lazyclaim/ERC721LazyClaim.sol\":2421:2470  interfaceId == type(IERC721LazyClaim).interfaceId */\n      dup3\n      and\n        /* \"contracts/manifold/lazyclaim/ERC721LazyClaim.sol\":2436:2470  type(IERC721LazyClaim).interfaceId */\n      0x38dbd06a00000000000000000000000000000000000000000000000000000000\n        /* \"contracts/manifold/lazyclaim/ERC721LazyClaim.sol\":2421:2470  interfaceId == type(IERC721LazyClaim).interfaceId */\n      eq\n      dup1\n        /* \"contracts/manifold/lazyclaim/ERC721LazyClaim.sol\":2421:2544  interfaceId == type(IERC721LazyClaim).interfaceId ||... */\n      tag_75\n      jumpi\n      pop\n      not(sub(shl(0xe0, 0x01), 0x01))\n        /* \"contracts/manifold/lazyclaim/ERC721LazyClaim.sol\":2486:2544  interfaceId == type(ICreatorExtensionTokenURI).interfaceId */\n      dup3\n      and\n        /* \"contracts/manifold/lazyclaim/ERC721LazyClaim.sol\":2501:2544  type(ICreatorExtensionTokenURI).interfaceId */\n      0xe9dc637500000000000000000000000000000000000000000000000000000000\n        /* \"contracts/manifold/lazyclaim/ERC721LazyClaim.sol\":2486:2544  interfaceId == type(ICreatorExtensionTokenURI).interfaceId */\n      eq\n        /* \"contracts/manifold/lazyclaim/ERC721LazyClaim.sol\":2421:2544  interfaceId == type(IERC721LazyClaim).interfaceId ||... */\n    tag_75:\n        /* \"contracts/manifold/lazyclaim/ERC721LazyClaim.sol\":2421:2600  interfaceId == type(IERC721LazyClaim).interfaceId ||... */\n      dup1\n      tag_76\n      jumpi\n      pop\n      not(sub(shl(0xe0, 0x01), 0x01))\n        /* \"contracts/manifold/lazyclaim/ERC721LazyClaim.sol\":2560:2600  interfaceId == type(IERC165).interfaceId */\n      dup3\n      and\n        /* \"contracts/manifold/lazyclaim/ERC721LazyClaim.sol\":2575:2600  type(IERC165).interfaceId */\n      0x01ffc9a700000000000000000000000000000000000000000000000000000000\n        /* \"contracts/manifold/lazyclaim/ERC721LazyClaim.sol\":2560:2600  interfaceId == type(IERC165).interfaceId */\n      eq\n        /* \"contracts/manifold/lazyclaim/ERC721LazyClaim.sol\":2421:2600  interfaceId == type(IERC721LazyClaim).interfaceId ||... */\n    tag_76:\n        /* \"contracts/manifold/lazyclaim/ERC721LazyClaim.sol\":2414:2600  return interfaceId == type(IERC721LazyClaim).interfaceId ||... */\n      swap3\n        /* \"contracts/manifold/lazyclaim/ERC721LazyClaim.sol\":2304:2607  function supportsInterface(bytes4 interfaceId) public view virtual override(IERC165) returns (bool) {... */\n      swap2\n      pop\n      pop\n      jump\t// out\n        /* \"contracts/manifold/lazyclaim/ERC721LazyClaim.sol\":3221:4673  function initializeClaim(... */\n    tag_26:\n        /* \"contracts/manifold/lazyclaim/ERC721LazyClaim.sol\":3047:3086  creatorCoreContract.isAdmin(msg.sender) */\n      mload(0x40)\n      shl(0xe2, 0x0935e01b)\n      dup2\n      mstore\n        /* \"contracts/manifold/lazyclaim/ERC721LazyClaim.sol\":3075:3085  msg.sender */\n      caller\n        /* \"contracts/manifold/lazyclaim/ERC721LazyClaim.sol\":3047:3086  creatorCoreContract.isAdmin(msg.sender) */\n      0x04\n      dup3\n      add\n        /* \"#utility.yul\":9841:9915   */\n      mstore\n        /* \"contracts/manifold/lazyclaim/ERC721LazyClaim.sol\":3414:3421  uint256 */\n      0x00\n      swap1\n        /* \"contracts/manifold/lazyclaim/ERC721LazyClaim.sol\":3381:3403  creatorContractAddress */\n      dup4\n      swap1\n      dup2\n      swap1\n      sub(shl(0xa0, 0x01), 0x01)\n        /* \"contracts/manifold/lazyclaim/ERC721LazyClaim.sol\":3047:3074  creatorCoreContract.isAdmin */\n      dup3\n      and\n      swap1\n      0x24d7806c\n      swap1\n        /* \"#utility.yul\":9814:9832   */\n      0x24\n      add\n        /* \"contracts/manifold/lazyclaim/ERC721LazyClaim.sol\":3047:3086  creatorCoreContract.isAdmin(msg.sender) */\n      0x20\n      mload(0x40)\n      dup1\n      dup4\n      sub\n      dup2\n      dup7\n      gas\n      staticcall\n      iszero\n      dup1\n      iszero\n      tag_81\n      jumpi\n      returndatasize\n      0x00\n      dup1\n      returndatacopy\n      revert(0x00, returndatasize)\n    tag_81:\n      pop\n      pop\n      pop\n      pop\n      mload(0x40)\n      returndatasize\n      not(0x1f)\n      0x1f\n      dup3\n      add\n      and\n      dup3\n      add\n      dup1\n      0x40\n      mstore\n      pop\n      dup2\n      add\n      swap1\n      tag_82\n      swap2\n      swap1\n      tag_83\n      jump\t// in\n    tag_82:\n        /* \"contracts/manifold/lazyclaim/ERC721LazyClaim.sol\":3039:3134  require(creatorCoreContract.isAdmin(msg.sender), \"Wallet is not an administrator for contract\") */\n      tag_84\n      jumpi\n      mload(0x40)\n      shl(0xe5, 0x461bcd)\n      dup2\n      mstore\n        /* \"#utility.yul\":10501:10503   */\n      0x20\n        /* \"contracts/manifold/lazyclaim/ERC721LazyClaim.sol\":3039:3134  require(creatorCoreContract.isAdmin(msg.sender), \"Wallet is not an administrator for contract\") */\n      0x04\n      dup3\n      add\n        /* \"#utility.yul\":10483:10504   */\n      mstore\n        /* \"#utility.yul\":10540:10542   */\n      0x2b\n        /* \"#utility.yul\":10520:10538   */\n      0x24\n      dup3\n      add\n        /* \"#utility.yul\":10513:10543   */\n      mstore\n        /* \"#utility.yul\":10579:10613   */\n      0x57616c6c6574206973206e6f7420616e2061646d696e6973747261746f722066\n        /* \"#utility.yul\":10559:10577   */\n      0x44\n      dup3\n      add\n        /* \"#utility.yul\":10552:10614   */\n      mstore\n      shl(0xaa, 0x1bdc8818dbdb9d1c9858dd)\n        /* \"#utility.yul\":10630:10648   */\n      0x64\n      dup3\n      add\n        /* \"#utility.yul\":10623:10664   */\n      mstore\n        /* \"#utility.yul\":10681:10700   */\n      0x84\n      add\n        /* \"contracts/manifold/lazyclaim/ERC721LazyClaim.sol\":3039:3134  require(creatorCoreContract.isAdmin(msg.sender), \"Wallet is not an administrator for contract\") */\n    tag_85:\n      mload(0x40)\n      dup1\n      swap2\n      sub\n      swap1\n      revert\n    tag_84:\n        /* \"contracts/manifold/lazyclaim/ERC721LazyClaim.sol\":3501:3524  StorageProtocol.INVALID */\n      0x00\n        /* \"contracts/manifold/lazyclaim/ERC721LazyClaim.sol\":3466:3497  claimParameters.storageProtocol */\n      tag_91\n      0xa0\n      dup7\n      add\n      0x80\n      dup8\n      add\n      tag_92\n      jump\t// in\n    tag_91:\n        /* \"contracts/manifold/lazyclaim/ERC721LazyClaim.sol\":3466:3524  claimParameters.storageProtocol != StorageProtocol.INVALID */\n      0x03\n      dup2\n      gt\n      iszero\n      tag_94\n      jumpi\n      tag_94\n      tag_90\n      jump\t// in\n    tag_94:\n      sub\n        /* \"contracts/manifold/lazyclaim/ERC721LazyClaim.sol\":3458:3576  require(claimParameters.storageProtocol != StorageProtocol.INVALID, \"Cannot initialize with invalid storage protocol\") */\n      tag_95\n      jumpi\n      mload(0x40)\n      shl(0xe5, 0x461bcd)\n      dup2\n      mstore\n        /* \"#utility.yul\":11194:11196   */\n      0x20\n        /* \"contracts/manifold/lazyclaim/ERC721LazyClaim.sol\":3458:3576  require(claimParameters.storageProtocol != StorageProtocol.INVALID, \"Cannot initialize with invalid storage protocol\") */\n      0x04\n      dup3\n      add\n        /* \"#utility.yul\":11176:11197   */\n      mstore\n        /* \"#utility.yul\":11233:11235   */\n      0x2f\n        /* \"#utility.yul\":11213:11231   */\n      0x24\n      dup3\n      add\n        /* \"#utility.yul\":11206:11236   */\n      mstore\n        /* \"#utility.yul\":11272:11306   */\n      0x43616e6e6f7420696e697469616c697a65207769746820696e76616c69642073\n        /* \"#utility.yul\":11252:11270   */\n      0x44\n      dup3\n      add\n        /* \"#utility.yul\":11245:11307   */\n      mstore\n        /* \"#utility.yul\":11343:11360   */\n      0x746f726167652070726f746f636f6c0000000000000000000000000000000000\n        /* \"#utility.yul\":11323:11341   */\n      0x64\n      dup3\n      add\n        /* \"#utility.yul\":11316:11361   */\n      mstore\n        /* \"#utility.yul\":11378:11397   */\n      0x84\n      add\n        /* \"contracts/manifold/lazyclaim/ERC721LazyClaim.sol\":3458:3576  require(claimParameters.storageProtocol != StorageProtocol.INVALID, \"Cannot initialize with invalid storage protocol\") */\n      tag_85\n        /* \"#utility.yul\":10992:11403   */\n      jump\n        /* \"contracts/manifold/lazyclaim/ERC721LazyClaim.sol\":3458:3576  require(claimParameters.storageProtocol != StorageProtocol.INVALID, \"Cannot initialize with invalid storage protocol\") */\n    tag_95:\n        /* \"contracts/manifold/lazyclaim/ERC721LazyClaim.sol\":3594:3617  claimParameters.endDate */\n      tag_98\n      0x80\n      dup6\n      add\n      0x60\n      dup7\n      add\n      tag_99\n      jump\t// in\n    tag_98:\n        /* \"contracts/manifold/lazyclaim/ERC721LazyClaim.sol\":3594:3622  claimParameters.endDate == 0 */\n      0xffffffffffff\n      and\n      iszero\n      dup1\n        /* \"contracts/manifold/lazyclaim/ERC721LazyClaim.sol\":3594:3677  claimParameters.endDate == 0 || claimParameters.startDate < claimParameters.endDate */\n      tag_100\n      jumpi\n      pop\n        /* \"contracts/manifold/lazyclaim/ERC721LazyClaim.sol\":3654:3677  claimParameters.endDate */\n      tag_101\n      0x80\n      dup6\n      add\n      0x60\n      dup7\n      add\n      tag_99\n      jump\t// in\n    tag_101:\n        /* \"contracts/manifold/lazyclaim/ERC721LazyClaim.sol\":3626:3677  claimParameters.startDate < claimParameters.endDate */\n      0xffffffffffff\n      and\n        /* \"contracts/manifold/lazyclaim/ERC721LazyClaim.sol\":3626:3651  claimParameters.startDate */\n      tag_102\n      0x60\n      dup7\n      add\n      0x40\n      dup8\n      add\n      tag_99\n      jump\t// in\n    tag_102:\n        /* \"contracts/manifold/lazyclaim/ERC721LazyClaim.sol\":3626:3677  claimParameters.startDate < claimParameters.endDate */\n      0xffffffffffff\n      and\n      lt\n        /* \"contracts/manifold/lazyclaim/ERC721LazyClaim.sol\":3594:3677  claimParameters.endDate == 0 || claimParameters.startDate < claimParameters.endDate */\n    tag_100:\n        /* \"contracts/manifold/lazyclaim/ERC721LazyClaim.sol\":3586:3736  require(claimParameters.endDate == 0 || claimParameters.startDate < claimParameters.endDate, \"Cannot have startDate greater than or equal to endDate\") */\n      tag_103\n      jumpi\n      mload(0x40)\n      shl(0xe5, 0x461bcd)\n      dup2\n      mstore\n        /* \"#utility.yul\":11895:11897   */\n      0x20\n        /* \"contracts/manifold/lazyclaim/ERC721LazyClaim.sol\":3586:3736  require(claimParameters.endDate == 0 || claimParameters.startDate < claimParameters.endDate, \"Cannot have startDate greater than or equal to endDate\") */\n      0x04\n      dup3\n      add\n        /* \"#utility.yul\":11877:11898   */\n      mstore\n        /* \"#utility.yul\":11934:11936   */\n      0x36\n        /* \"#utility.yul\":11914:11932   */\n      0x24\n      dup3\n      add\n        /* \"#utility.yul\":11907:11937   */\n      mstore\n        /* \"#utility.yul\":11973:12007   */\n      0x43616e6e6f742068617665207374617274446174652067726561746572207468\n        /* \"#utility.yul\":11953:11971   */\n      0x44\n      dup3\n      add\n        /* \"#utility.yul\":11946:12008   */\n      mstore\n        /* \"#utility.yul\":12044:12068   */\n      0x616e206f7220657175616c20746f20656e644461746500000000000000000000\n        /* \"#utility.yul\":12024:12042   */\n      0x64\n      dup3\n      add\n        /* \"#utility.yul\":12017:12069   */\n      mstore\n        /* \"#utility.yul\":12086:12105   */\n      0x84\n      add\n        /* \"contracts/manifold/lazyclaim/ERC721LazyClaim.sol\":3586:3736  require(claimParameters.endDate == 0 || claimParameters.startDate < claimParameters.endDate, \"Cannot have startDate greater than or equal to endDate\") */\n      tag_85\n        /* \"#utility.yul\":11693:12111   */\n      jump\n        /* \"contracts/manifold/lazyclaim/ERC721LazyClaim.sol\":3586:3736  require(claimParameters.endDate == 0 || claimParameters.startDate < claimParameters.endDate, \"Cannot have startDate greater than or equal to endDate\") */\n    tag_103:\n        /* \"contracts/manifold/lazyclaim/ERC721LazyClaim.sol\":3754:3780  claimParameters.merkleRoot */\n      0xc0\n      dup5\n      add\n      calldataload\n        /* \"contracts/manifold/lazyclaim/ERC721LazyClaim.sol\":3754:3786  claimParameters.merkleRoot == \"\" */\n      iszero\n      dup1\n        /* \"contracts/manifold/lazyclaim/ERC721LazyClaim.sol\":3754:3820  claimParameters.merkleRoot == \"\" || claimParameters.walletMax == 0 */\n      tag_106\n      jumpi\n      pop\n        /* \"contracts/manifold/lazyclaim/ERC721LazyClaim.sol\":3790:3815  claimParameters.walletMax */\n      tag_107\n      0x40\n      dup6\n      add\n      0x20\n      dup7\n      add\n      tag_108\n      jump\t// in\n    tag_107:\n        /* \"contracts/manifold/lazyclaim/ERC721LazyClaim.sol\":3790:3820  claimParameters.walletMax == 0 */\n      0xffffffff\n      and\n      iszero\n        /* \"contracts/manifold/lazyclaim/ERC721LazyClaim.sol\":3754:3820  claimParameters.merkleRoot == \"\" || claimParameters.walletMax == 0 */\n    tag_106:\n        /* \"contracts/manifold/lazyclaim/ERC721LazyClaim.sol\":3746:3874  require(claimParameters.merkleRoot == \"\" || claimParameters.walletMax == 0, \"Cannot provide both mintsPerWallet and merkleRoot\") */\n      tag_109\n      jumpi\n      mload(0x40)\n      shl(0xe5, 0x461bcd)\n      dup2\n      mstore\n        /* \"#utility.yul\":12507:12509   */\n      0x20\n        /* \"contracts/manifold/lazyclaim/ERC721LazyClaim.sol\":3746:3874  require(claimParameters.merkleRoot == \"\" || claimParameters.walletMax == 0, \"Cannot provide both mintsPerWallet and merkleRoot\") */\n      0x04\n      dup3\n      add\n        /* \"#utility.yul\":12489:12510   */\n      mstore\n        /* \"#utility.yul\":12546:12548   */\n      0x31\n        /* \"#utility.yul\":12526:12544   */\n      0x24\n      dup3\n      add\n        /* \"#utility.yul\":12519:12549   */\n      mstore\n        /* \"#utility.yul\":12585:12619   */\n      0x43616e6e6f742070726f7669646520626f7468206d696e747350657257616c6c\n        /* \"#utility.yul\":12565:12583   */\n      0x44\n      dup3\n      add\n        /* \"#utility.yul\":12558:12620   */\n      mstore\n        /* \"#utility.yul\":12656:12675   */\n      0x657420616e64206d65726b6c65526f6f74000000000000000000000000000000\n        /* \"#utility.yul\":12636:12654   */\n      0x64\n      dup3\n      add\n        /* \"#utility.yul\":12629:12676   */\n      mstore\n        /* \"#utility.yul\":12693:12712   */\n      0x84\n      add\n        /* \"contracts/manifold/lazyclaim/ERC721LazyClaim.sol\":3746:3874  require(claimParameters.merkleRoot == \"\" || claimParameters.walletMax == 0, \"Cannot provide both mintsPerWallet and merkleRoot\") */\n      tag_85\n        /* \"#utility.yul\":12305:12718   */\n      jump\n        /* \"contracts/manifold/lazyclaim/ERC721LazyClaim.sol\":3746:3874  require(claimParameters.merkleRoot == \"\" || claimParameters.walletMax == 0, \"Cannot provide both mintsPerWallet and merkleRoot\") */\n    tag_109:\n      sub(shl(0xa0, 0x01), 0x01)\n        /* \"contracts/manifold/lazyclaim/ERC721LazyClaim.sol\":3932:3968  _claimCounts[creatorContractAddress] */\n      dup6\n      and\n      0x00\n      swap1\n      dup2\n      mstore\n        /* \"contracts/manifold/lazyclaim/ERC721LazyClaim.sol\":3932:3944  _claimCounts */\n      0x01\n        /* \"contracts/manifold/lazyclaim/ERC721LazyClaim.sol\":3932:3968  _claimCounts[creatorContractAddress] */\n      0x20\n      mstore\n      0x40\n      dup2\n      keccak256\n        /* \"contracts/manifold/lazyclaim/ERC721LazyClaim.sol\":3932:3970  _claimCounts[creatorContractAddress]++ */\n      dup1\n      sload\n      sub(shl(0xe0, 0x01), 0x01)\n      and\n      swap2\n      tag_112\n      dup4\n      tag_113\n      jump\t// in\n    tag_112:\n      dup3\n      sload\n      0x0100\n      swap3\n      swap1\n      swap3\n      exp\n      sub(shl(0xe0, 0x01), 0x01)\n      dup2\n      dup2\n      mul\n      not\n      swap1\n      swap4\n      and\n      swap2\n      dup4\n      and\n      mul\n      or\n      swap1\n      swap2\n      sstore\n      sub(shl(0xa0, 0x01), 0x01)\n        /* \"contracts/manifold/lazyclaim/ERC721LazyClaim.sol\":3999:4035  _claimCounts[creatorContractAddress] */\n      dup8\n      and\n      0x00\n      swap1\n      dup2\n      mstore\n      0x01\n      0x20\n      swap1\n      dup2\n      mstore\n      0x40\n      dup1\n      dup4\n      keccak256\n      sload\n        /* \"contracts/manifold/lazyclaim/ERC721LazyClaim.sol\":4118:4563  Claim({... */\n      dup2\n      mload\n      0x0120\n      dup2\n      add\n      swap1\n      swap3\n      mstore\n      swap3\n      dup2\n      mstore\n        /* \"contracts/manifold/lazyclaim/ERC721LazyClaim.sol\":3999:4035  _claimCounts[creatorContractAddress] */\n      swap2\n      swap1\n      swap3\n      and\n      swap3\n      pop\n        /* \"contracts/manifold/lazyclaim/ERC721LazyClaim.sol\":4118:4563  Claim({... */\n      swap1\n      dup2\n      dup2\n      add\n      swap1\n        /* \"contracts/manifold/lazyclaim/ERC721LazyClaim.sol\":4170:4194  claimParameters.totalMax */\n      tag_114\n      swap1\n      dup9\n      add\n      dup9\n      tag_108\n      jump\t// in\n    tag_114:\n        /* \"contracts/manifold/lazyclaim/ERC721LazyClaim.sol\":4118:4563  Claim({... */\n      0xffffffff\n      and\n      dup2\n      mstore\n      0x20\n      add\n        /* \"contracts/manifold/lazyclaim/ERC721LazyClaim.sol\":4219:4234  claimParameters */\n      dup7\n        /* \"contracts/manifold/lazyclaim/ERC721LazyClaim.sol\":4219:4244  claimParameters.walletMax */\n      0x20\n      add\n      0x20\n      dup2\n      add\n      swap1\n      tag_115\n      swap2\n      swap1\n      tag_108\n      jump\t// in\n    tag_115:\n        /* \"contracts/manifold/lazyclaim/ERC721LazyClaim.sol\":4118:4563  Claim({... */\n      0xffffffff\n      and\n      dup2\n      mstore\n      0x20\n      add\n        /* \"contracts/manifold/lazyclaim/ERC721LazyClaim.sol\":4269:4294  claimParameters.startDate */\n      tag_116\n      0x60\n      dup9\n      add\n      0x40\n      dup10\n      add\n      tag_99\n      jump\t// in\n    tag_116:\n        /* \"contracts/manifold/lazyclaim/ERC721LazyClaim.sol\":4118:4563  Claim({... */\n      0xffffffffffff\n      and\n      dup2\n      mstore\n      0x20\n      add\n        /* \"contracts/manifold/lazyclaim/ERC721LazyClaim.sol\":4317:4340  claimParameters.endDate */\n      tag_117\n      0x80\n      dup9\n      add\n      0x60\n      dup10\n      add\n      tag_99\n      jump\t// in\n    tag_117:\n        /* \"contracts/manifold/lazyclaim/ERC721LazyClaim.sol\":4118:4563  Claim({... */\n      0xffffffffffff\n      and\n      dup2\n      mstore\n      0x20\n      add\n        /* \"contracts/manifold/lazyclaim/ERC721LazyClaim.sol\":4371:4402  claimParameters.storageProtocol */\n      tag_118\n      0xa0\n      dup9\n      add\n      0x80\n      dup10\n      add\n      tag_92\n      jump\t// in\n    tag_118:\n        /* \"contracts/manifold/lazyclaim/ERC721LazyClaim.sol\":4118:4563  Claim({... */\n      0x03\n      dup2\n      gt\n      iszero\n      tag_120\n      jumpi\n      tag_120\n      tag_90\n      jump\t// in\n    tag_120:\n      dup2\n      mstore\n      0x20\n      add\n        /* \"contracts/manifold/lazyclaim/ERC721LazyClaim.sol\":4427:4452  claimParameters.identical */\n      tag_121\n      0xc0\n      dup9\n      add\n      0xa0\n      dup10\n      add\n      tag_122\n      jump\t// in\n    tag_121:\n        /* \"contracts/manifold/lazyclaim/ERC721LazyClaim.sol\":4118:4563  Claim({... */\n      iszero\n      iszero\n      dup2\n      mstore\n        /* \"contracts/manifold/lazyclaim/ERC721LazyClaim.sol\":4478:4504  claimParameters.merkleRoot */\n      0xc0\n      dup8\n      add\n      calldataload\n        /* \"contracts/manifold/lazyclaim/ERC721LazyClaim.sol\":4118:4563  Claim({... */\n      0x20\n      dup3\n      add\n      mstore\n      0x40\n      add\n        /* \"contracts/manifold/lazyclaim/ERC721LazyClaim.sol\":4528:4552  claimParameters.location */\n      tag_123\n      0xe0\n      dup9\n      add\n        /* \"contracts/manifold/lazyclaim/ERC721LazyClaim.sol\":4478:4493  claimParameters */\n      dup9\n        /* \"contracts/manifold/lazyclaim/ERC721LazyClaim.sol\":4528:4552  claimParameters.location */\n      tag_124\n      jump\t// in\n    tag_123:\n        /* \"contracts/manifold/lazyclaim/ERC721LazyClaim.sol\":4118:4563  Claim({... */\n      dup1\n      dup1\n      0x1f\n      add\n      0x20\n      dup1\n      swap2\n      div\n      mul\n      0x20\n      add\n      mload(0x40)\n      swap1\n      dup2\n      add\n      0x40\n      mstore\n      dup1\n      swap4\n      swap3\n      swap2\n      swap1\n      dup2\n      dup2\n      mstore\n      0x20\n      add\n      dup4\n      dup4\n      dup1\n      dup3\n      dup5\n      calldatacopy\n      0x00\n      swap3\n      add\n      dup3\n      swap1\n      mstore\n      pop\n      swap4\n      swap1\n      swap5\n      mstore\n      pop\n      pop\n      sub(shl(0xa0, 0x01), 0x01)\n        /* \"contracts/manifold/lazyclaim/ERC721LazyClaim.sol\":4074:4105  _claims[creatorContractAddress] */\n      dup10\n      and\n      dup2\n      mstore\n        /* \"contracts/manifold/lazyclaim/ERC721LazyClaim.sol\":4074:4081  _claims */\n      0x02\n        /* \"contracts/manifold/lazyclaim/ERC721LazyClaim.sol\":4074:4105  _claims[creatorContractAddress] */\n      0x20\n      swap1\n      dup2\n      mstore\n      0x40\n      dup1\n      dup4\n      keccak256\n      sub(shl(0xe0, 0x01), 0x01)\n        /* \"contracts/manifold/lazyclaim/ERC721LazyClaim.sol\":4074:4115  _claims[creatorContractAddress][newIndex] */\n      dup8\n      and\n      dup5\n      mstore\n      dup3\n      mstore\n      swap2\n      dup3\n      swap1\n      keccak256\n        /* \"contracts/manifold/lazyclaim/ERC721LazyClaim.sol\":4074:4563  _claims[creatorContractAddress][newIndex] = Claim({... */\n      dup5\n      mload\n      dup2\n      sload\n      swap3\n      dup7\n      add\n      mload\n      swap4\n      dup7\n      add\n      mload\n      0x60\n      dup8\n      add\n      mload\n      0x80\n      dup9\n      add\n      mload\n      0xffffffffffff\n      swap1\n      dup2\n      and\n      shl(0x90, 0x01)\n      mul\n      0xffffffffffffffff000000000000ffffffffffffffffffffffffffffffffffff\n      swap2\n      swap1\n      swap3\n      and\n      shl(0x60, 0x01)\n      mul\n      not(0xffffffffffff000000000000000000000000)\n      0xffffffff\n      swap5\n      dup6\n      and\n      shl(0x40, 0x01)\n      mul\n      and\n      not(0xffffffffffffffffffff0000000000000000)\n      swap9\n      dup6\n      and\n      0x0100000000\n      mul\n      not(0xffffffffffffffff)\n      swap1\n      swap9\n      and\n      swap5\n      swap1\n      swap6\n      and\n      swap4\n      swap1\n      swap4\n      or\n      swap6\n      swap1\n      swap6\n      or\n      swap6\n      swap1\n      swap6\n      and\n      swap2\n      swap1\n      swap2\n      or\n      or\n      swap2\n      dup3\n      and\n      dup4\n      or\n      dup2\n      sstore\n      0xa0\n      dup6\n      add\n      mload\n        /* \"contracts/manifold/lazyclaim/ERC721LazyClaim.sol\":4074:4115  _claims[creatorContractAddress][newIndex] */\n      swap1\n      swap4\n      pop\n        /* \"contracts/manifold/lazyclaim/ERC721LazyClaim.sol\":4074:4563  _claims[creatorContractAddress][newIndex] = Claim({... */\n      swap2\n        /* \"contracts/manifold/lazyclaim/ERC721LazyClaim.sol\":4074:4115  _claims[creatorContractAddress][newIndex] */\n      dup4\n      swap2\n      not(shl(0xc0, 0xff))\n        /* \"contracts/manifold/lazyclaim/ERC721LazyClaim.sol\":4074:4563  _claims[creatorContractAddress][newIndex] = Claim({... */\n      swap1\n      swap2\n      and\n      0xffffffffffffff00000000000000ffffffffffffffffffffffffffffffffffff\n      swap1\n      swap2\n      and\n      or\n      shl(0xc0, 0x01)\n      dup4\n      0x03\n      dup2\n      gt\n      iszero\n      tag_126\n      jumpi\n      tag_126\n      tag_90\n      jump\t// in\n    tag_126:\n      mul\n      or\n      swap1\n      sstore\n      pop\n      0xc0\n      dup3\n      add\n      mload\n      dup2\n      sload\n      swap1\n      iszero\n      iszero\n      shl(0xc8, 0x01)\n      mul\n      not(shl(0xc8, 0xff))\n      swap1\n      swap2\n      and\n      or\n      dup2\n      sstore\n      0xe0\n      dup3\n      add\n      mload\n      0x01\n      dup3\n      add\n      sstore\n      0x0100\n      dup3\n      add\n      mload\n      dup1\n      mload\n      tag_127\n      swap2\n      0x02\n      dup5\n      add\n      swap2\n      0x20\n      swap1\n      swap2\n      add\n      swap1\n      tag_128\n      jump\t// in\n    tag_127:\n      pop\n      pop\n        /* \"contracts/manifold/lazyclaim/ERC721LazyClaim.sol\":4579:4641  ClaimInitialized(creatorContractAddress, newIndex, msg.sender) */\n      mload(0x40)\n        /* \"contracts/manifold/lazyclaim/ERC721LazyClaim.sol\":4630:4640  msg.sender */\n      caller\n        /* \"#utility.yul\":9841:9915   */\n      dup2\n      mstore\n      sub(shl(0xe0, 0x01), 0x01)\n        /* \"contracts/manifold/lazyclaim/ERC721LazyClaim.sol\":4579:4641  ClaimInitialized(creatorContractAddress, newIndex, msg.sender) */\n      dup4\n      and\n      swap2\n      pop\n      sub(shl(0xa0, 0x01), 0x01)\n      dup9\n      and\n      swap1\n      0xcf76e1beb8dcf887c917933e1d0970eafadb9a69b82cfd5f44740a0dce6f45a6\n      swap1\n        /* \"#utility.yul\":9829:9831   */\n      0x20\n        /* \"#utility.yul\":9814:9832   */\n      add\n        /* \"contracts/manifold/lazyclaim/ERC721LazyClaim.sol\":4579:4641  ClaimInitialized(creatorContractAddress, newIndex, msg.sender) */\n      mload(0x40)\n      dup1\n      swap2\n      sub\n      swap1\n      log3\n      sub(shl(0xe0, 0x01), 0x01)\n        /* \"contracts/manifold/lazyclaim/ERC721LazyClaim.sol\":4651:4666  return newIndex */\n      and\n      swap6\n        /* \"contracts/manifold/lazyclaim/ERC721LazyClaim.sol\":3221:4673  function initializeClaim(... */\n      swap5\n      pop\n      pop\n      pop\n      pop\n      pop\n      jump\t// out\n        /* \"contracts/manifold/lazyclaim/ERC721LazyClaim.sol\":6639:6951  function getClaim(address creatorContractAddress, uint256 claimIndex) external override view returns(Claim memory) {... */\n    tag_32:\n        /* \"contracts/manifold/lazyclaim/ERC721LazyClaim.sol\":6740:6752  Claim memory */\n      tag_130\n      0x40\n      dup1\n      mload\n      0x0120\n      dup2\n      add\n      dup3\n      mstore\n      0x00\n      dup1\n      dup3\n      mstore\n      0x20\n      dup3\n      add\n      dup2\n      swap1\n      mstore\n      swap2\n      dup2\n      add\n      dup3\n      swap1\n      mstore\n      0x60\n      dup2\n      add\n      dup3\n      swap1\n      mstore\n      0x80\n      dup2\n      add\n      dup3\n      swap1\n      mstore\n      swap1\n      0xa0\n      dup3\n      add\n      swap1\n      dup2\n      mstore\n      0x00\n      0x20\n      dup3\n      add\n      dup2\n      swap1\n      mstore\n      0x40\n      dup3\n      add\n      mstore\n      0x60\n      swap1\n      dup2\n      add\n      mstore\n      swap1\n      jump\n    tag_130:\n        /* \"contracts/manifold/lazyclaim/ERC721LazyClaim.sol\":6835:6858  StorageProtocol.INVALID */\n      0x00\n      sub(shl(0xa0, 0x01), 0x01)\n        /* \"contracts/manifold/lazyclaim/ERC721LazyClaim.sol\":6772:6803  _claims[creatorContractAddress] */\n      dup5\n      and\n      0x00\n      swap1\n      dup2\n      mstore\n        /* \"contracts/manifold/lazyclaim/ERC721LazyClaim.sol\":6772:6779  _claims */\n      0x02\n        /* \"contracts/manifold/lazyclaim/ERC721LazyClaim.sol\":6772:6803  _claims[creatorContractAddress] */\n      0x20\n      swap1\n      dup2\n      mstore\n      0x40\n      dup1\n      dup4\n      keccak256\n        /* \"contracts/manifold/lazyclaim/ERC721LazyClaim.sol\":6772:6815  _claims[creatorContractAddress][claimIndex] */\n      dup7\n      dup5\n      mstore\n      swap1\n      swap2\n      mstore\n      swap1\n      keccak256\n        /* \"contracts/manifold/lazyclaim/ERC721LazyClaim.sol\":6772:6831  _claims[creatorContractAddress][claimIndex].storageProtocol */\n      sload\n      shl(0xc0, 0x01)\n      swap1\n      div\n      0xff\n      and\n        /* \"contracts/manifold/lazyclaim/ERC721LazyClaim.sol\":6772:6858  _claims[creatorContractAddress][claimIndex].storageProtocol != StorageProtocol.INVALID */\n      0x03\n      dup2\n      gt\n      iszero\n      tag_136\n      jumpi\n      tag_136\n      tag_90\n      jump\t// in\n    tag_136:\n      sub\n        /* \"contracts/manifold/lazyclaim/ERC721LazyClaim.sol\":6764:6884  require(_claims[creatorContractAddress][claimIndex].storageProtocol != StorageProtocol.INVALID, \"Claim not initialized\") */\n      tag_137\n      jumpi\n      mload(0x40)\n      shl(0xe5, 0x461bcd)\n      dup2\n      mstore\n        /* \"#utility.yul\":14142:14144   */\n      0x20\n        /* \"contracts/manifold/lazyclaim/ERC721LazyClaim.sol\":6764:6884  require(_claims[creatorContractAddress][claimIndex].storageProtocol != StorageProtocol.INVALID, \"Claim not initialized\") */\n      0x04\n      dup3\n      add\n        /* \"#utility.yul\":14124:14145   */\n      mstore\n        /* \"#utility.yul\":14181:14183   */\n      0x15\n        /* \"#utility.yul\":14161:14179   */\n      0x24\n      dup3\n      add\n        /* \"#utility.yul\":14154:14184   */\n      mstore\n      shl(0x5a, 0x10db185a5b481b9bdd081a5b9a5d1a585b1a5e9959)\n        /* \"#utility.yul\":14200:14218   */\n      0x44\n      dup3\n      add\n        /* \"#utility.yul\":14193:14244   */\n      mstore\n        /* \"#utility.yul\":14261:14279   */\n      0x64\n      add\n        /* \"contracts/manifold/lazyclaim/ERC721LazyClaim.sol\":6764:6884  require(_claims[creatorContractAddress][claimIndex].storageProtocol != StorageProtocol.INVALID, \"Claim not initialized\") */\n      tag_85\n        /* \"#utility.yul\":13940:14285   */\n      jump\n        /* \"contracts/manifold/lazyclaim/ERC721LazyClaim.sol\":6764:6884  require(_claims[creatorContractAddress][claimIndex].storageProtocol != StorageProtocol.INVALID, \"Claim not initialized\") */\n    tag_137:\n      sub(shl(0xa0, 0x01), 0x01)\n        /* \"contracts/manifold/lazyclaim/ERC721LazyClaim.sol\":6901:6932  _claims[creatorContractAddress] */\n      dup4\n      and\n      0x00\n      swap1\n      dup2\n      mstore\n        /* \"contracts/manifold/lazyclaim/ERC721LazyClaim.sol\":6901:6908  _claims */\n      0x02\n        /* \"contracts/manifold/lazyclaim/ERC721LazyClaim.sol\":6901:6932  _claims[creatorContractAddress] */\n      0x20\n      swap1\n      dup2\n      mstore\n      0x40\n      dup1\n      dup4\n      keccak256\n        /* \"contracts/manifold/lazyclaim/ERC721LazyClaim.sol\":6901:6944  _claims[creatorContractAddress][claimIndex] */\n      dup6\n      dup5\n      mstore\n      dup3\n      mstore\n      swap2\n      dup3\n      swap1\n      keccak256\n        /* \"contracts/manifold/lazyclaim/ERC721LazyClaim.sol\":6894:6944  return _claims[creatorContractAddress][claimIndex] */\n      dup3\n      mload\n      0x0120\n      dup2\n      add\n      dup5\n      mstore\n      dup2\n      sload\n      0xffffffff\n      dup1\n      dup3\n      and\n      dup4\n      mstore\n      0x0100000000\n      dup3\n      div\n      dup2\n      and\n      swap5\n      dup4\n      add\n      swap5\n      swap1\n      swap5\n      mstore\n      shl(0x40, 0x01)\n      dup2\n      div\n      swap1\n      swap4\n      and\n      swap4\n      dup2\n      add\n      swap4\n      swap1\n      swap4\n      mstore\n      0xffffffffffff\n      shl(0x60, 0x01)\n      dup4\n      div\n      dup2\n      and\n      0x60\n      dup6\n      add\n      mstore\n      shl(0x90, 0x01)\n      dup4\n      div\n      and\n      0x80\n      dup5\n      add\n      mstore\n        /* \"contracts/manifold/lazyclaim/ERC721LazyClaim.sol\":6901:6944  _claims[creatorContractAddress][claimIndex] */\n      swap1\n        /* \"contracts/manifold/lazyclaim/ERC721LazyClaim.sol\":6894:6944  return _claims[creatorContractAddress][claimIndex] */\n      0xa0\n      dup4\n      add\n      swap1\n      0xff\n      shl(0xc0, 0x01)\n      swap1\n      swap2\n      div\n      and\n      0x03\n      dup2\n      gt\n      iszero\n      tag_141\n      jumpi\n      tag_141\n      tag_90\n      jump\t// in\n    tag_141:\n      0x03\n      dup2\n      gt\n      iszero\n      tag_143\n      jumpi\n      tag_143\n      tag_90\n      jump\t// in\n    tag_143:\n      dup2\n      mstore\n      dup2\n      sload\n      shl(0xc8, 0x01)\n      swap1\n      div\n      0xff\n      and\n      iszero\n      iszero\n      0x20\n      dup3\n      add\n      mstore\n      0x01\n      dup3\n      add\n      sload\n      0x40\n      dup3\n      add\n      mstore\n      0x02\n      dup3\n      add\n      dup1\n      sload\n      0x60\n      swap1\n      swap3\n      add\n      swap2\n      tag_144\n      swap1\n      tag_145\n      jump\t// in\n    tag_144:\n      dup1\n      0x1f\n      add\n      0x20\n      dup1\n      swap2\n      div\n      mul\n      0x20\n      add\n      mload(0x40)\n      swap1\n      dup2\n      add\n      0x40\n      mstore\n      dup1\n      swap3\n      swap2\n      swap1\n      dup2\n      dup2\n      mstore\n      0x20\n      add\n      dup3\n      dup1\n      sload\n      tag_146\n      swap1\n      tag_145\n      jump\t// in\n    tag_146:\n      dup1\n      iszero\n      tag_147\n      jumpi\n      dup1\n      0x1f\n      lt\n      tag_148\n      jumpi\n      0x0100\n      dup1\n      dup4\n      sload\n      div\n      mul\n      dup4\n      mstore\n      swap2\n      0x20\n      add\n      swap2\n      jump(tag_147)\n    tag_148:\n      dup3\n      add\n      swap2\n      swap1\n      0x00\n      mstore\n      keccak256(0x00, 0x20)\n      swap1\n    tag_149:\n      dup2\n      sload\n      dup2\n      mstore\n      swap1\n      0x01\n      add\n      swap1\n      0x20\n      add\n      dup1\n      dup4\n      gt\n      tag_149\n      jumpi\n      dup3\n      swap1\n      sub\n      0x1f\n      and\n      dup3\n      add\n      swap2\n    tag_147:\n      pop\n      pop\n      pop\n      pop\n      pop\n      dup2\n      mstore\n      pop\n      pop\n      swap1\n      pop\n        /* \"contracts/manifold/lazyclaim/ERC721LazyClaim.sol\":6639:6951  function getClaim(address creatorContractAddress, uint256 claimIndex) external override view returns(Claim memory) {... */\n      swap3\n      swap2\n      pop\n      pop\n      jump\t// out\n        /* \"contracts/manifold/lazyclaim/ERC721LazyClaim.sol\":4738:6355  function updateClaim(... */\n    tag_38:\n        /* \"contracts/manifold/lazyclaim/ERC721LazyClaim.sol\":3047:3086  creatorCoreContract.isAdmin(msg.sender) */\n      mload(0x40)\n      shl(0xe2, 0x0935e01b)\n      dup2\n      mstore\n        /* \"contracts/manifold/lazyclaim/ERC721LazyClaim.sol\":3075:3085  msg.sender */\n      caller\n        /* \"contracts/manifold/lazyclaim/ERC721LazyClaim.sol\":3047:3086  creatorCoreContract.isAdmin(msg.sender) */\n      0x04\n      dup3\n      add\n        /* \"#utility.yul\":9841:9915   */\n      mstore\n        /* \"contracts/manifold/lazyclaim/ERC721LazyClaim.sol\":4922:4944  creatorContractAddress */\n      dup4\n      swap1\n      dup2\n      swap1\n      sub(shl(0xa0, 0x01), 0x01)\n        /* \"contracts/manifold/lazyclaim/ERC721LazyClaim.sol\":3047:3074  creatorCoreContract.isAdmin */\n      dup3\n      and\n      swap1\n      0x24d7806c\n      swap1\n        /* \"#utility.yul\":9814:9832   */\n      0x24\n      add\n        /* \"contracts/manifold/lazyclaim/ERC721LazyClaim.sol\":3047:3086  creatorCoreContract.isAdmin(msg.sender) */\n      0x20\n      mload(0x40)\n      dup1\n      dup4\n      sub\n      dup2\n      dup7\n      gas\n      staticcall\n      iszero\n      dup1\n      iszero\n      tag_153\n      jumpi\n      returndatasize\n      0x00\n      dup1\n      returndatacopy\n      revert(0x00, returndatasize)\n    tag_153:\n      pop\n      pop\n      pop\n      pop\n      mload(0x40)\n      returndatasize\n      not(0x1f)\n      0x1f\n      dup3\n      add\n      and\n      dup3\n      add\n      dup1\n      0x40\n      mstore\n      pop\n      dup2\n      add\n      swap1\n      tag_154\n      swap2\n      swap1\n      tag_83\n      jump\t// in\n    tag_154:\n        /* \"contracts/manifold/lazyclaim/ERC721LazyClaim.sol\":3039:3134  require(creatorCoreContract.isAdmin(msg.sender), \"Wallet is not an administrator for contract\") */\n      tag_155\n      jumpi\n      mload(0x40)\n      shl(0xe5, 0x461bcd)\n      dup2\n      mstore\n        /* \"#utility.yul\":10501:10503   */\n      0x20\n        /* \"contracts/manifold/lazyclaim/ERC721LazyClaim.sol\":3039:3134  require(creatorCoreContract.isAdmin(msg.sender), \"Wallet is not an administrator for contract\") */\n      0x04\n      dup3\n      add\n        /* \"#utility.yul\":10483:10504   */\n      mstore\n        /* \"#utility.yul\":10540:10542   */\n      0x2b\n        /* \"#utility.yul\":10520:10538   */\n      0x24\n      dup3\n      add\n        /* \"#utility.yul\":10513:10543   */\n      mstore\n        /* \"#utility.yul\":10579:10613   */\n      0x57616c6c6574206973206e6f7420616e2061646d696e6973747261746f722066\n        /* \"#utility.yul\":10559:10577   */\n      0x44\n      dup3\n      add\n        /* \"#utility.yul\":10552:10614   */\n      mstore\n      shl(0xaa, 0x1bdc8818dbdb9d1c9858dd)\n        /* \"#utility.yul\":10630:10648   */\n      0x64\n      dup3\n      add\n        /* \"#utility.yul\":10623:10664   */\n      mstore\n        /* \"#utility.yul\":10681:10700   */\n      0x84\n      add\n        /* \"contracts/manifold/lazyclaim/ERC721LazyClaim.sol\":3039:3134  require(creatorCoreContract.isAdmin(msg.sender), \"Wallet is not an administrator for contract\") */\n      tag_85\n        /* \"#utility.yul\":10299:10706   */\n      jump\n        /* \"contracts/manifold/lazyclaim/ERC721LazyClaim.sol\":3039:3134  require(creatorCoreContract.isAdmin(msg.sender), \"Wallet is not an administrator for contract\") */\n    tag_155:\n        /* \"contracts/manifold/lazyclaim/ERC721LazyClaim.sol\":5052:5075  StorageProtocol.INVALID */\n      0x00\n      sub(shl(0xa0, 0x01), 0x01)\n        /* \"contracts/manifold/lazyclaim/ERC721LazyClaim.sol\":4989:5020  _claims[creatorContractAddress] */\n      dup7\n      and\n      0x00\n      swap1\n      dup2\n      mstore\n        /* \"contracts/manifold/lazyclaim/ERC721LazyClaim.sol\":4989:4996  _claims */\n      0x02\n        /* \"contracts/manifold/lazyclaim/ERC721LazyClaim.sol\":4989:5020  _claims[creatorContractAddress] */\n      0x20\n      swap1\n      dup2\n      mstore\n      0x40\n      dup1\n      dup4\n      keccak256\n        /* \"contracts/manifold/lazyclaim/ERC721LazyClaim.sol\":4989:5032  _claims[creatorContractAddress][claimIndex] */\n      dup9\n      dup5\n      mstore\n      swap1\n      swap2\n      mstore\n      swap1\n      keccak256\n        /* \"contracts/manifold/lazyclaim/ERC721LazyClaim.sol\":4989:5048  _claims[creatorContractAddress][claimIndex].storageProtocol */\n      sload\n      shl(0xc0, 0x01)\n      swap1\n      div\n      0xff\n      and\n        /* \"contracts/manifold/lazyclaim/ERC721LazyClaim.sol\":4989:5075  _claims[creatorContractAddress][claimIndex].storageProtocol != StorageProtocol.INVALID */\n      0x03\n      dup2\n      gt\n      iszero\n      tag_161\n      jumpi\n      tag_161\n      tag_90\n      jump\t// in\n    tag_161:\n      sub\n        /* \"contracts/manifold/lazyclaim/ERC721LazyClaim.sol\":4981:5101  require(_claims[creatorContractAddress][claimIndex].storageProtocol != StorageProtocol.INVALID, \"Claim not initialized\") */\n      tag_162\n      jumpi\n      mload(0x40)\n      shl(0xe5, 0x461bcd)\n      dup2\n      mstore\n        /* \"#utility.yul\":14142:14144   */\n      0x20\n        /* \"contracts/manifold/lazyclaim/ERC721LazyClaim.sol\":4981:5101  require(_claims[creatorContractAddress][claimIndex].storageProtocol != StorageProtocol.INVALID, \"Claim not initialized\") */\n      0x04\n      dup3\n      add\n        /* \"#utility.yul\":14124:14145   */\n      mstore\n        /* \"#utility.yul\":14181:14183   */\n      0x15\n        /* \"#utility.yul\":14161:14179   */\n      0x24\n      dup3\n      add\n        /* \"#utility.yul\":14154:14184   */\n      mstore\n      shl(0x5a, 0x10db185a5b481b9bdd081a5b9a5d1a585b1a5e9959)\n        /* \"#utility.yul\":14200:14218   */\n      0x44\n      dup3\n      add\n        /* \"#utility.yul\":14193:14244   */\n      mstore\n        /* \"#utility.yul\":14261:14279   */\n      0x64\n      add\n        /* \"contracts/manifold/lazyclaim/ERC721LazyClaim.sol\":4981:5101  require(_claims[creatorContractAddress][claimIndex].storageProtocol != StorageProtocol.INVALID, \"Claim not initialized\") */\n      tag_85\n        /* \"#utility.yul\":13940:14285   */\n      jump\n        /* \"contracts/manifold/lazyclaim/ERC721LazyClaim.sol\":4981:5101  require(_claims[creatorContractAddress][claimIndex].storageProtocol != StorageProtocol.INVALID, \"Claim not initialized\") */\n    tag_162:\n        /* \"contracts/manifold/lazyclaim/ERC721LazyClaim.sol\":5154:5177  StorageProtocol.INVALID */\n      0x00\n        /* \"contracts/manifold/lazyclaim/ERC721LazyClaim.sol\":5119:5150  claimParameters.storageProtocol */\n      tag_166\n      0xa0\n      dup6\n      add\n      0x80\n      dup7\n      add\n      tag_92\n      jump\t// in\n    tag_166:\n        /* \"contracts/manifold/lazyclaim/ERC721LazyClaim.sol\":5119:5177  claimParameters.storageProtocol != StorageProtocol.INVALID */\n      0x03\n      dup2\n      gt\n      iszero\n      tag_168\n      jumpi\n      tag_168\n      tag_90\n      jump\t// in\n    tag_168:\n      sub\n        /* \"contracts/manifold/lazyclaim/ERC721LazyClaim.sol\":5111:5217  require(claimParameters.storageProtocol != StorageProtocol.INVALID, \"Cannot set invalid storage protocol\") */\n      tag_169\n      jumpi\n      mload(0x40)\n      shl(0xe5, 0x461bcd)\n      dup2\n      mstore\n        /* \"#utility.yul\":14934:14936   */\n      0x20\n        /* \"contracts/manifold/lazyclaim/ERC721LazyClaim.sol\":5111:5217  require(claimParameters.storageProtocol != StorageProtocol.INVALID, \"Cannot set invalid storage protocol\") */\n      0x04\n      dup3\n      add\n        /* \"#utility.yul\":14916:14937   */\n      mstore\n        /* \"#utility.yul\":14973:14975   */\n      0x23\n        /* \"#utility.yul\":14953:14971   */\n      0x24\n      dup3\n      add\n        /* \"#utility.yul\":14946:14976   */\n      mstore\n        /* \"#utility.yul\":15012:15046   */\n      0x43616e6e6f742073657420696e76616c69642073746f726167652070726f746f\n        /* \"#utility.yul\":14992:15010   */\n      0x44\n      dup3\n      add\n        /* \"#utility.yul\":14985:15047   */\n      mstore\n        /* \"#utility.yul\":15083:15088   */\n      0x636f6c0000000000000000000000000000000000000000000000000000000000\n        /* \"#utility.yul\":15063:15081   */\n      0x64\n      dup3\n      add\n        /* \"#utility.yul\":15056:15089   */\n      mstore\n        /* \"#utility.yul\":15106:15125   */\n      0x84\n      add\n        /* \"contracts/manifold/lazyclaim/ERC721LazyClaim.sol\":5111:5217  require(claimParameters.storageProtocol != StorageProtocol.INVALID, \"Cannot set invalid storage protocol\") */\n      tag_85\n        /* \"#utility.yul\":14732:15131   */\n      jump\n        /* \"contracts/manifold/lazyclaim/ERC721LazyClaim.sol\":5111:5217  require(claimParameters.storageProtocol != StorageProtocol.INVALID, \"Cannot set invalid storage protocol\") */\n    tag_169:\n      sub(shl(0xa0, 0x01), 0x01)\n        /* \"contracts/manifold/lazyclaim/ERC721LazyClaim.sol\":5235:5266  _claims[creatorContractAddress] */\n      dup6\n      and\n      0x00\n      swap1\n      dup2\n      mstore\n        /* \"contracts/manifold/lazyclaim/ERC721LazyClaim.sol\":5235:5242  _claims */\n      0x02\n        /* \"contracts/manifold/lazyclaim/ERC721LazyClaim.sol\":5235:5266  _claims[creatorContractAddress] */\n      0x20\n      swap1\n      dup2\n      mstore\n      0x40\n      dup1\n      dup4\n      keccak256\n        /* \"contracts/manifold/lazyclaim/ERC721LazyClaim.sol\":5235:5278  _claims[creatorContractAddress][claimIndex] */\n      dup8\n      dup5\n      mstore\n      swap1\n      swap2\n      mstore\n      swap1\n      keccak256\n        /* \"contracts/manifold/lazyclaim/ERC721LazyClaim.sol\":5235:5287  _claims[creatorContractAddress][claimIndex].totalMax */\n      sload\n      0x0100000000\n      swap1\n      div\n      0xffffffff\n      and\n        /* \"contracts/manifold/lazyclaim/ERC721LazyClaim.sol\":5235:5292  _claims[creatorContractAddress][claimIndex].totalMax == 0 */\n      iszero\n      dup1\n        /* \"contracts/manifold/lazyclaim/ERC721LazyClaim.sol\":5235:5377  _claims[creatorContractAddress][claimIndex].totalMax == 0 ||  _claims[creatorContractAddress][claimIndex].totalMax <= claimParameters.totalMax */\n      tag_172\n      jumpi\n      pop\n        /* \"contracts/manifold/lazyclaim/ERC721LazyClaim.sol\":5353:5377  claimParameters.totalMax */\n      tag_173\n      0x20\n      dup5\n      add\n        /* \"contracts/manifold/lazyclaim/ERC721LazyClaim.sol\":5353:5368  claimParameters */\n      dup5\n        /* \"contracts/manifold/lazyclaim/ERC721LazyClaim.sol\":5353:5377  claimParameters.totalMax */\n      tag_108\n      jump\t// in\n    tag_173:\n      sub(shl(0xa0, 0x01), 0x01)\n        /* \"contracts/manifold/lazyclaim/ERC721LazyClaim.sol\":5297:5328  _claims[creatorContractAddress] */\n      dup7\n      and\n      0x00\n      swap1\n      dup2\n      mstore\n        /* \"contracts/manifold/lazyclaim/ERC721LazyClaim.sol\":5297:5304  _claims */\n      0x02\n        /* \"contracts/manifold/lazyclaim/ERC721LazyClaim.sol\":5297:5328  _claims[creatorContractAddress] */\n      0x20\n      swap1\n      dup2\n      mstore\n      0x40\n      dup1\n      dup4\n      keccak256\n        /* \"contracts/manifold/lazyclaim/ERC721LazyClaim.sol\":5297:5340  _claims[creatorContractAddress][claimIndex] */\n      dup9\n      dup5\n      mstore\n      swap1\n      swap2\n      mstore\n      swap1\n      keccak256\n        /* \"contracts/manifold/lazyclaim/ERC721LazyClaim.sol\":5297:5349  _claims[creatorContractAddress][claimIndex].totalMax */\n      sload\n        /* \"contracts/manifold/lazyclaim/ERC721LazyClaim.sol\":5297:5377  _claims[creatorContractAddress][claimIndex].totalMax <= claimParameters.totalMax */\n      0xffffffff\n      swap2\n      dup3\n      and\n        /* \"contracts/manifold/lazyclaim/ERC721LazyClaim.sol\":5297:5349  _claims[creatorContractAddress][claimIndex].totalMax */\n      0x0100000000\n      swap1\n      swap2\n      div\n      swap1\n      swap2\n      and\n        /* \"contracts/manifold/lazyclaim/ERC721LazyClaim.sol\":5297:5377  _claims[creatorContractAddress][claimIndex].totalMax <= claimParameters.totalMax */\n      gt\n      iszero\n        /* \"contracts/manifold/lazyclaim/ERC721LazyClaim.sol\":5235:5377  _claims[creatorContractAddress][claimIndex].totalMax == 0 ||  _claims[creatorContractAddress][claimIndex].totalMax <= claimParameters.totalMax */\n    tag_172:\n        /* \"contracts/manifold/lazyclaim/ERC721LazyClaim.sol\":5227:5406  require(_claims[creatorContractAddress][claimIndex].totalMax == 0 ||  _claims[creatorContractAddress][claimIndex].totalMax <= claimParameters.totalMax, \"Cannot decrease totalMax\") */\n      tag_174\n      jumpi\n      mload(0x40)\n      shl(0xe5, 0x461bcd)\n      dup2\n      mstore\n        /* \"#utility.yul\":15338:15340   */\n      0x20\n        /* \"contracts/manifold/lazyclaim/ERC721LazyClaim.sol\":5227:5406  require(_claims[creatorContractAddress][claimIndex].totalMax == 0 ||  _claims[creatorContractAddress][claimIndex].totalMax <= claimParameters.totalMax, \"Cannot decrease totalMax\") */\n      0x04\n      dup3\n      add\n        /* \"#utility.yul\":15320:15341   */\n      mstore\n        /* \"#utility.yul\":15377:15379   */\n      0x18\n        /* \"#utility.yul\":15357:15375   */\n      0x24\n      dup3\n      add\n        /* \"#utility.yul\":15350:15380   */\n      mstore\n        /* \"#utility.yul\":15416:15442   */\n      0x43616e6e6f7420646563726561736520746f74616c4d61780000000000000000\n        /* \"#utility.yul\":15396:15414   */\n      0x44\n      dup3\n      add\n        /* \"#utility.yul\":15389:15443   */\n      mstore\n        /* \"#utility.yul\":15460:15478   */\n      0x64\n      add\n        /* \"contracts/manifold/lazyclaim/ERC721LazyClaim.sol\":5227:5406  require(_claims[creatorContractAddress][claimIndex].totalMax == 0 ||  _claims[creatorContractAddress][claimIndex].totalMax <= claimParameters.totalMax, \"Cannot decrease totalMax\") */\n      tag_85\n        /* \"#utility.yul\":15136:15484   */\n      jump\n        /* \"contracts/manifold/lazyclaim/ERC721LazyClaim.sol\":5227:5406  require(_claims[creatorContractAddress][claimIndex].totalMax == 0 ||  _claims[creatorContractAddress][claimIndex].totalMax <= claimParameters.totalMax, \"Cannot decrease totalMax\") */\n    tag_174:\n      sub(shl(0xa0, 0x01), 0x01)\n        /* \"contracts/manifold/lazyclaim/ERC721LazyClaim.sol\":5424:5455  _claims[creatorContractAddress] */\n      dup6\n      and\n      0x00\n      swap1\n      dup2\n      mstore\n        /* \"contracts/manifold/lazyclaim/ERC721LazyClaim.sol\":5424:5431  _claims */\n      0x02\n        /* \"contracts/manifold/lazyclaim/ERC721LazyClaim.sol\":5424:5455  _claims[creatorContractAddress] */\n      0x20\n      swap1\n      dup2\n      mstore\n      0x40\n      dup1\n      dup4\n      keccak256\n        /* \"contracts/manifold/lazyclaim/ERC721LazyClaim.sol\":5424:5467  _claims[creatorContractAddress][claimIndex] */\n      dup8\n      dup5\n      mstore\n      swap1\n      swap2\n      mstore\n      swap1\n      keccak256\n        /* \"contracts/manifold/lazyclaim/ERC721LazyClaim.sol\":5424:5477  _claims[creatorContractAddress][claimIndex].walletMax */\n      sload\n      shl(0x40, 0x01)\n      swap1\n      div\n      0xffffffff\n      and\n        /* \"contracts/manifold/lazyclaim/ERC721LazyClaim.sol\":5424:5482  _claims[creatorContractAddress][claimIndex].walletMax == 0 */\n      iszero\n      dup1\n        /* \"contracts/manifold/lazyclaim/ERC721LazyClaim.sol\":5424:5568  _claims[creatorContractAddress][claimIndex].walletMax == 0 || _claims[creatorContractAddress][claimIndex].walletMax <= claimParameters.walletMax */\n      tag_177\n      jumpi\n      pop\n        /* \"contracts/manifold/lazyclaim/ERC721LazyClaim.sol\":5543:5568  claimParameters.walletMax */\n      tag_178\n      0x40\n      dup5\n      add\n      0x20\n      dup6\n      add\n      tag_108\n      jump\t// in\n    tag_178:\n      sub(shl(0xa0, 0x01), 0x01)\n        /* \"contracts/manifold/lazyclaim/ERC721LazyClaim.sol\":5486:5517  _claims[creatorContractAddress] */\n      dup7\n      and\n      0x00\n      swap1\n      dup2\n      mstore\n        /* \"contracts/manifold/lazyclaim/ERC721LazyClaim.sol\":5486:5493  _claims */\n      0x02\n        /* \"contracts/manifold/lazyclaim/ERC721LazyClaim.sol\":5486:5517  _claims[creatorContractAddress] */\n      0x20\n      swap1\n      dup2\n      mstore\n      0x40\n      dup1\n      dup4\n      keccak256\n        /* \"contracts/manifold/lazyclaim/ERC721LazyClaim.sol\":5486:5529  _claims[creatorContractAddress][claimIndex] */\n      dup9\n      dup5\n      mstore\n      swap1\n      swap2\n      mstore\n      swap1\n      keccak256\n        /* \"contracts/manifold/lazyclaim/ERC721LazyClaim.sol\":5486:5539  _claims[creatorContractAddress][claimIndex].walletMax */\n      sload\n        /* \"contracts/manifold/lazyclaim/ERC721LazyClaim.sol\":5486:5568  _claims[creatorContractAddress][claimIndex].walletMax <= claimParameters.walletMax */\n      0xffffffff\n      swap2\n      dup3\n      and\n      shl(0x40, 0x01)\n        /* \"contracts/manifold/lazyclaim/ERC721LazyClaim.sol\":5486:5539  _claims[creatorContractAddress][claimIndex].walletMax */\n      swap1\n      swap2\n      div\n      swap1\n      swap2\n      and\n        /* \"contracts/manifold/lazyclaim/ERC721LazyClaim.sol\":5486:5568  _claims[creatorContractAddress][claimIndex].walletMax <= claimParameters.walletMax */\n      gt\n      iszero\n        /* \"contracts/manifold/lazyclaim/ERC721LazyClaim.sol\":5424:5568  _claims[creatorContractAddress][claimIndex].walletMax == 0 || _claims[creatorContractAddress][claimIndex].walletMax <= claimParameters.walletMax */\n    tag_177:\n        /* \"contracts/manifold/lazyclaim/ERC721LazyClaim.sol\":5416:5598  require(_claims[creatorContractAddress][claimIndex].walletMax == 0 || _claims[creatorContractAddress][claimIndex].walletMax <= claimParameters.walletMax, \"Cannot decrease walletMax\") */\n      tag_179\n      jumpi\n      mload(0x40)\n      shl(0xe5, 0x461bcd)\n      dup2\n      mstore\n        /* \"#utility.yul\":15691:15693   */\n      0x20\n        /* \"contracts/manifold/lazyclaim/ERC721LazyClaim.sol\":5416:5598  require(_claims[creatorContractAddress][claimIndex].walletMax == 0 || _claims[creatorContractAddress][claimIndex].walletMax <= claimParameters.walletMax, \"Cannot decrease walletMax\") */\n      0x04\n      dup3\n      add\n        /* \"#utility.yul\":15673:15694   */\n      mstore\n        /* \"#utility.yul\":15730:15732   */\n      0x19\n        /* \"#utility.yul\":15710:15728   */\n      0x24\n      dup3\n      add\n        /* \"#utility.yul\":15703:15733   */\n      mstore\n        /* \"#utility.yul\":15769:15796   */\n      0x43616e6e6f742064656372656173652077616c6c65744d617800000000000000\n        /* \"#utility.yul\":15749:15767   */\n      0x44\n      dup3\n      add\n        /* \"#utility.yul\":15742:15797   */\n      mstore\n        /* \"#utility.yul\":15814:15832   */\n      0x64\n      add\n        /* \"contracts/manifold/lazyclaim/ERC721LazyClaim.sol\":5416:5598  require(_claims[creatorContractAddress][claimIndex].walletMax == 0 || _claims[creatorContractAddress][claimIndex].walletMax <= claimParameters.walletMax, \"Cannot decrease walletMax\") */\n      tag_85\n        /* \"#utility.yul\":15489:15838   */\n      jump\n        /* \"contracts/manifold/lazyclaim/ERC721LazyClaim.sol\":5416:5598  require(_claims[creatorContractAddress][claimIndex].walletMax == 0 || _claims[creatorContractAddress][claimIndex].walletMax <= claimParameters.walletMax, \"Cannot decrease walletMax\") */\n    tag_179:\n        /* \"contracts/manifold/lazyclaim/ERC721LazyClaim.sol\":5616:5639  claimParameters.endDate */\n      tag_182\n      0x80\n      dup5\n      add\n      0x60\n      dup6\n      add\n      tag_99\n      jump\t// in\n    tag_182:\n        /* \"contracts/manifold/lazyclaim/ERC721LazyClaim.sol\":5616:5644  claimParameters.endDate == 0 */\n      0xffffffffffff\n      and\n      iszero\n      dup1\n        /* \"contracts/manifold/lazyclaim/ERC721LazyClaim.sol\":5616:5699  claimParameters.endDate == 0 || claimParameters.startDate < claimParameters.endDate */\n      tag_183\n      jumpi\n      pop\n        /* \"contracts/manifold/lazyclaim/ERC721LazyClaim.sol\":5676:5699  claimParameters.endDate */\n      tag_184\n      0x80\n      dup5\n      add\n      0x60\n      dup6\n      add\n      tag_99\n      jump\t// in\n    tag_184:\n        /* \"contracts/manifold/lazyclaim/ERC721LazyClaim.sol\":5648:5699  claimParameters.startDate < claimParameters.endDate */\n      0xffffffffffff\n      and\n        /* \"contracts/manifold/lazyclaim/ERC721LazyClaim.sol\":5648:5673  claimParameters.startDate */\n      tag_185\n      0x60\n      dup6\n      add\n      0x40\n      dup7\n      add\n      tag_99\n      jump\t// in\n    tag_185:\n        /* \"contracts/manifold/lazyclaim/ERC721LazyClaim.sol\":5648:5699  claimParameters.startDate < claimParameters.endDate */\n      0xffffffffffff\n      and\n      lt\n        /* \"contracts/manifold/lazyclaim/ERC721LazyClaim.sol\":5616:5699  claimParameters.endDate == 0 || claimParameters.startDate < claimParameters.endDate */\n    tag_183:\n        /* \"contracts/manifold/lazyclaim/ERC721LazyClaim.sol\":5608:5758  require(claimParameters.endDate == 0 || claimParameters.startDate < claimParameters.endDate, \"Cannot have startDate greater than or equal to endDate\") */\n      tag_186\n      jumpi\n      mload(0x40)\n      shl(0xe5, 0x461bcd)\n      dup2\n      mstore\n        /* \"#utility.yul\":11895:11897   */\n      0x20\n        /* \"contracts/manifold/lazyclaim/ERC721LazyClaim.sol\":5608:5758  require(claimParameters.endDate == 0 || claimParameters.startDate < claimParameters.endDate, \"Cannot have startDate greater than or equal to endDate\") */\n      0x04\n      dup3\n      add\n        /* \"#utility.yul\":11877:11898   */\n      mstore\n        /* \"#utility.yul\":11934:11936   */\n      0x36\n        /* \"#utility.yul\":11914:11932   */\n      0x24\n      dup3\n      add\n        /* \"#utility.yul\":11907:11937   */\n      mstore\n        /* \"#utility.yul\":11973:12007   */\n      0x43616e6e6f742068617665207374617274446174652067726561746572207468\n        /* \"#utility.yul\":11953:11971   */\n      0x44\n      dup3\n      add\n        /* \"#utility.yul\":11946:12008   */\n      mstore\n        /* \"#utility.yul\":12044:12068   */\n      0x616e206f7220657175616c20746f20656e644461746500000000000000000000\n        /* \"#utility.yul\":12024:12042   */\n      0x64\n      dup3\n      add\n        /* \"#utility.yul\":12017:12069   */\n      mstore\n        /* \"#utility.yul\":12086:12105   */\n      0x84\n      add\n        /* \"contracts/manifold/lazyclaim/ERC721LazyClaim.sol\":5608:5758  require(claimParameters.endDate == 0 || claimParameters.startDate < claimParameters.endDate, \"Cannot have startDate greater than or equal to endDate\") */\n      tag_85\n        /* \"#utility.yul\":11693:12111   */\n      jump\n        /* \"contracts/manifold/lazyclaim/ERC721LazyClaim.sol\":5608:5758  require(claimParameters.endDate == 0 || claimParameters.startDate < claimParameters.endDate, \"Cannot have startDate greater than or equal to endDate\") */\n    tag_186:\n        /* \"contracts/manifold/lazyclaim/ERC721LazyClaim.sol\":5855:6348  Claim({... */\n      0x40\n      dup1\n      mload\n      0x0120\n      dup2\n      add\n      dup3\n      mstore\n      sub(shl(0xa0, 0x01), 0x01)\n        /* \"contracts/manifold/lazyclaim/ERC721LazyClaim.sol\":5882:5913  _claims[creatorContractAddress] */\n      dup8\n      and\n      0x00\n      swap1\n      dup2\n      mstore\n        /* \"contracts/manifold/lazyclaim/ERC721LazyClaim.sol\":5882:5889  _claims */\n      0x02\n        /* \"contracts/manifold/lazyclaim/ERC721LazyClaim.sol\":5882:5913  _claims[creatorContractAddress] */\n      0x20\n      swap1\n      dup2\n      mstore\n      dup4\n      dup3\n      keccak256\n        /* \"contracts/manifold/lazyclaim/ERC721LazyClaim.sol\":5882:5925  _claims[creatorContractAddress][claimIndex] */\n      dup9\n      dup4\n      mstore\n      dup2\n      mstore\n      swap3\n      swap1\n      keccak256\n        /* \"contracts/manifold/lazyclaim/ERC721LazyClaim.sol\":5882:5931  _claims[creatorContractAddress][claimIndex].total */\n      sload\n      0xffffffff\n      and\n        /* \"contracts/manifold/lazyclaim/ERC721LazyClaim.sol\":5855:6348  Claim({... */\n      dup2\n      mstore\n      swap1\n      dup1\n      dup3\n      add\n      swap1\n        /* \"contracts/manifold/lazyclaim/ERC721LazyClaim.sol\":5955:5979  claimParameters.totalMax */\n      tag_188\n      swap1\n      dup7\n      add\n        /* \"contracts/manifold/lazyclaim/ERC721LazyClaim.sol\":5955:5970  claimParameters */\n      dup7\n        /* \"contracts/manifold/lazyclaim/ERC721LazyClaim.sol\":5955:5979  claimParameters.totalMax */\n      tag_108\n      jump\t// in\n    tag_188:\n        /* \"contracts/manifold/lazyclaim/ERC721LazyClaim.sol\":5855:6348  Claim({... */\n      0xffffffff\n      and\n      dup2\n      mstore\n      0x20\n      add\n        /* \"contracts/manifold/lazyclaim/ERC721LazyClaim.sol\":6004:6019  claimParameters */\n      dup5\n        /* \"contracts/manifold/lazyclaim/ERC721LazyClaim.sol\":6004:6029  claimParameters.walletMax */\n      0x20\n      add\n      0x20\n      dup2\n      add\n      swap1\n      tag_189\n      swap2\n      swap1\n      tag_108\n      jump\t// in\n    tag_189:\n        /* \"contracts/manifold/lazyclaim/ERC721LazyClaim.sol\":5855:6348  Claim({... */\n      0xffffffff\n      and\n      dup2\n      mstore\n      0x20\n      add\n        /* \"contracts/manifold/lazyclaim/ERC721LazyClaim.sol\":6054:6079  claimParameters.startDate */\n      tag_190\n      0x60\n      dup7\n      add\n      0x40\n      dup8\n      add\n      tag_99\n      jump\t// in\n    tag_190:\n        /* \"contracts/manifold/lazyclaim/ERC721LazyClaim.sol\":5855:6348  Claim({... */\n      0xffffffffffff\n      and\n      dup2\n      mstore\n      0x20\n      add\n        /* \"contracts/manifold/lazyclaim/ERC721LazyClaim.sol\":6102:6125  claimParameters.endDate */\n      tag_191\n      0x80\n      dup7\n      add\n      0x60\n      dup8\n      add\n      tag_99\n      jump\t// in\n    tag_191:\n        /* \"contracts/manifold/lazyclaim/ERC721LazyClaim.sol\":5855:6348  Claim({... */\n      0xffffffffffff\n      and\n      dup2\n      mstore\n      0x20\n      add\n        /* \"contracts/manifold/lazyclaim/ERC721LazyClaim.sol\":6156:6187  claimParameters.storageProtocol */\n      tag_192\n      0xa0\n      dup7\n      add\n      0x80\n      dup8\n      add\n      tag_92\n      jump\t// in\n    tag_192:\n        /* \"contracts/manifold/lazyclaim/ERC721LazyClaim.sol\":5855:6348  Claim({... */\n      0x03\n      dup2\n      gt\n      iszero\n      tag_194\n      jumpi\n      tag_194\n      tag_90\n      jump\t// in\n    tag_194:\n      dup2\n      mstore\n      0x20\n      add\n        /* \"contracts/manifold/lazyclaim/ERC721LazyClaim.sol\":6212:6237  claimParameters.identical */\n      tag_195\n      0xc0\n      dup7\n      add\n      0xa0\n      dup8\n      add\n      tag_122\n      jump\t// in\n    tag_195:\n        /* \"contracts/manifold/lazyclaim/ERC721LazyClaim.sol\":5855:6348  Claim({... */\n      iszero\n      iszero\n      dup2\n      mstore\n        /* \"contracts/manifold/lazyclaim/ERC721LazyClaim.sol\":6263:6289  claimParameters.merkleRoot */\n      0xc0\n      dup6\n      add\n      calldataload\n        /* \"contracts/manifold/lazyclaim/ERC721LazyClaim.sol\":5855:6348  Claim({... */\n      0x20\n      dup3\n      add\n      mstore\n      0x40\n      add\n        /* \"contracts/manifold/lazyclaim/ERC721LazyClaim.sol\":6313:6337  claimParameters.location */\n      tag_196\n      0xe0\n      dup7\n      add\n        /* \"contracts/manifold/lazyclaim/ERC721LazyClaim.sol\":6263:6278  claimParameters */\n      dup7\n        /* \"contracts/manifold/lazyclaim/ERC721LazyClaim.sol\":6313:6337  claimParameters.location */\n      tag_124\n      jump\t// in\n    tag_196:\n        /* \"contracts/manifold/lazyclaim/ERC721LazyClaim.sol\":5855:6348  Claim({... */\n      dup1\n      dup1\n      0x1f\n      add\n      0x20\n      dup1\n      swap2\n      div\n      mul\n      0x20\n      add\n      mload(0x40)\n      swap1\n      dup2\n      add\n      0x40\n      mstore\n      dup1\n      swap4\n      swap3\n      swap2\n      swap1\n      dup2\n      dup2\n      mstore\n      0x20\n      add\n      dup4\n      dup4\n      dup1\n      dup3\n      dup5\n      calldatacopy\n      0x00\n      swap3\n      add\n      dup3\n      swap1\n      mstore\n      pop\n      swap4\n      swap1\n      swap5\n      mstore\n      pop\n      pop\n      sub(shl(0xa0, 0x01), 0x01)\n        /* \"contracts/manifold/lazyclaim/ERC721LazyClaim.sol\":5809:5840  _claims[creatorContractAddress] */\n      dup9\n      and\n      dup2\n      mstore\n        /* \"contracts/manifold/lazyclaim/ERC721LazyClaim.sol\":5809:5816  _claims */\n      0x02\n        /* \"contracts/manifold/lazyclaim/ERC721LazyClaim.sol\":5809:5840  _claims[creatorContractAddress] */\n      0x20\n      swap1\n      dup2\n      mstore\n      0x40\n      dup1\n      dup4\n      keccak256\n        /* \"contracts/manifold/lazyclaim/ERC721LazyClaim.sol\":5809:5852  _claims[creatorContractAddress][claimIndex] */\n      dup10\n      dup5\n      mstore\n      dup3\n      mstore\n      swap2\n      dup3\n      swap1\n      keccak256\n        /* \"contracts/manifold/lazyclaim/ERC721LazyClaim.sol\":5809:6348  _claims[creatorContractAddress][claimIndex] = Claim({... */\n      dup5\n      mload\n      dup2\n      sload\n      swap3\n      dup7\n      add\n      mload\n      swap4\n      dup7\n      add\n      mload\n      0x60\n      dup8\n      add\n      mload\n      0x80\n      dup9\n      add\n      mload\n      0xffffffffffff\n      swap1\n      dup2\n      and\n      shl(0x90, 0x01)\n      mul\n      0xffffffffffffffff000000000000ffffffffffffffffffffffffffffffffffff\n      swap2\n      swap1\n      swap3\n      and\n      shl(0x60, 0x01)\n      mul\n      not(0xffffffffffff000000000000000000000000)\n      0xffffffff\n      swap5\n      dup6\n      and\n      shl(0x40, 0x01)\n      mul\n      and\n      not(0xffffffffffffffffffff0000000000000000)\n      swap9\n      dup6\n      and\n      0x0100000000\n      mul\n      not(0xffffffffffffffff)\n      swap1\n      swap9\n      and\n      swap5\n      swap1\n      swap6\n      and\n      swap4\n      swap1\n      swap4\n      or\n      swap6\n      swap1\n      swap6\n      or\n      swap6\n      swap1\n      swap6\n      and\n      swap2\n      swap1\n      swap2\n      or\n      or\n      swap2\n      dup3\n      and\n      dup4\n      or\n      dup2\n      sstore\n      0xa0\n      dup6\n      add\n      mload\n        /* \"contracts/manifold/lazyclaim/ERC721LazyClaim.sol\":5809:5852  _claims[creatorContractAddress][claimIndex] */\n      swap1\n      swap4\n      pop\n        /* \"contracts/manifold/lazyclaim/ERC721LazyClaim.sol\":5809:6348  _claims[creatorContractAddress][claimIndex] = Claim({... */\n      swap2\n        /* \"contracts/manifold/lazyclaim/ERC721LazyClaim.sol\":5809:5852  _claims[creatorContractAddress][claimIndex] */\n      dup4\n      swap2\n      not(shl(0xc0, 0xff))\n        /* \"contracts/manifold/lazyclaim/ERC721LazyClaim.sol\":5809:6348  _claims[creatorContractAddress][claimIndex] = Claim({... */\n      swap1\n      swap2\n      and\n      0xffffffffffffff00000000000000ffffffffffffffffffffffffffffffffffff\n      swap1\n      swap2\n      and\n      or\n      shl(0xc0, 0x01)\n      dup4\n      0x03\n      dup2\n      gt\n      iszero\n      tag_198\n      jumpi\n      tag_198\n      tag_90\n      jump\t// in\n    tag_198:\n      mul\n      or\n      swap1\n      sstore\n      pop\n      0xc0\n      dup3\n      add\n      mload\n      dup2\n      sload\n      swap1\n      iszero\n      iszero\n      shl(0xc8, 0x01)\n      mul\n      not(shl(0xc8, 0xff))\n      swap1\n      swap2\n      and\n      or\n      dup2\n      sstore\n      0xe0\n      dup3\n      add\n      mload\n      0x01\n      dup3\n      add\n      sstore\n      0x0100\n      dup3\n      add\n      mload\n      dup1\n      mload\n      tag_199\n      swap2\n      0x02\n      dup5\n      add\n      swap2\n      0x20\n      swap1\n      swap2\n      add\n      swap1\n      tag_128\n      jump\t// in\n    tag_199:\n      pop\n      pop\n      pop\n      pop\n      pop\n      pop\n      pop\n      pop\n        /* \"contracts/manifold/lazyclaim/ERC721LazyClaim.sol\":4738:6355  function updateClaim(... */\n      jump\t// out\n        /* \"contracts/manifold/lazyclaim/ERC721LazyClaim.sol\":10469:12658  function mintBatch(address creatorContractAddress, uint256 claimIndex, uint16 mintCount, uint32[] calldata mintIndices, bytes32[][] calldata merkleProofs) external override {... */\n    tag_42:\n      sub(shl(0xa0, 0x01), 0x01)\n        /* \"contracts/manifold/lazyclaim/ERC721LazyClaim.sol\":10674:10705  _claims[creatorContractAddress] */\n      dup8\n      and\n        /* \"contracts/manifold/lazyclaim/ERC721LazyClaim.sol\":10652:10671  Claim storage claim */\n      0x00\n        /* \"contracts/manifold/lazyclaim/ERC721LazyClaim.sol\":10674:10705  _claims[creatorContractAddress] */\n      swap1\n      dup2\n      mstore\n        /* \"contracts/manifold/lazyclaim/ERC721LazyClaim.sol\":10674:10681  _claims */\n      0x02\n        /* \"contracts/manifold/lazyclaim/ERC721LazyClaim.sol\":10674:10705  _claims[creatorContractAddress] */\n      0x20\n      swap1\n      dup2\n      mstore\n      0x40\n      dup1\n      dup4\n      keccak256\n        /* \"contracts/manifold/lazyclaim/ERC721LazyClaim.sol\":10674:10717  _claims[creatorContractAddress][claimIndex] */\n      dup10\n      dup5\n      mstore\n      swap1\n      swap2\n      mstore\n      dup2\n      keccak256\n      swap1\n        /* \"contracts/manifold/lazyclaim/ERC721LazyClaim.sol\":10781:10802  claim.storageProtocol */\n      dup2\n      sload\n      shl(0xc0, 0x01)\n      swap1\n      div\n      0xff\n      and\n        /* \"contracts/manifold/lazyclaim/ERC721LazyClaim.sol\":10781:10829  claim.storageProtocol != StorageProtocol.INVALID */\n      0x03\n      dup2\n      gt\n      iszero\n      tag_204\n      jumpi\n      tag_204\n      tag_90\n      jump\t// in\n    tag_204:\n      sub\n        /* \"contracts/manifold/lazyclaim/ERC721LazyClaim.sol\":10773:10855  require(claim.storageProtocol != StorageProtocol.INVALID, \"Claim not initialized\") */\n      tag_205\n      jumpi\n      mload(0x40)\n      shl(0xe5, 0x461bcd)\n      dup2\n      mstore\n        /* \"#utility.yul\":14142:14144   */\n      0x20\n        /* \"contracts/manifold/lazyclaim/ERC721LazyClaim.sol\":10773:10855  require(claim.storageProtocol != StorageProtocol.INVALID, \"Claim not initialized\") */\n      0x04\n      dup3\n      add\n        /* \"#utility.yul\":14124:14145   */\n      mstore\n        /* \"#utility.yul\":14181:14183   */\n      0x15\n        /* \"#utility.yul\":14161:14179   */\n      0x24\n      dup3\n      add\n        /* \"#utility.yul\":14154:14184   */\n      mstore\n      shl(0x5a, 0x10db185a5b481b9bdd081a5b9a5d1a585b1a5e9959)\n        /* \"#utility.yul\":14200:14218   */\n      0x44\n      dup3\n      add\n        /* \"#utility.yul\":14193:14244   */\n      mstore\n        /* \"#utility.yul\":14261:14279   */\n      0x64\n      add\n        /* \"contracts/manifold/lazyclaim/ERC721LazyClaim.sol\":10773:10855  require(claim.storageProtocol != StorageProtocol.INVALID, \"Claim not initialized\") */\n      tag_85\n        /* \"#utility.yul\":13940:14285   */\n      jump\n        /* \"contracts/manifold/lazyclaim/ERC721LazyClaim.sol\":10773:10855  require(claim.storageProtocol != StorageProtocol.INVALID, \"Claim not initialized\") */\n    tag_205:\n        /* \"contracts/manifold/lazyclaim/ERC721LazyClaim.sol\":10902:10917  claim.startDate */\n      dup1\n      sload\n      shl(0x60, 0x01)\n      swap1\n      div\n      0xffffffffffff\n      and\n        /* \"contracts/manifold/lazyclaim/ERC721LazyClaim.sol\":10902:10922  claim.startDate == 0 */\n      iszero\n      dup1\n        /* \"contracts/manifold/lazyclaim/ERC721LazyClaim.sol\":10902:10959  claim.startDate == 0 || claim.startDate < block.timestamp */\n      tag_207\n      jumpi\n      pop\n        /* \"contracts/manifold/lazyclaim/ERC721LazyClaim.sol\":10926:10941  claim.startDate */\n      dup1\n      sload\n        /* \"contracts/manifold/lazyclaim/ERC721LazyClaim.sol\":10944:10959  block.timestamp */\n      timestamp\n      shl(0x60, 0x01)\n        /* \"contracts/manifold/lazyclaim/ERC721LazyClaim.sol\":10926:10941  claim.startDate */\n      swap1\n      swap2\n      div\n      0xffffffffffff\n      and\n        /* \"contracts/manifold/lazyclaim/ERC721LazyClaim.sol\":10926:10959  claim.startDate < block.timestamp */\n      lt\n        /* \"contracts/manifold/lazyclaim/ERC721LazyClaim.sol\":10902:10959  claim.startDate == 0 || claim.startDate < block.timestamp */\n    tag_207:\n        /* \"contracts/manifold/lazyclaim/ERC721LazyClaim.sol\":10894:10993  require(claim.startDate == 0 || claim.startDate < block.timestamp, \"Transaction before start date\") */\n      tag_208\n      jumpi\n      mload(0x40)\n      shl(0xe5, 0x461bcd)\n      dup2\n      mstore\n        /* \"#utility.yul\":16045:16047   */\n      0x20\n        /* \"contracts/manifold/lazyclaim/ERC721LazyClaim.sol\":10894:10993  require(claim.startDate == 0 || claim.startDate < block.timestamp, \"Transaction before start date\") */\n      0x04\n      dup3\n      add\n        /* \"#utility.yul\":16027:16048   */\n      mstore\n        /* \"#utility.yul\":16084:16086   */\n      0x1d\n        /* \"#utility.yul\":16064:16082   */\n      0x24\n      dup3\n      add\n        /* \"#utility.yul\":16057:16087   */\n      mstore\n        /* \"#utility.yul\":16123:16154   */\n      0x5472616e73616374696f6e206265666f72652073746172742064617465000000\n        /* \"#utility.yul\":16103:16121   */\n      0x44\n      dup3\n      add\n        /* \"#utility.yul\":16096:16155   */\n      mstore\n        /* \"#utility.yul\":16172:16190   */\n      0x64\n      add\n        /* \"contracts/manifold/lazyclaim/ERC721LazyClaim.sol\":10894:10993  require(claim.startDate == 0 || claim.startDate < block.timestamp, \"Transaction before start date\") */\n      tag_85\n        /* \"#utility.yul\":15843:16196   */\n      jump\n        /* \"contracts/manifold/lazyclaim/ERC721LazyClaim.sol\":10894:10993  require(claim.startDate == 0 || claim.startDate < block.timestamp, \"Transaction before start date\") */\n    tag_208:\n        /* \"contracts/manifold/lazyclaim/ERC721LazyClaim.sol\":11011:11024  claim.endDate */\n      dup1\n      sload\n      shl(0x90, 0x01)\n      swap1\n      div\n      0xffffffffffff\n      and\n        /* \"contracts/manifold/lazyclaim/ERC721LazyClaim.sol\":11011:11029  claim.endDate == 0 */\n      iszero\n      dup1\n        /* \"contracts/manifold/lazyclaim/ERC721LazyClaim.sol\":11011:11065  claim.endDate == 0 || claim.endDate >= block.timestamp */\n      tag_211\n      jumpi\n      pop\n        /* \"contracts/manifold/lazyclaim/ERC721LazyClaim.sol\":11033:11046  claim.endDate */\n      dup1\n      sload\n        /* \"contracts/manifold/lazyclaim/ERC721LazyClaim.sol\":11050:11065  block.timestamp */\n      timestamp\n      shl(0x90, 0x01)\n        /* \"contracts/manifold/lazyclaim/ERC721LazyClaim.sol\":11033:11046  claim.endDate */\n      swap1\n      swap2\n      div\n      0xffffffffffff\n      and\n        /* \"contracts/manifold/lazyclaim/ERC721LazyClaim.sol\":11033:11065  claim.endDate >= block.timestamp */\n      lt\n      iszero\n        /* \"contracts/manifold/lazyclaim/ERC721LazyClaim.sol\":11011:11065  claim.endDate == 0 || claim.endDate >= block.timestamp */\n    tag_211:\n        /* \"contracts/manifold/lazyclaim/ERC721LazyClaim.sol\":11003:11096  require(claim.endDate == 0 || claim.endDate >= block.timestamp, \"Transaction after end date\") */\n      tag_212\n      jumpi\n      mload(0x40)\n      shl(0xe5, 0x461bcd)\n      dup2\n      mstore\n        /* \"#utility.yul\":16403:16405   */\n      0x20\n        /* \"contracts/manifold/lazyclaim/ERC721LazyClaim.sol\":11003:11096  require(claim.endDate == 0 || claim.endDate >= block.timestamp, \"Transaction after end date\") */\n      0x04\n      dup3\n      add\n        /* \"#utility.yul\":16385:16406   */\n      mstore\n        /* \"#utility.yul\":16442:16444   */\n      0x1a\n        /* \"#utility.yul\":16422:16440   */\n      0x24\n      dup3\n      add\n        /* \"#utility.yul\":16415:16445   */\n      mstore\n        /* \"#utility.yul\":16481:16509   */\n      0x5472616e73616374696f6e20616674657220656e642064617465000000000000\n        /* \"#utility.yul\":16461:16479   */\n      0x44\n      dup3\n      add\n        /* \"#utility.yul\":16454:16510   */\n      mstore\n        /* \"#utility.yul\":16527:16545   */\n      0x64\n      add\n        /* \"contracts/manifold/lazyclaim/ERC721LazyClaim.sol\":11003:11096  require(claim.endDate == 0 || claim.endDate >= block.timestamp, \"Transaction after end date\") */\n      tag_85\n        /* \"#utility.yul\":16201:16551   */\n      jump\n        /* \"contracts/manifold/lazyclaim/ERC721LazyClaim.sol\":11003:11096  require(claim.endDate == 0 || claim.endDate >= block.timestamp, \"Transaction after end date\") */\n    tag_212:\n        /* \"contracts/manifold/lazyclaim/ERC721LazyClaim.sol\":11141:11155  claim.totalMax */\n      dup1\n      sload\n      0x0100000000\n      swap1\n      div\n      0xffffffff\n      and\n        /* \"contracts/manifold/lazyclaim/ERC721LazyClaim.sol\":11141:11160  claim.totalMax == 0 */\n      iszero\n      dup1\n        /* \"contracts/manifold/lazyclaim/ERC721LazyClaim.sol\":11141:11203  claim.totalMax == 0 || claim.total+mintCount <= claim.totalMax */\n      tag_215\n      jumpi\n      pop\n        /* \"contracts/manifold/lazyclaim/ERC721LazyClaim.sol\":11189:11203  claim.totalMax */\n      dup1\n      sload\n      0xffffffff\n      0x0100000000\n      dup3\n      div\n      dup2\n      and\n      swap2\n        /* \"contracts/manifold/lazyclaim/ERC721LazyClaim.sol\":11164:11185  claim.total+mintCount */\n      tag_216\n      swap2\n      0xffff\n      dup11\n      and\n      swap2\n        /* \"contracts/manifold/lazyclaim/ERC721LazyClaim.sol\":11164:11175  claim.total */\n      and\n        /* \"contracts/manifold/lazyclaim/ERC721LazyClaim.sol\":11164:11185  claim.total+mintCount */\n      tag_217\n      jump\t// in\n    tag_216:\n        /* \"contracts/manifold/lazyclaim/ERC721LazyClaim.sol\":11164:11203  claim.total+mintCount <= claim.totalMax */\n      0xffffffff\n      and\n      gt\n      iszero\n        /* \"contracts/manifold/lazyclaim/ERC721LazyClaim.sol\":11141:11203  claim.totalMax == 0 || claim.total+mintCount <= claim.totalMax */\n    tag_215:\n        /* \"contracts/manifold/lazyclaim/ERC721LazyClaim.sol\":11133:11241  require(claim.totalMax == 0 || claim.total+mintCount <= claim.totalMax, \"Too many requested for this claim\") */\n      tag_218\n      jumpi\n      mload(0x40)\n      shl(0xe5, 0x461bcd)\n      dup2\n      mstore\n        /* \"#utility.yul\":16991:16993   */\n      0x20\n        /* \"contracts/manifold/lazyclaim/ERC721LazyClaim.sol\":11133:11241  require(claim.totalMax == 0 || claim.total+mintCount <= claim.totalMax, \"Too many requested for this claim\") */\n      0x04\n      dup3\n      add\n        /* \"#utility.yul\":16973:16994   */\n      mstore\n        /* \"#utility.yul\":17030:17032   */\n      0x21\n        /* \"#utility.yul\":17010:17028   */\n      0x24\n      dup3\n      add\n        /* \"#utility.yul\":17003:17033   */\n      mstore\n        /* \"#utility.yul\":17069:17103   */\n      0x546f6f206d616e792072657175657374656420666f72207468697320636c6169\n        /* \"#utility.yul\":17049:17067   */\n      0x44\n      dup3\n      add\n        /* \"#utility.yul\":17042:17104   */\n      mstore\n        /* \"#utility.yul\":17140:17143   */\n      0x6d00000000000000000000000000000000000000000000000000000000000000\n        /* \"#utility.yul\":17120:17138   */\n      0x64\n      dup3\n      add\n        /* \"#utility.yul\":17113:17144   */\n      mstore\n        /* \"#utility.yul\":17161:17180   */\n      0x84\n      add\n        /* \"contracts/manifold/lazyclaim/ERC721LazyClaim.sol\":11133:11241  require(claim.totalMax == 0 || claim.total+mintCount <= claim.totalMax, \"Too many requested for this claim\") */\n      tag_85\n        /* \"#utility.yul\":16789:17186   */\n      jump\n        /* \"contracts/manifold/lazyclaim/ERC721LazyClaim.sol\":11133:11241  require(claim.totalMax == 0 || claim.total+mintCount <= claim.totalMax, \"Too many requested for this claim\") */\n    tag_218:\n        /* \"contracts/manifold/lazyclaim/ERC721LazyClaim.sol\":11283:11294  claim.total */\n      dup1\n      sload\n        /* \"contracts/manifold/lazyclaim/ERC721LazyClaim.sol\":11260:11280  uint256 newMintIndex */\n      0x00\n      swap1\n        /* \"contracts/manifold/lazyclaim/ERC721LazyClaim.sol\":11283:11296  claim.total+1 */\n      tag_221\n      swap1\n        /* \"contracts/manifold/lazyclaim/ERC721LazyClaim.sol\":11283:11294  claim.total */\n      0xffffffff\n      and\n      0x01\n        /* \"contracts/manifold/lazyclaim/ERC721LazyClaim.sol\":11283:11296  claim.total+1 */\n      tag_217\n      jump\t// in\n    tag_221:\n        /* \"contracts/manifold/lazyclaim/ERC721LazyClaim.sol\":11317:11341  claim.total += mintCount */\n      dup3\n      sload\n      not(0xffffffff)\n      dup2\n      and\n      0xffff\n      dup11\n      and\n        /* \"contracts/manifold/lazyclaim/ERC721LazyClaim.sol\":11260:11296  uint256 newMintIndex = claim.total+1 */\n      0xffffffff\n        /* \"contracts/manifold/lazyclaim/ERC721LazyClaim.sol\":11317:11341  claim.total += mintCount */\n      swap3\n      dup4\n      and\n      add\n      dup3\n      and\n      or\n      dup5\n      sstore\n      0x01\n        /* \"contracts/manifold/lazyclaim/ERC721LazyClaim.sol\":11358:11374  claim.merkleRoot */\n      dup5\n      add\n      sload\n        /* \"contracts/manifold/lazyclaim/ERC721LazyClaim.sol\":11260:11296  uint256 newMintIndex = claim.total+1 */\n      swap2\n      and\n      swap2\n      pop\n        /* \"contracts/manifold/lazyclaim/ERC721LazyClaim.sol\":11358:11380  claim.merkleRoot != \"\" */\n      iszero\n        /* \"contracts/manifold/lazyclaim/ERC721LazyClaim.sol\":11354:12241  if (claim.merkleRoot != \"\") {... */\n      tag_222\n      jumpi\n        /* \"contracts/manifold/lazyclaim/ERC721LazyClaim.sol\":11404:11435  mintCount == mintIndices.length */\n      0xffff\n      dup8\n      and\n      dup6\n      eq\n        /* \"contracts/manifold/lazyclaim/ERC721LazyClaim.sol\":11404:11471  mintCount == mintIndices.length && mintCount == merkleProofs.length */\n      dup1\n      iszero\n      tag_223\n      jumpi\n      pop\n        /* \"contracts/manifold/lazyclaim/ERC721LazyClaim.sol\":11439:11471  mintCount == merkleProofs.length */\n      0xffff\n      dup8\n      and\n      dup4\n      eq\n        /* \"contracts/manifold/lazyclaim/ERC721LazyClaim.sol\":11404:11471  mintCount == mintIndices.length && mintCount == merkleProofs.length */\n    tag_223:\n        /* \"contracts/manifold/lazyclaim/ERC721LazyClaim.sol\":11396:11489  require(mintCount == mintIndices.length && mintCount == merkleProofs.length, \"Invalid input\") */\n      tag_224\n      jumpi\n      mload(0x40)\n      shl(0xe5, 0x461bcd)\n      dup2\n      mstore\n        /* \"#utility.yul\":17393:17395   */\n      0x20\n        /* \"contracts/manifold/lazyclaim/ERC721LazyClaim.sol\":11396:11489  require(mintCount == mintIndices.length && mintCount == merkleProofs.length, \"Invalid input\") */\n      0x04\n      dup3\n      add\n        /* \"#utility.yul\":17375:17396   */\n      mstore\n        /* \"#utility.yul\":17432:17434   */\n      0x0d\n        /* \"#utility.yul\":17412:17430   */\n      0x24\n      dup3\n      add\n        /* \"#utility.yul\":17405:17435   */\n      mstore\n        /* \"#utility.yul\":17471:17486   */\n      0x496e76616c696420696e70757400000000000000000000000000000000000000\n        /* \"#utility.yul\":17451:17469   */\n      0x44\n      dup3\n      add\n        /* \"#utility.yul\":17444:17487   */\n      mstore\n        /* \"#utility.yul\":17504:17522   */\n      0x64\n      add\n        /* \"contracts/manifold/lazyclaim/ERC721LazyClaim.sol\":11396:11489  require(mintCount == mintIndices.length && mintCount == merkleProofs.length, \"Invalid input\") */\n      tag_85\n        /* \"#utility.yul\":17191:17528   */\n      jump\n        /* \"contracts/manifold/lazyclaim/ERC721LazyClaim.sol\":11396:11489  require(mintCount == mintIndices.length && mintCount == merkleProofs.length, \"Invalid input\") */\n    tag_224:\n        /* \"contracts/manifold/lazyclaim/ERC721LazyClaim.sol\":11535:11541  uint i */\n      0x00\n        /* \"contracts/manifold/lazyclaim/ERC721LazyClaim.sol\":11530:11852  for (uint i = 0; i < mintCount; ) {... */\n    tag_227:\n        /* \"contracts/manifold/lazyclaim/ERC721LazyClaim.sol\":11551:11560  mintCount */\n      dup8\n        /* \"contracts/manifold/lazyclaim/ERC721LazyClaim.sol\":11547:11560  i < mintCount */\n      0xffff\n      and\n        /* \"contracts/manifold/lazyclaim/ERC721LazyClaim.sol\":11547:11548  i */\n      dup2\n        /* \"contracts/manifold/lazyclaim/ERC721LazyClaim.sol\":11547:11560  i < mintCount */\n      lt\n        /* \"contracts/manifold/lazyclaim/ERC721LazyClaim.sol\":11530:11852  for (uint i = 0; i < mintCount; ) {... */\n      iszero\n      tag_228\n      jumpi\n        /* \"contracts/manifold/lazyclaim/ERC721LazyClaim.sol\":11582:11598  uint32 mintIndex */\n      0x00\n        /* \"contracts/manifold/lazyclaim/ERC721LazyClaim.sol\":11601:11612  mintIndices */\n      dup8\n      dup8\n        /* \"contracts/manifold/lazyclaim/ERC721LazyClaim.sol\":11613:11614  i */\n      dup4\n        /* \"contracts/manifold/lazyclaim/ERC721LazyClaim.sol\":11601:11615  mintIndices[i] */\n      dup2\n      dup2\n      lt\n      tag_231\n      jumpi\n      tag_231\n      tag_232\n      jump\t// in\n    tag_231:\n      swap1\n      pop\n      0x20\n      mul\n      add\n      0x20\n      dup2\n      add\n      swap1\n      tag_233\n      swap2\n      swap1\n      tag_108\n      jump\t// in\n    tag_233:\n        /* \"contracts/manifold/lazyclaim/ERC721LazyClaim.sol\":11582:11615  uint32 mintIndex = mintIndices[i] */\n      swap1\n      pop\n        /* \"contracts/manifold/lazyclaim/ERC721LazyClaim.sol\":11633:11661  bytes32[] memory merkleProof */\n      0x00\n        /* \"contracts/manifold/lazyclaim/ERC721LazyClaim.sol\":11664:11676  merkleProofs */\n      dup7\n      dup7\n        /* \"contracts/manifold/lazyclaim/ERC721LazyClaim.sol\":11677:11678  i */\n      dup5\n        /* \"contracts/manifold/lazyclaim/ERC721LazyClaim.sol\":11664:11679  merkleProofs[i] */\n      dup2\n      dup2\n      lt\n      tag_235\n      jumpi\n      tag_235\n      tag_232\n      jump\t// in\n    tag_235:\n      swap1\n      pop\n      0x20\n      mul\n      dup2\n      add\n      swap1\n      tag_236\n      swap2\n      swap1\n      tag_237\n      jump\t// in\n    tag_236:\n        /* \"contracts/manifold/lazyclaim/ERC721LazyClaim.sol\":11633:11679  bytes32[] memory merkleProof = merkleProofs[i] */\n      dup1\n      dup1\n      0x20\n      mul\n      0x20\n      add\n      mload(0x40)\n      swap1\n      dup2\n      add\n      0x40\n      mstore\n      dup1\n      swap4\n      swap3\n      swap2\n      swap1\n      dup2\n      dup2\n      mstore\n      0x20\n      add\n      dup4\n      dup4\n      0x20\n      mul\n      dup1\n      dup3\n      dup5\n      calldatacopy\n      0x00\n      swap3\n      add\n      swap2\n      swap1\n      swap2\n      mstore\n      pop\n      swap3\n      swap4\n      pop\n        /* \"contracts/manifold/lazyclaim/ERC721LazyClaim.sol\":11714:11802  _checkMerkleAndUpdate(claim, creatorContractAddress, claimIndex, mintIndex, merkleProof) */\n      tag_238\n      swap3\n      pop\n        /* \"contracts/manifold/lazyclaim/ERC721LazyClaim.sol\":11736:11741  claim */\n      dup8\n      swap2\n      pop\n        /* \"contracts/manifold/lazyclaim/ERC721LazyClaim.sol\":11743:11765  creatorContractAddress */\n      dup15\n      swap1\n      pop\n        /* \"contracts/manifold/lazyclaim/ERC721LazyClaim.sol\":11767:11777  claimIndex */\n      dup14\n        /* \"contracts/manifold/lazyclaim/ERC721LazyClaim.sol\":11779:11788  mintIndex */\n      dup6\n        /* \"contracts/manifold/lazyclaim/ERC721LazyClaim.sol\":11633:11679  bytes32[] memory merkleProof = merkleProofs[i] */\n      dup6\n        /* \"contracts/manifold/lazyclaim/ERC721LazyClaim.sol\":11714:11735  _checkMerkleAndUpdate */\n      tag_239\n        /* \"contracts/manifold/lazyclaim/ERC721LazyClaim.sol\":11714:11802  _checkMerkleAndUpdate(claim, creatorContractAddress, claimIndex, mintIndex, merkleProof) */\n      jump\t// in\n    tag_238:\n      pop\n      pop\n        /* \"contracts/manifold/lazyclaim/ERC721LazyClaim.sol\":11832:11835  i++ */\n      0x01\n      add\n        /* \"contracts/manifold/lazyclaim/ERC721LazyClaim.sol\":11530:11852  for (uint i = 0; i < mintCount; ) {... */\n      jump(tag_227)\n    tag_228:\n      pop\n        /* \"contracts/manifold/lazyclaim/ERC721LazyClaim.sol\":11354:12241  if (claim.merkleRoot != \"\") {... */\n      jump(tag_241)\n    tag_222:\n        /* \"contracts/manifold/lazyclaim/ERC721LazyClaim.sol\":11917:11932  claim.walletMax */\n      dup2\n      sload\n      shl(0x40, 0x01)\n      swap1\n      div\n      0xffffffff\n      and\n        /* \"contracts/manifold/lazyclaim/ERC721LazyClaim.sol\":11917:11937  claim.walletMax != 0 */\n      iszero\n        /* \"contracts/manifold/lazyclaim/ERC721LazyClaim.sol\":11913:12218  if (claim.walletMax != 0) {... */\n      tag_241\n      jumpi\n        /* \"contracts/manifold/lazyclaim/ERC721LazyClaim.sol\":12042:12057  claim.walletMax */\n      dup2\n      sload\n      sub(shl(0xa0, 0x01), 0x01)\n        /* \"contracts/manifold/lazyclaim/ERC721LazyClaim.sol\":11965:12004  _mintsPerWallet[creatorContractAddress] */\n      dup11\n      and\n        /* \"contracts/manifold/lazyclaim/ERC721LazyClaim.sol\":12042:12057  claim.walletMax */\n      0x00\n        /* \"contracts/manifold/lazyclaim/ERC721LazyClaim.sol\":11965:12004  _mintsPerWallet[creatorContractAddress] */\n      swap1\n      dup2\n      mstore\n        /* \"contracts/manifold/lazyclaim/ERC721LazyClaim.sol\":11965:11980  _mintsPerWallet */\n      0x03\n        /* \"contracts/manifold/lazyclaim/ERC721LazyClaim.sol\":11965:12004  _mintsPerWallet[creatorContractAddress] */\n      0x20\n      swap1\n      dup2\n      mstore\n      0x40\n      dup1\n      dup4\n      keccak256\n        /* \"contracts/manifold/lazyclaim/ERC721LazyClaim.sol\":11965:12016  _mintsPerWallet[creatorContractAddress][claimIndex] */\n      dup13\n      dup5\n      mstore\n      dup3\n      mstore\n      dup1\n      dup4\n      keccak256\n        /* \"contracts/manifold/lazyclaim/ERC721LazyClaim.sol\":12017:12027  msg.sender */\n      caller\n        /* \"contracts/manifold/lazyclaim/ERC721LazyClaim.sol\":11965:12028  _mintsPerWallet[creatorContractAddress][claimIndex][msg.sender] */\n      dup5\n      mstore\n      swap1\n      swap2\n      mstore\n      swap1\n      keccak256\n      sload\n      shl(0x40, 0x01)\n        /* \"contracts/manifold/lazyclaim/ERC721LazyClaim.sol\":12042:12057  claim.walletMax */\n      swap1\n      swap2\n      div\n      0xffffffff\n      and\n      swap1\n        /* \"contracts/manifold/lazyclaim/ERC721LazyClaim.sol\":11965:12038  _mintsPerWallet[creatorContractAddress][claimIndex][msg.sender]+mintCount */\n      tag_242\n      swap1\n      0xffff\n      dup11\n      and\n      swap1\n      tag_243\n      jump\t// in\n    tag_242:\n        /* \"contracts/manifold/lazyclaim/ERC721LazyClaim.sol\":11965:12057  _mintsPerWallet[creatorContractAddress][claimIndex][msg.sender]+mintCount <= claim.walletMax */\n      gt\n      iszero\n        /* \"contracts/manifold/lazyclaim/ERC721LazyClaim.sol\":11957:12096  require(_mintsPerWallet[creatorContractAddress][claimIndex][msg.sender]+mintCount <= claim.walletMax, \"Too many requested for this wallet\") */\n      tag_244\n      jumpi\n      mload(0x40)\n      shl(0xe5, 0x461bcd)\n      dup2\n      mstore\n        /* \"#utility.yul\":18607:18609   */\n      0x20\n        /* \"contracts/manifold/lazyclaim/ERC721LazyClaim.sol\":11957:12096  require(_mintsPerWallet[creatorContractAddress][claimIndex][msg.sender]+mintCount <= claim.walletMax, \"Too many requested for this wallet\") */\n      0x04\n      dup3\n      add\n        /* \"#utility.yul\":18589:18610   */\n      mstore\n        /* \"#utility.yul\":18646:18648   */\n      0x22\n        /* \"#utility.yul\":18626:18644   */\n      0x24\n      dup3\n      add\n        /* \"#utility.yul\":18619:18649   */\n      mstore\n        /* \"#utility.yul\":18685:18719   */\n      0x546f6f206d616e792072657175657374656420666f7220746869732077616c6c\n        /* \"#utility.yul\":18665:18683   */\n      0x44\n      dup3\n      add\n        /* \"#utility.yul\":18658:18720   */\n      mstore\n        /* \"#utility.yul\":18756:18760   */\n      0x6574000000000000000000000000000000000000000000000000000000000000\n        /* \"#utility.yul\":18736:18754   */\n      0x64\n      dup3\n      add\n        /* \"#utility.yul\":18729:18761   */\n      mstore\n        /* \"#utility.yul\":18778:18797   */\n      0x84\n      add\n        /* \"contracts/manifold/lazyclaim/ERC721LazyClaim.sol\":11957:12096  require(_mintsPerWallet[creatorContractAddress][claimIndex][msg.sender]+mintCount <= claim.walletMax, \"Too many requested for this wallet\") */\n      tag_85\n        /* \"#utility.yul\":18405:18803   */\n      jump\n        /* \"contracts/manifold/lazyclaim/ERC721LazyClaim.sol\":11957:12096  require(_mintsPerWallet[creatorContractAddress][claimIndex][msg.sender]+mintCount <= claim.walletMax, \"Too many requested for this wallet\") */\n    tag_244:\n      sub(shl(0xa0, 0x01), 0x01)\n        /* \"contracts/manifold/lazyclaim/ERC721LazyClaim.sol\":12125:12164  _mintsPerWallet[creatorContractAddress] */\n      dup10\n      and\n      0x00\n      swap1\n      dup2\n      mstore\n        /* \"contracts/manifold/lazyclaim/ERC721LazyClaim.sol\":12125:12140  _mintsPerWallet */\n      0x03\n        /* \"contracts/manifold/lazyclaim/ERC721LazyClaim.sol\":12125:12164  _mintsPerWallet[creatorContractAddress] */\n      0x20\n      swap1\n      dup2\n      mstore\n      0x40\n      dup1\n      dup4\n      keccak256\n        /* \"contracts/manifold/lazyclaim/ERC721LazyClaim.sol\":12125:12176  _mintsPerWallet[creatorContractAddress][claimIndex] */\n      dup12\n      dup5\n      mstore\n      dup3\n      mstore\n      dup1\n      dup4\n      keccak256\n        /* \"contracts/manifold/lazyclaim/ERC721LazyClaim.sol\":12177:12187  msg.sender */\n      caller\n        /* \"contracts/manifold/lazyclaim/ERC721LazyClaim.sol\":12125:12188  _mintsPerWallet[creatorContractAddress][claimIndex][msg.sender] */\n      dup5\n      mstore\n      swap1\n      swap2\n      mstore\n      swap1\n      keccak256\n        /* \"contracts/manifold/lazyclaim/ERC721LazyClaim.sol\":12125:12201  _mintsPerWallet[creatorContractAddress][claimIndex][msg.sender] += mintCount */\n      dup1\n      sload\n      0xffff\n      dup10\n      and\n      add\n      swap1\n      sstore\n        /* \"contracts/manifold/lazyclaim/ERC721LazyClaim.sol\":11913:12218  if (claim.walletMax != 0) {... */\n    tag_241:\n        /* \"contracts/manifold/lazyclaim/ERC721LazyClaim.sol\":12281:12365  IERC721CreatorCore(creatorContractAddress).mintExtensionBatch(msg.sender, mintCount) */\n      mload(0x40)\n      0xe00aab4b00000000000000000000000000000000000000000000000000000000\n      dup2\n      mstore\n        /* \"contracts/manifold/lazyclaim/ERC721LazyClaim.sol\":12343:12353  msg.sender */\n      caller\n        /* \"contracts/manifold/lazyclaim/ERC721LazyClaim.sol\":12281:12365  IERC721CreatorCore(creatorContractAddress).mintExtensionBatch(msg.sender, mintCount) */\n      0x04\n      dup3\n      add\n        /* \"#utility.yul\":18980:19054   */\n      mstore\n        /* \"#utility.yul\":19102:19108   */\n      0xffff\n        /* \"#utility.yul\":19090:19109   */\n      dup9\n      and\n        /* \"#utility.yul\":19070:19088   */\n      0x24\n      dup3\n      add\n        /* \"#utility.yul\":19063:19110   */\n      mstore\n        /* \"contracts/manifold/lazyclaim/ERC721LazyClaim.sol\":12250:12278  uint256[] memory newTokenIds */\n      0x00\n      swap1\n      sub(shl(0xa0, 0x01), 0x01)\n        /* \"contracts/manifold/lazyclaim/ERC721LazyClaim.sol\":12281:12342  IERC721CreatorCore(creatorContractAddress).mintExtensionBatch */\n      dup12\n      and\n      swap1\n      0xe00aab4b\n      swap1\n        /* \"#utility.yul\":18953:18971   */\n      0x44\n      add\n        /* \"contracts/manifold/lazyclaim/ERC721LazyClaim.sol\":12281:12365  IERC721CreatorCore(creatorContractAddress).mintExtensionBatch(msg.sender, mintCount) */\n      0x00\n      mload(0x40)\n      dup1\n      dup4\n      sub\n      dup2\n      0x00\n      dup8\n      gas\n      call\n      iszero\n      dup1\n      iszero\n      tag_250\n      jumpi\n      returndatasize\n      0x00\n      dup1\n      returndatacopy\n      revert(0x00, returndatasize)\n    tag_250:\n      pop\n      pop\n      pop\n      pop\n      mload(0x40)\n      returndatasize\n      0x00\n      dup3\n      returndatacopy\n      0x1f\n      returndatasize\n      swap1\n      dup2\n      add\n      not(0x1f)\n      and\n      dup3\n      add\n      0x40\n      mstore\n      tag_251\n      swap2\n      swap1\n      dup2\n      add\n      swap1\n      tag_252\n      jump\t// in\n    tag_251:\n        /* \"contracts/manifold/lazyclaim/ERC721LazyClaim.sol\":12250:12365  uint256[] memory newTokenIds = IERC721CreatorCore(creatorContractAddress).mintExtensionBatch(msg.sender, mintCount) */\n      swap1\n      pop\n        /* \"contracts/manifold/lazyclaim/ERC721LazyClaim.sol\":12380:12386  uint i */\n      0x00\n        /* \"contracts/manifold/lazyclaim/ERC721LazyClaim.sol\":12375:12575  for (uint i = 0; i < mintCount; ) {... */\n    tag_253:\n        /* \"contracts/manifold/lazyclaim/ERC721LazyClaim.sol\":12396:12405  mintCount */\n      dup9\n        /* \"contracts/manifold/lazyclaim/ERC721LazyClaim.sol\":12392:12405  i < mintCount */\n      0xffff\n      and\n        /* \"contracts/manifold/lazyclaim/ERC721LazyClaim.sol\":12392:12393  i */\n      dup2\n        /* \"contracts/manifold/lazyclaim/ERC721LazyClaim.sol\":12392:12405  i < mintCount */\n      lt\n        /* \"contracts/manifold/lazyclaim/ERC721LazyClaim.sol\":12375:12575  for (uint i = 0; i < mintCount; ) {... */\n      iszero\n      tag_254\n      jumpi\n        /* \"contracts/manifold/lazyclaim/ERC721LazyClaim.sol\":12478:12533  TokenClaim(uint224(claimIndex), uint32(newMintIndex+i)) */\n      mload(0x40)\n      dup1\n      0x40\n      add\n      0x40\n      mstore\n      dup1\n        /* \"contracts/manifold/lazyclaim/ERC721LazyClaim.sol\":12497:12507  claimIndex */\n      dup12\n      sub(shl(0xe0, 0x01), 0x01)\n        /* \"contracts/manifold/lazyclaim/ERC721LazyClaim.sol\":12478:12533  TokenClaim(uint224(claimIndex), uint32(newMintIndex+i)) */\n      and\n      dup2\n      mstore\n      0x20\n      add\n        /* \"contracts/manifold/lazyclaim/ERC721LazyClaim.sol\":12530:12531  i */\n      dup3\n        /* \"contracts/manifold/lazyclaim/ERC721LazyClaim.sol\":12517:12529  newMintIndex */\n      dup6\n        /* \"contracts/manifold/lazyclaim/ERC721LazyClaim.sol\":12517:12531  newMintIndex+i */\n      tag_256\n      swap2\n      swap1\n      tag_243\n      jump\t// in\n    tag_256:\n        /* \"contracts/manifold/lazyclaim/ERC721LazyClaim.sol\":12478:12533  TokenClaim(uint224(claimIndex), uint32(newMintIndex+i)) */\n      0xffffffff\n      and\n      swap1\n      mstore\n      sub(shl(0xa0, 0x01), 0x01)\n        /* \"contracts/manifold/lazyclaim/ERC721LazyClaim.sol\":12423:12459  _tokenClaims[creatorContractAddress] */\n      dup13\n      and\n      0x00\n      swap1\n      dup2\n      mstore\n        /* \"contracts/manifold/lazyclaim/ERC721LazyClaim.sol\":12423:12435  _tokenClaims */\n      0x05\n        /* \"contracts/manifold/lazyclaim/ERC721LazyClaim.sol\":12423:12459  _tokenClaims[creatorContractAddress] */\n      0x20\n      mstore\n      0x40\n      dup2\n      keccak256\n        /* \"contracts/manifold/lazyclaim/ERC721LazyClaim.sol\":12460:12474  newTokenIds[i] */\n      dup5\n      mload\n        /* \"contracts/manifold/lazyclaim/ERC721LazyClaim.sol\":12423:12459  _tokenClaims[creatorContractAddress] */\n      swap1\n      swap2\n      swap1\n        /* \"contracts/manifold/lazyclaim/ERC721LazyClaim.sol\":12460:12471  newTokenIds */\n      dup6\n      swap1\n        /* \"contracts/manifold/lazyclaim/ERC721LazyClaim.sol\":12472:12473  i */\n      dup6\n      swap1\n        /* \"contracts/manifold/lazyclaim/ERC721LazyClaim.sol\":12460:12474  newTokenIds[i] */\n      dup2\n      lt\n      tag_258\n      jumpi\n      tag_258\n      tag_232\n      jump\t// in\n    tag_258:\n      0x20\n      swap1\n      dup2\n      mul\n      swap2\n      swap1\n      swap2\n      add\n      dup2\n      add\n      mload\n        /* \"contracts/manifold/lazyclaim/ERC721LazyClaim.sol\":12423:12475  _tokenClaims[creatorContractAddress][newTokenIds[i]] */\n      dup3\n      mstore\n      dup2\n      dup2\n      add\n      swap3\n      swap1\n      swap3\n      mstore\n      0x40\n      add\n      0x00\n      keccak256\n        /* \"contracts/manifold/lazyclaim/ERC721LazyClaim.sol\":12423:12533  _tokenClaims[creatorContractAddress][newTokenIds[i]] = TokenClaim(uint224(claimIndex), uint32(newMintIndex+i)) */\n      dup3\n      mload\n      swap3\n      swap1\n      swap2\n      add\n      mload\n      0xffffffff\n      and\n      shl(0xe0, 0x01)\n      mul\n      sub(shl(0xe0, 0x01), 0x01)\n      swap1\n      swap3\n      and\n      swap2\n      swap1\n      swap2\n      or\n      swap1\n      sstore\n      0x01\n        /* \"contracts/manifold/lazyclaim/ERC721LazyClaim.sol\":12559:12562  i++ */\n      add\n        /* \"contracts/manifold/lazyclaim/ERC721LazyClaim.sol\":12375:12575  for (uint i = 0; i < mintCount; ) {... */\n      jump(tag_253)\n    tag_254:\n      pop\n        /* \"contracts/manifold/lazyclaim/ERC721LazyClaim.sol\":12590:12651  ClaimMintBatch(creatorContractAddress, claimIndex, mintCount) */\n      mload(0x40)\n        /* \"#utility.yul\":20594:20600   */\n      0xffff\n        /* \"#utility.yul\":20582:20601   */\n      dup10\n      and\n        /* \"#utility.yul\":20564:20602   */\n      dup2\n      mstore\n        /* \"contracts/manifold/lazyclaim/ERC721LazyClaim.sol\":12629:12639  claimIndex */\n      dup10\n      swap1\n      sub(shl(0xa0, 0x01), 0x01)\n        /* \"contracts/manifold/lazyclaim/ERC721LazyClaim.sol\":12590:12651  ClaimMintBatch(creatorContractAddress, claimIndex, mintCount) */\n      dup13\n      and\n      swap1\n      0x74f5d3254dfa39a7b1217a27d5d9b3e061eafe11720eca1cf499da2dc1eb1259\n      swap1\n        /* \"#utility.yul\":20552:20554   */\n      0x20\n        /* \"#utility.yul\":20537:20555   */\n      add\n        /* \"contracts/manifold/lazyclaim/ERC721LazyClaim.sol\":12590:12651  ClaimMintBatch(creatorContractAddress, claimIndex, mintCount) */\n      mload(0x40)\n      dup1\n      swap2\n      sub\n      swap1\n      log3\n        /* \"contracts/manifold/lazyclaim/ERC721LazyClaim.sol\":10642:12658  {... */\n      pop\n      pop\n      pop\n        /* \"contracts/manifold/lazyclaim/ERC721LazyClaim.sol\":10469:12658  function mintBatch(address creatorContractAddress, uint256 claimIndex, uint16 mintCount, uint32[] calldata mintIndices, bytes32[][] calldata merkleProofs) external override {... */\n      pop\n      pop\n      pop\n      pop\n      pop\n      pop\n      pop\n      jump\t// out\n        /* \"contracts/manifold/lazyclaim/ERC721LazyClaim.sol\":8186:8672  function getTotalMints(address minter, address creatorContractAddress, uint256 claimIndex) external override view returns(uint32) {... */\n    tag_46:\n      sub(shl(0xa0, 0x01), 0x01)\n        /* \"contracts/manifold/lazyclaim/ERC721LazyClaim.sol\":8348:8379  _claims[creatorContractAddress] */\n      dup3\n      and\n        /* \"contracts/manifold/lazyclaim/ERC721LazyClaim.sol\":8308:8314  uint32 */\n      0x00\n        /* \"contracts/manifold/lazyclaim/ERC721LazyClaim.sol\":8348:8379  _claims[creatorContractAddress] */\n      swap1\n      dup2\n      mstore\n        /* \"contracts/manifold/lazyclaim/ERC721LazyClaim.sol\":8348:8355  _claims */\n      0x02\n        /* \"contracts/manifold/lazyclaim/ERC721LazyClaim.sol\":8348:8379  _claims[creatorContractAddress] */\n      0x20\n      swap1\n      dup2\n      mstore\n      0x40\n      dup1\n      dup4\n      keccak256\n        /* \"contracts/manifold/lazyclaim/ERC721LazyClaim.sol\":8348:8391  _claims[creatorContractAddress][claimIndex] */\n      dup5\n      dup5\n      mstore\n      swap1\n      swap2\n      mstore\n      dup2\n      keccak256\n        /* \"contracts/manifold/lazyclaim/ERC721LazyClaim.sol\":8308:8314  uint32 */\n      dup2\n        /* \"contracts/manifold/lazyclaim/ERC721LazyClaim.sol\":8409:8430  claim.storageProtocol */\n      dup2\n      sload\n      shl(0xc0, 0x01)\n      swap1\n      div\n      0xff\n      and\n        /* \"contracts/manifold/lazyclaim/ERC721LazyClaim.sol\":8409:8457  claim.storageProtocol != StorageProtocol.INVALID */\n      0x03\n      dup2\n      gt\n      iszero\n      tag_265\n      jumpi\n      tag_265\n      tag_90\n      jump\t// in\n    tag_265:\n      sub\n        /* \"contracts/manifold/lazyclaim/ERC721LazyClaim.sol\":8401:8483  require(claim.storageProtocol != StorageProtocol.INVALID, \"Claim not initialized\") */\n      tag_266\n      jumpi\n      mload(0x40)\n      shl(0xe5, 0x461bcd)\n      dup2\n      mstore\n        /* \"#utility.yul\":14142:14144   */\n      0x20\n        /* \"contracts/manifold/lazyclaim/ERC721LazyClaim.sol\":8401:8483  require(claim.storageProtocol != StorageProtocol.INVALID, \"Claim not initialized\") */\n      0x04\n      dup3\n      add\n        /* \"#utility.yul\":14124:14145   */\n      mstore\n        /* \"#utility.yul\":14181:14183   */\n      0x15\n        /* \"#utility.yul\":14161:14179   */\n      0x24\n      dup3\n      add\n        /* \"#utility.yul\":14154:14184   */\n      mstore\n      shl(0x5a, 0x10db185a5b481b9bdd081a5b9a5d1a585b1a5e9959)\n        /* \"#utility.yul\":14200:14218   */\n      0x44\n      dup3\n      add\n        /* \"#utility.yul\":14193:14244   */\n      mstore\n        /* \"#utility.yul\":14261:14279   */\n      0x64\n      add\n        /* \"contracts/manifold/lazyclaim/ERC721LazyClaim.sol\":8401:8483  require(claim.storageProtocol != StorageProtocol.INVALID, \"Claim not initialized\") */\n      tag_85\n        /* \"#utility.yul\":13940:14285   */\n      jump\n        /* \"contracts/manifold/lazyclaim/ERC721LazyClaim.sol\":8401:8483  require(claim.storageProtocol != StorageProtocol.INVALID, \"Claim not initialized\") */\n    tag_266:\n        /* \"contracts/manifold/lazyclaim/ERC721LazyClaim.sol\":8501:8516  claim.walletMax */\n      dup1\n      sload\n      shl(0x40, 0x01)\n      swap1\n      div\n      0xffffffff\n      and\n      0x00\n        /* \"contracts/manifold/lazyclaim/ERC721LazyClaim.sol\":8501:8521  claim.walletMax != 0 */\n      sub\n        /* \"contracts/manifold/lazyclaim/ERC721LazyClaim.sol\":8493:8580  require(claim.walletMax != 0, \"Can only retrieve for non-merkle claims with walletMax\") */\n      tag_268\n      jumpi\n      mload(0x40)\n      shl(0xe5, 0x461bcd)\n      dup2\n      mstore\n        /* \"#utility.yul\":20815:20817   */\n      0x20\n        /* \"contracts/manifold/lazyclaim/ERC721LazyClaim.sol\":8493:8580  require(claim.walletMax != 0, \"Can only retrieve for non-merkle claims with walletMax\") */\n      0x04\n      dup3\n      add\n        /* \"#utility.yul\":20797:20818   */\n      mstore\n        /* \"#utility.yul\":20854:20856   */\n      0x36\n        /* \"#utility.yul\":20834:20852   */\n      0x24\n      dup3\n      add\n        /* \"#utility.yul\":20827:20857   */\n      mstore\n        /* \"#utility.yul\":20893:20927   */\n      0x43616e206f6e6c7920726574726965766520666f72206e6f6e2d6d65726b6c65\n        /* \"#utility.yul\":20873:20891   */\n      0x44\n      dup3\n      add\n        /* \"#utility.yul\":20866:20928   */\n      mstore\n        /* \"#utility.yul\":20964:20988   */\n      0x20636c61696d7320776974682077616c6c65744d617800000000000000000000\n        /* \"#utility.yul\":20944:20962   */\n      0x64\n      dup3\n      add\n        /* \"#utility.yul\":20937:20989   */\n      mstore\n        /* \"#utility.yul\":21006:21025   */\n      0x84\n      add\n        /* \"contracts/manifold/lazyclaim/ERC721LazyClaim.sol\":8493:8580  require(claim.walletMax != 0, \"Can only retrieve for non-merkle claims with walletMax\") */\n      tag_85\n        /* \"#utility.yul\":20613:21031   */\n      jump\n        /* \"contracts/manifold/lazyclaim/ERC721LazyClaim.sol\":8493:8580  require(claim.walletMax != 0, \"Can only retrieve for non-merkle claims with walletMax\") */\n    tag_268:\n      pop\n      pop\n      sub(shl(0xa0, 0x01), 0x01)\n        /* \"contracts/manifold/lazyclaim/ERC721LazyClaim.sol\":8605:8644  _mintsPerWallet[creatorContractAddress] */\n      dup1\n      dup4\n      and\n      0x00\n      swap1\n      dup2\n      mstore\n        /* \"contracts/manifold/lazyclaim/ERC721LazyClaim.sol\":8605:8620  _mintsPerWallet */\n      0x03\n        /* \"contracts/manifold/lazyclaim/ERC721LazyClaim.sol\":8605:8644  _mintsPerWallet[creatorContractAddress] */\n      0x20\n      swap1\n      dup2\n      mstore\n      0x40\n      dup1\n      dup4\n      keccak256\n        /* \"contracts/manifold/lazyclaim/ERC721LazyClaim.sol\":8605:8656  _mintsPerWallet[creatorContractAddress][claimIndex] */\n      dup6\n      dup5\n      mstore\n      dup3\n      mstore\n      dup1\n      dup4\n      keccak256\n        /* \"contracts/manifold/lazyclaim/ERC721LazyClaim.sol\":8605:8664  _mintsPerWallet[creatorContractAddress][claimIndex][minter] */\n      swap4\n      dup8\n      and\n      dup4\n      mstore\n      swap3\n      swap1\n      mstore\n      keccak256\n      sload\n        /* \"contracts/manifold/lazyclaim/ERC721LazyClaim.sol\":8186:8672  function getTotalMints(address minter, address creatorContractAddress, uint256 claimIndex) external override view returns(uint32) {... */\n      swap4\n      swap3\n      pop\n      pop\n      pop\n      jump\t// out\n        /* \"contracts/manifold/lazyclaim/ERC721LazyClaim.sol\":8730:10406  function mint(address creatorContractAddress, uint256 claimIndex, uint32 mintIndex, bytes32[] calldata merkleProof) external override {... */\n    tag_52:\n      sub(shl(0xa0, 0x01), 0x01)\n        /* \"contracts/manifold/lazyclaim/ERC721LazyClaim.sol\":8896:8927  _claims[creatorContractAddress] */\n      dup6\n      and\n        /* \"contracts/manifold/lazyclaim/ERC721LazyClaim.sol\":8874:8893  Claim storage claim */\n      0x00\n        /* \"contracts/manifold/lazyclaim/ERC721LazyClaim.sol\":8896:8927  _claims[creatorContractAddress] */\n      swap1\n      dup2\n      mstore\n        /* \"contracts/manifold/lazyclaim/ERC721LazyClaim.sol\":8896:8903  _claims */\n      0x02\n        /* \"contracts/manifold/lazyclaim/ERC721LazyClaim.sol\":8896:8927  _claims[creatorContractAddress] */\n      0x20\n      swap1\n      dup2\n      mstore\n      0x40\n      dup1\n      dup4\n      keccak256\n        /* \"contracts/manifold/lazyclaim/ERC721LazyClaim.sol\":8896:8939  _claims[creatorContractAddress][claimIndex] */\n      dup8\n      dup5\n      mstore\n      swap1\n      swap2\n      mstore\n      dup2\n      keccak256\n      swap1\n        /* \"contracts/manifold/lazyclaim/ERC721LazyClaim.sol\":8994:9015  claim.storageProtocol */\n      dup2\n      sload\n      shl(0xc0, 0x01)\n      swap1\n      div\n      0xff\n      and\n        /* \"contracts/manifold/lazyclaim/ERC721LazyClaim.sol\":8994:9042  claim.storageProtocol != StorageProtocol.INVALID */\n      0x03\n      dup2\n      gt\n      iszero\n      tag_275\n      jumpi\n      tag_275\n      tag_90\n      jump\t// in\n    tag_275:\n      sub\n        /* \"contracts/manifold/lazyclaim/ERC721LazyClaim.sol\":8986:9068  require(claim.storageProtocol != StorageProtocol.INVALID, \"Claim not initialized\") */\n      tag_276\n      jumpi\n      mload(0x40)\n      shl(0xe5, 0x461bcd)\n      dup2\n      mstore\n        /* \"#utility.yul\":14142:14144   */\n      0x20\n        /* \"contracts/manifold/lazyclaim/ERC721LazyClaim.sol\":8986:9068  require(claim.storageProtocol != StorageProtocol.INVALID, \"Claim not initialized\") */\n      0x04\n      dup3\n      add\n        /* \"#utility.yul\":14124:14145   */\n      mstore\n        /* \"#utility.yul\":14181:14183   */\n      0x15\n        /* \"#utility.yul\":14161:14179   */\n      0x24\n      dup3\n      add\n        /* \"#utility.yul\":14154:14184   */\n      mstore\n      shl(0x5a, 0x10db185a5b481b9bdd081a5b9a5d1a585b1a5e9959)\n        /* \"#utility.yul\":14200:14218   */\n      0x44\n      dup3\n      add\n        /* \"#utility.yul\":14193:14244   */\n      mstore\n        /* \"#utility.yul\":14261:14279   */\n      0x64\n      add\n        /* \"contracts/manifold/lazyclaim/ERC721LazyClaim.sol\":8986:9068  require(claim.storageProtocol != StorageProtocol.INVALID, \"Claim not initialized\") */\n      tag_85\n        /* \"#utility.yul\":13940:14285   */\n      jump\n        /* \"contracts/manifold/lazyclaim/ERC721LazyClaim.sol\":8986:9068  require(claim.storageProtocol != StorageProtocol.INVALID, \"Claim not initialized\") */\n    tag_276:\n        /* \"contracts/manifold/lazyclaim/ERC721LazyClaim.sol\":9115:9130  claim.startDate */\n      dup1\n      sload\n      shl(0x60, 0x01)\n      swap1\n      div\n      0xffffffffffff\n      and\n        /* \"contracts/manifold/lazyclaim/ERC721LazyClaim.sol\":9115:9135  claim.startDate == 0 */\n      iszero\n      dup1\n        /* \"contracts/manifold/lazyclaim/ERC721LazyClaim.sol\":9115:9172  claim.startDate == 0 || claim.startDate < block.timestamp */\n      tag_278\n      jumpi\n      pop\n        /* \"contracts/manifold/lazyclaim/ERC721LazyClaim.sol\":9139:9154  claim.startDate */\n      dup1\n      sload\n        /* \"contracts/manifold/lazyclaim/ERC721LazyClaim.sol\":9157:9172  block.timestamp */\n      timestamp\n      shl(0x60, 0x01)\n        /* \"contracts/manifold/lazyclaim/ERC721LazyClaim.sol\":9139:9154  claim.startDate */\n      swap1\n      swap2\n      div\n      0xffffffffffff\n      and\n        /* \"contracts/manifold/lazyclaim/ERC721LazyClaim.sol\":9139:9172  claim.startDate < block.timestamp */\n      lt\n        /* \"contracts/manifold/lazyclaim/ERC721LazyClaim.sol\":9115:9172  claim.startDate == 0 || claim.startDate < block.timestamp */\n    tag_278:\n        /* \"contracts/manifold/lazyclaim/ERC721LazyClaim.sol\":9107:9206  require(claim.startDate == 0 || claim.startDate < block.timestamp, \"Transaction before start date\") */\n      tag_279\n      jumpi\n      mload(0x40)\n      shl(0xe5, 0x461bcd)\n      dup2\n      mstore\n        /* \"#utility.yul\":16045:16047   */\n      0x20\n        /* \"contracts/manifold/lazyclaim/ERC721LazyClaim.sol\":9107:9206  require(claim.startDate == 0 || claim.startDate < block.timestamp, \"Transaction before start date\") */\n      0x04\n      dup3\n      add\n        /* \"#utility.yul\":16027:16048   */\n      mstore\n        /* \"#utility.yul\":16084:16086   */\n      0x1d\n        /* \"#utility.yul\":16064:16082   */\n      0x24\n      dup3\n      add\n        /* \"#utility.yul\":16057:16087   */\n      mstore\n        /* \"#utility.yul\":16123:16154   */\n      0x5472616e73616374696f6e206265666f72652073746172742064617465000000\n        /* \"#utility.yul\":16103:16121   */\n      0x44\n      dup3\n      add\n        /* \"#utility.yul\":16096:16155   */\n      mstore\n        /* \"#utility.yul\":16172:16190   */\n      0x64\n      add\n        /* \"contracts/manifold/lazyclaim/ERC721LazyClaim.sol\":9107:9206  require(claim.startDate == 0 || claim.startDate < block.timestamp, \"Transaction before start date\") */\n      tag_85\n        /* \"#utility.yul\":15843:16196   */\n      jump\n        /* \"contracts/manifold/lazyclaim/ERC721LazyClaim.sol\":9107:9206  require(claim.startDate == 0 || claim.startDate < block.timestamp, \"Transaction before start date\") */\n    tag_279:\n        /* \"contracts/manifold/lazyclaim/ERC721LazyClaim.sol\":9224:9237  claim.endDate */\n      dup1\n      sload\n      shl(0x90, 0x01)\n      swap1\n      div\n      0xffffffffffff\n      and\n        /* \"contracts/manifold/lazyclaim/ERC721LazyClaim.sol\":9224:9242  claim.endDate == 0 */\n      iszero\n      dup1\n        /* \"contracts/manifold/lazyclaim/ERC721LazyClaim.sol\":9224:9278  claim.endDate == 0 || claim.endDate >= block.timestamp */\n      tag_281\n      jumpi\n      pop\n        /* \"contracts/manifold/lazyclaim/ERC721LazyClaim.sol\":9246:9259  claim.endDate */\n      dup1\n      sload\n        /* \"contracts/manifold/lazyclaim/ERC721LazyClaim.sol\":9263:9278  block.timestamp */\n      timestamp\n      shl(0x90, 0x01)\n        /* \"contracts/manifold/lazyclaim/ERC721LazyClaim.sol\":9246:9259  claim.endDate */\n      swap1\n      swap2\n      div\n      0xffffffffffff\n      and\n        /* \"contracts/manifold/lazyclaim/ERC721LazyClaim.sol\":9246:9278  claim.endDate >= block.timestamp */\n      lt\n      iszero\n        /* \"contracts/manifold/lazyclaim/ERC721LazyClaim.sol\":9224:9278  claim.endDate == 0 || claim.endDate >= block.timestamp */\n    tag_281:\n        /* \"contracts/manifold/lazyclaim/ERC721LazyClaim.sol\":9216:9309  require(claim.endDate == 0 || claim.endDate >= block.timestamp, \"Transaction after end date\") */\n      tag_282\n      jumpi\n      mload(0x40)\n      shl(0xe5, 0x461bcd)\n      dup2\n      mstore\n        /* \"#utility.yul\":16403:16405   */\n      0x20\n        /* \"contracts/manifold/lazyclaim/ERC721LazyClaim.sol\":9216:9309  require(claim.endDate == 0 || claim.endDate >= block.timestamp, \"Transaction after end date\") */\n      0x04\n      dup3\n      add\n        /* \"#utility.yul\":16385:16406   */\n      mstore\n        /* \"#utility.yul\":16442:16444   */\n      0x1a\n        /* \"#utility.yul\":16422:16440   */\n      0x24\n      dup3\n      add\n        /* \"#utility.yul\":16415:16445   */\n      mstore\n        /* \"#utility.yul\":16481:16509   */\n      0x5472616e73616374696f6e20616674657220656e642064617465000000000000\n        /* \"#utility.yul\":16461:16479   */\n      0x44\n      dup3\n      add\n        /* \"#utility.yul\":16454:16510   */\n      mstore\n        /* \"#utility.yul\":16527:16545   */\n      0x64\n      add\n        /* \"contracts/manifold/lazyclaim/ERC721LazyClaim.sol\":9216:9309  require(claim.endDate == 0 || claim.endDate >= block.timestamp, \"Transaction after end date\") */\n      tag_85\n        /* \"#utility.yul\":16201:16551   */\n      jump\n        /* \"contracts/manifold/lazyclaim/ERC721LazyClaim.sol\":9216:9309  require(claim.endDate == 0 || claim.endDate >= block.timestamp, \"Transaction after end date\") */\n    tag_282:\n        /* \"contracts/manifold/lazyclaim/ERC721LazyClaim.sol\":9354:9368  claim.totalMax */\n      dup1\n      sload\n      0x0100000000\n      swap1\n      div\n      0xffffffff\n      and\n        /* \"contracts/manifold/lazyclaim/ERC721LazyClaim.sol\":9354:9373  claim.totalMax == 0 */\n      iszero\n      dup1\n        /* \"contracts/manifold/lazyclaim/ERC721LazyClaim.sol\":9354:9405  claim.totalMax == 0 || claim.total < claim.totalMax */\n      tag_284\n      jumpi\n      pop\n        /* \"contracts/manifold/lazyclaim/ERC721LazyClaim.sol\":9391:9405  claim.totalMax */\n      dup1\n      sload\n      0xffffffff\n      0x0100000000\n      dup3\n      div\n      dup2\n      and\n        /* \"contracts/manifold/lazyclaim/ERC721LazyClaim.sol\":9377:9388  claim.total */\n      swap2\n      and\n        /* \"contracts/manifold/lazyclaim/ERC721LazyClaim.sol\":9377:9405  claim.total < claim.totalMax */\n      lt\n        /* \"contracts/manifold/lazyclaim/ERC721LazyClaim.sol\":9354:9405  claim.totalMax == 0 || claim.total < claim.totalMax */\n    tag_284:\n        /* \"contracts/manifold/lazyclaim/ERC721LazyClaim.sol\":9346:9454  require(claim.totalMax == 0 || claim.total < claim.totalMax, \"Maximum tokens already minted for this claim\") */\n      tag_285\n      jumpi\n      mload(0x40)\n      shl(0xe5, 0x461bcd)\n      dup2\n      mstore\n        /* \"#utility.yul\":21238:21240   */\n      0x20\n        /* \"contracts/manifold/lazyclaim/ERC721LazyClaim.sol\":9346:9454  require(claim.totalMax == 0 || claim.total < claim.totalMax, \"Maximum tokens already minted for this claim\") */\n      0x04\n      dup3\n      add\n        /* \"#utility.yul\":21220:21241   */\n      mstore\n        /* \"#utility.yul\":21277:21279   */\n      0x2c\n        /* \"#utility.yul\":21257:21275   */\n      0x24\n      dup3\n      add\n        /* \"#utility.yul\":21250:21280   */\n      mstore\n        /* \"#utility.yul\":21316:21350   */\n      0x4d6178696d756d20746f6b656e7320616c7265616479206d696e74656420666f\n        /* \"#utility.yul\":21296:21314   */\n      0x44\n      dup3\n      add\n        /* \"#utility.yul\":21289:21351   */\n      mstore\n        /* \"#utility.yul\":21387:21401   */\n      0x72207468697320636c61696d0000000000000000000000000000000000000000\n        /* \"#utility.yul\":21367:21385   */\n      0x64\n      dup3\n      add\n        /* \"#utility.yul\":21360:21402   */\n      mstore\n        /* \"#utility.yul\":21419:21438   */\n      0x84\n      add\n        /* \"contracts/manifold/lazyclaim/ERC721LazyClaim.sol\":9346:9454  require(claim.totalMax == 0 || claim.total < claim.totalMax, \"Maximum tokens already minted for this claim\") */\n      tag_85\n        /* \"#utility.yul\":21036:21444   */\n      jump\n        /* \"contracts/manifold/lazyclaim/ERC721LazyClaim.sol\":9346:9454  require(claim.totalMax == 0 || claim.total < claim.totalMax, \"Maximum tokens already minted for this claim\") */\n    tag_285:\n        /* \"contracts/manifold/lazyclaim/ERC721LazyClaim.sol\":9469:9485  claim.merkleRoot */\n      0x01\n      dup2\n      add\n      sload\n        /* \"contracts/manifold/lazyclaim/ERC721LazyClaim.sol\":9469:9491  claim.merkleRoot != \"\" */\n      iszero\n        /* \"contracts/manifold/lazyclaim/ERC721LazyClaim.sol\":9465:9988  if (claim.merkleRoot != \"\") {... */\n      tag_288\n      jumpi\n        /* \"contracts/manifold/lazyclaim/ERC721LazyClaim.sol\":9534:9622  _checkMerkleAndUpdate(claim, creatorContractAddress, claimIndex, mintIndex, merkleProof) */\n      tag_289\n        /* \"contracts/manifold/lazyclaim/ERC721LazyClaim.sol\":9556:9561  claim */\n      dup2\n        /* \"contracts/manifold/lazyclaim/ERC721LazyClaim.sol\":9563:9585  creatorContractAddress */\n      dup8\n        /* \"contracts/manifold/lazyclaim/ERC721LazyClaim.sol\":9587:9597  claimIndex */\n      dup8\n        /* \"contracts/manifold/lazyclaim/ERC721LazyClaim.sol\":9599:9608  mintIndex */\n      dup8\n        /* \"contracts/manifold/lazyclaim/ERC721LazyClaim.sol\":9610:9621  merkleProof */\n      dup8\n      dup8\n        /* \"contracts/manifold/lazyclaim/ERC721LazyClaim.sol\":9534:9622  _checkMerkleAndUpdate(claim, creatorContractAddress, claimIndex, mintIndex, merkleProof) */\n      dup1\n      dup1\n      0x20\n      mul\n      0x20\n      add\n      mload(0x40)\n      swap1\n      dup2\n      add\n      0x40\n      mstore\n      dup1\n      swap4\n      swap3\n      swap2\n      swap1\n      dup2\n      dup2\n      mstore\n      0x20\n      add\n      dup4\n      dup4\n      0x20\n      mul\n      dup1\n      dup3\n      dup5\n      calldatacopy\n      0x00\n      swap3\n      add\n      swap2\n      swap1\n      swap2\n      mstore\n      pop\n        /* \"contracts/manifold/lazyclaim/ERC721LazyClaim.sol\":9534:9555  _checkMerkleAndUpdate */\n      tag_239\n      swap3\n      pop\n      pop\n      pop\n        /* \"contracts/manifold/lazyclaim/ERC721LazyClaim.sol\":9534:9622  _checkMerkleAndUpdate(claim, creatorContractAddress, claimIndex, mintIndex, merkleProof) */\n      jump\t// in\n    tag_289:\n        /* \"contracts/manifold/lazyclaim/ERC721LazyClaim.sol\":9465:9988  if (claim.merkleRoot != \"\") {... */\n      jump(tag_291)\n    tag_288:\n        /* \"contracts/manifold/lazyclaim/ERC721LazyClaim.sol\":9688:9703  claim.walletMax */\n      dup1\n      sload\n      shl(0x40, 0x01)\n      swap1\n      div\n      0xffffffff\n      and\n        /* \"contracts/manifold/lazyclaim/ERC721LazyClaim.sol\":9688:9708  claim.walletMax != 0 */\n      iszero\n        /* \"contracts/manifold/lazyclaim/ERC721LazyClaim.sol\":9684:9978  if (claim.walletMax != 0) {... */\n      tag_291\n      jumpi\n        /* \"contracts/manifold/lazyclaim/ERC721LazyClaim.sol\":9802:9817  claim.walletMax */\n      dup1\n      sload\n      sub(shl(0xa0, 0x01), 0x01)\n        /* \"contracts/manifold/lazyclaim/ERC721LazyClaim.sol\":9736:9775  _mintsPerWallet[creatorContractAddress] */\n      dup8\n      and\n        /* \"contracts/manifold/lazyclaim/ERC721LazyClaim.sol\":9802:9817  claim.walletMax */\n      0x00\n        /* \"contracts/manifold/lazyclaim/ERC721LazyClaim.sol\":9736:9775  _mintsPerWallet[creatorContractAddress] */\n      swap1\n      dup2\n      mstore\n        /* \"contracts/manifold/lazyclaim/ERC721LazyClaim.sol\":9736:9751  _mintsPerWallet */\n      0x03\n        /* \"contracts/manifold/lazyclaim/ERC721LazyClaim.sol\":9736:9775  _mintsPerWallet[creatorContractAddress] */\n      0x20\n      swap1\n      dup2\n      mstore\n      0x40\n      dup1\n      dup4\n      keccak256\n        /* \"contracts/manifold/lazyclaim/ERC721LazyClaim.sol\":9736:9787  _mintsPerWallet[creatorContractAddress][claimIndex] */\n      dup10\n      dup5\n      mstore\n      dup3\n      mstore\n      dup1\n      dup4\n      keccak256\n        /* \"contracts/manifold/lazyclaim/ERC721LazyClaim.sol\":9788:9798  msg.sender */\n      caller\n        /* \"contracts/manifold/lazyclaim/ERC721LazyClaim.sol\":9736:9799  _mintsPerWallet[creatorContractAddress][claimIndex][msg.sender] */\n      dup5\n      mstore\n      swap1\n      swap2\n      mstore\n      swap1\n      keccak256\n      sload\n      shl(0x40, 0x01)\n        /* \"contracts/manifold/lazyclaim/ERC721LazyClaim.sol\":9802:9817  claim.walletMax */\n      swap1\n      swap2\n      div\n      0xffffffff\n      and\n      gt\n        /* \"contracts/manifold/lazyclaim/ERC721LazyClaim.sol\":9728:9867  require(_mintsPerWallet[creatorContractAddress][claimIndex][msg.sender] < claim.walletMax, \"Maximum tokens already minted for this wallet\") */\n      tag_292\n      jumpi\n      mload(0x40)\n      shl(0xe5, 0x461bcd)\n      dup2\n      mstore\n        /* \"#utility.yul\":21651:21653   */\n      0x20\n        /* \"contracts/manifold/lazyclaim/ERC721LazyClaim.sol\":9728:9867  require(_mintsPerWallet[creatorContractAddress][claimIndex][msg.sender] < claim.walletMax, \"Maximum tokens already minted for this wallet\") */\n      0x04\n      dup3\n      add\n        /* \"#utility.yul\":21633:21654   */\n      mstore\n        /* \"#utility.yul\":21690:21692   */\n      0x2d\n        /* \"#utility.yul\":21670:21688   */\n      0x24\n      dup3\n      add\n        /* \"#utility.yul\":21663:21693   */\n      mstore\n        /* \"#utility.yul\":21729:21763   */\n      0x4d6178696d756d20746f6b656e7320616c7265616479206d696e74656420666f\n        /* \"#utility.yul\":21709:21727   */\n      0x44\n      dup3\n      add\n        /* \"#utility.yul\":21702:21764   */\n      mstore\n        /* \"#utility.yul\":21800:21815   */\n      0x7220746869732077616c6c657400000000000000000000000000000000000000\n        /* \"#utility.yul\":21780:21798   */\n      0x64\n      dup3\n      add\n        /* \"#utility.yul\":21773:21816   */\n      mstore\n        /* \"#utility.yul\":21833:21852   */\n      0x84\n      add\n        /* \"contracts/manifold/lazyclaim/ERC721LazyClaim.sol\":9728:9867  require(_mintsPerWallet[creatorContractAddress][claimIndex][msg.sender] < claim.walletMax, \"Maximum tokens already minted for this wallet\") */\n      tag_85\n        /* \"#utility.yul\":21449:21858   */\n      jump\n        /* \"contracts/manifold/lazyclaim/ERC721LazyClaim.sol\":9728:9867  require(_mintsPerWallet[creatorContractAddress][claimIndex][msg.sender] < claim.walletMax, \"Maximum tokens already minted for this wallet\") */\n    tag_292:\n      sub(shl(0xa0, 0x01), 0x01)\n        /* \"contracts/manifold/lazyclaim/ERC721LazyClaim.sol\":9896:9935  _mintsPerWallet[creatorContractAddress] */\n      dup7\n      and\n      0x00\n      swap1\n      dup2\n      mstore\n        /* \"contracts/manifold/lazyclaim/ERC721LazyClaim.sol\":9896:9911  _mintsPerWallet */\n      0x03\n        /* \"contracts/manifold/lazyclaim/ERC721LazyClaim.sol\":9896:9935  _mintsPerWallet[creatorContractAddress] */\n      0x20\n      swap1\n      dup2\n      mstore\n      0x40\n      dup1\n      dup4\n      keccak256\n        /* \"contracts/manifold/lazyclaim/ERC721LazyClaim.sol\":9896:9947  _mintsPerWallet[creatorContractAddress][claimIndex] */\n      dup9\n      dup5\n      mstore\n      dup3\n      mstore\n      dup1\n      dup4\n      keccak256\n        /* \"contracts/manifold/lazyclaim/ERC721LazyClaim.sol\":9948:9958  msg.sender */\n      caller\n        /* \"contracts/manifold/lazyclaim/ERC721LazyClaim.sol\":9896:9959  _mintsPerWallet[creatorContractAddress][claimIndex][msg.sender] */\n      dup5\n      mstore\n      swap1\n      swap2\n      mstore\n      swap1\n      keccak256\n        /* \"contracts/manifold/lazyclaim/ERC721LazyClaim.sol\":9896:9961  _mintsPerWallet[creatorContractAddress][claimIndex][msg.sender]++ */\n      dup1\n      sload\n      0x01\n      add\n      swap1\n      sstore\n        /* \"contracts/manifold/lazyclaim/ERC721LazyClaim.sol\":9684:9978  if (claim.walletMax != 0) {... */\n    tag_291:\n        /* \"contracts/manifold/lazyclaim/ERC721LazyClaim.sol\":10008:10021  claim.total++ */\n      dup1\n      sload\n      0xffffffff\n      dup1\n      dup3\n      and\n      0x01\n      add\n      and\n      not(0xffffffff)\n      swap1\n      swap2\n      and\n      or\n      dup2\n      sstore\n        /* \"contracts/manifold/lazyclaim/ERC721LazyClaim.sol\":10074:10142  IERC721CreatorCore(creatorContractAddress).mintExtension(msg.sender) */\n      mload(0x40)\n      0x2928ca5800000000000000000000000000000000000000000000000000000000\n      dup2\n      mstore\n        /* \"contracts/manifold/lazyclaim/ERC721LazyClaim.sol\":10131:10141  msg.sender */\n      caller\n        /* \"contracts/manifold/lazyclaim/ERC721LazyClaim.sol\":10074:10142  IERC721CreatorCore(creatorContractAddress).mintExtension(msg.sender) */\n      0x04\n      dup3\n      add\n        /* \"#utility.yul\":9841:9915   */\n      mstore\n      0x00\n      swap1\n      sub(shl(0xa0, 0x01), 0x01)\n        /* \"contracts/manifold/lazyclaim/ERC721LazyClaim.sol\":10074:10130  IERC721CreatorCore(creatorContractAddress).mintExtension */\n      dup9\n      and\n      swap1\n      0x2928ca58\n      swap1\n        /* \"#utility.yul\":9814:9832   */\n      0x24\n      add\n        /* \"contracts/manifold/lazyclaim/ERC721LazyClaim.sol\":10074:10142  IERC721CreatorCore(creatorContractAddress).mintExtension(msg.sender) */\n      0x20\n      mload(0x40)\n      dup1\n      dup4\n      sub\n      dup2\n      0x00\n      dup8\n      gas\n      call\n      iszero\n      dup1\n      iszero\n      tag_297\n      jumpi\n      returndatasize\n      0x00\n      dup1\n      returndatacopy\n      revert(0x00, returndatasize)\n    tag_297:\n      pop\n      pop\n      pop\n      pop\n      mload(0x40)\n      returndatasize\n      not(0x1f)\n      0x1f\n      dup3\n      add\n      and\n      dup3\n      add\n      dup1\n      0x40\n      mstore\n      pop\n      dup2\n      add\n      swap1\n      tag_298\n      swap2\n      swap1\n      tag_299\n      jump\t// in\n    tag_298:\n        /* \"contracts/manifold/lazyclaim/ERC721LazyClaim.sol\":10294:10338  TokenClaim(uint224(claimIndex), claim.total) */\n      0x40\n      dup1\n      mload\n      dup1\n      dup3\n      add\n      dup3\n      mstore\n      sub(shl(0xe0, 0x01), 0x01)\n      dup1\n      dup11\n      and\n      dup3\n      mstore\n        /* \"contracts/manifold/lazyclaim/ERC721LazyClaim.sol\":10326:10337  claim.total */\n      dup6\n      sload\n      0xffffffff\n      swap1\n      dup2\n      and\n        /* \"contracts/manifold/lazyclaim/ERC721LazyClaim.sol\":10294:10338  TokenClaim(uint224(claimIndex), claim.total) */\n      0x20\n      dup1\n      dup6\n      add\n      swap2\n      dup3\n      mstore\n      sub(shl(0xa0, 0x01), 0x01)\n        /* \"contracts/manifold/lazyclaim/ERC721LazyClaim.sol\":10243:10279  _tokenClaims[creatorContractAddress] */\n      dup15\n      and\n      0x00\n      dup2\n      dup2\n      mstore\n        /* \"contracts/manifold/lazyclaim/ERC721LazyClaim.sol\":10243:10255  _tokenClaims */\n      0x05\n        /* \"contracts/manifold/lazyclaim/ERC721LazyClaim.sol\":10243:10279  _tokenClaims[creatorContractAddress] */\n      dup4\n      mstore\n      dup8\n      dup2\n      keccak256\n        /* \"contracts/manifold/lazyclaim/ERC721LazyClaim.sol\":10243:10291  _tokenClaims[creatorContractAddress][newTokenId] */\n      dup10\n      dup3\n      mstore\n      swap1\n      swap3\n      mstore\n      dup7\n      dup3\n      keccak256\n        /* \"contracts/manifold/lazyclaim/ERC721LazyClaim.sol\":10243:10338  _tokenClaims[creatorContractAddress][newTokenId] = TokenClaim(uint224(claimIndex), claim.total) */\n      swap6\n      mload\n      swap3\n      mload\n      swap1\n      swap4\n      and\n      shl(0xe0, 0x01)\n      mul\n      swap2\n      swap1\n      swap4\n      and\n      or\n      swap1\n      swap3\n      sstore\n        /* \"contracts/manifold/lazyclaim/ERC721LazyClaim.sol\":10354:10399  ClaimMint(creatorContractAddress, claimIndex) */\n      swap2\n      mload\n        /* \"contracts/manifold/lazyclaim/ERC721LazyClaim.sol\":10053:10142  uint256 newTokenId = IERC721CreatorCore(creatorContractAddress).mintExtension(msg.sender) */\n      swap3\n      swap4\n      pop\n        /* \"contracts/manifold/lazyclaim/ERC721LazyClaim.sol\":10313:10323  claimIndex */\n      dup9\n      swap3\n        /* \"contracts/manifold/lazyclaim/ERC721LazyClaim.sol\":10243:10279  _tokenClaims[creatorContractAddress] */\n      swap1\n      swap2\n        /* \"contracts/manifold/lazyclaim/ERC721LazyClaim.sol\":10354:10399  ClaimMint(creatorContractAddress, claimIndex) */\n      0x5d404f369772cfab2b65717fca9bc2077efeab89a0dbec036bf0c13783154eb1\n      swap2\n      log3\n        /* \"contracts/manifold/lazyclaim/ERC721LazyClaim.sol\":8864:10406  {... */\n      pop\n      pop\n        /* \"contracts/manifold/lazyclaim/ERC721LazyClaim.sol\":8730:10406  function mint(address creatorContractAddress, uint256 claimIndex, uint32 mintIndex, bytes32[] calldata merkleProof) external override {... */\n      pop\n      pop\n      pop\n      pop\n      pop\n      jump\t// out\n        /* \"contracts/manifold/lazyclaim/ERC721LazyClaim.sol\":7019:7673  function checkMintIndex(address creatorContractAddress, uint256 claimIndex, uint32 mintIndex) public override view returns(bool) {... */\n    tag_56:\n      sub(shl(0xa0, 0x01), 0x01)\n        /* \"contracts/manifold/lazyclaim/ERC721LazyClaim.sol\":7180:7211  _claims[creatorContractAddress] */\n      dup4\n      and\n        /* \"contracts/manifold/lazyclaim/ERC721LazyClaim.sol\":7142:7146  bool */\n      0x00\n        /* \"contracts/manifold/lazyclaim/ERC721LazyClaim.sol\":7180:7211  _claims[creatorContractAddress] */\n      swap1\n      dup2\n      mstore\n        /* \"contracts/manifold/lazyclaim/ERC721LazyClaim.sol\":7180:7187  _claims */\n      0x02\n        /* \"contracts/manifold/lazyclaim/ERC721LazyClaim.sol\":7180:7211  _claims[creatorContractAddress] */\n      0x20\n      swap1\n      dup2\n      mstore\n      0x40\n      dup1\n      dup4\n      keccak256\n        /* \"contracts/manifold/lazyclaim/ERC721LazyClaim.sol\":7180:7223  _claims[creatorContractAddress][claimIndex] */\n      dup6\n      dup5\n      mstore\n      swap1\n      swap2\n      mstore\n      dup2\n      keccak256\n        /* \"contracts/manifold/lazyclaim/ERC721LazyClaim.sol\":7142:7146  bool */\n      dup2\n        /* \"contracts/manifold/lazyclaim/ERC721LazyClaim.sol\":7241:7262  claim.storageProtocol */\n      dup2\n      sload\n      shl(0xc0, 0x01)\n      swap1\n      div\n      0xff\n      and\n        /* \"contracts/manifold/lazyclaim/ERC721LazyClaim.sol\":7241:7289  claim.storageProtocol != StorageProtocol.INVALID */\n      0x03\n      dup2\n      gt\n      iszero\n      tag_304\n      jumpi\n      tag_304\n      tag_90\n      jump\t// in\n    tag_304:\n      sub\n        /* \"contracts/manifold/lazyclaim/ERC721LazyClaim.sol\":7233:7315  require(claim.storageProtocol != StorageProtocol.INVALID, \"Claim not initialized\") */\n      tag_305\n      jumpi\n      mload(0x40)\n      shl(0xe5, 0x461bcd)\n      dup2\n      mstore\n        /* \"#utility.yul\":14142:14144   */\n      0x20\n        /* \"contracts/manifold/lazyclaim/ERC721LazyClaim.sol\":7233:7315  require(claim.storageProtocol != StorageProtocol.INVALID, \"Claim not initialized\") */\n      0x04\n      dup3\n      add\n        /* \"#utility.yul\":14124:14145   */\n      mstore\n        /* \"#utility.yul\":14181:14183   */\n      0x15\n        /* \"#utility.yul\":14161:14179   */\n      0x24\n      dup3\n      add\n        /* \"#utility.yul\":14154:14184   */\n      mstore\n      shl(0x5a, 0x10db185a5b481b9bdd081a5b9a5d1a585b1a5e9959)\n        /* \"#utility.yul\":14200:14218   */\n      0x44\n      dup3\n      add\n        /* \"#utility.yul\":14193:14244   */\n      mstore\n        /* \"#utility.yul\":14261:14279   */\n      0x64\n      add\n        /* \"contracts/manifold/lazyclaim/ERC721LazyClaim.sol\":7233:7315  require(claim.storageProtocol != StorageProtocol.INVALID, \"Claim not initialized\") */\n      tag_85\n        /* \"#utility.yul\":13940:14285   */\n      jump\n        /* \"contracts/manifold/lazyclaim/ERC721LazyClaim.sol\":7233:7315  require(claim.storageProtocol != StorageProtocol.INVALID, \"Claim not initialized\") */\n    tag_305:\n        /* \"contracts/manifold/lazyclaim/ERC721LazyClaim.sol\":7333:7338  claim */\n      dup1\n        /* \"contracts/manifold/lazyclaim/ERC721LazyClaim.sol\":7333:7349  claim.merkleRoot */\n      0x01\n      add\n      sload\n        /* \"contracts/manifold/lazyclaim/ERC721LazyClaim.sol\":7333:7355  claim.merkleRoot != \"\" */\n      0x00\n      sub\n        /* \"contracts/manifold/lazyclaim/ERC721LazyClaim.sol\":7325:7388  require(claim.merkleRoot != \"\", \"Can only check merkle claims\") */\n      tag_307\n      jumpi\n      mload(0x40)\n      shl(0xe5, 0x461bcd)\n      dup2\n      mstore\n        /* \"#utility.yul\":22254:22256   */\n      0x20\n        /* \"contracts/manifold/lazyclaim/ERC721LazyClaim.sol\":7325:7388  require(claim.merkleRoot != \"\", \"Can only check merkle claims\") */\n      0x04\n      dup3\n      add\n        /* \"#utility.yul\":22236:22257   */\n      mstore\n        /* \"#utility.yul\":22293:22295   */\n      0x1c\n        /* \"#utility.yul\":22273:22291   */\n      0x24\n      dup3\n      add\n        /* \"#utility.yul\":22266:22296   */\n      mstore\n        /* \"#utility.yul\":22332:22362   */\n      0x43616e206f6e6c7920636865636b206d65726b6c6520636c61696d7300000000\n        /* \"#utility.yul\":22312:22330   */\n      0x44\n      dup3\n      add\n        /* \"#utility.yul\":22305:22363   */\n      mstore\n        /* \"#utility.yul\":22380:22398   */\n      0x64\n      add\n        /* \"contracts/manifold/lazyclaim/ERC721LazyClaim.sol\":7325:7388  require(claim.merkleRoot != \"\", \"Can only check merkle claims\") */\n      tag_85\n        /* \"#utility.yul\":22052:22404   */\n      jump\n        /* \"contracts/manifold/lazyclaim/ERC721LazyClaim.sol\":7325:7388  require(claim.merkleRoot != \"\", \"Can only check merkle claims\") */\n    tag_307:\n      pop\n      pop\n      sub(shl(0xa0, 0x01), 0x01)\n        /* \"contracts/manifold/lazyclaim/ERC721LazyClaim.sol\":7475:7516  _claimMintIndices[creatorContractAddress] */\n      dup4\n      and\n        /* \"contracts/manifold/lazyclaim/ERC721LazyClaim.sol\":7398:7420  uint256 claimMintIndex */\n      0x00\n        /* \"contracts/manifold/lazyclaim/ERC721LazyClaim.sol\":7475:7516  _claimMintIndices[creatorContractAddress] */\n      swap1\n      dup2\n      mstore\n        /* \"contracts/manifold/lazyclaim/ERC721LazyClaim.sol\":7475:7492  _claimMintIndices */\n      0x04\n        /* \"contracts/manifold/lazyclaim/ERC721LazyClaim.sol\":7475:7516  _claimMintIndices[creatorContractAddress] */\n      0x20\n      swap1\n      dup2\n      mstore\n      0x40\n      dup1\n      dup4\n      keccak256\n        /* \"contracts/manifold/lazyclaim/ERC721LazyClaim.sol\":7475:7528  _claimMintIndices[creatorContractAddress][claimIndex] */\n      dup6\n      dup5\n      mstore\n      dup3\n      mstore\n      dup1\n      dup4\n      keccak256\n        /* \"contracts/manifold/lazyclaim/ERC721LazyClaim.sol\":7423:7437  mintIndex >> 8 */\n      0xffffff\n        /* \"contracts/manifold/lazyclaim/ERC721LazyClaim.sol\":7436:7437  8 */\n      0x08\n        /* \"contracts/manifold/lazyclaim/ERC721LazyClaim.sol\":7423:7437  mintIndex >> 8 */\n      dup7\n      swap1\n      shr\n      and\n        /* \"contracts/manifold/lazyclaim/ERC721LazyClaim.sol\":7475:7544  _claimMintIndices[creatorContractAddress][claimIndex][claimMintIndex] */\n      dup5\n      mstore\n      swap1\n      swap2\n      mstore\n      swap1\n      keccak256\n      sload\n        /* \"contracts/manifold/lazyclaim/ERC721LazyClaim.sol\":7576:7577  1 */\n      0x01\n        /* \"contracts/manifold/lazyclaim/ERC721LazyClaim.sol\":1007:1011  0xFF */\n      0xff\n        /* \"contracts/manifold/lazyclaim/ERC721LazyClaim.sol\":7582:7612  mintIndex & MINT_INDEX_BITMASK */\n      dup4\n      and\n        /* \"contracts/manifold/lazyclaim/ERC721LazyClaim.sol\":7576:7613  1 << (mintIndex & MINT_INDEX_BITMASK) */\n      shl\n        /* \"contracts/manifold/lazyclaim/ERC721LazyClaim.sol\":7630:7661  mintBitmask & claimMintTracking */\n      and\n        /* \"contracts/manifold/lazyclaim/ERC721LazyClaim.sol\":7630:7666  mintBitmask & claimMintTracking != 0 */\n      iszero\n      iszero\n        /* \"contracts/manifold/lazyclaim/ERC721LazyClaim.sol\":7019:7673  function checkMintIndex(address creatorContractAddress, uint256 claimIndex, uint32 mintIndex) public override view returns(bool) {... */\n      swap4\n      swap3\n      pop\n      pop\n      pop\n      jump\t// out\n        /* \"contracts/manifold/lazyclaim/ERC721LazyClaim.sol\":13697:14587  function tokenURI(address creatorContractAddress, uint256 tokenId) external override view returns(string memory uri) {... */\n    tag_65:\n      sub(shl(0xa0, 0x01), 0x01)\n        /* \"contracts/manifold/lazyclaim/ERC721LazyClaim.sol\":13855:13891  _tokenClaims[creatorContractAddress] */\n      dup3\n      and\n        /* \"contracts/manifold/lazyclaim/ERC721LazyClaim.sol\":13824:13852  TokenClaim memory tokenClaim */\n      0x00\n        /* \"contracts/manifold/lazyclaim/ERC721LazyClaim.sol\":13855:13891  _tokenClaims[creatorContractAddress] */\n      swap1\n      dup2\n      mstore\n        /* \"contracts/manifold/lazyclaim/ERC721LazyClaim.sol\":13855:13867  _tokenClaims */\n      0x05\n        /* \"contracts/manifold/lazyclaim/ERC721LazyClaim.sol\":13855:13891  _tokenClaims[creatorContractAddress] */\n      0x20\n      swap1\n      dup2\n      mstore\n      0x40\n      dup1\n      dup4\n      keccak256\n        /* \"contracts/manifold/lazyclaim/ERC721LazyClaim.sol\":13855:13900  _tokenClaims[creatorContractAddress][tokenId] */\n      dup5\n      dup5\n      mstore\n      dup3\n      mstore\n      swap2\n      dup3\n      swap1\n      keccak256\n        /* \"contracts/manifold/lazyclaim/ERC721LazyClaim.sol\":13824:13900  TokenClaim memory tokenClaim = _tokenClaims[creatorContractAddress][tokenId] */\n      dup3\n      mload\n      dup1\n      dup5\n      add\n      swap1\n      swap4\n      mstore\n      sload\n      sub(shl(0xe0, 0x01), 0x01)\n      dup2\n      and\n      dup1\n      dup5\n      mstore\n      shl(0xe0, 0x01)\n      swap1\n      swap2\n      div\n      0xffffffff\n      and\n      swap2\n      dup4\n      add\n      swap2\n      swap1\n      swap2\n      mstore\n        /* \"contracts/manifold/lazyclaim/ERC721LazyClaim.sol\":13795:13812  string memory uri */\n      0x60\n      swap2\n        /* \"contracts/manifold/lazyclaim/ERC721LazyClaim.sol\":13824:13900  TokenClaim memory tokenClaim = _tokenClaims[creatorContractAddress][tokenId] */\n      swap1\n        /* \"contracts/manifold/lazyclaim/ERC721LazyClaim.sol\":13910:13968  require(tokenClaim.claimIndex > 0, \"Token does not exist\") */\n      tag_312\n      jumpi\n      mload(0x40)\n      shl(0xe5, 0x461bcd)\n      dup2\n      mstore\n        /* \"#utility.yul\":22611:22613   */\n      0x20\n        /* \"contracts/manifold/lazyclaim/ERC721LazyClaim.sol\":13910:13968  require(tokenClaim.claimIndex > 0, \"Token does not exist\") */\n      0x04\n      dup3\n      add\n        /* \"#utility.yul\":22593:22614   */\n      mstore\n        /* \"#utility.yul\":22650:22652   */\n      0x14\n        /* \"#utility.yul\":22630:22648   */\n      0x24\n      dup3\n      add\n        /* \"#utility.yul\":22623:22653   */\n      mstore\n        /* \"#utility.yul\":22689:22711   */\n      0x546f6b656e20646f6573206e6f74206578697374000000000000000000000000\n        /* \"#utility.yul\":22669:22687   */\n      0x44\n      dup3\n      add\n        /* \"#utility.yul\":22662:22712   */\n      mstore\n        /* \"#utility.yul\":22729:22747   */\n      0x64\n      add\n        /* \"contracts/manifold/lazyclaim/ERC721LazyClaim.sol\":13910:13968  require(tokenClaim.claimIndex > 0, \"Token does not exist\") */\n      tag_85\n        /* \"#utility.yul\":22409:22753   */\n      jump\n        /* \"contracts/manifold/lazyclaim/ERC721LazyClaim.sol\":13910:13968  require(tokenClaim.claimIndex > 0, \"Token does not exist\") */\n    tag_312:\n      sub(shl(0xa0, 0x01), 0x01)\n        /* \"contracts/manifold/lazyclaim/ERC721LazyClaim.sol\":13999:14030  _claims[creatorContractAddress] */\n      dup5\n      and\n        /* \"contracts/manifold/lazyclaim/ERC721LazyClaim.sol\":13978:13996  Claim memory claim */\n      0x00\n        /* \"contracts/manifold/lazyclaim/ERC721LazyClaim.sol\":13999:14030  _claims[creatorContractAddress] */\n      swap1\n      dup2\n      mstore\n        /* \"contracts/manifold/lazyclaim/ERC721LazyClaim.sol\":13999:14006  _claims */\n      0x02\n        /* \"contracts/manifold/lazyclaim/ERC721LazyClaim.sol\":13999:14030  _claims[creatorContractAddress] */\n      0x20\n      swap1\n      dup2\n      mstore\n      0x40\n      dup1\n      dup4\n      keccak256\n        /* \"contracts/manifold/lazyclaim/ERC721LazyClaim.sol\":14031:14052  tokenClaim.claimIndex */\n      dup5\n      mload\n      sub(shl(0xe0, 0x01), 0x01)\n        /* \"contracts/manifold/lazyclaim/ERC721LazyClaim.sol\":13999:14053  _claims[creatorContractAddress][tokenClaim.claimIndex] */\n      and\n      dup5\n      mstore\n      dup3\n      mstore\n      dup1\n      dup4\n      keccak256\n        /* \"contracts/manifold/lazyclaim/ERC721LazyClaim.sol\":13978:14053  Claim memory claim = _claims[creatorContractAddress][tokenClaim.claimIndex] */\n      dup2\n      mload\n      0x0120\n      dup2\n      add\n      dup4\n      mstore\n      dup2\n      sload\n      0xffffffff\n      dup1\n      dup3\n      and\n      dup4\n      mstore\n      0x0100000000\n      dup3\n      div\n      dup2\n      and\n      swap6\n      dup4\n      add\n      swap6\n      swap1\n      swap6\n      mstore\n      shl(0x40, 0x01)\n      dup2\n      div\n      swap1\n      swap5\n      and\n      swap3\n      dup2\n      add\n      swap3\n      swap1\n      swap3\n      mstore\n      0xffffffffffff\n      shl(0x60, 0x01)\n      dup5\n      div\n      dup2\n      and\n      0x60\n      dup5\n      add\n      mstore\n      shl(0x90, 0x01)\n      dup5\n      div\n      and\n      0x80\n      dup4\n      add\n      mstore\n      swap1\n      swap2\n      0xa0\n      dup4\n      add\n      swap1\n      0xff\n      shl(0xc0, 0x01)\n      swap1\n      swap2\n      div\n      and\n      0x03\n      dup2\n      gt\n      iszero\n      tag_316\n      jumpi\n      tag_316\n      tag_90\n      jump\t// in\n    tag_316:\n      0x03\n      dup2\n      gt\n      iszero\n      tag_318\n      jumpi\n      tag_318\n      tag_90\n      jump\t// in\n    tag_318:\n      dup2\n      mstore\n      dup2\n      sload\n      shl(0xc8, 0x01)\n      swap1\n      div\n      0xff\n      and\n      iszero\n      iszero\n      0x20\n      dup3\n      add\n      mstore\n      0x01\n      dup3\n      add\n      sload\n      0x40\n      dup3\n      add\n      mstore\n      0x02\n      dup3\n      add\n      dup1\n      sload\n      0x60\n      swap1\n      swap3\n      add\n      swap2\n      tag_319\n      swap1\n      tag_145\n      jump\t// in\n    tag_319:\n      dup1\n      0x1f\n      add\n      0x20\n      dup1\n      swap2\n      div\n      mul\n      0x20\n      add\n      mload(0x40)\n      swap1\n      dup2\n      add\n      0x40\n      mstore\n      dup1\n      swap3\n      swap2\n      swap1\n      dup2\n      dup2\n      mstore\n      0x20\n      add\n      dup3\n      dup1\n      sload\n      tag_320\n      swap1\n      tag_145\n      jump\t// in\n    tag_320:\n      dup1\n      iszero\n      tag_321\n      jumpi\n      dup1\n      0x1f\n      lt\n      tag_322\n      jumpi\n      0x0100\n      dup1\n      dup4\n      sload\n      div\n      mul\n      dup4\n      mstore\n      swap2\n      0x20\n      add\n      swap2\n      jump(tag_321)\n    tag_322:\n      dup3\n      add\n      swap2\n      swap1\n      0x00\n      mstore\n      keccak256(0x00, 0x20)\n      swap1\n    tag_323:\n      dup2\n      sload\n      dup2\n      mstore\n      swap1\n      0x01\n      add\n      swap1\n      0x20\n      add\n      dup1\n      dup4\n      gt\n      tag_323\n      jumpi\n      dup3\n      swap1\n      sub\n      0x1f\n      and\n      dup3\n      add\n      swap2\n    tag_321:\n      pop\n      pop\n      pop\n      swap2\n      swap1\n      swap3\n      mstore\n      pop\n      pop\n        /* \"contracts/manifold/lazyclaim/ERC721LazyClaim.sol\":14064:14089  string memory prefix = \"\" */\n      0x40\n      dup1\n      mload\n      0x20\n      dup2\n      add\n      swap1\n      swap2\n      mstore\n        /* \"contracts/manifold/lazyclaim/ERC721LazyClaim.sol\":14064:14084  string memory prefix */\n      0x00\n        /* \"contracts/manifold/lazyclaim/ERC721LazyClaim.sol\":14064:14089  string memory prefix = \"\" */\n      dup2\n      mstore\n        /* \"contracts/manifold/lazyclaim/ERC721LazyClaim.sol\":13978:14053  Claim memory claim = _claims[creatorContractAddress][tokenClaim.claimIndex] */\n      swap2\n      swap3\n      pop\n        /* \"contracts/manifold/lazyclaim/ERC721LazyClaim.sol\":14128:14151  StorageProtocol.ARWEAVE */\n      0x02\n      swap1\n      pop\n        /* \"contracts/manifold/lazyclaim/ERC721LazyClaim.sol\":14103:14108  claim */\n      dup3\n        /* \"contracts/manifold/lazyclaim/ERC721LazyClaim.sol\":14103:14124  claim.storageProtocol */\n      0xa0\n      add\n      mload\n        /* \"contracts/manifold/lazyclaim/ERC721LazyClaim.sol\":14103:14151  claim.storageProtocol == StorageProtocol.ARWEAVE */\n      0x03\n      dup2\n      gt\n      iszero\n      tag_327\n      jumpi\n      tag_327\n      tag_90\n      jump\t// in\n    tag_327:\n      sub\n        /* \"contracts/manifold/lazyclaim/ERC721LazyClaim.sol\":14099:14303  if (claim.storageProtocol == StorageProtocol.ARWEAVE) {... */\n      tag_328\n      jumpi\n      pop\n        /* \"contracts/manifold/lazyclaim/ERC721LazyClaim.sol\":14176:14190  ARWEAVE_PREFIX */\n      0x40\n      dup1\n      mload\n      dup1\n      dup3\n      add\n      swap1\n      swap2\n      mstore\n      0x14\n      dup2\n      mstore\n      0x68747470733a2f2f617277656176652e6e65742f000000000000000000000000\n      0x20\n      dup3\n      add\n      mstore\n        /* \"contracts/manifold/lazyclaim/ERC721LazyClaim.sol\":14099:14303  if (claim.storageProtocol == StorageProtocol.ARWEAVE) {... */\n      jump(tag_334)\n    tag_328:\n        /* \"contracts/manifold/lazyclaim/ERC721LazyClaim.sol\":14236:14256  StorageProtocol.IPFS */\n      0x03\n        /* \"contracts/manifold/lazyclaim/ERC721LazyClaim.sol\":14211:14216  claim */\n      dup3\n        /* \"contracts/manifold/lazyclaim/ERC721LazyClaim.sol\":14211:14232  claim.storageProtocol */\n      0xa0\n      add\n      mload\n        /* \"contracts/manifold/lazyclaim/ERC721LazyClaim.sol\":14211:14256  claim.storageProtocol == StorageProtocol.IPFS */\n      0x03\n      dup2\n      gt\n      iszero\n      tag_333\n      jumpi\n      tag_333\n      tag_90\n      jump\t// in\n    tag_333:\n      sub\n        /* \"contracts/manifold/lazyclaim/ERC721LazyClaim.sol\":14207:14303  if (claim.storageProtocol == StorageProtocol.IPFS) {... */\n      tag_334\n      jumpi\n      pop\n        /* \"contracts/manifold/lazyclaim/ERC721LazyClaim.sol\":14281:14292  IPFS_PREFIX */\n      0x40\n      dup1\n      mload\n      dup1\n      dup3\n      add\n      swap1\n      swap2\n      mstore\n      0x07\n      dup2\n      mstore\n      0x697066733a2f2f00000000000000000000000000000000000000000000000000\n      0x20\n      dup3\n      add\n      mstore\n        /* \"contracts/manifold/lazyclaim/ERC721LazyClaim.sol\":14207:14303  if (claim.storageProtocol == StorageProtocol.IPFS) {... */\n    tag_334:\n        /* \"contracts/manifold/lazyclaim/ERC721LazyClaim.sol\":14350:14364  claim.location */\n      0x0100\n      dup3\n      add\n      mload\n        /* \"contracts/manifold/lazyclaim/ERC721LazyClaim.sol\":14325:14365  abi.encodePacked(prefix, claim.location) */\n      mload(0x40)\n      tag_335\n      swap2\n        /* \"contracts/manifold/lazyclaim/ERC721LazyClaim.sol\":14342:14348  prefix */\n      dup4\n      swap2\n        /* \"contracts/manifold/lazyclaim/ERC721LazyClaim.sol\":14325:14365  abi.encodePacked(prefix, claim.location) */\n      0x20\n      add\n      tag_336\n      jump\t// in\n    tag_335:\n      mload(0x40)\n      0x20\n      dup2\n      dup4\n      sub\n      sub\n      dup2\n      mstore\n      swap1\n      0x40\n      mstore\n        /* \"contracts/manifold/lazyclaim/ERC721LazyClaim.sol\":14312:14366  uri = string(abi.encodePacked(prefix, claim.location)) */\n      swap4\n      pop\n        /* \"contracts/manifold/lazyclaim/ERC721LazyClaim.sol\":14457:14462  claim */\n      dup2\n        /* \"contracts/manifold/lazyclaim/ERC721LazyClaim.sol\":14457:14472  claim.identical */\n      0xc0\n      add\n      mload\n        /* \"contracts/manifold/lazyclaim/ERC721LazyClaim.sol\":14452:14581  if (!claim.identical) {... */\n      tag_337\n      jumpi\n        /* \"contracts/manifold/lazyclaim/ERC721LazyClaim.sol\":14518:14521  uri */\n      dup4\n        /* \"contracts/manifold/lazyclaim/ERC721LazyClaim.sol\":14528:14568  uint256(tokenClaim.mintOrder).toString() */\n      tag_338\n        /* \"contracts/manifold/lazyclaim/ERC721LazyClaim.sol\":14536:14546  tokenClaim */\n      dup5\n        /* \"contracts/manifold/lazyclaim/ERC721LazyClaim.sol\":14536:14556  tokenClaim.mintOrder */\n      0x20\n      add\n      mload\n        /* \"contracts/manifold/lazyclaim/ERC721LazyClaim.sol\":14528:14557  uint256(tokenClaim.mintOrder) */\n      0xffffffff\n      and\n        /* \"contracts/manifold/lazyclaim/ERC721LazyClaim.sol\":14528:14566  uint256(tokenClaim.mintOrder).toString */\n      tag_339\n        /* \"contracts/manifold/lazyclaim/ERC721LazyClaim.sol\":14528:14568  uint256(tokenClaim.mintOrder).toString() */\n      jump\t// in\n    tag_338:\n        /* \"contracts/manifold/lazyclaim/ERC721LazyClaim.sol\":14501:14569  abi.encodePacked(uri, \"/\", uint256(tokenClaim.mintOrder).toString()) */\n      add(0x20, mload(0x40))\n      tag_340\n      swap3\n      swap2\n      swap1\n      tag_341\n      jump\t// in\n    tag_340:\n      mload(0x40)\n      0x20\n      dup2\n      dup4\n      sub\n      sub\n      dup2\n      mstore\n      swap1\n      0x40\n      mstore\n        /* \"contracts/manifold/lazyclaim/ERC721LazyClaim.sol\":14488:14570  uri = string(abi.encodePacked(uri, \"/\", uint256(tokenClaim.mintOrder).toString())) */\n      swap4\n      pop\n        /* \"contracts/manifold/lazyclaim/ERC721LazyClaim.sol\":14452:14581  if (!claim.identical) {... */\n    tag_337:\n        /* \"contracts/manifold/lazyclaim/ERC721LazyClaim.sol\":13814:14587  {... */\n      pop\n      pop\n      pop\n        /* \"contracts/manifold/lazyclaim/ERC721LazyClaim.sol\":13697:14587  function tokenURI(address creatorContractAddress, uint256 tokenId) external override view returns(string memory uri) {... */\n      swap3\n      swap2\n      pop\n      pop\n      jump\t// out\n        /* \"contracts/manifold/lazyclaim/ERC721LazyClaim.sol\":7743:8119  function checkMintIndices(address creatorContractAddress, uint256 claimIndex, uint32[] calldata mintIndices) external override view returns(bool[] memory minted) {... */\n    tag_71:\n        /* \"contracts/manifold/lazyclaim/ERC721LazyClaim.sol\":7883:7903  bool[] memory minted */\n      0x60\n        /* \"contracts/manifold/lazyclaim/ERC721LazyClaim.sol\":7935:7946  mintIndices */\n      dup2\n        /* \"contracts/manifold/lazyclaim/ERC721LazyClaim.sol\":7924:7954  new bool[](mintIndices.length) */\n      0xffffffffffffffff\n      dup2\n      gt\n      iszero\n      tag_344\n      jumpi\n      tag_344\n      tag_345\n      jump\t// in\n    tag_344:\n      mload(0x40)\n      swap1\n      dup1\n      dup3\n      mstore\n      dup1\n      0x20\n      mul\n      0x20\n      add\n      dup3\n      add\n      0x40\n      mstore\n      dup1\n      iszero\n      tag_346\n      jumpi\n      dup2\n      0x20\n      add\n      0x20\n      dup3\n      mul\n      dup1\n      calldatasize\n      dup4\n      calldatacopy\n      add\n      swap1\n      pop\n    tag_346:\n      pop\n        /* \"contracts/manifold/lazyclaim/ERC721LazyClaim.sol\":7915:7954  minted = new bool[](mintIndices.length) */\n      swap1\n      pop\n        /* \"contracts/manifold/lazyclaim/ERC721LazyClaim.sol\":7969:7975  uint i */\n      0x00\n        /* \"contracts/manifold/lazyclaim/ERC721LazyClaim.sol\":7964:8113  for (uint i = 0; i < mintIndices.length; i++) {... */\n    tag_347:\n        /* \"contracts/manifold/lazyclaim/ERC721LazyClaim.sol\":7981:8003  i < mintIndices.length */\n      dup3\n      dup2\n      lt\n        /* \"contracts/manifold/lazyclaim/ERC721LazyClaim.sol\":7964:8113  for (uint i = 0; i < mintIndices.length; i++) {... */\n      iszero\n      tag_348\n      jumpi\n        /* \"contracts/manifold/lazyclaim/ERC721LazyClaim.sol\":8036:8102  checkMintIndex(creatorContractAddress, claimIndex, mintIndices[i]) */\n      tag_350\n        /* \"contracts/manifold/lazyclaim/ERC721LazyClaim.sol\":8051:8073  creatorContractAddress */\n      dup7\n        /* \"contracts/manifold/lazyclaim/ERC721LazyClaim.sol\":8075:8085  claimIndex */\n      dup7\n        /* \"contracts/manifold/lazyclaim/ERC721LazyClaim.sol\":8087:8098  mintIndices */\n      dup7\n      dup7\n        /* \"contracts/manifold/lazyclaim/ERC721LazyClaim.sol\":8099:8100  i */\n      dup6\n        /* \"contracts/manifold/lazyclaim/ERC721LazyClaim.sol\":8087:8101  mintIndices[i] */\n      dup2\n      dup2\n      lt\n      tag_352\n      jumpi\n      tag_352\n      tag_232\n      jump\t// in\n    tag_352:\n      swap1\n      pop\n      0x20\n      mul\n      add\n      0x20\n      dup2\n      add\n      swap1\n      tag_54\n      swap2\n      swap1\n      tag_108\n      jump\t// in\n        /* \"contracts/manifold/lazyclaim/ERC721LazyClaim.sol\":8036:8102  checkMintIndex(creatorContractAddress, claimIndex, mintIndices[i]) */\n    tag_350:\n        /* \"contracts/manifold/lazyclaim/ERC721LazyClaim.sol\":8024:8030  minted */\n      dup3\n        /* \"contracts/manifold/lazyclaim/ERC721LazyClaim.sol\":8031:8032  i */\n      dup3\n        /* \"contracts/manifold/lazyclaim/ERC721LazyClaim.sol\":8024:8033  minted[i] */\n      dup2\n      mload\n      dup2\n      lt\n      tag_355\n      jumpi\n      tag_355\n      tag_232\n      jump\t// in\n    tag_355:\n        /* \"contracts/manifold/lazyclaim/ERC721LazyClaim.sol\":8024:8102  minted[i] = checkMintIndex(creatorContractAddress, claimIndex, mintIndices[i]) */\n      swap2\n      iszero\n      iszero\n        /* \"contracts/manifold/lazyclaim/ERC721LazyClaim.sol\":8024:8033  minted[i] */\n      0x20\n      swap3\n      dup4\n      mul\n      swap2\n      swap1\n      swap2\n      add\n      swap1\n      swap2\n      add\n        /* \"contracts/manifold/lazyclaim/ERC721LazyClaim.sol\":8024:8102  minted[i] = checkMintIndex(creatorContractAddress, claimIndex, mintIndices[i]) */\n      mstore\n        /* \"contracts/manifold/lazyclaim/ERC721LazyClaim.sol\":8005:8008  i++ */\n      dup1\n      tag_356\n      dup2\n      tag_357\n      jump\t// in\n    tag_356:\n      swap2\n      pop\n      pop\n        /* \"contracts/manifold/lazyclaim/ERC721LazyClaim.sol\":7964:8113  for (uint i = 0; i < mintIndices.length; i++) {... */\n      jump(tag_347)\n    tag_348:\n      pop\n        /* \"contracts/manifold/lazyclaim/ERC721LazyClaim.sol\":7743:8119  function checkMintIndices(address creatorContractAddress, uint256 claimIndex, uint32[] calldata mintIndices) external override view returns(bool[] memory minted) {... */\n      swap5\n      swap4\n      pop\n      pop\n      pop\n      pop\n      jump\t// out\n        /* \"contracts/manifold/lazyclaim/ERC721LazyClaim.sol\":12796:13626  function _checkMerkleAndUpdate(Claim storage claim, address creatorContractAddress, uint256 claimIndex, uint32 mintIndex, bytes32[] memory merkleProof) private {... */\n    tag_239:\n        /* \"contracts/manifold/lazyclaim/ERC721LazyClaim.sol\":13014:13053  abi.encodePacked(msg.sender, mintIndex) */\n      mload(0x40)\n      not(0xffffffffffffffffffffffff)\n        /* \"contracts/manifold/lazyclaim/ERC721LazyClaim.sol\":13031:13041  msg.sender */\n      caller\n        /* \"#utility.yul\":24167:24169   */\n      0x60\n        /* \"#utility.yul\":24163:24178   */\n      shl\n        /* \"#utility.yul\":24159:24212   */\n      and\n        /* \"contracts/manifold/lazyclaim/ERC721LazyClaim.sol\":13014:13053  abi.encodePacked(msg.sender, mintIndex) */\n      0x20\n      dup3\n      add\n        /* \"#utility.yul\":24147:24213   */\n      mstore\n      not(sub(shl(0xe0, 0x01), 0x01))\n        /* \"#utility.yul\":24251:24254   */\n      0xe0\n        /* \"#utility.yul\":24247:24263   */\n      dup5\n      swap1\n      shl\n        /* \"#utility.yul\":24243:24332   */\n      and\n        /* \"#utility.yul\":24229:24241   */\n      0x34\n      dup3\n      add\n        /* \"#utility.yul\":24222:24333   */\n      mstore\n        /* \"contracts/manifold/lazyclaim/ERC721LazyClaim.sol\":12989:13001  bytes32 leaf */\n      0x00\n      swap1\n        /* \"#utility.yul\":24349:24361   */\n      0x38\n      add\n        /* \"contracts/manifold/lazyclaim/ERC721LazyClaim.sol\":13014:13053  abi.encodePacked(msg.sender, mintIndex) */\n      mload(0x40)\n      0x20\n      dup2\n      dup4\n      sub\n      sub\n      dup2\n      mstore\n      swap1\n      0x40\n      mstore\n        /* \"contracts/manifold/lazyclaim/ERC721LazyClaim.sol\":13004:13054  keccak256(abi.encodePacked(msg.sender, mintIndex)) */\n      dup1\n      mload\n      swap1\n      0x20\n      add\n      keccak256\n        /* \"contracts/manifold/lazyclaim/ERC721LazyClaim.sol\":12989:13054  bytes32 leaf = keccak256(abi.encodePacked(msg.sender, mintIndex)) */\n      swap1\n      pop\n        /* \"contracts/manifold/lazyclaim/ERC721LazyClaim.sol\":13072:13127  MerkleProof.verify(merkleProof, claim.merkleRoot, leaf) */\n      tag_361\n        /* \"contracts/manifold/lazyclaim/ERC721LazyClaim.sol\":13091:13102  merkleProof */\n      dup3\n        /* \"contracts/manifold/lazyclaim/ERC721LazyClaim.sol\":13104:13109  claim */\n      dup8\n        /* \"contracts/manifold/lazyclaim/ERC721LazyClaim.sol\":13104:13120  claim.merkleRoot */\n      0x01\n      add\n      sload\n        /* \"contracts/manifold/lazyclaim/ERC721LazyClaim.sol\":13122:13126  leaf */\n      dup4\n        /* \"contracts/manifold/lazyclaim/ERC721LazyClaim.sol\":13072:13090  MerkleProof.verify */\n      tag_362\n        /* \"contracts/manifold/lazyclaim/ERC721LazyClaim.sol\":13072:13127  MerkleProof.verify(merkleProof, claim.merkleRoot, leaf) */\n      jump\t// in\n    tag_361:\n        /* \"contracts/manifold/lazyclaim/ERC721LazyClaim.sol\":13064:13161  require(MerkleProof.verify(merkleProof, claim.merkleRoot, leaf), \"Could not verify merkle proof\") */\n      tag_363\n      jumpi\n      mload(0x40)\n      shl(0xe5, 0x461bcd)\n      dup2\n      mstore\n        /* \"#utility.yul\":24574:24576   */\n      0x20\n        /* \"contracts/manifold/lazyclaim/ERC721LazyClaim.sol\":13064:13161  require(MerkleProof.verify(merkleProof, claim.merkleRoot, leaf), \"Could not verify merkle proof\") */\n      0x04\n      dup3\n      add\n        /* \"#utility.yul\":24556:24577   */\n      mstore\n        /* \"#utility.yul\":24613:24615   */\n      0x1d\n        /* \"#utility.yul\":24593:24611   */\n      0x24\n      dup3\n      add\n        /* \"#utility.yul\":24586:24616   */\n      mstore\n        /* \"#utility.yul\":24652:24683   */\n      0x436f756c64206e6f7420766572696679206d65726b6c652070726f6f66000000\n        /* \"#utility.yul\":24632:24650   */\n      0x44\n      dup3\n      add\n        /* \"#utility.yul\":24625:24684   */\n      mstore\n        /* \"#utility.yul\":24701:24719   */\n      0x64\n      add\n        /* \"contracts/manifold/lazyclaim/ERC721LazyClaim.sol\":13064:13161  require(MerkleProof.verify(merkleProof, claim.merkleRoot, leaf), \"Could not verify merkle proof\") */\n      tag_85\n        /* \"#utility.yul\":24372:24725   */\n      jump\n        /* \"contracts/manifold/lazyclaim/ERC721LazyClaim.sol\":13064:13161  require(MerkleProof.verify(merkleProof, claim.merkleRoot, leaf), \"Could not verify merkle proof\") */\n    tag_363:\n      sub(shl(0xa0, 0x01), 0x01)\n        /* \"contracts/manifold/lazyclaim/ERC721LazyClaim.sol\":13295:13336  _claimMintIndices[creatorContractAddress] */\n      dup6\n      and\n        /* \"contracts/manifold/lazyclaim/ERC721LazyClaim.sol\":13218:13240  uint256 claimMintIndex */\n      0x00\n        /* \"contracts/manifold/lazyclaim/ERC721LazyClaim.sol\":13295:13336  _claimMintIndices[creatorContractAddress] */\n      swap1\n      dup2\n      mstore\n        /* \"contracts/manifold/lazyclaim/ERC721LazyClaim.sol\":13295:13312  _claimMintIndices */\n      0x04\n        /* \"contracts/manifold/lazyclaim/ERC721LazyClaim.sol\":13295:13336  _claimMintIndices[creatorContractAddress] */\n      0x20\n      swap1\n      dup2\n      mstore\n      0x40\n      dup1\n      dup4\n      keccak256\n        /* \"contracts/manifold/lazyclaim/ERC721LazyClaim.sol\":13295:13348  _claimMintIndices[creatorContractAddress][claimIndex] */\n      dup8\n      dup5\n      mstore\n      dup3\n      mstore\n      dup1\n      dup4\n      keccak256\n        /* \"contracts/manifold/lazyclaim/ERC721LazyClaim.sol\":13243:13257  mintIndex >> 8 */\n      0xffffff\n        /* \"contracts/manifold/lazyclaim/ERC721LazyClaim.sol\":13256:13257  8 */\n      0x08\n        /* \"contracts/manifold/lazyclaim/ERC721LazyClaim.sol\":13243:13257  mintIndex >> 8 */\n      dup9\n      swap1\n      shr\n      and\n        /* \"contracts/manifold/lazyclaim/ERC721LazyClaim.sol\":13295:13364  _claimMintIndices[creatorContractAddress][claimIndex][claimMintIndex] */\n      dup1\n      dup6\n      mstore\n      swap3\n      mstore\n      swap1\n      swap2\n      keccak256\n      sload\n        /* \"contracts/manifold/lazyclaim/ERC721LazyClaim.sol\":13396:13397  1 */\n      0x01\n        /* \"contracts/manifold/lazyclaim/ERC721LazyClaim.sol\":1007:1011  0xFF */\n      0xff\n        /* \"contracts/manifold/lazyclaim/ERC721LazyClaim.sol\":13402:13432  mintIndex & MINT_INDEX_BITMASK */\n      dup7\n      and\n        /* \"contracts/manifold/lazyclaim/ERC721LazyClaim.sol\":13396:13433  1 << (mintIndex & MINT_INDEX_BITMASK) */\n      shl\n        /* \"contracts/manifold/lazyclaim/ERC721LazyClaim.sol\":13451:13482  mintBitmask & claimMintTracking */\n      dup1\n      dup3\n      and\n        /* \"contracts/manifold/lazyclaim/ERC721LazyClaim.sol\":13451:13487  mintBitmask & claimMintTracking == 0 */\n      iszero\n        /* \"contracts/manifold/lazyclaim/ERC721LazyClaim.sol\":13443:13506  require(mintBitmask & claimMintTracking == 0, \"Already minted\") */\n      tag_366\n      jumpi\n      mload(0x40)\n      shl(0xe5, 0x461bcd)\n      dup2\n      mstore\n        /* \"#utility.yul\":24932:24934   */\n      0x20\n        /* \"contracts/manifold/lazyclaim/ERC721LazyClaim.sol\":13443:13506  require(mintBitmask & claimMintTracking == 0, \"Already minted\") */\n      0x04\n      dup3\n      add\n        /* \"#utility.yul\":24914:24935   */\n      mstore\n        /* \"#utility.yul\":24971:24973   */\n      0x0e\n        /* \"#utility.yul\":24951:24969   */\n      0x24\n      dup3\n      add\n        /* \"#utility.yul\":24944:24974   */\n      mstore\n        /* \"#utility.yul\":25010:25026   */\n      0x416c7265616479206d696e746564000000000000000000000000000000000000\n        /* \"#utility.yul\":24990:25008   */\n      0x44\n      dup3\n      add\n        /* \"#utility.yul\":24983:25027   */\n      mstore\n        /* \"#utility.yul\":25044:25062   */\n      0x64\n      add\n        /* \"contracts/manifold/lazyclaim/ERC721LazyClaim.sol\":13443:13506  require(mintBitmask & claimMintTracking == 0, \"Already minted\") */\n      tag_85\n        /* \"#utility.yul\":24730:25068   */\n      jump\n        /* \"contracts/manifold/lazyclaim/ERC721LazyClaim.sol\":13443:13506  require(mintBitmask & claimMintTracking == 0, \"Already minted\") */\n    tag_366:\n      sub(shl(0xa0, 0x01), 0x01)\n        /* \"contracts/manifold/lazyclaim/ERC721LazyClaim.sol\":13516:13557  _claimMintIndices[creatorContractAddress] */\n      swap1\n      swap8\n      and\n      0x00\n      swap1\n      dup2\n      mstore\n        /* \"contracts/manifold/lazyclaim/ERC721LazyClaim.sol\":13516:13533  _claimMintIndices */\n      0x04\n        /* \"contracts/manifold/lazyclaim/ERC721LazyClaim.sol\":13516:13557  _claimMintIndices[creatorContractAddress] */\n      0x20\n      swap1\n      dup2\n      mstore\n      0x40\n      dup1\n      dup4\n      keccak256\n        /* \"contracts/manifold/lazyclaim/ERC721LazyClaim.sol\":13516:13569  _claimMintIndices[creatorContractAddress][claimIndex] */\n      swap9\n      dup4\n      mstore\n      swap8\n      dup2\n      mstore\n      dup8\n      dup3\n      keccak256\n        /* \"contracts/manifold/lazyclaim/ERC721LazyClaim.sol\":13516:13585  _claimMintIndices[creatorContractAddress][claimIndex][claimMintIndex] */\n      swap4\n      dup3\n      mstore\n      swap3\n      swap1\n      swap3\n      mstore\n      swap5\n      swap1\n      keccak256\n        /* \"contracts/manifold/lazyclaim/ERC721LazyClaim.sol\":13588:13619  claimMintTracking | mintBitmask */\n      swap4\n      swap1\n      swap5\n      or\n        /* \"contracts/manifold/lazyclaim/ERC721LazyClaim.sol\":13516:13619  _claimMintIndices[creatorContractAddress][claimIndex][claimMintIndex] = claimMintTracking | mintBitmask */\n      swap1\n      swap3\n      sstore\n      pop\n      pop\n      pop\n      pop\n        /* \"contracts/manifold/lazyclaim/ERC721LazyClaim.sol\":12796:13626  function _checkMerkleAndUpdate(Claim storage claim, address creatorContractAddress, uint256 claimIndex, uint32 mintIndex, bytes32[] memory merkleProof) private {... */\n      jump\t// out\n        /* \"@openzeppelin/contracts/utils/Strings.sol\":328:1031  function toString(uint256 value) internal pure returns (string memory) {... */\n    tag_339:\n        /* \"@openzeppelin/contracts/utils/Strings.sol\":384:397  string memory */\n      0x60\n        /* \"@openzeppelin/contracts/utils/Strings.sol\":601:606  value */\n      dup2\n        /* \"@openzeppelin/contracts/utils/Strings.sol\":610:611  0 */\n      0x00\n        /* \"@openzeppelin/contracts/utils/Strings.sol\":601:611  value == 0 */\n      sub\n        /* \"@openzeppelin/contracts/utils/Strings.sol\":597:648  if (value == 0) {... */\n      tag_370\n      jumpi\n      pop\n      pop\n        /* \"@openzeppelin/contracts/utils/Strings.sol\":627:637  return \"0\" */\n      0x40\n      dup1\n      mload\n      dup1\n      dup3\n      add\n      swap1\n      swap2\n      mstore\n      0x01\n      dup2\n      mstore\n      0x3000000000000000000000000000000000000000000000000000000000000000\n      0x20\n      dup3\n      add\n      mstore\n      swap1\n        /* \"@openzeppelin/contracts/utils/Strings.sol\":328:1031  function toString(uint256 value) internal pure returns (string memory) {... */\n      jump\t// out\n        /* \"@openzeppelin/contracts/utils/Strings.sol\":597:648  if (value == 0) {... */\n    tag_370:\n        /* \"@openzeppelin/contracts/utils/Strings.sol\":672:677  value */\n      dup2\n        /* \"@openzeppelin/contracts/utils/Strings.sol\":657:669  uint256 temp */\n      0x00\n        /* \"@openzeppelin/contracts/utils/Strings.sol\":711:786  while (temp != 0) {... */\n    tag_371:\n        /* \"@openzeppelin/contracts/utils/Strings.sol\":718:727  temp != 0 */\n      dup2\n      iszero\n        /* \"@openzeppelin/contracts/utils/Strings.sol\":711:786  while (temp != 0) {... */\n      tag_372\n      jumpi\n        /* \"@openzeppelin/contracts/utils/Strings.sol\":743:751  digits++ */\n      dup1\n      tag_373\n      dup2\n      tag_357\n      jump\t// in\n    tag_373:\n      swap2\n      pop\n        /* \"@openzeppelin/contracts/utils/Strings.sol\":765:775  temp /= 10 */\n      tag_374\n      swap1\n      pop\n        /* \"@openzeppelin/contracts/utils/Strings.sol\":773:775  10 */\n      0x0a\n        /* \"@openzeppelin/contracts/utils/Strings.sol\":765:775  temp /= 10 */\n      dup4\n      tag_375\n      jump\t// in\n    tag_374:\n      swap2\n      pop\n        /* \"@openzeppelin/contracts/utils/Strings.sol\":711:786  while (temp != 0) {... */\n      jump(tag_371)\n    tag_372:\n        /* \"@openzeppelin/contracts/utils/Strings.sol\":795:814  bytes memory buffer */\n      0x00\n        /* \"@openzeppelin/contracts/utils/Strings.sol\":827:833  digits */\n      dup2\n        /* \"@openzeppelin/contracts/utils/Strings.sol\":817:834  new bytes(digits) */\n      0xffffffffffffffff\n      dup2\n      gt\n      iszero\n      tag_377\n      jumpi\n      tag_377\n      tag_345\n      jump\t// in\n    tag_377:\n      mload(0x40)\n      swap1\n      dup1\n      dup3\n      mstore\n      dup1\n      0x1f\n      add\n      not(0x1f)\n      and\n      0x20\n      add\n      dup3\n      add\n      0x40\n      mstore\n      dup1\n      iszero\n      tag_378\n      jumpi\n      0x20\n      dup3\n      add\n      dup2\n      dup1\n      calldatasize\n      dup4\n      calldatacopy\n      add\n      swap1\n      pop\n    tag_378:\n      pop\n        /* \"@openzeppelin/contracts/utils/Strings.sol\":795:834  bytes memory buffer = new bytes(digits) */\n      swap1\n      pop\n        /* \"@openzeppelin/contracts/utils/Strings.sol\":844:994  while (value != 0) {... */\n    tag_379:\n        /* \"@openzeppelin/contracts/utils/Strings.sol\":851:861  value != 0 */\n      dup5\n      iszero\n        /* \"@openzeppelin/contracts/utils/Strings.sol\":844:994  while (value != 0) {... */\n      tag_380\n      jumpi\n        /* \"@openzeppelin/contracts/utils/Strings.sol\":877:888  digits -= 1 */\n      tag_381\n        /* \"@openzeppelin/contracts/utils/Strings.sol\":887:888  1 */\n      0x01\n        /* \"@openzeppelin/contracts/utils/Strings.sol\":877:888  digits -= 1 */\n      dup4\n      tag_382\n      jump\t// in\n    tag_381:\n      swap2\n      pop\n        /* \"@openzeppelin/contracts/utils/Strings.sol\":945:955  value % 10 */\n      tag_383\n        /* \"@openzeppelin/contracts/utils/Strings.sol\":953:955  10 */\n      0x0a\n        /* \"@openzeppelin/contracts/utils/Strings.sol\":945:950  value */\n      dup7\n        /* \"@openzeppelin/contracts/utils/Strings.sol\":945:955  value % 10 */\n      tag_384\n      jump\t// in\n    tag_383:\n        /* \"@openzeppelin/contracts/utils/Strings.sol\":932:956  48 + uint256(value % 10) */\n      tag_385\n      swap1\n        /* \"@openzeppelin/contracts/utils/Strings.sol\":932:934  48 */\n      0x30\n        /* \"@openzeppelin/contracts/utils/Strings.sol\":932:956  48 + uint256(value % 10) */\n      tag_243\n      jump\t// in\n    tag_385:\n        /* \"@openzeppelin/contracts/utils/Strings.sol\":919:958  bytes1(uint8(48 + uint256(value % 10))) */\n      0xf8\n      shl\n        /* \"@openzeppelin/contracts/utils/Strings.sol\":902:908  buffer */\n      dup2\n        /* \"@openzeppelin/contracts/utils/Strings.sol\":909:915  digits */\n      dup4\n        /* \"@openzeppelin/contracts/utils/Strings.sol\":902:916  buffer[digits] */\n      dup2\n      mload\n      dup2\n      lt\n      tag_387\n      jumpi\n      tag_387\n      tag_232\n      jump\t// in\n    tag_387:\n      0x20\n      add\n      add\n        /* \"@openzeppelin/contracts/utils/Strings.sol\":902:958  buffer[digits] = bytes1(uint8(48 + uint256(value % 10))) */\n      swap1\n      not(0xffffffffffffffffffffffffffffffffffffffffffffffffffffffffffffff)\n      and\n      swap1\n      dup2\n      0x00\n      byte\n      swap1\n      mstore8\n      pop\n        /* \"@openzeppelin/contracts/utils/Strings.sol\":972:983  value /= 10 */\n      tag_388\n        /* \"@openzeppelin/contracts/utils/Strings.sol\":981:983  10 */\n      0x0a\n        /* \"@openzeppelin/contracts/utils/Strings.sol\":972:983  value /= 10 */\n      dup7\n      tag_375\n      jump\t// in\n    tag_388:\n      swap5\n      pop\n        /* \"@openzeppelin/contracts/utils/Strings.sol\":844:994  while (value != 0) {... */\n      jump(tag_379)\n    tag_380:\n        /* \"@openzeppelin/contracts/utils/Strings.sol\":1017:1023  buffer */\n      swap5\n        /* \"@openzeppelin/contracts/utils/Strings.sol\":328:1031  function toString(uint256 value) internal pure returns (string memory) {... */\n      swap4\n      pop\n      pop\n      pop\n      pop\n      jump\t// out\n        /* \"@openzeppelin/contracts/utils/cryptography/MerkleProof.sol\":847:1031  function verify(... */\n    tag_362:\n        /* \"@openzeppelin/contracts/utils/cryptography/MerkleProof.sol\":968:972  bool */\n      0x00\n        /* \"@openzeppelin/contracts/utils/cryptography/MerkleProof.sol\":1020:1024  root */\n      dup3\n        /* \"@openzeppelin/contracts/utils/cryptography/MerkleProof.sol\":991:1016  processProof(proof, leaf) */\n      tag_390\n        /* \"@openzeppelin/contracts/utils/cryptography/MerkleProof.sol\":1004:1009  proof */\n      dup6\n        /* \"@openzeppelin/contracts/utils/cryptography/MerkleProof.sol\":1011:1015  leaf */\n      dup5\n        /* \"@openzeppelin/contracts/utils/cryptography/MerkleProof.sol\":991:1003  processProof */\n      tag_391\n        /* \"@openzeppelin/contracts/utils/cryptography/MerkleProof.sol\":991:1016  processProof(proof, leaf) */\n      jump\t// in\n    tag_390:\n        /* \"@openzeppelin/contracts/utils/cryptography/MerkleProof.sol\":991:1024  processProof(proof, leaf) == root */\n      eq\n      swap5\n        /* \"@openzeppelin/contracts/utils/cryptography/MerkleProof.sol\":847:1031  function verify(... */\n      swap4\n      pop\n      pop\n      pop\n      pop\n      jump\t// out\n        /* \"@openzeppelin/contracts/utils/cryptography/MerkleProof.sol\":1383:2071  function processProof(bytes32[] memory proof, bytes32 leaf) internal pure returns (bytes32) {... */\n    tag_391:\n        /* \"@openzeppelin/contracts/utils/cryptography/MerkleProof.sol\":1466:1473  bytes32 */\n      0x00\n        /* \"@openzeppelin/contracts/utils/cryptography/MerkleProof.sol\":1508:1512  leaf */\n      dup2\n        /* \"@openzeppelin/contracts/utils/cryptography/MerkleProof.sol\":1466:1473  bytes32 */\n      dup2\n        /* \"@openzeppelin/contracts/utils/cryptography/MerkleProof.sol\":1522:2036  for (uint256 i = 0; i < proof.length; i++) {... */\n    tag_393:\n        /* \"@openzeppelin/contracts/utils/cryptography/MerkleProof.sol\":1546:1551  proof */\n      dup5\n        /* \"@openzeppelin/contracts/utils/cryptography/MerkleProof.sol\":1546:1558  proof.length */\n      mload\n        /* \"@openzeppelin/contracts/utils/cryptography/MerkleProof.sol\":1542:1543  i */\n      dup2\n        /* \"@openzeppelin/contracts/utils/cryptography/MerkleProof.sol\":1542:1558  i < proof.length */\n      lt\n        /* \"@openzeppelin/contracts/utils/cryptography/MerkleProof.sol\":1522:2036  for (uint256 i = 0; i < proof.length; i++) {... */\n      iszero\n      tag_394\n      jumpi\n        /* \"@openzeppelin/contracts/utils/cryptography/MerkleProof.sol\":1579:1599  bytes32 proofElement */\n      0x00\n        /* \"@openzeppelin/contracts/utils/cryptography/MerkleProof.sol\":1602:1607  proof */\n      dup6\n        /* \"@openzeppelin/contracts/utils/cryptography/MerkleProof.sol\":1608:1609  i */\n      dup3\n        /* \"@openzeppelin/contracts/utils/cryptography/MerkleProof.sol\":1602:1610  proof[i] */\n      dup2\n      mload\n      dup2\n      lt\n      tag_397\n      jumpi\n      tag_397\n      tag_232\n      jump\t// in\n    tag_397:\n      0x20\n      mul\n      0x20\n      add\n      add\n      mload\n        /* \"@openzeppelin/contracts/utils/cryptography/MerkleProof.sol\":1579:1610  bytes32 proofElement = proof[i] */\n      swap1\n      pop\n        /* \"@openzeppelin/contracts/utils/cryptography/MerkleProof.sol\":1644:1656  proofElement */\n      dup1\n        /* \"@openzeppelin/contracts/utils/cryptography/MerkleProof.sol\":1628:1640  computedHash */\n      dup4\n        /* \"@openzeppelin/contracts/utils/cryptography/MerkleProof.sol\":1628:1656  computedHash <= proofElement */\n      gt\n        /* \"@openzeppelin/contracts/utils/cryptography/MerkleProof.sol\":1624:2026  if (computedHash <= proofElement) {... */\n      tag_398\n      jumpi\n        /* \"@openzeppelin/contracts/utils/cryptography/MerkleProof.sol\":1779:1823  abi.encodePacked(computedHash, proofElement) */\n      0x40\n      dup1\n      mload\n      0x20\n      dup2\n      add\n        /* \"#utility.yul\":25791:25810   */\n      dup6\n      swap1\n      mstore\n        /* \"#utility.yul\":25826:25838   */\n      swap1\n      dup2\n      add\n        /* \"#utility.yul\":25819:25847   */\n      dup3\n      swap1\n      mstore\n        /* \"#utility.yul\":25863:25875   */\n      0x60\n      add\n        /* \"@openzeppelin/contracts/utils/cryptography/MerkleProof.sol\":1779:1823  abi.encodePacked(computedHash, proofElement) */\n      mload(0x40)\n      0x20\n      dup2\n      dup4\n      sub\n      sub\n      dup2\n      mstore\n      swap1\n      0x40\n      mstore\n        /* \"@openzeppelin/contracts/utils/cryptography/MerkleProof.sol\":1769:1824  keccak256(abi.encodePacked(computedHash, proofElement)) */\n      dup1\n      mload\n      swap1\n      0x20\n      add\n      keccak256\n        /* \"@openzeppelin/contracts/utils/cryptography/MerkleProof.sol\":1754:1824  computedHash = keccak256(abi.encodePacked(computedHash, proofElement)) */\n      swap3\n      pop\n        /* \"@openzeppelin/contracts/utils/cryptography/MerkleProof.sol\":1624:2026  if (computedHash <= proofElement) {... */\n      jump(tag_401)\n    tag_398:\n        /* \"@openzeppelin/contracts/utils/cryptography/MerkleProof.sol\":1966:2010  abi.encodePacked(proofElement, computedHash) */\n      0x40\n      dup1\n      mload\n      0x20\n      dup2\n      add\n        /* \"#utility.yul\":25791:25810   */\n      dup4\n      swap1\n      mstore\n        /* \"#utility.yul\":25826:25838   */\n      swap1\n      dup2\n      add\n        /* \"#utility.yul\":25819:25847   */\n      dup5\n      swap1\n      mstore\n        /* \"#utility.yul\":25863:25875   */\n      0x60\n      add\n        /* \"@openzeppelin/contracts/utils/cryptography/MerkleProof.sol\":1966:2010  abi.encodePacked(proofElement, computedHash) */\n      mload(0x40)\n      0x20\n      dup2\n      dup4\n      sub\n      sub\n      dup2\n      mstore\n      swap1\n      0x40\n      mstore\n        /* \"@openzeppelin/contracts/utils/cryptography/MerkleProof.sol\":1956:2011  keccak256(abi.encodePacked(proofElement, computedHash)) */\n      dup1\n      mload\n      swap1\n      0x20\n      add\n      keccak256\n        /* \"@openzeppelin/contracts/utils/cryptography/MerkleProof.sol\":1941:2011  computedHash = keccak256(abi.encodePacked(proofElement, computedHash)) */\n      swap3\n      pop\n        /* \"@openzeppelin/contracts/utils/cryptography/MerkleProof.sol\":1624:2026  if (computedHash <= proofElement) {... */\n    tag_401:\n      pop\n        /* \"@openzeppelin/contracts/utils/cryptography/MerkleProof.sol\":1560:1563  i++ */\n      dup1\n      tag_403\n      dup2\n      tag_357\n      jump\t// in\n    tag_403:\n      swap2\n      pop\n      pop\n        /* \"@openzeppelin/contracts/utils/cryptography/MerkleProof.sol\":1522:2036  for (uint256 i = 0; i < proof.length; i++) {... */\n      jump(tag_393)\n    tag_394:\n      pop\n        /* \"@openzeppelin/contracts/utils/cryptography/MerkleProof.sol\":2052:2064  computedHash */\n      swap4\n        /* \"@openzeppelin/contracts/utils/cryptography/MerkleProof.sol\":1383:2071  function processProof(bytes32[] memory proof, bytes32 leaf) internal pure returns (bytes32) {... */\n      swap3\n      pop\n      pop\n      pop\n      jump\t// out\n    tag_128:\n      dup3\n      dup1\n      sload\n      tag_404\n      swap1\n      tag_145\n      jump\t// in\n    tag_404:\n      swap1\n      0x00\n      mstore\n      keccak256(0x00, 0x20)\n      swap1\n      0x1f\n      add\n      0x20\n      swap1\n      div\n      dup2\n      add\n      swap3\n      dup3\n      tag_406\n      jumpi\n      0x00\n      dup6\n      sstore\n      jump(tag_409)\n    tag_406:\n      dup3\n      0x1f\n      lt\n      tag_407\n      jumpi\n      dup1\n      mload\n      not(0xff)\n      and\n      dup4\n      dup1\n      add\n      or\n      dup6\n      sstore\n      jump(tag_409)\n    tag_407:\n      dup3\n      dup1\n      add\n      0x01\n      add\n      dup6\n      sstore\n      dup3\n      iszero\n      tag_409\n      jumpi\n      swap2\n      dup3\n      add\n    tag_408:\n      dup3\n      dup2\n      gt\n      iszero\n      tag_409\n      jumpi\n      dup3\n      mload\n      dup3\n      sstore\n      swap2\n      0x20\n      add\n      swap2\n      swap1\n      0x01\n      add\n      swap1\n      jump(tag_408)\n    tag_409:\n      pop\n      tag_410\n      swap3\n      swap2\n      pop\n      tag_411\n      jump\t// in\n    tag_410:\n      pop\n      swap1\n      jump\t// out\n    tag_411:\n    tag_414:\n      dup1\n      dup3\n      gt\n      iszero\n      tag_410\n      jumpi\n      0x00\n      dup2\n      sstore\n      0x01\n      add\n      jump(tag_414)\n        /* \"#utility.yul\":14:346   */\n    tag_19:\n        /* \"#utility.yul\":72:78   */\n      0x00\n        /* \"#utility.yul\":125:127   */\n      0x20\n        /* \"#utility.yul\":113:122   */\n      dup3\n        /* \"#utility.yul\":104:111   */\n      dup5\n        /* \"#utility.yul\":100:123   */\n      sub\n        /* \"#utility.yul\":96:128   */\n      slt\n        /* \"#utility.yul\":93:145   */\n      iszero\n      tag_431\n      jumpi\n        /* \"#utility.yul\":141:142   */\n      0x00\n        /* \"#utility.yul\":138:139   */\n      dup1\n        /* \"#utility.yul\":131:143   */\n      revert\n        /* \"#utility.yul\":93:145   */\n    tag_431:\n        /* \"#utility.yul\":180:189   */\n      dup2\n        /* \"#utility.yul\":167:190   */\n      calldataload\n      not(sub(shl(0xe0, 0x01), 0x01))\n        /* \"#utility.yul\":223:228   */\n      dup2\n        /* \"#utility.yul\":219:297   */\n      and\n        /* \"#utility.yul\":212:217   */\n      dup2\n        /* \"#utility.yul\":209:298   */\n      eq\n        /* \"#utility.yul\":199:316   */\n      tag_432\n      jumpi\n        /* \"#utility.yul\":312:313   */\n      0x00\n        /* \"#utility.yul\":309:310   */\n      dup1\n        /* \"#utility.yul\":302:314   */\n      revert\n        /* \"#utility.yul\":199:316   */\n    tag_432:\n        /* \"#utility.yul\":335:340   */\n      swap4\n        /* \"#utility.yul\":14:346   */\n      swap3\n      pop\n      pop\n      pop\n      jump\t// out\n        /* \"#utility.yul\":639:835   */\n    tag_417:\n        /* \"#utility.yul\":707:727   */\n      dup1\n      calldataload\n      sub(shl(0xa0, 0x01), 0x01)\n        /* \"#utility.yul\":756:810   */\n      dup2\n      and\n        /* \"#utility.yul\":746:811   */\n      dup2\n      eq\n        /* \"#utility.yul\":736:829   */\n      tag_436\n      jumpi\n        /* \"#utility.yul\":825:826   */\n      0x00\n        /* \"#utility.yul\":822:823   */\n      dup1\n        /* \"#utility.yul\":815:827   */\n      revert\n        /* \"#utility.yul\":736:829   */\n    tag_436:\n        /* \"#utility.yul\":639:835   */\n      swap2\n      swap1\n      pop\n      jump\t// out\n        /* \"#utility.yul\":840:1004   */\n    tag_418:\n        /* \"#utility.yul\":908:913   */\n      0x00\n        /* \"#utility.yul\":953:956   */\n      0x0100\n        /* \"#utility.yul\":944:950   */\n      dup3\n        /* \"#utility.yul\":939:942   */\n      dup5\n        /* \"#utility.yul\":935:951   */\n      sub\n        /* \"#utility.yul\":931:957   */\n      slt\n        /* \"#utility.yul\":928:974   */\n      iszero\n      tag_438\n      jumpi\n        /* \"#utility.yul\":970:971   */\n      0x00\n        /* \"#utility.yul\":967:968   */\n      dup1\n        /* \"#utility.yul\":960:972   */\n      revert\n        /* \"#utility.yul\":928:974   */\n    tag_438:\n      pop\n        /* \"#utility.yul\":992:998   */\n      swap2\n        /* \"#utility.yul\":840:1004   */\n      swap1\n      pop\n      jump\t// out\n        /* \"#utility.yul\":1009:1455   */\n    tag_25:\n        /* \"#utility.yul\":1112:1118   */\n      0x00\n        /* \"#utility.yul\":1120:1126   */\n      dup1\n        /* \"#utility.yul\":1173:1175   */\n      0x40\n        /* \"#utility.yul\":1161:1170   */\n      dup4\n        /* \"#utility.yul\":1152:1159   */\n      dup6\n        /* \"#utility.yul\":1148:1171   */\n      sub\n        /* \"#utility.yul\":1144:1176   */\n      slt\n        /* \"#utility.yul\":1141:1193   */\n      iszero\n      tag_440\n      jumpi\n        /* \"#utility.yul\":1189:1190   */\n      0x00\n        /* \"#utility.yul\":1186:1187   */\n      dup1\n        /* \"#utility.yul\":1179:1191   */\n      revert\n        /* \"#utility.yul\":1141:1193   */\n    tag_440:\n        /* \"#utility.yul\":1212:1241   */\n      tag_441\n        /* \"#utility.yul\":1231:1240   */\n      dup4\n        /* \"#utility.yul\":1212:1241   */\n      tag_417\n      jump\t// in\n    tag_441:\n        /* \"#utility.yul\":1202:1241   */\n      swap2\n      pop\n        /* \"#utility.yul\":1292:1294   */\n      0x20\n        /* \"#utility.yul\":1281:1290   */\n      dup4\n        /* \"#utility.yul\":1277:1295   */\n      add\n        /* \"#utility.yul\":1264:1296   */\n      calldataload\n        /* \"#utility.yul\":1319:1337   */\n      0xffffffffffffffff\n        /* \"#utility.yul\":1311:1317   */\n      dup2\n        /* \"#utility.yul\":1308:1338   */\n      gt\n        /* \"#utility.yul\":1305:1355   */\n      iszero\n      tag_442\n      jumpi\n        /* \"#utility.yul\":1351:1352   */\n      0x00\n        /* \"#utility.yul\":1348:1349   */\n      dup1\n        /* \"#utility.yul\":1341:1353   */\n      revert\n        /* \"#utility.yul\":1305:1355   */\n    tag_442:\n        /* \"#utility.yul\":1374:1449   */\n      tag_443\n        /* \"#utility.yul\":1441:1448   */\n      dup6\n        /* \"#utility.yul\":1432:1438   */\n      dup3\n        /* \"#utility.yul\":1421:1430   */\n      dup7\n        /* \"#utility.yul\":1417:1439   */\n      add\n        /* \"#utility.yul\":1374:1449   */\n      tag_418\n      jump\t// in\n    tag_443:\n        /* \"#utility.yul\":1364:1449   */\n      swap2\n      pop\n      pop\n        /* \"#utility.yul\":1009:1455   */\n      swap3\n      pop\n      swap3\n      swap1\n      pop\n      jump\t// out\n        /* \"#utility.yul\":1642:1896   */\n    tag_31:\n        /* \"#utility.yul\":1710:1716   */\n      0x00\n        /* \"#utility.yul\":1718:1724   */\n      dup1\n        /* \"#utility.yul\":1771:1773   */\n      0x40\n        /* \"#utility.yul\":1759:1768   */\n      dup4\n        /* \"#utility.yul\":1750:1757   */\n      dup6\n        /* \"#utility.yul\":1746:1769   */\n      sub\n        /* \"#utility.yul\":1742:1774   */\n      slt\n        /* \"#utility.yul\":1739:1791   */\n      iszero\n      tag_446\n      jumpi\n        /* \"#utility.yul\":1787:1788   */\n      0x00\n        /* \"#utility.yul\":1784:1785   */\n      dup1\n        /* \"#utility.yul\":1777:1789   */\n      revert\n        /* \"#utility.yul\":1739:1791   */\n    tag_446:\n        /* \"#utility.yul\":1810:1839   */\n      tag_447\n        /* \"#utility.yul\":1829:1838   */\n      dup4\n        /* \"#utility.yul\":1810:1839   */\n      tag_417\n      jump\t// in\n    tag_447:\n        /* \"#utility.yul\":1800:1839   */\n      swap5\n        /* \"#utility.yul\":1886:1888   */\n      0x20\n        /* \"#utility.yul\":1871:1889   */\n      swap4\n      swap1\n      swap4\n      add\n        /* \"#utility.yul\":1858:1890   */\n      calldataload\n      swap4\n      pop\n      pop\n      pop\n        /* \"#utility.yul\":1642:1896   */\n      jump\t// out\n        /* \"#utility.yul\":2103:2287   */\n    tag_90:\n      shl(0xe0, 0x4e487b71)\n        /* \"#utility.yul\":2152:2153   */\n      0x00\n        /* \"#utility.yul\":2145:2233   */\n      mstore\n        /* \"#utility.yul\":2252:2256   */\n      0x21\n        /* \"#utility.yul\":2249:2250   */\n      0x04\n        /* \"#utility.yul\":2242:2257   */\n      mstore\n        /* \"#utility.yul\":2276:2280   */\n      0x24\n        /* \"#utility.yul\":2273:2274   */\n      0x00\n        /* \"#utility.yul\":2266:2281   */\n      revert\n        /* \"#utility.yul\":2292:2592   */\n    tag_421:\n        /* \"#utility.yul\":2379:2380   */\n      0x04\n        /* \"#utility.yul\":2372:2377   */\n      dup2\n        /* \"#utility.yul\":2369:2381   */\n      lt\n        /* \"#utility.yul\":2359:2559   */\n      tag_452\n      jumpi\n      shl(0xe0, 0x4e487b71)\n        /* \"#utility.yul\":2412:2413   */\n      0x00\n        /* \"#utility.yul\":2405:2493   */\n      mstore\n        /* \"#utility.yul\":2516:2520   */\n      0x21\n        /* \"#utility.yul\":2513:2514   */\n      0x04\n        /* \"#utility.yul\":2506:2521   */\n      mstore\n        /* \"#utility.yul\":2544:2548   */\n      0x24\n        /* \"#utility.yul\":2541:2542   */\n      0x00\n        /* \"#utility.yul\":2534:2549   */\n      revert\n        /* \"#utility.yul\":2359:2559   */\n    tag_452:\n        /* \"#utility.yul\":2568:2586   */\n      swap1\n      mstore\n        /* \"#utility.yul\":2292:2592   */\n      jump\t// out\n        /* \"#utility.yul\":2597:2855   */\n    tag_422:\n        /* \"#utility.yul\":2669:2670   */\n      0x00\n        /* \"#utility.yul\":2679:2792   */\n    tag_454:\n        /* \"#utility.yul\":2693:2699   */\n      dup4\n        /* \"#utility.yul\":2690:2691   */\n      dup2\n        /* \"#utility.yul\":2687:2700   */\n      lt\n        /* \"#utility.yul\":2679:2792   */\n      iszero\n      tag_456\n      jumpi\n        /* \"#utility.yul\":2769:2780   */\n      dup2\n      dup2\n      add\n        /* \"#utility.yul\":2763:2781   */\n      mload\n        /* \"#utility.yul\":2750:2761   */\n      dup4\n      dup3\n      add\n        /* \"#utility.yul\":2743:2782   */\n      mstore\n        /* \"#utility.yul\":2715:2717   */\n      0x20\n        /* \"#utility.yul\":2708:2718   */\n      add\n        /* \"#utility.yul\":2679:2792   */\n      jump(tag_454)\n    tag_456:\n        /* \"#utility.yul\":2810:2816   */\n      dup4\n        /* \"#utility.yul\":2807:2808   */\n      dup2\n        /* \"#utility.yul\":2804:2817   */\n      gt\n        /* \"#utility.yul\":2801:2849   */\n      iszero\n      tag_457\n      jumpi\n        /* \"#utility.yul\":2845:2846   */\n      0x00\n        /* \"#utility.yul\":2836:2842   */\n      dup5\n        /* \"#utility.yul\":2831:2834   */\n      dup5\n        /* \"#utility.yul\":2827:2843   */\n      add\n        /* \"#utility.yul\":2820:2847   */\n      mstore\n        /* \"#utility.yul\":2801:2849   */\n    tag_457:\n      pop\n        /* \"#utility.yul\":2597:2855   */\n      pop\n      pop\n      pop\n      jump\t// out\n        /* \"#utility.yul\":2860:3118   */\n    tag_423:\n        /* \"#utility.yul\":2902:2905   */\n      0x00\n        /* \"#utility.yul\":2940:2945   */\n      dup2\n        /* \"#utility.yul\":2934:2946   */\n      mload\n        /* \"#utility.yul\":2967:2973   */\n      dup1\n        /* \"#utility.yul\":2962:2965   */\n      dup5\n        /* \"#utility.yul\":2955:2974   */\n      mstore\n        /* \"#utility.yul\":2983:3046   */\n      tag_459\n        /* \"#utility.yul\":3039:3045   */\n      dup2\n        /* \"#utility.yul\":3032:3036   */\n      0x20\n        /* \"#utility.yul\":3027:3030   */\n      dup7\n        /* \"#utility.yul\":3023:3037   */\n      add\n        /* \"#utility.yul\":3016:3020   */\n      0x20\n        /* \"#utility.yul\":3009:3014   */\n      dup7\n        /* \"#utility.yul\":3005:3021   */\n      add\n        /* \"#utility.yul\":2983:3046   */\n      tag_422\n      jump\t// in\n    tag_459:\n        /* \"#utility.yul\":3100:3102   */\n      0x1f\n        /* \"#utility.yul\":3079:3094   */\n      add\n      not(0x1f)\n        /* \"#utility.yul\":3075:3104   */\n      and\n        /* \"#utility.yul\":3066:3105   */\n      swap3\n      swap1\n      swap3\n      add\n        /* \"#utility.yul\":3107:3111   */\n      0x20\n        /* \"#utility.yul\":3062:3112   */\n      add\n      swap3\n        /* \"#utility.yul\":2860:3118   */\n      swap2\n      pop\n      pop\n      jump\t// out\n        /* \"#utility.yul\":3123:4364   */\n    tag_34:\n        /* \"#utility.yul\":3298:3300   */\n      0x20\n        /* \"#utility.yul\":3287:3296   */\n      dup2\n        /* \"#utility.yul\":3280:3301   */\n      mstore\n        /* \"#utility.yul\":3310:3362   */\n      tag_461\n        /* \"#utility.yul\":3358:3360   */\n      0x20\n        /* \"#utility.yul\":3347:3356   */\n      dup3\n        /* \"#utility.yul\":3343:3361   */\n      add\n        /* \"#utility.yul\":3334:3340   */\n      dup4\n        /* \"#utility.yul\":3328:3341   */\n      mload\n        /* \"#utility.yul\":1977:1987   */\n      0xffffffff\n        /* \"#utility.yul\":1966:1988   */\n      and\n        /* \"#utility.yul\":1954:1989   */\n      swap1\n      mstore\n        /* \"#utility.yul\":1901:1995   */\n      jump\n        /* \"#utility.yul\":3310:3362   */\n    tag_461:\n        /* \"#utility.yul\":3261:3265   */\n      0x00\n        /* \"#utility.yul\":3409:3411   */\n      0x20\n        /* \"#utility.yul\":3401:3407   */\n      dup4\n        /* \"#utility.yul\":3397:3412   */\n      add\n        /* \"#utility.yul\":3391:3413   */\n      mload\n        /* \"#utility.yul\":3422:3473   */\n      tag_462\n        /* \"#utility.yul\":3469:3471   */\n      0x40\n        /* \"#utility.yul\":3458:3467   */\n      dup5\n        /* \"#utility.yul\":3454:3472   */\n      add\n        /* \"#utility.yul\":3440:3452   */\n      dup3\n        /* \"#utility.yul\":1977:1987   */\n      0xffffffff\n        /* \"#utility.yul\":1966:1988   */\n      and\n        /* \"#utility.yul\":1954:1989   */\n      swap1\n      mstore\n        /* \"#utility.yul\":1901:1995   */\n      jump\n        /* \"#utility.yul\":3422:3473   */\n    tag_462:\n      pop\n        /* \"#utility.yul\":3522:3524   */\n      0x40\n        /* \"#utility.yul\":3510:3525   */\n      dup4\n      add\n        /* \"#utility.yul\":3504:3526   */\n      mload\n        /* \"#utility.yul\":1977:1987   */\n      0xffffffff\n        /* \"#utility.yul\":1966:1988   */\n      dup2\n      and\n        /* \"#utility.yul\":3584:3586   */\n      0x60\n        /* \"#utility.yul\":3569:3587   */\n      dup5\n      add\n        /* \"#utility.yul\":1954:1989   */\n      mstore\n      pop\n        /* \"#utility.yul\":3637:3639   */\n      0x60\n        /* \"#utility.yul\":3625:3640   */\n      dup4\n      add\n        /* \"#utility.yul\":3619:3641   */\n      mload\n        /* \"#utility.yul\":2076:2090   */\n      0xffffffffffff\n        /* \"#utility.yul\":2065:2091   */\n      dup2\n      and\n        /* \"#utility.yul\":3699:3702   */\n      0x80\n        /* \"#utility.yul\":3684:3703   */\n      dup5\n      add\n        /* \"#utility.yul\":2053:2092   */\n      mstore\n      pop\n        /* \"#utility.yul\":3753:3756   */\n      0x80\n        /* \"#utility.yul\":3741:3757   */\n      dup4\n      add\n        /* \"#utility.yul\":3735:3758   */\n      mload\n        /* \"#utility.yul\":2076:2090   */\n      0xffffffffffff\n        /* \"#utility.yul\":2065:2091   */\n      dup2\n      and\n        /* \"#utility.yul\":3816:3819   */\n      0xa0\n        /* \"#utility.yul\":3801:3820   */\n      dup5\n      add\n        /* \"#utility.yul\":2053:2092   */\n      mstore\n        /* \"#utility.yul\":3767:3821   */\n      pop\n        /* \"#utility.yul\":3870:3873   */\n      0xa0\n        /* \"#utility.yul\":3862:3868   */\n      dup4\n        /* \"#utility.yul\":3858:3874   */\n      add\n        /* \"#utility.yul\":3852:3875   */\n      mload\n        /* \"#utility.yul\":3884:3952   */\n      tag_466\n        /* \"#utility.yul\":3947:3950   */\n      0xc0\n        /* \"#utility.yul\":3936:3945   */\n      dup5\n        /* \"#utility.yul\":3932:3951   */\n      add\n        /* \"#utility.yul\":3916:3930   */\n      dup3\n        /* \"#utility.yul\":3884:3952   */\n      tag_421\n      jump\t// in\n    tag_466:\n      pop\n        /* \"#utility.yul\":4001:4004   */\n      0xc0\n        /* \"#utility.yul\":3989:4005   */\n      dup4\n      add\n        /* \"#utility.yul\":3983:4006   */\n      mload\n        /* \"#utility.yul\":421:434   */\n      dup1\n      iszero\n        /* \"#utility.yul\":414:435   */\n      iszero\n        /* \"#utility.yul\":4062:4065   */\n      0xe0\n        /* \"#utility.yul\":4047:4066   */\n      dup5\n      add\n        /* \"#utility.yul\":402:436   */\n      mstore\n      pop\n        /* \"#utility.yul\":4104:4107   */\n      0xe0\n        /* \"#utility.yul\":4092:4108   */\n      dup4\n      add\n        /* \"#utility.yul\":4086:4109   */\n      mload\n        /* \"#utility.yul\":4128:4131   */\n      0x0100\n        /* \"#utility.yul\":4147:4165   */\n      dup4\n      dup2\n      add\n        /* \"#utility.yul\":4140:4170   */\n      swap2\n      swap1\n      swap2\n      mstore\n        /* \"#utility.yul\":4207:4222   */\n      dup4\n      add\n        /* \"#utility.yul\":4201:4223   */\n      mload\n        /* \"#utility.yul\":4242:4248   */\n      0x0120\n        /* \"#utility.yul\":4264:4282   */\n      dup1\n      dup5\n      add\n        /* \"#utility.yul\":4257:4287   */\n      mstore\n        /* \"#utility.yul\":4304:4358   */\n      tag_380\n        /* \"#utility.yul\":4353:4356   */\n      0x0140\n        /* \"#utility.yul\":4338:4357   */\n      dup5\n      add\n        /* \"#utility.yul\":4201:4223   */\n      dup3\n        /* \"#utility.yul\":4304:4358   */\n      tag_423\n      jump\t// in\n        /* \"#utility.yul\":4369:4883   */\n    tag_37:\n        /* \"#utility.yul\":4481:4487   */\n      0x00\n        /* \"#utility.yul\":4489:4495   */\n      dup1\n        /* \"#utility.yul\":4497:4503   */\n      0x00\n        /* \"#utility.yul\":4550:4552   */\n      0x60\n        /* \"#utility.yul\":4538:4547   */\n      dup5\n        /* \"#utility.yul\":4529:4536   */\n      dup7\n        /* \"#utility.yul\":4525:4548   */\n      sub\n        /* \"#utility.yul\":4521:4553   */\n      slt\n        /* \"#utility.yul\":4518:4570   */\n      iszero\n      tag_470\n      jumpi\n        /* \"#utility.yul\":4566:4567   */\n      0x00\n        /* \"#utility.yul\":4563:4564   */\n      dup1\n        /* \"#utility.yul\":4556:4568   */\n      revert\n        /* \"#utility.yul\":4518:4570   */\n    tag_470:\n        /* \"#utility.yul\":4589:4618   */\n      tag_471\n        /* \"#utility.yul\":4608:4617   */\n      dup5\n        /* \"#utility.yul\":4589:4618   */\n      tag_417\n      jump\t// in\n    tag_471:\n        /* \"#utility.yul\":4579:4618   */\n      swap3\n      pop\n        /* \"#utility.yul\":4665:4667   */\n      0x20\n        /* \"#utility.yul\":4654:4663   */\n      dup5\n        /* \"#utility.yul\":4650:4668   */\n      add\n        /* \"#utility.yul\":4637:4669   */\n      calldataload\n        /* \"#utility.yul\":4627:4669   */\n      swap2\n      pop\n        /* \"#utility.yul\":4720:4722   */\n      0x40\n        /* \"#utility.yul\":4709:4718   */\n      dup5\n        /* \"#utility.yul\":4705:4723   */\n      add\n        /* \"#utility.yul\":4692:4724   */\n      calldataload\n        /* \"#utility.yul\":4747:4765   */\n      0xffffffffffffffff\n        /* \"#utility.yul\":4739:4745   */\n      dup2\n        /* \"#utility.yul\":4736:4766   */\n      gt\n        /* \"#utility.yul\":4733:4783   */\n      iszero\n      tag_472\n      jumpi\n        /* \"#utility.yul\":4779:4780   */\n      0x00\n        /* \"#utility.yul\":4776:4777   */\n      dup1\n        /* \"#utility.yul\":4769:4781   */\n      revert\n        /* \"#utility.yul\":4733:4783   */\n    tag_472:\n        /* \"#utility.yul\":4802:4877   */\n      tag_473\n        /* \"#utility.yul\":4869:4876   */\n      dup7\n        /* \"#utility.yul\":4860:4866   */\n      dup3\n        /* \"#utility.yul\":4849:4858   */\n      dup8\n        /* \"#utility.yul\":4845:4867   */\n      add\n        /* \"#utility.yul\":4802:4877   */\n      tag_418\n      jump\t// in\n    tag_473:\n        /* \"#utility.yul\":4792:4877   */\n      swap2\n      pop\n      pop\n        /* \"#utility.yul\":4369:4883   */\n      swap3\n      pop\n      swap3\n      pop\n      swap3\n      jump\t// out\n        /* \"#utility.yul\":4888:5254   */\n    tag_424:\n        /* \"#utility.yul\":4950:4958   */\n      0x00\n        /* \"#utility.yul\":4960:4966   */\n      dup1\n        /* \"#utility.yul\":5014:5017   */\n      dup4\n        /* \"#utility.yul\":5007:5011   */\n      0x1f\n        /* \"#utility.yul\":4999:5005   */\n      dup5\n        /* \"#utility.yul\":4995:5012   */\n      add\n        /* \"#utility.yul\":4991:5018   */\n      slt\n        /* \"#utility.yul\":4981:5036   */\n      tag_475\n      jumpi\n        /* \"#utility.yul\":5032:5033   */\n      0x00\n        /* \"#utility.yul\":5029:5030   */\n      dup1\n        /* \"#utility.yul\":5022:5034   */\n      revert\n        /* \"#utility.yul\":4981:5036   */\n    tag_475:\n      pop\n        /* \"#utility.yul\":5055:5075   */\n      dup2\n      calldataload\n        /* \"#utility.yul\":5098:5116   */\n      0xffffffffffffffff\n        /* \"#utility.yul\":5087:5117   */\n      dup2\n      gt\n        /* \"#utility.yul\":5084:5134   */\n      iszero\n      tag_476\n      jumpi\n        /* \"#utility.yul\":5130:5131   */\n      0x00\n        /* \"#utility.yul\":5127:5128   */\n      dup1\n        /* \"#utility.yul\":5120:5132   */\n      revert\n        /* \"#utility.yul\":5084:5134   */\n    tag_476:\n        /* \"#utility.yul\":5167:5171   */\n      0x20\n        /* \"#utility.yul\":5159:5165   */\n      dup4\n        /* \"#utility.yul\":5155:5172   */\n      add\n        /* \"#utility.yul\":5143:5172   */\n      swap2\n      pop\n        /* \"#utility.yul\":5227:5230   */\n      dup4\n        /* \"#utility.yul\":5220:5224   */\n      0x20\n        /* \"#utility.yul\":5210:5216   */\n      dup3\n        /* \"#utility.yul\":5207:5208   */\n      0x05\n        /* \"#utility.yul\":5203:5217   */\n      shl\n        /* \"#utility.yul\":5195:5201   */\n      dup6\n        /* \"#utility.yul\":5191:5218   */\n      add\n        /* \"#utility.yul\":5187:5225   */\n      add\n        /* \"#utility.yul\":5184:5231   */\n      gt\n        /* \"#utility.yul\":5181:5248   */\n      iszero\n      tag_477\n      jumpi\n        /* \"#utility.yul\":5244:5245   */\n      0x00\n        /* \"#utility.yul\":5241:5242   */\n      dup1\n        /* \"#utility.yul\":5234:5246   */\n      revert\n        /* \"#utility.yul\":5181:5248   */\n    tag_477:\n        /* \"#utility.yul\":4888:5254   */\n      swap3\n      pop\n      swap3\n      swap1\n      pop\n      jump\t// out\n        /* \"#utility.yul\":5259:6360   */\n    tag_41:\n        /* \"#utility.yul\":5433:5439   */\n      0x00\n        /* \"#utility.yul\":5441:5447   */\n      dup1\n        /* \"#utility.yul\":5449:5455   */\n      0x00\n        /* \"#utility.yul\":5457:5463   */\n      dup1\n        /* \"#utility.yul\":5465:5471   */\n      0x00\n        /* \"#utility.yul\":5473:5479   */\n      dup1\n        /* \"#utility.yul\":5481:5487   */\n      0x00\n        /* \"#utility.yul\":5534:5537   */\n      0xa0\n        /* \"#utility.yul\":5522:5531   */\n      dup9\n        /* \"#utility.yul\":5513:5520   */\n      dup11\n        /* \"#utility.yul\":5509:5532   */\n      sub\n        /* \"#utility.yul\":5505:5538   */\n      slt\n        /* \"#utility.yul\":5502:5555   */\n      iszero\n      tag_479\n      jumpi\n        /* \"#utility.yul\":5551:5552   */\n      0x00\n        /* \"#utility.yul\":5548:5549   */\n      dup1\n        /* \"#utility.yul\":5541:5553   */\n      revert\n        /* \"#utility.yul\":5502:5555   */\n    tag_479:\n        /* \"#utility.yul\":5574:5603   */\n      tag_480\n        /* \"#utility.yul\":5593:5602   */\n      dup9\n        /* \"#utility.yul\":5574:5603   */\n      tag_417\n      jump\t// in\n    tag_480:\n        /* \"#utility.yul\":5564:5603   */\n      swap7\n      pop\n        /* \"#utility.yul\":5650:5652   */\n      0x20\n        /* \"#utility.yul\":5639:5648   */\n      dup9\n        /* \"#utility.yul\":5635:5653   */\n      add\n        /* \"#utility.yul\":5622:5654   */\n      calldataload\n        /* \"#utility.yul\":5612:5654   */\n      swap6\n      pop\n        /* \"#utility.yul\":5704:5706   */\n      0x40\n        /* \"#utility.yul\":5693:5702   */\n      dup9\n        /* \"#utility.yul\":5689:5707   */\n      add\n        /* \"#utility.yul\":5676:5708   */\n      calldataload\n        /* \"#utility.yul\":5748:5754   */\n      0xffff\n        /* \"#utility.yul\":5741:5746   */\n      dup2\n        /* \"#utility.yul\":5737:5755   */\n      and\n        /* \"#utility.yul\":5730:5735   */\n      dup2\n        /* \"#utility.yul\":5727:5756   */\n      eq\n        /* \"#utility.yul\":5717:5774   */\n      tag_481\n      jumpi\n        /* \"#utility.yul\":5770:5771   */\n      0x00\n        /* \"#utility.yul\":5767:5768   */\n      dup1\n        /* \"#utility.yul\":5760:5772   */\n      revert\n        /* \"#utility.yul\":5717:5774   */\n    tag_481:\n        /* \"#utility.yul\":5793:5798   */\n      swap5\n      pop\n        /* \"#utility.yul\":5849:5851   */\n      0x60\n        /* \"#utility.yul\":5834:5852   */\n      dup9\n      add\n        /* \"#utility.yul\":5821:5853   */\n      calldataload\n        /* \"#utility.yul\":5872:5890   */\n      0xffffffffffffffff\n        /* \"#utility.yul\":5902:5916   */\n      dup1\n      dup3\n      gt\n        /* \"#utility.yul\":5899:5933   */\n      iszero\n      tag_482\n      jumpi\n        /* \"#utility.yul\":5929:5930   */\n      0x00\n        /* \"#utility.yul\":5926:5927   */\n      dup1\n        /* \"#utility.yul\":5919:5931   */\n      revert\n        /* \"#utility.yul\":5899:5933   */\n    tag_482:\n        /* \"#utility.yul\":5968:6037   */\n      tag_483\n        /* \"#utility.yul\":6029:6036   */\n      dup12\n        /* \"#utility.yul\":6020:6026   */\n      dup4\n        /* \"#utility.yul\":6009:6018   */\n      dup13\n        /* \"#utility.yul\":6005:6027   */\n      add\n        /* \"#utility.yul\":5968:6037   */\n      tag_424\n      jump\t// in\n    tag_483:\n        /* \"#utility.yul\":6056:6064   */\n      swap1\n      swap7\n      pop\n        /* \"#utility.yul\":5942:6037   */\n      swap5\n      pop\n        /* \"#utility.yul\":6144:6147   */\n      0x80\n        /* \"#utility.yul\":6129:6148   */\n      dup11\n      add\n        /* \"#utility.yul\":6116:6149   */\n      calldataload\n      swap2\n      pop\n        /* \"#utility.yul\":6161:6177   */\n      dup1\n      dup3\n      gt\n        /* \"#utility.yul\":6158:6194   */\n      iszero\n      tag_484\n      jumpi\n        /* \"#utility.yul\":6190:6191   */\n      0x00\n        /* \"#utility.yul\":6187:6188   */\n      dup1\n        /* \"#utility.yul\":6180:6192   */\n      revert\n        /* \"#utility.yul\":6158:6194   */\n    tag_484:\n      pop\n        /* \"#utility.yul\":6229:6300   */\n      tag_485\n        /* \"#utility.yul\":6292:6299   */\n      dup11\n        /* \"#utility.yul\":6281:6289   */\n      dup3\n        /* \"#utility.yul\":6270:6279   */\n      dup12\n        /* \"#utility.yul\":6266:6290   */\n      add\n        /* \"#utility.yul\":6229:6300   */\n      tag_424\n      jump\t// in\n    tag_485:\n        /* \"#utility.yul\":5259:6360   */\n      swap9\n      swap12\n      swap8\n      swap11\n      pop\n      swap6\n      swap9\n      pop\n      swap4\n      swap7\n      swap3\n      swap6\n        /* \"#utility.yul\":6203:6300   */\n      swap3\n      swap4\n      pop\n      pop\n      pop\n        /* \"#utility.yul\":5259:6360   */\n      jump\t// out\n        /* \"#utility.yul\":6365:6693   */\n    tag_45:\n        /* \"#utility.yul\":6442:6448   */\n      0x00\n        /* \"#utility.yul\":6450:6456   */\n      dup1\n        /* \"#utility.yul\":6458:6464   */\n      0x00\n        /* \"#utility.yul\":6511:6513   */\n      0x60\n        /* \"#utility.yul\":6499:6508   */\n      dup5\n        /* \"#utility.yul\":6490:6497   */\n      dup7\n        /* \"#utility.yul\":6486:6509   */\n      sub\n        /* \"#utility.yul\":6482:6514   */\n      slt\n        /* \"#utility.yul\":6479:6531   */\n      iszero\n      tag_487\n      jumpi\n        /* \"#utility.yul\":6527:6528   */\n      0x00\n        /* \"#utility.yul\":6524:6525   */\n      dup1\n        /* \"#utility.yul\":6517:6529   */\n      revert\n        /* \"#utility.yul\":6479:6531   */\n    tag_487:\n        /* \"#utility.yul\":6550:6579   */\n      tag_488\n        /* \"#utility.yul\":6569:6578   */\n      dup5\n        /* \"#utility.yul\":6550:6579   */\n      tag_417\n      jump\t// in\n    tag_488:\n        /* \"#utility.yul\":6540:6579   */\n      swap3\n      pop\n        /* \"#utility.yul\":6598:6636   */\n      tag_489\n        /* \"#utility.yul\":6632:6634   */\n      0x20\n        /* \"#utility.yul\":6621:6630   */\n      dup6\n        /* \"#utility.yul\":6617:6635   */\n      add\n        /* \"#utility.yul\":6598:6636   */\n      tag_417\n      jump\t// in\n    tag_489:\n        /* \"#utility.yul\":6588:6636   */\n      swap2\n      pop\n        /* \"#utility.yul\":6683:6685   */\n      0x40\n        /* \"#utility.yul\":6672:6681   */\n      dup5\n        /* \"#utility.yul\":6668:6686   */\n      add\n        /* \"#utility.yul\":6655:6687   */\n      calldataload\n        /* \"#utility.yul\":6645:6687   */\n      swap1\n      pop\n        /* \"#utility.yul\":6365:6693   */\n      swap3\n      pop\n      swap3\n      pop\n      swap3\n      jump\t// out\n        /* \"#utility.yul\":6895:7058   */\n    tag_425:\n        /* \"#utility.yul\":6962:6982   */\n      dup1\n      calldataload\n        /* \"#utility.yul\":7022:7032   */\n      0xffffffff\n        /* \"#utility.yul\":7011:7033   */\n      dup2\n      and\n        /* \"#utility.yul\":7001:7034   */\n      dup2\n      eq\n        /* \"#utility.yul\":6991:7052   */\n      tag_436\n      jumpi\n        /* \"#utility.yul\":7048:7049   */\n      0x00\n        /* \"#utility.yul\":7045:7046   */\n      dup1\n        /* \"#utility.yul\":7038:7050   */\n      revert\n        /* \"#utility.yul\":7063:7714   */\n    tag_51:\n        /* \"#utility.yul\":7175:7181   */\n      0x00\n        /* \"#utility.yul\":7183:7189   */\n      dup1\n        /* \"#utility.yul\":7191:7197   */\n      0x00\n        /* \"#utility.yul\":7199:7205   */\n      dup1\n        /* \"#utility.yul\":7207:7213   */\n      0x00\n        /* \"#utility.yul\":7260:7263   */\n      0x80\n        /* \"#utility.yul\":7248:7257   */\n      dup7\n        /* \"#utility.yul\":7239:7246   */\n      dup9\n        /* \"#utility.yul\":7235:7258   */\n      sub\n        /* \"#utility.yul\":7231:7264   */\n      slt\n        /* \"#utility.yul\":7228:7281   */\n      iszero\n      tag_494\n      jumpi\n        /* \"#utility.yul\":7277:7278   */\n      0x00\n        /* \"#utility.yul\":7274:7275   */\n      dup1\n        /* \"#utility.yul\":7267:7279   */\n      revert\n        /* \"#utility.yul\":7228:7281   */\n    tag_494:\n        /* \"#utility.yul\":7300:7329   */\n      tag_495\n        /* \"#utility.yul\":7319:7328   */\n      dup7\n        /* \"#utility.yul\":7300:7329   */\n      tag_417\n      jump\t// in\n    tag_495:\n        /* \"#utility.yul\":7290:7329   */\n      swap5\n      pop\n        /* \"#utility.yul\":7376:7378   */\n      0x20\n        /* \"#utility.yul\":7365:7374   */\n      dup7\n        /* \"#utility.yul\":7361:7379   */\n      add\n        /* \"#utility.yul\":7348:7380   */\n      calldataload\n        /* \"#utility.yul\":7338:7380   */\n      swap4\n      pop\n        /* \"#utility.yul\":7399:7436   */\n      tag_496\n        /* \"#utility.yul\":7432:7434   */\n      0x40\n        /* \"#utility.yul\":7421:7430   */\n      dup8\n        /* \"#utility.yul\":7417:7435   */\n      add\n        /* \"#utility.yul\":7399:7436   */\n      tag_425\n      jump\t// in\n    tag_496:\n        /* \"#utility.yul\":7389:7436   */\n      swap3\n      pop\n        /* \"#utility.yul\":7487:7489   */\n      0x60\n        /* \"#utility.yul\":7476:7485   */\n      dup7\n        /* \"#utility.yul\":7472:7490   */\n      add\n        /* \"#utility.yul\":7459:7491   */\n      calldataload\n        /* \"#utility.yul\":7514:7532   */\n      0xffffffffffffffff\n        /* \"#utility.yul\":7506:7512   */\n      dup2\n        /* \"#utility.yul\":7503:7533   */\n      gt\n        /* \"#utility.yul\":7500:7550   */\n      iszero\n      tag_497\n      jumpi\n        /* \"#utility.yul\":7546:7547   */\n      0x00\n        /* \"#utility.yul\":7543:7544   */\n      dup1\n        /* \"#utility.yul\":7536:7548   */\n      revert\n        /* \"#utility.yul\":7500:7550   */\n    tag_497:\n        /* \"#utility.yul\":7585:7654   */\n      tag_498\n        /* \"#utility.yul\":7646:7653   */\n      dup9\n        /* \"#utility.yul\":7637:7643   */\n      dup3\n        /* \"#utility.yul\":7626:7635   */\n      dup10\n        /* \"#utility.yul\":7622:7644   */\n      add\n        /* \"#utility.yul\":7585:7654   */\n      tag_424\n      jump\t// in\n    tag_498:\n        /* \"#utility.yul\":7063:7714   */\n      swap7\n      swap10\n      swap6\n      swap9\n      pop\n      swap4\n      swap7\n      pop\n        /* \"#utility.yul\":7673:7681   */\n      swap3\n      swap5\n        /* \"#utility.yul\":7559:7654   */\n      swap4\n        /* \"#utility.yul\":7063:7714   */\n      swap3\n      pop\n      pop\n      pop\n      jump\t// out\n        /* \"#utility.yul\":7719:8045   */\n    tag_55:\n        /* \"#utility.yul\":7795:7801   */\n      0x00\n        /* \"#utility.yul\":7803:7809   */\n      dup1\n        /* \"#utility.yul\":7811:7817   */\n      0x00\n        /* \"#utility.yul\":7864:7866   */\n      0x60\n        /* \"#utility.yul\":7852:7861   */\n      dup5\n        /* \"#utility.yul\":7843:7850   */\n      dup7\n        /* \"#utility.yul\":7839:7862   */\n      sub\n        /* \"#utility.yul\":7835:7867   */\n      slt\n        /* \"#utility.yul\":7832:7884   */\n      iszero\n      tag_500\n      jumpi\n        /* \"#utility.yul\":7880:7881   */\n      0x00\n        /* \"#utility.yul\":7877:7878   */\n      dup1\n        /* \"#utility.yul\":7870:7882   */\n      revert\n        /* \"#utility.yul\":7832:7884   */\n    tag_500:\n        /* \"#utility.yul\":7903:7932   */\n      tag_501\n        /* \"#utility.yul\":7922:7931   */\n      dup5\n        /* \"#utility.yul\":7903:7932   */\n      tag_417\n      jump\t// in\n    tag_501:\n        /* \"#utility.yul\":7893:7932   */\n      swap3\n      pop\n        /* \"#utility.yul\":7979:7981   */\n      0x20\n        /* \"#utility.yul\":7968:7977   */\n      dup5\n        /* \"#utility.yul\":7964:7982   */\n      add\n        /* \"#utility.yul\":7951:7983   */\n      calldataload\n        /* \"#utility.yul\":7941:7983   */\n      swap2\n      pop\n        /* \"#utility.yul\":8002:8039   */\n      tag_502\n        /* \"#utility.yul\":8035:8037   */\n      0x40\n        /* \"#utility.yul\":8024:8033   */\n      dup6\n        /* \"#utility.yul\":8020:8038   */\n      add\n        /* \"#utility.yul\":8002:8039   */\n      tag_425\n      jump\t// in\n    tag_502:\n        /* \"#utility.yul\":7992:8039   */\n      swap1\n      pop\n        /* \"#utility.yul\":7719:8045   */\n      swap3\n      pop\n      swap3\n      pop\n      swap3\n      jump\t// out\n        /* \"#utility.yul\":8050:8236   */\n    tag_60:\n        /* \"#utility.yul\":8109:8115   */\n      0x00\n        /* \"#utility.yul\":8162:8164   */\n      0x20\n        /* \"#utility.yul\":8150:8159   */\n      dup3\n        /* \"#utility.yul\":8141:8148   */\n      dup5\n        /* \"#utility.yul\":8137:8160   */\n      sub\n        /* \"#utility.yul\":8133:8165   */\n      slt\n        /* \"#utility.yul\":8130:8182   */\n      iszero\n      tag_504\n      jumpi\n        /* \"#utility.yul\":8178:8179   */\n      0x00\n        /* \"#utility.yul\":8175:8176   */\n      dup1\n        /* \"#utility.yul\":8168:8180   */\n      revert\n        /* \"#utility.yul\":8130:8182   */\n    tag_504:\n        /* \"#utility.yul\":8201:8230   */\n      tag_432\n        /* \"#utility.yul\":8220:8229   */\n      dup3\n        /* \"#utility.yul\":8201:8230   */\n      tag_417\n      jump\t// in\n        /* \"#utility.yul\":8241:8461   */\n    tag_67:\n        /* \"#utility.yul\":8390:8392   */\n      0x20\n        /* \"#utility.yul\":8379:8388   */\n      dup2\n        /* \"#utility.yul\":8372:8393   */\n      mstore\n        /* \"#utility.yul\":8353:8357   */\n      0x00\n        /* \"#utility.yul\":8410:8455   */\n      tag_432\n        /* \"#utility.yul\":8451:8453   */\n      0x20\n        /* \"#utility.yul\":8440:8449   */\n      dup4\n        /* \"#utility.yul\":8436:8454   */\n      add\n        /* \"#utility.yul\":8428:8434   */\n      dup5\n        /* \"#utility.yul\":8410:8455   */\n      tag_423\n      jump\t// in\n        /* \"#utility.yul\":8466:9043   */\n    tag_70:\n        /* \"#utility.yul\":8569:8575   */\n      0x00\n        /* \"#utility.yul\":8577:8583   */\n      dup1\n        /* \"#utility.yul\":8585:8591   */\n      0x00\n        /* \"#utility.yul\":8593:8599   */\n      dup1\n        /* \"#utility.yul\":8646:8648   */\n      0x60\n        /* \"#utility.yul\":8634:8643   */\n      dup6\n        /* \"#utility.yul\":8625:8632   */\n      dup8\n        /* \"#utility.yul\":8621:8644   */\n      sub\n        /* \"#utility.yul\":8617:8649   */\n      slt\n        /* \"#utility.yul\":8614:8666   */\n      iszero\n      tag_509\n      jumpi\n        /* \"#utility.yul\":8662:8663   */\n      0x00\n        /* \"#utility.yul\":8659:8660   */\n      dup1\n        /* \"#utility.yul\":8652:8664   */\n      revert\n        /* \"#utility.yul\":8614:8666   */\n    tag_509:\n        /* \"#utility.yul\":8685:8714   */\n      tag_510\n        /* \"#utility.yul\":8704:8713   */\n      dup6\n        /* \"#utility.yul\":8685:8714   */\n      tag_417\n      jump\t// in\n    tag_510:\n        /* \"#utility.yul\":8675:8714   */\n      swap4\n      pop\n        /* \"#utility.yul\":8761:8763   */\n      0x20\n        /* \"#utility.yul\":8750:8759   */\n      dup6\n        /* \"#utility.yul\":8746:8764   */\n      add\n        /* \"#utility.yul\":8733:8765   */\n      calldataload\n        /* \"#utility.yul\":8723:8765   */\n      swap3\n      pop\n        /* \"#utility.yul\":8816:8818   */\n      0x40\n        /* \"#utility.yul\":8805:8814   */\n      dup6\n        /* \"#utility.yul\":8801:8819   */\n      add\n        /* \"#utility.yul\":8788:8820   */\n      calldataload\n        /* \"#utility.yul\":8843:8861   */\n      0xffffffffffffffff\n        /* \"#utility.yul\":8835:8841   */\n      dup2\n        /* \"#utility.yul\":8832:8862   */\n      gt\n        /* \"#utility.yul\":8829:8879   */\n      iszero\n      tag_511\n      jumpi\n        /* \"#utility.yul\":8875:8876   */\n      0x00\n        /* \"#utility.yul\":8872:8873   */\n      dup1\n        /* \"#utility.yul\":8865:8877   */\n      revert\n        /* \"#utility.yul\":8829:8879   */\n    tag_511:\n        /* \"#utility.yul\":8914:8983   */\n      tag_512\n        /* \"#utility.yul\":8975:8982   */\n      dup8\n        /* \"#utility.yul\":8966:8972   */\n      dup3\n        /* \"#utility.yul\":8955:8964   */\n      dup9\n        /* \"#utility.yul\":8951:8973   */\n      add\n        /* \"#utility.yul\":8914:8983   */\n      tag_424\n      jump\t// in\n    tag_512:\n        /* \"#utility.yul\":8466:9043   */\n      swap6\n      swap9\n      swap5\n      swap8\n      pop\n        /* \"#utility.yul\":9002:9010   */\n      swap6\n      pop\n      pop\n      pop\n      pop\n        /* \"#utility.yul\":8466:9043   */\n      jump\t// out\n        /* \"#utility.yul\":9048:9690   */\n    tag_73:\n        /* \"#utility.yul\":9213:9215   */\n      0x20\n        /* \"#utility.yul\":9265:9286   */\n      dup1\n      dup3\n      mstore\n        /* \"#utility.yul\":9335:9348   */\n      dup3\n      mload\n        /* \"#utility.yul\":9238:9256   */\n      dup3\n      dup3\n      add\n        /* \"#utility.yul\":9357:9379   */\n      dup2\n      swap1\n      mstore\n        /* \"#utility.yul\":9184:9188   */\n      0x00\n      swap2\n        /* \"#utility.yul\":9213:9215   */\n      swap1\n        /* \"#utility.yul\":9436:9451   */\n      dup5\n      dup3\n      add\n      swap1\n        /* \"#utility.yul\":9410:9412   */\n      0x40\n        /* \"#utility.yul\":9395:9413   */\n      dup6\n      add\n      swap1\n        /* \"#utility.yul\":9184:9188   */\n      dup5\n        /* \"#utility.yul\":9479:9664   */\n    tag_514:\n        /* \"#utility.yul\":9493:9499   */\n      dup2\n        /* \"#utility.yul\":9490:9491   */\n      dup2\n        /* \"#utility.yul\":9487:9500   */\n      lt\n        /* \"#utility.yul\":9479:9664   */\n      iszero\n      tag_516\n      jumpi\n        /* \"#utility.yul\":9568:9581   */\n      dup4\n      mload\n        /* \"#utility.yul\":9561:9582   */\n      iszero\n        /* \"#utility.yul\":9554:9583   */\n      iszero\n        /* \"#utility.yul\":9542:9584   */\n      dup4\n      mstore\n        /* \"#utility.yul\":9639:9654   */\n      swap3\n      dup5\n      add\n      swap3\n        /* \"#utility.yul\":9604:9616   */\n      swap2\n      dup5\n      add\n      swap2\n        /* \"#utility.yul\":9515:9516   */\n      0x01\n        /* \"#utility.yul\":9508:9517   */\n      add\n        /* \"#utility.yul\":9479:9664   */\n      jump(tag_514)\n    tag_516:\n      pop\n        /* \"#utility.yul\":9681:9684   */\n      swap1\n      swap7\n        /* \"#utility.yul\":9048:9690   */\n      swap6\n      pop\n      pop\n      pop\n      pop\n      pop\n      pop\n      jump\t// out\n        /* \"#utility.yul\":9926:10044   */\n    tag_426:\n        /* \"#utility.yul\":10012:10017   */\n      dup1\n        /* \"#utility.yul\":10005:10018   */\n      iszero\n        /* \"#utility.yul\":9998:10019   */\n      iszero\n        /* \"#utility.yul\":9991:9996   */\n      dup2\n        /* \"#utility.yul\":9988:10020   */\n      eq\n        /* \"#utility.yul\":9978:10038   */\n      tag_519\n      jumpi\n        /* \"#utility.yul\":10034:10035   */\n      0x00\n        /* \"#utility.yul\":10031:10032   */\n      dup1\n        /* \"#utility.yul\":10024:10036   */\n      revert\n        /* \"#utility.yul\":9978:10038   */\n    tag_519:\n        /* \"#utility.yul\":9926:10044   */\n      pop\n      jump\t// out\n        /* \"#utility.yul\":10049:10294   */\n    tag_83:\n        /* \"#utility.yul\":10116:10122   */\n      0x00\n        /* \"#utility.yul\":10169:10171   */\n      0x20\n        /* \"#utility.yul\":10157:10166   */\n      dup3\n        /* \"#utility.yul\":10148:10155   */\n      dup5\n        /* \"#utility.yul\":10144:10167   */\n      sub\n        /* \"#utility.yul\":10140:10172   */\n      slt\n        /* \"#utility.yul\":10137:10189   */\n      iszero\n      tag_521\n      jumpi\n        /* \"#utility.yul\":10185:10186   */\n      0x00\n        /* \"#utility.yul\":10182:10183   */\n      dup1\n        /* \"#utility.yul\":10175:10187   */\n      revert\n        /* \"#utility.yul\":10137:10189   */\n    tag_521:\n        /* \"#utility.yul\":10217:10226   */\n      dup2\n        /* \"#utility.yul\":10211:10227   */\n      mload\n        /* \"#utility.yul\":10236:10264   */\n      tag_432\n        /* \"#utility.yul\":10258:10263   */\n      dup2\n        /* \"#utility.yul\":10236:10264   */\n      tag_426\n      jump\t// in\n        /* \"#utility.yul\":10711:10987   */\n    tag_92:\n        /* \"#utility.yul\":10790:10796   */\n      0x00\n        /* \"#utility.yul\":10843:10845   */\n      0x20\n        /* \"#utility.yul\":10831:10840   */\n      dup3\n        /* \"#utility.yul\":10822:10829   */\n      dup5\n        /* \"#utility.yul\":10818:10841   */\n      sub\n        /* \"#utility.yul\":10814:10846   */\n      slt\n        /* \"#utility.yul\":10811:10863   */\n      iszero\n      tag_525\n      jumpi\n        /* \"#utility.yul\":10859:10860   */\n      0x00\n        /* \"#utility.yul\":10856:10857   */\n      dup1\n        /* \"#utility.yul\":10849:10861   */\n      revert\n        /* \"#utility.yul\":10811:10863   */\n    tag_525:\n        /* \"#utility.yul\":10898:10907   */\n      dup2\n        /* \"#utility.yul\":10885:10908   */\n      calldataload\n        /* \"#utility.yul\":10937:10938   */\n      0x04\n        /* \"#utility.yul\":10930:10935   */\n      dup2\n        /* \"#utility.yul\":10927:10939   */\n      lt\n        /* \"#utility.yul\":10917:10957   */\n      tag_432\n      jumpi\n        /* \"#utility.yul\":10953:10954   */\n      0x00\n        /* \"#utility.yul\":10950:10951   */\n      dup1\n        /* \"#utility.yul\":10943:10955   */\n      revert\n        /* \"#utility.yul\":11408:11688   */\n    tag_99:\n        /* \"#utility.yul\":11466:11472   */\n      0x00\n        /* \"#utility.yul\":11519:11521   */\n      0x20\n        /* \"#utility.yul\":11507:11516   */\n      dup3\n        /* \"#utility.yul\":11498:11505   */\n      dup5\n        /* \"#utility.yul\":11494:11517   */\n      sub\n        /* \"#utility.yul\":11490:11522   */\n      slt\n        /* \"#utility.yul\":11487:11539   */\n      iszero\n      tag_529\n      jumpi\n        /* \"#utility.yul\":11535:11536   */\n      0x00\n        /* \"#utility.yul\":11532:11533   */\n      dup1\n        /* \"#utility.yul\":11525:11537   */\n      revert\n        /* \"#utility.yul\":11487:11539   */\n    tag_529:\n        /* \"#utility.yul\":11574:11583   */\n      dup2\n        /* \"#utility.yul\":11561:11584   */\n      calldataload\n        /* \"#utility.yul\":11624:11638   */\n      0xffffffffffff\n        /* \"#utility.yul\":11617:11622   */\n      dup2\n        /* \"#utility.yul\":11613:11639   */\n      and\n        /* \"#utility.yul\":11606:11611   */\n      dup2\n        /* \"#utility.yul\":11603:11640   */\n      eq\n        /* \"#utility.yul\":11593:11658   */\n      tag_432\n      jumpi\n        /* \"#utility.yul\":11654:11655   */\n      0x00\n        /* \"#utility.yul\":11651:11652   */\n      dup1\n        /* \"#utility.yul\":11644:11656   */\n      revert\n        /* \"#utility.yul\":12116:12300   */\n    tag_108:\n        /* \"#utility.yul\":12174:12180   */\n      0x00\n        /* \"#utility.yul\":12227:12229   */\n      0x20\n        /* \"#utility.yul\":12215:12224   */\n      dup3\n        /* \"#utility.yul\":12206:12213   */\n      dup5\n        /* \"#utility.yul\":12202:12225   */\n      sub\n        /* \"#utility.yul\":12198:12230   */\n      slt\n        /* \"#utility.yul\":12195:12247   */\n      iszero\n      tag_533\n      jumpi\n        /* \"#utility.yul\":12243:12244   */\n      0x00\n        /* \"#utility.yul\":12240:12241   */\n      dup1\n        /* \"#utility.yul\":12233:12245   */\n      revert\n        /* \"#utility.yul\":12195:12247   */\n    tag_533:\n        /* \"#utility.yul\":12266:12294   */\n      tag_432\n        /* \"#utility.yul\":12284:12293   */\n      dup3\n        /* \"#utility.yul\":12266:12294   */\n      tag_425\n      jump\t// in\n        /* \"#utility.yul\":12723:12907   */\n    tag_427:\n      shl(0xe0, 0x4e487b71)\n        /* \"#utility.yul\":12772:12773   */\n      0x00\n        /* \"#utility.yul\":12765:12853   */\n      mstore\n        /* \"#utility.yul\":12872:12876   */\n      0x11\n        /* \"#utility.yul\":12869:12870   */\n      0x04\n        /* \"#utility.yul\":12862:12877   */\n      mstore\n        /* \"#utility.yul\":12896:12900   */\n      0x24\n        /* \"#utility.yul\":12893:12894   */\n      0x00\n        /* \"#utility.yul\":12886:12901   */\n      revert\n        /* \"#utility.yul\":12912:13162   */\n    tag_113:\n        /* \"#utility.yul\":12951:12954   */\n      0x00\n      sub(shl(0xe0, 0x01), 0x01)\n        /* \"#utility.yul\":13072:13074   */\n      dup1\n        /* \"#utility.yul\":13065:13070   */\n      dup4\n        /* \"#utility.yul\":13061:13075   */\n      and\n        /* \"#utility.yul\":13099:13101   */\n      dup2\n        /* \"#utility.yul\":13090:13097   */\n      dup2\n        /* \"#utility.yul\":13087:13102   */\n      sub\n        /* \"#utility.yul\":13084:13125   */\n      tag_539\n      jumpi\n        /* \"#utility.yul\":13105:13123   */\n      tag_539\n      tag_427\n      jump\t// in\n    tag_539:\n        /* \"#utility.yul\":13154:13155   */\n      0x01\n        /* \"#utility.yul\":13141:13156   */\n      add\n      swap4\n        /* \"#utility.yul\":12912:13162   */\n      swap3\n      pop\n      pop\n      pop\n      jump\t// out\n        /* \"#utility.yul\":13167:13408   */\n    tag_122:\n        /* \"#utility.yul\":13223:13229   */\n      0x00\n        /* \"#utility.yul\":13276:13278   */\n      0x20\n        /* \"#utility.yul\":13264:13273   */\n      dup3\n        /* \"#utility.yul\":13255:13262   */\n      dup5\n        /* \"#utility.yul\":13251:13274   */\n      sub\n        /* \"#utility.yul\":13247:13279   */\n      slt\n        /* \"#utility.yul\":13244:13296   */\n      iszero\n      tag_541\n      jumpi\n        /* \"#utility.yul\":13292:13293   */\n      0x00\n        /* \"#utility.yul\":13289:13290   */\n      dup1\n        /* \"#utility.yul\":13282:13294   */\n      revert\n        /* \"#utility.yul\":13244:13296   */\n    tag_541:\n        /* \"#utility.yul\":13331:13340   */\n      dup2\n        /* \"#utility.yul\":13318:13341   */\n      calldataload\n        /* \"#utility.yul\":13350:13378   */\n      tag_432\n        /* \"#utility.yul\":13372:13377   */\n      dup2\n        /* \"#utility.yul\":13350:13378   */\n      tag_426\n      jump\t// in\n        /* \"#utility.yul\":13413:13935   */\n    tag_124:\n        /* \"#utility.yul\":13491:13495   */\n      0x00\n        /* \"#utility.yul\":13497:13503   */\n      dup1\n        /* \"#utility.yul\":13557:13568   */\n      dup4\n        /* \"#utility.yul\":13544:13569   */\n      calldataload\n        /* \"#utility.yul\":13651:13653   */\n      0x1e\n        /* \"#utility.yul\":13647:13654   */\n      not\n        /* \"#utility.yul\":13636:13644   */\n      dup5\n        /* \"#utility.yul\":13620:13634   */\n      calldatasize\n        /* \"#utility.yul\":13616:13645   */\n      sub\n        /* \"#utility.yul\":13612:13655   */\n      add\n        /* \"#utility.yul\":13592:13610   */\n      dup2\n        /* \"#utility.yul\":13588:13656   */\n      slt\n        /* \"#utility.yul\":13578:13674   */\n      tag_544\n      jumpi\n        /* \"#utility.yul\":13670:13671   */\n      0x00\n        /* \"#utility.yul\":13667:13668   */\n      dup1\n        /* \"#utility.yul\":13660:13672   */\n      revert\n        /* \"#utility.yul\":13578:13674   */\n    tag_544:\n        /* \"#utility.yul\":13697:13730   */\n      dup4\n      add\n        /* \"#utility.yul\":13749:13769   */\n      dup1\n      calldataload\n      swap2\n      pop\n        /* \"#utility.yul\":13792:13810   */\n      0xffffffffffffffff\n        /* \"#utility.yul\":13781:13811   */\n      dup3\n      gt\n        /* \"#utility.yul\":13778:13828   */\n      iszero\n      tag_545\n      jumpi\n        /* \"#utility.yul\":13824:13825   */\n      0x00\n        /* \"#utility.yul\":13821:13822   */\n      dup1\n        /* \"#utility.yul\":13814:13826   */\n      revert\n        /* \"#utility.yul\":13778:13828   */\n    tag_545:\n        /* \"#utility.yul\":13857:13861   */\n      0x20\n        /* \"#utility.yul\":13845:13862   */\n      add\n      swap2\n      pop\n        /* \"#utility.yul\":13888:13902   */\n      calldatasize\n        /* \"#utility.yul\":13884:13911   */\n      dup2\n      swap1\n      sub\n        /* \"#utility.yul\":13874:13912   */\n      dup3\n      sgt\n        /* \"#utility.yul\":13871:13929   */\n      iszero\n      tag_477\n      jumpi\n        /* \"#utility.yul\":13925:13926   */\n      0x00\n        /* \"#utility.yul\":13922:13923   */\n      dup1\n        /* \"#utility.yul\":13915:13927   */\n      revert\n        /* \"#utility.yul\":14290:14727   */\n    tag_145:\n        /* \"#utility.yul\":14369:14370   */\n      0x01\n        /* \"#utility.yul\":14365:14377   */\n      dup2\n      dup2\n      shr\n      swap1\n        /* \"#utility.yul\":14412:14424   */\n      dup3\n      and\n      dup1\n        /* \"#utility.yul\":14433:14494   */\n      tag_549\n      jumpi\n        /* \"#utility.yul\":14487:14491   */\n      0x7f\n        /* \"#utility.yul\":14479:14485   */\n      dup3\n        /* \"#utility.yul\":14475:14492   */\n      and\n        /* \"#utility.yul\":14465:14492   */\n      swap2\n      pop\n        /* \"#utility.yul\":14433:14494   */\n    tag_549:\n        /* \"#utility.yul\":14540:14542   */\n      0x20\n        /* \"#utility.yul\":14532:14538   */\n      dup3\n        /* \"#utility.yul\":14529:14543   */\n      lt\n        /* \"#utility.yul\":14509:14527   */\n      dup2\n        /* \"#utility.yul\":14506:14544   */\n      sub\n        /* \"#utility.yul\":14503:14721   */\n      tag_438\n      jumpi\n      shl(0xe0, 0x4e487b71)\n        /* \"#utility.yul\":14574:14575   */\n      0x00\n        /* \"#utility.yul\":14567:14655   */\n      mstore\n        /* \"#utility.yul\":14678:14682   */\n      0x22\n        /* \"#utility.yul\":14675:14676   */\n      0x04\n        /* \"#utility.yul\":14668:14683   */\n      mstore\n        /* \"#utility.yul\":14706:14710   */\n      0x24\n        /* \"#utility.yul\":14703:14704   */\n      0x00\n        /* \"#utility.yul\":14696:14711   */\n      revert\n        /* \"#utility.yul\":16556:16784   */\n    tag_217:\n        /* \"#utility.yul\":16595:16598   */\n      0x00\n        /* \"#utility.yul\":16623:16633   */\n      0xffffffff\n        /* \"#utility.yul\":16660:16662   */\n      dup1\n        /* \"#utility.yul\":16657:16658   */\n      dup4\n        /* \"#utility.yul\":16653:16663   */\n      and\n        /* \"#utility.yul\":16690:16692   */\n      dup2\n        /* \"#utility.yul\":16687:16688   */\n      dup6\n        /* \"#utility.yul\":16683:16693   */\n      and\n        /* \"#utility.yul\":16721:16724   */\n      dup1\n        /* \"#utility.yul\":16717:16719   */\n      dup4\n        /* \"#utility.yul\":16713:16725   */\n      sub\n        /* \"#utility.yul\":16708:16711   */\n      dup3\n        /* \"#utility.yul\":16705:16726   */\n      gt\n        /* \"#utility.yul\":16702:16749   */\n      iszero\n      tag_558\n      jumpi\n        /* \"#utility.yul\":16729:16747   */\n      tag_558\n      tag_427\n      jump\t// in\n    tag_558:\n        /* \"#utility.yul\":16765:16778   */\n      add\n      swap5\n        /* \"#utility.yul\":16556:16784   */\n      swap4\n      pop\n      pop\n      pop\n      pop\n      jump\t// out\n        /* \"#utility.yul\":17533:17717   */\n    tag_232:\n      shl(0xe0, 0x4e487b71)\n        /* \"#utility.yul\":17582:17583   */\n      0x00\n        /* \"#utility.yul\":17575:17663   */\n      mstore\n        /* \"#utility.yul\":17682:17686   */\n      0x32\n        /* \"#utility.yul\":17679:17680   */\n      0x04\n        /* \"#utility.yul\":17672:17687   */\n      mstore\n        /* \"#utility.yul\":17706:17710   */\n      0x24\n        /* \"#utility.yul\":17703:17704   */\n      0x00\n        /* \"#utility.yul\":17696:17711   */\n      revert\n        /* \"#utility.yul\":17722:18267   */\n    tag_237:\n        /* \"#utility.yul\":17815:17819   */\n      0x00\n        /* \"#utility.yul\":17821:17827   */\n      dup1\n        /* \"#utility.yul\":17881:17892   */\n      dup4\n        /* \"#utility.yul\":17868:17893   */\n      calldataload\n        /* \"#utility.yul\":17975:17977   */\n      0x1e\n        /* \"#utility.yul\":17971:17978   */\n      not\n        /* \"#utility.yul\":17960:17968   */\n      dup5\n        /* \"#utility.yul\":17944:17958   */\n      calldatasize\n        /* \"#utility.yul\":17940:17969   */\n      sub\n        /* \"#utility.yul\":17936:17979   */\n      add\n        /* \"#utility.yul\":17916:17934   */\n      dup2\n        /* \"#utility.yul\":17912:17980   */\n      slt\n        /* \"#utility.yul\":17902:17998   */\n      tag_563\n      jumpi\n        /* \"#utility.yul\":17994:17995   */\n      0x00\n        /* \"#utility.yul\":17991:17992   */\n      dup1\n        /* \"#utility.yul\":17984:17996   */\n      revert\n        /* \"#utility.yul\":17902:17998   */\n    tag_563:\n        /* \"#utility.yul\":18021:18054   */\n      dup4\n      add\n        /* \"#utility.yul\":18073:18093   */\n      dup1\n      calldataload\n      swap2\n      pop\n        /* \"#utility.yul\":18116:18134   */\n      0xffffffffffffffff\n        /* \"#utility.yul\":18105:18135   */\n      dup3\n      gt\n        /* \"#utility.yul\":18102:18152   */\n      iszero\n      tag_564\n      jumpi\n        /* \"#utility.yul\":18148:18149   */\n      0x00\n        /* \"#utility.yul\":18145:18146   */\n      dup1\n        /* \"#utility.yul\":18138:18150   */\n      revert\n        /* \"#utility.yul\":18102:18152   */\n    tag_564:\n        /* \"#utility.yul\":18181:18185   */\n      0x20\n        /* \"#utility.yul\":18169:18186   */\n      add\n      swap2\n      pop\n        /* \"#utility.yul\":18232:18233   */\n      0x05\n        /* \"#utility.yul\":18228:18242   */\n      dup2\n      swap1\n      shl\n        /* \"#utility.yul\":18212:18226   */\n      calldatasize\n        /* \"#utility.yul\":18208:18243   */\n      sub\n        /* \"#utility.yul\":18198:18244   */\n      dup3\n      sgt\n        /* \"#utility.yul\":18195:18261   */\n      iszero\n      tag_477\n      jumpi\n        /* \"#utility.yul\":18257:18258   */\n      0x00\n        /* \"#utility.yul\":18254:18255   */\n      dup1\n        /* \"#utility.yul\":18247:18259   */\n      revert\n        /* \"#utility.yul\":18272:18400   */\n    tag_243:\n        /* \"#utility.yul\":18312:18315   */\n      0x00\n        /* \"#utility.yul\":18343:18344   */\n      dup3\n        /* \"#utility.yul\":18339:18345   */\n      not\n        /* \"#utility.yul\":18336:18337   */\n      dup3\n        /* \"#utility.yul\":18333:18346   */\n      gt\n        /* \"#utility.yul\":18330:18369   */\n      iszero\n      tag_568\n      jumpi\n        /* \"#utility.yul\":18349:18367   */\n      tag_568\n      tag_427\n      jump\t// in\n    tag_568:\n      pop\n        /* \"#utility.yul\":18385:18394   */\n      add\n      swap1\n        /* \"#utility.yul\":18272:18400   */\n      jump\t// out\n        /* \"#utility.yul\":19121:19305   */\n    tag_345:\n      shl(0xe0, 0x4e487b71)\n        /* \"#utility.yul\":19170:19171   */\n      0x00\n        /* \"#utility.yul\":19163:19251   */\n      mstore\n        /* \"#utility.yul\":19270:19274   */\n      0x41\n        /* \"#utility.yul\":19267:19268   */\n      0x04\n        /* \"#utility.yul\":19260:19275   */\n      mstore\n        /* \"#utility.yul\":19294:19298   */\n      0x24\n        /* \"#utility.yul\":19291:19292   */\n      0x00\n        /* \"#utility.yul\":19284:19299   */\n      revert\n        /* \"#utility.yul\":19310:20415   */\n    tag_252:\n        /* \"#utility.yul\":19405:19411   */\n      0x00\n        /* \"#utility.yul\":19436:19438   */\n      0x20\n        /* \"#utility.yul\":19479:19481   */\n      dup1\n        /* \"#utility.yul\":19467:19476   */\n      dup4\n        /* \"#utility.yul\":19458:19465   */\n      dup6\n        /* \"#utility.yul\":19454:19477   */\n      sub\n        /* \"#utility.yul\":19450:19482   */\n      slt\n        /* \"#utility.yul\":19447:19499   */\n      iszero\n      tag_573\n      jumpi\n        /* \"#utility.yul\":19495:19496   */\n      0x00\n        /* \"#utility.yul\":19492:19493   */\n      dup1\n        /* \"#utility.yul\":19485:19497   */\n      revert\n        /* \"#utility.yul\":19447:19499   */\n    tag_573:\n        /* \"#utility.yul\":19528:19537   */\n      dup3\n        /* \"#utility.yul\":19522:19538   */\n      mload\n        /* \"#utility.yul\":19557:19575   */\n      0xffffffffffffffff\n        /* \"#utility.yul\":19598:19600   */\n      dup1\n        /* \"#utility.yul\":19590:19596   */\n      dup3\n        /* \"#utility.yul\":19587:19601   */\n      gt\n        /* \"#utility.yul\":19584:19618   */\n      iszero\n      tag_574\n      jumpi\n        /* \"#utility.yul\":19614:19615   */\n      0x00\n        /* \"#utility.yul\":19611:19612   */\n      dup1\n        /* \"#utility.yul\":19604:19616   */\n      revert\n        /* \"#utility.yul\":19584:19618   */\n    tag_574:\n        /* \"#utility.yul\":19652:19658   */\n      dup2\n        /* \"#utility.yul\":19641:19650   */\n      dup6\n        /* \"#utility.yul\":19637:19659   */\n      add\n        /* \"#utility.yul\":19627:19659   */\n      swap2\n      pop\n        /* \"#utility.yul\":19697:19704   */\n      dup6\n        /* \"#utility.yul\":19690:19694   */\n      0x1f\n        /* \"#utility.yul\":19686:19688   */\n      dup4\n        /* \"#utility.yul\":19682:19695   */\n      add\n        /* \"#utility.yul\":19678:19705   */\n      slt\n        /* \"#utility.yul\":19668:19723   */\n      tag_575\n      jumpi\n        /* \"#utility.yul\":19719:19720   */\n      0x00\n        /* \"#utility.yul\":19716:19717   */\n      dup1\n        /* \"#utility.yul\":19709:19721   */\n      revert\n        /* \"#utility.yul\":19668:19723   */\n    tag_575:\n        /* \"#utility.yul\":19748:19750   */\n      dup2\n        /* \"#utility.yul\":19742:19751   */\n      mload\n        /* \"#utility.yul\":19770:19772   */\n      dup2\n        /* \"#utility.yul\":19766:19768   */\n      dup2\n        /* \"#utility.yul\":19763:19773   */\n      gt\n        /* \"#utility.yul\":19760:19796   */\n      iszero\n      tag_577\n      jumpi\n        /* \"#utility.yul\":19776:19794   */\n      tag_577\n      tag_345\n      jump\t// in\n    tag_577:\n        /* \"#utility.yul\":19822:19824   */\n      dup1\n        /* \"#utility.yul\":19819:19820   */\n      0x05\n        /* \"#utility.yul\":19815:19825   */\n      shl\n        /* \"#utility.yul\":19854:19856   */\n      0x40\n        /* \"#utility.yul\":19848:19857   */\n      mload\n        /* \"#utility.yul\":19917:19919   */\n      0x1f\n        /* \"#utility.yul\":19913:19920   */\n      not\n        /* \"#utility.yul\":19908:19910   */\n      0x3f\n        /* \"#utility.yul\":19904:19906   */\n      dup4\n        /* \"#utility.yul\":19900:19911   */\n      add\n        /* \"#utility.yul\":19896:19921   */\n      and\n        /* \"#utility.yul\":19888:19894   */\n      dup2\n        /* \"#utility.yul\":19884:19922   */\n      add\n        /* \"#utility.yul\":19972:19978   */\n      dup2\n        /* \"#utility.yul\":19960:19970   */\n      dup2\n        /* \"#utility.yul\":19957:19979   */\n      lt\n        /* \"#utility.yul\":19952:19954   */\n      dup6\n        /* \"#utility.yul\":19940:19950   */\n      dup3\n        /* \"#utility.yul\":19937:19955   */\n      gt\n        /* \"#utility.yul\":19934:19980   */\n      or\n        /* \"#utility.yul\":19931:20003   */\n      iszero\n      tag_579\n      jumpi\n        /* \"#utility.yul\":19983:20001   */\n      tag_579\n      tag_345\n      jump\t// in\n    tag_579:\n        /* \"#utility.yul\":20019:20021   */\n      0x40\n        /* \"#utility.yul\":20012:20034   */\n      mstore\n        /* \"#utility.yul\":20069:20087   */\n      swap2\n      dup3\n      mstore\n        /* \"#utility.yul\":20103:20118   */\n      dup5\n      dup3\n      add\n      swap3\n      pop\n        /* \"#utility.yul\":20145:20156   */\n      dup4\n      dup2\n      add\n        /* \"#utility.yul\":20141:20161   */\n      dup6\n      add\n      swap2\n        /* \"#utility.yul\":20173:20192   */\n      dup9\n      dup4\n      gt\n        /* \"#utility.yul\":20170:20209   */\n      iszero\n      tag_580\n      jumpi\n        /* \"#utility.yul\":20205:20206   */\n      0x00\n        /* \"#utility.yul\":20202:20203   */\n      dup1\n        /* \"#utility.yul\":20195:20207   */\n      revert\n        /* \"#utility.yul\":20170:20209   */\n    tag_580:\n        /* \"#utility.yul\":20229:20240   */\n      swap4\n      dup6\n      add\n      swap4\n        /* \"#utility.yul\":20249:20384   */\n    tag_581:\n        /* \"#utility.yul\":20265:20271   */\n      dup3\n        /* \"#utility.yul\":20260:20263   */\n      dup6\n        /* \"#utility.yul\":20257:20272   */\n      lt\n        /* \"#utility.yul\":20249:20384   */\n      iszero\n      tag_583\n      jumpi\n        /* \"#utility.yul\":20331:20341   */\n      dup5\n      mload\n        /* \"#utility.yul\":20319:20342   */\n      dup5\n      mstore\n        /* \"#utility.yul\":20282:20294   */\n      swap4\n      dup6\n      add\n      swap4\n        /* \"#utility.yul\":20362:20374   */\n      swap3\n      dup6\n      add\n      swap3\n        /* \"#utility.yul\":20249:20384   */\n      jump(tag_581)\n    tag_583:\n        /* \"#utility.yul\":20403:20409   */\n      swap9\n        /* \"#utility.yul\":19310:20415   */\n      swap8\n      pop\n      pop\n      pop\n      pop\n      pop\n      pop\n      pop\n      pop\n      jump\t// out\n        /* \"#utility.yul\":21863:22047   */\n    tag_299:\n        /* \"#utility.yul\":21933:21939   */\n      0x00\n        /* \"#utility.yul\":21986:21988   */\n      0x20\n        /* \"#utility.yul\":21974:21983   */\n      dup3\n        /* \"#utility.yul\":21965:21972   */\n      dup5\n        /* \"#utility.yul\":21961:21984   */\n      sub\n        /* \"#utility.yul\":21957:21989   */\n      slt\n        /* \"#utility.yul\":21954:22006   */\n      iszero\n      tag_589\n      jumpi\n        /* \"#utility.yul\":22002:22003   */\n      0x00\n        /* \"#utility.yul\":21999:22000   */\n      dup1\n        /* \"#utility.yul\":21992:22004   */\n      revert\n        /* \"#utility.yul\":21954:22006   */\n    tag_589:\n      pop\n        /* \"#utility.yul\":22025:22041   */\n      mload\n      swap2\n        /* \"#utility.yul\":21863:22047   */\n      swap1\n      pop\n      jump\t// out\n        /* \"#utility.yul\":22758:23228   */\n    tag_336:\n        /* \"#utility.yul\":22937:22940   */\n      0x00\n        /* \"#utility.yul\":22975:22981   */\n      dup4\n        /* \"#utility.yul\":22969:22982   */\n      mload\n        /* \"#utility.yul\":22991:23044   */\n      tag_593\n        /* \"#utility.yul\":23037:23043   */\n      dup2\n        /* \"#utility.yul\":23032:23035   */\n      dup5\n        /* \"#utility.yul\":23025:23029   */\n      0x20\n        /* \"#utility.yul\":23017:23023   */\n      dup9\n        /* \"#utility.yul\":23013:23030   */\n      add\n        /* \"#utility.yul\":22991:23044   */\n      tag_422\n      jump\t// in\n    tag_593:\n        /* \"#utility.yul\":23107:23120   */\n      dup4\n      mload\n        /* \"#utility.yul\":23066:23082   */\n      swap1\n      dup4\n      add\n      swap1\n        /* \"#utility.yul\":23129:23186   */\n      tag_558\n        /* \"#utility.yul\":23107:23120   */\n      dup2\n        /* \"#utility.yul\":23066:23082   */\n      dup4\n        /* \"#utility.yul\":23163:23167   */\n      0x20\n        /* \"#utility.yul\":23151:23168   */\n      dup9\n      add\n        /* \"#utility.yul\":23129:23186   */\n      tag_422\n      jump\t// in\n        /* \"#utility.yul\":23233:23847   */\n    tag_341:\n        /* \"#utility.yul\":23513:23516   */\n      0x00\n        /* \"#utility.yul\":23551:23557   */\n      dup4\n        /* \"#utility.yul\":23545:23558   */\n      mload\n        /* \"#utility.yul\":23567:23620   */\n      tag_596\n        /* \"#utility.yul\":23613:23619   */\n      dup2\n        /* \"#utility.yul\":23608:23611   */\n      dup5\n        /* \"#utility.yul\":23601:23605   */\n      0x20\n        /* \"#utility.yul\":23593:23599   */\n      dup9\n        /* \"#utility.yul\":23589:23606   */\n      add\n        /* \"#utility.yul\":23567:23620   */\n      tag_422\n      jump\t// in\n    tag_596:\n        /* \"#utility.yul\":23681:23684   */\n      0x2f00000000000000000000000000000000000000000000000000000000000000\n        /* \"#utility.yul\":23642:23658   */\n      swap1\n      dup4\n      add\n        /* \"#utility.yul\":23667:23685   */\n      swap1\n      dup2\n      mstore\n        /* \"#utility.yul\":23710:23723   */\n      dup4\n      mload\n        /* \"#utility.yul\":23732:23797   */\n      tag_597\n        /* \"#utility.yul\":23710:23723   */\n      dup2\n        /* \"#utility.yul\":23784:23785   */\n      0x01\n        /* \"#utility.yul\":23773:23786   */\n      dup5\n      add\n        /* \"#utility.yul\":23766:23770   */\n      0x20\n        /* \"#utility.yul\":23754:23771   */\n      dup9\n      add\n        /* \"#utility.yul\":23732:23797   */\n      tag_422\n      jump\t// in\n    tag_597:\n        /* \"#utility.yul\":23817:23837   */\n      add\n        /* \"#utility.yul\":23839:23840   */\n      0x01\n        /* \"#utility.yul\":23813:23841   */\n      add\n      swap5\n        /* \"#utility.yul\":23233:23847   */\n      swap4\n      pop\n      pop\n      pop\n      pop\n      jump\t// out\n        /* \"#utility.yul\":23852:23987   */\n    tag_357:\n        /* \"#utility.yul\":23891:23894   */\n      0x00\n        /* \"#utility.yul\":23912:23929   */\n      0x01\n      dup3\n      add\n        /* \"#utility.yul\":23909:23952   */\n      tag_600\n      jumpi\n        /* \"#utility.yul\":23932:23950   */\n      tag_600\n      tag_427\n      jump\t// in\n    tag_600:\n      pop\n        /* \"#utility.yul\":23979:23980   */\n      0x01\n        /* \"#utility.yul\":23968:23981   */\n      add\n      swap1\n        /* \"#utility.yul\":23852:23987   */\n      jump\t// out\n        /* \"#utility.yul\":25073:25257   */\n    tag_428:\n      shl(0xe0, 0x4e487b71)\n        /* \"#utility.yul\":25122:25123   */\n      0x00\n        /* \"#utility.yul\":25115:25203   */\n      mstore\n        /* \"#utility.yul\":25222:25226   */\n      0x12\n        /* \"#utility.yul\":25219:25220   */\n      0x04\n        /* \"#utility.yul\":25212:25227   */\n      mstore\n        /* \"#utility.yul\":25246:25250   */\n      0x24\n        /* \"#utility.yul\":25243:25244   */\n      0x00\n        /* \"#utility.yul\":25236:25251   */\n      revert\n        /* \"#utility.yul\":25262:25382   */\n    tag_375:\n        /* \"#utility.yul\":25302:25303   */\n      0x00\n        /* \"#utility.yul\":25328:25329   */\n      dup3\n        /* \"#utility.yul\":25318:25353   */\n      tag_607\n      jumpi\n        /* \"#utility.yul\":25333:25351   */\n      tag_607\n      tag_428\n      jump\t// in\n    tag_607:\n      pop\n        /* \"#utility.yul\":25367:25376   */\n      div\n      swap1\n        /* \"#utility.yul\":25262:25382   */\n      jump\t// out\n        /* \"#utility.yul\":25387:25512   */\n    tag_382:\n        /* \"#utility.yul\":25427:25431   */\n      0x00\n        /* \"#utility.yul\":25455:25456   */\n      dup3\n        /* \"#utility.yul\":25452:25453   */\n      dup3\n        /* \"#utility.yul\":25449:25457   */\n      lt\n        /* \"#utility.yul\":25446:25480   */\n      iszero\n      tag_610\n      jumpi\n        /* \"#utility.yul\":25460:25478   */\n      tag_610\n      tag_427\n      jump\t// in\n    tag_610:\n      pop\n        /* \"#utility.yul\":25497:25506   */\n      sub\n      swap1\n        /* \"#utility.yul\":25387:25512   */\n      jump\t// out\n        /* \"#utility.yul\":25517:25629   */\n    tag_384:\n        /* \"#utility.yul\":25549:25550   */\n      0x00\n        /* \"#utility.yul\":25575:25576   */\n      dup3\n        /* \"#utility.yul\":25565:25600   */\n      tag_613\n      jumpi\n        /* \"#utility.yul\":25580:25598   */\n      tag_613\n      tag_428\n      jump\t// in\n    tag_613:\n      pop\n        /* \"#utility.yul\":25614:25623   */\n      mod\n      swap1\n        /* \"#utility.yul\":25517:25629   */\n      jump\t// out\n\n    auxdata: 0xa264697066735822122036a9685f79261920cebda45a8dbb9bdb76ddd5b19b4fd52c3d0e88fffbcd500c64736f6c634300080e0033\n}\n",
				"bytecode": {
					"linkReferences": {},
					"object": "608060405234801561001057600080fd5b50600160005561306e806100256000396000f3fe608060405234801561001057600080fd5b50600436106100c95760003560e01c806342f3bef411610081578063d5fdfe871161005b578063d5fdfe87146101ad578063e9dc6375146101df578063f8a6137b146101ff57600080fd5b806342f3bef41461015f578063bbf2a8c614610187578063cda085361461019a57600080fd5b80630f79ab39116100b25780630f79ab39146101175780631831a643146101375780633512da331461014c57600080fd5b806301ffc9a7146100ce578063037b79db146100f6575b600080fd5b6100e16100dc366004612724565b61021f565b60405190151581526020015b60405180910390f35b61010961010436600461278a565b6102bc565b6040519081526020016100ed565b61012a6101253660046127d8565b6108d3565b6040516100ed9190612896565b61014a610145366004612949565b610b14565b005b61014a61015a3660046129ec565b61120a565b61017261016d366004612a90565b611832565b60405163ffffffff90911681526020016100ed565b61014a610195366004612ae0565b611973565b6100e16101a8366004612b4f565b611e00565b6101096101bb366004612b8b565b6001600160a01b03166000908152600160205260409020546001600160e01b031690565b6101f26101ed3660046127d8565b611f22565b6040516100ed9190612ba6565b61021261020d366004612bb9565b612260565b6040516100ed9190612c13565b60006001600160e01b031982167f38dbd06a00000000000000000000000000000000000000000000000000000000148061028257506001600160e01b031982167fe9dc637500000000000000000000000000000000000000000000000000000000145b806102b657506001600160e01b031982167f01ffc9a700000000000000000000000000000000000000000000000000000000145b92915050565b604051630935e01b60e21b8152336004820152600090839081906001600160a01b038216906324d7806c90602401602060405180830381865afa158015610307573d6000803e3d6000fd5b505050506040513d601f19601f8201168201806040525081019061032b9190612c6a565b6103905760405162461bcd60e51b815260206004820152602b60248201527f57616c6c6574206973206e6f7420616e2061646d696e6973747261746f72206660448201526a1bdc8818dbdb9d1c9858dd60aa1b60648201526084015b60405180910390fd5b60006103a260a0860160808701612c87565b60038111156103b3576103b3612802565b036104265760405162461bcd60e51b815260206004820152602f60248201527f43616e6e6f7420696e697469616c697a65207769746820696e76616c6964207360448201527f746f726167652070726f746f636f6c00000000000000000000000000000000006064820152608401610387565b6104366080850160608601612ca8565b65ffffffffffff16158061047757506104556080850160608601612ca8565b65ffffffffffff1661046d6060860160408701612ca8565b65ffffffffffff16105b6104e95760405162461bcd60e51b815260206004820152603660248201527f43616e6e6f74206861766520737461727444617465206772656174657220746860448201527f616e206f7220657175616c20746f20656e6444617465000000000000000000006064820152608401610387565b60c0840135158061050d57506105056040850160208601612cd0565b63ffffffff16155b61057f5760405162461bcd60e51b815260206004820152603160248201527f43616e6e6f742070726f7669646520626f7468206d696e747350657257616c6c60448201527f657420616e64206d65726b6c65526f6f740000000000000000000000000000006064820152608401610387565b6001600160a01b038516600090815260016020526040812080546001600160e01b0316916105ac83612d01565b82546101009290920a6001600160e01b038181021990931691831602179091556001600160a01b03871660009081526001602090815260408083205481516101208101909252928152919092169250908181019061060c90880188612cd0565b63ffffffff16815260200186602001602081019061062a9190612cd0565b63ffffffff1681526020016106456060880160408901612ca8565b65ffffffffffff1681526020016106626080880160608901612ca8565b65ffffffffffff16815260200161067f60a0880160808901612c87565b600381111561069057610690612802565b81526020016106a560c0880160a08901612d27565b1515815260c087013560208201526040016106c360e0880188612d44565b8080601f01602080910402602001604051908101604052809392919081815260200183838082843760009201829052509390945250506001600160a01b03891681526002602090815260408083206001600160e01b03871684528252918290208451815492860151938601516060870151608088015165ffffffffffff908116600160901b027fffffffffffffffff000000000000ffffffffffffffffffffffffffffffffffff91909216600160601b0271ffffffffffff0000000000000000000000001963ffffffff948516600160401b021671ffffffffffffffffffff0000000000000000199885166401000000000267ffffffffffffffff199098169490951693909317959095179590951691909117179182168317815560a085015190935091839160ff60c01b199091167fffffffffffffff00000000000000ffffffffffffffffffffffffffffffffffff90911617600160c01b83600381111561082e5761082e612802565b021790555060c08201518154901515600160c81b0260ff60c81b1990911617815560e08201516001820155610100820151805161087591600284019160209091019061268b565b50506040513381526001600160e01b03831691506001600160a01b038816907fcf76e1beb8dcf887c917933e1d0970eafadb9a69b82cfd5f44740a0dce6f45a69060200160405180910390a36001600160e01b031695945050505050565b610920604080516101208101825260008082526020820181905291810182905260608101829052608081018290529060a08201908152600060208201819052604082015260609081015290565b60006001600160a01b0384166000908152600260209081526040808320868452909152902054600160c01b900460ff16600381111561096157610961612802565b036109a65760405162461bcd60e51b815260206004820152601560248201527410db185a5b481b9bdd081a5b9a5d1a585b1a5e9959605a1b6044820152606401610387565b6001600160a01b0383166000908152600260209081526040808320858452825291829020825161012081018452815463ffffffff80821683526401000000008204811694830194909452600160401b81049093169381019390935265ffffffffffff600160601b830481166060850152600160901b83041660808401529060a083019060ff600160c01b909104166003811115610a4557610a45612802565b6003811115610a5657610a56612802565b81528154600160c81b900460ff161515602082015260018201546040820152600282018054606090920191610a8a90612d8b565b80601f0160208091040260200160405190810160405280929190818152602001828054610ab690612d8b565b8015610b035780601f10610ad857610100808354040283529160200191610b03565b820191906000526020600020905b815481529060010190602001808311610ae657829003601f168201915b505050505081525050905092915050565b604051630935e01b60e21b8152336004820152839081906001600160a01b038216906324d7806c90602401602060405180830381865afa158015610b5c573d6000803e3d6000fd5b505050506040513d601f19601f82011682018060405250810190610b809190612c6a565b610be05760405162461bcd60e51b815260206004820152602b60248201527f57616c6c6574206973206e6f7420616e2061646d696e6973747261746f72206660448201526a1bdc8818dbdb9d1c9858dd60aa1b6064820152608401610387565b60006001600160a01b0386166000908152600260209081526040808320888452909152902054600160c01b900460ff166003811115610c2157610c21612802565b03610c665760405162461bcd60e51b815260206004820152601560248201527410db185a5b481b9bdd081a5b9a5d1a585b1a5e9959605a1b6044820152606401610387565b6000610c7860a0850160808601612c87565b6003811115610c8957610c89612802565b03610cfc5760405162461bcd60e51b815260206004820152602360248201527f43616e6e6f742073657420696e76616c69642073746f726167652070726f746f60448201527f636f6c00000000000000000000000000000000000000000000000000000000006064820152608401610387565b6001600160a01b0385166000908152600260209081526040808320878452909152902054640100000000900463ffffffff161580610d7d5750610d426020840184612cd0565b6001600160a01b038616600090815260026020908152604080832088845290915290205463ffffffff91821664010000000090910490911611155b610dc95760405162461bcd60e51b815260206004820152601860248201527f43616e6e6f7420646563726561736520746f74616c4d617800000000000000006044820152606401610387565b6001600160a01b0385166000908152600260209081526040808320878452909152902054600160401b900463ffffffff161580610e4b5750610e116040840160208501612cd0565b6001600160a01b038616600090815260026020908152604080832088845290915290205463ffffffff918216600160401b90910490911611155b610e975760405162461bcd60e51b815260206004820152601960248201527f43616e6e6f742064656372656173652077616c6c65744d6178000000000000006044820152606401610387565b610ea76080840160608501612ca8565b65ffffffffffff161580610ee85750610ec66080840160608501612ca8565b65ffffffffffff16610ede6060850160408601612ca8565b65ffffffffffff16105b610f5a5760405162461bcd60e51b815260206004820152603660248201527f43616e6e6f74206861766520737461727444617465206772656174657220746860448201527f616e206f7220657175616c20746f20656e6444617465000000000000000000006064820152608401610387565b60408051610120810182526001600160a01b03871660009081526002602090815283822088835281529290205463ffffffff1681529080820190610fa090860186612cd0565b63ffffffff168152602001846020016020810190610fbe9190612cd0565b63ffffffff168152602001610fd96060860160408701612ca8565b65ffffffffffff168152602001610ff66080860160608701612ca8565b65ffffffffffff16815260200161101360a0860160808701612c87565b600381111561102457611024612802565b815260200161103960c0860160a08701612d27565b1515815260c0850135602082015260400161105760e0860186612d44565b8080601f01602080910402602001604051908101604052809392919081815260200183838082843760009201829052509390945250506001600160a01b03881681526002602090815260408083208984528252918290208451815492860151938601516060870151608088015165ffffffffffff908116600160901b027fffffffffffffffff000000000000ffffffffffffffffffffffffffffffffffff91909216600160601b0271ffffffffffff0000000000000000000000001963ffffffff948516600160401b021671ffffffffffffffffffff0000000000000000199885166401000000000267ffffffffffffffff199098169490951693909317959095179590951691909117179182168317815560a085015190935091839160ff60c01b199091167fffffffffffffff00000000000000ffffffffffffffffffffffffffffffffffff90911617600160c01b8360038111156111b9576111b9612802565b021790555060c08201518154901515600160c81b0260ff60c81b1990911617815560e08201516001820155610100820151805161120091600284019160209091019061268b565b5050505050505050565b6001600160a01b03871660009081526002602090815260408083208984529091528120908154600160c01b900460ff16600381111561124b5761124b612802565b036112905760405162461bcd60e51b815260206004820152601560248201527410db185a5b481b9bdd081a5b9a5d1a585b1a5e9959605a1b6044820152606401610387565b8054600160601b900465ffffffffffff1615806112bd5750805442600160601b90910465ffffffffffff16105b6113095760405162461bcd60e51b815260206004820152601d60248201527f5472616e73616374696f6e206265666f726520737461727420646174650000006044820152606401610387565b8054600160901b900465ffffffffffff1615806113375750805442600160901b90910465ffffffffffff1610155b6113835760405162461bcd60e51b815260206004820152601a60248201527f5472616e73616374696f6e20616674657220656e6420646174650000000000006044820152606401610387565b8054640100000000900463ffffffff1615806113c55750805463ffffffff64010000000082048116916113bc9161ffff8a169116612dbf565b63ffffffff1611155b6114375760405162461bcd60e51b815260206004820152602160248201527f546f6f206d616e792072657175657374656420666f72207468697320636c616960448201527f6d000000000000000000000000000000000000000000000000000000000000006064820152608401610387565b805460009061144d9063ffffffff166001612dbf565b825463ffffffff19811661ffff8a1663ffffffff9283160182161784556001840154911691501561158e5761ffff87168514801561148e575061ffff871683145b6114da5760405162461bcd60e51b815260206004820152600d60248201527f496e76616c696420696e707574000000000000000000000000000000000000006044820152606401610387565b60005b8761ffff168110156115885760008787838181106114fd576114fd612de7565b90506020020160208101906115129190612cd0565b9050600086868481811061152857611528612de7565b905060200281019061153a9190612dfd565b8080602002602001604051908101604052809392919081815260200183836020028082843760009201919091525092935061157e92508791508e90508d858561231b565b50506001016114dd565b50611698565b8154600160401b900463ffffffff16156116985781546001600160a01b038a1660009081526003602090815260408083208c84528252808320338452909152902054600160401b90910463ffffffff16906115ee9061ffff8a1690612e47565b11156116625760405162461bcd60e51b815260206004820152602260248201527f546f6f206d616e792072657175657374656420666f7220746869732077616c6c60448201527f65740000000000000000000000000000000000000000000000000000000000006064820152608401610387565b6001600160a01b03891660009081526003602090815260408083208b845282528083203384529091529020805461ffff89160190555b6040517fe00aab4b00000000000000000000000000000000000000000000000000000000815233600482015261ffff881660248201526000906001600160a01b038b169063e00aab4b906044016000604051808303816000875af1158015611704573d6000803e3d6000fd5b505050506040513d6000823e601f3d908101601f1916820160405261172c9190810190612e75565b905060005b8861ffff168110156117e15760405180604001604052808b6001600160e01b0316815260200182856117639190612e47565b63ffffffff1690526001600160a01b038c166000908152600560205260408120845190919085908590811061179a5761179a612de7565b6020908102919091018101518252818101929092526040016000208251929091015163ffffffff16600160e01b026001600160e01b03909216919091179055600101611731565b5060405161ffff8916815289906001600160a01b038c16907f74f5d3254dfa39a7b1217a27d5d9b3e061eafe11720eca1cf499da2dc1eb12599060200160405180910390a350505050505050505050565b6001600160a01b03821660009081526002602090815260408083208484529091528120818154600160c01b900460ff16600381111561187357611873612802565b036118b85760405162461bcd60e51b815260206004820152601560248201527410db185a5b481b9bdd081a5b9a5d1a585b1a5e9959605a1b6044820152606401610387565b8054600160401b900463ffffffff1660000361193c5760405162461bcd60e51b815260206004820152603660248201527f43616e206f6e6c7920726574726965766520666f72206e6f6e2d6d65726b6c6560448201527f20636c61696d7320776974682077616c6c65744d6178000000000000000000006064820152608401610387565b50506001600160a01b0380831660009081526003602090815260408083208584528252808320938716835292905220549392505050565b6001600160a01b03851660009081526002602090815260408083208784529091528120908154600160c01b900460ff1660038111156119b4576119b4612802565b036119f95760405162461bcd60e51b815260206004820152601560248201527410db185a5b481b9bdd081a5b9a5d1a585b1a5e9959605a1b6044820152606401610387565b8054600160601b900465ffffffffffff161580611a265750805442600160601b90910465ffffffffffff16105b611a725760405162461bcd60e51b815260206004820152601d60248201527f5472616e73616374696f6e206265666f726520737461727420646174650000006044820152606401610387565b8054600160901b900465ffffffffffff161580611aa05750805442600160901b90910465ffffffffffff1610155b611aec5760405162461bcd60e51b815260206004820152601a60248201527f5472616e73616374696f6e20616674657220656e6420646174650000000000006044820152606401610387565b8054640100000000900463ffffffff161580611b185750805463ffffffff640100000000820481169116105b611b8a5760405162461bcd60e51b815260206004820152602c60248201527f4d6178696d756d20746f6b656e7320616c7265616479206d696e74656420666f60448201527f72207468697320636c61696d00000000000000000000000000000000000000006064820152608401610387565b600181015415611bd957611bd48187878787878080602002602001604051908101604052809392919081815260200183836020028082843760009201919091525061231b92505050565b611ccf565b8054600160401b900463ffffffff1615611ccf5780546001600160a01b03871660009081526003602090815260408083208984528252808320338452909152902054600160401b90910463ffffffff1611611c9c5760405162461bcd60e51b815260206004820152602d60248201527f4d6178696d756d20746f6b656e7320616c7265616479206d696e74656420666f60448201527f7220746869732077616c6c6574000000000000000000000000000000000000006064820152608401610387565b6001600160a01b038616600090815260036020908152604080832088845282528083203384529091529020805460010190555b805463ffffffff8082166001011663ffffffff199091161781556040517f2928ca580000000000000000000000000000000000000000000000000000000081523360048201526000906001600160a01b03881690632928ca58906024016020604051808303816000875af1158015611d4b573d6000803e3d6000fd5b505050506040513d601f19601f82011682018060405250810190611d6f9190612f33565b6040805180820182526001600160e01b03808a168252855463ffffffff90811660208085019182526001600160a01b038e1660008181526005835287812089825290925286822095519251909316600160e01b0291909316179092559151929350889290917f5d404f369772cfab2b65717fca9bc2077efeab89a0dbec036bf0c13783154eb191a350505050505050565b6001600160a01b03831660009081526002602090815260408083208584529091528120818154600160c01b900460ff166003811115611e4157611e41612802565b03611e865760405162461bcd60e51b815260206004820152601560248201527410db185a5b481b9bdd081a5b9a5d1a585b1a5e9959605a1b6044820152606401610387565b8060010154600003611eda5760405162461bcd60e51b815260206004820152601c60248201527f43616e206f6e6c7920636865636b206d65726b6c6520636c61696d73000000006044820152606401610387565b50506001600160a01b0383166000908152600460209081526040808320858452825280832062ffffff600886901c168452909152902054600160ff83161b1615159392505050565b6001600160a01b03821660009081526005602090815260408083208484528252918290208251808401909352546001600160e01b038116808452600160e01b90910463ffffffff169183019190915260609190611fc15760405162461bcd60e51b815260206004820152601460248201527f546f6b656e20646f6573206e6f742065786973740000000000000000000000006044820152606401610387565b6001600160a01b038416600090815260026020908152604080832084516001600160e01b031684528252808320815161012081018352815463ffffffff80821683526401000000008204811695830195909552600160401b81049094169281019290925265ffffffffffff600160601b840481166060840152600160901b8404166080830152909160a083019060ff600160c01b90910416600381111561206a5761206a612802565b600381111561207b5761207b612802565b81528154600160c81b900460ff1615156020820152600182015460408201526002820180546060909201916120af90612d8b565b80601f01602080910402602001604051908101604052809291908181526020018280546120db90612d8b565b80156121285780601f106120fd57610100808354040283529160200191612128565b820191906000526020600020905b81548152906001019060200180831161210b57829003601f168201915b505050919092525050604080516020810190915260008152919250600290508260a00151600381111561215d5761215d612802565b0361219c575060408051808201909152601481527f68747470733a2f2f617277656176652e6e65742f00000000000000000000000060208201526121ef565b60038260a0015160038111156121b4576121b4612802565b036121ef575060408051808201909152600781527f697066733a2f2f0000000000000000000000000000000000000000000000000060208201525b610100820151604051612206918391602001612f4c565b60405160208183030381529060405293508160c001516122575783612234846020015163ffffffff1661248c565b604051602001612245929190612f72565b60405160208183030381529060405293505b50505092915050565b60608167ffffffffffffffff81111561227b5761227b612e5f565b6040519080825280602002602001820160405280156122a4578160200160208202803683370190505b50905060005b82811015612312576122de86868686858181106122c9576122c9612de7565b90506020020160208101906101a89190612cd0565b8282815181106122f0576122f0612de7565b911515602092830291909101909101528061230a81612fca565b9150506122aa565b50949350505050565b6040516bffffffffffffffffffffffff193360601b1660208201526001600160e01b031960e084901b166034820152600090603801604051602081830303815290604052805190602001209050612377828760010154836125c9565b6123c35760405162461bcd60e51b815260206004820152601d60248201527f436f756c64206e6f7420766572696679206d65726b6c652070726f6f660000006044820152606401610387565b6001600160a01b0385166000908152600460209081526040808320878452825280832062ffffff600888901c16808552925290912054600160ff86161b808216156124505760405162461bcd60e51b815260206004820152600e60248201527f416c7265616479206d696e7465640000000000000000000000000000000000006044820152606401610387565b6001600160a01b039097166000908152600460209081526040808320988352978152878220938252929092529490209390941790925550505050565b6060816000036124cf57505060408051808201909152600181527f3000000000000000000000000000000000000000000000000000000000000000602082015290565b8160005b81156124f957806124e381612fca565b91506124f29050600a83612ff9565b91506124d3565b60008167ffffffffffffffff81111561251457612514612e5f565b6040519080825280601f01601f19166020018201604052801561253e576020820181803683370190505b5090505b84156125c15761255360018361300d565b9150612560600a86613024565b61256b906030612e47565b60f81b81838151811061258057612580612de7565b60200101907effffffffffffffffffffffffffffffffffffffffffffffffffffffffffffff1916908160001a9053506125ba600a86612ff9565b9450612542565b949350505050565b6000826125d685846125df565b14949350505050565b600081815b845181101561268357600085828151811061260157612601612de7565b60200260200101519050808311612643576040805160208101859052908101829052606001604051602081830303815290604052805190602001209250612670565b60408051602081018390529081018490526060016040516020818303038152906040528051906020012092505b508061267b81612fca565b9150506125e4565b509392505050565b82805461269790612d8b565b90600052602060002090601f0160209004810192826126b957600085556126ff565b82601f106126d257805160ff19168380011785556126ff565b828001600101855582156126ff579182015b828111156126ff5782518255916020019190600101906126e4565b5061270b92915061270f565b5090565b5b8082111561270b5760008155600101612710565b60006020828403121561273657600080fd5b81356001600160e01b03198116811461274e57600080fd5b9392505050565b80356001600160a01b038116811461276c57600080fd5b919050565b6000610100828403121561278457600080fd5b50919050565b6000806040838503121561279d57600080fd5b6127a683612755565b9150602083013567ffffffffffffffff8111156127c257600080fd5b6127ce85828601612771565b9150509250929050565b600080604083850312156127eb57600080fd5b6127f483612755565b946020939093013593505050565b634e487b7160e01b600052602160045260246000fd5b6004811061283657634e487b7160e01b600052602160045260246000fd5b9052565b60005b8381101561285557818101518382015260200161283d565b83811115612864576000848401525b50505050565b6000815180845261288281602086016020860161283a565b601f01601f19169290920160200192915050565b602081526128ad60208201835163ffffffff169052565b600060208301516128c6604084018263ffffffff169052565b50604083015163ffffffff8116606084015250606083015165ffffffffffff8116608084015250608083015165ffffffffffff811660a08401525060a083015161291360c0840182612818565b5060c083015180151560e08401525060e083015161010083810191909152830151610120808401526125c161014084018261286a565b60008060006060848603121561295e57600080fd5b61296784612755565b925060208401359150604084013567ffffffffffffffff81111561298a57600080fd5b61299686828701612771565b9150509250925092565b60008083601f8401126129b257600080fd5b50813567ffffffffffffffff8111156129ca57600080fd5b6020830191508360208260051b85010111156129e557600080fd5b9250929050565b600080600080600080600060a0888a031215612a0757600080fd5b612a1088612755565b965060208801359550604088013561ffff81168114612a2e57600080fd5b9450606088013567ffffffffffffffff80821115612a4b57600080fd5b612a578b838c016129a0565b909650945060808a0135915080821115612a7057600080fd5b50612a7d8a828b016129a0565b989b979a50959850939692959293505050565b600080600060608486031215612aa557600080fd5b612aae84612755565b9250612abc60208501612755565b9150604084013590509250925092565b803563ffffffff8116811461276c57600080fd5b600080600080600060808688031215612af857600080fd5b612b0186612755565b945060208601359350612b1660408701612acc565b9250606086013567ffffffffffffffff811115612b3257600080fd5b612b3e888289016129a0565b969995985093965092949392505050565b600080600060608486031215612b6457600080fd5b612b6d84612755565b925060208401359150612b8260408501612acc565b90509250925092565b600060208284031215612b9d57600080fd5b61274e82612755565b60208152600061274e602083018461286a565b60008060008060608587031215612bcf57600080fd5b612bd885612755565b935060208501359250604085013567ffffffffffffffff811115612bfb57600080fd5b612c07878288016129a0565b95989497509550505050565b6020808252825182820181905260009190848201906040850190845b81811015612c4d578351151583529284019291840191600101612c2f565b50909695505050505050565b8015158114612c6757600080fd5b50565b600060208284031215612c7c57600080fd5b815161274e81612c59565b600060208284031215612c9957600080fd5b81356004811061274e57600080fd5b600060208284031215612cba57600080fd5b813565ffffffffffff8116811461274e57600080fd5b600060208284031215612ce257600080fd5b61274e82612acc565b634e487b7160e01b600052601160045260246000fd5b60006001600160e01b03808316818103612d1d57612d1d612ceb565b6001019392505050565b600060208284031215612d3957600080fd5b813561274e81612c59565b6000808335601e19843603018112612d5b57600080fd5b83018035915067ffffffffffffffff821115612d7657600080fd5b6020019150368190038213156129e557600080fd5b600181811c90821680612d9f57607f821691505b60208210810361278457634e487b7160e01b600052602260045260246000fd5b600063ffffffff808316818516808303821115612dde57612dde612ceb565b01949350505050565b634e487b7160e01b600052603260045260246000fd5b6000808335601e19843603018112612e1457600080fd5b83018035915067ffffffffffffffff821115612e2f57600080fd5b6020019150600581901b36038213156129e557600080fd5b60008219821115612e5a57612e5a612ceb565b500190565b634e487b7160e01b600052604160045260246000fd5b60006020808385031215612e8857600080fd5b825167ffffffffffffffff80821115612ea057600080fd5b818501915085601f830112612eb457600080fd5b815181811115612ec657612ec6612e5f565b8060051b604051601f19603f83011681018181108582111715612eeb57612eeb612e5f565b604052918252848201925083810185019188831115612f0957600080fd5b938501935b82851015612f2757845184529385019392850192612f0e565b98975050505050505050565b600060208284031215612f4557600080fd5b5051919050565b60008351612f5e81846020880161283a565b835190830190612dde81836020880161283a565b60008351612f8481846020880161283a565b7f2f000000000000000000000000000000000000000000000000000000000000009083019081528351612fbe81600184016020880161283a565b01600101949350505050565b600060018201612fdc57612fdc612ceb565b5060010190565b634e487b7160e01b600052601260045260246000fd5b60008261300857613008612fe3565b500490565b60008282101561301f5761301f612ceb565b500390565b60008261303357613033612fe3565b50069056fea264697066735822122036a9685f79261920cebda45a8dbb9bdb76ddd5b19b4fd52c3d0e88fffbcd500c64736f6c634300080e0033",
					"opcodes": "PUSH1 0x80 PUSH1 0x40 MSTORE CALLVALUE DUP1 ISZERO PUSH2 0x10 JUMPI PUSH1 0x0 DUP1 REVERT JUMPDEST POP PUSH1 0x1 PUSH1 0x0 SSTORE PUSH2 0x306E DUP1 PUSH2 0x25 PUSH1 0x0 CODECOPY PUSH1 0x0 RETURN INVALID PUSH1 0x80 PUSH1 0x40 MSTORE CALLVALUE DUP1 ISZERO PUSH2 0x10 JUMPI PUSH1 0x0 DUP1 REVERT JUMPDEST POP PUSH1 0x4 CALLDATASIZE LT PUSH2 0xC9 JUMPI PUSH1 0x0 CALLDATALOAD PUSH1 0xE0 SHR DUP1 PUSH4 0x42F3BEF4 GT PUSH2 0x81 JUMPI DUP1 PUSH4 0xD5FDFE87 GT PUSH2 0x5B JUMPI DUP1 PUSH4 0xD5FDFE87 EQ PUSH2 0x1AD JUMPI DUP1 PUSH4 0xE9DC6375 EQ PUSH2 0x1DF JUMPI DUP1 PUSH4 0xF8A6137B EQ PUSH2 0x1FF JUMPI PUSH1 0x0 DUP1 REVERT JUMPDEST DUP1 PUSH4 0x42F3BEF4 EQ PUSH2 0x15F JUMPI DUP1 PUSH4 0xBBF2A8C6 EQ PUSH2 0x187 JUMPI DUP1 PUSH4 0xCDA08536 EQ PUSH2 0x19A JUMPI PUSH1 0x0 DUP1 REVERT JUMPDEST DUP1 PUSH4 0xF79AB39 GT PUSH2 0xB2 JUMPI DUP1 PUSH4 0xF79AB39 EQ PUSH2 0x117 JUMPI DUP1 PUSH4 0x1831A643 EQ PUSH2 0x137 JUMPI DUP1 PUSH4 0x3512DA33 EQ PUSH2 0x14C JUMPI PUSH1 0x0 DUP1 REVERT JUMPDEST DUP1 PUSH4 0x1FFC9A7 EQ PUSH2 0xCE JUMPI DUP1 PUSH4 0x37B79DB EQ PUSH2 0xF6 JUMPI JUMPDEST PUSH1 0x0 DUP1 REVERT JUMPDEST PUSH2 0xE1 PUSH2 0xDC CALLDATASIZE PUSH1 0x4 PUSH2 0x2724 JUMP JUMPDEST PUSH2 0x21F JUMP JUMPDEST PUSH1 0x40 MLOAD SWAP1 ISZERO ISZERO DUP2 MSTORE PUSH1 0x20 ADD JUMPDEST PUSH1 0x40 MLOAD DUP1 SWAP2 SUB SWAP1 RETURN JUMPDEST PUSH2 0x109 PUSH2 0x104 CALLDATASIZE PUSH1 0x4 PUSH2 0x278A JUMP JUMPDEST PUSH2 0x2BC JUMP JUMPDEST PUSH1 0x40 MLOAD SWAP1 DUP2 MSTORE PUSH1 0x20 ADD PUSH2 0xED JUMP JUMPDEST PUSH2 0x12A PUSH2 0x125 CALLDATASIZE PUSH1 0x4 PUSH2 0x27D8 JUMP JUMPDEST PUSH2 0x8D3 JUMP JUMPDEST PUSH1 0x40 MLOAD PUSH2 0xED SWAP2 SWAP1 PUSH2 0x2896 JUMP JUMPDEST PUSH2 0x14A PUSH2 0x145 CALLDATASIZE PUSH1 0x4 PUSH2 0x2949 JUMP JUMPDEST PUSH2 0xB14 JUMP JUMPDEST STOP JUMPDEST PUSH2 0x14A PUSH2 0x15A CALLDATASIZE PUSH1 0x4 PUSH2 0x29EC JUMP JUMPDEST PUSH2 0x120A JUMP JUMPDEST PUSH2 0x172 PUSH2 0x16D CALLDATASIZE PUSH1 0x4 PUSH2 0x2A90 JUMP JUMPDEST PUSH2 0x1832 JUMP JUMPDEST PUSH1 0x40 MLOAD PUSH4 0xFFFFFFFF SWAP1 SWAP2 AND DUP2 MSTORE PUSH1 0x20 ADD PUSH2 0xED JUMP JUMPDEST PUSH2 0x14A PUSH2 0x195 CALLDATASIZE PUSH1 0x4 PUSH2 0x2AE0 JUMP JUMPDEST PUSH2 0x1973 JUMP JUMPDEST PUSH2 0xE1 PUSH2 0x1A8 CALLDATASIZE PUSH1 0x4 PUSH2 0x2B4F JUMP JUMPDEST PUSH2 0x1E00 JUMP JUMPDEST PUSH2 0x109 PUSH2 0x1BB CALLDATASIZE PUSH1 0x4 PUSH2 0x2B8B JUMP JUMPDEST PUSH1 0x1 PUSH1 0x1 PUSH1 0xA0 SHL SUB AND PUSH1 0x0 SWAP1 DUP2 MSTORE PUSH1 0x1 PUSH1 0x20 MSTORE PUSH1 0x40 SWAP1 KECCAK256 SLOAD PUSH1 0x1 PUSH1 0x1 PUSH1 0xE0 SHL SUB AND SWAP1 JUMP JUMPDEST PUSH2 0x1F2 PUSH2 0x1ED CALLDATASIZE PUSH1 0x4 PUSH2 0x27D8 JUMP JUMPDEST PUSH2 0x1F22 JUMP JUMPDEST PUSH1 0x40 MLOAD PUSH2 0xED SWAP2 SWAP1 PUSH2 0x2BA6 JUMP JUMPDEST PUSH2 0x212 PUSH2 0x20D CALLDATASIZE PUSH1 0x4 PUSH2 0x2BB9 JUMP JUMPDEST PUSH2 0x2260 JUMP JUMPDEST PUSH1 0x40 MLOAD PUSH2 0xED SWAP2 SWAP1 PUSH2 0x2C13 JUMP JUMPDEST PUSH1 0x0 PUSH1 0x1 PUSH1 0x1 PUSH1 0xE0 SHL SUB NOT DUP3 AND PUSH32 0x38DBD06A00000000000000000000000000000000000000000000000000000000 EQ DUP1 PUSH2 0x282 JUMPI POP PUSH1 0x1 PUSH1 0x1 PUSH1 0xE0 SHL SUB NOT DUP3 AND PUSH32 0xE9DC637500000000000000000000000000000000000000000000000000000000 EQ JUMPDEST DUP1 PUSH2 0x2B6 JUMPI POP PUSH1 0x1 PUSH1 0x1 PUSH1 0xE0 SHL SUB NOT DUP3 AND PUSH32 0x1FFC9A700000000000000000000000000000000000000000000000000000000 EQ JUMPDEST SWAP3 SWAP2 POP POP JUMP JUMPDEST PUSH1 0x40 MLOAD PUSH4 0x935E01B PUSH1 0xE2 SHL DUP2 MSTORE CALLER PUSH1 0x4 DUP3 ADD MSTORE PUSH1 0x0 SWAP1 DUP4 SWAP1 DUP2 SWAP1 PUSH1 0x1 PUSH1 0x1 PUSH1 0xA0 SHL SUB DUP3 AND SWAP1 PUSH4 0x24D7806C SWAP1 PUSH1 0x24 ADD PUSH1 0x20 PUSH1 0x40 MLOAD DUP1 DUP4 SUB DUP2 DUP7 GAS STATICCALL ISZERO DUP1 ISZERO PUSH2 0x307 JUMPI RETURNDATASIZE PUSH1 0x0 DUP1 RETURNDATACOPY RETURNDATASIZE PUSH1 0x0 REVERT JUMPDEST POP POP POP POP PUSH1 0x40 MLOAD RETURNDATASIZE PUSH1 0x1F NOT PUSH1 0x1F DUP3 ADD AND DUP3 ADD DUP1 PUSH1 0x40 MSTORE POP DUP2 ADD SWAP1 PUSH2 0x32B SWAP2 SWAP1 PUSH2 0x2C6A JUMP JUMPDEST PUSH2 0x390 JUMPI PUSH1 0x40 MLOAD PUSH3 0x461BCD PUSH1 0xE5 SHL DUP2 MSTORE PUSH1 0x20 PUSH1 0x4 DUP3 ADD MSTORE PUSH1 0x2B PUSH1 0x24 DUP3 ADD MSTORE PUSH32 0x57616C6C6574206973206E6F7420616E2061646D696E6973747261746F722066 PUSH1 0x44 DUP3 ADD MSTORE PUSH11 0x1BDC8818DBDB9D1C9858DD PUSH1 0xAA SHL PUSH1 0x64 DUP3 ADD MSTORE PUSH1 0x84 ADD JUMPDEST PUSH1 0x40 MLOAD DUP1 SWAP2 SUB SWAP1 REVERT JUMPDEST PUSH1 0x0 PUSH2 0x3A2 PUSH1 0xA0 DUP7 ADD PUSH1 0x80 DUP8 ADD PUSH2 0x2C87 JUMP JUMPDEST PUSH1 0x3 DUP2 GT ISZERO PUSH2 0x3B3 JUMPI PUSH2 0x3B3 PUSH2 0x2802 JUMP JUMPDEST SUB PUSH2 0x426 JUMPI PUSH1 0x40 MLOAD PUSH3 0x461BCD PUSH1 0xE5 SHL DUP2 MSTORE PUSH1 0x20 PUSH1 0x4 DUP3 ADD MSTORE PUSH1 0x2F PUSH1 0x24 DUP3 ADD MSTORE PUSH32 0x43616E6E6F7420696E697469616C697A65207769746820696E76616C69642073 PUSH1 0x44 DUP3 ADD MSTORE PUSH32 0x746F726167652070726F746F636F6C0000000000000000000000000000000000 PUSH1 0x64 DUP3 ADD MSTORE PUSH1 0x84 ADD PUSH2 0x387 JUMP JUMPDEST PUSH2 0x436 PUSH1 0x80 DUP6 ADD PUSH1 0x60 DUP7 ADD PUSH2 0x2CA8 JUMP JUMPDEST PUSH6 0xFFFFFFFFFFFF AND ISZERO DUP1 PUSH2 0x477 JUMPI POP PUSH2 0x455 PUSH1 0x80 DUP6 ADD PUSH1 0x60 DUP7 ADD PUSH2 0x2CA8 JUMP JUMPDEST PUSH6 0xFFFFFFFFFFFF AND PUSH2 0x46D PUSH1 0x60 DUP7 ADD PUSH1 0x40 DUP8 ADD PUSH2 0x2CA8 JUMP JUMPDEST PUSH6 0xFFFFFFFFFFFF AND LT JUMPDEST PUSH2 0x4E9 JUMPI PUSH1 0x40 MLOAD PUSH3 0x461BCD PUSH1 0xE5 SHL DUP2 MSTORE PUSH1 0x20 PUSH1 0x4 DUP3 ADD MSTORE PUSH1 0x36 PUSH1 0x24 DUP3 ADD MSTORE PUSH32 0x43616E6E6F742068617665207374617274446174652067726561746572207468 PUSH1 0x44 DUP3 ADD MSTORE PUSH32 0x616E206F7220657175616C20746F20656E644461746500000000000000000000 PUSH1 0x64 DUP3 ADD MSTORE PUSH1 0x84 ADD PUSH2 0x387 JUMP JUMPDEST PUSH1 0xC0 DUP5 ADD CALLDATALOAD ISZERO DUP1 PUSH2 0x50D JUMPI POP PUSH2 0x505 PUSH1 0x40 DUP6 ADD PUSH1 0x20 DUP7 ADD PUSH2 0x2CD0 JUMP JUMPDEST PUSH4 0xFFFFFFFF AND ISZERO JUMPDEST PUSH2 0x57F JUMPI PUSH1 0x40 MLOAD PUSH3 0x461BCD PUSH1 0xE5 SHL DUP2 MSTORE PUSH1 0x20 PUSH1 0x4 DUP3 ADD MSTORE PUSH1 0x31 PUSH1 0x24 DUP3 ADD MSTORE PUSH32 0x43616E6E6F742070726F7669646520626F7468206D696E747350657257616C6C PUSH1 0x44 DUP3 ADD MSTORE PUSH32 0x657420616E64206D65726B6C65526F6F74000000000000000000000000000000 PUSH1 0x64 DUP3 ADD MSTORE PUSH1 0x84 ADD PUSH2 0x387 JUMP JUMPDEST PUSH1 0x1 PUSH1 0x1 PUSH1 0xA0 SHL SUB DUP6 AND PUSH1 0x0 SWAP1 DUP2 MSTORE PUSH1 0x1 PUSH1 0x20 MSTORE PUSH1 0x40 DUP2 KECCAK256 DUP1 SLOAD PUSH1 0x1 PUSH1 0x1 PUSH1 0xE0 SHL SUB AND SWAP2 PUSH2 0x5AC DUP4 PUSH2 0x2D01 JUMP JUMPDEST DUP3 SLOAD PUSH2 0x100 SWAP3 SWAP1 SWAP3 EXP PUSH1 0x1 PUSH1 0x1 PUSH1 0xE0 SHL SUB DUP2 DUP2 MUL NOT SWAP1 SWAP4 AND SWAP2 DUP4 AND MUL OR SWAP1 SWAP2 SSTORE PUSH1 0x1 PUSH1 0x1 PUSH1 0xA0 SHL SUB DUP8 AND PUSH1 0x0 SWAP1 DUP2 MSTORE PUSH1 0x1 PUSH1 0x20 SWAP1 DUP2 MSTORE PUSH1 0x40 DUP1 DUP4 KECCAK256 SLOAD DUP2 MLOAD PUSH2 0x120 DUP2 ADD SWAP1 SWAP3 MSTORE SWAP3 DUP2 MSTORE SWAP2 SWAP1 SWAP3 AND SWAP3 POP SWAP1 DUP2 DUP2 ADD SWAP1 PUSH2 0x60C SWAP1 DUP9 ADD DUP9 PUSH2 0x2CD0 JUMP JUMPDEST PUSH4 0xFFFFFFFF AND DUP2 MSTORE PUSH1 0x20 ADD DUP7 PUSH1 0x20 ADD PUSH1 0x20 DUP2 ADD SWAP1 PUSH2 0x62A SWAP2 SWAP1 PUSH2 0x2CD0 JUMP JUMPDEST PUSH4 0xFFFFFFFF AND DUP2 MSTORE PUSH1 0x20 ADD PUSH2 0x645 PUSH1 0x60 DUP9 ADD PUSH1 0x40 DUP10 ADD PUSH2 0x2CA8 JUMP JUMPDEST PUSH6 0xFFFFFFFFFFFF AND DUP2 MSTORE PUSH1 0x20 ADD PUSH2 0x662 PUSH1 0x80 DUP9 ADD PUSH1 0x60 DUP10 ADD PUSH2 0x2CA8 JUMP JUMPDEST PUSH6 0xFFFFFFFFFFFF AND DUP2 MSTORE PUSH1 0x20 ADD PUSH2 0x67F PUSH1 0xA0 DUP9 ADD PUSH1 0x80 DUP10 ADD PUSH2 0x2C87 JUMP JUMPDEST PUSH1 0x3 DUP2 GT ISZERO PUSH2 0x690 JUMPI PUSH2 0x690 PUSH2 0x2802 JUMP JUMPDEST DUP2 MSTORE PUSH1 0x20 ADD PUSH2 0x6A5 PUSH1 0xC0 DUP9 ADD PUSH1 0xA0 DUP10 ADD PUSH2 0x2D27 JUMP JUMPDEST ISZERO ISZERO DUP2 MSTORE PUSH1 0xC0 DUP8 ADD CALLDATALOAD PUSH1 0x20 DUP3 ADD MSTORE PUSH1 0x40 ADD PUSH2 0x6C3 PUSH1 0xE0 DUP9 ADD DUP9 PUSH2 0x2D44 JUMP JUMPDEST DUP1 DUP1 PUSH1 0x1F ADD PUSH1 0x20 DUP1 SWAP2 DIV MUL PUSH1 0x20 ADD PUSH1 0x40 MLOAD SWAP1 DUP2 ADD PUSH1 0x40 MSTORE DUP1 SWAP4 SWAP3 SWAP2 SWAP1 DUP2 DUP2 MSTORE PUSH1 0x20 ADD DUP4 DUP4 DUP1 DUP3 DUP5 CALLDATACOPY PUSH1 0x0 SWAP3 ADD DUP3 SWAP1 MSTORE POP SWAP4 SWAP1 SWAP5 MSTORE POP POP PUSH1 0x1 PUSH1 0x1 PUSH1 0xA0 SHL SUB DUP10 AND DUP2 MSTORE PUSH1 0x2 PUSH1 0x20 SWAP1 DUP2 MSTORE PUSH1 0x40 DUP1 DUP4 KECCAK256 PUSH1 0x1 PUSH1 0x1 PUSH1 0xE0 SHL SUB DUP8 AND DUP5 MSTORE DUP3 MSTORE SWAP2 DUP3 SWAP1 KECCAK256 DUP5 MLOAD DUP2 SLOAD SWAP3 DUP7 ADD MLOAD SWAP4 DUP7 ADD MLOAD PUSH1 0x60 DUP8 ADD MLOAD PUSH1 0x80 DUP9 ADD MLOAD PUSH6 0xFFFFFFFFFFFF SWAP1 DUP2 AND PUSH1 0x1 PUSH1 0x90 SHL MUL PUSH32 0xFFFFFFFFFFFFFFFF000000000000FFFFFFFFFFFFFFFFFFFFFFFFFFFFFFFFFFFF SWAP2 SWAP1 SWAP3 AND PUSH1 0x1 PUSH1 0x60 SHL MUL PUSH18 0xFFFFFFFFFFFF000000000000000000000000 NOT PUSH4 0xFFFFFFFF SWAP5 DUP6 AND PUSH1 0x1 PUSH1 0x40 SHL MUL AND PUSH18 0xFFFFFFFFFFFFFFFFFFFF0000000000000000 NOT SWAP9 DUP6 AND PUSH5 0x100000000 MUL PUSH8 0xFFFFFFFFFFFFFFFF NOT SWAP1 SWAP9 AND SWAP5 SWAP1 SWAP6 AND SWAP4 SWAP1 SWAP4 OR SWAP6 SWAP1 SWAP6 OR SWAP6 SWAP1 SWAP6 AND SWAP2 SWAP1 SWAP2 OR OR SWAP2 DUP3 AND DUP4 OR DUP2 SSTORE PUSH1 0xA0 DUP6 ADD MLOAD SWAP1 SWAP4 POP SWAP2 DUP4 SWAP2 PUSH1 0xFF PUSH1 0xC0 SHL NOT SWAP1 SWAP2 AND PUSH32 0xFFFFFFFFFFFFFF00000000000000FFFFFFFFFFFFFFFFFFFFFFFFFFFFFFFFFFFF SWAP1 SWAP2 AND OR PUSH1 0x1 PUSH1 0xC0 SHL DUP4 PUSH1 0x3 DUP2 GT ISZERO PUSH2 0x82E JUMPI PUSH2 0x82E PUSH2 0x2802 JUMP JUMPDEST MUL OR SWAP1 SSTORE POP PUSH1 0xC0 DUP3 ADD MLOAD DUP2 SLOAD SWAP1 ISZERO ISZERO PUSH1 0x1 PUSH1 0xC8 SHL MUL PUSH1 0xFF PUSH1 0xC8 SHL NOT SWAP1 SWAP2 AND OR DUP2 SSTORE PUSH1 0xE0 DUP3 ADD MLOAD PUSH1 0x1 DUP3 ADD SSTORE PUSH2 0x100 DUP3 ADD MLOAD DUP1 MLOAD PUSH2 0x875 SWAP2 PUSH1 0x2 DUP5 ADD SWAP2 PUSH1 0x20 SWAP1 SWAP2 ADD SWAP1 PUSH2 0x268B JUMP JUMPDEST POP POP PUSH1 0x40 MLOAD CALLER DUP2 MSTORE PUSH1 0x1 PUSH1 0x1 PUSH1 0xE0 SHL SUB DUP4 AND SWAP2 POP PUSH1 0x1 PUSH1 0x1 PUSH1 0xA0 SHL SUB DUP9 AND SWAP1 PUSH32 0xCF76E1BEB8DCF887C917933E1D0970EAFADB9A69B82CFD5F44740A0DCE6F45A6 SWAP1 PUSH1 0x20 ADD PUSH1 0x40 MLOAD DUP1 SWAP2 SUB SWAP1 LOG3 PUSH1 0x1 PUSH1 0x1 PUSH1 0xE0 SHL SUB AND SWAP6 SWAP5 POP POP POP POP POP JUMP JUMPDEST PUSH2 0x920 PUSH1 0x40 DUP1 MLOAD PUSH2 0x120 DUP2 ADD DUP3 MSTORE PUSH1 0x0 DUP1 DUP3 MSTORE PUSH1 0x20 DUP3 ADD DUP2 SWAP1 MSTORE SWAP2 DUP2 ADD DUP3 SWAP1 MSTORE PUSH1 0x60 DUP2 ADD DUP3 SWAP1 MSTORE PUSH1 0x80 DUP2 ADD DUP3 SWAP1 MSTORE SWAP1 PUSH1 0xA0 DUP3 ADD SWAP1 DUP2 MSTORE PUSH1 0x0 PUSH1 0x20 DUP3 ADD DUP2 SWAP1 MSTORE PUSH1 0x40 DUP3 ADD MSTORE PUSH1 0x60 SWAP1 DUP2 ADD MSTORE SWAP1 JUMP JUMPDEST PUSH1 0x0 PUSH1 0x1 PUSH1 0x1 PUSH1 0xA0 SHL SUB DUP5 AND PUSH1 0x0 SWAP1 DUP2 MSTORE PUSH1 0x2 PUSH1 0x20 SWAP1 DUP2 MSTORE PUSH1 0x40 DUP1 DUP4 KECCAK256 DUP7 DUP5 MSTORE SWAP1 SWAP2 MSTORE SWAP1 KECCAK256 SLOAD PUSH1 0x1 PUSH1 0xC0 SHL SWAP1 DIV PUSH1 0xFF AND PUSH1 0x3 DUP2 GT ISZERO PUSH2 0x961 JUMPI PUSH2 0x961 PUSH2 0x2802 JUMP JUMPDEST SUB PUSH2 0x9A6 JUMPI PUSH1 0x40 MLOAD PUSH3 0x461BCD PUSH1 0xE5 SHL DUP2 MSTORE PUSH1 0x20 PUSH1 0x4 DUP3 ADD MSTORE PUSH1 0x15 PUSH1 0x24 DUP3 ADD MSTORE PUSH21 0x10DB185A5B481B9BDD081A5B9A5D1A585B1A5E9959 PUSH1 0x5A SHL PUSH1 0x44 DUP3 ADD MSTORE PUSH1 0x64 ADD PUSH2 0x387 JUMP JUMPDEST PUSH1 0x1 PUSH1 0x1 PUSH1 0xA0 SHL SUB DUP4 AND PUSH1 0x0 SWAP1 DUP2 MSTORE PUSH1 0x2 PUSH1 0x20 SWAP1 DUP2 MSTORE PUSH1 0x40 DUP1 DUP4 KECCAK256 DUP6 DUP5 MSTORE DUP3 MSTORE SWAP2 DUP3 SWAP1 KECCAK256 DUP3 MLOAD PUSH2 0x120 DUP2 ADD DUP5 MSTORE DUP2 SLOAD PUSH4 0xFFFFFFFF DUP1 DUP3 AND DUP4 MSTORE PUSH5 0x100000000 DUP3 DIV DUP2 AND SWAP5 DUP4 ADD SWAP5 SWAP1 SWAP5 MSTORE PUSH1 0x1 PUSH1 0x40 SHL DUP2 DIV SWAP1 SWAP4 AND SWAP4 DUP2 ADD SWAP4 SWAP1 SWAP4 MSTORE PUSH6 0xFFFFFFFFFFFF PUSH1 0x1 PUSH1 0x60 SHL DUP4 DIV DUP2 AND PUSH1 0x60 DUP6 ADD MSTORE PUSH1 0x1 PUSH1 0x90 SHL DUP4 DIV AND PUSH1 0x80 DUP5 ADD MSTORE SWAP1 PUSH1 0xA0 DUP4 ADD SWAP1 PUSH1 0xFF PUSH1 0x1 PUSH1 0xC0 SHL SWAP1 SWAP2 DIV AND PUSH1 0x3 DUP2 GT ISZERO PUSH2 0xA45 JUMPI PUSH2 0xA45 PUSH2 0x2802 JUMP JUMPDEST PUSH1 0x3 DUP2 GT ISZERO PUSH2 0xA56 JUMPI PUSH2 0xA56 PUSH2 0x2802 JUMP JUMPDEST DUP2 MSTORE DUP2 SLOAD PUSH1 0x1 PUSH1 0xC8 SHL SWAP1 DIV PUSH1 0xFF AND ISZERO ISZERO PUSH1 0x20 DUP3 ADD MSTORE PUSH1 0x1 DUP3 ADD SLOAD PUSH1 0x40 DUP3 ADD MSTORE PUSH1 0x2 DUP3 ADD DUP1 SLOAD PUSH1 0x60 SWAP1 SWAP3 ADD SWAP2 PUSH2 0xA8A SWAP1 PUSH2 0x2D8B JUMP JUMPDEST DUP1 PUSH1 0x1F ADD PUSH1 0x20 DUP1 SWAP2 DIV MUL PUSH1 0x20 ADD PUSH1 0x40 MLOAD SWAP1 DUP2 ADD PUSH1 0x40 MSTORE DUP1 SWAP3 SWAP2 SWAP1 DUP2 DUP2 MSTORE PUSH1 0x20 ADD DUP3 DUP1 SLOAD PUSH2 0xAB6 SWAP1 PUSH2 0x2D8B JUMP JUMPDEST DUP1 ISZERO PUSH2 0xB03 JUMPI DUP1 PUSH1 0x1F LT PUSH2 0xAD8 JUMPI PUSH2 0x100 DUP1 DUP4 SLOAD DIV MUL DUP4 MSTORE SWAP2 PUSH1 0x20 ADD SWAP2 PUSH2 0xB03 JUMP JUMPDEST DUP3 ADD SWAP2 SWAP1 PUSH1 0x0 MSTORE PUSH1 0x20 PUSH1 0x0 KECCAK256 SWAP1 JUMPDEST DUP2 SLOAD DUP2 MSTORE SWAP1 PUSH1 0x1 ADD SWAP1 PUSH1 0x20 ADD DUP1 DUP4 GT PUSH2 0xAE6 JUMPI DUP3 SWAP1 SUB PUSH1 0x1F AND DUP3 ADD SWAP2 JUMPDEST POP POP POP POP POP DUP2 MSTORE POP POP SWAP1 POP SWAP3 SWAP2 POP POP JUMP JUMPDEST PUSH1 0x40 MLOAD PUSH4 0x935E01B PUSH1 0xE2 SHL DUP2 MSTORE CALLER PUSH1 0x4 DUP3 ADD MSTORE DUP4 SWAP1 DUP2 SWAP1 PUSH1 0x1 PUSH1 0x1 PUSH1 0xA0 SHL SUB DUP3 AND SWAP1 PUSH4 0x24D7806C SWAP1 PUSH1 0x24 ADD PUSH1 0x20 PUSH1 0x40 MLOAD DUP1 DUP4 SUB DUP2 DUP7 GAS STATICCALL ISZERO DUP1 ISZERO PUSH2 0xB5C JUMPI RETURNDATASIZE PUSH1 0x0 DUP1 RETURNDATACOPY RETURNDATASIZE PUSH1 0x0 REVERT JUMPDEST POP POP POP POP PUSH1 0x40 MLOAD RETURNDATASIZE PUSH1 0x1F NOT PUSH1 0x1F DUP3 ADD AND DUP3 ADD DUP1 PUSH1 0x40 MSTORE POP DUP2 ADD SWAP1 PUSH2 0xB80 SWAP2 SWAP1 PUSH2 0x2C6A JUMP JUMPDEST PUSH2 0xBE0 JUMPI PUSH1 0x40 MLOAD PUSH3 0x461BCD PUSH1 0xE5 SHL DUP2 MSTORE PUSH1 0x20 PUSH1 0x4 DUP3 ADD MSTORE PUSH1 0x2B PUSH1 0x24 DUP3 ADD MSTORE PUSH32 0x57616C6C6574206973206E6F7420616E2061646D696E6973747261746F722066 PUSH1 0x44 DUP3 ADD MSTORE PUSH11 0x1BDC8818DBDB9D1C9858DD PUSH1 0xAA SHL PUSH1 0x64 DUP3 ADD MSTORE PUSH1 0x84 ADD PUSH2 0x387 JUMP JUMPDEST PUSH1 0x0 PUSH1 0x1 PUSH1 0x1 PUSH1 0xA0 SHL SUB DUP7 AND PUSH1 0x0 SWAP1 DUP2 MSTORE PUSH1 0x2 PUSH1 0x20 SWAP1 DUP2 MSTORE PUSH1 0x40 DUP1 DUP4 KECCAK256 DUP9 DUP5 MSTORE SWAP1 SWAP2 MSTORE SWAP1 KECCAK256 SLOAD PUSH1 0x1 PUSH1 0xC0 SHL SWAP1 DIV PUSH1 0xFF AND PUSH1 0x3 DUP2 GT ISZERO PUSH2 0xC21 JUMPI PUSH2 0xC21 PUSH2 0x2802 JUMP JUMPDEST SUB PUSH2 0xC66 JUMPI PUSH1 0x40 MLOAD PUSH3 0x461BCD PUSH1 0xE5 SHL DUP2 MSTORE PUSH1 0x20 PUSH1 0x4 DUP3 ADD MSTORE PUSH1 0x15 PUSH1 0x24 DUP3 ADD MSTORE PUSH21 0x10DB185A5B481B9BDD081A5B9A5D1A585B1A5E9959 PUSH1 0x5A SHL PUSH1 0x44 DUP3 ADD MSTORE PUSH1 0x64 ADD PUSH2 0x387 JUMP JUMPDEST PUSH1 0x0 PUSH2 0xC78 PUSH1 0xA0 DUP6 ADD PUSH1 0x80 DUP7 ADD PUSH2 0x2C87 JUMP JUMPDEST PUSH1 0x3 DUP2 GT ISZERO PUSH2 0xC89 JUMPI PUSH2 0xC89 PUSH2 0x2802 JUMP JUMPDEST SUB PUSH2 0xCFC JUMPI PUSH1 0x40 MLOAD PUSH3 0x461BCD PUSH1 0xE5 SHL DUP2 MSTORE PUSH1 0x20 PUSH1 0x4 DUP3 ADD MSTORE PUSH1 0x23 PUSH1 0x24 DUP3 ADD MSTORE PUSH32 0x43616E6E6F742073657420696E76616C69642073746F726167652070726F746F PUSH1 0x44 DUP3 ADD MSTORE PUSH32 0x636F6C0000000000000000000000000000000000000000000000000000000000 PUSH1 0x64 DUP3 ADD MSTORE PUSH1 0x84 ADD PUSH2 0x387 JUMP JUMPDEST PUSH1 0x1 PUSH1 0x1 PUSH1 0xA0 SHL SUB DUP6 AND PUSH1 0x0 SWAP1 DUP2 MSTORE PUSH1 0x2 PUSH1 0x20 SWAP1 DUP2 MSTORE PUSH1 0x40 DUP1 DUP4 KECCAK256 DUP8 DUP5 MSTORE SWAP1 SWAP2 MSTORE SWAP1 KECCAK256 SLOAD PUSH5 0x100000000 SWAP1 DIV PUSH4 0xFFFFFFFF AND ISZERO DUP1 PUSH2 0xD7D JUMPI POP PUSH2 0xD42 PUSH1 0x20 DUP5 ADD DUP5 PUSH2 0x2CD0 JUMP JUMPDEST PUSH1 0x1 PUSH1 0x1 PUSH1 0xA0 SHL SUB DUP7 AND PUSH1 0x0 SWAP1 DUP2 MSTORE PUSH1 0x2 PUSH1 0x20 SWAP1 DUP2 MSTORE PUSH1 0x40 DUP1 DUP4 KECCAK256 DUP9 DUP5 MSTORE SWAP1 SWAP2 MSTORE SWAP1 KECCAK256 SLOAD PUSH4 0xFFFFFFFF SWAP2 DUP3 AND PUSH5 0x100000000 SWAP1 SWAP2 DIV SWAP1 SWAP2 AND GT ISZERO JUMPDEST PUSH2 0xDC9 JUMPI PUSH1 0x40 MLOAD PUSH3 0x461BCD PUSH1 0xE5 SHL DUP2 MSTORE PUSH1 0x20 PUSH1 0x4 DUP3 ADD MSTORE PUSH1 0x18 PUSH1 0x24 DUP3 ADD MSTORE PUSH32 0x43616E6E6F7420646563726561736520746F74616C4D61780000000000000000 PUSH1 0x44 DUP3 ADD MSTORE PUSH1 0x64 ADD PUSH2 0x387 JUMP JUMPDEST PUSH1 0x1 PUSH1 0x1 PUSH1 0xA0 SHL SUB DUP6 AND PUSH1 0x0 SWAP1 DUP2 MSTORE PUSH1 0x2 PUSH1 0x20 SWAP1 DUP2 MSTORE PUSH1 0x40 DUP1 DUP4 KECCAK256 DUP8 DUP5 MSTORE SWAP1 SWAP2 MSTORE SWAP1 KECCAK256 SLOAD PUSH1 0x1 PUSH1 0x40 SHL SWAP1 DIV PUSH4 0xFFFFFFFF AND ISZERO DUP1 PUSH2 0xE4B JUMPI POP PUSH2 0xE11 PUSH1 0x40 DUP5 ADD PUSH1 0x20 DUP6 ADD PUSH2 0x2CD0 JUMP JUMPDEST PUSH1 0x1 PUSH1 0x1 PUSH1 0xA0 SHL SUB DUP7 AND PUSH1 0x0 SWAP1 DUP2 MSTORE PUSH1 0x2 PUSH1 0x20 SWAP1 DUP2 MSTORE PUSH1 0x40 DUP1 DUP4 KECCAK256 DUP9 DUP5 MSTORE SWAP1 SWAP2 MSTORE SWAP1 KECCAK256 SLOAD PUSH4 0xFFFFFFFF SWAP2 DUP3 AND PUSH1 0x1 PUSH1 0x40 SHL SWAP1 SWAP2 DIV SWAP1 SWAP2 AND GT ISZERO JUMPDEST PUSH2 0xE97 JUMPI PUSH1 0x40 MLOAD PUSH3 0x461BCD PUSH1 0xE5 SHL DUP2 MSTORE PUSH1 0x20 PUSH1 0x4 DUP3 ADD MSTORE PUSH1 0x19 PUSH1 0x24 DUP3 ADD MSTORE PUSH32 0x43616E6E6F742064656372656173652077616C6C65744D617800000000000000 PUSH1 0x44 DUP3 ADD MSTORE PUSH1 0x64 ADD PUSH2 0x387 JUMP JUMPDEST PUSH2 0xEA7 PUSH1 0x80 DUP5 ADD PUSH1 0x60 DUP6 ADD PUSH2 0x2CA8 JUMP JUMPDEST PUSH6 0xFFFFFFFFFFFF AND ISZERO DUP1 PUSH2 0xEE8 JUMPI POP PUSH2 0xEC6 PUSH1 0x80 DUP5 ADD PUSH1 0x60 DUP6 ADD PUSH2 0x2CA8 JUMP JUMPDEST PUSH6 0xFFFFFFFFFFFF AND PUSH2 0xEDE PUSH1 0x60 DUP6 ADD PUSH1 0x40 DUP7 ADD PUSH2 0x2CA8 JUMP JUMPDEST PUSH6 0xFFFFFFFFFFFF AND LT JUMPDEST PUSH2 0xF5A JUMPI PUSH1 0x40 MLOAD PUSH3 0x461BCD PUSH1 0xE5 SHL DUP2 MSTORE PUSH1 0x20 PUSH1 0x4 DUP3 ADD MSTORE PUSH1 0x36 PUSH1 0x24 DUP3 ADD MSTORE PUSH32 0x43616E6E6F742068617665207374617274446174652067726561746572207468 PUSH1 0x44 DUP3 ADD MSTORE PUSH32 0x616E206F7220657175616C20746F20656E644461746500000000000000000000 PUSH1 0x64 DUP3 ADD MSTORE PUSH1 0x84 ADD PUSH2 0x387 JUMP JUMPDEST PUSH1 0x40 DUP1 MLOAD PUSH2 0x120 DUP2 ADD DUP3 MSTORE PUSH1 0x1 PUSH1 0x1 PUSH1 0xA0 SHL SUB DUP8 AND PUSH1 0x0 SWAP1 DUP2 MSTORE PUSH1 0x2 PUSH1 0x20 SWAP1 DUP2 MSTORE DUP4 DUP3 KECCAK256 DUP9 DUP4 MSTORE DUP2 MSTORE SWAP3 SWAP1 KECCAK256 SLOAD PUSH4 0xFFFFFFFF AND DUP2 MSTORE SWAP1 DUP1 DUP3 ADD SWAP1 PUSH2 0xFA0 SWAP1 DUP7 ADD DUP7 PUSH2 0x2CD0 JUMP JUMPDEST PUSH4 0xFFFFFFFF AND DUP2 MSTORE PUSH1 0x20 ADD DUP5 PUSH1 0x20 ADD PUSH1 0x20 DUP2 ADD SWAP1 PUSH2 0xFBE SWAP2 SWAP1 PUSH2 0x2CD0 JUMP JUMPDEST PUSH4 0xFFFFFFFF AND DUP2 MSTORE PUSH1 0x20 ADD PUSH2 0xFD9 PUSH1 0x60 DUP7 ADD PUSH1 0x40 DUP8 ADD PUSH2 0x2CA8 JUMP JUMPDEST PUSH6 0xFFFFFFFFFFFF AND DUP2 MSTORE PUSH1 0x20 ADD PUSH2 0xFF6 PUSH1 0x80 DUP7 ADD PUSH1 0x60 DUP8 ADD PUSH2 0x2CA8 JUMP JUMPDEST PUSH6 0xFFFFFFFFFFFF AND DUP2 MSTORE PUSH1 0x20 ADD PUSH2 0x1013 PUSH1 0xA0 DUP7 ADD PUSH1 0x80 DUP8 ADD PUSH2 0x2C87 JUMP JUMPDEST PUSH1 0x3 DUP2 GT ISZERO PUSH2 0x1024 JUMPI PUSH2 0x1024 PUSH2 0x2802 JUMP JUMPDEST DUP2 MSTORE PUSH1 0x20 ADD PUSH2 0x1039 PUSH1 0xC0 DUP7 ADD PUSH1 0xA0 DUP8 ADD PUSH2 0x2D27 JUMP JUMPDEST ISZERO ISZERO DUP2 MSTORE PUSH1 0xC0 DUP6 ADD CALLDATALOAD PUSH1 0x20 DUP3 ADD MSTORE PUSH1 0x40 ADD PUSH2 0x1057 PUSH1 0xE0 DUP7 ADD DUP7 PUSH2 0x2D44 JUMP JUMPDEST DUP1 DUP1 PUSH1 0x1F ADD PUSH1 0x20 DUP1 SWAP2 DIV MUL PUSH1 0x20 ADD PUSH1 0x40 MLOAD SWAP1 DUP2 ADD PUSH1 0x40 MSTORE DUP1 SWAP4 SWAP3 SWAP2 SWAP1 DUP2 DUP2 MSTORE PUSH1 0x20 ADD DUP4 DUP4 DUP1 DUP3 DUP5 CALLDATACOPY PUSH1 0x0 SWAP3 ADD DUP3 SWAP1 MSTORE POP SWAP4 SWAP1 SWAP5 MSTORE POP POP PUSH1 0x1 PUSH1 0x1 PUSH1 0xA0 SHL SUB DUP9 AND DUP2 MSTORE PUSH1 0x2 PUSH1 0x20 SWAP1 DUP2 MSTORE PUSH1 0x40 DUP1 DUP4 KECCAK256 DUP10 DUP5 MSTORE DUP3 MSTORE SWAP2 DUP3 SWAP1 KECCAK256 DUP5 MLOAD DUP2 SLOAD SWAP3 DUP7 ADD MLOAD SWAP4 DUP7 ADD MLOAD PUSH1 0x60 DUP8 ADD MLOAD PUSH1 0x80 DUP9 ADD MLOAD PUSH6 0xFFFFFFFFFFFF SWAP1 DUP2 AND PUSH1 0x1 PUSH1 0x90 SHL MUL PUSH32 0xFFFFFFFFFFFFFFFF000000000000FFFFFFFFFFFFFFFFFFFFFFFFFFFFFFFFFFFF SWAP2 SWAP1 SWAP3 AND PUSH1 0x1 PUSH1 0x60 SHL MUL PUSH18 0xFFFFFFFFFFFF000000000000000000000000 NOT PUSH4 0xFFFFFFFF SWAP5 DUP6 AND PUSH1 0x1 PUSH1 0x40 SHL MUL AND PUSH18 0xFFFFFFFFFFFFFFFFFFFF0000000000000000 NOT SWAP9 DUP6 AND PUSH5 0x100000000 MUL PUSH8 0xFFFFFFFFFFFFFFFF NOT SWAP1 SWAP9 AND SWAP5 SWAP1 SWAP6 AND SWAP4 SWAP1 SWAP4 OR SWAP6 SWAP1 SWAP6 OR SWAP6 SWAP1 SWAP6 AND SWAP2 SWAP1 SWAP2 OR OR SWAP2 DUP3 AND DUP4 OR DUP2 SSTORE PUSH1 0xA0 DUP6 ADD MLOAD SWAP1 SWAP4 POP SWAP2 DUP4 SWAP2 PUSH1 0xFF PUSH1 0xC0 SHL NOT SWAP1 SWAP2 AND PUSH32 0xFFFFFFFFFFFFFF00000000000000FFFFFFFFFFFFFFFFFFFFFFFFFFFFFFFFFFFF SWAP1 SWAP2 AND OR PUSH1 0x1 PUSH1 0xC0 SHL DUP4 PUSH1 0x3 DUP2 GT ISZERO PUSH2 0x11B9 JUMPI PUSH2 0x11B9 PUSH2 0x2802 JUMP JUMPDEST MUL OR SWAP1 SSTORE POP PUSH1 0xC0 DUP3 ADD MLOAD DUP2 SLOAD SWAP1 ISZERO ISZERO PUSH1 0x1 PUSH1 0xC8 SHL MUL PUSH1 0xFF PUSH1 0xC8 SHL NOT SWAP1 SWAP2 AND OR DUP2 SSTORE PUSH1 0xE0 DUP3 ADD MLOAD PUSH1 0x1 DUP3 ADD SSTORE PUSH2 0x100 DUP3 ADD MLOAD DUP1 MLOAD PUSH2 0x1200 SWAP2 PUSH1 0x2 DUP5 ADD SWAP2 PUSH1 0x20 SWAP1 SWAP2 ADD SWAP1 PUSH2 0x268B JUMP JUMPDEST POP POP POP POP POP POP POP POP JUMP JUMPDEST PUSH1 0x1 PUSH1 0x1 PUSH1 0xA0 SHL SUB DUP8 AND PUSH1 0x0 SWAP1 DUP2 MSTORE PUSH1 0x2 PUSH1 0x20 SWAP1 DUP2 MSTORE PUSH1 0x40 DUP1 DUP4 KECCAK256 DUP10 DUP5 MSTORE SWAP1 SWAP2 MSTORE DUP2 KECCAK256 SWAP1 DUP2 SLOAD PUSH1 0x1 PUSH1 0xC0 SHL SWAP1 DIV PUSH1 0xFF AND PUSH1 0x3 DUP2 GT ISZERO PUSH2 0x124B JUMPI PUSH2 0x124B PUSH2 0x2802 JUMP JUMPDEST SUB PUSH2 0x1290 JUMPI PUSH1 0x40 MLOAD PUSH3 0x461BCD PUSH1 0xE5 SHL DUP2 MSTORE PUSH1 0x20 PUSH1 0x4 DUP3 ADD MSTORE PUSH1 0x15 PUSH1 0x24 DUP3 ADD MSTORE PUSH21 0x10DB185A5B481B9BDD081A5B9A5D1A585B1A5E9959 PUSH1 0x5A SHL PUSH1 0x44 DUP3 ADD MSTORE PUSH1 0x64 ADD PUSH2 0x387 JUMP JUMPDEST DUP1 SLOAD PUSH1 0x1 PUSH1 0x60 SHL SWAP1 DIV PUSH6 0xFFFFFFFFFFFF AND ISZERO DUP1 PUSH2 0x12BD JUMPI POP DUP1 SLOAD TIMESTAMP PUSH1 0x1 PUSH1 0x60 SHL SWAP1 SWAP2 DIV PUSH6 0xFFFFFFFFFFFF AND LT JUMPDEST PUSH2 0x1309 JUMPI PUSH1 0x40 MLOAD PUSH3 0x461BCD PUSH1 0xE5 SHL DUP2 MSTORE PUSH1 0x20 PUSH1 0x4 DUP3 ADD MSTORE PUSH1 0x1D PUSH1 0x24 DUP3 ADD MSTORE PUSH32 0x5472616E73616374696F6E206265666F72652073746172742064617465000000 PUSH1 0x44 DUP3 ADD MSTORE PUSH1 0x64 ADD PUSH2 0x387 JUMP JUMPDEST DUP1 SLOAD PUSH1 0x1 PUSH1 0x90 SHL SWAP1 DIV PUSH6 0xFFFFFFFFFFFF AND ISZERO DUP1 PUSH2 0x1337 JUMPI POP DUP1 SLOAD TIMESTAMP PUSH1 0x1 PUSH1 0x90 SHL SWAP1 SWAP2 DIV PUSH6 0xFFFFFFFFFFFF AND LT ISZERO JUMPDEST PUSH2 0x1383 JUMPI PUSH1 0x40 MLOAD PUSH3 0x461BCD PUSH1 0xE5 SHL DUP2 MSTORE PUSH1 0x20 PUSH1 0x4 DUP3 ADD MSTORE PUSH1 0x1A PUSH1 0x24 DUP3 ADD MSTORE PUSH32 0x5472616E73616374696F6E20616674657220656E642064617465000000000000 PUSH1 0x44 DUP3 ADD MSTORE PUSH1 0x64 ADD PUSH2 0x387 JUMP JUMPDEST DUP1 SLOAD PUSH5 0x100000000 SWAP1 DIV PUSH4 0xFFFFFFFF AND ISZERO DUP1 PUSH2 0x13C5 JUMPI POP DUP1 SLOAD PUSH4 0xFFFFFFFF PUSH5 0x100000000 DUP3 DIV DUP2 AND SWAP2 PUSH2 0x13BC SWAP2 PUSH2 0xFFFF DUP11 AND SWAP2 AND PUSH2 0x2DBF JUMP JUMPDEST PUSH4 0xFFFFFFFF AND GT ISZERO JUMPDEST PUSH2 0x1437 JUMPI PUSH1 0x40 MLOAD PUSH3 0x461BCD PUSH1 0xE5 SHL DUP2 MSTORE PUSH1 0x20 PUSH1 0x4 DUP3 ADD MSTORE PUSH1 0x21 PUSH1 0x24 DUP3 ADD MSTORE PUSH32 0x546F6F206D616E792072657175657374656420666F72207468697320636C6169 PUSH1 0x44 DUP3 ADD MSTORE PUSH32 0x6D00000000000000000000000000000000000000000000000000000000000000 PUSH1 0x64 DUP3 ADD MSTORE PUSH1 0x84 ADD PUSH2 0x387 JUMP JUMPDEST DUP1 SLOAD PUSH1 0x0 SWAP1 PUSH2 0x144D SWAP1 PUSH4 0xFFFFFFFF AND PUSH1 0x1 PUSH2 0x2DBF JUMP JUMPDEST DUP3 SLOAD PUSH4 0xFFFFFFFF NOT DUP2 AND PUSH2 0xFFFF DUP11 AND PUSH4 0xFFFFFFFF SWAP3 DUP4 AND ADD DUP3 AND OR DUP5 SSTORE PUSH1 0x1 DUP5 ADD SLOAD SWAP2 AND SWAP2 POP ISZERO PUSH2 0x158E JUMPI PUSH2 0xFFFF DUP8 AND DUP6 EQ DUP1 ISZERO PUSH2 0x148E JUMPI POP PUSH2 0xFFFF DUP8 AND DUP4 EQ JUMPDEST PUSH2 0x14DA JUMPI PUSH1 0x40 MLOAD PUSH3 0x461BCD PUSH1 0xE5 SHL DUP2 MSTORE PUSH1 0x20 PUSH1 0x4 DUP3 ADD MSTORE PUSH1 0xD PUSH1 0x24 DUP3 ADD MSTORE PUSH32 0x496E76616C696420696E70757400000000000000000000000000000000000000 PUSH1 0x44 DUP3 ADD MSTORE PUSH1 0x64 ADD PUSH2 0x387 JUMP JUMPDEST PUSH1 0x0 JUMPDEST DUP8 PUSH2 0xFFFF AND DUP2 LT ISZERO PUSH2 0x1588 JUMPI PUSH1 0x0 DUP8 DUP8 DUP4 DUP2 DUP2 LT PUSH2 0x14FD JUMPI PUSH2 0x14FD PUSH2 0x2DE7 JUMP JUMPDEST SWAP1 POP PUSH1 0x20 MUL ADD PUSH1 0x20 DUP2 ADD SWAP1 PUSH2 0x1512 SWAP2 SWAP1 PUSH2 0x2CD0 JUMP JUMPDEST SWAP1 POP PUSH1 0x0 DUP7 DUP7 DUP5 DUP2 DUP2 LT PUSH2 0x1528 JUMPI PUSH2 0x1528 PUSH2 0x2DE7 JUMP JUMPDEST SWAP1 POP PUSH1 0x20 MUL DUP2 ADD SWAP1 PUSH2 0x153A SWAP2 SWAP1 PUSH2 0x2DFD JUMP JUMPDEST DUP1 DUP1 PUSH1 0x20 MUL PUSH1 0x20 ADD PUSH1 0x40 MLOAD SWAP1 DUP2 ADD PUSH1 0x40 MSTORE DUP1 SWAP4 SWAP3 SWAP2 SWAP1 DUP2 DUP2 MSTORE PUSH1 0x20 ADD DUP4 DUP4 PUSH1 0x20 MUL DUP1 DUP3 DUP5 CALLDATACOPY PUSH1 0x0 SWAP3 ADD SWAP2 SWAP1 SWAP2 MSTORE POP SWAP3 SWAP4 POP PUSH2 0x157E SWAP3 POP DUP8 SWAP2 POP DUP15 SWAP1 POP DUP14 DUP6 DUP6 PUSH2 0x231B JUMP JUMPDEST POP POP PUSH1 0x1 ADD PUSH2 0x14DD JUMP JUMPDEST POP PUSH2 0x1698 JUMP JUMPDEST DUP2 SLOAD PUSH1 0x1 PUSH1 0x40 SHL SWAP1 DIV PUSH4 0xFFFFFFFF AND ISZERO PUSH2 0x1698 JUMPI DUP2 SLOAD PUSH1 0x1 PUSH1 0x1 PUSH1 0xA0 SHL SUB DUP11 AND PUSH1 0x0 SWAP1 DUP2 MSTORE PUSH1 0x3 PUSH1 0x20 SWAP1 DUP2 MSTORE PUSH1 0x40 DUP1 DUP4 KECCAK256 DUP13 DUP5 MSTORE DUP3 MSTORE DUP1 DUP4 KECCAK256 CALLER DUP5 MSTORE SWAP1 SWAP2 MSTORE SWAP1 KECCAK256 SLOAD PUSH1 0x1 PUSH1 0x40 SHL SWAP1 SWAP2 DIV PUSH4 0xFFFFFFFF AND SWAP1 PUSH2 0x15EE SWAP1 PUSH2 0xFFFF DUP11 AND SWAP1 PUSH2 0x2E47 JUMP JUMPDEST GT ISZERO PUSH2 0x1662 JUMPI PUSH1 0x40 MLOAD PUSH3 0x461BCD PUSH1 0xE5 SHL DUP2 MSTORE PUSH1 0x20 PUSH1 0x4 DUP3 ADD MSTORE PUSH1 0x22 PUSH1 0x24 DUP3 ADD MSTORE PUSH32 0x546F6F206D616E792072657175657374656420666F7220746869732077616C6C PUSH1 0x44 DUP3 ADD MSTORE PUSH32 0x6574000000000000000000000000000000000000000000000000000000000000 PUSH1 0x64 DUP3 ADD MSTORE PUSH1 0x84 ADD PUSH2 0x387 JUMP JUMPDEST PUSH1 0x1 PUSH1 0x1 PUSH1 0xA0 SHL SUB DUP10 AND PUSH1 0x0 SWAP1 DUP2 MSTORE PUSH1 0x3 PUSH1 0x20 SWAP1 DUP2 MSTORE PUSH1 0x40 DUP1 DUP4 KECCAK256 DUP12 DUP5 MSTORE DUP3 MSTORE DUP1 DUP4 KECCAK256 CALLER DUP5 MSTORE SWAP1 SWAP2 MSTORE SWAP1 KECCAK256 DUP1 SLOAD PUSH2 0xFFFF DUP10 AND ADD SWAP1 SSTORE JUMPDEST PUSH1 0x40 MLOAD PUSH32 0xE00AAB4B00000000000000000000000000000000000000000000000000000000 DUP2 MSTORE CALLER PUSH1 0x4 DUP3 ADD MSTORE PUSH2 0xFFFF DUP9 AND PUSH1 0x24 DUP3 ADD MSTORE PUSH1 0x0 SWAP1 PUSH1 0x1 PUSH1 0x1 PUSH1 0xA0 SHL SUB DUP12 AND SWAP1 PUSH4 0xE00AAB4B SWAP1 PUSH1 0x44 ADD PUSH1 0x0 PUSH1 0x40 MLOAD DUP1 DUP4 SUB DUP2 PUSH1 0x0 DUP8 GAS CALL ISZERO DUP1 ISZERO PUSH2 0x1704 JUMPI RETURNDATASIZE PUSH1 0x0 DUP1 RETURNDATACOPY RETURNDATASIZE PUSH1 0x0 REVERT JUMPDEST POP POP POP POP PUSH1 0x40 MLOAD RETURNDATASIZE PUSH1 0x0 DUP3 RETURNDATACOPY PUSH1 0x1F RETURNDATASIZE SWAP1 DUP2 ADD PUSH1 0x1F NOT AND DUP3 ADD PUSH1 0x40 MSTORE PUSH2 0x172C SWAP2 SWAP1 DUP2 ADD SWAP1 PUSH2 0x2E75 JUMP JUMPDEST SWAP1 POP PUSH1 0x0 JUMPDEST DUP9 PUSH2 0xFFFF AND DUP2 LT ISZERO PUSH2 0x17E1 JUMPI PUSH1 0x40 MLOAD DUP1 PUSH1 0x40 ADD PUSH1 0x40 MSTORE DUP1 DUP12 PUSH1 0x1 PUSH1 0x1 PUSH1 0xE0 SHL SUB AND DUP2 MSTORE PUSH1 0x20 ADD DUP3 DUP6 PUSH2 0x1763 SWAP2 SWAP1 PUSH2 0x2E47 JUMP JUMPDEST PUSH4 0xFFFFFFFF AND SWAP1 MSTORE PUSH1 0x1 PUSH1 0x1 PUSH1 0xA0 SHL SUB DUP13 AND PUSH1 0x0 SWAP1 DUP2 MSTORE PUSH1 0x5 PUSH1 0x20 MSTORE PUSH1 0x40 DUP2 KECCAK256 DUP5 MLOAD SWAP1 SWAP2 SWAP1 DUP6 SWAP1 DUP6 SWAP1 DUP2 LT PUSH2 0x179A JUMPI PUSH2 0x179A PUSH2 0x2DE7 JUMP JUMPDEST PUSH1 0x20 SWAP1 DUP2 MUL SWAP2 SWAP1 SWAP2 ADD DUP2 ADD MLOAD DUP3 MSTORE DUP2 DUP2 ADD SWAP3 SWAP1 SWAP3 MSTORE PUSH1 0x40 ADD PUSH1 0x0 KECCAK256 DUP3 MLOAD SWAP3 SWAP1 SWAP2 ADD MLOAD PUSH4 0xFFFFFFFF AND PUSH1 0x1 PUSH1 0xE0 SHL MUL PUSH1 0x1 PUSH1 0x1 PUSH1 0xE0 SHL SUB SWAP1 SWAP3 AND SWAP2 SWAP1 SWAP2 OR SWAP1 SSTORE PUSH1 0x1 ADD PUSH2 0x1731 JUMP JUMPDEST POP PUSH1 0x40 MLOAD PUSH2 0xFFFF DUP10 AND DUP2 MSTORE DUP10 SWAP1 PUSH1 0x1 PUSH1 0x1 PUSH1 0xA0 SHL SUB DUP13 AND SWAP1 PUSH32 0x74F5D3254DFA39A7B1217A27D5D9B3E061EAFE11720ECA1CF499DA2DC1EB1259 SWAP1 PUSH1 0x20 ADD PUSH1 0x40 MLOAD DUP1 SWAP2 SUB SWAP1 LOG3 POP POP POP POP POP POP POP POP POP POP JUMP JUMPDEST PUSH1 0x1 PUSH1 0x1 PUSH1 0xA0 SHL SUB DUP3 AND PUSH1 0x0 SWAP1 DUP2 MSTORE PUSH1 0x2 PUSH1 0x20 SWAP1 DUP2 MSTORE PUSH1 0x40 DUP1 DUP4 KECCAK256 DUP5 DUP5 MSTORE SWAP1 SWAP2 MSTORE DUP2 KECCAK256 DUP2 DUP2 SLOAD PUSH1 0x1 PUSH1 0xC0 SHL SWAP1 DIV PUSH1 0xFF AND PUSH1 0x3 DUP2 GT ISZERO PUSH2 0x1873 JUMPI PUSH2 0x1873 PUSH2 0x2802 JUMP JUMPDEST SUB PUSH2 0x18B8 JUMPI PUSH1 0x40 MLOAD PUSH3 0x461BCD PUSH1 0xE5 SHL DUP2 MSTORE PUSH1 0x20 PUSH1 0x4 DUP3 ADD MSTORE PUSH1 0x15 PUSH1 0x24 DUP3 ADD MSTORE PUSH21 0x10DB185A5B481B9BDD081A5B9A5D1A585B1A5E9959 PUSH1 0x5A SHL PUSH1 0x44 DUP3 ADD MSTORE PUSH1 0x64 ADD PUSH2 0x387 JUMP JUMPDEST DUP1 SLOAD PUSH1 0x1 PUSH1 0x40 SHL SWAP1 DIV PUSH4 0xFFFFFFFF AND PUSH1 0x0 SUB PUSH2 0x193C JUMPI PUSH1 0x40 MLOAD PUSH3 0x461BCD PUSH1 0xE5 SHL DUP2 MSTORE PUSH1 0x20 PUSH1 0x4 DUP3 ADD MSTORE PUSH1 0x36 PUSH1 0x24 DUP3 ADD MSTORE PUSH32 0x43616E206F6E6C7920726574726965766520666F72206E6F6E2D6D65726B6C65 PUSH1 0x44 DUP3 ADD MSTORE PUSH32 0x20636C61696D7320776974682077616C6C65744D617800000000000000000000 PUSH1 0x64 DUP3 ADD MSTORE PUSH1 0x84 ADD PUSH2 0x387 JUMP JUMPDEST POP POP PUSH1 0x1 PUSH1 0x1 PUSH1 0xA0 SHL SUB DUP1 DUP4 AND PUSH1 0x0 SWAP1 DUP2 MSTORE PUSH1 0x3 PUSH1 0x20 SWAP1 DUP2 MSTORE PUSH1 0x40 DUP1 DUP4 KECCAK256 DUP6 DUP5 MSTORE DUP3 MSTORE DUP1 DUP4 KECCAK256 SWAP4 DUP8 AND DUP4 MSTORE SWAP3 SWAP1 MSTORE KECCAK256 SLOAD SWAP4 SWAP3 POP POP POP JUMP JUMPDEST PUSH1 0x1 PUSH1 0x1 PUSH1 0xA0 SHL SUB DUP6 AND PUSH1 0x0 SWAP1 DUP2 MSTORE PUSH1 0x2 PUSH1 0x20 SWAP1 DUP2 MSTORE PUSH1 0x40 DUP1 DUP4 KECCAK256 DUP8 DUP5 MSTORE SWAP1 SWAP2 MSTORE DUP2 KECCAK256 SWAP1 DUP2 SLOAD PUSH1 0x1 PUSH1 0xC0 SHL SWAP1 DIV PUSH1 0xFF AND PUSH1 0x3 DUP2 GT ISZERO PUSH2 0x19B4 JUMPI PUSH2 0x19B4 PUSH2 0x2802 JUMP JUMPDEST SUB PUSH2 0x19F9 JUMPI PUSH1 0x40 MLOAD PUSH3 0x461BCD PUSH1 0xE5 SHL DUP2 MSTORE PUSH1 0x20 PUSH1 0x4 DUP3 ADD MSTORE PUSH1 0x15 PUSH1 0x24 DUP3 ADD MSTORE PUSH21 0x10DB185A5B481B9BDD081A5B9A5D1A585B1A5E9959 PUSH1 0x5A SHL PUSH1 0x44 DUP3 ADD MSTORE PUSH1 0x64 ADD PUSH2 0x387 JUMP JUMPDEST DUP1 SLOAD PUSH1 0x1 PUSH1 0x60 SHL SWAP1 DIV PUSH6 0xFFFFFFFFFFFF AND ISZERO DUP1 PUSH2 0x1A26 JUMPI POP DUP1 SLOAD TIMESTAMP PUSH1 0x1 PUSH1 0x60 SHL SWAP1 SWAP2 DIV PUSH6 0xFFFFFFFFFFFF AND LT JUMPDEST PUSH2 0x1A72 JUMPI PUSH1 0x40 MLOAD PUSH3 0x461BCD PUSH1 0xE5 SHL DUP2 MSTORE PUSH1 0x20 PUSH1 0x4 DUP3 ADD MSTORE PUSH1 0x1D PUSH1 0x24 DUP3 ADD MSTORE PUSH32 0x5472616E73616374696F6E206265666F72652073746172742064617465000000 PUSH1 0x44 DUP3 ADD MSTORE PUSH1 0x64 ADD PUSH2 0x387 JUMP JUMPDEST DUP1 SLOAD PUSH1 0x1 PUSH1 0x90 SHL SWAP1 DIV PUSH6 0xFFFFFFFFFFFF AND ISZERO DUP1 PUSH2 0x1AA0 JUMPI POP DUP1 SLOAD TIMESTAMP PUSH1 0x1 PUSH1 0x90 SHL SWAP1 SWAP2 DIV PUSH6 0xFFFFFFFFFFFF AND LT ISZERO JUMPDEST PUSH2 0x1AEC JUMPI PUSH1 0x40 MLOAD PUSH3 0x461BCD PUSH1 0xE5 SHL DUP2 MSTORE PUSH1 0x20 PUSH1 0x4 DUP3 ADD MSTORE PUSH1 0x1A PUSH1 0x24 DUP3 ADD MSTORE PUSH32 0x5472616E73616374696F6E20616674657220656E642064617465000000000000 PUSH1 0x44 DUP3 ADD MSTORE PUSH1 0x64 ADD PUSH2 0x387 JUMP JUMPDEST DUP1 SLOAD PUSH5 0x100000000 SWAP1 DIV PUSH4 0xFFFFFFFF AND ISZERO DUP1 PUSH2 0x1B18 JUMPI POP DUP1 SLOAD PUSH4 0xFFFFFFFF PUSH5 0x100000000 DUP3 DIV DUP2 AND SWAP2 AND LT JUMPDEST PUSH2 0x1B8A JUMPI PUSH1 0x40 MLOAD PUSH3 0x461BCD PUSH1 0xE5 SHL DUP2 MSTORE PUSH1 0x20 PUSH1 0x4 DUP3 ADD MSTORE PUSH1 0x2C PUSH1 0x24 DUP3 ADD MSTORE PUSH32 0x4D6178696D756D20746F6B656E7320616C7265616479206D696E74656420666F PUSH1 0x44 DUP3 ADD MSTORE PUSH32 0x72207468697320636C61696D0000000000000000000000000000000000000000 PUSH1 0x64 DUP3 ADD MSTORE PUSH1 0x84 ADD PUSH2 0x387 JUMP JUMPDEST PUSH1 0x1 DUP2 ADD SLOAD ISZERO PUSH2 0x1BD9 JUMPI PUSH2 0x1BD4 DUP2 DUP8 DUP8 DUP8 DUP8 DUP8 DUP1 DUP1 PUSH1 0x20 MUL PUSH1 0x20 ADD PUSH1 0x40 MLOAD SWAP1 DUP2 ADD PUSH1 0x40 MSTORE DUP1 SWAP4 SWAP3 SWAP2 SWAP1 DUP2 DUP2 MSTORE PUSH1 0x20 ADD DUP4 DUP4 PUSH1 0x20 MUL DUP1 DUP3 DUP5 CALLDATACOPY PUSH1 0x0 SWAP3 ADD SWAP2 SWAP1 SWAP2 MSTORE POP PUSH2 0x231B SWAP3 POP POP POP JUMP JUMPDEST PUSH2 0x1CCF JUMP JUMPDEST DUP1 SLOAD PUSH1 0x1 PUSH1 0x40 SHL SWAP1 DIV PUSH4 0xFFFFFFFF AND ISZERO PUSH2 0x1CCF JUMPI DUP1 SLOAD PUSH1 0x1 PUSH1 0x1 PUSH1 0xA0 SHL SUB DUP8 AND PUSH1 0x0 SWAP1 DUP2 MSTORE PUSH1 0x3 PUSH1 0x20 SWAP1 DUP2 MSTORE PUSH1 0x40 DUP1 DUP4 KECCAK256 DUP10 DUP5 MSTORE DUP3 MSTORE DUP1 DUP4 KECCAK256 CALLER DUP5 MSTORE SWAP1 SWAP2 MSTORE SWAP1 KECCAK256 SLOAD PUSH1 0x1 PUSH1 0x40 SHL SWAP1 SWAP2 DIV PUSH4 0xFFFFFFFF AND GT PUSH2 0x1C9C JUMPI PUSH1 0x40 MLOAD PUSH3 0x461BCD PUSH1 0xE5 SHL DUP2 MSTORE PUSH1 0x20 PUSH1 0x4 DUP3 ADD MSTORE PUSH1 0x2D PUSH1 0x24 DUP3 ADD MSTORE PUSH32 0x4D6178696D756D20746F6B656E7320616C7265616479206D696E74656420666F PUSH1 0x44 DUP3 ADD MSTORE PUSH32 0x7220746869732077616C6C657400000000000000000000000000000000000000 PUSH1 0x64 DUP3 ADD MSTORE PUSH1 0x84 ADD PUSH2 0x387 JUMP JUMPDEST PUSH1 0x1 PUSH1 0x1 PUSH1 0xA0 SHL SUB DUP7 AND PUSH1 0x0 SWAP1 DUP2 MSTORE PUSH1 0x3 PUSH1 0x20 SWAP1 DUP2 MSTORE PUSH1 0x40 DUP1 DUP4 KECCAK256 DUP9 DUP5 MSTORE DUP3 MSTORE DUP1 DUP4 KECCAK256 CALLER DUP5 MSTORE SWAP1 SWAP2 MSTORE SWAP1 KECCAK256 DUP1 SLOAD PUSH1 0x1 ADD SWAP1 SSTORE JUMPDEST DUP1 SLOAD PUSH4 0xFFFFFFFF DUP1 DUP3 AND PUSH1 0x1 ADD AND PUSH4 0xFFFFFFFF NOT SWAP1 SWAP2 AND OR DUP2 SSTORE PUSH1 0x40 MLOAD PUSH32 0x2928CA5800000000000000000000000000000000000000000000000000000000 DUP2 MSTORE CALLER PUSH1 0x4 DUP3 ADD MSTORE PUSH1 0x0 SWAP1 PUSH1 0x1 PUSH1 0x1 PUSH1 0xA0 SHL SUB DUP9 AND SWAP1 PUSH4 0x2928CA58 SWAP1 PUSH1 0x24 ADD PUSH1 0x20 PUSH1 0x40 MLOAD DUP1 DUP4 SUB DUP2 PUSH1 0x0 DUP8 GAS CALL ISZERO DUP1 ISZERO PUSH2 0x1D4B JUMPI RETURNDATASIZE PUSH1 0x0 DUP1 RETURNDATACOPY RETURNDATASIZE PUSH1 0x0 REVERT JUMPDEST POP POP POP POP PUSH1 0x40 MLOAD RETURNDATASIZE PUSH1 0x1F NOT PUSH1 0x1F DUP3 ADD AND DUP3 ADD DUP1 PUSH1 0x40 MSTORE POP DUP2 ADD SWAP1 PUSH2 0x1D6F SWAP2 SWAP1 PUSH2 0x2F33 JUMP JUMPDEST PUSH1 0x40 DUP1 MLOAD DUP1 DUP3 ADD DUP3 MSTORE PUSH1 0x1 PUSH1 0x1 PUSH1 0xE0 SHL SUB DUP1 DUP11 AND DUP3 MSTORE DUP6 SLOAD PUSH4 0xFFFFFFFF SWAP1 DUP2 AND PUSH1 0x20 DUP1 DUP6 ADD SWAP2 DUP3 MSTORE PUSH1 0x1 PUSH1 0x1 PUSH1 0xA0 SHL SUB DUP15 AND PUSH1 0x0 DUP2 DUP2 MSTORE PUSH1 0x5 DUP4 MSTORE DUP8 DUP2 KECCAK256 DUP10 DUP3 MSTORE SWAP1 SWAP3 MSTORE DUP7 DUP3 KECCAK256 SWAP6 MLOAD SWAP3 MLOAD SWAP1 SWAP4 AND PUSH1 0x1 PUSH1 0xE0 SHL MUL SWAP2 SWAP1 SWAP4 AND OR SWAP1 SWAP3 SSTORE SWAP2 MLOAD SWAP3 SWAP4 POP DUP9 SWAP3 SWAP1 SWAP2 PUSH32 0x5D404F369772CFAB2B65717FCA9BC2077EFEAB89A0DBEC036BF0C13783154EB1 SWAP2 LOG3 POP POP POP POP POP POP POP JUMP JUMPDEST PUSH1 0x1 PUSH1 0x1 PUSH1 0xA0 SHL SUB DUP4 AND PUSH1 0x0 SWAP1 DUP2 MSTORE PUSH1 0x2 PUSH1 0x20 SWAP1 DUP2 MSTORE PUSH1 0x40 DUP1 DUP4 KECCAK256 DUP6 DUP5 MSTORE SWAP1 SWAP2 MSTORE DUP2 KECCAK256 DUP2 DUP2 SLOAD PUSH1 0x1 PUSH1 0xC0 SHL SWAP1 DIV PUSH1 0xFF AND PUSH1 0x3 DUP2 GT ISZERO PUSH2 0x1E41 JUMPI PUSH2 0x1E41 PUSH2 0x2802 JUMP JUMPDEST SUB PUSH2 0x1E86 JUMPI PUSH1 0x40 MLOAD PUSH3 0x461BCD PUSH1 0xE5 SHL DUP2 MSTORE PUSH1 0x20 PUSH1 0x4 DUP3 ADD MSTORE PUSH1 0x15 PUSH1 0x24 DUP3 ADD MSTORE PUSH21 0x10DB185A5B481B9BDD081A5B9A5D1A585B1A5E9959 PUSH1 0x5A SHL PUSH1 0x44 DUP3 ADD MSTORE PUSH1 0x64 ADD PUSH2 0x387 JUMP JUMPDEST DUP1 PUSH1 0x1 ADD SLOAD PUSH1 0x0 SUB PUSH2 0x1EDA JUMPI PUSH1 0x40 MLOAD PUSH3 0x461BCD PUSH1 0xE5 SHL DUP2 MSTORE PUSH1 0x20 PUSH1 0x4 DUP3 ADD MSTORE PUSH1 0x1C PUSH1 0x24 DUP3 ADD MSTORE PUSH32 0x43616E206F6E6C7920636865636B206D65726B6C6520636C61696D7300000000 PUSH1 0x44 DUP3 ADD MSTORE PUSH1 0x64 ADD PUSH2 0x387 JUMP JUMPDEST POP POP PUSH1 0x1 PUSH1 0x1 PUSH1 0xA0 SHL SUB DUP4 AND PUSH1 0x0 SWAP1 DUP2 MSTORE PUSH1 0x4 PUSH1 0x20 SWAP1 DUP2 MSTORE PUSH1 0x40 DUP1 DUP4 KECCAK256 DUP6 DUP5 MSTORE DUP3 MSTORE DUP1 DUP4 KECCAK256 PUSH3 0xFFFFFF PUSH1 0x8 DUP7 SWAP1 SHR AND DUP5 MSTORE SWAP1 SWAP2 MSTORE SWAP1 KECCAK256 SLOAD PUSH1 0x1 PUSH1 0xFF DUP4 AND SHL AND ISZERO ISZERO SWAP4 SWAP3 POP POP POP JUMP JUMPDEST PUSH1 0x1 PUSH1 0x1 PUSH1 0xA0 SHL SUB DUP3 AND PUSH1 0x0 SWAP1 DUP2 MSTORE PUSH1 0x5 PUSH1 0x20 SWAP1 DUP2 MSTORE PUSH1 0x40 DUP1 DUP4 KECCAK256 DUP5 DUP5 MSTORE DUP3 MSTORE SWAP2 DUP3 SWAP1 KECCAK256 DUP3 MLOAD DUP1 DUP5 ADD SWAP1 SWAP4 MSTORE SLOAD PUSH1 0x1 PUSH1 0x1 PUSH1 0xE0 SHL SUB DUP2 AND DUP1 DUP5 MSTORE PUSH1 0x1 PUSH1 0xE0 SHL SWAP1 SWAP2 DIV PUSH4 0xFFFFFFFF AND SWAP2 DUP4 ADD SWAP2 SWAP1 SWAP2 MSTORE PUSH1 0x60 SWAP2 SWAP1 PUSH2 0x1FC1 JUMPI PUSH1 0x40 MLOAD PUSH3 0x461BCD PUSH1 0xE5 SHL DUP2 MSTORE PUSH1 0x20 PUSH1 0x4 DUP3 ADD MSTORE PUSH1 0x14 PUSH1 0x24 DUP3 ADD MSTORE PUSH32 0x546F6B656E20646F6573206E6F74206578697374000000000000000000000000 PUSH1 0x44 DUP3 ADD MSTORE PUSH1 0x64 ADD PUSH2 0x387 JUMP JUMPDEST PUSH1 0x1 PUSH1 0x1 PUSH1 0xA0 SHL SUB DUP5 AND PUSH1 0x0 SWAP1 DUP2 MSTORE PUSH1 0x2 PUSH1 0x20 SWAP1 DUP2 MSTORE PUSH1 0x40 DUP1 DUP4 KECCAK256 DUP5 MLOAD PUSH1 0x1 PUSH1 0x1 PUSH1 0xE0 SHL SUB AND DUP5 MSTORE DUP3 MSTORE DUP1 DUP4 KECCAK256 DUP2 MLOAD PUSH2 0x120 DUP2 ADD DUP4 MSTORE DUP2 SLOAD PUSH4 0xFFFFFFFF DUP1 DUP3 AND DUP4 MSTORE PUSH5 0x100000000 DUP3 DIV DUP2 AND SWAP6 DUP4 ADD SWAP6 SWAP1 SWAP6 MSTORE PUSH1 0x1 PUSH1 0x40 SHL DUP2 DIV SWAP1 SWAP5 AND SWAP3 DUP2 ADD SWAP3 SWAP1 SWAP3 MSTORE PUSH6 0xFFFFFFFFFFFF PUSH1 0x1 PUSH1 0x60 SHL DUP5 DIV DUP2 AND PUSH1 0x60 DUP5 ADD MSTORE PUSH1 0x1 PUSH1 0x90 SHL DUP5 DIV AND PUSH1 0x80 DUP4 ADD MSTORE SWAP1 SWAP2 PUSH1 0xA0 DUP4 ADD SWAP1 PUSH1 0xFF PUSH1 0x1 PUSH1 0xC0 SHL SWAP1 SWAP2 DIV AND PUSH1 0x3 DUP2 GT ISZERO PUSH2 0x206A JUMPI PUSH2 0x206A PUSH2 0x2802 JUMP JUMPDEST PUSH1 0x3 DUP2 GT ISZERO PUSH2 0x207B JUMPI PUSH2 0x207B PUSH2 0x2802 JUMP JUMPDEST DUP2 MSTORE DUP2 SLOAD PUSH1 0x1 PUSH1 0xC8 SHL SWAP1 DIV PUSH1 0xFF AND ISZERO ISZERO PUSH1 0x20 DUP3 ADD MSTORE PUSH1 0x1 DUP3 ADD SLOAD PUSH1 0x40 DUP3 ADD MSTORE PUSH1 0x2 DUP3 ADD DUP1 SLOAD PUSH1 0x60 SWAP1 SWAP3 ADD SWAP2 PUSH2 0x20AF SWAP1 PUSH2 0x2D8B JUMP JUMPDEST DUP1 PUSH1 0x1F ADD PUSH1 0x20 DUP1 SWAP2 DIV MUL PUSH1 0x20 ADD PUSH1 0x40 MLOAD SWAP1 DUP2 ADD PUSH1 0x40 MSTORE DUP1 SWAP3 SWAP2 SWAP1 DUP2 DUP2 MSTORE PUSH1 0x20 ADD DUP3 DUP1 SLOAD PUSH2 0x20DB SWAP1 PUSH2 0x2D8B JUMP JUMPDEST DUP1 ISZERO PUSH2 0x2128 JUMPI DUP1 PUSH1 0x1F LT PUSH2 0x20FD JUMPI PUSH2 0x100 DUP1 DUP4 SLOAD DIV MUL DUP4 MSTORE SWAP2 PUSH1 0x20 ADD SWAP2 PUSH2 0x2128 JUMP JUMPDEST DUP3 ADD SWAP2 SWAP1 PUSH1 0x0 MSTORE PUSH1 0x20 PUSH1 0x0 KECCAK256 SWAP1 JUMPDEST DUP2 SLOAD DUP2 MSTORE SWAP1 PUSH1 0x1 ADD SWAP1 PUSH1 0x20 ADD DUP1 DUP4 GT PUSH2 0x210B JUMPI DUP3 SWAP1 SUB PUSH1 0x1F AND DUP3 ADD SWAP2 JUMPDEST POP POP POP SWAP2 SWAP1 SWAP3 MSTORE POP POP PUSH1 0x40 DUP1 MLOAD PUSH1 0x20 DUP2 ADD SWAP1 SWAP2 MSTORE PUSH1 0x0 DUP2 MSTORE SWAP2 SWAP3 POP PUSH1 0x2 SWAP1 POP DUP3 PUSH1 0xA0 ADD MLOAD PUSH1 0x3 DUP2 GT ISZERO PUSH2 0x215D JUMPI PUSH2 0x215D PUSH2 0x2802 JUMP JUMPDEST SUB PUSH2 0x219C JUMPI POP PUSH1 0x40 DUP1 MLOAD DUP1 DUP3 ADD SWAP1 SWAP2 MSTORE PUSH1 0x14 DUP2 MSTORE PUSH32 0x68747470733A2F2F617277656176652E6E65742F000000000000000000000000 PUSH1 0x20 DUP3 ADD MSTORE PUSH2 0x21EF JUMP JUMPDEST PUSH1 0x3 DUP3 PUSH1 0xA0 ADD MLOAD PUSH1 0x3 DUP2 GT ISZERO PUSH2 0x21B4 JUMPI PUSH2 0x21B4 PUSH2 0x2802 JUMP JUMPDEST SUB PUSH2 0x21EF JUMPI POP PUSH1 0x40 DUP1 MLOAD DUP1 DUP3 ADD SWAP1 SWAP2 MSTORE PUSH1 0x7 DUP2 MSTORE PUSH32 0x697066733A2F2F00000000000000000000000000000000000000000000000000 PUSH1 0x20 DUP3 ADD MSTORE JUMPDEST PUSH2 0x100 DUP3 ADD MLOAD PUSH1 0x40 MLOAD PUSH2 0x2206 SWAP2 DUP4 SWAP2 PUSH1 0x20 ADD PUSH2 0x2F4C JUMP JUMPDEST PUSH1 0x40 MLOAD PUSH1 0x20 DUP2 DUP4 SUB SUB DUP2 MSTORE SWAP1 PUSH1 0x40 MSTORE SWAP4 POP DUP2 PUSH1 0xC0 ADD MLOAD PUSH2 0x2257 JUMPI DUP4 PUSH2 0x2234 DUP5 PUSH1 0x20 ADD MLOAD PUSH4 0xFFFFFFFF AND PUSH2 0x248C JUMP JUMPDEST PUSH1 0x40 MLOAD PUSH1 0x20 ADD PUSH2 0x2245 SWAP3 SWAP2 SWAP1 PUSH2 0x2F72 JUMP JUMPDEST PUSH1 0x40 MLOAD PUSH1 0x20 DUP2 DUP4 SUB SUB DUP2 MSTORE SWAP1 PUSH1 0x40 MSTORE SWAP4 POP JUMPDEST POP POP POP SWAP3 SWAP2 POP POP JUMP JUMPDEST PUSH1 0x60 DUP2 PUSH8 0xFFFFFFFFFFFFFFFF DUP2 GT ISZERO PUSH2 0x227B JUMPI PUSH2 0x227B PUSH2 0x2E5F JUMP JUMPDEST PUSH1 0x40 MLOAD SWAP1 DUP1 DUP3 MSTORE DUP1 PUSH1 0x20 MUL PUSH1 0x20 ADD DUP3 ADD PUSH1 0x40 MSTORE DUP1 ISZERO PUSH2 0x22A4 JUMPI DUP2 PUSH1 0x20 ADD PUSH1 0x20 DUP3 MUL DUP1 CALLDATASIZE DUP4 CALLDATACOPY ADD SWAP1 POP JUMPDEST POP SWAP1 POP PUSH1 0x0 JUMPDEST DUP3 DUP2 LT ISZERO PUSH2 0x2312 JUMPI PUSH2 0x22DE DUP7 DUP7 DUP7 DUP7 DUP6 DUP2 DUP2 LT PUSH2 0x22C9 JUMPI PUSH2 0x22C9 PUSH2 0x2DE7 JUMP JUMPDEST SWAP1 POP PUSH1 0x20 MUL ADD PUSH1 0x20 DUP2 ADD SWAP1 PUSH2 0x1A8 SWAP2 SWAP1 PUSH2 0x2CD0 JUMP JUMPDEST DUP3 DUP3 DUP2 MLOAD DUP2 LT PUSH2 0x22F0 JUMPI PUSH2 0x22F0 PUSH2 0x2DE7 JUMP JUMPDEST SWAP2 ISZERO ISZERO PUSH1 0x20 SWAP3 DUP4 MUL SWAP2 SWAP1 SWAP2 ADD SWAP1 SWAP2 ADD MSTORE DUP1 PUSH2 0x230A DUP2 PUSH2 0x2FCA JUMP JUMPDEST SWAP2 POP POP PUSH2 0x22AA JUMP JUMPDEST POP SWAP5 SWAP4 POP POP POP POP JUMP JUMPDEST PUSH1 0x40 MLOAD PUSH12 0xFFFFFFFFFFFFFFFFFFFFFFFF NOT CALLER PUSH1 0x60 SHL AND PUSH1 0x20 DUP3 ADD MSTORE PUSH1 0x1 PUSH1 0x1 PUSH1 0xE0 SHL SUB NOT PUSH1 0xE0 DUP5 SWAP1 SHL AND PUSH1 0x34 DUP3 ADD MSTORE PUSH1 0x0 SWAP1 PUSH1 0x38 ADD PUSH1 0x40 MLOAD PUSH1 0x20 DUP2 DUP4 SUB SUB DUP2 MSTORE SWAP1 PUSH1 0x40 MSTORE DUP1 MLOAD SWAP1 PUSH1 0x20 ADD KECCAK256 SWAP1 POP PUSH2 0x2377 DUP3 DUP8 PUSH1 0x1 ADD SLOAD DUP4 PUSH2 0x25C9 JUMP JUMPDEST PUSH2 0x23C3 JUMPI PUSH1 0x40 MLOAD PUSH3 0x461BCD PUSH1 0xE5 SHL DUP2 MSTORE PUSH1 0x20 PUSH1 0x4 DUP3 ADD MSTORE PUSH1 0x1D PUSH1 0x24 DUP3 ADD MSTORE PUSH32 0x436F756C64206E6F7420766572696679206D65726B6C652070726F6F66000000 PUSH1 0x44 DUP3 ADD MSTORE PUSH1 0x64 ADD PUSH2 0x387 JUMP JUMPDEST PUSH1 0x1 PUSH1 0x1 PUSH1 0xA0 SHL SUB DUP6 AND PUSH1 0x0 SWAP1 DUP2 MSTORE PUSH1 0x4 PUSH1 0x20 SWAP1 DUP2 MSTORE PUSH1 0x40 DUP1 DUP4 KECCAK256 DUP8 DUP5 MSTORE DUP3 MSTORE DUP1 DUP4 KECCAK256 PUSH3 0xFFFFFF PUSH1 0x8 DUP9 SWAP1 SHR AND DUP1 DUP6 MSTORE SWAP3 MSTORE SWAP1 SWAP2 KECCAK256 SLOAD PUSH1 0x1 PUSH1 0xFF DUP7 AND SHL DUP1 DUP3 AND ISZERO PUSH2 0x2450 JUMPI PUSH1 0x40 MLOAD PUSH3 0x461BCD PUSH1 0xE5 SHL DUP2 MSTORE PUSH1 0x20 PUSH1 0x4 DUP3 ADD MSTORE PUSH1 0xE PUSH1 0x24 DUP3 ADD MSTORE PUSH32 0x416C7265616479206D696E746564000000000000000000000000000000000000 PUSH1 0x44 DUP3 ADD MSTORE PUSH1 0x64 ADD PUSH2 0x387 JUMP JUMPDEST PUSH1 0x1 PUSH1 0x1 PUSH1 0xA0 SHL SUB SWAP1 SWAP8 AND PUSH1 0x0 SWAP1 DUP2 MSTORE PUSH1 0x4 PUSH1 0x20 SWAP1 DUP2 MSTORE PUSH1 0x40 DUP1 DUP4 KECCAK256 SWAP9 DUP4 MSTORE SWAP8 DUP2 MSTORE DUP8 DUP3 KECCAK256 SWAP4 DUP3 MSTORE SWAP3 SWAP1 SWAP3 MSTORE SWAP5 SWAP1 KECCAK256 SWAP4 SWAP1 SWAP5 OR SWAP1 SWAP3 SSTORE POP POP POP POP JUMP JUMPDEST PUSH1 0x60 DUP2 PUSH1 0x0 SUB PUSH2 0x24CF JUMPI POP POP PUSH1 0x40 DUP1 MLOAD DUP1 DUP3 ADD SWAP1 SWAP2 MSTORE PUSH1 0x1 DUP2 MSTORE PUSH32 0x3000000000000000000000000000000000000000000000000000000000000000 PUSH1 0x20 DUP3 ADD MSTORE SWAP1 JUMP JUMPDEST DUP2 PUSH1 0x0 JUMPDEST DUP2 ISZERO PUSH2 0x24F9 JUMPI DUP1 PUSH2 0x24E3 DUP2 PUSH2 0x2FCA JUMP JUMPDEST SWAP2 POP PUSH2 0x24F2 SWAP1 POP PUSH1 0xA DUP4 PUSH2 0x2FF9 JUMP JUMPDEST SWAP2 POP PUSH2 0x24D3 JUMP JUMPDEST PUSH1 0x0 DUP2 PUSH8 0xFFFFFFFFFFFFFFFF DUP2 GT ISZERO PUSH2 0x2514 JUMPI PUSH2 0x2514 PUSH2 0x2E5F JUMP JUMPDEST PUSH1 0x40 MLOAD SWAP1 DUP1 DUP3 MSTORE DUP1 PUSH1 0x1F ADD PUSH1 0x1F NOT AND PUSH1 0x20 ADD DUP3 ADD PUSH1 0x40 MSTORE DUP1 ISZERO PUSH2 0x253E JUMPI PUSH1 0x20 DUP3 ADD DUP2 DUP1 CALLDATASIZE DUP4 CALLDATACOPY ADD SWAP1 POP JUMPDEST POP SWAP1 POP JUMPDEST DUP5 ISZERO PUSH2 0x25C1 JUMPI PUSH2 0x2553 PUSH1 0x1 DUP4 PUSH2 0x300D JUMP JUMPDEST SWAP2 POP PUSH2 0x2560 PUSH1 0xA DUP7 PUSH2 0x3024 JUMP JUMPDEST PUSH2 0x256B SWAP1 PUSH1 0x30 PUSH2 0x2E47 JUMP JUMPDEST PUSH1 0xF8 SHL DUP2 DUP4 DUP2 MLOAD DUP2 LT PUSH2 0x2580 JUMPI PUSH2 0x2580 PUSH2 0x2DE7 JUMP JUMPDEST PUSH1 0x20 ADD ADD SWAP1 PUSH31 0xFFFFFFFFFFFFFFFFFFFFFFFFFFFFFFFFFFFFFFFFFFFFFFFFFFFFFFFFFFFFFF NOT AND SWAP1 DUP2 PUSH1 0x0 BYTE SWAP1 MSTORE8 POP PUSH2 0x25BA PUSH1 0xA DUP7 PUSH2 0x2FF9 JUMP JUMPDEST SWAP5 POP PUSH2 0x2542 JUMP JUMPDEST SWAP5 SWAP4 POP POP POP POP JUMP JUMPDEST PUSH1 0x0 DUP3 PUSH2 0x25D6 DUP6 DUP5 PUSH2 0x25DF JUMP JUMPDEST EQ SWAP5 SWAP4 POP POP POP POP JUMP JUMPDEST PUSH1 0x0 DUP2 DUP2 JUMPDEST DUP5 MLOAD DUP2 LT ISZERO PUSH2 0x2683 JUMPI PUSH1 0x0 DUP6 DUP3 DUP2 MLOAD DUP2 LT PUSH2 0x2601 JUMPI PUSH2 0x2601 PUSH2 0x2DE7 JUMP JUMPDEST PUSH1 0x20 MUL PUSH1 0x20 ADD ADD MLOAD SWAP1 POP DUP1 DUP4 GT PUSH2 0x2643 JUMPI PUSH1 0x40 DUP1 MLOAD PUSH1 0x20 DUP2 ADD DUP6 SWAP1 MSTORE SWAP1 DUP2 ADD DUP3 SWAP1 MSTORE PUSH1 0x60 ADD PUSH1 0x40 MLOAD PUSH1 0x20 DUP2 DUP4 SUB SUB DUP2 MSTORE SWAP1 PUSH1 0x40 MSTORE DUP1 MLOAD SWAP1 PUSH1 0x20 ADD KECCAK256 SWAP3 POP PUSH2 0x2670 JUMP JUMPDEST PUSH1 0x40 DUP1 MLOAD PUSH1 0x20 DUP2 ADD DUP4 SWAP1 MSTORE SWAP1 DUP2 ADD DUP5 SWAP1 MSTORE PUSH1 0x60 ADD PUSH1 0x40 MLOAD PUSH1 0x20 DUP2 DUP4 SUB SUB DUP2 MSTORE SWAP1 PUSH1 0x40 MSTORE DUP1 MLOAD SWAP1 PUSH1 0x20 ADD KECCAK256 SWAP3 POP JUMPDEST POP DUP1 PUSH2 0x267B DUP2 PUSH2 0x2FCA JUMP JUMPDEST SWAP2 POP POP PUSH2 0x25E4 JUMP JUMPDEST POP SWAP4 SWAP3 POP POP POP JUMP JUMPDEST DUP3 DUP1 SLOAD PUSH2 0x2697 SWAP1 PUSH2 0x2D8B JUMP JUMPDEST SWAP1 PUSH1 0x0 MSTORE PUSH1 0x20 PUSH1 0x0 KECCAK256 SWAP1 PUSH1 0x1F ADD PUSH1 0x20 SWAP1 DIV DUP2 ADD SWAP3 DUP3 PUSH2 0x26B9 JUMPI PUSH1 0x0 DUP6 SSTORE PUSH2 0x26FF JUMP JUMPDEST DUP3 PUSH1 0x1F LT PUSH2 0x26D2 JUMPI DUP1 MLOAD PUSH1 0xFF NOT AND DUP4 DUP1 ADD OR DUP6 SSTORE PUSH2 0x26FF JUMP JUMPDEST DUP3 DUP1 ADD PUSH1 0x1 ADD DUP6 SSTORE DUP3 ISZERO PUSH2 0x26FF JUMPI SWAP2 DUP3 ADD JUMPDEST DUP3 DUP2 GT ISZERO PUSH2 0x26FF JUMPI DUP3 MLOAD DUP3 SSTORE SWAP2 PUSH1 0x20 ADD SWAP2 SWAP1 PUSH1 0x1 ADD SWAP1 PUSH2 0x26E4 JUMP JUMPDEST POP PUSH2 0x270B SWAP3 SWAP2 POP PUSH2 0x270F JUMP JUMPDEST POP SWAP1 JUMP JUMPDEST JUMPDEST DUP1 DUP3 GT ISZERO PUSH2 0x270B JUMPI PUSH1 0x0 DUP2 SSTORE PUSH1 0x1 ADD PUSH2 0x2710 JUMP JUMPDEST PUSH1 0x0 PUSH1 0x20 DUP3 DUP5 SUB SLT ISZERO PUSH2 0x2736 JUMPI PUSH1 0x0 DUP1 REVERT JUMPDEST DUP2 CALLDATALOAD PUSH1 0x1 PUSH1 0x1 PUSH1 0xE0 SHL SUB NOT DUP2 AND DUP2 EQ PUSH2 0x274E JUMPI PUSH1 0x0 DUP1 REVERT JUMPDEST SWAP4 SWAP3 POP POP POP JUMP JUMPDEST DUP1 CALLDATALOAD PUSH1 0x1 PUSH1 0x1 PUSH1 0xA0 SHL SUB DUP2 AND DUP2 EQ PUSH2 0x276C JUMPI PUSH1 0x0 DUP1 REVERT JUMPDEST SWAP2 SWAP1 POP JUMP JUMPDEST PUSH1 0x0 PUSH2 0x100 DUP3 DUP5 SUB SLT ISZERO PUSH2 0x2784 JUMPI PUSH1 0x0 DUP1 REVERT JUMPDEST POP SWAP2 SWAP1 POP JUMP JUMPDEST PUSH1 0x0 DUP1 PUSH1 0x40 DUP4 DUP6 SUB SLT ISZERO PUSH2 0x279D JUMPI PUSH1 0x0 DUP1 REVERT JUMPDEST PUSH2 0x27A6 DUP4 PUSH2 0x2755 JUMP JUMPDEST SWAP2 POP PUSH1 0x20 DUP4 ADD CALLDATALOAD PUSH8 0xFFFFFFFFFFFFFFFF DUP2 GT ISZERO PUSH2 0x27C2 JUMPI PUSH1 0x0 DUP1 REVERT JUMPDEST PUSH2 0x27CE DUP6 DUP3 DUP7 ADD PUSH2 0x2771 JUMP JUMPDEST SWAP2 POP POP SWAP3 POP SWAP3 SWAP1 POP JUMP JUMPDEST PUSH1 0x0 DUP1 PUSH1 0x40 DUP4 DUP6 SUB SLT ISZERO PUSH2 0x27EB JUMPI PUSH1 0x0 DUP1 REVERT JUMPDEST PUSH2 0x27F4 DUP4 PUSH2 0x2755 JUMP JUMPDEST SWAP5 PUSH1 0x20 SWAP4 SWAP1 SWAP4 ADD CALLDATALOAD SWAP4 POP POP POP JUMP JUMPDEST PUSH4 0x4E487B71 PUSH1 0xE0 SHL PUSH1 0x0 MSTORE PUSH1 0x21 PUSH1 0x4 MSTORE PUSH1 0x24 PUSH1 0x0 REVERT JUMPDEST PUSH1 0x4 DUP2 LT PUSH2 0x2836 JUMPI PUSH4 0x4E487B71 PUSH1 0xE0 SHL PUSH1 0x0 MSTORE PUSH1 0x21 PUSH1 0x4 MSTORE PUSH1 0x24 PUSH1 0x0 REVERT JUMPDEST SWAP1 MSTORE JUMP JUMPDEST PUSH1 0x0 JUMPDEST DUP4 DUP2 LT ISZERO PUSH2 0x2855 JUMPI DUP2 DUP2 ADD MLOAD DUP4 DUP3 ADD MSTORE PUSH1 0x20 ADD PUSH2 0x283D JUMP JUMPDEST DUP4 DUP2 GT ISZERO PUSH2 0x2864 JUMPI PUSH1 0x0 DUP5 DUP5 ADD MSTORE JUMPDEST POP POP POP POP JUMP JUMPDEST PUSH1 0x0 DUP2 MLOAD DUP1 DUP5 MSTORE PUSH2 0x2882 DUP2 PUSH1 0x20 DUP7 ADD PUSH1 0x20 DUP7 ADD PUSH2 0x283A JUMP JUMPDEST PUSH1 0x1F ADD PUSH1 0x1F NOT AND SWAP3 SWAP1 SWAP3 ADD PUSH1 0x20 ADD SWAP3 SWAP2 POP POP JUMP JUMPDEST PUSH1 0x20 DUP2 MSTORE PUSH2 0x28AD PUSH1 0x20 DUP3 ADD DUP4 MLOAD PUSH4 0xFFFFFFFF AND SWAP1 MSTORE JUMP JUMPDEST PUSH1 0x0 PUSH1 0x20 DUP4 ADD MLOAD PUSH2 0x28C6 PUSH1 0x40 DUP5 ADD DUP3 PUSH4 0xFFFFFFFF AND SWAP1 MSTORE JUMP JUMPDEST POP PUSH1 0x40 DUP4 ADD MLOAD PUSH4 0xFFFFFFFF DUP2 AND PUSH1 0x60 DUP5 ADD MSTORE POP PUSH1 0x60 DUP4 ADD MLOAD PUSH6 0xFFFFFFFFFFFF DUP2 AND PUSH1 0x80 DUP5 ADD MSTORE POP PUSH1 0x80 DUP4 ADD MLOAD PUSH6 0xFFFFFFFFFFFF DUP2 AND PUSH1 0xA0 DUP5 ADD MSTORE POP PUSH1 0xA0 DUP4 ADD MLOAD PUSH2 0x2913 PUSH1 0xC0 DUP5 ADD DUP3 PUSH2 0x2818 JUMP JUMPDEST POP PUSH1 0xC0 DUP4 ADD MLOAD DUP1 ISZERO ISZERO PUSH1 0xE0 DUP5 ADD MSTORE POP PUSH1 0xE0 DUP4 ADD MLOAD PUSH2 0x100 DUP4 DUP2 ADD SWAP2 SWAP1 SWAP2 MSTORE DUP4 ADD MLOAD PUSH2 0x120 DUP1 DUP5 ADD MSTORE PUSH2 0x25C1 PUSH2 0x140 DUP5 ADD DUP3 PUSH2 0x286A JUMP JUMPDEST PUSH1 0x0 DUP1 PUSH1 0x0 PUSH1 0x60 DUP5 DUP7 SUB SLT ISZERO PUSH2 0x295E JUMPI PUSH1 0x0 DUP1 REVERT JUMPDEST PUSH2 0x2967 DUP5 PUSH2 0x2755 JUMP JUMPDEST SWAP3 POP PUSH1 0x20 DUP5 ADD CALLDATALOAD SWAP2 POP PUSH1 0x40 DUP5 ADD CALLDATALOAD PUSH8 0xFFFFFFFFFFFFFFFF DUP2 GT ISZERO PUSH2 0x298A JUMPI PUSH1 0x0 DUP1 REVERT JUMPDEST PUSH2 0x2996 DUP7 DUP3 DUP8 ADD PUSH2 0x2771 JUMP JUMPDEST SWAP2 POP POP SWAP3 POP SWAP3 POP SWAP3 JUMP JUMPDEST PUSH1 0x0 DUP1 DUP4 PUSH1 0x1F DUP5 ADD SLT PUSH2 0x29B2 JUMPI PUSH1 0x0 DUP1 REVERT JUMPDEST POP DUP2 CALLDATALOAD PUSH8 0xFFFFFFFFFFFFFFFF DUP2 GT ISZERO PUSH2 0x29CA JUMPI PUSH1 0x0 DUP1 REVERT JUMPDEST PUSH1 0x20 DUP4 ADD SWAP2 POP DUP4 PUSH1 0x20 DUP3 PUSH1 0x5 SHL DUP6 ADD ADD GT ISZERO PUSH2 0x29E5 JUMPI PUSH1 0x0 DUP1 REVERT JUMPDEST SWAP3 POP SWAP3 SWAP1 POP JUMP JUMPDEST PUSH1 0x0 DUP1 PUSH1 0x0 DUP1 PUSH1 0x0 DUP1 PUSH1 0x0 PUSH1 0xA0 DUP9 DUP11 SUB SLT ISZERO PUSH2 0x2A07 JUMPI PUSH1 0x0 DUP1 REVERT JUMPDEST PUSH2 0x2A10 DUP9 PUSH2 0x2755 JUMP JUMPDEST SWAP7 POP PUSH1 0x20 DUP9 ADD CALLDATALOAD SWAP6 POP PUSH1 0x40 DUP9 ADD CALLDATALOAD PUSH2 0xFFFF DUP2 AND DUP2 EQ PUSH2 0x2A2E JUMPI PUSH1 0x0 DUP1 REVERT JUMPDEST SWAP5 POP PUSH1 0x60 DUP9 ADD CALLDATALOAD PUSH8 0xFFFFFFFFFFFFFFFF DUP1 DUP3 GT ISZERO PUSH2 0x2A4B JUMPI PUSH1 0x0 DUP1 REVERT JUMPDEST PUSH2 0x2A57 DUP12 DUP4 DUP13 ADD PUSH2 0x29A0 JUMP JUMPDEST SWAP1 SWAP7 POP SWAP5 POP PUSH1 0x80 DUP11 ADD CALLDATALOAD SWAP2 POP DUP1 DUP3 GT ISZERO PUSH2 0x2A70 JUMPI PUSH1 0x0 DUP1 REVERT JUMPDEST POP PUSH2 0x2A7D DUP11 DUP3 DUP12 ADD PUSH2 0x29A0 JUMP JUMPDEST SWAP9 SWAP12 SWAP8 SWAP11 POP SWAP6 SWAP9 POP SWAP4 SWAP7 SWAP3 SWAP6 SWAP3 SWAP4 POP POP POP JUMP JUMPDEST PUSH1 0x0 DUP1 PUSH1 0x0 PUSH1 0x60 DUP5 DUP7 SUB SLT ISZERO PUSH2 0x2AA5 JUMPI PUSH1 0x0 DUP1 REVERT JUMPDEST PUSH2 0x2AAE DUP5 PUSH2 0x2755 JUMP JUMPDEST SWAP3 POP PUSH2 0x2ABC PUSH1 0x20 DUP6 ADD PUSH2 0x2755 JUMP JUMPDEST SWAP2 POP PUSH1 0x40 DUP5 ADD CALLDATALOAD SWAP1 POP SWAP3 POP SWAP3 POP SWAP3 JUMP JUMPDEST DUP1 CALLDATALOAD PUSH4 0xFFFFFFFF DUP2 AND DUP2 EQ PUSH2 0x276C JUMPI PUSH1 0x0 DUP1 REVERT JUMPDEST PUSH1 0x0 DUP1 PUSH1 0x0 DUP1 PUSH1 0x0 PUSH1 0x80 DUP7 DUP9 SUB SLT ISZERO PUSH2 0x2AF8 JUMPI PUSH1 0x0 DUP1 REVERT JUMPDEST PUSH2 0x2B01 DUP7 PUSH2 0x2755 JUMP JUMPDEST SWAP5 POP PUSH1 0x20 DUP7 ADD CALLDATALOAD SWAP4 POP PUSH2 0x2B16 PUSH1 0x40 DUP8 ADD PUSH2 0x2ACC JUMP JUMPDEST SWAP3 POP PUSH1 0x60 DUP7 ADD CALLDATALOAD PUSH8 0xFFFFFFFFFFFFFFFF DUP2 GT ISZERO PUSH2 0x2B32 JUMPI PUSH1 0x0 DUP1 REVERT JUMPDEST PUSH2 0x2B3E DUP9 DUP3 DUP10 ADD PUSH2 0x29A0 JUMP JUMPDEST SWAP7 SWAP10 SWAP6 SWAP9 POP SWAP4 SWAP7 POP SWAP3 SWAP5 SWAP4 SWAP3 POP POP POP JUMP JUMPDEST PUSH1 0x0 DUP1 PUSH1 0x0 PUSH1 0x60 DUP5 DUP7 SUB SLT ISZERO PUSH2 0x2B64 JUMPI PUSH1 0x0 DUP1 REVERT JUMPDEST PUSH2 0x2B6D DUP5 PUSH2 0x2755 JUMP JUMPDEST SWAP3 POP PUSH1 0x20 DUP5 ADD CALLDATALOAD SWAP2 POP PUSH2 0x2B82 PUSH1 0x40 DUP6 ADD PUSH2 0x2ACC JUMP JUMPDEST SWAP1 POP SWAP3 POP SWAP3 POP SWAP3 JUMP JUMPDEST PUSH1 0x0 PUSH1 0x20 DUP3 DUP5 SUB SLT ISZERO PUSH2 0x2B9D JUMPI PUSH1 0x0 DUP1 REVERT JUMPDEST PUSH2 0x274E DUP3 PUSH2 0x2755 JUMP JUMPDEST PUSH1 0x20 DUP2 MSTORE PUSH1 0x0 PUSH2 0x274E PUSH1 0x20 DUP4 ADD DUP5 PUSH2 0x286A JUMP JUMPDEST PUSH1 0x0 DUP1 PUSH1 0x0 DUP1 PUSH1 0x60 DUP6 DUP8 SUB SLT ISZERO PUSH2 0x2BCF JUMPI PUSH1 0x0 DUP1 REVERT JUMPDEST PUSH2 0x2BD8 DUP6 PUSH2 0x2755 JUMP JUMPDEST SWAP4 POP PUSH1 0x20 DUP6 ADD CALLDATALOAD SWAP3 POP PUSH1 0x40 DUP6 ADD CALLDATALOAD PUSH8 0xFFFFFFFFFFFFFFFF DUP2 GT ISZERO PUSH2 0x2BFB JUMPI PUSH1 0x0 DUP1 REVERT JUMPDEST PUSH2 0x2C07 DUP8 DUP3 DUP9 ADD PUSH2 0x29A0 JUMP JUMPDEST SWAP6 SWAP9 SWAP5 SWAP8 POP SWAP6 POP POP POP POP JUMP JUMPDEST PUSH1 0x20 DUP1 DUP3 MSTORE DUP3 MLOAD DUP3 DUP3 ADD DUP2 SWAP1 MSTORE PUSH1 0x0 SWAP2 SWAP1 DUP5 DUP3 ADD SWAP1 PUSH1 0x40 DUP6 ADD SWAP1 DUP5 JUMPDEST DUP2 DUP2 LT ISZERO PUSH2 0x2C4D JUMPI DUP4 MLOAD ISZERO ISZERO DUP4 MSTORE SWAP3 DUP5 ADD SWAP3 SWAP2 DUP5 ADD SWAP2 PUSH1 0x1 ADD PUSH2 0x2C2F JUMP JUMPDEST POP SWAP1 SWAP7 SWAP6 POP POP POP POP POP POP JUMP JUMPDEST DUP1 ISZERO ISZERO DUP2 EQ PUSH2 0x2C67 JUMPI PUSH1 0x0 DUP1 REVERT JUMPDEST POP JUMP JUMPDEST PUSH1 0x0 PUSH1 0x20 DUP3 DUP5 SUB SLT ISZERO PUSH2 0x2C7C JUMPI PUSH1 0x0 DUP1 REVERT JUMPDEST DUP2 MLOAD PUSH2 0x274E DUP2 PUSH2 0x2C59 JUMP JUMPDEST PUSH1 0x0 PUSH1 0x20 DUP3 DUP5 SUB SLT ISZERO PUSH2 0x2C99 JUMPI PUSH1 0x0 DUP1 REVERT JUMPDEST DUP2 CALLDATALOAD PUSH1 0x4 DUP2 LT PUSH2 0x274E JUMPI PUSH1 0x0 DUP1 REVERT JUMPDEST PUSH1 0x0 PUSH1 0x20 DUP3 DUP5 SUB SLT ISZERO PUSH2 0x2CBA JUMPI PUSH1 0x0 DUP1 REVERT JUMPDEST DUP2 CALLDATALOAD PUSH6 0xFFFFFFFFFFFF DUP2 AND DUP2 EQ PUSH2 0x274E JUMPI PUSH1 0x0 DUP1 REVERT JUMPDEST PUSH1 0x0 PUSH1 0x20 DUP3 DUP5 SUB SLT ISZERO PUSH2 0x2CE2 JUMPI PUSH1 0x0 DUP1 REVERT JUMPDEST PUSH2 0x274E DUP3 PUSH2 0x2ACC JUMP JUMPDEST PUSH4 0x4E487B71 PUSH1 0xE0 SHL PUSH1 0x0 MSTORE PUSH1 0x11 PUSH1 0x4 MSTORE PUSH1 0x24 PUSH1 0x0 REVERT JUMPDEST PUSH1 0x0 PUSH1 0x1 PUSH1 0x1 PUSH1 0xE0 SHL SUB DUP1 DUP4 AND DUP2 DUP2 SUB PUSH2 0x2D1D JUMPI PUSH2 0x2D1D PUSH2 0x2CEB JUMP JUMPDEST PUSH1 0x1 ADD SWAP4 SWAP3 POP POP POP JUMP JUMPDEST PUSH1 0x0 PUSH1 0x20 DUP3 DUP5 SUB SLT ISZERO PUSH2 0x2D39 JUMPI PUSH1 0x0 DUP1 REVERT JUMPDEST DUP2 CALLDATALOAD PUSH2 0x274E DUP2 PUSH2 0x2C59 JUMP JUMPDEST PUSH1 0x0 DUP1 DUP4 CALLDATALOAD PUSH1 0x1E NOT DUP5 CALLDATASIZE SUB ADD DUP2 SLT PUSH2 0x2D5B JUMPI PUSH1 0x0 DUP1 REVERT JUMPDEST DUP4 ADD DUP1 CALLDATALOAD SWAP2 POP PUSH8 0xFFFFFFFFFFFFFFFF DUP3 GT ISZERO PUSH2 0x2D76 JUMPI PUSH1 0x0 DUP1 REVERT JUMPDEST PUSH1 0x20 ADD SWAP2 POP CALLDATASIZE DUP2 SWAP1 SUB DUP3 SGT ISZERO PUSH2 0x29E5 JUMPI PUSH1 0x0 DUP1 REVERT JUMPDEST PUSH1 0x1 DUP2 DUP2 SHR SWAP1 DUP3 AND DUP1 PUSH2 0x2D9F JUMPI PUSH1 0x7F DUP3 AND SWAP2 POP JUMPDEST PUSH1 0x20 DUP3 LT DUP2 SUB PUSH2 0x2784 JUMPI PUSH4 0x4E487B71 PUSH1 0xE0 SHL PUSH1 0x0 MSTORE PUSH1 0x22 PUSH1 0x4 MSTORE PUSH1 0x24 PUSH1 0x0 REVERT JUMPDEST PUSH1 0x0 PUSH4 0xFFFFFFFF DUP1 DUP4 AND DUP2 DUP6 AND DUP1 DUP4 SUB DUP3 GT ISZERO PUSH2 0x2DDE JUMPI PUSH2 0x2DDE PUSH2 0x2CEB JUMP JUMPDEST ADD SWAP5 SWAP4 POP POP POP POP JUMP JUMPDEST PUSH4 0x4E487B71 PUSH1 0xE0 SHL PUSH1 0x0 MSTORE PUSH1 0x32 PUSH1 0x4 MSTORE PUSH1 0x24 PUSH1 0x0 REVERT JUMPDEST PUSH1 0x0 DUP1 DUP4 CALLDATALOAD PUSH1 0x1E NOT DUP5 CALLDATASIZE SUB ADD DUP2 SLT PUSH2 0x2E14 JUMPI PUSH1 0x0 DUP1 REVERT JUMPDEST DUP4 ADD DUP1 CALLDATALOAD SWAP2 POP PUSH8 0xFFFFFFFFFFFFFFFF DUP3 GT ISZERO PUSH2 0x2E2F JUMPI PUSH1 0x0 DUP1 REVERT JUMPDEST PUSH1 0x20 ADD SWAP2 POP PUSH1 0x5 DUP2 SWAP1 SHL CALLDATASIZE SUB DUP3 SGT ISZERO PUSH2 0x29E5 JUMPI PUSH1 0x0 DUP1 REVERT JUMPDEST PUSH1 0x0 DUP3 NOT DUP3 GT ISZERO PUSH2 0x2E5A JUMPI PUSH2 0x2E5A PUSH2 0x2CEB JUMP JUMPDEST POP ADD SWAP1 JUMP JUMPDEST PUSH4 0x4E487B71 PUSH1 0xE0 SHL PUSH1 0x0 MSTORE PUSH1 0x41 PUSH1 0x4 MSTORE PUSH1 0x24 PUSH1 0x0 REVERT JUMPDEST PUSH1 0x0 PUSH1 0x20 DUP1 DUP4 DUP6 SUB SLT ISZERO PUSH2 0x2E88 JUMPI PUSH1 0x0 DUP1 REVERT JUMPDEST DUP3 MLOAD PUSH8 0xFFFFFFFFFFFFFFFF DUP1 DUP3 GT ISZERO PUSH2 0x2EA0 JUMPI PUSH1 0x0 DUP1 REVERT JUMPDEST DUP2 DUP6 ADD SWAP2 POP DUP6 PUSH1 0x1F DUP4 ADD SLT PUSH2 0x2EB4 JUMPI PUSH1 0x0 DUP1 REVERT JUMPDEST DUP2 MLOAD DUP2 DUP2 GT ISZERO PUSH2 0x2EC6 JUMPI PUSH2 0x2EC6 PUSH2 0x2E5F JUMP JUMPDEST DUP1 PUSH1 0x5 SHL PUSH1 0x40 MLOAD PUSH1 0x1F NOT PUSH1 0x3F DUP4 ADD AND DUP2 ADD DUP2 DUP2 LT DUP6 DUP3 GT OR ISZERO PUSH2 0x2EEB JUMPI PUSH2 0x2EEB PUSH2 0x2E5F JUMP JUMPDEST PUSH1 0x40 MSTORE SWAP2 DUP3 MSTORE DUP5 DUP3 ADD SWAP3 POP DUP4 DUP2 ADD DUP6 ADD SWAP2 DUP9 DUP4 GT ISZERO PUSH2 0x2F09 JUMPI PUSH1 0x0 DUP1 REVERT JUMPDEST SWAP4 DUP6 ADD SWAP4 JUMPDEST DUP3 DUP6 LT ISZERO PUSH2 0x2F27 JUMPI DUP5 MLOAD DUP5 MSTORE SWAP4 DUP6 ADD SWAP4 SWAP3 DUP6 ADD SWAP3 PUSH2 0x2F0E JUMP JUMPDEST SWAP9 SWAP8 POP POP POP POP POP POP POP POP JUMP JUMPDEST PUSH1 0x0 PUSH1 0x20 DUP3 DUP5 SUB SLT ISZERO PUSH2 0x2F45 JUMPI PUSH1 0x0 DUP1 REVERT JUMPDEST POP MLOAD SWAP2 SWAP1 POP JUMP JUMPDEST PUSH1 0x0 DUP4 MLOAD PUSH2 0x2F5E DUP2 DUP5 PUSH1 0x20 DUP9 ADD PUSH2 0x283A JUMP JUMPDEST DUP4 MLOAD SWAP1 DUP4 ADD SWAP1 PUSH2 0x2DDE DUP2 DUP4 PUSH1 0x20 DUP9 ADD PUSH2 0x283A JUMP JUMPDEST PUSH1 0x0 DUP4 MLOAD PUSH2 0x2F84 DUP2 DUP5 PUSH1 0x20 DUP9 ADD PUSH2 0x283A JUMP JUMPDEST PUSH32 0x2F00000000000000000000000000000000000000000000000000000000000000 SWAP1 DUP4 ADD SWAP1 DUP2 MSTORE DUP4 MLOAD PUSH2 0x2FBE DUP2 PUSH1 0x1 DUP5 ADD PUSH1 0x20 DUP9 ADD PUSH2 0x283A JUMP JUMPDEST ADD PUSH1 0x1 ADD SWAP5 SWAP4 POP POP POP POP JUMP JUMPDEST PUSH1 0x0 PUSH1 0x1 DUP3 ADD PUSH2 0x2FDC JUMPI PUSH2 0x2FDC PUSH2 0x2CEB JUMP JUMPDEST POP PUSH1 0x1 ADD SWAP1 JUMP JUMPDEST PUSH4 0x4E487B71 PUSH1 0xE0 SHL PUSH1 0x0 MSTORE PUSH1 0x12 PUSH1 0x4 MSTORE PUSH1 0x24 PUSH1 0x0 REVERT JUMPDEST PUSH1 0x0 DUP3 PUSH2 0x3008 JUMPI PUSH2 0x3008 PUSH2 0x2FE3 JUMP JUMPDEST POP DIV SWAP1 JUMP JUMPDEST PUSH1 0x0 DUP3 DUP3 LT ISZERO PUSH2 0x301F JUMPI PUSH2 0x301F PUSH2 0x2CEB JUMP JUMPDEST POP SUB SWAP1 JUMP JUMPDEST PUSH1 0x0 DUP3 PUSH2 0x3033 JUMPI PUSH2 0x3033 PUSH2 0x2FE3 JUMP JUMPDEST POP MOD SWAP1 JUMP INVALID LOG2 PUSH5 0x6970667358 0x22 SLT KECCAK256 CALLDATASIZE 0xA9 PUSH9 0x5F79261920CEBDA45A DUP14 0xBB SWAP12 0xDB PUSH23 0xDDD5B19B4FD52C3D0E88FFFBCD500C64736F6C63430008 0xE STOP CALLER "
				},
				"gasEstimates": {
					"creation": {
						"codeDepositCost": "2479600",
						"executionCost": "24779",
						"totalCost": "2504379"
					},
					"external": {
						"checkMintIndex(address,uint256,uint32)": "infinite",
						"checkMintIndices(address,uint256,uint32[])": "infinite",
						"getClaim(address,uint256)": "infinite",
						"getClaimCount(address)": "2577",
						"getTotalMints(address,address,uint256)": "infinite",
						"initializeClaim(address,(uint32,uint32,uint48,uint48,uint8,bool,bytes32,string))": "infinite",
						"mint(address,uint256,uint32,bytes32[])": "infinite",
						"mintBatch(address,uint256,uint16,uint32[],bytes32[][])": "infinite",
						"supportsInterface(bytes4)": "487",
						"tokenURI(address,uint256)": "infinite",
						"updateClaim(address,uint256,(uint32,uint32,uint48,uint48,uint8,bool,bytes32,string))": "infinite"
					},
					"internal": {
						"_checkMerkleAndUpdate(struct IERC721LazyClaim.Claim storage pointer,address,uint256,uint32,bytes32[] memory)": "infinite"
					}
				},
				"methodIdentifiers": {
					"checkMintIndex(address,uint256,uint32)": "cda08536",
					"checkMintIndices(address,uint256,uint32[])": "f8a6137b",
					"getClaim(address,uint256)": "0f79ab39",
					"getClaimCount(address)": "d5fdfe87",
					"getTotalMints(address,address,uint256)": "42f3bef4",
					"initializeClaim(address,(uint32,uint32,uint48,uint48,uint8,bool,bytes32,string))": "037b79db",
					"mint(address,uint256,uint32,bytes32[])": "bbf2a8c6",
					"mintBatch(address,uint256,uint16,uint32[],bytes32[][])": "3512da33",
					"supportsInterface(bytes4)": "01ffc9a7",
					"tokenURI(address,uint256)": "e9dc6375",
					"updateClaim(address,uint256,(uint32,uint32,uint48,uint48,uint8,bool,bytes32,string))": "1831a643"
				}
			},
			"storageLayout": {
				"storage": [
					{
						"astId": 740,
						"contract": "contracts/manifold/lazyclaim/ERC721LazyClaim.sol:ERC721LazyClaim",
						"label": "_status",
						"offset": 0,
						"slot": "0",
						"type": "t_uint256"
					},
					{
						"astId": 1752,
						"contract": "contracts/manifold/lazyclaim/ERC721LazyClaim.sol:ERC721LazyClaim",
						"label": "_claimCounts",
						"offset": 0,
						"slot": "1",
						"type": "t_mapping(t_address,t_uint224)"
					},
					{
						"astId": 1759,
						"contract": "contracts/manifold/lazyclaim/ERC721LazyClaim.sol:ERC721LazyClaim",
						"label": "_claims",
						"offset": 0,
						"slot": "2",
						"type": "t_mapping(t_address,t_mapping(t_uint256,t_struct(Claim)2914_storage))"
					},
					{
						"astId": 1767,
						"contract": "contracts/manifold/lazyclaim/ERC721LazyClaim.sol:ERC721LazyClaim",
						"label": "_mintsPerWallet",
						"offset": 0,
						"slot": "3",
						"type": "t_mapping(t_address,t_mapping(t_uint256,t_mapping(t_address,t_uint256)))"
					},
					{
						"astId": 1775,
						"contract": "contracts/manifold/lazyclaim/ERC721LazyClaim.sol:ERC721LazyClaim",
						"label": "_claimMintIndices",
						"offset": 0,
						"slot": "4",
						"type": "t_mapping(t_address,t_mapping(t_uint256,t_mapping(t_uint256,t_uint256)))"
					},
					{
						"astId": 1787,
						"contract": "contracts/manifold/lazyclaim/ERC721LazyClaim.sol:ERC721LazyClaim",
						"label": "_tokenClaims",
						"offset": 0,
						"slot": "5",
						"type": "t_mapping(t_address,t_mapping(t_uint256,t_struct(TokenClaim)1780_storage))"
					}
				],
				"types": {
					"t_address": {
						"encoding": "inplace",
						"label": "address",
						"numberOfBytes": "20"
					},
					"t_bool": {
						"encoding": "inplace",
						"label": "bool",
						"numberOfBytes": "1"
					},
					"t_bytes32": {
						"encoding": "inplace",
						"label": "bytes32",
						"numberOfBytes": "32"
					},
					"t_enum(StorageProtocol)2876": {
						"encoding": "inplace",
						"label": "enum IERC721LazyClaim.StorageProtocol",
						"numberOfBytes": "1"
					},
					"t_mapping(t_address,t_mapping(t_uint256,t_mapping(t_address,t_uint256)))": {
						"encoding": "mapping",
						"key": "t_address",
						"label": "mapping(address => mapping(uint256 => mapping(address => uint256)))",
						"numberOfBytes": "32",
						"value": "t_mapping(t_uint256,t_mapping(t_address,t_uint256))"
					},
					"t_mapping(t_address,t_mapping(t_uint256,t_mapping(t_uint256,t_uint256)))": {
						"encoding": "mapping",
						"key": "t_address",
						"label": "mapping(address => mapping(uint256 => mapping(uint256 => uint256)))",
						"numberOfBytes": "32",
						"value": "t_mapping(t_uint256,t_mapping(t_uint256,t_uint256))"
					},
					"t_mapping(t_address,t_mapping(t_uint256,t_struct(Claim)2914_storage))": {
						"encoding": "mapping",
						"key": "t_address",
						"label": "mapping(address => mapping(uint256 => struct IERC721LazyClaim.Claim))",
						"numberOfBytes": "32",
						"value": "t_mapping(t_uint256,t_struct(Claim)2914_storage)"
					},
					"t_mapping(t_address,t_mapping(t_uint256,t_struct(TokenClaim)1780_storage))": {
						"encoding": "mapping",
						"key": "t_address",
						"label": "mapping(address => mapping(uint256 => struct ERC721LazyClaim.TokenClaim))",
						"numberOfBytes": "32",
						"value": "t_mapping(t_uint256,t_struct(TokenClaim)1780_storage)"
					},
					"t_mapping(t_address,t_uint224)": {
						"encoding": "mapping",
						"key": "t_address",
						"label": "mapping(address => uint224)",
						"numberOfBytes": "32",
						"value": "t_uint224"
					},
					"t_mapping(t_address,t_uint256)": {
						"encoding": "mapping",
						"key": "t_address",
						"label": "mapping(address => uint256)",
						"numberOfBytes": "32",
						"value": "t_uint256"
					},
					"t_mapping(t_uint256,t_mapping(t_address,t_uint256))": {
						"encoding": "mapping",
						"key": "t_uint256",
						"label": "mapping(uint256 => mapping(address => uint256))",
						"numberOfBytes": "32",
						"value": "t_mapping(t_address,t_uint256)"
					},
					"t_mapping(t_uint256,t_mapping(t_uint256,t_uint256))": {
						"encoding": "mapping",
						"key": "t_uint256",
						"label": "mapping(uint256 => mapping(uint256 => uint256))",
						"numberOfBytes": "32",
						"value": "t_mapping(t_uint256,t_uint256)"
					},
					"t_mapping(t_uint256,t_struct(Claim)2914_storage)": {
						"encoding": "mapping",
						"key": "t_uint256",
						"label": "mapping(uint256 => struct IERC721LazyClaim.Claim)",
						"numberOfBytes": "32",
						"value": "t_struct(Claim)2914_storage"
					},
					"t_mapping(t_uint256,t_struct(TokenClaim)1780_storage)": {
						"encoding": "mapping",
						"key": "t_uint256",
						"label": "mapping(uint256 => struct ERC721LazyClaim.TokenClaim)",
						"numberOfBytes": "32",
						"value": "t_struct(TokenClaim)1780_storage"
					},
					"t_mapping(t_uint256,t_uint256)": {
						"encoding": "mapping",
						"key": "t_uint256",
						"label": "mapping(uint256 => uint256)",
						"numberOfBytes": "32",
						"value": "t_uint256"
					},
					"t_string_storage": {
						"encoding": "bytes",
						"label": "string",
						"numberOfBytes": "32"
					},
					"t_struct(Claim)2914_storage": {
						"encoding": "inplace",
						"label": "struct IERC721LazyClaim.Claim",
						"members": [
							{
								"astId": 2896,
								"contract": "contracts/manifold/lazyclaim/ERC721LazyClaim.sol:ERC721LazyClaim",
								"label": "total",
								"offset": 0,
								"slot": "0",
								"type": "t_uint32"
							},
							{
								"astId": 2898,
								"contract": "contracts/manifold/lazyclaim/ERC721LazyClaim.sol:ERC721LazyClaim",
								"label": "totalMax",
								"offset": 4,
								"slot": "0",
								"type": "t_uint32"
							},
							{
								"astId": 2900,
								"contract": "contracts/manifold/lazyclaim/ERC721LazyClaim.sol:ERC721LazyClaim",
								"label": "walletMax",
								"offset": 8,
								"slot": "0",
								"type": "t_uint32"
							},
							{
								"astId": 2902,
								"contract": "contracts/manifold/lazyclaim/ERC721LazyClaim.sol:ERC721LazyClaim",
								"label": "startDate",
								"offset": 12,
								"slot": "0",
								"type": "t_uint48"
							},
							{
								"astId": 2904,
								"contract": "contracts/manifold/lazyclaim/ERC721LazyClaim.sol:ERC721LazyClaim",
								"label": "endDate",
								"offset": 18,
								"slot": "0",
								"type": "t_uint48"
							},
							{
								"astId": 2907,
								"contract": "contracts/manifold/lazyclaim/ERC721LazyClaim.sol:ERC721LazyClaim",
								"label": "storageProtocol",
								"offset": 24,
								"slot": "0",
								"type": "t_enum(StorageProtocol)2876"
							},
							{
								"astId": 2909,
								"contract": "contracts/manifold/lazyclaim/ERC721LazyClaim.sol:ERC721LazyClaim",
								"label": "identical",
								"offset": 25,
								"slot": "0",
								"type": "t_bool"
							},
							{
								"astId": 2911,
								"contract": "contracts/manifold/lazyclaim/ERC721LazyClaim.sol:ERC721LazyClaim",
								"label": "merkleRoot",
								"offset": 0,
								"slot": "1",
								"type": "t_bytes32"
							},
							{
								"astId": 2913,
								"contract": "contracts/manifold/lazyclaim/ERC721LazyClaim.sol:ERC721LazyClaim",
								"label": "location",
								"offset": 0,
								"slot": "2",
								"type": "t_string_storage"
							}
						],
						"numberOfBytes": "96"
					},
					"t_struct(TokenClaim)1780_storage": {
						"encoding": "inplace",
						"label": "struct ERC721LazyClaim.TokenClaim",
						"members": [
							{
								"astId": 1777,
								"contract": "contracts/manifold/lazyclaim/ERC721LazyClaim.sol:ERC721LazyClaim",
								"label": "claimIndex",
								"offset": 0,
								"slot": "0",
								"type": "t_uint224"
							},
							{
								"astId": 1779,
								"contract": "contracts/manifold/lazyclaim/ERC721LazyClaim.sol:ERC721LazyClaim",
								"label": "mintOrder",
								"offset": 28,
								"slot": "0",
								"type": "t_uint32"
							}
						],
						"numberOfBytes": "32"
					},
					"t_uint224": {
						"encoding": "inplace",
						"label": "uint224",
						"numberOfBytes": "28"
					},
					"t_uint256": {
						"encoding": "inplace",
						"label": "uint256",
						"numberOfBytes": "32"
					},
					"t_uint32": {
						"encoding": "inplace",
						"label": "uint32",
						"numberOfBytes": "4"
					},
					"t_uint48": {
						"encoding": "inplace",
						"label": "uint48",
						"numberOfBytes": "6"
					}
				}
			},
			"userdoc": {
				"kind": "user",
				"methods": {
					"checkMintIndex(address,uint256,uint32)": {
						"notice": "See {IERC721LazyClaim-checkMintIndex}."
					},
					"checkMintIndices(address,uint256,uint32[])": {
						"notice": "See {IERC721LazyClaim-checkMintIndices}."
					},
					"getClaim(address,uint256)": {
						"notice": "See {IERC721LazyClaim-getClaim}."
					},
					"getClaimCount(address)": {
						"notice": "See {IERC721LazyClaim-getClaimCount}."
					},
					"getTotalMints(address,address,uint256)": {
						"notice": "See {IERC721LazyClaim-getTotalMints}."
					},
					"initializeClaim(address,(uint32,uint32,uint48,uint48,uint8,bool,bytes32,string))": {
						"notice": "See {IERC721LazyClaim-initializeClaim}."
					},
					"mint(address,uint256,uint32,bytes32[])": {
						"notice": "See {IERC721LazyClaim-mint}."
					},
					"mintBatch(address,uint256,uint16,uint32[],bytes32[][])": {
						"notice": "See {IERC721LazyClaim-mintBatch}."
					},
					"tokenURI(address,uint256)": {
						"notice": "See {ICreatorExtensionTokenURI-tokenURI}."
					},
					"updateClaim(address,uint256,(uint32,uint32,uint48,uint48,uint8,bool,bytes32,string))": {
						"notice": "See {IERC721LazyClaim-udpateClaim}."
					}
				},
				"notice": "Lazy claim with optional whitelist ERC721 tokens",
				"version": 1
			}
		}
	}
}