{
	"data": {
		"bytecode": {
			"linkReferences": {},
			"object": "60806040526fb1bbfe1bf5c5934c4bb9c30fef15e57a600160006101000a81548173ffffffffffffffffffffffffffffffffffffffff021916908373ffffffffffffffffffffffffffffffffffffffff1602179055503480156200006257600080fd5b506040516200607638038062006076833981810160405281019062000088919062000178565b6001600081905550600073ffffffffffffffffffffffffffffffffffffffff168173ffffffffffffffffffffffffffffffffffffffff1614620001075780600160006101000a81548173ffffffffffffffffffffffffffffffffffffffff021916908373ffffffffffffffffffffffffffffffffffffffff1602179055505b50620001aa565b600080fd5b600073ffffffffffffffffffffffffffffffffffffffff82169050919050565b6000620001408262000113565b9050919050565b620001528162000133565b81146200015e57600080fd5b50565b600081519050620001728162000147565b92915050565b6000602082840312156200019157620001906200010e565b5b6000620001a18482850162000161565b91505092915050565b615ebc80620001ba6000396000f3fe6080604052600436106100c25760003560e01c806383b6da801161007f578063d5fdfe8711610059578063d5fdfe8714610291578063e9dc6375146102ce578063f8a6137b1461030b578063fa2b068f14610348576100c2565b806383b6da80146101ee578063a310099c1461022b578063cda0853614610254576100c2565b806301ffc9a7146100c75780630f79ab391461010457806326c858a41461014157806342f3bef41461015d5780634daadff71461019a5780635f2f5129146101c5575b600080fd5b3480156100d357600080fd5b506100ee60048036038101906100e99190613b7e565b610364565b6040516100fb9190613bc6565b60405180910390f35b34801561011057600080fd5b5061012b60048036038101906101269190613c75565b61049e565b6040516101389190613f22565b60405180910390f35b61015b60048036038101906101569190614039565b6107dc565b005b34801561016957600080fd5b50610184600480360381019061017f9190614108565b61109b565b604051610191919061416a565b60405180910390f35b3480156101a657600080fd5b506101af61125d565b6040516101bc9190614194565b60405180910390f35b3480156101d157600080fd5b506101ec60048036038101906101e7919061425b565b611283565b005b3480156101fa57600080fd5b5061021560048036038101906102109190614327565b6116ab565b6040516102229190614392565b60405180910390f35b34801561023757600080fd5b50610252600480360381019061024d91906143ad565b6120c0565b005b34801561026057600080fd5b5061027b60048036038101906102769190614448565b612740565b6040516102889190613bc6565b60405180910390f35b34801561029d57600080fd5b506102b860048036038101906102b3919061449b565b6128f5565b6040516102c59190614392565b60405180910390f35b3480156102da57600080fd5b506102f560048036038101906102f09190613c75565b612984565b6040516103029190614512565b60405180910390f35b34801561031757600080fd5b50610332600480360381019061032d9190614534565b612de0565b60405161033f9190614666565b60405180910390f35b610362600480360381019061035d91906146de565b612eb1565b005b60007f0e1ba119000000000000000000000000000000000000000000000000000000007bffffffffffffffffffffffffffffffffffffffffffffffffffffffff1916827bffffffffffffffffffffffffffffffffffffffffffffffffffffffff1916148061042f57507fe9dc6375000000000000000000000000000000000000000000000000000000007bffffffffffffffffffffffffffffffffffffffffffffffffffffffff1916827bffffffffffffffffffffffffffffffffffffffffffffffffffffffff1916145b8061049757507f01ffc9a7000000000000000000000000000000000000000000000000000000007bffffffffffffffffffffffffffffffffffffffffffffffffffffffff1916827bffffffffffffffffffffffffffffffffffffffffffffffffffffffff1916145b9050919050565b6104a6613a6b565b600060038111156104ba576104b9613cf5565b5b600360008573ffffffffffffffffffffffffffffffffffffffff1673ffffffffffffffffffffffffffffffffffffffff168152602001908152602001600020600084815260200190815260200160002060000160189054906101000a900460ff16600381111561052d5761052c613cf5565b5b0361056d576040517f08c379a0000000000000000000000000000000000000000000000000000000008152600401610564906147c4565b60405180910390fd5b600360008473ffffffffffffffffffffffffffffffffffffffff1673ffffffffffffffffffffffffffffffffffffffff1681526020019081526020016000206000838152602001908152602001600020604051806101600160405290816000820160009054906101000a900463ffffffff1663ffffffff1663ffffffff1681526020016000820160049054906101000a900463ffffffff1663ffffffff1663ffffffff1681526020016000820160089054906101000a900463ffffffff1663ffffffff1663ffffffff16815260200160008201600c9054906101000a900465ffffffffffff1665ffffffffffff1665ffffffffffff1681526020016000820160129054906101000a900465ffffffffffff1665ffffffffffff1665ffffffffffff1681526020016000820160189054906101000a900460ff1660038111156106b8576106b7613cf5565b5b60038111156106ca576106c9613cf5565b5b8152602001600182015481526020016002820180546106e890614813565b80601f016020809104026020016040519081016040528092919081815260200182805461071490614813565b80156107615780601f1061073657610100808354040283529160200191610761565b820191906000526020600020905b81548152906001019060200180831161074457829003601f168201915b5050505050815260200160038201548152602001600482015481526020016005820160009054906101000a900473ffffffffffffffffffffffffffffffffffffffff1673ffffffffffffffffffffffffffffffffffffffff1673ffffffffffffffffffffffffffffffffffffffff1681525050905092915050565b6000600360008a73ffffffffffffffffffffffffffffffffffffffff1673ffffffffffffffffffffffffffffffffffffffff168152602001908152602001600020600089815260200190815260200160002090506000600381111561084457610843613cf5565b5b8160000160189054906101000a900460ff16600381111561086857610867613cf5565b5b036108a8576040517f08c379a000000000000000000000000000000000000000000000000000000000815260040161089f906147c4565b60405180910390fd5b8661ffff1681600401546108bc9190614873565b34146108fd576040517f08c379a00000000000000000000000000000000000000000000000000000000081526004016108f490614901565b60405180910390fd5b600081600001600c9054906101000a900465ffffffffffff1665ffffffffffff16148061094757504281600001600c9054906101000a900465ffffffffffff1665ffffffffffff16105b610986576040517f08c379a000000000000000000000000000000000000000000000000000000000815260040161097d9061496d565b60405180910390fd5b60008160000160129054906101000a900465ffffffffffff1665ffffffffffff1614806109d15750428160000160129054906101000a900465ffffffffffff1665ffffffffffff1610155b610a10576040517f08c379a0000000000000000000000000000000000000000000000000000000008152600401610a07906149d9565b60405180910390fd5b60008160000160049054906101000a900463ffffffff1663ffffffff161480610a7c57508060000160049054906101000a900463ffffffff1663ffffffff168761ffff168260000160009054906101000a900463ffffffff16610a7391906149f9565b63ffffffff1611155b610abb576040517f08c379a0000000000000000000000000000000000000000000000000000000008152600401610ab290614aa3565b60405180910390fd5b8661ffff168160000160008282829054906101000a900463ffffffff160192506101000a81548163ffffffff021916908363ffffffff1602179055506000816001015414610c2557858590508761ffff16148015610b1f5750838390508761ffff16145b610b5e576040517f08c379a0000000000000000000000000000000000000000000000000000000008152600401610b5590614b0f565b60405180910390fd5b60005b8761ffff16811015610c1f576000878783818110610b8257610b81614b2f565b5b9050602002016020810190610b979190614b5e565b90506000868684818110610bae57610bad614b2f565b5b9050602002810190610bc09190614b9a565b80806020026020016040519081016040528093929190818152602001838360200280828437600081840152601f19601f820116905080830192505050505050509050610c10848d8d85858a6136b2565b82806001019350505050610b61565b50610de1565b60008160000160089054906101000a900463ffffffff1663ffffffff1614610de0578060000160089054906101000a900463ffffffff1663ffffffff168761ffff16600460008c73ffffffffffffffffffffffffffffffffffffffff1673ffffffffffffffffffffffffffffffffffffffff16815260200190815260200160002060008b815260200190815260200160002060003373ffffffffffffffffffffffffffffffffffffffff1673ffffffffffffffffffffffffffffffffffffffff16815260200190815260200160002054610cff9190614bfd565b1115610d40576040517f08c379a0000000000000000000000000000000000000000000000000000000008152600401610d3790614ca3565b60405180910390fd5b8661ffff16600460008b73ffffffffffffffffffffffffffffffffffffffff1673ffffffffffffffffffffffffffffffffffffffff16815260200190815260200160002060008a815260200190815260200160002060003373ffffffffffffffffffffffffffffffffffffffff1673ffffffffffffffffffffffffffffffffffffffff168152602001908152602001600020600082825401925050819055505b5b6000600167ffffffffffffffff811115610dfe57610dfd614cc3565b5b604051908082528060200260200182016040528015610e2c5781602001602082028036833780820191505090505b5090503381600081518110610e4457610e43614b2f565b5b602002602001019073ffffffffffffffffffffffffffffffffffffffff16908173ffffffffffffffffffffffffffffffffffffffff16815250506000600167ffffffffffffffff811115610e9b57610e9a614cc3565b5b604051908082528060200260200182016040528015610ec95781602001602082028036833780820191505090505b5090508861ffff1681600081518110610ee557610ee4614b2f565b5b6020026020010181815250506000600167ffffffffffffffff811115610f0e57610f0d614cc3565b5b604051908082528060200260200182016040528015610f3c5781602001602082028036833780820191505090505b509050836003015481600081518110610f5857610f57614b2f565b5b6020026020010181815250508b73ffffffffffffffffffffffffffffffffffffffff1663e6c884dc8483856040518463ffffffff1660e01b8152600401610fa193929190614e50565b600060405180830381600087803b158015610fbb57600080fd5b505af1158015610fcf573d6000803e3d6000fd5b505050508360050160009054906101000a900473ffffffffffffffffffffffffffffffffffffffff1673ffffffffffffffffffffffffffffffffffffffff166108fc349081150290604051600060405180830381858888f1935050505015801561103d573d6000803e3d6000fd5b508a8c73ffffffffffffffffffffffffffffffffffffffff167f74f5d3254dfa39a7b1217a27d5d9b3e061eafe11720eca1cf499da2dc1eb12598c6040516110859190614eab565b60405180910390a3505050505050505050505050565b600080600360008573ffffffffffffffffffffffffffffffffffffffff1673ffffffffffffffffffffffffffffffffffffffff168152602001908152602001600020600084815260200190815260200160002090506000600381111561110457611103613cf5565b5b8160000160189054906101000a900460ff16600381111561112857611127613cf5565b5b03611168576040517f08c379a000000000000000000000000000000000000000000000000000000000815260040161115f906147c4565b60405180910390fd5b60008160000160089054906101000a900463ffffffff1663ffffffff16036111c5576040517f08c379a00000000000000000000000000000000000000000000000000000000081526004016111bc90614f38565b60405180910390fd5b600460008573ffffffffffffffffffffffffffffffffffffffff1673ffffffffffffffffffffffffffffffffffffffff168152602001908152602001600020600084815260200190815260200160002060008673ffffffffffffffffffffffffffffffffffffffff1673ffffffffffffffffffffffffffffffffffffffff168152602001908152602001600020549150509392505050565b600160009054906101000a900473ffffffffffffffffffffffffffffffffffffffff1681565b8560008190508073ffffffffffffffffffffffffffffffffffffffff166324d7806c336040518263ffffffff1660e01b81526004016112c29190614194565b602060405180830381865afa1580156112df573d6000803e3d6000fd5b505050506040513d601f19601f820116820180604052508101906113039190614f84565b611342576040517f08c379a000000000000000000000000000000000000000000000000000000000815260040161133990615023565b60405180910390fd5b83839050868690501461138a576040517f08c379a0000000000000000000000000000000000000000000000000000000008152600401611381906150b5565b60405180910390fd5b6000600360008a73ffffffffffffffffffffffffffffffffffffffff1673ffffffffffffffffffffffffffffffffffffffff168152602001908152602001600020600089815260200190815260200160002090506000600167ffffffffffffffff8111156113fb576113fa614cc3565b5b6040519080825280602002602001820160405280156114295781602001602082028036833780820191505090505b50905081600301548160008151811061144557611444614b2f565b5b60200260200101818152505060005b8888905081101561169e576000600167ffffffffffffffff81111561147c5761147b614cc3565b5b6040519080825280602002602001820160405280156114aa5781602001602082028036833780820191505090505b5090508989838181106114c0576114bf614b2f565b5b90506020020160208101906114d5919061449b565b816000815181106114e9576114e8614b2f565b5b602002602001019073ffffffffffffffffffffffffffffffffffffffff16908173ffffffffffffffffffffffffffffffffffffffff16815250506000600167ffffffffffffffff8111156115405761153f614cc3565b5b60405190808252806020026020018201604052801561156e5781602001602082028036833780820191505090505b50905088888481811061158457611583614b2f565b5b905060200201602081019061159991906150d5565b61ffff16816000815181106115b1576115b0614b2f565b5b6020026020010181815250508c73ffffffffffffffffffffffffffffffffffffffff1663e6c884dc8386846040518463ffffffff1660e01b81526004016115fa93929190614e50565b600060405180830381600087803b15801561161457600080fd5b505af1158015611628573d6000803e3d6000fd5b5050505088888481811061163f5761163e614b2f565b5b905060200201602081019061165491906150d5565b61ffff168560000160008282829054906101000a900463ffffffff160192506101000a81548163ffffffff021916908363ffffffff16021790555082806001019350505050611454565b5050505050505050505050565b60008260008190508073ffffffffffffffffffffffffffffffffffffffff166324d7806c336040518263ffffffff1660e01b81526004016116ec9190614194565b602060405180830381865afa158015611709573d6000803e3d6000fd5b505050506040513d601f19601f8201168201806040525081019061172d9190614f84565b61176c576040517f08c379a000000000000000000000000000000000000000000000000000000000815260040161176390615023565b60405180910390fd5b600060038111156117805761177f613cf5565b5b8460800160208101906117939190615127565b60038111156117a5576117a4613cf5565b5b036117e5576040517f08c379a00000000000000000000000000000000000000000000000000000000081526004016117dc906151c6565b60405180910390fd5b60008460600160208101906117fa9190615212565b65ffffffffffff161480611841575083606001602081019061181c9190615212565b65ffffffffffff168460400160208101906118379190615212565b65ffffffffffff16105b611880576040517f08c379a0000000000000000000000000000000000000000000000000000000008152600401611877906152b1565b60405180910390fd5b60008460a0013514806118ab575060008460200160208101906118a39190614b5e565b63ffffffff16145b6118ea576040517f08c379a00000000000000000000000000000000000000000000000000000000081526004016118e190615343565b60405180910390fd5b600260008673ffffffffffffffffffffffffffffffffffffffff1673ffffffffffffffffffffffffffffffffffffffff168152602001908152602001600020600081819054906101000a90047bffffffffffffffffffffffffffffffffffffffffffffffffffffffff16809291906119619061538b565b91906101000a8154817bffffffffffffffffffffffffffffffffffffffffffffffffffffffff02191690837bffffffffffffffffffffffffffffffffffffffffffffffffffffffff160217905550506000600260008773ffffffffffffffffffffffffffffffffffffffff1673ffffffffffffffffffffffffffffffffffffffff16815260200190815260200160002060009054906101000a90047bffffffffffffffffffffffffffffffffffffffffffffffffffffffff1690506000600167ffffffffffffffff811115611a3957611a38614cc3565b5b604051908082528060200260200182016040528015611a675781602001602082028036833780820191505090505b5090503381600081518110611a7f57611a7e614b2f565b5b602002602001019073ffffffffffffffffffffffffffffffffffffffff16908173ffffffffffffffffffffffffffffffffffffffff16815250506000600167ffffffffffffffff811115611ad657611ad5614cc3565b5b604051908082528060200260200182016040528015611b045781602001602082028036833780820191505090505b509050600181600081518110611b1d57611b1c614b2f565b5b6020026020010181815250506000600167ffffffffffffffff811115611b4657611b45614cc3565b5b604051908082528060200260200182016040528015611b7957816020015b6060815260200190600190039081611b645790505b5090506040518060200160405280600081525081600081518110611ba057611b9f614b2f565b5b602002602001018190525060008973ffffffffffffffffffffffffffffffffffffffff16638c6e84728585856040518463ffffffff1660e01b8152600401611bea93929190615491565b6000604051808303816000875af1158015611c09573d6000803e3d6000fd5b505050506040513d6000823e3d601f19601f82011682018060405250810190611c329190615601565b9050847bffffffffffffffffffffffffffffffffffffffffffffffffffffffff16600660008c73ffffffffffffffffffffffffffffffffffffffff1673ffffffffffffffffffffffffffffffffffffffff168152602001908152602001600020600083600081518110611ca857611ca7614b2f565b5b6020026020010151815260200190815260200160002081905550604051806101600160405280600063ffffffff1681526020018a6000016020810190611cee9190614b5e565b63ffffffff1681526020018a6020016020810190611d0c9190614b5e565b63ffffffff1681526020018a6040016020810190611d2a9190615212565b65ffffffffffff1681526020018a6060016020810190611d4a9190615212565b65ffffffffffff1681526020018a6080016020810190611d6a9190615127565b6003811115611d7c57611d7b613cf5565b5b81526020018a60a0013581526020018a8060c00190611d9b919061564a565b8080601f016020809104026020016040519081016040528093929190818152602001838380828437600081840152601f19601f82011690508083019250505050505050815260200182600081518110611df757611df6614b2f565b5b602002602001015181526020018a60e0013581526020018a610100016020810190611e22919061449b565b73ffffffffffffffffffffffffffffffffffffffff16815250600360008c73ffffffffffffffffffffffffffffffffffffffff1673ffffffffffffffffffffffffffffffffffffffff1681526020019081526020016000206000877bffffffffffffffffffffffffffffffffffffffffffffffffffffffff16815260200190815260200160002060008201518160000160006101000a81548163ffffffff021916908363ffffffff16021790555060208201518160000160046101000a81548163ffffffff021916908363ffffffff16021790555060408201518160000160086101000a81548163ffffffff021916908363ffffffff160217905550606082015181600001600c6101000a81548165ffffffffffff021916908365ffffffffffff16021790555060808201518160000160126101000a81548165ffffffffffff021916908365ffffffffffff16021790555060a08201518160000160186101000a81548160ff02191690836003811115611f9f57611f9e613cf5565b5b021790555060c0820151816001015560e0820151816002019081611fc39190615859565b50610100820151816003015561012082015181600401556101408201518160050160006101000a81548173ffffffffffffffffffffffffffffffffffffffff021916908373ffffffffffffffffffffffffffffffffffffffff160217905550905050847bffffffffffffffffffffffffffffffffffffffffffffffffffffffff168a73ffffffffffffffffffffffffffffffffffffffff167fcf76e1beb8dcf887c917933e1d0970eafadb9a69b82cfd5f44740a0dce6f45a63360405161208a9190614194565b60405180910390a3847bffffffffffffffffffffffffffffffffffffffffffffffffffffffff1697505050505050505092915050565b8260008190508073ffffffffffffffffffffffffffffffffffffffff166324d7806c336040518263ffffffff1660e01b81526004016120ff9190614194565b602060405180830381865afa15801561211c573d6000803e3d6000fd5b505050506040513d601f19601f820116820180604052508101906121409190614f84565b61217f576040517f08c379a000000000000000000000000000000000000000000000000000000000815260040161217690615023565b60405180910390fd5b6000600381111561219357612192613cf5565b5b600360008773ffffffffffffffffffffffffffffffffffffffff1673ffffffffffffffffffffffffffffffffffffffff168152602001908152602001600020600086815260200190815260200160002060000160189054906101000a900460ff16600381111561220657612205613cf5565b5b03612246576040517f08c379a000000000000000000000000000000000000000000000000000000000815260040161223d906147c4565b60405180910390fd5b6000600381111561225a57612259613cf5565b5b83608001602081019061226d9190615127565b600381111561227f5761227e613cf5565b5b036122bf576040517f08c379a00000000000000000000000000000000000000000000000000000000081526004016122b69061599d565b60405180910390fd5b60008360600160208101906122d49190615212565b65ffffffffffff16148061231b57508260600160208101906122f69190615212565b65ffffffffffff168360400160208101906123119190615212565b65ffffffffffff16105b61235a576040517f08c379a0000000000000000000000000000000000000000000000000000000008152600401612351906152b1565b60405180910390fd5b604051806101600160405280600360008873ffffffffffffffffffffffffffffffffffffffff1673ffffffffffffffffffffffffffffffffffffffff168152602001908152602001600020600087815260200190815260200160002060000160009054906101000a900463ffffffff1663ffffffff1681526020018460000160208101906123e89190614b5e565b63ffffffff1681526020018460200160208101906124069190614b5e565b63ffffffff1681526020018460400160208101906124249190615212565b65ffffffffffff1681526020018460600160208101906124449190615212565b65ffffffffffff1681526020018460800160208101906124649190615127565b600381111561247657612475613cf5565b5b81526020018460a001358152602001848060c00190612495919061564a565b8080601f016020809104026020016040519081016040528093929190818152602001838380828437600081840152601f19601f820116905080830192505050505050508152602001600360008873ffffffffffffffffffffffffffffffffffffffff1673ffffffffffffffffffffffffffffffffffffffff16815260200190815260200160002060008781526020019081526020016000206003015481526020018460e00135815260200184610100016020810190612554919061449b565b73ffffffffffffffffffffffffffffffffffffffff16815250600360008773ffffffffffffffffffffffffffffffffffffffff1673ffffffffffffffffffffffffffffffffffffffff168152602001908152602001600020600086815260200190815260200160002060008201518160000160006101000a81548163ffffffff021916908363ffffffff16021790555060208201518160000160046101000a81548163ffffffff021916908363ffffffff16021790555060408201518160000160086101000a81548163ffffffff021916908363ffffffff160217905550606082015181600001600c6101000a81548165ffffffffffff021916908365ffffffffffff16021790555060808201518160000160126101000a81548165ffffffffffff021916908365ffffffffffff16021790555060a08201518160000160186101000a81548160ff021916908360038111156126b3576126b2613cf5565b5b021790555060c0820151816001015560e08201518160020190816126d79190615859565b50610100820151816003015561012082015181600401556101408201518160050160006101000a81548173ffffffffffffffffffffffffffffffffffffffff021916908373ffffffffffffffffffffffffffffffffffffffff1602179055509050505050505050565b600080600360008673ffffffffffffffffffffffffffffffffffffffff1673ffffffffffffffffffffffffffffffffffffffff16815260200190815260200160002060008581526020019081526020016000209050600060038111156127a9576127a8613cf5565b5b8160000160189054906101000a900460ff1660038111156127cd576127cc613cf5565b5b0361280d576040517f08c379a0000000000000000000000000000000000000000000000000000000008152600401612804906147c4565b60405180910390fd5b6000816001015403612854576040517f08c379a000000000000000000000000000000000000000000000000000000000815260040161284b90615a09565b60405180910390fd5b600060088463ffffffff16901c63ffffffff1690506000600560008873ffffffffffffffffffffffffffffffffffffffff1673ffffffffffffffffffffffffffffffffffffffff16815260200190815260200160002060008781526020019081526020016000206000838152602001908152602001600020549050600060ff8663ffffffff16166001901b9050600082821614159450505050509392505050565b6000600260008373ffffffffffffffffffffffffffffffffffffffff1673ffffffffffffffffffffffffffffffffffffffff16815260200190815260200160002060009054906101000a90047bffffffffffffffffffffffffffffffffffffffffffffffffffffffff167bffffffffffffffffffffffffffffffffffffffffffffffffffffffff169050919050565b60606000600660008573ffffffffffffffffffffffffffffffffffffffff1673ffffffffffffffffffffffffffffffffffffffff16815260200190815260200160002060008481526020019081526020016000205490506000817bffffffffffffffffffffffffffffffffffffffffffffffffffffffff1611612a3c576040517f08c379a0000000000000000000000000000000000000000000000000000000008152600401612a3390615a75565b60405180910390fd5b6000600360008673ffffffffffffffffffffffffffffffffffffffff1673ffffffffffffffffffffffffffffffffffffffff1681526020019081526020016000206000837bffffffffffffffffffffffffffffffffffffffffffffffffffffffff168152602001908152602001600020604051806101600160405290816000820160009054906101000a900463ffffffff1663ffffffff1663ffffffff1681526020016000820160049054906101000a900463ffffffff1663ffffffff1663ffffffff1681526020016000820160089054906101000a900463ffffffff1663ffffffff1663ffffffff16815260200160008201600c9054906101000a900465ffffffffffff1665ffffffffffff1665ffffffffffff1681526020016000820160129054906101000a900465ffffffffffff1665ffffffffffff1665ffffffffffff1681526020016000820160189054906101000a900460ff166003811115612ba757612ba6613cf5565b5b6003811115612bb957612bb8613cf5565b5b815260200160018201548152602001600282018054612bd790614813565b80601f0160208091040260200160405190810160405280929190818152602001828054612c0390614813565b8015612c505780601f10612c2557610100808354040283529160200191612c50565b820191906000526020600020905b815481529060010190602001808311612c3357829003601f168201915b5050505050815260200160038201548152602001600482015481526020016005820160009054906101000a900473ffffffffffffffffffffffffffffffffffffffff1673ffffffffffffffffffffffffffffffffffffffff1673ffffffffffffffffffffffffffffffffffffffff16815250509050600060405180602001604052806000815250905060026003811115612ced57612cec613cf5565b5b8260a001516003811115612d0457612d03613cf5565b5b03612d46576040518060400160405280601481526020017f68747470733a2f2f617277656176652e6e65742f0000000000000000000000008152509050612daf565b600380811115612d5957612d58613cf5565b5b8260a001516003811115612d7057612d6f613cf5565b5b03612dae576040518060400160405280600781526020017f697066733a2f2f0000000000000000000000000000000000000000000000000081525090505b5b808260e00151604051602001612dc6929190615ad1565b604051602081830303815290604052935050505092915050565b60608282905067ffffffffffffffff811115612dff57612dfe614cc3565b5b604051908082528060200260200182016040528015612e2d5781602001602082028036833780820191505090505b50905060005b83839050811015612ea857612e708686868685818110612e5657612e55614b2f565b5b9050602002016020810190612e6b9190614b5e565b612740565b828281518110612e8357612e82614b2f565b5b6020026020010190151590811515815250508080612ea090615af5565b915050612e33565b50949350505050565b6000600360008873ffffffffffffffffffffffffffffffffffffffff1673ffffffffffffffffffffffffffffffffffffffff1681526020019081526020016000206000878152602001908152602001600020905060006003811115612f1957612f18613cf5565b5b8160000160189054906101000a900460ff166003811115612f3d57612f3c613cf5565b5b03612f7d576040517f08c379a0000000000000000000000000000000000000000000000000000000008152600401612f74906147c4565b60405180910390fd5b80600401543414612fc3576040517f08c379a0000000000000000000000000000000000000000000000000000000008152600401612fba90614901565b60405180910390fd5b600081600001600c9054906101000a900465ffffffffffff1665ffffffffffff16148061300d57504281600001600c9054906101000a900465ffffffffffff1665ffffffffffff16105b61304c576040517f08c379a00000000000000000000000000000000000000000000000000000000081526004016130439061496d565b60405180910390fd5b60008160000160129054906101000a900465ffffffffffff1665ffffffffffff1614806130975750428160000160129054906101000a900465ffffffffffff1665ffffffffffff1610155b6130d6576040517f08c379a00000000000000000000000000000000000000000000000000000000081526004016130cd906149d9565b60405180910390fd5b60008160000160049054906101000a900463ffffffff1663ffffffff16148061313257508060000160049054906101000a900463ffffffff1663ffffffff168160000160009054906101000a900463ffffffff1663ffffffff16105b613171576040517f08c379a000000000000000000000000000000000000000000000000000000000815260040161316890615baf565b60405180910390fd5b60008160010154146131d1576131cc81888888888880806020026020016040519081016040528093929190818152602001838360200280828437600081840152601f19601f82011690508083019250505050505050876136b2565b61337b565b60008160000160089054906101000a900463ffffffff1663ffffffff161461337a578060000160089054906101000a900463ffffffff1663ffffffff16600460008973ffffffffffffffffffffffffffffffffffffffff1673ffffffffffffffffffffffffffffffffffffffff168152602001908152602001600020600088815260200190815260200160002060003373ffffffffffffffffffffffffffffffffffffffff1673ffffffffffffffffffffffffffffffffffffffff16815260200190815260200160002054106132dc576040517f08c379a00000000000000000000000000000000000000000000000000000000081526004016132d390615c41565b60405180910390fd5b600460008873ffffffffffffffffffffffffffffffffffffffff1673ffffffffffffffffffffffffffffffffffffffff168152602001908152602001600020600087815260200190815260200160002060003373ffffffffffffffffffffffffffffffffffffffff1673ffffffffffffffffffffffffffffffffffffffff168152602001908152602001600020600081548092919060010191905055505b5b80600001600081819054906101000a900463ffffffff168092919060010191906101000a81548163ffffffff021916908363ffffffff160217905550506000600167ffffffffffffffff8111156133d5576133d4614cc3565b5b6040519080825280602002602001820160405280156134035781602001602082028036833780820191505090505b509050338160008151811061341b5761341a614b2f565b5b602002602001019073ffffffffffffffffffffffffffffffffffffffff16908173ffffffffffffffffffffffffffffffffffffffff16815250506000600167ffffffffffffffff81111561347257613471614cc3565b5b6040519080825280602002602001820160405280156134a05781602001602082028036833780820191505090505b5090506001816000815181106134b9576134b8614b2f565b5b6020026020010181815250506000600167ffffffffffffffff8111156134e2576134e1614cc3565b5b6040519080825280602002602001820160405280156135105781602001602082028036833780820191505090505b50905083600301548160008151811061352c5761352b614b2f565b5b6020026020010181815250508973ffffffffffffffffffffffffffffffffffffffff1663e6c884dc8483856040518463ffffffff1660e01b815260040161357593929190614e50565b600060405180830381600087803b15801561358f57600080fd5b505af11580156135a3573d6000803e3d6000fd5b505050508360050160009054906101000a900473ffffffffffffffffffffffffffffffffffffffff1673ffffffffffffffffffffffffffffffffffffffff166108fc349081150290604051600060405180830381858888f19350505050158015613611573d6000803e3d6000fd5b50600660008b73ffffffffffffffffffffffffffffffffffffffff1673ffffffffffffffffffffffffffffffffffffffff16815260200190815260200160002060008a8152602001908152602001600020548a73ffffffffffffffffffffffffffffffffffffffff167f5d404f369772cfab2b65717fca9bc2077efeab89a0dbec036bf0c13783154eb160405160405180910390a350505050505050505050565b60003373ffffffffffffffffffffffffffffffffffffffff168273ffffffffffffffffffffffffffffffffffffffff16036137175733846040516020016136fa929190615cdf565b604051602081830303815290604052805190602001209050613828565b6000600160009054906101000a900473ffffffffffffffffffffffffffffffffffffffff1690508073ffffffffffffffffffffffffffffffffffffffff166390c9a2d03385306040518463ffffffff1660e01b815260040161377b93929190615d0b565b602060405180830381865afa158015613798573d6000803e3d6000fd5b505050506040513d601f19601f820116820180604052508101906137bc9190614f84565b6137fb576040517f08c379a00000000000000000000000000000000000000000000000000000000081526004016137f290615d8e565b60405180910390fd5b828560405160200161380e929190615cdf565b604051602081830303815290604052805190602001209150505b613837838860010154836139bc565b613876576040517f08c379a000000000000000000000000000000000000000000000000000000000815260040161386d90615dfa565b60405180910390fd5b600060088563ffffffff16901c63ffffffff1690506000600560008973ffffffffffffffffffffffffffffffffffffffff1673ffffffffffffffffffffffffffffffffffffffff16815260200190815260200160002060008881526020019081526020016000206000838152602001908152602001600020549050600060ff8763ffffffff16166001901b9050600082821614613948576040517f08c379a000000000000000000000000000000000000000000000000000000000815260040161393f90615e66565b60405180910390fd5b808217600560008b73ffffffffffffffffffffffffffffffffffffffff1673ffffffffffffffffffffffffffffffffffffffff16815260200190815260200160002060008a815260200190815260200160002060008581526020019081526020016000208190555050505050505050505050565b6000826139c985846139d3565b1490509392505050565b60008082905060005b8451811015613a1e57613a09828683815181106139fc576139fb614b2f565b5b6020026020010151613a29565b91508080613a1690615af5565b9150506139dc565b508091505092915050565b6000818310613a4157613a3c8284613a54565b613a4c565b613a4b8383613a54565b5b905092915050565b600082600052816020526040600020905092915050565b604051806101600160405280600063ffffffff168152602001600063ffffffff168152602001600063ffffffff168152602001600065ffffffffffff168152602001600065ffffffffffff16815260200160006003811115613ad057613acf613cf5565b5b815260200160008019168152602001606081526020016000815260200160008152602001600073ffffffffffffffffffffffffffffffffffffffff1681525090565b6000604051905090565b600080fd5b600080fd5b60007fffffffff0000000000000000000000000000000000000000000000000000000082169050919050565b613b5b81613b26565b8114613b6657600080fd5b50565b600081359050613b7881613b52565b92915050565b600060208284031215613b9457613b93613b1c565b5b6000613ba284828501613b69565b91505092915050565b60008115159050919050565b613bc081613bab565b82525050565b6000602082019050613bdb6000830184613bb7565b92915050565b600073ffffffffffffffffffffffffffffffffffffffff82169050919050565b6000613c0c82613be1565b9050919050565b613c1c81613c01565b8114613c2757600080fd5b50565b600081359050613c3981613c13565b92915050565b6000819050919050565b613c5281613c3f565b8114613c5d57600080fd5b50565b600081359050613c6f81613c49565b92915050565b60008060408385031215613c8c57613c8b613b1c565b5b6000613c9a85828601613c2a565b9250506020613cab85828601613c60565b9150509250929050565b600063ffffffff82169050919050565b613cce81613cb5565b82525050565b600065ffffffffffff82169050919050565b613cef81613cd4565b82525050565b7f4e487b7100000000000000000000000000000000000000000000000000000000600052602160045260246000fd5b60048110613d3557613d34613cf5565b5b50565b6000819050613d4682613d24565b919050565b6000613d5682613d38565b9050919050565b613d6681613d4b565b82525050565b6000819050919050565b613d7f81613d6c565b82525050565b600081519050919050565b600082825260208201905092915050565b60005b83811015613dbf578082015181840152602081019050613da4565b60008484015250505050565b6000601f19601f8301169050919050565b6000613de782613d85565b613df18185613d90565b9350613e01818560208601613da1565b613e0a81613dcb565b840191505092915050565b613e1e81613c3f565b82525050565b613e2d81613c01565b82525050565b600061016083016000830151613e4c6000860182613cc5565b506020830151613e5f6020860182613cc5565b506040830151613e726040860182613cc5565b506060830151613e856060860182613ce6565b506080830151613e986080860182613ce6565b5060a0830151613eab60a0860182613d5d565b5060c0830151613ebe60c0860182613d76565b5060e083015184820360e0860152613ed68282613ddc565b915050610100830151613eed610100860182613e15565b50610120830151613f02610120860182613e15565b50610140830151613f17610140860182613e24565b508091505092915050565b60006020820190508181036000830152613f3c8184613e33565b905092915050565b600061ffff82169050919050565b613f5b81613f44565b8114613f6657600080fd5b50565b600081359050613f7881613f52565b92915050565b600080fd5b600080fd5b600080fd5b60008083601f840112613fa357613fa2613f7e565b5b8235905067ffffffffffffffff811115613fc057613fbf613f83565b5b602083019150836020820283011115613fdc57613fdb613f88565b5b9250929050565b60008083601f840112613ff957613ff8613f7e565b5b8235905067ffffffffffffffff81111561401657614015613f83565b5b60208301915083602082028301111561403257614031613f88565b5b9250929050565b60008060008060008060008060c0898b03121561405957614058613b1c565b5b60006140678b828c01613c2a565b98505060206140788b828c01613c60565b97505060406140898b828c01613f69565b965050606089013567ffffffffffffffff8111156140aa576140a9613b21565b5b6140b68b828c01613f8d565b9550955050608089013567ffffffffffffffff8111156140d9576140d8613b21565b5b6140e58b828c01613fe3565b935093505060a06140f88b828c01613c2a565b9150509295985092959890939650565b60008060006060848603121561412157614120613b1c565b5b600061412f86828701613c2a565b935050602061414086828701613c2a565b925050604061415186828701613c60565b9150509250925092565b61416481613cb5565b82525050565b600060208201905061417f600083018461415b565b92915050565b61418e81613c01565b82525050565b60006020820190506141a96000830184614185565b92915050565b60008083601f8401126141c5576141c4613f7e565b5b8235905067ffffffffffffffff8111156141e2576141e1613f83565b5b6020830191508360208202830111156141fe576141fd613f88565b5b9250929050565b60008083601f84011261421b5761421a613f7e565b5b8235905067ffffffffffffffff81111561423857614237613f83565b5b60208301915083602082028301111561425457614253613f88565b5b9250929050565b6000806000806000806080878903121561427857614277613b1c565b5b600061428689828a01613c2a565b965050602061429789828a01613c60565b955050604087013567ffffffffffffffff8111156142b8576142b7613b21565b5b6142c489828a016141af565b9450945050606087013567ffffffffffffffff8111156142e7576142e6613b21565b5b6142f389828a01614205565b92509250509295509295509295565b600080fd5b6000610120828403121561431e5761431d614302565b5b81905092915050565b6000806040838503121561433e5761433d613b1c565b5b600061434c85828601613c2a565b925050602083013567ffffffffffffffff81111561436d5761436c613b21565b5b61437985828601614307565b9150509250929050565b61438c81613c3f565b82525050565b60006020820190506143a76000830184614383565b92915050565b6000806000606084860312156143c6576143c5613b1c565b5b60006143d486828701613c2a565b93505060206143e586828701613c60565b925050604084013567ffffffffffffffff81111561440657614405613b21565b5b61441286828701614307565b9150509250925092565b61442581613cb5565b811461443057600080fd5b50565b6000813590506144428161441c565b92915050565b60008060006060848603121561446157614460613b1c565b5b600061446f86828701613c2a565b935050602061448086828701613c60565b925050604061449186828701614433565b9150509250925092565b6000602082840312156144b1576144b0613b1c565b5b60006144bf84828501613c2a565b91505092915050565b600082825260208201905092915050565b60006144e482613d85565b6144ee81856144c8565b93506144fe818560208601613da1565b61450781613dcb565b840191505092915050565b6000602082019050818103600083015261452c81846144d9565b905092915050565b6000806000806060858703121561454e5761454d613b1c565b5b600061455c87828801613c2a565b945050602061456d87828801613c60565b935050604085013567ffffffffffffffff81111561458e5761458d613b21565b5b61459a87828801613f8d565b925092505092959194509250565b600081519050919050565b600082825260208201905092915050565b6000819050602082019050919050565b6145dd81613bab565b82525050565b60006145ef83836145d4565b60208301905092915050565b6000602082019050919050565b6000614613826145a8565b61461d81856145b3565b9350614628836145c4565b8060005b8381101561465957815161464088826145e3565b975061464b836145fb565b92505060018101905061462c565b5085935050505092915050565b600060208201905081810360008301526146808184614608565b905092915050565b60008083601f84011261469e5761469d613f7e565b5b8235905067ffffffffffffffff8111156146bb576146ba613f83565b5b6020830191508360208202830111156146d7576146d6613f88565b5b9250929050565b60008060008060008060a087890312156146fb576146fa613b1c565b5b600061470989828a01613c2a565b965050602061471a89828a01613c60565b955050604061472b89828a01614433565b945050606087013567ffffffffffffffff81111561474c5761474b613b21565b5b61475889828a01614688565b9350935050608061476b89828a01613c2a565b9150509295509295509295565b7f436c61696d206e6f7420696e697469616c697a65640000000000000000000000600082015250565b60006147ae6015836144c8565b91506147b982614778565b602082019050919050565b600060208201905081810360008301526147dd816147a1565b9050919050565b7f4e487b7100000000000000000000000000000000000000000000000000000000600052602260045260246000fd5b6000600282049050600182168061482b57607f821691505b60208210810361483e5761483d6147e4565b5b50919050565b7f4e487b7100000000000000000000000000000000000000000000000000000000600052601160045260246000fd5b600061487e82613c3f565b915061488983613c3f565b925082820261489781613c3f565b915082820484148315176148ae576148ad614844565b5b5092915050565b7f4d75737420706179206d6f72652e000000000000000000000000000000000000600082015250565b60006148eb600e836144c8565b91506148f6826148b5565b602082019050919050565b6000602082019050818103600083015261491a816148de565b9050919050565b7f5472616e73616374696f6e206265666f72652073746172742064617465000000600082015250565b6000614957601d836144c8565b915061496282614921565b602082019050919050565b600060208201905081810360008301526149868161494a565b9050919050565b7f5472616e73616374696f6e20616674657220656e642064617465000000000000600082015250565b60006149c3601a836144c8565b91506149ce8261498d565b602082019050919050565b600060208201905081810360008301526149f2816149b6565b9050919050565b6000614a0482613cb5565b9150614a0f83613cb5565b9250828201905063ffffffff811115614a2b57614a2a614844565b5b92915050565b7f546f6f206d616e792072657175657374656420666f72207468697320636c616960008201527f6d00000000000000000000000000000000000000000000000000000000000000602082015250565b6000614a8d6021836144c8565b9150614a9882614a31565b604082019050919050565b60006020820190508181036000830152614abc81614a80565b9050919050565b7f496e76616c696420696e70757400000000000000000000000000000000000000600082015250565b6000614af9600d836144c8565b9150614b0482614ac3565b602082019050919050565b60006020820190508181036000830152614b2881614aec565b9050919050565b7f4e487b7100000000000000000000000000000000000000000000000000000000600052603260045260246000fd5b600060208284031215614b7457614b73613b1c565b5b6000614b8284828501614433565b91505092915050565b600080fd5b600080fd5b600080fd5b60008083356001602003843603038112614bb757614bb6614b8b565b5b80840192508235915067ffffffffffffffff821115614bd957614bd8614b90565b5b602083019250602082023603831315614bf557614bf4614b95565b5b509250929050565b6000614c0882613c3f565b9150614c1383613c3f565b9250828201905080821115614c2b57614c2a614844565b5b92915050565b7f546f6f206d616e792072657175657374656420666f7220746869732077616c6c60008201527f6574000000000000000000000000000000000000000000000000000000000000602082015250565b6000614c8d6022836144c8565b9150614c9882614c31565b604082019050919050565b60006020820190508181036000830152614cbc81614c80565b9050919050565b7f4e487b7100000000000000000000000000000000000000000000000000000000600052604160045260246000fd5b600081519050919050565b600082825260208201905092915050565b6000819050602082019050919050565b6000614d2a8383613e24565b60208301905092915050565b6000602082019050919050565b6000614d4e82614cf2565b614d588185614cfd565b9350614d6383614d0e565b8060005b83811015614d94578151614d7b8882614d1e565b9750614d8683614d36565b925050600181019050614d67565b5085935050505092915050565b600081519050919050565b600082825260208201905092915050565b6000819050602082019050919050565b6000614dd98383613e15565b60208301905092915050565b6000602082019050919050565b6000614dfd82614da1565b614e078185614dac565b9350614e1283614dbd565b8060005b83811015614e43578151614e2a8882614dcd565b9750614e3583614de5565b925050600181019050614e16565b5085935050505092915050565b60006060820190508181036000830152614e6a8186614d43565b90508181036020830152614e7e8185614df2565b90508181036040830152614e928184614df2565b9050949350505050565b614ea581613f44565b82525050565b6000602082019050614ec06000830184614e9c565b92915050565b7f43616e206f6e6c7920726574726965766520666f72206e6f6e2d6d65726b6c6560008201527f20636c61696d7320776974682077616c6c65744d617800000000000000000000602082015250565b6000614f226036836144c8565b9150614f2d82614ec6565b604082019050919050565b60006020820190508181036000830152614f5181614f15565b9050919050565b614f6181613bab565b8114614f6c57600080fd5b50565b600081519050614f7e81614f58565b92915050565b600060208284031215614f9a57614f99613b1c565b5b6000614fa884828501614f6f565b91505092915050565b7f57616c6c6574206973206e6f7420616e2061646d696e6973747261746f72206660008201527f6f7220636f6e7472616374000000000000000000000000000000000000000000602082015250565b600061500d602b836144c8565b915061501882614fb1565b604082019050919050565b6000602082019050818103600083015261503c81615000565b9050919050565b7f556e657175616c206e756d626572206f6620726563697069656e747320616e6460008201527f20616d6f756e74732070726f7669646564000000000000000000000000000000602082015250565b600061509f6031836144c8565b91506150aa82615043565b604082019050919050565b600060208201905081810360008301526150ce81615092565b9050919050565b6000602082840312156150eb576150ea613b1c565b5b60006150f984828501613f69565b91505092915050565b6004811061510f57600080fd5b50565b60008135905061512181615102565b92915050565b60006020828403121561513d5761513c613b1c565b5b600061514b84828501615112565b91505092915050565b7f43616e6e6f7420696e697469616c697a65207769746820696e76616c6964207360008201527f746f726167652070726f746f636f6c0000000000000000000000000000000000602082015250565b60006151b0602f836144c8565b91506151bb82615154565b604082019050919050565b600060208201905081810360008301526151df816151a3565b9050919050565b6151ef81613cd4565b81146151fa57600080fd5b50565b60008135905061520c816151e6565b92915050565b60006020828403121561522857615227613b1c565b5b6000615236848285016151fd565b91505092915050565b7f43616e6e6f74206861766520737461727444617465206772656174657220746860008201527f616e206f7220657175616c20746f20656e644461746500000000000000000000602082015250565b600061529b6036836144c8565b91506152a68261523f565b604082019050919050565b600060208201905081810360008301526152ca8161528e565b9050919050565b7f43616e6e6f742070726f7669646520626f7468206d696e747350657257616c6c60008201527f657420616e64206d65726b6c65526f6f74000000000000000000000000000000602082015250565b600061532d6031836144c8565b9150615338826152d1565b604082019050919050565b6000602082019050818103600083015261535c81615320565b9050919050565b60007bffffffffffffffffffffffffffffffffffffffffffffffffffffffff82169050919050565b600061539682615363565b91507bffffffffffffffffffffffffffffffffffffffffffffffffffffffff82036153c4576153c3614844565b5b600182019050919050565b600081519050919050565b600082825260208201905092915050565b6000819050602082019050919050565b60006154078383613ddc565b905092915050565b6000602082019050919050565b6000615427826153cf565b61543181856153da565b935083602082028501615443856153eb565b8060005b8581101561547f578484038952815161546085826153fb565b945061546b8361540f565b925060208a01995050600181019050615447565b50829750879550505050505092915050565b600060608201905081810360008301526154ab8186614d43565b905081810360208301526154bf8185614df2565b905081810360408301526154d3818461541c565b9050949350505050565b6154e682613dcb565b810181811067ffffffffffffffff8211171561550557615504614cc3565b5b80604052505050565b6000615518613b12565b905061552482826154dd565b919050565b600067ffffffffffffffff82111561554457615543614cc3565b5b602082029050602081019050919050565b60008151905061556481613c49565b92915050565b600061557d61557884615529565b61550e565b905080838252602082019050602084028301858111156155a05761559f613f88565b5b835b818110156155c957806155b58882615555565b8452602084019350506020810190506155a2565b5050509392505050565b600082601f8301126155e8576155e7613f7e565b5b81516155f884826020860161556a565b91505092915050565b60006020828403121561561757615616613b1c565b5b600082015167ffffffffffffffff81111561563557615634613b21565b5b615641848285016155d3565b91505092915050565b6000808335600160200384360303811261566757615666614b8b565b5b80840192508235915067ffffffffffffffff82111561568957615688614b90565b5b6020830192506001820236038313156156a5576156a4614b95565b5b509250929050565b60008190508160005260206000209050919050565b60006020601f8301049050919050565b600082821b905092915050565b60006008830261570f7fffffffffffffffffffffffffffffffffffffffffffffffffffffffffffffffff826156d2565b61571986836156d2565b95508019841693508086168417925050509392505050565b6000819050919050565b600061575661575161574c84613c3f565b615731565b613c3f565b9050919050565b6000819050919050565b6157708361573b565b61578461577c8261575d565b8484546156df565b825550505050565b600090565b61579961578c565b6157a4818484615767565b505050565b5b818110156157c8576157bd600082615791565b6001810190506157aa565b5050565b601f82111561580d576157de816156ad565b6157e7846156c2565b810160208510156157f6578190505b61580a615802856156c2565b8301826157a9565b50505b505050565b600082821c905092915050565b600061583060001984600802615812565b1980831691505092915050565b6000615849838361581f565b9150826002028217905092915050565b61586282613d85565b67ffffffffffffffff81111561587b5761587a614cc3565b5b6158858254614813565b6158908282856157cc565b600060209050601f8311600181146158c357600084156158b1578287015190505b6158bb858261583d565b865550615923565b601f1984166158d1866156ad565b60005b828110156158f9578489015182556001820191506020850194506020810190506158d4565b868310156159165784890151615912601f89168261581f565b8355505b6001600288020188555050505b505050505050565b7f43616e6e6f742073657420696e76616c69642073746f726167652070726f746f60008201527f636f6c0000000000000000000000000000000000000000000000000000000000602082015250565b60006159876023836144c8565b91506159928261592b565b604082019050919050565b600060208201905081810360008301526159b68161597a565b9050919050565b7f43616e206f6e6c7920636865636b206d65726b6c6520636c61696d7300000000600082015250565b60006159f3601c836144c8565b91506159fe826159bd565b602082019050919050565b60006020820190508181036000830152615a22816159e6565b9050919050565b7f546f6b656e20646f6573206e6f74206578697374000000000000000000000000600082015250565b6000615a5f6014836144c8565b9150615a6a82615a29565b602082019050919050565b60006020820190508181036000830152615a8e81615a52565b9050919050565b600081905092915050565b6000615aab82613d85565b615ab58185615a95565b9350615ac5818560208601613da1565b80840191505092915050565b6000615add8285615aa0565b9150615ae98284615aa0565b91508190509392505050565b6000615b0082613c3f565b91507fffffffffffffffffffffffffffffffffffffffffffffffffffffffffffffffff8203615b3257615b31614844565b5b600182019050919050565b7f4d6178696d756d20746f6b656e7320616c7265616479206d696e74656420666f60008201527f72207468697320636c61696d0000000000000000000000000000000000000000602082015250565b6000615b99602c836144c8565b9150615ba482615b3d565b604082019050919050565b60006020820190508181036000830152615bc881615b8c565b9050919050565b7f4d6178696d756d20746f6b656e7320616c7265616479206d696e74656420666f60008201527f7220746869732077616c6c657400000000000000000000000000000000000000602082015250565b6000615c2b602d836144c8565b9150615c3682615bcf565b604082019050919050565b60006020820190508181036000830152615c5a81615c1e565b9050919050565b60008160601b9050919050565b6000615c7982615c61565b9050919050565b6000615c8b82615c6e565b9050919050565b615ca3615c9e82613c01565b615c80565b82525050565b60008160e01b9050919050565b6000615cc182615ca9565b9050919050565b615cd9615cd482613cb5565b615cb6565b82525050565b6000615ceb8285615c92565b601482019150615cfb8284615cc8565b6004820191508190509392505050565b6000606082019050615d206000830186614185565b615d2d6020830185614185565b615d3a6040830184614185565b949350505050565b7f496e76616c69642064656c656761746500000000000000000000000000000000600082015250565b6000615d786010836144c8565b9150615d8382615d42565b602082019050919050565b60006020820190508181036000830152615da781615d6b565b9050919050565b7f436f756c64206e6f7420766572696679206d65726b6c652070726f6f66000000600082015250565b6000615de4601d836144c8565b9150615def82615dae565b602082019050919050565b60006020820190508181036000830152615e1381615dd7565b9050919050565b7f416c7265616479206d696e746564000000000000000000000000000000000000600082015250565b6000615e50600e836144c8565b9150615e5b82615e1a565b602082019050919050565b60006020820190508181036000830152615e7f81615e43565b905091905056fea2646970667358221220414e3a6a3c85c082c920f505dd9548242a2ca746f378df595eea82085b961a4864736f6c63430008110033",
			"opcodes": "PUSH1 0x80 PUSH1 0x40 MSTORE PUSH16 0xB1BBFE1BF5C5934C4BB9C30FEF15E57A PUSH1 0x1 PUSH1 0x0 PUSH2 0x100 EXP DUP2 SLOAD DUP2 PUSH20 0xFFFFFFFFFFFFFFFFFFFFFFFFFFFFFFFFFFFFFFFF MUL NOT AND SWAP1 DUP4 PUSH20 0xFFFFFFFFFFFFFFFFFFFFFFFFFFFFFFFFFFFFFFFF AND MUL OR SWAP1 SSTORE POP CALLVALUE DUP1 ISZERO PUSH3 0x62 JUMPI PUSH1 0x0 DUP1 REVERT JUMPDEST POP PUSH1 0x40 MLOAD PUSH3 0x6076 CODESIZE SUB DUP1 PUSH3 0x6076 DUP4 CODECOPY DUP2 DUP2 ADD PUSH1 0x40 MSTORE DUP2 ADD SWAP1 PUSH3 0x88 SWAP2 SWAP1 PUSH3 0x178 JUMP JUMPDEST PUSH1 0x1 PUSH1 0x0 DUP2 SWAP1 SSTORE POP PUSH1 0x0 PUSH20 0xFFFFFFFFFFFFFFFFFFFFFFFFFFFFFFFFFFFFFFFF AND DUP2 PUSH20 0xFFFFFFFFFFFFFFFFFFFFFFFFFFFFFFFFFFFFFFFF AND EQ PUSH3 0x107 JUMPI DUP1 PUSH1 0x1 PUSH1 0x0 PUSH2 0x100 EXP DUP2 SLOAD DUP2 PUSH20 0xFFFFFFFFFFFFFFFFFFFFFFFFFFFFFFFFFFFFFFFF MUL NOT AND SWAP1 DUP4 PUSH20 0xFFFFFFFFFFFFFFFFFFFFFFFFFFFFFFFFFFFFFFFF AND MUL OR SWAP1 SSTORE POP JUMPDEST POP PUSH3 0x1AA JUMP JUMPDEST PUSH1 0x0 DUP1 REVERT JUMPDEST PUSH1 0x0 PUSH20 0xFFFFFFFFFFFFFFFFFFFFFFFFFFFFFFFFFFFFFFFF DUP3 AND SWAP1 POP SWAP2 SWAP1 POP JUMP JUMPDEST PUSH1 0x0 PUSH3 0x140 DUP3 PUSH3 0x113 JUMP JUMPDEST SWAP1 POP SWAP2 SWAP1 POP JUMP JUMPDEST PUSH3 0x152 DUP2 PUSH3 0x133 JUMP JUMPDEST DUP2 EQ PUSH3 0x15E JUMPI PUSH1 0x0 DUP1 REVERT JUMPDEST POP JUMP JUMPDEST PUSH1 0x0 DUP2 MLOAD SWAP1 POP PUSH3 0x172 DUP2 PUSH3 0x147 JUMP JUMPDEST SWAP3 SWAP2 POP POP JUMP JUMPDEST PUSH1 0x0 PUSH1 0x20 DUP3 DUP5 SUB SLT ISZERO PUSH3 0x191 JUMPI PUSH3 0x190 PUSH3 0x10E JUMP JUMPDEST JUMPDEST PUSH1 0x0 PUSH3 0x1A1 DUP5 DUP3 DUP6 ADD PUSH3 0x161 JUMP JUMPDEST SWAP2 POP POP SWAP3 SWAP2 POP POP JUMP JUMPDEST PUSH2 0x5EBC DUP1 PUSH3 0x1BA PUSH1 0x0 CODECOPY PUSH1 0x0 RETURN INVALID PUSH1 0x80 PUSH1 0x40 MSTORE PUSH1 0x4 CALLDATASIZE LT PUSH2 0xC2 JUMPI PUSH1 0x0 CALLDATALOAD PUSH1 0xE0 SHR DUP1 PUSH4 0x83B6DA80 GT PUSH2 0x7F JUMPI DUP1 PUSH4 0xD5FDFE87 GT PUSH2 0x59 JUMPI DUP1 PUSH4 0xD5FDFE87 EQ PUSH2 0x291 JUMPI DUP1 PUSH4 0xE9DC6375 EQ PUSH2 0x2CE JUMPI DUP1 PUSH4 0xF8A6137B EQ PUSH2 0x30B JUMPI DUP1 PUSH4 0xFA2B068F EQ PUSH2 0x348 JUMPI PUSH2 0xC2 JUMP JUMPDEST DUP1 PUSH4 0x83B6DA80 EQ PUSH2 0x1EE JUMPI DUP1 PUSH4 0xA310099C EQ PUSH2 0x22B JUMPI DUP1 PUSH4 0xCDA08536 EQ PUSH2 0x254 JUMPI PUSH2 0xC2 JUMP JUMPDEST DUP1 PUSH4 0x1FFC9A7 EQ PUSH2 0xC7 JUMPI DUP1 PUSH4 0xF79AB39 EQ PUSH2 0x104 JUMPI DUP1 PUSH4 0x26C858A4 EQ PUSH2 0x141 JUMPI DUP1 PUSH4 0x42F3BEF4 EQ PUSH2 0x15D JUMPI DUP1 PUSH4 0x4DAADFF7 EQ PUSH2 0x19A JUMPI DUP1 PUSH4 0x5F2F5129 EQ PUSH2 0x1C5 JUMPI JUMPDEST PUSH1 0x0 DUP1 REVERT JUMPDEST CALLVALUE DUP1 ISZERO PUSH2 0xD3 JUMPI PUSH1 0x0 DUP1 REVERT JUMPDEST POP PUSH2 0xEE PUSH1 0x4 DUP1 CALLDATASIZE SUB DUP2 ADD SWAP1 PUSH2 0xE9 SWAP2 SWAP1 PUSH2 0x3B7E JUMP JUMPDEST PUSH2 0x364 JUMP JUMPDEST PUSH1 0x40 MLOAD PUSH2 0xFB SWAP2 SWAP1 PUSH2 0x3BC6 JUMP JUMPDEST PUSH1 0x40 MLOAD DUP1 SWAP2 SUB SWAP1 RETURN JUMPDEST CALLVALUE DUP1 ISZERO PUSH2 0x110 JUMPI PUSH1 0x0 DUP1 REVERT JUMPDEST POP PUSH2 0x12B PUSH1 0x4 DUP1 CALLDATASIZE SUB DUP2 ADD SWAP1 PUSH2 0x126 SWAP2 SWAP1 PUSH2 0x3C75 JUMP JUMPDEST PUSH2 0x49E JUMP JUMPDEST PUSH1 0x40 MLOAD PUSH2 0x138 SWAP2 SWAP1 PUSH2 0x3F22 JUMP JUMPDEST PUSH1 0x40 MLOAD DUP1 SWAP2 SUB SWAP1 RETURN JUMPDEST PUSH2 0x15B PUSH1 0x4 DUP1 CALLDATASIZE SUB DUP2 ADD SWAP1 PUSH2 0x156 SWAP2 SWAP1 PUSH2 0x4039 JUMP JUMPDEST PUSH2 0x7DC JUMP JUMPDEST STOP JUMPDEST CALLVALUE DUP1 ISZERO PUSH2 0x169 JUMPI PUSH1 0x0 DUP1 REVERT JUMPDEST POP PUSH2 0x184 PUSH1 0x4 DUP1 CALLDATASIZE SUB DUP2 ADD SWAP1 PUSH2 0x17F SWAP2 SWAP1 PUSH2 0x4108 JUMP JUMPDEST PUSH2 0x109B JUMP JUMPDEST PUSH1 0x40 MLOAD PUSH2 0x191 SWAP2 SWAP1 PUSH2 0x416A JUMP JUMPDEST PUSH1 0x40 MLOAD DUP1 SWAP2 SUB SWAP1 RETURN JUMPDEST CALLVALUE DUP1 ISZERO PUSH2 0x1A6 JUMPI PUSH1 0x0 DUP1 REVERT JUMPDEST POP PUSH2 0x1AF PUSH2 0x125D JUMP JUMPDEST PUSH1 0x40 MLOAD PUSH2 0x1BC SWAP2 SWAP1 PUSH2 0x4194 JUMP JUMPDEST PUSH1 0x40 MLOAD DUP1 SWAP2 SUB SWAP1 RETURN JUMPDEST CALLVALUE DUP1 ISZERO PUSH2 0x1D1 JUMPI PUSH1 0x0 DUP1 REVERT JUMPDEST POP PUSH2 0x1EC PUSH1 0x4 DUP1 CALLDATASIZE SUB DUP2 ADD SWAP1 PUSH2 0x1E7 SWAP2 SWAP1 PUSH2 0x425B JUMP JUMPDEST PUSH2 0x1283 JUMP JUMPDEST STOP JUMPDEST CALLVALUE DUP1 ISZERO PUSH2 0x1FA JUMPI PUSH1 0x0 DUP1 REVERT JUMPDEST POP PUSH2 0x215 PUSH1 0x4 DUP1 CALLDATASIZE SUB DUP2 ADD SWAP1 PUSH2 0x210 SWAP2 SWAP1 PUSH2 0x4327 JUMP JUMPDEST PUSH2 0x16AB JUMP JUMPDEST PUSH1 0x40 MLOAD PUSH2 0x222 SWAP2 SWAP1 PUSH2 0x4392 JUMP JUMPDEST PUSH1 0x40 MLOAD DUP1 SWAP2 SUB SWAP1 RETURN JUMPDEST CALLVALUE DUP1 ISZERO PUSH2 0x237 JUMPI PUSH1 0x0 DUP1 REVERT JUMPDEST POP PUSH2 0x252 PUSH1 0x4 DUP1 CALLDATASIZE SUB DUP2 ADD SWAP1 PUSH2 0x24D SWAP2 SWAP1 PUSH2 0x43AD JUMP JUMPDEST PUSH2 0x20C0 JUMP JUMPDEST STOP JUMPDEST CALLVALUE DUP1 ISZERO PUSH2 0x260 JUMPI PUSH1 0x0 DUP1 REVERT JUMPDEST POP PUSH2 0x27B PUSH1 0x4 DUP1 CALLDATASIZE SUB DUP2 ADD SWAP1 PUSH2 0x276 SWAP2 SWAP1 PUSH2 0x4448 JUMP JUMPDEST PUSH2 0x2740 JUMP JUMPDEST PUSH1 0x40 MLOAD PUSH2 0x288 SWAP2 SWAP1 PUSH2 0x3BC6 JUMP JUMPDEST PUSH1 0x40 MLOAD DUP1 SWAP2 SUB SWAP1 RETURN JUMPDEST CALLVALUE DUP1 ISZERO PUSH2 0x29D JUMPI PUSH1 0x0 DUP1 REVERT JUMPDEST POP PUSH2 0x2B8 PUSH1 0x4 DUP1 CALLDATASIZE SUB DUP2 ADD SWAP1 PUSH2 0x2B3 SWAP2 SWAP1 PUSH2 0x449B JUMP JUMPDEST PUSH2 0x28F5 JUMP JUMPDEST PUSH1 0x40 MLOAD PUSH2 0x2C5 SWAP2 SWAP1 PUSH2 0x4392 JUMP JUMPDEST PUSH1 0x40 MLOAD DUP1 SWAP2 SUB SWAP1 RETURN JUMPDEST CALLVALUE DUP1 ISZERO PUSH2 0x2DA JUMPI PUSH1 0x0 DUP1 REVERT JUMPDEST POP PUSH2 0x2F5 PUSH1 0x4 DUP1 CALLDATASIZE SUB DUP2 ADD SWAP1 PUSH2 0x2F0 SWAP2 SWAP1 PUSH2 0x3C75 JUMP JUMPDEST PUSH2 0x2984 JUMP JUMPDEST PUSH1 0x40 MLOAD PUSH2 0x302 SWAP2 SWAP1 PUSH2 0x4512 JUMP JUMPDEST PUSH1 0x40 MLOAD DUP1 SWAP2 SUB SWAP1 RETURN JUMPDEST CALLVALUE DUP1 ISZERO PUSH2 0x317 JUMPI PUSH1 0x0 DUP1 REVERT JUMPDEST POP PUSH2 0x332 PUSH1 0x4 DUP1 CALLDATASIZE SUB DUP2 ADD SWAP1 PUSH2 0x32D SWAP2 SWAP1 PUSH2 0x4534 JUMP JUMPDEST PUSH2 0x2DE0 JUMP JUMPDEST PUSH1 0x40 MLOAD PUSH2 0x33F SWAP2 SWAP1 PUSH2 0x4666 JUMP JUMPDEST PUSH1 0x40 MLOAD DUP1 SWAP2 SUB SWAP1 RETURN JUMPDEST PUSH2 0x362 PUSH1 0x4 DUP1 CALLDATASIZE SUB DUP2 ADD SWAP1 PUSH2 0x35D SWAP2 SWAP1 PUSH2 0x46DE JUMP JUMPDEST PUSH2 0x2EB1 JUMP JUMPDEST STOP JUMPDEST PUSH1 0x0 PUSH32 0xE1BA11900000000000000000000000000000000000000000000000000000000 PUSH28 0xFFFFFFFFFFFFFFFFFFFFFFFFFFFFFFFFFFFFFFFFFFFFFFFFFFFFFFFF NOT AND DUP3 PUSH28 0xFFFFFFFFFFFFFFFFFFFFFFFFFFFFFFFFFFFFFFFFFFFFFFFFFFFFFFFF NOT AND EQ DUP1 PUSH2 0x42F JUMPI POP PUSH32 0xE9DC637500000000000000000000000000000000000000000000000000000000 PUSH28 0xFFFFFFFFFFFFFFFFFFFFFFFFFFFFFFFFFFFFFFFFFFFFFFFFFFFFFFFF NOT AND DUP3 PUSH28 0xFFFFFFFFFFFFFFFFFFFFFFFFFFFFFFFFFFFFFFFFFFFFFFFFFFFFFFFF NOT AND EQ JUMPDEST DUP1 PUSH2 0x497 JUMPI POP PUSH32 0x1FFC9A700000000000000000000000000000000000000000000000000000000 PUSH28 0xFFFFFFFFFFFFFFFFFFFFFFFFFFFFFFFFFFFFFFFFFFFFFFFFFFFFFFFF NOT AND DUP3 PUSH28 0xFFFFFFFFFFFFFFFFFFFFFFFFFFFFFFFFFFFFFFFFFFFFFFFFFFFFFFFF NOT AND EQ JUMPDEST SWAP1 POP SWAP2 SWAP1 POP JUMP JUMPDEST PUSH2 0x4A6 PUSH2 0x3A6B JUMP JUMPDEST PUSH1 0x0 PUSH1 0x3 DUP2 GT ISZERO PUSH2 0x4BA JUMPI PUSH2 0x4B9 PUSH2 0x3CF5 JUMP JUMPDEST JUMPDEST PUSH1 0x3 PUSH1 0x0 DUP6 PUSH20 0xFFFFFFFFFFFFFFFFFFFFFFFFFFFFFFFFFFFFFFFF AND PUSH20 0xFFFFFFFFFFFFFFFFFFFFFFFFFFFFFFFFFFFFFFFF AND DUP2 MSTORE PUSH1 0x20 ADD SWAP1 DUP2 MSTORE PUSH1 0x20 ADD PUSH1 0x0 KECCAK256 PUSH1 0x0 DUP5 DUP2 MSTORE PUSH1 0x20 ADD SWAP1 DUP2 MSTORE PUSH1 0x20 ADD PUSH1 0x0 KECCAK256 PUSH1 0x0 ADD PUSH1 0x18 SWAP1 SLOAD SWAP1 PUSH2 0x100 EXP SWAP1 DIV PUSH1 0xFF AND PUSH1 0x3 DUP2 GT ISZERO PUSH2 0x52D JUMPI PUSH2 0x52C PUSH2 0x3CF5 JUMP JUMPDEST JUMPDEST SUB PUSH2 0x56D JUMPI PUSH1 0x40 MLOAD PUSH32 0x8C379A000000000000000000000000000000000000000000000000000000000 DUP2 MSTORE PUSH1 0x4 ADD PUSH2 0x564 SWAP1 PUSH2 0x47C4 JUMP JUMPDEST PUSH1 0x40 MLOAD DUP1 SWAP2 SUB SWAP1 REVERT JUMPDEST PUSH1 0x3 PUSH1 0x0 DUP5 PUSH20 0xFFFFFFFFFFFFFFFFFFFFFFFFFFFFFFFFFFFFFFFF AND PUSH20 0xFFFFFFFFFFFFFFFFFFFFFFFFFFFFFFFFFFFFFFFF AND DUP2 MSTORE PUSH1 0x20 ADD SWAP1 DUP2 MSTORE PUSH1 0x20 ADD PUSH1 0x0 KECCAK256 PUSH1 0x0 DUP4 DUP2 MSTORE PUSH1 0x20 ADD SWAP1 DUP2 MSTORE PUSH1 0x20 ADD PUSH1 0x0 KECCAK256 PUSH1 0x40 MLOAD DUP1 PUSH2 0x160 ADD PUSH1 0x40 MSTORE SWAP1 DUP2 PUSH1 0x0 DUP3 ADD PUSH1 0x0 SWAP1 SLOAD SWAP1 PUSH2 0x100 EXP SWAP1 DIV PUSH4 0xFFFFFFFF AND PUSH4 0xFFFFFFFF AND PUSH4 0xFFFFFFFF AND DUP2 MSTORE PUSH1 0x20 ADD PUSH1 0x0 DUP3 ADD PUSH1 0x4 SWAP1 SLOAD SWAP1 PUSH2 0x100 EXP SWAP1 DIV PUSH4 0xFFFFFFFF AND PUSH4 0xFFFFFFFF AND PUSH4 0xFFFFFFFF AND DUP2 MSTORE PUSH1 0x20 ADD PUSH1 0x0 DUP3 ADD PUSH1 0x8 SWAP1 SLOAD SWAP1 PUSH2 0x100 EXP SWAP1 DIV PUSH4 0xFFFFFFFF AND PUSH4 0xFFFFFFFF AND PUSH4 0xFFFFFFFF AND DUP2 MSTORE PUSH1 0x20 ADD PUSH1 0x0 DUP3 ADD PUSH1 0xC SWAP1 SLOAD SWAP1 PUSH2 0x100 EXP SWAP1 DIV PUSH6 0xFFFFFFFFFFFF AND PUSH6 0xFFFFFFFFFFFF AND PUSH6 0xFFFFFFFFFFFF AND DUP2 MSTORE PUSH1 0x20 ADD PUSH1 0x0 DUP3 ADD PUSH1 0x12 SWAP1 SLOAD SWAP1 PUSH2 0x100 EXP SWAP1 DIV PUSH6 0xFFFFFFFFFFFF AND PUSH6 0xFFFFFFFFFFFF AND PUSH6 0xFFFFFFFFFFFF AND DUP2 MSTORE PUSH1 0x20 ADD PUSH1 0x0 DUP3 ADD PUSH1 0x18 SWAP1 SLOAD SWAP1 PUSH2 0x100 EXP SWAP1 DIV PUSH1 0xFF AND PUSH1 0x3 DUP2 GT ISZERO PUSH2 0x6B8 JUMPI PUSH2 0x6B7 PUSH2 0x3CF5 JUMP JUMPDEST JUMPDEST PUSH1 0x3 DUP2 GT ISZERO PUSH2 0x6CA JUMPI PUSH2 0x6C9 PUSH2 0x3CF5 JUMP JUMPDEST JUMPDEST DUP2 MSTORE PUSH1 0x20 ADD PUSH1 0x1 DUP3 ADD SLOAD DUP2 MSTORE PUSH1 0x20 ADD PUSH1 0x2 DUP3 ADD DUP1 SLOAD PUSH2 0x6E8 SWAP1 PUSH2 0x4813 JUMP JUMPDEST DUP1 PUSH1 0x1F ADD PUSH1 0x20 DUP1 SWAP2 DIV MUL PUSH1 0x20 ADD PUSH1 0x40 MLOAD SWAP1 DUP2 ADD PUSH1 0x40 MSTORE DUP1 SWAP3 SWAP2 SWAP1 DUP2 DUP2 MSTORE PUSH1 0x20 ADD DUP3 DUP1 SLOAD PUSH2 0x714 SWAP1 PUSH2 0x4813 JUMP JUMPDEST DUP1 ISZERO PUSH2 0x761 JUMPI DUP1 PUSH1 0x1F LT PUSH2 0x736 JUMPI PUSH2 0x100 DUP1 DUP4 SLOAD DIV MUL DUP4 MSTORE SWAP2 PUSH1 0x20 ADD SWAP2 PUSH2 0x761 JUMP JUMPDEST DUP3 ADD SWAP2 SWAP1 PUSH1 0x0 MSTORE PUSH1 0x20 PUSH1 0x0 KECCAK256 SWAP1 JUMPDEST DUP2 SLOAD DUP2 MSTORE SWAP1 PUSH1 0x1 ADD SWAP1 PUSH1 0x20 ADD DUP1 DUP4 GT PUSH2 0x744 JUMPI DUP3 SWAP1 SUB PUSH1 0x1F AND DUP3 ADD SWAP2 JUMPDEST POP POP POP POP POP DUP2 MSTORE PUSH1 0x20 ADD PUSH1 0x3 DUP3 ADD SLOAD DUP2 MSTORE PUSH1 0x20 ADD PUSH1 0x4 DUP3 ADD SLOAD DUP2 MSTORE PUSH1 0x20 ADD PUSH1 0x5 DUP3 ADD PUSH1 0x0 SWAP1 SLOAD SWAP1 PUSH2 0x100 EXP SWAP1 DIV PUSH20 0xFFFFFFFFFFFFFFFFFFFFFFFFFFFFFFFFFFFFFFFF AND PUSH20 0xFFFFFFFFFFFFFFFFFFFFFFFFFFFFFFFFFFFFFFFF AND PUSH20 0xFFFFFFFFFFFFFFFFFFFFFFFFFFFFFFFFFFFFFFFF AND DUP2 MSTORE POP POP SWAP1 POP SWAP3 SWAP2 POP POP JUMP JUMPDEST PUSH1 0x0 PUSH1 0x3 PUSH1 0x0 DUP11 PUSH20 0xFFFFFFFFFFFFFFFFFFFFFFFFFFFFFFFFFFFFFFFF AND PUSH20 0xFFFFFFFFFFFFFFFFFFFFFFFFFFFFFFFFFFFFFFFF AND DUP2 MSTORE PUSH1 0x20 ADD SWAP1 DUP2 MSTORE PUSH1 0x20 ADD PUSH1 0x0 KECCAK256 PUSH1 0x0 DUP10 DUP2 MSTORE PUSH1 0x20 ADD SWAP1 DUP2 MSTORE PUSH1 0x20 ADD PUSH1 0x0 KECCAK256 SWAP1 POP PUSH1 0x0 PUSH1 0x3 DUP2 GT ISZERO PUSH2 0x844 JUMPI PUSH2 0x843 PUSH2 0x3CF5 JUMP JUMPDEST JUMPDEST DUP2 PUSH1 0x0 ADD PUSH1 0x18 SWAP1 SLOAD SWAP1 PUSH2 0x100 EXP SWAP1 DIV PUSH1 0xFF AND PUSH1 0x3 DUP2 GT ISZERO PUSH2 0x868 JUMPI PUSH2 0x867 PUSH2 0x3CF5 JUMP JUMPDEST JUMPDEST SUB PUSH2 0x8A8 JUMPI PUSH1 0x40 MLOAD PUSH32 0x8C379A000000000000000000000000000000000000000000000000000000000 DUP2 MSTORE PUSH1 0x4 ADD PUSH2 0x89F SWAP1 PUSH2 0x47C4 JUMP JUMPDEST PUSH1 0x40 MLOAD DUP1 SWAP2 SUB SWAP1 REVERT JUMPDEST DUP7 PUSH2 0xFFFF AND DUP2 PUSH1 0x4 ADD SLOAD PUSH2 0x8BC SWAP2 SWAP1 PUSH2 0x4873 JUMP JUMPDEST CALLVALUE EQ PUSH2 0x8FD JUMPI PUSH1 0x40 MLOAD PUSH32 0x8C379A000000000000000000000000000000000000000000000000000000000 DUP2 MSTORE PUSH1 0x4 ADD PUSH2 0x8F4 SWAP1 PUSH2 0x4901 JUMP JUMPDEST PUSH1 0x40 MLOAD DUP1 SWAP2 SUB SWAP1 REVERT JUMPDEST PUSH1 0x0 DUP2 PUSH1 0x0 ADD PUSH1 0xC SWAP1 SLOAD SWAP1 PUSH2 0x100 EXP SWAP1 DIV PUSH6 0xFFFFFFFFFFFF AND PUSH6 0xFFFFFFFFFFFF AND EQ DUP1 PUSH2 0x947 JUMPI POP TIMESTAMP DUP2 PUSH1 0x0 ADD PUSH1 0xC SWAP1 SLOAD SWAP1 PUSH2 0x100 EXP SWAP1 DIV PUSH6 0xFFFFFFFFFFFF AND PUSH6 0xFFFFFFFFFFFF AND LT JUMPDEST PUSH2 0x986 JUMPI PUSH1 0x40 MLOAD PUSH32 0x8C379A000000000000000000000000000000000000000000000000000000000 DUP2 MSTORE PUSH1 0x4 ADD PUSH2 0x97D SWAP1 PUSH2 0x496D JUMP JUMPDEST PUSH1 0x40 MLOAD DUP1 SWAP2 SUB SWAP1 REVERT JUMPDEST PUSH1 0x0 DUP2 PUSH1 0x0 ADD PUSH1 0x12 SWAP1 SLOAD SWAP1 PUSH2 0x100 EXP SWAP1 DIV PUSH6 0xFFFFFFFFFFFF AND PUSH6 0xFFFFFFFFFFFF AND EQ DUP1 PUSH2 0x9D1 JUMPI POP TIMESTAMP DUP2 PUSH1 0x0 ADD PUSH1 0x12 SWAP1 SLOAD SWAP1 PUSH2 0x100 EXP SWAP1 DIV PUSH6 0xFFFFFFFFFFFF AND PUSH6 0xFFFFFFFFFFFF AND LT ISZERO JUMPDEST PUSH2 0xA10 JUMPI PUSH1 0x40 MLOAD PUSH32 0x8C379A000000000000000000000000000000000000000000000000000000000 DUP2 MSTORE PUSH1 0x4 ADD PUSH2 0xA07 SWAP1 PUSH2 0x49D9 JUMP JUMPDEST PUSH1 0x40 MLOAD DUP1 SWAP2 SUB SWAP1 REVERT JUMPDEST PUSH1 0x0 DUP2 PUSH1 0x0 ADD PUSH1 0x4 SWAP1 SLOAD SWAP1 PUSH2 0x100 EXP SWAP1 DIV PUSH4 0xFFFFFFFF AND PUSH4 0xFFFFFFFF AND EQ DUP1 PUSH2 0xA7C JUMPI POP DUP1 PUSH1 0x0 ADD PUSH1 0x4 SWAP1 SLOAD SWAP1 PUSH2 0x100 EXP SWAP1 DIV PUSH4 0xFFFFFFFF AND PUSH4 0xFFFFFFFF AND DUP8 PUSH2 0xFFFF AND DUP3 PUSH1 0x0 ADD PUSH1 0x0 SWAP1 SLOAD SWAP1 PUSH2 0x100 EXP SWAP1 DIV PUSH4 0xFFFFFFFF AND PUSH2 0xA73 SWAP2 SWAP1 PUSH2 0x49F9 JUMP JUMPDEST PUSH4 0xFFFFFFFF AND GT ISZERO JUMPDEST PUSH2 0xABB JUMPI PUSH1 0x40 MLOAD PUSH32 0x8C379A000000000000000000000000000000000000000000000000000000000 DUP2 MSTORE PUSH1 0x4 ADD PUSH2 0xAB2 SWAP1 PUSH2 0x4AA3 JUMP JUMPDEST PUSH1 0x40 MLOAD DUP1 SWAP2 SUB SWAP1 REVERT JUMPDEST DUP7 PUSH2 0xFFFF AND DUP2 PUSH1 0x0 ADD PUSH1 0x0 DUP3 DUP3 DUP3 SWAP1 SLOAD SWAP1 PUSH2 0x100 EXP SWAP1 DIV PUSH4 0xFFFFFFFF AND ADD SWAP3 POP PUSH2 0x100 EXP DUP2 SLOAD DUP2 PUSH4 0xFFFFFFFF MUL NOT AND SWAP1 DUP4 PUSH4 0xFFFFFFFF AND MUL OR SWAP1 SSTORE POP PUSH1 0x0 DUP2 PUSH1 0x1 ADD SLOAD EQ PUSH2 0xC25 JUMPI DUP6 DUP6 SWAP1 POP DUP8 PUSH2 0xFFFF AND EQ DUP1 ISZERO PUSH2 0xB1F JUMPI POP DUP4 DUP4 SWAP1 POP DUP8 PUSH2 0xFFFF AND EQ JUMPDEST PUSH2 0xB5E JUMPI PUSH1 0x40 MLOAD PUSH32 0x8C379A000000000000000000000000000000000000000000000000000000000 DUP2 MSTORE PUSH1 0x4 ADD PUSH2 0xB55 SWAP1 PUSH2 0x4B0F JUMP JUMPDEST PUSH1 0x40 MLOAD DUP1 SWAP2 SUB SWAP1 REVERT JUMPDEST PUSH1 0x0 JUMPDEST DUP8 PUSH2 0xFFFF AND DUP2 LT ISZERO PUSH2 0xC1F JUMPI PUSH1 0x0 DUP8 DUP8 DUP4 DUP2 DUP2 LT PUSH2 0xB82 JUMPI PUSH2 0xB81 PUSH2 0x4B2F JUMP JUMPDEST JUMPDEST SWAP1 POP PUSH1 0x20 MUL ADD PUSH1 0x20 DUP2 ADD SWAP1 PUSH2 0xB97 SWAP2 SWAP1 PUSH2 0x4B5E JUMP JUMPDEST SWAP1 POP PUSH1 0x0 DUP7 DUP7 DUP5 DUP2 DUP2 LT PUSH2 0xBAE JUMPI PUSH2 0xBAD PUSH2 0x4B2F JUMP JUMPDEST JUMPDEST SWAP1 POP PUSH1 0x20 MUL DUP2 ADD SWAP1 PUSH2 0xBC0 SWAP2 SWAP1 PUSH2 0x4B9A JUMP JUMPDEST DUP1 DUP1 PUSH1 0x20 MUL PUSH1 0x20 ADD PUSH1 0x40 MLOAD SWAP1 DUP2 ADD PUSH1 0x40 MSTORE DUP1 SWAP4 SWAP3 SWAP2 SWAP1 DUP2 DUP2 MSTORE PUSH1 0x20 ADD DUP4 DUP4 PUSH1 0x20 MUL DUP1 DUP3 DUP5 CALLDATACOPY PUSH1 0x0 DUP2 DUP5 ADD MSTORE PUSH1 0x1F NOT PUSH1 0x1F DUP3 ADD AND SWAP1 POP DUP1 DUP4 ADD SWAP3 POP POP POP POP POP POP POP SWAP1 POP PUSH2 0xC10 DUP5 DUP14 DUP14 DUP6 DUP6 DUP11 PUSH2 0x36B2 JUMP JUMPDEST DUP3 DUP1 PUSH1 0x1 ADD SWAP4 POP POP POP POP PUSH2 0xB61 JUMP JUMPDEST POP PUSH2 0xDE1 JUMP JUMPDEST PUSH1 0x0 DUP2 PUSH1 0x0 ADD PUSH1 0x8 SWAP1 SLOAD SWAP1 PUSH2 0x100 EXP SWAP1 DIV PUSH4 0xFFFFFFFF AND PUSH4 0xFFFFFFFF AND EQ PUSH2 0xDE0 JUMPI DUP1 PUSH1 0x0 ADD PUSH1 0x8 SWAP1 SLOAD SWAP1 PUSH2 0x100 EXP SWAP1 DIV PUSH4 0xFFFFFFFF AND PUSH4 0xFFFFFFFF AND DUP8 PUSH2 0xFFFF AND PUSH1 0x4 PUSH1 0x0 DUP13 PUSH20 0xFFFFFFFFFFFFFFFFFFFFFFFFFFFFFFFFFFFFFFFF AND PUSH20 0xFFFFFFFFFFFFFFFFFFFFFFFFFFFFFFFFFFFFFFFF AND DUP2 MSTORE PUSH1 0x20 ADD SWAP1 DUP2 MSTORE PUSH1 0x20 ADD PUSH1 0x0 KECCAK256 PUSH1 0x0 DUP12 DUP2 MSTORE PUSH1 0x20 ADD SWAP1 DUP2 MSTORE PUSH1 0x20 ADD PUSH1 0x0 KECCAK256 PUSH1 0x0 CALLER PUSH20 0xFFFFFFFFFFFFFFFFFFFFFFFFFFFFFFFFFFFFFFFF AND PUSH20 0xFFFFFFFFFFFFFFFFFFFFFFFFFFFFFFFFFFFFFFFF AND DUP2 MSTORE PUSH1 0x20 ADD SWAP1 DUP2 MSTORE PUSH1 0x20 ADD PUSH1 0x0 KECCAK256 SLOAD PUSH2 0xCFF SWAP2 SWAP1 PUSH2 0x4BFD JUMP JUMPDEST GT ISZERO PUSH2 0xD40 JUMPI PUSH1 0x40 MLOAD PUSH32 0x8C379A000000000000000000000000000000000000000000000000000000000 DUP2 MSTORE PUSH1 0x4 ADD PUSH2 0xD37 SWAP1 PUSH2 0x4CA3 JUMP JUMPDEST PUSH1 0x40 MLOAD DUP1 SWAP2 SUB SWAP1 REVERT JUMPDEST DUP7 PUSH2 0xFFFF AND PUSH1 0x4 PUSH1 0x0 DUP12 PUSH20 0xFFFFFFFFFFFFFFFFFFFFFFFFFFFFFFFFFFFFFFFF AND PUSH20 0xFFFFFFFFFFFFFFFFFFFFFFFFFFFFFFFFFFFFFFFF AND DUP2 MSTORE PUSH1 0x20 ADD SWAP1 DUP2 MSTORE PUSH1 0x20 ADD PUSH1 0x0 KECCAK256 PUSH1 0x0 DUP11 DUP2 MSTORE PUSH1 0x20 ADD SWAP1 DUP2 MSTORE PUSH1 0x20 ADD PUSH1 0x0 KECCAK256 PUSH1 0x0 CALLER PUSH20 0xFFFFFFFFFFFFFFFFFFFFFFFFFFFFFFFFFFFFFFFF AND PUSH20 0xFFFFFFFFFFFFFFFFFFFFFFFFFFFFFFFFFFFFFFFF AND DUP2 MSTORE PUSH1 0x20 ADD SWAP1 DUP2 MSTORE PUSH1 0x20 ADD PUSH1 0x0 KECCAK256 PUSH1 0x0 DUP3 DUP3 SLOAD ADD SWAP3 POP POP DUP2 SWAP1 SSTORE POP JUMPDEST JUMPDEST PUSH1 0x0 PUSH1 0x1 PUSH8 0xFFFFFFFFFFFFFFFF DUP2 GT ISZERO PUSH2 0xDFE JUMPI PUSH2 0xDFD PUSH2 0x4CC3 JUMP JUMPDEST JUMPDEST PUSH1 0x40 MLOAD SWAP1 DUP1 DUP3 MSTORE DUP1 PUSH1 0x20 MUL PUSH1 0x20 ADD DUP3 ADD PUSH1 0x40 MSTORE DUP1 ISZERO PUSH2 0xE2C JUMPI DUP2 PUSH1 0x20 ADD PUSH1 0x20 DUP3 MUL DUP1 CALLDATASIZE DUP4 CALLDATACOPY DUP1 DUP3 ADD SWAP2 POP POP SWAP1 POP JUMPDEST POP SWAP1 POP CALLER DUP2 PUSH1 0x0 DUP2 MLOAD DUP2 LT PUSH2 0xE44 JUMPI PUSH2 0xE43 PUSH2 0x4B2F JUMP JUMPDEST JUMPDEST PUSH1 0x20 MUL PUSH1 0x20 ADD ADD SWAP1 PUSH20 0xFFFFFFFFFFFFFFFFFFFFFFFFFFFFFFFFFFFFFFFF AND SWAP1 DUP2 PUSH20 0xFFFFFFFFFFFFFFFFFFFFFFFFFFFFFFFFFFFFFFFF AND DUP2 MSTORE POP POP PUSH1 0x0 PUSH1 0x1 PUSH8 0xFFFFFFFFFFFFFFFF DUP2 GT ISZERO PUSH2 0xE9B JUMPI PUSH2 0xE9A PUSH2 0x4CC3 JUMP JUMPDEST JUMPDEST PUSH1 0x40 MLOAD SWAP1 DUP1 DUP3 MSTORE DUP1 PUSH1 0x20 MUL PUSH1 0x20 ADD DUP3 ADD PUSH1 0x40 MSTORE DUP1 ISZERO PUSH2 0xEC9 JUMPI DUP2 PUSH1 0x20 ADD PUSH1 0x20 DUP3 MUL DUP1 CALLDATASIZE DUP4 CALLDATACOPY DUP1 DUP3 ADD SWAP2 POP POP SWAP1 POP JUMPDEST POP SWAP1 POP DUP9 PUSH2 0xFFFF AND DUP2 PUSH1 0x0 DUP2 MLOAD DUP2 LT PUSH2 0xEE5 JUMPI PUSH2 0xEE4 PUSH2 0x4B2F JUMP JUMPDEST JUMPDEST PUSH1 0x20 MUL PUSH1 0x20 ADD ADD DUP2 DUP2 MSTORE POP POP PUSH1 0x0 PUSH1 0x1 PUSH8 0xFFFFFFFFFFFFFFFF DUP2 GT ISZERO PUSH2 0xF0E JUMPI PUSH2 0xF0D PUSH2 0x4CC3 JUMP JUMPDEST JUMPDEST PUSH1 0x40 MLOAD SWAP1 DUP1 DUP3 MSTORE DUP1 PUSH1 0x20 MUL PUSH1 0x20 ADD DUP3 ADD PUSH1 0x40 MSTORE DUP1 ISZERO PUSH2 0xF3C JUMPI DUP2 PUSH1 0x20 ADD PUSH1 0x20 DUP3 MUL DUP1 CALLDATASIZE DUP4 CALLDATACOPY DUP1 DUP3 ADD SWAP2 POP POP SWAP1 POP JUMPDEST POP SWAP1 POP DUP4 PUSH1 0x3 ADD SLOAD DUP2 PUSH1 0x0 DUP2 MLOAD DUP2 LT PUSH2 0xF58 JUMPI PUSH2 0xF57 PUSH2 0x4B2F JUMP JUMPDEST JUMPDEST PUSH1 0x20 MUL PUSH1 0x20 ADD ADD DUP2 DUP2 MSTORE POP POP DUP12 PUSH20 0xFFFFFFFFFFFFFFFFFFFFFFFFFFFFFFFFFFFFFFFF AND PUSH4 0xE6C884DC DUP5 DUP4 DUP6 PUSH1 0x40 MLOAD DUP5 PUSH4 0xFFFFFFFF AND PUSH1 0xE0 SHL DUP2 MSTORE PUSH1 0x4 ADD PUSH2 0xFA1 SWAP4 SWAP3 SWAP2 SWAP1 PUSH2 0x4E50 JUMP JUMPDEST PUSH1 0x0 PUSH1 0x40 MLOAD DUP1 DUP4 SUB DUP2 PUSH1 0x0 DUP8 DUP1 EXTCODESIZE ISZERO DUP1 ISZERO PUSH2 0xFBB JUMPI PUSH1 0x0 DUP1 REVERT JUMPDEST POP GAS CALL ISZERO DUP1 ISZERO PUSH2 0xFCF JUMPI RETURNDATASIZE PUSH1 0x0 DUP1 RETURNDATACOPY RETURNDATASIZE PUSH1 0x0 REVERT JUMPDEST POP POP POP POP DUP4 PUSH1 0x5 ADD PUSH1 0x0 SWAP1 SLOAD SWAP1 PUSH2 0x100 EXP SWAP1 DIV PUSH20 0xFFFFFFFFFFFFFFFFFFFFFFFFFFFFFFFFFFFFFFFF AND PUSH20 0xFFFFFFFFFFFFFFFFFFFFFFFFFFFFFFFFFFFFFFFF AND PUSH2 0x8FC CALLVALUE SWAP1 DUP2 ISZERO MUL SWAP1 PUSH1 0x40 MLOAD PUSH1 0x0 PUSH1 0x40 MLOAD DUP1 DUP4 SUB DUP2 DUP6 DUP9 DUP9 CALL SWAP4 POP POP POP POP ISZERO DUP1 ISZERO PUSH2 0x103D JUMPI RETURNDATASIZE PUSH1 0x0 DUP1 RETURNDATACOPY RETURNDATASIZE PUSH1 0x0 REVERT JUMPDEST POP DUP11 DUP13 PUSH20 0xFFFFFFFFFFFFFFFFFFFFFFFFFFFFFFFFFFFFFFFF AND PUSH32 0x74F5D3254DFA39A7B1217A27D5D9B3E061EAFE11720ECA1CF499DA2DC1EB1259 DUP13 PUSH1 0x40 MLOAD PUSH2 0x1085 SWAP2 SWAP1 PUSH2 0x4EAB JUMP JUMPDEST PUSH1 0x40 MLOAD DUP1 SWAP2 SUB SWAP1 LOG3 POP POP POP POP POP POP POP POP POP POP POP POP JUMP JUMPDEST PUSH1 0x0 DUP1 PUSH1 0x3 PUSH1 0x0 DUP6 PUSH20 0xFFFFFFFFFFFFFFFFFFFFFFFFFFFFFFFFFFFFFFFF AND PUSH20 0xFFFFFFFFFFFFFFFFFFFFFFFFFFFFFFFFFFFFFFFF AND DUP2 MSTORE PUSH1 0x20 ADD SWAP1 DUP2 MSTORE PUSH1 0x20 ADD PUSH1 0x0 KECCAK256 PUSH1 0x0 DUP5 DUP2 MSTORE PUSH1 0x20 ADD SWAP1 DUP2 MSTORE PUSH1 0x20 ADD PUSH1 0x0 KECCAK256 SWAP1 POP PUSH1 0x0 PUSH1 0x3 DUP2 GT ISZERO PUSH2 0x1104 JUMPI PUSH2 0x1103 PUSH2 0x3CF5 JUMP JUMPDEST JUMPDEST DUP2 PUSH1 0x0 ADD PUSH1 0x18 SWAP1 SLOAD SWAP1 PUSH2 0x100 EXP SWAP1 DIV PUSH1 0xFF AND PUSH1 0x3 DUP2 GT ISZERO PUSH2 0x1128 JUMPI PUSH2 0x1127 PUSH2 0x3CF5 JUMP JUMPDEST JUMPDEST SUB PUSH2 0x1168 JUMPI PUSH1 0x40 MLOAD PUSH32 0x8C379A000000000000000000000000000000000000000000000000000000000 DUP2 MSTORE PUSH1 0x4 ADD PUSH2 0x115F SWAP1 PUSH2 0x47C4 JUMP JUMPDEST PUSH1 0x40 MLOAD DUP1 SWAP2 SUB SWAP1 REVERT JUMPDEST PUSH1 0x0 DUP2 PUSH1 0x0 ADD PUSH1 0x8 SWAP1 SLOAD SWAP1 PUSH2 0x100 EXP SWAP1 DIV PUSH4 0xFFFFFFFF AND PUSH4 0xFFFFFFFF AND SUB PUSH2 0x11C5 JUMPI PUSH1 0x40 MLOAD PUSH32 0x8C379A000000000000000000000000000000000000000000000000000000000 DUP2 MSTORE PUSH1 0x4 ADD PUSH2 0x11BC SWAP1 PUSH2 0x4F38 JUMP JUMPDEST PUSH1 0x40 MLOAD DUP1 SWAP2 SUB SWAP1 REVERT JUMPDEST PUSH1 0x4 PUSH1 0x0 DUP6 PUSH20 0xFFFFFFFFFFFFFFFFFFFFFFFFFFFFFFFFFFFFFFFF AND PUSH20 0xFFFFFFFFFFFFFFFFFFFFFFFFFFFFFFFFFFFFFFFF AND DUP2 MSTORE PUSH1 0x20 ADD SWAP1 DUP2 MSTORE PUSH1 0x20 ADD PUSH1 0x0 KECCAK256 PUSH1 0x0 DUP5 DUP2 MSTORE PUSH1 0x20 ADD SWAP1 DUP2 MSTORE PUSH1 0x20 ADD PUSH1 0x0 KECCAK256 PUSH1 0x0 DUP7 PUSH20 0xFFFFFFFFFFFFFFFFFFFFFFFFFFFFFFFFFFFFFFFF AND PUSH20 0xFFFFFFFFFFFFFFFFFFFFFFFFFFFFFFFFFFFFFFFF AND DUP2 MSTORE PUSH1 0x20 ADD SWAP1 DUP2 MSTORE PUSH1 0x20 ADD PUSH1 0x0 KECCAK256 SLOAD SWAP2 POP POP SWAP4 SWAP3 POP POP POP JUMP JUMPDEST PUSH1 0x1 PUSH1 0x0 SWAP1 SLOAD SWAP1 PUSH2 0x100 EXP SWAP1 DIV PUSH20 0xFFFFFFFFFFFFFFFFFFFFFFFFFFFFFFFFFFFFFFFF AND DUP2 JUMP JUMPDEST DUP6 PUSH1 0x0 DUP2 SWAP1 POP DUP1 PUSH20 0xFFFFFFFFFFFFFFFFFFFFFFFFFFFFFFFFFFFFFFFF AND PUSH4 0x24D7806C CALLER PUSH1 0x40 MLOAD DUP3 PUSH4 0xFFFFFFFF AND PUSH1 0xE0 SHL DUP2 MSTORE PUSH1 0x4 ADD PUSH2 0x12C2 SWAP2 SWAP1 PUSH2 0x4194 JUMP JUMPDEST PUSH1 0x20 PUSH1 0x40 MLOAD DUP1 DUP4 SUB DUP2 DUP7 GAS STATICCALL ISZERO DUP1 ISZERO PUSH2 0x12DF JUMPI RETURNDATASIZE PUSH1 0x0 DUP1 RETURNDATACOPY RETURNDATASIZE PUSH1 0x0 REVERT JUMPDEST POP POP POP POP PUSH1 0x40 MLOAD RETURNDATASIZE PUSH1 0x1F NOT PUSH1 0x1F DUP3 ADD AND DUP3 ADD DUP1 PUSH1 0x40 MSTORE POP DUP2 ADD SWAP1 PUSH2 0x1303 SWAP2 SWAP1 PUSH2 0x4F84 JUMP JUMPDEST PUSH2 0x1342 JUMPI PUSH1 0x40 MLOAD PUSH32 0x8C379A000000000000000000000000000000000000000000000000000000000 DUP2 MSTORE PUSH1 0x4 ADD PUSH2 0x1339 SWAP1 PUSH2 0x5023 JUMP JUMPDEST PUSH1 0x40 MLOAD DUP1 SWAP2 SUB SWAP1 REVERT JUMPDEST DUP4 DUP4 SWAP1 POP DUP7 DUP7 SWAP1 POP EQ PUSH2 0x138A JUMPI PUSH1 0x40 MLOAD PUSH32 0x8C379A000000000000000000000000000000000000000000000000000000000 DUP2 MSTORE PUSH1 0x4 ADD PUSH2 0x1381 SWAP1 PUSH2 0x50B5 JUMP JUMPDEST PUSH1 0x40 MLOAD DUP1 SWAP2 SUB SWAP1 REVERT JUMPDEST PUSH1 0x0 PUSH1 0x3 PUSH1 0x0 DUP11 PUSH20 0xFFFFFFFFFFFFFFFFFFFFFFFFFFFFFFFFFFFFFFFF AND PUSH20 0xFFFFFFFFFFFFFFFFFFFFFFFFFFFFFFFFFFFFFFFF AND DUP2 MSTORE PUSH1 0x20 ADD SWAP1 DUP2 MSTORE PUSH1 0x20 ADD PUSH1 0x0 KECCAK256 PUSH1 0x0 DUP10 DUP2 MSTORE PUSH1 0x20 ADD SWAP1 DUP2 MSTORE PUSH1 0x20 ADD PUSH1 0x0 KECCAK256 SWAP1 POP PUSH1 0x0 PUSH1 0x1 PUSH8 0xFFFFFFFFFFFFFFFF DUP2 GT ISZERO PUSH2 0x13FB JUMPI PUSH2 0x13FA PUSH2 0x4CC3 JUMP JUMPDEST JUMPDEST PUSH1 0x40 MLOAD SWAP1 DUP1 DUP3 MSTORE DUP1 PUSH1 0x20 MUL PUSH1 0x20 ADD DUP3 ADD PUSH1 0x40 MSTORE DUP1 ISZERO PUSH2 0x1429 JUMPI DUP2 PUSH1 0x20 ADD PUSH1 0x20 DUP3 MUL DUP1 CALLDATASIZE DUP4 CALLDATACOPY DUP1 DUP3 ADD SWAP2 POP POP SWAP1 POP JUMPDEST POP SWAP1 POP DUP2 PUSH1 0x3 ADD SLOAD DUP2 PUSH1 0x0 DUP2 MLOAD DUP2 LT PUSH2 0x1445 JUMPI PUSH2 0x1444 PUSH2 0x4B2F JUMP JUMPDEST JUMPDEST PUSH1 0x20 MUL PUSH1 0x20 ADD ADD DUP2 DUP2 MSTORE POP POP PUSH1 0x0 JUMPDEST DUP9 DUP9 SWAP1 POP DUP2 LT ISZERO PUSH2 0x169E JUMPI PUSH1 0x0 PUSH1 0x1 PUSH8 0xFFFFFFFFFFFFFFFF DUP2 GT ISZERO PUSH2 0x147C JUMPI PUSH2 0x147B PUSH2 0x4CC3 JUMP JUMPDEST JUMPDEST PUSH1 0x40 MLOAD SWAP1 DUP1 DUP3 MSTORE DUP1 PUSH1 0x20 MUL PUSH1 0x20 ADD DUP3 ADD PUSH1 0x40 MSTORE DUP1 ISZERO PUSH2 0x14AA JUMPI DUP2 PUSH1 0x20 ADD PUSH1 0x20 DUP3 MUL DUP1 CALLDATASIZE DUP4 CALLDATACOPY DUP1 DUP3 ADD SWAP2 POP POP SWAP1 POP JUMPDEST POP SWAP1 POP DUP10 DUP10 DUP4 DUP2 DUP2 LT PUSH2 0x14C0 JUMPI PUSH2 0x14BF PUSH2 0x4B2F JUMP JUMPDEST JUMPDEST SWAP1 POP PUSH1 0x20 MUL ADD PUSH1 0x20 DUP2 ADD SWAP1 PUSH2 0x14D5 SWAP2 SWAP1 PUSH2 0x449B JUMP JUMPDEST DUP2 PUSH1 0x0 DUP2 MLOAD DUP2 LT PUSH2 0x14E9 JUMPI PUSH2 0x14E8 PUSH2 0x4B2F JUMP JUMPDEST JUMPDEST PUSH1 0x20 MUL PUSH1 0x20 ADD ADD SWAP1 PUSH20 0xFFFFFFFFFFFFFFFFFFFFFFFFFFFFFFFFFFFFFFFF AND SWAP1 DUP2 PUSH20 0xFFFFFFFFFFFFFFFFFFFFFFFFFFFFFFFFFFFFFFFF AND DUP2 MSTORE POP POP PUSH1 0x0 PUSH1 0x1 PUSH8 0xFFFFFFFFFFFFFFFF DUP2 GT ISZERO PUSH2 0x1540 JUMPI PUSH2 0x153F PUSH2 0x4CC3 JUMP JUMPDEST JUMPDEST PUSH1 0x40 MLOAD SWAP1 DUP1 DUP3 MSTORE DUP1 PUSH1 0x20 MUL PUSH1 0x20 ADD DUP3 ADD PUSH1 0x40 MSTORE DUP1 ISZERO PUSH2 0x156E JUMPI DUP2 PUSH1 0x20 ADD PUSH1 0x20 DUP3 MUL DUP1 CALLDATASIZE DUP4 CALLDATACOPY DUP1 DUP3 ADD SWAP2 POP POP SWAP1 POP JUMPDEST POP SWAP1 POP DUP9 DUP9 DUP5 DUP2 DUP2 LT PUSH2 0x1584 JUMPI PUSH2 0x1583 PUSH2 0x4B2F JUMP JUMPDEST JUMPDEST SWAP1 POP PUSH1 0x20 MUL ADD PUSH1 0x20 DUP2 ADD SWAP1 PUSH2 0x1599 SWAP2 SWAP1 PUSH2 0x50D5 JUMP JUMPDEST PUSH2 0xFFFF AND DUP2 PUSH1 0x0 DUP2 MLOAD DUP2 LT PUSH2 0x15B1 JUMPI PUSH2 0x15B0 PUSH2 0x4B2F JUMP JUMPDEST JUMPDEST PUSH1 0x20 MUL PUSH1 0x20 ADD ADD DUP2 DUP2 MSTORE POP POP DUP13 PUSH20 0xFFFFFFFFFFFFFFFFFFFFFFFFFFFFFFFFFFFFFFFF AND PUSH4 0xE6C884DC DUP4 DUP7 DUP5 PUSH1 0x40 MLOAD DUP5 PUSH4 0xFFFFFFFF AND PUSH1 0xE0 SHL DUP2 MSTORE PUSH1 0x4 ADD PUSH2 0x15FA SWAP4 SWAP3 SWAP2 SWAP1 PUSH2 0x4E50 JUMP JUMPDEST PUSH1 0x0 PUSH1 0x40 MLOAD DUP1 DUP4 SUB DUP2 PUSH1 0x0 DUP8 DUP1 EXTCODESIZE ISZERO DUP1 ISZERO PUSH2 0x1614 JUMPI PUSH1 0x0 DUP1 REVERT JUMPDEST POP GAS CALL ISZERO DUP1 ISZERO PUSH2 0x1628 JUMPI RETURNDATASIZE PUSH1 0x0 DUP1 RETURNDATACOPY RETURNDATASIZE PUSH1 0x0 REVERT JUMPDEST POP POP POP POP DUP9 DUP9 DUP5 DUP2 DUP2 LT PUSH2 0x163F JUMPI PUSH2 0x163E PUSH2 0x4B2F JUMP JUMPDEST JUMPDEST SWAP1 POP PUSH1 0x20 MUL ADD PUSH1 0x20 DUP2 ADD SWAP1 PUSH2 0x1654 SWAP2 SWAP1 PUSH2 0x50D5 JUMP JUMPDEST PUSH2 0xFFFF AND DUP6 PUSH1 0x0 ADD PUSH1 0x0 DUP3 DUP3 DUP3 SWAP1 SLOAD SWAP1 PUSH2 0x100 EXP SWAP1 DIV PUSH4 0xFFFFFFFF AND ADD SWAP3 POP PUSH2 0x100 EXP DUP2 SLOAD DUP2 PUSH4 0xFFFFFFFF MUL NOT AND SWAP1 DUP4 PUSH4 0xFFFFFFFF AND MUL OR SWAP1 SSTORE POP DUP3 DUP1 PUSH1 0x1 ADD SWAP4 POP POP POP POP PUSH2 0x1454 JUMP JUMPDEST POP POP POP POP POP POP POP POP POP POP POP JUMP JUMPDEST PUSH1 0x0 DUP3 PUSH1 0x0 DUP2 SWAP1 POP DUP1 PUSH20 0xFFFFFFFFFFFFFFFFFFFFFFFFFFFFFFFFFFFFFFFF AND PUSH4 0x24D7806C CALLER PUSH1 0x40 MLOAD DUP3 PUSH4 0xFFFFFFFF AND PUSH1 0xE0 SHL DUP2 MSTORE PUSH1 0x4 ADD PUSH2 0x16EC SWAP2 SWAP1 PUSH2 0x4194 JUMP JUMPDEST PUSH1 0x20 PUSH1 0x40 MLOAD DUP1 DUP4 SUB DUP2 DUP7 GAS STATICCALL ISZERO DUP1 ISZERO PUSH2 0x1709 JUMPI RETURNDATASIZE PUSH1 0x0 DUP1 RETURNDATACOPY RETURNDATASIZE PUSH1 0x0 REVERT JUMPDEST POP POP POP POP PUSH1 0x40 MLOAD RETURNDATASIZE PUSH1 0x1F NOT PUSH1 0x1F DUP3 ADD AND DUP3 ADD DUP1 PUSH1 0x40 MSTORE POP DUP2 ADD SWAP1 PUSH2 0x172D SWAP2 SWAP1 PUSH2 0x4F84 JUMP JUMPDEST PUSH2 0x176C JUMPI PUSH1 0x40 MLOAD PUSH32 0x8C379A000000000000000000000000000000000000000000000000000000000 DUP2 MSTORE PUSH1 0x4 ADD PUSH2 0x1763 SWAP1 PUSH2 0x5023 JUMP JUMPDEST PUSH1 0x40 MLOAD DUP1 SWAP2 SUB SWAP1 REVERT JUMPDEST PUSH1 0x0 PUSH1 0x3 DUP2 GT ISZERO PUSH2 0x1780 JUMPI PUSH2 0x177F PUSH2 0x3CF5 JUMP JUMPDEST JUMPDEST DUP5 PUSH1 0x80 ADD PUSH1 0x20 DUP2 ADD SWAP1 PUSH2 0x1793 SWAP2 SWAP1 PUSH2 0x5127 JUMP JUMPDEST PUSH1 0x3 DUP2 GT ISZERO PUSH2 0x17A5 JUMPI PUSH2 0x17A4 PUSH2 0x3CF5 JUMP JUMPDEST JUMPDEST SUB PUSH2 0x17E5 JUMPI PUSH1 0x40 MLOAD PUSH32 0x8C379A000000000000000000000000000000000000000000000000000000000 DUP2 MSTORE PUSH1 0x4 ADD PUSH2 0x17DC SWAP1 PUSH2 0x51C6 JUMP JUMPDEST PUSH1 0x40 MLOAD DUP1 SWAP2 SUB SWAP1 REVERT JUMPDEST PUSH1 0x0 DUP5 PUSH1 0x60 ADD PUSH1 0x20 DUP2 ADD SWAP1 PUSH2 0x17FA SWAP2 SWAP1 PUSH2 0x5212 JUMP JUMPDEST PUSH6 0xFFFFFFFFFFFF AND EQ DUP1 PUSH2 0x1841 JUMPI POP DUP4 PUSH1 0x60 ADD PUSH1 0x20 DUP2 ADD SWAP1 PUSH2 0x181C SWAP2 SWAP1 PUSH2 0x5212 JUMP JUMPDEST PUSH6 0xFFFFFFFFFFFF AND DUP5 PUSH1 0x40 ADD PUSH1 0x20 DUP2 ADD SWAP1 PUSH2 0x1837 SWAP2 SWAP1 PUSH2 0x5212 JUMP JUMPDEST PUSH6 0xFFFFFFFFFFFF AND LT JUMPDEST PUSH2 0x1880 JUMPI PUSH1 0x40 MLOAD PUSH32 0x8C379A000000000000000000000000000000000000000000000000000000000 DUP2 MSTORE PUSH1 0x4 ADD PUSH2 0x1877 SWAP1 PUSH2 0x52B1 JUMP JUMPDEST PUSH1 0x40 MLOAD DUP1 SWAP2 SUB SWAP1 REVERT JUMPDEST PUSH1 0x0 DUP5 PUSH1 0xA0 ADD CALLDATALOAD EQ DUP1 PUSH2 0x18AB JUMPI POP PUSH1 0x0 DUP5 PUSH1 0x20 ADD PUSH1 0x20 DUP2 ADD SWAP1 PUSH2 0x18A3 SWAP2 SWAP1 PUSH2 0x4B5E JUMP JUMPDEST PUSH4 0xFFFFFFFF AND EQ JUMPDEST PUSH2 0x18EA JUMPI PUSH1 0x40 MLOAD PUSH32 0x8C379A000000000000000000000000000000000000000000000000000000000 DUP2 MSTORE PUSH1 0x4 ADD PUSH2 0x18E1 SWAP1 PUSH2 0x5343 JUMP JUMPDEST PUSH1 0x40 MLOAD DUP1 SWAP2 SUB SWAP1 REVERT JUMPDEST PUSH1 0x2 PUSH1 0x0 DUP7 PUSH20 0xFFFFFFFFFFFFFFFFFFFFFFFFFFFFFFFFFFFFFFFF AND PUSH20 0xFFFFFFFFFFFFFFFFFFFFFFFFFFFFFFFFFFFFFFFF AND DUP2 MSTORE PUSH1 0x20 ADD SWAP1 DUP2 MSTORE PUSH1 0x20 ADD PUSH1 0x0 KECCAK256 PUSH1 0x0 DUP2 DUP2 SWAP1 SLOAD SWAP1 PUSH2 0x100 EXP SWAP1 DIV PUSH28 0xFFFFFFFFFFFFFFFFFFFFFFFFFFFFFFFFFFFFFFFFFFFFFFFFFFFFFFFF AND DUP1 SWAP3 SWAP2 SWAP1 PUSH2 0x1961 SWAP1 PUSH2 0x538B JUMP JUMPDEST SWAP2 SWAP1 PUSH2 0x100 EXP DUP2 SLOAD DUP2 PUSH28 0xFFFFFFFFFFFFFFFFFFFFFFFFFFFFFFFFFFFFFFFFFFFFFFFFFFFFFFFF MUL NOT AND SWAP1 DUP4 PUSH28 0xFFFFFFFFFFFFFFFFFFFFFFFFFFFFFFFFFFFFFFFFFFFFFFFFFFFFFFFF AND MUL OR SWAP1 SSTORE POP POP PUSH1 0x0 PUSH1 0x2 PUSH1 0x0 DUP8 PUSH20 0xFFFFFFFFFFFFFFFFFFFFFFFFFFFFFFFFFFFFFFFF AND PUSH20 0xFFFFFFFFFFFFFFFFFFFFFFFFFFFFFFFFFFFFFFFF AND DUP2 MSTORE PUSH1 0x20 ADD SWAP1 DUP2 MSTORE PUSH1 0x20 ADD PUSH1 0x0 KECCAK256 PUSH1 0x0 SWAP1 SLOAD SWAP1 PUSH2 0x100 EXP SWAP1 DIV PUSH28 0xFFFFFFFFFFFFFFFFFFFFFFFFFFFFFFFFFFFFFFFFFFFFFFFFFFFFFFFF AND SWAP1 POP PUSH1 0x0 PUSH1 0x1 PUSH8 0xFFFFFFFFFFFFFFFF DUP2 GT ISZERO PUSH2 0x1A39 JUMPI PUSH2 0x1A38 PUSH2 0x4CC3 JUMP JUMPDEST JUMPDEST PUSH1 0x40 MLOAD SWAP1 DUP1 DUP3 MSTORE DUP1 PUSH1 0x20 MUL PUSH1 0x20 ADD DUP3 ADD PUSH1 0x40 MSTORE DUP1 ISZERO PUSH2 0x1A67 JUMPI DUP2 PUSH1 0x20 ADD PUSH1 0x20 DUP3 MUL DUP1 CALLDATASIZE DUP4 CALLDATACOPY DUP1 DUP3 ADD SWAP2 POP POP SWAP1 POP JUMPDEST POP SWAP1 POP CALLER DUP2 PUSH1 0x0 DUP2 MLOAD DUP2 LT PUSH2 0x1A7F JUMPI PUSH2 0x1A7E PUSH2 0x4B2F JUMP JUMPDEST JUMPDEST PUSH1 0x20 MUL PUSH1 0x20 ADD ADD SWAP1 PUSH20 0xFFFFFFFFFFFFFFFFFFFFFFFFFFFFFFFFFFFFFFFF AND SWAP1 DUP2 PUSH20 0xFFFFFFFFFFFFFFFFFFFFFFFFFFFFFFFFFFFFFFFF AND DUP2 MSTORE POP POP PUSH1 0x0 PUSH1 0x1 PUSH8 0xFFFFFFFFFFFFFFFF DUP2 GT ISZERO PUSH2 0x1AD6 JUMPI PUSH2 0x1AD5 PUSH2 0x4CC3 JUMP JUMPDEST JUMPDEST PUSH1 0x40 MLOAD SWAP1 DUP1 DUP3 MSTORE DUP1 PUSH1 0x20 MUL PUSH1 0x20 ADD DUP3 ADD PUSH1 0x40 MSTORE DUP1 ISZERO PUSH2 0x1B04 JUMPI DUP2 PUSH1 0x20 ADD PUSH1 0x20 DUP3 MUL DUP1 CALLDATASIZE DUP4 CALLDATACOPY DUP1 DUP3 ADD SWAP2 POP POP SWAP1 POP JUMPDEST POP SWAP1 POP PUSH1 0x1 DUP2 PUSH1 0x0 DUP2 MLOAD DUP2 LT PUSH2 0x1B1D JUMPI PUSH2 0x1B1C PUSH2 0x4B2F JUMP JUMPDEST JUMPDEST PUSH1 0x20 MUL PUSH1 0x20 ADD ADD DUP2 DUP2 MSTORE POP POP PUSH1 0x0 PUSH1 0x1 PUSH8 0xFFFFFFFFFFFFFFFF DUP2 GT ISZERO PUSH2 0x1B46 JUMPI PUSH2 0x1B45 PUSH2 0x4CC3 JUMP JUMPDEST JUMPDEST PUSH1 0x40 MLOAD SWAP1 DUP1 DUP3 MSTORE DUP1 PUSH1 0x20 MUL PUSH1 0x20 ADD DUP3 ADD PUSH1 0x40 MSTORE DUP1 ISZERO PUSH2 0x1B79 JUMPI DUP2 PUSH1 0x20 ADD JUMPDEST PUSH1 0x60 DUP2 MSTORE PUSH1 0x20 ADD SWAP1 PUSH1 0x1 SWAP1 SUB SWAP1 DUP2 PUSH2 0x1B64 JUMPI SWAP1 POP JUMPDEST POP SWAP1 POP PUSH1 0x40 MLOAD DUP1 PUSH1 0x20 ADD PUSH1 0x40 MSTORE DUP1 PUSH1 0x0 DUP2 MSTORE POP DUP2 PUSH1 0x0 DUP2 MLOAD DUP2 LT PUSH2 0x1BA0 JUMPI PUSH2 0x1B9F PUSH2 0x4B2F JUMP JUMPDEST JUMPDEST PUSH1 0x20 MUL PUSH1 0x20 ADD ADD DUP2 SWAP1 MSTORE POP PUSH1 0x0 DUP10 PUSH20 0xFFFFFFFFFFFFFFFFFFFFFFFFFFFFFFFFFFFFFFFF AND PUSH4 0x8C6E8472 DUP6 DUP6 DUP6 PUSH1 0x40 MLOAD DUP5 PUSH4 0xFFFFFFFF AND PUSH1 0xE0 SHL DUP2 MSTORE PUSH1 0x4 ADD PUSH2 0x1BEA SWAP4 SWAP3 SWAP2 SWAP1 PUSH2 0x5491 JUMP JUMPDEST PUSH1 0x0 PUSH1 0x40 MLOAD DUP1 DUP4 SUB DUP2 PUSH1 0x0 DUP8 GAS CALL ISZERO DUP1 ISZERO PUSH2 0x1C09 JUMPI RETURNDATASIZE PUSH1 0x0 DUP1 RETURNDATACOPY RETURNDATASIZE PUSH1 0x0 REVERT JUMPDEST POP POP POP POP PUSH1 0x40 MLOAD RETURNDATASIZE PUSH1 0x0 DUP3 RETURNDATACOPY RETURNDATASIZE PUSH1 0x1F NOT PUSH1 0x1F DUP3 ADD AND DUP3 ADD DUP1 PUSH1 0x40 MSTORE POP DUP2 ADD SWAP1 PUSH2 0x1C32 SWAP2 SWAP1 PUSH2 0x5601 JUMP JUMPDEST SWAP1 POP DUP5 PUSH28 0xFFFFFFFFFFFFFFFFFFFFFFFFFFFFFFFFFFFFFFFFFFFFFFFFFFFFFFFF AND PUSH1 0x6 PUSH1 0x0 DUP13 PUSH20 0xFFFFFFFFFFFFFFFFFFFFFFFFFFFFFFFFFFFFFFFF AND PUSH20 0xFFFFFFFFFFFFFFFFFFFFFFFFFFFFFFFFFFFFFFFF AND DUP2 MSTORE PUSH1 0x20 ADD SWAP1 DUP2 MSTORE PUSH1 0x20 ADD PUSH1 0x0 KECCAK256 PUSH1 0x0 DUP4 PUSH1 0x0 DUP2 MLOAD DUP2 LT PUSH2 0x1CA8 JUMPI PUSH2 0x1CA7 PUSH2 0x4B2F JUMP JUMPDEST JUMPDEST PUSH1 0x20 MUL PUSH1 0x20 ADD ADD MLOAD DUP2 MSTORE PUSH1 0x20 ADD SWAP1 DUP2 MSTORE PUSH1 0x20 ADD PUSH1 0x0 KECCAK256 DUP2 SWAP1 SSTORE POP PUSH1 0x40 MLOAD DUP1 PUSH2 0x160 ADD PUSH1 0x40 MSTORE DUP1 PUSH1 0x0 PUSH4 0xFFFFFFFF AND DUP2 MSTORE PUSH1 0x20 ADD DUP11 PUSH1 0x0 ADD PUSH1 0x20 DUP2 ADD SWAP1 PUSH2 0x1CEE SWAP2 SWAP1 PUSH2 0x4B5E JUMP JUMPDEST PUSH4 0xFFFFFFFF AND DUP2 MSTORE PUSH1 0x20 ADD DUP11 PUSH1 0x20 ADD PUSH1 0x20 DUP2 ADD SWAP1 PUSH2 0x1D0C SWAP2 SWAP1 PUSH2 0x4B5E JUMP JUMPDEST PUSH4 0xFFFFFFFF AND DUP2 MSTORE PUSH1 0x20 ADD DUP11 PUSH1 0x40 ADD PUSH1 0x20 DUP2 ADD SWAP1 PUSH2 0x1D2A SWAP2 SWAP1 PUSH2 0x5212 JUMP JUMPDEST PUSH6 0xFFFFFFFFFFFF AND DUP2 MSTORE PUSH1 0x20 ADD DUP11 PUSH1 0x60 ADD PUSH1 0x20 DUP2 ADD SWAP1 PUSH2 0x1D4A SWAP2 SWAP1 PUSH2 0x5212 JUMP JUMPDEST PUSH6 0xFFFFFFFFFFFF AND DUP2 MSTORE PUSH1 0x20 ADD DUP11 PUSH1 0x80 ADD PUSH1 0x20 DUP2 ADD SWAP1 PUSH2 0x1D6A SWAP2 SWAP1 PUSH2 0x5127 JUMP JUMPDEST PUSH1 0x3 DUP2 GT ISZERO PUSH2 0x1D7C JUMPI PUSH2 0x1D7B PUSH2 0x3CF5 JUMP JUMPDEST JUMPDEST DUP2 MSTORE PUSH1 0x20 ADD DUP11 PUSH1 0xA0 ADD CALLDATALOAD DUP2 MSTORE PUSH1 0x20 ADD DUP11 DUP1 PUSH1 0xC0 ADD SWAP1 PUSH2 0x1D9B SWAP2 SWAP1 PUSH2 0x564A JUMP JUMPDEST DUP1 DUP1 PUSH1 0x1F ADD PUSH1 0x20 DUP1 SWAP2 DIV MUL PUSH1 0x20 ADD PUSH1 0x40 MLOAD SWAP1 DUP2 ADD PUSH1 0x40 MSTORE DUP1 SWAP4 SWAP3 SWAP2 SWAP1 DUP2 DUP2 MSTORE PUSH1 0x20 ADD DUP4 DUP4 DUP1 DUP3 DUP5 CALLDATACOPY PUSH1 0x0 DUP2 DUP5 ADD MSTORE PUSH1 0x1F NOT PUSH1 0x1F DUP3 ADD AND SWAP1 POP DUP1 DUP4 ADD SWAP3 POP POP POP POP POP POP POP DUP2 MSTORE PUSH1 0x20 ADD DUP3 PUSH1 0x0 DUP2 MLOAD DUP2 LT PUSH2 0x1DF7 JUMPI PUSH2 0x1DF6 PUSH2 0x4B2F JUMP JUMPDEST JUMPDEST PUSH1 0x20 MUL PUSH1 0x20 ADD ADD MLOAD DUP2 MSTORE PUSH1 0x20 ADD DUP11 PUSH1 0xE0 ADD CALLDATALOAD DUP2 MSTORE PUSH1 0x20 ADD DUP11 PUSH2 0x100 ADD PUSH1 0x20 DUP2 ADD SWAP1 PUSH2 0x1E22 SWAP2 SWAP1 PUSH2 0x449B JUMP JUMPDEST PUSH20 0xFFFFFFFFFFFFFFFFFFFFFFFFFFFFFFFFFFFFFFFF AND DUP2 MSTORE POP PUSH1 0x3 PUSH1 0x0 DUP13 PUSH20 0xFFFFFFFFFFFFFFFFFFFFFFFFFFFFFFFFFFFFFFFF AND PUSH20 0xFFFFFFFFFFFFFFFFFFFFFFFFFFFFFFFFFFFFFFFF AND DUP2 MSTORE PUSH1 0x20 ADD SWAP1 DUP2 MSTORE PUSH1 0x20 ADD PUSH1 0x0 KECCAK256 PUSH1 0x0 DUP8 PUSH28 0xFFFFFFFFFFFFFFFFFFFFFFFFFFFFFFFFFFFFFFFFFFFFFFFFFFFFFFFF AND DUP2 MSTORE PUSH1 0x20 ADD SWAP1 DUP2 MSTORE PUSH1 0x20 ADD PUSH1 0x0 KECCAK256 PUSH1 0x0 DUP3 ADD MLOAD DUP2 PUSH1 0x0 ADD PUSH1 0x0 PUSH2 0x100 EXP DUP2 SLOAD DUP2 PUSH4 0xFFFFFFFF MUL NOT AND SWAP1 DUP4 PUSH4 0xFFFFFFFF AND MUL OR SWAP1 SSTORE POP PUSH1 0x20 DUP3 ADD MLOAD DUP2 PUSH1 0x0 ADD PUSH1 0x4 PUSH2 0x100 EXP DUP2 SLOAD DUP2 PUSH4 0xFFFFFFFF MUL NOT AND SWAP1 DUP4 PUSH4 0xFFFFFFFF AND MUL OR SWAP1 SSTORE POP PUSH1 0x40 DUP3 ADD MLOAD DUP2 PUSH1 0x0 ADD PUSH1 0x8 PUSH2 0x100 EXP DUP2 SLOAD DUP2 PUSH4 0xFFFFFFFF MUL NOT AND SWAP1 DUP4 PUSH4 0xFFFFFFFF AND MUL OR SWAP1 SSTORE POP PUSH1 0x60 DUP3 ADD MLOAD DUP2 PUSH1 0x0 ADD PUSH1 0xC PUSH2 0x100 EXP DUP2 SLOAD DUP2 PUSH6 0xFFFFFFFFFFFF MUL NOT AND SWAP1 DUP4 PUSH6 0xFFFFFFFFFFFF AND MUL OR SWAP1 SSTORE POP PUSH1 0x80 DUP3 ADD MLOAD DUP2 PUSH1 0x0 ADD PUSH1 0x12 PUSH2 0x100 EXP DUP2 SLOAD DUP2 PUSH6 0xFFFFFFFFFFFF MUL NOT AND SWAP1 DUP4 PUSH6 0xFFFFFFFFFFFF AND MUL OR SWAP1 SSTORE POP PUSH1 0xA0 DUP3 ADD MLOAD DUP2 PUSH1 0x0 ADD PUSH1 0x18 PUSH2 0x100 EXP DUP2 SLOAD DUP2 PUSH1 0xFF MUL NOT AND SWAP1 DUP4 PUSH1 0x3 DUP2 GT ISZERO PUSH2 0x1F9F JUMPI PUSH2 0x1F9E PUSH2 0x3CF5 JUMP JUMPDEST JUMPDEST MUL OR SWAP1 SSTORE POP PUSH1 0xC0 DUP3 ADD MLOAD DUP2 PUSH1 0x1 ADD SSTORE PUSH1 0xE0 DUP3 ADD MLOAD DUP2 PUSH1 0x2 ADD SWAP1 DUP2 PUSH2 0x1FC3 SWAP2 SWAP1 PUSH2 0x5859 JUMP JUMPDEST POP PUSH2 0x100 DUP3 ADD MLOAD DUP2 PUSH1 0x3 ADD SSTORE PUSH2 0x120 DUP3 ADD MLOAD DUP2 PUSH1 0x4 ADD SSTORE PUSH2 0x140 DUP3 ADD MLOAD DUP2 PUSH1 0x5 ADD PUSH1 0x0 PUSH2 0x100 EXP DUP2 SLOAD DUP2 PUSH20 0xFFFFFFFFFFFFFFFFFFFFFFFFFFFFFFFFFFFFFFFF MUL NOT AND SWAP1 DUP4 PUSH20 0xFFFFFFFFFFFFFFFFFFFFFFFFFFFFFFFFFFFFFFFF AND MUL OR SWAP1 SSTORE POP SWAP1 POP POP DUP5 PUSH28 0xFFFFFFFFFFFFFFFFFFFFFFFFFFFFFFFFFFFFFFFFFFFFFFFFFFFFFFFF AND DUP11 PUSH20 0xFFFFFFFFFFFFFFFFFFFFFFFFFFFFFFFFFFFFFFFF AND PUSH32 0xCF76E1BEB8DCF887C917933E1D0970EAFADB9A69B82CFD5F44740A0DCE6F45A6 CALLER PUSH1 0x40 MLOAD PUSH2 0x208A SWAP2 SWAP1 PUSH2 0x4194 JUMP JUMPDEST PUSH1 0x40 MLOAD DUP1 SWAP2 SUB SWAP1 LOG3 DUP5 PUSH28 0xFFFFFFFFFFFFFFFFFFFFFFFFFFFFFFFFFFFFFFFFFFFFFFFFFFFFFFFF AND SWAP8 POP POP POP POP POP POP POP POP SWAP3 SWAP2 POP POP JUMP JUMPDEST DUP3 PUSH1 0x0 DUP2 SWAP1 POP DUP1 PUSH20 0xFFFFFFFFFFFFFFFFFFFFFFFFFFFFFFFFFFFFFFFF AND PUSH4 0x24D7806C CALLER PUSH1 0x40 MLOAD DUP3 PUSH4 0xFFFFFFFF AND PUSH1 0xE0 SHL DUP2 MSTORE PUSH1 0x4 ADD PUSH2 0x20FF SWAP2 SWAP1 PUSH2 0x4194 JUMP JUMPDEST PUSH1 0x20 PUSH1 0x40 MLOAD DUP1 DUP4 SUB DUP2 DUP7 GAS STATICCALL ISZERO DUP1 ISZERO PUSH2 0x211C JUMPI RETURNDATASIZE PUSH1 0x0 DUP1 RETURNDATACOPY RETURNDATASIZE PUSH1 0x0 REVERT JUMPDEST POP POP POP POP PUSH1 0x40 MLOAD RETURNDATASIZE PUSH1 0x1F NOT PUSH1 0x1F DUP3 ADD AND DUP3 ADD DUP1 PUSH1 0x40 MSTORE POP DUP2 ADD SWAP1 PUSH2 0x2140 SWAP2 SWAP1 PUSH2 0x4F84 JUMP JUMPDEST PUSH2 0x217F JUMPI PUSH1 0x40 MLOAD PUSH32 0x8C379A000000000000000000000000000000000000000000000000000000000 DUP2 MSTORE PUSH1 0x4 ADD PUSH2 0x2176 SWAP1 PUSH2 0x5023 JUMP JUMPDEST PUSH1 0x40 MLOAD DUP1 SWAP2 SUB SWAP1 REVERT JUMPDEST PUSH1 0x0 PUSH1 0x3 DUP2 GT ISZERO PUSH2 0x2193 JUMPI PUSH2 0x2192 PUSH2 0x3CF5 JUMP JUMPDEST JUMPDEST PUSH1 0x3 PUSH1 0x0 DUP8 PUSH20 0xFFFFFFFFFFFFFFFFFFFFFFFFFFFFFFFFFFFFFFFF AND PUSH20 0xFFFFFFFFFFFFFFFFFFFFFFFFFFFFFFFFFFFFFFFF AND DUP2 MSTORE PUSH1 0x20 ADD SWAP1 DUP2 MSTORE PUSH1 0x20 ADD PUSH1 0x0 KECCAK256 PUSH1 0x0 DUP7 DUP2 MSTORE PUSH1 0x20 ADD SWAP1 DUP2 MSTORE PUSH1 0x20 ADD PUSH1 0x0 KECCAK256 PUSH1 0x0 ADD PUSH1 0x18 SWAP1 SLOAD SWAP1 PUSH2 0x100 EXP SWAP1 DIV PUSH1 0xFF AND PUSH1 0x3 DUP2 GT ISZERO PUSH2 0x2206 JUMPI PUSH2 0x2205 PUSH2 0x3CF5 JUMP JUMPDEST JUMPDEST SUB PUSH2 0x2246 JUMPI PUSH1 0x40 MLOAD PUSH32 0x8C379A000000000000000000000000000000000000000000000000000000000 DUP2 MSTORE PUSH1 0x4 ADD PUSH2 0x223D SWAP1 PUSH2 0x47C4 JUMP JUMPDEST PUSH1 0x40 MLOAD DUP1 SWAP2 SUB SWAP1 REVERT JUMPDEST PUSH1 0x0 PUSH1 0x3 DUP2 GT ISZERO PUSH2 0x225A JUMPI PUSH2 0x2259 PUSH2 0x3CF5 JUMP JUMPDEST JUMPDEST DUP4 PUSH1 0x80 ADD PUSH1 0x20 DUP2 ADD SWAP1 PUSH2 0x226D SWAP2 SWAP1 PUSH2 0x5127 JUMP JUMPDEST PUSH1 0x3 DUP2 GT ISZERO PUSH2 0x227F JUMPI PUSH2 0x227E PUSH2 0x3CF5 JUMP JUMPDEST JUMPDEST SUB PUSH2 0x22BF JUMPI PUSH1 0x40 MLOAD PUSH32 0x8C379A000000000000000000000000000000000000000000000000000000000 DUP2 MSTORE PUSH1 0x4 ADD PUSH2 0x22B6 SWAP1 PUSH2 0x599D JUMP JUMPDEST PUSH1 0x40 MLOAD DUP1 SWAP2 SUB SWAP1 REVERT JUMPDEST PUSH1 0x0 DUP4 PUSH1 0x60 ADD PUSH1 0x20 DUP2 ADD SWAP1 PUSH2 0x22D4 SWAP2 SWAP1 PUSH2 0x5212 JUMP JUMPDEST PUSH6 0xFFFFFFFFFFFF AND EQ DUP1 PUSH2 0x231B JUMPI POP DUP3 PUSH1 0x60 ADD PUSH1 0x20 DUP2 ADD SWAP1 PUSH2 0x22F6 SWAP2 SWAP1 PUSH2 0x5212 JUMP JUMPDEST PUSH6 0xFFFFFFFFFFFF AND DUP4 PUSH1 0x40 ADD PUSH1 0x20 DUP2 ADD SWAP1 PUSH2 0x2311 SWAP2 SWAP1 PUSH2 0x5212 JUMP JUMPDEST PUSH6 0xFFFFFFFFFFFF AND LT JUMPDEST PUSH2 0x235A JUMPI PUSH1 0x40 MLOAD PUSH32 0x8C379A000000000000000000000000000000000000000000000000000000000 DUP2 MSTORE PUSH1 0x4 ADD PUSH2 0x2351 SWAP1 PUSH2 0x52B1 JUMP JUMPDEST PUSH1 0x40 MLOAD DUP1 SWAP2 SUB SWAP1 REVERT JUMPDEST PUSH1 0x40 MLOAD DUP1 PUSH2 0x160 ADD PUSH1 0x40 MSTORE DUP1 PUSH1 0x3 PUSH1 0x0 DUP9 PUSH20 0xFFFFFFFFFFFFFFFFFFFFFFFFFFFFFFFFFFFFFFFF AND PUSH20 0xFFFFFFFFFFFFFFFFFFFFFFFFFFFFFFFFFFFFFFFF AND DUP2 MSTORE PUSH1 0x20 ADD SWAP1 DUP2 MSTORE PUSH1 0x20 ADD PUSH1 0x0 KECCAK256 PUSH1 0x0 DUP8 DUP2 MSTORE PUSH1 0x20 ADD SWAP1 DUP2 MSTORE PUSH1 0x20 ADD PUSH1 0x0 KECCAK256 PUSH1 0x0 ADD PUSH1 0x0 SWAP1 SLOAD SWAP1 PUSH2 0x100 EXP SWAP1 DIV PUSH4 0xFFFFFFFF AND PUSH4 0xFFFFFFFF AND DUP2 MSTORE PUSH1 0x20 ADD DUP5 PUSH1 0x0 ADD PUSH1 0x20 DUP2 ADD SWAP1 PUSH2 0x23E8 SWAP2 SWAP1 PUSH2 0x4B5E JUMP JUMPDEST PUSH4 0xFFFFFFFF AND DUP2 MSTORE PUSH1 0x20 ADD DUP5 PUSH1 0x20 ADD PUSH1 0x20 DUP2 ADD SWAP1 PUSH2 0x2406 SWAP2 SWAP1 PUSH2 0x4B5E JUMP JUMPDEST PUSH4 0xFFFFFFFF AND DUP2 MSTORE PUSH1 0x20 ADD DUP5 PUSH1 0x40 ADD PUSH1 0x20 DUP2 ADD SWAP1 PUSH2 0x2424 SWAP2 SWAP1 PUSH2 0x5212 JUMP JUMPDEST PUSH6 0xFFFFFFFFFFFF AND DUP2 MSTORE PUSH1 0x20 ADD DUP5 PUSH1 0x60 ADD PUSH1 0x20 DUP2 ADD SWAP1 PUSH2 0x2444 SWAP2 SWAP1 PUSH2 0x5212 JUMP JUMPDEST PUSH6 0xFFFFFFFFFFFF AND DUP2 MSTORE PUSH1 0x20 ADD DUP5 PUSH1 0x80 ADD PUSH1 0x20 DUP2 ADD SWAP1 PUSH2 0x2464 SWAP2 SWAP1 PUSH2 0x5127 JUMP JUMPDEST PUSH1 0x3 DUP2 GT ISZERO PUSH2 0x2476 JUMPI PUSH2 0x2475 PUSH2 0x3CF5 JUMP JUMPDEST JUMPDEST DUP2 MSTORE PUSH1 0x20 ADD DUP5 PUSH1 0xA0 ADD CALLDATALOAD DUP2 MSTORE PUSH1 0x20 ADD DUP5 DUP1 PUSH1 0xC0 ADD SWAP1 PUSH2 0x2495 SWAP2 SWAP1 PUSH2 0x564A JUMP JUMPDEST DUP1 DUP1 PUSH1 0x1F ADD PUSH1 0x20 DUP1 SWAP2 DIV MUL PUSH1 0x20 ADD PUSH1 0x40 MLOAD SWAP1 DUP2 ADD PUSH1 0x40 MSTORE DUP1 SWAP4 SWAP3 SWAP2 SWAP1 DUP2 DUP2 MSTORE PUSH1 0x20 ADD DUP4 DUP4 DUP1 DUP3 DUP5 CALLDATACOPY PUSH1 0x0 DUP2 DUP5 ADD MSTORE PUSH1 0x1F NOT PUSH1 0x1F DUP3 ADD AND SWAP1 POP DUP1 DUP4 ADD SWAP3 POP POP POP POP POP POP POP DUP2 MSTORE PUSH1 0x20 ADD PUSH1 0x3 PUSH1 0x0 DUP9 PUSH20 0xFFFFFFFFFFFFFFFFFFFFFFFFFFFFFFFFFFFFFFFF AND PUSH20 0xFFFFFFFFFFFFFFFFFFFFFFFFFFFFFFFFFFFFFFFF AND DUP2 MSTORE PUSH1 0x20 ADD SWAP1 DUP2 MSTORE PUSH1 0x20 ADD PUSH1 0x0 KECCAK256 PUSH1 0x0 DUP8 DUP2 MSTORE PUSH1 0x20 ADD SWAP1 DUP2 MSTORE PUSH1 0x20 ADD PUSH1 0x0 KECCAK256 PUSH1 0x3 ADD SLOAD DUP2 MSTORE PUSH1 0x20 ADD DUP5 PUSH1 0xE0 ADD CALLDATALOAD DUP2 MSTORE PUSH1 0x20 ADD DUP5 PUSH2 0x100 ADD PUSH1 0x20 DUP2 ADD SWAP1 PUSH2 0x2554 SWAP2 SWAP1 PUSH2 0x449B JUMP JUMPDEST PUSH20 0xFFFFFFFFFFFFFFFFFFFFFFFFFFFFFFFFFFFFFFFF AND DUP2 MSTORE POP PUSH1 0x3 PUSH1 0x0 DUP8 PUSH20 0xFFFFFFFFFFFFFFFFFFFFFFFFFFFFFFFFFFFFFFFF AND PUSH20 0xFFFFFFFFFFFFFFFFFFFFFFFFFFFFFFFFFFFFFFFF AND DUP2 MSTORE PUSH1 0x20 ADD SWAP1 DUP2 MSTORE PUSH1 0x20 ADD PUSH1 0x0 KECCAK256 PUSH1 0x0 DUP7 DUP2 MSTORE PUSH1 0x20 ADD SWAP1 DUP2 MSTORE PUSH1 0x20 ADD PUSH1 0x0 KECCAK256 PUSH1 0x0 DUP3 ADD MLOAD DUP2 PUSH1 0x0 ADD PUSH1 0x0 PUSH2 0x100 EXP DUP2 SLOAD DUP2 PUSH4 0xFFFFFFFF MUL NOT AND SWAP1 DUP4 PUSH4 0xFFFFFFFF AND MUL OR SWAP1 SSTORE POP PUSH1 0x20 DUP3 ADD MLOAD DUP2 PUSH1 0x0 ADD PUSH1 0x4 PUSH2 0x100 EXP DUP2 SLOAD DUP2 PUSH4 0xFFFFFFFF MUL NOT AND SWAP1 DUP4 PUSH4 0xFFFFFFFF AND MUL OR SWAP1 SSTORE POP PUSH1 0x40 DUP3 ADD MLOAD DUP2 PUSH1 0x0 ADD PUSH1 0x8 PUSH2 0x100 EXP DUP2 SLOAD DUP2 PUSH4 0xFFFFFFFF MUL NOT AND SWAP1 DUP4 PUSH4 0xFFFFFFFF AND MUL OR SWAP1 SSTORE POP PUSH1 0x60 DUP3 ADD MLOAD DUP2 PUSH1 0x0 ADD PUSH1 0xC PUSH2 0x100 EXP DUP2 SLOAD DUP2 PUSH6 0xFFFFFFFFFFFF MUL NOT AND SWAP1 DUP4 PUSH6 0xFFFFFFFFFFFF AND MUL OR SWAP1 SSTORE POP PUSH1 0x80 DUP3 ADD MLOAD DUP2 PUSH1 0x0 ADD PUSH1 0x12 PUSH2 0x100 EXP DUP2 SLOAD DUP2 PUSH6 0xFFFFFFFFFFFF MUL NOT AND SWAP1 DUP4 PUSH6 0xFFFFFFFFFFFF AND MUL OR SWAP1 SSTORE POP PUSH1 0xA0 DUP3 ADD MLOAD DUP2 PUSH1 0x0 ADD PUSH1 0x18 PUSH2 0x100 EXP DUP2 SLOAD DUP2 PUSH1 0xFF MUL NOT AND SWAP1 DUP4 PUSH1 0x3 DUP2 GT ISZERO PUSH2 0x26B3 JUMPI PUSH2 0x26B2 PUSH2 0x3CF5 JUMP JUMPDEST JUMPDEST MUL OR SWAP1 SSTORE POP PUSH1 0xC0 DUP3 ADD MLOAD DUP2 PUSH1 0x1 ADD SSTORE PUSH1 0xE0 DUP3 ADD MLOAD DUP2 PUSH1 0x2 ADD SWAP1 DUP2 PUSH2 0x26D7 SWAP2 SWAP1 PUSH2 0x5859 JUMP JUMPDEST POP PUSH2 0x100 DUP3 ADD MLOAD DUP2 PUSH1 0x3 ADD SSTORE PUSH2 0x120 DUP3 ADD MLOAD DUP2 PUSH1 0x4 ADD SSTORE PUSH2 0x140 DUP3 ADD MLOAD DUP2 PUSH1 0x5 ADD PUSH1 0x0 PUSH2 0x100 EXP DUP2 SLOAD DUP2 PUSH20 0xFFFFFFFFFFFFFFFFFFFFFFFFFFFFFFFFFFFFFFFF MUL NOT AND SWAP1 DUP4 PUSH20 0xFFFFFFFFFFFFFFFFFFFFFFFFFFFFFFFFFFFFFFFF AND MUL OR SWAP1 SSTORE POP SWAP1 POP POP POP POP POP POP POP JUMP JUMPDEST PUSH1 0x0 DUP1 PUSH1 0x3 PUSH1 0x0 DUP7 PUSH20 0xFFFFFFFFFFFFFFFFFFFFFFFFFFFFFFFFFFFFFFFF AND PUSH20 0xFFFFFFFFFFFFFFFFFFFFFFFFFFFFFFFFFFFFFFFF AND DUP2 MSTORE PUSH1 0x20 ADD SWAP1 DUP2 MSTORE PUSH1 0x20 ADD PUSH1 0x0 KECCAK256 PUSH1 0x0 DUP6 DUP2 MSTORE PUSH1 0x20 ADD SWAP1 DUP2 MSTORE PUSH1 0x20 ADD PUSH1 0x0 KECCAK256 SWAP1 POP PUSH1 0x0 PUSH1 0x3 DUP2 GT ISZERO PUSH2 0x27A9 JUMPI PUSH2 0x27A8 PUSH2 0x3CF5 JUMP JUMPDEST JUMPDEST DUP2 PUSH1 0x0 ADD PUSH1 0x18 SWAP1 SLOAD SWAP1 PUSH2 0x100 EXP SWAP1 DIV PUSH1 0xFF AND PUSH1 0x3 DUP2 GT ISZERO PUSH2 0x27CD JUMPI PUSH2 0x27CC PUSH2 0x3CF5 JUMP JUMPDEST JUMPDEST SUB PUSH2 0x280D JUMPI PUSH1 0x40 MLOAD PUSH32 0x8C379A000000000000000000000000000000000000000000000000000000000 DUP2 MSTORE PUSH1 0x4 ADD PUSH2 0x2804 SWAP1 PUSH2 0x47C4 JUMP JUMPDEST PUSH1 0x40 MLOAD DUP1 SWAP2 SUB SWAP1 REVERT JUMPDEST PUSH1 0x0 DUP2 PUSH1 0x1 ADD SLOAD SUB PUSH2 0x2854 JUMPI PUSH1 0x40 MLOAD PUSH32 0x8C379A000000000000000000000000000000000000000000000000000000000 DUP2 MSTORE PUSH1 0x4 ADD PUSH2 0x284B SWAP1 PUSH2 0x5A09 JUMP JUMPDEST PUSH1 0x40 MLOAD DUP1 SWAP2 SUB SWAP1 REVERT JUMPDEST PUSH1 0x0 PUSH1 0x8 DUP5 PUSH4 0xFFFFFFFF AND SWAP1 SHR PUSH4 0xFFFFFFFF AND SWAP1 POP PUSH1 0x0 PUSH1 0x5 PUSH1 0x0 DUP9 PUSH20 0xFFFFFFFFFFFFFFFFFFFFFFFFFFFFFFFFFFFFFFFF AND PUSH20 0xFFFFFFFFFFFFFFFFFFFFFFFFFFFFFFFFFFFFFFFF AND DUP2 MSTORE PUSH1 0x20 ADD SWAP1 DUP2 MSTORE PUSH1 0x20 ADD PUSH1 0x0 KECCAK256 PUSH1 0x0 DUP8 DUP2 MSTORE PUSH1 0x20 ADD SWAP1 DUP2 MSTORE PUSH1 0x20 ADD PUSH1 0x0 KECCAK256 PUSH1 0x0 DUP4 DUP2 MSTORE PUSH1 0x20 ADD SWAP1 DUP2 MSTORE PUSH1 0x20 ADD PUSH1 0x0 KECCAK256 SLOAD SWAP1 POP PUSH1 0x0 PUSH1 0xFF DUP7 PUSH4 0xFFFFFFFF AND AND PUSH1 0x1 SWAP1 SHL SWAP1 POP PUSH1 0x0 DUP3 DUP3 AND EQ ISZERO SWAP5 POP POP POP POP POP SWAP4 SWAP3 POP POP POP JUMP JUMPDEST PUSH1 0x0 PUSH1 0x2 PUSH1 0x0 DUP4 PUSH20 0xFFFFFFFFFFFFFFFFFFFFFFFFFFFFFFFFFFFFFFFF AND PUSH20 0xFFFFFFFFFFFFFFFFFFFFFFFFFFFFFFFFFFFFFFFF AND DUP2 MSTORE PUSH1 0x20 ADD SWAP1 DUP2 MSTORE PUSH1 0x20 ADD PUSH1 0x0 KECCAK256 PUSH1 0x0 SWAP1 SLOAD SWAP1 PUSH2 0x100 EXP SWAP1 DIV PUSH28 0xFFFFFFFFFFFFFFFFFFFFFFFFFFFFFFFFFFFFFFFFFFFFFFFFFFFFFFFF AND PUSH28 0xFFFFFFFFFFFFFFFFFFFFFFFFFFFFFFFFFFFFFFFFFFFFFFFFFFFFFFFF AND SWAP1 POP SWAP2 SWAP1 POP JUMP JUMPDEST PUSH1 0x60 PUSH1 0x0 PUSH1 0x6 PUSH1 0x0 DUP6 PUSH20 0xFFFFFFFFFFFFFFFFFFFFFFFFFFFFFFFFFFFFFFFF AND PUSH20 0xFFFFFFFFFFFFFFFFFFFFFFFFFFFFFFFFFFFFFFFF AND DUP2 MSTORE PUSH1 0x20 ADD SWAP1 DUP2 MSTORE PUSH1 0x20 ADD PUSH1 0x0 KECCAK256 PUSH1 0x0 DUP5 DUP2 MSTORE PUSH1 0x20 ADD SWAP1 DUP2 MSTORE PUSH1 0x20 ADD PUSH1 0x0 KECCAK256 SLOAD SWAP1 POP PUSH1 0x0 DUP2 PUSH28 0xFFFFFFFFFFFFFFFFFFFFFFFFFFFFFFFFFFFFFFFFFFFFFFFFFFFFFFFF AND GT PUSH2 0x2A3C JUMPI PUSH1 0x40 MLOAD PUSH32 0x8C379A000000000000000000000000000000000000000000000000000000000 DUP2 MSTORE PUSH1 0x4 ADD PUSH2 0x2A33 SWAP1 PUSH2 0x5A75 JUMP JUMPDEST PUSH1 0x40 MLOAD DUP1 SWAP2 SUB SWAP1 REVERT JUMPDEST PUSH1 0x0 PUSH1 0x3 PUSH1 0x0 DUP7 PUSH20 0xFFFFFFFFFFFFFFFFFFFFFFFFFFFFFFFFFFFFFFFF AND PUSH20 0xFFFFFFFFFFFFFFFFFFFFFFFFFFFFFFFFFFFFFFFF AND DUP2 MSTORE PUSH1 0x20 ADD SWAP1 DUP2 MSTORE PUSH1 0x20 ADD PUSH1 0x0 KECCAK256 PUSH1 0x0 DUP4 PUSH28 0xFFFFFFFFFFFFFFFFFFFFFFFFFFFFFFFFFFFFFFFFFFFFFFFFFFFFFFFF AND DUP2 MSTORE PUSH1 0x20 ADD SWAP1 DUP2 MSTORE PUSH1 0x20 ADD PUSH1 0x0 KECCAK256 PUSH1 0x40 MLOAD DUP1 PUSH2 0x160 ADD PUSH1 0x40 MSTORE SWAP1 DUP2 PUSH1 0x0 DUP3 ADD PUSH1 0x0 SWAP1 SLOAD SWAP1 PUSH2 0x100 EXP SWAP1 DIV PUSH4 0xFFFFFFFF AND PUSH4 0xFFFFFFFF AND PUSH4 0xFFFFFFFF AND DUP2 MSTORE PUSH1 0x20 ADD PUSH1 0x0 DUP3 ADD PUSH1 0x4 SWAP1 SLOAD SWAP1 PUSH2 0x100 EXP SWAP1 DIV PUSH4 0xFFFFFFFF AND PUSH4 0xFFFFFFFF AND PUSH4 0xFFFFFFFF AND DUP2 MSTORE PUSH1 0x20 ADD PUSH1 0x0 DUP3 ADD PUSH1 0x8 SWAP1 SLOAD SWAP1 PUSH2 0x100 EXP SWAP1 DIV PUSH4 0xFFFFFFFF AND PUSH4 0xFFFFFFFF AND PUSH4 0xFFFFFFFF AND DUP2 MSTORE PUSH1 0x20 ADD PUSH1 0x0 DUP3 ADD PUSH1 0xC SWAP1 SLOAD SWAP1 PUSH2 0x100 EXP SWAP1 DIV PUSH6 0xFFFFFFFFFFFF AND PUSH6 0xFFFFFFFFFFFF AND PUSH6 0xFFFFFFFFFFFF AND DUP2 MSTORE PUSH1 0x20 ADD PUSH1 0x0 DUP3 ADD PUSH1 0x12 SWAP1 SLOAD SWAP1 PUSH2 0x100 EXP SWAP1 DIV PUSH6 0xFFFFFFFFFFFF AND PUSH6 0xFFFFFFFFFFFF AND PUSH6 0xFFFFFFFFFFFF AND DUP2 MSTORE PUSH1 0x20 ADD PUSH1 0x0 DUP3 ADD PUSH1 0x18 SWAP1 SLOAD SWAP1 PUSH2 0x100 EXP SWAP1 DIV PUSH1 0xFF AND PUSH1 0x3 DUP2 GT ISZERO PUSH2 0x2BA7 JUMPI PUSH2 0x2BA6 PUSH2 0x3CF5 JUMP JUMPDEST JUMPDEST PUSH1 0x3 DUP2 GT ISZERO PUSH2 0x2BB9 JUMPI PUSH2 0x2BB8 PUSH2 0x3CF5 JUMP JUMPDEST JUMPDEST DUP2 MSTORE PUSH1 0x20 ADD PUSH1 0x1 DUP3 ADD SLOAD DUP2 MSTORE PUSH1 0x20 ADD PUSH1 0x2 DUP3 ADD DUP1 SLOAD PUSH2 0x2BD7 SWAP1 PUSH2 0x4813 JUMP JUMPDEST DUP1 PUSH1 0x1F ADD PUSH1 0x20 DUP1 SWAP2 DIV MUL PUSH1 0x20 ADD PUSH1 0x40 MLOAD SWAP1 DUP2 ADD PUSH1 0x40 MSTORE DUP1 SWAP3 SWAP2 SWAP1 DUP2 DUP2 MSTORE PUSH1 0x20 ADD DUP3 DUP1 SLOAD PUSH2 0x2C03 SWAP1 PUSH2 0x4813 JUMP JUMPDEST DUP1 ISZERO PUSH2 0x2C50 JUMPI DUP1 PUSH1 0x1F LT PUSH2 0x2C25 JUMPI PUSH2 0x100 DUP1 DUP4 SLOAD DIV MUL DUP4 MSTORE SWAP2 PUSH1 0x20 ADD SWAP2 PUSH2 0x2C50 JUMP JUMPDEST DUP3 ADD SWAP2 SWAP1 PUSH1 0x0 MSTORE PUSH1 0x20 PUSH1 0x0 KECCAK256 SWAP1 JUMPDEST DUP2 SLOAD DUP2 MSTORE SWAP1 PUSH1 0x1 ADD SWAP1 PUSH1 0x20 ADD DUP1 DUP4 GT PUSH2 0x2C33 JUMPI DUP3 SWAP1 SUB PUSH1 0x1F AND DUP3 ADD SWAP2 JUMPDEST POP POP POP POP POP DUP2 MSTORE PUSH1 0x20 ADD PUSH1 0x3 DUP3 ADD SLOAD DUP2 MSTORE PUSH1 0x20 ADD PUSH1 0x4 DUP3 ADD SLOAD DUP2 MSTORE PUSH1 0x20 ADD PUSH1 0x5 DUP3 ADD PUSH1 0x0 SWAP1 SLOAD SWAP1 PUSH2 0x100 EXP SWAP1 DIV PUSH20 0xFFFFFFFFFFFFFFFFFFFFFFFFFFFFFFFFFFFFFFFF AND PUSH20 0xFFFFFFFFFFFFFFFFFFFFFFFFFFFFFFFFFFFFFFFF AND PUSH20 0xFFFFFFFFFFFFFFFFFFFFFFFFFFFFFFFFFFFFFFFF AND DUP2 MSTORE POP POP SWAP1 POP PUSH1 0x0 PUSH1 0x40 MLOAD DUP1 PUSH1 0x20 ADD PUSH1 0x40 MSTORE DUP1 PUSH1 0x0 DUP2 MSTORE POP SWAP1 POP PUSH1 0x2 PUSH1 0x3 DUP2 GT ISZERO PUSH2 0x2CED JUMPI PUSH2 0x2CEC PUSH2 0x3CF5 JUMP JUMPDEST JUMPDEST DUP3 PUSH1 0xA0 ADD MLOAD PUSH1 0x3 DUP2 GT ISZERO PUSH2 0x2D04 JUMPI PUSH2 0x2D03 PUSH2 0x3CF5 JUMP JUMPDEST JUMPDEST SUB PUSH2 0x2D46 JUMPI PUSH1 0x40 MLOAD DUP1 PUSH1 0x40 ADD PUSH1 0x40 MSTORE DUP1 PUSH1 0x14 DUP2 MSTORE PUSH1 0x20 ADD PUSH32 0x68747470733A2F2F617277656176652E6E65742F000000000000000000000000 DUP2 MSTORE POP SWAP1 POP PUSH2 0x2DAF JUMP JUMPDEST PUSH1 0x3 DUP1 DUP2 GT ISZERO PUSH2 0x2D59 JUMPI PUSH2 0x2D58 PUSH2 0x3CF5 JUMP JUMPDEST JUMPDEST DUP3 PUSH1 0xA0 ADD MLOAD PUSH1 0x3 DUP2 GT ISZERO PUSH2 0x2D70 JUMPI PUSH2 0x2D6F PUSH2 0x3CF5 JUMP JUMPDEST JUMPDEST SUB PUSH2 0x2DAE JUMPI PUSH1 0x40 MLOAD DUP1 PUSH1 0x40 ADD PUSH1 0x40 MSTORE DUP1 PUSH1 0x7 DUP2 MSTORE PUSH1 0x20 ADD PUSH32 0x697066733A2F2F00000000000000000000000000000000000000000000000000 DUP2 MSTORE POP SWAP1 POP JUMPDEST JUMPDEST DUP1 DUP3 PUSH1 0xE0 ADD MLOAD PUSH1 0x40 MLOAD PUSH1 0x20 ADD PUSH2 0x2DC6 SWAP3 SWAP2 SWAP1 PUSH2 0x5AD1 JUMP JUMPDEST PUSH1 0x40 MLOAD PUSH1 0x20 DUP2 DUP4 SUB SUB DUP2 MSTORE SWAP1 PUSH1 0x40 MSTORE SWAP4 POP POP POP POP SWAP3 SWAP2 POP POP JUMP JUMPDEST PUSH1 0x60 DUP3 DUP3 SWAP1 POP PUSH8 0xFFFFFFFFFFFFFFFF DUP2 GT ISZERO PUSH2 0x2DFF JUMPI PUSH2 0x2DFE PUSH2 0x4CC3 JUMP JUMPDEST JUMPDEST PUSH1 0x40 MLOAD SWAP1 DUP1 DUP3 MSTORE DUP1 PUSH1 0x20 MUL PUSH1 0x20 ADD DUP3 ADD PUSH1 0x40 MSTORE DUP1 ISZERO PUSH2 0x2E2D JUMPI DUP2 PUSH1 0x20 ADD PUSH1 0x20 DUP3 MUL DUP1 CALLDATASIZE DUP4 CALLDATACOPY DUP1 DUP3 ADD SWAP2 POP POP SWAP1 POP JUMPDEST POP SWAP1 POP PUSH1 0x0 JUMPDEST DUP4 DUP4 SWAP1 POP DUP2 LT ISZERO PUSH2 0x2EA8 JUMPI PUSH2 0x2E70 DUP7 DUP7 DUP7 DUP7 DUP6 DUP2 DUP2 LT PUSH2 0x2E56 JUMPI PUSH2 0x2E55 PUSH2 0x4B2F JUMP JUMPDEST JUMPDEST SWAP1 POP PUSH1 0x20 MUL ADD PUSH1 0x20 DUP2 ADD SWAP1 PUSH2 0x2E6B SWAP2 SWAP1 PUSH2 0x4B5E JUMP JUMPDEST PUSH2 0x2740 JUMP JUMPDEST DUP3 DUP3 DUP2 MLOAD DUP2 LT PUSH2 0x2E83 JUMPI PUSH2 0x2E82 PUSH2 0x4B2F JUMP JUMPDEST JUMPDEST PUSH1 0x20 MUL PUSH1 0x20 ADD ADD SWAP1 ISZERO ISZERO SWAP1 DUP2 ISZERO ISZERO DUP2 MSTORE POP POP DUP1 DUP1 PUSH2 0x2EA0 SWAP1 PUSH2 0x5AF5 JUMP JUMPDEST SWAP2 POP POP PUSH2 0x2E33 JUMP JUMPDEST POP SWAP5 SWAP4 POP POP POP POP JUMP JUMPDEST PUSH1 0x0 PUSH1 0x3 PUSH1 0x0 DUP9 PUSH20 0xFFFFFFFFFFFFFFFFFFFFFFFFFFFFFFFFFFFFFFFF AND PUSH20 0xFFFFFFFFFFFFFFFFFFFFFFFFFFFFFFFFFFFFFFFF AND DUP2 MSTORE PUSH1 0x20 ADD SWAP1 DUP2 MSTORE PUSH1 0x20 ADD PUSH1 0x0 KECCAK256 PUSH1 0x0 DUP8 DUP2 MSTORE PUSH1 0x20 ADD SWAP1 DUP2 MSTORE PUSH1 0x20 ADD PUSH1 0x0 KECCAK256 SWAP1 POP PUSH1 0x0 PUSH1 0x3 DUP2 GT ISZERO PUSH2 0x2F19 JUMPI PUSH2 0x2F18 PUSH2 0x3CF5 JUMP JUMPDEST JUMPDEST DUP2 PUSH1 0x0 ADD PUSH1 0x18 SWAP1 SLOAD SWAP1 PUSH2 0x100 EXP SWAP1 DIV PUSH1 0xFF AND PUSH1 0x3 DUP2 GT ISZERO PUSH2 0x2F3D JUMPI PUSH2 0x2F3C PUSH2 0x3CF5 JUMP JUMPDEST JUMPDEST SUB PUSH2 0x2F7D JUMPI PUSH1 0x40 MLOAD PUSH32 0x8C379A000000000000000000000000000000000000000000000000000000000 DUP2 MSTORE PUSH1 0x4 ADD PUSH2 0x2F74 SWAP1 PUSH2 0x47C4 JUMP JUMPDEST PUSH1 0x40 MLOAD DUP1 SWAP2 SUB SWAP1 REVERT JUMPDEST DUP1 PUSH1 0x4 ADD SLOAD CALLVALUE EQ PUSH2 0x2FC3 JUMPI PUSH1 0x40 MLOAD PUSH32 0x8C379A000000000000000000000000000000000000000000000000000000000 DUP2 MSTORE PUSH1 0x4 ADD PUSH2 0x2FBA SWAP1 PUSH2 0x4901 JUMP JUMPDEST PUSH1 0x40 MLOAD DUP1 SWAP2 SUB SWAP1 REVERT JUMPDEST PUSH1 0x0 DUP2 PUSH1 0x0 ADD PUSH1 0xC SWAP1 SLOAD SWAP1 PUSH2 0x100 EXP SWAP1 DIV PUSH6 0xFFFFFFFFFFFF AND PUSH6 0xFFFFFFFFFFFF AND EQ DUP1 PUSH2 0x300D JUMPI POP TIMESTAMP DUP2 PUSH1 0x0 ADD PUSH1 0xC SWAP1 SLOAD SWAP1 PUSH2 0x100 EXP SWAP1 DIV PUSH6 0xFFFFFFFFFFFF AND PUSH6 0xFFFFFFFFFFFF AND LT JUMPDEST PUSH2 0x304C JUMPI PUSH1 0x40 MLOAD PUSH32 0x8C379A000000000000000000000000000000000000000000000000000000000 DUP2 MSTORE PUSH1 0x4 ADD PUSH2 0x3043 SWAP1 PUSH2 0x496D JUMP JUMPDEST PUSH1 0x40 MLOAD DUP1 SWAP2 SUB SWAP1 REVERT JUMPDEST PUSH1 0x0 DUP2 PUSH1 0x0 ADD PUSH1 0x12 SWAP1 SLOAD SWAP1 PUSH2 0x100 EXP SWAP1 DIV PUSH6 0xFFFFFFFFFFFF AND PUSH6 0xFFFFFFFFFFFF AND EQ DUP1 PUSH2 0x3097 JUMPI POP TIMESTAMP DUP2 PUSH1 0x0 ADD PUSH1 0x12 SWAP1 SLOAD SWAP1 PUSH2 0x100 EXP SWAP1 DIV PUSH6 0xFFFFFFFFFFFF AND PUSH6 0xFFFFFFFFFFFF AND LT ISZERO JUMPDEST PUSH2 0x30D6 JUMPI PUSH1 0x40 MLOAD PUSH32 0x8C379A000000000000000000000000000000000000000000000000000000000 DUP2 MSTORE PUSH1 0x4 ADD PUSH2 0x30CD SWAP1 PUSH2 0x49D9 JUMP JUMPDEST PUSH1 0x40 MLOAD DUP1 SWAP2 SUB SWAP1 REVERT JUMPDEST PUSH1 0x0 DUP2 PUSH1 0x0 ADD PUSH1 0x4 SWAP1 SLOAD SWAP1 PUSH2 0x100 EXP SWAP1 DIV PUSH4 0xFFFFFFFF AND PUSH4 0xFFFFFFFF AND EQ DUP1 PUSH2 0x3132 JUMPI POP DUP1 PUSH1 0x0 ADD PUSH1 0x4 SWAP1 SLOAD SWAP1 PUSH2 0x100 EXP SWAP1 DIV PUSH4 0xFFFFFFFF AND PUSH4 0xFFFFFFFF AND DUP2 PUSH1 0x0 ADD PUSH1 0x0 SWAP1 SLOAD SWAP1 PUSH2 0x100 EXP SWAP1 DIV PUSH4 0xFFFFFFFF AND PUSH4 0xFFFFFFFF AND LT JUMPDEST PUSH2 0x3171 JUMPI PUSH1 0x40 MLOAD PUSH32 0x8C379A000000000000000000000000000000000000000000000000000000000 DUP2 MSTORE PUSH1 0x4 ADD PUSH2 0x3168 SWAP1 PUSH2 0x5BAF JUMP JUMPDEST PUSH1 0x40 MLOAD DUP1 SWAP2 SUB SWAP1 REVERT JUMPDEST PUSH1 0x0 DUP2 PUSH1 0x1 ADD SLOAD EQ PUSH2 0x31D1 JUMPI PUSH2 0x31CC DUP2 DUP9 DUP9 DUP9 DUP9 DUP9 DUP1 DUP1 PUSH1 0x20 MUL PUSH1 0x20 ADD PUSH1 0x40 MLOAD SWAP1 DUP2 ADD PUSH1 0x40 MSTORE DUP1 SWAP4 SWAP3 SWAP2 SWAP1 DUP2 DUP2 MSTORE PUSH1 0x20 ADD DUP4 DUP4 PUSH1 0x20 MUL DUP1 DUP3 DUP5 CALLDATACOPY PUSH1 0x0 DUP2 DUP5 ADD MSTORE PUSH1 0x1F NOT PUSH1 0x1F DUP3 ADD AND SWAP1 POP DUP1 DUP4 ADD SWAP3 POP POP POP POP POP POP POP DUP8 PUSH2 0x36B2 JUMP JUMPDEST PUSH2 0x337B JUMP JUMPDEST PUSH1 0x0 DUP2 PUSH1 0x0 ADD PUSH1 0x8 SWAP1 SLOAD SWAP1 PUSH2 0x100 EXP SWAP1 DIV PUSH4 0xFFFFFFFF AND PUSH4 0xFFFFFFFF AND EQ PUSH2 0x337A JUMPI DUP1 PUSH1 0x0 ADD PUSH1 0x8 SWAP1 SLOAD SWAP1 PUSH2 0x100 EXP SWAP1 DIV PUSH4 0xFFFFFFFF AND PUSH4 0xFFFFFFFF AND PUSH1 0x4 PUSH1 0x0 DUP10 PUSH20 0xFFFFFFFFFFFFFFFFFFFFFFFFFFFFFFFFFFFFFFFF AND PUSH20 0xFFFFFFFFFFFFFFFFFFFFFFFFFFFFFFFFFFFFFFFF AND DUP2 MSTORE PUSH1 0x20 ADD SWAP1 DUP2 MSTORE PUSH1 0x20 ADD PUSH1 0x0 KECCAK256 PUSH1 0x0 DUP9 DUP2 MSTORE PUSH1 0x20 ADD SWAP1 DUP2 MSTORE PUSH1 0x20 ADD PUSH1 0x0 KECCAK256 PUSH1 0x0 CALLER PUSH20 0xFFFFFFFFFFFFFFFFFFFFFFFFFFFFFFFFFFFFFFFF AND PUSH20 0xFFFFFFFFFFFFFFFFFFFFFFFFFFFFFFFFFFFFFFFF AND DUP2 MSTORE PUSH1 0x20 ADD SWAP1 DUP2 MSTORE PUSH1 0x20 ADD PUSH1 0x0 KECCAK256 SLOAD LT PUSH2 0x32DC JUMPI PUSH1 0x40 MLOAD PUSH32 0x8C379A000000000000000000000000000000000000000000000000000000000 DUP2 MSTORE PUSH1 0x4 ADD PUSH2 0x32D3 SWAP1 PUSH2 0x5C41 JUMP JUMPDEST PUSH1 0x40 MLOAD DUP1 SWAP2 SUB SWAP1 REVERT JUMPDEST PUSH1 0x4 PUSH1 0x0 DUP9 PUSH20 0xFFFFFFFFFFFFFFFFFFFFFFFFFFFFFFFFFFFFFFFF AND PUSH20 0xFFFFFFFFFFFFFFFFFFFFFFFFFFFFFFFFFFFFFFFF AND DUP2 MSTORE PUSH1 0x20 ADD SWAP1 DUP2 MSTORE PUSH1 0x20 ADD PUSH1 0x0 KECCAK256 PUSH1 0x0 DUP8 DUP2 MSTORE PUSH1 0x20 ADD SWAP1 DUP2 MSTORE PUSH1 0x20 ADD PUSH1 0x0 KECCAK256 PUSH1 0x0 CALLER PUSH20 0xFFFFFFFFFFFFFFFFFFFFFFFFFFFFFFFFFFFFFFFF AND PUSH20 0xFFFFFFFFFFFFFFFFFFFFFFFFFFFFFFFFFFFFFFFF AND DUP2 MSTORE PUSH1 0x20 ADD SWAP1 DUP2 MSTORE PUSH1 0x20 ADD PUSH1 0x0 KECCAK256 PUSH1 0x0 DUP2 SLOAD DUP1 SWAP3 SWAP2 SWAP1 PUSH1 0x1 ADD SWAP2 SWAP1 POP SSTORE POP JUMPDEST JUMPDEST DUP1 PUSH1 0x0 ADD PUSH1 0x0 DUP2 DUP2 SWAP1 SLOAD SWAP1 PUSH2 0x100 EXP SWAP1 DIV PUSH4 0xFFFFFFFF AND DUP1 SWAP3 SWAP2 SWAP1 PUSH1 0x1 ADD SWAP2 SWAP1 PUSH2 0x100 EXP DUP2 SLOAD DUP2 PUSH4 0xFFFFFFFF MUL NOT AND SWAP1 DUP4 PUSH4 0xFFFFFFFF AND MUL OR SWAP1 SSTORE POP POP PUSH1 0x0 PUSH1 0x1 PUSH8 0xFFFFFFFFFFFFFFFF DUP2 GT ISZERO PUSH2 0x33D5 JUMPI PUSH2 0x33D4 PUSH2 0x4CC3 JUMP JUMPDEST JUMPDEST PUSH1 0x40 MLOAD SWAP1 DUP1 DUP3 MSTORE DUP1 PUSH1 0x20 MUL PUSH1 0x20 ADD DUP3 ADD PUSH1 0x40 MSTORE DUP1 ISZERO PUSH2 0x3403 JUMPI DUP2 PUSH1 0x20 ADD PUSH1 0x20 DUP3 MUL DUP1 CALLDATASIZE DUP4 CALLDATACOPY DUP1 DUP3 ADD SWAP2 POP POP SWAP1 POP JUMPDEST POP SWAP1 POP CALLER DUP2 PUSH1 0x0 DUP2 MLOAD DUP2 LT PUSH2 0x341B JUMPI PUSH2 0x341A PUSH2 0x4B2F JUMP JUMPDEST JUMPDEST PUSH1 0x20 MUL PUSH1 0x20 ADD ADD SWAP1 PUSH20 0xFFFFFFFFFFFFFFFFFFFFFFFFFFFFFFFFFFFFFFFF AND SWAP1 DUP2 PUSH20 0xFFFFFFFFFFFFFFFFFFFFFFFFFFFFFFFFFFFFFFFF AND DUP2 MSTORE POP POP PUSH1 0x0 PUSH1 0x1 PUSH8 0xFFFFFFFFFFFFFFFF DUP2 GT ISZERO PUSH2 0x3472 JUMPI PUSH2 0x3471 PUSH2 0x4CC3 JUMP JUMPDEST JUMPDEST PUSH1 0x40 MLOAD SWAP1 DUP1 DUP3 MSTORE DUP1 PUSH1 0x20 MUL PUSH1 0x20 ADD DUP3 ADD PUSH1 0x40 MSTORE DUP1 ISZERO PUSH2 0x34A0 JUMPI DUP2 PUSH1 0x20 ADD PUSH1 0x20 DUP3 MUL DUP1 CALLDATASIZE DUP4 CALLDATACOPY DUP1 DUP3 ADD SWAP2 POP POP SWAP1 POP JUMPDEST POP SWAP1 POP PUSH1 0x1 DUP2 PUSH1 0x0 DUP2 MLOAD DUP2 LT PUSH2 0x34B9 JUMPI PUSH2 0x34B8 PUSH2 0x4B2F JUMP JUMPDEST JUMPDEST PUSH1 0x20 MUL PUSH1 0x20 ADD ADD DUP2 DUP2 MSTORE POP POP PUSH1 0x0 PUSH1 0x1 PUSH8 0xFFFFFFFFFFFFFFFF DUP2 GT ISZERO PUSH2 0x34E2 JUMPI PUSH2 0x34E1 PUSH2 0x4CC3 JUMP JUMPDEST JUMPDEST PUSH1 0x40 MLOAD SWAP1 DUP1 DUP3 MSTORE DUP1 PUSH1 0x20 MUL PUSH1 0x20 ADD DUP3 ADD PUSH1 0x40 MSTORE DUP1 ISZERO PUSH2 0x3510 JUMPI DUP2 PUSH1 0x20 ADD PUSH1 0x20 DUP3 MUL DUP1 CALLDATASIZE DUP4 CALLDATACOPY DUP1 DUP3 ADD SWAP2 POP POP SWAP1 POP JUMPDEST POP SWAP1 POP DUP4 PUSH1 0x3 ADD SLOAD DUP2 PUSH1 0x0 DUP2 MLOAD DUP2 LT PUSH2 0x352C JUMPI PUSH2 0x352B PUSH2 0x4B2F JUMP JUMPDEST JUMPDEST PUSH1 0x20 MUL PUSH1 0x20 ADD ADD DUP2 DUP2 MSTORE POP POP DUP10 PUSH20 0xFFFFFFFFFFFFFFFFFFFFFFFFFFFFFFFFFFFFFFFF AND PUSH4 0xE6C884DC DUP5 DUP4 DUP6 PUSH1 0x40 MLOAD DUP5 PUSH4 0xFFFFFFFF AND PUSH1 0xE0 SHL DUP2 MSTORE PUSH1 0x4 ADD PUSH2 0x3575 SWAP4 SWAP3 SWAP2 SWAP1 PUSH2 0x4E50 JUMP JUMPDEST PUSH1 0x0 PUSH1 0x40 MLOAD DUP1 DUP4 SUB DUP2 PUSH1 0x0 DUP8 DUP1 EXTCODESIZE ISZERO DUP1 ISZERO PUSH2 0x358F JUMPI PUSH1 0x0 DUP1 REVERT JUMPDEST POP GAS CALL ISZERO DUP1 ISZERO PUSH2 0x35A3 JUMPI RETURNDATASIZE PUSH1 0x0 DUP1 RETURNDATACOPY RETURNDATASIZE PUSH1 0x0 REVERT JUMPDEST POP POP POP POP DUP4 PUSH1 0x5 ADD PUSH1 0x0 SWAP1 SLOAD SWAP1 PUSH2 0x100 EXP SWAP1 DIV PUSH20 0xFFFFFFFFFFFFFFFFFFFFFFFFFFFFFFFFFFFFFFFF AND PUSH20 0xFFFFFFFFFFFFFFFFFFFFFFFFFFFFFFFFFFFFFFFF AND PUSH2 0x8FC CALLVALUE SWAP1 DUP2 ISZERO MUL SWAP1 PUSH1 0x40 MLOAD PUSH1 0x0 PUSH1 0x40 MLOAD DUP1 DUP4 SUB DUP2 DUP6 DUP9 DUP9 CALL SWAP4 POP POP POP POP ISZERO DUP1 ISZERO PUSH2 0x3611 JUMPI RETURNDATASIZE PUSH1 0x0 DUP1 RETURNDATACOPY RETURNDATASIZE PUSH1 0x0 REVERT JUMPDEST POP PUSH1 0x6 PUSH1 0x0 DUP12 PUSH20 0xFFFFFFFFFFFFFFFFFFFFFFFFFFFFFFFFFFFFFFFF AND PUSH20 0xFFFFFFFFFFFFFFFFFFFFFFFFFFFFFFFFFFFFFFFF AND DUP2 MSTORE PUSH1 0x20 ADD SWAP1 DUP2 MSTORE PUSH1 0x20 ADD PUSH1 0x0 KECCAK256 PUSH1 0x0 DUP11 DUP2 MSTORE PUSH1 0x20 ADD SWAP1 DUP2 MSTORE PUSH1 0x20 ADD PUSH1 0x0 KECCAK256 SLOAD DUP11 PUSH20 0xFFFFFFFFFFFFFFFFFFFFFFFFFFFFFFFFFFFFFFFF AND PUSH32 0x5D404F369772CFAB2B65717FCA9BC2077EFEAB89A0DBEC036BF0C13783154EB1 PUSH1 0x40 MLOAD PUSH1 0x40 MLOAD DUP1 SWAP2 SUB SWAP1 LOG3 POP POP POP POP POP POP POP POP POP POP JUMP JUMPDEST PUSH1 0x0 CALLER PUSH20 0xFFFFFFFFFFFFFFFFFFFFFFFFFFFFFFFFFFFFFFFF AND DUP3 PUSH20 0xFFFFFFFFFFFFFFFFFFFFFFFFFFFFFFFFFFFFFFFF AND SUB PUSH2 0x3717 JUMPI CALLER DUP5 PUSH1 0x40 MLOAD PUSH1 0x20 ADD PUSH2 0x36FA SWAP3 SWAP2 SWAP1 PUSH2 0x5CDF JUMP JUMPDEST PUSH1 0x40 MLOAD PUSH1 0x20 DUP2 DUP4 SUB SUB DUP2 MSTORE SWAP1 PUSH1 0x40 MSTORE DUP1 MLOAD SWAP1 PUSH1 0x20 ADD KECCAK256 SWAP1 POP PUSH2 0x3828 JUMP JUMPDEST PUSH1 0x0 PUSH1 0x1 PUSH1 0x0 SWAP1 SLOAD SWAP1 PUSH2 0x100 EXP SWAP1 DIV PUSH20 0xFFFFFFFFFFFFFFFFFFFFFFFFFFFFFFFFFFFFFFFF AND SWAP1 POP DUP1 PUSH20 0xFFFFFFFFFFFFFFFFFFFFFFFFFFFFFFFFFFFFFFFF AND PUSH4 0x90C9A2D0 CALLER DUP6 ADDRESS PUSH1 0x40 MLOAD DUP5 PUSH4 0xFFFFFFFF AND PUSH1 0xE0 SHL DUP2 MSTORE PUSH1 0x4 ADD PUSH2 0x377B SWAP4 SWAP3 SWAP2 SWAP1 PUSH2 0x5D0B JUMP JUMPDEST PUSH1 0x20 PUSH1 0x40 MLOAD DUP1 DUP4 SUB DUP2 DUP7 GAS STATICCALL ISZERO DUP1 ISZERO PUSH2 0x3798 JUMPI RETURNDATASIZE PUSH1 0x0 DUP1 RETURNDATACOPY RETURNDATASIZE PUSH1 0x0 REVERT JUMPDEST POP POP POP POP PUSH1 0x40 MLOAD RETURNDATASIZE PUSH1 0x1F NOT PUSH1 0x1F DUP3 ADD AND DUP3 ADD DUP1 PUSH1 0x40 MSTORE POP DUP2 ADD SWAP1 PUSH2 0x37BC SWAP2 SWAP1 PUSH2 0x4F84 JUMP JUMPDEST PUSH2 0x37FB JUMPI PUSH1 0x40 MLOAD PUSH32 0x8C379A000000000000000000000000000000000000000000000000000000000 DUP2 MSTORE PUSH1 0x4 ADD PUSH2 0x37F2 SWAP1 PUSH2 0x5D8E JUMP JUMPDEST PUSH1 0x40 MLOAD DUP1 SWAP2 SUB SWAP1 REVERT JUMPDEST DUP3 DUP6 PUSH1 0x40 MLOAD PUSH1 0x20 ADD PUSH2 0x380E SWAP3 SWAP2 SWAP1 PUSH2 0x5CDF JUMP JUMPDEST PUSH1 0x40 MLOAD PUSH1 0x20 DUP2 DUP4 SUB SUB DUP2 MSTORE SWAP1 PUSH1 0x40 MSTORE DUP1 MLOAD SWAP1 PUSH1 0x20 ADD KECCAK256 SWAP2 POP POP JUMPDEST PUSH2 0x3837 DUP4 DUP9 PUSH1 0x1 ADD SLOAD DUP4 PUSH2 0x39BC JUMP JUMPDEST PUSH2 0x3876 JUMPI PUSH1 0x40 MLOAD PUSH32 0x8C379A000000000000000000000000000000000000000000000000000000000 DUP2 MSTORE PUSH1 0x4 ADD PUSH2 0x386D SWAP1 PUSH2 0x5DFA JUMP JUMPDEST PUSH1 0x40 MLOAD DUP1 SWAP2 SUB SWAP1 REVERT JUMPDEST PUSH1 0x0 PUSH1 0x8 DUP6 PUSH4 0xFFFFFFFF AND SWAP1 SHR PUSH4 0xFFFFFFFF AND SWAP1 POP PUSH1 0x0 PUSH1 0x5 PUSH1 0x0 DUP10 PUSH20 0xFFFFFFFFFFFFFFFFFFFFFFFFFFFFFFFFFFFFFFFF AND PUSH20 0xFFFFFFFFFFFFFFFFFFFFFFFFFFFFFFFFFFFFFFFF AND DUP2 MSTORE PUSH1 0x20 ADD SWAP1 DUP2 MSTORE PUSH1 0x20 ADD PUSH1 0x0 KECCAK256 PUSH1 0x0 DUP9 DUP2 MSTORE PUSH1 0x20 ADD SWAP1 DUP2 MSTORE PUSH1 0x20 ADD PUSH1 0x0 KECCAK256 PUSH1 0x0 DUP4 DUP2 MSTORE PUSH1 0x20 ADD SWAP1 DUP2 MSTORE PUSH1 0x20 ADD PUSH1 0x0 KECCAK256 SLOAD SWAP1 POP PUSH1 0x0 PUSH1 0xFF DUP8 PUSH4 0xFFFFFFFF AND AND PUSH1 0x1 SWAP1 SHL SWAP1 POP PUSH1 0x0 DUP3 DUP3 AND EQ PUSH2 0x3948 JUMPI PUSH1 0x40 MLOAD PUSH32 0x8C379A000000000000000000000000000000000000000000000000000000000 DUP2 MSTORE PUSH1 0x4 ADD PUSH2 0x393F SWAP1 PUSH2 0x5E66 JUMP JUMPDEST PUSH1 0x40 MLOAD DUP1 SWAP2 SUB SWAP1 REVERT JUMPDEST DUP1 DUP3 OR PUSH1 0x5 PUSH1 0x0 DUP12 PUSH20 0xFFFFFFFFFFFFFFFFFFFFFFFFFFFFFFFFFFFFFFFF AND PUSH20 0xFFFFFFFFFFFFFFFFFFFFFFFFFFFFFFFFFFFFFFFF AND DUP2 MSTORE PUSH1 0x20 ADD SWAP1 DUP2 MSTORE PUSH1 0x20 ADD PUSH1 0x0 KECCAK256 PUSH1 0x0 DUP11 DUP2 MSTORE PUSH1 0x20 ADD SWAP1 DUP2 MSTORE PUSH1 0x20 ADD PUSH1 0x0 KECCAK256 PUSH1 0x0 DUP6 DUP2 MSTORE PUSH1 0x20 ADD SWAP1 DUP2 MSTORE PUSH1 0x20 ADD PUSH1 0x0 KECCAK256 DUP2 SWAP1 SSTORE POP POP POP POP POP POP POP POP POP POP POP JUMP JUMPDEST PUSH1 0x0 DUP3 PUSH2 0x39C9 DUP6 DUP5 PUSH2 0x39D3 JUMP JUMPDEST EQ SWAP1 POP SWAP4 SWAP3 POP POP POP JUMP JUMPDEST PUSH1 0x0 DUP1 DUP3 SWAP1 POP PUSH1 0x0 JUMPDEST DUP5 MLOAD DUP2 LT ISZERO PUSH2 0x3A1E JUMPI PUSH2 0x3A09 DUP3 DUP7 DUP4 DUP2 MLOAD DUP2 LT PUSH2 0x39FC JUMPI PUSH2 0x39FB PUSH2 0x4B2F JUMP JUMPDEST JUMPDEST PUSH1 0x20 MUL PUSH1 0x20 ADD ADD MLOAD PUSH2 0x3A29 JUMP JUMPDEST SWAP2 POP DUP1 DUP1 PUSH2 0x3A16 SWAP1 PUSH2 0x5AF5 JUMP JUMPDEST SWAP2 POP POP PUSH2 0x39DC JUMP JUMPDEST POP DUP1 SWAP2 POP POP SWAP3 SWAP2 POP POP JUMP JUMPDEST PUSH1 0x0 DUP2 DUP4 LT PUSH2 0x3A41 JUMPI PUSH2 0x3A3C DUP3 DUP5 PUSH2 0x3A54 JUMP JUMPDEST PUSH2 0x3A4C JUMP JUMPDEST PUSH2 0x3A4B DUP4 DUP4 PUSH2 0x3A54 JUMP JUMPDEST JUMPDEST SWAP1 POP SWAP3 SWAP2 POP POP JUMP JUMPDEST PUSH1 0x0 DUP3 PUSH1 0x0 MSTORE DUP2 PUSH1 0x20 MSTORE PUSH1 0x40 PUSH1 0x0 KECCAK256 SWAP1 POP SWAP3 SWAP2 POP POP JUMP JUMPDEST PUSH1 0x40 MLOAD DUP1 PUSH2 0x160 ADD PUSH1 0x40 MSTORE DUP1 PUSH1 0x0 PUSH4 0xFFFFFFFF AND DUP2 MSTORE PUSH1 0x20 ADD PUSH1 0x0 PUSH4 0xFFFFFFFF AND DUP2 MSTORE PUSH1 0x20 ADD PUSH1 0x0 PUSH4 0xFFFFFFFF AND DUP2 MSTORE PUSH1 0x20 ADD PUSH1 0x0 PUSH6 0xFFFFFFFFFFFF AND DUP2 MSTORE PUSH1 0x20 ADD PUSH1 0x0 PUSH6 0xFFFFFFFFFFFF AND DUP2 MSTORE PUSH1 0x20 ADD PUSH1 0x0 PUSH1 0x3 DUP2 GT ISZERO PUSH2 0x3AD0 JUMPI PUSH2 0x3ACF PUSH2 0x3CF5 JUMP JUMPDEST JUMPDEST DUP2 MSTORE PUSH1 0x20 ADD PUSH1 0x0 DUP1 NOT AND DUP2 MSTORE PUSH1 0x20 ADD PUSH1 0x60 DUP2 MSTORE PUSH1 0x20 ADD PUSH1 0x0 DUP2 MSTORE PUSH1 0x20 ADD PUSH1 0x0 DUP2 MSTORE PUSH1 0x20 ADD PUSH1 0x0 PUSH20 0xFFFFFFFFFFFFFFFFFFFFFFFFFFFFFFFFFFFFFFFF AND DUP2 MSTORE POP SWAP1 JUMP JUMPDEST PUSH1 0x0 PUSH1 0x40 MLOAD SWAP1 POP SWAP1 JUMP JUMPDEST PUSH1 0x0 DUP1 REVERT JUMPDEST PUSH1 0x0 DUP1 REVERT JUMPDEST PUSH1 0x0 PUSH32 0xFFFFFFFF00000000000000000000000000000000000000000000000000000000 DUP3 AND SWAP1 POP SWAP2 SWAP1 POP JUMP JUMPDEST PUSH2 0x3B5B DUP2 PUSH2 0x3B26 JUMP JUMPDEST DUP2 EQ PUSH2 0x3B66 JUMPI PUSH1 0x0 DUP1 REVERT JUMPDEST POP JUMP JUMPDEST PUSH1 0x0 DUP2 CALLDATALOAD SWAP1 POP PUSH2 0x3B78 DUP2 PUSH2 0x3B52 JUMP JUMPDEST SWAP3 SWAP2 POP POP JUMP JUMPDEST PUSH1 0x0 PUSH1 0x20 DUP3 DUP5 SUB SLT ISZERO PUSH2 0x3B94 JUMPI PUSH2 0x3B93 PUSH2 0x3B1C JUMP JUMPDEST JUMPDEST PUSH1 0x0 PUSH2 0x3BA2 DUP5 DUP3 DUP6 ADD PUSH2 0x3B69 JUMP JUMPDEST SWAP2 POP POP SWAP3 SWAP2 POP POP JUMP JUMPDEST PUSH1 0x0 DUP2 ISZERO ISZERO SWAP1 POP SWAP2 SWAP1 POP JUMP JUMPDEST PUSH2 0x3BC0 DUP2 PUSH2 0x3BAB JUMP JUMPDEST DUP3 MSTORE POP POP JUMP JUMPDEST PUSH1 0x0 PUSH1 0x20 DUP3 ADD SWAP1 POP PUSH2 0x3BDB PUSH1 0x0 DUP4 ADD DUP5 PUSH2 0x3BB7 JUMP JUMPDEST SWAP3 SWAP2 POP POP JUMP JUMPDEST PUSH1 0x0 PUSH20 0xFFFFFFFFFFFFFFFFFFFFFFFFFFFFFFFFFFFFFFFF DUP3 AND SWAP1 POP SWAP2 SWAP1 POP JUMP JUMPDEST PUSH1 0x0 PUSH2 0x3C0C DUP3 PUSH2 0x3BE1 JUMP JUMPDEST SWAP1 POP SWAP2 SWAP1 POP JUMP JUMPDEST PUSH2 0x3C1C DUP2 PUSH2 0x3C01 JUMP JUMPDEST DUP2 EQ PUSH2 0x3C27 JUMPI PUSH1 0x0 DUP1 REVERT JUMPDEST POP JUMP JUMPDEST PUSH1 0x0 DUP2 CALLDATALOAD SWAP1 POP PUSH2 0x3C39 DUP2 PUSH2 0x3C13 JUMP JUMPDEST SWAP3 SWAP2 POP POP JUMP JUMPDEST PUSH1 0x0 DUP2 SWAP1 POP SWAP2 SWAP1 POP JUMP JUMPDEST PUSH2 0x3C52 DUP2 PUSH2 0x3C3F JUMP JUMPDEST DUP2 EQ PUSH2 0x3C5D JUMPI PUSH1 0x0 DUP1 REVERT JUMPDEST POP JUMP JUMPDEST PUSH1 0x0 DUP2 CALLDATALOAD SWAP1 POP PUSH2 0x3C6F DUP2 PUSH2 0x3C49 JUMP JUMPDEST SWAP3 SWAP2 POP POP JUMP JUMPDEST PUSH1 0x0 DUP1 PUSH1 0x40 DUP4 DUP6 SUB SLT ISZERO PUSH2 0x3C8C JUMPI PUSH2 0x3C8B PUSH2 0x3B1C JUMP JUMPDEST JUMPDEST PUSH1 0x0 PUSH2 0x3C9A DUP6 DUP3 DUP7 ADD PUSH2 0x3C2A JUMP JUMPDEST SWAP3 POP POP PUSH1 0x20 PUSH2 0x3CAB DUP6 DUP3 DUP7 ADD PUSH2 0x3C60 JUMP JUMPDEST SWAP2 POP POP SWAP3 POP SWAP3 SWAP1 POP JUMP JUMPDEST PUSH1 0x0 PUSH4 0xFFFFFFFF DUP3 AND SWAP1 POP SWAP2 SWAP1 POP JUMP JUMPDEST PUSH2 0x3CCE DUP2 PUSH2 0x3CB5 JUMP JUMPDEST DUP3 MSTORE POP POP JUMP JUMPDEST PUSH1 0x0 PUSH6 0xFFFFFFFFFFFF DUP3 AND SWAP1 POP SWAP2 SWAP1 POP JUMP JUMPDEST PUSH2 0x3CEF DUP2 PUSH2 0x3CD4 JUMP JUMPDEST DUP3 MSTORE POP POP JUMP JUMPDEST PUSH32 0x4E487B7100000000000000000000000000000000000000000000000000000000 PUSH1 0x0 MSTORE PUSH1 0x21 PUSH1 0x4 MSTORE PUSH1 0x24 PUSH1 0x0 REVERT JUMPDEST PUSH1 0x4 DUP2 LT PUSH2 0x3D35 JUMPI PUSH2 0x3D34 PUSH2 0x3CF5 JUMP JUMPDEST JUMPDEST POP JUMP JUMPDEST PUSH1 0x0 DUP2 SWAP1 POP PUSH2 0x3D46 DUP3 PUSH2 0x3D24 JUMP JUMPDEST SWAP2 SWAP1 POP JUMP JUMPDEST PUSH1 0x0 PUSH2 0x3D56 DUP3 PUSH2 0x3D38 JUMP JUMPDEST SWAP1 POP SWAP2 SWAP1 POP JUMP JUMPDEST PUSH2 0x3D66 DUP2 PUSH2 0x3D4B JUMP JUMPDEST DUP3 MSTORE POP POP JUMP JUMPDEST PUSH1 0x0 DUP2 SWAP1 POP SWAP2 SWAP1 POP JUMP JUMPDEST PUSH2 0x3D7F DUP2 PUSH2 0x3D6C JUMP JUMPDEST DUP3 MSTORE POP POP JUMP JUMPDEST PUSH1 0x0 DUP2 MLOAD SWAP1 POP SWAP2 SWAP1 POP JUMP JUMPDEST PUSH1 0x0 DUP3 DUP3 MSTORE PUSH1 0x20 DUP3 ADD SWAP1 POP SWAP3 SWAP2 POP POP JUMP JUMPDEST PUSH1 0x0 JUMPDEST DUP4 DUP2 LT ISZERO PUSH2 0x3DBF JUMPI DUP1 DUP3 ADD MLOAD DUP2 DUP5 ADD MSTORE PUSH1 0x20 DUP2 ADD SWAP1 POP PUSH2 0x3DA4 JUMP JUMPDEST PUSH1 0x0 DUP5 DUP5 ADD MSTORE POP POP POP POP JUMP JUMPDEST PUSH1 0x0 PUSH1 0x1F NOT PUSH1 0x1F DUP4 ADD AND SWAP1 POP SWAP2 SWAP1 POP JUMP JUMPDEST PUSH1 0x0 PUSH2 0x3DE7 DUP3 PUSH2 0x3D85 JUMP JUMPDEST PUSH2 0x3DF1 DUP2 DUP6 PUSH2 0x3D90 JUMP JUMPDEST SWAP4 POP PUSH2 0x3E01 DUP2 DUP6 PUSH1 0x20 DUP7 ADD PUSH2 0x3DA1 JUMP JUMPDEST PUSH2 0x3E0A DUP2 PUSH2 0x3DCB JUMP JUMPDEST DUP5 ADD SWAP2 POP POP SWAP3 SWAP2 POP POP JUMP JUMPDEST PUSH2 0x3E1E DUP2 PUSH2 0x3C3F JUMP JUMPDEST DUP3 MSTORE POP POP JUMP JUMPDEST PUSH2 0x3E2D DUP2 PUSH2 0x3C01 JUMP JUMPDEST DUP3 MSTORE POP POP JUMP JUMPDEST PUSH1 0x0 PUSH2 0x160 DUP4 ADD PUSH1 0x0 DUP4 ADD MLOAD PUSH2 0x3E4C PUSH1 0x0 DUP7 ADD DUP3 PUSH2 0x3CC5 JUMP JUMPDEST POP PUSH1 0x20 DUP4 ADD MLOAD PUSH2 0x3E5F PUSH1 0x20 DUP7 ADD DUP3 PUSH2 0x3CC5 JUMP JUMPDEST POP PUSH1 0x40 DUP4 ADD MLOAD PUSH2 0x3E72 PUSH1 0x40 DUP7 ADD DUP3 PUSH2 0x3CC5 JUMP JUMPDEST POP PUSH1 0x60 DUP4 ADD MLOAD PUSH2 0x3E85 PUSH1 0x60 DUP7 ADD DUP3 PUSH2 0x3CE6 JUMP JUMPDEST POP PUSH1 0x80 DUP4 ADD MLOAD PUSH2 0x3E98 PUSH1 0x80 DUP7 ADD DUP3 PUSH2 0x3CE6 JUMP JUMPDEST POP PUSH1 0xA0 DUP4 ADD MLOAD PUSH2 0x3EAB PUSH1 0xA0 DUP7 ADD DUP3 PUSH2 0x3D5D JUMP JUMPDEST POP PUSH1 0xC0 DUP4 ADD MLOAD PUSH2 0x3EBE PUSH1 0xC0 DUP7 ADD DUP3 PUSH2 0x3D76 JUMP JUMPDEST POP PUSH1 0xE0 DUP4 ADD MLOAD DUP5 DUP3 SUB PUSH1 0xE0 DUP7 ADD MSTORE PUSH2 0x3ED6 DUP3 DUP3 PUSH2 0x3DDC JUMP JUMPDEST SWAP2 POP POP PUSH2 0x100 DUP4 ADD MLOAD PUSH2 0x3EED PUSH2 0x100 DUP7 ADD DUP3 PUSH2 0x3E15 JUMP JUMPDEST POP PUSH2 0x120 DUP4 ADD MLOAD PUSH2 0x3F02 PUSH2 0x120 DUP7 ADD DUP3 PUSH2 0x3E15 JUMP JUMPDEST POP PUSH2 0x140 DUP4 ADD MLOAD PUSH2 0x3F17 PUSH2 0x140 DUP7 ADD DUP3 PUSH2 0x3E24 JUMP JUMPDEST POP DUP1 SWAP2 POP POP SWAP3 SWAP2 POP POP JUMP JUMPDEST PUSH1 0x0 PUSH1 0x20 DUP3 ADD SWAP1 POP DUP2 DUP2 SUB PUSH1 0x0 DUP4 ADD MSTORE PUSH2 0x3F3C DUP2 DUP5 PUSH2 0x3E33 JUMP JUMPDEST SWAP1 POP SWAP3 SWAP2 POP POP JUMP JUMPDEST PUSH1 0x0 PUSH2 0xFFFF DUP3 AND SWAP1 POP SWAP2 SWAP1 POP JUMP JUMPDEST PUSH2 0x3F5B DUP2 PUSH2 0x3F44 JUMP JUMPDEST DUP2 EQ PUSH2 0x3F66 JUMPI PUSH1 0x0 DUP1 REVERT JUMPDEST POP JUMP JUMPDEST PUSH1 0x0 DUP2 CALLDATALOAD SWAP1 POP PUSH2 0x3F78 DUP2 PUSH2 0x3F52 JUMP JUMPDEST SWAP3 SWAP2 POP POP JUMP JUMPDEST PUSH1 0x0 DUP1 REVERT JUMPDEST PUSH1 0x0 DUP1 REVERT JUMPDEST PUSH1 0x0 DUP1 REVERT JUMPDEST PUSH1 0x0 DUP1 DUP4 PUSH1 0x1F DUP5 ADD SLT PUSH2 0x3FA3 JUMPI PUSH2 0x3FA2 PUSH2 0x3F7E JUMP JUMPDEST JUMPDEST DUP3 CALLDATALOAD SWAP1 POP PUSH8 0xFFFFFFFFFFFFFFFF DUP2 GT ISZERO PUSH2 0x3FC0 JUMPI PUSH2 0x3FBF PUSH2 0x3F83 JUMP JUMPDEST JUMPDEST PUSH1 0x20 DUP4 ADD SWAP2 POP DUP4 PUSH1 0x20 DUP3 MUL DUP4 ADD GT ISZERO PUSH2 0x3FDC JUMPI PUSH2 0x3FDB PUSH2 0x3F88 JUMP JUMPDEST JUMPDEST SWAP3 POP SWAP3 SWAP1 POP JUMP JUMPDEST PUSH1 0x0 DUP1 DUP4 PUSH1 0x1F DUP5 ADD SLT PUSH2 0x3FF9 JUMPI PUSH2 0x3FF8 PUSH2 0x3F7E JUMP JUMPDEST JUMPDEST DUP3 CALLDATALOAD SWAP1 POP PUSH8 0xFFFFFFFFFFFFFFFF DUP2 GT ISZERO PUSH2 0x4016 JUMPI PUSH2 0x4015 PUSH2 0x3F83 JUMP JUMPDEST JUMPDEST PUSH1 0x20 DUP4 ADD SWAP2 POP DUP4 PUSH1 0x20 DUP3 MUL DUP4 ADD GT ISZERO PUSH2 0x4032 JUMPI PUSH2 0x4031 PUSH2 0x3F88 JUMP JUMPDEST JUMPDEST SWAP3 POP SWAP3 SWAP1 POP JUMP JUMPDEST PUSH1 0x0 DUP1 PUSH1 0x0 DUP1 PUSH1 0x0 DUP1 PUSH1 0x0 DUP1 PUSH1 0xC0 DUP10 DUP12 SUB SLT ISZERO PUSH2 0x4059 JUMPI PUSH2 0x4058 PUSH2 0x3B1C JUMP JUMPDEST JUMPDEST PUSH1 0x0 PUSH2 0x4067 DUP12 DUP3 DUP13 ADD PUSH2 0x3C2A JUMP JUMPDEST SWAP9 POP POP PUSH1 0x20 PUSH2 0x4078 DUP12 DUP3 DUP13 ADD PUSH2 0x3C60 JUMP JUMPDEST SWAP8 POP POP PUSH1 0x40 PUSH2 0x4089 DUP12 DUP3 DUP13 ADD PUSH2 0x3F69 JUMP JUMPDEST SWAP7 POP POP PUSH1 0x60 DUP10 ADD CALLDATALOAD PUSH8 0xFFFFFFFFFFFFFFFF DUP2 GT ISZERO PUSH2 0x40AA JUMPI PUSH2 0x40A9 PUSH2 0x3B21 JUMP JUMPDEST JUMPDEST PUSH2 0x40B6 DUP12 DUP3 DUP13 ADD PUSH2 0x3F8D JUMP JUMPDEST SWAP6 POP SWAP6 POP POP PUSH1 0x80 DUP10 ADD CALLDATALOAD PUSH8 0xFFFFFFFFFFFFFFFF DUP2 GT ISZERO PUSH2 0x40D9 JUMPI PUSH2 0x40D8 PUSH2 0x3B21 JUMP JUMPDEST JUMPDEST PUSH2 0x40E5 DUP12 DUP3 DUP13 ADD PUSH2 0x3FE3 JUMP JUMPDEST SWAP4 POP SWAP4 POP POP PUSH1 0xA0 PUSH2 0x40F8 DUP12 DUP3 DUP13 ADD PUSH2 0x3C2A JUMP JUMPDEST SWAP2 POP POP SWAP3 SWAP6 SWAP9 POP SWAP3 SWAP6 SWAP9 SWAP1 SWAP4 SWAP7 POP JUMP JUMPDEST PUSH1 0x0 DUP1 PUSH1 0x0 PUSH1 0x60 DUP5 DUP7 SUB SLT ISZERO PUSH2 0x4121 JUMPI PUSH2 0x4120 PUSH2 0x3B1C JUMP JUMPDEST JUMPDEST PUSH1 0x0 PUSH2 0x412F DUP7 DUP3 DUP8 ADD PUSH2 0x3C2A JUMP JUMPDEST SWAP4 POP POP PUSH1 0x20 PUSH2 0x4140 DUP7 DUP3 DUP8 ADD PUSH2 0x3C2A JUMP JUMPDEST SWAP3 POP POP PUSH1 0x40 PUSH2 0x4151 DUP7 DUP3 DUP8 ADD PUSH2 0x3C60 JUMP JUMPDEST SWAP2 POP POP SWAP3 POP SWAP3 POP SWAP3 JUMP JUMPDEST PUSH2 0x4164 DUP2 PUSH2 0x3CB5 JUMP JUMPDEST DUP3 MSTORE POP POP JUMP JUMPDEST PUSH1 0x0 PUSH1 0x20 DUP3 ADD SWAP1 POP PUSH2 0x417F PUSH1 0x0 DUP4 ADD DUP5 PUSH2 0x415B JUMP JUMPDEST SWAP3 SWAP2 POP POP JUMP JUMPDEST PUSH2 0x418E DUP2 PUSH2 0x3C01 JUMP JUMPDEST DUP3 MSTORE POP POP JUMP JUMPDEST PUSH1 0x0 PUSH1 0x20 DUP3 ADD SWAP1 POP PUSH2 0x41A9 PUSH1 0x0 DUP4 ADD DUP5 PUSH2 0x4185 JUMP JUMPDEST SWAP3 SWAP2 POP POP JUMP JUMPDEST PUSH1 0x0 DUP1 DUP4 PUSH1 0x1F DUP5 ADD SLT PUSH2 0x41C5 JUMPI PUSH2 0x41C4 PUSH2 0x3F7E JUMP JUMPDEST JUMPDEST DUP3 CALLDATALOAD SWAP1 POP PUSH8 0xFFFFFFFFFFFFFFFF DUP2 GT ISZERO PUSH2 0x41E2 JUMPI PUSH2 0x41E1 PUSH2 0x3F83 JUMP JUMPDEST JUMPDEST PUSH1 0x20 DUP4 ADD SWAP2 POP DUP4 PUSH1 0x20 DUP3 MUL DUP4 ADD GT ISZERO PUSH2 0x41FE JUMPI PUSH2 0x41FD PUSH2 0x3F88 JUMP JUMPDEST JUMPDEST SWAP3 POP SWAP3 SWAP1 POP JUMP JUMPDEST PUSH1 0x0 DUP1 DUP4 PUSH1 0x1F DUP5 ADD SLT PUSH2 0x421B JUMPI PUSH2 0x421A PUSH2 0x3F7E JUMP JUMPDEST JUMPDEST DUP3 CALLDATALOAD SWAP1 POP PUSH8 0xFFFFFFFFFFFFFFFF DUP2 GT ISZERO PUSH2 0x4238 JUMPI PUSH2 0x4237 PUSH2 0x3F83 JUMP JUMPDEST JUMPDEST PUSH1 0x20 DUP4 ADD SWAP2 POP DUP4 PUSH1 0x20 DUP3 MUL DUP4 ADD GT ISZERO PUSH2 0x4254 JUMPI PUSH2 0x4253 PUSH2 0x3F88 JUMP JUMPDEST JUMPDEST SWAP3 POP SWAP3 SWAP1 POP JUMP JUMPDEST PUSH1 0x0 DUP1 PUSH1 0x0 DUP1 PUSH1 0x0 DUP1 PUSH1 0x80 DUP8 DUP10 SUB SLT ISZERO PUSH2 0x4278 JUMPI PUSH2 0x4277 PUSH2 0x3B1C JUMP JUMPDEST JUMPDEST PUSH1 0x0 PUSH2 0x4286 DUP10 DUP3 DUP11 ADD PUSH2 0x3C2A JUMP JUMPDEST SWAP7 POP POP PUSH1 0x20 PUSH2 0x4297 DUP10 DUP3 DUP11 ADD PUSH2 0x3C60 JUMP JUMPDEST SWAP6 POP POP PUSH1 0x40 DUP8 ADD CALLDATALOAD PUSH8 0xFFFFFFFFFFFFFFFF DUP2 GT ISZERO PUSH2 0x42B8 JUMPI PUSH2 0x42B7 PUSH2 0x3B21 JUMP JUMPDEST JUMPDEST PUSH2 0x42C4 DUP10 DUP3 DUP11 ADD PUSH2 0x41AF JUMP JUMPDEST SWAP5 POP SWAP5 POP POP PUSH1 0x60 DUP8 ADD CALLDATALOAD PUSH8 0xFFFFFFFFFFFFFFFF DUP2 GT ISZERO PUSH2 0x42E7 JUMPI PUSH2 0x42E6 PUSH2 0x3B21 JUMP JUMPDEST JUMPDEST PUSH2 0x42F3 DUP10 DUP3 DUP11 ADD PUSH2 0x4205 JUMP JUMPDEST SWAP3 POP SWAP3 POP POP SWAP3 SWAP6 POP SWAP3 SWAP6 POP SWAP3 SWAP6 JUMP JUMPDEST PUSH1 0x0 DUP1 REVERT JUMPDEST PUSH1 0x0 PUSH2 0x120 DUP3 DUP5 SUB SLT ISZERO PUSH2 0x431E JUMPI PUSH2 0x431D PUSH2 0x4302 JUMP JUMPDEST JUMPDEST DUP2 SWAP1 POP SWAP3 SWAP2 POP POP JUMP JUMPDEST PUSH1 0x0 DUP1 PUSH1 0x40 DUP4 DUP6 SUB SLT ISZERO PUSH2 0x433E JUMPI PUSH2 0x433D PUSH2 0x3B1C JUMP JUMPDEST JUMPDEST PUSH1 0x0 PUSH2 0x434C DUP6 DUP3 DUP7 ADD PUSH2 0x3C2A JUMP JUMPDEST SWAP3 POP POP PUSH1 0x20 DUP4 ADD CALLDATALOAD PUSH8 0xFFFFFFFFFFFFFFFF DUP2 GT ISZERO PUSH2 0x436D JUMPI PUSH2 0x436C PUSH2 0x3B21 JUMP JUMPDEST JUMPDEST PUSH2 0x4379 DUP6 DUP3 DUP7 ADD PUSH2 0x4307 JUMP JUMPDEST SWAP2 POP POP SWAP3 POP SWAP3 SWAP1 POP JUMP JUMPDEST PUSH2 0x438C DUP2 PUSH2 0x3C3F JUMP JUMPDEST DUP3 MSTORE POP POP JUMP JUMPDEST PUSH1 0x0 PUSH1 0x20 DUP3 ADD SWAP1 POP PUSH2 0x43A7 PUSH1 0x0 DUP4 ADD DUP5 PUSH2 0x4383 JUMP JUMPDEST SWAP3 SWAP2 POP POP JUMP JUMPDEST PUSH1 0x0 DUP1 PUSH1 0x0 PUSH1 0x60 DUP5 DUP7 SUB SLT ISZERO PUSH2 0x43C6 JUMPI PUSH2 0x43C5 PUSH2 0x3B1C JUMP JUMPDEST JUMPDEST PUSH1 0x0 PUSH2 0x43D4 DUP7 DUP3 DUP8 ADD PUSH2 0x3C2A JUMP JUMPDEST SWAP4 POP POP PUSH1 0x20 PUSH2 0x43E5 DUP7 DUP3 DUP8 ADD PUSH2 0x3C60 JUMP JUMPDEST SWAP3 POP POP PUSH1 0x40 DUP5 ADD CALLDATALOAD PUSH8 0xFFFFFFFFFFFFFFFF DUP2 GT ISZERO PUSH2 0x4406 JUMPI PUSH2 0x4405 PUSH2 0x3B21 JUMP JUMPDEST JUMPDEST PUSH2 0x4412 DUP7 DUP3 DUP8 ADD PUSH2 0x4307 JUMP JUMPDEST SWAP2 POP POP SWAP3 POP SWAP3 POP SWAP3 JUMP JUMPDEST PUSH2 0x4425 DUP2 PUSH2 0x3CB5 JUMP JUMPDEST DUP2 EQ PUSH2 0x4430 JUMPI PUSH1 0x0 DUP1 REVERT JUMPDEST POP JUMP JUMPDEST PUSH1 0x0 DUP2 CALLDATALOAD SWAP1 POP PUSH2 0x4442 DUP2 PUSH2 0x441C JUMP JUMPDEST SWAP3 SWAP2 POP POP JUMP JUMPDEST PUSH1 0x0 DUP1 PUSH1 0x0 PUSH1 0x60 DUP5 DUP7 SUB SLT ISZERO PUSH2 0x4461 JUMPI PUSH2 0x4460 PUSH2 0x3B1C JUMP JUMPDEST JUMPDEST PUSH1 0x0 PUSH2 0x446F DUP7 DUP3 DUP8 ADD PUSH2 0x3C2A JUMP JUMPDEST SWAP4 POP POP PUSH1 0x20 PUSH2 0x4480 DUP7 DUP3 DUP8 ADD PUSH2 0x3C60 JUMP JUMPDEST SWAP3 POP POP PUSH1 0x40 PUSH2 0x4491 DUP7 DUP3 DUP8 ADD PUSH2 0x4433 JUMP JUMPDEST SWAP2 POP POP SWAP3 POP SWAP3 POP SWAP3 JUMP JUMPDEST PUSH1 0x0 PUSH1 0x20 DUP3 DUP5 SUB SLT ISZERO PUSH2 0x44B1 JUMPI PUSH2 0x44B0 PUSH2 0x3B1C JUMP JUMPDEST JUMPDEST PUSH1 0x0 PUSH2 0x44BF DUP5 DUP3 DUP6 ADD PUSH2 0x3C2A JUMP JUMPDEST SWAP2 POP POP SWAP3 SWAP2 POP POP JUMP JUMPDEST PUSH1 0x0 DUP3 DUP3 MSTORE PUSH1 0x20 DUP3 ADD SWAP1 POP SWAP3 SWAP2 POP POP JUMP JUMPDEST PUSH1 0x0 PUSH2 0x44E4 DUP3 PUSH2 0x3D85 JUMP JUMPDEST PUSH2 0x44EE DUP2 DUP6 PUSH2 0x44C8 JUMP JUMPDEST SWAP4 POP PUSH2 0x44FE DUP2 DUP6 PUSH1 0x20 DUP7 ADD PUSH2 0x3DA1 JUMP JUMPDEST PUSH2 0x4507 DUP2 PUSH2 0x3DCB JUMP JUMPDEST DUP5 ADD SWAP2 POP POP SWAP3 SWAP2 POP POP JUMP JUMPDEST PUSH1 0x0 PUSH1 0x20 DUP3 ADD SWAP1 POP DUP2 DUP2 SUB PUSH1 0x0 DUP4 ADD MSTORE PUSH2 0x452C DUP2 DUP5 PUSH2 0x44D9 JUMP JUMPDEST SWAP1 POP SWAP3 SWAP2 POP POP JUMP JUMPDEST PUSH1 0x0 DUP1 PUSH1 0x0 DUP1 PUSH1 0x60 DUP6 DUP8 SUB SLT ISZERO PUSH2 0x454E JUMPI PUSH2 0x454D PUSH2 0x3B1C JUMP JUMPDEST JUMPDEST PUSH1 0x0 PUSH2 0x455C DUP8 DUP3 DUP9 ADD PUSH2 0x3C2A JUMP JUMPDEST SWAP5 POP POP PUSH1 0x20 PUSH2 0x456D DUP8 DUP3 DUP9 ADD PUSH2 0x3C60 JUMP JUMPDEST SWAP4 POP POP PUSH1 0x40 DUP6 ADD CALLDATALOAD PUSH8 0xFFFFFFFFFFFFFFFF DUP2 GT ISZERO PUSH2 0x458E JUMPI PUSH2 0x458D PUSH2 0x3B21 JUMP JUMPDEST JUMPDEST PUSH2 0x459A DUP8 DUP3 DUP9 ADD PUSH2 0x3F8D JUMP JUMPDEST SWAP3 POP SWAP3 POP POP SWAP3 SWAP6 SWAP2 SWAP5 POP SWAP3 POP JUMP JUMPDEST PUSH1 0x0 DUP2 MLOAD SWAP1 POP SWAP2 SWAP1 POP JUMP JUMPDEST PUSH1 0x0 DUP3 DUP3 MSTORE PUSH1 0x20 DUP3 ADD SWAP1 POP SWAP3 SWAP2 POP POP JUMP JUMPDEST PUSH1 0x0 DUP2 SWAP1 POP PUSH1 0x20 DUP3 ADD SWAP1 POP SWAP2 SWAP1 POP JUMP JUMPDEST PUSH2 0x45DD DUP2 PUSH2 0x3BAB JUMP JUMPDEST DUP3 MSTORE POP POP JUMP JUMPDEST PUSH1 0x0 PUSH2 0x45EF DUP4 DUP4 PUSH2 0x45D4 JUMP JUMPDEST PUSH1 0x20 DUP4 ADD SWAP1 POP SWAP3 SWAP2 POP POP JUMP JUMPDEST PUSH1 0x0 PUSH1 0x20 DUP3 ADD SWAP1 POP SWAP2 SWAP1 POP JUMP JUMPDEST PUSH1 0x0 PUSH2 0x4613 DUP3 PUSH2 0x45A8 JUMP JUMPDEST PUSH2 0x461D DUP2 DUP6 PUSH2 0x45B3 JUMP JUMPDEST SWAP4 POP PUSH2 0x4628 DUP4 PUSH2 0x45C4 JUMP JUMPDEST DUP1 PUSH1 0x0 JUMPDEST DUP4 DUP2 LT ISZERO PUSH2 0x4659 JUMPI DUP2 MLOAD PUSH2 0x4640 DUP9 DUP3 PUSH2 0x45E3 JUMP JUMPDEST SWAP8 POP PUSH2 0x464B DUP4 PUSH2 0x45FB JUMP JUMPDEST SWAP3 POP POP PUSH1 0x1 DUP2 ADD SWAP1 POP PUSH2 0x462C JUMP JUMPDEST POP DUP6 SWAP4 POP POP POP POP SWAP3 SWAP2 POP POP JUMP JUMPDEST PUSH1 0x0 PUSH1 0x20 DUP3 ADD SWAP1 POP DUP2 DUP2 SUB PUSH1 0x0 DUP4 ADD MSTORE PUSH2 0x4680 DUP2 DUP5 PUSH2 0x4608 JUMP JUMPDEST SWAP1 POP SWAP3 SWAP2 POP POP JUMP JUMPDEST PUSH1 0x0 DUP1 DUP4 PUSH1 0x1F DUP5 ADD SLT PUSH2 0x469E JUMPI PUSH2 0x469D PUSH2 0x3F7E JUMP JUMPDEST JUMPDEST DUP3 CALLDATALOAD SWAP1 POP PUSH8 0xFFFFFFFFFFFFFFFF DUP2 GT ISZERO PUSH2 0x46BB JUMPI PUSH2 0x46BA PUSH2 0x3F83 JUMP JUMPDEST JUMPDEST PUSH1 0x20 DUP4 ADD SWAP2 POP DUP4 PUSH1 0x20 DUP3 MUL DUP4 ADD GT ISZERO PUSH2 0x46D7 JUMPI PUSH2 0x46D6 PUSH2 0x3F88 JUMP JUMPDEST JUMPDEST SWAP3 POP SWAP3 SWAP1 POP JUMP JUMPDEST PUSH1 0x0 DUP1 PUSH1 0x0 DUP1 PUSH1 0x0 DUP1 PUSH1 0xA0 DUP8 DUP10 SUB SLT ISZERO PUSH2 0x46FB JUMPI PUSH2 0x46FA PUSH2 0x3B1C JUMP JUMPDEST JUMPDEST PUSH1 0x0 PUSH2 0x4709 DUP10 DUP3 DUP11 ADD PUSH2 0x3C2A JUMP JUMPDEST SWAP7 POP POP PUSH1 0x20 PUSH2 0x471A DUP10 DUP3 DUP11 ADD PUSH2 0x3C60 JUMP JUMPDEST SWAP6 POP POP PUSH1 0x40 PUSH2 0x472B DUP10 DUP3 DUP11 ADD PUSH2 0x4433 JUMP JUMPDEST SWAP5 POP POP PUSH1 0x60 DUP8 ADD CALLDATALOAD PUSH8 0xFFFFFFFFFFFFFFFF DUP2 GT ISZERO PUSH2 0x474C JUMPI PUSH2 0x474B PUSH2 0x3B21 JUMP JUMPDEST JUMPDEST PUSH2 0x4758 DUP10 DUP3 DUP11 ADD PUSH2 0x4688 JUMP JUMPDEST SWAP4 POP SWAP4 POP POP PUSH1 0x80 PUSH2 0x476B DUP10 DUP3 DUP11 ADD PUSH2 0x3C2A JUMP JUMPDEST SWAP2 POP POP SWAP3 SWAP6 POP SWAP3 SWAP6 POP SWAP3 SWAP6 JUMP JUMPDEST PUSH32 0x436C61696D206E6F7420696E697469616C697A65640000000000000000000000 PUSH1 0x0 DUP3 ADD MSTORE POP JUMP JUMPDEST PUSH1 0x0 PUSH2 0x47AE PUSH1 0x15 DUP4 PUSH2 0x44C8 JUMP JUMPDEST SWAP2 POP PUSH2 0x47B9 DUP3 PUSH2 0x4778 JUMP JUMPDEST PUSH1 0x20 DUP3 ADD SWAP1 POP SWAP2 SWAP1 POP JUMP JUMPDEST PUSH1 0x0 PUSH1 0x20 DUP3 ADD SWAP1 POP DUP2 DUP2 SUB PUSH1 0x0 DUP4 ADD MSTORE PUSH2 0x47DD DUP2 PUSH2 0x47A1 JUMP JUMPDEST SWAP1 POP SWAP2 SWAP1 POP JUMP JUMPDEST PUSH32 0x4E487B7100000000000000000000000000000000000000000000000000000000 PUSH1 0x0 MSTORE PUSH1 0x22 PUSH1 0x4 MSTORE PUSH1 0x24 PUSH1 0x0 REVERT JUMPDEST PUSH1 0x0 PUSH1 0x2 DUP3 DIV SWAP1 POP PUSH1 0x1 DUP3 AND DUP1 PUSH2 0x482B JUMPI PUSH1 0x7F DUP3 AND SWAP2 POP JUMPDEST PUSH1 0x20 DUP3 LT DUP2 SUB PUSH2 0x483E JUMPI PUSH2 0x483D PUSH2 0x47E4 JUMP JUMPDEST JUMPDEST POP SWAP2 SWAP1 POP JUMP JUMPDEST PUSH32 0x4E487B7100000000000000000000000000000000000000000000000000000000 PUSH1 0x0 MSTORE PUSH1 0x11 PUSH1 0x4 MSTORE PUSH1 0x24 PUSH1 0x0 REVERT JUMPDEST PUSH1 0x0 PUSH2 0x487E DUP3 PUSH2 0x3C3F JUMP JUMPDEST SWAP2 POP PUSH2 0x4889 DUP4 PUSH2 0x3C3F JUMP JUMPDEST SWAP3 POP DUP3 DUP3 MUL PUSH2 0x4897 DUP2 PUSH2 0x3C3F JUMP JUMPDEST SWAP2 POP DUP3 DUP3 DIV DUP5 EQ DUP4 ISZERO OR PUSH2 0x48AE JUMPI PUSH2 0x48AD PUSH2 0x4844 JUMP JUMPDEST JUMPDEST POP SWAP3 SWAP2 POP POP JUMP JUMPDEST PUSH32 0x4D75737420706179206D6F72652E000000000000000000000000000000000000 PUSH1 0x0 DUP3 ADD MSTORE POP JUMP JUMPDEST PUSH1 0x0 PUSH2 0x48EB PUSH1 0xE DUP4 PUSH2 0x44C8 JUMP JUMPDEST SWAP2 POP PUSH2 0x48F6 DUP3 PUSH2 0x48B5 JUMP JUMPDEST PUSH1 0x20 DUP3 ADD SWAP1 POP SWAP2 SWAP1 POP JUMP JUMPDEST PUSH1 0x0 PUSH1 0x20 DUP3 ADD SWAP1 POP DUP2 DUP2 SUB PUSH1 0x0 DUP4 ADD MSTORE PUSH2 0x491A DUP2 PUSH2 0x48DE JUMP JUMPDEST SWAP1 POP SWAP2 SWAP1 POP JUMP JUMPDEST PUSH32 0x5472616E73616374696F6E206265666F72652073746172742064617465000000 PUSH1 0x0 DUP3 ADD MSTORE POP JUMP JUMPDEST PUSH1 0x0 PUSH2 0x4957 PUSH1 0x1D DUP4 PUSH2 0x44C8 JUMP JUMPDEST SWAP2 POP PUSH2 0x4962 DUP3 PUSH2 0x4921 JUMP JUMPDEST PUSH1 0x20 DUP3 ADD SWAP1 POP SWAP2 SWAP1 POP JUMP JUMPDEST PUSH1 0x0 PUSH1 0x20 DUP3 ADD SWAP1 POP DUP2 DUP2 SUB PUSH1 0x0 DUP4 ADD MSTORE PUSH2 0x4986 DUP2 PUSH2 0x494A JUMP JUMPDEST SWAP1 POP SWAP2 SWAP1 POP JUMP JUMPDEST PUSH32 0x5472616E73616374696F6E20616674657220656E642064617465000000000000 PUSH1 0x0 DUP3 ADD MSTORE POP JUMP JUMPDEST PUSH1 0x0 PUSH2 0x49C3 PUSH1 0x1A DUP4 PUSH2 0x44C8 JUMP JUMPDEST SWAP2 POP PUSH2 0x49CE DUP3 PUSH2 0x498D JUMP JUMPDEST PUSH1 0x20 DUP3 ADD SWAP1 POP SWAP2 SWAP1 POP JUMP JUMPDEST PUSH1 0x0 PUSH1 0x20 DUP3 ADD SWAP1 POP DUP2 DUP2 SUB PUSH1 0x0 DUP4 ADD MSTORE PUSH2 0x49F2 DUP2 PUSH2 0x49B6 JUMP JUMPDEST SWAP1 POP SWAP2 SWAP1 POP JUMP JUMPDEST PUSH1 0x0 PUSH2 0x4A04 DUP3 PUSH2 0x3CB5 JUMP JUMPDEST SWAP2 POP PUSH2 0x4A0F DUP4 PUSH2 0x3CB5 JUMP JUMPDEST SWAP3 POP DUP3 DUP3 ADD SWAP1 POP PUSH4 0xFFFFFFFF DUP2 GT ISZERO PUSH2 0x4A2B JUMPI PUSH2 0x4A2A PUSH2 0x4844 JUMP JUMPDEST JUMPDEST SWAP3 SWAP2 POP POP JUMP JUMPDEST PUSH32 0x546F6F206D616E792072657175657374656420666F72207468697320636C6169 PUSH1 0x0 DUP3 ADD MSTORE PUSH32 0x6D00000000000000000000000000000000000000000000000000000000000000 PUSH1 0x20 DUP3 ADD MSTORE POP JUMP JUMPDEST PUSH1 0x0 PUSH2 0x4A8D PUSH1 0x21 DUP4 PUSH2 0x44C8 JUMP JUMPDEST SWAP2 POP PUSH2 0x4A98 DUP3 PUSH2 0x4A31 JUMP JUMPDEST PUSH1 0x40 DUP3 ADD SWAP1 POP SWAP2 SWAP1 POP JUMP JUMPDEST PUSH1 0x0 PUSH1 0x20 DUP3 ADD SWAP1 POP DUP2 DUP2 SUB PUSH1 0x0 DUP4 ADD MSTORE PUSH2 0x4ABC DUP2 PUSH2 0x4A80 JUMP JUMPDEST SWAP1 POP SWAP2 SWAP1 POP JUMP JUMPDEST PUSH32 0x496E76616C696420696E70757400000000000000000000000000000000000000 PUSH1 0x0 DUP3 ADD MSTORE POP JUMP JUMPDEST PUSH1 0x0 PUSH2 0x4AF9 PUSH1 0xD DUP4 PUSH2 0x44C8 JUMP JUMPDEST SWAP2 POP PUSH2 0x4B04 DUP3 PUSH2 0x4AC3 JUMP JUMPDEST PUSH1 0x20 DUP3 ADD SWAP1 POP SWAP2 SWAP1 POP JUMP JUMPDEST PUSH1 0x0 PUSH1 0x20 DUP3 ADD SWAP1 POP DUP2 DUP2 SUB PUSH1 0x0 DUP4 ADD MSTORE PUSH2 0x4B28 DUP2 PUSH2 0x4AEC JUMP JUMPDEST SWAP1 POP SWAP2 SWAP1 POP JUMP JUMPDEST PUSH32 0x4E487B7100000000000000000000000000000000000000000000000000000000 PUSH1 0x0 MSTORE PUSH1 0x32 PUSH1 0x4 MSTORE PUSH1 0x24 PUSH1 0x0 REVERT JUMPDEST PUSH1 0x0 PUSH1 0x20 DUP3 DUP5 SUB SLT ISZERO PUSH2 0x4B74 JUMPI PUSH2 0x4B73 PUSH2 0x3B1C JUMP JUMPDEST JUMPDEST PUSH1 0x0 PUSH2 0x4B82 DUP5 DUP3 DUP6 ADD PUSH2 0x4433 JUMP JUMPDEST SWAP2 POP POP SWAP3 SWAP2 POP POP JUMP JUMPDEST PUSH1 0x0 DUP1 REVERT JUMPDEST PUSH1 0x0 DUP1 REVERT JUMPDEST PUSH1 0x0 DUP1 REVERT JUMPDEST PUSH1 0x0 DUP1 DUP4 CALLDATALOAD PUSH1 0x1 PUSH1 0x20 SUB DUP5 CALLDATASIZE SUB SUB DUP2 SLT PUSH2 0x4BB7 JUMPI PUSH2 0x4BB6 PUSH2 0x4B8B JUMP JUMPDEST JUMPDEST DUP1 DUP5 ADD SWAP3 POP DUP3 CALLDATALOAD SWAP2 POP PUSH8 0xFFFFFFFFFFFFFFFF DUP3 GT ISZERO PUSH2 0x4BD9 JUMPI PUSH2 0x4BD8 PUSH2 0x4B90 JUMP JUMPDEST JUMPDEST PUSH1 0x20 DUP4 ADD SWAP3 POP PUSH1 0x20 DUP3 MUL CALLDATASIZE SUB DUP4 SGT ISZERO PUSH2 0x4BF5 JUMPI PUSH2 0x4BF4 PUSH2 0x4B95 JUMP JUMPDEST JUMPDEST POP SWAP3 POP SWAP3 SWAP1 POP JUMP JUMPDEST PUSH1 0x0 PUSH2 0x4C08 DUP3 PUSH2 0x3C3F JUMP JUMPDEST SWAP2 POP PUSH2 0x4C13 DUP4 PUSH2 0x3C3F JUMP JUMPDEST SWAP3 POP DUP3 DUP3 ADD SWAP1 POP DUP1 DUP3 GT ISZERO PUSH2 0x4C2B JUMPI PUSH2 0x4C2A PUSH2 0x4844 JUMP JUMPDEST JUMPDEST SWAP3 SWAP2 POP POP JUMP JUMPDEST PUSH32 0x546F6F206D616E792072657175657374656420666F7220746869732077616C6C PUSH1 0x0 DUP3 ADD MSTORE PUSH32 0x6574000000000000000000000000000000000000000000000000000000000000 PUSH1 0x20 DUP3 ADD MSTORE POP JUMP JUMPDEST PUSH1 0x0 PUSH2 0x4C8D PUSH1 0x22 DUP4 PUSH2 0x44C8 JUMP JUMPDEST SWAP2 POP PUSH2 0x4C98 DUP3 PUSH2 0x4C31 JUMP JUMPDEST PUSH1 0x40 DUP3 ADD SWAP1 POP SWAP2 SWAP1 POP JUMP JUMPDEST PUSH1 0x0 PUSH1 0x20 DUP3 ADD SWAP1 POP DUP2 DUP2 SUB PUSH1 0x0 DUP4 ADD MSTORE PUSH2 0x4CBC DUP2 PUSH2 0x4C80 JUMP JUMPDEST SWAP1 POP SWAP2 SWAP1 POP JUMP JUMPDEST PUSH32 0x4E487B7100000000000000000000000000000000000000000000000000000000 PUSH1 0x0 MSTORE PUSH1 0x41 PUSH1 0x4 MSTORE PUSH1 0x24 PUSH1 0x0 REVERT JUMPDEST PUSH1 0x0 DUP2 MLOAD SWAP1 POP SWAP2 SWAP1 POP JUMP JUMPDEST PUSH1 0x0 DUP3 DUP3 MSTORE PUSH1 0x20 DUP3 ADD SWAP1 POP SWAP3 SWAP2 POP POP JUMP JUMPDEST PUSH1 0x0 DUP2 SWAP1 POP PUSH1 0x20 DUP3 ADD SWAP1 POP SWAP2 SWAP1 POP JUMP JUMPDEST PUSH1 0x0 PUSH2 0x4D2A DUP4 DUP4 PUSH2 0x3E24 JUMP JUMPDEST PUSH1 0x20 DUP4 ADD SWAP1 POP SWAP3 SWAP2 POP POP JUMP JUMPDEST PUSH1 0x0 PUSH1 0x20 DUP3 ADD SWAP1 POP SWAP2 SWAP1 POP JUMP JUMPDEST PUSH1 0x0 PUSH2 0x4D4E DUP3 PUSH2 0x4CF2 JUMP JUMPDEST PUSH2 0x4D58 DUP2 DUP6 PUSH2 0x4CFD JUMP JUMPDEST SWAP4 POP PUSH2 0x4D63 DUP4 PUSH2 0x4D0E JUMP JUMPDEST DUP1 PUSH1 0x0 JUMPDEST DUP4 DUP2 LT ISZERO PUSH2 0x4D94 JUMPI DUP2 MLOAD PUSH2 0x4D7B DUP9 DUP3 PUSH2 0x4D1E JUMP JUMPDEST SWAP8 POP PUSH2 0x4D86 DUP4 PUSH2 0x4D36 JUMP JUMPDEST SWAP3 POP POP PUSH1 0x1 DUP2 ADD SWAP1 POP PUSH2 0x4D67 JUMP JUMPDEST POP DUP6 SWAP4 POP POP POP POP SWAP3 SWAP2 POP POP JUMP JUMPDEST PUSH1 0x0 DUP2 MLOAD SWAP1 POP SWAP2 SWAP1 POP JUMP JUMPDEST PUSH1 0x0 DUP3 DUP3 MSTORE PUSH1 0x20 DUP3 ADD SWAP1 POP SWAP3 SWAP2 POP POP JUMP JUMPDEST PUSH1 0x0 DUP2 SWAP1 POP PUSH1 0x20 DUP3 ADD SWAP1 POP SWAP2 SWAP1 POP JUMP JUMPDEST PUSH1 0x0 PUSH2 0x4DD9 DUP4 DUP4 PUSH2 0x3E15 JUMP JUMPDEST PUSH1 0x20 DUP4 ADD SWAP1 POP SWAP3 SWAP2 POP POP JUMP JUMPDEST PUSH1 0x0 PUSH1 0x20 DUP3 ADD SWAP1 POP SWAP2 SWAP1 POP JUMP JUMPDEST PUSH1 0x0 PUSH2 0x4DFD DUP3 PUSH2 0x4DA1 JUMP JUMPDEST PUSH2 0x4E07 DUP2 DUP6 PUSH2 0x4DAC JUMP JUMPDEST SWAP4 POP PUSH2 0x4E12 DUP4 PUSH2 0x4DBD JUMP JUMPDEST DUP1 PUSH1 0x0 JUMPDEST DUP4 DUP2 LT ISZERO PUSH2 0x4E43 JUMPI DUP2 MLOAD PUSH2 0x4E2A DUP9 DUP3 PUSH2 0x4DCD JUMP JUMPDEST SWAP8 POP PUSH2 0x4E35 DUP4 PUSH2 0x4DE5 JUMP JUMPDEST SWAP3 POP POP PUSH1 0x1 DUP2 ADD SWAP1 POP PUSH2 0x4E16 JUMP JUMPDEST POP DUP6 SWAP4 POP POP POP POP SWAP3 SWAP2 POP POP JUMP JUMPDEST PUSH1 0x0 PUSH1 0x60 DUP3 ADD SWAP1 POP DUP2 DUP2 SUB PUSH1 0x0 DUP4 ADD MSTORE PUSH2 0x4E6A DUP2 DUP7 PUSH2 0x4D43 JUMP JUMPDEST SWAP1 POP DUP2 DUP2 SUB PUSH1 0x20 DUP4 ADD MSTORE PUSH2 0x4E7E DUP2 DUP6 PUSH2 0x4DF2 JUMP JUMPDEST SWAP1 POP DUP2 DUP2 SUB PUSH1 0x40 DUP4 ADD MSTORE PUSH2 0x4E92 DUP2 DUP5 PUSH2 0x4DF2 JUMP JUMPDEST SWAP1 POP SWAP5 SWAP4 POP POP POP POP JUMP JUMPDEST PUSH2 0x4EA5 DUP2 PUSH2 0x3F44 JUMP JUMPDEST DUP3 MSTORE POP POP JUMP JUMPDEST PUSH1 0x0 PUSH1 0x20 DUP3 ADD SWAP1 POP PUSH2 0x4EC0 PUSH1 0x0 DUP4 ADD DUP5 PUSH2 0x4E9C JUMP JUMPDEST SWAP3 SWAP2 POP POP JUMP JUMPDEST PUSH32 0x43616E206F6E6C7920726574726965766520666F72206E6F6E2D6D65726B6C65 PUSH1 0x0 DUP3 ADD MSTORE PUSH32 0x20636C61696D7320776974682077616C6C65744D617800000000000000000000 PUSH1 0x20 DUP3 ADD MSTORE POP JUMP JUMPDEST PUSH1 0x0 PUSH2 0x4F22 PUSH1 0x36 DUP4 PUSH2 0x44C8 JUMP JUMPDEST SWAP2 POP PUSH2 0x4F2D DUP3 PUSH2 0x4EC6 JUMP JUMPDEST PUSH1 0x40 DUP3 ADD SWAP1 POP SWAP2 SWAP1 POP JUMP JUMPDEST PUSH1 0x0 PUSH1 0x20 DUP3 ADD SWAP1 POP DUP2 DUP2 SUB PUSH1 0x0 DUP4 ADD MSTORE PUSH2 0x4F51 DUP2 PUSH2 0x4F15 JUMP JUMPDEST SWAP1 POP SWAP2 SWAP1 POP JUMP JUMPDEST PUSH2 0x4F61 DUP2 PUSH2 0x3BAB JUMP JUMPDEST DUP2 EQ PUSH2 0x4F6C JUMPI PUSH1 0x0 DUP1 REVERT JUMPDEST POP JUMP JUMPDEST PUSH1 0x0 DUP2 MLOAD SWAP1 POP PUSH2 0x4F7E DUP2 PUSH2 0x4F58 JUMP JUMPDEST SWAP3 SWAP2 POP POP JUMP JUMPDEST PUSH1 0x0 PUSH1 0x20 DUP3 DUP5 SUB SLT ISZERO PUSH2 0x4F9A JUMPI PUSH2 0x4F99 PUSH2 0x3B1C JUMP JUMPDEST JUMPDEST PUSH1 0x0 PUSH2 0x4FA8 DUP5 DUP3 DUP6 ADD PUSH2 0x4F6F JUMP JUMPDEST SWAP2 POP POP SWAP3 SWAP2 POP POP JUMP JUMPDEST PUSH32 0x57616C6C6574206973206E6F7420616E2061646D696E6973747261746F722066 PUSH1 0x0 DUP3 ADD MSTORE PUSH32 0x6F7220636F6E7472616374000000000000000000000000000000000000000000 PUSH1 0x20 DUP3 ADD MSTORE POP JUMP JUMPDEST PUSH1 0x0 PUSH2 0x500D PUSH1 0x2B DUP4 PUSH2 0x44C8 JUMP JUMPDEST SWAP2 POP PUSH2 0x5018 DUP3 PUSH2 0x4FB1 JUMP JUMPDEST PUSH1 0x40 DUP3 ADD SWAP1 POP SWAP2 SWAP1 POP JUMP JUMPDEST PUSH1 0x0 PUSH1 0x20 DUP3 ADD SWAP1 POP DUP2 DUP2 SUB PUSH1 0x0 DUP4 ADD MSTORE PUSH2 0x503C DUP2 PUSH2 0x5000 JUMP JUMPDEST SWAP1 POP SWAP2 SWAP1 POP JUMP JUMPDEST PUSH32 0x556E657175616C206E756D626572206F6620726563697069656E747320616E64 PUSH1 0x0 DUP3 ADD MSTORE PUSH32 0x20616D6F756E74732070726F7669646564000000000000000000000000000000 PUSH1 0x20 DUP3 ADD MSTORE POP JUMP JUMPDEST PUSH1 0x0 PUSH2 0x509F PUSH1 0x31 DUP4 PUSH2 0x44C8 JUMP JUMPDEST SWAP2 POP PUSH2 0x50AA DUP3 PUSH2 0x5043 JUMP JUMPDEST PUSH1 0x40 DUP3 ADD SWAP1 POP SWAP2 SWAP1 POP JUMP JUMPDEST PUSH1 0x0 PUSH1 0x20 DUP3 ADD SWAP1 POP DUP2 DUP2 SUB PUSH1 0x0 DUP4 ADD MSTORE PUSH2 0x50CE DUP2 PUSH2 0x5092 JUMP JUMPDEST SWAP1 POP SWAP2 SWAP1 POP JUMP JUMPDEST PUSH1 0x0 PUSH1 0x20 DUP3 DUP5 SUB SLT ISZERO PUSH2 0x50EB JUMPI PUSH2 0x50EA PUSH2 0x3B1C JUMP JUMPDEST JUMPDEST PUSH1 0x0 PUSH2 0x50F9 DUP5 DUP3 DUP6 ADD PUSH2 0x3F69 JUMP JUMPDEST SWAP2 POP POP SWAP3 SWAP2 POP POP JUMP JUMPDEST PUSH1 0x4 DUP2 LT PUSH2 0x510F JUMPI PUSH1 0x0 DUP1 REVERT JUMPDEST POP JUMP JUMPDEST PUSH1 0x0 DUP2 CALLDATALOAD SWAP1 POP PUSH2 0x5121 DUP2 PUSH2 0x5102 JUMP JUMPDEST SWAP3 SWAP2 POP POP JUMP JUMPDEST PUSH1 0x0 PUSH1 0x20 DUP3 DUP5 SUB SLT ISZERO PUSH2 0x513D JUMPI PUSH2 0x513C PUSH2 0x3B1C JUMP JUMPDEST JUMPDEST PUSH1 0x0 PUSH2 0x514B DUP5 DUP3 DUP6 ADD PUSH2 0x5112 JUMP JUMPDEST SWAP2 POP POP SWAP3 SWAP2 POP POP JUMP JUMPDEST PUSH32 0x43616E6E6F7420696E697469616C697A65207769746820696E76616C69642073 PUSH1 0x0 DUP3 ADD MSTORE PUSH32 0x746F726167652070726F746F636F6C0000000000000000000000000000000000 PUSH1 0x20 DUP3 ADD MSTORE POP JUMP JUMPDEST PUSH1 0x0 PUSH2 0x51B0 PUSH1 0x2F DUP4 PUSH2 0x44C8 JUMP JUMPDEST SWAP2 POP PUSH2 0x51BB DUP3 PUSH2 0x5154 JUMP JUMPDEST PUSH1 0x40 DUP3 ADD SWAP1 POP SWAP2 SWAP1 POP JUMP JUMPDEST PUSH1 0x0 PUSH1 0x20 DUP3 ADD SWAP1 POP DUP2 DUP2 SUB PUSH1 0x0 DUP4 ADD MSTORE PUSH2 0x51DF DUP2 PUSH2 0x51A3 JUMP JUMPDEST SWAP1 POP SWAP2 SWAP1 POP JUMP JUMPDEST PUSH2 0x51EF DUP2 PUSH2 0x3CD4 JUMP JUMPDEST DUP2 EQ PUSH2 0x51FA JUMPI PUSH1 0x0 DUP1 REVERT JUMPDEST POP JUMP JUMPDEST PUSH1 0x0 DUP2 CALLDATALOAD SWAP1 POP PUSH2 0x520C DUP2 PUSH2 0x51E6 JUMP JUMPDEST SWAP3 SWAP2 POP POP JUMP JUMPDEST PUSH1 0x0 PUSH1 0x20 DUP3 DUP5 SUB SLT ISZERO PUSH2 0x5228 JUMPI PUSH2 0x5227 PUSH2 0x3B1C JUMP JUMPDEST JUMPDEST PUSH1 0x0 PUSH2 0x5236 DUP5 DUP3 DUP6 ADD PUSH2 0x51FD JUMP JUMPDEST SWAP2 POP POP SWAP3 SWAP2 POP POP JUMP JUMPDEST PUSH32 0x43616E6E6F742068617665207374617274446174652067726561746572207468 PUSH1 0x0 DUP3 ADD MSTORE PUSH32 0x616E206F7220657175616C20746F20656E644461746500000000000000000000 PUSH1 0x20 DUP3 ADD MSTORE POP JUMP JUMPDEST PUSH1 0x0 PUSH2 0x529B PUSH1 0x36 DUP4 PUSH2 0x44C8 JUMP JUMPDEST SWAP2 POP PUSH2 0x52A6 DUP3 PUSH2 0x523F JUMP JUMPDEST PUSH1 0x40 DUP3 ADD SWAP1 POP SWAP2 SWAP1 POP JUMP JUMPDEST PUSH1 0x0 PUSH1 0x20 DUP3 ADD SWAP1 POP DUP2 DUP2 SUB PUSH1 0x0 DUP4 ADD MSTORE PUSH2 0x52CA DUP2 PUSH2 0x528E JUMP JUMPDEST SWAP1 POP SWAP2 SWAP1 POP JUMP JUMPDEST PUSH32 0x43616E6E6F742070726F7669646520626F7468206D696E747350657257616C6C PUSH1 0x0 DUP3 ADD MSTORE PUSH32 0x657420616E64206D65726B6C65526F6F74000000000000000000000000000000 PUSH1 0x20 DUP3 ADD MSTORE POP JUMP JUMPDEST PUSH1 0x0 PUSH2 0x532D PUSH1 0x31 DUP4 PUSH2 0x44C8 JUMP JUMPDEST SWAP2 POP PUSH2 0x5338 DUP3 PUSH2 0x52D1 JUMP JUMPDEST PUSH1 0x40 DUP3 ADD SWAP1 POP SWAP2 SWAP1 POP JUMP JUMPDEST PUSH1 0x0 PUSH1 0x20 DUP3 ADD SWAP1 POP DUP2 DUP2 SUB PUSH1 0x0 DUP4 ADD MSTORE PUSH2 0x535C DUP2 PUSH2 0x5320 JUMP JUMPDEST SWAP1 POP SWAP2 SWAP1 POP JUMP JUMPDEST PUSH1 0x0 PUSH28 0xFFFFFFFFFFFFFFFFFFFFFFFFFFFFFFFFFFFFFFFFFFFFFFFFFFFFFFFF DUP3 AND SWAP1 POP SWAP2 SWAP1 POP JUMP JUMPDEST PUSH1 0x0 PUSH2 0x5396 DUP3 PUSH2 0x5363 JUMP JUMPDEST SWAP2 POP PUSH28 0xFFFFFFFFFFFFFFFFFFFFFFFFFFFFFFFFFFFFFFFFFFFFFFFFFFFFFFFF DUP3 SUB PUSH2 0x53C4 JUMPI PUSH2 0x53C3 PUSH2 0x4844 JUMP JUMPDEST JUMPDEST PUSH1 0x1 DUP3 ADD SWAP1 POP SWAP2 SWAP1 POP JUMP JUMPDEST PUSH1 0x0 DUP2 MLOAD SWAP1 POP SWAP2 SWAP1 POP JUMP JUMPDEST PUSH1 0x0 DUP3 DUP3 MSTORE PUSH1 0x20 DUP3 ADD SWAP1 POP SWAP3 SWAP2 POP POP JUMP JUMPDEST PUSH1 0x0 DUP2 SWAP1 POP PUSH1 0x20 DUP3 ADD SWAP1 POP SWAP2 SWAP1 POP JUMP JUMPDEST PUSH1 0x0 PUSH2 0x5407 DUP4 DUP4 PUSH2 0x3DDC JUMP JUMPDEST SWAP1 POP SWAP3 SWAP2 POP POP JUMP JUMPDEST PUSH1 0x0 PUSH1 0x20 DUP3 ADD SWAP1 POP SWAP2 SWAP1 POP JUMP JUMPDEST PUSH1 0x0 PUSH2 0x5427 DUP3 PUSH2 0x53CF JUMP JUMPDEST PUSH2 0x5431 DUP2 DUP6 PUSH2 0x53DA JUMP JUMPDEST SWAP4 POP DUP4 PUSH1 0x20 DUP3 MUL DUP6 ADD PUSH2 0x5443 DUP6 PUSH2 0x53EB JUMP JUMPDEST DUP1 PUSH1 0x0 JUMPDEST DUP6 DUP2 LT ISZERO PUSH2 0x547F JUMPI DUP5 DUP5 SUB DUP10 MSTORE DUP2 MLOAD PUSH2 0x5460 DUP6 DUP3 PUSH2 0x53FB JUMP JUMPDEST SWAP5 POP PUSH2 0x546B DUP4 PUSH2 0x540F JUMP JUMPDEST SWAP3 POP PUSH1 0x20 DUP11 ADD SWAP10 POP POP PUSH1 0x1 DUP2 ADD SWAP1 POP PUSH2 0x5447 JUMP JUMPDEST POP DUP3 SWAP8 POP DUP8 SWAP6 POP POP POP POP POP POP SWAP3 SWAP2 POP POP JUMP JUMPDEST PUSH1 0x0 PUSH1 0x60 DUP3 ADD SWAP1 POP DUP2 DUP2 SUB PUSH1 0x0 DUP4 ADD MSTORE PUSH2 0x54AB DUP2 DUP7 PUSH2 0x4D43 JUMP JUMPDEST SWAP1 POP DUP2 DUP2 SUB PUSH1 0x20 DUP4 ADD MSTORE PUSH2 0x54BF DUP2 DUP6 PUSH2 0x4DF2 JUMP JUMPDEST SWAP1 POP DUP2 DUP2 SUB PUSH1 0x40 DUP4 ADD MSTORE PUSH2 0x54D3 DUP2 DUP5 PUSH2 0x541C JUMP JUMPDEST SWAP1 POP SWAP5 SWAP4 POP POP POP POP JUMP JUMPDEST PUSH2 0x54E6 DUP3 PUSH2 0x3DCB JUMP JUMPDEST DUP2 ADD DUP2 DUP2 LT PUSH8 0xFFFFFFFFFFFFFFFF DUP3 GT OR ISZERO PUSH2 0x5505 JUMPI PUSH2 0x5504 PUSH2 0x4CC3 JUMP JUMPDEST JUMPDEST DUP1 PUSH1 0x40 MSTORE POP POP POP JUMP JUMPDEST PUSH1 0x0 PUSH2 0x5518 PUSH2 0x3B12 JUMP JUMPDEST SWAP1 POP PUSH2 0x5524 DUP3 DUP3 PUSH2 0x54DD JUMP JUMPDEST SWAP2 SWAP1 POP JUMP JUMPDEST PUSH1 0x0 PUSH8 0xFFFFFFFFFFFFFFFF DUP3 GT ISZERO PUSH2 0x5544 JUMPI PUSH2 0x5543 PUSH2 0x4CC3 JUMP JUMPDEST JUMPDEST PUSH1 0x20 DUP3 MUL SWAP1 POP PUSH1 0x20 DUP2 ADD SWAP1 POP SWAP2 SWAP1 POP JUMP JUMPDEST PUSH1 0x0 DUP2 MLOAD SWAP1 POP PUSH2 0x5564 DUP2 PUSH2 0x3C49 JUMP JUMPDEST SWAP3 SWAP2 POP POP JUMP JUMPDEST PUSH1 0x0 PUSH2 0x557D PUSH2 0x5578 DUP5 PUSH2 0x5529 JUMP JUMPDEST PUSH2 0x550E JUMP JUMPDEST SWAP1 POP DUP1 DUP4 DUP3 MSTORE PUSH1 0x20 DUP3 ADD SWAP1 POP PUSH1 0x20 DUP5 MUL DUP4 ADD DUP6 DUP2 GT ISZERO PUSH2 0x55A0 JUMPI PUSH2 0x559F PUSH2 0x3F88 JUMP JUMPDEST JUMPDEST DUP4 JUMPDEST DUP2 DUP2 LT ISZERO PUSH2 0x55C9 JUMPI DUP1 PUSH2 0x55B5 DUP9 DUP3 PUSH2 0x5555 JUMP JUMPDEST DUP5 MSTORE PUSH1 0x20 DUP5 ADD SWAP4 POP POP PUSH1 0x20 DUP2 ADD SWAP1 POP PUSH2 0x55A2 JUMP JUMPDEST POP POP POP SWAP4 SWAP3 POP POP POP JUMP JUMPDEST PUSH1 0x0 DUP3 PUSH1 0x1F DUP4 ADD SLT PUSH2 0x55E8 JUMPI PUSH2 0x55E7 PUSH2 0x3F7E JUMP JUMPDEST JUMPDEST DUP2 MLOAD PUSH2 0x55F8 DUP5 DUP3 PUSH1 0x20 DUP7 ADD PUSH2 0x556A JUMP JUMPDEST SWAP2 POP POP SWAP3 SWAP2 POP POP JUMP JUMPDEST PUSH1 0x0 PUSH1 0x20 DUP3 DUP5 SUB SLT ISZERO PUSH2 0x5617 JUMPI PUSH2 0x5616 PUSH2 0x3B1C JUMP JUMPDEST JUMPDEST PUSH1 0x0 DUP3 ADD MLOAD PUSH8 0xFFFFFFFFFFFFFFFF DUP2 GT ISZERO PUSH2 0x5635 JUMPI PUSH2 0x5634 PUSH2 0x3B21 JUMP JUMPDEST JUMPDEST PUSH2 0x5641 DUP5 DUP3 DUP6 ADD PUSH2 0x55D3 JUMP JUMPDEST SWAP2 POP POP SWAP3 SWAP2 POP POP JUMP JUMPDEST PUSH1 0x0 DUP1 DUP4 CALLDATALOAD PUSH1 0x1 PUSH1 0x20 SUB DUP5 CALLDATASIZE SUB SUB DUP2 SLT PUSH2 0x5667 JUMPI PUSH2 0x5666 PUSH2 0x4B8B JUMP JUMPDEST JUMPDEST DUP1 DUP5 ADD SWAP3 POP DUP3 CALLDATALOAD SWAP2 POP PUSH8 0xFFFFFFFFFFFFFFFF DUP3 GT ISZERO PUSH2 0x5689 JUMPI PUSH2 0x5688 PUSH2 0x4B90 JUMP JUMPDEST JUMPDEST PUSH1 0x20 DUP4 ADD SWAP3 POP PUSH1 0x1 DUP3 MUL CALLDATASIZE SUB DUP4 SGT ISZERO PUSH2 0x56A5 JUMPI PUSH2 0x56A4 PUSH2 0x4B95 JUMP JUMPDEST JUMPDEST POP SWAP3 POP SWAP3 SWAP1 POP JUMP JUMPDEST PUSH1 0x0 DUP2 SWAP1 POP DUP2 PUSH1 0x0 MSTORE PUSH1 0x20 PUSH1 0x0 KECCAK256 SWAP1 POP SWAP2 SWAP1 POP JUMP JUMPDEST PUSH1 0x0 PUSH1 0x20 PUSH1 0x1F DUP4 ADD DIV SWAP1 POP SWAP2 SWAP1 POP JUMP JUMPDEST PUSH1 0x0 DUP3 DUP3 SHL SWAP1 POP SWAP3 SWAP2 POP POP JUMP JUMPDEST PUSH1 0x0 PUSH1 0x8 DUP4 MUL PUSH2 0x570F PUSH32 0xFFFFFFFFFFFFFFFFFFFFFFFFFFFFFFFFFFFFFFFFFFFFFFFFFFFFFFFFFFFFFFFF DUP3 PUSH2 0x56D2 JUMP JUMPDEST PUSH2 0x5719 DUP7 DUP4 PUSH2 0x56D2 JUMP JUMPDEST SWAP6 POP DUP1 NOT DUP5 AND SWAP4 POP DUP1 DUP7 AND DUP5 OR SWAP3 POP POP POP SWAP4 SWAP3 POP POP POP JUMP JUMPDEST PUSH1 0x0 DUP2 SWAP1 POP SWAP2 SWAP1 POP JUMP JUMPDEST PUSH1 0x0 PUSH2 0x5756 PUSH2 0x5751 PUSH2 0x574C DUP5 PUSH2 0x3C3F JUMP JUMPDEST PUSH2 0x5731 JUMP JUMPDEST PUSH2 0x3C3F JUMP JUMPDEST SWAP1 POP SWAP2 SWAP1 POP JUMP JUMPDEST PUSH1 0x0 DUP2 SWAP1 POP SWAP2 SWAP1 POP JUMP JUMPDEST PUSH2 0x5770 DUP4 PUSH2 0x573B JUMP JUMPDEST PUSH2 0x5784 PUSH2 0x577C DUP3 PUSH2 0x575D JUMP JUMPDEST DUP5 DUP5 SLOAD PUSH2 0x56DF JUMP JUMPDEST DUP3 SSTORE POP POP POP POP JUMP JUMPDEST PUSH1 0x0 SWAP1 JUMP JUMPDEST PUSH2 0x5799 PUSH2 0x578C JUMP JUMPDEST PUSH2 0x57A4 DUP2 DUP5 DUP5 PUSH2 0x5767 JUMP JUMPDEST POP POP POP JUMP JUMPDEST JUMPDEST DUP2 DUP2 LT ISZERO PUSH2 0x57C8 JUMPI PUSH2 0x57BD PUSH1 0x0 DUP3 PUSH2 0x5791 JUMP JUMPDEST PUSH1 0x1 DUP2 ADD SWAP1 POP PUSH2 0x57AA JUMP JUMPDEST POP POP JUMP JUMPDEST PUSH1 0x1F DUP3 GT ISZERO PUSH2 0x580D JUMPI PUSH2 0x57DE DUP2 PUSH2 0x56AD JUMP JUMPDEST PUSH2 0x57E7 DUP5 PUSH2 0x56C2 JUMP JUMPDEST DUP2 ADD PUSH1 0x20 DUP6 LT ISZERO PUSH2 0x57F6 JUMPI DUP2 SWAP1 POP JUMPDEST PUSH2 0x580A PUSH2 0x5802 DUP6 PUSH2 0x56C2 JUMP JUMPDEST DUP4 ADD DUP3 PUSH2 0x57A9 JUMP JUMPDEST POP POP JUMPDEST POP POP POP JUMP JUMPDEST PUSH1 0x0 DUP3 DUP3 SHR SWAP1 POP SWAP3 SWAP2 POP POP JUMP JUMPDEST PUSH1 0x0 PUSH2 0x5830 PUSH1 0x0 NOT DUP5 PUSH1 0x8 MUL PUSH2 0x5812 JUMP JUMPDEST NOT DUP1 DUP4 AND SWAP2 POP POP SWAP3 SWAP2 POP POP JUMP JUMPDEST PUSH1 0x0 PUSH2 0x5849 DUP4 DUP4 PUSH2 0x581F JUMP JUMPDEST SWAP2 POP DUP3 PUSH1 0x2 MUL DUP3 OR SWAP1 POP SWAP3 SWAP2 POP POP JUMP JUMPDEST PUSH2 0x5862 DUP3 PUSH2 0x3D85 JUMP JUMPDEST PUSH8 0xFFFFFFFFFFFFFFFF DUP2 GT ISZERO PUSH2 0x587B JUMPI PUSH2 0x587A PUSH2 0x4CC3 JUMP JUMPDEST JUMPDEST PUSH2 0x5885 DUP3 SLOAD PUSH2 0x4813 JUMP JUMPDEST PUSH2 0x5890 DUP3 DUP3 DUP6 PUSH2 0x57CC JUMP JUMPDEST PUSH1 0x0 PUSH1 0x20 SWAP1 POP PUSH1 0x1F DUP4 GT PUSH1 0x1 DUP2 EQ PUSH2 0x58C3 JUMPI PUSH1 0x0 DUP5 ISZERO PUSH2 0x58B1 JUMPI DUP3 DUP8 ADD MLOAD SWAP1 POP JUMPDEST PUSH2 0x58BB DUP6 DUP3 PUSH2 0x583D JUMP JUMPDEST DUP7 SSTORE POP PUSH2 0x5923 JUMP JUMPDEST PUSH1 0x1F NOT DUP5 AND PUSH2 0x58D1 DUP7 PUSH2 0x56AD JUMP JUMPDEST PUSH1 0x0 JUMPDEST DUP3 DUP2 LT ISZERO PUSH2 0x58F9 JUMPI DUP5 DUP10 ADD MLOAD DUP3 SSTORE PUSH1 0x1 DUP3 ADD SWAP2 POP PUSH1 0x20 DUP6 ADD SWAP5 POP PUSH1 0x20 DUP2 ADD SWAP1 POP PUSH2 0x58D4 JUMP JUMPDEST DUP7 DUP4 LT ISZERO PUSH2 0x5916 JUMPI DUP5 DUP10 ADD MLOAD PUSH2 0x5912 PUSH1 0x1F DUP10 AND DUP3 PUSH2 0x581F JUMP JUMPDEST DUP4 SSTORE POP JUMPDEST PUSH1 0x1 PUSH1 0x2 DUP9 MUL ADD DUP9 SSTORE POP POP POP JUMPDEST POP POP POP POP POP POP JUMP JUMPDEST PUSH32 0x43616E6E6F742073657420696E76616C69642073746F726167652070726F746F PUSH1 0x0 DUP3 ADD MSTORE PUSH32 0x636F6C0000000000000000000000000000000000000000000000000000000000 PUSH1 0x20 DUP3 ADD MSTORE POP JUMP JUMPDEST PUSH1 0x0 PUSH2 0x5987 PUSH1 0x23 DUP4 PUSH2 0x44C8 JUMP JUMPDEST SWAP2 POP PUSH2 0x5992 DUP3 PUSH2 0x592B JUMP JUMPDEST PUSH1 0x40 DUP3 ADD SWAP1 POP SWAP2 SWAP1 POP JUMP JUMPDEST PUSH1 0x0 PUSH1 0x20 DUP3 ADD SWAP1 POP DUP2 DUP2 SUB PUSH1 0x0 DUP4 ADD MSTORE PUSH2 0x59B6 DUP2 PUSH2 0x597A JUMP JUMPDEST SWAP1 POP SWAP2 SWAP1 POP JUMP JUMPDEST PUSH32 0x43616E206F6E6C7920636865636B206D65726B6C6520636C61696D7300000000 PUSH1 0x0 DUP3 ADD MSTORE POP JUMP JUMPDEST PUSH1 0x0 PUSH2 0x59F3 PUSH1 0x1C DUP4 PUSH2 0x44C8 JUMP JUMPDEST SWAP2 POP PUSH2 0x59FE DUP3 PUSH2 0x59BD JUMP JUMPDEST PUSH1 0x20 DUP3 ADD SWAP1 POP SWAP2 SWAP1 POP JUMP JUMPDEST PUSH1 0x0 PUSH1 0x20 DUP3 ADD SWAP1 POP DUP2 DUP2 SUB PUSH1 0x0 DUP4 ADD MSTORE PUSH2 0x5A22 DUP2 PUSH2 0x59E6 JUMP JUMPDEST SWAP1 POP SWAP2 SWAP1 POP JUMP JUMPDEST PUSH32 0x546F6B656E20646F6573206E6F74206578697374000000000000000000000000 PUSH1 0x0 DUP3 ADD MSTORE POP JUMP JUMPDEST PUSH1 0x0 PUSH2 0x5A5F PUSH1 0x14 DUP4 PUSH2 0x44C8 JUMP JUMPDEST SWAP2 POP PUSH2 0x5A6A DUP3 PUSH2 0x5A29 JUMP JUMPDEST PUSH1 0x20 DUP3 ADD SWAP1 POP SWAP2 SWAP1 POP JUMP JUMPDEST PUSH1 0x0 PUSH1 0x20 DUP3 ADD SWAP1 POP DUP2 DUP2 SUB PUSH1 0x0 DUP4 ADD MSTORE PUSH2 0x5A8E DUP2 PUSH2 0x5A52 JUMP JUMPDEST SWAP1 POP SWAP2 SWAP1 POP JUMP JUMPDEST PUSH1 0x0 DUP2 SWAP1 POP SWAP3 SWAP2 POP POP JUMP JUMPDEST PUSH1 0x0 PUSH2 0x5AAB DUP3 PUSH2 0x3D85 JUMP JUMPDEST PUSH2 0x5AB5 DUP2 DUP6 PUSH2 0x5A95 JUMP JUMPDEST SWAP4 POP PUSH2 0x5AC5 DUP2 DUP6 PUSH1 0x20 DUP7 ADD PUSH2 0x3DA1 JUMP JUMPDEST DUP1 DUP5 ADD SWAP2 POP POP SWAP3 SWAP2 POP POP JUMP JUMPDEST PUSH1 0x0 PUSH2 0x5ADD DUP3 DUP6 PUSH2 0x5AA0 JUMP JUMPDEST SWAP2 POP PUSH2 0x5AE9 DUP3 DUP5 PUSH2 0x5AA0 JUMP JUMPDEST SWAP2 POP DUP2 SWAP1 POP SWAP4 SWAP3 POP POP POP JUMP JUMPDEST PUSH1 0x0 PUSH2 0x5B00 DUP3 PUSH2 0x3C3F JUMP JUMPDEST SWAP2 POP PUSH32 0xFFFFFFFFFFFFFFFFFFFFFFFFFFFFFFFFFFFFFFFFFFFFFFFFFFFFFFFFFFFFFFFF DUP3 SUB PUSH2 0x5B32 JUMPI PUSH2 0x5B31 PUSH2 0x4844 JUMP JUMPDEST JUMPDEST PUSH1 0x1 DUP3 ADD SWAP1 POP SWAP2 SWAP1 POP JUMP JUMPDEST PUSH32 0x4D6178696D756D20746F6B656E7320616C7265616479206D696E74656420666F PUSH1 0x0 DUP3 ADD MSTORE PUSH32 0x72207468697320636C61696D0000000000000000000000000000000000000000 PUSH1 0x20 DUP3 ADD MSTORE POP JUMP JUMPDEST PUSH1 0x0 PUSH2 0x5B99 PUSH1 0x2C DUP4 PUSH2 0x44C8 JUMP JUMPDEST SWAP2 POP PUSH2 0x5BA4 DUP3 PUSH2 0x5B3D JUMP JUMPDEST PUSH1 0x40 DUP3 ADD SWAP1 POP SWAP2 SWAP1 POP JUMP JUMPDEST PUSH1 0x0 PUSH1 0x20 DUP3 ADD SWAP1 POP DUP2 DUP2 SUB PUSH1 0x0 DUP4 ADD MSTORE PUSH2 0x5BC8 DUP2 PUSH2 0x5B8C JUMP JUMPDEST SWAP1 POP SWAP2 SWAP1 POP JUMP JUMPDEST PUSH32 0x4D6178696D756D20746F6B656E7320616C7265616479206D696E74656420666F PUSH1 0x0 DUP3 ADD MSTORE PUSH32 0x7220746869732077616C6C657400000000000000000000000000000000000000 PUSH1 0x20 DUP3 ADD MSTORE POP JUMP JUMPDEST PUSH1 0x0 PUSH2 0x5C2B PUSH1 0x2D DUP4 PUSH2 0x44C8 JUMP JUMPDEST SWAP2 POP PUSH2 0x5C36 DUP3 PUSH2 0x5BCF JUMP JUMPDEST PUSH1 0x40 DUP3 ADD SWAP1 POP SWAP2 SWAP1 POP JUMP JUMPDEST PUSH1 0x0 PUSH1 0x20 DUP3 ADD SWAP1 POP DUP2 DUP2 SUB PUSH1 0x0 DUP4 ADD MSTORE PUSH2 0x5C5A DUP2 PUSH2 0x5C1E JUMP JUMPDEST SWAP1 POP SWAP2 SWAP1 POP JUMP JUMPDEST PUSH1 0x0 DUP2 PUSH1 0x60 SHL SWAP1 POP SWAP2 SWAP1 POP JUMP JUMPDEST PUSH1 0x0 PUSH2 0x5C79 DUP3 PUSH2 0x5C61 JUMP JUMPDEST SWAP1 POP SWAP2 SWAP1 POP JUMP JUMPDEST PUSH1 0x0 PUSH2 0x5C8B DUP3 PUSH2 0x5C6E JUMP JUMPDEST SWAP1 POP SWAP2 SWAP1 POP JUMP JUMPDEST PUSH2 0x5CA3 PUSH2 0x5C9E DUP3 PUSH2 0x3C01 JUMP JUMPDEST PUSH2 0x5C80 JUMP JUMPDEST DUP3 MSTORE POP POP JUMP JUMPDEST PUSH1 0x0 DUP2 PUSH1 0xE0 SHL SWAP1 POP SWAP2 SWAP1 POP JUMP JUMPDEST PUSH1 0x0 PUSH2 0x5CC1 DUP3 PUSH2 0x5CA9 JUMP JUMPDEST SWAP1 POP SWAP2 SWAP1 POP JUMP JUMPDEST PUSH2 0x5CD9 PUSH2 0x5CD4 DUP3 PUSH2 0x3CB5 JUMP JUMPDEST PUSH2 0x5CB6 JUMP JUMPDEST DUP3 MSTORE POP POP JUMP JUMPDEST PUSH1 0x0 PUSH2 0x5CEB DUP3 DUP6 PUSH2 0x5C92 JUMP JUMPDEST PUSH1 0x14 DUP3 ADD SWAP2 POP PUSH2 0x5CFB DUP3 DUP5 PUSH2 0x5CC8 JUMP JUMPDEST PUSH1 0x4 DUP3 ADD SWAP2 POP DUP2 SWAP1 POP SWAP4 SWAP3 POP POP POP JUMP JUMPDEST PUSH1 0x0 PUSH1 0x60 DUP3 ADD SWAP1 POP PUSH2 0x5D20 PUSH1 0x0 DUP4 ADD DUP7 PUSH2 0x4185 JUMP JUMPDEST PUSH2 0x5D2D PUSH1 0x20 DUP4 ADD DUP6 PUSH2 0x4185 JUMP JUMPDEST PUSH2 0x5D3A PUSH1 0x40 DUP4 ADD DUP5 PUSH2 0x4185 JUMP JUMPDEST SWAP5 SWAP4 POP POP POP POP JUMP JUMPDEST PUSH32 0x496E76616C69642064656C656761746500000000000000000000000000000000 PUSH1 0x0 DUP3 ADD MSTORE POP JUMP JUMPDEST PUSH1 0x0 PUSH2 0x5D78 PUSH1 0x10 DUP4 PUSH2 0x44C8 JUMP JUMPDEST SWAP2 POP PUSH2 0x5D83 DUP3 PUSH2 0x5D42 JUMP JUMPDEST PUSH1 0x20 DUP3 ADD SWAP1 POP SWAP2 SWAP1 POP JUMP JUMPDEST PUSH1 0x0 PUSH1 0x20 DUP3 ADD SWAP1 POP DUP2 DUP2 SUB PUSH1 0x0 DUP4 ADD MSTORE PUSH2 0x5DA7 DUP2 PUSH2 0x5D6B JUMP JUMPDEST SWAP1 POP SWAP2 SWAP1 POP JUMP JUMPDEST PUSH32 0x436F756C64206E6F7420766572696679206D65726B6C652070726F6F66000000 PUSH1 0x0 DUP3 ADD MSTORE POP JUMP JUMPDEST PUSH1 0x0 PUSH2 0x5DE4 PUSH1 0x1D DUP4 PUSH2 0x44C8 JUMP JUMPDEST SWAP2 POP PUSH2 0x5DEF DUP3 PUSH2 0x5DAE JUMP JUMPDEST PUSH1 0x20 DUP3 ADD SWAP1 POP SWAP2 SWAP1 POP JUMP JUMPDEST PUSH1 0x0 PUSH1 0x20 DUP3 ADD SWAP1 POP DUP2 DUP2 SUB PUSH1 0x0 DUP4 ADD MSTORE PUSH2 0x5E13 DUP2 PUSH2 0x5DD7 JUMP JUMPDEST SWAP1 POP SWAP2 SWAP1 POP JUMP JUMPDEST PUSH32 0x416C7265616479206D696E746564000000000000000000000000000000000000 PUSH1 0x0 DUP3 ADD MSTORE POP JUMP JUMPDEST PUSH1 0x0 PUSH2 0x5E50 PUSH1 0xE DUP4 PUSH2 0x44C8 JUMP JUMPDEST SWAP2 POP PUSH2 0x5E5B DUP3 PUSH2 0x5E1A JUMP JUMPDEST PUSH1 0x20 DUP3 ADD SWAP1 POP SWAP2 SWAP1 POP JUMP JUMPDEST PUSH1 0x0 PUSH1 0x20 DUP3 ADD SWAP1 POP DUP2 DUP2 SUB PUSH1 0x0 DUP4 ADD MSTORE PUSH2 0x5E7F DUP2 PUSH2 0x5E43 JUMP JUMPDEST SWAP1 POP SWAP2 SWAP1 POP JUMP INVALID LOG2 PUSH5 0x6970667358 0x22 SLT KECCAK256 COINBASE 0x4E GASPRICE PUSH11 0x3C85C082C920F505DD9548 0x24 0x2A 0x2C 0xA7 CHAINID RETURN PUSH25 0xDF595EEA82085B961A4864736F6C6343000811003300000000 "
		},
		"gasEstimates": {
			"creation": {
				"codeDepositCost": "4850400",
				"executionCost": "infinite",
				"totalCost": "infinite"
			},
			"external": {
				"DELEGATION_REGISTRY()": "2603",
				"airdrop(address,uint256,address[],uint16[])": "infinite",
				"checkMintIndex(address,uint256,uint32)": "8092",
				"checkMintIndices(address,uint256,uint32[])": "infinite",
				"getClaim(address,uint256)": "infinite",
				"getClaimCount(address)": "2905",
				"getTotalMints(address,address,uint256)": "infinite",
				"initializeClaim(address,(uint32,uint32,uint48,uint48,uint8,bytes32,string,uint256,address))": "infinite",
				"mint(address,uint256,uint32,bytes32[],address)": "infinite",
				"mintBatch(address,uint256,uint16,uint32[],bytes32[][],address)": "infinite",
				"supportsInterface(bytes4)": "731",
				"tokenURI(address,uint256)": "infinite",
				"updateClaim(address,uint256,(uint32,uint32,uint48,uint48,uint8,bytes32,string,uint256,address))": "infinite"
			},
			"internal": {
				"_checkMerkleAndUpdate(struct IERC1155LazyPayableClaim.Claim storage pointer,address,uint256,uint32,bytes32[] memory,address)": "infinite"
			}
		},
		"methodIdentifiers": {
			"DELEGATION_REGISTRY()": "4daadff7",
			"airdrop(address,uint256,address[],uint16[])": "5f2f5129",
			"checkMintIndex(address,uint256,uint32)": "cda08536",
			"checkMintIndices(address,uint256,uint32[])": "f8a6137b",
			"getClaim(address,uint256)": "0f79ab39",
			"getClaimCount(address)": "d5fdfe87",
			"getTotalMints(address,address,uint256)": "42f3bef4",
			"initializeClaim(address,(uint32,uint32,uint48,uint48,uint8,bytes32,string,uint256,address))": "83b6da80",
			"mint(address,uint256,uint32,bytes32[],address)": "fa2b068f",
			"mintBatch(address,uint256,uint16,uint32[],bytes32[][],address)": "26c858a4",
			"supportsInterface(bytes4)": "01ffc9a7",
			"tokenURI(address,uint256)": "e9dc6375",
			"updateClaim(address,uint256,(uint32,uint32,uint48,uint48,uint8,bytes32,string,uint256,address))": "a310099c"
		}
	},
	"abi": [
		{
			"inputs": [
				{
					"internalType": "address",
					"name": "delegationRegistry",
					"type": "address"
				}
			],
			"stateMutability": "nonpayable",
			"type": "constructor"
		},
		{
			"anonymous": false,
			"inputs": [
				{
					"indexed": true,
					"internalType": "address",
					"name": "creatorContract",
					"type": "address"
				},
				{
					"indexed": true,
					"internalType": "uint224",
					"name": "claimIndex",
					"type": "uint224"
				},
				{
					"indexed": false,
					"internalType": "address",
					"name": "initializer",
					"type": "address"
				}
			],
			"name": "ClaimInitialized",
			"type": "event"
		},
		{
			"anonymous": false,
			"inputs": [
				{
					"indexed": true,
					"internalType": "address",
					"name": "creatorContract",
					"type": "address"
				},
				{
					"indexed": true,
					"internalType": "uint256",
					"name": "claimIndex",
					"type": "uint256"
				}
			],
			"name": "ClaimMint",
			"type": "event"
		},
		{
			"anonymous": false,
			"inputs": [
				{
					"indexed": true,
					"internalType": "address",
					"name": "creatorContract",
					"type": "address"
				},
				{
					"indexed": true,
					"internalType": "uint256",
					"name": "claimIndex",
					"type": "uint256"
				},
				{
					"indexed": false,
					"internalType": "uint16",
					"name": "mintCount",
					"type": "uint16"
				}
			],
			"name": "ClaimMintBatch",
			"type": "event"
		},
		{
			"inputs": [],
			"name": "DELEGATION_REGISTRY",
			"outputs": [
				{
					"internalType": "address",
					"name": "",
					"type": "address"
				}
			],
			"stateMutability": "view",
			"type": "function"
		},
		{
			"inputs": [
				{
					"internalType": "address",
					"name": "creatorContractAddress",
					"type": "address"
				},
				{
					"internalType": "uint256",
					"name": "claimIndex",
					"type": "uint256"
				},
				{
					"internalType": "address[]",
					"name": "recipients",
					"type": "address[]"
				},
				{
					"internalType": "uint16[]",
					"name": "amounts",
					"type": "uint16[]"
				}
			],
			"name": "airdrop",
			"outputs": [],
			"stateMutability": "nonpayable",
			"type": "function"
		},
		{
			"inputs": [
				{
					"internalType": "address",
					"name": "creatorContractAddress",
					"type": "address"
				},
				{
					"internalType": "uint256",
					"name": "claimIndex",
					"type": "uint256"
				},
				{
					"internalType": "uint32",
					"name": "mintIndex",
					"type": "uint32"
				}
			],
			"name": "checkMintIndex",
			"outputs": [
				{
					"internalType": "bool",
					"name": "",
					"type": "bool"
				}
			],
			"stateMutability": "view",
			"type": "function"
		},
		{
			"inputs": [
				{
					"internalType": "address",
					"name": "creatorContractAddress",
					"type": "address"
				},
				{
					"internalType": "uint256",
					"name": "claimIndex",
					"type": "uint256"
				},
				{
					"internalType": "uint32[]",
					"name": "mintIndices",
					"type": "uint32[]"
				}
			],
			"name": "checkMintIndices",
			"outputs": [
				{
					"internalType": "bool[]",
					"name": "minted",
					"type": "bool[]"
				}
			],
			"stateMutability": "view",
			"type": "function"
		},
		{
			"inputs": [
				{
					"internalType": "address",
					"name": "creatorContractAddress",
					"type": "address"
				},
				{
					"internalType": "uint256",
					"name": "claimIndex",
					"type": "uint256"
				}
			],
			"name": "getClaim",
			"outputs": [
				{
					"components": [
						{
							"internalType": "uint32",
							"name": "total",
							"type": "uint32"
						},
						{
							"internalType": "uint32",
							"name": "totalMax",
							"type": "uint32"
						},
						{
							"internalType": "uint32",
							"name": "walletMax",
							"type": "uint32"
						},
						{
							"internalType": "uint48",
							"name": "startDate",
							"type": "uint48"
						},
						{
							"internalType": "uint48",
							"name": "endDate",
							"type": "uint48"
						},
						{
							"internalType": "enum IERC1155LazyPayableClaim.StorageProtocol",
							"name": "storageProtocol",
							"type": "uint8"
						},
						{
							"internalType": "bytes32",
							"name": "merkleRoot",
							"type": "bytes32"
						},
						{
							"internalType": "string",
							"name": "location",
							"type": "string"
						},
						{
							"internalType": "uint256",
							"name": "tokenId",
							"type": "uint256"
						},
						{
							"internalType": "uint256",
							"name": "cost",
							"type": "uint256"
						},
						{
							"internalType": "address",
							"name": "paymentReceiver",
							"type": "address"
						}
					],
					"internalType": "struct IERC1155LazyPayableClaim.Claim",
					"name": "",
					"type": "tuple"
				}
			],
			"stateMutability": "view",
			"type": "function"
		},
		{
			"inputs": [
				{
					"internalType": "address",
					"name": "creatorContractAddress",
					"type": "address"
				}
			],
			"name": "getClaimCount",
			"outputs": [
				{
					"internalType": "uint256",
					"name": "",
					"type": "uint256"
				}
			],
			"stateMutability": "view",
			"type": "function"
		},
		{
			"inputs": [
				{
					"internalType": "address",
					"name": "minter",
					"type": "address"
				},
				{
					"internalType": "address",
					"name": "creatorContractAddress",
					"type": "address"
				},
				{
					"internalType": "uint256",
					"name": "claimIndex",
					"type": "uint256"
				}
			],
			"name": "getTotalMints",
			"outputs": [
				{
					"internalType": "uint32",
					"name": "",
					"type": "uint32"
				}
			],
			"stateMutability": "view",
			"type": "function"
		},
		{
			"inputs": [
				{
					"internalType": "address",
					"name": "creatorContractAddress",
					"type": "address"
				},
				{
					"components": [
						{
							"internalType": "uint32",
							"name": "totalMax",
							"type": "uint32"
						},
						{
							"internalType": "uint32",
							"name": "walletMax",
							"type": "uint32"
						},
						{
							"internalType": "uint48",
							"name": "startDate",
							"type": "uint48"
						},
						{
							"internalType": "uint48",
							"name": "endDate",
							"type": "uint48"
						},
						{
							"internalType": "enum IERC1155LazyPayableClaim.StorageProtocol",
							"name": "storageProtocol",
							"type": "uint8"
						},
						{
							"internalType": "bytes32",
							"name": "merkleRoot",
							"type": "bytes32"
						},
						{
							"internalType": "string",
							"name": "location",
							"type": "string"
						},
						{
							"internalType": "uint256",
							"name": "cost",
							"type": "uint256"
						},
						{
							"internalType": "address",
							"name": "paymentReceiver",
							"type": "address"
						}
					],
					"internalType": "struct IERC1155LazyPayableClaim.ClaimParameters",
					"name": "claimParameters",
					"type": "tuple"
				}
			],
			"name": "initializeClaim",
			"outputs": [
				{
					"internalType": "uint256",
					"name": "",
					"type": "uint256"
				}
			],
			"stateMutability": "nonpayable",
			"type": "function"
		},
		{
			"inputs": [
				{
					"internalType": "address",
					"name": "creatorContractAddress",
					"type": "address"
				},
				{
					"internalType": "uint256",
					"name": "claimIndex",
					"type": "uint256"
				},
				{
					"internalType": "uint32",
					"name": "mintIndex",
					"type": "uint32"
				},
				{
					"internalType": "bytes32[]",
					"name": "merkleProof",
					"type": "bytes32[]"
				},
				{
					"internalType": "address",
					"name": "mintFor",
					"type": "address"
				}
			],
			"name": "mint",
			"outputs": [],
			"stateMutability": "payable",
			"type": "function"
		},
		{
			"inputs": [
				{
					"internalType": "address",
					"name": "creatorContractAddress",
					"type": "address"
				},
				{
					"internalType": "uint256",
					"name": "claimIndex",
					"type": "uint256"
				},
				{
					"internalType": "uint16",
					"name": "mintCount",
					"type": "uint16"
				},
				{
					"internalType": "uint32[]",
					"name": "mintIndices",
					"type": "uint32[]"
				},
				{
					"internalType": "bytes32[][]",
					"name": "merkleProofs",
					"type": "bytes32[][]"
				},
				{
					"internalType": "address",
					"name": "mintFor",
					"type": "address"
				}
			],
			"name": "mintBatch",
			"outputs": [],
			"stateMutability": "payable",
			"type": "function"
		},
		{
			"inputs": [
				{
					"internalType": "bytes4",
					"name": "interfaceId",
					"type": "bytes4"
				}
			],
			"name": "supportsInterface",
			"outputs": [
				{
					"internalType": "bool",
					"name": "",
					"type": "bool"
				}
			],
			"stateMutability": "view",
			"type": "function"
		},
		{
			"inputs": [
				{
					"internalType": "address",
					"name": "creatorContractAddress",
					"type": "address"
				},
				{
					"internalType": "uint256",
					"name": "tokenId",
					"type": "uint256"
				}
			],
			"name": "tokenURI",
			"outputs": [
				{
					"internalType": "string",
					"name": "uri",
					"type": "string"
				}
			],
			"stateMutability": "view",
			"type": "function"
		},
		{
			"inputs": [
				{
					"internalType": "address",
					"name": "creatorContractAddress",
					"type": "address"
				},
				{
					"internalType": "uint256",
					"name": "claimIndex",
					"type": "uint256"
				},
				{
					"components": [
						{
							"internalType": "uint32",
							"name": "totalMax",
							"type": "uint32"
						},
						{
							"internalType": "uint32",
							"name": "walletMax",
							"type": "uint32"
						},
						{
							"internalType": "uint48",
							"name": "startDate",
							"type": "uint48"
						},
						{
							"internalType": "uint48",
							"name": "endDate",
							"type": "uint48"
						},
						{
							"internalType": "enum IERC1155LazyPayableClaim.StorageProtocol",
							"name": "storageProtocol",
							"type": "uint8"
						},
						{
							"internalType": "bytes32",
							"name": "merkleRoot",
							"type": "bytes32"
						},
						{
							"internalType": "string",
							"name": "location",
							"type": "string"
						},
						{
							"internalType": "uint256",
							"name": "cost",
							"type": "uint256"
						},
						{
							"internalType": "address",
							"name": "paymentReceiver",
							"type": "address"
						}
					],
					"internalType": "struct IERC1155LazyPayableClaim.ClaimParameters",
					"name": "claimParameters",
					"type": "tuple"
				}
			],
			"name": "updateClaim",
			"outputs": [],
			"stateMutability": "nonpayable",
			"type": "function"
		}
	]
}