{
	"data": {
		"bytecode": {
			"linkReferences": {},
			"object": "608060405234801561001057600080fd5b50600160005561306e806100256000396000f3fe608060405234801561001057600080fd5b50600436106100c95760003560e01c806342f3bef411610081578063d5fdfe871161005b578063d5fdfe87146101ad578063e9dc6375146101df578063f8a6137b146101ff57600080fd5b806342f3bef41461015f578063bbf2a8c614610187578063cda085361461019a57600080fd5b80630f79ab39116100b25780630f79ab39146101175780631831a643146101375780633512da331461014c57600080fd5b806301ffc9a7146100ce578063037b79db146100f6575b600080fd5b6100e16100dc366004612724565b61021f565b60405190151581526020015b60405180910390f35b61010961010436600461278a565b6102bc565b6040519081526020016100ed565b61012a6101253660046127d8565b6108d3565b6040516100ed9190612896565b61014a610145366004612949565b610b14565b005b61014a61015a3660046129ec565b61120a565b61017261016d366004612a90565b611832565b60405163ffffffff90911681526020016100ed565b61014a610195366004612ae0565b611973565b6100e16101a8366004612b4f565b611e00565b6101096101bb366004612b8b565b6001600160a01b03166000908152600160205260409020546001600160e01b031690565b6101f26101ed3660046127d8565b611f22565b6040516100ed9190612ba6565b61021261020d366004612bb9565b612260565b6040516100ed9190612c13565b60006001600160e01b031982167f38dbd06a00000000000000000000000000000000000000000000000000000000148061028257506001600160e01b031982167fe9dc637500000000000000000000000000000000000000000000000000000000145b806102b657506001600160e01b031982167f01ffc9a700000000000000000000000000000000000000000000000000000000145b92915050565b604051630935e01b60e21b8152336004820152600090839081906001600160a01b038216906324d7806c90602401602060405180830381865afa158015610307573d6000803e3d6000fd5b505050506040513d601f19601f8201168201806040525081019061032b9190612c6a565b6103905760405162461bcd60e51b815260206004820152602b60248201527f57616c6c6574206973206e6f7420616e2061646d696e6973747261746f72206660448201526a1bdc8818dbdb9d1c9858dd60aa1b60648201526084015b60405180910390fd5b60006103a260a0860160808701612c87565b60038111156103b3576103b3612802565b036104265760405162461bcd60e51b815260206004820152602f60248201527f43616e6e6f7420696e697469616c697a65207769746820696e76616c6964207360448201527f746f726167652070726f746f636f6c00000000000000000000000000000000006064820152608401610387565b6104366080850160608601612ca8565b65ffffffffffff16158061047757506104556080850160608601612ca8565b65ffffffffffff1661046d6060860160408701612ca8565b65ffffffffffff16105b6104e95760405162461bcd60e51b815260206004820152603660248201527f43616e6e6f74206861766520737461727444617465206772656174657220746860448201527f616e206f7220657175616c20746f20656e6444617465000000000000000000006064820152608401610387565b60c0840135158061050d57506105056040850160208601612cd0565b63ffffffff16155b61057f5760405162461bcd60e51b815260206004820152603160248201527f43616e6e6f742070726f7669646520626f7468206d696e747350657257616c6c60448201527f657420616e64206d65726b6c65526f6f740000000000000000000000000000006064820152608401610387565b6001600160a01b038516600090815260016020526040812080546001600160e01b0316916105ac83612d01565b82546101009290920a6001600160e01b038181021990931691831602179091556001600160a01b03871660009081526001602090815260408083205481516101208101909252928152919092169250908181019061060c90880188612cd0565b63ffffffff16815260200186602001602081019061062a9190612cd0565b63ffffffff1681526020016106456060880160408901612ca8565b65ffffffffffff1681526020016106626080880160608901612ca8565b65ffffffffffff16815260200161067f60a0880160808901612c87565b600381111561069057610690612802565b81526020016106a560c0880160a08901612d27565b1515815260c087013560208201526040016106c360e0880188612d44565b8080601f01602080910402602001604051908101604052809392919081815260200183838082843760009201829052509390945250506001600160a01b03891681526002602090815260408083206001600160e01b03871684528252918290208451815492860151938601516060870151608088015165ffffffffffff908116600160901b027fffffffffffffffff000000000000ffffffffffffffffffffffffffffffffffff91909216600160601b0271ffffffffffff0000000000000000000000001963ffffffff948516600160401b021671ffffffffffffffffffff0000000000000000199885166401000000000267ffffffffffffffff199098169490951693909317959095179590951691909117179182168317815560a085015190935091839160ff60c01b199091167fffffffffffffff00000000000000ffffffffffffffffffffffffffffffffffff90911617600160c01b83600381111561082e5761082e612802565b021790555060c08201518154901515600160c81b0260ff60c81b1990911617815560e08201516001820155610100820151805161087591600284019160209091019061268b565b50506040513381526001600160e01b03831691506001600160a01b038816907fcf76e1beb8dcf887c917933e1d0970eafadb9a69b82cfd5f44740a0dce6f45a69060200160405180910390a36001600160e01b031695945050505050565b610920604080516101208101825260008082526020820181905291810182905260608101829052608081018290529060a08201908152600060208201819052604082015260609081015290565b60006001600160a01b0384166000908152600260209081526040808320868452909152902054600160c01b900460ff16600381111561096157610961612802565b036109a65760405162461bcd60e51b815260206004820152601560248201527410db185a5b481b9bdd081a5b9a5d1a585b1a5e9959605a1b6044820152606401610387565b6001600160a01b0383166000908152600260209081526040808320858452825291829020825161012081018452815463ffffffff80821683526401000000008204811694830194909452600160401b81049093169381019390935265ffffffffffff600160601b830481166060850152600160901b83041660808401529060a083019060ff600160c01b909104166003811115610a4557610a45612802565b6003811115610a5657610a56612802565b81528154600160c81b900460ff161515602082015260018201546040820152600282018054606090920191610a8a90612d8b565b80601f0160208091040260200160405190810160405280929190818152602001828054610ab690612d8b565b8015610b035780601f10610ad857610100808354040283529160200191610b03565b820191906000526020600020905b815481529060010190602001808311610ae657829003601f168201915b505050505081525050905092915050565b604051630935e01b60e21b8152336004820152839081906001600160a01b038216906324d7806c90602401602060405180830381865afa158015610b5c573d6000803e3d6000fd5b505050506040513d601f19601f82011682018060405250810190610b809190612c6a565b610be05760405162461bcd60e51b815260206004820152602b60248201527f57616c6c6574206973206e6f7420616e2061646d696e6973747261746f72206660448201526a1bdc8818dbdb9d1c9858dd60aa1b6064820152608401610387565b60006001600160a01b0386166000908152600260209081526040808320888452909152902054600160c01b900460ff166003811115610c2157610c21612802565b03610c665760405162461bcd60e51b815260206004820152601560248201527410db185a5b481b9bdd081a5b9a5d1a585b1a5e9959605a1b6044820152606401610387565b6000610c7860a0850160808601612c87565b6003811115610c8957610c89612802565b03610cfc5760405162461bcd60e51b815260206004820152602360248201527f43616e6e6f742073657420696e76616c69642073746f726167652070726f746f60448201527f636f6c00000000000000000000000000000000000000000000000000000000006064820152608401610387565b6001600160a01b0385166000908152600260209081526040808320878452909152902054640100000000900463ffffffff161580610d7d5750610d426020840184612cd0565b6001600160a01b038616600090815260026020908152604080832088845290915290205463ffffffff91821664010000000090910490911611155b610dc95760405162461bcd60e51b815260206004820152601860248201527f43616e6e6f7420646563726561736520746f74616c4d617800000000000000006044820152606401610387565b6001600160a01b0385166000908152600260209081526040808320878452909152902054600160401b900463ffffffff161580610e4b5750610e116040840160208501612cd0565b6001600160a01b038616600090815260026020908152604080832088845290915290205463ffffffff918216600160401b90910490911611155b610e975760405162461bcd60e51b815260206004820152601960248201527f43616e6e6f742064656372656173652077616c6c65744d6178000000000000006044820152606401610387565b610ea76080840160608501612ca8565b65ffffffffffff161580610ee85750610ec66080840160608501612ca8565b65ffffffffffff16610ede6060850160408601612ca8565b65ffffffffffff16105b610f5a5760405162461bcd60e51b815260206004820152603660248201527f43616e6e6f74206861766520737461727444617465206772656174657220746860448201527f616e206f7220657175616c20746f20656e6444617465000000000000000000006064820152608401610387565b60408051610120810182526001600160a01b03871660009081526002602090815283822088835281529290205463ffffffff1681529080820190610fa090860186612cd0565b63ffffffff168152602001846020016020810190610fbe9190612cd0565b63ffffffff168152602001610fd96060860160408701612ca8565b65ffffffffffff168152602001610ff66080860160608701612ca8565b65ffffffffffff16815260200161101360a0860160808701612c87565b600381111561102457611024612802565b815260200161103960c0860160a08701612d27565b1515815260c0850135602082015260400161105760e0860186612d44565b8080601f01602080910402602001604051908101604052809392919081815260200183838082843760009201829052509390945250506001600160a01b03881681526002602090815260408083208984528252918290208451815492860151938601516060870151608088015165ffffffffffff908116600160901b027fffffffffffffffff000000000000ffffffffffffffffffffffffffffffffffff91909216600160601b0271ffffffffffff0000000000000000000000001963ffffffff948516600160401b021671ffffffffffffffffffff0000000000000000199885166401000000000267ffffffffffffffff199098169490951693909317959095179590951691909117179182168317815560a085015190935091839160ff60c01b199091167fffffffffffffff00000000000000ffffffffffffffffffffffffffffffffffff90911617600160c01b8360038111156111b9576111b9612802565b021790555060c08201518154901515600160c81b0260ff60c81b1990911617815560e08201516001820155610100820151805161120091600284019160209091019061268b565b5050505050505050565b6001600160a01b03871660009081526002602090815260408083208984529091528120908154600160c01b900460ff16600381111561124b5761124b612802565b036112905760405162461bcd60e51b815260206004820152601560248201527410db185a5b481b9bdd081a5b9a5d1a585b1a5e9959605a1b6044820152606401610387565b8054600160601b900465ffffffffffff1615806112bd5750805442600160601b90910465ffffffffffff16105b6113095760405162461bcd60e51b815260206004820152601d60248201527f5472616e73616374696f6e206265666f726520737461727420646174650000006044820152606401610387565b8054600160901b900465ffffffffffff1615806113375750805442600160901b90910465ffffffffffff1610155b6113835760405162461bcd60e51b815260206004820152601a60248201527f5472616e73616374696f6e20616674657220656e6420646174650000000000006044820152606401610387565b8054640100000000900463ffffffff1615806113c55750805463ffffffff64010000000082048116916113bc9161ffff8a169116612dbf565b63ffffffff1611155b6114375760405162461bcd60e51b815260206004820152602160248201527f546f6f206d616e792072657175657374656420666f72207468697320636c616960448201527f6d000000000000000000000000000000000000000000000000000000000000006064820152608401610387565b805460009061144d9063ffffffff166001612dbf565b825463ffffffff19811661ffff8a1663ffffffff9283160182161784556001840154911691501561158e5761ffff87168514801561148e575061ffff871683145b6114da5760405162461bcd60e51b815260206004820152600d60248201527f496e76616c696420696e707574000000000000000000000000000000000000006044820152606401610387565b60005b8761ffff168110156115885760008787838181106114fd576114fd612de7565b90506020020160208101906115129190612cd0565b9050600086868481811061152857611528612de7565b905060200281019061153a9190612dfd565b8080602002602001604051908101604052809392919081815260200183836020028082843760009201919091525092935061157e92508791508e90508d858561231b565b50506001016114dd565b50611698565b8154600160401b900463ffffffff16156116985781546001600160a01b038a1660009081526003602090815260408083208c84528252808320338452909152902054600160401b90910463ffffffff16906115ee9061ffff8a1690612e47565b11156116625760405162461bcd60e51b815260206004820152602260248201527f546f6f206d616e792072657175657374656420666f7220746869732077616c6c60448201527f65740000000000000000000000000000000000000000000000000000000000006064820152608401610387565b6001600160a01b03891660009081526003602090815260408083208b845282528083203384529091529020805461ffff89160190555b6040517fe00aab4b00000000000000000000000000000000000000000000000000000000815233600482015261ffff881660248201526000906001600160a01b038b169063e00aab4b906044016000604051808303816000875af1158015611704573d6000803e3d6000fd5b505050506040513d6000823e601f3d908101601f1916820160405261172c9190810190612e75565b905060005b8861ffff168110156117e15760405180604001604052808b6001600160e01b0316815260200182856117639190612e47565b63ffffffff1690526001600160a01b038c166000908152600560205260408120845190919085908590811061179a5761179a612de7565b6020908102919091018101518252818101929092526040016000208251929091015163ffffffff16600160e01b026001600160e01b03909216919091179055600101611731565b5060405161ffff8916815289906001600160a01b038c16907f74f5d3254dfa39a7b1217a27d5d9b3e061eafe11720eca1cf499da2dc1eb12599060200160405180910390a350505050505050505050565b6001600160a01b03821660009081526002602090815260408083208484529091528120818154600160c01b900460ff16600381111561187357611873612802565b036118b85760405162461bcd60e51b815260206004820152601560248201527410db185a5b481b9bdd081a5b9a5d1a585b1a5e9959605a1b6044820152606401610387565b8054600160401b900463ffffffff1660000361193c5760405162461bcd60e51b815260206004820152603660248201527f43616e206f6e6c7920726574726965766520666f72206e6f6e2d6d65726b6c6560448201527f20636c61696d7320776974682077616c6c65744d6178000000000000000000006064820152608401610387565b50506001600160a01b0380831660009081526003602090815260408083208584528252808320938716835292905220549392505050565b6001600160a01b03851660009081526002602090815260408083208784529091528120908154600160c01b900460ff1660038111156119b4576119b4612802565b036119f95760405162461bcd60e51b815260206004820152601560248201527410db185a5b481b9bdd081a5b9a5d1a585b1a5e9959605a1b6044820152606401610387565b8054600160601b900465ffffffffffff161580611a265750805442600160601b90910465ffffffffffff16105b611a725760405162461bcd60e51b815260206004820152601d60248201527f5472616e73616374696f6e206265666f726520737461727420646174650000006044820152606401610387565b8054600160901b900465ffffffffffff161580611aa05750805442600160901b90910465ffffffffffff1610155b611aec5760405162461bcd60e51b815260206004820152601a60248201527f5472616e73616374696f6e20616674657220656e6420646174650000000000006044820152606401610387565b8054640100000000900463ffffffff161580611b185750805463ffffffff640100000000820481169116105b611b8a5760405162461bcd60e51b815260206004820152602c60248201527f4d6178696d756d20746f6b656e7320616c7265616479206d696e74656420666f60448201527f72207468697320636c61696d00000000000000000000000000000000000000006064820152608401610387565b600181015415611bd957611bd48187878787878080602002602001604051908101604052809392919081815260200183836020028082843760009201919091525061231b92505050565b611ccf565b8054600160401b900463ffffffff1615611ccf5780546001600160a01b03871660009081526003602090815260408083208984528252808320338452909152902054600160401b90910463ffffffff1611611c9c5760405162461bcd60e51b815260206004820152602d60248201527f4d6178696d756d20746f6b656e7320616c7265616479206d696e74656420666f60448201527f7220746869732077616c6c6574000000000000000000000000000000000000006064820152608401610387565b6001600160a01b038616600090815260036020908152604080832088845282528083203384529091529020805460010190555b805463ffffffff8082166001011663ffffffff199091161781556040517f2928ca580000000000000000000000000000000000000000000000000000000081523360048201526000906001600160a01b03881690632928ca58906024016020604051808303816000875af1158015611d4b573d6000803e3d6000fd5b505050506040513d601f19601f82011682018060405250810190611d6f9190612f33565b6040805180820182526001600160e01b03808a168252855463ffffffff90811660208085019182526001600160a01b038e1660008181526005835287812089825290925286822095519251909316600160e01b0291909316179092559151929350889290917f5d404f369772cfab2b65717fca9bc2077efeab89a0dbec036bf0c13783154eb191a350505050505050565b6001600160a01b03831660009081526002602090815260408083208584529091528120818154600160c01b900460ff166003811115611e4157611e41612802565b03611e865760405162461bcd60e51b815260206004820152601560248201527410db185a5b481b9bdd081a5b9a5d1a585b1a5e9959605a1b6044820152606401610387565b8060010154600003611eda5760405162461bcd60e51b815260206004820152601c60248201527f43616e206f6e6c7920636865636b206d65726b6c6520636c61696d73000000006044820152606401610387565b50506001600160a01b0383166000908152600460209081526040808320858452825280832062ffffff600886901c168452909152902054600160ff83161b1615159392505050565b6001600160a01b03821660009081526005602090815260408083208484528252918290208251808401909352546001600160e01b038116808452600160e01b90910463ffffffff169183019190915260609190611fc15760405162461bcd60e51b815260206004820152601460248201527f546f6b656e20646f6573206e6f742065786973740000000000000000000000006044820152606401610387565b6001600160a01b038416600090815260026020908152604080832084516001600160e01b031684528252808320815161012081018352815463ffffffff80821683526401000000008204811695830195909552600160401b81049094169281019290925265ffffffffffff600160601b840481166060840152600160901b8404166080830152909160a083019060ff600160c01b90910416600381111561206a5761206a612802565b600381111561207b5761207b612802565b81528154600160c81b900460ff1615156020820152600182015460408201526002820180546060909201916120af90612d8b565b80601f01602080910402602001604051908101604052809291908181526020018280546120db90612d8b565b80156121285780601f106120fd57610100808354040283529160200191612128565b820191906000526020600020905b81548152906001019060200180831161210b57829003601f168201915b505050919092525050604080516020810190915260008152919250600290508260a00151600381111561215d5761215d612802565b0361219c575060408051808201909152601481527f68747470733a2f2f617277656176652e6e65742f00000000000000000000000060208201526121ef565b60038260a0015160038111156121b4576121b4612802565b036121ef575060408051808201909152600781527f697066733a2f2f0000000000000000000000000000000000000000000000000060208201525b610100820151604051612206918391602001612f4c565b60405160208183030381529060405293508160c001516122575783612234846020015163ffffffff1661248c565b604051602001612245929190612f72565b60405160208183030381529060405293505b50505092915050565b60608167ffffffffffffffff81111561227b5761227b612e5f565b6040519080825280602002602001820160405280156122a4578160200160208202803683370190505b50905060005b82811015612312576122de86868686858181106122c9576122c9612de7565b90506020020160208101906101a89190612cd0565b8282815181106122f0576122f0612de7565b911515602092830291909101909101528061230a81612fca565b9150506122aa565b50949350505050565b6040516bffffffffffffffffffffffff193360601b1660208201526001600160e01b031960e084901b166034820152600090603801604051602081830303815290604052805190602001209050612377828760010154836125c9565b6123c35760405162461bcd60e51b815260206004820152601d60248201527f436f756c64206e6f7420766572696679206d65726b6c652070726f6f660000006044820152606401610387565b6001600160a01b0385166000908152600460209081526040808320878452825280832062ffffff600888901c16808552925290912054600160ff86161b808216156124505760405162461bcd60e51b815260206004820152600e60248201527f416c7265616479206d696e7465640000000000000000000000000000000000006044820152606401610387565b6001600160a01b039097166000908152600460209081526040808320988352978152878220938252929092529490209390941790925550505050565b6060816000036124cf57505060408051808201909152600181527f3000000000000000000000000000000000000000000000000000000000000000602082015290565b8160005b81156124f957806124e381612fca565b91506124f29050600a83612ff9565b91506124d3565b60008167ffffffffffffffff81111561251457612514612e5f565b6040519080825280601f01601f19166020018201604052801561253e576020820181803683370190505b5090505b84156125c15761255360018361300d565b9150612560600a86613024565b61256b906030612e47565b60f81b81838151811061258057612580612de7565b60200101907effffffffffffffffffffffffffffffffffffffffffffffffffffffffffffff1916908160001a9053506125ba600a86612ff9565b9450612542565b949350505050565b6000826125d685846125df565b14949350505050565b600081815b845181101561268357600085828151811061260157612601612de7565b60200260200101519050808311612643576040805160208101859052908101829052606001604051602081830303815290604052805190602001209250612670565b60408051602081018390529081018490526060016040516020818303038152906040528051906020012092505b508061267b81612fca565b9150506125e4565b509392505050565b82805461269790612d8b565b90600052602060002090601f0160209004810192826126b957600085556126ff565b82601f106126d257805160ff19168380011785556126ff565b828001600101855582156126ff579182015b828111156126ff5782518255916020019190600101906126e4565b5061270b92915061270f565b5090565b5b8082111561270b5760008155600101612710565b60006020828403121561273657600080fd5b81356001600160e01b03198116811461274e57600080fd5b9392505050565b80356001600160a01b038116811461276c57600080fd5b919050565b6000610100828403121561278457600080fd5b50919050565b6000806040838503121561279d57600080fd5b6127a683612755565b9150602083013567ffffffffffffffff8111156127c257600080fd5b6127ce85828601612771565b9150509250929050565b600080604083850312156127eb57600080fd5b6127f483612755565b946020939093013593505050565b634e487b7160e01b600052602160045260246000fd5b6004811061283657634e487b7160e01b600052602160045260246000fd5b9052565b60005b8381101561285557818101518382015260200161283d565b83811115612864576000848401525b50505050565b6000815180845261288281602086016020860161283a565b601f01601f19169290920160200192915050565b602081526128ad60208201835163ffffffff169052565b600060208301516128c6604084018263ffffffff169052565b50604083015163ffffffff8116606084015250606083015165ffffffffffff8116608084015250608083015165ffffffffffff811660a08401525060a083015161291360c0840182612818565b5060c083015180151560e08401525060e083015161010083810191909152830151610120808401526125c161014084018261286a565b60008060006060848603121561295e57600080fd5b61296784612755565b925060208401359150604084013567ffffffffffffffff81111561298a57600080fd5b61299686828701612771565b9150509250925092565b60008083601f8401126129b257600080fd5b50813567ffffffffffffffff8111156129ca57600080fd5b6020830191508360208260051b85010111156129e557600080fd5b9250929050565b600080600080600080600060a0888a031215612a0757600080fd5b612a1088612755565b965060208801359550604088013561ffff81168114612a2e57600080fd5b9450606088013567ffffffffffffffff80821115612a4b57600080fd5b612a578b838c016129a0565b909650945060808a0135915080821115612a7057600080fd5b50612a7d8a828b016129a0565b989b979a50959850939692959293505050565b600080600060608486031215612aa557600080fd5b612aae84612755565b9250612abc60208501612755565b9150604084013590509250925092565b803563ffffffff8116811461276c57600080fd5b600080600080600060808688031215612af857600080fd5b612b0186612755565b945060208601359350612b1660408701612acc565b9250606086013567ffffffffffffffff811115612b3257600080fd5b612b3e888289016129a0565b969995985093965092949392505050565b600080600060608486031215612b6457600080fd5b612b6d84612755565b925060208401359150612b8260408501612acc565b90509250925092565b600060208284031215612b9d57600080fd5b61274e82612755565b60208152600061274e602083018461286a565b60008060008060608587031215612bcf57600080fd5b612bd885612755565b935060208501359250604085013567ffffffffffffffff811115612bfb57600080fd5b612c07878288016129a0565b95989497509550505050565b6020808252825182820181905260009190848201906040850190845b81811015612c4d578351151583529284019291840191600101612c2f565b50909695505050505050565b8015158114612c6757600080fd5b50565b600060208284031215612c7c57600080fd5b815161274e81612c59565b600060208284031215612c9957600080fd5b81356004811061274e57600080fd5b600060208284031215612cba57600080fd5b813565ffffffffffff8116811461274e57600080fd5b600060208284031215612ce257600080fd5b61274e82612acc565b634e487b7160e01b600052601160045260246000fd5b60006001600160e01b03808316818103612d1d57612d1d612ceb565b6001019392505050565b600060208284031215612d3957600080fd5b813561274e81612c59565b6000808335601e19843603018112612d5b57600080fd5b83018035915067ffffffffffffffff821115612d7657600080fd5b6020019150368190038213156129e557600080fd5b600181811c90821680612d9f57607f821691505b60208210810361278457634e487b7160e01b600052602260045260246000fd5b600063ffffffff808316818516808303821115612dde57612dde612ceb565b01949350505050565b634e487b7160e01b600052603260045260246000fd5b6000808335601e19843603018112612e1457600080fd5b83018035915067ffffffffffffffff821115612e2f57600080fd5b6020019150600581901b36038213156129e557600080fd5b60008219821115612e5a57612e5a612ceb565b500190565b634e487b7160e01b600052604160045260246000fd5b60006020808385031215612e8857600080fd5b825167ffffffffffffffff80821115612ea057600080fd5b818501915085601f830112612eb457600080fd5b815181811115612ec657612ec6612e5f565b8060051b604051601f19603f83011681018181108582111715612eeb57612eeb612e5f565b604052918252848201925083810185019188831115612f0957600080fd5b938501935b82851015612f2757845184529385019392850192612f0e565b98975050505050505050565b600060208284031215612f4557600080fd5b5051919050565b60008351612f5e81846020880161283a565b835190830190612dde81836020880161283a565b60008351612f8481846020880161283a565b7f2f000000000000000000000000000000000000000000000000000000000000009083019081528351612fbe81600184016020880161283a565b01600101949350505050565b600060018201612fdc57612fdc612ceb565b5060010190565b634e487b7160e01b600052601260045260246000fd5b60008261300857613008612fe3565b500490565b60008282101561301f5761301f612ceb565b500390565b60008261303357613033612fe3565b50069056fea264697066735822122036a9685f79261920cebda45a8dbb9bdb76ddd5b19b4fd52c3d0e88fffbcd500c64736f6c634300080e0033",
			"opcodes": "PUSH1 0x80 PUSH1 0x40 MSTORE CALLVALUE DUP1 ISZERO PUSH2 0x10 JUMPI PUSH1 0x0 DUP1 REVERT JUMPDEST POP PUSH1 0x1 PUSH1 0x0 SSTORE PUSH2 0x306E DUP1 PUSH2 0x25 PUSH1 0x0 CODECOPY PUSH1 0x0 RETURN INVALID PUSH1 0x80 PUSH1 0x40 MSTORE CALLVALUE DUP1 ISZERO PUSH2 0x10 JUMPI PUSH1 0x0 DUP1 REVERT JUMPDEST POP PUSH1 0x4 CALLDATASIZE LT PUSH2 0xC9 JUMPI PUSH1 0x0 CALLDATALOAD PUSH1 0xE0 SHR DUP1 PUSH4 0x42F3BEF4 GT PUSH2 0x81 JUMPI DUP1 PUSH4 0xD5FDFE87 GT PUSH2 0x5B JUMPI DUP1 PUSH4 0xD5FDFE87 EQ PUSH2 0x1AD JUMPI DUP1 PUSH4 0xE9DC6375 EQ PUSH2 0x1DF JUMPI DUP1 PUSH4 0xF8A6137B EQ PUSH2 0x1FF JUMPI PUSH1 0x0 DUP1 REVERT JUMPDEST DUP1 PUSH4 0x42F3BEF4 EQ PUSH2 0x15F JUMPI DUP1 PUSH4 0xBBF2A8C6 EQ PUSH2 0x187 JUMPI DUP1 PUSH4 0xCDA08536 EQ PUSH2 0x19A JUMPI PUSH1 0x0 DUP1 REVERT JUMPDEST DUP1 PUSH4 0xF79AB39 GT PUSH2 0xB2 JUMPI DUP1 PUSH4 0xF79AB39 EQ PUSH2 0x117 JUMPI DUP1 PUSH4 0x1831A643 EQ PUSH2 0x137 JUMPI DUP1 PUSH4 0x3512DA33 EQ PUSH2 0x14C JUMPI PUSH1 0x0 DUP1 REVERT JUMPDEST DUP1 PUSH4 0x1FFC9A7 EQ PUSH2 0xCE JUMPI DUP1 PUSH4 0x37B79DB EQ PUSH2 0xF6 JUMPI JUMPDEST PUSH1 0x0 DUP1 REVERT JUMPDEST PUSH2 0xE1 PUSH2 0xDC CALLDATASIZE PUSH1 0x4 PUSH2 0x2724 JUMP JUMPDEST PUSH2 0x21F JUMP JUMPDEST PUSH1 0x40 MLOAD SWAP1 ISZERO ISZERO DUP2 MSTORE PUSH1 0x20 ADD JUMPDEST PUSH1 0x40 MLOAD DUP1 SWAP2 SUB SWAP1 RETURN JUMPDEST PUSH2 0x109 PUSH2 0x104 CALLDATASIZE PUSH1 0x4 PUSH2 0x278A JUMP JUMPDEST PUSH2 0x2BC JUMP JUMPDEST PUSH1 0x40 MLOAD SWAP1 DUP2 MSTORE PUSH1 0x20 ADD PUSH2 0xED JUMP JUMPDEST PUSH2 0x12A PUSH2 0x125 CALLDATASIZE PUSH1 0x4 PUSH2 0x27D8 JUMP JUMPDEST PUSH2 0x8D3 JUMP JUMPDEST PUSH1 0x40 MLOAD PUSH2 0xED SWAP2 SWAP1 PUSH2 0x2896 JUMP JUMPDEST PUSH2 0x14A PUSH2 0x145 CALLDATASIZE PUSH1 0x4 PUSH2 0x2949 JUMP JUMPDEST PUSH2 0xB14 JUMP JUMPDEST STOP JUMPDEST PUSH2 0x14A PUSH2 0x15A CALLDATASIZE PUSH1 0x4 PUSH2 0x29EC JUMP JUMPDEST PUSH2 0x120A JUMP JUMPDEST PUSH2 0x172 PUSH2 0x16D CALLDATASIZE PUSH1 0x4 PUSH2 0x2A90 JUMP JUMPDEST PUSH2 0x1832 JUMP JUMPDEST PUSH1 0x40 MLOAD PUSH4 0xFFFFFFFF SWAP1 SWAP2 AND DUP2 MSTORE PUSH1 0x20 ADD PUSH2 0xED JUMP JUMPDEST PUSH2 0x14A PUSH2 0x195 CALLDATASIZE PUSH1 0x4 PUSH2 0x2AE0 JUMP JUMPDEST PUSH2 0x1973 JUMP JUMPDEST PUSH2 0xE1 PUSH2 0x1A8 CALLDATASIZE PUSH1 0x4 PUSH2 0x2B4F JUMP JUMPDEST PUSH2 0x1E00 JUMP JUMPDEST PUSH2 0x109 PUSH2 0x1BB CALLDATASIZE PUSH1 0x4 PUSH2 0x2B8B JUMP JUMPDEST PUSH1 0x1 PUSH1 0x1 PUSH1 0xA0 SHL SUB AND PUSH1 0x0 SWAP1 DUP2 MSTORE PUSH1 0x1 PUSH1 0x20 MSTORE PUSH1 0x40 SWAP1 KECCAK256 SLOAD PUSH1 0x1 PUSH1 0x1 PUSH1 0xE0 SHL SUB AND SWAP1 JUMP JUMPDEST PUSH2 0x1F2 PUSH2 0x1ED CALLDATASIZE PUSH1 0x4 PUSH2 0x27D8 JUMP JUMPDEST PUSH2 0x1F22 JUMP JUMPDEST PUSH1 0x40 MLOAD PUSH2 0xED SWAP2 SWAP1 PUSH2 0x2BA6 JUMP JUMPDEST PUSH2 0x212 PUSH2 0x20D CALLDATASIZE PUSH1 0x4 PUSH2 0x2BB9 JUMP JUMPDEST PUSH2 0x2260 JUMP JUMPDEST PUSH1 0x40 MLOAD PUSH2 0xED SWAP2 SWAP1 PUSH2 0x2C13 JUMP JUMPDEST PUSH1 0x0 PUSH1 0x1 PUSH1 0x1 PUSH1 0xE0 SHL SUB NOT DUP3 AND PUSH32 0x38DBD06A00000000000000000000000000000000000000000000000000000000 EQ DUP1 PUSH2 0x282 JUMPI POP PUSH1 0x1 PUSH1 0x1 PUSH1 0xE0 SHL SUB NOT DUP3 AND PUSH32 0xE9DC637500000000000000000000000000000000000000000000000000000000 EQ JUMPDEST DUP1 PUSH2 0x2B6 JUMPI POP PUSH1 0x1 PUSH1 0x1 PUSH1 0xE0 SHL SUB NOT DUP3 AND PUSH32 0x1FFC9A700000000000000000000000000000000000000000000000000000000 EQ JUMPDEST SWAP3 SWAP2 POP POP JUMP JUMPDEST PUSH1 0x40 MLOAD PUSH4 0x935E01B PUSH1 0xE2 SHL DUP2 MSTORE CALLER PUSH1 0x4 DUP3 ADD MSTORE PUSH1 0x0 SWAP1 DUP4 SWAP1 DUP2 SWAP1 PUSH1 0x1 PUSH1 0x1 PUSH1 0xA0 SHL SUB DUP3 AND SWAP1 PUSH4 0x24D7806C SWAP1 PUSH1 0x24 ADD PUSH1 0x20 PUSH1 0x40 MLOAD DUP1 DUP4 SUB DUP2 DUP7 GAS STATICCALL ISZERO DUP1 ISZERO PUSH2 0x307 JUMPI RETURNDATASIZE PUSH1 0x0 DUP1 RETURNDATACOPY RETURNDATASIZE PUSH1 0x0 REVERT JUMPDEST POP POP POP POP PUSH1 0x40 MLOAD RETURNDATASIZE PUSH1 0x1F NOT PUSH1 0x1F DUP3 ADD AND DUP3 ADD DUP1 PUSH1 0x40 MSTORE POP DUP2 ADD SWAP1 PUSH2 0x32B SWAP2 SWAP1 PUSH2 0x2C6A JUMP JUMPDEST PUSH2 0x390 JUMPI PUSH1 0x40 MLOAD PUSH3 0x461BCD PUSH1 0xE5 SHL DUP2 MSTORE PUSH1 0x20 PUSH1 0x4 DUP3 ADD MSTORE PUSH1 0x2B PUSH1 0x24 DUP3 ADD MSTORE PUSH32 0x57616C6C6574206973206E6F7420616E2061646D696E6973747261746F722066 PUSH1 0x44 DUP3 ADD MSTORE PUSH11 0x1BDC8818DBDB9D1C9858DD PUSH1 0xAA SHL PUSH1 0x64 DUP3 ADD MSTORE PUSH1 0x84 ADD JUMPDEST PUSH1 0x40 MLOAD DUP1 SWAP2 SUB SWAP1 REVERT JUMPDEST PUSH1 0x0 PUSH2 0x3A2 PUSH1 0xA0 DUP7 ADD PUSH1 0x80 DUP8 ADD PUSH2 0x2C87 JUMP JUMPDEST PUSH1 0x3 DUP2 GT ISZERO PUSH2 0x3B3 JUMPI PUSH2 0x3B3 PUSH2 0x2802 JUMP JUMPDEST SUB PUSH2 0x426 JUMPI PUSH1 0x40 MLOAD PUSH3 0x461BCD PUSH1 0xE5 SHL DUP2 MSTORE PUSH1 0x20 PUSH1 0x4 DUP3 ADD MSTORE PUSH1 0x2F PUSH1 0x24 DUP3 ADD MSTORE PUSH32 0x43616E6E6F7420696E697469616C697A65207769746820696E76616C69642073 PUSH1 0x44 DUP3 ADD MSTORE PUSH32 0x746F726167652070726F746F636F6C0000000000000000000000000000000000 PUSH1 0x64 DUP3 ADD MSTORE PUSH1 0x84 ADD PUSH2 0x387 JUMP JUMPDEST PUSH2 0x436 PUSH1 0x80 DUP6 ADD PUSH1 0x60 DUP7 ADD PUSH2 0x2CA8 JUMP JUMPDEST PUSH6 0xFFFFFFFFFFFF AND ISZERO DUP1 PUSH2 0x477 JUMPI POP PUSH2 0x455 PUSH1 0x80 DUP6 ADD PUSH1 0x60 DUP7 ADD PUSH2 0x2CA8 JUMP JUMPDEST PUSH6 0xFFFFFFFFFFFF AND PUSH2 0x46D PUSH1 0x60 DUP7 ADD PUSH1 0x40 DUP8 ADD PUSH2 0x2CA8 JUMP JUMPDEST PUSH6 0xFFFFFFFFFFFF AND LT JUMPDEST PUSH2 0x4E9 JUMPI PUSH1 0x40 MLOAD PUSH3 0x461BCD PUSH1 0xE5 SHL DUP2 MSTORE PUSH1 0x20 PUSH1 0x4 DUP3 ADD MSTORE PUSH1 0x36 PUSH1 0x24 DUP3 ADD MSTORE PUSH32 0x43616E6E6F742068617665207374617274446174652067726561746572207468 PUSH1 0x44 DUP3 ADD MSTORE PUSH32 0x616E206F7220657175616C20746F20656E644461746500000000000000000000 PUSH1 0x64 DUP3 ADD MSTORE PUSH1 0x84 ADD PUSH2 0x387 JUMP JUMPDEST PUSH1 0xC0 DUP5 ADD CALLDATALOAD ISZERO DUP1 PUSH2 0x50D JUMPI POP PUSH2 0x505 PUSH1 0x40 DUP6 ADD PUSH1 0x20 DUP7 ADD PUSH2 0x2CD0 JUMP JUMPDEST PUSH4 0xFFFFFFFF AND ISZERO JUMPDEST PUSH2 0x57F JUMPI PUSH1 0x40 MLOAD PUSH3 0x461BCD PUSH1 0xE5 SHL DUP2 MSTORE PUSH1 0x20 PUSH1 0x4 DUP3 ADD MSTORE PUSH1 0x31 PUSH1 0x24 DUP3 ADD MSTORE PUSH32 0x43616E6E6F742070726F7669646520626F7468206D696E747350657257616C6C PUSH1 0x44 DUP3 ADD MSTORE PUSH32 0x657420616E64206D65726B6C65526F6F74000000000000000000000000000000 PUSH1 0x64 DUP3 ADD MSTORE PUSH1 0x84 ADD PUSH2 0x387 JUMP JUMPDEST PUSH1 0x1 PUSH1 0x1 PUSH1 0xA0 SHL SUB DUP6 AND PUSH1 0x0 SWAP1 DUP2 MSTORE PUSH1 0x1 PUSH1 0x20 MSTORE PUSH1 0x40 DUP2 KECCAK256 DUP1 SLOAD PUSH1 0x1 PUSH1 0x1 PUSH1 0xE0 SHL SUB AND SWAP2 PUSH2 0x5AC DUP4 PUSH2 0x2D01 JUMP JUMPDEST DUP3 SLOAD PUSH2 0x100 SWAP3 SWAP1 SWAP3 EXP PUSH1 0x1 PUSH1 0x1 PUSH1 0xE0 SHL SUB DUP2 DUP2 MUL NOT SWAP1 SWAP4 AND SWAP2 DUP4 AND MUL OR SWAP1 SWAP2 SSTORE PUSH1 0x1 PUSH1 0x1 PUSH1 0xA0 SHL SUB DUP8 AND PUSH1 0x0 SWAP1 DUP2 MSTORE PUSH1 0x1 PUSH1 0x20 SWAP1 DUP2 MSTORE PUSH1 0x40 DUP1 DUP4 KECCAK256 SLOAD DUP2 MLOAD PUSH2 0x120 DUP2 ADD SWAP1 SWAP3 MSTORE SWAP3 DUP2 MSTORE SWAP2 SWAP1 SWAP3 AND SWAP3 POP SWAP1 DUP2 DUP2 ADD SWAP1 PUSH2 0x60C SWAP1 DUP9 ADD DUP9 PUSH2 0x2CD0 JUMP JUMPDEST PUSH4 0xFFFFFFFF AND DUP2 MSTORE PUSH1 0x20 ADD DUP7 PUSH1 0x20 ADD PUSH1 0x20 DUP2 ADD SWAP1 PUSH2 0x62A SWAP2 SWAP1 PUSH2 0x2CD0 JUMP JUMPDEST PUSH4 0xFFFFFFFF AND DUP2 MSTORE PUSH1 0x20 ADD PUSH2 0x645 PUSH1 0x60 DUP9 ADD PUSH1 0x40 DUP10 ADD PUSH2 0x2CA8 JUMP JUMPDEST PUSH6 0xFFFFFFFFFFFF AND DUP2 MSTORE PUSH1 0x20 ADD PUSH2 0x662 PUSH1 0x80 DUP9 ADD PUSH1 0x60 DUP10 ADD PUSH2 0x2CA8 JUMP JUMPDEST PUSH6 0xFFFFFFFFFFFF AND DUP2 MSTORE PUSH1 0x20 ADD PUSH2 0x67F PUSH1 0xA0 DUP9 ADD PUSH1 0x80 DUP10 ADD PUSH2 0x2C87 JUMP JUMPDEST PUSH1 0x3 DUP2 GT ISZERO PUSH2 0x690 JUMPI PUSH2 0x690 PUSH2 0x2802 JUMP JUMPDEST DUP2 MSTORE PUSH1 0x20 ADD PUSH2 0x6A5 PUSH1 0xC0 DUP9 ADD PUSH1 0xA0 DUP10 ADD PUSH2 0x2D27 JUMP JUMPDEST ISZERO ISZERO DUP2 MSTORE PUSH1 0xC0 DUP8 ADD CALLDATALOAD PUSH1 0x20 DUP3 ADD MSTORE PUSH1 0x40 ADD PUSH2 0x6C3 PUSH1 0xE0 DUP9 ADD DUP9 PUSH2 0x2D44 JUMP JUMPDEST DUP1 DUP1 PUSH1 0x1F ADD PUSH1 0x20 DUP1 SWAP2 DIV MUL PUSH1 0x20 ADD PUSH1 0x40 MLOAD SWAP1 DUP2 ADD PUSH1 0x40 MSTORE DUP1 SWAP4 SWAP3 SWAP2 SWAP1 DUP2 DUP2 MSTORE PUSH1 0x20 ADD DUP4 DUP4 DUP1 DUP3 DUP5 CALLDATACOPY PUSH1 0x0 SWAP3 ADD DUP3 SWAP1 MSTORE POP SWAP4 SWAP1 SWAP5 MSTORE POP POP PUSH1 0x1 PUSH1 0x1 PUSH1 0xA0 SHL SUB DUP10 AND DUP2 MSTORE PUSH1 0x2 PUSH1 0x20 SWAP1 DUP2 MSTORE PUSH1 0x40 DUP1 DUP4 KECCAK256 PUSH1 0x1 PUSH1 0x1 PUSH1 0xE0 SHL SUB DUP8 AND DUP5 MSTORE DUP3 MSTORE SWAP2 DUP3 SWAP1 KECCAK256 DUP5 MLOAD DUP2 SLOAD SWAP3 DUP7 ADD MLOAD SWAP4 DUP7 ADD MLOAD PUSH1 0x60 DUP8 ADD MLOAD PUSH1 0x80 DUP9 ADD MLOAD PUSH6 0xFFFFFFFFFFFF SWAP1 DUP2 AND PUSH1 0x1 PUSH1 0x90 SHL MUL PUSH32 0xFFFFFFFFFFFFFFFF000000000000FFFFFFFFFFFFFFFFFFFFFFFFFFFFFFFFFFFF SWAP2 SWAP1 SWAP3 AND PUSH1 0x1 PUSH1 0x60 SHL MUL PUSH18 0xFFFFFFFFFFFF000000000000000000000000 NOT PUSH4 0xFFFFFFFF SWAP5 DUP6 AND PUSH1 0x1 PUSH1 0x40 SHL MUL AND PUSH18 0xFFFFFFFFFFFFFFFFFFFF0000000000000000 NOT SWAP9 DUP6 AND PUSH5 0x100000000 MUL PUSH8 0xFFFFFFFFFFFFFFFF NOT SWAP1 SWAP9 AND SWAP5 SWAP1 SWAP6 AND SWAP4 SWAP1 SWAP4 OR SWAP6 SWAP1 SWAP6 OR SWAP6 SWAP1 SWAP6 AND SWAP2 SWAP1 SWAP2 OR OR SWAP2 DUP3 AND DUP4 OR DUP2 SSTORE PUSH1 0xA0 DUP6 ADD MLOAD SWAP1 SWAP4 POP SWAP2 DUP4 SWAP2 PUSH1 0xFF PUSH1 0xC0 SHL NOT SWAP1 SWAP2 AND PUSH32 0xFFFFFFFFFFFFFF00000000000000FFFFFFFFFFFFFFFFFFFFFFFFFFFFFFFFFFFF SWAP1 SWAP2 AND OR PUSH1 0x1 PUSH1 0xC0 SHL DUP4 PUSH1 0x3 DUP2 GT ISZERO PUSH2 0x82E JUMPI PUSH2 0x82E PUSH2 0x2802 JUMP JUMPDEST MUL OR SWAP1 SSTORE POP PUSH1 0xC0 DUP3 ADD MLOAD DUP2 SLOAD SWAP1 ISZERO ISZERO PUSH1 0x1 PUSH1 0xC8 SHL MUL PUSH1 0xFF PUSH1 0xC8 SHL NOT SWAP1 SWAP2 AND OR DUP2 SSTORE PUSH1 0xE0 DUP3 ADD MLOAD PUSH1 0x1 DUP3 ADD SSTORE PUSH2 0x100 DUP3 ADD MLOAD DUP1 MLOAD PUSH2 0x875 SWAP2 PUSH1 0x2 DUP5 ADD SWAP2 PUSH1 0x20 SWAP1 SWAP2 ADD SWAP1 PUSH2 0x268B JUMP JUMPDEST POP POP PUSH1 0x40 MLOAD CALLER DUP2 MSTORE PUSH1 0x1 PUSH1 0x1 PUSH1 0xE0 SHL SUB DUP4 AND SWAP2 POP PUSH1 0x1 PUSH1 0x1 PUSH1 0xA0 SHL SUB DUP9 AND SWAP1 PUSH32 0xCF76E1BEB8DCF887C917933E1D0970EAFADB9A69B82CFD5F44740A0DCE6F45A6 SWAP1 PUSH1 0x20 ADD PUSH1 0x40 MLOAD DUP1 SWAP2 SUB SWAP1 LOG3 PUSH1 0x1 PUSH1 0x1 PUSH1 0xE0 SHL SUB AND SWAP6 SWAP5 POP POP POP POP POP JUMP JUMPDEST PUSH2 0x920 PUSH1 0x40 DUP1 MLOAD PUSH2 0x120 DUP2 ADD DUP3 MSTORE PUSH1 0x0 DUP1 DUP3 MSTORE PUSH1 0x20 DUP3 ADD DUP2 SWAP1 MSTORE SWAP2 DUP2 ADD DUP3 SWAP1 MSTORE PUSH1 0x60 DUP2 ADD DUP3 SWAP1 MSTORE PUSH1 0x80 DUP2 ADD DUP3 SWAP1 MSTORE SWAP1 PUSH1 0xA0 DUP3 ADD SWAP1 DUP2 MSTORE PUSH1 0x0 PUSH1 0x20 DUP3 ADD DUP2 SWAP1 MSTORE PUSH1 0x40 DUP3 ADD MSTORE PUSH1 0x60 SWAP1 DUP2 ADD MSTORE SWAP1 JUMP JUMPDEST PUSH1 0x0 PUSH1 0x1 PUSH1 0x1 PUSH1 0xA0 SHL SUB DUP5 AND PUSH1 0x0 SWAP1 DUP2 MSTORE PUSH1 0x2 PUSH1 0x20 SWAP1 DUP2 MSTORE PUSH1 0x40 DUP1 DUP4 KECCAK256 DUP7 DUP5 MSTORE SWAP1 SWAP2 MSTORE SWAP1 KECCAK256 SLOAD PUSH1 0x1 PUSH1 0xC0 SHL SWAP1 DIV PUSH1 0xFF AND PUSH1 0x3 DUP2 GT ISZERO PUSH2 0x961 JUMPI PUSH2 0x961 PUSH2 0x2802 JUMP JUMPDEST SUB PUSH2 0x9A6 JUMPI PUSH1 0x40 MLOAD PUSH3 0x461BCD PUSH1 0xE5 SHL DUP2 MSTORE PUSH1 0x20 PUSH1 0x4 DUP3 ADD MSTORE PUSH1 0x15 PUSH1 0x24 DUP3 ADD MSTORE PUSH21 0x10DB185A5B481B9BDD081A5B9A5D1A585B1A5E9959 PUSH1 0x5A SHL PUSH1 0x44 DUP3 ADD MSTORE PUSH1 0x64 ADD PUSH2 0x387 JUMP JUMPDEST PUSH1 0x1 PUSH1 0x1 PUSH1 0xA0 SHL SUB DUP4 AND PUSH1 0x0 SWAP1 DUP2 MSTORE PUSH1 0x2 PUSH1 0x20 SWAP1 DUP2 MSTORE PUSH1 0x40 DUP1 DUP4 KECCAK256 DUP6 DUP5 MSTORE DUP3 MSTORE SWAP2 DUP3 SWAP1 KECCAK256 DUP3 MLOAD PUSH2 0x120 DUP2 ADD DUP5 MSTORE DUP2 SLOAD PUSH4 0xFFFFFFFF DUP1 DUP3 AND DUP4 MSTORE PUSH5 0x100000000 DUP3 DIV DUP2 AND SWAP5 DUP4 ADD SWAP5 SWAP1 SWAP5 MSTORE PUSH1 0x1 PUSH1 0x40 SHL DUP2 DIV SWAP1 SWAP4 AND SWAP4 DUP2 ADD SWAP4 SWAP1 SWAP4 MSTORE PUSH6 0xFFFFFFFFFFFF PUSH1 0x1 PUSH1 0x60 SHL DUP4 DIV DUP2 AND PUSH1 0x60 DUP6 ADD MSTORE PUSH1 0x1 PUSH1 0x90 SHL DUP4 DIV AND PUSH1 0x80 DUP5 ADD MSTORE SWAP1 PUSH1 0xA0 DUP4 ADD SWAP1 PUSH1 0xFF PUSH1 0x1 PUSH1 0xC0 SHL SWAP1 SWAP2 DIV AND PUSH1 0x3 DUP2 GT ISZERO PUSH2 0xA45 JUMPI PUSH2 0xA45 PUSH2 0x2802 JUMP JUMPDEST PUSH1 0x3 DUP2 GT ISZERO PUSH2 0xA56 JUMPI PUSH2 0xA56 PUSH2 0x2802 JUMP JUMPDEST DUP2 MSTORE DUP2 SLOAD PUSH1 0x1 PUSH1 0xC8 SHL SWAP1 DIV PUSH1 0xFF AND ISZERO ISZERO PUSH1 0x20 DUP3 ADD MSTORE PUSH1 0x1 DUP3 ADD SLOAD PUSH1 0x40 DUP3 ADD MSTORE PUSH1 0x2 DUP3 ADD DUP1 SLOAD PUSH1 0x60 SWAP1 SWAP3 ADD SWAP2 PUSH2 0xA8A SWAP1 PUSH2 0x2D8B JUMP JUMPDEST DUP1 PUSH1 0x1F ADD PUSH1 0x20 DUP1 SWAP2 DIV MUL PUSH1 0x20 ADD PUSH1 0x40 MLOAD SWAP1 DUP2 ADD PUSH1 0x40 MSTORE DUP1 SWAP3 SWAP2 SWAP1 DUP2 DUP2 MSTORE PUSH1 0x20 ADD DUP3 DUP1 SLOAD PUSH2 0xAB6 SWAP1 PUSH2 0x2D8B JUMP JUMPDEST DUP1 ISZERO PUSH2 0xB03 JUMPI DUP1 PUSH1 0x1F LT PUSH2 0xAD8 JUMPI PUSH2 0x100 DUP1 DUP4 SLOAD DIV MUL DUP4 MSTORE SWAP2 PUSH1 0x20 ADD SWAP2 PUSH2 0xB03 JUMP JUMPDEST DUP3 ADD SWAP2 SWAP1 PUSH1 0x0 MSTORE PUSH1 0x20 PUSH1 0x0 KECCAK256 SWAP1 JUMPDEST DUP2 SLOAD DUP2 MSTORE SWAP1 PUSH1 0x1 ADD SWAP1 PUSH1 0x20 ADD DUP1 DUP4 GT PUSH2 0xAE6 JUMPI DUP3 SWAP1 SUB PUSH1 0x1F AND DUP3 ADD SWAP2 JUMPDEST POP POP POP POP POP DUP2 MSTORE POP POP SWAP1 POP SWAP3 SWAP2 POP POP JUMP JUMPDEST PUSH1 0x40 MLOAD PUSH4 0x935E01B PUSH1 0xE2 SHL DUP2 MSTORE CALLER PUSH1 0x4 DUP3 ADD MSTORE DUP4 SWAP1 DUP2 SWAP1 PUSH1 0x1 PUSH1 0x1 PUSH1 0xA0 SHL SUB DUP3 AND SWAP1 PUSH4 0x24D7806C SWAP1 PUSH1 0x24 ADD PUSH1 0x20 PUSH1 0x40 MLOAD DUP1 DUP4 SUB DUP2 DUP7 GAS STATICCALL ISZERO DUP1 ISZERO PUSH2 0xB5C JUMPI RETURNDATASIZE PUSH1 0x0 DUP1 RETURNDATACOPY RETURNDATASIZE PUSH1 0x0 REVERT JUMPDEST POP POP POP POP PUSH1 0x40 MLOAD RETURNDATASIZE PUSH1 0x1F NOT PUSH1 0x1F DUP3 ADD AND DUP3 ADD DUP1 PUSH1 0x40 MSTORE POP DUP2 ADD SWAP1 PUSH2 0xB80 SWAP2 SWAP1 PUSH2 0x2C6A JUMP JUMPDEST PUSH2 0xBE0 JUMPI PUSH1 0x40 MLOAD PUSH3 0x461BCD PUSH1 0xE5 SHL DUP2 MSTORE PUSH1 0x20 PUSH1 0x4 DUP3 ADD MSTORE PUSH1 0x2B PUSH1 0x24 DUP3 ADD MSTORE PUSH32 0x57616C6C6574206973206E6F7420616E2061646D696E6973747261746F722066 PUSH1 0x44 DUP3 ADD MSTORE PUSH11 0x1BDC8818DBDB9D1C9858DD PUSH1 0xAA SHL PUSH1 0x64 DUP3 ADD MSTORE PUSH1 0x84 ADD PUSH2 0x387 JUMP JUMPDEST PUSH1 0x0 PUSH1 0x1 PUSH1 0x1 PUSH1 0xA0 SHL SUB DUP7 AND PUSH1 0x0 SWAP1 DUP2 MSTORE PUSH1 0x2 PUSH1 0x20 SWAP1 DUP2 MSTORE PUSH1 0x40 DUP1 DUP4 KECCAK256 DUP9 DUP5 MSTORE SWAP1 SWAP2 MSTORE SWAP1 KECCAK256 SLOAD PUSH1 0x1 PUSH1 0xC0 SHL SWAP1 DIV PUSH1 0xFF AND PUSH1 0x3 DUP2 GT ISZERO PUSH2 0xC21 JUMPI PUSH2 0xC21 PUSH2 0x2802 JUMP JUMPDEST SUB PUSH2 0xC66 JUMPI PUSH1 0x40 MLOAD PUSH3 0x461BCD PUSH1 0xE5 SHL DUP2 MSTORE PUSH1 0x20 PUSH1 0x4 DUP3 ADD MSTORE PUSH1 0x15 PUSH1 0x24 DUP3 ADD MSTORE PUSH21 0x10DB185A5B481B9BDD081A5B9A5D1A585B1A5E9959 PUSH1 0x5A SHL PUSH1 0x44 DUP3 ADD MSTORE PUSH1 0x64 ADD PUSH2 0x387 JUMP JUMPDEST PUSH1 0x0 PUSH2 0xC78 PUSH1 0xA0 DUP6 ADD PUSH1 0x80 DUP7 ADD PUSH2 0x2C87 JUMP JUMPDEST PUSH1 0x3 DUP2 GT ISZERO PUSH2 0xC89 JUMPI PUSH2 0xC89 PUSH2 0x2802 JUMP JUMPDEST SUB PUSH2 0xCFC JUMPI PUSH1 0x40 MLOAD PUSH3 0x461BCD PUSH1 0xE5 SHL DUP2 MSTORE PUSH1 0x20 PUSH1 0x4 DUP3 ADD MSTORE PUSH1 0x23 PUSH1 0x24 DUP3 ADD MSTORE PUSH32 0x43616E6E6F742073657420696E76616C69642073746F726167652070726F746F PUSH1 0x44 DUP3 ADD MSTORE PUSH32 0x636F6C0000000000000000000000000000000000000000000000000000000000 PUSH1 0x64 DUP3 ADD MSTORE PUSH1 0x84 ADD PUSH2 0x387 JUMP JUMPDEST PUSH1 0x1 PUSH1 0x1 PUSH1 0xA0 SHL SUB DUP6 AND PUSH1 0x0 SWAP1 DUP2 MSTORE PUSH1 0x2 PUSH1 0x20 SWAP1 DUP2 MSTORE PUSH1 0x40 DUP1 DUP4 KECCAK256 DUP8 DUP5 MSTORE SWAP1 SWAP2 MSTORE SWAP1 KECCAK256 SLOAD PUSH5 0x100000000 SWAP1 DIV PUSH4 0xFFFFFFFF AND ISZERO DUP1 PUSH2 0xD7D JUMPI POP PUSH2 0xD42 PUSH1 0x20 DUP5 ADD DUP5 PUSH2 0x2CD0 JUMP JUMPDEST PUSH1 0x1 PUSH1 0x1 PUSH1 0xA0 SHL SUB DUP7 AND PUSH1 0x0 SWAP1 DUP2 MSTORE PUSH1 0x2 PUSH1 0x20 SWAP1 DUP2 MSTORE PUSH1 0x40 DUP1 DUP4 KECCAK256 DUP9 DUP5 MSTORE SWAP1 SWAP2 MSTORE SWAP1 KECCAK256 SLOAD PUSH4 0xFFFFFFFF SWAP2 DUP3 AND PUSH5 0x100000000 SWAP1 SWAP2 DIV SWAP1 SWAP2 AND GT ISZERO JUMPDEST PUSH2 0xDC9 JUMPI PUSH1 0x40 MLOAD PUSH3 0x461BCD PUSH1 0xE5 SHL DUP2 MSTORE PUSH1 0x20 PUSH1 0x4 DUP3 ADD MSTORE PUSH1 0x18 PUSH1 0x24 DUP3 ADD MSTORE PUSH32 0x43616E6E6F7420646563726561736520746F74616C4D61780000000000000000 PUSH1 0x44 DUP3 ADD MSTORE PUSH1 0x64 ADD PUSH2 0x387 JUMP JUMPDEST PUSH1 0x1 PUSH1 0x1 PUSH1 0xA0 SHL SUB DUP6 AND PUSH1 0x0 SWAP1 DUP2 MSTORE PUSH1 0x2 PUSH1 0x20 SWAP1 DUP2 MSTORE PUSH1 0x40 DUP1 DUP4 KECCAK256 DUP8 DUP5 MSTORE SWAP1 SWAP2 MSTORE SWAP1 KECCAK256 SLOAD PUSH1 0x1 PUSH1 0x40 SHL SWAP1 DIV PUSH4 0xFFFFFFFF AND ISZERO DUP1 PUSH2 0xE4B JUMPI POP PUSH2 0xE11 PUSH1 0x40 DUP5 ADD PUSH1 0x20 DUP6 ADD PUSH2 0x2CD0 JUMP JUMPDEST PUSH1 0x1 PUSH1 0x1 PUSH1 0xA0 SHL SUB DUP7 AND PUSH1 0x0 SWAP1 DUP2 MSTORE PUSH1 0x2 PUSH1 0x20 SWAP1 DUP2 MSTORE PUSH1 0x40 DUP1 DUP4 KECCAK256 DUP9 DUP5 MSTORE SWAP1 SWAP2 MSTORE SWAP1 KECCAK256 SLOAD PUSH4 0xFFFFFFFF SWAP2 DUP3 AND PUSH1 0x1 PUSH1 0x40 SHL SWAP1 SWAP2 DIV SWAP1 SWAP2 AND GT ISZERO JUMPDEST PUSH2 0xE97 JUMPI PUSH1 0x40 MLOAD PUSH3 0x461BCD PUSH1 0xE5 SHL DUP2 MSTORE PUSH1 0x20 PUSH1 0x4 DUP3 ADD MSTORE PUSH1 0x19 PUSH1 0x24 DUP3 ADD MSTORE PUSH32 0x43616E6E6F742064656372656173652077616C6C65744D617800000000000000 PUSH1 0x44 DUP3 ADD MSTORE PUSH1 0x64 ADD PUSH2 0x387 JUMP JUMPDEST PUSH2 0xEA7 PUSH1 0x80 DUP5 ADD PUSH1 0x60 DUP6 ADD PUSH2 0x2CA8 JUMP JUMPDEST PUSH6 0xFFFFFFFFFFFF AND ISZERO DUP1 PUSH2 0xEE8 JUMPI POP PUSH2 0xEC6 PUSH1 0x80 DUP5 ADD PUSH1 0x60 DUP6 ADD PUSH2 0x2CA8 JUMP JUMPDEST PUSH6 0xFFFFFFFFFFFF AND PUSH2 0xEDE PUSH1 0x60 DUP6 ADD PUSH1 0x40 DUP7 ADD PUSH2 0x2CA8 JUMP JUMPDEST PUSH6 0xFFFFFFFFFFFF AND LT JUMPDEST PUSH2 0xF5A JUMPI PUSH1 0x40 MLOAD PUSH3 0x461BCD PUSH1 0xE5 SHL DUP2 MSTORE PUSH1 0x20 PUSH1 0x4 DUP3 ADD MSTORE PUSH1 0x36 PUSH1 0x24 DUP3 ADD MSTORE PUSH32 0x43616E6E6F742068617665207374617274446174652067726561746572207468 PUSH1 0x44 DUP3 ADD MSTORE PUSH32 0x616E206F7220657175616C20746F20656E644461746500000000000000000000 PUSH1 0x64 DUP3 ADD MSTORE PUSH1 0x84 ADD PUSH2 0x387 JUMP JUMPDEST PUSH1 0x40 DUP1 MLOAD PUSH2 0x120 DUP2 ADD DUP3 MSTORE PUSH1 0x1 PUSH1 0x1 PUSH1 0xA0 SHL SUB DUP8 AND PUSH1 0x0 SWAP1 DUP2 MSTORE PUSH1 0x2 PUSH1 0x20 SWAP1 DUP2 MSTORE DUP4 DUP3 KECCAK256 DUP9 DUP4 MSTORE DUP2 MSTORE SWAP3 SWAP1 KECCAK256 SLOAD PUSH4 0xFFFFFFFF AND DUP2 MSTORE SWAP1 DUP1 DUP3 ADD SWAP1 PUSH2 0xFA0 SWAP1 DUP7 ADD DUP7 PUSH2 0x2CD0 JUMP JUMPDEST PUSH4 0xFFFFFFFF AND DUP2 MSTORE PUSH1 0x20 ADD DUP5 PUSH1 0x20 ADD PUSH1 0x20 DUP2 ADD SWAP1 PUSH2 0xFBE SWAP2 SWAP1 PUSH2 0x2CD0 JUMP JUMPDEST PUSH4 0xFFFFFFFF AND DUP2 MSTORE PUSH1 0x20 ADD PUSH2 0xFD9 PUSH1 0x60 DUP7 ADD PUSH1 0x40 DUP8 ADD PUSH2 0x2CA8 JUMP JUMPDEST PUSH6 0xFFFFFFFFFFFF AND DUP2 MSTORE PUSH1 0x20 ADD PUSH2 0xFF6 PUSH1 0x80 DUP7 ADD PUSH1 0x60 DUP8 ADD PUSH2 0x2CA8 JUMP JUMPDEST PUSH6 0xFFFFFFFFFFFF AND DUP2 MSTORE PUSH1 0x20 ADD PUSH2 0x1013 PUSH1 0xA0 DUP7 ADD PUSH1 0x80 DUP8 ADD PUSH2 0x2C87 JUMP JUMPDEST PUSH1 0x3 DUP2 GT ISZERO PUSH2 0x1024 JUMPI PUSH2 0x1024 PUSH2 0x2802 JUMP JUMPDEST DUP2 MSTORE PUSH1 0x20 ADD PUSH2 0x1039 PUSH1 0xC0 DUP7 ADD PUSH1 0xA0 DUP8 ADD PUSH2 0x2D27 JUMP JUMPDEST ISZERO ISZERO DUP2 MSTORE PUSH1 0xC0 DUP6 ADD CALLDATALOAD PUSH1 0x20 DUP3 ADD MSTORE PUSH1 0x40 ADD PUSH2 0x1057 PUSH1 0xE0 DUP7 ADD DUP7 PUSH2 0x2D44 JUMP JUMPDEST DUP1 DUP1 PUSH1 0x1F ADD PUSH1 0x20 DUP1 SWAP2 DIV MUL PUSH1 0x20 ADD PUSH1 0x40 MLOAD SWAP1 DUP2 ADD PUSH1 0x40 MSTORE DUP1 SWAP4 SWAP3 SWAP2 SWAP1 DUP2 DUP2 MSTORE PUSH1 0x20 ADD DUP4 DUP4 DUP1 DUP3 DUP5 CALLDATACOPY PUSH1 0x0 SWAP3 ADD DUP3 SWAP1 MSTORE POP SWAP4 SWAP1 SWAP5 MSTORE POP POP PUSH1 0x1 PUSH1 0x1 PUSH1 0xA0 SHL SUB DUP9 AND DUP2 MSTORE PUSH1 0x2 PUSH1 0x20 SWAP1 DUP2 MSTORE PUSH1 0x40 DUP1 DUP4 KECCAK256 DUP10 DUP5 MSTORE DUP3 MSTORE SWAP2 DUP3 SWAP1 KECCAK256 DUP5 MLOAD DUP2 SLOAD SWAP3 DUP7 ADD MLOAD SWAP4 DUP7 ADD MLOAD PUSH1 0x60 DUP8 ADD MLOAD PUSH1 0x80 DUP9 ADD MLOAD PUSH6 0xFFFFFFFFFFFF SWAP1 DUP2 AND PUSH1 0x1 PUSH1 0x90 SHL MUL PUSH32 0xFFFFFFFFFFFFFFFF000000000000FFFFFFFFFFFFFFFFFFFFFFFFFFFFFFFFFFFF SWAP2 SWAP1 SWAP3 AND PUSH1 0x1 PUSH1 0x60 SHL MUL PUSH18 0xFFFFFFFFFFFF000000000000000000000000 NOT PUSH4 0xFFFFFFFF SWAP5 DUP6 AND PUSH1 0x1 PUSH1 0x40 SHL MUL AND PUSH18 0xFFFFFFFFFFFFFFFFFFFF0000000000000000 NOT SWAP9 DUP6 AND PUSH5 0x100000000 MUL PUSH8 0xFFFFFFFFFFFFFFFF NOT SWAP1 SWAP9 AND SWAP5 SWAP1 SWAP6 AND SWAP4 SWAP1 SWAP4 OR SWAP6 SWAP1 SWAP6 OR SWAP6 SWAP1 SWAP6 AND SWAP2 SWAP1 SWAP2 OR OR SWAP2 DUP3 AND DUP4 OR DUP2 SSTORE PUSH1 0xA0 DUP6 ADD MLOAD SWAP1 SWAP4 POP SWAP2 DUP4 SWAP2 PUSH1 0xFF PUSH1 0xC0 SHL NOT SWAP1 SWAP2 AND PUSH32 0xFFFFFFFFFFFFFF00000000000000FFFFFFFFFFFFFFFFFFFFFFFFFFFFFFFFFFFF SWAP1 SWAP2 AND OR PUSH1 0x1 PUSH1 0xC0 SHL DUP4 PUSH1 0x3 DUP2 GT ISZERO PUSH2 0x11B9 JUMPI PUSH2 0x11B9 PUSH2 0x2802 JUMP JUMPDEST MUL OR SWAP1 SSTORE POP PUSH1 0xC0 DUP3 ADD MLOAD DUP2 SLOAD SWAP1 ISZERO ISZERO PUSH1 0x1 PUSH1 0xC8 SHL MUL PUSH1 0xFF PUSH1 0xC8 SHL NOT SWAP1 SWAP2 AND OR DUP2 SSTORE PUSH1 0xE0 DUP3 ADD MLOAD PUSH1 0x1 DUP3 ADD SSTORE PUSH2 0x100 DUP3 ADD MLOAD DUP1 MLOAD PUSH2 0x1200 SWAP2 PUSH1 0x2 DUP5 ADD SWAP2 PUSH1 0x20 SWAP1 SWAP2 ADD SWAP1 PUSH2 0x268B JUMP JUMPDEST POP POP POP POP POP POP POP POP JUMP JUMPDEST PUSH1 0x1 PUSH1 0x1 PUSH1 0xA0 SHL SUB DUP8 AND PUSH1 0x0 SWAP1 DUP2 MSTORE PUSH1 0x2 PUSH1 0x20 SWAP1 DUP2 MSTORE PUSH1 0x40 DUP1 DUP4 KECCAK256 DUP10 DUP5 MSTORE SWAP1 SWAP2 MSTORE DUP2 KECCAK256 SWAP1 DUP2 SLOAD PUSH1 0x1 PUSH1 0xC0 SHL SWAP1 DIV PUSH1 0xFF AND PUSH1 0x3 DUP2 GT ISZERO PUSH2 0x124B JUMPI PUSH2 0x124B PUSH2 0x2802 JUMP JUMPDEST SUB PUSH2 0x1290 JUMPI PUSH1 0x40 MLOAD PUSH3 0x461BCD PUSH1 0xE5 SHL DUP2 MSTORE PUSH1 0x20 PUSH1 0x4 DUP3 ADD MSTORE PUSH1 0x15 PUSH1 0x24 DUP3 ADD MSTORE PUSH21 0x10DB185A5B481B9BDD081A5B9A5D1A585B1A5E9959 PUSH1 0x5A SHL PUSH1 0x44 DUP3 ADD MSTORE PUSH1 0x64 ADD PUSH2 0x387 JUMP JUMPDEST DUP1 SLOAD PUSH1 0x1 PUSH1 0x60 SHL SWAP1 DIV PUSH6 0xFFFFFFFFFFFF AND ISZERO DUP1 PUSH2 0x12BD JUMPI POP DUP1 SLOAD TIMESTAMP PUSH1 0x1 PUSH1 0x60 SHL SWAP1 SWAP2 DIV PUSH6 0xFFFFFFFFFFFF AND LT JUMPDEST PUSH2 0x1309 JUMPI PUSH1 0x40 MLOAD PUSH3 0x461BCD PUSH1 0xE5 SHL DUP2 MSTORE PUSH1 0x20 PUSH1 0x4 DUP3 ADD MSTORE PUSH1 0x1D PUSH1 0x24 DUP3 ADD MSTORE PUSH32 0x5472616E73616374696F6E206265666F72652073746172742064617465000000 PUSH1 0x44 DUP3 ADD MSTORE PUSH1 0x64 ADD PUSH2 0x387 JUMP JUMPDEST DUP1 SLOAD PUSH1 0x1 PUSH1 0x90 SHL SWAP1 DIV PUSH6 0xFFFFFFFFFFFF AND ISZERO DUP1 PUSH2 0x1337 JUMPI POP DUP1 SLOAD TIMESTAMP PUSH1 0x1 PUSH1 0x90 SHL SWAP1 SWAP2 DIV PUSH6 0xFFFFFFFFFFFF AND LT ISZERO JUMPDEST PUSH2 0x1383 JUMPI PUSH1 0x40 MLOAD PUSH3 0x461BCD PUSH1 0xE5 SHL DUP2 MSTORE PUSH1 0x20 PUSH1 0x4 DUP3 ADD MSTORE PUSH1 0x1A PUSH1 0x24 DUP3 ADD MSTORE PUSH32 0x5472616E73616374696F6E20616674657220656E642064617465000000000000 PUSH1 0x44 DUP3 ADD MSTORE PUSH1 0x64 ADD PUSH2 0x387 JUMP JUMPDEST DUP1 SLOAD PUSH5 0x100000000 SWAP1 DIV PUSH4 0xFFFFFFFF AND ISZERO DUP1 PUSH2 0x13C5 JUMPI POP DUP1 SLOAD PUSH4 0xFFFFFFFF PUSH5 0x100000000 DUP3 DIV DUP2 AND SWAP2 PUSH2 0x13BC SWAP2 PUSH2 0xFFFF DUP11 AND SWAP2 AND PUSH2 0x2DBF JUMP JUMPDEST PUSH4 0xFFFFFFFF AND GT ISZERO JUMPDEST PUSH2 0x1437 JUMPI PUSH1 0x40 MLOAD PUSH3 0x461BCD PUSH1 0xE5 SHL DUP2 MSTORE PUSH1 0x20 PUSH1 0x4 DUP3 ADD MSTORE PUSH1 0x21 PUSH1 0x24 DUP3 ADD MSTORE PUSH32 0x546F6F206D616E792072657175657374656420666F72207468697320636C6169 PUSH1 0x44 DUP3 ADD MSTORE PUSH32 0x6D00000000000000000000000000000000000000000000000000000000000000 PUSH1 0x64 DUP3 ADD MSTORE PUSH1 0x84 ADD PUSH2 0x387 JUMP JUMPDEST DUP1 SLOAD PUSH1 0x0 SWAP1 PUSH2 0x144D SWAP1 PUSH4 0xFFFFFFFF AND PUSH1 0x1 PUSH2 0x2DBF JUMP JUMPDEST DUP3 SLOAD PUSH4 0xFFFFFFFF NOT DUP2 AND PUSH2 0xFFFF DUP11 AND PUSH4 0xFFFFFFFF SWAP3 DUP4 AND ADD DUP3 AND OR DUP5 SSTORE PUSH1 0x1 DUP5 ADD SLOAD SWAP2 AND SWAP2 POP ISZERO PUSH2 0x158E JUMPI PUSH2 0xFFFF DUP8 AND DUP6 EQ DUP1 ISZERO PUSH2 0x148E JUMPI POP PUSH2 0xFFFF DUP8 AND DUP4 EQ JUMPDEST PUSH2 0x14DA JUMPI PUSH1 0x40 MLOAD PUSH3 0x461BCD PUSH1 0xE5 SHL DUP2 MSTORE PUSH1 0x20 PUSH1 0x4 DUP3 ADD MSTORE PUSH1 0xD PUSH1 0x24 DUP3 ADD MSTORE PUSH32 0x496E76616C696420696E70757400000000000000000000000000000000000000 PUSH1 0x44 DUP3 ADD MSTORE PUSH1 0x64 ADD PUSH2 0x387 JUMP JUMPDEST PUSH1 0x0 JUMPDEST DUP8 PUSH2 0xFFFF AND DUP2 LT ISZERO PUSH2 0x1588 JUMPI PUSH1 0x0 DUP8 DUP8 DUP4 DUP2 DUP2 LT PUSH2 0x14FD JUMPI PUSH2 0x14FD PUSH2 0x2DE7 JUMP JUMPDEST SWAP1 POP PUSH1 0x20 MUL ADD PUSH1 0x20 DUP2 ADD SWAP1 PUSH2 0x1512 SWAP2 SWAP1 PUSH2 0x2CD0 JUMP JUMPDEST SWAP1 POP PUSH1 0x0 DUP7 DUP7 DUP5 DUP2 DUP2 LT PUSH2 0x1528 JUMPI PUSH2 0x1528 PUSH2 0x2DE7 JUMP JUMPDEST SWAP1 POP PUSH1 0x20 MUL DUP2 ADD SWAP1 PUSH2 0x153A SWAP2 SWAP1 PUSH2 0x2DFD JUMP JUMPDEST DUP1 DUP1 PUSH1 0x20 MUL PUSH1 0x20 ADD PUSH1 0x40 MLOAD SWAP1 DUP2 ADD PUSH1 0x40 MSTORE DUP1 SWAP4 SWAP3 SWAP2 SWAP1 DUP2 DUP2 MSTORE PUSH1 0x20 ADD DUP4 DUP4 PUSH1 0x20 MUL DUP1 DUP3 DUP5 CALLDATACOPY PUSH1 0x0 SWAP3 ADD SWAP2 SWAP1 SWAP2 MSTORE POP SWAP3 SWAP4 POP PUSH2 0x157E SWAP3 POP DUP8 SWAP2 POP DUP15 SWAP1 POP DUP14 DUP6 DUP6 PUSH2 0x231B JUMP JUMPDEST POP POP PUSH1 0x1 ADD PUSH2 0x14DD JUMP JUMPDEST POP PUSH2 0x1698 JUMP JUMPDEST DUP2 SLOAD PUSH1 0x1 PUSH1 0x40 SHL SWAP1 DIV PUSH4 0xFFFFFFFF AND ISZERO PUSH2 0x1698 JUMPI DUP2 SLOAD PUSH1 0x1 PUSH1 0x1 PUSH1 0xA0 SHL SUB DUP11 AND PUSH1 0x0 SWAP1 DUP2 MSTORE PUSH1 0x3 PUSH1 0x20 SWAP1 DUP2 MSTORE PUSH1 0x40 DUP1 DUP4 KECCAK256 DUP13 DUP5 MSTORE DUP3 MSTORE DUP1 DUP4 KECCAK256 CALLER DUP5 MSTORE SWAP1 SWAP2 MSTORE SWAP1 KECCAK256 SLOAD PUSH1 0x1 PUSH1 0x40 SHL SWAP1 SWAP2 DIV PUSH4 0xFFFFFFFF AND SWAP1 PUSH2 0x15EE SWAP1 PUSH2 0xFFFF DUP11 AND SWAP1 PUSH2 0x2E47 JUMP JUMPDEST GT ISZERO PUSH2 0x1662 JUMPI PUSH1 0x40 MLOAD PUSH3 0x461BCD PUSH1 0xE5 SHL DUP2 MSTORE PUSH1 0x20 PUSH1 0x4 DUP3 ADD MSTORE PUSH1 0x22 PUSH1 0x24 DUP3 ADD MSTORE PUSH32 0x546F6F206D616E792072657175657374656420666F7220746869732077616C6C PUSH1 0x44 DUP3 ADD MSTORE PUSH32 0x6574000000000000000000000000000000000000000000000000000000000000 PUSH1 0x64 DUP3 ADD MSTORE PUSH1 0x84 ADD PUSH2 0x387 JUMP JUMPDEST PUSH1 0x1 PUSH1 0x1 PUSH1 0xA0 SHL SUB DUP10 AND PUSH1 0x0 SWAP1 DUP2 MSTORE PUSH1 0x3 PUSH1 0x20 SWAP1 DUP2 MSTORE PUSH1 0x40 DUP1 DUP4 KECCAK256 DUP12 DUP5 MSTORE DUP3 MSTORE DUP1 DUP4 KECCAK256 CALLER DUP5 MSTORE SWAP1 SWAP2 MSTORE SWAP1 KECCAK256 DUP1 SLOAD PUSH2 0xFFFF DUP10 AND ADD SWAP1 SSTORE JUMPDEST PUSH1 0x40 MLOAD PUSH32 0xE00AAB4B00000000000000000000000000000000000000000000000000000000 DUP2 MSTORE CALLER PUSH1 0x4 DUP3 ADD MSTORE PUSH2 0xFFFF DUP9 AND PUSH1 0x24 DUP3 ADD MSTORE PUSH1 0x0 SWAP1 PUSH1 0x1 PUSH1 0x1 PUSH1 0xA0 SHL SUB DUP12 AND SWAP1 PUSH4 0xE00AAB4B SWAP1 PUSH1 0x44 ADD PUSH1 0x0 PUSH1 0x40 MLOAD DUP1 DUP4 SUB DUP2 PUSH1 0x0 DUP8 GAS CALL ISZERO DUP1 ISZERO PUSH2 0x1704 JUMPI RETURNDATASIZE PUSH1 0x0 DUP1 RETURNDATACOPY RETURNDATASIZE PUSH1 0x0 REVERT JUMPDEST POP POP POP POP PUSH1 0x40 MLOAD RETURNDATASIZE PUSH1 0x0 DUP3 RETURNDATACOPY PUSH1 0x1F RETURNDATASIZE SWAP1 DUP2 ADD PUSH1 0x1F NOT AND DUP3 ADD PUSH1 0x40 MSTORE PUSH2 0x172C SWAP2 SWAP1 DUP2 ADD SWAP1 PUSH2 0x2E75 JUMP JUMPDEST SWAP1 POP PUSH1 0x0 JUMPDEST DUP9 PUSH2 0xFFFF AND DUP2 LT ISZERO PUSH2 0x17E1 JUMPI PUSH1 0x40 MLOAD DUP1 PUSH1 0x40 ADD PUSH1 0x40 MSTORE DUP1 DUP12 PUSH1 0x1 PUSH1 0x1 PUSH1 0xE0 SHL SUB AND DUP2 MSTORE PUSH1 0x20 ADD DUP3 DUP6 PUSH2 0x1763 SWAP2 SWAP1 PUSH2 0x2E47 JUMP JUMPDEST PUSH4 0xFFFFFFFF AND SWAP1 MSTORE PUSH1 0x1 PUSH1 0x1 PUSH1 0xA0 SHL SUB DUP13 AND PUSH1 0x0 SWAP1 DUP2 MSTORE PUSH1 0x5 PUSH1 0x20 MSTORE PUSH1 0x40 DUP2 KECCAK256 DUP5 MLOAD SWAP1 SWAP2 SWAP1 DUP6 SWAP1 DUP6 SWAP1 DUP2 LT PUSH2 0x179A JUMPI PUSH2 0x179A PUSH2 0x2DE7 JUMP JUMPDEST PUSH1 0x20 SWAP1 DUP2 MUL SWAP2 SWAP1 SWAP2 ADD DUP2 ADD MLOAD DUP3 MSTORE DUP2 DUP2 ADD SWAP3 SWAP1 SWAP3 MSTORE PUSH1 0x40 ADD PUSH1 0x0 KECCAK256 DUP3 MLOAD SWAP3 SWAP1 SWAP2 ADD MLOAD PUSH4 0xFFFFFFFF AND PUSH1 0x1 PUSH1 0xE0 SHL MUL PUSH1 0x1 PUSH1 0x1 PUSH1 0xE0 SHL SUB SWAP1 SWAP3 AND SWAP2 SWAP1 SWAP2 OR SWAP1 SSTORE PUSH1 0x1 ADD PUSH2 0x1731 JUMP JUMPDEST POP PUSH1 0x40 MLOAD PUSH2 0xFFFF DUP10 AND DUP2 MSTORE DUP10 SWAP1 PUSH1 0x1 PUSH1 0x1 PUSH1 0xA0 SHL SUB DUP13 AND SWAP1 PUSH32 0x74F5D3254DFA39A7B1217A27D5D9B3E061EAFE11720ECA1CF499DA2DC1EB1259 SWAP1 PUSH1 0x20 ADD PUSH1 0x40 MLOAD DUP1 SWAP2 SUB SWAP1 LOG3 POP POP POP POP POP POP POP POP POP POP JUMP JUMPDEST PUSH1 0x1 PUSH1 0x1 PUSH1 0xA0 SHL SUB DUP3 AND PUSH1 0x0 SWAP1 DUP2 MSTORE PUSH1 0x2 PUSH1 0x20 SWAP1 DUP2 MSTORE PUSH1 0x40 DUP1 DUP4 KECCAK256 DUP5 DUP5 MSTORE SWAP1 SWAP2 MSTORE DUP2 KECCAK256 DUP2 DUP2 SLOAD PUSH1 0x1 PUSH1 0xC0 SHL SWAP1 DIV PUSH1 0xFF AND PUSH1 0x3 DUP2 GT ISZERO PUSH2 0x1873 JUMPI PUSH2 0x1873 PUSH2 0x2802 JUMP JUMPDEST SUB PUSH2 0x18B8 JUMPI PUSH1 0x40 MLOAD PUSH3 0x461BCD PUSH1 0xE5 SHL DUP2 MSTORE PUSH1 0x20 PUSH1 0x4 DUP3 ADD MSTORE PUSH1 0x15 PUSH1 0x24 DUP3 ADD MSTORE PUSH21 0x10DB185A5B481B9BDD081A5B9A5D1A585B1A5E9959 PUSH1 0x5A SHL PUSH1 0x44 DUP3 ADD MSTORE PUSH1 0x64 ADD PUSH2 0x387 JUMP JUMPDEST DUP1 SLOAD PUSH1 0x1 PUSH1 0x40 SHL SWAP1 DIV PUSH4 0xFFFFFFFF AND PUSH1 0x0 SUB PUSH2 0x193C JUMPI PUSH1 0x40 MLOAD PUSH3 0x461BCD PUSH1 0xE5 SHL DUP2 MSTORE PUSH1 0x20 PUSH1 0x4 DUP3 ADD MSTORE PUSH1 0x36 PUSH1 0x24 DUP3 ADD MSTORE PUSH32 0x43616E206F6E6C7920726574726965766520666F72206E6F6E2D6D65726B6C65 PUSH1 0x44 DUP3 ADD MSTORE PUSH32 0x20636C61696D7320776974682077616C6C65744D617800000000000000000000 PUSH1 0x64 DUP3 ADD MSTORE PUSH1 0x84 ADD PUSH2 0x387 JUMP JUMPDEST POP POP PUSH1 0x1 PUSH1 0x1 PUSH1 0xA0 SHL SUB DUP1 DUP4 AND PUSH1 0x0 SWAP1 DUP2 MSTORE PUSH1 0x3 PUSH1 0x20 SWAP1 DUP2 MSTORE PUSH1 0x40 DUP1 DUP4 KECCAK256 DUP6 DUP5 MSTORE DUP3 MSTORE DUP1 DUP4 KECCAK256 SWAP4 DUP8 AND DUP4 MSTORE SWAP3 SWAP1 MSTORE KECCAK256 SLOAD SWAP4 SWAP3 POP POP POP JUMP JUMPDEST PUSH1 0x1 PUSH1 0x1 PUSH1 0xA0 SHL SUB DUP6 AND PUSH1 0x0 SWAP1 DUP2 MSTORE PUSH1 0x2 PUSH1 0x20 SWAP1 DUP2 MSTORE PUSH1 0x40 DUP1 DUP4 KECCAK256 DUP8 DUP5 MSTORE SWAP1 SWAP2 MSTORE DUP2 KECCAK256 SWAP1 DUP2 SLOAD PUSH1 0x1 PUSH1 0xC0 SHL SWAP1 DIV PUSH1 0xFF AND PUSH1 0x3 DUP2 GT ISZERO PUSH2 0x19B4 JUMPI PUSH2 0x19B4 PUSH2 0x2802 JUMP JUMPDEST SUB PUSH2 0x19F9 JUMPI PUSH1 0x40 MLOAD PUSH3 0x461BCD PUSH1 0xE5 SHL DUP2 MSTORE PUSH1 0x20 PUSH1 0x4 DUP3 ADD MSTORE PUSH1 0x15 PUSH1 0x24 DUP3 ADD MSTORE PUSH21 0x10DB185A5B481B9BDD081A5B9A5D1A585B1A5E9959 PUSH1 0x5A SHL PUSH1 0x44 DUP3 ADD MSTORE PUSH1 0x64 ADD PUSH2 0x387 JUMP JUMPDEST DUP1 SLOAD PUSH1 0x1 PUSH1 0x60 SHL SWAP1 DIV PUSH6 0xFFFFFFFFFFFF AND ISZERO DUP1 PUSH2 0x1A26 JUMPI POP DUP1 SLOAD TIMESTAMP PUSH1 0x1 PUSH1 0x60 SHL SWAP1 SWAP2 DIV PUSH6 0xFFFFFFFFFFFF AND LT JUMPDEST PUSH2 0x1A72 JUMPI PUSH1 0x40 MLOAD PUSH3 0x461BCD PUSH1 0xE5 SHL DUP2 MSTORE PUSH1 0x20 PUSH1 0x4 DUP3 ADD MSTORE PUSH1 0x1D PUSH1 0x24 DUP3 ADD MSTORE PUSH32 0x5472616E73616374696F6E206265666F72652073746172742064617465000000 PUSH1 0x44 DUP3 ADD MSTORE PUSH1 0x64 ADD PUSH2 0x387 JUMP JUMPDEST DUP1 SLOAD PUSH1 0x1 PUSH1 0x90 SHL SWAP1 DIV PUSH6 0xFFFFFFFFFFFF AND ISZERO DUP1 PUSH2 0x1AA0 JUMPI POP DUP1 SLOAD TIMESTAMP PUSH1 0x1 PUSH1 0x90 SHL SWAP1 SWAP2 DIV PUSH6 0xFFFFFFFFFFFF AND LT ISZERO JUMPDEST PUSH2 0x1AEC JUMPI PUSH1 0x40 MLOAD PUSH3 0x461BCD PUSH1 0xE5 SHL DUP2 MSTORE PUSH1 0x20 PUSH1 0x4 DUP3 ADD MSTORE PUSH1 0x1A PUSH1 0x24 DUP3 ADD MSTORE PUSH32 0x5472616E73616374696F6E20616674657220656E642064617465000000000000 PUSH1 0x44 DUP3 ADD MSTORE PUSH1 0x64 ADD PUSH2 0x387 JUMP JUMPDEST DUP1 SLOAD PUSH5 0x100000000 SWAP1 DIV PUSH4 0xFFFFFFFF AND ISZERO DUP1 PUSH2 0x1B18 JUMPI POP DUP1 SLOAD PUSH4 0xFFFFFFFF PUSH5 0x100000000 DUP3 DIV DUP2 AND SWAP2 AND LT JUMPDEST PUSH2 0x1B8A JUMPI PUSH1 0x40 MLOAD PUSH3 0x461BCD PUSH1 0xE5 SHL DUP2 MSTORE PUSH1 0x20 PUSH1 0x4 DUP3 ADD MSTORE PUSH1 0x2C PUSH1 0x24 DUP3 ADD MSTORE PUSH32 0x4D6178696D756D20746F6B656E7320616C7265616479206D696E74656420666F PUSH1 0x44 DUP3 ADD MSTORE PUSH32 0x72207468697320636C61696D0000000000000000000000000000000000000000 PUSH1 0x64 DUP3 ADD MSTORE PUSH1 0x84 ADD PUSH2 0x387 JUMP JUMPDEST PUSH1 0x1 DUP2 ADD SLOAD ISZERO PUSH2 0x1BD9 JUMPI PUSH2 0x1BD4 DUP2 DUP8 DUP8 DUP8 DUP8 DUP8 DUP1 DUP1 PUSH1 0x20 MUL PUSH1 0x20 ADD PUSH1 0x40 MLOAD SWAP1 DUP2 ADD PUSH1 0x40 MSTORE DUP1 SWAP4 SWAP3 SWAP2 SWAP1 DUP2 DUP2 MSTORE PUSH1 0x20 ADD DUP4 DUP4 PUSH1 0x20 MUL DUP1 DUP3 DUP5 CALLDATACOPY PUSH1 0x0 SWAP3 ADD SWAP2 SWAP1 SWAP2 MSTORE POP PUSH2 0x231B SWAP3 POP POP POP JUMP JUMPDEST PUSH2 0x1CCF JUMP JUMPDEST DUP1 SLOAD PUSH1 0x1 PUSH1 0x40 SHL SWAP1 DIV PUSH4 0xFFFFFFFF AND ISZERO PUSH2 0x1CCF JUMPI DUP1 SLOAD PUSH1 0x1 PUSH1 0x1 PUSH1 0xA0 SHL SUB DUP8 AND PUSH1 0x0 SWAP1 DUP2 MSTORE PUSH1 0x3 PUSH1 0x20 SWAP1 DUP2 MSTORE PUSH1 0x40 DUP1 DUP4 KECCAK256 DUP10 DUP5 MSTORE DUP3 MSTORE DUP1 DUP4 KECCAK256 CALLER DUP5 MSTORE SWAP1 SWAP2 MSTORE SWAP1 KECCAK256 SLOAD PUSH1 0x1 PUSH1 0x40 SHL SWAP1 SWAP2 DIV PUSH4 0xFFFFFFFF AND GT PUSH2 0x1C9C JUMPI PUSH1 0x40 MLOAD PUSH3 0x461BCD PUSH1 0xE5 SHL DUP2 MSTORE PUSH1 0x20 PUSH1 0x4 DUP3 ADD MSTORE PUSH1 0x2D PUSH1 0x24 DUP3 ADD MSTORE PUSH32 0x4D6178696D756D20746F6B656E7320616C7265616479206D696E74656420666F PUSH1 0x44 DUP3 ADD MSTORE PUSH32 0x7220746869732077616C6C657400000000000000000000000000000000000000 PUSH1 0x64 DUP3 ADD MSTORE PUSH1 0x84 ADD PUSH2 0x387 JUMP JUMPDEST PUSH1 0x1 PUSH1 0x1 PUSH1 0xA0 SHL SUB DUP7 AND PUSH1 0x0 SWAP1 DUP2 MSTORE PUSH1 0x3 PUSH1 0x20 SWAP1 DUP2 MSTORE PUSH1 0x40 DUP1 DUP4 KECCAK256 DUP9 DUP5 MSTORE DUP3 MSTORE DUP1 DUP4 KECCAK256 CALLER DUP5 MSTORE SWAP1 SWAP2 MSTORE SWAP1 KECCAK256 DUP1 SLOAD PUSH1 0x1 ADD SWAP1 SSTORE JUMPDEST DUP1 SLOAD PUSH4 0xFFFFFFFF DUP1 DUP3 AND PUSH1 0x1 ADD AND PUSH4 0xFFFFFFFF NOT SWAP1 SWAP2 AND OR DUP2 SSTORE PUSH1 0x40 MLOAD PUSH32 0x2928CA5800000000000000000000000000000000000000000000000000000000 DUP2 MSTORE CALLER PUSH1 0x4 DUP3 ADD MSTORE PUSH1 0x0 SWAP1 PUSH1 0x1 PUSH1 0x1 PUSH1 0xA0 SHL SUB DUP9 AND SWAP1 PUSH4 0x2928CA58 SWAP1 PUSH1 0x24 ADD PUSH1 0x20 PUSH1 0x40 MLOAD DUP1 DUP4 SUB DUP2 PUSH1 0x0 DUP8 GAS CALL ISZERO DUP1 ISZERO PUSH2 0x1D4B JUMPI RETURNDATASIZE PUSH1 0x0 DUP1 RETURNDATACOPY RETURNDATASIZE PUSH1 0x0 REVERT JUMPDEST POP POP POP POP PUSH1 0x40 MLOAD RETURNDATASIZE PUSH1 0x1F NOT PUSH1 0x1F DUP3 ADD AND DUP3 ADD DUP1 PUSH1 0x40 MSTORE POP DUP2 ADD SWAP1 PUSH2 0x1D6F SWAP2 SWAP1 PUSH2 0x2F33 JUMP JUMPDEST PUSH1 0x40 DUP1 MLOAD DUP1 DUP3 ADD DUP3 MSTORE PUSH1 0x1 PUSH1 0x1 PUSH1 0xE0 SHL SUB DUP1 DUP11 AND DUP3 MSTORE DUP6 SLOAD PUSH4 0xFFFFFFFF SWAP1 DUP2 AND PUSH1 0x20 DUP1 DUP6 ADD SWAP2 DUP3 MSTORE PUSH1 0x1 PUSH1 0x1 PUSH1 0xA0 SHL SUB DUP15 AND PUSH1 0x0 DUP2 DUP2 MSTORE PUSH1 0x5 DUP4 MSTORE DUP8 DUP2 KECCAK256 DUP10 DUP3 MSTORE SWAP1 SWAP3 MSTORE DUP7 DUP3 KECCAK256 SWAP6 MLOAD SWAP3 MLOAD SWAP1 SWAP4 AND PUSH1 0x1 PUSH1 0xE0 SHL MUL SWAP2 SWAP1 SWAP4 AND OR SWAP1 SWAP3 SSTORE SWAP2 MLOAD SWAP3 SWAP4 POP DUP9 SWAP3 SWAP1 SWAP2 PUSH32 0x5D404F369772CFAB2B65717FCA9BC2077EFEAB89A0DBEC036BF0C13783154EB1 SWAP2 LOG3 POP POP POP POP POP POP POP JUMP JUMPDEST PUSH1 0x1 PUSH1 0x1 PUSH1 0xA0 SHL SUB DUP4 AND PUSH1 0x0 SWAP1 DUP2 MSTORE PUSH1 0x2 PUSH1 0x20 SWAP1 DUP2 MSTORE PUSH1 0x40 DUP1 DUP4 KECCAK256 DUP6 DUP5 MSTORE SWAP1 SWAP2 MSTORE DUP2 KECCAK256 DUP2 DUP2 SLOAD PUSH1 0x1 PUSH1 0xC0 SHL SWAP1 DIV PUSH1 0xFF AND PUSH1 0x3 DUP2 GT ISZERO PUSH2 0x1E41 JUMPI PUSH2 0x1E41 PUSH2 0x2802 JUMP JUMPDEST SUB PUSH2 0x1E86 JUMPI PUSH1 0x40 MLOAD PUSH3 0x461BCD PUSH1 0xE5 SHL DUP2 MSTORE PUSH1 0x20 PUSH1 0x4 DUP3 ADD MSTORE PUSH1 0x15 PUSH1 0x24 DUP3 ADD MSTORE PUSH21 0x10DB185A5B481B9BDD081A5B9A5D1A585B1A5E9959 PUSH1 0x5A SHL PUSH1 0x44 DUP3 ADD MSTORE PUSH1 0x64 ADD PUSH2 0x387 JUMP JUMPDEST DUP1 PUSH1 0x1 ADD SLOAD PUSH1 0x0 SUB PUSH2 0x1EDA JUMPI PUSH1 0x40 MLOAD PUSH3 0x461BCD PUSH1 0xE5 SHL DUP2 MSTORE PUSH1 0x20 PUSH1 0x4 DUP3 ADD MSTORE PUSH1 0x1C PUSH1 0x24 DUP3 ADD MSTORE PUSH32 0x43616E206F6E6C7920636865636B206D65726B6C6520636C61696D7300000000 PUSH1 0x44 DUP3 ADD MSTORE PUSH1 0x64 ADD PUSH2 0x387 JUMP JUMPDEST POP POP PUSH1 0x1 PUSH1 0x1 PUSH1 0xA0 SHL SUB DUP4 AND PUSH1 0x0 SWAP1 DUP2 MSTORE PUSH1 0x4 PUSH1 0x20 SWAP1 DUP2 MSTORE PUSH1 0x40 DUP1 DUP4 KECCAK256 DUP6 DUP5 MSTORE DUP3 MSTORE DUP1 DUP4 KECCAK256 PUSH3 0xFFFFFF PUSH1 0x8 DUP7 SWAP1 SHR AND DUP5 MSTORE SWAP1 SWAP2 MSTORE SWAP1 KECCAK256 SLOAD PUSH1 0x1 PUSH1 0xFF DUP4 AND SHL AND ISZERO ISZERO SWAP4 SWAP3 POP POP POP JUMP JUMPDEST PUSH1 0x1 PUSH1 0x1 PUSH1 0xA0 SHL SUB DUP3 AND PUSH1 0x0 SWAP1 DUP2 MSTORE PUSH1 0x5 PUSH1 0x20 SWAP1 DUP2 MSTORE PUSH1 0x40 DUP1 DUP4 KECCAK256 DUP5 DUP5 MSTORE DUP3 MSTORE SWAP2 DUP3 SWAP1 KECCAK256 DUP3 MLOAD DUP1 DUP5 ADD SWAP1 SWAP4 MSTORE SLOAD PUSH1 0x1 PUSH1 0x1 PUSH1 0xE0 SHL SUB DUP2 AND DUP1 DUP5 MSTORE PUSH1 0x1 PUSH1 0xE0 SHL SWAP1 SWAP2 DIV PUSH4 0xFFFFFFFF AND SWAP2 DUP4 ADD SWAP2 SWAP1 SWAP2 MSTORE PUSH1 0x60 SWAP2 SWAP1 PUSH2 0x1FC1 JUMPI PUSH1 0x40 MLOAD PUSH3 0x461BCD PUSH1 0xE5 SHL DUP2 MSTORE PUSH1 0x20 PUSH1 0x4 DUP3 ADD MSTORE PUSH1 0x14 PUSH1 0x24 DUP3 ADD MSTORE PUSH32 0x546F6B656E20646F6573206E6F74206578697374000000000000000000000000 PUSH1 0x44 DUP3 ADD MSTORE PUSH1 0x64 ADD PUSH2 0x387 JUMP JUMPDEST PUSH1 0x1 PUSH1 0x1 PUSH1 0xA0 SHL SUB DUP5 AND PUSH1 0x0 SWAP1 DUP2 MSTORE PUSH1 0x2 PUSH1 0x20 SWAP1 DUP2 MSTORE PUSH1 0x40 DUP1 DUP4 KECCAK256 DUP5 MLOAD PUSH1 0x1 PUSH1 0x1 PUSH1 0xE0 SHL SUB AND DUP5 MSTORE DUP3 MSTORE DUP1 DUP4 KECCAK256 DUP2 MLOAD PUSH2 0x120 DUP2 ADD DUP4 MSTORE DUP2 SLOAD PUSH4 0xFFFFFFFF DUP1 DUP3 AND DUP4 MSTORE PUSH5 0x100000000 DUP3 DIV DUP2 AND SWAP6 DUP4 ADD SWAP6 SWAP1 SWAP6 MSTORE PUSH1 0x1 PUSH1 0x40 SHL DUP2 DIV SWAP1 SWAP5 AND SWAP3 DUP2 ADD SWAP3 SWAP1 SWAP3 MSTORE PUSH6 0xFFFFFFFFFFFF PUSH1 0x1 PUSH1 0x60 SHL DUP5 DIV DUP2 AND PUSH1 0x60 DUP5 ADD MSTORE PUSH1 0x1 PUSH1 0x90 SHL DUP5 DIV AND PUSH1 0x80 DUP4 ADD MSTORE SWAP1 SWAP2 PUSH1 0xA0 DUP4 ADD SWAP1 PUSH1 0xFF PUSH1 0x1 PUSH1 0xC0 SHL SWAP1 SWAP2 DIV AND PUSH1 0x3 DUP2 GT ISZERO PUSH2 0x206A JUMPI PUSH2 0x206A PUSH2 0x2802 JUMP JUMPDEST PUSH1 0x3 DUP2 GT ISZERO PUSH2 0x207B JUMPI PUSH2 0x207B PUSH2 0x2802 JUMP JUMPDEST DUP2 MSTORE DUP2 SLOAD PUSH1 0x1 PUSH1 0xC8 SHL SWAP1 DIV PUSH1 0xFF AND ISZERO ISZERO PUSH1 0x20 DUP3 ADD MSTORE PUSH1 0x1 DUP3 ADD SLOAD PUSH1 0x40 DUP3 ADD MSTORE PUSH1 0x2 DUP3 ADD DUP1 SLOAD PUSH1 0x60 SWAP1 SWAP3 ADD SWAP2 PUSH2 0x20AF SWAP1 PUSH2 0x2D8B JUMP JUMPDEST DUP1 PUSH1 0x1F ADD PUSH1 0x20 DUP1 SWAP2 DIV MUL PUSH1 0x20 ADD PUSH1 0x40 MLOAD SWAP1 DUP2 ADD PUSH1 0x40 MSTORE DUP1 SWAP3 SWAP2 SWAP1 DUP2 DUP2 MSTORE PUSH1 0x20 ADD DUP3 DUP1 SLOAD PUSH2 0x20DB SWAP1 PUSH2 0x2D8B JUMP JUMPDEST DUP1 ISZERO PUSH2 0x2128 JUMPI DUP1 PUSH1 0x1F LT PUSH2 0x20FD JUMPI PUSH2 0x100 DUP1 DUP4 SLOAD DIV MUL DUP4 MSTORE SWAP2 PUSH1 0x20 ADD SWAP2 PUSH2 0x2128 JUMP JUMPDEST DUP3 ADD SWAP2 SWAP1 PUSH1 0x0 MSTORE PUSH1 0x20 PUSH1 0x0 KECCAK256 SWAP1 JUMPDEST DUP2 SLOAD DUP2 MSTORE SWAP1 PUSH1 0x1 ADD SWAP1 PUSH1 0x20 ADD DUP1 DUP4 GT PUSH2 0x210B JUMPI DUP3 SWAP1 SUB PUSH1 0x1F AND DUP3 ADD SWAP2 JUMPDEST POP POP POP SWAP2 SWAP1 SWAP3 MSTORE POP POP PUSH1 0x40 DUP1 MLOAD PUSH1 0x20 DUP2 ADD SWAP1 SWAP2 MSTORE PUSH1 0x0 DUP2 MSTORE SWAP2 SWAP3 POP PUSH1 0x2 SWAP1 POP DUP3 PUSH1 0xA0 ADD MLOAD PUSH1 0x3 DUP2 GT ISZERO PUSH2 0x215D JUMPI PUSH2 0x215D PUSH2 0x2802 JUMP JUMPDEST SUB PUSH2 0x219C JUMPI POP PUSH1 0x40 DUP1 MLOAD DUP1 DUP3 ADD SWAP1 SWAP2 MSTORE PUSH1 0x14 DUP2 MSTORE PUSH32 0x68747470733A2F2F617277656176652E6E65742F000000000000000000000000 PUSH1 0x20 DUP3 ADD MSTORE PUSH2 0x21EF JUMP JUMPDEST PUSH1 0x3 DUP3 PUSH1 0xA0 ADD MLOAD PUSH1 0x3 DUP2 GT ISZERO PUSH2 0x21B4 JUMPI PUSH2 0x21B4 PUSH2 0x2802 JUMP JUMPDEST SUB PUSH2 0x21EF JUMPI POP PUSH1 0x40 DUP1 MLOAD DUP1 DUP3 ADD SWAP1 SWAP2 MSTORE PUSH1 0x7 DUP2 MSTORE PUSH32 0x697066733A2F2F00000000000000000000000000000000000000000000000000 PUSH1 0x20 DUP3 ADD MSTORE JUMPDEST PUSH2 0x100 DUP3 ADD MLOAD PUSH1 0x40 MLOAD PUSH2 0x2206 SWAP2 DUP4 SWAP2 PUSH1 0x20 ADD PUSH2 0x2F4C JUMP JUMPDEST PUSH1 0x40 MLOAD PUSH1 0x20 DUP2 DUP4 SUB SUB DUP2 MSTORE SWAP1 PUSH1 0x40 MSTORE SWAP4 POP DUP2 PUSH1 0xC0 ADD MLOAD PUSH2 0x2257 JUMPI DUP4 PUSH2 0x2234 DUP5 PUSH1 0x20 ADD MLOAD PUSH4 0xFFFFFFFF AND PUSH2 0x248C JUMP JUMPDEST PUSH1 0x40 MLOAD PUSH1 0x20 ADD PUSH2 0x2245 SWAP3 SWAP2 SWAP1 PUSH2 0x2F72 JUMP JUMPDEST PUSH1 0x40 MLOAD PUSH1 0x20 DUP2 DUP4 SUB SUB DUP2 MSTORE SWAP1 PUSH1 0x40 MSTORE SWAP4 POP JUMPDEST POP POP POP SWAP3 SWAP2 POP POP JUMP JUMPDEST PUSH1 0x60 DUP2 PUSH8 0xFFFFFFFFFFFFFFFF DUP2 GT ISZERO PUSH2 0x227B JUMPI PUSH2 0x227B PUSH2 0x2E5F JUMP JUMPDEST PUSH1 0x40 MLOAD SWAP1 DUP1 DUP3 MSTORE DUP1 PUSH1 0x20 MUL PUSH1 0x20 ADD DUP3 ADD PUSH1 0x40 MSTORE DUP1 ISZERO PUSH2 0x22A4 JUMPI DUP2 PUSH1 0x20 ADD PUSH1 0x20 DUP3 MUL DUP1 CALLDATASIZE DUP4 CALLDATACOPY ADD SWAP1 POP JUMPDEST POP SWAP1 POP PUSH1 0x0 JUMPDEST DUP3 DUP2 LT ISZERO PUSH2 0x2312 JUMPI PUSH2 0x22DE DUP7 DUP7 DUP7 DUP7 DUP6 DUP2 DUP2 LT PUSH2 0x22C9 JUMPI PUSH2 0x22C9 PUSH2 0x2DE7 JUMP JUMPDEST SWAP1 POP PUSH1 0x20 MUL ADD PUSH1 0x20 DUP2 ADD SWAP1 PUSH2 0x1A8 SWAP2 SWAP1 PUSH2 0x2CD0 JUMP JUMPDEST DUP3 DUP3 DUP2 MLOAD DUP2 LT PUSH2 0x22F0 JUMPI PUSH2 0x22F0 PUSH2 0x2DE7 JUMP JUMPDEST SWAP2 ISZERO ISZERO PUSH1 0x20 SWAP3 DUP4 MUL SWAP2 SWAP1 SWAP2 ADD SWAP1 SWAP2 ADD MSTORE DUP1 PUSH2 0x230A DUP2 PUSH2 0x2FCA JUMP JUMPDEST SWAP2 POP POP PUSH2 0x22AA JUMP JUMPDEST POP SWAP5 SWAP4 POP POP POP POP JUMP JUMPDEST PUSH1 0x40 MLOAD PUSH12 0xFFFFFFFFFFFFFFFFFFFFFFFF NOT CALLER PUSH1 0x60 SHL AND PUSH1 0x20 DUP3 ADD MSTORE PUSH1 0x1 PUSH1 0x1 PUSH1 0xE0 SHL SUB NOT PUSH1 0xE0 DUP5 SWAP1 SHL AND PUSH1 0x34 DUP3 ADD MSTORE PUSH1 0x0 SWAP1 PUSH1 0x38 ADD PUSH1 0x40 MLOAD PUSH1 0x20 DUP2 DUP4 SUB SUB DUP2 MSTORE SWAP1 PUSH1 0x40 MSTORE DUP1 MLOAD SWAP1 PUSH1 0x20 ADD KECCAK256 SWAP1 POP PUSH2 0x2377 DUP3 DUP8 PUSH1 0x1 ADD SLOAD DUP4 PUSH2 0x25C9 JUMP JUMPDEST PUSH2 0x23C3 JUMPI PUSH1 0x40 MLOAD PUSH3 0x461BCD PUSH1 0xE5 SHL DUP2 MSTORE PUSH1 0x20 PUSH1 0x4 DUP3 ADD MSTORE PUSH1 0x1D PUSH1 0x24 DUP3 ADD MSTORE PUSH32 0x436F756C64206E6F7420766572696679206D65726B6C652070726F6F66000000 PUSH1 0x44 DUP3 ADD MSTORE PUSH1 0x64 ADD PUSH2 0x387 JUMP JUMPDEST PUSH1 0x1 PUSH1 0x1 PUSH1 0xA0 SHL SUB DUP6 AND PUSH1 0x0 SWAP1 DUP2 MSTORE PUSH1 0x4 PUSH1 0x20 SWAP1 DUP2 MSTORE PUSH1 0x40 DUP1 DUP4 KECCAK256 DUP8 DUP5 MSTORE DUP3 MSTORE DUP1 DUP4 KECCAK256 PUSH3 0xFFFFFF PUSH1 0x8 DUP9 SWAP1 SHR AND DUP1 DUP6 MSTORE SWAP3 MSTORE SWAP1 SWAP2 KECCAK256 SLOAD PUSH1 0x1 PUSH1 0xFF DUP7 AND SHL DUP1 DUP3 AND ISZERO PUSH2 0x2450 JUMPI PUSH1 0x40 MLOAD PUSH3 0x461BCD PUSH1 0xE5 SHL DUP2 MSTORE PUSH1 0x20 PUSH1 0x4 DUP3 ADD MSTORE PUSH1 0xE PUSH1 0x24 DUP3 ADD MSTORE PUSH32 0x416C7265616479206D696E746564000000000000000000000000000000000000 PUSH1 0x44 DUP3 ADD MSTORE PUSH1 0x64 ADD PUSH2 0x387 JUMP JUMPDEST PUSH1 0x1 PUSH1 0x1 PUSH1 0xA0 SHL SUB SWAP1 SWAP8 AND PUSH1 0x0 SWAP1 DUP2 MSTORE PUSH1 0x4 PUSH1 0x20 SWAP1 DUP2 MSTORE PUSH1 0x40 DUP1 DUP4 KECCAK256 SWAP9 DUP4 MSTORE SWAP8 DUP2 MSTORE DUP8 DUP3 KECCAK256 SWAP4 DUP3 MSTORE SWAP3 SWAP1 SWAP3 MSTORE SWAP5 SWAP1 KECCAK256 SWAP4 SWAP1 SWAP5 OR SWAP1 SWAP3 SSTORE POP POP POP POP JUMP JUMPDEST PUSH1 0x60 DUP2 PUSH1 0x0 SUB PUSH2 0x24CF JUMPI POP POP PUSH1 0x40 DUP1 MLOAD DUP1 DUP3 ADD SWAP1 SWAP2 MSTORE PUSH1 0x1 DUP2 MSTORE PUSH32 0x3000000000000000000000000000000000000000000000000000000000000000 PUSH1 0x20 DUP3 ADD MSTORE SWAP1 JUMP JUMPDEST DUP2 PUSH1 0x0 JUMPDEST DUP2 ISZERO PUSH2 0x24F9 JUMPI DUP1 PUSH2 0x24E3 DUP2 PUSH2 0x2FCA JUMP JUMPDEST SWAP2 POP PUSH2 0x24F2 SWAP1 POP PUSH1 0xA DUP4 PUSH2 0x2FF9 JUMP JUMPDEST SWAP2 POP PUSH2 0x24D3 JUMP JUMPDEST PUSH1 0x0 DUP2 PUSH8 0xFFFFFFFFFFFFFFFF DUP2 GT ISZERO PUSH2 0x2514 JUMPI PUSH2 0x2514 PUSH2 0x2E5F JUMP JUMPDEST PUSH1 0x40 MLOAD SWAP1 DUP1 DUP3 MSTORE DUP1 PUSH1 0x1F ADD PUSH1 0x1F NOT AND PUSH1 0x20 ADD DUP3 ADD PUSH1 0x40 MSTORE DUP1 ISZERO PUSH2 0x253E JUMPI PUSH1 0x20 DUP3 ADD DUP2 DUP1 CALLDATASIZE DUP4 CALLDATACOPY ADD SWAP1 POP JUMPDEST POP SWAP1 POP JUMPDEST DUP5 ISZERO PUSH2 0x25C1 JUMPI PUSH2 0x2553 PUSH1 0x1 DUP4 PUSH2 0x300D JUMP JUMPDEST SWAP2 POP PUSH2 0x2560 PUSH1 0xA DUP7 PUSH2 0x3024 JUMP JUMPDEST PUSH2 0x256B SWAP1 PUSH1 0x30 PUSH2 0x2E47 JUMP JUMPDEST PUSH1 0xF8 SHL DUP2 DUP4 DUP2 MLOAD DUP2 LT PUSH2 0x2580 JUMPI PUSH2 0x2580 PUSH2 0x2DE7 JUMP JUMPDEST PUSH1 0x20 ADD ADD SWAP1 PUSH31 0xFFFFFFFFFFFFFFFFFFFFFFFFFFFFFFFFFFFFFFFFFFFFFFFFFFFFFFFFFFFFFF NOT AND SWAP1 DUP2 PUSH1 0x0 BYTE SWAP1 MSTORE8 POP PUSH2 0x25BA PUSH1 0xA DUP7 PUSH2 0x2FF9 JUMP JUMPDEST SWAP5 POP PUSH2 0x2542 JUMP JUMPDEST SWAP5 SWAP4 POP POP POP POP JUMP JUMPDEST PUSH1 0x0 DUP3 PUSH2 0x25D6 DUP6 DUP5 PUSH2 0x25DF JUMP JUMPDEST EQ SWAP5 SWAP4 POP POP POP POP JUMP JUMPDEST PUSH1 0x0 DUP2 DUP2 JUMPDEST DUP5 MLOAD DUP2 LT ISZERO PUSH2 0x2683 JUMPI PUSH1 0x0 DUP6 DUP3 DUP2 MLOAD DUP2 LT PUSH2 0x2601 JUMPI PUSH2 0x2601 PUSH2 0x2DE7 JUMP JUMPDEST PUSH1 0x20 MUL PUSH1 0x20 ADD ADD MLOAD SWAP1 POP DUP1 DUP4 GT PUSH2 0x2643 JUMPI PUSH1 0x40 DUP1 MLOAD PUSH1 0x20 DUP2 ADD DUP6 SWAP1 MSTORE SWAP1 DUP2 ADD DUP3 SWAP1 MSTORE PUSH1 0x60 ADD PUSH1 0x40 MLOAD PUSH1 0x20 DUP2 DUP4 SUB SUB DUP2 MSTORE SWAP1 PUSH1 0x40 MSTORE DUP1 MLOAD SWAP1 PUSH1 0x20 ADD KECCAK256 SWAP3 POP PUSH2 0x2670 JUMP JUMPDEST PUSH1 0x40 DUP1 MLOAD PUSH1 0x20 DUP2 ADD DUP4 SWAP1 MSTORE SWAP1 DUP2 ADD DUP5 SWAP1 MSTORE PUSH1 0x60 ADD PUSH1 0x40 MLOAD PUSH1 0x20 DUP2 DUP4 SUB SUB DUP2 MSTORE SWAP1 PUSH1 0x40 MSTORE DUP1 MLOAD SWAP1 PUSH1 0x20 ADD KECCAK256 SWAP3 POP JUMPDEST POP DUP1 PUSH2 0x267B DUP2 PUSH2 0x2FCA JUMP JUMPDEST SWAP2 POP POP PUSH2 0x25E4 JUMP JUMPDEST POP SWAP4 SWAP3 POP POP POP JUMP JUMPDEST DUP3 DUP1 SLOAD PUSH2 0x2697 SWAP1 PUSH2 0x2D8B JUMP JUMPDEST SWAP1 PUSH1 0x0 MSTORE PUSH1 0x20 PUSH1 0x0 KECCAK256 SWAP1 PUSH1 0x1F ADD PUSH1 0x20 SWAP1 DIV DUP2 ADD SWAP3 DUP3 PUSH2 0x26B9 JUMPI PUSH1 0x0 DUP6 SSTORE PUSH2 0x26FF JUMP JUMPDEST DUP3 PUSH1 0x1F LT PUSH2 0x26D2 JUMPI DUP1 MLOAD PUSH1 0xFF NOT AND DUP4 DUP1 ADD OR DUP6 SSTORE PUSH2 0x26FF JUMP JUMPDEST DUP3 DUP1 ADD PUSH1 0x1 ADD DUP6 SSTORE DUP3 ISZERO PUSH2 0x26FF JUMPI SWAP2 DUP3 ADD JUMPDEST DUP3 DUP2 GT ISZERO PUSH2 0x26FF JUMPI DUP3 MLOAD DUP3 SSTORE SWAP2 PUSH1 0x20 ADD SWAP2 SWAP1 PUSH1 0x1 ADD SWAP1 PUSH2 0x26E4 JUMP JUMPDEST POP PUSH2 0x270B SWAP3 SWAP2 POP PUSH2 0x270F JUMP JUMPDEST POP SWAP1 JUMP JUMPDEST JUMPDEST DUP1 DUP3 GT ISZERO PUSH2 0x270B JUMPI PUSH1 0x0 DUP2 SSTORE PUSH1 0x1 ADD PUSH2 0x2710 JUMP JUMPDEST PUSH1 0x0 PUSH1 0x20 DUP3 DUP5 SUB SLT ISZERO PUSH2 0x2736 JUMPI PUSH1 0x0 DUP1 REVERT JUMPDEST DUP2 CALLDATALOAD PUSH1 0x1 PUSH1 0x1 PUSH1 0xE0 SHL SUB NOT DUP2 AND DUP2 EQ PUSH2 0x274E JUMPI PUSH1 0x0 DUP1 REVERT JUMPDEST SWAP4 SWAP3 POP POP POP JUMP JUMPDEST DUP1 CALLDATALOAD PUSH1 0x1 PUSH1 0x1 PUSH1 0xA0 SHL SUB DUP2 AND DUP2 EQ PUSH2 0x276C JUMPI PUSH1 0x0 DUP1 REVERT JUMPDEST SWAP2 SWAP1 POP JUMP JUMPDEST PUSH1 0x0 PUSH2 0x100 DUP3 DUP5 SUB SLT ISZERO PUSH2 0x2784 JUMPI PUSH1 0x0 DUP1 REVERT JUMPDEST POP SWAP2 SWAP1 POP JUMP JUMPDEST PUSH1 0x0 DUP1 PUSH1 0x40 DUP4 DUP6 SUB SLT ISZERO PUSH2 0x279D JUMPI PUSH1 0x0 DUP1 REVERT JUMPDEST PUSH2 0x27A6 DUP4 PUSH2 0x2755 JUMP JUMPDEST SWAP2 POP PUSH1 0x20 DUP4 ADD CALLDATALOAD PUSH8 0xFFFFFFFFFFFFFFFF DUP2 GT ISZERO PUSH2 0x27C2 JUMPI PUSH1 0x0 DUP1 REVERT JUMPDEST PUSH2 0x27CE DUP6 DUP3 DUP7 ADD PUSH2 0x2771 JUMP JUMPDEST SWAP2 POP POP SWAP3 POP SWAP3 SWAP1 POP JUMP JUMPDEST PUSH1 0x0 DUP1 PUSH1 0x40 DUP4 DUP6 SUB SLT ISZERO PUSH2 0x27EB JUMPI PUSH1 0x0 DUP1 REVERT JUMPDEST PUSH2 0x27F4 DUP4 PUSH2 0x2755 JUMP JUMPDEST SWAP5 PUSH1 0x20 SWAP4 SWAP1 SWAP4 ADD CALLDATALOAD SWAP4 POP POP POP JUMP JUMPDEST PUSH4 0x4E487B71 PUSH1 0xE0 SHL PUSH1 0x0 MSTORE PUSH1 0x21 PUSH1 0x4 MSTORE PUSH1 0x24 PUSH1 0x0 REVERT JUMPDEST PUSH1 0x4 DUP2 LT PUSH2 0x2836 JUMPI PUSH4 0x4E487B71 PUSH1 0xE0 SHL PUSH1 0x0 MSTORE PUSH1 0x21 PUSH1 0x4 MSTORE PUSH1 0x24 PUSH1 0x0 REVERT JUMPDEST SWAP1 MSTORE JUMP JUMPDEST PUSH1 0x0 JUMPDEST DUP4 DUP2 LT ISZERO PUSH2 0x2855 JUMPI DUP2 DUP2 ADD MLOAD DUP4 DUP3 ADD MSTORE PUSH1 0x20 ADD PUSH2 0x283D JUMP JUMPDEST DUP4 DUP2 GT ISZERO PUSH2 0x2864 JUMPI PUSH1 0x0 DUP5 DUP5 ADD MSTORE JUMPDEST POP POP POP POP JUMP JUMPDEST PUSH1 0x0 DUP2 MLOAD DUP1 DUP5 MSTORE PUSH2 0x2882 DUP2 PUSH1 0x20 DUP7 ADD PUSH1 0x20 DUP7 ADD PUSH2 0x283A JUMP JUMPDEST PUSH1 0x1F ADD PUSH1 0x1F NOT AND SWAP3 SWAP1 SWAP3 ADD PUSH1 0x20 ADD SWAP3 SWAP2 POP POP JUMP JUMPDEST PUSH1 0x20 DUP2 MSTORE PUSH2 0x28AD PUSH1 0x20 DUP3 ADD DUP4 MLOAD PUSH4 0xFFFFFFFF AND SWAP1 MSTORE JUMP JUMPDEST PUSH1 0x0 PUSH1 0x20 DUP4 ADD MLOAD PUSH2 0x28C6 PUSH1 0x40 DUP5 ADD DUP3 PUSH4 0xFFFFFFFF AND SWAP1 MSTORE JUMP JUMPDEST POP PUSH1 0x40 DUP4 ADD MLOAD PUSH4 0xFFFFFFFF DUP2 AND PUSH1 0x60 DUP5 ADD MSTORE POP PUSH1 0x60 DUP4 ADD MLOAD PUSH6 0xFFFFFFFFFFFF DUP2 AND PUSH1 0x80 DUP5 ADD MSTORE POP PUSH1 0x80 DUP4 ADD MLOAD PUSH6 0xFFFFFFFFFFFF DUP2 AND PUSH1 0xA0 DUP5 ADD MSTORE POP PUSH1 0xA0 DUP4 ADD MLOAD PUSH2 0x2913 PUSH1 0xC0 DUP5 ADD DUP3 PUSH2 0x2818 JUMP JUMPDEST POP PUSH1 0xC0 DUP4 ADD MLOAD DUP1 ISZERO ISZERO PUSH1 0xE0 DUP5 ADD MSTORE POP PUSH1 0xE0 DUP4 ADD MLOAD PUSH2 0x100 DUP4 DUP2 ADD SWAP2 SWAP1 SWAP2 MSTORE DUP4 ADD MLOAD PUSH2 0x120 DUP1 DUP5 ADD MSTORE PUSH2 0x25C1 PUSH2 0x140 DUP5 ADD DUP3 PUSH2 0x286A JUMP JUMPDEST PUSH1 0x0 DUP1 PUSH1 0x0 PUSH1 0x60 DUP5 DUP7 SUB SLT ISZERO PUSH2 0x295E JUMPI PUSH1 0x0 DUP1 REVERT JUMPDEST PUSH2 0x2967 DUP5 PUSH2 0x2755 JUMP JUMPDEST SWAP3 POP PUSH1 0x20 DUP5 ADD CALLDATALOAD SWAP2 POP PUSH1 0x40 DUP5 ADD CALLDATALOAD PUSH8 0xFFFFFFFFFFFFFFFF DUP2 GT ISZERO PUSH2 0x298A JUMPI PUSH1 0x0 DUP1 REVERT JUMPDEST PUSH2 0x2996 DUP7 DUP3 DUP8 ADD PUSH2 0x2771 JUMP JUMPDEST SWAP2 POP POP SWAP3 POP SWAP3 POP SWAP3 JUMP JUMPDEST PUSH1 0x0 DUP1 DUP4 PUSH1 0x1F DUP5 ADD SLT PUSH2 0x29B2 JUMPI PUSH1 0x0 DUP1 REVERT JUMPDEST POP DUP2 CALLDATALOAD PUSH8 0xFFFFFFFFFFFFFFFF DUP2 GT ISZERO PUSH2 0x29CA JUMPI PUSH1 0x0 DUP1 REVERT JUMPDEST PUSH1 0x20 DUP4 ADD SWAP2 POP DUP4 PUSH1 0x20 DUP3 PUSH1 0x5 SHL DUP6 ADD ADD GT ISZERO PUSH2 0x29E5 JUMPI PUSH1 0x0 DUP1 REVERT JUMPDEST SWAP3 POP SWAP3 SWAP1 POP JUMP JUMPDEST PUSH1 0x0 DUP1 PUSH1 0x0 DUP1 PUSH1 0x0 DUP1 PUSH1 0x0 PUSH1 0xA0 DUP9 DUP11 SUB SLT ISZERO PUSH2 0x2A07 JUMPI PUSH1 0x0 DUP1 REVERT JUMPDEST PUSH2 0x2A10 DUP9 PUSH2 0x2755 JUMP JUMPDEST SWAP7 POP PUSH1 0x20 DUP9 ADD CALLDATALOAD SWAP6 POP PUSH1 0x40 DUP9 ADD CALLDATALOAD PUSH2 0xFFFF DUP2 AND DUP2 EQ PUSH2 0x2A2E JUMPI PUSH1 0x0 DUP1 REVERT JUMPDEST SWAP5 POP PUSH1 0x60 DUP9 ADD CALLDATALOAD PUSH8 0xFFFFFFFFFFFFFFFF DUP1 DUP3 GT ISZERO PUSH2 0x2A4B JUMPI PUSH1 0x0 DUP1 REVERT JUMPDEST PUSH2 0x2A57 DUP12 DUP4 DUP13 ADD PUSH2 0x29A0 JUMP JUMPDEST SWAP1 SWAP7 POP SWAP5 POP PUSH1 0x80 DUP11 ADD CALLDATALOAD SWAP2 POP DUP1 DUP3 GT ISZERO PUSH2 0x2A70 JUMPI PUSH1 0x0 DUP1 REVERT JUMPDEST POP PUSH2 0x2A7D DUP11 DUP3 DUP12 ADD PUSH2 0x29A0 JUMP JUMPDEST SWAP9 SWAP12 SWAP8 SWAP11 POP SWAP6 SWAP9 POP SWAP4 SWAP7 SWAP3 SWAP6 SWAP3 SWAP4 POP POP POP JUMP JUMPDEST PUSH1 0x0 DUP1 PUSH1 0x0 PUSH1 0x60 DUP5 DUP7 SUB SLT ISZERO PUSH2 0x2AA5 JUMPI PUSH1 0x0 DUP1 REVERT JUMPDEST PUSH2 0x2AAE DUP5 PUSH2 0x2755 JUMP JUMPDEST SWAP3 POP PUSH2 0x2ABC PUSH1 0x20 DUP6 ADD PUSH2 0x2755 JUMP JUMPDEST SWAP2 POP PUSH1 0x40 DUP5 ADD CALLDATALOAD SWAP1 POP SWAP3 POP SWAP3 POP SWAP3 JUMP JUMPDEST DUP1 CALLDATALOAD PUSH4 0xFFFFFFFF DUP2 AND DUP2 EQ PUSH2 0x276C JUMPI PUSH1 0x0 DUP1 REVERT JUMPDEST PUSH1 0x0 DUP1 PUSH1 0x0 DUP1 PUSH1 0x0 PUSH1 0x80 DUP7 DUP9 SUB SLT ISZERO PUSH2 0x2AF8 JUMPI PUSH1 0x0 DUP1 REVERT JUMPDEST PUSH2 0x2B01 DUP7 PUSH2 0x2755 JUMP JUMPDEST SWAP5 POP PUSH1 0x20 DUP7 ADD CALLDATALOAD SWAP4 POP PUSH2 0x2B16 PUSH1 0x40 DUP8 ADD PUSH2 0x2ACC JUMP JUMPDEST SWAP3 POP PUSH1 0x60 DUP7 ADD CALLDATALOAD PUSH8 0xFFFFFFFFFFFFFFFF DUP2 GT ISZERO PUSH2 0x2B32 JUMPI PUSH1 0x0 DUP1 REVERT JUMPDEST PUSH2 0x2B3E DUP9 DUP3 DUP10 ADD PUSH2 0x29A0 JUMP JUMPDEST SWAP7 SWAP10 SWAP6 SWAP9 POP SWAP4 SWAP7 POP SWAP3 SWAP5 SWAP4 SWAP3 POP POP POP JUMP JUMPDEST PUSH1 0x0 DUP1 PUSH1 0x0 PUSH1 0x60 DUP5 DUP7 SUB SLT ISZERO PUSH2 0x2B64 JUMPI PUSH1 0x0 DUP1 REVERT JUMPDEST PUSH2 0x2B6D DUP5 PUSH2 0x2755 JUMP JUMPDEST SWAP3 POP PUSH1 0x20 DUP5 ADD CALLDATALOAD SWAP2 POP PUSH2 0x2B82 PUSH1 0x40 DUP6 ADD PUSH2 0x2ACC JUMP JUMPDEST SWAP1 POP SWAP3 POP SWAP3 POP SWAP3 JUMP JUMPDEST PUSH1 0x0 PUSH1 0x20 DUP3 DUP5 SUB SLT ISZERO PUSH2 0x2B9D JUMPI PUSH1 0x0 DUP1 REVERT JUMPDEST PUSH2 0x274E DUP3 PUSH2 0x2755 JUMP JUMPDEST PUSH1 0x20 DUP2 MSTORE PUSH1 0x0 PUSH2 0x274E PUSH1 0x20 DUP4 ADD DUP5 PUSH2 0x286A JUMP JUMPDEST PUSH1 0x0 DUP1 PUSH1 0x0 DUP1 PUSH1 0x60 DUP6 DUP8 SUB SLT ISZERO PUSH2 0x2BCF JUMPI PUSH1 0x0 DUP1 REVERT JUMPDEST PUSH2 0x2BD8 DUP6 PUSH2 0x2755 JUMP JUMPDEST SWAP4 POP PUSH1 0x20 DUP6 ADD CALLDATALOAD SWAP3 POP PUSH1 0x40 DUP6 ADD CALLDATALOAD PUSH8 0xFFFFFFFFFFFFFFFF DUP2 GT ISZERO PUSH2 0x2BFB JUMPI PUSH1 0x0 DUP1 REVERT JUMPDEST PUSH2 0x2C07 DUP8 DUP3 DUP9 ADD PUSH2 0x29A0 JUMP JUMPDEST SWAP6 SWAP9 SWAP5 SWAP8 POP SWAP6 POP POP POP POP JUMP JUMPDEST PUSH1 0x20 DUP1 DUP3 MSTORE DUP3 MLOAD DUP3 DUP3 ADD DUP2 SWAP1 MSTORE PUSH1 0x0 SWAP2 SWAP1 DUP5 DUP3 ADD SWAP1 PUSH1 0x40 DUP6 ADD SWAP1 DUP5 JUMPDEST DUP2 DUP2 LT ISZERO PUSH2 0x2C4D JUMPI DUP4 MLOAD ISZERO ISZERO DUP4 MSTORE SWAP3 DUP5 ADD SWAP3 SWAP2 DUP5 ADD SWAP2 PUSH1 0x1 ADD PUSH2 0x2C2F JUMP JUMPDEST POP SWAP1 SWAP7 SWAP6 POP POP POP POP POP POP JUMP JUMPDEST DUP1 ISZERO ISZERO DUP2 EQ PUSH2 0x2C67 JUMPI PUSH1 0x0 DUP1 REVERT JUMPDEST POP JUMP JUMPDEST PUSH1 0x0 PUSH1 0x20 DUP3 DUP5 SUB SLT ISZERO PUSH2 0x2C7C JUMPI PUSH1 0x0 DUP1 REVERT JUMPDEST DUP2 MLOAD PUSH2 0x274E DUP2 PUSH2 0x2C59 JUMP JUMPDEST PUSH1 0x0 PUSH1 0x20 DUP3 DUP5 SUB SLT ISZERO PUSH2 0x2C99 JUMPI PUSH1 0x0 DUP1 REVERT JUMPDEST DUP2 CALLDATALOAD PUSH1 0x4 DUP2 LT PUSH2 0x274E JUMPI PUSH1 0x0 DUP1 REVERT JUMPDEST PUSH1 0x0 PUSH1 0x20 DUP3 DUP5 SUB SLT ISZERO PUSH2 0x2CBA JUMPI PUSH1 0x0 DUP1 REVERT JUMPDEST DUP2 CALLDATALOAD PUSH6 0xFFFFFFFFFFFF DUP2 AND DUP2 EQ PUSH2 0x274E JUMPI PUSH1 0x0 DUP1 REVERT JUMPDEST PUSH1 0x0 PUSH1 0x20 DUP3 DUP5 SUB SLT ISZERO PUSH2 0x2CE2 JUMPI PUSH1 0x0 DUP1 REVERT JUMPDEST PUSH2 0x274E DUP3 PUSH2 0x2ACC JUMP JUMPDEST PUSH4 0x4E487B71 PUSH1 0xE0 SHL PUSH1 0x0 MSTORE PUSH1 0x11 PUSH1 0x4 MSTORE PUSH1 0x24 PUSH1 0x0 REVERT JUMPDEST PUSH1 0x0 PUSH1 0x1 PUSH1 0x1 PUSH1 0xE0 SHL SUB DUP1 DUP4 AND DUP2 DUP2 SUB PUSH2 0x2D1D JUMPI PUSH2 0x2D1D PUSH2 0x2CEB JUMP JUMPDEST PUSH1 0x1 ADD SWAP4 SWAP3 POP POP POP JUMP JUMPDEST PUSH1 0x0 PUSH1 0x20 DUP3 DUP5 SUB SLT ISZERO PUSH2 0x2D39 JUMPI PUSH1 0x0 DUP1 REVERT JUMPDEST DUP2 CALLDATALOAD PUSH2 0x274E DUP2 PUSH2 0x2C59 JUMP JUMPDEST PUSH1 0x0 DUP1 DUP4 CALLDATALOAD PUSH1 0x1E NOT DUP5 CALLDATASIZE SUB ADD DUP2 SLT PUSH2 0x2D5B JUMPI PUSH1 0x0 DUP1 REVERT JUMPDEST DUP4 ADD DUP1 CALLDATALOAD SWAP2 POP PUSH8 0xFFFFFFFFFFFFFFFF DUP3 GT ISZERO PUSH2 0x2D76 JUMPI PUSH1 0x0 DUP1 REVERT JUMPDEST PUSH1 0x20 ADD SWAP2 POP CALLDATASIZE DUP2 SWAP1 SUB DUP3 SGT ISZERO PUSH2 0x29E5 JUMPI PUSH1 0x0 DUP1 REVERT JUMPDEST PUSH1 0x1 DUP2 DUP2 SHR SWAP1 DUP3 AND DUP1 PUSH2 0x2D9F JUMPI PUSH1 0x7F DUP3 AND SWAP2 POP JUMPDEST PUSH1 0x20 DUP3 LT DUP2 SUB PUSH2 0x2784 JUMPI PUSH4 0x4E487B71 PUSH1 0xE0 SHL PUSH1 0x0 MSTORE PUSH1 0x22 PUSH1 0x4 MSTORE PUSH1 0x24 PUSH1 0x0 REVERT JUMPDEST PUSH1 0x0 PUSH4 0xFFFFFFFF DUP1 DUP4 AND DUP2 DUP6 AND DUP1 DUP4 SUB DUP3 GT ISZERO PUSH2 0x2DDE JUMPI PUSH2 0x2DDE PUSH2 0x2CEB JUMP JUMPDEST ADD SWAP5 SWAP4 POP POP POP POP JUMP JUMPDEST PUSH4 0x4E487B71 PUSH1 0xE0 SHL PUSH1 0x0 MSTORE PUSH1 0x32 PUSH1 0x4 MSTORE PUSH1 0x24 PUSH1 0x0 REVERT JUMPDEST PUSH1 0x0 DUP1 DUP4 CALLDATALOAD PUSH1 0x1E NOT DUP5 CALLDATASIZE SUB ADD DUP2 SLT PUSH2 0x2E14 JUMPI PUSH1 0x0 DUP1 REVERT JUMPDEST DUP4 ADD DUP1 CALLDATALOAD SWAP2 POP PUSH8 0xFFFFFFFFFFFFFFFF DUP3 GT ISZERO PUSH2 0x2E2F JUMPI PUSH1 0x0 DUP1 REVERT JUMPDEST PUSH1 0x20 ADD SWAP2 POP PUSH1 0x5 DUP2 SWAP1 SHL CALLDATASIZE SUB DUP3 SGT ISZERO PUSH2 0x29E5 JUMPI PUSH1 0x0 DUP1 REVERT JUMPDEST PUSH1 0x0 DUP3 NOT DUP3 GT ISZERO PUSH2 0x2E5A JUMPI PUSH2 0x2E5A PUSH2 0x2CEB JUMP JUMPDEST POP ADD SWAP1 JUMP JUMPDEST PUSH4 0x4E487B71 PUSH1 0xE0 SHL PUSH1 0x0 MSTORE PUSH1 0x41 PUSH1 0x4 MSTORE PUSH1 0x24 PUSH1 0x0 REVERT JUMPDEST PUSH1 0x0 PUSH1 0x20 DUP1 DUP4 DUP6 SUB SLT ISZERO PUSH2 0x2E88 JUMPI PUSH1 0x0 DUP1 REVERT JUMPDEST DUP3 MLOAD PUSH8 0xFFFFFFFFFFFFFFFF DUP1 DUP3 GT ISZERO PUSH2 0x2EA0 JUMPI PUSH1 0x0 DUP1 REVERT JUMPDEST DUP2 DUP6 ADD SWAP2 POP DUP6 PUSH1 0x1F DUP4 ADD SLT PUSH2 0x2EB4 JUMPI PUSH1 0x0 DUP1 REVERT JUMPDEST DUP2 MLOAD DUP2 DUP2 GT ISZERO PUSH2 0x2EC6 JUMPI PUSH2 0x2EC6 PUSH2 0x2E5F JUMP JUMPDEST DUP1 PUSH1 0x5 SHL PUSH1 0x40 MLOAD PUSH1 0x1F NOT PUSH1 0x3F DUP4 ADD AND DUP2 ADD DUP2 DUP2 LT DUP6 DUP3 GT OR ISZERO PUSH2 0x2EEB JUMPI PUSH2 0x2EEB PUSH2 0x2E5F JUMP JUMPDEST PUSH1 0x40 MSTORE SWAP2 DUP3 MSTORE DUP5 DUP3 ADD SWAP3 POP DUP4 DUP2 ADD DUP6 ADD SWAP2 DUP9 DUP4 GT ISZERO PUSH2 0x2F09 JUMPI PUSH1 0x0 DUP1 REVERT JUMPDEST SWAP4 DUP6 ADD SWAP4 JUMPDEST DUP3 DUP6 LT ISZERO PUSH2 0x2F27 JUMPI DUP5 MLOAD DUP5 MSTORE SWAP4 DUP6 ADD SWAP4 SWAP3 DUP6 ADD SWAP3 PUSH2 0x2F0E JUMP JUMPDEST SWAP9 SWAP8 POP POP POP POP POP POP POP POP JUMP JUMPDEST PUSH1 0x0 PUSH1 0x20 DUP3 DUP5 SUB SLT ISZERO PUSH2 0x2F45 JUMPI PUSH1 0x0 DUP1 REVERT JUMPDEST POP MLOAD SWAP2 SWAP1 POP JUMP JUMPDEST PUSH1 0x0 DUP4 MLOAD PUSH2 0x2F5E DUP2 DUP5 PUSH1 0x20 DUP9 ADD PUSH2 0x283A JUMP JUMPDEST DUP4 MLOAD SWAP1 DUP4 ADD SWAP1 PUSH2 0x2DDE DUP2 DUP4 PUSH1 0x20 DUP9 ADD PUSH2 0x283A JUMP JUMPDEST PUSH1 0x0 DUP4 MLOAD PUSH2 0x2F84 DUP2 DUP5 PUSH1 0x20 DUP9 ADD PUSH2 0x283A JUMP JUMPDEST PUSH32 0x2F00000000000000000000000000000000000000000000000000000000000000 SWAP1 DUP4 ADD SWAP1 DUP2 MSTORE DUP4 MLOAD PUSH2 0x2FBE DUP2 PUSH1 0x1 DUP5 ADD PUSH1 0x20 DUP9 ADD PUSH2 0x283A JUMP JUMPDEST ADD PUSH1 0x1 ADD SWAP5 SWAP4 POP POP POP POP JUMP JUMPDEST PUSH1 0x0 PUSH1 0x1 DUP3 ADD PUSH2 0x2FDC JUMPI PUSH2 0x2FDC PUSH2 0x2CEB JUMP JUMPDEST POP PUSH1 0x1 ADD SWAP1 JUMP JUMPDEST PUSH4 0x4E487B71 PUSH1 0xE0 SHL PUSH1 0x0 MSTORE PUSH1 0x12 PUSH1 0x4 MSTORE PUSH1 0x24 PUSH1 0x0 REVERT JUMPDEST PUSH1 0x0 DUP3 PUSH2 0x3008 JUMPI PUSH2 0x3008 PUSH2 0x2FE3 JUMP JUMPDEST POP DIV SWAP1 JUMP JUMPDEST PUSH1 0x0 DUP3 DUP3 LT ISZERO PUSH2 0x301F JUMPI PUSH2 0x301F PUSH2 0x2CEB JUMP JUMPDEST POP SUB SWAP1 JUMP JUMPDEST PUSH1 0x0 DUP3 PUSH2 0x3033 JUMPI PUSH2 0x3033 PUSH2 0x2FE3 JUMP JUMPDEST POP MOD SWAP1 JUMP INVALID LOG2 PUSH5 0x6970667358 0x22 SLT KECCAK256 CALLDATASIZE 0xA9 PUSH9 0x5F79261920CEBDA45A DUP14 0xBB SWAP12 0xDB PUSH23 0xDDD5B19B4FD52C3D0E88FFFBCD500C64736F6C63430008 0xE STOP CALLER "
		},
		"gasEstimates": {
			"creation": {
				"codeDepositCost": "2479600",
				"executionCost": "24779",
				"totalCost": "2504379"
			},
			"external": {
				"checkMintIndex(address,uint256,uint32)": "infinite",
				"checkMintIndices(address,uint256,uint32[])": "infinite",
				"getClaim(address,uint256)": "infinite",
				"getClaimCount(address)": "2577",
				"getTotalMints(address,address,uint256)": "infinite",
				"initializeClaim(address,(uint32,uint32,uint48,uint48,uint8,bool,bytes32,string))": "infinite",
				"mint(address,uint256,uint32,bytes32[])": "infinite",
				"mintBatch(address,uint256,uint16,uint32[],bytes32[][])": "infinite",
				"supportsInterface(bytes4)": "487",
				"tokenURI(address,uint256)": "infinite",
				"updateClaim(address,uint256,(uint32,uint32,uint48,uint48,uint8,bool,bytes32,string))": "infinite"
			},
			"internal": {
				"_checkMerkleAndUpdate(struct IERC721LazyClaim.Claim storage pointer,address,uint256,uint32,bytes32[] memory)": "infinite"
			}
		},
		"methodIdentifiers": {
			"checkMintIndex(address,uint256,uint32)": "cda08536",
			"checkMintIndices(address,uint256,uint32[])": "f8a6137b",
			"getClaim(address,uint256)": "0f79ab39",
			"getClaimCount(address)": "d5fdfe87",
			"getTotalMints(address,address,uint256)": "42f3bef4",
			"initializeClaim(address,(uint32,uint32,uint48,uint48,uint8,bool,bytes32,string))": "037b79db",
			"mint(address,uint256,uint32,bytes32[])": "bbf2a8c6",
			"mintBatch(address,uint256,uint16,uint32[],bytes32[][])": "3512da33",
			"supportsInterface(bytes4)": "01ffc9a7",
			"tokenURI(address,uint256)": "e9dc6375",
			"updateClaim(address,uint256,(uint32,uint32,uint48,uint48,uint8,bool,bytes32,string))": "1831a643"
		}
	},
	"abi": [
		{
			"anonymous": false,
			"inputs": [
				{
					"indexed": true,
					"internalType": "address",
					"name": "creatorContract",
					"type": "address"
				},
				{
					"indexed": true,
					"internalType": "uint224",
					"name": "claimIndex",
					"type": "uint224"
				},
				{
					"indexed": false,
					"internalType": "address",
					"name": "initializer",
					"type": "address"
				}
			],
			"name": "ClaimInitialized",
			"type": "event"
		},
		{
			"anonymous": false,
			"inputs": [
				{
					"indexed": true,
					"internalType": "address",
					"name": "creatorContract",
					"type": "address"
				},
				{
					"indexed": true,
					"internalType": "uint256",
					"name": "claimIndex",
					"type": "uint256"
				}
			],
			"name": "ClaimMint",
			"type": "event"
		},
		{
			"anonymous": false,
			"inputs": [
				{
					"indexed": true,
					"internalType": "address",
					"name": "creatorContract",
					"type": "address"
				},
				{
					"indexed": true,
					"internalType": "uint256",
					"name": "claimIndex",
					"type": "uint256"
				},
				{
					"indexed": false,
					"internalType": "uint16",
					"name": "mintCount",
					"type": "uint16"
				}
			],
			"name": "ClaimMintBatch",
			"type": "event"
		},
		{
			"inputs": [
				{
					"internalType": "address",
					"name": "creatorContractAddress",
					"type": "address"
				},
				{
					"internalType": "uint256",
					"name": "claimIndex",
					"type": "uint256"
				},
				{
					"internalType": "uint32",
					"name": "mintIndex",
					"type": "uint32"
				}
			],
			"name": "checkMintIndex",
			"outputs": [
				{
					"internalType": "bool",
					"name": "",
					"type": "bool"
				}
			],
			"stateMutability": "view",
			"type": "function"
		},
		{
			"inputs": [
				{
					"internalType": "address",
					"name": "creatorContractAddress",
					"type": "address"
				},
				{
					"internalType": "uint256",
					"name": "claimIndex",
					"type": "uint256"
				},
				{
					"internalType": "uint32[]",
					"name": "mintIndices",
					"type": "uint32[]"
				}
			],
			"name": "checkMintIndices",
			"outputs": [
				{
					"internalType": "bool[]",
					"name": "minted",
					"type": "bool[]"
				}
			],
			"stateMutability": "view",
			"type": "function"
		},
		{
			"inputs": [
				{
					"internalType": "address",
					"name": "creatorContractAddress",
					"type": "address"
				},
				{
					"internalType": "uint256",
					"name": "claimIndex",
					"type": "uint256"
				}
			],
			"name": "getClaim",
			"outputs": [
				{
					"components": [
						{
							"internalType": "uint32",
							"name": "total",
							"type": "uint32"
						},
						{
							"internalType": "uint32",
							"name": "totalMax",
							"type": "uint32"
						},
						{
							"internalType": "uint32",
							"name": "walletMax",
							"type": "uint32"
						},
						{
							"internalType": "uint48",
							"name": "startDate",
							"type": "uint48"
						},
						{
							"internalType": "uint48",
							"name": "endDate",
							"type": "uint48"
						},
						{
							"internalType": "enum IERC721LazyClaim.StorageProtocol",
							"name": "storageProtocol",
							"type": "uint8"
						},
						{
							"internalType": "bool",
							"name": "identical",
							"type": "bool"
						},
						{
							"internalType": "bytes32",
							"name": "merkleRoot",
							"type": "bytes32"
						},
						{
							"internalType": "string",
							"name": "location",
							"type": "string"
						}
					],
					"internalType": "struct IERC721LazyClaim.Claim",
					"name": "",
					"type": "tuple"
				}
			],
			"stateMutability": "view",
			"type": "function"
		},
		{
			"inputs": [
				{
					"internalType": "address",
					"name": "creatorContractAddress",
					"type": "address"
				}
			],
			"name": "getClaimCount",
			"outputs": [
				{
					"internalType": "uint256",
					"name": "",
					"type": "uint256"
				}
			],
			"stateMutability": "view",
			"type": "function"
		},
		{
			"inputs": [
				{
					"internalType": "address",
					"name": "minter",
					"type": "address"
				},
				{
					"internalType": "address",
					"name": "creatorContractAddress",
					"type": "address"
				},
				{
					"internalType": "uint256",
					"name": "claimIndex",
					"type": "uint256"
				}
			],
			"name": "getTotalMints",
			"outputs": [
				{
					"internalType": "uint32",
					"name": "",
					"type": "uint32"
				}
			],
			"stateMutability": "view",
			"type": "function"
		},
		{
			"inputs": [
				{
					"internalType": "address",
					"name": "creatorContractAddress",
					"type": "address"
				},
				{
					"components": [
						{
							"internalType": "uint32",
							"name": "totalMax",
							"type": "uint32"
						},
						{
							"internalType": "uint32",
							"name": "walletMax",
							"type": "uint32"
						},
						{
							"internalType": "uint48",
							"name": "startDate",
							"type": "uint48"
						},
						{
							"internalType": "uint48",
							"name": "endDate",
							"type": "uint48"
						},
						{
							"internalType": "enum IERC721LazyClaim.StorageProtocol",
							"name": "storageProtocol",
							"type": "uint8"
						},
						{
							"internalType": "bool",
							"name": "identical",
							"type": "bool"
						},
						{
							"internalType": "bytes32",
							"name": "merkleRoot",
							"type": "bytes32"
						},
						{
							"internalType": "string",
							"name": "location",
							"type": "string"
						}
					],
					"internalType": "struct IERC721LazyClaim.ClaimParameters",
					"name": "claimParameters",
					"type": "tuple"
				}
			],
			"name": "initializeClaim",
			"outputs": [
				{
					"internalType": "uint256",
					"name": "",
					"type": "uint256"
				}
			],
			"stateMutability": "nonpayable",
			"type": "function"
		},
		{
			"inputs": [
				{
					"internalType": "address",
					"name": "creatorContractAddress",
					"type": "address"
				},
				{
					"internalType": "uint256",
					"name": "claimIndex",
					"type": "uint256"
				},
				{
					"internalType": "uint32",
					"name": "mintIndex",
					"type": "uint32"
				},
				{
					"internalType": "bytes32[]",
					"name": "merkleProof",
					"type": "bytes32[]"
				}
			],
			"name": "mint",
			"outputs": [],
			"stateMutability": "nonpayable",
			"type": "function"
		},
		{
			"inputs": [
				{
					"internalType": "address",
					"name": "creatorContractAddress",
					"type": "address"
				},
				{
					"internalType": "uint256",
					"name": "claimIndex",
					"type": "uint256"
				},
				{
					"internalType": "uint16",
					"name": "mintCount",
					"type": "uint16"
				},
				{
					"internalType": "uint32[]",
					"name": "mintIndices",
					"type": "uint32[]"
				},
				{
					"internalType": "bytes32[][]",
					"name": "merkleProofs",
					"type": "bytes32[][]"
				}
			],
			"name": "mintBatch",
			"outputs": [],
			"stateMutability": "nonpayable",
			"type": "function"
		},
		{
			"inputs": [
				{
					"internalType": "bytes4",
					"name": "interfaceId",
					"type": "bytes4"
				}
			],
			"name": "supportsInterface",
			"outputs": [
				{
					"internalType": "bool",
					"name": "",
					"type": "bool"
				}
			],
			"stateMutability": "view",
			"type": "function"
		},
		{
			"inputs": [
				{
					"internalType": "address",
					"name": "creatorContractAddress",
					"type": "address"
				},
				{
					"internalType": "uint256",
					"name": "tokenId",
					"type": "uint256"
				}
			],
			"name": "tokenURI",
			"outputs": [
				{
					"internalType": "string",
					"name": "uri",
					"type": "string"
				}
			],
			"stateMutability": "view",
			"type": "function"
		},
		{
			"inputs": [
				{
					"internalType": "address",
					"name": "creatorContractAddress",
					"type": "address"
				},
				{
					"internalType": "uint256",
					"name": "claimIndex",
					"type": "uint256"
				},
				{
					"components": [
						{
							"internalType": "uint32",
							"name": "totalMax",
							"type": "uint32"
						},
						{
							"internalType": "uint32",
							"name": "walletMax",
							"type": "uint32"
						},
						{
							"internalType": "uint48",
							"name": "startDate",
							"type": "uint48"
						},
						{
							"internalType": "uint48",
							"name": "endDate",
							"type": "uint48"
						},
						{
							"internalType": "enum IERC721LazyClaim.StorageProtocol",
							"name": "storageProtocol",
							"type": "uint8"
						},
						{
							"internalType": "bool",
							"name": "identical",
							"type": "bool"
						},
						{
							"internalType": "bytes32",
							"name": "merkleRoot",
							"type": "bytes32"
						},
						{
							"internalType": "string",
							"name": "location",
							"type": "string"
						}
					],
					"internalType": "struct IERC721LazyClaim.ClaimParameters",
					"name": "claimParameters",
					"type": "tuple"
				}
			],
			"name": "updateClaim",
			"outputs": [],
			"stateMutability": "nonpayable",
			"type": "function"
		}
	]
}