{
	"data": {
		"bytecode": {
			"linkReferences": {},
			"object": "60a06040523480156200001157600080fd5b506040516200642b3803806200642b8339810160408190526200003491620000cf565b8181620000413362000062565b6200004c8262000062565b6001600160a01b03166080525062000107915050565b600080546001600160a01b038381166001600160a01b0319831681178455604051919092169283917f8be0079c531659141344cd1fd0a4f28419497f9722a3daafe3b4186f6b6457e09190a35050565b80516001600160a01b0381168114620000ca57600080fd5b919050565b60008060408385031215620000e357600080fd5b620000ee83620000b2565b9150620000fe60208401620000b2565b90509250929050565b6080516163016200012a600039600081816102d7015261453b01526163016000f3fe6080604052600436106101525760003560e01c806301ffc9a71461015757806307591acc1461018c5780630f79ab39146101a157806324d7806c146101ce57806326c858a4146101ee5780632d345670146102015780632ff381061461022157806331ae450b1461024157806342f3bef4146102635780634baa62bf146102985780634daadff7146102c55780635816b99c146102f95780635f2f5129146103195780636d73e66914610339578063715018a6146103595780637ab393921461036e578063895696f21461038e5780638b220bd0146103bc5780638da5cb5b146103cf57806399c14347146103e4578063b93aa86c14610404578063cb79971614610424578063cda085361461044d578063d7bf81a31461046d578063e9dc637514610488578063f2fde38b146104b5578063f3fef3a3146104d5578063f8a6137b146104f5578063fa2b068f14610522575b600080fd5b34801561016357600080fd5b50610177610172366004614ee4565b610535565b60405190151581526020015b60405180910390f35b61019f61019a366004614f89565b6105bd565b005b3480156101ad57600080fd5b506101c16101bc366004615038565b610a04565b6040516101839190615223565b3480156101da57600080fd5b506101776101e9366004615236565b610ba5565b61019f6101fc366004614f89565b610bd4565b34801561020d57600080fd5b5061019f61021c366004615236565b611002565b34801561022d57600080fd5b5061019f61023c366004615383565b611060565b34801561024d57600080fd5b506102566116a8565b60405161018391906154c5565b34801561026f57600080fd5b5061028361027e366004615512565b611756565b60405163ffffffff9091168152602001610183565b3480156102a457600080fd5b506003546102b8906001600160a01b031681565b6040516101839190615553565b3480156102d157600080fd5b506102b87f000000000000000000000000000000000000000000000000000000000000000081565b34801561030557600080fd5b5061019f610314366004615567565b61177e565b34801561032557600080fd5b5061019f6103343660046155c7565b611e8f565b34801561034557600080fd5b5061019f610354366004615236565b61241e565b34801561036557600080fd5b5061019f612476565b34801561037a57600080fd5b5061019f610389366004615236565b61248a565b34801561039a57600080fd5b506103ae6103a9366004615038565b6124ec565b604051610183929190615652565b61019f6103ca3660046156b4565b612777565b3480156103db57600080fd5b506102b8612b72565b3480156103f057600080fd5b5061019f6103ff366004615739565b612b81565b34801561041057600080fd5b5061019f61041f3660046157a9565b612d1c565b34801561043057600080fd5b5061043f6602738d24e5200081565b604051908152602001610183565b34801561045957600080fd5b50610177610468366004615804565b612eac565b34801561047957600080fd5b5061043f6601c6bf5263400081565b34801561049457600080fd5b506104a86104a3366004615038565b612ecc565b6040516101839190615842565b3480156104c157600080fd5b5061019f6104d0366004615236565b613489565b3480156104e157600080fd5b5061019f6104f0366004615038565b6134ff565b34801561050157600080fd5b50610515610510366004615855565b6135b7565b60405161018391906158a4565b61019f6105303660046158de565b613683565b60006001600160e01b03198216638e1ebf5360e01b148061056657506001600160e01b0319821663ae2007bf60e01b145b8061058157506001600160e01b0319821663e9dc637560e01b145b8061059c57506001600160e01b03198216632a9f3abf60e11b145b806105b757506001600160e01b031982166301ffc9a760e01b145b92915050565b60006105c989896139a8565b60068101549091506001600160a01b0316156106005760405162461bcd60e51b81526004016105f790615960565b60405180910390fd5b805461ffff881690829060009061061e90849063ffffffff166159aa565b82546101009290920a63ffffffff8181021990931691831602179091558254600160201b900416159050806106635750805463ffffffff600160201b82048116911611155b801561067b5750805462ffffff63ffffffff90911611155b6106975760405162461bcd60e51b81526004016105f7906159c7565b805460018201546106dc918b918b9165ffffffffffff600160601b8204811692600160901b83049091169163ffffffff600160401b90910416908d8d8d8d8d8d613a06565b80546000906106f69061ffff8a169063ffffffff16615a08565b6107019060016159aa565b600583015460038401546004850154600186015463ffffffff94909416945061073f936001600160a01b0393841693909116908c9015156000613c22565b81546003600160c81b90910460ff16106108825760008861ffff166001600160401b0381111561077157610771615253565b60405190808252806020026020018201604052801561079a578160200160208202803683370190505b50905060005b8961ffff16811015610805576107b68184615a25565b62ffffff1660188c66ffffffffffffff16901b1766ffffffffffffff168282815181106107e5576107e5615a38565b6001600160501b03909216602092830291909101909101526001016107a0565b5060405163213c198760e11b81526001600160a01b038c1690634278330e906108349087908590600401615a4e565b6000604051808303816000875af1158015610853573d6000803e3d6000fd5b505050506040513d6000823e601f3d908101601f1916820160405261087b9190810190615aad565b50506109b2565b60405163e00aab4b60e01b81526000906001600160a01b038c169063e00aab4b906108b39087908d90600401615b52565b6000604051808303816000875af11580156108d2573d6000803e3d6000fd5b505050506040513d6000823e601f3d908101601f191682016040526108fa9190810190615aad565b905060005b8961ffff168110156109af5760405180604001604052808c6001600160e01b0316815260200182856109319190615a25565b63ffffffff1690526001600160a01b038d166000908152600a60205260408120845190919085908590811061096857610968615a38565b6020908102919091018101518252818101929092526040016000208251929091015163ffffffff16600160e01b026001600160e01b039092169190911790556001016108ff565b50505b888a6001600160a01b03167f61039ad47d0b05ec206a4450fd164cc2055af66ac594c12b8dd747e8803a90de8a33876040516109f093929190615b6f565b60405180910390a350505050505050505050565b610a0c614e75565b610a1683836139a8565b604080516101c081018252825463ffffffff8082168352600160201b820481166020840152600160401b8204169282019290925265ffffffffffff600160601b830481166060830152600160901b8304166080820152919060a083019060ff600160c01b909104166003811115610a8f57610a8f615064565b6003811115610aa057610aa0615064565b8152815460ff600160c81b820481166020840152600160d01b909104161515604082015260018201546060820152600282018054608090920191610ae390615b94565b80601f0160208091040260200160405190810160405280929190818152602001828054610b0f90615b94565b8015610b5c5780601f10610b3157610100808354040283529160200191610b5c565b820191906000526020600020905b815481529060010190602001808311610b3f57829003601f168201915b50505091835250506003820154602082015260048201546001600160a01b0390811660408301526005830154811660608301526006909201549091166080909101529392505050565b6000816001600160a01b0316610bb9612b72565b6001600160a01b031614806105b757506105b7600183613ed7565b6000610be089896139a8565b60068101549091506001600160a01b031615610c0e5760405162461bcd60e51b81526004016105f790615960565b805461ffff8816908290600090610c2c90849063ffffffff166159aa565b82546101009290920a63ffffffff8181021990931691831602179091558254600160201b90041615905080610c715750805463ffffffff600160201b82048116911611155b8015610c895750805462ffffff63ffffffff90911611155b610ca55760405162461bcd60e51b81526004016105f7906159c7565b80546001820154610cea918b918b9165ffffffffffff600160601b8204811692600160901b83049091169163ffffffff600160401b90910416908d8d8d8d8d8d613ef3565b8054600090610d049061ffff8a169063ffffffff16615a08565b610d0f9060016159aa565b60058301546003840154600485015460018087015463ffffffff959095169550610d4e946001600160a01b0394851694909216918d9190151590613c22565b81546003600160c81b90910460ff1610610e915760008861ffff166001600160401b03811115610d8057610d80615253565b604051908082528060200260200182016040528015610da9578160200160208202803683370190505b50905060005b8961ffff16811015610e1457610dc58184615a25565b62ffffff1660188c66ffffffffffffff16901b1766ffffffffffffff16828281518110610df457610df4615a38565b6001600160501b0390921660209283029190910190910152600101610daf565b5060405163213c198760e11b81526001600160a01b038c1690634278330e90610e439033908590600401615a4e565b6000604051808303816000875af1158015610e62573d6000803e3d6000fd5b505050506040513d6000823e601f3d908101601f19168201604052610e8a9190810190615aad565b5050610fc1565b60405163e00aab4b60e01b81526000906001600160a01b038c169063e00aab4b90610ec29033908d90600401615b52565b6000604051808303816000875af1158015610ee1573d6000803e3d6000fd5b505050506040513d6000823e601f3d908101601f19168201604052610f099190810190615aad565b905060005b8961ffff16811015610fbe5760405180604001604052808c6001600160e01b031681526020018285610f409190615a25565b63ffffffff1690526001600160a01b038d166000908152600a602052604081208451909190859085908110610f7757610f77615a38565b6020908102919091018101518252818101929092526040016000208251929091015163ffffffff16600160e01b026001600160e01b03909216919091179055600101610f0e565b50505b60405161ffff8916815289906001600160a01b038c16907f74f5d3254dfa39a7b1217a27d5d9b3e061eafe11720eca1cf499da2dc1eb1259906020016109f0565b61100a613fcf565b611015600182613ed7565b1561105d5760405133906001600160a01b038316907f7c0c3c84c67c85fcac635147348bfe374c24a1a93d0366d1cfe9d8853cbf89d590600090a361105b60018261402e565b505b50565b604051630935e01b60e21b8152839081906001600160a01b038216906324d7806c90611090903390600401615553565b602060405180830381865afa1580156110ad573d6000803e3d6000fd5b505050506040513d601f19601f820116820180604052508101906110d19190615bce565b6110ed5760405162461bcd60e51b81526004016105f790615beb565b6001600160a01b0385166000908152600960209081526040808320878452825280832081516101c081018352815463ffffffff8082168352600160201b8204811695830195909552600160401b81049094169281019290925265ffffffffffff600160601b840481166060840152600160901b8404166080830152909160a083019060ff600160c01b90910416600381111561118b5761118b615064565b600381111561119c5761119c615064565b8152815460ff600160c81b820481166020840152600160d01b9091041615156040820152600182015460608201526002820180546080909201916111df90615b94565b80601f016020809104026020016040519081016040528092919081815260200182805461120b90615b94565b80156112585780601f1061122d57610100808354040283529160200191611258565b820191906000526020600020905b81548152906001019060200180831161123b57829003601f168201915b50505091835250506003820154602082015260048201546001600160a01b039081166040830152600583015481166060830152600690920154909116608090910152905060008160a0015160038111156112b4576112b4615064565b036112d15760405162461bcd60e51b81526004016105f790615c36565b6000846080015160038111156112e9576112e9615064565b036113065760405162461bcd60e51b81526004016105f790615c65565b606084015165ffffffffffff1615806113365750836060015165ffffffffffff16846040015165ffffffffffff16105b6113525760405162461bcd60e51b81526004016105f790615ca8565b8061018001516001600160a01b03168461014001516001600160a01b0316146113bb5760405162461bcd60e51b815260206004820152601b60248201527a21b0b73737ba1031b430b733b2903830bcb6b2b73a103a37b5b2b760291b60448201526064016105f7565b835163ffffffff16158015906113dc57508351815163ffffffff9182169116115b156113ec57805163ffffffff1684525b604051806101c00160405280826000015163ffffffff168152602001856000015163ffffffff168152602001856020015163ffffffff168152602001856040015165ffffffffffff168152602001856060015165ffffffffffff1681526020018560800151600381111561146257611462615064565b815260c08084015160ff1660208084019190915260a08881015115156040808601919091528984015160608087019190915260e0808c0151608080890191909152610100808e0151868a01526101208e01516001600160a01b03908116988a01989098526101808b01518816928901929092526101608d015187169190970152938c166000908152600984528181208c82528452819020865181549488015192880151958801519688015165ffffffffffff908116600160901b0265ffffffffffff60901b1991909816600160601b0265ffffffffffff60601b1963ffffffff988916600160401b0216600160401b600160901b0319958916600160201b026001600160401b0319909816989093169790971795909517929092169190911793909317918216841783558401519192839160ff60c01b1990911666ffffffffffffff60901b1990911617600160c01b8360038111156115c3576115c3615064565b021790555060c0820151815460e08401511515600160d01b0260ff60d01b1960ff909316600160c81b029290921661ffff60c81b19909116171781556101008201516001820155610120820151600282019061161f9082615d61565b5061014082015160038201556101608201516004820180546001600160a01b03199081166001600160a01b039384161790915561018084015160058401805483169184169190911790556101a090930151600690920180549093169181169190911790915560405186918816906000805160206162ac83398151915290600090a3505050505050565b60606116b46001614043565b6001600160401b038111156116cb576116cb615253565b6040519080825280602002602001820160405280156116f4578160200160208202803683370190505b50905060005b6117046001614043565b8110156117525761171660018261404d565b82828151811061172857611728615a38565b6001600160a01b03909216602092830291909101909101528061174a81615e1a565b9150506116fa565b5090565b6000806117638484610a04565b90506117758160400151868686614059565b95945050505050565b604051630935e01b60e21b8152839081906001600160a01b038216906324d7806c906117ae903390600401615553565b602060405180830381865afa1580156117cb573d6000803e3d6000fd5b505050506040513d601f19601f820116820180604052508101906117ef9190615bce565b61180b5760405162461bcd60e51b81526004016105f790615beb565b600084118015611822575066ffffffffffffff8411155b6118635760405162461bcd60e51b8152602060048201526012602482015271125b9d985b1a59081a5b9cdd185b98d9525960721b60448201526064016105f7565b60006001600160a01b0386166000908152600960209081526040808320888452909152902054600160c01b900460ff1660038111156118a4576118a4615064565b146118ed5760405162461bcd60e51b815260206004820152601960248201527810db185a5b48185b1c9958591e481a5b9a5d1a585b1a5e9959603a1b60448201526064016105f7565b60006118ff60a0850160808601615e33565b600381111561191057611910615064565b036119755760405162461bcd60e51b815260206004820152602f60248201527f43616e6e6f7420696e697469616c697a65207769746820696e76616c6964207360448201526e1d1bdc9859d9481c1c9bdd1bd8dbdb608a1b60648201526084016105f7565b6119856080840160608501615e4e565b65ffffffffffff1615806119c657506119a46080840160608501615e4e565b65ffffffffffff166119bc6060850160408601615e4e565b65ffffffffffff16105b6119e25760405162461bcd60e51b81526004016105f790615ca8565b60c08301351580611a0657506119fe6040840160208501615e69565b63ffffffff16155b611a675760405162461bcd60e51b815260206004820152602c60248201527f43616e6e6f742070726f7669646520626f74682077616c6c65744d617820616e60448201526b19081b595c9adb19549bdbdd60a21b60648201526084016105f7565b6000856001600160a01b031663ffa1ad746040518163ffffffff1660e01b8152600401602060405180830381865afa925050508015611ac3575060408051601f3d908101601f19168201909252611ac091810190615e84565b60015b15611b1b5760ff811115611b185760405162461bcd60e51b815260206004820152601c60248201527b2ab739bab83837b93a32b21031b7b73a3930b1ba103b32b939b4b7b760211b60448201526064016105f7565b90505b604080516101c0810190915260008152602080820190611b3d90870187615e69565b63ffffffff168152602001856020016020810190611b5b9190615e69565b63ffffffff168152602001611b766060870160408801615e4e565b65ffffffffffff168152602001611b936080870160608801615e4e565b65ffffffffffff168152602001611bb060a0870160808801615e33565b6003811115611bc157611bc1615064565b815260ff83166020820152604001611bdf60c0870160a08801615e9d565b1515815260c08601356020820152604001611bfd60e0870187615eba565b8080601f0160208091040260200160405190810160405280939291908181526020018383808284376000920191909152505050908252506101008601356020820152604001611c5461014087016101208801615236565b6001600160a01b03168152602001611c7461016087016101408801615236565b6001600160a01b03168152602001611c9461018087016101608801615236565b6001600160a01b03908116909152871660009081526009602090815260408083208984528252918290208351815492850151938501516060860151608087015165ffffffffffff908116600160901b0265ffffffffffff60901b1991909216600160601b0265ffffffffffff60601b1963ffffffff948516600160401b0216600160401b600160901b0319988516600160201b026001600160401b03199098169490951693909317959095179590951691909117179182168317815560a084015190929091839160ff60c01b191666ffffffffffffff60901b1990911617600160c01b836003811115611d8957611d89615064565b021790555060c0820151815460e08401511515600160d01b0260ff60d01b1960ff909316600160c81b029290921661ffff60c81b199091161717815561010082015160018201556101208201516002820190611de59082615d61565b5061014082015160038201556101608201516004820180546001600160a01b03199081166001600160a01b039384161790915561018084015160058401805483169184169190911790556101a090930151600690920180549093169181169190911790915560405186918816907fd02727da4c6c6c111e00310108209a4de39f6817414df43ca1a10730d47c6a3490611e7f903390615553565b60405180910390a3505050505050565b604051630935e01b60e21b8152869081906001600160a01b038216906324d7806c90611ebf903390600401615553565b602060405180830381865afa158015611edc573d6000803e3d6000fd5b505050506040513d601f19601f82011682018060405250810190611f009190615bce565b611f1c5760405162461bcd60e51b81526004016105f790615beb565b848314611f855760405162461bcd60e51b815260206004820152603160248201527f556e657175616c206e756d626572206f6620726563697069656e747320616e6460448201527008185b5bdd5b9d1cc81c1c9bdd9a591959607a1b60648201526084016105f7565b6001600160a01b03881660009081526009602090815260408083208a845290915281208054909190611fbe9063ffffffff1660016159aa565b825463ffffffff9190911691506003600160c81b90910460ff161061217a5760005b87811015612174576000878783818110611ffc57611ffc615a38565b90506020020160208101906120119190615f00565b905060008161ffff166001600160401b0381111561203157612031615253565b60405190808252806020026020018201604052801561205a578160200160208202803683370190505b50905060005b8261ffff168110156120c5576120768186615a25565b62ffffff1660188e66ffffffffffffff16901b1766ffffffffffffff168282815181106120a5576120a5615a38565b6001600160501b0390921660209283029190910190910152600101612060565b508c6001600160a01b0316634278330e8c8c868181106120e7576120e7615a38565b90506020020160208101906120fc9190615236565b836040518363ffffffff1660e01b815260040161211a929190615a4e565b6000604051808303816000875af1158015612139573d6000803e3d6000fd5b505050506040513d6000823e601f3d908101601f191682016040526121619190810190615aad565b505061ffff169190910190600101611fe0565b5061230b565b60005b878110156123095760008b6001600160a01b031663e00aab4b8b8b858181106121a8576121a8615a38565b90506020020160208101906121bd9190615236565b8a8a868181106121cf576121cf615a38565b90506020020160208101906121e49190615f00565b6040518363ffffffff1660e01b8152600401612201929190615b52565b6000604051808303816000875af1158015612220573d6000803e3d6000fd5b505050506040513d6000823e601f3d908101601f191682016040526122489190810190615aad565b905060005b81518110156122fa5760405180604001604052808d6001600160e01b03168152602001828661227c9190615a25565b63ffffffff1690526001600160a01b038e166000908152600a6020526040812084519091908590859081106122b3576122b3615a38565b6020908102919091018101518252818101929092526040016000208251929091015163ffffffff16600160e01b026001600160e01b0390921691909117905560010161224d565b5051919091019060010161217d565b505b815462ffffff906001906123259063ffffffff1684615f1b565b61232f9190615f1b565b11156123725760405162461bcd60e51b8152602060048201526012602482015271151bdbc81b585b9e481c995c5d595cdd195960721b60448201526064016105f7565b81546001906123879063ffffffff1683615f1b565b6123919190615f1b565b825483906000906123a990849063ffffffff166159aa565b82546101009290920a63ffffffff8181021990931691831602179091558354600160201b90041615801591506123ee5750815463ffffffff600160201b820481169116115b15612412578154600160201b63ffffffff82160263ffffffff60201b199091161782555b50505050505050505050565b612426613fcf565b612431600182613ed7565b61105d5760405133906001600160a01b038316907f7e1a1a08d52e4ba0e21554733d66165fd5151f99460116223d9e3a608eec5cb190600090a361105b600182614107565b61247e613fcf565b612488600061411c565b565b33612493612b72565b6001600160a01b031614806124ae57506124ae600133613ed7565b6124ca5760405162461bcd60e51b81526004016105f790615f2e565b600380546001600160a01b0319166001600160a01b0392909216919091179055565b60006124f6614e75565b6001600160a01b0384166000908152600a6020908152604080832086845282528083208151808301909252546001600160e01b038116808352600160e01b90910463ffffffff169282019290925291036125cb5760405163b4b5b48f60e01b8152600481018590526000906001600160a01b0387169063b4b5b48f90602401602060405180830381865afa158015612592573d6000803e3d6000fd5b505050506040513d601f19601f820116820180604052508101906125b69190615f72565b60181c66ffffffffffffff1693506125d99050565b80516001600160e01b031692505b6125e385846139a8565b604080516101c081018252825463ffffffff8082168352600160201b820481166020840152600160401b8204169282019290925265ffffffffffff600160601b830481166060830152600160901b8304166080820152919060a083019060ff600160c01b90910416600381111561265c5761265c615064565b600381111561266d5761266d615064565b8152815460ff600160c81b820481166020840152600160d01b9091041615156040820152600182015460608201526002820180546080909201916126b090615b94565b80601f01602080910402602001604051908101604052809291908181526020018280546126dc90615b94565b80156127295780601f106126fe57610100808354040283529160200191612729565b820191906000526020600020905b81548152906001019060200180831161270c57829003601f168201915b50505091835250506003820154602082015260048201546001600160a01b03908116604083015260058301548116606083015260069092015490911660809091015292959294509192505050565b600061278389896139a8565b805490915061ffff88169082906000906127a490849063ffffffff166159aa565b82546101009290920a63ffffffff8181021990931691831602179091558254600160201b900416159050806127e95750805463ffffffff600160201b82048116911611155b80156128015750805462ffffff63ffffffff90911611155b61281d5760405162461bcd60e51b81526004016105f7906159c7565b8054600682015461285e918b918b9165ffffffffffff600160601b8204811692600160901b90920416908b908b908b908b906001600160a01b03168b61416c565b80546000906128789061ffff8a169063ffffffff16615a08565b6128839060016159aa565b600583015460038401546004850154600186015463ffffffff9490941694506128c1936001600160a01b0393841693909116908c9015156000613c22565b81546003600160c81b90910460ff1610612a045760008861ffff166001600160401b038111156128f3576128f3615253565b60405190808252806020026020018201604052801561291c578160200160208202803683370190505b50905060005b8961ffff16811015612987576129388184615a25565b62ffffff1660188c66ffffffffffffff16901b1766ffffffffffffff1682828151811061296757612967615a38565b6001600160501b0390921660209283029190910190910152600101612922565b5060405163213c198760e11b81526001600160a01b038c1690634278330e906129b69087908590600401615a4e565b6000604051808303816000875af11580156129d5573d6000803e3d6000fd5b505050506040513d6000823e601f3d908101601f191682016040526129fd9190810190615aad565b5050612b34565b60405163e00aab4b60e01b81526000906001600160a01b038c169063e00aab4b90612a359087908d90600401615b52565b6000604051808303816000875af1158015612a54573d6000803e3d6000fd5b505050506040513d6000823e601f3d908101601f19168201604052612a7c9190810190615aad565b905060005b8961ffff16811015612b315760405180604001604052808c6001600160e01b031681526020018285612ab39190615a25565b63ffffffff1690526001600160a01b038d166000908152600a602052604081208451909190859085908110612aea57612aea615a38565b6020908102919091018101518252818101929092526040016000208251929091015163ffffffff16600160e01b026001600160e01b03909216919091179055600101612a81565b50505b888a6001600160a01b03167ff0c2c4b26ee655fec8ef1feddc5048d4eddd9165d8b2a792b67d6685c97de26d8a33876040516109f093929190615b6f565b6000546001600160a01b031690565b604051630935e01b60e21b8152869081906001600160a01b038216906324d7806c90612bb1903390600401615553565b602060405180830381865afa158015612bce573d6000803e3d6000fd5b505050506040513d601f19601f82011682018060405250810190612bf29190615bce565b612c0e5760405162461bcd60e51b81526004016105f790615beb565b6001600160a01b03881660009081526009602090815260408083208a845290915281208054909190600160c01b900460ff166003811115612c5157612c51615064565b03612c6e5760405162461bcd60e51b81526004016105f790615c36565b6000876003811115612c8257612c82615064565b03612c9f5760405162461bcd60e51b81526004016105f790615c65565b80548790829060ff60c01b1916600160c01b836003811115612cc357612cc3615064565b021790555060028101612cd7858783615f9b565b50805460ff60d01b1916600160d01b8715150217815560405188906001600160a01b038b16906000805160206162ac83398151915290600090a3505050505050505050565b604051630935e01b60e21b8152849081906001600160a01b038216906324d7806c90612d4c903390600401615553565b602060405180830381865afa158015612d69573d6000803e3d6000fd5b505050506040513d601f19601f82011682018060405250810190612d8d9190615bce565b612da95760405162461bcd60e51b81526004016105f790615beb565b6001600160a01b0386166000908152600960209081526040808320888452909152902060018154600160c01b900460ff166003811115612deb57612deb615064565b148015612e0057508054600160d01b900460ff165b612e475760405162461bcd60e51b8152602060048201526018602482015277125b9d985b1a59081cdd1bdc9859d9481c1c9bdd1bd8dbdb60421b60448201526064016105f7565b806002018585604051602001612e5f93929190616055565b604051602081830303815290604052816002019081612e7e9190615d61565b5060405186906001600160a01b038916906000805160206162ac83398151915290600090a350505050505050565b600080612eb98585610a04565b9050611775858583610100015186614234565b6001600160a01b0382166000908152600a602090815260408083208484528252918290208251808401909352546001600160e01b0381168352600160e01b900463ffffffff1690820152606090612f21614e75565b81516000906001600160e01b031615613102576001600160a01b038616600090815260096020908152604080832086516001600160e01b0316845282529182902082516101c081018452815463ffffffff8082168352600160201b8204811694830194909452600160401b81049093169381019390935265ffffffffffff600160601b830481166060850152600160901b83041660808401529060a083019060ff600160c01b909104166003811115612fdc57612fdc615064565b6003811115612fed57612fed615064565b8152815460ff600160c81b820481166020840152600160d01b90910416151560408201526001820154606082015260028201805460809092019161303090615b94565b80601f016020809104026020016040519081016040528092919081815260200182805461305c90615b94565b80156130a95780601f1061307e576101008083540402835291602001916130a9565b820191906000526020600020905b81548152906001019060200180831161308c57829003601f168201915b5050509183525050600382015460208083019190915260048301546001600160a01b03908116604084015260058401548116606084015260069093015490921660809091015284015190925063ffffffff169050613387565b60405163b4b5b48f60e01b8152600481018690526000906001600160a01b0388169063b4b5b48f90602401602060405180830381865afa15801561314a573d6000803e3d6000fd5b505050506040513d601f19601f8201168201806040525081019061316e9190615f72565b905066ffffffffffffff601882901c1660008190036131c65760405162461bcd60e51b8152602060048201526014602482015273151bdad95b88191bd95cc81b9bdd08195e1a5cdd60621b60448201526064016105f7565b6001600160a01b038816600090815260096020908152604080832066ffffffffffffff8516845282529182902082516101c081018452815463ffffffff8082168352600160201b8204811694830194909452600160401b81049093169381019390935265ffffffffffff600160601b830481166060850152600160901b83041660808401529060a083019060ff600160c01b90910416600381111561326d5761326d615064565b600381111561327e5761327e615064565b8152815460ff600160c81b820481166020840152600160d01b9091041615156040820152600182015460608201526002820180546080909201916132c190615b94565b80601f01602080910402602001604051908101604052809291908181526020018280546132ed90615b94565b801561333a5780601f1061330f5761010080835404028352916020019161333a565b820191906000526020600020905b81548152906001019060200180831161331d57829003601f168201915b50505091835250506003820154602082015260048201546001600160a01b03908116604083015260058301548116606083015260069092015490911660809091015293505062ffffff1690505b60408051602081019091526000815260028360a0015160038111156133ae576133ae615064565b036133e4575060408051808201909152601481527368747470733a2f2f617277656176652e6e65742f60601b6020820152613421565b60038360a0015160038111156133fc576133fc615064565b036134215750604080518082019091526007815266697066733a2f2f60c81b60208201525b6101208301516040516134389183916020016160d7565b60405160208183030381529060405294508260e0015161347f578461345c836142cd565b60405160200161346d929190616106565b60405160208183030381529060405294505b5050505092915050565b613491613fcf565b6001600160a01b0381166134f65760405162461bcd60e51b815260206004820152602660248201527f4f776e61626c653a206e6577206f776e657220697320746865207a65726f206160448201526564647265737360d01b60648201526084016105f7565b61105d8161411c565b33613508612b72565b6001600160a01b031614806135235750613523600133613ed7565b61353f5760405162461bcd60e51b81526004016105f790615f2e565b6000826001600160a01b03168260405160006040518083038185875af1925050503d806000811461358c576040519150601f19603f3d011682016040523d82523d6000602084013e613591565b606091505b50509050806135b25760405162461bcd60e51b81526004016105f790616142565b505050565b606060006135c58686610a04565b905082806001600160401b038111156135e0576135e0615253565b604051908082528060200260200182016040528015613609578160200160208202803683370190505b50925060005b818110156136785761364e888885610100015189898681811061363457613634615a38565b90506020020160208101906136499190615e69565b614234565b84828151811061366057613660615a38565b9115156020928302919091019091015260010161360f565b505050949350505050565b600061368f87876139a8565b60068101549091506001600160a01b0316156136bd5760405162461bcd60e51b81526004016105f790615960565b805463ffffffff600160201b820481169183916000916136dd9116616179565b91906101000a81548163ffffffff021916908363ffffffff160217905563ffffffff1611158061371957508054600160201b900463ffffffff16155b80156137315750805462ffffff63ffffffff90911611155b6137805760405162461bcd60e51b815260206004820152602c602482015260008051602061628c83398151915260448201526b72207468697320636c61696d60a01b60648201526084016105f7565b805460018201546137c3918991899165ffffffffffff600160601b8204811692600160901b83049091169163ffffffff600160401b90910416908b8b8b8b61435f565b6005810154600382015460048301546001808501546137f4946001600160a01b039081169493169190151581613c22565b80546003600160c81b90910460ff161061389957805460405163d397371960e01b815233600482015262ffffff909116601888901b66ffffffff000000161760248201819052906001600160a01b0389169063d3973719906044016020604051808303816000875af115801561386e573d6000803e3d6000fd5b505050506040513d601f19601f820116820180604052508101906138929190615e84565b5050613969565b604051630525194b60e31b81526000906001600160a01b03891690632928ca58906138c8903390600401615553565b6020604051808303816000875af11580156138e7573d6000803e3d6000fd5b505050506040513d601f19601f8201168201806040525081019061390b9190615e84565b6040805180820182526001600160e01b03808b168252855463ffffffff90811660208085019182526001600160a01b038f166000908152600a82528681209781529690529390942091519251909316600160e01b0291909216179055505b60405186906001600160a01b038916907f5d404f369772cfab2b65717fca9bc2077efeab89a0dbec036bf0c13783154eb190600090a350505050505050565b6001600160a01b03821660009081526009602090815260408083208484529091528120908154600160c01b900460ff1660038111156139e9576139e9615064565b036105b75760405162461bcd60e51b81526004016105f790615c36565b428a65ffffffffffff1611158015613a36575065ffffffffffff89161580613a365750428965ffffffffffff1610155b613a525760405162461bcd60e51b81526004016105f79061619c565b8615613b325761ffff861684148015613a6e575061ffff861682145b613a8a5760405162461bcd60e51b81526004016105f7906161c4565b60005b8661ffff16811015613b2c57613b24828e8e8b8a8a87818110613ab257613ab2615a38565b9050602002016020810190613ac79190615e69565b898988818110613ad957613ad9615a38565b9050602002810190613aeb91906161eb565b808060200260200160405190810160405280939291908181526020018383602002808284376000920191909152508b92506144c3915050565b600101613a8d565b50613c14565b63ffffffff881615613c14576001600160a01b03808d1660009081526004602090815260408083208f845282528083209385168352929052908120805461ffff89169290613b81908490615a25565b90915550506001600160a01b03808d1660009081526004602090815260408083208f845282528083209385168352929052205463ffffffff89161015613c145760405162461bcd60e51b815260206004820152602260248201527f546f6f206d616e792072657175657374656420666f7220746869732077616c6c604482015261195d60f21b60648201526084016105f7565b505050505050505050505050565b60006001600160a01b03871615613d10576001600160a01b0387166323b872dd3387613c5261ffff89168b616234565b6040516001600160e01b031960e086901b1681526001600160a01b03938416600482015292909116602483015260448201526064016020604051808303816000875af1158015613ca6573d6000803e3d6000fd5b505050506040513d601f19601f82011682018060405250810190613cca9190615bce565b613d0b5760405162461bcd60e51b8152602060048201526012602482015271496e73756666696369656e742066756e647360701b60448201526064016105f7565b613d13565b50845b6003546001600160a01b03161580613d29575081155b80613da257506003546040516345ecd02f60e01b81526001600160a01b03909116906345ecd02f90613d5f903390600401615553565b602060405180830381865afa158015613d7c573d6000803e3d6000fd5b505050506040513d601f19601f82011682018060405250810190613da09190615bce565b155b15613dcf5782613db9576601c6bf52634000613dc2565b6602738d24e520005b613dcc9082615a25565b90505b60018461ffff161115613dfd57613dea61ffff851682616234565b9050613dfa61ffff851687616234565b95505b80341015613e3e5760405162461bcd60e51b815260206004820152600e60248201526d125b9d985b1a5908185b5bdd5b9d60921b60448201526064016105f7565b6001600160a01b038716158015613e5457508515155b15613ece576000856001600160a01b03168760405160006040518083038185875af1925050503d8060008114613ea6576040519150601f19603f3d011682016040523d82523d6000602084013e613eab565b606091505b5050905080613ecc5760405162461bcd60e51b81526004016105f790616142565b505b50505050505050565b6000613eec836001600160a01b038416614728565b9392505050565b428a65ffffffffffff1611158015613f23575065ffffffffffff89161580613f235750428965ffffffffffff1610155b613f3f5760405162461bcd60e51b81526004016105f79061619c565b8615613fa75761ffff861684148015613f5b575061ffff861682145b613f775760405162461bcd60e51b81526004016105f7906161c4565b60005b8661ffff16811015613b2c57613f9f338e8e8b8a8a87818110613ab257613ab2615a38565b600101613f7a565b6001600160a01b0381163314613b325760405162461bcd60e51b81526004016105f7906161c4565b33613fd8612b72565b6001600160a01b0316146124885760405162461bcd60e51b815260206004820181905260248201527f4f776e61626c653a2063616c6c6572206973206e6f7420746865206f776e657260448201526064016105f7565b6000613eec836001600160a01b038416614740565b60006105b7825490565b6000613eec838361483a565b60008463ffffffff166000036140d05760405162461bcd60e51b815260206004820152603660248201527f43616e206f6e6c7920726574726965766520666f72206e6f6e2d6d65726b6c65604482015275040c6d8c2d2dae640eed2e8d040eec2d8d8cae89ac2f60531b60648201526084016105f7565b506001600160a01b038083166000908152600460209081526040808320858452825280832093871683529290522054949350505050565b6000613eec836001600160a01b038416614864565b600080546001600160a01b038381166001600160a01b0319831681178455604051919092169283917f8be0079c531659141344cd1fd0a4f28419497f9722a3daafe3b4186f6b6457e09190a35050565b6001600160a01b0382166141bb5760405162461bcd60e51b8152602060048201526016602482015275135d5cdd081899481cda59db985d1d5c99481b5a5b9d60521b60448201526064016105f7565b846141d85760405162461bcd60e51b81526004016105f7906161c4565b428865ffffffffffff1611158015614208575065ffffffffffff871615806142085750428765ffffffffffff1610155b6142245760405162461bcd60e51b81526004016105f79061619c565b6124128a8a8888888888886148ae565b600062ffffff600883901c1683820361428e5760405162461bcd60e51b815260206004820152601c60248201527b43616e206f6e6c7920636865636b206d65726b6c6520636c61696d7360201b60448201526064016105f7565b6001600160a01b038616600090815260056020908152604080832088845282528083209383529290522054600160ff84161b1615159050949350505050565b606060006142da83614aad565b60010190506000816001600160401b038111156142f9576142f9615253565b6040519080825280601f01601f191660200182016040528015614323576020820181803683370190505b5090508181016020015b600019016f181899199a1a9b1b9c1cb0b131b232b360811b600a86061a8153600a850494508461432d57509392505050565b428865ffffffffffff161115801561438f575065ffffffffffff8716158061438f5750428765ffffffffffff1610155b6143ab5760405162461bcd60e51b81526004016105f79061619c565b84156143f9576143f4338b8b88888888808060200260200160405190810160405280939291908181526020018383602002808284376000920191909152508a92506144c3915050565b612412565b6001600160a01b03811633146144215760405162461bcd60e51b81526004016105f7906161c4565b63ffffffff861615612412576001600160a01b038a1660009081526004602090815260408083208c845282528083203384529091528120805463ffffffff8916929061446c90615e1a565b918290555011156124125760405162461bcd60e51b815260206004820152602d602482015260008051602061628c83398151915260448201526c1c881d1a1a5cc81dd85b1b195d609a1b60648201526084016105f7565b6000876001600160a01b0316826001600160a01b03160361450e5787846040516020016144f192919061624b565b604051602081830303815290604052805190602001209050614615565b60405163090c9a2d60e41b81526001600160a01b03898116600483015283811660248301523060448301527f000000000000000000000000000000000000000000000000000000000000000091908216906390c9a2d090606401602060405180830381865afa158015614585573d6000803e3d6000fd5b505050506040513d601f19601f820116820180604052508101906145a99190615bce565b6145e85760405162461bcd60e51b815260206004820152601060248201526f496e76616c69642064656c656761746560801b60448201526064016105f7565b82856040516020016145fb92919061624b565b604051602081830303815290604052805190602001209150505b614620838683614b83565b61466c5760405162461bcd60e51b815260206004820152601d60248201527f436f756c64206e6f7420766572696679206d65726b6c652070726f6f6600000060448201526064016105f7565b6001600160a01b0387166000908152600560209081526040808320898452825280832062ffffff600889901c16808552925290912054600160ff87161b808216156146ea5760405162461bcd60e51b815260206004820152600e60248201526d105b1c9958591e481b5a5b9d195960921b60448201526064016105f7565b6001600160a01b0390991660009081526005602090815260408083209a83529981528982209382529290925296902095909617909455505050505050565b60009081526001919091016020526040902054151590565b60008181526001830160205260408120548015614829576000614764600183615f1b565b855490915060009061477890600190615f1b565b90508181146147dd57600086600001828154811061479857614798615a38565b90600052602060002001549050808760000184815481106147bb576147bb615a38565b6000918252602080832090910192909255918252600188019052604090208390555b85548690806147ee576147ee616275565b6001900381819060005260206000200160009055905585600101600086815260200190815260200160002060009055600193505050506105b7565b60009150506105b7565b5092915050565b600082600001828154811061485157614851615a38565b9060005260206000200154905092915050565b60006148708383614728565b6148a6575081546001818101845560008481526020808220909301849055845484825282860190935260409020919091556105b7565b5060006105b7565b6040517b0ca2ba3432b932bab69029b4b3b732b21026b2b9b9b0b3b29d05199960211b6020820152603c8101889052605c81018490526001600160601b0319606083901b16607c82015260009060900160408051601f1981840301815291815281516020928301206001600160a01b038c166000908152600684528281208c8252845282812082825290935291205490915060ff161561498c5760405162461bcd60e51b815260206004820152601960248201527821b0b73737ba103932b83630bc903a3930b739b0b1ba34b7b760391b60448201526064016105f7565b8085146149cf5760405162461bcd60e51b81526020600482015260116024820152704d616c666f726d6564206d65737361676560781b60448201526064016105f7565b6000614a1388888080601f0160208091040260200160405190810160405280939291908181526020018383808284376000920191909152508a93925050614b999050565b9050836001600160a01b0316816001600160a01b031614614a695760405162461bcd60e51b815260206004820152601060248201526f24b731b7b93932b1ba1039b4b3b732b960811b60448201526064016105f7565b506001600160a01b0390981660009081526006602090815260408083209983529881528882209982529890985250505092909320805460ff19166001179055505050565b60008072184f03e93ff9f4daa797ed6e38ed64bf6a1f0160401b8310614aec5772184f03e93ff9f4daa797ed6e38ed64bf6a1f0160401b830492506040015b6904ee2d6d415b85acef8160201b8310614b16576904ee2d6d415b85acef8160201b830492506020015b662386f26fc100008310614b3457662386f26fc10000830492506010015b6305f5e1008310614b4c576305f5e100830492506008015b6127108310614b6057612710830492506004015b60648310614b72576064830492506002015b600a83106105b75760010192915050565b600082614b908584614bbd565b14949350505050565b6000806000614ba88585614c02565b91509150614bb581614c47565b509392505050565b600081815b8451811015614bb557614bee82868381518110614be157614be1615a38565b6020026020010151614d8c565b915080614bfa81615e1a565b915050614bc2565b6000808251604103614c385760208301516040840151606085015160001a614c2c87828585614dbb565b94509450505050614c40565b506000905060025b9250929050565b6000816004811115614c5b57614c5b615064565b03614c635750565b6001816004811115614c7757614c77615064565b03614cbf5760405162461bcd60e51b815260206004820152601860248201527745434453413a20696e76616c6964207369676e617475726560401b60448201526064016105f7565b6002816004811115614cd357614cd3615064565b03614d205760405162461bcd60e51b815260206004820152601f60248201527f45434453413a20696e76616c6964207369676e6174757265206c656e6774680060448201526064016105f7565b6003816004811115614d3457614d34615064565b0361105d5760405162461bcd60e51b815260206004820152602260248201527f45434453413a20696e76616c6964207369676e6174757265202773272076616c604482015261756560f01b60648201526084016105f7565b6000818310614da8576000828152602084905260409020613eec565b6000838152602083905260409020613eec565b6000806fa2a8918ca85bafe22016d0b997e4df60600160ff1b03831115614de85750600090506003614e6c565b6040805160008082526020820180845289905260ff881692820192909252606081018690526080810185905260019060a0016020604051602081039080840390855afa158015614e3c573d6000803e3d6000fd5b5050604051601f1901519150506001600160a01b038116614e6557600060019250925050614e6c565b9150600090505b94509492505050565b604080516101c08101825260008082526020820181905291810182905260608101829052608081018290529060a08201908152600060208201819052604082018190526060808301829052608083015260a0820181905260c0820181905260e082018190526101009091015290565b600060208284031215614ef657600080fd5b81356001600160e01b031981168114613eec57600080fd5b6001600160a01b038116811461105d57600080fd5b8035614f2e81614f0e565b919050565b803561ffff81168114614f2e57600080fd5b60008083601f840112614f5757600080fd5b5081356001600160401b03811115614f6e57600080fd5b6020830191508360208260051b8501011115614c4057600080fd5b60008060008060008060008060c0898b031215614fa557600080fd5b8835614fb081614f0e565b975060208901359650614fc560408a01614f33565b955060608901356001600160401b0380821115614fe157600080fd5b614fed8c838d01614f45565b909750955060808b013591508082111561500657600080fd5b506150138b828c01614f45565b90945092505060a089013561502781614f0e565b809150509295985092959890939650565b6000806040838503121561504b57600080fd5b823561505681614f0e565b946020939093013593505050565b634e487b7160e01b600052602160045260246000fd5b6004811061509857634e487b7160e01b600052602160045260246000fd5b9052565b60005b838110156150b757818101518382015260200161509f565b50506000910152565b600081518084526150d881602086016020860161509c565b601f01601f19169290920160200192915050565b6001600160a01b03169052565b805163ffffffff16825260006101c0602083015161511f602086018263ffffffff169052565b506040830151615137604086018263ffffffff169052565b506060830151615151606086018265ffffffffffff169052565b50608083015161516b608086018265ffffffffffff169052565b5060a083015161517e60a086018261507a565b5060c083015161519360c086018260ff169052565b5060e08301516151a760e086018215159052565b506101008084015181860152506101208084015182828701526151cc838701826150c0565b92505050610140808401518186015250610160808401516151ef828701826150ec565b505061018080840151615204828701826150ec565b50506101a080840151615219828701826150ec565b5090949350505050565b602081526000613eec60208301846150f9565b60006020828403121561524857600080fd5b8135613eec81614f0e565b634e487b7160e01b600052604160045260246000fd5b60405161018081016001600160401b038111828210171561528c5761528c615253565b60405290565b604051601f8201601f191681016001600160401b03811182821017156152ba576152ba615253565b604052919050565b803563ffffffff81168114614f2e57600080fd5b803565ffffffffffff81168114614f2e57600080fd5b803560048110614f2e57600080fd5b801515811461105d57600080fd5b8035614f2e816152fb565b600082601f83011261532557600080fd5b81356001600160401b0381111561533e5761533e615253565b615351601f8201601f1916602001615292565b81815284602083860101111561536657600080fd5b816020850160208301376000918101602001919091529392505050565b60008060006060848603121561539857600080fd5b83356153a381614f0e565b92506020840135915060408401356001600160401b03808211156153c657600080fd5b9085019061018082880312156153db57600080fd5b6153e3615269565b6153ec836152c2565b81526153fa602084016152c2565b602082015261540b604084016152d6565b604082015261541c606084016152d6565b606082015261542d608084016152ec565b608082015261543e60a08401615309565b60a082015260c083013560c082015260e08301358281111561545f57600080fd5b61546b89828601615314565b60e0830152506101008381013590820152610120915061548c828401614f23565b8282015261014091506154a0828401614f23565b8282015261016091506154b4828401614f23565b828201528093505050509250925092565b6020808252825182820181905260009190848201906040850190845b818110156155065783516001600160a01b0316835292840192918401916001016154e1565b50909695505050505050565b60008060006060848603121561552757600080fd5b833561553281614f0e565b9250602084013561554281614f0e565b929592945050506040919091013590565b6001600160a01b0391909116815260200190565b60008060006060848603121561557c57600080fd5b833561558781614f0e565b92506020840135915060408401356001600160401b038111156155a957600080fd5b840161018081870312156155bc57600080fd5b809150509250925092565b600080600080600080608087890312156155e057600080fd5b86356155eb81614f0e565b95506020870135945060408701356001600160401b038082111561560e57600080fd5b61561a8a838b01614f45565b9096509450606089013591508082111561563357600080fd5b5061564089828a01614f45565b979a9699509497509295939492505050565b82815260406020820152600061566b60408301846150f9565b949350505050565b60008083601f84011261568557600080fd5b5081356001600160401b0381111561569c57600080fd5b602083019150836020828501011115614c4057600080fd5b60008060008060008060008060e0898b0312156156d057600080fd5b88356156db81614f0e565b9750602089013596506156f060408a01614f33565b955060608901356001600160401b0381111561570b57600080fd5b6157178b828c01615673565b9096509450506080890135925060a0890135915060c089013561502781614f0e565b60008060008060008060a0878903121561575257600080fd5b863561575d81614f0e565b955060208701359450615772604088016152ec565b93506060870135615782816152fb565b925060808701356001600160401b0381111561579d57600080fd5b61564089828a01615673565b600080600080606085870312156157bf57600080fd5b84356157ca81614f0e565b93506020850135925060408501356001600160401b038111156157ec57600080fd5b6157f887828801615673565b95989497509550505050565b60008060006060848603121561581957600080fd5b833561582481614f0e565b925060208401359150615839604085016152c2565b90509250925092565b602081526000613eec60208301846150c0565b6000806000806060858703121561586b57600080fd5b843561587681614f0e565b93506020850135925060408501356001600160401b0381111561589857600080fd5b6157f887828801614f45565b6020808252825182820181905260009190848201906040850190845b818110156155065783511515835292840192918401916001016158c0565b60008060008060008060a087890312156158f757600080fd5b863561590281614f0e565b955060208701359450615917604088016152c2565b935060608701356001600160401b0381111561593257600080fd5b61593e89828a01614f45565b909450925050608087013561595281614f0e565b809150509295509295509295565b6020808252601a90820152794d75737420757365207369676e6174757265206d696e74696e6760301b604082015260600190565b634e487b7160e01b600052601160045260246000fd5b63ffffffff81811683821601908082111561483357614833615994565b60208082526021908201527f546f6f206d616e792072657175657374656420666f72207468697320636c61696040820152606d60f81b606082015260800190565b63ffffffff82811682821603908082111561483357614833615994565b808201808211156105b7576105b7615994565b634e487b7160e01b600052603260045260246000fd5b6001600160a01b038316815260406020808301829052835191830182905260009184820191906060850190845b81811015615aa05784516001600160501b031683529383019391830191600101615a7b565b5090979650505050505050565b60006020808385031215615ac057600080fd5b82516001600160401b0380821115615ad757600080fd5b818501915085601f830112615aeb57600080fd5b815181811115615afd57615afd615253565b8060051b9150615b0e848301615292565b8181529183018401918481019088841115615b2857600080fd5b938501935b83851015615b4657845182529385019390850190615b2d565b98975050505050505050565b6001600160a01b0392909216825261ffff16602082015260400190565b61ffff9390931683526001600160a01b03918216602084015216604082015260600190565b600181811c90821680615ba857607f821691505b602082108103615bc857634e487b7160e01b600052602260045260246000fd5b50919050565b600060208284031215615be057600080fd5b8151613eec816152fb565b6020808252602b908201527f57616c6c6574206973206e6f7420616e2061646d696e6973747261746f72206660408201526a1bdc8818dbdb9d1c9858dd60aa1b606082015260800190565b60208082526015908201527410db185a5b481b9bdd081a5b9a5d1a585b1a5e9959605a1b604082015260600190565b60208082526023908201527f43616e6e6f742073657420696e76616c69642073746f726167652070726f746f60408201526218dbdb60ea1b606082015260800190565b60208082526036908201527f43616e6e6f742068617665207374617274446174652067726561746572207468604082015275616e206f7220657175616c20746f20656e644461746560501b606082015260800190565b601f8211156135b257600081815260208120601f850160051c81016020861015615d255750805b601f850160051c820191505b81811015615d4457828155600101615d31565b505050505050565b600019600383901b1c191660019190911b1790565b81516001600160401b03811115615d7a57615d7a615253565b615d8e81615d888454615b94565b84615cfe565b602080601f831160018114615dbd5760008415615dab5750858301515b615db58582615d4c565b865550615d44565b600085815260208120601f198616915b82811015615dec57888601518255948401946001909101908401615dcd565b5085821015615e0a5787850151600019600388901b60f8161c191681555b5050505050600190811b01905550565b600060018201615e2c57615e2c615994565b5060010190565b600060208284031215615e4557600080fd5b613eec826152ec565b600060208284031215615e6057600080fd5b613eec826152d6565b600060208284031215615e7b57600080fd5b613eec826152c2565b600060208284031215615e9657600080fd5b5051919050565b600060208284031215615eaf57600080fd5b8135613eec816152fb565b6000808335601e19843603018112615ed157600080fd5b8301803591506001600160401b03821115615eeb57600080fd5b602001915036819003821315614c4057600080fd5b600060208284031215615f1257600080fd5b613eec82614f33565b818103818111156105b7576105b7615994565b60208082526024908201527f41646d696e436f6e74726f6c3a204d757374206265206f776e6572206f7220616040820152633236b4b760e11b606082015260800190565b600060208284031215615f8457600080fd5b81516001600160501b0381168114613eec57600080fd5b6001600160401b03831115615fb257615fb2615253565b615fc683615fc08354615b94565b83615cfe565b6000601f841160018114615ff45760008515615fe25750838201355b615fec8682615d4c565b84555061604e565b600083815260209020601f19861690835b828110156160255786850135825560209485019460019092019101616005565b50868210156160425760001960f88860031b161c19848701351681555b505060018560011b0183555b5050505050565b600080855461606381615b94565b6001828116801561607b5760018114616090576160bf565b60ff19841687528215158302870194506160bf565b8960005260208060002060005b858110156160b65781548a82015290840190820161609d565b50505082870194505b50505050838582376000930192835250909392505050565b600083516160e981846020880161509c565b8351908301906160fd81836020880161509c565b01949350505050565b6000835161611881846020880161509c565b602f60f81b908301908152835161613681600184016020880161509c565b01600101949350505050565b6020808252601e908201527f4661696c656420746f207472616e7366657220746f2072656365697665720000604082015260600190565b600063ffffffff80831681810361619257616192615994565b6001019392505050565b6020808252600e908201526d436c61696d20696e61637469766560901b604082015260600190565b6020808252600d908201526c125b9d985b1a59081a5b9c1d5d609a1b604082015260600190565b6000808335601e1984360301811261620257600080fd5b8301803591506001600160401b0382111561621c57600080fd5b6020019150600581901b3603821315614c4057600080fd5b80820281158282048414176105b7576105b7615994565b60609290921b6001600160601b031916825260e01b6001600160e01b031916601482015260180190565b634e487b7160e01b600052603160045260246000fdfe4d6178696d756d20746f6b656e7320616c7265616479206d696e74656420666f657336af9bb6c51d60c05491508d7d3026a24ee549d7a0af42e44c75bfaec47ca264697066735822122097bc5e093b9be468990701163ee0bd9500a998051e5e505df412c2a695f95f3364736f6c63430008120033",
			"opcodes": "PUSH1 0xA0 PUSH1 0x40 MSTORE CALLVALUE DUP1 ISZERO PUSH3 0x11 JUMPI PUSH1 0x0 DUP1 REVERT JUMPDEST POP PUSH1 0x40 MLOAD PUSH3 0x642B CODESIZE SUB DUP1 PUSH3 0x642B DUP4 CODECOPY DUP2 ADD PUSH1 0x40 DUP2 SWAP1 MSTORE PUSH3 0x34 SWAP2 PUSH3 0xCF JUMP JUMPDEST DUP2 DUP2 PUSH3 0x41 CALLER PUSH3 0x62 JUMP JUMPDEST PUSH3 0x4C DUP3 PUSH3 0x62 JUMP JUMPDEST PUSH1 0x1 PUSH1 0x1 PUSH1 0xA0 SHL SUB AND PUSH1 0x80 MSTORE POP PUSH3 0x107 SWAP2 POP POP JUMP JUMPDEST PUSH1 0x0 DUP1 SLOAD PUSH1 0x1 PUSH1 0x1 PUSH1 0xA0 SHL SUB DUP4 DUP2 AND PUSH1 0x1 PUSH1 0x1 PUSH1 0xA0 SHL SUB NOT DUP4 AND DUP2 OR DUP5 SSTORE PUSH1 0x40 MLOAD SWAP2 SWAP1 SWAP3 AND SWAP3 DUP4 SWAP2 PUSH32 0x8BE0079C531659141344CD1FD0A4F28419497F9722A3DAAFE3B4186F6B6457E0 SWAP2 SWAP1 LOG3 POP POP JUMP JUMPDEST DUP1 MLOAD PUSH1 0x1 PUSH1 0x1 PUSH1 0xA0 SHL SUB DUP2 AND DUP2 EQ PUSH3 0xCA JUMPI PUSH1 0x0 DUP1 REVERT JUMPDEST SWAP2 SWAP1 POP JUMP JUMPDEST PUSH1 0x0 DUP1 PUSH1 0x40 DUP4 DUP6 SUB SLT ISZERO PUSH3 0xE3 JUMPI PUSH1 0x0 DUP1 REVERT JUMPDEST PUSH3 0xEE DUP4 PUSH3 0xB2 JUMP JUMPDEST SWAP2 POP PUSH3 0xFE PUSH1 0x20 DUP5 ADD PUSH3 0xB2 JUMP JUMPDEST SWAP1 POP SWAP3 POP SWAP3 SWAP1 POP JUMP JUMPDEST PUSH1 0x80 MLOAD PUSH2 0x6301 PUSH3 0x12A PUSH1 0x0 CODECOPY PUSH1 0x0 DUP2 DUP2 PUSH2 0x2D7 ADD MSTORE PUSH2 0x453B ADD MSTORE PUSH2 0x6301 PUSH1 0x0 RETURN INVALID PUSH1 0x80 PUSH1 0x40 MSTORE PUSH1 0x4 CALLDATASIZE LT PUSH2 0x152 JUMPI PUSH1 0x0 CALLDATALOAD PUSH1 0xE0 SHR DUP1 PUSH4 0x1FFC9A7 EQ PUSH2 0x157 JUMPI DUP1 PUSH4 0x7591ACC EQ PUSH2 0x18C JUMPI DUP1 PUSH4 0xF79AB39 EQ PUSH2 0x1A1 JUMPI DUP1 PUSH4 0x24D7806C EQ PUSH2 0x1CE JUMPI DUP1 PUSH4 0x26C858A4 EQ PUSH2 0x1EE JUMPI DUP1 PUSH4 0x2D345670 EQ PUSH2 0x201 JUMPI DUP1 PUSH4 0x2FF38106 EQ PUSH2 0x221 JUMPI DUP1 PUSH4 0x31AE450B EQ PUSH2 0x241 JUMPI DUP1 PUSH4 0x42F3BEF4 EQ PUSH2 0x263 JUMPI DUP1 PUSH4 0x4BAA62BF EQ PUSH2 0x298 JUMPI DUP1 PUSH4 0x4DAADFF7 EQ PUSH2 0x2C5 JUMPI DUP1 PUSH4 0x5816B99C EQ PUSH2 0x2F9 JUMPI DUP1 PUSH4 0x5F2F5129 EQ PUSH2 0x319 JUMPI DUP1 PUSH4 0x6D73E669 EQ PUSH2 0x339 JUMPI DUP1 PUSH4 0x715018A6 EQ PUSH2 0x359 JUMPI DUP1 PUSH4 0x7AB39392 EQ PUSH2 0x36E JUMPI DUP1 PUSH4 0x895696F2 EQ PUSH2 0x38E JUMPI DUP1 PUSH4 0x8B220BD0 EQ PUSH2 0x3BC JUMPI DUP1 PUSH4 0x8DA5CB5B EQ PUSH2 0x3CF JUMPI DUP1 PUSH4 0x99C14347 EQ PUSH2 0x3E4 JUMPI DUP1 PUSH4 0xB93AA86C EQ PUSH2 0x404 JUMPI DUP1 PUSH4 0xCB799716 EQ PUSH2 0x424 JUMPI DUP1 PUSH4 0xCDA08536 EQ PUSH2 0x44D JUMPI DUP1 PUSH4 0xD7BF81A3 EQ PUSH2 0x46D JUMPI DUP1 PUSH4 0xE9DC6375 EQ PUSH2 0x488 JUMPI DUP1 PUSH4 0xF2FDE38B EQ PUSH2 0x4B5 JUMPI DUP1 PUSH4 0xF3FEF3A3 EQ PUSH2 0x4D5 JUMPI DUP1 PUSH4 0xF8A6137B EQ PUSH2 0x4F5 JUMPI DUP1 PUSH4 0xFA2B068F EQ PUSH2 0x522 JUMPI JUMPDEST PUSH1 0x0 DUP1 REVERT JUMPDEST CALLVALUE DUP1 ISZERO PUSH2 0x163 JUMPI PUSH1 0x0 DUP1 REVERT JUMPDEST POP PUSH2 0x177 PUSH2 0x172 CALLDATASIZE PUSH1 0x4 PUSH2 0x4EE4 JUMP JUMPDEST PUSH2 0x535 JUMP JUMPDEST PUSH1 0x40 MLOAD SWAP1 ISZERO ISZERO DUP2 MSTORE PUSH1 0x20 ADD JUMPDEST PUSH1 0x40 MLOAD DUP1 SWAP2 SUB SWAP1 RETURN JUMPDEST PUSH2 0x19F PUSH2 0x19A CALLDATASIZE PUSH1 0x4 PUSH2 0x4F89 JUMP JUMPDEST PUSH2 0x5BD JUMP JUMPDEST STOP JUMPDEST CALLVALUE DUP1 ISZERO PUSH2 0x1AD JUMPI PUSH1 0x0 DUP1 REVERT JUMPDEST POP PUSH2 0x1C1 PUSH2 0x1BC CALLDATASIZE PUSH1 0x4 PUSH2 0x5038 JUMP JUMPDEST PUSH2 0xA04 JUMP JUMPDEST PUSH1 0x40 MLOAD PUSH2 0x183 SWAP2 SWAP1 PUSH2 0x5223 JUMP JUMPDEST CALLVALUE DUP1 ISZERO PUSH2 0x1DA JUMPI PUSH1 0x0 DUP1 REVERT JUMPDEST POP PUSH2 0x177 PUSH2 0x1E9 CALLDATASIZE PUSH1 0x4 PUSH2 0x5236 JUMP JUMPDEST PUSH2 0xBA5 JUMP JUMPDEST PUSH2 0x19F PUSH2 0x1FC CALLDATASIZE PUSH1 0x4 PUSH2 0x4F89 JUMP JUMPDEST PUSH2 0xBD4 JUMP JUMPDEST CALLVALUE DUP1 ISZERO PUSH2 0x20D JUMPI PUSH1 0x0 DUP1 REVERT JUMPDEST POP PUSH2 0x19F PUSH2 0x21C CALLDATASIZE PUSH1 0x4 PUSH2 0x5236 JUMP JUMPDEST PUSH2 0x1002 JUMP JUMPDEST CALLVALUE DUP1 ISZERO PUSH2 0x22D JUMPI PUSH1 0x0 DUP1 REVERT JUMPDEST POP PUSH2 0x19F PUSH2 0x23C CALLDATASIZE PUSH1 0x4 PUSH2 0x5383 JUMP JUMPDEST PUSH2 0x1060 JUMP JUMPDEST CALLVALUE DUP1 ISZERO PUSH2 0x24D JUMPI PUSH1 0x0 DUP1 REVERT JUMPDEST POP PUSH2 0x256 PUSH2 0x16A8 JUMP JUMPDEST PUSH1 0x40 MLOAD PUSH2 0x183 SWAP2 SWAP1 PUSH2 0x54C5 JUMP JUMPDEST CALLVALUE DUP1 ISZERO PUSH2 0x26F JUMPI PUSH1 0x0 DUP1 REVERT JUMPDEST POP PUSH2 0x283 PUSH2 0x27E CALLDATASIZE PUSH1 0x4 PUSH2 0x5512 JUMP JUMPDEST PUSH2 0x1756 JUMP JUMPDEST PUSH1 0x40 MLOAD PUSH4 0xFFFFFFFF SWAP1 SWAP2 AND DUP2 MSTORE PUSH1 0x20 ADD PUSH2 0x183 JUMP JUMPDEST CALLVALUE DUP1 ISZERO PUSH2 0x2A4 JUMPI PUSH1 0x0 DUP1 REVERT JUMPDEST POP PUSH1 0x3 SLOAD PUSH2 0x2B8 SWAP1 PUSH1 0x1 PUSH1 0x1 PUSH1 0xA0 SHL SUB AND DUP2 JUMP JUMPDEST PUSH1 0x40 MLOAD PUSH2 0x183 SWAP2 SWAP1 PUSH2 0x5553 JUMP JUMPDEST CALLVALUE DUP1 ISZERO PUSH2 0x2D1 JUMPI PUSH1 0x0 DUP1 REVERT JUMPDEST POP PUSH2 0x2B8 PUSH32 0x0 DUP2 JUMP JUMPDEST CALLVALUE DUP1 ISZERO PUSH2 0x305 JUMPI PUSH1 0x0 DUP1 REVERT JUMPDEST POP PUSH2 0x19F PUSH2 0x314 CALLDATASIZE PUSH1 0x4 PUSH2 0x5567 JUMP JUMPDEST PUSH2 0x177E JUMP JUMPDEST CALLVALUE DUP1 ISZERO PUSH2 0x325 JUMPI PUSH1 0x0 DUP1 REVERT JUMPDEST POP PUSH2 0x19F PUSH2 0x334 CALLDATASIZE PUSH1 0x4 PUSH2 0x55C7 JUMP JUMPDEST PUSH2 0x1E8F JUMP JUMPDEST CALLVALUE DUP1 ISZERO PUSH2 0x345 JUMPI PUSH1 0x0 DUP1 REVERT JUMPDEST POP PUSH2 0x19F PUSH2 0x354 CALLDATASIZE PUSH1 0x4 PUSH2 0x5236 JUMP JUMPDEST PUSH2 0x241E JUMP JUMPDEST CALLVALUE DUP1 ISZERO PUSH2 0x365 JUMPI PUSH1 0x0 DUP1 REVERT JUMPDEST POP PUSH2 0x19F PUSH2 0x2476 JUMP JUMPDEST CALLVALUE DUP1 ISZERO PUSH2 0x37A JUMPI PUSH1 0x0 DUP1 REVERT JUMPDEST POP PUSH2 0x19F PUSH2 0x389 CALLDATASIZE PUSH1 0x4 PUSH2 0x5236 JUMP JUMPDEST PUSH2 0x248A JUMP JUMPDEST CALLVALUE DUP1 ISZERO PUSH2 0x39A JUMPI PUSH1 0x0 DUP1 REVERT JUMPDEST POP PUSH2 0x3AE PUSH2 0x3A9 CALLDATASIZE PUSH1 0x4 PUSH2 0x5038 JUMP JUMPDEST PUSH2 0x24EC JUMP JUMPDEST PUSH1 0x40 MLOAD PUSH2 0x183 SWAP3 SWAP2 SWAP1 PUSH2 0x5652 JUMP JUMPDEST PUSH2 0x19F PUSH2 0x3CA CALLDATASIZE PUSH1 0x4 PUSH2 0x56B4 JUMP JUMPDEST PUSH2 0x2777 JUMP JUMPDEST CALLVALUE DUP1 ISZERO PUSH2 0x3DB JUMPI PUSH1 0x0 DUP1 REVERT JUMPDEST POP PUSH2 0x2B8 PUSH2 0x2B72 JUMP JUMPDEST CALLVALUE DUP1 ISZERO PUSH2 0x3F0 JUMPI PUSH1 0x0 DUP1 REVERT JUMPDEST POP PUSH2 0x19F PUSH2 0x3FF CALLDATASIZE PUSH1 0x4 PUSH2 0x5739 JUMP JUMPDEST PUSH2 0x2B81 JUMP JUMPDEST CALLVALUE DUP1 ISZERO PUSH2 0x410 JUMPI PUSH1 0x0 DUP1 REVERT JUMPDEST POP PUSH2 0x19F PUSH2 0x41F CALLDATASIZE PUSH1 0x4 PUSH2 0x57A9 JUMP JUMPDEST PUSH2 0x2D1C JUMP JUMPDEST CALLVALUE DUP1 ISZERO PUSH2 0x430 JUMPI PUSH1 0x0 DUP1 REVERT JUMPDEST POP PUSH2 0x43F PUSH7 0x2738D24E52000 DUP2 JUMP JUMPDEST PUSH1 0x40 MLOAD SWAP1 DUP2 MSTORE PUSH1 0x20 ADD PUSH2 0x183 JUMP JUMPDEST CALLVALUE DUP1 ISZERO PUSH2 0x459 JUMPI PUSH1 0x0 DUP1 REVERT JUMPDEST POP PUSH2 0x177 PUSH2 0x468 CALLDATASIZE PUSH1 0x4 PUSH2 0x5804 JUMP JUMPDEST PUSH2 0x2EAC JUMP JUMPDEST CALLVALUE DUP1 ISZERO PUSH2 0x479 JUMPI PUSH1 0x0 DUP1 REVERT JUMPDEST POP PUSH2 0x43F PUSH7 0x1C6BF52634000 DUP2 JUMP JUMPDEST CALLVALUE DUP1 ISZERO PUSH2 0x494 JUMPI PUSH1 0x0 DUP1 REVERT JUMPDEST POP PUSH2 0x4A8 PUSH2 0x4A3 CALLDATASIZE PUSH1 0x4 PUSH2 0x5038 JUMP JUMPDEST PUSH2 0x2ECC JUMP JUMPDEST PUSH1 0x40 MLOAD PUSH2 0x183 SWAP2 SWAP1 PUSH2 0x5842 JUMP JUMPDEST CALLVALUE DUP1 ISZERO PUSH2 0x4C1 JUMPI PUSH1 0x0 DUP1 REVERT JUMPDEST POP PUSH2 0x19F PUSH2 0x4D0 CALLDATASIZE PUSH1 0x4 PUSH2 0x5236 JUMP JUMPDEST PUSH2 0x3489 JUMP JUMPDEST CALLVALUE DUP1 ISZERO PUSH2 0x4E1 JUMPI PUSH1 0x0 DUP1 REVERT JUMPDEST POP PUSH2 0x19F PUSH2 0x4F0 CALLDATASIZE PUSH1 0x4 PUSH2 0x5038 JUMP JUMPDEST PUSH2 0x34FF JUMP JUMPDEST CALLVALUE DUP1 ISZERO PUSH2 0x501 JUMPI PUSH1 0x0 DUP1 REVERT JUMPDEST POP PUSH2 0x515 PUSH2 0x510 CALLDATASIZE PUSH1 0x4 PUSH2 0x5855 JUMP JUMPDEST PUSH2 0x35B7 JUMP JUMPDEST PUSH1 0x40 MLOAD PUSH2 0x183 SWAP2 SWAP1 PUSH2 0x58A4 JUMP JUMPDEST PUSH2 0x19F PUSH2 0x530 CALLDATASIZE PUSH1 0x4 PUSH2 0x58DE JUMP JUMPDEST PUSH2 0x3683 JUMP JUMPDEST PUSH1 0x0 PUSH1 0x1 PUSH1 0x1 PUSH1 0xE0 SHL SUB NOT DUP3 AND PUSH4 0x8E1EBF53 PUSH1 0xE0 SHL EQ DUP1 PUSH2 0x566 JUMPI POP PUSH1 0x1 PUSH1 0x1 PUSH1 0xE0 SHL SUB NOT DUP3 AND PUSH4 0xAE2007BF PUSH1 0xE0 SHL EQ JUMPDEST DUP1 PUSH2 0x581 JUMPI POP PUSH1 0x1 PUSH1 0x1 PUSH1 0xE0 SHL SUB NOT DUP3 AND PUSH4 0xE9DC6375 PUSH1 0xE0 SHL EQ JUMPDEST DUP1 PUSH2 0x59C JUMPI POP PUSH1 0x1 PUSH1 0x1 PUSH1 0xE0 SHL SUB NOT DUP3 AND PUSH4 0x2A9F3ABF PUSH1 0xE1 SHL EQ JUMPDEST DUP1 PUSH2 0x5B7 JUMPI POP PUSH1 0x1 PUSH1 0x1 PUSH1 0xE0 SHL SUB NOT DUP3 AND PUSH4 0x1FFC9A7 PUSH1 0xE0 SHL EQ JUMPDEST SWAP3 SWAP2 POP POP JUMP JUMPDEST PUSH1 0x0 PUSH2 0x5C9 DUP10 DUP10 PUSH2 0x39A8 JUMP JUMPDEST PUSH1 0x6 DUP2 ADD SLOAD SWAP1 SWAP2 POP PUSH1 0x1 PUSH1 0x1 PUSH1 0xA0 SHL SUB AND ISZERO PUSH2 0x600 JUMPI PUSH1 0x40 MLOAD PUSH3 0x461BCD PUSH1 0xE5 SHL DUP2 MSTORE PUSH1 0x4 ADD PUSH2 0x5F7 SWAP1 PUSH2 0x5960 JUMP JUMPDEST PUSH1 0x40 MLOAD DUP1 SWAP2 SUB SWAP1 REVERT JUMPDEST DUP1 SLOAD PUSH2 0xFFFF DUP9 AND SWAP1 DUP3 SWAP1 PUSH1 0x0 SWAP1 PUSH2 0x61E SWAP1 DUP5 SWAP1 PUSH4 0xFFFFFFFF AND PUSH2 0x59AA JUMP JUMPDEST DUP3 SLOAD PUSH2 0x100 SWAP3 SWAP1 SWAP3 EXP PUSH4 0xFFFFFFFF DUP2 DUP2 MUL NOT SWAP1 SWAP4 AND SWAP2 DUP4 AND MUL OR SWAP1 SWAP2 SSTORE DUP3 SLOAD PUSH1 0x1 PUSH1 0x20 SHL SWAP1 DIV AND ISZERO SWAP1 POP DUP1 PUSH2 0x663 JUMPI POP DUP1 SLOAD PUSH4 0xFFFFFFFF PUSH1 0x1 PUSH1 0x20 SHL DUP3 DIV DUP2 AND SWAP2 AND GT ISZERO JUMPDEST DUP1 ISZERO PUSH2 0x67B JUMPI POP DUP1 SLOAD PUSH3 0xFFFFFF PUSH4 0xFFFFFFFF SWAP1 SWAP2 AND GT ISZERO JUMPDEST PUSH2 0x697 JUMPI PUSH1 0x40 MLOAD PUSH3 0x461BCD PUSH1 0xE5 SHL DUP2 MSTORE PUSH1 0x4 ADD PUSH2 0x5F7 SWAP1 PUSH2 0x59C7 JUMP JUMPDEST DUP1 SLOAD PUSH1 0x1 DUP3 ADD SLOAD PUSH2 0x6DC SWAP2 DUP12 SWAP2 DUP12 SWAP2 PUSH6 0xFFFFFFFFFFFF PUSH1 0x1 PUSH1 0x60 SHL DUP3 DIV DUP2 AND SWAP3 PUSH1 0x1 PUSH1 0x90 SHL DUP4 DIV SWAP1 SWAP2 AND SWAP2 PUSH4 0xFFFFFFFF PUSH1 0x1 PUSH1 0x40 SHL SWAP1 SWAP2 DIV AND SWAP1 DUP14 DUP14 DUP14 DUP14 DUP14 DUP14 PUSH2 0x3A06 JUMP JUMPDEST DUP1 SLOAD PUSH1 0x0 SWAP1 PUSH2 0x6F6 SWAP1 PUSH2 0xFFFF DUP11 AND SWAP1 PUSH4 0xFFFFFFFF AND PUSH2 0x5A08 JUMP JUMPDEST PUSH2 0x701 SWAP1 PUSH1 0x1 PUSH2 0x59AA JUMP JUMPDEST PUSH1 0x5 DUP4 ADD SLOAD PUSH1 0x3 DUP5 ADD SLOAD PUSH1 0x4 DUP6 ADD SLOAD PUSH1 0x1 DUP7 ADD SLOAD PUSH4 0xFFFFFFFF SWAP5 SWAP1 SWAP5 AND SWAP5 POP PUSH2 0x73F SWAP4 PUSH1 0x1 PUSH1 0x1 PUSH1 0xA0 SHL SUB SWAP4 DUP5 AND SWAP4 SWAP1 SWAP2 AND SWAP1 DUP13 SWAP1 ISZERO ISZERO PUSH1 0x0 PUSH2 0x3C22 JUMP JUMPDEST DUP2 SLOAD PUSH1 0x3 PUSH1 0x1 PUSH1 0xC8 SHL SWAP1 SWAP2 DIV PUSH1 0xFF AND LT PUSH2 0x882 JUMPI PUSH1 0x0 DUP9 PUSH2 0xFFFF AND PUSH1 0x1 PUSH1 0x1 PUSH1 0x40 SHL SUB DUP2 GT ISZERO PUSH2 0x771 JUMPI PUSH2 0x771 PUSH2 0x5253 JUMP JUMPDEST PUSH1 0x40 MLOAD SWAP1 DUP1 DUP3 MSTORE DUP1 PUSH1 0x20 MUL PUSH1 0x20 ADD DUP3 ADD PUSH1 0x40 MSTORE DUP1 ISZERO PUSH2 0x79A JUMPI DUP2 PUSH1 0x20 ADD PUSH1 0x20 DUP3 MUL DUP1 CALLDATASIZE DUP4 CALLDATACOPY ADD SWAP1 POP JUMPDEST POP SWAP1 POP PUSH1 0x0 JUMPDEST DUP10 PUSH2 0xFFFF AND DUP2 LT ISZERO PUSH2 0x805 JUMPI PUSH2 0x7B6 DUP2 DUP5 PUSH2 0x5A25 JUMP JUMPDEST PUSH3 0xFFFFFF AND PUSH1 0x18 DUP13 PUSH7 0xFFFFFFFFFFFFFF AND SWAP1 SHL OR PUSH7 0xFFFFFFFFFFFFFF AND DUP3 DUP3 DUP2 MLOAD DUP2 LT PUSH2 0x7E5 JUMPI PUSH2 0x7E5 PUSH2 0x5A38 JUMP JUMPDEST PUSH1 0x1 PUSH1 0x1 PUSH1 0x50 SHL SUB SWAP1 SWAP3 AND PUSH1 0x20 SWAP3 DUP4 MUL SWAP2 SWAP1 SWAP2 ADD SWAP1 SWAP2 ADD MSTORE PUSH1 0x1 ADD PUSH2 0x7A0 JUMP JUMPDEST POP PUSH1 0x40 MLOAD PUSH4 0x213C1987 PUSH1 0xE1 SHL DUP2 MSTORE PUSH1 0x1 PUSH1 0x1 PUSH1 0xA0 SHL SUB DUP13 AND SWAP1 PUSH4 0x4278330E SWAP1 PUSH2 0x834 SWAP1 DUP8 SWAP1 DUP6 SWAP1 PUSH1 0x4 ADD PUSH2 0x5A4E JUMP JUMPDEST PUSH1 0x0 PUSH1 0x40 MLOAD DUP1 DUP4 SUB DUP2 PUSH1 0x0 DUP8 GAS CALL ISZERO DUP1 ISZERO PUSH2 0x853 JUMPI RETURNDATASIZE PUSH1 0x0 DUP1 RETURNDATACOPY RETURNDATASIZE PUSH1 0x0 REVERT JUMPDEST POP POP POP POP PUSH1 0x40 MLOAD RETURNDATASIZE PUSH1 0x0 DUP3 RETURNDATACOPY PUSH1 0x1F RETURNDATASIZE SWAP1 DUP2 ADD PUSH1 0x1F NOT AND DUP3 ADD PUSH1 0x40 MSTORE PUSH2 0x87B SWAP2 SWAP1 DUP2 ADD SWAP1 PUSH2 0x5AAD JUMP JUMPDEST POP POP PUSH2 0x9B2 JUMP JUMPDEST PUSH1 0x40 MLOAD PUSH4 0xE00AAB4B PUSH1 0xE0 SHL DUP2 MSTORE PUSH1 0x0 SWAP1 PUSH1 0x1 PUSH1 0x1 PUSH1 0xA0 SHL SUB DUP13 AND SWAP1 PUSH4 0xE00AAB4B SWAP1 PUSH2 0x8B3 SWAP1 DUP8 SWAP1 DUP14 SWAP1 PUSH1 0x4 ADD PUSH2 0x5B52 JUMP JUMPDEST PUSH1 0x0 PUSH1 0x40 MLOAD DUP1 DUP4 SUB DUP2 PUSH1 0x0 DUP8 GAS CALL ISZERO DUP1 ISZERO PUSH2 0x8D2 JUMPI RETURNDATASIZE PUSH1 0x0 DUP1 RETURNDATACOPY RETURNDATASIZE PUSH1 0x0 REVERT JUMPDEST POP POP POP POP PUSH1 0x40 MLOAD RETURNDATASIZE PUSH1 0x0 DUP3 RETURNDATACOPY PUSH1 0x1F RETURNDATASIZE SWAP1 DUP2 ADD PUSH1 0x1F NOT AND DUP3 ADD PUSH1 0x40 MSTORE PUSH2 0x8FA SWAP2 SWAP1 DUP2 ADD SWAP1 PUSH2 0x5AAD JUMP JUMPDEST SWAP1 POP PUSH1 0x0 JUMPDEST DUP10 PUSH2 0xFFFF AND DUP2 LT ISZERO PUSH2 0x9AF JUMPI PUSH1 0x40 MLOAD DUP1 PUSH1 0x40 ADD PUSH1 0x40 MSTORE DUP1 DUP13 PUSH1 0x1 PUSH1 0x1 PUSH1 0xE0 SHL SUB AND DUP2 MSTORE PUSH1 0x20 ADD DUP3 DUP6 PUSH2 0x931 SWAP2 SWAP1 PUSH2 0x5A25 JUMP JUMPDEST PUSH4 0xFFFFFFFF AND SWAP1 MSTORE PUSH1 0x1 PUSH1 0x1 PUSH1 0xA0 SHL SUB DUP14 AND PUSH1 0x0 SWAP1 DUP2 MSTORE PUSH1 0xA PUSH1 0x20 MSTORE PUSH1 0x40 DUP2 KECCAK256 DUP5 MLOAD SWAP1 SWAP2 SWAP1 DUP6 SWAP1 DUP6 SWAP1 DUP2 LT PUSH2 0x968 JUMPI PUSH2 0x968 PUSH2 0x5A38 JUMP JUMPDEST PUSH1 0x20 SWAP1 DUP2 MUL SWAP2 SWAP1 SWAP2 ADD DUP2 ADD MLOAD DUP3 MSTORE DUP2 DUP2 ADD SWAP3 SWAP1 SWAP3 MSTORE PUSH1 0x40 ADD PUSH1 0x0 KECCAK256 DUP3 MLOAD SWAP3 SWAP1 SWAP2 ADD MLOAD PUSH4 0xFFFFFFFF AND PUSH1 0x1 PUSH1 0xE0 SHL MUL PUSH1 0x1 PUSH1 0x1 PUSH1 0xE0 SHL SUB SWAP1 SWAP3 AND SWAP2 SWAP1 SWAP2 OR SWAP1 SSTORE PUSH1 0x1 ADD PUSH2 0x8FF JUMP JUMPDEST POP POP JUMPDEST DUP9 DUP11 PUSH1 0x1 PUSH1 0x1 PUSH1 0xA0 SHL SUB AND PUSH32 0x61039AD47D0B05EC206A4450FD164CC2055AF66AC594C12B8DD747E8803A90DE DUP11 CALLER DUP8 PUSH1 0x40 MLOAD PUSH2 0x9F0 SWAP4 SWAP3 SWAP2 SWAP1 PUSH2 0x5B6F JUMP JUMPDEST PUSH1 0x40 MLOAD DUP1 SWAP2 SUB SWAP1 LOG3 POP POP POP POP POP POP POP POP POP POP JUMP JUMPDEST PUSH2 0xA0C PUSH2 0x4E75 JUMP JUMPDEST PUSH2 0xA16 DUP4 DUP4 PUSH2 0x39A8 JUMP JUMPDEST PUSH1 0x40 DUP1 MLOAD PUSH2 0x1C0 DUP2 ADD DUP3 MSTORE DUP3 SLOAD PUSH4 0xFFFFFFFF DUP1 DUP3 AND DUP4 MSTORE PUSH1 0x1 PUSH1 0x20 SHL DUP3 DIV DUP2 AND PUSH1 0x20 DUP5 ADD MSTORE PUSH1 0x1 PUSH1 0x40 SHL DUP3 DIV AND SWAP3 DUP3 ADD SWAP3 SWAP1 SWAP3 MSTORE PUSH6 0xFFFFFFFFFFFF PUSH1 0x1 PUSH1 0x60 SHL DUP4 DIV DUP2 AND PUSH1 0x60 DUP4 ADD MSTORE PUSH1 0x1 PUSH1 0x90 SHL DUP4 DIV AND PUSH1 0x80 DUP3 ADD MSTORE SWAP2 SWAP1 PUSH1 0xA0 DUP4 ADD SWAP1 PUSH1 0xFF PUSH1 0x1 PUSH1 0xC0 SHL SWAP1 SWAP2 DIV AND PUSH1 0x3 DUP2 GT ISZERO PUSH2 0xA8F JUMPI PUSH2 0xA8F PUSH2 0x5064 JUMP JUMPDEST PUSH1 0x3 DUP2 GT ISZERO PUSH2 0xAA0 JUMPI PUSH2 0xAA0 PUSH2 0x5064 JUMP JUMPDEST DUP2 MSTORE DUP2 SLOAD PUSH1 0xFF PUSH1 0x1 PUSH1 0xC8 SHL DUP3 DIV DUP2 AND PUSH1 0x20 DUP5 ADD MSTORE PUSH1 0x1 PUSH1 0xD0 SHL SWAP1 SWAP2 DIV AND ISZERO ISZERO PUSH1 0x40 DUP3 ADD MSTORE PUSH1 0x1 DUP3 ADD SLOAD PUSH1 0x60 DUP3 ADD MSTORE PUSH1 0x2 DUP3 ADD DUP1 SLOAD PUSH1 0x80 SWAP1 SWAP3 ADD SWAP2 PUSH2 0xAE3 SWAP1 PUSH2 0x5B94 JUMP JUMPDEST DUP1 PUSH1 0x1F ADD PUSH1 0x20 DUP1 SWAP2 DIV MUL PUSH1 0x20 ADD PUSH1 0x40 MLOAD SWAP1 DUP2 ADD PUSH1 0x40 MSTORE DUP1 SWAP3 SWAP2 SWAP1 DUP2 DUP2 MSTORE PUSH1 0x20 ADD DUP3 DUP1 SLOAD PUSH2 0xB0F SWAP1 PUSH2 0x5B94 JUMP JUMPDEST DUP1 ISZERO PUSH2 0xB5C JUMPI DUP1 PUSH1 0x1F LT PUSH2 0xB31 JUMPI PUSH2 0x100 DUP1 DUP4 SLOAD DIV MUL DUP4 MSTORE SWAP2 PUSH1 0x20 ADD SWAP2 PUSH2 0xB5C JUMP JUMPDEST DUP3 ADD SWAP2 SWAP1 PUSH1 0x0 MSTORE PUSH1 0x20 PUSH1 0x0 KECCAK256 SWAP1 JUMPDEST DUP2 SLOAD DUP2 MSTORE SWAP1 PUSH1 0x1 ADD SWAP1 PUSH1 0x20 ADD DUP1 DUP4 GT PUSH2 0xB3F JUMPI DUP3 SWAP1 SUB PUSH1 0x1F AND DUP3 ADD SWAP2 JUMPDEST POP POP POP SWAP2 DUP4 MSTORE POP POP PUSH1 0x3 DUP3 ADD SLOAD PUSH1 0x20 DUP3 ADD MSTORE PUSH1 0x4 DUP3 ADD SLOAD PUSH1 0x1 PUSH1 0x1 PUSH1 0xA0 SHL SUB SWAP1 DUP2 AND PUSH1 0x40 DUP4 ADD MSTORE PUSH1 0x5 DUP4 ADD SLOAD DUP2 AND PUSH1 0x60 DUP4 ADD MSTORE PUSH1 0x6 SWAP1 SWAP3 ADD SLOAD SWAP1 SWAP2 AND PUSH1 0x80 SWAP1 SWAP2 ADD MSTORE SWAP4 SWAP3 POP POP POP JUMP JUMPDEST PUSH1 0x0 DUP2 PUSH1 0x1 PUSH1 0x1 PUSH1 0xA0 SHL SUB AND PUSH2 0xBB9 PUSH2 0x2B72 JUMP JUMPDEST PUSH1 0x1 PUSH1 0x1 PUSH1 0xA0 SHL SUB AND EQ DUP1 PUSH2 0x5B7 JUMPI POP PUSH2 0x5B7 PUSH1 0x1 DUP4 PUSH2 0x3ED7 JUMP JUMPDEST PUSH1 0x0 PUSH2 0xBE0 DUP10 DUP10 PUSH2 0x39A8 JUMP JUMPDEST PUSH1 0x6 DUP2 ADD SLOAD SWAP1 SWAP2 POP PUSH1 0x1 PUSH1 0x1 PUSH1 0xA0 SHL SUB AND ISZERO PUSH2 0xC0E JUMPI PUSH1 0x40 MLOAD PUSH3 0x461BCD PUSH1 0xE5 SHL DUP2 MSTORE PUSH1 0x4 ADD PUSH2 0x5F7 SWAP1 PUSH2 0x5960 JUMP JUMPDEST DUP1 SLOAD PUSH2 0xFFFF DUP9 AND SWAP1 DUP3 SWAP1 PUSH1 0x0 SWAP1 PUSH2 0xC2C SWAP1 DUP5 SWAP1 PUSH4 0xFFFFFFFF AND PUSH2 0x59AA JUMP JUMPDEST DUP3 SLOAD PUSH2 0x100 SWAP3 SWAP1 SWAP3 EXP PUSH4 0xFFFFFFFF DUP2 DUP2 MUL NOT SWAP1 SWAP4 AND SWAP2 DUP4 AND MUL OR SWAP1 SWAP2 SSTORE DUP3 SLOAD PUSH1 0x1 PUSH1 0x20 SHL SWAP1 DIV AND ISZERO SWAP1 POP DUP1 PUSH2 0xC71 JUMPI POP DUP1 SLOAD PUSH4 0xFFFFFFFF PUSH1 0x1 PUSH1 0x20 SHL DUP3 DIV DUP2 AND SWAP2 AND GT ISZERO JUMPDEST DUP1 ISZERO PUSH2 0xC89 JUMPI POP DUP1 SLOAD PUSH3 0xFFFFFF PUSH4 0xFFFFFFFF SWAP1 SWAP2 AND GT ISZERO JUMPDEST PUSH2 0xCA5 JUMPI PUSH1 0x40 MLOAD PUSH3 0x461BCD PUSH1 0xE5 SHL DUP2 MSTORE PUSH1 0x4 ADD PUSH2 0x5F7 SWAP1 PUSH2 0x59C7 JUMP JUMPDEST DUP1 SLOAD PUSH1 0x1 DUP3 ADD SLOAD PUSH2 0xCEA SWAP2 DUP12 SWAP2 DUP12 SWAP2 PUSH6 0xFFFFFFFFFFFF PUSH1 0x1 PUSH1 0x60 SHL DUP3 DIV DUP2 AND SWAP3 PUSH1 0x1 PUSH1 0x90 SHL DUP4 DIV SWAP1 SWAP2 AND SWAP2 PUSH4 0xFFFFFFFF PUSH1 0x1 PUSH1 0x40 SHL SWAP1 SWAP2 DIV AND SWAP1 DUP14 DUP14 DUP14 DUP14 DUP14 DUP14 PUSH2 0x3EF3 JUMP JUMPDEST DUP1 SLOAD PUSH1 0x0 SWAP1 PUSH2 0xD04 SWAP1 PUSH2 0xFFFF DUP11 AND SWAP1 PUSH4 0xFFFFFFFF AND PUSH2 0x5A08 JUMP JUMPDEST PUSH2 0xD0F SWAP1 PUSH1 0x1 PUSH2 0x59AA JUMP JUMPDEST PUSH1 0x5 DUP4 ADD SLOAD PUSH1 0x3 DUP5 ADD SLOAD PUSH1 0x4 DUP6 ADD SLOAD PUSH1 0x1 DUP1 DUP8 ADD SLOAD PUSH4 0xFFFFFFFF SWAP6 SWAP1 SWAP6 AND SWAP6 POP PUSH2 0xD4E SWAP5 PUSH1 0x1 PUSH1 0x1 PUSH1 0xA0 SHL SUB SWAP5 DUP6 AND SWAP5 SWAP1 SWAP3 AND SWAP2 DUP14 SWAP2 SWAP1 ISZERO ISZERO SWAP1 PUSH2 0x3C22 JUMP JUMPDEST DUP2 SLOAD PUSH1 0x3 PUSH1 0x1 PUSH1 0xC8 SHL SWAP1 SWAP2 DIV PUSH1 0xFF AND LT PUSH2 0xE91 JUMPI PUSH1 0x0 DUP9 PUSH2 0xFFFF AND PUSH1 0x1 PUSH1 0x1 PUSH1 0x40 SHL SUB DUP2 GT ISZERO PUSH2 0xD80 JUMPI PUSH2 0xD80 PUSH2 0x5253 JUMP JUMPDEST PUSH1 0x40 MLOAD SWAP1 DUP1 DUP3 MSTORE DUP1 PUSH1 0x20 MUL PUSH1 0x20 ADD DUP3 ADD PUSH1 0x40 MSTORE DUP1 ISZERO PUSH2 0xDA9 JUMPI DUP2 PUSH1 0x20 ADD PUSH1 0x20 DUP3 MUL DUP1 CALLDATASIZE DUP4 CALLDATACOPY ADD SWAP1 POP JUMPDEST POP SWAP1 POP PUSH1 0x0 JUMPDEST DUP10 PUSH2 0xFFFF AND DUP2 LT ISZERO PUSH2 0xE14 JUMPI PUSH2 0xDC5 DUP2 DUP5 PUSH2 0x5A25 JUMP JUMPDEST PUSH3 0xFFFFFF AND PUSH1 0x18 DUP13 PUSH7 0xFFFFFFFFFFFFFF AND SWAP1 SHL OR PUSH7 0xFFFFFFFFFFFFFF AND DUP3 DUP3 DUP2 MLOAD DUP2 LT PUSH2 0xDF4 JUMPI PUSH2 0xDF4 PUSH2 0x5A38 JUMP JUMPDEST PUSH1 0x1 PUSH1 0x1 PUSH1 0x50 SHL SUB SWAP1 SWAP3 AND PUSH1 0x20 SWAP3 DUP4 MUL SWAP2 SWAP1 SWAP2 ADD SWAP1 SWAP2 ADD MSTORE PUSH1 0x1 ADD PUSH2 0xDAF JUMP JUMPDEST POP PUSH1 0x40 MLOAD PUSH4 0x213C1987 PUSH1 0xE1 SHL DUP2 MSTORE PUSH1 0x1 PUSH1 0x1 PUSH1 0xA0 SHL SUB DUP13 AND SWAP1 PUSH4 0x4278330E SWAP1 PUSH2 0xE43 SWAP1 CALLER SWAP1 DUP6 SWAP1 PUSH1 0x4 ADD PUSH2 0x5A4E JUMP JUMPDEST PUSH1 0x0 PUSH1 0x40 MLOAD DUP1 DUP4 SUB DUP2 PUSH1 0x0 DUP8 GAS CALL ISZERO DUP1 ISZERO PUSH2 0xE62 JUMPI RETURNDATASIZE PUSH1 0x0 DUP1 RETURNDATACOPY RETURNDATASIZE PUSH1 0x0 REVERT JUMPDEST POP POP POP POP PUSH1 0x40 MLOAD RETURNDATASIZE PUSH1 0x0 DUP3 RETURNDATACOPY PUSH1 0x1F RETURNDATASIZE SWAP1 DUP2 ADD PUSH1 0x1F NOT AND DUP3 ADD PUSH1 0x40 MSTORE PUSH2 0xE8A SWAP2 SWAP1 DUP2 ADD SWAP1 PUSH2 0x5AAD JUMP JUMPDEST POP POP PUSH2 0xFC1 JUMP JUMPDEST PUSH1 0x40 MLOAD PUSH4 0xE00AAB4B PUSH1 0xE0 SHL DUP2 MSTORE PUSH1 0x0 SWAP1 PUSH1 0x1 PUSH1 0x1 PUSH1 0xA0 SHL SUB DUP13 AND SWAP1 PUSH4 0xE00AAB4B SWAP1 PUSH2 0xEC2 SWAP1 CALLER SWAP1 DUP14 SWAP1 PUSH1 0x4 ADD PUSH2 0x5B52 JUMP JUMPDEST PUSH1 0x0 PUSH1 0x40 MLOAD DUP1 DUP4 SUB DUP2 PUSH1 0x0 DUP8 GAS CALL ISZERO DUP1 ISZERO PUSH2 0xEE1 JUMPI RETURNDATASIZE PUSH1 0x0 DUP1 RETURNDATACOPY RETURNDATASIZE PUSH1 0x0 REVERT JUMPDEST POP POP POP POP PUSH1 0x40 MLOAD RETURNDATASIZE PUSH1 0x0 DUP3 RETURNDATACOPY PUSH1 0x1F RETURNDATASIZE SWAP1 DUP2 ADD PUSH1 0x1F NOT AND DUP3 ADD PUSH1 0x40 MSTORE PUSH2 0xF09 SWAP2 SWAP1 DUP2 ADD SWAP1 PUSH2 0x5AAD JUMP JUMPDEST SWAP1 POP PUSH1 0x0 JUMPDEST DUP10 PUSH2 0xFFFF AND DUP2 LT ISZERO PUSH2 0xFBE JUMPI PUSH1 0x40 MLOAD DUP1 PUSH1 0x40 ADD PUSH1 0x40 MSTORE DUP1 DUP13 PUSH1 0x1 PUSH1 0x1 PUSH1 0xE0 SHL SUB AND DUP2 MSTORE PUSH1 0x20 ADD DUP3 DUP6 PUSH2 0xF40 SWAP2 SWAP1 PUSH2 0x5A25 JUMP JUMPDEST PUSH4 0xFFFFFFFF AND SWAP1 MSTORE PUSH1 0x1 PUSH1 0x1 PUSH1 0xA0 SHL SUB DUP14 AND PUSH1 0x0 SWAP1 DUP2 MSTORE PUSH1 0xA PUSH1 0x20 MSTORE PUSH1 0x40 DUP2 KECCAK256 DUP5 MLOAD SWAP1 SWAP2 SWAP1 DUP6 SWAP1 DUP6 SWAP1 DUP2 LT PUSH2 0xF77 JUMPI PUSH2 0xF77 PUSH2 0x5A38 JUMP JUMPDEST PUSH1 0x20 SWAP1 DUP2 MUL SWAP2 SWAP1 SWAP2 ADD DUP2 ADD MLOAD DUP3 MSTORE DUP2 DUP2 ADD SWAP3 SWAP1 SWAP3 MSTORE PUSH1 0x40 ADD PUSH1 0x0 KECCAK256 DUP3 MLOAD SWAP3 SWAP1 SWAP2 ADD MLOAD PUSH4 0xFFFFFFFF AND PUSH1 0x1 PUSH1 0xE0 SHL MUL PUSH1 0x1 PUSH1 0x1 PUSH1 0xE0 SHL SUB SWAP1 SWAP3 AND SWAP2 SWAP1 SWAP2 OR SWAP1 SSTORE PUSH1 0x1 ADD PUSH2 0xF0E JUMP JUMPDEST POP POP JUMPDEST PUSH1 0x40 MLOAD PUSH2 0xFFFF DUP10 AND DUP2 MSTORE DUP10 SWAP1 PUSH1 0x1 PUSH1 0x1 PUSH1 0xA0 SHL SUB DUP13 AND SWAP1 PUSH32 0x74F5D3254DFA39A7B1217A27D5D9B3E061EAFE11720ECA1CF499DA2DC1EB1259 SWAP1 PUSH1 0x20 ADD PUSH2 0x9F0 JUMP JUMPDEST PUSH2 0x100A PUSH2 0x3FCF JUMP JUMPDEST PUSH2 0x1015 PUSH1 0x1 DUP3 PUSH2 0x3ED7 JUMP JUMPDEST ISZERO PUSH2 0x105D JUMPI PUSH1 0x40 MLOAD CALLER SWAP1 PUSH1 0x1 PUSH1 0x1 PUSH1 0xA0 SHL SUB DUP4 AND SWAP1 PUSH32 0x7C0C3C84C67C85FCAC635147348BFE374C24A1A93D0366D1CFE9D8853CBF89D5 SWAP1 PUSH1 0x0 SWAP1 LOG3 PUSH2 0x105B PUSH1 0x1 DUP3 PUSH2 0x402E JUMP JUMPDEST POP JUMPDEST POP JUMP JUMPDEST PUSH1 0x40 MLOAD PUSH4 0x935E01B PUSH1 0xE2 SHL DUP2 MSTORE DUP4 SWAP1 DUP2 SWAP1 PUSH1 0x1 PUSH1 0x1 PUSH1 0xA0 SHL SUB DUP3 AND SWAP1 PUSH4 0x24D7806C SWAP1 PUSH2 0x1090 SWAP1 CALLER SWAP1 PUSH1 0x4 ADD PUSH2 0x5553 JUMP JUMPDEST PUSH1 0x20 PUSH1 0x40 MLOAD DUP1 DUP4 SUB DUP2 DUP7 GAS STATICCALL ISZERO DUP1 ISZERO PUSH2 0x10AD JUMPI RETURNDATASIZE PUSH1 0x0 DUP1 RETURNDATACOPY RETURNDATASIZE PUSH1 0x0 REVERT JUMPDEST POP POP POP POP PUSH1 0x40 MLOAD RETURNDATASIZE PUSH1 0x1F NOT PUSH1 0x1F DUP3 ADD AND DUP3 ADD DUP1 PUSH1 0x40 MSTORE POP DUP2 ADD SWAP1 PUSH2 0x10D1 SWAP2 SWAP1 PUSH2 0x5BCE JUMP JUMPDEST PUSH2 0x10ED JUMPI PUSH1 0x40 MLOAD PUSH3 0x461BCD PUSH1 0xE5 SHL DUP2 MSTORE PUSH1 0x4 ADD PUSH2 0x5F7 SWAP1 PUSH2 0x5BEB JUMP JUMPDEST PUSH1 0x1 PUSH1 0x1 PUSH1 0xA0 SHL SUB DUP6 AND PUSH1 0x0 SWAP1 DUP2 MSTORE PUSH1 0x9 PUSH1 0x20 SWAP1 DUP2 MSTORE PUSH1 0x40 DUP1 DUP4 KECCAK256 DUP8 DUP5 MSTORE DUP3 MSTORE DUP1 DUP4 KECCAK256 DUP2 MLOAD PUSH2 0x1C0 DUP2 ADD DUP4 MSTORE DUP2 SLOAD PUSH4 0xFFFFFFFF DUP1 DUP3 AND DUP4 MSTORE PUSH1 0x1 PUSH1 0x20 SHL DUP3 DIV DUP2 AND SWAP6 DUP4 ADD SWAP6 SWAP1 SWAP6 MSTORE PUSH1 0x1 PUSH1 0x40 SHL DUP2 DIV SWAP1 SWAP5 AND SWAP3 DUP2 ADD SWAP3 SWAP1 SWAP3 MSTORE PUSH6 0xFFFFFFFFFFFF PUSH1 0x1 PUSH1 0x60 SHL DUP5 DIV DUP2 AND PUSH1 0x60 DUP5 ADD MSTORE PUSH1 0x1 PUSH1 0x90 SHL DUP5 DIV AND PUSH1 0x80 DUP4 ADD MSTORE SWAP1 SWAP2 PUSH1 0xA0 DUP4 ADD SWAP1 PUSH1 0xFF PUSH1 0x1 PUSH1 0xC0 SHL SWAP1 SWAP2 DIV AND PUSH1 0x3 DUP2 GT ISZERO PUSH2 0x118B JUMPI PUSH2 0x118B PUSH2 0x5064 JUMP JUMPDEST PUSH1 0x3 DUP2 GT ISZERO PUSH2 0x119C JUMPI PUSH2 0x119C PUSH2 0x5064 JUMP JUMPDEST DUP2 MSTORE DUP2 SLOAD PUSH1 0xFF PUSH1 0x1 PUSH1 0xC8 SHL DUP3 DIV DUP2 AND PUSH1 0x20 DUP5 ADD MSTORE PUSH1 0x1 PUSH1 0xD0 SHL SWAP1 SWAP2 DIV AND ISZERO ISZERO PUSH1 0x40 DUP3 ADD MSTORE PUSH1 0x1 DUP3 ADD SLOAD PUSH1 0x60 DUP3 ADD MSTORE PUSH1 0x2 DUP3 ADD DUP1 SLOAD PUSH1 0x80 SWAP1 SWAP3 ADD SWAP2 PUSH2 0x11DF SWAP1 PUSH2 0x5B94 JUMP JUMPDEST DUP1 PUSH1 0x1F ADD PUSH1 0x20 DUP1 SWAP2 DIV MUL PUSH1 0x20 ADD PUSH1 0x40 MLOAD SWAP1 DUP2 ADD PUSH1 0x40 MSTORE DUP1 SWAP3 SWAP2 SWAP1 DUP2 DUP2 MSTORE PUSH1 0x20 ADD DUP3 DUP1 SLOAD PUSH2 0x120B SWAP1 PUSH2 0x5B94 JUMP JUMPDEST DUP1 ISZERO PUSH2 0x1258 JUMPI DUP1 PUSH1 0x1F LT PUSH2 0x122D JUMPI PUSH2 0x100 DUP1 DUP4 SLOAD DIV MUL DUP4 MSTORE SWAP2 PUSH1 0x20 ADD SWAP2 PUSH2 0x1258 JUMP JUMPDEST DUP3 ADD SWAP2 SWAP1 PUSH1 0x0 MSTORE PUSH1 0x20 PUSH1 0x0 KECCAK256 SWAP1 JUMPDEST DUP2 SLOAD DUP2 MSTORE SWAP1 PUSH1 0x1 ADD SWAP1 PUSH1 0x20 ADD DUP1 DUP4 GT PUSH2 0x123B JUMPI DUP3 SWAP1 SUB PUSH1 0x1F AND DUP3 ADD SWAP2 JUMPDEST POP POP POP SWAP2 DUP4 MSTORE POP POP PUSH1 0x3 DUP3 ADD SLOAD PUSH1 0x20 DUP3 ADD MSTORE PUSH1 0x4 DUP3 ADD SLOAD PUSH1 0x1 PUSH1 0x1 PUSH1 0xA0 SHL SUB SWAP1 DUP2 AND PUSH1 0x40 DUP4 ADD MSTORE PUSH1 0x5 DUP4 ADD SLOAD DUP2 AND PUSH1 0x60 DUP4 ADD MSTORE PUSH1 0x6 SWAP1 SWAP3 ADD SLOAD SWAP1 SWAP2 AND PUSH1 0x80 SWAP1 SWAP2 ADD MSTORE SWAP1 POP PUSH1 0x0 DUP2 PUSH1 0xA0 ADD MLOAD PUSH1 0x3 DUP2 GT ISZERO PUSH2 0x12B4 JUMPI PUSH2 0x12B4 PUSH2 0x5064 JUMP JUMPDEST SUB PUSH2 0x12D1 JUMPI PUSH1 0x40 MLOAD PUSH3 0x461BCD PUSH1 0xE5 SHL DUP2 MSTORE PUSH1 0x4 ADD PUSH2 0x5F7 SWAP1 PUSH2 0x5C36 JUMP JUMPDEST PUSH1 0x0 DUP5 PUSH1 0x80 ADD MLOAD PUSH1 0x3 DUP2 GT ISZERO PUSH2 0x12E9 JUMPI PUSH2 0x12E9 PUSH2 0x5064 JUMP JUMPDEST SUB PUSH2 0x1306 JUMPI PUSH1 0x40 MLOAD PUSH3 0x461BCD PUSH1 0xE5 SHL DUP2 MSTORE PUSH1 0x4 ADD PUSH2 0x5F7 SWAP1 PUSH2 0x5C65 JUMP JUMPDEST PUSH1 0x60 DUP5 ADD MLOAD PUSH6 0xFFFFFFFFFFFF AND ISZERO DUP1 PUSH2 0x1336 JUMPI POP DUP4 PUSH1 0x60 ADD MLOAD PUSH6 0xFFFFFFFFFFFF AND DUP5 PUSH1 0x40 ADD MLOAD PUSH6 0xFFFFFFFFFFFF AND LT JUMPDEST PUSH2 0x1352 JUMPI PUSH1 0x40 MLOAD PUSH3 0x461BCD PUSH1 0xE5 SHL DUP2 MSTORE PUSH1 0x4 ADD PUSH2 0x5F7 SWAP1 PUSH2 0x5CA8 JUMP JUMPDEST DUP1 PUSH2 0x180 ADD MLOAD PUSH1 0x1 PUSH1 0x1 PUSH1 0xA0 SHL SUB AND DUP5 PUSH2 0x140 ADD MLOAD PUSH1 0x1 PUSH1 0x1 PUSH1 0xA0 SHL SUB AND EQ PUSH2 0x13BB JUMPI PUSH1 0x40 MLOAD PUSH3 0x461BCD PUSH1 0xE5 SHL DUP2 MSTORE PUSH1 0x20 PUSH1 0x4 DUP3 ADD MSTORE PUSH1 0x1B PUSH1 0x24 DUP3 ADD MSTORE PUSH27 0x21B0B73737BA1031B430B733B2903830BCB6B2B73A103A37B5B2B7 PUSH1 0x29 SHL PUSH1 0x44 DUP3 ADD MSTORE PUSH1 0x64 ADD PUSH2 0x5F7 JUMP JUMPDEST DUP4 MLOAD PUSH4 0xFFFFFFFF AND ISZERO DUP1 ISZERO SWAP1 PUSH2 0x13DC JUMPI POP DUP4 MLOAD DUP2 MLOAD PUSH4 0xFFFFFFFF SWAP2 DUP3 AND SWAP2 AND GT JUMPDEST ISZERO PUSH2 0x13EC JUMPI DUP1 MLOAD PUSH4 0xFFFFFFFF AND DUP5 MSTORE JUMPDEST PUSH1 0x40 MLOAD DUP1 PUSH2 0x1C0 ADD PUSH1 0x40 MSTORE DUP1 DUP3 PUSH1 0x0 ADD MLOAD PUSH4 0xFFFFFFFF AND DUP2 MSTORE PUSH1 0x20 ADD DUP6 PUSH1 0x0 ADD MLOAD PUSH4 0xFFFFFFFF AND DUP2 MSTORE PUSH1 0x20 ADD DUP6 PUSH1 0x20 ADD MLOAD PUSH4 0xFFFFFFFF AND DUP2 MSTORE PUSH1 0x20 ADD DUP6 PUSH1 0x40 ADD MLOAD PUSH6 0xFFFFFFFFFFFF AND DUP2 MSTORE PUSH1 0x20 ADD DUP6 PUSH1 0x60 ADD MLOAD PUSH6 0xFFFFFFFFFFFF AND DUP2 MSTORE PUSH1 0x20 ADD DUP6 PUSH1 0x80 ADD MLOAD PUSH1 0x3 DUP2 GT ISZERO PUSH2 0x1462 JUMPI PUSH2 0x1462 PUSH2 0x5064 JUMP JUMPDEST DUP2 MSTORE PUSH1 0xC0 DUP1 DUP5 ADD MLOAD PUSH1 0xFF AND PUSH1 0x20 DUP1 DUP5 ADD SWAP2 SWAP1 SWAP2 MSTORE PUSH1 0xA0 DUP9 DUP2 ADD MLOAD ISZERO ISZERO PUSH1 0x40 DUP1 DUP7 ADD SWAP2 SWAP1 SWAP2 MSTORE DUP10 DUP5 ADD MLOAD PUSH1 0x60 DUP1 DUP8 ADD SWAP2 SWAP1 SWAP2 MSTORE PUSH1 0xE0 DUP1 DUP13 ADD MLOAD PUSH1 0x80 DUP1 DUP10 ADD SWAP2 SWAP1 SWAP2 MSTORE PUSH2 0x100 DUP1 DUP15 ADD MLOAD DUP7 DUP11 ADD MSTORE PUSH2 0x120 DUP15 ADD MLOAD PUSH1 0x1 PUSH1 0x1 PUSH1 0xA0 SHL SUB SWAP1 DUP2 AND SWAP9 DUP11 ADD SWAP9 SWAP1 SWAP9 MSTORE PUSH2 0x180 DUP12 ADD MLOAD DUP9 AND SWAP3 DUP10 ADD SWAP3 SWAP1 SWAP3 MSTORE PUSH2 0x160 DUP14 ADD MLOAD DUP8 AND SWAP2 SWAP1 SWAP8 ADD MSTORE SWAP4 DUP13 AND PUSH1 0x0 SWAP1 DUP2 MSTORE PUSH1 0x9 DUP5 MSTORE DUP2 DUP2 KECCAK256 DUP13 DUP3 MSTORE DUP5 MSTORE DUP2 SWAP1 KECCAK256 DUP7 MLOAD DUP2 SLOAD SWAP5 DUP9 ADD MLOAD SWAP3 DUP9 ADD MLOAD SWAP6 DUP9 ADD MLOAD SWAP7 DUP9 ADD MLOAD PUSH6 0xFFFFFFFFFFFF SWAP1 DUP2 AND PUSH1 0x1 PUSH1 0x90 SHL MUL PUSH6 0xFFFFFFFFFFFF PUSH1 0x90 SHL NOT SWAP2 SWAP1 SWAP9 AND PUSH1 0x1 PUSH1 0x60 SHL MUL PUSH6 0xFFFFFFFFFFFF PUSH1 0x60 SHL NOT PUSH4 0xFFFFFFFF SWAP9 DUP10 AND PUSH1 0x1 PUSH1 0x40 SHL MUL AND PUSH1 0x1 PUSH1 0x40 SHL PUSH1 0x1 PUSH1 0x90 SHL SUB NOT SWAP6 DUP10 AND PUSH1 0x1 PUSH1 0x20 SHL MUL PUSH1 0x1 PUSH1 0x1 PUSH1 0x40 SHL SUB NOT SWAP1 SWAP9 AND SWAP9 SWAP1 SWAP4 AND SWAP8 SWAP1 SWAP8 OR SWAP6 SWAP1 SWAP6 OR SWAP3 SWAP1 SWAP3 AND SWAP2 SWAP1 SWAP2 OR SWAP4 SWAP1 SWAP4 OR SWAP2 DUP3 AND DUP5 OR DUP4 SSTORE DUP5 ADD MLOAD SWAP2 SWAP3 DUP4 SWAP2 PUSH1 0xFF PUSH1 0xC0 SHL NOT SWAP1 SWAP2 AND PUSH7 0xFFFFFFFFFFFFFF PUSH1 0x90 SHL NOT SWAP1 SWAP2 AND OR PUSH1 0x1 PUSH1 0xC0 SHL DUP4 PUSH1 0x3 DUP2 GT ISZERO PUSH2 0x15C3 JUMPI PUSH2 0x15C3 PUSH2 0x5064 JUMP JUMPDEST MUL OR SWAP1 SSTORE POP PUSH1 0xC0 DUP3 ADD MLOAD DUP2 SLOAD PUSH1 0xE0 DUP5 ADD MLOAD ISZERO ISZERO PUSH1 0x1 PUSH1 0xD0 SHL MUL PUSH1 0xFF PUSH1 0xD0 SHL NOT PUSH1 0xFF SWAP1 SWAP4 AND PUSH1 0x1 PUSH1 0xC8 SHL MUL SWAP3 SWAP1 SWAP3 AND PUSH2 0xFFFF PUSH1 0xC8 SHL NOT SWAP1 SWAP2 AND OR OR DUP2 SSTORE PUSH2 0x100 DUP3 ADD MLOAD PUSH1 0x1 DUP3 ADD SSTORE PUSH2 0x120 DUP3 ADD MLOAD PUSH1 0x2 DUP3 ADD SWAP1 PUSH2 0x161F SWAP1 DUP3 PUSH2 0x5D61 JUMP JUMPDEST POP PUSH2 0x140 DUP3 ADD MLOAD PUSH1 0x3 DUP3 ADD SSTORE PUSH2 0x160 DUP3 ADD MLOAD PUSH1 0x4 DUP3 ADD DUP1 SLOAD PUSH1 0x1 PUSH1 0x1 PUSH1 0xA0 SHL SUB NOT SWAP1 DUP2 AND PUSH1 0x1 PUSH1 0x1 PUSH1 0xA0 SHL SUB SWAP4 DUP5 AND OR SWAP1 SWAP2 SSTORE PUSH2 0x180 DUP5 ADD MLOAD PUSH1 0x5 DUP5 ADD DUP1 SLOAD DUP4 AND SWAP2 DUP5 AND SWAP2 SWAP1 SWAP2 OR SWAP1 SSTORE PUSH2 0x1A0 SWAP1 SWAP4 ADD MLOAD PUSH1 0x6 SWAP1 SWAP3 ADD DUP1 SLOAD SWAP1 SWAP4 AND SWAP2 DUP2 AND SWAP2 SWAP1 SWAP2 OR SWAP1 SWAP2 SSTORE PUSH1 0x40 MLOAD DUP7 SWAP2 DUP9 AND SWAP1 PUSH1 0x0 DUP1 MLOAD PUSH1 0x20 PUSH2 0x62AC DUP4 CODECOPY DUP2 MLOAD SWAP2 MSTORE SWAP1 PUSH1 0x0 SWAP1 LOG3 POP POP POP POP POP POP JUMP JUMPDEST PUSH1 0x60 PUSH2 0x16B4 PUSH1 0x1 PUSH2 0x4043 JUMP JUMPDEST PUSH1 0x1 PUSH1 0x1 PUSH1 0x40 SHL SUB DUP2 GT ISZERO PUSH2 0x16CB JUMPI PUSH2 0x16CB PUSH2 0x5253 JUMP JUMPDEST PUSH1 0x40 MLOAD SWAP1 DUP1 DUP3 MSTORE DUP1 PUSH1 0x20 MUL PUSH1 0x20 ADD DUP3 ADD PUSH1 0x40 MSTORE DUP1 ISZERO PUSH2 0x16F4 JUMPI DUP2 PUSH1 0x20 ADD PUSH1 0x20 DUP3 MUL DUP1 CALLDATASIZE DUP4 CALLDATACOPY ADD SWAP1 POP JUMPDEST POP SWAP1 POP PUSH1 0x0 JUMPDEST PUSH2 0x1704 PUSH1 0x1 PUSH2 0x4043 JUMP JUMPDEST DUP2 LT ISZERO PUSH2 0x1752 JUMPI PUSH2 0x1716 PUSH1 0x1 DUP3 PUSH2 0x404D JUMP JUMPDEST DUP3 DUP3 DUP2 MLOAD DUP2 LT PUSH2 0x1728 JUMPI PUSH2 0x1728 PUSH2 0x5A38 JUMP JUMPDEST PUSH1 0x1 PUSH1 0x1 PUSH1 0xA0 SHL SUB SWAP1 SWAP3 AND PUSH1 0x20 SWAP3 DUP4 MUL SWAP2 SWAP1 SWAP2 ADD SWAP1 SWAP2 ADD MSTORE DUP1 PUSH2 0x174A DUP2 PUSH2 0x5E1A JUMP JUMPDEST SWAP2 POP POP PUSH2 0x16FA JUMP JUMPDEST POP SWAP1 JUMP JUMPDEST PUSH1 0x0 DUP1 PUSH2 0x1763 DUP5 DUP5 PUSH2 0xA04 JUMP JUMPDEST SWAP1 POP PUSH2 0x1775 DUP2 PUSH1 0x40 ADD MLOAD DUP7 DUP7 DUP7 PUSH2 0x4059 JUMP JUMPDEST SWAP6 SWAP5 POP POP POP POP POP JUMP JUMPDEST PUSH1 0x40 MLOAD PUSH4 0x935E01B PUSH1 0xE2 SHL DUP2 MSTORE DUP4 SWAP1 DUP2 SWAP1 PUSH1 0x1 PUSH1 0x1 PUSH1 0xA0 SHL SUB DUP3 AND SWAP1 PUSH4 0x24D7806C SWAP1 PUSH2 0x17AE SWAP1 CALLER SWAP1 PUSH1 0x4 ADD PUSH2 0x5553 JUMP JUMPDEST PUSH1 0x20 PUSH1 0x40 MLOAD DUP1 DUP4 SUB DUP2 DUP7 GAS STATICCALL ISZERO DUP1 ISZERO PUSH2 0x17CB JUMPI RETURNDATASIZE PUSH1 0x0 DUP1 RETURNDATACOPY RETURNDATASIZE PUSH1 0x0 REVERT JUMPDEST POP POP POP POP PUSH1 0x40 MLOAD RETURNDATASIZE PUSH1 0x1F NOT PUSH1 0x1F DUP3 ADD AND DUP3 ADD DUP1 PUSH1 0x40 MSTORE POP DUP2 ADD SWAP1 PUSH2 0x17EF SWAP2 SWAP1 PUSH2 0x5BCE JUMP JUMPDEST PUSH2 0x180B JUMPI PUSH1 0x40 MLOAD PUSH3 0x461BCD PUSH1 0xE5 SHL DUP2 MSTORE PUSH1 0x4 ADD PUSH2 0x5F7 SWAP1 PUSH2 0x5BEB JUMP JUMPDEST PUSH1 0x0 DUP5 GT DUP1 ISZERO PUSH2 0x1822 JUMPI POP PUSH7 0xFFFFFFFFFFFFFF DUP5 GT ISZERO JUMPDEST PUSH2 0x1863 JUMPI PUSH1 0x40 MLOAD PUSH3 0x461BCD PUSH1 0xE5 SHL DUP2 MSTORE PUSH1 0x20 PUSH1 0x4 DUP3 ADD MSTORE PUSH1 0x12 PUSH1 0x24 DUP3 ADD MSTORE PUSH18 0x125B9D985B1A59081A5B9CDD185B98D95259 PUSH1 0x72 SHL PUSH1 0x44 DUP3 ADD MSTORE PUSH1 0x64 ADD PUSH2 0x5F7 JUMP JUMPDEST PUSH1 0x0 PUSH1 0x1 PUSH1 0x1 PUSH1 0xA0 SHL SUB DUP7 AND PUSH1 0x0 SWAP1 DUP2 MSTORE PUSH1 0x9 PUSH1 0x20 SWAP1 DUP2 MSTORE PUSH1 0x40 DUP1 DUP4 KECCAK256 DUP9 DUP5 MSTORE SWAP1 SWAP2 MSTORE SWAP1 KECCAK256 SLOAD PUSH1 0x1 PUSH1 0xC0 SHL SWAP1 DIV PUSH1 0xFF AND PUSH1 0x3 DUP2 GT ISZERO PUSH2 0x18A4 JUMPI PUSH2 0x18A4 PUSH2 0x5064 JUMP JUMPDEST EQ PUSH2 0x18ED JUMPI PUSH1 0x40 MLOAD PUSH3 0x461BCD PUSH1 0xE5 SHL DUP2 MSTORE PUSH1 0x20 PUSH1 0x4 DUP3 ADD MSTORE PUSH1 0x19 PUSH1 0x24 DUP3 ADD MSTORE PUSH25 0x10DB185A5B48185B1C9958591E481A5B9A5D1A585B1A5E9959 PUSH1 0x3A SHL PUSH1 0x44 DUP3 ADD MSTORE PUSH1 0x64 ADD PUSH2 0x5F7 JUMP JUMPDEST PUSH1 0x0 PUSH2 0x18FF PUSH1 0xA0 DUP6 ADD PUSH1 0x80 DUP7 ADD PUSH2 0x5E33 JUMP JUMPDEST PUSH1 0x3 DUP2 GT ISZERO PUSH2 0x1910 JUMPI PUSH2 0x1910 PUSH2 0x5064 JUMP JUMPDEST SUB PUSH2 0x1975 JUMPI PUSH1 0x40 MLOAD PUSH3 0x461BCD PUSH1 0xE5 SHL DUP2 MSTORE PUSH1 0x20 PUSH1 0x4 DUP3 ADD MSTORE PUSH1 0x2F PUSH1 0x24 DUP3 ADD MSTORE PUSH32 0x43616E6E6F7420696E697469616C697A65207769746820696E76616C69642073 PUSH1 0x44 DUP3 ADD MSTORE PUSH15 0x1D1BDC9859D9481C1C9BDD1BD8DBDB PUSH1 0x8A SHL PUSH1 0x64 DUP3 ADD MSTORE PUSH1 0x84 ADD PUSH2 0x5F7 JUMP JUMPDEST PUSH2 0x1985 PUSH1 0x80 DUP5 ADD PUSH1 0x60 DUP6 ADD PUSH2 0x5E4E JUMP JUMPDEST PUSH6 0xFFFFFFFFFFFF AND ISZERO DUP1 PUSH2 0x19C6 JUMPI POP PUSH2 0x19A4 PUSH1 0x80 DUP5 ADD PUSH1 0x60 DUP6 ADD PUSH2 0x5E4E JUMP JUMPDEST PUSH6 0xFFFFFFFFFFFF AND PUSH2 0x19BC PUSH1 0x60 DUP6 ADD PUSH1 0x40 DUP7 ADD PUSH2 0x5E4E JUMP JUMPDEST PUSH6 0xFFFFFFFFFFFF AND LT JUMPDEST PUSH2 0x19E2 JUMPI PUSH1 0x40 MLOAD PUSH3 0x461BCD PUSH1 0xE5 SHL DUP2 MSTORE PUSH1 0x4 ADD PUSH2 0x5F7 SWAP1 PUSH2 0x5CA8 JUMP JUMPDEST PUSH1 0xC0 DUP4 ADD CALLDATALOAD ISZERO DUP1 PUSH2 0x1A06 JUMPI POP PUSH2 0x19FE PUSH1 0x40 DUP5 ADD PUSH1 0x20 DUP6 ADD PUSH2 0x5E69 JUMP JUMPDEST PUSH4 0xFFFFFFFF AND ISZERO JUMPDEST PUSH2 0x1A67 JUMPI PUSH1 0x40 MLOAD PUSH3 0x461BCD PUSH1 0xE5 SHL DUP2 MSTORE PUSH1 0x20 PUSH1 0x4 DUP3 ADD MSTORE PUSH1 0x2C PUSH1 0x24 DUP3 ADD MSTORE PUSH32 0x43616E6E6F742070726F7669646520626F74682077616C6C65744D617820616E PUSH1 0x44 DUP3 ADD MSTORE PUSH12 0x19081B595C9ADB19549BDBDD PUSH1 0xA2 SHL PUSH1 0x64 DUP3 ADD MSTORE PUSH1 0x84 ADD PUSH2 0x5F7 JUMP JUMPDEST PUSH1 0x0 DUP6 PUSH1 0x1 PUSH1 0x1 PUSH1 0xA0 SHL SUB AND PUSH4 0xFFA1AD74 PUSH1 0x40 MLOAD DUP2 PUSH4 0xFFFFFFFF AND PUSH1 0xE0 SHL DUP2 MSTORE PUSH1 0x4 ADD PUSH1 0x20 PUSH1 0x40 MLOAD DUP1 DUP4 SUB DUP2 DUP7 GAS STATICCALL SWAP3 POP POP POP DUP1 ISZERO PUSH2 0x1AC3 JUMPI POP PUSH1 0x40 DUP1 MLOAD PUSH1 0x1F RETURNDATASIZE SWAP1 DUP2 ADD PUSH1 0x1F NOT AND DUP3 ADD SWAP1 SWAP3 MSTORE PUSH2 0x1AC0 SWAP2 DUP2 ADD SWAP1 PUSH2 0x5E84 JUMP JUMPDEST PUSH1 0x1 JUMPDEST ISZERO PUSH2 0x1B1B JUMPI PUSH1 0xFF DUP2 GT ISZERO PUSH2 0x1B18 JUMPI PUSH1 0x40 MLOAD PUSH3 0x461BCD PUSH1 0xE5 SHL DUP2 MSTORE PUSH1 0x20 PUSH1 0x4 DUP3 ADD MSTORE PUSH1 0x1C PUSH1 0x24 DUP3 ADD MSTORE PUSH28 0x2AB739BAB83837B93A32B21031B7B73A3930B1BA103B32B939B4B7B7 PUSH1 0x21 SHL PUSH1 0x44 DUP3 ADD MSTORE PUSH1 0x64 ADD PUSH2 0x5F7 JUMP JUMPDEST SWAP1 POP JUMPDEST PUSH1 0x40 DUP1 MLOAD PUSH2 0x1C0 DUP2 ADD SWAP1 SWAP2 MSTORE PUSH1 0x0 DUP2 MSTORE PUSH1 0x20 DUP1 DUP3 ADD SWAP1 PUSH2 0x1B3D SWAP1 DUP8 ADD DUP8 PUSH2 0x5E69 JUMP JUMPDEST PUSH4 0xFFFFFFFF AND DUP2 MSTORE PUSH1 0x20 ADD DUP6 PUSH1 0x20 ADD PUSH1 0x20 DUP2 ADD SWAP1 PUSH2 0x1B5B SWAP2 SWAP1 PUSH2 0x5E69 JUMP JUMPDEST PUSH4 0xFFFFFFFF AND DUP2 MSTORE PUSH1 0x20 ADD PUSH2 0x1B76 PUSH1 0x60 DUP8 ADD PUSH1 0x40 DUP9 ADD PUSH2 0x5E4E JUMP JUMPDEST PUSH6 0xFFFFFFFFFFFF AND DUP2 MSTORE PUSH1 0x20 ADD PUSH2 0x1B93 PUSH1 0x80 DUP8 ADD PUSH1 0x60 DUP9 ADD PUSH2 0x5E4E JUMP JUMPDEST PUSH6 0xFFFFFFFFFFFF AND DUP2 MSTORE PUSH1 0x20 ADD PUSH2 0x1BB0 PUSH1 0xA0 DUP8 ADD PUSH1 0x80 DUP9 ADD PUSH2 0x5E33 JUMP JUMPDEST PUSH1 0x3 DUP2 GT ISZERO PUSH2 0x1BC1 JUMPI PUSH2 0x1BC1 PUSH2 0x5064 JUMP JUMPDEST DUP2 MSTORE PUSH1 0xFF DUP4 AND PUSH1 0x20 DUP3 ADD MSTORE PUSH1 0x40 ADD PUSH2 0x1BDF PUSH1 0xC0 DUP8 ADD PUSH1 0xA0 DUP9 ADD PUSH2 0x5E9D JUMP JUMPDEST ISZERO ISZERO DUP2 MSTORE PUSH1 0xC0 DUP7 ADD CALLDATALOAD PUSH1 0x20 DUP3 ADD MSTORE PUSH1 0x40 ADD PUSH2 0x1BFD PUSH1 0xE0 DUP8 ADD DUP8 PUSH2 0x5EBA JUMP JUMPDEST DUP1 DUP1 PUSH1 0x1F ADD PUSH1 0x20 DUP1 SWAP2 DIV MUL PUSH1 0x20 ADD PUSH1 0x40 MLOAD SWAP1 DUP2 ADD PUSH1 0x40 MSTORE DUP1 SWAP4 SWAP3 SWAP2 SWAP1 DUP2 DUP2 MSTORE PUSH1 0x20 ADD DUP4 DUP4 DUP1 DUP3 DUP5 CALLDATACOPY PUSH1 0x0 SWAP3 ADD SWAP2 SWAP1 SWAP2 MSTORE POP POP POP SWAP1 DUP3 MSTORE POP PUSH2 0x100 DUP7 ADD CALLDATALOAD PUSH1 0x20 DUP3 ADD MSTORE PUSH1 0x40 ADD PUSH2 0x1C54 PUSH2 0x140 DUP8 ADD PUSH2 0x120 DUP9 ADD PUSH2 0x5236 JUMP JUMPDEST PUSH1 0x1 PUSH1 0x1 PUSH1 0xA0 SHL SUB AND DUP2 MSTORE PUSH1 0x20 ADD PUSH2 0x1C74 PUSH2 0x160 DUP8 ADD PUSH2 0x140 DUP9 ADD PUSH2 0x5236 JUMP JUMPDEST PUSH1 0x1 PUSH1 0x1 PUSH1 0xA0 SHL SUB AND DUP2 MSTORE PUSH1 0x20 ADD PUSH2 0x1C94 PUSH2 0x180 DUP8 ADD PUSH2 0x160 DUP9 ADD PUSH2 0x5236 JUMP JUMPDEST PUSH1 0x1 PUSH1 0x1 PUSH1 0xA0 SHL SUB SWAP1 DUP2 AND SWAP1 SWAP2 MSTORE DUP8 AND PUSH1 0x0 SWAP1 DUP2 MSTORE PUSH1 0x9 PUSH1 0x20 SWAP1 DUP2 MSTORE PUSH1 0x40 DUP1 DUP4 KECCAK256 DUP10 DUP5 MSTORE DUP3 MSTORE SWAP2 DUP3 SWAP1 KECCAK256 DUP4 MLOAD DUP2 SLOAD SWAP3 DUP6 ADD MLOAD SWAP4 DUP6 ADD MLOAD PUSH1 0x60 DUP7 ADD MLOAD PUSH1 0x80 DUP8 ADD MLOAD PUSH6 0xFFFFFFFFFFFF SWAP1 DUP2 AND PUSH1 0x1 PUSH1 0x90 SHL MUL PUSH6 0xFFFFFFFFFFFF PUSH1 0x90 SHL NOT SWAP2 SWAP1 SWAP3 AND PUSH1 0x1 PUSH1 0x60 SHL MUL PUSH6 0xFFFFFFFFFFFF PUSH1 0x60 SHL NOT PUSH4 0xFFFFFFFF SWAP5 DUP6 AND PUSH1 0x1 PUSH1 0x40 SHL MUL AND PUSH1 0x1 PUSH1 0x40 SHL PUSH1 0x1 PUSH1 0x90 SHL SUB NOT SWAP9 DUP6 AND PUSH1 0x1 PUSH1 0x20 SHL MUL PUSH1 0x1 PUSH1 0x1 PUSH1 0x40 SHL SUB NOT SWAP1 SWAP9 AND SWAP5 SWAP1 SWAP6 AND SWAP4 SWAP1 SWAP4 OR SWAP6 SWAP1 SWAP6 OR SWAP6 SWAP1 SWAP6 AND SWAP2 SWAP1 SWAP2 OR OR SWAP2 DUP3 AND DUP4 OR DUP2 SSTORE PUSH1 0xA0 DUP5 ADD MLOAD SWAP1 SWAP3 SWAP1 SWAP2 DUP4 SWAP2 PUSH1 0xFF PUSH1 0xC0 SHL NOT AND PUSH7 0xFFFFFFFFFFFFFF PUSH1 0x90 SHL NOT SWAP1 SWAP2 AND OR PUSH1 0x1 PUSH1 0xC0 SHL DUP4 PUSH1 0x3 DUP2 GT ISZERO PUSH2 0x1D89 JUMPI PUSH2 0x1D89 PUSH2 0x5064 JUMP JUMPDEST MUL OR SWAP1 SSTORE POP PUSH1 0xC0 DUP3 ADD MLOAD DUP2 SLOAD PUSH1 0xE0 DUP5 ADD MLOAD ISZERO ISZERO PUSH1 0x1 PUSH1 0xD0 SHL MUL PUSH1 0xFF PUSH1 0xD0 SHL NOT PUSH1 0xFF SWAP1 SWAP4 AND PUSH1 0x1 PUSH1 0xC8 SHL MUL SWAP3 SWAP1 SWAP3 AND PUSH2 0xFFFF PUSH1 0xC8 SHL NOT SWAP1 SWAP2 AND OR OR DUP2 SSTORE PUSH2 0x100 DUP3 ADD MLOAD PUSH1 0x1 DUP3 ADD SSTORE PUSH2 0x120 DUP3 ADD MLOAD PUSH1 0x2 DUP3 ADD SWAP1 PUSH2 0x1DE5 SWAP1 DUP3 PUSH2 0x5D61 JUMP JUMPDEST POP PUSH2 0x140 DUP3 ADD MLOAD PUSH1 0x3 DUP3 ADD SSTORE PUSH2 0x160 DUP3 ADD MLOAD PUSH1 0x4 DUP3 ADD DUP1 SLOAD PUSH1 0x1 PUSH1 0x1 PUSH1 0xA0 SHL SUB NOT SWAP1 DUP2 AND PUSH1 0x1 PUSH1 0x1 PUSH1 0xA0 SHL SUB SWAP4 DUP5 AND OR SWAP1 SWAP2 SSTORE PUSH2 0x180 DUP5 ADD MLOAD PUSH1 0x5 DUP5 ADD DUP1 SLOAD DUP4 AND SWAP2 DUP5 AND SWAP2 SWAP1 SWAP2 OR SWAP1 SSTORE PUSH2 0x1A0 SWAP1 SWAP4 ADD MLOAD PUSH1 0x6 SWAP1 SWAP3 ADD DUP1 SLOAD SWAP1 SWAP4 AND SWAP2 DUP2 AND SWAP2 SWAP1 SWAP2 OR SWAP1 SWAP2 SSTORE PUSH1 0x40 MLOAD DUP7 SWAP2 DUP9 AND SWAP1 PUSH32 0xD02727DA4C6C6C111E00310108209A4DE39F6817414DF43CA1A10730D47C6A34 SWAP1 PUSH2 0x1E7F SWAP1 CALLER SWAP1 PUSH2 0x5553 JUMP JUMPDEST PUSH1 0x40 MLOAD DUP1 SWAP2 SUB SWAP1 LOG3 POP POP POP POP POP POP JUMP JUMPDEST PUSH1 0x40 MLOAD PUSH4 0x935E01B PUSH1 0xE2 SHL DUP2 MSTORE DUP7 SWAP1 DUP2 SWAP1 PUSH1 0x1 PUSH1 0x1 PUSH1 0xA0 SHL SUB DUP3 AND SWAP1 PUSH4 0x24D7806C SWAP1 PUSH2 0x1EBF SWAP1 CALLER SWAP1 PUSH1 0x4 ADD PUSH2 0x5553 JUMP JUMPDEST PUSH1 0x20 PUSH1 0x40 MLOAD DUP1 DUP4 SUB DUP2 DUP7 GAS STATICCALL ISZERO DUP1 ISZERO PUSH2 0x1EDC JUMPI RETURNDATASIZE PUSH1 0x0 DUP1 RETURNDATACOPY RETURNDATASIZE PUSH1 0x0 REVERT JUMPDEST POP POP POP POP PUSH1 0x40 MLOAD RETURNDATASIZE PUSH1 0x1F NOT PUSH1 0x1F DUP3 ADD AND DUP3 ADD DUP1 PUSH1 0x40 MSTORE POP DUP2 ADD SWAP1 PUSH2 0x1F00 SWAP2 SWAP1 PUSH2 0x5BCE JUMP JUMPDEST PUSH2 0x1F1C JUMPI PUSH1 0x40 MLOAD PUSH3 0x461BCD PUSH1 0xE5 SHL DUP2 MSTORE PUSH1 0x4 ADD PUSH2 0x5F7 SWAP1 PUSH2 0x5BEB JUMP JUMPDEST DUP5 DUP4 EQ PUSH2 0x1F85 JUMPI PUSH1 0x40 MLOAD PUSH3 0x461BCD PUSH1 0xE5 SHL DUP2 MSTORE PUSH1 0x20 PUSH1 0x4 DUP3 ADD MSTORE PUSH1 0x31 PUSH1 0x24 DUP3 ADD MSTORE PUSH32 0x556E657175616C206E756D626572206F6620726563697069656E747320616E64 PUSH1 0x44 DUP3 ADD MSTORE PUSH17 0x8185B5BDD5B9D1CC81C1C9BDD9A591959 PUSH1 0x7A SHL PUSH1 0x64 DUP3 ADD MSTORE PUSH1 0x84 ADD PUSH2 0x5F7 JUMP JUMPDEST PUSH1 0x1 PUSH1 0x1 PUSH1 0xA0 SHL SUB DUP9 AND PUSH1 0x0 SWAP1 DUP2 MSTORE PUSH1 0x9 PUSH1 0x20 SWAP1 DUP2 MSTORE PUSH1 0x40 DUP1 DUP4 KECCAK256 DUP11 DUP5 MSTORE SWAP1 SWAP2 MSTORE DUP2 KECCAK256 DUP1 SLOAD SWAP1 SWAP2 SWAP1 PUSH2 0x1FBE SWAP1 PUSH4 0xFFFFFFFF AND PUSH1 0x1 PUSH2 0x59AA JUMP JUMPDEST DUP3 SLOAD PUSH4 0xFFFFFFFF SWAP2 SWAP1 SWAP2 AND SWAP2 POP PUSH1 0x3 PUSH1 0x1 PUSH1 0xC8 SHL SWAP1 SWAP2 DIV PUSH1 0xFF AND LT PUSH2 0x217A JUMPI PUSH1 0x0 JUMPDEST DUP8 DUP2 LT ISZERO PUSH2 0x2174 JUMPI PUSH1 0x0 DUP8 DUP8 DUP4 DUP2 DUP2 LT PUSH2 0x1FFC JUMPI PUSH2 0x1FFC PUSH2 0x5A38 JUMP JUMPDEST SWAP1 POP PUSH1 0x20 MUL ADD PUSH1 0x20 DUP2 ADD SWAP1 PUSH2 0x2011 SWAP2 SWAP1 PUSH2 0x5F00 JUMP JUMPDEST SWAP1 POP PUSH1 0x0 DUP2 PUSH2 0xFFFF AND PUSH1 0x1 PUSH1 0x1 PUSH1 0x40 SHL SUB DUP2 GT ISZERO PUSH2 0x2031 JUMPI PUSH2 0x2031 PUSH2 0x5253 JUMP JUMPDEST PUSH1 0x40 MLOAD SWAP1 DUP1 DUP3 MSTORE DUP1 PUSH1 0x20 MUL PUSH1 0x20 ADD DUP3 ADD PUSH1 0x40 MSTORE DUP1 ISZERO PUSH2 0x205A JUMPI DUP2 PUSH1 0x20 ADD PUSH1 0x20 DUP3 MUL DUP1 CALLDATASIZE DUP4 CALLDATACOPY ADD SWAP1 POP JUMPDEST POP SWAP1 POP PUSH1 0x0 JUMPDEST DUP3 PUSH2 0xFFFF AND DUP2 LT ISZERO PUSH2 0x20C5 JUMPI PUSH2 0x2076 DUP2 DUP7 PUSH2 0x5A25 JUMP JUMPDEST PUSH3 0xFFFFFF AND PUSH1 0x18 DUP15 PUSH7 0xFFFFFFFFFFFFFF AND SWAP1 SHL OR PUSH7 0xFFFFFFFFFFFFFF AND DUP3 DUP3 DUP2 MLOAD DUP2 LT PUSH2 0x20A5 JUMPI PUSH2 0x20A5 PUSH2 0x5A38 JUMP JUMPDEST PUSH1 0x1 PUSH1 0x1 PUSH1 0x50 SHL SUB SWAP1 SWAP3 AND PUSH1 0x20 SWAP3 DUP4 MUL SWAP2 SWAP1 SWAP2 ADD SWAP1 SWAP2 ADD MSTORE PUSH1 0x1 ADD PUSH2 0x2060 JUMP JUMPDEST POP DUP13 PUSH1 0x1 PUSH1 0x1 PUSH1 0xA0 SHL SUB AND PUSH4 0x4278330E DUP13 DUP13 DUP7 DUP2 DUP2 LT PUSH2 0x20E7 JUMPI PUSH2 0x20E7 PUSH2 0x5A38 JUMP JUMPDEST SWAP1 POP PUSH1 0x20 MUL ADD PUSH1 0x20 DUP2 ADD SWAP1 PUSH2 0x20FC SWAP2 SWAP1 PUSH2 0x5236 JUMP JUMPDEST DUP4 PUSH1 0x40 MLOAD DUP4 PUSH4 0xFFFFFFFF AND PUSH1 0xE0 SHL DUP2 MSTORE PUSH1 0x4 ADD PUSH2 0x211A SWAP3 SWAP2 SWAP1 PUSH2 0x5A4E JUMP JUMPDEST PUSH1 0x0 PUSH1 0x40 MLOAD DUP1 DUP4 SUB DUP2 PUSH1 0x0 DUP8 GAS CALL ISZERO DUP1 ISZERO PUSH2 0x2139 JUMPI RETURNDATASIZE PUSH1 0x0 DUP1 RETURNDATACOPY RETURNDATASIZE PUSH1 0x0 REVERT JUMPDEST POP POP POP POP PUSH1 0x40 MLOAD RETURNDATASIZE PUSH1 0x0 DUP3 RETURNDATACOPY PUSH1 0x1F RETURNDATASIZE SWAP1 DUP2 ADD PUSH1 0x1F NOT AND DUP3 ADD PUSH1 0x40 MSTORE PUSH2 0x2161 SWAP2 SWAP1 DUP2 ADD SWAP1 PUSH2 0x5AAD JUMP JUMPDEST POP POP PUSH2 0xFFFF AND SWAP2 SWAP1 SWAP2 ADD SWAP1 PUSH1 0x1 ADD PUSH2 0x1FE0 JUMP JUMPDEST POP PUSH2 0x230B JUMP JUMPDEST PUSH1 0x0 JUMPDEST DUP8 DUP2 LT ISZERO PUSH2 0x2309 JUMPI PUSH1 0x0 DUP12 PUSH1 0x1 PUSH1 0x1 PUSH1 0xA0 SHL SUB AND PUSH4 0xE00AAB4B DUP12 DUP12 DUP6 DUP2 DUP2 LT PUSH2 0x21A8 JUMPI PUSH2 0x21A8 PUSH2 0x5A38 JUMP JUMPDEST SWAP1 POP PUSH1 0x20 MUL ADD PUSH1 0x20 DUP2 ADD SWAP1 PUSH2 0x21BD SWAP2 SWAP1 PUSH2 0x5236 JUMP JUMPDEST DUP11 DUP11 DUP7 DUP2 DUP2 LT PUSH2 0x21CF JUMPI PUSH2 0x21CF PUSH2 0x5A38 JUMP JUMPDEST SWAP1 POP PUSH1 0x20 MUL ADD PUSH1 0x20 DUP2 ADD SWAP1 PUSH2 0x21E4 SWAP2 SWAP1 PUSH2 0x5F00 JUMP JUMPDEST PUSH1 0x40 MLOAD DUP4 PUSH4 0xFFFFFFFF AND PUSH1 0xE0 SHL DUP2 MSTORE PUSH1 0x4 ADD PUSH2 0x2201 SWAP3 SWAP2 SWAP1 PUSH2 0x5B52 JUMP JUMPDEST PUSH1 0x0 PUSH1 0x40 MLOAD DUP1 DUP4 SUB DUP2 PUSH1 0x0 DUP8 GAS CALL ISZERO DUP1 ISZERO PUSH2 0x2220 JUMPI RETURNDATASIZE PUSH1 0x0 DUP1 RETURNDATACOPY RETURNDATASIZE PUSH1 0x0 REVERT JUMPDEST POP POP POP POP PUSH1 0x40 MLOAD RETURNDATASIZE PUSH1 0x0 DUP3 RETURNDATACOPY PUSH1 0x1F RETURNDATASIZE SWAP1 DUP2 ADD PUSH1 0x1F NOT AND DUP3 ADD PUSH1 0x40 MSTORE PUSH2 0x2248 SWAP2 SWAP1 DUP2 ADD SWAP1 PUSH2 0x5AAD JUMP JUMPDEST SWAP1 POP PUSH1 0x0 JUMPDEST DUP2 MLOAD DUP2 LT ISZERO PUSH2 0x22FA JUMPI PUSH1 0x40 MLOAD DUP1 PUSH1 0x40 ADD PUSH1 0x40 MSTORE DUP1 DUP14 PUSH1 0x1 PUSH1 0x1 PUSH1 0xE0 SHL SUB AND DUP2 MSTORE PUSH1 0x20 ADD DUP3 DUP7 PUSH2 0x227C SWAP2 SWAP1 PUSH2 0x5A25 JUMP JUMPDEST PUSH4 0xFFFFFFFF AND SWAP1 MSTORE PUSH1 0x1 PUSH1 0x1 PUSH1 0xA0 SHL SUB DUP15 AND PUSH1 0x0 SWAP1 DUP2 MSTORE PUSH1 0xA PUSH1 0x20 MSTORE PUSH1 0x40 DUP2 KECCAK256 DUP5 MLOAD SWAP1 SWAP2 SWAP1 DUP6 SWAP1 DUP6 SWAP1 DUP2 LT PUSH2 0x22B3 JUMPI PUSH2 0x22B3 PUSH2 0x5A38 JUMP JUMPDEST PUSH1 0x20 SWAP1 DUP2 MUL SWAP2 SWAP1 SWAP2 ADD DUP2 ADD MLOAD DUP3 MSTORE DUP2 DUP2 ADD SWAP3 SWAP1 SWAP3 MSTORE PUSH1 0x40 ADD PUSH1 0x0 KECCAK256 DUP3 MLOAD SWAP3 SWAP1 SWAP2 ADD MLOAD PUSH4 0xFFFFFFFF AND PUSH1 0x1 PUSH1 0xE0 SHL MUL PUSH1 0x1 PUSH1 0x1 PUSH1 0xE0 SHL SUB SWAP1 SWAP3 AND SWAP2 SWAP1 SWAP2 OR SWAP1 SSTORE PUSH1 0x1 ADD PUSH2 0x224D JUMP JUMPDEST POP MLOAD SWAP2 SWAP1 SWAP2 ADD SWAP1 PUSH1 0x1 ADD PUSH2 0x217D JUMP JUMPDEST POP JUMPDEST DUP2 SLOAD PUSH3 0xFFFFFF SWAP1 PUSH1 0x1 SWAP1 PUSH2 0x2325 SWAP1 PUSH4 0xFFFFFFFF AND DUP5 PUSH2 0x5F1B JUMP JUMPDEST PUSH2 0x232F SWAP2 SWAP1 PUSH2 0x5F1B JUMP JUMPDEST GT ISZERO PUSH2 0x2372 JUMPI PUSH1 0x40 MLOAD PUSH3 0x461BCD PUSH1 0xE5 SHL DUP2 MSTORE PUSH1 0x20 PUSH1 0x4 DUP3 ADD MSTORE PUSH1 0x12 PUSH1 0x24 DUP3 ADD MSTORE PUSH18 0x151BDBC81B585B9E481C995C5D595CDD1959 PUSH1 0x72 SHL PUSH1 0x44 DUP3 ADD MSTORE PUSH1 0x64 ADD PUSH2 0x5F7 JUMP JUMPDEST DUP2 SLOAD PUSH1 0x1 SWAP1 PUSH2 0x2387 SWAP1 PUSH4 0xFFFFFFFF AND DUP4 PUSH2 0x5F1B JUMP JUMPDEST PUSH2 0x2391 SWAP2 SWAP1 PUSH2 0x5F1B JUMP JUMPDEST DUP3 SLOAD DUP4 SWAP1 PUSH1 0x0 SWAP1 PUSH2 0x23A9 SWAP1 DUP5 SWAP1 PUSH4 0xFFFFFFFF AND PUSH2 0x59AA JUMP JUMPDEST DUP3 SLOAD PUSH2 0x100 SWAP3 SWAP1 SWAP3 EXP PUSH4 0xFFFFFFFF DUP2 DUP2 MUL NOT SWAP1 SWAP4 AND SWAP2 DUP4 AND MUL OR SWAP1 SWAP2 SSTORE DUP4 SLOAD PUSH1 0x1 PUSH1 0x20 SHL SWAP1 DIV AND ISZERO DUP1 ISZERO SWAP2 POP PUSH2 0x23EE JUMPI POP DUP2 SLOAD PUSH4 0xFFFFFFFF PUSH1 0x1 PUSH1 0x20 SHL DUP3 DIV DUP2 AND SWAP2 AND GT JUMPDEST ISZERO PUSH2 0x2412 JUMPI DUP2 SLOAD PUSH1 0x1 PUSH1 0x20 SHL PUSH4 0xFFFFFFFF DUP3 AND MUL PUSH4 0xFFFFFFFF PUSH1 0x20 SHL NOT SWAP1 SWAP2 AND OR DUP3 SSTORE JUMPDEST POP POP POP POP POP POP POP POP POP POP JUMP JUMPDEST PUSH2 0x2426 PUSH2 0x3FCF JUMP JUMPDEST PUSH2 0x2431 PUSH1 0x1 DUP3 PUSH2 0x3ED7 JUMP JUMPDEST PUSH2 0x105D JUMPI PUSH1 0x40 MLOAD CALLER SWAP1 PUSH1 0x1 PUSH1 0x1 PUSH1 0xA0 SHL SUB DUP4 AND SWAP1 PUSH32 0x7E1A1A08D52E4BA0E21554733D66165FD5151F99460116223D9E3A608EEC5CB1 SWAP1 PUSH1 0x0 SWAP1 LOG3 PUSH2 0x105B PUSH1 0x1 DUP3 PUSH2 0x4107 JUMP JUMPDEST PUSH2 0x247E PUSH2 0x3FCF JUMP JUMPDEST PUSH2 0x2488 PUSH1 0x0 PUSH2 0x411C JUMP JUMPDEST JUMP JUMPDEST CALLER PUSH2 0x2493 PUSH2 0x2B72 JUMP JUMPDEST PUSH1 0x1 PUSH1 0x1 PUSH1 0xA0 SHL SUB AND EQ DUP1 PUSH2 0x24AE JUMPI POP PUSH2 0x24AE PUSH1 0x1 CALLER PUSH2 0x3ED7 JUMP JUMPDEST PUSH2 0x24CA JUMPI PUSH1 0x40 MLOAD PUSH3 0x461BCD PUSH1 0xE5 SHL DUP2 MSTORE PUSH1 0x4 ADD PUSH2 0x5F7 SWAP1 PUSH2 0x5F2E JUMP JUMPDEST PUSH1 0x3 DUP1 SLOAD PUSH1 0x1 PUSH1 0x1 PUSH1 0xA0 SHL SUB NOT AND PUSH1 0x1 PUSH1 0x1 PUSH1 0xA0 SHL SUB SWAP3 SWAP1 SWAP3 AND SWAP2 SWAP1 SWAP2 OR SWAP1 SSTORE JUMP JUMPDEST PUSH1 0x0 PUSH2 0x24F6 PUSH2 0x4E75 JUMP JUMPDEST PUSH1 0x1 PUSH1 0x1 PUSH1 0xA0 SHL SUB DUP5 AND PUSH1 0x0 SWAP1 DUP2 MSTORE PUSH1 0xA PUSH1 0x20 SWAP1 DUP2 MSTORE PUSH1 0x40 DUP1 DUP4 KECCAK256 DUP7 DUP5 MSTORE DUP3 MSTORE DUP1 DUP4 KECCAK256 DUP2 MLOAD DUP1 DUP4 ADD SWAP1 SWAP3 MSTORE SLOAD PUSH1 0x1 PUSH1 0x1 PUSH1 0xE0 SHL SUB DUP2 AND DUP1 DUP4 MSTORE PUSH1 0x1 PUSH1 0xE0 SHL SWAP1 SWAP2 DIV PUSH4 0xFFFFFFFF AND SWAP3 DUP3 ADD SWAP3 SWAP1 SWAP3 MSTORE SWAP2 SUB PUSH2 0x25CB JUMPI PUSH1 0x40 MLOAD PUSH4 0xB4B5B48F PUSH1 0xE0 SHL DUP2 MSTORE PUSH1 0x4 DUP2 ADD DUP6 SWAP1 MSTORE PUSH1 0x0 SWAP1 PUSH1 0x1 PUSH1 0x1 PUSH1 0xA0 SHL SUB DUP8 AND SWAP1 PUSH4 0xB4B5B48F SWAP1 PUSH1 0x24 ADD PUSH1 0x20 PUSH1 0x40 MLOAD DUP1 DUP4 SUB DUP2 DUP7 GAS STATICCALL ISZERO DUP1 ISZERO PUSH2 0x2592 JUMPI RETURNDATASIZE PUSH1 0x0 DUP1 RETURNDATACOPY RETURNDATASIZE PUSH1 0x0 REVERT JUMPDEST POP POP POP POP PUSH1 0x40 MLOAD RETURNDATASIZE PUSH1 0x1F NOT PUSH1 0x1F DUP3 ADD AND DUP3 ADD DUP1 PUSH1 0x40 MSTORE POP DUP2 ADD SWAP1 PUSH2 0x25B6 SWAP2 SWAP1 PUSH2 0x5F72 JUMP JUMPDEST PUSH1 0x18 SHR PUSH7 0xFFFFFFFFFFFFFF AND SWAP4 POP PUSH2 0x25D9 SWAP1 POP JUMP JUMPDEST DUP1 MLOAD PUSH1 0x1 PUSH1 0x1 PUSH1 0xE0 SHL SUB AND SWAP3 POP JUMPDEST PUSH2 0x25E3 DUP6 DUP5 PUSH2 0x39A8 JUMP JUMPDEST PUSH1 0x40 DUP1 MLOAD PUSH2 0x1C0 DUP2 ADD DUP3 MSTORE DUP3 SLOAD PUSH4 0xFFFFFFFF DUP1 DUP3 AND DUP4 MSTORE PUSH1 0x1 PUSH1 0x20 SHL DUP3 DIV DUP2 AND PUSH1 0x20 DUP5 ADD MSTORE PUSH1 0x1 PUSH1 0x40 SHL DUP3 DIV AND SWAP3 DUP3 ADD SWAP3 SWAP1 SWAP3 MSTORE PUSH6 0xFFFFFFFFFFFF PUSH1 0x1 PUSH1 0x60 SHL DUP4 DIV DUP2 AND PUSH1 0x60 DUP4 ADD MSTORE PUSH1 0x1 PUSH1 0x90 SHL DUP4 DIV AND PUSH1 0x80 DUP3 ADD MSTORE SWAP2 SWAP1 PUSH1 0xA0 DUP4 ADD SWAP1 PUSH1 0xFF PUSH1 0x1 PUSH1 0xC0 SHL SWAP1 SWAP2 DIV AND PUSH1 0x3 DUP2 GT ISZERO PUSH2 0x265C JUMPI PUSH2 0x265C PUSH2 0x5064 JUMP JUMPDEST PUSH1 0x3 DUP2 GT ISZERO PUSH2 0x266D JUMPI PUSH2 0x266D PUSH2 0x5064 JUMP JUMPDEST DUP2 MSTORE DUP2 SLOAD PUSH1 0xFF PUSH1 0x1 PUSH1 0xC8 SHL DUP3 DIV DUP2 AND PUSH1 0x20 DUP5 ADD MSTORE PUSH1 0x1 PUSH1 0xD0 SHL SWAP1 SWAP2 DIV AND ISZERO ISZERO PUSH1 0x40 DUP3 ADD MSTORE PUSH1 0x1 DUP3 ADD SLOAD PUSH1 0x60 DUP3 ADD MSTORE PUSH1 0x2 DUP3 ADD DUP1 SLOAD PUSH1 0x80 SWAP1 SWAP3 ADD SWAP2 PUSH2 0x26B0 SWAP1 PUSH2 0x5B94 JUMP JUMPDEST DUP1 PUSH1 0x1F ADD PUSH1 0x20 DUP1 SWAP2 DIV MUL PUSH1 0x20 ADD PUSH1 0x40 MLOAD SWAP1 DUP2 ADD PUSH1 0x40 MSTORE DUP1 SWAP3 SWAP2 SWAP1 DUP2 DUP2 MSTORE PUSH1 0x20 ADD DUP3 DUP1 SLOAD PUSH2 0x26DC SWAP1 PUSH2 0x5B94 JUMP JUMPDEST DUP1 ISZERO PUSH2 0x2729 JUMPI DUP1 PUSH1 0x1F LT PUSH2 0x26FE JUMPI PUSH2 0x100 DUP1 DUP4 SLOAD DIV MUL DUP4 MSTORE SWAP2 PUSH1 0x20 ADD SWAP2 PUSH2 0x2729 JUMP JUMPDEST DUP3 ADD SWAP2 SWAP1 PUSH1 0x0 MSTORE PUSH1 0x20 PUSH1 0x0 KECCAK256 SWAP1 JUMPDEST DUP2 SLOAD DUP2 MSTORE SWAP1 PUSH1 0x1 ADD SWAP1 PUSH1 0x20 ADD DUP1 DUP4 GT PUSH2 0x270C JUMPI DUP3 SWAP1 SUB PUSH1 0x1F AND DUP3 ADD SWAP2 JUMPDEST POP POP POP SWAP2 DUP4 MSTORE POP POP PUSH1 0x3 DUP3 ADD SLOAD PUSH1 0x20 DUP3 ADD MSTORE PUSH1 0x4 DUP3 ADD SLOAD PUSH1 0x1 PUSH1 0x1 PUSH1 0xA0 SHL SUB SWAP1 DUP2 AND PUSH1 0x40 DUP4 ADD MSTORE PUSH1 0x5 DUP4 ADD SLOAD DUP2 AND PUSH1 0x60 DUP4 ADD MSTORE PUSH1 0x6 SWAP1 SWAP3 ADD SLOAD SWAP1 SWAP2 AND PUSH1 0x80 SWAP1 SWAP2 ADD MSTORE SWAP3 SWAP6 SWAP3 SWAP5 POP SWAP2 SWAP3 POP POP POP JUMP JUMPDEST PUSH1 0x0 PUSH2 0x2783 DUP10 DUP10 PUSH2 0x39A8 JUMP JUMPDEST DUP1 SLOAD SWAP1 SWAP2 POP PUSH2 0xFFFF DUP9 AND SWAP1 DUP3 SWAP1 PUSH1 0x0 SWAP1 PUSH2 0x27A4 SWAP1 DUP5 SWAP1 PUSH4 0xFFFFFFFF AND PUSH2 0x59AA JUMP JUMPDEST DUP3 SLOAD PUSH2 0x100 SWAP3 SWAP1 SWAP3 EXP PUSH4 0xFFFFFFFF DUP2 DUP2 MUL NOT SWAP1 SWAP4 AND SWAP2 DUP4 AND MUL OR SWAP1 SWAP2 SSTORE DUP3 SLOAD PUSH1 0x1 PUSH1 0x20 SHL SWAP1 DIV AND ISZERO SWAP1 POP DUP1 PUSH2 0x27E9 JUMPI POP DUP1 SLOAD PUSH4 0xFFFFFFFF PUSH1 0x1 PUSH1 0x20 SHL DUP3 DIV DUP2 AND SWAP2 AND GT ISZERO JUMPDEST DUP1 ISZERO PUSH2 0x2801 JUMPI POP DUP1 SLOAD PUSH3 0xFFFFFF PUSH4 0xFFFFFFFF SWAP1 SWAP2 AND GT ISZERO JUMPDEST PUSH2 0x281D JUMPI PUSH1 0x40 MLOAD PUSH3 0x461BCD PUSH1 0xE5 SHL DUP2 MSTORE PUSH1 0x4 ADD PUSH2 0x5F7 SWAP1 PUSH2 0x59C7 JUMP JUMPDEST DUP1 SLOAD PUSH1 0x6 DUP3 ADD SLOAD PUSH2 0x285E SWAP2 DUP12 SWAP2 DUP12 SWAP2 PUSH6 0xFFFFFFFFFFFF PUSH1 0x1 PUSH1 0x60 SHL DUP3 DIV DUP2 AND SWAP3 PUSH1 0x1 PUSH1 0x90 SHL SWAP1 SWAP3 DIV AND SWAP1 DUP12 SWAP1 DUP12 SWAP1 DUP12 SWAP1 DUP12 SWAP1 PUSH1 0x1 PUSH1 0x1 PUSH1 0xA0 SHL SUB AND DUP12 PUSH2 0x416C JUMP JUMPDEST DUP1 SLOAD PUSH1 0x0 SWAP1 PUSH2 0x2878 SWAP1 PUSH2 0xFFFF DUP11 AND SWAP1 PUSH4 0xFFFFFFFF AND PUSH2 0x5A08 JUMP JUMPDEST PUSH2 0x2883 SWAP1 PUSH1 0x1 PUSH2 0x59AA JUMP JUMPDEST PUSH1 0x5 DUP4 ADD SLOAD PUSH1 0x3 DUP5 ADD SLOAD PUSH1 0x4 DUP6 ADD SLOAD PUSH1 0x1 DUP7 ADD SLOAD PUSH4 0xFFFFFFFF SWAP5 SWAP1 SWAP5 AND SWAP5 POP PUSH2 0x28C1 SWAP4 PUSH1 0x1 PUSH1 0x1 PUSH1 0xA0 SHL SUB SWAP4 DUP5 AND SWAP4 SWAP1 SWAP2 AND SWAP1 DUP13 SWAP1 ISZERO ISZERO PUSH1 0x0 PUSH2 0x3C22 JUMP JUMPDEST DUP2 SLOAD PUSH1 0x3 PUSH1 0x1 PUSH1 0xC8 SHL SWAP1 SWAP2 DIV PUSH1 0xFF AND LT PUSH2 0x2A04 JUMPI PUSH1 0x0 DUP9 PUSH2 0xFFFF AND PUSH1 0x1 PUSH1 0x1 PUSH1 0x40 SHL SUB DUP2 GT ISZERO PUSH2 0x28F3 JUMPI PUSH2 0x28F3 PUSH2 0x5253 JUMP JUMPDEST PUSH1 0x40 MLOAD SWAP1 DUP1 DUP3 MSTORE DUP1 PUSH1 0x20 MUL PUSH1 0x20 ADD DUP3 ADD PUSH1 0x40 MSTORE DUP1 ISZERO PUSH2 0x291C JUMPI DUP2 PUSH1 0x20 ADD PUSH1 0x20 DUP3 MUL DUP1 CALLDATASIZE DUP4 CALLDATACOPY ADD SWAP1 POP JUMPDEST POP SWAP1 POP PUSH1 0x0 JUMPDEST DUP10 PUSH2 0xFFFF AND DUP2 LT ISZERO PUSH2 0x2987 JUMPI PUSH2 0x2938 DUP2 DUP5 PUSH2 0x5A25 JUMP JUMPDEST PUSH3 0xFFFFFF AND PUSH1 0x18 DUP13 PUSH7 0xFFFFFFFFFFFFFF AND SWAP1 SHL OR PUSH7 0xFFFFFFFFFFFFFF AND DUP3 DUP3 DUP2 MLOAD DUP2 LT PUSH2 0x2967 JUMPI PUSH2 0x2967 PUSH2 0x5A38 JUMP JUMPDEST PUSH1 0x1 PUSH1 0x1 PUSH1 0x50 SHL SUB SWAP1 SWAP3 AND PUSH1 0x20 SWAP3 DUP4 MUL SWAP2 SWAP1 SWAP2 ADD SWAP1 SWAP2 ADD MSTORE PUSH1 0x1 ADD PUSH2 0x2922 JUMP JUMPDEST POP PUSH1 0x40 MLOAD PUSH4 0x213C1987 PUSH1 0xE1 SHL DUP2 MSTORE PUSH1 0x1 PUSH1 0x1 PUSH1 0xA0 SHL SUB DUP13 AND SWAP1 PUSH4 0x4278330E SWAP1 PUSH2 0x29B6 SWAP1 DUP8 SWAP1 DUP6 SWAP1 PUSH1 0x4 ADD PUSH2 0x5A4E JUMP JUMPDEST PUSH1 0x0 PUSH1 0x40 MLOAD DUP1 DUP4 SUB DUP2 PUSH1 0x0 DUP8 GAS CALL ISZERO DUP1 ISZERO PUSH2 0x29D5 JUMPI RETURNDATASIZE PUSH1 0x0 DUP1 RETURNDATACOPY RETURNDATASIZE PUSH1 0x0 REVERT JUMPDEST POP POP POP POP PUSH1 0x40 MLOAD RETURNDATASIZE PUSH1 0x0 DUP3 RETURNDATACOPY PUSH1 0x1F RETURNDATASIZE SWAP1 DUP2 ADD PUSH1 0x1F NOT AND DUP3 ADD PUSH1 0x40 MSTORE PUSH2 0x29FD SWAP2 SWAP1 DUP2 ADD SWAP1 PUSH2 0x5AAD JUMP JUMPDEST POP POP PUSH2 0x2B34 JUMP JUMPDEST PUSH1 0x40 MLOAD PUSH4 0xE00AAB4B PUSH1 0xE0 SHL DUP2 MSTORE PUSH1 0x0 SWAP1 PUSH1 0x1 PUSH1 0x1 PUSH1 0xA0 SHL SUB DUP13 AND SWAP1 PUSH4 0xE00AAB4B SWAP1 PUSH2 0x2A35 SWAP1 DUP8 SWAP1 DUP14 SWAP1 PUSH1 0x4 ADD PUSH2 0x5B52 JUMP JUMPDEST PUSH1 0x0 PUSH1 0x40 MLOAD DUP1 DUP4 SUB DUP2 PUSH1 0x0 DUP8 GAS CALL ISZERO DUP1 ISZERO PUSH2 0x2A54 JUMPI RETURNDATASIZE PUSH1 0x0 DUP1 RETURNDATACOPY RETURNDATASIZE PUSH1 0x0 REVERT JUMPDEST POP POP POP POP PUSH1 0x40 MLOAD RETURNDATASIZE PUSH1 0x0 DUP3 RETURNDATACOPY PUSH1 0x1F RETURNDATASIZE SWAP1 DUP2 ADD PUSH1 0x1F NOT AND DUP3 ADD PUSH1 0x40 MSTORE PUSH2 0x2A7C SWAP2 SWAP1 DUP2 ADD SWAP1 PUSH2 0x5AAD JUMP JUMPDEST SWAP1 POP PUSH1 0x0 JUMPDEST DUP10 PUSH2 0xFFFF AND DUP2 LT ISZERO PUSH2 0x2B31 JUMPI PUSH1 0x40 MLOAD DUP1 PUSH1 0x40 ADD PUSH1 0x40 MSTORE DUP1 DUP13 PUSH1 0x1 PUSH1 0x1 PUSH1 0xE0 SHL SUB AND DUP2 MSTORE PUSH1 0x20 ADD DUP3 DUP6 PUSH2 0x2AB3 SWAP2 SWAP1 PUSH2 0x5A25 JUMP JUMPDEST PUSH4 0xFFFFFFFF AND SWAP1 MSTORE PUSH1 0x1 PUSH1 0x1 PUSH1 0xA0 SHL SUB DUP14 AND PUSH1 0x0 SWAP1 DUP2 MSTORE PUSH1 0xA PUSH1 0x20 MSTORE PUSH1 0x40 DUP2 KECCAK256 DUP5 MLOAD SWAP1 SWAP2 SWAP1 DUP6 SWAP1 DUP6 SWAP1 DUP2 LT PUSH2 0x2AEA JUMPI PUSH2 0x2AEA PUSH2 0x5A38 JUMP JUMPDEST PUSH1 0x20 SWAP1 DUP2 MUL SWAP2 SWAP1 SWAP2 ADD DUP2 ADD MLOAD DUP3 MSTORE DUP2 DUP2 ADD SWAP3 SWAP1 SWAP3 MSTORE PUSH1 0x40 ADD PUSH1 0x0 KECCAK256 DUP3 MLOAD SWAP3 SWAP1 SWAP2 ADD MLOAD PUSH4 0xFFFFFFFF AND PUSH1 0x1 PUSH1 0xE0 SHL MUL PUSH1 0x1 PUSH1 0x1 PUSH1 0xE0 SHL SUB SWAP1 SWAP3 AND SWAP2 SWAP1 SWAP2 OR SWAP1 SSTORE PUSH1 0x1 ADD PUSH2 0x2A81 JUMP JUMPDEST POP POP JUMPDEST DUP9 DUP11 PUSH1 0x1 PUSH1 0x1 PUSH1 0xA0 SHL SUB AND PUSH32 0xF0C2C4B26EE655FEC8EF1FEDDC5048D4EDDD9165D8B2A792B67D6685C97DE26D DUP11 CALLER DUP8 PUSH1 0x40 MLOAD PUSH2 0x9F0 SWAP4 SWAP3 SWAP2 SWAP1 PUSH2 0x5B6F JUMP JUMPDEST PUSH1 0x0 SLOAD PUSH1 0x1 PUSH1 0x1 PUSH1 0xA0 SHL SUB AND SWAP1 JUMP JUMPDEST PUSH1 0x40 MLOAD PUSH4 0x935E01B PUSH1 0xE2 SHL DUP2 MSTORE DUP7 SWAP1 DUP2 SWAP1 PUSH1 0x1 PUSH1 0x1 PUSH1 0xA0 SHL SUB DUP3 AND SWAP1 PUSH4 0x24D7806C SWAP1 PUSH2 0x2BB1 SWAP1 CALLER SWAP1 PUSH1 0x4 ADD PUSH2 0x5553 JUMP JUMPDEST PUSH1 0x20 PUSH1 0x40 MLOAD DUP1 DUP4 SUB DUP2 DUP7 GAS STATICCALL ISZERO DUP1 ISZERO PUSH2 0x2BCE JUMPI RETURNDATASIZE PUSH1 0x0 DUP1 RETURNDATACOPY RETURNDATASIZE PUSH1 0x0 REVERT JUMPDEST POP POP POP POP PUSH1 0x40 MLOAD RETURNDATASIZE PUSH1 0x1F NOT PUSH1 0x1F DUP3 ADD AND DUP3 ADD DUP1 PUSH1 0x40 MSTORE POP DUP2 ADD SWAP1 PUSH2 0x2BF2 SWAP2 SWAP1 PUSH2 0x5BCE JUMP JUMPDEST PUSH2 0x2C0E JUMPI PUSH1 0x40 MLOAD PUSH3 0x461BCD PUSH1 0xE5 SHL DUP2 MSTORE PUSH1 0x4 ADD PUSH2 0x5F7 SWAP1 PUSH2 0x5BEB JUMP JUMPDEST PUSH1 0x1 PUSH1 0x1 PUSH1 0xA0 SHL SUB DUP9 AND PUSH1 0x0 SWAP1 DUP2 MSTORE PUSH1 0x9 PUSH1 0x20 SWAP1 DUP2 MSTORE PUSH1 0x40 DUP1 DUP4 KECCAK256 DUP11 DUP5 MSTORE SWAP1 SWAP2 MSTORE DUP2 KECCAK256 DUP1 SLOAD SWAP1 SWAP2 SWAP1 PUSH1 0x1 PUSH1 0xC0 SHL SWAP1 DIV PUSH1 0xFF AND PUSH1 0x3 DUP2 GT ISZERO PUSH2 0x2C51 JUMPI PUSH2 0x2C51 PUSH2 0x5064 JUMP JUMPDEST SUB PUSH2 0x2C6E JUMPI PUSH1 0x40 MLOAD PUSH3 0x461BCD PUSH1 0xE5 SHL DUP2 MSTORE PUSH1 0x4 ADD PUSH2 0x5F7 SWAP1 PUSH2 0x5C36 JUMP JUMPDEST PUSH1 0x0 DUP8 PUSH1 0x3 DUP2 GT ISZERO PUSH2 0x2C82 JUMPI PUSH2 0x2C82 PUSH2 0x5064 JUMP JUMPDEST SUB PUSH2 0x2C9F JUMPI PUSH1 0x40 MLOAD PUSH3 0x461BCD PUSH1 0xE5 SHL DUP2 MSTORE PUSH1 0x4 ADD PUSH2 0x5F7 SWAP1 PUSH2 0x5C65 JUMP JUMPDEST DUP1 SLOAD DUP8 SWAP1 DUP3 SWAP1 PUSH1 0xFF PUSH1 0xC0 SHL NOT AND PUSH1 0x1 PUSH1 0xC0 SHL DUP4 PUSH1 0x3 DUP2 GT ISZERO PUSH2 0x2CC3 JUMPI PUSH2 0x2CC3 PUSH2 0x5064 JUMP JUMPDEST MUL OR SWAP1 SSTORE POP PUSH1 0x2 DUP2 ADD PUSH2 0x2CD7 DUP6 DUP8 DUP4 PUSH2 0x5F9B JUMP JUMPDEST POP DUP1 SLOAD PUSH1 0xFF PUSH1 0xD0 SHL NOT AND PUSH1 0x1 PUSH1 0xD0 SHL DUP8 ISZERO ISZERO MUL OR DUP2 SSTORE PUSH1 0x40 MLOAD DUP9 SWAP1 PUSH1 0x1 PUSH1 0x1 PUSH1 0xA0 SHL SUB DUP12 AND SWAP1 PUSH1 0x0 DUP1 MLOAD PUSH1 0x20 PUSH2 0x62AC DUP4 CODECOPY DUP2 MLOAD SWAP2 MSTORE SWAP1 PUSH1 0x0 SWAP1 LOG3 POP POP POP POP POP POP POP POP POP JUMP JUMPDEST PUSH1 0x40 MLOAD PUSH4 0x935E01B PUSH1 0xE2 SHL DUP2 MSTORE DUP5 SWAP1 DUP2 SWAP1 PUSH1 0x1 PUSH1 0x1 PUSH1 0xA0 SHL SUB DUP3 AND SWAP1 PUSH4 0x24D7806C SWAP1 PUSH2 0x2D4C SWAP1 CALLER SWAP1 PUSH1 0x4 ADD PUSH2 0x5553 JUMP JUMPDEST PUSH1 0x20 PUSH1 0x40 MLOAD DUP1 DUP4 SUB DUP2 DUP7 GAS STATICCALL ISZERO DUP1 ISZERO PUSH2 0x2D69 JUMPI RETURNDATASIZE PUSH1 0x0 DUP1 RETURNDATACOPY RETURNDATASIZE PUSH1 0x0 REVERT JUMPDEST POP POP POP POP PUSH1 0x40 MLOAD RETURNDATASIZE PUSH1 0x1F NOT PUSH1 0x1F DUP3 ADD AND DUP3 ADD DUP1 PUSH1 0x40 MSTORE POP DUP2 ADD SWAP1 PUSH2 0x2D8D SWAP2 SWAP1 PUSH2 0x5BCE JUMP JUMPDEST PUSH2 0x2DA9 JUMPI PUSH1 0x40 MLOAD PUSH3 0x461BCD PUSH1 0xE5 SHL DUP2 MSTORE PUSH1 0x4 ADD PUSH2 0x5F7 SWAP1 PUSH2 0x5BEB JUMP JUMPDEST PUSH1 0x1 PUSH1 0x1 PUSH1 0xA0 SHL SUB DUP7 AND PUSH1 0x0 SWAP1 DUP2 MSTORE PUSH1 0x9 PUSH1 0x20 SWAP1 DUP2 MSTORE PUSH1 0x40 DUP1 DUP4 KECCAK256 DUP9 DUP5 MSTORE SWAP1 SWAP2 MSTORE SWAP1 KECCAK256 PUSH1 0x1 DUP2 SLOAD PUSH1 0x1 PUSH1 0xC0 SHL SWAP1 DIV PUSH1 0xFF AND PUSH1 0x3 DUP2 GT ISZERO PUSH2 0x2DEB JUMPI PUSH2 0x2DEB PUSH2 0x5064 JUMP JUMPDEST EQ DUP1 ISZERO PUSH2 0x2E00 JUMPI POP DUP1 SLOAD PUSH1 0x1 PUSH1 0xD0 SHL SWAP1 DIV PUSH1 0xFF AND JUMPDEST PUSH2 0x2E47 JUMPI PUSH1 0x40 MLOAD PUSH3 0x461BCD PUSH1 0xE5 SHL DUP2 MSTORE PUSH1 0x20 PUSH1 0x4 DUP3 ADD MSTORE PUSH1 0x18 PUSH1 0x24 DUP3 ADD MSTORE PUSH24 0x125B9D985B1A59081CDD1BDC9859D9481C1C9BDD1BD8DBDB PUSH1 0x42 SHL PUSH1 0x44 DUP3 ADD MSTORE PUSH1 0x64 ADD PUSH2 0x5F7 JUMP JUMPDEST DUP1 PUSH1 0x2 ADD DUP6 DUP6 PUSH1 0x40 MLOAD PUSH1 0x20 ADD PUSH2 0x2E5F SWAP4 SWAP3 SWAP2 SWAP1 PUSH2 0x6055 JUMP JUMPDEST PUSH1 0x40 MLOAD PUSH1 0x20 DUP2 DUP4 SUB SUB DUP2 MSTORE SWAP1 PUSH1 0x40 MSTORE DUP2 PUSH1 0x2 ADD SWAP1 DUP2 PUSH2 0x2E7E SWAP2 SWAP1 PUSH2 0x5D61 JUMP JUMPDEST POP PUSH1 0x40 MLOAD DUP7 SWAP1 PUSH1 0x1 PUSH1 0x1 PUSH1 0xA0 SHL SUB DUP10 AND SWAP1 PUSH1 0x0 DUP1 MLOAD PUSH1 0x20 PUSH2 0x62AC DUP4 CODECOPY DUP2 MLOAD SWAP2 MSTORE SWAP1 PUSH1 0x0 SWAP1 LOG3 POP POP POP POP POP POP POP JUMP JUMPDEST PUSH1 0x0 DUP1 PUSH2 0x2EB9 DUP6 DUP6 PUSH2 0xA04 JUMP JUMPDEST SWAP1 POP PUSH2 0x1775 DUP6 DUP6 DUP4 PUSH2 0x100 ADD MLOAD DUP7 PUSH2 0x4234 JUMP JUMPDEST PUSH1 0x1 PUSH1 0x1 PUSH1 0xA0 SHL SUB DUP3 AND PUSH1 0x0 SWAP1 DUP2 MSTORE PUSH1 0xA PUSH1 0x20 SWAP1 DUP2 MSTORE PUSH1 0x40 DUP1 DUP4 KECCAK256 DUP5 DUP5 MSTORE DUP3 MSTORE SWAP2 DUP3 SWAP1 KECCAK256 DUP3 MLOAD DUP1 DUP5 ADD SWAP1 SWAP4 MSTORE SLOAD PUSH1 0x1 PUSH1 0x1 PUSH1 0xE0 SHL SUB DUP2 AND DUP4 MSTORE PUSH1 0x1 PUSH1 0xE0 SHL SWAP1 DIV PUSH4 0xFFFFFFFF AND SWAP1 DUP3 ADD MSTORE PUSH1 0x60 SWAP1 PUSH2 0x2F21 PUSH2 0x4E75 JUMP JUMPDEST DUP2 MLOAD PUSH1 0x0 SWAP1 PUSH1 0x1 PUSH1 0x1 PUSH1 0xE0 SHL SUB AND ISZERO PUSH2 0x3102 JUMPI PUSH1 0x1 PUSH1 0x1 PUSH1 0xA0 SHL SUB DUP7 AND PUSH1 0x0 SWAP1 DUP2 MSTORE PUSH1 0x9 PUSH1 0x20 SWAP1 DUP2 MSTORE PUSH1 0x40 DUP1 DUP4 KECCAK256 DUP7 MLOAD PUSH1 0x1 PUSH1 0x1 PUSH1 0xE0 SHL SUB AND DUP5 MSTORE DUP3 MSTORE SWAP2 DUP3 SWAP1 KECCAK256 DUP3 MLOAD PUSH2 0x1C0 DUP2 ADD DUP5 MSTORE DUP2 SLOAD PUSH4 0xFFFFFFFF DUP1 DUP3 AND DUP4 MSTORE PUSH1 0x1 PUSH1 0x20 SHL DUP3 DIV DUP2 AND SWAP5 DUP4 ADD SWAP5 SWAP1 SWAP5 MSTORE PUSH1 0x1 PUSH1 0x40 SHL DUP2 DIV SWAP1 SWAP4 AND SWAP4 DUP2 ADD SWAP4 SWAP1 SWAP4 MSTORE PUSH6 0xFFFFFFFFFFFF PUSH1 0x1 PUSH1 0x60 SHL DUP4 DIV DUP2 AND PUSH1 0x60 DUP6 ADD MSTORE PUSH1 0x1 PUSH1 0x90 SHL DUP4 DIV AND PUSH1 0x80 DUP5 ADD MSTORE SWAP1 PUSH1 0xA0 DUP4 ADD SWAP1 PUSH1 0xFF PUSH1 0x1 PUSH1 0xC0 SHL SWAP1 SWAP2 DIV AND PUSH1 0x3 DUP2 GT ISZERO PUSH2 0x2FDC JUMPI PUSH2 0x2FDC PUSH2 0x5064 JUMP JUMPDEST PUSH1 0x3 DUP2 GT ISZERO PUSH2 0x2FED JUMPI PUSH2 0x2FED PUSH2 0x5064 JUMP JUMPDEST DUP2 MSTORE DUP2 SLOAD PUSH1 0xFF PUSH1 0x1 PUSH1 0xC8 SHL DUP3 DIV DUP2 AND PUSH1 0x20 DUP5 ADD MSTORE PUSH1 0x1 PUSH1 0xD0 SHL SWAP1 SWAP2 DIV AND ISZERO ISZERO PUSH1 0x40 DUP3 ADD MSTORE PUSH1 0x1 DUP3 ADD SLOAD PUSH1 0x60 DUP3 ADD MSTORE PUSH1 0x2 DUP3 ADD DUP1 SLOAD PUSH1 0x80 SWAP1 SWAP3 ADD SWAP2 PUSH2 0x3030 SWAP1 PUSH2 0x5B94 JUMP JUMPDEST DUP1 PUSH1 0x1F ADD PUSH1 0x20 DUP1 SWAP2 DIV MUL PUSH1 0x20 ADD PUSH1 0x40 MLOAD SWAP1 DUP2 ADD PUSH1 0x40 MSTORE DUP1 SWAP3 SWAP2 SWAP1 DUP2 DUP2 MSTORE PUSH1 0x20 ADD DUP3 DUP1 SLOAD PUSH2 0x305C SWAP1 PUSH2 0x5B94 JUMP JUMPDEST DUP1 ISZERO PUSH2 0x30A9 JUMPI DUP1 PUSH1 0x1F LT PUSH2 0x307E JUMPI PUSH2 0x100 DUP1 DUP4 SLOAD DIV MUL DUP4 MSTORE SWAP2 PUSH1 0x20 ADD SWAP2 PUSH2 0x30A9 JUMP JUMPDEST DUP3 ADD SWAP2 SWAP1 PUSH1 0x0 MSTORE PUSH1 0x20 PUSH1 0x0 KECCAK256 SWAP1 JUMPDEST DUP2 SLOAD DUP2 MSTORE SWAP1 PUSH1 0x1 ADD SWAP1 PUSH1 0x20 ADD DUP1 DUP4 GT PUSH2 0x308C JUMPI DUP3 SWAP1 SUB PUSH1 0x1F AND DUP3 ADD SWAP2 JUMPDEST POP POP POP SWAP2 DUP4 MSTORE POP POP PUSH1 0x3 DUP3 ADD SLOAD PUSH1 0x20 DUP1 DUP4 ADD SWAP2 SWAP1 SWAP2 MSTORE PUSH1 0x4 DUP4 ADD SLOAD PUSH1 0x1 PUSH1 0x1 PUSH1 0xA0 SHL SUB SWAP1 DUP2 AND PUSH1 0x40 DUP5 ADD MSTORE PUSH1 0x5 DUP5 ADD SLOAD DUP2 AND PUSH1 0x60 DUP5 ADD MSTORE PUSH1 0x6 SWAP1 SWAP4 ADD SLOAD SWAP1 SWAP3 AND PUSH1 0x80 SWAP1 SWAP2 ADD MSTORE DUP5 ADD MLOAD SWAP1 SWAP3 POP PUSH4 0xFFFFFFFF AND SWAP1 POP PUSH2 0x3387 JUMP JUMPDEST PUSH1 0x40 MLOAD PUSH4 0xB4B5B48F PUSH1 0xE0 SHL DUP2 MSTORE PUSH1 0x4 DUP2 ADD DUP7 SWAP1 MSTORE PUSH1 0x0 SWAP1 PUSH1 0x1 PUSH1 0x1 PUSH1 0xA0 SHL SUB DUP9 AND SWAP1 PUSH4 0xB4B5B48F SWAP1 PUSH1 0x24 ADD PUSH1 0x20 PUSH1 0x40 MLOAD DUP1 DUP4 SUB DUP2 DUP7 GAS STATICCALL ISZERO DUP1 ISZERO PUSH2 0x314A JUMPI RETURNDATASIZE PUSH1 0x0 DUP1 RETURNDATACOPY RETURNDATASIZE PUSH1 0x0 REVERT JUMPDEST POP POP POP POP PUSH1 0x40 MLOAD RETURNDATASIZE PUSH1 0x1F NOT PUSH1 0x1F DUP3 ADD AND DUP3 ADD DUP1 PUSH1 0x40 MSTORE POP DUP2 ADD SWAP1 PUSH2 0x316E SWAP2 SWAP1 PUSH2 0x5F72 JUMP JUMPDEST SWAP1 POP PUSH7 0xFFFFFFFFFFFFFF PUSH1 0x18 DUP3 SWAP1 SHR AND PUSH1 0x0 DUP2 SWAP1 SUB PUSH2 0x31C6 JUMPI PUSH1 0x40 MLOAD PUSH3 0x461BCD PUSH1 0xE5 SHL DUP2 MSTORE PUSH1 0x20 PUSH1 0x4 DUP3 ADD MSTORE PUSH1 0x14 PUSH1 0x24 DUP3 ADD MSTORE PUSH20 0x151BDAD95B88191BD95CC81B9BDD08195E1A5CDD PUSH1 0x62 SHL PUSH1 0x44 DUP3 ADD MSTORE PUSH1 0x64 ADD PUSH2 0x5F7 JUMP JUMPDEST PUSH1 0x1 PUSH1 0x1 PUSH1 0xA0 SHL SUB DUP9 AND PUSH1 0x0 SWAP1 DUP2 MSTORE PUSH1 0x9 PUSH1 0x20 SWAP1 DUP2 MSTORE PUSH1 0x40 DUP1 DUP4 KECCAK256 PUSH7 0xFFFFFFFFFFFFFF DUP6 AND DUP5 MSTORE DUP3 MSTORE SWAP2 DUP3 SWAP1 KECCAK256 DUP3 MLOAD PUSH2 0x1C0 DUP2 ADD DUP5 MSTORE DUP2 SLOAD PUSH4 0xFFFFFFFF DUP1 DUP3 AND DUP4 MSTORE PUSH1 0x1 PUSH1 0x20 SHL DUP3 DIV DUP2 AND SWAP5 DUP4 ADD SWAP5 SWAP1 SWAP5 MSTORE PUSH1 0x1 PUSH1 0x40 SHL DUP2 DIV SWAP1 SWAP4 AND SWAP4 DUP2 ADD SWAP4 SWAP1 SWAP4 MSTORE PUSH6 0xFFFFFFFFFFFF PUSH1 0x1 PUSH1 0x60 SHL DUP4 DIV DUP2 AND PUSH1 0x60 DUP6 ADD MSTORE PUSH1 0x1 PUSH1 0x90 SHL DUP4 DIV AND PUSH1 0x80 DUP5 ADD MSTORE SWAP1 PUSH1 0xA0 DUP4 ADD SWAP1 PUSH1 0xFF PUSH1 0x1 PUSH1 0xC0 SHL SWAP1 SWAP2 DIV AND PUSH1 0x3 DUP2 GT ISZERO PUSH2 0x326D JUMPI PUSH2 0x326D PUSH2 0x5064 JUMP JUMPDEST PUSH1 0x3 DUP2 GT ISZERO PUSH2 0x327E JUMPI PUSH2 0x327E PUSH2 0x5064 JUMP JUMPDEST DUP2 MSTORE DUP2 SLOAD PUSH1 0xFF PUSH1 0x1 PUSH1 0xC8 SHL DUP3 DIV DUP2 AND PUSH1 0x20 DUP5 ADD MSTORE PUSH1 0x1 PUSH1 0xD0 SHL SWAP1 SWAP2 DIV AND ISZERO ISZERO PUSH1 0x40 DUP3 ADD MSTORE PUSH1 0x1 DUP3 ADD SLOAD PUSH1 0x60 DUP3 ADD MSTORE PUSH1 0x2 DUP3 ADD DUP1 SLOAD PUSH1 0x80 SWAP1 SWAP3 ADD SWAP2 PUSH2 0x32C1 SWAP1 PUSH2 0x5B94 JUMP JUMPDEST DUP1 PUSH1 0x1F ADD PUSH1 0x20 DUP1 SWAP2 DIV MUL PUSH1 0x20 ADD PUSH1 0x40 MLOAD SWAP1 DUP2 ADD PUSH1 0x40 MSTORE DUP1 SWAP3 SWAP2 SWAP1 DUP2 DUP2 MSTORE PUSH1 0x20 ADD DUP3 DUP1 SLOAD PUSH2 0x32ED SWAP1 PUSH2 0x5B94 JUMP JUMPDEST DUP1 ISZERO PUSH2 0x333A JUMPI DUP1 PUSH1 0x1F LT PUSH2 0x330F JUMPI PUSH2 0x100 DUP1 DUP4 SLOAD DIV MUL DUP4 MSTORE SWAP2 PUSH1 0x20 ADD SWAP2 PUSH2 0x333A JUMP JUMPDEST DUP3 ADD SWAP2 SWAP1 PUSH1 0x0 MSTORE PUSH1 0x20 PUSH1 0x0 KECCAK256 SWAP1 JUMPDEST DUP2 SLOAD DUP2 MSTORE SWAP1 PUSH1 0x1 ADD SWAP1 PUSH1 0x20 ADD DUP1 DUP4 GT PUSH2 0x331D JUMPI DUP3 SWAP1 SUB PUSH1 0x1F AND DUP3 ADD SWAP2 JUMPDEST POP POP POP SWAP2 DUP4 MSTORE POP POP PUSH1 0x3 DUP3 ADD SLOAD PUSH1 0x20 DUP3 ADD MSTORE PUSH1 0x4 DUP3 ADD SLOAD PUSH1 0x1 PUSH1 0x1 PUSH1 0xA0 SHL SUB SWAP1 DUP2 AND PUSH1 0x40 DUP4 ADD MSTORE PUSH1 0x5 DUP4 ADD SLOAD DUP2 AND PUSH1 0x60 DUP4 ADD MSTORE PUSH1 0x6 SWAP1 SWAP3 ADD SLOAD SWAP1 SWAP2 AND PUSH1 0x80 SWAP1 SWAP2 ADD MSTORE SWAP4 POP POP PUSH3 0xFFFFFF AND SWAP1 POP JUMPDEST PUSH1 0x40 DUP1 MLOAD PUSH1 0x20 DUP2 ADD SWAP1 SWAP2 MSTORE PUSH1 0x0 DUP2 MSTORE PUSH1 0x2 DUP4 PUSH1 0xA0 ADD MLOAD PUSH1 0x3 DUP2 GT ISZERO PUSH2 0x33AE JUMPI PUSH2 0x33AE PUSH2 0x5064 JUMP JUMPDEST SUB PUSH2 0x33E4 JUMPI POP PUSH1 0x40 DUP1 MLOAD DUP1 DUP3 ADD SWAP1 SWAP2 MSTORE PUSH1 0x14 DUP2 MSTORE PUSH20 0x68747470733A2F2F617277656176652E6E65742F PUSH1 0x60 SHL PUSH1 0x20 DUP3 ADD MSTORE PUSH2 0x3421 JUMP JUMPDEST PUSH1 0x3 DUP4 PUSH1 0xA0 ADD MLOAD PUSH1 0x3 DUP2 GT ISZERO PUSH2 0x33FC JUMPI PUSH2 0x33FC PUSH2 0x5064 JUMP JUMPDEST SUB PUSH2 0x3421 JUMPI POP PUSH1 0x40 DUP1 MLOAD DUP1 DUP3 ADD SWAP1 SWAP2 MSTORE PUSH1 0x7 DUP2 MSTORE PUSH7 0x697066733A2F2F PUSH1 0xC8 SHL PUSH1 0x20 DUP3 ADD MSTORE JUMPDEST PUSH2 0x120 DUP4 ADD MLOAD PUSH1 0x40 MLOAD PUSH2 0x3438 SWAP2 DUP4 SWAP2 PUSH1 0x20 ADD PUSH2 0x60D7 JUMP JUMPDEST PUSH1 0x40 MLOAD PUSH1 0x20 DUP2 DUP4 SUB SUB DUP2 MSTORE SWAP1 PUSH1 0x40 MSTORE SWAP5 POP DUP3 PUSH1 0xE0 ADD MLOAD PUSH2 0x347F JUMPI DUP5 PUSH2 0x345C DUP4 PUSH2 0x42CD JUMP JUMPDEST PUSH1 0x40 MLOAD PUSH1 0x20 ADD PUSH2 0x346D SWAP3 SWAP2 SWAP1 PUSH2 0x6106 JUMP JUMPDEST PUSH1 0x40 MLOAD PUSH1 0x20 DUP2 DUP4 SUB SUB DUP2 MSTORE SWAP1 PUSH1 0x40 MSTORE SWAP5 POP JUMPDEST POP POP POP POP SWAP3 SWAP2 POP POP JUMP JUMPDEST PUSH2 0x3491 PUSH2 0x3FCF JUMP JUMPDEST PUSH1 0x1 PUSH1 0x1 PUSH1 0xA0 SHL SUB DUP2 AND PUSH2 0x34F6 JUMPI PUSH1 0x40 MLOAD PUSH3 0x461BCD PUSH1 0xE5 SHL DUP2 MSTORE PUSH1 0x20 PUSH1 0x4 DUP3 ADD MSTORE PUSH1 0x26 PUSH1 0x24 DUP3 ADD MSTORE PUSH32 0x4F776E61626C653A206E6577206F776E657220697320746865207A65726F2061 PUSH1 0x44 DUP3 ADD MSTORE PUSH6 0x646472657373 PUSH1 0xD0 SHL PUSH1 0x64 DUP3 ADD MSTORE PUSH1 0x84 ADD PUSH2 0x5F7 JUMP JUMPDEST PUSH2 0x105D DUP2 PUSH2 0x411C JUMP JUMPDEST CALLER PUSH2 0x3508 PUSH2 0x2B72 JUMP JUMPDEST PUSH1 0x1 PUSH1 0x1 PUSH1 0xA0 SHL SUB AND EQ DUP1 PUSH2 0x3523 JUMPI POP PUSH2 0x3523 PUSH1 0x1 CALLER PUSH2 0x3ED7 JUMP JUMPDEST PUSH2 0x353F JUMPI PUSH1 0x40 MLOAD PUSH3 0x461BCD PUSH1 0xE5 SHL DUP2 MSTORE PUSH1 0x4 ADD PUSH2 0x5F7 SWAP1 PUSH2 0x5F2E JUMP JUMPDEST PUSH1 0x0 DUP3 PUSH1 0x1 PUSH1 0x1 PUSH1 0xA0 SHL SUB AND DUP3 PUSH1 0x40 MLOAD PUSH1 0x0 PUSH1 0x40 MLOAD DUP1 DUP4 SUB DUP2 DUP6 DUP8 GAS CALL SWAP3 POP POP POP RETURNDATASIZE DUP1 PUSH1 0x0 DUP2 EQ PUSH2 0x358C JUMPI PUSH1 0x40 MLOAD SWAP2 POP PUSH1 0x1F NOT PUSH1 0x3F RETURNDATASIZE ADD AND DUP3 ADD PUSH1 0x40 MSTORE RETURNDATASIZE DUP3 MSTORE RETURNDATASIZE PUSH1 0x0 PUSH1 0x20 DUP5 ADD RETURNDATACOPY PUSH2 0x3591 JUMP JUMPDEST PUSH1 0x60 SWAP2 POP JUMPDEST POP POP SWAP1 POP DUP1 PUSH2 0x35B2 JUMPI PUSH1 0x40 MLOAD PUSH3 0x461BCD PUSH1 0xE5 SHL DUP2 MSTORE PUSH1 0x4 ADD PUSH2 0x5F7 SWAP1 PUSH2 0x6142 JUMP JUMPDEST POP POP POP JUMP JUMPDEST PUSH1 0x60 PUSH1 0x0 PUSH2 0x35C5 DUP7 DUP7 PUSH2 0xA04 JUMP JUMPDEST SWAP1 POP DUP3 DUP1 PUSH1 0x1 PUSH1 0x1 PUSH1 0x40 SHL SUB DUP2 GT ISZERO PUSH2 0x35E0 JUMPI PUSH2 0x35E0 PUSH2 0x5253 JUMP JUMPDEST PUSH1 0x40 MLOAD SWAP1 DUP1 DUP3 MSTORE DUP1 PUSH1 0x20 MUL PUSH1 0x20 ADD DUP3 ADD PUSH1 0x40 MSTORE DUP1 ISZERO PUSH2 0x3609 JUMPI DUP2 PUSH1 0x20 ADD PUSH1 0x20 DUP3 MUL DUP1 CALLDATASIZE DUP4 CALLDATACOPY ADD SWAP1 POP JUMPDEST POP SWAP3 POP PUSH1 0x0 JUMPDEST DUP2 DUP2 LT ISZERO PUSH2 0x3678 JUMPI PUSH2 0x364E DUP9 DUP9 DUP6 PUSH2 0x100 ADD MLOAD DUP10 DUP10 DUP7 DUP2 DUP2 LT PUSH2 0x3634 JUMPI PUSH2 0x3634 PUSH2 0x5A38 JUMP JUMPDEST SWAP1 POP PUSH1 0x20 MUL ADD PUSH1 0x20 DUP2 ADD SWAP1 PUSH2 0x3649 SWAP2 SWAP1 PUSH2 0x5E69 JUMP JUMPDEST PUSH2 0x4234 JUMP JUMPDEST DUP5 DUP3 DUP2 MLOAD DUP2 LT PUSH2 0x3660 JUMPI PUSH2 0x3660 PUSH2 0x5A38 JUMP JUMPDEST SWAP2 ISZERO ISZERO PUSH1 0x20 SWAP3 DUP4 MUL SWAP2 SWAP1 SWAP2 ADD SWAP1 SWAP2 ADD MSTORE PUSH1 0x1 ADD PUSH2 0x360F JUMP JUMPDEST POP POP POP SWAP5 SWAP4 POP POP POP POP JUMP JUMPDEST PUSH1 0x0 PUSH2 0x368F DUP8 DUP8 PUSH2 0x39A8 JUMP JUMPDEST PUSH1 0x6 DUP2 ADD SLOAD SWAP1 SWAP2 POP PUSH1 0x1 PUSH1 0x1 PUSH1 0xA0 SHL SUB AND ISZERO PUSH2 0x36BD JUMPI PUSH1 0x40 MLOAD PUSH3 0x461BCD PUSH1 0xE5 SHL DUP2 MSTORE PUSH1 0x4 ADD PUSH2 0x5F7 SWAP1 PUSH2 0x5960 JUMP JUMPDEST DUP1 SLOAD PUSH4 0xFFFFFFFF PUSH1 0x1 PUSH1 0x20 SHL DUP3 DIV DUP2 AND SWAP2 DUP4 SWAP2 PUSH1 0x0 SWAP2 PUSH2 0x36DD SWAP2 AND PUSH2 0x6179 JUMP JUMPDEST SWAP2 SWAP1 PUSH2 0x100 EXP DUP2 SLOAD DUP2 PUSH4 0xFFFFFFFF MUL NOT AND SWAP1 DUP4 PUSH4 0xFFFFFFFF AND MUL OR SWAP1 SSTORE PUSH4 0xFFFFFFFF AND GT ISZERO DUP1 PUSH2 0x3719 JUMPI POP DUP1 SLOAD PUSH1 0x1 PUSH1 0x20 SHL SWAP1 DIV PUSH4 0xFFFFFFFF AND ISZERO JUMPDEST DUP1 ISZERO PUSH2 0x3731 JUMPI POP DUP1 SLOAD PUSH3 0xFFFFFF PUSH4 0xFFFFFFFF SWAP1 SWAP2 AND GT ISZERO JUMPDEST PUSH2 0x3780 JUMPI PUSH1 0x40 MLOAD PUSH3 0x461BCD PUSH1 0xE5 SHL DUP2 MSTORE PUSH1 0x20 PUSH1 0x4 DUP3 ADD MSTORE PUSH1 0x2C PUSH1 0x24 DUP3 ADD MSTORE PUSH1 0x0 DUP1 MLOAD PUSH1 0x20 PUSH2 0x628C DUP4 CODECOPY DUP2 MLOAD SWAP2 MSTORE PUSH1 0x44 DUP3 ADD MSTORE PUSH12 0x72207468697320636C61696D PUSH1 0xA0 SHL PUSH1 0x64 DUP3 ADD MSTORE PUSH1 0x84 ADD PUSH2 0x5F7 JUMP JUMPDEST DUP1 SLOAD PUSH1 0x1 DUP3 ADD SLOAD PUSH2 0x37C3 SWAP2 DUP10 SWAP2 DUP10 SWAP2 PUSH6 0xFFFFFFFFFFFF PUSH1 0x1 PUSH1 0x60 SHL DUP3 DIV DUP2 AND SWAP3 PUSH1 0x1 PUSH1 0x90 SHL DUP4 DIV SWAP1 SWAP2 AND SWAP2 PUSH4 0xFFFFFFFF PUSH1 0x1 PUSH1 0x40 SHL SWAP1 SWAP2 DIV AND SWAP1 DUP12 DUP12 DUP12 DUP12 PUSH2 0x435F JUMP JUMPDEST PUSH1 0x5 DUP2 ADD SLOAD PUSH1 0x3 DUP3 ADD SLOAD PUSH1 0x4 DUP4 ADD SLOAD PUSH1 0x1 DUP1 DUP6 ADD SLOAD PUSH2 0x37F4 SWAP5 PUSH1 0x1 PUSH1 0x1 PUSH1 0xA0 SHL SUB SWAP1 DUP2 AND SWAP5 SWAP4 AND SWAP2 SWAP1 ISZERO ISZERO DUP2 PUSH2 0x3C22 JUMP JUMPDEST DUP1 SLOAD PUSH1 0x3 PUSH1 0x1 PUSH1 0xC8 SHL SWAP1 SWAP2 DIV PUSH1 0xFF AND LT PUSH2 0x3899 JUMPI DUP1 SLOAD PUSH1 0x40 MLOAD PUSH4 0xD3973719 PUSH1 0xE0 SHL DUP2 MSTORE CALLER PUSH1 0x4 DUP3 ADD MSTORE PUSH3 0xFFFFFF SWAP1 SWAP2 AND PUSH1 0x18 DUP9 SWAP1 SHL PUSH7 0xFFFFFFFF000000 AND OR PUSH1 0x24 DUP3 ADD DUP2 SWAP1 MSTORE SWAP1 PUSH1 0x1 PUSH1 0x1 PUSH1 0xA0 SHL SUB DUP10 AND SWAP1 PUSH4 0xD3973719 SWAP1 PUSH1 0x44 ADD PUSH1 0x20 PUSH1 0x40 MLOAD DUP1 DUP4 SUB DUP2 PUSH1 0x0 DUP8 GAS CALL ISZERO DUP1 ISZERO PUSH2 0x386E JUMPI RETURNDATASIZE PUSH1 0x0 DUP1 RETURNDATACOPY RETURNDATASIZE PUSH1 0x0 REVERT JUMPDEST POP POP POP POP PUSH1 0x40 MLOAD RETURNDATASIZE PUSH1 0x1F NOT PUSH1 0x1F DUP3 ADD AND DUP3 ADD DUP1 PUSH1 0x40 MSTORE POP DUP2 ADD SWAP1 PUSH2 0x3892 SWAP2 SWAP1 PUSH2 0x5E84 JUMP JUMPDEST POP POP PUSH2 0x3969 JUMP JUMPDEST PUSH1 0x40 MLOAD PUSH4 0x525194B PUSH1 0xE3 SHL DUP2 MSTORE PUSH1 0x0 SWAP1 PUSH1 0x1 PUSH1 0x1 PUSH1 0xA0 SHL SUB DUP10 AND SWAP1 PUSH4 0x2928CA58 SWAP1 PUSH2 0x38C8 SWAP1 CALLER SWAP1 PUSH1 0x4 ADD PUSH2 0x5553 JUMP JUMPDEST PUSH1 0x20 PUSH1 0x40 MLOAD DUP1 DUP4 SUB DUP2 PUSH1 0x0 DUP8 GAS CALL ISZERO DUP1 ISZERO PUSH2 0x38E7 JUMPI RETURNDATASIZE PUSH1 0x0 DUP1 RETURNDATACOPY RETURNDATASIZE PUSH1 0x0 REVERT JUMPDEST POP POP POP POP PUSH1 0x40 MLOAD RETURNDATASIZE PUSH1 0x1F NOT PUSH1 0x1F DUP3 ADD AND DUP3 ADD DUP1 PUSH1 0x40 MSTORE POP DUP2 ADD SWAP1 PUSH2 0x390B SWAP2 SWAP1 PUSH2 0x5E84 JUMP JUMPDEST PUSH1 0x40 DUP1 MLOAD DUP1 DUP3 ADD DUP3 MSTORE PUSH1 0x1 PUSH1 0x1 PUSH1 0xE0 SHL SUB DUP1 DUP12 AND DUP3 MSTORE DUP6 SLOAD PUSH4 0xFFFFFFFF SWAP1 DUP2 AND PUSH1 0x20 DUP1 DUP6 ADD SWAP2 DUP3 MSTORE PUSH1 0x1 PUSH1 0x1 PUSH1 0xA0 SHL SUB DUP16 AND PUSH1 0x0 SWAP1 DUP2 MSTORE PUSH1 0xA DUP3 MSTORE DUP7 DUP2 KECCAK256 SWAP8 DUP2 MSTORE SWAP7 SWAP1 MSTORE SWAP4 SWAP1 SWAP5 KECCAK256 SWAP2 MLOAD SWAP3 MLOAD SWAP1 SWAP4 AND PUSH1 0x1 PUSH1 0xE0 SHL MUL SWAP2 SWAP1 SWAP3 AND OR SWAP1 SSTORE POP JUMPDEST PUSH1 0x40 MLOAD DUP7 SWAP1 PUSH1 0x1 PUSH1 0x1 PUSH1 0xA0 SHL SUB DUP10 AND SWAP1 PUSH32 0x5D404F369772CFAB2B65717FCA9BC2077EFEAB89A0DBEC036BF0C13783154EB1 SWAP1 PUSH1 0x0 SWAP1 LOG3 POP POP POP POP POP POP POP JUMP JUMPDEST PUSH1 0x1 PUSH1 0x1 PUSH1 0xA0 SHL SUB DUP3 AND PUSH1 0x0 SWAP1 DUP2 MSTORE PUSH1 0x9 PUSH1 0x20 SWAP1 DUP2 MSTORE PUSH1 0x40 DUP1 DUP4 KECCAK256 DUP5 DUP5 MSTORE SWAP1 SWAP2 MSTORE DUP2 KECCAK256 SWAP1 DUP2 SLOAD PUSH1 0x1 PUSH1 0xC0 SHL SWAP1 DIV PUSH1 0xFF AND PUSH1 0x3 DUP2 GT ISZERO PUSH2 0x39E9 JUMPI PUSH2 0x39E9 PUSH2 0x5064 JUMP JUMPDEST SUB PUSH2 0x5B7 JUMPI PUSH1 0x40 MLOAD PUSH3 0x461BCD PUSH1 0xE5 SHL DUP2 MSTORE PUSH1 0x4 ADD PUSH2 0x5F7 SWAP1 PUSH2 0x5C36 JUMP JUMPDEST TIMESTAMP DUP11 PUSH6 0xFFFFFFFFFFFF AND GT ISZERO DUP1 ISZERO PUSH2 0x3A36 JUMPI POP PUSH6 0xFFFFFFFFFFFF DUP10 AND ISZERO DUP1 PUSH2 0x3A36 JUMPI POP TIMESTAMP DUP10 PUSH6 0xFFFFFFFFFFFF AND LT ISZERO JUMPDEST PUSH2 0x3A52 JUMPI PUSH1 0x40 MLOAD PUSH3 0x461BCD PUSH1 0xE5 SHL DUP2 MSTORE PUSH1 0x4 ADD PUSH2 0x5F7 SWAP1 PUSH2 0x619C JUMP JUMPDEST DUP7 ISZERO PUSH2 0x3B32 JUMPI PUSH2 0xFFFF DUP7 AND DUP5 EQ DUP1 ISZERO PUSH2 0x3A6E JUMPI POP PUSH2 0xFFFF DUP7 AND DUP3 EQ JUMPDEST PUSH2 0x3A8A JUMPI PUSH1 0x40 MLOAD PUSH3 0x461BCD PUSH1 0xE5 SHL DUP2 MSTORE PUSH1 0x4 ADD PUSH2 0x5F7 SWAP1 PUSH2 0x61C4 JUMP JUMPDEST PUSH1 0x0 JUMPDEST DUP7 PUSH2 0xFFFF AND DUP2 LT ISZERO PUSH2 0x3B2C JUMPI PUSH2 0x3B24 DUP3 DUP15 DUP15 DUP12 DUP11 DUP11 DUP8 DUP2 DUP2 LT PUSH2 0x3AB2 JUMPI PUSH2 0x3AB2 PUSH2 0x5A38 JUMP JUMPDEST SWAP1 POP PUSH1 0x20 MUL ADD PUSH1 0x20 DUP2 ADD SWAP1 PUSH2 0x3AC7 SWAP2 SWAP1 PUSH2 0x5E69 JUMP JUMPDEST DUP10 DUP10 DUP9 DUP2 DUP2 LT PUSH2 0x3AD9 JUMPI PUSH2 0x3AD9 PUSH2 0x5A38 JUMP JUMPDEST SWAP1 POP PUSH1 0x20 MUL DUP2 ADD SWAP1 PUSH2 0x3AEB SWAP2 SWAP1 PUSH2 0x61EB JUMP JUMPDEST DUP1 DUP1 PUSH1 0x20 MUL PUSH1 0x20 ADD PUSH1 0x40 MLOAD SWAP1 DUP2 ADD PUSH1 0x40 MSTORE DUP1 SWAP4 SWAP3 SWAP2 SWAP1 DUP2 DUP2 MSTORE PUSH1 0x20 ADD DUP4 DUP4 PUSH1 0x20 MUL DUP1 DUP3 DUP5 CALLDATACOPY PUSH1 0x0 SWAP3 ADD SWAP2 SWAP1 SWAP2 MSTORE POP DUP12 SWAP3 POP PUSH2 0x44C3 SWAP2 POP POP JUMP JUMPDEST PUSH1 0x1 ADD PUSH2 0x3A8D JUMP JUMPDEST POP PUSH2 0x3C14 JUMP JUMPDEST PUSH4 0xFFFFFFFF DUP9 AND ISZERO PUSH2 0x3C14 JUMPI PUSH1 0x1 PUSH1 0x1 PUSH1 0xA0 SHL SUB DUP1 DUP14 AND PUSH1 0x0 SWAP1 DUP2 MSTORE PUSH1 0x4 PUSH1 0x20 SWAP1 DUP2 MSTORE PUSH1 0x40 DUP1 DUP4 KECCAK256 DUP16 DUP5 MSTORE DUP3 MSTORE DUP1 DUP4 KECCAK256 SWAP4 DUP6 AND DUP4 MSTORE SWAP3 SWAP1 MSTORE SWAP1 DUP2 KECCAK256 DUP1 SLOAD PUSH2 0xFFFF DUP10 AND SWAP3 SWAP1 PUSH2 0x3B81 SWAP1 DUP5 SWAP1 PUSH2 0x5A25 JUMP JUMPDEST SWAP1 SWAP2 SSTORE POP POP PUSH1 0x1 PUSH1 0x1 PUSH1 0xA0 SHL SUB DUP1 DUP14 AND PUSH1 0x0 SWAP1 DUP2 MSTORE PUSH1 0x4 PUSH1 0x20 SWAP1 DUP2 MSTORE PUSH1 0x40 DUP1 DUP4 KECCAK256 DUP16 DUP5 MSTORE DUP3 MSTORE DUP1 DUP4 KECCAK256 SWAP4 DUP6 AND DUP4 MSTORE SWAP3 SWAP1 MSTORE KECCAK256 SLOAD PUSH4 0xFFFFFFFF DUP10 AND LT ISZERO PUSH2 0x3C14 JUMPI PUSH1 0x40 MLOAD PUSH3 0x461BCD PUSH1 0xE5 SHL DUP2 MSTORE PUSH1 0x20 PUSH1 0x4 DUP3 ADD MSTORE PUSH1 0x22 PUSH1 0x24 DUP3 ADD MSTORE PUSH32 0x546F6F206D616E792072657175657374656420666F7220746869732077616C6C PUSH1 0x44 DUP3 ADD MSTORE PUSH2 0x195D PUSH1 0xF2 SHL PUSH1 0x64 DUP3 ADD MSTORE PUSH1 0x84 ADD PUSH2 0x5F7 JUMP JUMPDEST POP POP POP POP POP POP POP POP POP POP POP POP JUMP JUMPDEST PUSH1 0x0 PUSH1 0x1 PUSH1 0x1 PUSH1 0xA0 SHL SUB DUP8 AND ISZERO PUSH2 0x3D10 JUMPI PUSH1 0x1 PUSH1 0x1 PUSH1 0xA0 SHL SUB DUP8 AND PUSH4 0x23B872DD CALLER DUP8 PUSH2 0x3C52 PUSH2 0xFFFF DUP10 AND DUP12 PUSH2 0x6234 JUMP JUMPDEST PUSH1 0x40 MLOAD PUSH1 0x1 PUSH1 0x1 PUSH1 0xE0 SHL SUB NOT PUSH1 0xE0 DUP7 SWAP1 SHL AND DUP2 MSTORE PUSH1 0x1 PUSH1 0x1 PUSH1 0xA0 SHL SUB SWAP4 DUP5 AND PUSH1 0x4 DUP3 ADD MSTORE SWAP3 SWAP1 SWAP2 AND PUSH1 0x24 DUP4 ADD MSTORE PUSH1 0x44 DUP3 ADD MSTORE PUSH1 0x64 ADD PUSH1 0x20 PUSH1 0x40 MLOAD DUP1 DUP4 SUB DUP2 PUSH1 0x0 DUP8 GAS CALL ISZERO DUP1 ISZERO PUSH2 0x3CA6 JUMPI RETURNDATASIZE PUSH1 0x0 DUP1 RETURNDATACOPY RETURNDATASIZE PUSH1 0x0 REVERT JUMPDEST POP POP POP POP PUSH1 0x40 MLOAD RETURNDATASIZE PUSH1 0x1F NOT PUSH1 0x1F DUP3 ADD AND DUP3 ADD DUP1 PUSH1 0x40 MSTORE POP DUP2 ADD SWAP1 PUSH2 0x3CCA SWAP2 SWAP1 PUSH2 0x5BCE JUMP JUMPDEST PUSH2 0x3D0B JUMPI PUSH1 0x40 MLOAD PUSH3 0x461BCD PUSH1 0xE5 SHL DUP2 MSTORE PUSH1 0x20 PUSH1 0x4 DUP3 ADD MSTORE PUSH1 0x12 PUSH1 0x24 DUP3 ADD MSTORE PUSH18 0x496E73756666696369656E742066756E6473 PUSH1 0x70 SHL PUSH1 0x44 DUP3 ADD MSTORE PUSH1 0x64 ADD PUSH2 0x5F7 JUMP JUMPDEST PUSH2 0x3D13 JUMP JUMPDEST POP DUP5 JUMPDEST PUSH1 0x3 SLOAD PUSH1 0x1 PUSH1 0x1 PUSH1 0xA0 SHL SUB AND ISZERO DUP1 PUSH2 0x3D29 JUMPI POP DUP2 ISZERO JUMPDEST DUP1 PUSH2 0x3DA2 JUMPI POP PUSH1 0x3 SLOAD PUSH1 0x40 MLOAD PUSH4 0x45ECD02F PUSH1 0xE0 SHL DUP2 MSTORE PUSH1 0x1 PUSH1 0x1 PUSH1 0xA0 SHL SUB SWAP1 SWAP2 AND SWAP1 PUSH4 0x45ECD02F SWAP1 PUSH2 0x3D5F SWAP1 CALLER SWAP1 PUSH1 0x4 ADD PUSH2 0x5553 JUMP JUMPDEST PUSH1 0x20 PUSH1 0x40 MLOAD DUP1 DUP4 SUB DUP2 DUP7 GAS STATICCALL ISZERO DUP1 ISZERO PUSH2 0x3D7C JUMPI RETURNDATASIZE PUSH1 0x0 DUP1 RETURNDATACOPY RETURNDATASIZE PUSH1 0x0 REVERT JUMPDEST POP POP POP POP PUSH1 0x40 MLOAD RETURNDATASIZE PUSH1 0x1F NOT PUSH1 0x1F DUP3 ADD AND DUP3 ADD DUP1 PUSH1 0x40 MSTORE POP DUP2 ADD SWAP1 PUSH2 0x3DA0 SWAP2 SWAP1 PUSH2 0x5BCE JUMP JUMPDEST ISZERO JUMPDEST ISZERO PUSH2 0x3DCF JUMPI DUP3 PUSH2 0x3DB9 JUMPI PUSH7 0x1C6BF52634000 PUSH2 0x3DC2 JUMP JUMPDEST PUSH7 0x2738D24E52000 JUMPDEST PUSH2 0x3DCC SWAP1 DUP3 PUSH2 0x5A25 JUMP JUMPDEST SWAP1 POP JUMPDEST PUSH1 0x1 DUP5 PUSH2 0xFFFF AND GT ISZERO PUSH2 0x3DFD JUMPI PUSH2 0x3DEA PUSH2 0xFFFF DUP6 AND DUP3 PUSH2 0x6234 JUMP JUMPDEST SWAP1 POP PUSH2 0x3DFA PUSH2 0xFFFF DUP6 AND DUP8 PUSH2 0x6234 JUMP JUMPDEST SWAP6 POP JUMPDEST DUP1 CALLVALUE LT ISZERO PUSH2 0x3E3E JUMPI PUSH1 0x40 MLOAD PUSH3 0x461BCD PUSH1 0xE5 SHL DUP2 MSTORE PUSH1 0x20 PUSH1 0x4 DUP3 ADD MSTORE PUSH1 0xE PUSH1 0x24 DUP3 ADD MSTORE PUSH14 0x125B9D985B1A5908185B5BDD5B9D PUSH1 0x92 SHL PUSH1 0x44 DUP3 ADD MSTORE PUSH1 0x64 ADD PUSH2 0x5F7 JUMP JUMPDEST PUSH1 0x1 PUSH1 0x1 PUSH1 0xA0 SHL SUB DUP8 AND ISZERO DUP1 ISZERO PUSH2 0x3E54 JUMPI POP DUP6 ISZERO ISZERO JUMPDEST ISZERO PUSH2 0x3ECE JUMPI PUSH1 0x0 DUP6 PUSH1 0x1 PUSH1 0x1 PUSH1 0xA0 SHL SUB AND DUP8 PUSH1 0x40 MLOAD PUSH1 0x0 PUSH1 0x40 MLOAD DUP1 DUP4 SUB DUP2 DUP6 DUP8 GAS CALL SWAP3 POP POP POP RETURNDATASIZE DUP1 PUSH1 0x0 DUP2 EQ PUSH2 0x3EA6 JUMPI PUSH1 0x40 MLOAD SWAP2 POP PUSH1 0x1F NOT PUSH1 0x3F RETURNDATASIZE ADD AND DUP3 ADD PUSH1 0x40 MSTORE RETURNDATASIZE DUP3 MSTORE RETURNDATASIZE PUSH1 0x0 PUSH1 0x20 DUP5 ADD RETURNDATACOPY PUSH2 0x3EAB JUMP JUMPDEST PUSH1 0x60 SWAP2 POP JUMPDEST POP POP SWAP1 POP DUP1 PUSH2 0x3ECC JUMPI PUSH1 0x40 MLOAD PUSH3 0x461BCD PUSH1 0xE5 SHL DUP2 MSTORE PUSH1 0x4 ADD PUSH2 0x5F7 SWAP1 PUSH2 0x6142 JUMP JUMPDEST POP JUMPDEST POP POP POP POP POP POP POP JUMP JUMPDEST PUSH1 0x0 PUSH2 0x3EEC DUP4 PUSH1 0x1 PUSH1 0x1 PUSH1 0xA0 SHL SUB DUP5 AND PUSH2 0x4728 JUMP JUMPDEST SWAP4 SWAP3 POP POP POP JUMP JUMPDEST TIMESTAMP DUP11 PUSH6 0xFFFFFFFFFFFF AND GT ISZERO DUP1 ISZERO PUSH2 0x3F23 JUMPI POP PUSH6 0xFFFFFFFFFFFF DUP10 AND ISZERO DUP1 PUSH2 0x3F23 JUMPI POP TIMESTAMP DUP10 PUSH6 0xFFFFFFFFFFFF AND LT ISZERO JUMPDEST PUSH2 0x3F3F JUMPI PUSH1 0x40 MLOAD PUSH3 0x461BCD PUSH1 0xE5 SHL DUP2 MSTORE PUSH1 0x4 ADD PUSH2 0x5F7 SWAP1 PUSH2 0x619C JUMP JUMPDEST DUP7 ISZERO PUSH2 0x3FA7 JUMPI PUSH2 0xFFFF DUP7 AND DUP5 EQ DUP1 ISZERO PUSH2 0x3F5B JUMPI POP PUSH2 0xFFFF DUP7 AND DUP3 EQ JUMPDEST PUSH2 0x3F77 JUMPI PUSH1 0x40 MLOAD PUSH3 0x461BCD PUSH1 0xE5 SHL DUP2 MSTORE PUSH1 0x4 ADD PUSH2 0x5F7 SWAP1 PUSH2 0x61C4 JUMP JUMPDEST PUSH1 0x0 JUMPDEST DUP7 PUSH2 0xFFFF AND DUP2 LT ISZERO PUSH2 0x3B2C JUMPI PUSH2 0x3F9F CALLER DUP15 DUP15 DUP12 DUP11 DUP11 DUP8 DUP2 DUP2 LT PUSH2 0x3AB2 JUMPI PUSH2 0x3AB2 PUSH2 0x5A38 JUMP JUMPDEST PUSH1 0x1 ADD PUSH2 0x3F7A JUMP JUMPDEST PUSH1 0x1 PUSH1 0x1 PUSH1 0xA0 SHL SUB DUP2 AND CALLER EQ PUSH2 0x3B32 JUMPI PUSH1 0x40 MLOAD PUSH3 0x461BCD PUSH1 0xE5 SHL DUP2 MSTORE PUSH1 0x4 ADD PUSH2 0x5F7 SWAP1 PUSH2 0x61C4 JUMP JUMPDEST CALLER PUSH2 0x3FD8 PUSH2 0x2B72 JUMP JUMPDEST PUSH1 0x1 PUSH1 0x1 PUSH1 0xA0 SHL SUB AND EQ PUSH2 0x2488 JUMPI PUSH1 0x40 MLOAD PUSH3 0x461BCD PUSH1 0xE5 SHL DUP2 MSTORE PUSH1 0x20 PUSH1 0x4 DUP3 ADD DUP2 SWAP1 MSTORE PUSH1 0x24 DUP3 ADD MSTORE PUSH32 0x4F776E61626C653A2063616C6C6572206973206E6F7420746865206F776E6572 PUSH1 0x44 DUP3 ADD MSTORE PUSH1 0x64 ADD PUSH2 0x5F7 JUMP JUMPDEST PUSH1 0x0 PUSH2 0x3EEC DUP4 PUSH1 0x1 PUSH1 0x1 PUSH1 0xA0 SHL SUB DUP5 AND PUSH2 0x4740 JUMP JUMPDEST PUSH1 0x0 PUSH2 0x5B7 DUP3 SLOAD SWAP1 JUMP JUMPDEST PUSH1 0x0 PUSH2 0x3EEC DUP4 DUP4 PUSH2 0x483A JUMP JUMPDEST PUSH1 0x0 DUP5 PUSH4 0xFFFFFFFF AND PUSH1 0x0 SUB PUSH2 0x40D0 JUMPI PUSH1 0x40 MLOAD PUSH3 0x461BCD PUSH1 0xE5 SHL DUP2 MSTORE PUSH1 0x20 PUSH1 0x4 DUP3 ADD MSTORE PUSH1 0x36 PUSH1 0x24 DUP3 ADD MSTORE PUSH32 0x43616E206F6E6C7920726574726965766520666F72206E6F6E2D6D65726B6C65 PUSH1 0x44 DUP3 ADD MSTORE PUSH22 0x40C6D8C2D2DAE640EED2E8D040EEC2D8D8CAE89AC2F PUSH1 0x53 SHL PUSH1 0x64 DUP3 ADD MSTORE PUSH1 0x84 ADD PUSH2 0x5F7 JUMP JUMPDEST POP PUSH1 0x1 PUSH1 0x1 PUSH1 0xA0 SHL SUB DUP1 DUP4 AND PUSH1 0x0 SWAP1 DUP2 MSTORE PUSH1 0x4 PUSH1 0x20 SWAP1 DUP2 MSTORE PUSH1 0x40 DUP1 DUP4 KECCAK256 DUP6 DUP5 MSTORE DUP3 MSTORE DUP1 DUP4 KECCAK256 SWAP4 DUP8 AND DUP4 MSTORE SWAP3 SWAP1 MSTORE KECCAK256 SLOAD SWAP5 SWAP4 POP POP POP POP JUMP JUMPDEST PUSH1 0x0 PUSH2 0x3EEC DUP4 PUSH1 0x1 PUSH1 0x1 PUSH1 0xA0 SHL SUB DUP5 AND PUSH2 0x4864 JUMP JUMPDEST PUSH1 0x0 DUP1 SLOAD PUSH1 0x1 PUSH1 0x1 PUSH1 0xA0 SHL SUB DUP4 DUP2 AND PUSH1 0x1 PUSH1 0x1 PUSH1 0xA0 SHL SUB NOT DUP4 AND DUP2 OR DUP5 SSTORE PUSH1 0x40 MLOAD SWAP2 SWAP1 SWAP3 AND SWAP3 DUP4 SWAP2 PUSH32 0x8BE0079C531659141344CD1FD0A4F28419497F9722A3DAAFE3B4186F6B6457E0 SWAP2 SWAP1 LOG3 POP POP JUMP JUMPDEST PUSH1 0x1 PUSH1 0x1 PUSH1 0xA0 SHL SUB DUP3 AND PUSH2 0x41BB JUMPI PUSH1 0x40 MLOAD PUSH3 0x461BCD PUSH1 0xE5 SHL DUP2 MSTORE PUSH1 0x20 PUSH1 0x4 DUP3 ADD MSTORE PUSH1 0x16 PUSH1 0x24 DUP3 ADD MSTORE PUSH22 0x135D5CDD081899481CDA59DB985D1D5C99481B5A5B9D PUSH1 0x52 SHL PUSH1 0x44 DUP3 ADD MSTORE PUSH1 0x64 ADD PUSH2 0x5F7 JUMP JUMPDEST DUP5 PUSH2 0x41D8 JUMPI PUSH1 0x40 MLOAD PUSH3 0x461BCD PUSH1 0xE5 SHL DUP2 MSTORE PUSH1 0x4 ADD PUSH2 0x5F7 SWAP1 PUSH2 0x61C4 JUMP JUMPDEST TIMESTAMP DUP9 PUSH6 0xFFFFFFFFFFFF AND GT ISZERO DUP1 ISZERO PUSH2 0x4208 JUMPI POP PUSH6 0xFFFFFFFFFFFF DUP8 AND ISZERO DUP1 PUSH2 0x4208 JUMPI POP TIMESTAMP DUP8 PUSH6 0xFFFFFFFFFFFF AND LT ISZERO JUMPDEST PUSH2 0x4224 JUMPI PUSH1 0x40 MLOAD PUSH3 0x461BCD PUSH1 0xE5 SHL DUP2 MSTORE PUSH1 0x4 ADD PUSH2 0x5F7 SWAP1 PUSH2 0x619C JUMP JUMPDEST PUSH2 0x2412 DUP11 DUP11 DUP9 DUP9 DUP9 DUP9 DUP9 DUP9 PUSH2 0x48AE JUMP JUMPDEST PUSH1 0x0 PUSH3 0xFFFFFF PUSH1 0x8 DUP4 SWAP1 SHR AND DUP4 DUP3 SUB PUSH2 0x428E JUMPI PUSH1 0x40 MLOAD PUSH3 0x461BCD PUSH1 0xE5 SHL DUP2 MSTORE PUSH1 0x20 PUSH1 0x4 DUP3 ADD MSTORE PUSH1 0x1C PUSH1 0x24 DUP3 ADD MSTORE PUSH28 0x43616E206F6E6C7920636865636B206D65726B6C6520636C61696D73 PUSH1 0x20 SHL PUSH1 0x44 DUP3 ADD MSTORE PUSH1 0x64 ADD PUSH2 0x5F7 JUMP JUMPDEST PUSH1 0x1 PUSH1 0x1 PUSH1 0xA0 SHL SUB DUP7 AND PUSH1 0x0 SWAP1 DUP2 MSTORE PUSH1 0x5 PUSH1 0x20 SWAP1 DUP2 MSTORE PUSH1 0x40 DUP1 DUP4 KECCAK256 DUP9 DUP5 MSTORE DUP3 MSTORE DUP1 DUP4 KECCAK256 SWAP4 DUP4 MSTORE SWAP3 SWAP1 MSTORE KECCAK256 SLOAD PUSH1 0x1 PUSH1 0xFF DUP5 AND SHL AND ISZERO ISZERO SWAP1 POP SWAP5 SWAP4 POP POP POP POP JUMP JUMPDEST PUSH1 0x60 PUSH1 0x0 PUSH2 0x42DA DUP4 PUSH2 0x4AAD JUMP JUMPDEST PUSH1 0x1 ADD SWAP1 POP PUSH1 0x0 DUP2 PUSH1 0x1 PUSH1 0x1 PUSH1 0x40 SHL SUB DUP2 GT ISZERO PUSH2 0x42F9 JUMPI PUSH2 0x42F9 PUSH2 0x5253 JUMP JUMPDEST PUSH1 0x40 MLOAD SWAP1 DUP1 DUP3 MSTORE DUP1 PUSH1 0x1F ADD PUSH1 0x1F NOT AND PUSH1 0x20 ADD DUP3 ADD PUSH1 0x40 MSTORE DUP1 ISZERO PUSH2 0x4323 JUMPI PUSH1 0x20 DUP3 ADD DUP2 DUP1 CALLDATASIZE DUP4 CALLDATACOPY ADD SWAP1 POP JUMPDEST POP SWAP1 POP DUP2 DUP2 ADD PUSH1 0x20 ADD JUMPDEST PUSH1 0x0 NOT ADD PUSH16 0x181899199A1A9B1B9C1CB0B131B232B3 PUSH1 0x81 SHL PUSH1 0xA DUP7 MOD BYTE DUP2 MSTORE8 PUSH1 0xA DUP6 DIV SWAP5 POP DUP5 PUSH2 0x432D JUMPI POP SWAP4 SWAP3 POP POP POP JUMP JUMPDEST TIMESTAMP DUP9 PUSH6 0xFFFFFFFFFFFF AND GT ISZERO DUP1 ISZERO PUSH2 0x438F JUMPI POP PUSH6 0xFFFFFFFFFFFF DUP8 AND ISZERO DUP1 PUSH2 0x438F JUMPI POP TIMESTAMP DUP8 PUSH6 0xFFFFFFFFFFFF AND LT ISZERO JUMPDEST PUSH2 0x43AB JUMPI PUSH1 0x40 MLOAD PUSH3 0x461BCD PUSH1 0xE5 SHL DUP2 MSTORE PUSH1 0x4 ADD PUSH2 0x5F7 SWAP1 PUSH2 0x619C JUMP JUMPDEST DUP5 ISZERO PUSH2 0x43F9 JUMPI PUSH2 0x43F4 CALLER DUP12 DUP12 DUP9 DUP9 DUP9 DUP9 DUP1 DUP1 PUSH1 0x20 MUL PUSH1 0x20 ADD PUSH1 0x40 MLOAD SWAP1 DUP2 ADD PUSH1 0x40 MSTORE DUP1 SWAP4 SWAP3 SWAP2 SWAP1 DUP2 DUP2 MSTORE PUSH1 0x20 ADD DUP4 DUP4 PUSH1 0x20 MUL DUP1 DUP3 DUP5 CALLDATACOPY PUSH1 0x0 SWAP3 ADD SWAP2 SWAP1 SWAP2 MSTORE POP DUP11 SWAP3 POP PUSH2 0x44C3 SWAP2 POP POP JUMP JUMPDEST PUSH2 0x2412 JUMP JUMPDEST PUSH1 0x1 PUSH1 0x1 PUSH1 0xA0 SHL SUB DUP2 AND CALLER EQ PUSH2 0x4421 JUMPI PUSH1 0x40 MLOAD PUSH3 0x461BCD PUSH1 0xE5 SHL DUP2 MSTORE PUSH1 0x4 ADD PUSH2 0x5F7 SWAP1 PUSH2 0x61C4 JUMP JUMPDEST PUSH4 0xFFFFFFFF DUP7 AND ISZERO PUSH2 0x2412 JUMPI PUSH1 0x1 PUSH1 0x1 PUSH1 0xA0 SHL SUB DUP11 AND PUSH1 0x0 SWAP1 DUP2 MSTORE PUSH1 0x4 PUSH1 0x20 SWAP1 DUP2 MSTORE PUSH1 0x40 DUP1 DUP4 KECCAK256 DUP13 DUP5 MSTORE DUP3 MSTORE DUP1 DUP4 KECCAK256 CALLER DUP5 MSTORE SWAP1 SWAP2 MSTORE DUP2 KECCAK256 DUP1 SLOAD PUSH4 0xFFFFFFFF DUP10 AND SWAP3 SWAP1 PUSH2 0x446C SWAP1 PUSH2 0x5E1A JUMP JUMPDEST SWAP2 DUP3 SWAP1 SSTORE POP GT ISZERO PUSH2 0x2412 JUMPI PUSH1 0x40 MLOAD PUSH3 0x461BCD PUSH1 0xE5 SHL DUP2 MSTORE PUSH1 0x20 PUSH1 0x4 DUP3 ADD MSTORE PUSH1 0x2D PUSH1 0x24 DUP3 ADD MSTORE PUSH1 0x0 DUP1 MLOAD PUSH1 0x20 PUSH2 0x628C DUP4 CODECOPY DUP2 MLOAD SWAP2 MSTORE PUSH1 0x44 DUP3 ADD MSTORE PUSH13 0x1C881D1A1A5CC81DD85B1B195D PUSH1 0x9A SHL PUSH1 0x64 DUP3 ADD MSTORE PUSH1 0x84 ADD PUSH2 0x5F7 JUMP JUMPDEST PUSH1 0x0 DUP8 PUSH1 0x1 PUSH1 0x1 PUSH1 0xA0 SHL SUB AND DUP3 PUSH1 0x1 PUSH1 0x1 PUSH1 0xA0 SHL SUB AND SUB PUSH2 0x450E JUMPI DUP8 DUP5 PUSH1 0x40 MLOAD PUSH1 0x20 ADD PUSH2 0x44F1 SWAP3 SWAP2 SWAP1 PUSH2 0x624B JUMP JUMPDEST PUSH1 0x40 MLOAD PUSH1 0x20 DUP2 DUP4 SUB SUB DUP2 MSTORE SWAP1 PUSH1 0x40 MSTORE DUP1 MLOAD SWAP1 PUSH1 0x20 ADD KECCAK256 SWAP1 POP PUSH2 0x4615 JUMP JUMPDEST PUSH1 0x40 MLOAD PUSH4 0x90C9A2D PUSH1 0xE4 SHL DUP2 MSTORE PUSH1 0x1 PUSH1 0x1 PUSH1 0xA0 SHL SUB DUP10 DUP2 AND PUSH1 0x4 DUP4 ADD MSTORE DUP4 DUP2 AND PUSH1 0x24 DUP4 ADD MSTORE ADDRESS PUSH1 0x44 DUP4 ADD MSTORE PUSH32 0x0 SWAP2 SWAP1 DUP3 AND SWAP1 PUSH4 0x90C9A2D0 SWAP1 PUSH1 0x64 ADD PUSH1 0x20 PUSH1 0x40 MLOAD DUP1 DUP4 SUB DUP2 DUP7 GAS STATICCALL ISZERO DUP1 ISZERO PUSH2 0x4585 JUMPI RETURNDATASIZE PUSH1 0x0 DUP1 RETURNDATACOPY RETURNDATASIZE PUSH1 0x0 REVERT JUMPDEST POP POP POP POP PUSH1 0x40 MLOAD RETURNDATASIZE PUSH1 0x1F NOT PUSH1 0x1F DUP3 ADD AND DUP3 ADD DUP1 PUSH1 0x40 MSTORE POP DUP2 ADD SWAP1 PUSH2 0x45A9 SWAP2 SWAP1 PUSH2 0x5BCE JUMP JUMPDEST PUSH2 0x45E8 JUMPI PUSH1 0x40 MLOAD PUSH3 0x461BCD PUSH1 0xE5 SHL DUP2 MSTORE PUSH1 0x20 PUSH1 0x4 DUP3 ADD MSTORE PUSH1 0x10 PUSH1 0x24 DUP3 ADD MSTORE PUSH16 0x496E76616C69642064656C6567617465 PUSH1 0x80 SHL PUSH1 0x44 DUP3 ADD MSTORE PUSH1 0x64 ADD PUSH2 0x5F7 JUMP JUMPDEST DUP3 DUP6 PUSH1 0x40 MLOAD PUSH1 0x20 ADD PUSH2 0x45FB SWAP3 SWAP2 SWAP1 PUSH2 0x624B JUMP JUMPDEST PUSH1 0x40 MLOAD PUSH1 0x20 DUP2 DUP4 SUB SUB DUP2 MSTORE SWAP1 PUSH1 0x40 MSTORE DUP1 MLOAD SWAP1 PUSH1 0x20 ADD KECCAK256 SWAP2 POP POP JUMPDEST PUSH2 0x4620 DUP4 DUP7 DUP4 PUSH2 0x4B83 JUMP JUMPDEST PUSH2 0x466C JUMPI PUSH1 0x40 MLOAD PUSH3 0x461BCD PUSH1 0xE5 SHL DUP2 MSTORE PUSH1 0x20 PUSH1 0x4 DUP3 ADD MSTORE PUSH1 0x1D PUSH1 0x24 DUP3 ADD MSTORE PUSH32 0x436F756C64206E6F7420766572696679206D65726B6C652070726F6F66000000 PUSH1 0x44 DUP3 ADD MSTORE PUSH1 0x64 ADD PUSH2 0x5F7 JUMP JUMPDEST PUSH1 0x1 PUSH1 0x1 PUSH1 0xA0 SHL SUB DUP8 AND PUSH1 0x0 SWAP1 DUP2 MSTORE PUSH1 0x5 PUSH1 0x20 SWAP1 DUP2 MSTORE PUSH1 0x40 DUP1 DUP4 KECCAK256 DUP10 DUP5 MSTORE DUP3 MSTORE DUP1 DUP4 KECCAK256 PUSH3 0xFFFFFF PUSH1 0x8 DUP10 SWAP1 SHR AND DUP1 DUP6 MSTORE SWAP3 MSTORE SWAP1 SWAP2 KECCAK256 SLOAD PUSH1 0x1 PUSH1 0xFF DUP8 AND SHL DUP1 DUP3 AND ISZERO PUSH2 0x46EA JUMPI PUSH1 0x40 MLOAD PUSH3 0x461BCD PUSH1 0xE5 SHL DUP2 MSTORE PUSH1 0x20 PUSH1 0x4 DUP3 ADD MSTORE PUSH1 0xE PUSH1 0x24 DUP3 ADD MSTORE PUSH14 0x105B1C9958591E481B5A5B9D1959 PUSH1 0x92 SHL PUSH1 0x44 DUP3 ADD MSTORE PUSH1 0x64 ADD PUSH2 0x5F7 JUMP JUMPDEST PUSH1 0x1 PUSH1 0x1 PUSH1 0xA0 SHL SUB SWAP1 SWAP10 AND PUSH1 0x0 SWAP1 DUP2 MSTORE PUSH1 0x5 PUSH1 0x20 SWAP1 DUP2 MSTORE PUSH1 0x40 DUP1 DUP4 KECCAK256 SWAP11 DUP4 MSTORE SWAP10 DUP2 MSTORE DUP10 DUP3 KECCAK256 SWAP4 DUP3 MSTORE SWAP3 SWAP1 SWAP3 MSTORE SWAP7 SWAP1 KECCAK256 SWAP6 SWAP1 SWAP7 OR SWAP1 SWAP5 SSTORE POP POP POP POP POP POP JUMP JUMPDEST PUSH1 0x0 SWAP1 DUP2 MSTORE PUSH1 0x1 SWAP2 SWAP1 SWAP2 ADD PUSH1 0x20 MSTORE PUSH1 0x40 SWAP1 KECCAK256 SLOAD ISZERO ISZERO SWAP1 JUMP JUMPDEST PUSH1 0x0 DUP2 DUP2 MSTORE PUSH1 0x1 DUP4 ADD PUSH1 0x20 MSTORE PUSH1 0x40 DUP2 KECCAK256 SLOAD DUP1 ISZERO PUSH2 0x4829 JUMPI PUSH1 0x0 PUSH2 0x4764 PUSH1 0x1 DUP4 PUSH2 0x5F1B JUMP JUMPDEST DUP6 SLOAD SWAP1 SWAP2 POP PUSH1 0x0 SWAP1 PUSH2 0x4778 SWAP1 PUSH1 0x1 SWAP1 PUSH2 0x5F1B JUMP JUMPDEST SWAP1 POP DUP2 DUP2 EQ PUSH2 0x47DD JUMPI PUSH1 0x0 DUP7 PUSH1 0x0 ADD DUP3 DUP2 SLOAD DUP2 LT PUSH2 0x4798 JUMPI PUSH2 0x4798 PUSH2 0x5A38 JUMP JUMPDEST SWAP1 PUSH1 0x0 MSTORE PUSH1 0x20 PUSH1 0x0 KECCAK256 ADD SLOAD SWAP1 POP DUP1 DUP8 PUSH1 0x0 ADD DUP5 DUP2 SLOAD DUP2 LT PUSH2 0x47BB JUMPI PUSH2 0x47BB PUSH2 0x5A38 JUMP JUMPDEST PUSH1 0x0 SWAP2 DUP3 MSTORE PUSH1 0x20 DUP1 DUP4 KECCAK256 SWAP1 SWAP2 ADD SWAP3 SWAP1 SWAP3 SSTORE SWAP2 DUP3 MSTORE PUSH1 0x1 DUP9 ADD SWAP1 MSTORE PUSH1 0x40 SWAP1 KECCAK256 DUP4 SWAP1 SSTORE JUMPDEST DUP6 SLOAD DUP7 SWAP1 DUP1 PUSH2 0x47EE JUMPI PUSH2 0x47EE PUSH2 0x6275 JUMP JUMPDEST PUSH1 0x1 SWAP1 SUB DUP2 DUP2 SWAP1 PUSH1 0x0 MSTORE PUSH1 0x20 PUSH1 0x0 KECCAK256 ADD PUSH1 0x0 SWAP1 SSTORE SWAP1 SSTORE DUP6 PUSH1 0x1 ADD PUSH1 0x0 DUP7 DUP2 MSTORE PUSH1 0x20 ADD SWAP1 DUP2 MSTORE PUSH1 0x20 ADD PUSH1 0x0 KECCAK256 PUSH1 0x0 SWAP1 SSTORE PUSH1 0x1 SWAP4 POP POP POP POP PUSH2 0x5B7 JUMP JUMPDEST PUSH1 0x0 SWAP2 POP POP PUSH2 0x5B7 JUMP JUMPDEST POP SWAP3 SWAP2 POP POP JUMP JUMPDEST PUSH1 0x0 DUP3 PUSH1 0x0 ADD DUP3 DUP2 SLOAD DUP2 LT PUSH2 0x4851 JUMPI PUSH2 0x4851 PUSH2 0x5A38 JUMP JUMPDEST SWAP1 PUSH1 0x0 MSTORE PUSH1 0x20 PUSH1 0x0 KECCAK256 ADD SLOAD SWAP1 POP SWAP3 SWAP2 POP POP JUMP JUMPDEST PUSH1 0x0 PUSH2 0x4870 DUP4 DUP4 PUSH2 0x4728 JUMP JUMPDEST PUSH2 0x48A6 JUMPI POP DUP2 SLOAD PUSH1 0x1 DUP2 DUP2 ADD DUP5 SSTORE PUSH1 0x0 DUP5 DUP2 MSTORE PUSH1 0x20 DUP1 DUP3 KECCAK256 SWAP1 SWAP4 ADD DUP5 SWAP1 SSTORE DUP5 SLOAD DUP5 DUP3 MSTORE DUP3 DUP7 ADD SWAP1 SWAP4 MSTORE PUSH1 0x40 SWAP1 KECCAK256 SWAP2 SWAP1 SWAP2 SSTORE PUSH2 0x5B7 JUMP JUMPDEST POP PUSH1 0x0 PUSH2 0x5B7 JUMP JUMPDEST PUSH1 0x40 MLOAD PUSH28 0xCA2BA3432B932BAB69029B4B3B732B21026B2B9B9B0B3B29D051999 PUSH1 0x21 SHL PUSH1 0x20 DUP3 ADD MSTORE PUSH1 0x3C DUP2 ADD DUP9 SWAP1 MSTORE PUSH1 0x5C DUP2 ADD DUP5 SWAP1 MSTORE PUSH1 0x1 PUSH1 0x1 PUSH1 0x60 SHL SUB NOT PUSH1 0x60 DUP4 SWAP1 SHL AND PUSH1 0x7C DUP3 ADD MSTORE PUSH1 0x0 SWAP1 PUSH1 0x90 ADD PUSH1 0x40 DUP1 MLOAD PUSH1 0x1F NOT DUP2 DUP5 SUB ADD DUP2 MSTORE SWAP2 DUP2 MSTORE DUP2 MLOAD PUSH1 0x20 SWAP3 DUP4 ADD KECCAK256 PUSH1 0x1 PUSH1 0x1 PUSH1 0xA0 SHL SUB DUP13 AND PUSH1 0x0 SWAP1 DUP2 MSTORE PUSH1 0x6 DUP5 MSTORE DUP3 DUP2 KECCAK256 DUP13 DUP3 MSTORE DUP5 MSTORE DUP3 DUP2 KECCAK256 DUP3 DUP3 MSTORE SWAP1 SWAP4 MSTORE SWAP2 KECCAK256 SLOAD SWAP1 SWAP2 POP PUSH1 0xFF AND ISZERO PUSH2 0x498C JUMPI PUSH1 0x40 MLOAD PUSH3 0x461BCD PUSH1 0xE5 SHL DUP2 MSTORE PUSH1 0x20 PUSH1 0x4 DUP3 ADD MSTORE PUSH1 0x19 PUSH1 0x24 DUP3 ADD MSTORE PUSH25 0x21B0B73737BA103932B83630BC903A3930B739B0B1BA34B7B7 PUSH1 0x39 SHL PUSH1 0x44 DUP3 ADD MSTORE PUSH1 0x64 ADD PUSH2 0x5F7 JUMP JUMPDEST DUP1 DUP6 EQ PUSH2 0x49CF JUMPI PUSH1 0x40 MLOAD PUSH3 0x461BCD PUSH1 0xE5 SHL DUP2 MSTORE PUSH1 0x20 PUSH1 0x4 DUP3 ADD MSTORE PUSH1 0x11 PUSH1 0x24 DUP3 ADD MSTORE PUSH17 0x4D616C666F726D6564206D657373616765 PUSH1 0x78 SHL PUSH1 0x44 DUP3 ADD MSTORE PUSH1 0x64 ADD PUSH2 0x5F7 JUMP JUMPDEST PUSH1 0x0 PUSH2 0x4A13 DUP9 DUP9 DUP1 DUP1 PUSH1 0x1F ADD PUSH1 0x20 DUP1 SWAP2 DIV MUL PUSH1 0x20 ADD PUSH1 0x40 MLOAD SWAP1 DUP2 ADD PUSH1 0x40 MSTORE DUP1 SWAP4 SWAP3 SWAP2 SWAP1 DUP2 DUP2 MSTORE PUSH1 0x20 ADD DUP4 DUP4 DUP1 DUP3 DUP5 CALLDATACOPY PUSH1 0x0 SWAP3 ADD SWAP2 SWAP1 SWAP2 MSTORE POP DUP11 SWAP4 SWAP3 POP POP PUSH2 0x4B99 SWAP1 POP JUMP JUMPDEST SWAP1 POP DUP4 PUSH1 0x1 PUSH1 0x1 PUSH1 0xA0 SHL SUB AND DUP2 PUSH1 0x1 PUSH1 0x1 PUSH1 0xA0 SHL SUB AND EQ PUSH2 0x4A69 JUMPI PUSH1 0x40 MLOAD PUSH3 0x461BCD PUSH1 0xE5 SHL DUP2 MSTORE PUSH1 0x20 PUSH1 0x4 DUP3 ADD MSTORE PUSH1 0x10 PUSH1 0x24 DUP3 ADD MSTORE PUSH16 0x24B731B7B93932B1BA1039B4B3B732B9 PUSH1 0x81 SHL PUSH1 0x44 DUP3 ADD MSTORE PUSH1 0x64 ADD PUSH2 0x5F7 JUMP JUMPDEST POP PUSH1 0x1 PUSH1 0x1 PUSH1 0xA0 SHL SUB SWAP1 SWAP9 AND PUSH1 0x0 SWAP1 DUP2 MSTORE PUSH1 0x6 PUSH1 0x20 SWAP1 DUP2 MSTORE PUSH1 0x40 DUP1 DUP4 KECCAK256 SWAP10 DUP4 MSTORE SWAP9 DUP2 MSTORE DUP9 DUP3 KECCAK256 SWAP10 DUP3 MSTORE SWAP9 SWAP1 SWAP9 MSTORE POP POP POP SWAP3 SWAP1 SWAP4 KECCAK256 DUP1 SLOAD PUSH1 0xFF NOT AND PUSH1 0x1 OR SWAP1 SSTORE POP POP POP JUMP JUMPDEST PUSH1 0x0 DUP1 PUSH19 0x184F03E93FF9F4DAA797ED6E38ED64BF6A1F01 PUSH1 0x40 SHL DUP4 LT PUSH2 0x4AEC JUMPI PUSH19 0x184F03E93FF9F4DAA797ED6E38ED64BF6A1F01 PUSH1 0x40 SHL DUP4 DIV SWAP3 POP PUSH1 0x40 ADD JUMPDEST PUSH10 0x4EE2D6D415B85ACEF81 PUSH1 0x20 SHL DUP4 LT PUSH2 0x4B16 JUMPI PUSH10 0x4EE2D6D415B85ACEF81 PUSH1 0x20 SHL DUP4 DIV SWAP3 POP PUSH1 0x20 ADD JUMPDEST PUSH7 0x2386F26FC10000 DUP4 LT PUSH2 0x4B34 JUMPI PUSH7 0x2386F26FC10000 DUP4 DIV SWAP3 POP PUSH1 0x10 ADD JUMPDEST PUSH4 0x5F5E100 DUP4 LT PUSH2 0x4B4C JUMPI PUSH4 0x5F5E100 DUP4 DIV SWAP3 POP PUSH1 0x8 ADD JUMPDEST PUSH2 0x2710 DUP4 LT PUSH2 0x4B60 JUMPI PUSH2 0x2710 DUP4 DIV SWAP3 POP PUSH1 0x4 ADD JUMPDEST PUSH1 0x64 DUP4 LT PUSH2 0x4B72 JUMPI PUSH1 0x64 DUP4 DIV SWAP3 POP PUSH1 0x2 ADD JUMPDEST PUSH1 0xA DUP4 LT PUSH2 0x5B7 JUMPI PUSH1 0x1 ADD SWAP3 SWAP2 POP POP JUMP JUMPDEST PUSH1 0x0 DUP3 PUSH2 0x4B90 DUP6 DUP5 PUSH2 0x4BBD JUMP JUMPDEST EQ SWAP5 SWAP4 POP POP POP POP JUMP JUMPDEST PUSH1 0x0 DUP1 PUSH1 0x0 PUSH2 0x4BA8 DUP6 DUP6 PUSH2 0x4C02 JUMP JUMPDEST SWAP2 POP SWAP2 POP PUSH2 0x4BB5 DUP2 PUSH2 0x4C47 JUMP JUMPDEST POP SWAP4 SWAP3 POP POP POP JUMP JUMPDEST PUSH1 0x0 DUP2 DUP2 JUMPDEST DUP5 MLOAD DUP2 LT ISZERO PUSH2 0x4BB5 JUMPI PUSH2 0x4BEE DUP3 DUP7 DUP4 DUP2 MLOAD DUP2 LT PUSH2 0x4BE1 JUMPI PUSH2 0x4BE1 PUSH2 0x5A38 JUMP JUMPDEST PUSH1 0x20 MUL PUSH1 0x20 ADD ADD MLOAD PUSH2 0x4D8C JUMP JUMPDEST SWAP2 POP DUP1 PUSH2 0x4BFA DUP2 PUSH2 0x5E1A JUMP JUMPDEST SWAP2 POP POP PUSH2 0x4BC2 JUMP JUMPDEST PUSH1 0x0 DUP1 DUP3 MLOAD PUSH1 0x41 SUB PUSH2 0x4C38 JUMPI PUSH1 0x20 DUP4 ADD MLOAD PUSH1 0x40 DUP5 ADD MLOAD PUSH1 0x60 DUP6 ADD MLOAD PUSH1 0x0 BYTE PUSH2 0x4C2C DUP8 DUP3 DUP6 DUP6 PUSH2 0x4DBB JUMP JUMPDEST SWAP5 POP SWAP5 POP POP POP POP PUSH2 0x4C40 JUMP JUMPDEST POP PUSH1 0x0 SWAP1 POP PUSH1 0x2 JUMPDEST SWAP3 POP SWAP3 SWAP1 POP JUMP JUMPDEST PUSH1 0x0 DUP2 PUSH1 0x4 DUP2 GT ISZERO PUSH2 0x4C5B JUMPI PUSH2 0x4C5B PUSH2 0x5064 JUMP JUMPDEST SUB PUSH2 0x4C63 JUMPI POP JUMP JUMPDEST PUSH1 0x1 DUP2 PUSH1 0x4 DUP2 GT ISZERO PUSH2 0x4C77 JUMPI PUSH2 0x4C77 PUSH2 0x5064 JUMP JUMPDEST SUB PUSH2 0x4CBF JUMPI PUSH1 0x40 MLOAD PUSH3 0x461BCD PUSH1 0xE5 SHL DUP2 MSTORE PUSH1 0x20 PUSH1 0x4 DUP3 ADD MSTORE PUSH1 0x18 PUSH1 0x24 DUP3 ADD MSTORE PUSH24 0x45434453413A20696E76616C6964207369676E6174757265 PUSH1 0x40 SHL PUSH1 0x44 DUP3 ADD MSTORE PUSH1 0x64 ADD PUSH2 0x5F7 JUMP JUMPDEST PUSH1 0x2 DUP2 PUSH1 0x4 DUP2 GT ISZERO PUSH2 0x4CD3 JUMPI PUSH2 0x4CD3 PUSH2 0x5064 JUMP JUMPDEST SUB PUSH2 0x4D20 JUMPI PUSH1 0x40 MLOAD PUSH3 0x461BCD PUSH1 0xE5 SHL DUP2 MSTORE PUSH1 0x20 PUSH1 0x4 DUP3 ADD MSTORE PUSH1 0x1F PUSH1 0x24 DUP3 ADD MSTORE PUSH32 0x45434453413A20696E76616C6964207369676E6174757265206C656E67746800 PUSH1 0x44 DUP3 ADD MSTORE PUSH1 0x64 ADD PUSH2 0x5F7 JUMP JUMPDEST PUSH1 0x3 DUP2 PUSH1 0x4 DUP2 GT ISZERO PUSH2 0x4D34 JUMPI PUSH2 0x4D34 PUSH2 0x5064 JUMP JUMPDEST SUB PUSH2 0x105D JUMPI PUSH1 0x40 MLOAD PUSH3 0x461BCD PUSH1 0xE5 SHL DUP2 MSTORE PUSH1 0x20 PUSH1 0x4 DUP3 ADD MSTORE PUSH1 0x22 PUSH1 0x24 DUP3 ADD MSTORE PUSH32 0x45434453413A20696E76616C6964207369676E6174757265202773272076616C PUSH1 0x44 DUP3 ADD MSTORE PUSH2 0x7565 PUSH1 0xF0 SHL PUSH1 0x64 DUP3 ADD MSTORE PUSH1 0x84 ADD PUSH2 0x5F7 JUMP JUMPDEST PUSH1 0x0 DUP2 DUP4 LT PUSH2 0x4DA8 JUMPI PUSH1 0x0 DUP3 DUP2 MSTORE PUSH1 0x20 DUP5 SWAP1 MSTORE PUSH1 0x40 SWAP1 KECCAK256 PUSH2 0x3EEC JUMP JUMPDEST PUSH1 0x0 DUP4 DUP2 MSTORE PUSH1 0x20 DUP4 SWAP1 MSTORE PUSH1 0x40 SWAP1 KECCAK256 PUSH2 0x3EEC JUMP JUMPDEST PUSH1 0x0 DUP1 PUSH16 0xA2A8918CA85BAFE22016D0B997E4DF60 PUSH1 0x1 PUSH1 0xFF SHL SUB DUP4 GT ISZERO PUSH2 0x4DE8 JUMPI POP PUSH1 0x0 SWAP1 POP PUSH1 0x3 PUSH2 0x4E6C JUMP JUMPDEST PUSH1 0x40 DUP1 MLOAD PUSH1 0x0 DUP1 DUP3 MSTORE PUSH1 0x20 DUP3 ADD DUP1 DUP5 MSTORE DUP10 SWAP1 MSTORE PUSH1 0xFF DUP9 AND SWAP3 DUP3 ADD SWAP3 SWAP1 SWAP3 MSTORE PUSH1 0x60 DUP2 ADD DUP7 SWAP1 MSTORE PUSH1 0x80 DUP2 ADD DUP6 SWAP1 MSTORE PUSH1 0x1 SWAP1 PUSH1 0xA0 ADD PUSH1 0x20 PUSH1 0x40 MLOAD PUSH1 0x20 DUP2 SUB SWAP1 DUP1 DUP5 SUB SWAP1 DUP6 GAS STATICCALL ISZERO DUP1 ISZERO PUSH2 0x4E3C JUMPI RETURNDATASIZE PUSH1 0x0 DUP1 RETURNDATACOPY RETURNDATASIZE PUSH1 0x0 REVERT JUMPDEST POP POP PUSH1 0x40 MLOAD PUSH1 0x1F NOT ADD MLOAD SWAP2 POP POP PUSH1 0x1 PUSH1 0x1 PUSH1 0xA0 SHL SUB DUP2 AND PUSH2 0x4E65 JUMPI PUSH1 0x0 PUSH1 0x1 SWAP3 POP SWAP3 POP POP PUSH2 0x4E6C JUMP JUMPDEST SWAP2 POP PUSH1 0x0 SWAP1 POP JUMPDEST SWAP5 POP SWAP5 SWAP3 POP POP POP JUMP JUMPDEST PUSH1 0x40 DUP1 MLOAD PUSH2 0x1C0 DUP2 ADD DUP3 MSTORE PUSH1 0x0 DUP1 DUP3 MSTORE PUSH1 0x20 DUP3 ADD DUP2 SWAP1 MSTORE SWAP2 DUP2 ADD DUP3 SWAP1 MSTORE PUSH1 0x60 DUP2 ADD DUP3 SWAP1 MSTORE PUSH1 0x80 DUP2 ADD DUP3 SWAP1 MSTORE SWAP1 PUSH1 0xA0 DUP3 ADD SWAP1 DUP2 MSTORE PUSH1 0x0 PUSH1 0x20 DUP3 ADD DUP2 SWAP1 MSTORE PUSH1 0x40 DUP3 ADD DUP2 SWAP1 MSTORE PUSH1 0x60 DUP1 DUP4 ADD DUP3 SWAP1 MSTORE PUSH1 0x80 DUP4 ADD MSTORE PUSH1 0xA0 DUP3 ADD DUP2 SWAP1 MSTORE PUSH1 0xC0 DUP3 ADD DUP2 SWAP1 MSTORE PUSH1 0xE0 DUP3 ADD DUP2 SWAP1 MSTORE PUSH2 0x100 SWAP1 SWAP2 ADD MSTORE SWAP1 JUMP JUMPDEST PUSH1 0x0 PUSH1 0x20 DUP3 DUP5 SUB SLT ISZERO PUSH2 0x4EF6 JUMPI PUSH1 0x0 DUP1 REVERT JUMPDEST DUP2 CALLDATALOAD PUSH1 0x1 PUSH1 0x1 PUSH1 0xE0 SHL SUB NOT DUP2 AND DUP2 EQ PUSH2 0x3EEC JUMPI PUSH1 0x0 DUP1 REVERT JUMPDEST PUSH1 0x1 PUSH1 0x1 PUSH1 0xA0 SHL SUB DUP2 AND DUP2 EQ PUSH2 0x105D JUMPI PUSH1 0x0 DUP1 REVERT JUMPDEST DUP1 CALLDATALOAD PUSH2 0x4F2E DUP2 PUSH2 0x4F0E JUMP JUMPDEST SWAP2 SWAP1 POP JUMP JUMPDEST DUP1 CALLDATALOAD PUSH2 0xFFFF DUP2 AND DUP2 EQ PUSH2 0x4F2E JUMPI PUSH1 0x0 DUP1 REVERT JUMPDEST PUSH1 0x0 DUP1 DUP4 PUSH1 0x1F DUP5 ADD SLT PUSH2 0x4F57 JUMPI PUSH1 0x0 DUP1 REVERT JUMPDEST POP DUP2 CALLDATALOAD PUSH1 0x1 PUSH1 0x1 PUSH1 0x40 SHL SUB DUP2 GT ISZERO PUSH2 0x4F6E JUMPI PUSH1 0x0 DUP1 REVERT JUMPDEST PUSH1 0x20 DUP4 ADD SWAP2 POP DUP4 PUSH1 0x20 DUP3 PUSH1 0x5 SHL DUP6 ADD ADD GT ISZERO PUSH2 0x4C40 JUMPI PUSH1 0x0 DUP1 REVERT JUMPDEST PUSH1 0x0 DUP1 PUSH1 0x0 DUP1 PUSH1 0x0 DUP1 PUSH1 0x0 DUP1 PUSH1 0xC0 DUP10 DUP12 SUB SLT ISZERO PUSH2 0x4FA5 JUMPI PUSH1 0x0 DUP1 REVERT JUMPDEST DUP9 CALLDATALOAD PUSH2 0x4FB0 DUP2 PUSH2 0x4F0E JUMP JUMPDEST SWAP8 POP PUSH1 0x20 DUP10 ADD CALLDATALOAD SWAP7 POP PUSH2 0x4FC5 PUSH1 0x40 DUP11 ADD PUSH2 0x4F33 JUMP JUMPDEST SWAP6 POP PUSH1 0x60 DUP10 ADD CALLDATALOAD PUSH1 0x1 PUSH1 0x1 PUSH1 0x40 SHL SUB DUP1 DUP3 GT ISZERO PUSH2 0x4FE1 JUMPI PUSH1 0x0 DUP1 REVERT JUMPDEST PUSH2 0x4FED DUP13 DUP4 DUP14 ADD PUSH2 0x4F45 JUMP JUMPDEST SWAP1 SWAP8 POP SWAP6 POP PUSH1 0x80 DUP12 ADD CALLDATALOAD SWAP2 POP DUP1 DUP3 GT ISZERO PUSH2 0x5006 JUMPI PUSH1 0x0 DUP1 REVERT JUMPDEST POP PUSH2 0x5013 DUP12 DUP3 DUP13 ADD PUSH2 0x4F45 JUMP JUMPDEST SWAP1 SWAP5 POP SWAP3 POP POP PUSH1 0xA0 DUP10 ADD CALLDATALOAD PUSH2 0x5027 DUP2 PUSH2 0x4F0E JUMP JUMPDEST DUP1 SWAP2 POP POP SWAP3 SWAP6 SWAP9 POP SWAP3 SWAP6 SWAP9 SWAP1 SWAP4 SWAP7 POP JUMP JUMPDEST PUSH1 0x0 DUP1 PUSH1 0x40 DUP4 DUP6 SUB SLT ISZERO PUSH2 0x504B JUMPI PUSH1 0x0 DUP1 REVERT JUMPDEST DUP3 CALLDATALOAD PUSH2 0x5056 DUP2 PUSH2 0x4F0E JUMP JUMPDEST SWAP5 PUSH1 0x20 SWAP4 SWAP1 SWAP4 ADD CALLDATALOAD SWAP4 POP POP POP JUMP JUMPDEST PUSH4 0x4E487B71 PUSH1 0xE0 SHL PUSH1 0x0 MSTORE PUSH1 0x21 PUSH1 0x4 MSTORE PUSH1 0x24 PUSH1 0x0 REVERT JUMPDEST PUSH1 0x4 DUP2 LT PUSH2 0x5098 JUMPI PUSH4 0x4E487B71 PUSH1 0xE0 SHL PUSH1 0x0 MSTORE PUSH1 0x21 PUSH1 0x4 MSTORE PUSH1 0x24 PUSH1 0x0 REVERT JUMPDEST SWAP1 MSTORE JUMP JUMPDEST PUSH1 0x0 JUMPDEST DUP4 DUP2 LT ISZERO PUSH2 0x50B7 JUMPI DUP2 DUP2 ADD MLOAD DUP4 DUP3 ADD MSTORE PUSH1 0x20 ADD PUSH2 0x509F JUMP JUMPDEST POP POP PUSH1 0x0 SWAP2 ADD MSTORE JUMP JUMPDEST PUSH1 0x0 DUP2 MLOAD DUP1 DUP5 MSTORE PUSH2 0x50D8 DUP2 PUSH1 0x20 DUP7 ADD PUSH1 0x20 DUP7 ADD PUSH2 0x509C JUMP JUMPDEST PUSH1 0x1F ADD PUSH1 0x1F NOT AND SWAP3 SWAP1 SWAP3 ADD PUSH1 0x20 ADD SWAP3 SWAP2 POP POP JUMP JUMPDEST PUSH1 0x1 PUSH1 0x1 PUSH1 0xA0 SHL SUB AND SWAP1 MSTORE JUMP JUMPDEST DUP1 MLOAD PUSH4 0xFFFFFFFF AND DUP3 MSTORE PUSH1 0x0 PUSH2 0x1C0 PUSH1 0x20 DUP4 ADD MLOAD PUSH2 0x511F PUSH1 0x20 DUP7 ADD DUP3 PUSH4 0xFFFFFFFF AND SWAP1 MSTORE JUMP JUMPDEST POP PUSH1 0x40 DUP4 ADD MLOAD PUSH2 0x5137 PUSH1 0x40 DUP7 ADD DUP3 PUSH4 0xFFFFFFFF AND SWAP1 MSTORE JUMP JUMPDEST POP PUSH1 0x60 DUP4 ADD MLOAD PUSH2 0x5151 PUSH1 0x60 DUP7 ADD DUP3 PUSH6 0xFFFFFFFFFFFF AND SWAP1 MSTORE JUMP JUMPDEST POP PUSH1 0x80 DUP4 ADD MLOAD PUSH2 0x516B PUSH1 0x80 DUP7 ADD DUP3 PUSH6 0xFFFFFFFFFFFF AND SWAP1 MSTORE JUMP JUMPDEST POP PUSH1 0xA0 DUP4 ADD MLOAD PUSH2 0x517E PUSH1 0xA0 DUP7 ADD DUP3 PUSH2 0x507A JUMP JUMPDEST POP PUSH1 0xC0 DUP4 ADD MLOAD PUSH2 0x5193 PUSH1 0xC0 DUP7 ADD DUP3 PUSH1 0xFF AND SWAP1 MSTORE JUMP JUMPDEST POP PUSH1 0xE0 DUP4 ADD MLOAD PUSH2 0x51A7 PUSH1 0xE0 DUP7 ADD DUP3 ISZERO ISZERO SWAP1 MSTORE JUMP JUMPDEST POP PUSH2 0x100 DUP1 DUP5 ADD MLOAD DUP2 DUP7 ADD MSTORE POP PUSH2 0x120 DUP1 DUP5 ADD MLOAD DUP3 DUP3 DUP8 ADD MSTORE PUSH2 0x51CC DUP4 DUP8 ADD DUP3 PUSH2 0x50C0 JUMP JUMPDEST SWAP3 POP POP POP PUSH2 0x140 DUP1 DUP5 ADD MLOAD DUP2 DUP7 ADD MSTORE POP PUSH2 0x160 DUP1 DUP5 ADD MLOAD PUSH2 0x51EF DUP3 DUP8 ADD DUP3 PUSH2 0x50EC JUMP JUMPDEST POP POP PUSH2 0x180 DUP1 DUP5 ADD MLOAD PUSH2 0x5204 DUP3 DUP8 ADD DUP3 PUSH2 0x50EC JUMP JUMPDEST POP POP PUSH2 0x1A0 DUP1 DUP5 ADD MLOAD PUSH2 0x5219 DUP3 DUP8 ADD DUP3 PUSH2 0x50EC JUMP JUMPDEST POP SWAP1 SWAP5 SWAP4 POP POP POP POP JUMP JUMPDEST PUSH1 0x20 DUP2 MSTORE PUSH1 0x0 PUSH2 0x3EEC PUSH1 0x20 DUP4 ADD DUP5 PUSH2 0x50F9 JUMP JUMPDEST PUSH1 0x0 PUSH1 0x20 DUP3 DUP5 SUB SLT ISZERO PUSH2 0x5248 JUMPI PUSH1 0x0 DUP1 REVERT JUMPDEST DUP2 CALLDATALOAD PUSH2 0x3EEC DUP2 PUSH2 0x4F0E JUMP JUMPDEST PUSH4 0x4E487B71 PUSH1 0xE0 SHL PUSH1 0x0 MSTORE PUSH1 0x41 PUSH1 0x4 MSTORE PUSH1 0x24 PUSH1 0x0 REVERT JUMPDEST PUSH1 0x40 MLOAD PUSH2 0x180 DUP2 ADD PUSH1 0x1 PUSH1 0x1 PUSH1 0x40 SHL SUB DUP2 GT DUP3 DUP3 LT OR ISZERO PUSH2 0x528C JUMPI PUSH2 0x528C PUSH2 0x5253 JUMP JUMPDEST PUSH1 0x40 MSTORE SWAP1 JUMP JUMPDEST PUSH1 0x40 MLOAD PUSH1 0x1F DUP3 ADD PUSH1 0x1F NOT AND DUP2 ADD PUSH1 0x1 PUSH1 0x1 PUSH1 0x40 SHL SUB DUP2 GT DUP3 DUP3 LT OR ISZERO PUSH2 0x52BA JUMPI PUSH2 0x52BA PUSH2 0x5253 JUMP JUMPDEST PUSH1 0x40 MSTORE SWAP2 SWAP1 POP JUMP JUMPDEST DUP1 CALLDATALOAD PUSH4 0xFFFFFFFF DUP2 AND DUP2 EQ PUSH2 0x4F2E JUMPI PUSH1 0x0 DUP1 REVERT JUMPDEST DUP1 CALLDATALOAD PUSH6 0xFFFFFFFFFFFF DUP2 AND DUP2 EQ PUSH2 0x4F2E JUMPI PUSH1 0x0 DUP1 REVERT JUMPDEST DUP1 CALLDATALOAD PUSH1 0x4 DUP2 LT PUSH2 0x4F2E JUMPI PUSH1 0x0 DUP1 REVERT JUMPDEST DUP1 ISZERO ISZERO DUP2 EQ PUSH2 0x105D JUMPI PUSH1 0x0 DUP1 REVERT JUMPDEST DUP1 CALLDATALOAD PUSH2 0x4F2E DUP2 PUSH2 0x52FB JUMP JUMPDEST PUSH1 0x0 DUP3 PUSH1 0x1F DUP4 ADD SLT PUSH2 0x5325 JUMPI PUSH1 0x0 DUP1 REVERT JUMPDEST DUP2 CALLDATALOAD PUSH1 0x1 PUSH1 0x1 PUSH1 0x40 SHL SUB DUP2 GT ISZERO PUSH2 0x533E JUMPI PUSH2 0x533E PUSH2 0x5253 JUMP JUMPDEST PUSH2 0x5351 PUSH1 0x1F DUP3 ADD PUSH1 0x1F NOT AND PUSH1 0x20 ADD PUSH2 0x5292 JUMP JUMPDEST DUP2 DUP2 MSTORE DUP5 PUSH1 0x20 DUP4 DUP7 ADD ADD GT ISZERO PUSH2 0x5366 JUMPI PUSH1 0x0 DUP1 REVERT JUMPDEST DUP2 PUSH1 0x20 DUP6 ADD PUSH1 0x20 DUP4 ADD CALLDATACOPY PUSH1 0x0 SWAP2 DUP2 ADD PUSH1 0x20 ADD SWAP2 SWAP1 SWAP2 MSTORE SWAP4 SWAP3 POP POP POP JUMP JUMPDEST PUSH1 0x0 DUP1 PUSH1 0x0 PUSH1 0x60 DUP5 DUP7 SUB SLT ISZERO PUSH2 0x5398 JUMPI PUSH1 0x0 DUP1 REVERT JUMPDEST DUP4 CALLDATALOAD PUSH2 0x53A3 DUP2 PUSH2 0x4F0E JUMP JUMPDEST SWAP3 POP PUSH1 0x20 DUP5 ADD CALLDATALOAD SWAP2 POP PUSH1 0x40 DUP5 ADD CALLDATALOAD PUSH1 0x1 PUSH1 0x1 PUSH1 0x40 SHL SUB DUP1 DUP3 GT ISZERO PUSH2 0x53C6 JUMPI PUSH1 0x0 DUP1 REVERT JUMPDEST SWAP1 DUP6 ADD SWAP1 PUSH2 0x180 DUP3 DUP9 SUB SLT ISZERO PUSH2 0x53DB JUMPI PUSH1 0x0 DUP1 REVERT JUMPDEST PUSH2 0x53E3 PUSH2 0x5269 JUMP JUMPDEST PUSH2 0x53EC DUP4 PUSH2 0x52C2 JUMP JUMPDEST DUP2 MSTORE PUSH2 0x53FA PUSH1 0x20 DUP5 ADD PUSH2 0x52C2 JUMP JUMPDEST PUSH1 0x20 DUP3 ADD MSTORE PUSH2 0x540B PUSH1 0x40 DUP5 ADD PUSH2 0x52D6 JUMP JUMPDEST PUSH1 0x40 DUP3 ADD MSTORE PUSH2 0x541C PUSH1 0x60 DUP5 ADD PUSH2 0x52D6 JUMP JUMPDEST PUSH1 0x60 DUP3 ADD MSTORE PUSH2 0x542D PUSH1 0x80 DUP5 ADD PUSH2 0x52EC JUMP JUMPDEST PUSH1 0x80 DUP3 ADD MSTORE PUSH2 0x543E PUSH1 0xA0 DUP5 ADD PUSH2 0x5309 JUMP JUMPDEST PUSH1 0xA0 DUP3 ADD MSTORE PUSH1 0xC0 DUP4 ADD CALLDATALOAD PUSH1 0xC0 DUP3 ADD MSTORE PUSH1 0xE0 DUP4 ADD CALLDATALOAD DUP3 DUP2 GT ISZERO PUSH2 0x545F JUMPI PUSH1 0x0 DUP1 REVERT JUMPDEST PUSH2 0x546B DUP10 DUP3 DUP7 ADD PUSH2 0x5314 JUMP JUMPDEST PUSH1 0xE0 DUP4 ADD MSTORE POP PUSH2 0x100 DUP4 DUP2 ADD CALLDATALOAD SWAP1 DUP3 ADD MSTORE PUSH2 0x120 SWAP2 POP PUSH2 0x548C DUP3 DUP5 ADD PUSH2 0x4F23 JUMP JUMPDEST DUP3 DUP3 ADD MSTORE PUSH2 0x140 SWAP2 POP PUSH2 0x54A0 DUP3 DUP5 ADD PUSH2 0x4F23 JUMP JUMPDEST DUP3 DUP3 ADD MSTORE PUSH2 0x160 SWAP2 POP PUSH2 0x54B4 DUP3 DUP5 ADD PUSH2 0x4F23 JUMP JUMPDEST DUP3 DUP3 ADD MSTORE DUP1 SWAP4 POP POP POP POP SWAP3 POP SWAP3 POP SWAP3 JUMP JUMPDEST PUSH1 0x20 DUP1 DUP3 MSTORE DUP3 MLOAD DUP3 DUP3 ADD DUP2 SWAP1 MSTORE PUSH1 0x0 SWAP2 SWAP1 DUP5 DUP3 ADD SWAP1 PUSH1 0x40 DUP6 ADD SWAP1 DUP5 JUMPDEST DUP2 DUP2 LT ISZERO PUSH2 0x5506 JUMPI DUP4 MLOAD PUSH1 0x1 PUSH1 0x1 PUSH1 0xA0 SHL SUB AND DUP4 MSTORE SWAP3 DUP5 ADD SWAP3 SWAP2 DUP5 ADD SWAP2 PUSH1 0x1 ADD PUSH2 0x54E1 JUMP JUMPDEST POP SWAP1 SWAP7 SWAP6 POP POP POP POP POP POP JUMP JUMPDEST PUSH1 0x0 DUP1 PUSH1 0x0 PUSH1 0x60 DUP5 DUP7 SUB SLT ISZERO PUSH2 0x5527 JUMPI PUSH1 0x0 DUP1 REVERT JUMPDEST DUP4 CALLDATALOAD PUSH2 0x5532 DUP2 PUSH2 0x4F0E JUMP JUMPDEST SWAP3 POP PUSH1 0x20 DUP5 ADD CALLDATALOAD PUSH2 0x5542 DUP2 PUSH2 0x4F0E JUMP JUMPDEST SWAP3 SWAP6 SWAP3 SWAP5 POP POP POP PUSH1 0x40 SWAP2 SWAP1 SWAP2 ADD CALLDATALOAD SWAP1 JUMP JUMPDEST PUSH1 0x1 PUSH1 0x1 PUSH1 0xA0 SHL SUB SWAP2 SWAP1 SWAP2 AND DUP2 MSTORE PUSH1 0x20 ADD SWAP1 JUMP JUMPDEST PUSH1 0x0 DUP1 PUSH1 0x0 PUSH1 0x60 DUP5 DUP7 SUB SLT ISZERO PUSH2 0x557C JUMPI PUSH1 0x0 DUP1 REVERT JUMPDEST DUP4 CALLDATALOAD PUSH2 0x5587 DUP2 PUSH2 0x4F0E JUMP JUMPDEST SWAP3 POP PUSH1 0x20 DUP5 ADD CALLDATALOAD SWAP2 POP PUSH1 0x40 DUP5 ADD CALLDATALOAD PUSH1 0x1 PUSH1 0x1 PUSH1 0x40 SHL SUB DUP2 GT ISZERO PUSH2 0x55A9 JUMPI PUSH1 0x0 DUP1 REVERT JUMPDEST DUP5 ADD PUSH2 0x180 DUP2 DUP8 SUB SLT ISZERO PUSH2 0x55BC JUMPI PUSH1 0x0 DUP1 REVERT JUMPDEST DUP1 SWAP2 POP POP SWAP3 POP SWAP3 POP SWAP3 JUMP JUMPDEST PUSH1 0x0 DUP1 PUSH1 0x0 DUP1 PUSH1 0x0 DUP1 PUSH1 0x80 DUP8 DUP10 SUB SLT ISZERO PUSH2 0x55E0 JUMPI PUSH1 0x0 DUP1 REVERT JUMPDEST DUP7 CALLDATALOAD PUSH2 0x55EB DUP2 PUSH2 0x4F0E JUMP JUMPDEST SWAP6 POP PUSH1 0x20 DUP8 ADD CALLDATALOAD SWAP5 POP PUSH1 0x40 DUP8 ADD CALLDATALOAD PUSH1 0x1 PUSH1 0x1 PUSH1 0x40 SHL SUB DUP1 DUP3 GT ISZERO PUSH2 0x560E JUMPI PUSH1 0x0 DUP1 REVERT JUMPDEST PUSH2 0x561A DUP11 DUP4 DUP12 ADD PUSH2 0x4F45 JUMP JUMPDEST SWAP1 SWAP7 POP SWAP5 POP PUSH1 0x60 DUP10 ADD CALLDATALOAD SWAP2 POP DUP1 DUP3 GT ISZERO PUSH2 0x5633 JUMPI PUSH1 0x0 DUP1 REVERT JUMPDEST POP PUSH2 0x5640 DUP10 DUP3 DUP11 ADD PUSH2 0x4F45 JUMP JUMPDEST SWAP8 SWAP11 SWAP7 SWAP10 POP SWAP5 SWAP8 POP SWAP3 SWAP6 SWAP4 SWAP5 SWAP3 POP POP POP JUMP JUMPDEST DUP3 DUP2 MSTORE PUSH1 0x40 PUSH1 0x20 DUP3 ADD MSTORE PUSH1 0x0 PUSH2 0x566B PUSH1 0x40 DUP4 ADD DUP5 PUSH2 0x50F9 JUMP JUMPDEST SWAP5 SWAP4 POP POP POP POP JUMP JUMPDEST PUSH1 0x0 DUP1 DUP4 PUSH1 0x1F DUP5 ADD SLT PUSH2 0x5685 JUMPI PUSH1 0x0 DUP1 REVERT JUMPDEST POP DUP2 CALLDATALOAD PUSH1 0x1 PUSH1 0x1 PUSH1 0x40 SHL SUB DUP2 GT ISZERO PUSH2 0x569C JUMPI PUSH1 0x0 DUP1 REVERT JUMPDEST PUSH1 0x20 DUP4 ADD SWAP2 POP DUP4 PUSH1 0x20 DUP3 DUP6 ADD ADD GT ISZERO PUSH2 0x4C40 JUMPI PUSH1 0x0 DUP1 REVERT JUMPDEST PUSH1 0x0 DUP1 PUSH1 0x0 DUP1 PUSH1 0x0 DUP1 PUSH1 0x0 DUP1 PUSH1 0xE0 DUP10 DUP12 SUB SLT ISZERO PUSH2 0x56D0 JUMPI PUSH1 0x0 DUP1 REVERT JUMPDEST DUP9 CALLDATALOAD PUSH2 0x56DB DUP2 PUSH2 0x4F0E JUMP JUMPDEST SWAP8 POP PUSH1 0x20 DUP10 ADD CALLDATALOAD SWAP7 POP PUSH2 0x56F0 PUSH1 0x40 DUP11 ADD PUSH2 0x4F33 JUMP JUMPDEST SWAP6 POP PUSH1 0x60 DUP10 ADD CALLDATALOAD PUSH1 0x1 PUSH1 0x1 PUSH1 0x40 SHL SUB DUP2 GT ISZERO PUSH2 0x570B JUMPI PUSH1 0x0 DUP1 REVERT JUMPDEST PUSH2 0x5717 DUP12 DUP3 DUP13 ADD PUSH2 0x5673 JUMP JUMPDEST SWAP1 SWAP7 POP SWAP5 POP POP PUSH1 0x80 DUP10 ADD CALLDATALOAD SWAP3 POP PUSH1 0xA0 DUP10 ADD CALLDATALOAD SWAP2 POP PUSH1 0xC0 DUP10 ADD CALLDATALOAD PUSH2 0x5027 DUP2 PUSH2 0x4F0E JUMP JUMPDEST PUSH1 0x0 DUP1 PUSH1 0x0 DUP1 PUSH1 0x0 DUP1 PUSH1 0xA0 DUP8 DUP10 SUB SLT ISZERO PUSH2 0x5752 JUMPI PUSH1 0x0 DUP1 REVERT JUMPDEST DUP7 CALLDATALOAD PUSH2 0x575D DUP2 PUSH2 0x4F0E JUMP JUMPDEST SWAP6 POP PUSH1 0x20 DUP8 ADD CALLDATALOAD SWAP5 POP PUSH2 0x5772 PUSH1 0x40 DUP9 ADD PUSH2 0x52EC JUMP JUMPDEST SWAP4 POP PUSH1 0x60 DUP8 ADD CALLDATALOAD PUSH2 0x5782 DUP2 PUSH2 0x52FB JUMP JUMPDEST SWAP3 POP PUSH1 0x80 DUP8 ADD CALLDATALOAD PUSH1 0x1 PUSH1 0x1 PUSH1 0x40 SHL SUB DUP2 GT ISZERO PUSH2 0x579D JUMPI PUSH1 0x0 DUP1 REVERT JUMPDEST PUSH2 0x5640 DUP10 DUP3 DUP11 ADD PUSH2 0x5673 JUMP JUMPDEST PUSH1 0x0 DUP1 PUSH1 0x0 DUP1 PUSH1 0x60 DUP6 DUP8 SUB SLT ISZERO PUSH2 0x57BF JUMPI PUSH1 0x0 DUP1 REVERT JUMPDEST DUP5 CALLDATALOAD PUSH2 0x57CA DUP2 PUSH2 0x4F0E JUMP JUMPDEST SWAP4 POP PUSH1 0x20 DUP6 ADD CALLDATALOAD SWAP3 POP PUSH1 0x40 DUP6 ADD CALLDATALOAD PUSH1 0x1 PUSH1 0x1 PUSH1 0x40 SHL SUB DUP2 GT ISZERO PUSH2 0x57EC JUMPI PUSH1 0x0 DUP1 REVERT JUMPDEST PUSH2 0x57F8 DUP8 DUP3 DUP9 ADD PUSH2 0x5673 JUMP JUMPDEST SWAP6 SWAP9 SWAP5 SWAP8 POP SWAP6 POP POP POP POP JUMP JUMPDEST PUSH1 0x0 DUP1 PUSH1 0x0 PUSH1 0x60 DUP5 DUP7 SUB SLT ISZERO PUSH2 0x5819 JUMPI PUSH1 0x0 DUP1 REVERT JUMPDEST DUP4 CALLDATALOAD PUSH2 0x5824 DUP2 PUSH2 0x4F0E JUMP JUMPDEST SWAP3 POP PUSH1 0x20 DUP5 ADD CALLDATALOAD SWAP2 POP PUSH2 0x5839 PUSH1 0x40 DUP6 ADD PUSH2 0x52C2 JUMP JUMPDEST SWAP1 POP SWAP3 POP SWAP3 POP SWAP3 JUMP JUMPDEST PUSH1 0x20 DUP2 MSTORE PUSH1 0x0 PUSH2 0x3EEC PUSH1 0x20 DUP4 ADD DUP5 PUSH2 0x50C0 JUMP JUMPDEST PUSH1 0x0 DUP1 PUSH1 0x0 DUP1 PUSH1 0x60 DUP6 DUP8 SUB SLT ISZERO PUSH2 0x586B JUMPI PUSH1 0x0 DUP1 REVERT JUMPDEST DUP5 CALLDATALOAD PUSH2 0x5876 DUP2 PUSH2 0x4F0E JUMP JUMPDEST SWAP4 POP PUSH1 0x20 DUP6 ADD CALLDATALOAD SWAP3 POP PUSH1 0x40 DUP6 ADD CALLDATALOAD PUSH1 0x1 PUSH1 0x1 PUSH1 0x40 SHL SUB DUP2 GT ISZERO PUSH2 0x5898 JUMPI PUSH1 0x0 DUP1 REVERT JUMPDEST PUSH2 0x57F8 DUP8 DUP3 DUP9 ADD PUSH2 0x4F45 JUMP JUMPDEST PUSH1 0x20 DUP1 DUP3 MSTORE DUP3 MLOAD DUP3 DUP3 ADD DUP2 SWAP1 MSTORE PUSH1 0x0 SWAP2 SWAP1 DUP5 DUP3 ADD SWAP1 PUSH1 0x40 DUP6 ADD SWAP1 DUP5 JUMPDEST DUP2 DUP2 LT ISZERO PUSH2 0x5506 JUMPI DUP4 MLOAD ISZERO ISZERO DUP4 MSTORE SWAP3 DUP5 ADD SWAP3 SWAP2 DUP5 ADD SWAP2 PUSH1 0x1 ADD PUSH2 0x58C0 JUMP JUMPDEST PUSH1 0x0 DUP1 PUSH1 0x0 DUP1 PUSH1 0x0 DUP1 PUSH1 0xA0 DUP8 DUP10 SUB SLT ISZERO PUSH2 0x58F7 JUMPI PUSH1 0x0 DUP1 REVERT JUMPDEST DUP7 CALLDATALOAD PUSH2 0x5902 DUP2 PUSH2 0x4F0E JUMP JUMPDEST SWAP6 POP PUSH1 0x20 DUP8 ADD CALLDATALOAD SWAP5 POP PUSH2 0x5917 PUSH1 0x40 DUP9 ADD PUSH2 0x52C2 JUMP JUMPDEST SWAP4 POP PUSH1 0x60 DUP8 ADD CALLDATALOAD PUSH1 0x1 PUSH1 0x1 PUSH1 0x40 SHL SUB DUP2 GT ISZERO PUSH2 0x5932 JUMPI PUSH1 0x0 DUP1 REVERT JUMPDEST PUSH2 0x593E DUP10 DUP3 DUP11 ADD PUSH2 0x4F45 JUMP JUMPDEST SWAP1 SWAP5 POP SWAP3 POP POP PUSH1 0x80 DUP8 ADD CALLDATALOAD PUSH2 0x5952 DUP2 PUSH2 0x4F0E JUMP JUMPDEST DUP1 SWAP2 POP POP SWAP3 SWAP6 POP SWAP3 SWAP6 POP SWAP3 SWAP6 JUMP JUMPDEST PUSH1 0x20 DUP1 DUP3 MSTORE PUSH1 0x1A SWAP1 DUP3 ADD MSTORE PUSH26 0x4D75737420757365207369676E6174757265206D696E74696E67 PUSH1 0x30 SHL PUSH1 0x40 DUP3 ADD MSTORE PUSH1 0x60 ADD SWAP1 JUMP JUMPDEST PUSH4 0x4E487B71 PUSH1 0xE0 SHL PUSH1 0x0 MSTORE PUSH1 0x11 PUSH1 0x4 MSTORE PUSH1 0x24 PUSH1 0x0 REVERT JUMPDEST PUSH4 0xFFFFFFFF DUP2 DUP2 AND DUP4 DUP3 AND ADD SWAP1 DUP1 DUP3 GT ISZERO PUSH2 0x4833 JUMPI PUSH2 0x4833 PUSH2 0x5994 JUMP JUMPDEST PUSH1 0x20 DUP1 DUP3 MSTORE PUSH1 0x21 SWAP1 DUP3 ADD MSTORE PUSH32 0x546F6F206D616E792072657175657374656420666F72207468697320636C6169 PUSH1 0x40 DUP3 ADD MSTORE PUSH1 0x6D PUSH1 0xF8 SHL PUSH1 0x60 DUP3 ADD MSTORE PUSH1 0x80 ADD SWAP1 JUMP JUMPDEST PUSH4 0xFFFFFFFF DUP3 DUP2 AND DUP3 DUP3 AND SUB SWAP1 DUP1 DUP3 GT ISZERO PUSH2 0x4833 JUMPI PUSH2 0x4833 PUSH2 0x5994 JUMP JUMPDEST DUP1 DUP3 ADD DUP1 DUP3 GT ISZERO PUSH2 0x5B7 JUMPI PUSH2 0x5B7 PUSH2 0x5994 JUMP JUMPDEST PUSH4 0x4E487B71 PUSH1 0xE0 SHL PUSH1 0x0 MSTORE PUSH1 0x32 PUSH1 0x4 MSTORE PUSH1 0x24 PUSH1 0x0 REVERT JUMPDEST PUSH1 0x1 PUSH1 0x1 PUSH1 0xA0 SHL SUB DUP4 AND DUP2 MSTORE PUSH1 0x40 PUSH1 0x20 DUP1 DUP4 ADD DUP3 SWAP1 MSTORE DUP4 MLOAD SWAP2 DUP4 ADD DUP3 SWAP1 MSTORE PUSH1 0x0 SWAP2 DUP5 DUP3 ADD SWAP2 SWAP1 PUSH1 0x60 DUP6 ADD SWAP1 DUP5 JUMPDEST DUP2 DUP2 LT ISZERO PUSH2 0x5AA0 JUMPI DUP5 MLOAD PUSH1 0x1 PUSH1 0x1 PUSH1 0x50 SHL SUB AND DUP4 MSTORE SWAP4 DUP4 ADD SWAP4 SWAP2 DUP4 ADD SWAP2 PUSH1 0x1 ADD PUSH2 0x5A7B JUMP JUMPDEST POP SWAP1 SWAP8 SWAP7 POP POP POP POP POP POP POP JUMP JUMPDEST PUSH1 0x0 PUSH1 0x20 DUP1 DUP4 DUP6 SUB SLT ISZERO PUSH2 0x5AC0 JUMPI PUSH1 0x0 DUP1 REVERT JUMPDEST DUP3 MLOAD PUSH1 0x1 PUSH1 0x1 PUSH1 0x40 SHL SUB DUP1 DUP3 GT ISZERO PUSH2 0x5AD7 JUMPI PUSH1 0x0 DUP1 REVERT JUMPDEST DUP2 DUP6 ADD SWAP2 POP DUP6 PUSH1 0x1F DUP4 ADD SLT PUSH2 0x5AEB JUMPI PUSH1 0x0 DUP1 REVERT JUMPDEST DUP2 MLOAD DUP2 DUP2 GT ISZERO PUSH2 0x5AFD JUMPI PUSH2 0x5AFD PUSH2 0x5253 JUMP JUMPDEST DUP1 PUSH1 0x5 SHL SWAP2 POP PUSH2 0x5B0E DUP5 DUP4 ADD PUSH2 0x5292 JUMP JUMPDEST DUP2 DUP2 MSTORE SWAP2 DUP4 ADD DUP5 ADD SWAP2 DUP5 DUP2 ADD SWAP1 DUP9 DUP5 GT ISZERO PUSH2 0x5B28 JUMPI PUSH1 0x0 DUP1 REVERT JUMPDEST SWAP4 DUP6 ADD SWAP4 JUMPDEST DUP4 DUP6 LT ISZERO PUSH2 0x5B46 JUMPI DUP5 MLOAD DUP3 MSTORE SWAP4 DUP6 ADD SWAP4 SWAP1 DUP6 ADD SWAP1 PUSH2 0x5B2D JUMP JUMPDEST SWAP9 SWAP8 POP POP POP POP POP POP POP POP JUMP JUMPDEST PUSH1 0x1 PUSH1 0x1 PUSH1 0xA0 SHL SUB SWAP3 SWAP1 SWAP3 AND DUP3 MSTORE PUSH2 0xFFFF AND PUSH1 0x20 DUP3 ADD MSTORE PUSH1 0x40 ADD SWAP1 JUMP JUMPDEST PUSH2 0xFFFF SWAP4 SWAP1 SWAP4 AND DUP4 MSTORE PUSH1 0x1 PUSH1 0x1 PUSH1 0xA0 SHL SUB SWAP2 DUP3 AND PUSH1 0x20 DUP5 ADD MSTORE AND PUSH1 0x40 DUP3 ADD MSTORE PUSH1 0x60 ADD SWAP1 JUMP JUMPDEST PUSH1 0x1 DUP2 DUP2 SHR SWAP1 DUP3 AND DUP1 PUSH2 0x5BA8 JUMPI PUSH1 0x7F DUP3 AND SWAP2 POP JUMPDEST PUSH1 0x20 DUP3 LT DUP2 SUB PUSH2 0x5BC8 JUMPI PUSH4 0x4E487B71 PUSH1 0xE0 SHL PUSH1 0x0 MSTORE PUSH1 0x22 PUSH1 0x4 MSTORE PUSH1 0x24 PUSH1 0x0 REVERT JUMPDEST POP SWAP2 SWAP1 POP JUMP JUMPDEST PUSH1 0x0 PUSH1 0x20 DUP3 DUP5 SUB SLT ISZERO PUSH2 0x5BE0 JUMPI PUSH1 0x0 DUP1 REVERT JUMPDEST DUP2 MLOAD PUSH2 0x3EEC DUP2 PUSH2 0x52FB JUMP JUMPDEST PUSH1 0x20 DUP1 DUP3 MSTORE PUSH1 0x2B SWAP1 DUP3 ADD MSTORE PUSH32 0x57616C6C6574206973206E6F7420616E2061646D696E6973747261746F722066 PUSH1 0x40 DUP3 ADD MSTORE PUSH11 0x1BDC8818DBDB9D1C9858DD PUSH1 0xAA SHL PUSH1 0x60 DUP3 ADD MSTORE PUSH1 0x80 ADD SWAP1 JUMP JUMPDEST PUSH1 0x20 DUP1 DUP3 MSTORE PUSH1 0x15 SWAP1 DUP3 ADD MSTORE PUSH21 0x10DB185A5B481B9BDD081A5B9A5D1A585B1A5E9959 PUSH1 0x5A SHL PUSH1 0x40 DUP3 ADD MSTORE PUSH1 0x60 ADD SWAP1 JUMP JUMPDEST PUSH1 0x20 DUP1 DUP3 MSTORE PUSH1 0x23 SWAP1 DUP3 ADD MSTORE PUSH32 0x43616E6E6F742073657420696E76616C69642073746F726167652070726F746F PUSH1 0x40 DUP3 ADD MSTORE PUSH3 0x18DBDB PUSH1 0xEA SHL PUSH1 0x60 DUP3 ADD MSTORE PUSH1 0x80 ADD SWAP1 JUMP JUMPDEST PUSH1 0x20 DUP1 DUP3 MSTORE PUSH1 0x36 SWAP1 DUP3 ADD MSTORE PUSH32 0x43616E6E6F742068617665207374617274446174652067726561746572207468 PUSH1 0x40 DUP3 ADD MSTORE PUSH22 0x616E206F7220657175616C20746F20656E6444617465 PUSH1 0x50 SHL PUSH1 0x60 DUP3 ADD MSTORE PUSH1 0x80 ADD SWAP1 JUMP JUMPDEST PUSH1 0x1F DUP3 GT ISZERO PUSH2 0x35B2 JUMPI PUSH1 0x0 DUP2 DUP2 MSTORE PUSH1 0x20 DUP2 KECCAK256 PUSH1 0x1F DUP6 ADD PUSH1 0x5 SHR DUP2 ADD PUSH1 0x20 DUP7 LT ISZERO PUSH2 0x5D25 JUMPI POP DUP1 JUMPDEST PUSH1 0x1F DUP6 ADD PUSH1 0x5 SHR DUP3 ADD SWAP2 POP JUMPDEST DUP2 DUP2 LT ISZERO PUSH2 0x5D44 JUMPI DUP3 DUP2 SSTORE PUSH1 0x1 ADD PUSH2 0x5D31 JUMP JUMPDEST POP POP POP POP POP POP JUMP JUMPDEST PUSH1 0x0 NOT PUSH1 0x3 DUP4 SWAP1 SHL SHR NOT AND PUSH1 0x1 SWAP2 SWAP1 SWAP2 SHL OR SWAP1 JUMP JUMPDEST DUP2 MLOAD PUSH1 0x1 PUSH1 0x1 PUSH1 0x40 SHL SUB DUP2 GT ISZERO PUSH2 0x5D7A JUMPI PUSH2 0x5D7A PUSH2 0x5253 JUMP JUMPDEST PUSH2 0x5D8E DUP2 PUSH2 0x5D88 DUP5 SLOAD PUSH2 0x5B94 JUMP JUMPDEST DUP5 PUSH2 0x5CFE JUMP JUMPDEST PUSH1 0x20 DUP1 PUSH1 0x1F DUP4 GT PUSH1 0x1 DUP2 EQ PUSH2 0x5DBD JUMPI PUSH1 0x0 DUP5 ISZERO PUSH2 0x5DAB JUMPI POP DUP6 DUP4 ADD MLOAD JUMPDEST PUSH2 0x5DB5 DUP6 DUP3 PUSH2 0x5D4C JUMP JUMPDEST DUP7 SSTORE POP PUSH2 0x5D44 JUMP JUMPDEST PUSH1 0x0 DUP6 DUP2 MSTORE PUSH1 0x20 DUP2 KECCAK256 PUSH1 0x1F NOT DUP7 AND SWAP2 JUMPDEST DUP3 DUP2 LT ISZERO PUSH2 0x5DEC JUMPI DUP9 DUP7 ADD MLOAD DUP3 SSTORE SWAP5 DUP5 ADD SWAP5 PUSH1 0x1 SWAP1 SWAP2 ADD SWAP1 DUP5 ADD PUSH2 0x5DCD JUMP JUMPDEST POP DUP6 DUP3 LT ISZERO PUSH2 0x5E0A JUMPI DUP8 DUP6 ADD MLOAD PUSH1 0x0 NOT PUSH1 0x3 DUP9 SWAP1 SHL PUSH1 0xF8 AND SHR NOT AND DUP2 SSTORE JUMPDEST POP POP POP POP POP PUSH1 0x1 SWAP1 DUP2 SHL ADD SWAP1 SSTORE POP JUMP JUMPDEST PUSH1 0x0 PUSH1 0x1 DUP3 ADD PUSH2 0x5E2C JUMPI PUSH2 0x5E2C PUSH2 0x5994 JUMP JUMPDEST POP PUSH1 0x1 ADD SWAP1 JUMP JUMPDEST PUSH1 0x0 PUSH1 0x20 DUP3 DUP5 SUB SLT ISZERO PUSH2 0x5E45 JUMPI PUSH1 0x0 DUP1 REVERT JUMPDEST PUSH2 0x3EEC DUP3 PUSH2 0x52EC JUMP JUMPDEST PUSH1 0x0 PUSH1 0x20 DUP3 DUP5 SUB SLT ISZERO PUSH2 0x5E60 JUMPI PUSH1 0x0 DUP1 REVERT JUMPDEST PUSH2 0x3EEC DUP3 PUSH2 0x52D6 JUMP JUMPDEST PUSH1 0x0 PUSH1 0x20 DUP3 DUP5 SUB SLT ISZERO PUSH2 0x5E7B JUMPI PUSH1 0x0 DUP1 REVERT JUMPDEST PUSH2 0x3EEC DUP3 PUSH2 0x52C2 JUMP JUMPDEST PUSH1 0x0 PUSH1 0x20 DUP3 DUP5 SUB SLT ISZERO PUSH2 0x5E96 JUMPI PUSH1 0x0 DUP1 REVERT JUMPDEST POP MLOAD SWAP2 SWAP1 POP JUMP JUMPDEST PUSH1 0x0 PUSH1 0x20 DUP3 DUP5 SUB SLT ISZERO PUSH2 0x5EAF JUMPI PUSH1 0x0 DUP1 REVERT JUMPDEST DUP2 CALLDATALOAD PUSH2 0x3EEC DUP2 PUSH2 0x52FB JUMP JUMPDEST PUSH1 0x0 DUP1 DUP4 CALLDATALOAD PUSH1 0x1E NOT DUP5 CALLDATASIZE SUB ADD DUP2 SLT PUSH2 0x5ED1 JUMPI PUSH1 0x0 DUP1 REVERT JUMPDEST DUP4 ADD DUP1 CALLDATALOAD SWAP2 POP PUSH1 0x1 PUSH1 0x1 PUSH1 0x40 SHL SUB DUP3 GT ISZERO PUSH2 0x5EEB JUMPI PUSH1 0x0 DUP1 REVERT JUMPDEST PUSH1 0x20 ADD SWAP2 POP CALLDATASIZE DUP2 SWAP1 SUB DUP3 SGT ISZERO PUSH2 0x4C40 JUMPI PUSH1 0x0 DUP1 REVERT JUMPDEST PUSH1 0x0 PUSH1 0x20 DUP3 DUP5 SUB SLT ISZERO PUSH2 0x5F12 JUMPI PUSH1 0x0 DUP1 REVERT JUMPDEST PUSH2 0x3EEC DUP3 PUSH2 0x4F33 JUMP JUMPDEST DUP2 DUP2 SUB DUP2 DUP2 GT ISZERO PUSH2 0x5B7 JUMPI PUSH2 0x5B7 PUSH2 0x5994 JUMP JUMPDEST PUSH1 0x20 DUP1 DUP3 MSTORE PUSH1 0x24 SWAP1 DUP3 ADD MSTORE PUSH32 0x41646D696E436F6E74726F6C3A204D757374206265206F776E6572206F722061 PUSH1 0x40 DUP3 ADD MSTORE PUSH4 0x3236B4B7 PUSH1 0xE1 SHL PUSH1 0x60 DUP3 ADD MSTORE PUSH1 0x80 ADD SWAP1 JUMP JUMPDEST PUSH1 0x0 PUSH1 0x20 DUP3 DUP5 SUB SLT ISZERO PUSH2 0x5F84 JUMPI PUSH1 0x0 DUP1 REVERT JUMPDEST DUP2 MLOAD PUSH1 0x1 PUSH1 0x1 PUSH1 0x50 SHL SUB DUP2 AND DUP2 EQ PUSH2 0x3EEC JUMPI PUSH1 0x0 DUP1 REVERT JUMPDEST PUSH1 0x1 PUSH1 0x1 PUSH1 0x40 SHL SUB DUP4 GT ISZERO PUSH2 0x5FB2 JUMPI PUSH2 0x5FB2 PUSH2 0x5253 JUMP JUMPDEST PUSH2 0x5FC6 DUP4 PUSH2 0x5FC0 DUP4 SLOAD PUSH2 0x5B94 JUMP JUMPDEST DUP4 PUSH2 0x5CFE JUMP JUMPDEST PUSH1 0x0 PUSH1 0x1F DUP5 GT PUSH1 0x1 DUP2 EQ PUSH2 0x5FF4 JUMPI PUSH1 0x0 DUP6 ISZERO PUSH2 0x5FE2 JUMPI POP DUP4 DUP3 ADD CALLDATALOAD JUMPDEST PUSH2 0x5FEC DUP7 DUP3 PUSH2 0x5D4C JUMP JUMPDEST DUP5 SSTORE POP PUSH2 0x604E JUMP JUMPDEST PUSH1 0x0 DUP4 DUP2 MSTORE PUSH1 0x20 SWAP1 KECCAK256 PUSH1 0x1F NOT DUP7 AND SWAP1 DUP4 JUMPDEST DUP3 DUP2 LT ISZERO PUSH2 0x6025 JUMPI DUP7 DUP6 ADD CALLDATALOAD DUP3 SSTORE PUSH1 0x20 SWAP5 DUP6 ADD SWAP5 PUSH1 0x1 SWAP1 SWAP3 ADD SWAP2 ADD PUSH2 0x6005 JUMP JUMPDEST POP DUP7 DUP3 LT ISZERO PUSH2 0x6042 JUMPI PUSH1 0x0 NOT PUSH1 0xF8 DUP9 PUSH1 0x3 SHL AND SHR NOT DUP5 DUP8 ADD CALLDATALOAD AND DUP2 SSTORE JUMPDEST POP POP PUSH1 0x1 DUP6 PUSH1 0x1 SHL ADD DUP4 SSTORE JUMPDEST POP POP POP POP POP JUMP JUMPDEST PUSH1 0x0 DUP1 DUP6 SLOAD PUSH2 0x6063 DUP2 PUSH2 0x5B94 JUMP JUMPDEST PUSH1 0x1 DUP3 DUP2 AND DUP1 ISZERO PUSH2 0x607B JUMPI PUSH1 0x1 DUP2 EQ PUSH2 0x6090 JUMPI PUSH2 0x60BF JUMP JUMPDEST PUSH1 0xFF NOT DUP5 AND DUP8 MSTORE DUP3 ISZERO ISZERO DUP4 MUL DUP8 ADD SWAP5 POP PUSH2 0x60BF JUMP JUMPDEST DUP10 PUSH1 0x0 MSTORE PUSH1 0x20 DUP1 PUSH1 0x0 KECCAK256 PUSH1 0x0 JUMPDEST DUP6 DUP2 LT ISZERO PUSH2 0x60B6 JUMPI DUP2 SLOAD DUP11 DUP3 ADD MSTORE SWAP1 DUP5 ADD SWAP1 DUP3 ADD PUSH2 0x609D JUMP JUMPDEST POP POP POP DUP3 DUP8 ADD SWAP5 POP JUMPDEST POP POP POP POP DUP4 DUP6 DUP3 CALLDATACOPY PUSH1 0x0 SWAP4 ADD SWAP3 DUP4 MSTORE POP SWAP1 SWAP4 SWAP3 POP POP POP JUMP JUMPDEST PUSH1 0x0 DUP4 MLOAD PUSH2 0x60E9 DUP2 DUP5 PUSH1 0x20 DUP9 ADD PUSH2 0x509C JUMP JUMPDEST DUP4 MLOAD SWAP1 DUP4 ADD SWAP1 PUSH2 0x60FD DUP2 DUP4 PUSH1 0x20 DUP9 ADD PUSH2 0x509C JUMP JUMPDEST ADD SWAP5 SWAP4 POP POP POP POP JUMP JUMPDEST PUSH1 0x0 DUP4 MLOAD PUSH2 0x6118 DUP2 DUP5 PUSH1 0x20 DUP9 ADD PUSH2 0x509C JUMP JUMPDEST PUSH1 0x2F PUSH1 0xF8 SHL SWAP1 DUP4 ADD SWAP1 DUP2 MSTORE DUP4 MLOAD PUSH2 0x6136 DUP2 PUSH1 0x1 DUP5 ADD PUSH1 0x20 DUP9 ADD PUSH2 0x509C JUMP JUMPDEST ADD PUSH1 0x1 ADD SWAP5 SWAP4 POP POP POP POP JUMP JUMPDEST PUSH1 0x20 DUP1 DUP3 MSTORE PUSH1 0x1E SWAP1 DUP3 ADD MSTORE PUSH32 0x4661696C656420746F207472616E7366657220746F2072656365697665720000 PUSH1 0x40 DUP3 ADD MSTORE PUSH1 0x60 ADD SWAP1 JUMP JUMPDEST PUSH1 0x0 PUSH4 0xFFFFFFFF DUP1 DUP4 AND DUP2 DUP2 SUB PUSH2 0x6192 JUMPI PUSH2 0x6192 PUSH2 0x5994 JUMP JUMPDEST PUSH1 0x1 ADD SWAP4 SWAP3 POP POP POP JUMP JUMPDEST PUSH1 0x20 DUP1 DUP3 MSTORE PUSH1 0xE SWAP1 DUP3 ADD MSTORE PUSH14 0x436C61696D20696E616374697665 PUSH1 0x90 SHL PUSH1 0x40 DUP3 ADD MSTORE PUSH1 0x60 ADD SWAP1 JUMP JUMPDEST PUSH1 0x20 DUP1 DUP3 MSTORE PUSH1 0xD SWAP1 DUP3 ADD MSTORE PUSH13 0x125B9D985B1A59081A5B9C1D5D PUSH1 0x9A SHL PUSH1 0x40 DUP3 ADD MSTORE PUSH1 0x60 ADD SWAP1 JUMP JUMPDEST PUSH1 0x0 DUP1 DUP4 CALLDATALOAD PUSH1 0x1E NOT DUP5 CALLDATASIZE SUB ADD DUP2 SLT PUSH2 0x6202 JUMPI PUSH1 0x0 DUP1 REVERT JUMPDEST DUP4 ADD DUP1 CALLDATALOAD SWAP2 POP PUSH1 0x1 PUSH1 0x1 PUSH1 0x40 SHL SUB DUP3 GT ISZERO PUSH2 0x621C JUMPI PUSH1 0x0 DUP1 REVERT JUMPDEST PUSH1 0x20 ADD SWAP2 POP PUSH1 0x5 DUP2 SWAP1 SHL CALLDATASIZE SUB DUP3 SGT ISZERO PUSH2 0x4C40 JUMPI PUSH1 0x0 DUP1 REVERT JUMPDEST DUP1 DUP3 MUL DUP2 ISZERO DUP3 DUP3 DIV DUP5 EQ OR PUSH2 0x5B7 JUMPI PUSH2 0x5B7 PUSH2 0x5994 JUMP JUMPDEST PUSH1 0x60 SWAP3 SWAP1 SWAP3 SHL PUSH1 0x1 PUSH1 0x1 PUSH1 0x60 SHL SUB NOT AND DUP3 MSTORE PUSH1 0xE0 SHL PUSH1 0x1 PUSH1 0x1 PUSH1 0xE0 SHL SUB NOT AND PUSH1 0x14 DUP3 ADD MSTORE PUSH1 0x18 ADD SWAP1 JUMP JUMPDEST PUSH4 0x4E487B71 PUSH1 0xE0 SHL PUSH1 0x0 MSTORE PUSH1 0x31 PUSH1 0x4 MSTORE PUSH1 0x24 PUSH1 0x0 REVERT INVALID 0x4D PUSH2 0x7869 PUSH14 0x756D20746F6B656E7320616C7265 PUSH2 0x6479 KECCAK256 PUSH14 0x696E74656420666F657336AF9BB6 0xC5 SAR PUSH1 0xC0 SLOAD SWAP2 POP DUP14 PUSH30 0x3026A24EE549D7A0AF42E44C75BFAEC47CA264697066735822122097BC5E MULMOD EXTCODESIZE SWAP12 0xE4 PUSH9 0x990701163EE0BD9500 0xA9 SWAP9 SDIV 0x1E 0x5E POP 0x5D DELEGATECALL SLT 0xC2 0xA6 SWAP6 0xF9 0x5F CALLER PUSH5 0x736F6C6343 STOP ADDMOD SLT STOP CALLER "
		},
		"gasEstimates": {
			"creation": {
				"codeDepositCost": "5069000",
				"executionCost": "infinite",
				"totalCost": "infinite"
			},
			"external": {
				"DELEGATION_REGISTRY()": "infinite",
				"MEMBERSHIP_ADDRESS()": "2537",
				"MINT_FEE()": "679",
				"MINT_FEE_MERKLE()": "635",
				"airdrop(address,uint256,address[],uint16[])": "infinite",
				"approveAdmin(address)": "infinite",
				"checkMintIndex(address,uint256,uint32)": "infinite",
				"checkMintIndices(address,uint256,uint32[])": "infinite",
				"extendTokenURI(address,uint256,string)": "infinite",
				"getAdmins()": "infinite",
				"getClaim(address,uint256)": "infinite",
				"getClaimForToken(address,uint256)": "infinite",
				"getTotalMints(address,address,uint256)": "infinite",
				"initializeClaim(address,uint256,(uint32,uint32,uint48,uint48,uint8,bool,bytes32,string,uint256,address,address,address))": "infinite",
				"isAdmin(address)": "infinite",
				"mint(address,uint256,uint32,bytes32[],address)": "infinite",
				"mintBatch(address,uint256,uint16,uint32[],bytes32[][],address)": "infinite",
				"mintProxy(address,uint256,uint16,uint32[],bytes32[][],address)": "infinite",
				"mintSignature(address,uint256,uint16,bytes,bytes32,bytes32,address)": "infinite",
				"owner()": "2744",
				"renounceOwnership()": "infinite",
				"revokeAdmin(address)": "infinite",
				"setMembershipAddress(address)": "infinite",
				"supportsInterface(bytes4)": "569",
				"tokenURI(address,uint256)": "infinite",
				"transferOwnership(address)": "infinite",
				"updateClaim(address,uint256,(uint32,uint32,uint48,uint48,uint8,bool,bytes32,string,uint256,address,address,address))": "infinite",
				"updateTokenURIParams(address,uint256,uint8,bool,string)": "infinite",
				"withdraw(address,uint256)": "infinite"
			},
			"internal": {
				"_getClaim(address,uint256)": "infinite"
			}
		},
		"methodIdentifiers": {
			"DELEGATION_REGISTRY()": "4daadff7",
			"MEMBERSHIP_ADDRESS()": "4baa62bf",
			"MINT_FEE()": "d7bf81a3",
			"MINT_FEE_MERKLE()": "cb799716",
			"airdrop(address,uint256,address[],uint16[])": "5f2f5129",
			"approveAdmin(address)": "6d73e669",
			"checkMintIndex(address,uint256,uint32)": "cda08536",
			"checkMintIndices(address,uint256,uint32[])": "f8a6137b",
			"extendTokenURI(address,uint256,string)": "b93aa86c",
			"getAdmins()": "31ae450b",
			"getClaim(address,uint256)": "0f79ab39",
			"getClaimForToken(address,uint256)": "895696f2",
			"getTotalMints(address,address,uint256)": "42f3bef4",
			"initializeClaim(address,uint256,(uint32,uint32,uint48,uint48,uint8,bool,bytes32,string,uint256,address,address,address))": "5816b99c",
			"isAdmin(address)": "24d7806c",
			"mint(address,uint256,uint32,bytes32[],address)": "fa2b068f",
			"mintBatch(address,uint256,uint16,uint32[],bytes32[][],address)": "26c858a4",
			"mintProxy(address,uint256,uint16,uint32[],bytes32[][],address)": "07591acc",
			"mintSignature(address,uint256,uint16,bytes,bytes32,bytes32,address)": "8b220bd0",
			"owner()": "8da5cb5b",
			"renounceOwnership()": "715018a6",
			"revokeAdmin(address)": "2d345670",
			"setMembershipAddress(address)": "7ab39392",
			"supportsInterface(bytes4)": "01ffc9a7",
			"tokenURI(address,uint256)": "e9dc6375",
			"transferOwnership(address)": "f2fde38b",
			"updateClaim(address,uint256,(uint32,uint32,uint48,uint48,uint8,bool,bytes32,string,uint256,address,address,address))": "2ff38106",
			"updateTokenURIParams(address,uint256,uint8,bool,string)": "99c14347",
			"withdraw(address,uint256)": "f3fef3a3"
		}
	},
	"abi": [
		{
			"inputs": [
				{
					"internalType": "address",
					"name": "initialOwner",
					"type": "address"
				},
				{
					"internalType": "address",
					"name": "delegationRegistry",
					"type": "address"
				}
			],
			"stateMutability": "nonpayable",
			"type": "constructor"
		},
		{
			"anonymous": false,
			"inputs": [
				{
					"indexed": true,
					"internalType": "address",
					"name": "account",
					"type": "address"
				},
				{
					"indexed": true,
					"internalType": "address",
					"name": "sender",
					"type": "address"
				}
			],
			"name": "AdminApproved",
			"type": "event"
		},
		{
			"anonymous": false,
			"inputs": [
				{
					"indexed": true,
					"internalType": "address",
					"name": "account",
					"type": "address"
				},
				{
					"indexed": true,
					"internalType": "address",
					"name": "sender",
					"type": "address"
				}
			],
			"name": "AdminRevoked",
			"type": "event"
		},
		{
			"anonymous": false,
			"inputs": [
				{
					"indexed": true,
					"internalType": "address",
					"name": "creatorContract",
					"type": "address"
				},
				{
					"indexed": true,
					"internalType": "uint256",
					"name": "instanceId",
					"type": "uint256"
				},
				{
					"indexed": false,
					"internalType": "address",
					"name": "initializer",
					"type": "address"
				}
			],
			"name": "ClaimInitialized",
			"type": "event"
		},
		{
			"anonymous": false,
			"inputs": [
				{
					"indexed": true,
					"internalType": "address",
					"name": "creatorContract",
					"type": "address"
				},
				{
					"indexed": true,
					"internalType": "uint256",
					"name": "instanceId",
					"type": "uint256"
				}
			],
			"name": "ClaimMint",
			"type": "event"
		},
		{
			"anonymous": false,
			"inputs": [
				{
					"indexed": true,
					"internalType": "address",
					"name": "creatorContract",
					"type": "address"
				},
				{
					"indexed": true,
					"internalType": "uint256",
					"name": "instanceId",
					"type": "uint256"
				},
				{
					"indexed": false,
					"internalType": "uint16",
					"name": "mintCount",
					"type": "uint16"
				}
			],
			"name": "ClaimMintBatch",
			"type": "event"
		},
		{
			"anonymous": false,
			"inputs": [
				{
					"indexed": true,
					"internalType": "address",
					"name": "creatorContract",
					"type": "address"
				},
				{
					"indexed": true,
					"internalType": "uint256",
					"name": "instanceId",
					"type": "uint256"
				},
				{
					"indexed": false,
					"internalType": "uint16",
					"name": "mintCount",
					"type": "uint16"
				},
				{
					"indexed": false,
					"internalType": "address",
					"name": "proxy",
					"type": "address"
				},
				{
					"indexed": false,
					"internalType": "address",
					"name": "mintFor",
					"type": "address"
				}
			],
			"name": "ClaimMintProxy",
			"type": "event"
		},
		{
			"anonymous": false,
			"inputs": [
				{
					"indexed": true,
					"internalType": "address",
					"name": "creatorContract",
					"type": "address"
				},
				{
					"indexed": true,
					"internalType": "uint256",
					"name": "instanceId",
					"type": "uint256"
				},
				{
					"indexed": false,
					"internalType": "uint16",
					"name": "mintCount",
					"type": "uint16"
				},
				{
					"indexed": false,
					"internalType": "address",
					"name": "proxy",
					"type": "address"
				},
				{
					"indexed": false,
					"internalType": "address",
					"name": "mintFor",
					"type": "address"
				}
			],
			"name": "ClaimMintSignature",
			"type": "event"
		},
		{
			"anonymous": false,
			"inputs": [
				{
					"indexed": true,
					"internalType": "address",
					"name": "creatorContract",
					"type": "address"
				},
				{
					"indexed": true,
					"internalType": "uint256",
					"name": "instanceId",
					"type": "uint256"
				}
			],
			"name": "ClaimUpdated",
			"type": "event"
		},
		{
			"anonymous": false,
			"inputs": [
				{
					"indexed": true,
					"internalType": "address",
					"name": "previousOwner",
					"type": "address"
				},
				{
					"indexed": true,
					"internalType": "address",
					"name": "newOwner",
					"type": "address"
				}
			],
			"name": "OwnershipTransferred",
			"type": "event"
		},
		{
			"inputs": [],
			"name": "DELEGATION_REGISTRY",
			"outputs": [
				{
					"internalType": "address",
					"name": "",
					"type": "address"
				}
			],
			"stateMutability": "view",
			"type": "function"
		},
		{
			"inputs": [],
			"name": "MEMBERSHIP_ADDRESS",
			"outputs": [
				{
					"internalType": "address",
					"name": "",
					"type": "address"
				}
			],
			"stateMutability": "view",
			"type": "function"
		},
		{
			"inputs": [],
			"name": "MINT_FEE",
			"outputs": [
				{
					"internalType": "uint256",
					"name": "",
					"type": "uint256"
				}
			],
			"stateMutability": "view",
			"type": "function"
		},
		{
			"inputs": [],
			"name": "MINT_FEE_MERKLE",
			"outputs": [
				{
					"internalType": "uint256",
					"name": "",
					"type": "uint256"
				}
			],
			"stateMutability": "view",
			"type": "function"
		},
		{
			"inputs": [
				{
					"internalType": "address",
					"name": "creatorContractAddress",
					"type": "address"
				},
				{
					"internalType": "uint256",
					"name": "instanceId",
					"type": "uint256"
				},
				{
					"internalType": "address[]",
					"name": "recipients",
					"type": "address[]"
				},
				{
					"internalType": "uint16[]",
					"name": "amounts",
					"type": "uint16[]"
				}
			],
			"name": "airdrop",
			"outputs": [],
			"stateMutability": "nonpayable",
			"type": "function"
		},
		{
			"inputs": [
				{
					"internalType": "address",
					"name": "admin",
					"type": "address"
				}
			],
			"name": "approveAdmin",
			"outputs": [],
			"stateMutability": "nonpayable",
			"type": "function"
		},
		{
			"inputs": [
				{
					"internalType": "address",
					"name": "creatorContractAddress",
					"type": "address"
				},
				{
					"internalType": "uint256",
					"name": "instanceId",
					"type": "uint256"
				},
				{
					"internalType": "uint32",
					"name": "mintIndex",
					"type": "uint32"
				}
			],
			"name": "checkMintIndex",
			"outputs": [
				{
					"internalType": "bool",
					"name": "",
					"type": "bool"
				}
			],
			"stateMutability": "view",
			"type": "function"
		},
		{
			"inputs": [
				{
					"internalType": "address",
					"name": "creatorContractAddress",
					"type": "address"
				},
				{
					"internalType": "uint256",
					"name": "instanceId",
					"type": "uint256"
				},
				{
					"internalType": "uint32[]",
					"name": "mintIndices",
					"type": "uint32[]"
				}
			],
			"name": "checkMintIndices",
			"outputs": [
				{
					"internalType": "bool[]",
					"name": "minted",
					"type": "bool[]"
				}
			],
			"stateMutability": "view",
			"type": "function"
		},
		{
			"inputs": [
				{
					"internalType": "address",
					"name": "creatorContractAddress",
					"type": "address"
				},
				{
					"internalType": "uint256",
					"name": "instanceId",
					"type": "uint256"
				},
				{
					"internalType": "string",
					"name": "locationChunk",
					"type": "string"
				}
			],
			"name": "extendTokenURI",
			"outputs": [],
			"stateMutability": "nonpayable",
			"type": "function"
		},
		{
			"inputs": [],
			"name": "getAdmins",
			"outputs": [
				{
					"internalType": "address[]",
					"name": "admins",
					"type": "address[]"
				}
			],
			"stateMutability": "view",
			"type": "function"
		},
		{
			"inputs": [
				{
					"internalType": "address",
					"name": "creatorContractAddress",
					"type": "address"
				},
				{
					"internalType": "uint256",
					"name": "instanceId",
					"type": "uint256"
				}
			],
			"name": "getClaim",
			"outputs": [
				{
					"components": [
						{
							"internalType": "uint32",
							"name": "total",
							"type": "uint32"
						},
						{
							"internalType": "uint32",
							"name": "totalMax",
							"type": "uint32"
						},
						{
							"internalType": "uint32",
							"name": "walletMax",
							"type": "uint32"
						},
						{
							"internalType": "uint48",
							"name": "startDate",
							"type": "uint48"
						},
						{
							"internalType": "uint48",
							"name": "endDate",
							"type": "uint48"
						},
						{
							"internalType": "enum ILazyPayableClaim.StorageProtocol",
							"name": "storageProtocol",
							"type": "uint8"
						},
						{
							"internalType": "uint8",
							"name": "contractVersion",
							"type": "uint8"
						},
						{
							"internalType": "bool",
							"name": "identical",
							"type": "bool"
						},
						{
							"internalType": "bytes32",
							"name": "merkleRoot",
							"type": "bytes32"
						},
						{
							"internalType": "string",
							"name": "location",
							"type": "string"
						},
						{
							"internalType": "uint256",
							"name": "cost",
							"type": "uint256"
						},
						{
							"internalType": "address payable",
							"name": "paymentReceiver",
							"type": "address"
						},
						{
							"internalType": "address",
							"name": "erc20",
							"type": "address"
						},
						{
							"internalType": "address",
							"name": "signingAddress",
							"type": "address"
						}
					],
					"internalType": "struct IERC721LazyPayableClaim.Claim",
					"name": "",
					"type": "tuple"
				}
			],
			"stateMutability": "view",
			"type": "function"
		},
		{
			"inputs": [
				{
					"internalType": "address",
					"name": "creatorContractAddress",
					"type": "address"
				},
				{
					"internalType": "uint256",
					"name": "tokenId",
					"type": "uint256"
				}
			],
			"name": "getClaimForToken",
			"outputs": [
				{
					"internalType": "uint256",
					"name": "instanceId",
					"type": "uint256"
				},
				{
					"components": [
						{
							"internalType": "uint32",
							"name": "total",
							"type": "uint32"
						},
						{
							"internalType": "uint32",
							"name": "totalMax",
							"type": "uint32"
						},
						{
							"internalType": "uint32",
							"name": "walletMax",
							"type": "uint32"
						},
						{
							"internalType": "uint48",
							"name": "startDate",
							"type": "uint48"
						},
						{
							"internalType": "uint48",
							"name": "endDate",
							"type": "uint48"
						},
						{
							"internalType": "enum ILazyPayableClaim.StorageProtocol",
							"name": "storageProtocol",
							"type": "uint8"
						},
						{
							"internalType": "uint8",
							"name": "contractVersion",
							"type": "uint8"
						},
						{
							"internalType": "bool",
							"name": "identical",
							"type": "bool"
						},
						{
							"internalType": "bytes32",
							"name": "merkleRoot",
							"type": "bytes32"
						},
						{
							"internalType": "string",
							"name": "location",
							"type": "string"
						},
						{
							"internalType": "uint256",
							"name": "cost",
							"type": "uint256"
						},
						{
							"internalType": "address payable",
							"name": "paymentReceiver",
							"type": "address"
						},
						{
							"internalType": "address",
							"name": "erc20",
							"type": "address"
						},
						{
							"internalType": "address",
							"name": "signingAddress",
							"type": "address"
						}
					],
					"internalType": "struct IERC721LazyPayableClaim.Claim",
					"name": "claim",
					"type": "tuple"
				}
			],
			"stateMutability": "view",
			"type": "function"
		},
		{
			"inputs": [
				{
					"internalType": "address",
					"name": "minter",
					"type": "address"
				},
				{
					"internalType": "address",
					"name": "creatorContractAddress",
					"type": "address"
				},
				{
					"internalType": "uint256",
					"name": "instanceId",
					"type": "uint256"
				}
			],
			"name": "getTotalMints",
			"outputs": [
				{
					"internalType": "uint32",
					"name": "",
					"type": "uint32"
				}
			],
			"stateMutability": "view",
			"type": "function"
		},
		{
			"inputs": [
				{
					"internalType": "address",
					"name": "creatorContractAddress",
					"type": "address"
				},
				{
					"internalType": "uint256",
					"name": "instanceId",
					"type": "uint256"
				},
				{
					"components": [
						{
							"internalType": "uint32",
							"name": "totalMax",
							"type": "uint32"
						},
						{
							"internalType": "uint32",
							"name": "walletMax",
							"type": "uint32"
						},
						{
							"internalType": "uint48",
							"name": "startDate",
							"type": "uint48"
						},
						{
							"internalType": "uint48",
							"name": "endDate",
							"type": "uint48"
						},
						{
							"internalType": "enum ILazyPayableClaim.StorageProtocol",
							"name": "storageProtocol",
							"type": "uint8"
						},
						{
							"internalType": "bool",
							"name": "identical",
							"type": "bool"
						},
						{
							"internalType": "bytes32",
							"name": "merkleRoot",
							"type": "bytes32"
						},
						{
							"internalType": "string",
							"name": "location",
							"type": "string"
						},
						{
							"internalType": "uint256",
							"name": "cost",
							"type": "uint256"
						},
						{
							"internalType": "address payable",
							"name": "paymentReceiver",
							"type": "address"
						},
						{
							"internalType": "address",
							"name": "erc20",
							"type": "address"
						},
						{
							"internalType": "address",
							"name": "signingAddress",
							"type": "address"
						}
					],
					"internalType": "struct IERC721LazyPayableClaim.ClaimParameters",
					"name": "claimParameters",
					"type": "tuple"
				}
			],
			"name": "initializeClaim",
			"outputs": [],
			"stateMutability": "nonpayable",
			"type": "function"
		},
		{
			"inputs": [
				{
					"internalType": "address",
					"name": "admin",
					"type": "address"
				}
			],
			"name": "isAdmin",
			"outputs": [
				{
					"internalType": "bool",
					"name": "",
					"type": "bool"
				}
			],
			"stateMutability": "view",
			"type": "function"
		},
		{
			"inputs": [
				{
					"internalType": "address",
					"name": "creatorContractAddress",
					"type": "address"
				},
				{
					"internalType": "uint256",
					"name": "instanceId",
					"type": "uint256"
				},
				{
					"internalType": "uint32",
					"name": "mintIndex",
					"type": "uint32"
				},
				{
					"internalType": "bytes32[]",
					"name": "merkleProof",
					"type": "bytes32[]"
				},
				{
					"internalType": "address",
					"name": "mintFor",
					"type": "address"
				}
			],
			"name": "mint",
			"outputs": [],
			"stateMutability": "payable",
			"type": "function"
		},
		{
			"inputs": [
				{
					"internalType": "address",
					"name": "creatorContractAddress",
					"type": "address"
				},
				{
					"internalType": "uint256",
					"name": "instanceId",
					"type": "uint256"
				},
				{
					"internalType": "uint16",
					"name": "mintCount",
					"type": "uint16"
				},
				{
					"internalType": "uint32[]",
					"name": "mintIndices",
					"type": "uint32[]"
				},
				{
					"internalType": "bytes32[][]",
					"name": "merkleProofs",
					"type": "bytes32[][]"
				},
				{
					"internalType": "address",
					"name": "mintFor",
					"type": "address"
				}
			],
			"name": "mintBatch",
			"outputs": [],
			"stateMutability": "payable",
			"type": "function"
		},
		{
			"inputs": [
				{
					"internalType": "address",
					"name": "creatorContractAddress",
					"type": "address"
				},
				{
					"internalType": "uint256",
					"name": "instanceId",
					"type": "uint256"
				},
				{
					"internalType": "uint16",
					"name": "mintCount",
					"type": "uint16"
				},
				{
					"internalType": "uint32[]",
					"name": "mintIndices",
					"type": "uint32[]"
				},
				{
					"internalType": "bytes32[][]",
					"name": "merkleProofs",
					"type": "bytes32[][]"
				},
				{
					"internalType": "address",
					"name": "mintFor",
					"type": "address"
				}
			],
			"name": "mintProxy",
			"outputs": [],
			"stateMutability": "payable",
			"type": "function"
		},
		{
			"inputs": [
				{
					"internalType": "address",
					"name": "creatorContractAddress",
					"type": "address"
				},
				{
					"internalType": "uint256",
					"name": "instanceId",
					"type": "uint256"
				},
				{
					"internalType": "uint16",
					"name": "mintCount",
					"type": "uint16"
				},
				{
					"internalType": "bytes",
					"name": "signature",
					"type": "bytes"
				},
				{
					"internalType": "bytes32",
					"name": "message",
					"type": "bytes32"
				},
				{
					"internalType": "bytes32",
					"name": "nonce",
					"type": "bytes32"
				},
				{
					"internalType": "address",
					"name": "mintFor",
					"type": "address"
				}
			],
			"name": "mintSignature",
			"outputs": [],
			"stateMutability": "payable",
			"type": "function"
		},
		{
			"inputs": [],
			"name": "owner",
			"outputs": [
				{
					"internalType": "address",
					"name": "",
					"type": "address"
				}
			],
			"stateMutability": "view",
			"type": "function"
		},
		{
			"inputs": [],
			"name": "renounceOwnership",
			"outputs": [],
			"stateMutability": "nonpayable",
			"type": "function"
		},
		{
			"inputs": [
				{
					"internalType": "address",
					"name": "admin",
					"type": "address"
				}
			],
			"name": "revokeAdmin",
			"outputs": [],
			"stateMutability": "nonpayable",
			"type": "function"
		},
		{
			"inputs": [
				{
					"internalType": "address",
					"name": "membershipAddress",
					"type": "address"
				}
			],
			"name": "setMembershipAddress",
			"outputs": [],
			"stateMutability": "nonpayable",
			"type": "function"
		},
		{
			"inputs": [
				{
					"internalType": "bytes4",
					"name": "interfaceId",
					"type": "bytes4"
				}
			],
			"name": "supportsInterface",
			"outputs": [
				{
					"internalType": "bool",
					"name": "",
					"type": "bool"
				}
			],
			"stateMutability": "view",
			"type": "function"
		},
		{
			"inputs": [
				{
					"internalType": "address",
					"name": "creatorContractAddress",
					"type": "address"
				},
				{
					"internalType": "uint256",
					"name": "tokenId",
					"type": "uint256"
				}
			],
			"name": "tokenURI",
			"outputs": [
				{
					"internalType": "string",
					"name": "uri",
					"type": "string"
				}
			],
			"stateMutability": "view",
			"type": "function"
		},
		{
			"inputs": [
				{
					"internalType": "address",
					"name": "newOwner",
					"type": "address"
				}
			],
			"name": "transferOwnership",
			"outputs": [],
			"stateMutability": "nonpayable",
			"type": "function"
		},
		{
			"inputs": [
				{
					"internalType": "address",
					"name": "creatorContractAddress",
					"type": "address"
				},
				{
					"internalType": "uint256",
					"name": "instanceId",
					"type": "uint256"
				},
				{
					"components": [
						{
							"internalType": "uint32",
							"name": "totalMax",
							"type": "uint32"
						},
						{
							"internalType": "uint32",
							"name": "walletMax",
							"type": "uint32"
						},
						{
							"internalType": "uint48",
							"name": "startDate",
							"type": "uint48"
						},
						{
							"internalType": "uint48",
							"name": "endDate",
							"type": "uint48"
						},
						{
							"internalType": "enum ILazyPayableClaim.StorageProtocol",
							"name": "storageProtocol",
							"type": "uint8"
						},
						{
							"internalType": "bool",
							"name": "identical",
							"type": "bool"
						},
						{
							"internalType": "bytes32",
							"name": "merkleRoot",
							"type": "bytes32"
						},
						{
							"internalType": "string",
							"name": "location",
							"type": "string"
						},
						{
							"internalType": "uint256",
							"name": "cost",
							"type": "uint256"
						},
						{
							"internalType": "address payable",
							"name": "paymentReceiver",
							"type": "address"
						},
						{
							"internalType": "address",
							"name": "erc20",
							"type": "address"
						},
						{
							"internalType": "address",
							"name": "signingAddress",
							"type": "address"
						}
					],
					"internalType": "struct IERC721LazyPayableClaim.ClaimParameters",
					"name": "claimParameters",
					"type": "tuple"
				}
			],
			"name": "updateClaim",
			"outputs": [],
			"stateMutability": "nonpayable",
			"type": "function"
		},
		{
			"inputs": [
				{
					"internalType": "address",
					"name": "creatorContractAddress",
					"type": "address"
				},
				{
					"internalType": "uint256",
					"name": "instanceId",
					"type": "uint256"
				},
				{
					"internalType": "enum ILazyPayableClaim.StorageProtocol",
					"name": "storageProtocol",
					"type": "uint8"
				},
				{
					"internalType": "bool",
					"name": "identical",
					"type": "bool"
				},
				{
					"internalType": "string",
					"name": "location",
					"type": "string"
				}
			],
			"name": "updateTokenURIParams",
			"outputs": [],
			"stateMutability": "nonpayable",
			"type": "function"
		},
		{
			"inputs": [
				{
					"internalType": "address payable",
					"name": "receiver",
					"type": "address"
				},
				{
					"internalType": "uint256",
					"name": "amount",
					"type": "uint256"
				}
			],
			"name": "withdraw",
			"outputs": [],
			"stateMutability": "nonpayable",
			"type": "function"
		}
	]
}